{
  "_format": "hh-sol-artifact-1",
  "contractName": "BuySellSZT",
  "sourceName": "contracts/core/buySell/BuySellSZT.sol",
  "abi": [
    {
      "inputs": [
        {
          "internalType": "uint256",
          "name": "value",
          "type": "uint256"
        },
        {
          "internalType": "uint256",
          "name": "decimals",
          "type": "uint256"
        }
      ],
      "stateMutability": "nonpayable",
      "type": "constructor"
    },
    {
      "inputs": [],
      "name": "BaseUpgradeablePausable__ZeroAddressError",
      "type": "error"
    },
    {
      "inputs": [],
      "name": "BuySellSZT__AccessRestricted",
      "type": "error"
    },
    {
      "inputs": [],
      "name": "BuySellSZT__BurnFailedGSZT",
      "type": "error"
    },
    {
      "inputs": [],
      "name": "BuySellSZT__InitializedEarlierError",
      "type": "error"
    },
    {
      "inputs": [],
      "name": "BuySellSZT__LessThanMinimumAmountError",
      "type": "error"
    },
    {
      "inputs": [],
      "name": "BuySellSZT__MintFailedGSZT",
      "type": "error"
    },
    {
      "inputs": [],
      "name": "BuySellSZT__OperationPaused",
      "type": "error"
    },
    {
      "anonymous": false,
      "inputs": [
        {
          "indexed": true,
          "internalType": "address",
          "name": "addressUser",
          "type": "address"
        },
        {
          "indexed": true,
          "internalType": "uint256",
          "name": "amountInSZT",
          "type": "uint256"
        }
      ],
      "name": "BoughtSZT",
      "type": "event"
    },
    {
      "anonymous": false,
      "inputs": [
        {
          "indexed": false,
          "internalType": "uint8",
          "name": "version",
          "type": "uint8"
        }
      ],
      "name": "Initialized",
      "type": "event"
    },
    {
      "anonymous": false,
      "inputs": [
        {
          "indexed": true,
          "internalType": "address",
          "name": "addressUser",
          "type": "address"
        }
      ],
      "name": "InitializedContractBuySellSZT",
      "type": "event"
    },
    {
      "anonymous": false,
      "inputs": [
        {
          "indexed": true,
          "internalType": "address",
          "name": "addressUser",
          "type": "address"
        },
        {
          "indexed": true,
          "internalType": "uint256",
          "name": "amountInGSZT",
          "type": "uint256"
        }
      ],
      "name": "MintedGSZT",
      "type": "event"
    },
    {
      "anonymous": false,
      "inputs": [
        {
          "indexed": false,
          "internalType": "address",
          "name": "account",
          "type": "address"
        }
      ],
      "name": "Paused",
      "type": "event"
    },
    {
      "anonymous": false,
      "inputs": [
        {
          "indexed": true,
          "internalType": "bytes32",
          "name": "role",
          "type": "bytes32"
        },
        {
          "indexed": true,
          "internalType": "bytes32",
          "name": "previousAdminRole",
          "type": "bytes32"
        },
        {
          "indexed": true,
          "internalType": "bytes32",
          "name": "newAdminRole",
          "type": "bytes32"
        }
      ],
      "name": "RoleAdminChanged",
      "type": "event"
    },
    {
      "anonymous": false,
      "inputs": [
        {
          "indexed": true,
          "internalType": "bytes32",
          "name": "role",
          "type": "bytes32"
        },
        {
          "indexed": true,
          "internalType": "address",
          "name": "account",
          "type": "address"
        },
        {
          "indexed": true,
          "internalType": "address",
          "name": "sender",
          "type": "address"
        }
      ],
      "name": "RoleGranted",
      "type": "event"
    },
    {
      "anonymous": false,
      "inputs": [
        {
          "indexed": true,
          "internalType": "bytes32",
          "name": "role",
          "type": "bytes32"
        },
        {
          "indexed": true,
          "internalType": "address",
          "name": "account",
          "type": "address"
        },
        {
          "indexed": true,
          "internalType": "address",
          "name": "sender",
          "type": "address"
        }
      ],
      "name": "RoleRevoked",
      "type": "event"
    },
    {
      "anonymous": false,
      "inputs": [
        {
          "indexed": true,
          "internalType": "address",
          "name": "addressUser",
          "type": "address"
        },
        {
          "indexed": true,
          "internalType": "uint256",
          "name": "amountInSZT",
          "type": "uint256"
        }
      ],
      "name": "SoldSZT",
      "type": "event"
    },
    {
      "anonymous": false,
      "inputs": [
        {
          "indexed": false,
          "internalType": "address",
          "name": "account",
          "type": "address"
        }
      ],
      "name": "Unpaused",
      "type": "event"
    },
    {
      "inputs": [],
      "name": "DEFAULT_ADMIN_ROLE",
      "outputs": [
        {
          "internalType": "bytes32",
          "name": "",
          "type": "bytes32"
        }
      ],
      "stateMutability": "view",
      "type": "function"
    },
    {
      "inputs": [],
      "name": "SZT_BASE_PRICE",
      "outputs": [
        {
          "internalType": "uint256",
          "name": "",
          "type": "uint256"
        }
      ],
      "stateMutability": "view",
      "type": "function"
    },
    {
      "inputs": [],
      "name": "SZT_BASE_PRICE_WITH_DEC",
      "outputs": [
        {
          "internalType": "uint256",
          "name": "",
          "type": "uint256"
        }
      ],
      "stateMutability": "view",
      "type": "function"
    },
    {
      "inputs": [
        {
          "internalType": "address",
          "name": "owner",
          "type": "address"
        }
      ],
      "name": "__BaseUpgradeablePausable_init",
      "outputs": [],
      "stateMutability": "nonpayable",
      "type": "function"
    },
    {
      "inputs": [
        {
          "internalType": "address",
          "name": "addressUser",
          "type": "address"
        },
        {
          "internalType": "uint256",
          "name": "amountInSZT",
          "type": "uint256"
        }
      ],
      "name": "buyTokenSZT",
      "outputs": [
        {
          "internalType": "bool",
          "name": "",
          "type": "bool"
        }
      ],
      "stateMutability": "nonpayable",
      "type": "function"
    },
    {
      "inputs": [
        {
          "internalType": "uint256",
          "name": "issuedTokensSZT",
          "type": "uint256"
        },
        {
          "internalType": "uint256",
          "name": "requiredTokens",
          "type": "uint256"
        }
      ],
      "name": "calculatePriceSZT",
      "outputs": [
        {
          "internalType": "uint256",
          "name": "",
          "type": "uint256"
        },
        {
          "internalType": "uint256",
          "name": "",
          "type": "uint256"
        }
      ],
      "stateMutability": "view",
      "type": "function"
    },
    {
      "inputs": [],
      "name": "commonRatio",
      "outputs": [
        {
          "internalType": "uint256",
          "name": "",
          "type": "uint256"
        }
      ],
      "stateMutability": "view",
      "type": "function"
    },
    {
      "inputs": [],
      "name": "coveragePool",
      "outputs": [
        {
          "internalType": "contract ICoveragePool",
          "name": "",
          "type": "address"
        }
      ],
      "stateMutability": "view",
      "type": "function"
    },
    {
      "inputs": [],
      "name": "getRealTimePriceSZT",
      "outputs": [
        {
          "internalType": "uint256",
          "name": "",
          "type": "uint256"
        }
      ],
      "stateMutability": "view",
      "type": "function"
    },
    {
      "inputs": [
        {
          "internalType": "bytes32",
          "name": "role",
          "type": "bytes32"
        }
      ],
      "name": "getRoleAdmin",
      "outputs": [
        {
          "internalType": "bytes32",
          "name": "",
          "type": "bytes32"
        }
      ],
      "stateMutability": "view",
      "type": "function"
    },
    {
      "inputs": [],
      "name": "globalPauseOperation",
      "outputs": [
        {
          "internalType": "contract IGlobalPauseOperation",
          "name": "",
          "type": "address"
        }
      ],
      "stateMutability": "view",
      "type": "function"
    },
    {
      "inputs": [
        {
          "internalType": "bytes32",
          "name": "role",
          "type": "bytes32"
        },
        {
          "internalType": "address",
          "name": "account",
          "type": "address"
        }
      ],
      "name": "grantRole",
      "outputs": [],
      "stateMutability": "nonpayable",
      "type": "function"
    },
    {
      "inputs": [
        {
          "internalType": "bytes32",
          "name": "role",
          "type": "bytes32"
        },
        {
          "internalType": "address",
          "name": "account",
          "type": "address"
        }
      ],
      "name": "hasRole",
      "outputs": [
        {
          "internalType": "bool",
          "name": "",
          "type": "bool"
        }
      ],
      "stateMutability": "view",
      "type": "function"
    },
    {
      "inputs": [],
      "name": "ifNotPaused",
      "outputs": [],
      "stateMutability": "view",
      "type": "function"
    },
    {
      "inputs": [
        {
          "internalType": "address",
          "name": "addressSZT",
          "type": "address"
        },
        {
          "internalType": "address",
          "name": "addressGSZT",
          "type": "address"
        },
        {
          "internalType": "address",
          "name": "addressCoveragePool",
          "type": "address"
        },
        {
          "internalType": "address",
          "name": "addressGlobalPauseOperation",
          "type": "address"
        }
      ],
      "name": "init",
      "outputs": [],
      "stateMutability": "nonpayable",
      "type": "function"
    },
    {
      "inputs": [],
      "name": "initCounter",
      "outputs": [
        {
          "internalType": "uint256",
          "name": "",
          "type": "uint256"
        }
      ],
      "stateMutability": "view",
      "type": "function"
    },
    {
      "inputs": [],
      "name": "initialize",
      "outputs": [],
      "stateMutability": "nonpayable",
      "type": "function"
    },
    {
      "inputs": [],
      "name": "isAdmin",
      "outputs": [
        {
          "internalType": "bool",
          "name": "",
          "type": "bool"
        }
      ],
      "stateMutability": "view",
      "type": "function"
    },
    {
      "inputs": [],
      "name": "isModerator",
      "outputs": [
        {
          "internalType": "bool",
          "name": "",
          "type": "bool"
        }
      ],
      "stateMutability": "view",
      "type": "function"
    },
    {
      "inputs": [],
      "name": "pause",
      "outputs": [],
      "stateMutability": "nonpayable",
      "type": "function"
    },
    {
      "inputs": [],
      "name": "paused",
      "outputs": [
        {
          "internalType": "bool",
          "name": "",
          "type": "bool"
        }
      ],
      "stateMutability": "view",
      "type": "function"
    },
    {
      "inputs": [
        {
          "internalType": "bytes32",
          "name": "role",
          "type": "bytes32"
        },
        {
          "internalType": "address",
          "name": "account",
          "type": "address"
        }
      ],
      "name": "renounceRole",
      "outputs": [],
      "stateMutability": "nonpayable",
      "type": "function"
    },
    {
      "inputs": [
        {
          "internalType": "bytes32",
          "name": "role",
          "type": "bytes32"
        },
        {
          "internalType": "address",
          "name": "account",
          "type": "address"
        }
      ],
      "name": "revokeRole",
      "outputs": [],
      "stateMutability": "nonpayable",
      "type": "function"
    },
    {
      "inputs": [
        {
          "internalType": "address",
          "name": "addressUser",
          "type": "address"
        },
        {
          "internalType": "uint256",
          "name": "amountInSZT",
          "type": "uint256"
        },
        {
          "internalType": "uint256",
          "name": "tokenID",
          "type": "uint256"
        },
        {
          "internalType": "uint256",
          "name": "deadline",
          "type": "uint256"
        },
        {
          "internalType": "uint8",
          "name": "permitV",
          "type": "uint8"
        },
        {
          "internalType": "bytes32",
          "name": "permitR",
          "type": "bytes32"
        },
        {
          "internalType": "bytes32",
          "name": "permitS",
          "type": "bytes32"
        }
      ],
      "name": "sellTokenSZT",
      "outputs": [
        {
          "internalType": "bool",
          "name": "",
          "type": "bool"
        }
      ],
      "stateMutability": "nonpayable",
      "type": "function"
    },
    {
      "inputs": [
        {
          "internalType": "bytes4",
          "name": "interfaceId",
          "type": "bytes4"
        }
      ],
      "name": "supportsInterface",
      "outputs": [
        {
          "internalType": "bool",
          "name": "",
          "type": "bool"
        }
      ],
      "stateMutability": "view",
      "type": "function"
    },
    {
      "inputs": [],
      "name": "tokenCounter",
      "outputs": [
        {
          "internalType": "uint256",
          "name": "",
          "type": "uint256"
        }
      ],
      "stateMutability": "view",
      "type": "function"
    },
    {
      "inputs": [],
      "name": "tokenGSZT",
      "outputs": [
        {
          "internalType": "contract IERC20Extended",
          "name": "",
          "type": "address"
        }
      ],
      "stateMutability": "view",
      "type": "function"
    },
    {
      "inputs": [],
      "name": "tokenPermitGSZT",
      "outputs": [
        {
          "internalType": "contract IERC20PermitUpgradeable",
          "name": "",
          "type": "address"
        }
      ],
      "stateMutability": "view",
      "type": "function"
    },
    {
      "inputs": [],
      "name": "tokenSZT",
      "outputs": [
        {
          "internalType": "contract IERC20Upgradeable",
          "name": "",
          "type": "address"
        }
      ],
      "stateMutability": "view",
      "type": "function"
    },
    {
      "inputs": [],
      "name": "unpause",
      "outputs": [],
      "stateMutability": "nonpayable",
      "type": "function"
    }
  ],
  "bytecode": "0x60a06040523480156200001157600080fd5b50604051620040ee380380620040ee8339818101604052810190620000379190620000b7565b80600a62000046919062000281565b670de0b6b3a7640000836200005c9190620002d2565b62000068919062000362565b6080818152505050506200039a565b600080fd5b6000819050919050565b62000091816200007c565b81146200009d57600080fd5b50565b600081519050620000b18162000086565b92915050565b60008060408385031215620000d157620000d062000077565b5b6000620000e185828601620000a0565b9250506020620000f485828601620000a0565b9150509250929050565b7f4e487b7100000000000000000000000000000000000000000000000000000000600052601160045260246000fd5b60008160011c9050919050565b6000808291508390505b60018511156200018c57808604811115620001645762000163620000fe565b5b6001851615620001745780820291505b808102905062000184856200012d565b945062000144565b94509492505050565b600082620001a757600190506200027a565b81620001b757600090506200027a565b8160018114620001d05760028114620001db5762000211565b60019150506200027a565b60ff841115620001f057620001ef620000fe565b5b8360020a9150848211156200020a5762000209620000fe565b5b506200027a565b5060208310610133831016604e8410600b84101617156200024b5782820a905083811115620002455762000244620000fe565b5b6200027a565b6200025a84848460016200013a565b92509050818404811115620002745762000273620000fe565b5b81810290505b9392505050565b60006200028e826200007c565b91506200029b836200007c565b9250620002ca7fffffffffffffffffffffffffffffffffffffffffffffffffffffffffffffffff848462000195565b905092915050565b6000620002df826200007c565b9150620002ec836200007c565b9250817fffffffffffffffffffffffffffffffffffffffffffffffffffffffffffffffff0483118215151615620003285762000327620000fe565b5b828202905092915050565b7f4e487b7100000000000000000000000000000000000000000000000000000000600052601260045260246000fd5b60006200036f826200007c565b91506200037c836200007c565b9250826200038f576200038e62000333565b5b828204905092915050565b608051613d2a620003c460003960008181610a680152818161130b01526113a00152613d2a6000f3fe608060405234801561001057600080fd5b50600436106101da5760003560e01c80638456cb5911610104578063b96a2cc8116100a2578063d547741f11610071578063d547741f146104ed578063e1b874cb14610509578063f10002ed1461053a578063f2741c3814610558576101da565b8063b96a2cc814610475578063c61f2a7514610493578063d082e381146104b1578063d34356bc146104cf576101da565b8063946c5160116100de578063946c5160146103fd578063a217fddf1461041b578063aeabaff314610439578063b6db75a014610457576101da565b80638456cb59146103935780638a9ff47d1461039d57806391d14854146103cd576101da565b80633de7afb21161017c57806364063fdf1161014b57806364063fdf1461033157806364b862621461034f5780636e810b1a1461036d5780638129fc1c14610389576101da565b80633de7afb2146102e15780633f4ba83a146102ff5780634d868f98146103095780635c975abb14610313576101da565b8063248a9ca3116101b8578063248a9ca31461025b5780632f2ff15d1461028b57806336568abe146102a75780633dd419d0146102c3576101da565b806301ffc9a7146101df57806306552ff31461020f5780630ce053ce1461022b575b600080fd5b6101f960048036038101906101f491906129aa565b610576565b60405161020691906129f2565b60405180910390f35b61022960048036038101906102249190612a6b565b6105f0565b005b61024560048036038101906102409190612b08565b610821565b60405161025291906129f2565b60405180910390f35b61027560048036038101906102709190612b7e565b6109a2565b6040516102829190612bba565b60405180910390f35b6102a560048036038101906102a09190612bd5565b6109c2565b005b6102c160048036038101906102bc9190612bd5565b6109e3565b005b6102cb610a66565b6040516102d89190612c24565b60405180910390f35b6102e9610a8a565b6040516102f69190612c9e565b60405180910390f35b610307610ab1565b005b610311610b02565b005b61031b610bdc565b60405161032891906129f2565b60405180910390f35b610339610bf3565b6040516103469190612cda565b60405180910390f35b610357610c1a565b6040516103649190612d16565b60405180910390f35b61038760048036038101906103829190612d31565b610c40565b005b610391610d62565b005b61039b610ef2565b005b6103b760048036038101906103b29190612d97565b610f43565b6040516103c491906129f2565b60405180910390f35b6103e760048036038101906103e29190612bd5565b61120a565b6040516103f491906129f2565b60405180910390f35b610405611275565b6040516104129190612c24565b60405180910390f35b610423611282565b6040516104309190612bba565b60405180910390f35b610441611289565b60405161044e91906129f2565b60405180910390f35b61045f6112a8565b60405161046c91906129f2565b60405180910390f35b61047d6112c7565b60405161048a9190612c24565b60405180910390f35b61049b6112cc565b6040516104a89190612e5a565b60405180910390f35b6104b96112f2565b6040516104c69190612c24565b60405180910390f35b6104d76112f8565b6040516104e49190612c24565b60405180910390f35b61050760048036038101906105029190612bd5565b611376565b005b610523600480360381019061051e9190612e75565b611397565b604051610531929190612eb5565b60405180910390f35b610542611476565b60405161054f9190612eff565b60405180910390f35b61056061149c565b60405161056d9190612c24565b60405180910390f35b60007f7965db0b000000000000000000000000000000000000000000000000000000007bffffffffffffffffffffffffffffffffffffffffffffffffffffffff1916827bffffffffffffffffffffffffffffffffffffffffffffffffffffffff191614806105e957506105e8826114a2565b5b9050919050565b6105f86112a8565b610637576040517f08c379a000000000000000000000000000000000000000000000000000000000815260040161062e90612f9d565b60405180910390fd5b600060fb541115610674576040517fab1523d000000000000000000000000000000000000000000000000000000000815260040160405180910390fd5b60fb6000815461068390612fec565b919050819055508360fe60006101000a81548173ffffffffffffffffffffffffffffffffffffffff021916908373ffffffffffffffffffffffffffffffffffffffff1602179055508260fd60006101000a81548173ffffffffffffffffffffffffffffffffffffffff021916908373ffffffffffffffffffffffffffffffffffffffff1602179055508260ff60006101000a81548173ffffffffffffffffffffffffffffffffffffffff021916908373ffffffffffffffffffffffffffffffffffffffff1602179055508161010060006101000a81548173ffffffffffffffffffffffffffffffffffffffff021916908373ffffffffffffffffffffffffffffffffffffffff1602179055508061010160006101000a81548173ffffffffffffffffffffffffffffffffffffffff021916908373ffffffffffffffffffffffffffffffffffffffff1602179055506107d961150c565b73ffffffffffffffffffffffffffffffffffffffff167f5eef177c9bfde2cbcdaba1bc7ac3bdd5515bfd6cceeb4402257b2b788ea5e7d660405160405180910390a250505050565b600061082b611514565b610833610b02565b61083b611563565b670de0b6b3a764000060fc5410801561085b5750670de0b6b3a764000082105b15610892576040517f01fa618700000000000000000000000000000000000000000000000000000000815260040160405180910390fd5b8160fc60008282546108a49190613034565b925050819055506108ff6108b661150c565b8360fe60009054906101000a900473ffffffffffffffffffffffffffffffffffffffff1673ffffffffffffffffffffffffffffffffffffffff166115f49092919063ffffffff16565b600061090b848461167a565b905080610944576040517f2d78367700000000000000000000000000000000000000000000000000000000815260040160405180910390fd5b8261094d61150c565b73ffffffffffffffffffffffffffffffffffffffff167fe4a33255cd6c35e7230176250528e1c6b64222a9b59d96682399e3b74f01620860405160405180910390a3600191505061099c611939565b92915050565b600060976000838152602001908152602001600020600101549050919050565b6109cb826109a2565b6109d481611943565b6109de8383611957565b505050565b6109eb61150c565b73ffffffffffffffffffffffffffffffffffffffff168173ffffffffffffffffffffffffffffffffffffffff1614610a58576040517f08c379a0000000000000000000000000000000000000000000000000000000008152600401610a4f906130da565b60405180910390fd5b610a628282611a38565b5050565b7f000000000000000000000000000000000000000000000000000000000000000081565b61010060009054906101000a900473ffffffffffffffffffffffffffffffffffffffff1681565b610ab96112a8565b610af8576040517f08c379a0000000000000000000000000000000000000000000000000000000008152600401610aef90612f9d565b60405180910390fd5b610b00611b1a565b565b610b0a610bdc565b80610ba3575061010160009054906101000a900473ffffffffffffffffffffffffffffffffffffffff1673ffffffffffffffffffffffffffffffffffffffff1663b187bd266040518163ffffffff1660e01b8152600401602060405180830381865afa158015610b7e573d6000803e3d6000fd5b505050506040513d601f19601f82011682018060405250810190610ba29190613126565b5b15610bda576040517f5c9c41b000000000000000000000000000000000000000000000000000000000815260040160405180910390fd5b565b6000603360009054906101000a900460ff16905090565b61010160009054906101000a900473ffffffffffffffffffffffffffffffffffffffff1681565b60fd60009054906101000a900473ffffffffffffffffffffffffffffffffffffffff1681565b600060019054906101000a900460ff16610c8f576040517f08c379a0000000000000000000000000000000000000000000000000000000008152600401610c86906131c5565b60405180910390fd5b600073ffffffffffffffffffffffffffffffffffffffff168173ffffffffffffffffffffffffffffffffffffffff1603610cf5576040517f5415139400000000000000000000000000000000000000000000000000000000815260040160405180910390fd5b610cfd611b7d565b610d05611bd6565b610d0d611c27565b610d1e610d18611c80565b82611957565b610d2f610d29611ca8565b82611957565b610d47610d3a611ca8565b610d42611c80565b611cd0565b610d5f610d52611c80565b610d5a611c80565b611cd0565b50565b60008060019054906101000a900460ff16159050808015610d935750600160008054906101000a900460ff1660ff16105b80610dc05750610da230611d2c565b158015610dbf5750600160008054906101000a900460ff1660ff16145b5b610dff576040517f08c379a0000000000000000000000000000000000000000000000000000000008152600401610df690613257565b60405180910390fd5b60016000806101000a81548160ff021916908360ff1602179055508015610e3c576001600060016101000a81548160ff0219169083151502179055505b610e4c610e4761150c565b610c40565b610e5461150c565b73ffffffffffffffffffffffffffffffffffffffff167f5eef177c9bfde2cbcdaba1bc7ac3bdd5515bfd6cceeb4402257b2b788ea5e7d660405160405180910390a28015610eef5760008060016101000a81548160ff0219169083151502179055507f7f26b83ff96e1f2b6a682f133852f6798a09c465da95921460cefb38474024986001604051610ee691906132b2565b60405180910390a15b50565b610efa6112a8565b610f39576040517f08c379a0000000000000000000000000000000000000000000000000000000008152600401610f3090612f9d565b60405180910390fd5b610f41611d4f565b565b6000610f4d611514565b610f55610b02565b610f5d611563565b600060fc5490506000610f7b8983610f7591906132cd565b83611397565b9150508860fc6000828254610f9091906132cd565b92505081905550610fee8a308b8a8a8a8a60ff60009054906101000a900473ffffffffffffffffffffffffffffffffffffffff1673ffffffffffffffffffffffffffffffffffffffff16611db290979695949392919063ffffffff16565b600060fd60009054906101000a900473ffffffffffffffffffffffffffffffffffffffff1673ffffffffffffffffffffffffffffffffffffffff166379cc67908c61103f61103a61150c565b611f7f565b6040518363ffffffff1660e01b815260040161105c929190613310565b6020604051808303816000875af115801561107b573d6000803e3d6000fd5b505050506040513d601f19601f8201168201806040525081019061109f9190613126565b9050806110d8576040517f3416aa0300000000000000000000000000000000000000000000000000000000815260040160405180910390fd5b600061010060009054906101000a900473ffffffffffffffffffffffffffffffffffffffff1673ffffffffffffffffffffffffffffffffffffffff1663dc1ccde28b6040518263ffffffff1660e01b81526004016111369190612c24565b602060405180830381865afa158015611153573d6000803e3d6000fd5b505050506040513d601f19601f82011682018060405250810190611177919061334e565b90506111a48c848373ffffffffffffffffffffffffffffffffffffffff166115f49092919063ffffffff16565b8a6111ad61150c565b73ffffffffffffffffffffffffffffffffffffffff167f3afb798da6060b9f226d5531ffdbcc07dcd1789aa41a38f6610e3bc23fe28b4860405160405180910390a360019450505050506111ff611939565b979650505050505050565b60006097600084815260200190815260200160002060000160008373ffffffffffffffffffffffffffffffffffffffff1673ffffffffffffffffffffffffffffffffffffffff16815260200190815260200160002060009054906101000a900460ff16905092915050565b68056bc75e2d6310000081565b6000801b81565b60006112a3611296611ca8565b61129e61150c565b61120a565b905090565b60006112c26112b5611c80565b6112bd61150c565b61120a565b905090565b606481565b60fe60009054906101000a900473ffffffffffffffffffffffffffffffffffffffff1681565b60fc5481565b600080670de0b6b3a764000060fc5460647f0000000000000000000000000000000000000000000000000000000000000000611334919061337b565b61133e919061337b565b6113489190613404565b9050600081670de0b6b3a76400006064611362919061337b565b61136c9190613034565b9050809250505090565b61137f826109a2565b61138881611943565b6113928383611a38565b505050565b600080600060647f00000000000000000000000000000000000000000000000000000000000000006113c9919061337b565b90506000670de0b6b3a7640000856113e191906132cd565b866113ec9190613034565b90506000670de0b6b3a764000060028385611407919061337b565b6114119190613404565b61141b9190613404565b905060008168056bc75e2d631000006114349190613034565b90506000670de0b6b3a7640000898961144d91906132cd565b83611458919061337b565b6114629190613404565b905081819650965050505050509250929050565b60ff60009054906101000a900473ffffffffffffffffffffffffffffffffffffffff1681565b60fb5481565b60007f01ffc9a7000000000000000000000000000000000000000000000000000000007bffffffffffffffffffffffffffffffffffffffffffffffffffffffff1916827bffffffffffffffffffffffffffffffffffffffffffffffffffffffff1916149050919050565b600033905090565b600260c95403611559576040517f08c379a000000000000000000000000000000000000000000000000000000000815260040161155090613481565b60405180910390fd5b600260c981905550565b61010060009054906101000a900473ffffffffffffffffffffffffffffffffffffffff1673ffffffffffffffffffffffffffffffffffffffff166115a561150c565b73ffffffffffffffffffffffffffffffffffffffff16146115f2576040517f53d2739400000000000000000000000000000000000000000000000000000000815260040160405180910390fd5b565b6116758363a9059cbb60e01b8484604051602401611613929190613310565b604051602081830303815290604052907bffffffffffffffffffffffffffffffffffffffffffffffffffffffff19166020820180517bffffffffffffffffffffffffffffffffffffffffffffffffffffffff8381831617835250505050612196565b505050565b60008061010060009054906101000a900473ffffffffffffffffffffffffffffffffffffffff1673ffffffffffffffffffffffffffffffffffffffff1663f1403a01856040518263ffffffff1660e01b81526004016116d991906134a1565b602060405180830381865afa1580156116f6573d6000803e3d6000fd5b505050506040513d601f19601f8201168201806040525081019061171a91906134d1565b90506000611732828561172d9190613034565b61225d565b90506904d147ac315588b80000811161174b5780611759565b6002846117589190613404565b5b9050600060fd60009054906101000a900473ffffffffffffffffffffffffffffffffffffffff1673ffffffffffffffffffffffffffffffffffffffff166370a08231876040518263ffffffff1660e01b81526004016117b891906134a1565b602060405180830381865afa1580156117d5573d6000803e3d6000fd5b505050506040513d601f19601f820116820180604052508101906117f991906134d1565b90506000818361180991906132cd565b9050600060fd60009054906101000a900473ffffffffffffffffffffffffffffffffffffffff1673ffffffffffffffffffffffffffffffffffffffff166340c10f1989846040518363ffffffff1660e01b815260040161186a929190613310565b6020604051808303816000875af1158015611889573d6000803e3d6000fd5b505050506040513d601f19601f820116820180604052508101906118ad9190613126565b9050806118e6576040517f2d78367700000000000000000000000000000000000000000000000000000000815260040160405180910390fd5b818873ffffffffffffffffffffffffffffffffffffffff167f5d73e0af3182a9bb170d32b20cfc40e60cc31ef263a5515857abf6f0e86497e260405160405180910390a360019550505050505092915050565b600160c981905550565b6119548161194f61150c565b6122fe565b50565b611961828261120a565b611a345760016097600084815260200190815260200160002060000160008373ffffffffffffffffffffffffffffffffffffffff1673ffffffffffffffffffffffffffffffffffffffff16815260200190815260200160002060006101000a81548160ff0219169083151502179055506119d961150c565b73ffffffffffffffffffffffffffffffffffffffff168173ffffffffffffffffffffffffffffffffffffffff16837f2f8788117e7eff1d82e926ec794901d17c78024a50270940304540a733656f0d60405160405180910390a45b5050565b611a42828261120a565b15611b165760006097600084815260200190815260200160002060000160008373ffffffffffffffffffffffffffffffffffffffff1673ffffffffffffffffffffffffffffffffffffffff16815260200190815260200160002060006101000a81548160ff021916908315150217905550611abb61150c565b73ffffffffffffffffffffffffffffffffffffffff168173ffffffffffffffffffffffffffffffffffffffff16837ff6391f5c32d9c69d2a47ea670b442974b53935d1edc7fd64eb21e047a839171b60405160405180910390a45b5050565b611b22612383565b6000603360006101000a81548160ff0219169083151502179055507f5db9ee0a495bf2e6ff9c91a7834c1ba4fdd244a5e8aa4e537bd38aeae4b073aa611b6661150c565b604051611b7391906134a1565b60405180910390a1565b600060019054906101000a900460ff16611bcc576040517f08c379a0000000000000000000000000000000000000000000000000000000008152600401611bc3906131c5565b60405180910390fd5b611bd46123cc565b565b600060019054906101000a900460ff16611c25576040517f08c379a0000000000000000000000000000000000000000000000000000000008152600401611c1c906131c5565b60405180910390fd5b565b600060019054906101000a900460ff16611c76576040517f08c379a0000000000000000000000000000000000000000000000000000000008152600401611c6d906131c5565b60405180910390fd5b611c7e612438565b565b60007fa49807205ce4d355092ef5a8a18f56e8913cf4a201fbe287825b095693c21775905090565b60007f65d7a28e3265b37a6474929f336521b332c1681b933f6cb9f3376673440d862a905090565b6000611cdb836109a2565b90508160976000858152602001908152602001600020600101819055508181847fbd79b86ffe0ab8e8776151514217cd7cacd52c909f66475c3af44e129f0b00ff60405160405180910390a4505050565b6000808273ffffffffffffffffffffffffffffffffffffffff163b119050919050565b611d57612491565b6001603360006101000a81548160ff0219169083151502179055507f62e78cea01bee320cd4e420270b5ea74000d11b0c9f74754ebdbfc544b05a258611d9b61150c565b604051611da891906134a1565b60405180910390a1565b60008873ffffffffffffffffffffffffffffffffffffffff16637ecebe00896040518263ffffffff1660e01b8152600401611ded91906134a1565b602060405180830381865afa158015611e0a573d6000803e3d6000fd5b505050506040513d601f19601f82011682018060405250810190611e2e91906134d1565b90508873ffffffffffffffffffffffffffffffffffffffff1663d505accf898989898989896040518863ffffffff1660e01b8152600401611e75979695949392919061350d565b600060405180830381600087803b158015611e8f57600080fd5b505af1158015611ea3573d6000803e3d6000fd5b5050505060008973ffffffffffffffffffffffffffffffffffffffff16637ecebe008a6040518263ffffffff1660e01b8152600401611ee291906134a1565b602060405180830381865afa158015611eff573d6000803e3d6000fd5b505050506040513d601f19601f82011682018060405250810190611f2391906134d1565b9050600182611f329190613034565b8114611f73576040517f08c379a0000000000000000000000000000000000000000000000000000000008152600401611f6a906135ee565b60405180910390fd5b50505050505050505050565b60008060fe60009054906101000a900473ffffffffffffffffffffffffffffffffffffffff1673ffffffffffffffffffffffffffffffffffffffff166370a08231846040518263ffffffff1660e01b8152600401611fdd91906134a1565b602060405180830381865afa158015611ffa573d6000803e3d6000fd5b505050506040513d601f19601f8201168201806040525081019061201e91906134d1565b9050600061010060009054906101000a900473ffffffffffffffffffffffffffffffffffffffff1673ffffffffffffffffffffffffffffffffffffffff1663f1403a01856040518263ffffffff1660e01b815260040161207e91906134a1565b602060405180830381865afa15801561209b573d6000803e3d6000fd5b505050506040513d601f19601f820116820180604052508101906120bf91906134d1565b905060006120d782846120d29190613034565b61225d565b9050600060fd60009054906101000a900473ffffffffffffffffffffffffffffffffffffffff1673ffffffffffffffffffffffffffffffffffffffff166370a08231876040518263ffffffff1660e01b815260040161213691906134a1565b602060405180830381865afa158015612153573d6000803e3d6000fd5b505050506040513d601f19601f8201168201806040525081019061217791906134d1565b90506000828261218791906132cd565b90508095505050505050919050565b60006121f8826040518060400160405280602081526020017f5361666545524332303a206c6f772d6c6576656c2063616c6c206661696c65648152508573ffffffffffffffffffffffffffffffffffffffff166124db9092919063ffffffff16565b905060008151111561225857808060200190518101906122189190613126565b612257576040517f08c379a000000000000000000000000000000000000000000000000000000000815260040161224e90613680565b60405180910390fd5b5b505050565b60008061226d83601160026124f3565b6ec097ce7bc90715b34b9f10000000006064612289919061337b565b6122939190613404565b90506000670de0b6b3a764000060646122af86601660066124f3565b6122b99190613404565b6122c391906132cd565b90506000670de0b6b3a76400008583856122dd9190613034565b6122e7919061337b565b6122f19190613404565b9050809350505050919050565b612308828261120a565b61237f5761231581612552565b6123238360001c602061257f565b6040516020016123349291906137a9565b6040516020818303038152906040526040517f08c379a0000000000000000000000000000000000000000000000000000000008152600401612376919061382d565b60405180910390fd5b5050565b61238b610bdc565b6123ca576040517f08c379a00000000000000000000000000000000000000000000000000000000081526004016123c19061389b565b60405180910390fd5b565b600060019054906101000a900460ff1661241b576040517f08c379a0000000000000000000000000000000000000000000000000000000008152600401612412906131c5565b60405180910390fd5b6000603360006101000a81548160ff021916908315150217905550565b600060019054906101000a900460ff16612487576040517f08c379a000000000000000000000000000000000000000000000000000000000815260040161247e906131c5565b60405180910390fd5b600160c981905550565b612499610bdc565b156124d9576040517f08c379a00000000000000000000000000000000000000000000000000000000081526004016124d090613907565b60405180910390fd5b565b60606124ea84846000856127bb565b90509392505050565b60008082600a6125039190613a5a565b905060008186606487612516919061337b565b612520919061337b565b61252a9190613404565b905060008168056bc75e2d631000006125439190613034565b90508093505050509392505050565b60606125788273ffffffffffffffffffffffffffffffffffffffff16601460ff1661257f565b9050919050565b606060006002836002612592919061337b565b61259c9190613034565b67ffffffffffffffff8111156125b5576125b4613aa5565b5b6040519080825280601f01601f1916602001820160405280156125e75781602001600182028036833780820191505090505b5090507f30000000000000000000000000000000000000000000000000000000000000008160008151811061261f5761261e613ad4565b5b60200101907effffffffffffffffffffffffffffffffffffffffffffffffffffffffffffff1916908160001a9053507f78000000000000000000000000000000000000000000000000000000000000008160018151811061268357612682613ad4565b5b60200101907effffffffffffffffffffffffffffffffffffffffffffffffffffffffffffff1916908160001a905350600060018460026126c3919061337b565b6126cd9190613034565b90505b600181111561276d577f3031323334353637383961626364656600000000000000000000000000000000600f86166010811061270f5761270e613ad4565b5b1a60f81b82828151811061272657612725613ad4565b5b60200101907effffffffffffffffffffffffffffffffffffffffffffffffffffffffffffff1916908160001a905350600485901c94508061276690613b03565b90506126d0565b50600084146127b1576040517f08c379a00000000000000000000000000000000000000000000000000000000081526004016127a890613b78565b60405180910390fd5b8091505092915050565b606082471015612800576040517f08c379a00000000000000000000000000000000000000000000000000000000081526004016127f790613c0a565b60405180910390fd5b6000808673ffffffffffffffffffffffffffffffffffffffff1685876040516128299190613c71565b60006040518083038185875af1925050503d8060008114612866576040519150601f19603f3d011682016040523d82523d6000602084013e61286b565b606091505b509150915061287c87838387612888565b92505050949350505050565b606083156128ea5760008351036128e2576128a285611d2c565b6128e1576040517f08c379a00000000000000000000000000000000000000000000000000000000081526004016128d890613cd4565b60405180910390fd5b5b8290506128f5565b6128f483836128fd565b5b949350505050565b6000825111156129105781518083602001fd5b806040517f08c379a0000000000000000000000000000000000000000000000000000000008152600401612944919061382d565b60405180910390fd5b600080fd5b60007fffffffff0000000000000000000000000000000000000000000000000000000082169050919050565b61298781612952565b811461299257600080fd5b50565b6000813590506129a48161297e565b92915050565b6000602082840312156129c0576129bf61294d565b5b60006129ce84828501612995565b91505092915050565b60008115159050919050565b6129ec816129d7565b82525050565b6000602082019050612a0760008301846129e3565b92915050565b600073ffffffffffffffffffffffffffffffffffffffff82169050919050565b6000612a3882612a0d565b9050919050565b612a4881612a2d565b8114612a5357600080fd5b50565b600081359050612a6581612a3f565b92915050565b60008060008060808587031215612a8557612a8461294d565b5b6000612a9387828801612a56565b9450506020612aa487828801612a56565b9350506040612ab587828801612a56565b9250506060612ac687828801612a56565b91505092959194509250565b6000819050919050565b612ae581612ad2565b8114612af057600080fd5b50565b600081359050612b0281612adc565b92915050565b60008060408385031215612b1f57612b1e61294d565b5b6000612b2d85828601612a56565b9250506020612b3e85828601612af3565b9150509250929050565b6000819050919050565b612b5b81612b48565b8114612b6657600080fd5b50565b600081359050612b7881612b52565b92915050565b600060208284031215612b9457612b9361294d565b5b6000612ba284828501612b69565b91505092915050565b612bb481612b48565b82525050565b6000602082019050612bcf6000830184612bab565b92915050565b60008060408385031215612bec57612beb61294d565b5b6000612bfa85828601612b69565b9250506020612c0b85828601612a56565b9150509250929050565b612c1e81612ad2565b82525050565b6000602082019050612c396000830184612c15565b92915050565b6000819050919050565b6000612c64612c5f612c5a84612a0d565b612c3f565b612a0d565b9050919050565b6000612c7682612c49565b9050919050565b6000612c8882612c6b565b9050919050565b612c9881612c7d565b82525050565b6000602082019050612cb36000830184612c8f565b92915050565b6000612cc482612c6b565b9050919050565b612cd481612cb9565b82525050565b6000602082019050612cef6000830184612ccb565b92915050565b6000612d0082612c6b565b9050919050565b612d1081612cf5565b82525050565b6000602082019050612d2b6000830184612d07565b92915050565b600060208284031215612d4757612d4661294d565b5b6000612d5584828501612a56565b91505092915050565b600060ff82169050919050565b612d7481612d5e565b8114612d7f57600080fd5b50565b600081359050612d9181612d6b565b92915050565b600080600080600080600060e0888a031215612db657612db561294d565b5b6000612dc48a828b01612a56565b9750506020612dd58a828b01612af3565b9650506040612de68a828b01612af3565b9550506060612df78a828b01612af3565b9450506080612e088a828b01612d82565b93505060a0612e198a828b01612b69565b92505060c0612e2a8a828b01612b69565b91505092959891949750929550565b6000612e4482612c6b565b9050919050565b612e5481612e39565b82525050565b6000602082019050612e6f6000830184612e4b565b92915050565b60008060408385031215612e8c57612e8b61294d565b5b6000612e9a85828601612af3565b9250506020612eab85828601612af3565b9150509250929050565b6000604082019050612eca6000830185612c15565b612ed76020830184612c15565b9392505050565b6000612ee982612c6b565b9050919050565b612ef981612ede565b82525050565b6000602082019050612f146000830184612ef0565b92915050565b600082825260208201905092915050565b7f4d75737420686176652061646d696e20726f6c6520746f20706572666f726d2060008201527f7468697320616374696f6e2e0000000000000000000000000000000000000000602082015250565b6000612f87602c83612f1a565b9150612f9282612f2b565b604082019050919050565b60006020820190508181036000830152612fb681612f7a565b9050919050565b7f4e487b7100000000000000000000000000000000000000000000000000000000600052601160045260246000fd5b6000612ff782612ad2565b91507fffffffffffffffffffffffffffffffffffffffffffffffffffffffffffffffff820361302957613028612fbd565b5b600182019050919050565b600061303f82612ad2565b915061304a83612ad2565b925082820190508082111561306257613061612fbd565b5b92915050565b7f416363657373436f6e74726f6c3a2063616e206f6e6c792072656e6f756e636560008201527f20726f6c657320666f722073656c660000000000000000000000000000000000602082015250565b60006130c4602f83612f1a565b91506130cf82613068565b604082019050919050565b600060208201905081810360008301526130f3816130b7565b9050919050565b613103816129d7565b811461310e57600080fd5b50565b600081519050613120816130fa565b92915050565b60006020828403121561313c5761313b61294d565b5b600061314a84828501613111565b91505092915050565b7f496e697469616c697a61626c653a20636f6e7472616374206973206e6f74206960008201527f6e697469616c697a696e67000000000000000000000000000000000000000000602082015250565b60006131af602b83612f1a565b91506131ba82613153565b604082019050919050565b600060208201905081810360008301526131de816131a2565b9050919050565b7f496e697469616c697a61626c653a20636f6e747261637420697320616c72656160008201527f647920696e697469616c697a6564000000000000000000000000000000000000602082015250565b6000613241602e83612f1a565b915061324c826131e5565b604082019050919050565b6000602082019050818103600083015261327081613234565b9050919050565b6000819050919050565b600061329c61329761329284613277565b612c3f565b612d5e565b9050919050565b6132ac81613281565b82525050565b60006020820190506132c760008301846132a3565b92915050565b60006132d882612ad2565b91506132e383612ad2565b92508282039050818111156132fb576132fa612fbd565b5b92915050565b61330a81612a2d565b82525050565b60006040820190506133256000830185613301565b6133326020830184612c15565b9392505050565b60008151905061334881612a3f565b92915050565b6000602082840312156133645761336361294d565b5b600061337284828501613339565b91505092915050565b600061338682612ad2565b915061339183612ad2565b9250817fffffffffffffffffffffffffffffffffffffffffffffffffffffffffffffffff04831182151516156133ca576133c9612fbd565b5b828202905092915050565b7f4e487b7100000000000000000000000000000000000000000000000000000000600052601260045260246000fd5b600061340f82612ad2565b915061341a83612ad2565b92508261342a576134296133d5565b5b828204905092915050565b7f5265656e7472616e637947756172643a207265656e7472616e742063616c6c00600082015250565b600061346b601f83612f1a565b915061347682613435565b602082019050919050565b6000602082019050818103600083015261349a8161345e565b9050919050565b60006020820190506134b66000830184613301565b92915050565b6000815190506134cb81612adc565b92915050565b6000602082840312156134e7576134e661294d565b5b60006134f5848285016134bc565b91505092915050565b61350781612d5e565b82525050565b600060e082019050613522600083018a613301565b61352f6020830189613301565b61353c6040830188612c15565b6135496060830187612c15565b61355660808301866134fe565b61356360a0830185612bab565b61357060c0830184612bab565b98975050505050505050565b7f5361666545524332303a207065726d697420646964206e6f742073756363656560008201527f6400000000000000000000000000000000000000000000000000000000000000602082015250565b60006135d8602183612f1a565b91506135e38261357c565b604082019050919050565b60006020820190508181036000830152613607816135cb565b9050919050565b7f5361666545524332303a204552433230206f7065726174696f6e20646964206e60008201527f6f74207375636365656400000000000000000000000000000000000000000000602082015250565b600061366a602a83612f1a565b91506136758261360e565b604082019050919050565b600060208201905081810360008301526136998161365d565b9050919050565b600081905092915050565b7f416363657373436f6e74726f6c3a206163636f756e7420000000000000000000600082015250565b60006136e16017836136a0565b91506136ec826136ab565b601782019050919050565b600081519050919050565b60005b83811015613720578082015181840152602081019050613705565b60008484015250505050565b6000613737826136f7565b61374181856136a0565b9350613751818560208601613702565b80840191505092915050565b7f206973206d697373696e6720726f6c6520000000000000000000000000000000600082015250565b60006137936011836136a0565b915061379e8261375d565b601182019050919050565b60006137b4826136d4565b91506137c0828561372c565b91506137cb82613786565b91506137d7828461372c565b91508190509392505050565b6000601f19601f8301169050919050565b60006137ff826136f7565b6138098185612f1a565b9350613819818560208601613702565b613822816137e3565b840191505092915050565b6000602082019050818103600083015261384781846137f4565b905092915050565b7f5061757361626c653a206e6f7420706175736564000000000000000000000000600082015250565b6000613885601483612f1a565b91506138908261384f565b602082019050919050565b600060208201905081810360008301526138b481613878565b9050919050565b7f5061757361626c653a2070617573656400000000000000000000000000000000600082015250565b60006138f1601083612f1a565b91506138fc826138bb565b602082019050919050565b60006020820190508181036000830152613920816138e4565b9050919050565b60008160011c9050919050565b6000808291508390505b600185111561397e5780860481111561395a57613959612fbd565b5b60018516156139695780820291505b808102905061397785613927565b945061393e565b94509492505050565b6000826139975760019050613a53565b816139a55760009050613a53565b81600181146139bb57600281146139c5576139f4565b6001915050613a53565b60ff8411156139d7576139d6612fbd565b5b8360020a9150848211156139ee576139ed612fbd565b5b50613a53565b5060208310610133831016604e8410600b8410161715613a295782820a905083811115613a2457613a23612fbd565b5b613a53565b613a368484846001613934565b92509050818404811115613a4d57613a4c612fbd565b5b81810290505b9392505050565b6000613a6582612ad2565b9150613a7083612ad2565b9250613a9d7fffffffffffffffffffffffffffffffffffffffffffffffffffffffffffffffff8484613987565b905092915050565b7f4e487b7100000000000000000000000000000000000000000000000000000000600052604160045260246000fd5b7f4e487b7100000000000000000000000000000000000000000000000000000000600052603260045260246000fd5b6000613b0e82612ad2565b915060008203613b2157613b20612fbd565b5b600182039050919050565b7f537472696e67733a20686578206c656e67746820696e73756666696369656e74600082015250565b6000613b62602083612f1a565b9150613b6d82613b2c565b602082019050919050565b60006020820190508181036000830152613b9181613b55565b9050919050565b7f416464726573733a20696e73756666696369656e742062616c616e636520666f60008201527f722063616c6c0000000000000000000000000000000000000000000000000000602082015250565b6000613bf4602683612f1a565b9150613bff82613b98565b604082019050919050565b60006020820190508181036000830152613c2381613be7565b9050919050565b600081519050919050565b600081905092915050565b6000613c4b82613c2a565b613c558185613c35565b9350613c65818560208601613702565b80840191505092915050565b6000613c7d8284613c40565b915081905092915050565b7f416464726573733a2063616c6c20746f206e6f6e2d636f6e7472616374000000600082015250565b6000613cbe601d83612f1a565b9150613cc982613c88565b602082019050919050565b60006020820190508181036000830152613ced81613cb1565b905091905056fea264697066735822122007e337eabb6a36d41d7ac924cf7d2f607b2bce49e5287bc499c7d7adbdf246f764736f6c63430008100033",
  "linkReferences": {},
  "deployedLinkReferences": {}
}