{
  "_format": "hh-sol-artifact-1",
  "contractName": "BuySellSZT",
  "sourceName": "contracts/core/buySell/BuySellSZT.sol",
  "abi": [
    {
      "inputs": [
        {
          "internalType": "uint256",
          "name": "value",
          "type": "uint256"
        },
        {
          "internalType": "uint256",
          "name": "decimals",
          "type": "uint256"
        },
        {
          "internalType": "address",
          "name": "tokenDAI",
          "type": "address"
        }
      ],
      "stateMutability": "nonpayable",
      "type": "constructor"
    },
    {
      "inputs": [],
      "name": "BaseUpgradeablePausable__ZeroAddressError",
      "type": "error"
    },
    {
      "inputs": [],
      "name": "BuySellSZT__GSZTBurnFailedError",
      "type": "error"
    },
    {
      "inputs": [],
      "name": "BuySellSZT__ImmutableChangesError",
      "type": "error"
    },
    {
      "inputs": [],
      "name": "BuySellSZT__LowAmountError",
      "type": "error"
    },
    {
      "inputs": [],
      "name": "BuySellSZT__LowSZTBalanceError",
      "type": "error"
    },
    {
      "inputs": [],
      "name": "BuySellSZT__PausedError",
      "type": "error"
    },
    {
      "inputs": [],
      "name": "BuySellSZT__TransactionFailedError",
      "type": "error"
    },
    {
      "inputs": [],
      "name": "BuySellSZT__ZeroAddressTransactionError",
      "type": "error"
    },
    {
      "inputs": [],
      "name": "BuySellSZT_mintGSZT__MintFailedError",
      "type": "error"
    },
    {
      "inputs": [],
      "name": "BuySellSZT_sellSZTToken__TxnFailedError",
      "type": "error"
    },
    {
      "anonymous": false,
      "inputs": [
        {
          "indexed": true,
          "internalType": "address",
          "name": "userAddress",
          "type": "address"
        },
        {
          "indexed": false,
          "internalType": "uint256",
          "name": "value",
          "type": "uint256"
        }
      ],
      "name": "BoughtSZT",
      "type": "event"
    },
    {
      "anonymous": false,
      "inputs": [
        {
          "indexed": true,
          "internalType": "address",
          "name": "userAddress",
          "type": "address"
        },
        {
          "indexed": false,
          "internalType": "uint256",
          "name": "value",
          "type": "uint256"
        }
      ],
      "name": "GSZTBurn",
      "type": "event"
    },
    {
      "anonymous": false,
      "inputs": [
        {
          "indexed": true,
          "internalType": "address",
          "name": "userAddress",
          "type": "address"
        },
        {
          "indexed": false,
          "internalType": "uint256",
          "name": "value",
          "type": "uint256"
        }
      ],
      "name": "GSZTMint",
      "type": "event"
    },
    {
      "anonymous": false,
      "inputs": [
        {
          "indexed": true,
          "internalType": "address",
          "name": "investorAddress",
          "type": "address"
        },
        {
          "indexed": true,
          "internalType": "address",
          "name": "newInvestorAddress",
          "type": "address"
        },
        {
          "indexed": false,
          "internalType": "uint256",
          "name": "value",
          "type": "uint256"
        }
      ],
      "name": "GSZTOwnershipTransferred",
      "type": "event"
    },
    {
      "anonymous": false,
      "inputs": [
        {
          "indexed": false,
          "internalType": "uint8",
          "name": "version",
          "type": "uint8"
        }
      ],
      "name": "Initialized",
      "type": "event"
    },
    {
      "anonymous": false,
      "inputs": [
        {
          "indexed": false,
          "internalType": "address",
          "name": "account",
          "type": "address"
        }
      ],
      "name": "Paused",
      "type": "event"
    },
    {
      "anonymous": false,
      "inputs": [
        {
          "indexed": true,
          "internalType": "bytes32",
          "name": "role",
          "type": "bytes32"
        },
        {
          "indexed": true,
          "internalType": "bytes32",
          "name": "previousAdminRole",
          "type": "bytes32"
        },
        {
          "indexed": true,
          "internalType": "bytes32",
          "name": "newAdminRole",
          "type": "bytes32"
        }
      ],
      "name": "RoleAdminChanged",
      "type": "event"
    },
    {
      "anonymous": false,
      "inputs": [
        {
          "indexed": true,
          "internalType": "bytes32",
          "name": "role",
          "type": "bytes32"
        },
        {
          "indexed": true,
          "internalType": "address",
          "name": "account",
          "type": "address"
        },
        {
          "indexed": true,
          "internalType": "address",
          "name": "sender",
          "type": "address"
        }
      ],
      "name": "RoleGranted",
      "type": "event"
    },
    {
      "anonymous": false,
      "inputs": [
        {
          "indexed": true,
          "internalType": "bytes32",
          "name": "role",
          "type": "bytes32"
        },
        {
          "indexed": true,
          "internalType": "address",
          "name": "account",
          "type": "address"
        },
        {
          "indexed": true,
          "internalType": "address",
          "name": "sender",
          "type": "address"
        }
      ],
      "name": "RoleRevoked",
      "type": "event"
    },
    {
      "anonymous": false,
      "inputs": [
        {
          "indexed": true,
          "internalType": "address",
          "name": "userAddress",
          "type": "address"
        },
        {
          "indexed": false,
          "internalType": "uint256",
          "name": "value",
          "type": "uint256"
        }
      ],
      "name": "SoldSZT",
      "type": "event"
    },
    {
      "anonymous": false,
      "inputs": [
        {
          "indexed": true,
          "internalType": "address",
          "name": "from",
          "type": "address"
        },
        {
          "indexed": true,
          "internalType": "address",
          "name": "to",
          "type": "address"
        },
        {
          "indexed": false,
          "internalType": "uint256",
          "name": "value",
          "type": "uint256"
        }
      ],
      "name": "TransferredSZT",
      "type": "event"
    },
    {
      "anonymous": false,
      "inputs": [
        {
          "indexed": false,
          "internalType": "address",
          "name": "account",
          "type": "address"
        }
      ],
      "name": "Unpaused",
      "type": "event"
    },
    {
      "inputs": [],
      "name": "DEFAULT_ADMIN_ROLE",
      "outputs": [
        {
          "internalType": "bytes32",
          "name": "",
          "type": "bytes32"
        }
      ],
      "stateMutability": "view",
      "type": "function"
    },
    {
      "inputs": [
        {
          "internalType": "address",
          "name": "owner",
          "type": "address"
        }
      ],
      "name": "__BaseUpgradeablePausable_init",
      "outputs": [],
      "stateMutability": "nonpayable",
      "type": "function"
    },
    {
      "inputs": [
        {
          "internalType": "address",
          "name": "userAddress",
          "type": "address"
        },
        {
          "internalType": "uint256",
          "name": "amountInSZT",
          "type": "uint256"
        }
      ],
      "name": "buySZTToken",
      "outputs": [
        {
          "internalType": "bool",
          "name": "",
          "type": "bool"
        }
      ],
      "stateMutability": "nonpayable",
      "type": "function"
    },
    {
      "inputs": [
        {
          "internalType": "uint256",
          "name": "issuedSZTTokens",
          "type": "uint256"
        },
        {
          "internalType": "uint256",
          "name": "requiredTokens",
          "type": "uint256"
        }
      ],
      "name": "calculatePriceSZT",
      "outputs": [
        {
          "internalType": "uint256",
          "name": "",
          "type": "uint256"
        },
        {
          "internalType": "uint256",
          "name": "",
          "type": "uint256"
        }
      ],
      "stateMutability": "view",
      "type": "function"
    },
    {
      "inputs": [],
      "name": "getBasePriceSZT",
      "outputs": [
        {
          "internalType": "uint256",
          "name": "",
          "type": "uint256"
        }
      ],
      "stateMutability": "pure",
      "type": "function"
    },
    {
      "inputs": [],
      "name": "getCommonRatio",
      "outputs": [
        {
          "internalType": "uint256",
          "name": "",
          "type": "uint256"
        }
      ],
      "stateMutability": "view",
      "type": "function"
    },
    {
      "inputs": [
        {
          "internalType": "bytes32",
          "name": "role",
          "type": "bytes32"
        }
      ],
      "name": "getRoleAdmin",
      "outputs": [
        {
          "internalType": "bytes32",
          "name": "",
          "type": "bytes32"
        }
      ],
      "stateMutability": "view",
      "type": "function"
    },
    {
      "inputs": [],
      "name": "getTokenCounter",
      "outputs": [
        {
          "internalType": "uint256",
          "name": "",
          "type": "uint256"
        }
      ],
      "stateMutability": "view",
      "type": "function"
    },
    {
      "inputs": [
        {
          "internalType": "bytes32",
          "name": "role",
          "type": "bytes32"
        },
        {
          "internalType": "address",
          "name": "account",
          "type": "address"
        }
      ],
      "name": "grantRole",
      "outputs": [],
      "stateMutability": "nonpayable",
      "type": "function"
    },
    {
      "inputs": [
        {
          "internalType": "bytes32",
          "name": "role",
          "type": "bytes32"
        },
        {
          "internalType": "address",
          "name": "account",
          "type": "address"
        }
      ],
      "name": "hasRole",
      "outputs": [
        {
          "internalType": "bool",
          "name": "",
          "type": "bool"
        }
      ],
      "stateMutability": "view",
      "type": "function"
    },
    {
      "inputs": [
        {
          "internalType": "address",
          "name": "safeZenTokenAddress",
          "type": "address"
        },
        {
          "internalType": "address",
          "name": "coveragePoolAddress",
          "type": "address"
        },
        {
          "internalType": "address",
          "name": "safezenGovernanceTokenCA",
          "type": "address"
        },
        {
          "internalType": "address",
          "name": "pauseOperationAddress",
          "type": "address"
        }
      ],
      "name": "init",
      "outputs": [],
      "stateMutability": "nonpayable",
      "type": "function"
    },
    {
      "inputs": [],
      "name": "initialize",
      "outputs": [],
      "stateMutability": "nonpayable",
      "type": "function"
    },
    {
      "inputs": [],
      "name": "isAdmin",
      "outputs": [
        {
          "internalType": "bool",
          "name": "",
          "type": "bool"
        }
      ],
      "stateMutability": "view",
      "type": "function"
    },
    {
      "inputs": [],
      "name": "pause",
      "outputs": [],
      "stateMutability": "nonpayable",
      "type": "function"
    },
    {
      "inputs": [],
      "name": "paused",
      "outputs": [
        {
          "internalType": "bool",
          "name": "",
          "type": "bool"
        }
      ],
      "stateMutability": "view",
      "type": "function"
    },
    {
      "inputs": [
        {
          "internalType": "bytes32",
          "name": "role",
          "type": "bytes32"
        },
        {
          "internalType": "address",
          "name": "account",
          "type": "address"
        }
      ],
      "name": "renounceRole",
      "outputs": [],
      "stateMutability": "nonpayable",
      "type": "function"
    },
    {
      "inputs": [
        {
          "internalType": "bytes32",
          "name": "role",
          "type": "bytes32"
        },
        {
          "internalType": "address",
          "name": "account",
          "type": "address"
        }
      ],
      "name": "revokeRole",
      "outputs": [],
      "stateMutability": "nonpayable",
      "type": "function"
    },
    {
      "inputs": [
        {
          "internalType": "address",
          "name": "userAddress",
          "type": "address"
        },
        {
          "internalType": "uint256",
          "name": "value",
          "type": "uint256"
        },
        {
          "internalType": "uint256",
          "name": "deadline",
          "type": "uint256"
        },
        {
          "internalType": "uint8",
          "name": "v",
          "type": "uint8"
        },
        {
          "internalType": "bytes32",
          "name": "r",
          "type": "bytes32"
        },
        {
          "internalType": "bytes32",
          "name": "s",
          "type": "bytes32"
        }
      ],
      "name": "sellSZTToken",
      "outputs": [
        {
          "internalType": "bool",
          "name": "",
          "type": "bool"
        }
      ],
      "stateMutability": "nonpayable",
      "type": "function"
    },
    {
      "inputs": [
        {
          "internalType": "bytes4",
          "name": "interfaceId",
          "type": "bytes4"
        }
      ],
      "name": "supportsInterface",
      "outputs": [
        {
          "internalType": "bool",
          "name": "",
          "type": "bool"
        }
      ],
      "stateMutability": "view",
      "type": "function"
    },
    {
      "inputs": [],
      "name": "unpause",
      "outputs": [],
      "stateMutability": "nonpayable",
      "type": "function"
    },
    {
      "inputs": [],
      "name": "viewSZTCurrentPrice",
      "outputs": [
        {
          "internalType": "uint256",
          "name": "",
          "type": "uint256"
        }
      ],
      "stateMutability": "view",
      "type": "function"
    }
  ],
  "bytecode": "0x60e06040523480156200001157600080fd5b5060405162003ca738038062003ca7833981810160405281019062000037919062000185565b8073ffffffffffffffffffffffffffffffffffffffff1660a08173ffffffffffffffffffffffffffffffffffffffff16815250508073ffffffffffffffffffffffffffffffffffffffff1660c08173ffffffffffffffffffffffffffffffffffffffff168152505081600a620000ae919062000364565b670de0b6b3a764000084620000c49190620003b5565b620000d0919062000445565b608081815250505050506200047d565b600080fd5b6000819050919050565b620000fa81620000e5565b81146200010657600080fd5b50565b6000815190506200011a81620000ef565b92915050565b600073ffffffffffffffffffffffffffffffffffffffff82169050919050565b60006200014d8262000120565b9050919050565b6200015f8162000140565b81146200016b57600080fd5b50565b6000815190506200017f8162000154565b92915050565b600080600060608486031215620001a157620001a0620000e0565b5b6000620001b18682870162000109565b9350506020620001c48682870162000109565b9250506040620001d7868287016200016e565b9150509250925092565b7f4e487b7100000000000000000000000000000000000000000000000000000000600052601160045260246000fd5b60008160011c9050919050565b6000808291508390505b60018511156200026f57808604811115620002475762000246620001e1565b5b6001851615620002575780820291505b8081029050620002678562000210565b945062000227565b94509492505050565b6000826200028a57600190506200035d565b816200029a57600090506200035d565b8160018114620002b35760028114620002be57620002f4565b60019150506200035d565b60ff841115620002d357620002d2620001e1565b5b8360020a915084821115620002ed57620002ec620001e1565b5b506200035d565b5060208310610133831016604e8410600b84101617156200032e5782820a905083811115620003285762000327620001e1565b5b6200035d565b6200033d84848460016200021d565b92509050818404811115620003575762000356620001e1565b5b81810290505b9392505050565b60006200037182620000e5565b91506200037e83620000e5565b9250620003ad7fffffffffffffffffffffffffffffffffffffffffffffffffffffffffffffffff848462000278565b905092915050565b6000620003c282620000e5565b9150620003cf83620000e5565b9250817fffffffffffffffffffffffffffffffffffffffffffffffffffffffffffffffff04831182151516156200040b576200040a620001e1565b5b828202905092915050565b7f4e487b7100000000000000000000000000000000000000000000000000000000600052601260045260246000fd5b60006200045282620000e5565b91506200045f83620000e5565b92508262000472576200047162000416565b5b828204905092915050565b60805160a05160c0516137ef620004b8600039600050506000610f9d01526000818161066d01528181610d5d01526110cf01526137ef6000f3fe608060405234801561001057600080fd5b50600436106101375760003560e01c80636e02007d116100b85780639a251ad71161007c5780639a251ad714610302578063a217fddf14610320578063b32063e21461033e578063b6db75a01461036e578063d547741f1461038c578063e1b874cb146103a857610137565b80636e02007d146102845780636e810b1a146102a25780638129fc1c146102be5780638456cb59146102c857806391d14854146102d257610137565b806336568abe116100ff57806336568abe146101f25780633f4ba83a1461020e5780634c5cd77f14610218578063520c4948146102365780635c975abb1461026657610137565b806301ffc9a71461013c57806306552ff31461016c578063248a9ca3146101885780632c6e46b3146101b85780632f2ff15d146101d6575b600080fd5b61015660048036038101906101519190612626565b6103d9565b604051610163919061266e565b60405180910390f35b610186600480360381019061018191906126e7565b610453565b005b6101a2600480360381019061019d9190612784565b61063a565b6040516101af91906127c0565b60405180910390f35b6101c061065a565b6040516101cd91906127f4565b60405180910390f35b6101f060048036038101906101eb919061280f565b6106d8565b005b61020c6004803603810190610207919061280f565b6106f9565b005b61021661077c565b005b6102206107cd565b60405161022d91906127f4565b60405180910390f35b610250600480360381019061024b919061287b565b6107de565b60405161025d919061266e565b60405180910390f35b61026e610a14565b60405161027b919061266e565b60405180910390f35b61028c610a2b565b60405161029991906127f4565b60405180910390f35b6102bc60048036038101906102b791906128bb565b610a35565b005b6102c6610b57565b005b6102d0610c9d565b005b6102ec60048036038101906102e7919061280f565b610cee565b6040516102f9919061266e565b60405180910390f35b61030a610d59565b60405161031791906127f4565b60405180910390f35b610328610d81565b60405161033591906127c0565b60405180910390f35b61035860048036038101906103539190612921565b610d88565b604051610365919061266e565b60405180910390f35b610376611086565b604051610383919061266e565b60405180910390f35b6103a660048036038101906103a1919061280f565b6110a5565b005b6103c260048036038101906103bd91906129ae565b6110c6565b6040516103d09291906129ee565b60405180910390f35b60007f7965db0b000000000000000000000000000000000000000000000000000000007bffffffffffffffffffffffffffffffffffffffffffffffffffffffff1916827bffffffffffffffffffffffffffffffffffffffffffffffffffffffff1916148061044c575061044b826111a5565b5b9050919050565b61045b611086565b61049a576040517f08c379a000000000000000000000000000000000000000000000000000000000815260040161049190612a9a565b60405180910390fd5b600060fb5411156104d7576040517fb03d416100000000000000000000000000000000000000000000000000000000815260040160405180910390fd5b60fb600081546104e690612ae9565b919050819055508360fe60006101000a81548173ffffffffffffffffffffffffffffffffffffffff021916908373ffffffffffffffffffffffffffffffffffffffff1602179055508160ff60006101000a81548173ffffffffffffffffffffffffffffffffffffffff021916908373ffffffffffffffffffffffffffffffffffffffff1602179055508261010060006101000a81548173ffffffffffffffffffffffffffffffffffffffff021916908373ffffffffffffffffffffffffffffffffffffffff1602179055508160fd60006101000a81548173ffffffffffffffffffffffffffffffffffffffff021916908373ffffffffffffffffffffffffffffffffffffffff1602179055508061010160006101000a81548173ffffffffffffffffffffffffffffffffffffffff021916908373ffffffffffffffffffffffffffffffffffffffff16021790555050505050565b600060976000838152602001908152602001600020600101549050919050565b600080670de0b6b3a764000060fc5460647f00000000000000000000000000000000000000000000000000000000000000006106969190612b31565b6106a09190612b31565b6106aa9190612bba565b9050600081670de0b6b3a764000060646106c49190612b31565b6106ce9190612beb565b9050809250505090565b6106e18261063a565b6106ea8161120f565b6106f48383611223565b505050565b610701611304565b73ffffffffffffffffffffffffffffffffffffffff168173ffffffffffffffffffffffffffffffffffffffff161461076e576040517f08c379a000000000000000000000000000000000000000000000000000000000815260040161076590612c91565b60405180910390fd5b610778828261130c565b5050565b610784611086565b6107c3576040517f08c379a00000000000000000000000000000000000000000000000000000000081526004016107ba90612a9a565b60405180910390fd5b6107cb6113ee565b565b600068056bc75e2d63100000905090565b6000600115156107ec610a14565b15151415801561089257506001151561010160009054906101000a900473ffffffffffffffffffffffffffffffffffffffff1673ffffffffffffffffffffffffffffffffffffffff1663b187bd266040518163ffffffff1660e01b8152600401602060405180830381865afa158015610869573d6000803e3d6000fd5b505050506040513d601f19601f8201168201806040525081019061088d9190612cdd565b151514155b61089b57600080fd5b6108a3611451565b670de0b6b3a764000060fc541080156108c35750670de0b6b3a764000082105b156108fa576040517f525af1e000000000000000000000000000000000000000000000000000000000815260040160405180910390fd5b8160fc600082825461090c9190612beb565b9250508190555061096761091e611304565b8360fe60009054906101000a900473ffffffffffffffffffffffffffffffffffffffff1673ffffffffffffffffffffffffffffffffffffffff166114a09092919063ffffffff16565b60006109738484611526565b9050806109ac576040517ff25cb4db00000000000000000000000000000000000000000000000000000000815260040160405180910390fd5b6109b4611304565b73ffffffffffffffffffffffffffffffffffffffff167fe4a33255cd6c35e7230176250528e1c6b64222a9b59d96682399e3b74f016208846040516109f991906127f4565b60405180910390a26001915050610a0e6117ef565b92915050565b6000603360009054906101000a900460ff16905090565b600060fc54905090565b600060019054906101000a900460ff16610a84576040517f08c379a0000000000000000000000000000000000000000000000000000000008152600401610a7b90612d7c565b60405180910390fd5b600073ffffffffffffffffffffffffffffffffffffffff168173ffffffffffffffffffffffffffffffffffffffff1603610aea576040517f5415139400000000000000000000000000000000000000000000000000000000815260040160405180910390fd5b610af26117f9565b610afa611852565b610b026118a3565b610b13610b0d6118fc565b82611223565b610b24610b1e611924565b82611223565b610b3c610b2f611924565b610b376118fc565b61194c565b610b54610b476118fc565b610b4f6118fc565b61194c565b50565b60008060019054906101000a900460ff16159050808015610b885750600160008054906101000a900460ff1660ff16105b80610bb55750610b97306119a8565b158015610bb45750600160008054906101000a900460ff1660ff16145b5b610bf4576040517f08c379a0000000000000000000000000000000000000000000000000000000008152600401610beb90612e0e565b60405180910390fd5b60016000806101000a81548160ff021916908360ff1602179055508015610c31576001600060016101000a81548160ff0219169083151502179055505b610c41610c3c611304565b610a35565b8015610c9a5760008060016101000a81548160ff0219169083151502179055507f7f26b83ff96e1f2b6a682f133852f6798a09c465da95921460cefb38474024986001604051610c919190612e73565b60405180910390a15b50565b610ca5611086565b610ce4576040517f08c379a0000000000000000000000000000000000000000000000000000000008152600401610cdb90612a9a565b60405180910390fd5b610cec6119cb565b565b60006097600084815260200190815260200160002060000160008373ffffffffffffffffffffffffffffffffffffffff1673ffffffffffffffffffffffffffffffffffffffff16815260200190815260200160002060009054906101000a900460ff16905092915050565b60007f0000000000000000000000000000000000000000000000000000000000000000905090565b6000801b81565b600060011515610d96610a14565b151514158015610e3c57506001151561010160009054906101000a900473ffffffffffffffffffffffffffffffffffffffff1673ffffffffffffffffffffffffffffffffffffffff1663b187bd266040518163ffffffff1660e01b8152600401602060405180830381865afa158015610e13573d6000803e3d6000fd5b505050506040513d601f19601f82011682018060405250810190610e379190612cdd565b151514155b610e4557600080fd5b610e4d611451565b6000610e57610a2b565b90506000610e708883610e6a9190612e8e565b836110c6565b9150508760fc6000828254610e859190612e8e565b92505081905550610ee389308a8a8a8a8a60ff60009054906101000a900473ffffffffffffffffffffffffffffffffffffffff1673ffffffffffffffffffffffffffffffffffffffff16611a2e90979695949392919063ffffffff16565b600060fd60009054906101000a900473ffffffffffffffffffffffffffffffffffffffff1673ffffffffffffffffffffffffffffffffffffffff166379cc67908b610f34610f2f611304565b611bfb565b6040518363ffffffff1660e01b8152600401610f51929190612ed1565b6020604051808303816000875af1158015610f70573d6000803e3d6000fd5b505050506040513d601f19601f82011682018060405250810190610f949190612cdd565b9050610fe18a837f000000000000000000000000000000000000000000000000000000000000000073ffffffffffffffffffffffffffffffffffffffff166114a09092919063ffffffff16565b80611018576040517f7561959e00000000000000000000000000000000000000000000000000000000815260040160405180910390fd5b611020611304565b73ffffffffffffffffffffffffffffffffffffffff167f3afb798da6060b9f226d5531ffdbcc07dcd1789aa41a38f6610e3bc23fe28b488a60405161106591906127f4565b60405180910390a26001935050505061107c6117ef565b9695505050505050565b60006110a06110936118fc565b61109b611304565b610cee565b905090565b6110ae8261063a565b6110b78161120f565b6110c1838361130c565b505050565b600080600060647f00000000000000000000000000000000000000000000000000000000000000006110f89190612b31565b90506000670de0b6b3a7640000856111109190612e8e565b8661111b9190612beb565b90506000670de0b6b3a7640000600283856111369190612b31565b6111409190612bba565b61114a9190612bba565b905060008168056bc75e2d631000006111639190612beb565b90506000670de0b6b3a7640000898961117c9190612e8e565b836111879190612b31565b6111919190612bba565b905081819650965050505050509250929050565b60007f01ffc9a7000000000000000000000000000000000000000000000000000000007bffffffffffffffffffffffffffffffffffffffffffffffffffffffff1916827bffffffffffffffffffffffffffffffffffffffffffffffffffffffff1916149050919050565b6112208161121b611304565b611e12565b50565b61122d8282610cee565b6113005760016097600084815260200190815260200160002060000160008373ffffffffffffffffffffffffffffffffffffffff1673ffffffffffffffffffffffffffffffffffffffff16815260200190815260200160002060006101000a81548160ff0219169083151502179055506112a5611304565b73ffffffffffffffffffffffffffffffffffffffff168173ffffffffffffffffffffffffffffffffffffffff16837f2f8788117e7eff1d82e926ec794901d17c78024a50270940304540a733656f0d60405160405180910390a45b5050565b600033905090565b6113168282610cee565b156113ea5760006097600084815260200190815260200160002060000160008373ffffffffffffffffffffffffffffffffffffffff1673ffffffffffffffffffffffffffffffffffffffff16815260200190815260200160002060006101000a81548160ff02191690831515021790555061138f611304565b73ffffffffffffffffffffffffffffffffffffffff168173ffffffffffffffffffffffffffffffffffffffff16837ff6391f5c32d9c69d2a47ea670b442974b53935d1edc7fd64eb21e047a839171b60405160405180910390a45b5050565b6113f6611e97565b6000603360006101000a81548160ff0219169083151502179055507f5db9ee0a495bf2e6ff9c91a7834c1ba4fdd244a5e8aa4e537bd38aeae4b073aa61143a611304565b6040516114479190612efa565b60405180910390a1565b600260c95403611496576040517f08c379a000000000000000000000000000000000000000000000000000000000815260040161148d90612f61565b60405180910390fd5b600260c981905550565b6115218363a9059cbb60e01b84846040516024016114bf929190612ed1565b604051602081830303815290604052907bffffffffffffffffffffffffffffffffffffffffffffffffffffffff19166020820180517bffffffffffffffffffffffffffffffffffffffffffffffffffffffff8381831617835250505050611ee0565b505050565b60008061010060009054906101000a900473ffffffffffffffffffffffffffffffffffffffff1673ffffffffffffffffffffffffffffffffffffffff1663e452c2b0856040518263ffffffff1660e01b81526004016115859190612efa565b602060405180830381865afa1580156115a2573d6000803e3d6000fd5b505050506040513d601f19601f820116820180604052508101906115c69190612f96565b905060006115de82856115d99190612beb565b611fa7565b90506904d147ac315588b8000081116115f75780611605565b6002846116049190612bba565b5b9050600060fd60009054906101000a900473ffffffffffffffffffffffffffffffffffffffff1673ffffffffffffffffffffffffffffffffffffffff166370a08231876040518263ffffffff1660e01b81526004016116649190612efa565b602060405180830381865afa158015611681573d6000803e3d6000fd5b505050506040513d601f19601f820116820180604052508101906116a59190612f96565b9050600081836116b59190612e8e565b9050600060fd60009054906101000a900473ffffffffffffffffffffffffffffffffffffffff1673ffffffffffffffffffffffffffffffffffffffff166340c10f1989846040518363ffffffff1660e01b8152600401611716929190612ed1565b6020604051808303816000875af1158015611735573d6000803e3d6000fd5b505050506040513d601f19601f820116820180604052508101906117599190612cdd565b905080611792576040517fa0cb2aec00000000000000000000000000000000000000000000000000000000815260040160405180910390fd5b8773ffffffffffffffffffffffffffffffffffffffff167f5fdb703fee593aa28e88bc065865a2e277c471528b73d7bea8e88cae5f6ca257836040516117d891906127f4565b60405180910390a260019550505050505092915050565b600160c981905550565b600060019054906101000a900460ff16611848576040517f08c379a000000000000000000000000000000000000000000000000000000000815260040161183f90612d7c565b60405180910390fd5b611850612048565b565b600060019054906101000a900460ff166118a1576040517f08c379a000000000000000000000000000000000000000000000000000000000815260040161189890612d7c565b60405180910390fd5b565b600060019054906101000a900460ff166118f2576040517f08c379a00000000000000000000000000000000000000000000000000000000081526004016118e990612d7c565b60405180910390fd5b6118fa6120b4565b565b60007fa49807205ce4d355092ef5a8a18f56e8913cf4a201fbe287825b095693c21775905090565b60007f65d7a28e3265b37a6474929f336521b332c1681b933f6cb9f3376673440d862a905090565b60006119578361063a565b90508160976000858152602001908152602001600020600101819055508181847fbd79b86ffe0ab8e8776151514217cd7cacd52c909f66475c3af44e129f0b00ff60405160405180910390a4505050565b6000808273ffffffffffffffffffffffffffffffffffffffff163b119050919050565b6119d361210d565b6001603360006101000a81548160ff0219169083151502179055507f62e78cea01bee320cd4e420270b5ea74000d11b0c9f74754ebdbfc544b05a258611a17611304565b604051611a249190612efa565b60405180910390a1565b60008873ffffffffffffffffffffffffffffffffffffffff16637ecebe00896040518263ffffffff1660e01b8152600401611a699190612efa565b602060405180830381865afa158015611a86573d6000803e3d6000fd5b505050506040513d601f19601f82011682018060405250810190611aaa9190612f96565b90508873ffffffffffffffffffffffffffffffffffffffff1663d505accf898989898989896040518863ffffffff1660e01b8152600401611af19796959493929190612fd2565b600060405180830381600087803b158015611b0b57600080fd5b505af1158015611b1f573d6000803e3d6000fd5b5050505060008973ffffffffffffffffffffffffffffffffffffffff16637ecebe008a6040518263ffffffff1660e01b8152600401611b5e9190612efa565b602060405180830381865afa158015611b7b573d6000803e3d6000fd5b505050506040513d601f19601f82011682018060405250810190611b9f9190612f96565b9050600182611bae9190612beb565b8114611bef576040517f08c379a0000000000000000000000000000000000000000000000000000000008152600401611be6906130b3565b60405180910390fd5b50505050505050505050565b60008060fe60009054906101000a900473ffffffffffffffffffffffffffffffffffffffff1673ffffffffffffffffffffffffffffffffffffffff166370a08231846040518263ffffffff1660e01b8152600401611c599190612efa565b602060405180830381865afa158015611c76573d6000803e3d6000fd5b505050506040513d601f19601f82011682018060405250810190611c9a9190612f96565b9050600061010060009054906101000a900473ffffffffffffffffffffffffffffffffffffffff1673ffffffffffffffffffffffffffffffffffffffff1663e452c2b0856040518263ffffffff1660e01b8152600401611cfa9190612efa565b602060405180830381865afa158015611d17573d6000803e3d6000fd5b505050506040513d601f19601f82011682018060405250810190611d3b9190612f96565b90506000611d538284611d4e9190612beb565b611fa7565b9050600060fd60009054906101000a900473ffffffffffffffffffffffffffffffffffffffff1673ffffffffffffffffffffffffffffffffffffffff166370a08231876040518263ffffffff1660e01b8152600401611db29190612efa565b602060405180830381865afa158015611dcf573d6000803e3d6000fd5b505050506040513d601f19601f82011682018060405250810190611df39190612f96565b905060008282611e039190612e8e565b90508095505050505050919050565b611e1c8282610cee565b611e9357611e2981612157565b611e378360001c6020612184565b604051602001611e489291906131dc565b6040516020818303038152906040526040517f08c379a0000000000000000000000000000000000000000000000000000000008152600401611e8a9190613260565b60405180910390fd5b5050565b611e9f610a14565b611ede576040517f08c379a0000000000000000000000000000000000000000000000000000000008152600401611ed5906132ce565b60405180910390fd5b565b6000611f42826040518060400160405280602081526020017f5361666545524332303a206c6f772d6c6576656c2063616c6c206661696c65648152508573ffffffffffffffffffffffffffffffffffffffff166123c09092919063ffffffff16565b9050600081511115611fa25780806020019051810190611f629190612cdd565b611fa1576040517f08c379a0000000000000000000000000000000000000000000000000000000008152600401611f9890613360565b60405180910390fd5b5b505050565b600080611fb783601160026123d8565b6ec097ce7bc90715b34b9f10000000006064611fd39190612b31565b611fdd9190612bba565b90506000670de0b6b3a76400006064611ff986601660066123d8565b6120039190612bba565b61200d9190612e8e565b90506000670de0b6b3a76400008583856120279190612beb565b6120319190612b31565b61203b9190612bba565b9050809350505050919050565b600060019054906101000a900460ff16612097576040517f08c379a000000000000000000000000000000000000000000000000000000000815260040161208e90612d7c565b60405180910390fd5b6000603360006101000a81548160ff021916908315150217905550565b600060019054906101000a900460ff16612103576040517f08c379a00000000000000000000000000000000000000000000000000000000081526004016120fa90612d7c565b60405180910390fd5b600160c981905550565b612115610a14565b15612155576040517f08c379a000000000000000000000000000000000000000000000000000000000815260040161214c906133cc565b60405180910390fd5b565b606061217d8273ffffffffffffffffffffffffffffffffffffffff16601460ff16612184565b9050919050565b6060600060028360026121979190612b31565b6121a19190612beb565b67ffffffffffffffff8111156121ba576121b96133ec565b5b6040519080825280601f01601f1916602001820160405280156121ec5781602001600182028036833780820191505090505b5090507f3000000000000000000000000000000000000000000000000000000000000000816000815181106122245761222361341b565b5b60200101907effffffffffffffffffffffffffffffffffffffffffffffffffffffffffffff1916908160001a9053507f7800000000000000000000000000000000000000000000000000000000000000816001815181106122885761228761341b565b5b60200101907effffffffffffffffffffffffffffffffffffffffffffffffffffffffffffff1916908160001a905350600060018460026122c89190612b31565b6122d29190612beb565b90505b6001811115612372577f3031323334353637383961626364656600000000000000000000000000000000600f8616601081106123145761231361341b565b5b1a60f81b82828151811061232b5761232a61341b565b5b60200101907effffffffffffffffffffffffffffffffffffffffffffffffffffffffffffff1916908160001a905350600485901c94508061236b9061344a565b90506122d5565b50600084146123b6576040517f08c379a00000000000000000000000000000000000000000000000000000000081526004016123ad906134bf565b60405180910390fd5b8091505092915050565b60606123cf8484600085612437565b90509392505050565b60008082600a6123e89190613612565b9050600081866064876123fb9190612b31565b6124059190612b31565b61240f9190612bba565b905060008168056bc75e2d631000006124289190612beb565b90508093505050509392505050565b60608247101561247c576040517f08c379a0000000000000000000000000000000000000000000000000000000008152600401612473906136cf565b60405180910390fd5b6000808673ffffffffffffffffffffffffffffffffffffffff1685876040516124a59190613736565b60006040518083038185875af1925050503d80600081146124e2576040519150601f19603f3d011682016040523d82523d6000602084013e6124e7565b606091505b50915091506124f887838387612504565b92505050949350505050565b6060831561256657600083510361255e5761251e856119a8565b61255d576040517f08c379a000000000000000000000000000000000000000000000000000000000815260040161255490613799565b60405180910390fd5b5b829050612571565b6125708383612579565b5b949350505050565b60008251111561258c5781518083602001fd5b806040517f08c379a00000000000000000000000000000000000000000000000000000000081526004016125c09190613260565b60405180910390fd5b600080fd5b60007fffffffff0000000000000000000000000000000000000000000000000000000082169050919050565b612603816125ce565b811461260e57600080fd5b50565b600081359050612620816125fa565b92915050565b60006020828403121561263c5761263b6125c9565b5b600061264a84828501612611565b91505092915050565b60008115159050919050565b61266881612653565b82525050565b6000602082019050612683600083018461265f565b92915050565b600073ffffffffffffffffffffffffffffffffffffffff82169050919050565b60006126b482612689565b9050919050565b6126c4816126a9565b81146126cf57600080fd5b50565b6000813590506126e1816126bb565b92915050565b60008060008060808587031215612701576127006125c9565b5b600061270f878288016126d2565b9450506020612720878288016126d2565b9350506040612731878288016126d2565b9250506060612742878288016126d2565b91505092959194509250565b6000819050919050565b6127618161274e565b811461276c57600080fd5b50565b60008135905061277e81612758565b92915050565b60006020828403121561279a576127996125c9565b5b60006127a88482850161276f565b91505092915050565b6127ba8161274e565b82525050565b60006020820190506127d560008301846127b1565b92915050565b6000819050919050565b6127ee816127db565b82525050565b600060208201905061280960008301846127e5565b92915050565b60008060408385031215612826576128256125c9565b5b60006128348582860161276f565b9250506020612845858286016126d2565b9150509250929050565b612858816127db565b811461286357600080fd5b50565b6000813590506128758161284f565b92915050565b60008060408385031215612892576128916125c9565b5b60006128a0858286016126d2565b92505060206128b185828601612866565b9150509250929050565b6000602082840312156128d1576128d06125c9565b5b60006128df848285016126d2565b91505092915050565b600060ff82169050919050565b6128fe816128e8565b811461290957600080fd5b50565b60008135905061291b816128f5565b92915050565b60008060008060008060c0878903121561293e5761293d6125c9565b5b600061294c89828a016126d2565b965050602061295d89828a01612866565b955050604061296e89828a01612866565b945050606061297f89828a0161290c565b935050608061299089828a0161276f565b92505060a06129a189828a0161276f565b9150509295509295509295565b600080604083850312156129c5576129c46125c9565b5b60006129d385828601612866565b92505060206129e485828601612866565b9150509250929050565b6000604082019050612a0360008301856127e5565b612a1060208301846127e5565b9392505050565b600082825260208201905092915050565b7f4d75737420686176652061646d696e20726f6c6520746f20706572666f726d2060008201527f7468697320616374696f6e2e0000000000000000000000000000000000000000602082015250565b6000612a84602c83612a17565b9150612a8f82612a28565b604082019050919050565b60006020820190508181036000830152612ab381612a77565b9050919050565b7f4e487b7100000000000000000000000000000000000000000000000000000000600052601160045260246000fd5b6000612af4826127db565b91507fffffffffffffffffffffffffffffffffffffffffffffffffffffffffffffffff8203612b2657612b25612aba565b5b600182019050919050565b6000612b3c826127db565b9150612b47836127db565b9250817fffffffffffffffffffffffffffffffffffffffffffffffffffffffffffffffff0483118215151615612b8057612b7f612aba565b5b828202905092915050565b7f4e487b7100000000000000000000000000000000000000000000000000000000600052601260045260246000fd5b6000612bc5826127db565b9150612bd0836127db565b925082612be057612bdf612b8b565b5b828204905092915050565b6000612bf6826127db565b9150612c01836127db565b9250828201905080821115612c1957612c18612aba565b5b92915050565b7f416363657373436f6e74726f6c3a2063616e206f6e6c792072656e6f756e636560008201527f20726f6c657320666f722073656c660000000000000000000000000000000000602082015250565b6000612c7b602f83612a17565b9150612c8682612c1f565b604082019050919050565b60006020820190508181036000830152612caa81612c6e565b9050919050565b612cba81612653565b8114612cc557600080fd5b50565b600081519050612cd781612cb1565b92915050565b600060208284031215612cf357612cf26125c9565b5b6000612d0184828501612cc8565b91505092915050565b7f496e697469616c697a61626c653a20636f6e7472616374206973206e6f74206960008201527f6e697469616c697a696e67000000000000000000000000000000000000000000602082015250565b6000612d66602b83612a17565b9150612d7182612d0a565b604082019050919050565b60006020820190508181036000830152612d9581612d59565b9050919050565b7f496e697469616c697a61626c653a20636f6e747261637420697320616c72656160008201527f647920696e697469616c697a6564000000000000000000000000000000000000602082015250565b6000612df8602e83612a17565b9150612e0382612d9c565b604082019050919050565b60006020820190508181036000830152612e2781612deb565b9050919050565b6000819050919050565b6000819050919050565b6000612e5d612e58612e5384612e2e565b612e38565b6128e8565b9050919050565b612e6d81612e42565b82525050565b6000602082019050612e886000830184612e64565b92915050565b6000612e99826127db565b9150612ea4836127db565b9250828203905081811115612ebc57612ebb612aba565b5b92915050565b612ecb816126a9565b82525050565b6000604082019050612ee66000830185612ec2565b612ef360208301846127e5565b9392505050565b6000602082019050612f0f6000830184612ec2565b92915050565b7f5265656e7472616e637947756172643a207265656e7472616e742063616c6c00600082015250565b6000612f4b601f83612a17565b9150612f5682612f15565b602082019050919050565b60006020820190508181036000830152612f7a81612f3e565b9050919050565b600081519050612f908161284f565b92915050565b600060208284031215612fac57612fab6125c9565b5b6000612fba84828501612f81565b91505092915050565b612fcc816128e8565b82525050565b600060e082019050612fe7600083018a612ec2565b612ff46020830189612ec2565b61300160408301886127e5565b61300e60608301876127e5565b61301b6080830186612fc3565b61302860a08301856127b1565b61303560c08301846127b1565b98975050505050505050565b7f5361666545524332303a207065726d697420646964206e6f742073756363656560008201527f6400000000000000000000000000000000000000000000000000000000000000602082015250565b600061309d602183612a17565b91506130a882613041565b604082019050919050565b600060208201905081810360008301526130cc81613090565b9050919050565b600081905092915050565b7f416363657373436f6e74726f6c3a206163636f756e7420000000000000000000600082015250565b60006131146017836130d3565b915061311f826130de565b601782019050919050565b600081519050919050565b60005b83811015613153578082015181840152602081019050613138565b60008484015250505050565b600061316a8261312a565b61317481856130d3565b9350613184818560208601613135565b80840191505092915050565b7f206973206d697373696e6720726f6c6520000000000000000000000000000000600082015250565b60006131c66011836130d3565b91506131d182613190565b601182019050919050565b60006131e782613107565b91506131f3828561315f565b91506131fe826131b9565b915061320a828461315f565b91508190509392505050565b6000601f19601f8301169050919050565b60006132328261312a565b61323c8185612a17565b935061324c818560208601613135565b61325581613216565b840191505092915050565b6000602082019050818103600083015261327a8184613227565b905092915050565b7f5061757361626c653a206e6f7420706175736564000000000000000000000000600082015250565b60006132b8601483612a17565b91506132c382613282565b602082019050919050565b600060208201905081810360008301526132e7816132ab565b9050919050565b7f5361666545524332303a204552433230206f7065726174696f6e20646964206e60008201527f6f74207375636365656400000000000000000000000000000000000000000000602082015250565b600061334a602a83612a17565b9150613355826132ee565b604082019050919050565b600060208201905081810360008301526133798161333d565b9050919050565b7f5061757361626c653a2070617573656400000000000000000000000000000000600082015250565b60006133b6601083612a17565b91506133c182613380565b602082019050919050565b600060208201905081810360008301526133e5816133a9565b9050919050565b7f4e487b7100000000000000000000000000000000000000000000000000000000600052604160045260246000fd5b7f4e487b7100000000000000000000000000000000000000000000000000000000600052603260045260246000fd5b6000613455826127db565b91506000820361346857613467612aba565b5b600182039050919050565b7f537472696e67733a20686578206c656e67746820696e73756666696369656e74600082015250565b60006134a9602083612a17565b91506134b482613473565b602082019050919050565b600060208201905081810360008301526134d88161349c565b9050919050565b60008160011c9050919050565b6000808291508390505b60018511156135365780860481111561351257613511612aba565b5b60018516156135215780820291505b808102905061352f856134df565b94506134f6565b94509492505050565b60008261354f576001905061360b565b8161355d576000905061360b565b8160018114613573576002811461357d576135ac565b600191505061360b565b60ff84111561358f5761358e612aba565b5b8360020a9150848211156135a6576135a5612aba565b5b5061360b565b5060208310610133831016604e8410600b84101617156135e15782820a9050838111156135dc576135db612aba565b5b61360b565b6135ee84848460016134ec565b9250905081840481111561360557613604612aba565b5b81810290505b9392505050565b600061361d826127db565b9150613628836127db565b92506136557fffffffffffffffffffffffffffffffffffffffffffffffffffffffffffffffff848461353f565b905092915050565b7f416464726573733a20696e73756666696369656e742062616c616e636520666f60008201527f722063616c6c0000000000000000000000000000000000000000000000000000602082015250565b60006136b9602683612a17565b91506136c48261365d565b604082019050919050565b600060208201905081810360008301526136e8816136ac565b9050919050565b600081519050919050565b600081905092915050565b6000613710826136ef565b61371a81856136fa565b935061372a818560208601613135565b80840191505092915050565b60006137428284613705565b915081905092915050565b7f416464726573733a2063616c6c20746f206e6f6e2d636f6e7472616374000000600082015250565b6000613783601d83612a17565b915061378e8261374d565b602082019050919050565b600060208201905081810360008301526137b281613776565b905091905056fea2646970667358221220d444eb94d86b3d689c1aa6b8102fca0f849176874076b2721285f8332fa51ae264736f6c63430008100033",
  "linkReferences": {},
  "deployedLinkReferences": {}
}