{
  "_format": "hh-sol-artifact-1",
  "contractName": "SonneInsurance",
  "sourceName": "contracts/core/zeroPremium/SmartContractInsurance/Venus/VenusInsurance.sol",
  "abi": [
    {
      "inputs": [],
      "name": "BaseUpgradeablePausable__ZeroAddressError",
      "type": "error"
    },
    {
      "inputs": [],
      "name": "Compound_ZP__ImmutableChangesError",
      "type": "error"
    },
    {
      "inputs": [],
      "name": "Compound_ZP__LowAmountError",
      "type": "error"
    },
    {
      "inputs": [],
      "name": "Compound_ZP__LowSupplyAmountError",
      "type": "error"
    },
    {
      "inputs": [],
      "name": "Compound_ZP__TransactionFailedError",
      "type": "error"
    },
    {
      "inputs": [],
      "name": "Compound_ZP__WrongInfoEnteredError",
      "type": "error"
    },
    {
      "anonymous": false,
      "inputs": [
        {
          "indexed": false,
          "internalType": "uint8",
          "name": "version",
          "type": "uint8"
        }
      ],
      "name": "Initialized",
      "type": "event"
    },
    {
      "anonymous": false,
      "inputs": [
        {
          "indexed": false,
          "internalType": "address",
          "name": "account",
          "type": "address"
        }
      ],
      "name": "Paused",
      "type": "event"
    },
    {
      "anonymous": false,
      "inputs": [
        {
          "indexed": true,
          "internalType": "bytes32",
          "name": "role",
          "type": "bytes32"
        },
        {
          "indexed": true,
          "internalType": "bytes32",
          "name": "previousAdminRole",
          "type": "bytes32"
        },
        {
          "indexed": true,
          "internalType": "bytes32",
          "name": "newAdminRole",
          "type": "bytes32"
        }
      ],
      "name": "RoleAdminChanged",
      "type": "event"
    },
    {
      "anonymous": false,
      "inputs": [
        {
          "indexed": true,
          "internalType": "bytes32",
          "name": "role",
          "type": "bytes32"
        },
        {
          "indexed": true,
          "internalType": "address",
          "name": "account",
          "type": "address"
        },
        {
          "indexed": true,
          "internalType": "address",
          "name": "sender",
          "type": "address"
        }
      ],
      "name": "RoleGranted",
      "type": "event"
    },
    {
      "anonymous": false,
      "inputs": [
        {
          "indexed": true,
          "internalType": "bytes32",
          "name": "role",
          "type": "bytes32"
        },
        {
          "indexed": true,
          "internalType": "address",
          "name": "account",
          "type": "address"
        },
        {
          "indexed": true,
          "internalType": "address",
          "name": "sender",
          "type": "address"
        }
      ],
      "name": "RoleRevoked",
      "type": "event"
    },
    {
      "anonymous": false,
      "inputs": [
        {
          "indexed": true,
          "internalType": "address",
          "name": "userAddress",
          "type": "address"
        },
        {
          "indexed": true,
          "internalType": "address",
          "name": "tokenAddress",
          "type": "address"
        },
        {
          "indexed": true,
          "internalType": "uint256",
          "name": "amount",
          "type": "uint256"
        }
      ],
      "name": "SuppliedToken",
      "type": "event"
    },
    {
      "anonymous": false,
      "inputs": [
        {
          "indexed": false,
          "internalType": "address",
          "name": "account",
          "type": "address"
        }
      ],
      "name": "Unpaused",
      "type": "event"
    },
    {
      "anonymous": false,
      "inputs": [
        {
          "indexed": true,
          "internalType": "address",
          "name": "userAddress",
          "type": "address"
        },
        {
          "indexed": true,
          "internalType": "address",
          "name": "tokenAddress",
          "type": "address"
        },
        {
          "indexed": true,
          "internalType": "uint256",
          "name": "amount",
          "type": "uint256"
        }
      ],
      "name": "WithdrawnToken",
      "type": "event"
    },
    {
      "inputs": [],
      "name": "DEFAULT_ADMIN_ROLE",
      "outputs": [
        {
          "internalType": "bytes32",
          "name": "",
          "type": "bytes32"
        }
      ],
      "stateMutability": "view",
      "type": "function"
    },
    {
      "inputs": [
        {
          "internalType": "address",
          "name": "owner",
          "type": "address"
        }
      ],
      "name": "__BaseUpgradeablePausable_init",
      "outputs": [],
      "stateMutability": "nonpayable",
      "type": "function"
    },
    {
      "inputs": [
        {
          "internalType": "address",
          "name": "rewardTokenAddress",
          "type": "address"
        }
      ],
      "name": "calculateUserBalance",
      "outputs": [
        {
          "internalType": "uint256",
          "name": "",
          "type": "uint256"
        },
        {
          "internalType": "uint256",
          "name": "",
          "type": "uint256"
        }
      ],
      "stateMutability": "view",
      "type": "function"
    },
    {
      "inputs": [
        {
          "internalType": "bytes32",
          "name": "role",
          "type": "bytes32"
        }
      ],
      "name": "getRoleAdmin",
      "outputs": [
        {
          "internalType": "bytes32",
          "name": "",
          "type": "bytes32"
        }
      ],
      "stateMutability": "view",
      "type": "function"
    },
    {
      "inputs": [
        {
          "internalType": "bytes32",
          "name": "role",
          "type": "bytes32"
        },
        {
          "internalType": "address",
          "name": "account",
          "type": "address"
        }
      ],
      "name": "grantRole",
      "outputs": [],
      "stateMutability": "nonpayable",
      "type": "function"
    },
    {
      "inputs": [
        {
          "internalType": "bytes32",
          "name": "role",
          "type": "bytes32"
        },
        {
          "internalType": "address",
          "name": "account",
          "type": "address"
        }
      ],
      "name": "hasRole",
      "outputs": [
        {
          "internalType": "bool",
          "name": "",
          "type": "bool"
        }
      ],
      "stateMutability": "view",
      "type": "function"
    },
    {
      "inputs": [
        {
          "internalType": "address",
          "name": "_controllerAddress",
          "type": "address"
        },
        {
          "internalType": "string",
          "name": "protocolName",
          "type": "string"
        },
        {
          "internalType": "address",
          "name": "deployedAddress",
          "type": "address"
        },
        {
          "internalType": "uint256",
          "name": "protocolID",
          "type": "uint256"
        }
      ],
      "name": "init",
      "outputs": [],
      "stateMutability": "nonpayable",
      "type": "function"
    },
    {
      "inputs": [
        {
          "internalType": "address",
          "name": "pauseOperationAddress",
          "type": "address"
        },
        {
          "internalType": "address",
          "name": "addressXVS",
          "type": "address"
        }
      ],
      "name": "initialize",
      "outputs": [],
      "stateMutability": "nonpayable",
      "type": "function"
    },
    {
      "inputs": [],
      "name": "isAdmin",
      "outputs": [
        {
          "internalType": "bool",
          "name": "",
          "type": "bool"
        }
      ],
      "stateMutability": "view",
      "type": "function"
    },
    {
      "inputs": [
        {
          "internalType": "address[]",
          "name": "tokenAddresses",
          "type": "address[]"
        },
        {
          "internalType": "address[]",
          "name": "vTokenAddresses",
          "type": "address[]"
        },
        {
          "internalType": "address",
          "name": "claimSettlementAddress",
          "type": "address"
        },
        {
          "internalType": "uint256",
          "name": "protocolRiskCategory",
          "type": "uint256"
        },
        {
          "internalType": "uint256",
          "name": "liquidationPercent",
          "type": "uint256"
        }
      ],
      "name": "liquidateTokens",
      "outputs": [],
      "stateMutability": "nonpayable",
      "type": "function"
    },
    {
      "inputs": [],
      "name": "paused",
      "outputs": [
        {
          "internalType": "bool",
          "name": "",
          "type": "bool"
        }
      ],
      "stateMutability": "view",
      "type": "function"
    },
    {
      "inputs": [
        {
          "internalType": "bytes32",
          "name": "role",
          "type": "bytes32"
        },
        {
          "internalType": "address",
          "name": "account",
          "type": "address"
        }
      ],
      "name": "renounceRole",
      "outputs": [],
      "stateMutability": "nonpayable",
      "type": "function"
    },
    {
      "inputs": [
        {
          "internalType": "bytes32",
          "name": "role",
          "type": "bytes32"
        },
        {
          "internalType": "address",
          "name": "account",
          "type": "address"
        }
      ],
      "name": "revokeRole",
      "outputs": [],
      "stateMutability": "nonpayable",
      "type": "function"
    },
    {
      "inputs": [
        {
          "internalType": "address",
          "name": "tokenAddress",
          "type": "address"
        },
        {
          "internalType": "address",
          "name": "vTokenAddress",
          "type": "address"
        },
        {
          "internalType": "uint256",
          "name": "amount",
          "type": "uint256"
        },
        {
          "internalType": "uint256",
          "name": "deadline",
          "type": "uint256"
        },
        {
          "internalType": "uint8",
          "name": "v",
          "type": "uint8"
        },
        {
          "internalType": "bytes32",
          "name": "r",
          "type": "bytes32"
        },
        {
          "internalType": "bytes32",
          "name": "s",
          "type": "bytes32"
        }
      ],
      "name": "supplyToken",
      "outputs": [
        {
          "internalType": "bool",
          "name": "",
          "type": "bool"
        }
      ],
      "stateMutability": "nonpayable",
      "type": "function"
    },
    {
      "inputs": [
        {
          "internalType": "bytes4",
          "name": "interfaceId",
          "type": "bytes4"
        }
      ],
      "name": "supportsInterface",
      "outputs": [
        {
          "internalType": "bool",
          "name": "",
          "type": "bool"
        }
      ],
      "stateMutability": "view",
      "type": "function"
    },
    {
      "inputs": [
        {
          "internalType": "address",
          "name": "tokenAddress",
          "type": "address"
        },
        {
          "internalType": "address",
          "name": "vTokenAddress",
          "type": "address"
        },
        {
          "internalType": "uint256",
          "name": "amount",
          "type": "uint256"
        }
      ],
      "name": "withdrawToken",
      "outputs": [
        {
          "internalType": "bool",
          "name": "",
          "type": "bool"
        }
      ],
      "stateMutability": "nonpayable",
      "type": "function"
    }
  ],
  "bytecode": "0x608060405234801561001057600080fd5b50614dae806100206000396000f3fe608060405234801561001057600080fd5b50600436106101005760003560e01c80636e810b1a11610097578063a217fddf11610066578063a217fddf146102bb578063b6db75a0146102d9578063c72fea59146102f7578063d547741f1461032857610100565b80636e810b1a146102235780636f6321141461023f578063732debfb1461026f57806391d148541461028b57610100565b806336568abe116100d357806336568abe146101b1578063485cc955146101cd5780635c975abb146101e9578063699bf6fc1461020757610100565b806301e336671461010557806301ffc9a714610135578063248a9ca3146101655780632f2ff15d14610195575b600080fd5b61011f600480360381019061011a9190613926565b610344565b60405161012c9190613994565b60405180910390f35b61014f600480360381019061014a9190613a07565b6108a6565b60405161015c9190613994565b60405180910390f35b61017f600480360381019061017a9190613a6a565b610920565b60405161018c9190613aa6565b60405180910390f35b6101af60048036038101906101aa9190613ac1565b610940565b005b6101cb60048036038101906101c69190613ac1565b610961565b005b6101e760048036038101906101e29190613b01565b6109e4565b005b6101f1610baf565b6040516101fe9190613994565b60405180910390f35b610221600480360381019061021c9190613c9a565b610bc6565b005b61023d60048036038101906102389190613d4d565b610f4c565b005b61025960048036038101906102549190613db3565b61106e565b6040516102669190613994565b60405180910390f35b61028960048036038101906102849190613f0a565b611571565b005b6102a560048036038101906102a09190613ac1565b6117ef565b6040516102b29190613994565b60405180910390f35b6102c361185a565b6040516102d09190613aa6565b60405180910390f35b6102e1611861565b6040516102ee9190613994565b60405180910390f35b610311600480360381019061030c9190613d4d565b611880565b60405161031f929190613f9c565b60405180910390f35b610342600480360381019061033d9190613ac1565b611eba565b005b600061034e611edb565b60fc6000815461035d90613ff4565b9190508190555060008061037085611880565b91509150838210156103ae576040517fe7231dcd00000000000000000000000000000000000000000000000000000000815260040160405180910390fd5b600061010660008773ffffffffffffffffffffffffffffffffffffffff1673ffffffffffffffffffffffffffffffffffffffff1681526020019081526020016000205490508461010560008873ffffffffffffffffffffffffffffffffffffffff1673ffffffffffffffffffffffffffffffffffffffff168152602001908152602001600020600083815260200190815260200160002060000154610453919061403c565b61010560008873ffffffffffffffffffffffffffffffffffffffff1673ffffffffffffffffffffffffffffffffffffffff168152602001908152602001600020600060fc5481526020019081526020016000206000018190555060006104b887611f2a565b90508061010560008973ffffffffffffffffffffffffffffffffffffffff1673ffffffffffffffffffffffffffffffffffffffff1681526020019081526020016000206000600160fc5461050c919061403c565b815260200190815260200160002060010181905550600061010360006105306121b3565b73ffffffffffffffffffffffffffffffffffffffff1673ffffffffffffffffffffffffffffffffffffffff16815260200190815260200160002060008973ffffffffffffffffffffffffffffffffffffffff1673ffffffffffffffffffffffffffffffffffffffff1681526020019081526020016000206003015490508661010460006105bb6121b3565b73ffffffffffffffffffffffffffffffffffffffff1673ffffffffffffffffffffffffffffffffffffffff16815260200190815260200160002060008a73ffffffffffffffffffffffffffffffffffffffff1673ffffffffffffffffffffffffffffffffffffffff16815260200190815260200160002060008381526020019081526020016000205461064e919061403c565b610104600061065b6121b3565b73ffffffffffffffffffffffffffffffffffffffff1673ffffffffffffffffffffffffffffffffffffffff16815260200190815260200160002060008a73ffffffffffffffffffffffffffffffffffffffff1673ffffffffffffffffffffffffffffffffffffffff168152602001908152602001600020600060fc5481526020019081526020016000208190555084870361079157600061010360006106ff6121b3565b73ffffffffffffffffffffffffffffffffffffffff1673ffffffffffffffffffffffffffffffffffffffff16815260200190815260200160002060008a73ffffffffffffffffffffffffffffffffffffffff1673ffffffffffffffffffffffffffffffffffffffff16815260200190815260200160002060000160006101000a81548160ff0219169083151502179055505b83610103600061079f6121b3565b73ffffffffffffffffffffffffffffffffffffffff1673ffffffffffffffffffffffffffffffffffffffff16815260200190815260200160002060008a73ffffffffffffffffffffffffffffffffffffffff1673ffffffffffffffffffffffffffffffffffffffff16815260200190815260200160002060010160008282546108289190614070565b9250508190555061083a8989896121bb565b61088e6108456121b3565b8560fe60009054906101000a900473ffffffffffffffffffffffffffffffffffffffff1673ffffffffffffffffffffffffffffffffffffffff1661240f9092919063ffffffff16565b60019550505050505061089f612495565b9392505050565b60007f7965db0b000000000000000000000000000000000000000000000000000000007bffffffffffffffffffffffffffffffffffffffffffffffffffffffff1916827bffffffffffffffffffffffffffffffffffffffffffffffffffffffff1916148061091957506109188261249f565b5b9050919050565b600060976000838152602001908152602001600020600101549050919050565b61094982610920565b61095281612509565b61095c838361251d565b505050565b6109696121b3565b73ffffffffffffffffffffffffffffffffffffffff168173ffffffffffffffffffffffffffffffffffffffff16146109d6576040517f08c379a00000000000000000000000000000000000000000000000000000000081526004016109cd90614127565b60405180910390fd5b6109e082826125fe565b5050565b60008060019054906101000a900460ff16159050808015610a155750600160008054906101000a900460ff1660ff16105b80610a425750610a24306126e0565b158015610a415750600160008054906101000a900460ff1660ff16145b5b610a81576040517f08c379a0000000000000000000000000000000000000000000000000000000008152600401610a78906141b9565b60405180910390fd5b60016000806101000a81548160ff021916908360ff1602179055508015610abe576001600060016101000a81548160ff0219169083151502179055505b8261010160006101000a81548173ffffffffffffffffffffffffffffffffffffffff021916908373ffffffffffffffffffffffffffffffffffffffff1602179055508160fe60006101000a81548173ffffffffffffffffffffffffffffffffffffffff021916908373ffffffffffffffffffffffffffffffffffffffff160217905550610b51610b4c6121b3565b610f4c565b8015610baa5760008060016101000a81548160ff0219169083151502179055507f7f26b83ff96e1f2b6a682f133852f6798a09c465da95921460cefb38474024986001604051610ba1919061421e565b60405180910390a15b505050565b6000603360009054906101000a900460ff16905090565b610bce611861565b610c0d576040517f08c379a0000000000000000000000000000000000000000000000000000000008152600401610c04906142ab565b60405180910390fd5b60008451905060005b81811015610f3b578361010060009054906101000a900473ffffffffffffffffffffffffffffffffffffffff1673ffffffffffffffffffffffffffffffffffffffff16634dbc7b2860fb546040518263ffffffff1660e01b8152600401610c7d91906142cb565b602060405180830381865afa158015610c9a573d6000803e3d6000fd5b505050506040513d601f19601f82011682018060405250810190610cbe91906142fb565b03610f2a576000878281518110610cd857610cd7614328565b5b602002602001015190506000878381518110610cf757610cf6614328565b5b60200260200101519050600061010660008373ffffffffffffffffffffffffffffffffffffffff1673ffffffffffffffffffffffffffffffffffffffff168152602001908152602001600020549050600061010560008473ffffffffffffffffffffffffffffffffffffffff1673ffffffffffffffffffffffffffffffffffffffff1681526020019081526020016000206000838152602001908152602001600020600001549050600060648289610daf9190614357565b610db991906143e0565b90506000610dc685611f2a565b90508061010560008773ffffffffffffffffffffffffffffffffffffffff1673ffffffffffffffffffffffffffffffffffffffff168152602001908152602001600020600060fc548152602001908152602001600020600101819055508183610e2f919061403c565b61010560008773ffffffffffffffffffffffffffffffffffffffff1673ffffffffffffffffffffffffffffffffffffffff1681526020019081526020016000206000600160fc54610e809190614070565b8152602001908152602001600020600001819055506000610ea2878785612703565b9050610ecf8c828973ffffffffffffffffffffffffffffffffffffffff1661240f9092919063ffffffff16565b600160fc54610ede9190614070565b61010660008873ffffffffffffffffffffffffffffffffffffffff1673ffffffffffffffffffffffffffffffffffffffff16815260200190815260200160002081905550505050505050505b80610f3490613ff4565b9050610c16565b50610f446128de565b505050505050565b600060019054906101000a900460ff16610f9b576040517f08c379a0000000000000000000000000000000000000000000000000000000008152600401610f9290614483565b60405180910390fd5b600073ffffffffffffffffffffffffffffffffffffffff168173ffffffffffffffffffffffffffffffffffffffff1603611001576040517f5415139400000000000000000000000000000000000000000000000000000000815260040160405180910390fd5b6110096129a8565b611011612a01565b611019612a52565b61102a611024612aab565b8261251d565b61103b611035612ad3565b8261251d565b611053611046612ad3565b61104e612aab565b612afb565b61106b61105e612aab565b611066612aab565b612afb565b50565b6000611078611edb565b6402540be4008610156110b7576040517f7e1764b300000000000000000000000000000000000000000000000000000000815260040160405180910390fd5b6110bf6128de565b6000889050600088905060008a905061010360006110db6121b3565b73ffffffffffffffffffffffffffffffffffffffff1673ffffffffffffffffffffffffffffffffffffffff16815260200190815260200160002060008b73ffffffffffffffffffffffffffffffffffffffff1673ffffffffffffffffffffffffffffffffffffffff16815260200190815260200160002060000160009054906101000a900460ff166112965760fc5461010360006111776121b3565b73ffffffffffffffffffffffffffffffffffffffff1673ffffffffffffffffffffffffffffffffffffffff16815260200190815260200160002060008c73ffffffffffffffffffffffffffffffffffffffff1673ffffffffffffffffffffffffffffffffffffffff16815260200190815260200160002060020181905550600161010360006112046121b3565b73ffffffffffffffffffffffffffffffffffffffff1673ffffffffffffffffffffffffffffffffffffffff16815260200190815260200160002060008c73ffffffffffffffffffffffffffffffffffffffff1673ffffffffffffffffffffffffffffffffffffffff16815260200190815260200160002060000160006101000a81548160ff0219169083151502179055505b60008273ffffffffffffffffffffffffffffffffffffffff166370a08231306040518263ffffffff1660e01b81526004016112d191906144b2565b602060405180830381865afa1580156112ee573d6000803e3d6000fd5b505050506040513d601f19601f8201168201806040525081019061131291906142fb565b905061135061131f6121b3565b308c8c8c8c8c8973ffffffffffffffffffffffffffffffffffffffff16612b5790979695949392919063ffffffff16565b61138461135b6121b3565b308c8773ffffffffffffffffffffffffffffffffffffffff16612d24909392919063ffffffff16565b6113af8b8b8673ffffffffffffffffffffffffffffffffffffffff16612dad9092919063ffffffff16565b60008b73ffffffffffffffffffffffffffffffffffffffff1663a0712d688c6040518263ffffffff1660e01b81526004016113ea91906142cb565b6020604051808303816000875af1158015611409573d6000803e3d6000fd5b505050506040513d601f19601f8201168201806040525081019061142d91906142fb565b905060008114611469576040517f1941b85300000000000000000000000000000000000000000000000000000000815260040160405180910390fd5b60008473ffffffffffffffffffffffffffffffffffffffff166370a08231306040518263ffffffff1660e01b81526004016114a491906144b2565b602060405180830381865afa1580156114c1573d6000803e3d6000fd5b505050506040513d601f19601f820116820180604052508101906114e591906142fb565b90506114f28d8285612ebf565b8b8e73ffffffffffffffffffffffffffffffffffffffff166115126121b3565b73ffffffffffffffffffffffffffffffffffffffff167fa64bf1fcc4f3d7c965ef3091c978df041ad959bfaa6d5abc7d99a17830407b2960405160405180910390a460019650505050505050611566612495565b979650505050505050565b611579611861565b6115b8576040517f08c379a00000000000000000000000000000000000000000000000000000000081526004016115af906142ab565b60405180910390fd5b600060fd5411156115f5576040517f5f39ce3900000000000000000000000000000000000000000000000000000000815260040160405180910390fd5b60fd6000815461160490613ff4565b919050819055508361010060006101000a81548173ffffffffffffffffffffffffffffffffffffffff021916908373ffffffffffffffffffffffffffffffffffffffff16021790555060008061010060009054906101000a900473ffffffffffffffffffffffffffffffffffffffff1673ffffffffffffffffffffffffffffffffffffffff16634b40ac92846040518263ffffffff1660e01b81526004016116ac91906142cb565b600060405180830381865afa1580156116c9573d6000803e3d6000fd5b505050506040513d6000823e3d601f19601f820116820180604052508101906116f2919061457c565b915091508373ffffffffffffffffffffffffffffffffffffffff168173ffffffffffffffffffffffffffffffffffffffff161461175b576040517fd3d93e9600000000000000000000000000000000000000000000000000000000815260040160405180910390fd5b8460405160200161176c919061461f565b6040516020818303038152906040528051906020012082604051602001611793919061461f565b60405160208183030381529060405280519060200120146117e0576040517fd3d93e9600000000000000000000000000000000000000000000000000000000815260040160405180910390fd5b8260fb81905550505050505050565b60006097600084815260200190815260200160002060000160008373ffffffffffffffffffffffffffffffffffffffff1673ffffffffffffffffffffffffffffffffffffffff16815260200190815260200160002060009054906101000a900460ff16905092915050565b6000801b81565b600061187b61186e612aab565b6118766121b3565b6117ef565b905090565b600080600080600061010360006118956121b3565b73ffffffffffffffffffffffffffffffffffffffff1673ffffffffffffffffffffffffffffffffffffffff16815260200190815260200160002060008773ffffffffffffffffffffffffffffffffffffffff1673ffffffffffffffffffffffffffffffffffffffff168152602001908152602001600020600201549050600060fc54905060008060008490505b83811015611e1357600061010460006119396121b3565b73ffffffffffffffffffffffffffffffffffffffff1673ffffffffffffffffffffffffffffffffffffffff16815260200190815260200160002060008c73ffffffffffffffffffffffffffffffffffffffff1673ffffffffffffffffffffffffffffffffffffffff168152602001908152602001600020600083815260200190815260200160002054116119cd5786611a64565b61010460006119da6121b3565b73ffffffffffffffffffffffffffffffffffffffff1673ffffffffffffffffffffffffffffffffffffffff16815260200190815260200160002060008b73ffffffffffffffffffffffffffffffffffffffff1673ffffffffffffffffffffffffffffffffffffffff1681526020019081526020016000206000828152602001908152602001600020545b9650600061010560008c73ffffffffffffffffffffffffffffffffffffffff1673ffffffffffffffffffffffffffffffffffffffff16815260200190815260200160002060008381526020019081526020016000206000015461010560008d73ffffffffffffffffffffffffffffffffffffffff1673ffffffffffffffffffffffffffffffffffffffff16815260200190815260200160002060008481526020019081526020016000206001015489611b1d9190614357565b611b2791906143e0565b90508087611b359190614070565b965060006101026000848152602001908152602001600020549050808414611e005780935061010060009054906101000a900473ffffffffffffffffffffffffffffffffffffffff1673ffffffffffffffffffffffffffffffffffffffff166305044ea660fb54866040518363ffffffff1660e01b8152600401611bba929190613f9c565b602060405180830381865afa158015611bd7573d6000803e3d6000fd5b505050506040513d601f19601f82011682018060405250810190611bfb9190614662565b15611ca45761010060009054906101000a900473ffffffffffffffffffffffffffffffffffffffff1673ffffffffffffffffffffffffffffffffffffffff16639cb0675860fb54866040518363ffffffff1660e01b8152600401611c60929190613f9c565b602060405180830381865afa158015611c7d573d6000803e3d6000fd5b505050506040513d601f19601f82011682018060405250810190611ca191906142fb565b94505b61010060009054906101000a900473ffffffffffffffffffffffffffffffffffffffff1673ffffffffffffffffffffffffffffffffffffffff1663b557e4a685876040518363ffffffff1660e01b8152600401611d02929190613f9c565b602060405180830381865afa158015611d1f573d6000803e3d6000fd5b505050506040513d601f19601f82011682018060405250810190611d439190614662565b15611dff57606461010060009054906101000a900473ffffffffffffffffffffffffffffffffffffffff1673ffffffffffffffffffffffffffffffffffffffff166339c4c205866040518263ffffffff1660e01b8152600401611da691906142cb565b602060405180830381865afa158015611dc3573d6000803e3d6000fd5b505050506040513d601f19601f82011682018060405250810190611de791906142fb565b8a611df29190614357565b611dfc91906143e0565b98505b5b82611e0a90613ff4565b92505050611922565b506101036000611e216121b3565b73ffffffffffffffffffffffffffffffffffffffff1673ffffffffffffffffffffffffffffffffffffffff16815260200190815260200160002060008a73ffffffffffffffffffffffffffffffffffffffff1673ffffffffffffffffffffffffffffffffffffffff1681526020019081526020016000206001015485611ea7919061403c565b9450858597509750505050505050915091565b611ec382610920565b611ecc81612509565b611ed683836125fe565b505050565b600260c95403611f20576040517f08c379a0000000000000000000000000000000000000000000000000000000008152600401611f17906146db565b60405180910390fd5b600260c981905550565b600080600167ffffffffffffffff811115611f4857611f47613b57565b5b604051908082528060200260200182016040528015611f765781602001602082028036833780820191505090505b5090508281600081518110611f8e57611f8d614328565b5b602002602001019073ffffffffffffffffffffffffffffffffffffffff16908173ffffffffffffffffffffffffffffffffffffffff1681525050600060fe60009054906101000a900473ffffffffffffffffffffffffffffffffffffffff1673ffffffffffffffffffffffffffffffffffffffff166370a08231306040518263ffffffff1660e01b815260040161202591906144b2565b602060405180830381865afa158015612042573d6000803e3d6000fd5b505050506040513d601f19601f8201168201806040525081019061206691906142fb565b905060ff60009054906101000a900473ffffffffffffffffffffffffffffffffffffffff1673ffffffffffffffffffffffffffffffffffffffff166386df31ee30846040518363ffffffff1660e01b81526004016120c59291906147ff565b600060405180830381600087803b1580156120df57600080fd5b505af11580156120f3573d6000803e3d6000fd5b50505050600060fe60009054906101000a900473ffffffffffffffffffffffffffffffffffffffff1673ffffffffffffffffffffffffffffffffffffffff166370a08231306040518263ffffffff1660e01b815260040161215491906144b2565b602060405180830381865afa158015612171573d6000803e3d6000fd5b505050506040513d601f19601f8201168201806040525081019061219591906142fb565b9050600082826121a5919061403c565b905080945050505050919050565b600033905090565b6000839050600083905060008273ffffffffffffffffffffffffffffffffffffffff166370a08231306040518263ffffffff1660e01b815260040161220091906144b2565b602060405180830381865afa15801561221d573d6000803e3d6000fd5b505050506040513d601f19601f8201168201806040525081019061224191906142fb565b905060008273ffffffffffffffffffffffffffffffffffffffff1663db006a75866040518263ffffffff1660e01b815260040161227e91906142cb565b6020604051808303816000875af115801561229d573d6000803e3d6000fd5b505050506040513d601f19601f820116820180604052508101906122c191906142fb565b9050600081146122fd576040517f1941b85300000000000000000000000000000000000000000000000000000000815260040160405180910390fd5b60008473ffffffffffffffffffffffffffffffffffffffff166370a08231306040518263ffffffff1660e01b815260040161233891906144b2565b602060405180830381865afa158015612355573d6000803e3d6000fd5b505050506040513d601f19601f8201168201806040525081019061237991906142fb565b905060008382612389919061403c565b905060fc5461010660008a73ffffffffffffffffffffffffffffffffffffffff1673ffffffffffffffffffffffffffffffffffffffff168152602001908152602001600020819055506124046123dd6121b3565b828873ffffffffffffffffffffffffffffffffffffffff1661240f9092919063ffffffff16565b505050505050505050565b6124908363a9059cbb60e01b848460405160240161242e92919061482f565b604051602081830303815290604052907bffffffffffffffffffffffffffffffffffffffffffffffffffffffff19166020820180517bffffffffffffffffffffffffffffffffffffffffffffffffffffffff838183161783525050505061325a565b505050565b600160c981905550565b60007f01ffc9a7000000000000000000000000000000000000000000000000000000007bffffffffffffffffffffffffffffffffffffffffffffffffffffffff1916827bffffffffffffffffffffffffffffffffffffffffffffffffffffffff1916149050919050565b61251a816125156121b3565b613321565b50565b61252782826117ef565b6125fa5760016097600084815260200190815260200160002060000160008373ffffffffffffffffffffffffffffffffffffffff1673ffffffffffffffffffffffffffffffffffffffff16815260200190815260200160002060006101000a81548160ff02191690831515021790555061259f6121b3565b73ffffffffffffffffffffffffffffffffffffffff168173ffffffffffffffffffffffffffffffffffffffff16837f2f8788117e7eff1d82e926ec794901d17c78024a50270940304540a733656f0d60405160405180910390a45b5050565b61260882826117ef565b156126dc5760006097600084815260200190815260200160002060000160008373ffffffffffffffffffffffffffffffffffffffff1673ffffffffffffffffffffffffffffffffffffffff16815260200190815260200160002060006101000a81548160ff0219169083151502179055506126816121b3565b73ffffffffffffffffffffffffffffffffffffffff168173ffffffffffffffffffffffffffffffffffffffff16837ff6391f5c32d9c69d2a47ea670b442974b53935d1edc7fd64eb21e047a839171b60405160405180910390a45b5050565b6000808273ffffffffffffffffffffffffffffffffffffffff163b119050919050565b60008083905060008573ffffffffffffffffffffffffffffffffffffffff166370a08231306040518263ffffffff1660e01b815260040161274491906144b2565b602060405180830381865afa158015612761573d6000803e3d6000fd5b505050506040513d601f19601f8201168201806040525081019061278591906142fb565b905060008273ffffffffffffffffffffffffffffffffffffffff1663db006a75866040518263ffffffff1660e01b81526004016127c291906142cb565b6020604051808303816000875af11580156127e1573d6000803e3d6000fd5b505050506040513d601f19601f8201168201806040525081019061280591906142fb565b905060008114612841576040517f1941b85300000000000000000000000000000000000000000000000000000000815260040160405180910390fd5b60008773ffffffffffffffffffffffffffffffffffffffff166370a08231306040518263ffffffff1660e01b815260040161287c91906144b2565b602060405180830381865afa158015612899573d6000803e3d6000fd5b505050506040513d601f19601f820116820180604052508101906128bd91906142fb565b9050600083826128cd919061403c565b905080955050505050509392505050565b60fc600081546128ed90613ff4565b91905081905550600061010060009054906101000a900473ffffffffffffffffffffffffffffffffffffffff1673ffffffffffffffffffffffffffffffffffffffff1663c07f47d46040518163ffffffff1660e01b8152600401602060405180830381865afa158015612964573d6000803e3d6000fd5b505050506040513d601f19601f8201168201806040525081019061298891906142fb565b905080610102600060fc5481526020019081526020016000208190555050565b600060019054906101000a900460ff166129f7576040517f08c379a00000000000000000000000000000000000000000000000000000000081526004016129ee90614483565b60405180910390fd5b6129ff6133a6565b565b600060019054906101000a900460ff16612a50576040517f08c379a0000000000000000000000000000000000000000000000000000000008152600401612a4790614483565b60405180910390fd5b565b600060019054906101000a900460ff16612aa1576040517f08c379a0000000000000000000000000000000000000000000000000000000008152600401612a9890614483565b60405180910390fd5b612aa9613412565b565b60007fa49807205ce4d355092ef5a8a18f56e8913cf4a201fbe287825b095693c21775905090565b60007f65d7a28e3265b37a6474929f336521b332c1681b933f6cb9f3376673440d862a905090565b6000612b0683610920565b90508160976000858152602001908152602001600020600101819055508181847fbd79b86ffe0ab8e8776151514217cd7cacd52c909f66475c3af44e129f0b00ff60405160405180910390a4505050565b60008873ffffffffffffffffffffffffffffffffffffffff16637ecebe00896040518263ffffffff1660e01b8152600401612b9291906144b2565b602060405180830381865afa158015612baf573d6000803e3d6000fd5b505050506040513d601f19601f82011682018060405250810190612bd391906142fb565b90508873ffffffffffffffffffffffffffffffffffffffff1663d505accf898989898989896040518863ffffffff1660e01b8152600401612c1a9796959493929190614867565b600060405180830381600087803b158015612c3457600080fd5b505af1158015612c48573d6000803e3d6000fd5b5050505060008973ffffffffffffffffffffffffffffffffffffffff16637ecebe008a6040518263ffffffff1660e01b8152600401612c8791906144b2565b602060405180830381865afa158015612ca4573d6000803e3d6000fd5b505050506040513d601f19601f82011682018060405250810190612cc891906142fb565b9050600182612cd79190614070565b8114612d18576040517f08c379a0000000000000000000000000000000000000000000000000000000008152600401612d0f90614948565b60405180910390fd5b50505050505050505050565b612da7846323b872dd60e01b858585604051602401612d4593929190614968565b604051602081830303815290604052907bffffffffffffffffffffffffffffffffffffffffffffffffffffffff19166020820180517bffffffffffffffffffffffffffffffffffffffffffffffffffffffff838183161783525050505061325a565b50505050565b6000818473ffffffffffffffffffffffffffffffffffffffff1663dd62ed3e30866040518363ffffffff1660e01b8152600401612deb92919061499f565b602060405180830381865afa158015612e08573d6000803e3d6000fd5b505050506040513d601f19601f82011682018060405250810190612e2c91906142fb565b612e369190614070565b9050612eb98463095ea7b360e01b8584604051602401612e5792919061482f565b604051602081830303815290604052907bffffffffffffffffffffffffffffffffffffffffffffffffffffffff19166020820180517bffffffffffffffffffffffffffffffffffffffffffffffffffffffff838183161783525050505061325a565b50505050565b60008183612ecd919061403c565b9050600061010660008673ffffffffffffffffffffffffffffffffffffffff1673ffffffffffffffffffffffffffffffffffffffff16815260200190815260200160002054905060006101036000612f236121b3565b73ffffffffffffffffffffffffffffffffffffffff1673ffffffffffffffffffffffffffffffffffffffff16815260200190815260200160002060008773ffffffffffffffffffffffffffffffffffffffff1673ffffffffffffffffffffffffffffffffffffffff1681526020019081526020016000206003015490506000612fab87611f2a565b90508361010560008973ffffffffffffffffffffffffffffffffffffffff1673ffffffffffffffffffffffffffffffffffffffff16815260200190815260200160002060008581526020019081526020016000206000015461300d9190614070565b61010560008973ffffffffffffffffffffffffffffffffffffffff1673ffffffffffffffffffffffffffffffffffffffff168152602001908152602001600020600060fc548152602001908152602001600020600001819055508061010560008973ffffffffffffffffffffffffffffffffffffffff1673ffffffffffffffffffffffffffffffffffffffff1681526020019081526020016000206000600160fc546130b9919061403c565b8152602001908152602001600020600101819055508361010460006130dc6121b3565b73ffffffffffffffffffffffffffffffffffffffff1673ffffffffffffffffffffffffffffffffffffffff16815260200190815260200160002060008973ffffffffffffffffffffffffffffffffffffffff1673ffffffffffffffffffffffffffffffffffffffff16815260200190815260200160002060008481526020019081526020016000205461316f9190614070565b610104600061317c6121b3565b73ffffffffffffffffffffffffffffffffffffffff1673ffffffffffffffffffffffffffffffffffffffff16815260200190815260200160002060008973ffffffffffffffffffffffffffffffffffffffff1673ffffffffffffffffffffffffffffffffffffffff168152602001908152602001600020600060fc5481526020019081526020016000208190555060fc5461010660008973ffffffffffffffffffffffffffffffffffffffff1673ffffffffffffffffffffffffffffffffffffffff1681526020019081526020016000208190555050505050505050565b60006132bc826040518060400160405280602081526020017f5361666545524332303a206c6f772d6c6576656c2063616c6c206661696c65648152508573ffffffffffffffffffffffffffffffffffffffff1661346b9092919063ffffffff16565b905060008151111561331c57808060200190518101906132dc9190614662565b61331b576040517f08c379a000000000000000000000000000000000000000000000000000000000815260040161331290614a3a565b60405180910390fd5b5b505050565b61332b82826117ef565b6133a25761333881613483565b6133468360001c60206134b0565b604051602001613357929190614af2565b6040516020818303038152906040526040517f08c379a00000000000000000000000000000000000000000000000000000000081526004016133999190614b65565b60405180910390fd5b5050565b600060019054906101000a900460ff166133f5576040517f08c379a00000000000000000000000000000000000000000000000000000000081526004016133ec90614483565b60405180910390fd5b6000603360006101000a81548160ff021916908315150217905550565b600060019054906101000a900460ff16613461576040517f08c379a000000000000000000000000000000000000000000000000000000000815260040161345890614483565b60405180910390fd5b600160c981905550565b606061347a84846000856136ec565b90509392505050565b60606134a98273ffffffffffffffffffffffffffffffffffffffff16601460ff166134b0565b9050919050565b6060600060028360026134c39190614357565b6134cd9190614070565b67ffffffffffffffff8111156134e6576134e5613b57565b5b6040519080825280601f01601f1916602001820160405280156135185781602001600182028036833780820191505090505b5090507f3000000000000000000000000000000000000000000000000000000000000000816000815181106135505761354f614328565b5b60200101907effffffffffffffffffffffffffffffffffffffffffffffffffffffffffffff1916908160001a9053507f7800000000000000000000000000000000000000000000000000000000000000816001815181106135b4576135b3614328565b5b60200101907effffffffffffffffffffffffffffffffffffffffffffffffffffffffffffff1916908160001a905350600060018460026135f49190614357565b6135fe9190614070565b90505b600181111561369e577f3031323334353637383961626364656600000000000000000000000000000000600f8616601081106136405761363f614328565b5b1a60f81b82828151811061365757613656614328565b5b60200101907effffffffffffffffffffffffffffffffffffffffffffffffffffffffffffff1916908160001a905350600485901c94508061369790614b87565b9050613601565b50600084146136e2576040517f08c379a00000000000000000000000000000000000000000000000000000000081526004016136d990614bfc565b60405180910390fd5b8091505092915050565b606082471015613731576040517f08c379a000000000000000000000000000000000000000000000000000000000815260040161372890614c8e565b60405180910390fd5b6000808673ffffffffffffffffffffffffffffffffffffffff16858760405161375a9190614cf5565b60006040518083038185875af1925050503d8060008114613797576040519150601f19603f3d011682016040523d82523d6000602084013e61379c565b606091505b50915091506137ad878383876137b9565b92505050949350505050565b6060831561381b576000835103613813576137d3856126e0565b613812576040517f08c379a000000000000000000000000000000000000000000000000000000000815260040161380990614d58565b60405180910390fd5b5b829050613826565b613825838361382e565b5b949350505050565b6000825111156138415781518083602001fd5b806040517f08c379a00000000000000000000000000000000000000000000000000000000081526004016138759190614b65565b60405180910390fd5b6000604051905090565b600080fd5b600080fd5b600073ffffffffffffffffffffffffffffffffffffffff82169050919050565b60006138bd82613892565b9050919050565b6138cd816138b2565b81146138d857600080fd5b50565b6000813590506138ea816138c4565b92915050565b6000819050919050565b613903816138f0565b811461390e57600080fd5b50565b600081359050613920816138fa565b92915050565b60008060006060848603121561393f5761393e613888565b5b600061394d868287016138db565b935050602061395e868287016138db565b925050604061396f86828701613911565b9150509250925092565b60008115159050919050565b61398e81613979565b82525050565b60006020820190506139a96000830184613985565b92915050565b60007fffffffff0000000000000000000000000000000000000000000000000000000082169050919050565b6139e4816139af565b81146139ef57600080fd5b50565b600081359050613a01816139db565b92915050565b600060208284031215613a1d57613a1c613888565b5b6000613a2b848285016139f2565b91505092915050565b6000819050919050565b613a4781613a34565b8114613a5257600080fd5b50565b600081359050613a6481613a3e565b92915050565b600060208284031215613a8057613a7f613888565b5b6000613a8e84828501613a55565b91505092915050565b613aa081613a34565b82525050565b6000602082019050613abb6000830184613a97565b92915050565b60008060408385031215613ad857613ad7613888565b5b6000613ae685828601613a55565b9250506020613af7858286016138db565b9150509250929050565b60008060408385031215613b1857613b17613888565b5b6000613b26858286016138db565b9250506020613b37858286016138db565b9150509250929050565b600080fd5b6000601f19601f8301169050919050565b7f4e487b7100000000000000000000000000000000000000000000000000000000600052604160045260246000fd5b613b8f82613b46565b810181811067ffffffffffffffff82111715613bae57613bad613b57565b5b80604052505050565b6000613bc161387e565b9050613bcd8282613b86565b919050565b600067ffffffffffffffff821115613bed57613bec613b57565b5b602082029050602081019050919050565b600080fd5b6000613c16613c1184613bd2565b613bb7565b90508083825260208201905060208402830185811115613c3957613c38613bfe565b5b835b81811015613c625780613c4e88826138db565b845260208401935050602081019050613c3b565b5050509392505050565b600082601f830112613c8157613c80613b41565b5b8135613c91848260208601613c03565b91505092915050565b600080600080600060a08688031215613cb657613cb5613888565b5b600086013567ffffffffffffffff811115613cd457613cd361388d565b5b613ce088828901613c6c565b955050602086013567ffffffffffffffff811115613d0157613d0061388d565b5b613d0d88828901613c6c565b9450506040613d1e888289016138db565b9350506060613d2f88828901613911565b9250506080613d4088828901613911565b9150509295509295909350565b600060208284031215613d6357613d62613888565b5b6000613d71848285016138db565b91505092915050565b600060ff82169050919050565b613d9081613d7a565b8114613d9b57600080fd5b50565b600081359050613dad81613d87565b92915050565b600080600080600080600060e0888a031215613dd257613dd1613888565b5b6000613de08a828b016138db565b9750506020613df18a828b016138db565b9650506040613e028a828b01613911565b9550506060613e138a828b01613911565b9450506080613e248a828b01613d9e565b93505060a0613e358a828b01613a55565b92505060c0613e468a828b01613a55565b91505092959891949750929550565b600080fd5b600067ffffffffffffffff821115613e7557613e74613b57565b5b613e7e82613b46565b9050602081019050919050565b82818337600083830152505050565b6000613ead613ea884613e5a565b613bb7565b905082815260208101848484011115613ec957613ec8613e55565b5b613ed4848285613e8b565b509392505050565b600082601f830112613ef157613ef0613b41565b5b8135613f01848260208601613e9a565b91505092915050565b60008060008060808587031215613f2457613f23613888565b5b6000613f32878288016138db565b945050602085013567ffffffffffffffff811115613f5357613f5261388d565b5b613f5f87828801613edc565b9350506040613f70878288016138db565b9250506060613f8187828801613911565b91505092959194509250565b613f96816138f0565b82525050565b6000604082019050613fb16000830185613f8d565b613fbe6020830184613f8d565b9392505050565b7f4e487b7100000000000000000000000000000000000000000000000000000000600052601160045260246000fd5b6000613fff826138f0565b91507fffffffffffffffffffffffffffffffffffffffffffffffffffffffffffffffff820361403157614030613fc5565b5b600182019050919050565b6000614047826138f0565b9150614052836138f0565b925082820390508181111561406a57614069613fc5565b5b92915050565b600061407b826138f0565b9150614086836138f0565b925082820190508082111561409e5761409d613fc5565b5b92915050565b600082825260208201905092915050565b7f416363657373436f6e74726f6c3a2063616e206f6e6c792072656e6f756e636560008201527f20726f6c657320666f722073656c660000000000000000000000000000000000602082015250565b6000614111602f836140a4565b915061411c826140b5565b604082019050919050565b6000602082019050818103600083015261414081614104565b9050919050565b7f496e697469616c697a61626c653a20636f6e747261637420697320616c72656160008201527f647920696e697469616c697a6564000000000000000000000000000000000000602082015250565b60006141a3602e836140a4565b91506141ae82614147565b604082019050919050565b600060208201905081810360008301526141d281614196565b9050919050565b6000819050919050565b6000819050919050565b60006142086142036141fe846141d9565b6141e3565b613d7a565b9050919050565b614218816141ed565b82525050565b6000602082019050614233600083018461420f565b92915050565b7f4d75737420686176652061646d696e20726f6c6520746f20706572666f726d2060008201527f7468697320616374696f6e2e0000000000000000000000000000000000000000602082015250565b6000614295602c836140a4565b91506142a082614239565b604082019050919050565b600060208201905081810360008301526142c481614288565b9050919050565b60006020820190506142e06000830184613f8d565b92915050565b6000815190506142f5816138fa565b92915050565b60006020828403121561431157614310613888565b5b600061431f848285016142e6565b91505092915050565b7f4e487b7100000000000000000000000000000000000000000000000000000000600052603260045260246000fd5b6000614362826138f0565b915061436d836138f0565b9250817fffffffffffffffffffffffffffffffffffffffffffffffffffffffffffffffff04831182151516156143a6576143a5613fc5565b5b828202905092915050565b7f4e487b7100000000000000000000000000000000000000000000000000000000600052601260045260246000fd5b60006143eb826138f0565b91506143f6836138f0565b925082614406576144056143b1565b5b828204905092915050565b7f496e697469616c697a61626c653a20636f6e7472616374206973206e6f74206960008201527f6e697469616c697a696e67000000000000000000000000000000000000000000602082015250565b600061446d602b836140a4565b915061447882614411565b604082019050919050565b6000602082019050818103600083015261449c81614460565b9050919050565b6144ac816138b2565b82525050565b60006020820190506144c760008301846144a3565b92915050565b60005b838110156144eb5780820151818401526020810190506144d0565b60008484015250505050565b600061450a61450584613e5a565b613bb7565b90508281526020810184848401111561452657614525613e55565b5b6145318482856144cd565b509392505050565b600082601f83011261454e5761454d613b41565b5b815161455e8482602086016144f7565b91505092915050565b600081519050614576816138c4565b92915050565b6000806040838503121561459357614592613888565b5b600083015167ffffffffffffffff8111156145b1576145b061388d565b5b6145bd85828601614539565b92505060206145ce85828601614567565b9150509250929050565b600081519050919050565b600081905092915050565b60006145f9826145d8565b61460381856145e3565b93506146138185602086016144cd565b80840191505092915050565b600061462b82846145ee565b915081905092915050565b61463f81613979565b811461464a57600080fd5b50565b60008151905061465c81614636565b92915050565b60006020828403121561467857614677613888565b5b60006146868482850161464d565b91505092915050565b7f5265656e7472616e637947756172643a207265656e7472616e742063616c6c00600082015250565b60006146c5601f836140a4565b91506146d08261468f565b602082019050919050565b600060208201905081810360008301526146f4816146b8565b9050919050565b600081519050919050565b600082825260208201905092915050565b6000819050602082019050919050565b600061474261473d61473884613892565b6141e3565b613892565b9050919050565b600061475482614727565b9050919050565b600061476682614749565b9050919050565b6147768161475b565b82525050565b6000614788838361476d565b60208301905092915050565b6000602082019050919050565b60006147ac826146fb565b6147b68185614706565b93506147c183614717565b8060005b838110156147f25781516147d9888261477c565b97506147e483614794565b9250506001810190506147c5565b5085935050505092915050565b600060408201905061481460008301856144a3565b818103602083015261482681846147a1565b90509392505050565b600060408201905061484460008301856144a3565b6148516020830184613f8d565b9392505050565b61486181613d7a565b82525050565b600060e08201905061487c600083018a6144a3565b61488960208301896144a3565b6148966040830188613f8d565b6148a36060830187613f8d565b6148b06080830186614858565b6148bd60a0830185613a97565b6148ca60c0830184613a97565b98975050505050505050565b7f5361666545524332303a207065726d697420646964206e6f742073756363656560008201527f6400000000000000000000000000000000000000000000000000000000000000602082015250565b60006149326021836140a4565b915061493d826148d6565b604082019050919050565b6000602082019050818103600083015261496181614925565b9050919050565b600060608201905061497d60008301866144a3565b61498a60208301856144a3565b6149976040830184613f8d565b949350505050565b60006040820190506149b460008301856144a3565b6149c160208301846144a3565b9392505050565b7f5361666545524332303a204552433230206f7065726174696f6e20646964206e60008201527f6f74207375636365656400000000000000000000000000000000000000000000602082015250565b6000614a24602a836140a4565b9150614a2f826149c8565b604082019050919050565b60006020820190508181036000830152614a5381614a17565b9050919050565b7f416363657373436f6e74726f6c3a206163636f756e7420000000000000000000600082015250565b6000614a906017836145e3565b9150614a9b82614a5a565b601782019050919050565b7f206973206d697373696e6720726f6c6520000000000000000000000000000000600082015250565b6000614adc6011836145e3565b9150614ae782614aa6565b601182019050919050565b6000614afd82614a83565b9150614b0982856145ee565b9150614b1482614acf565b9150614b2082846145ee565b91508190509392505050565b6000614b37826145d8565b614b4181856140a4565b9350614b518185602086016144cd565b614b5a81613b46565b840191505092915050565b60006020820190508181036000830152614b7f8184614b2c565b905092915050565b6000614b92826138f0565b915060008203614ba557614ba4613fc5565b5b600182039050919050565b7f537472696e67733a20686578206c656e67746820696e73756666696369656e74600082015250565b6000614be66020836140a4565b9150614bf182614bb0565b602082019050919050565b60006020820190508181036000830152614c1581614bd9565b9050919050565b7f416464726573733a20696e73756666696369656e742062616c616e636520666f60008201527f722063616c6c0000000000000000000000000000000000000000000000000000602082015250565b6000614c786026836140a4565b9150614c8382614c1c565b604082019050919050565b60006020820190508181036000830152614ca781614c6b565b9050919050565b600081519050919050565b600081905092915050565b6000614ccf82614cae565b614cd98185614cb9565b9350614ce98185602086016144cd565b80840191505092915050565b6000614d018284614cc4565b915081905092915050565b7f416464726573733a2063616c6c20746f206e6f6e2d636f6e7472616374000000600082015250565b6000614d42601d836140a4565b9150614d4d82614d0c565b602082019050919050565b60006020820190508181036000830152614d7181614d35565b905091905056fea264697066735822122066c046cbcac87ccf7684430037838512463144fe86262f827d3d796cb101a8b264736f6c63430008100033",
  "linkReferences": {},
  "deployedLinkReferences": {}
}