{
  "_format": "hh-sol-artifact-1",
  "contractName": "VenusInsurance",
  "sourceName": "contracts/core/zeroPremium/SmartContractInsurance/Venus/VenusInsurance.sol",
  "abi": [
    {
      "inputs": [],
      "name": "BaseUpgradeablePausable__ZeroAddressError",
      "type": "error"
    },
    {
      "inputs": [],
      "name": "Compound_ZP__ImmutableChangesError",
      "type": "error"
    },
    {
      "inputs": [],
      "name": "Compound_ZP__LowAmountError",
      "type": "error"
    },
    {
      "inputs": [],
      "name": "Compound_ZP__LowSupplyAmountError",
      "type": "error"
    },
    {
      "inputs": [],
      "name": "Compound_ZP__TransactionFailedError",
      "type": "error"
    },
    {
      "inputs": [],
      "name": "Compound_ZP__WrongInfoEnteredError",
      "type": "error"
    },
    {
      "anonymous": false,
      "inputs": [
        {
          "indexed": false,
          "internalType": "uint8",
          "name": "version",
          "type": "uint8"
        }
      ],
      "name": "Initialized",
      "type": "event"
    },
    {
      "anonymous": false,
      "inputs": [
        {
          "indexed": false,
          "internalType": "address",
          "name": "account",
          "type": "address"
        }
      ],
      "name": "Paused",
      "type": "event"
    },
    {
      "anonymous": false,
      "inputs": [
        {
          "indexed": true,
          "internalType": "bytes32",
          "name": "role",
          "type": "bytes32"
        },
        {
          "indexed": true,
          "internalType": "bytes32",
          "name": "previousAdminRole",
          "type": "bytes32"
        },
        {
          "indexed": true,
          "internalType": "bytes32",
          "name": "newAdminRole",
          "type": "bytes32"
        }
      ],
      "name": "RoleAdminChanged",
      "type": "event"
    },
    {
      "anonymous": false,
      "inputs": [
        {
          "indexed": true,
          "internalType": "bytes32",
          "name": "role",
          "type": "bytes32"
        },
        {
          "indexed": true,
          "internalType": "address",
          "name": "account",
          "type": "address"
        },
        {
          "indexed": true,
          "internalType": "address",
          "name": "sender",
          "type": "address"
        }
      ],
      "name": "RoleGranted",
      "type": "event"
    },
    {
      "anonymous": false,
      "inputs": [
        {
          "indexed": true,
          "internalType": "bytes32",
          "name": "role",
          "type": "bytes32"
        },
        {
          "indexed": true,
          "internalType": "address",
          "name": "account",
          "type": "address"
        },
        {
          "indexed": true,
          "internalType": "address",
          "name": "sender",
          "type": "address"
        }
      ],
      "name": "RoleRevoked",
      "type": "event"
    },
    {
      "anonymous": false,
      "inputs": [
        {
          "indexed": true,
          "internalType": "address",
          "name": "userAddress",
          "type": "address"
        },
        {
          "indexed": true,
          "internalType": "address",
          "name": "tokenAddress",
          "type": "address"
        },
        {
          "indexed": true,
          "internalType": "uint256",
          "name": "amount",
          "type": "uint256"
        }
      ],
      "name": "SuppliedToken",
      "type": "event"
    },
    {
      "anonymous": false,
      "inputs": [
        {
          "indexed": false,
          "internalType": "address",
          "name": "account",
          "type": "address"
        }
      ],
      "name": "Unpaused",
      "type": "event"
    },
    {
      "anonymous": false,
      "inputs": [
        {
          "indexed": true,
          "internalType": "address",
          "name": "userAddress",
          "type": "address"
        },
        {
          "indexed": true,
          "internalType": "address",
          "name": "tokenAddress",
          "type": "address"
        },
        {
          "indexed": true,
          "internalType": "uint256",
          "name": "amount",
          "type": "uint256"
        }
      ],
      "name": "WithdrawnToken",
      "type": "event"
    },
    {
      "inputs": [],
      "name": "DEFAULT_ADMIN_ROLE",
      "outputs": [
        {
          "internalType": "bytes32",
          "name": "",
          "type": "bytes32"
        }
      ],
      "stateMutability": "view",
      "type": "function"
    },
    {
      "inputs": [
        {
          "internalType": "address",
          "name": "owner",
          "type": "address"
        }
      ],
      "name": "__BaseUpgradeablePausable_init",
      "outputs": [],
      "stateMutability": "nonpayable",
      "type": "function"
    },
    {
      "inputs": [
        {
          "internalType": "address",
          "name": "rewardTokenAddress",
          "type": "address"
        }
      ],
      "name": "calculateUserBalance",
      "outputs": [
        {
          "internalType": "uint256",
          "name": "",
          "type": "uint256"
        }
      ],
      "stateMutability": "view",
      "type": "function"
    },
    {
      "inputs": [
        {
          "internalType": "bytes32",
          "name": "role",
          "type": "bytes32"
        }
      ],
      "name": "getRoleAdmin",
      "outputs": [
        {
          "internalType": "bytes32",
          "name": "",
          "type": "bytes32"
        }
      ],
      "stateMutability": "view",
      "type": "function"
    },
    {
      "inputs": [
        {
          "internalType": "bytes32",
          "name": "role",
          "type": "bytes32"
        },
        {
          "internalType": "address",
          "name": "account",
          "type": "address"
        }
      ],
      "name": "grantRole",
      "outputs": [],
      "stateMutability": "nonpayable",
      "type": "function"
    },
    {
      "inputs": [
        {
          "internalType": "bytes32",
          "name": "role",
          "type": "bytes32"
        },
        {
          "internalType": "address",
          "name": "account",
          "type": "address"
        }
      ],
      "name": "hasRole",
      "outputs": [
        {
          "internalType": "bool",
          "name": "",
          "type": "bool"
        }
      ],
      "stateMutability": "view",
      "type": "function"
    },
    {
      "inputs": [
        {
          "internalType": "address",
          "name": "_controllerAddress",
          "type": "address"
        },
        {
          "internalType": "string",
          "name": "protocolName",
          "type": "string"
        },
        {
          "internalType": "address",
          "name": "deployedAddress",
          "type": "address"
        },
        {
          "internalType": "uint256",
          "name": "protocolID",
          "type": "uint256"
        }
      ],
      "name": "init",
      "outputs": [],
      "stateMutability": "nonpayable",
      "type": "function"
    },
    {
      "inputs": [],
      "name": "initialize",
      "outputs": [],
      "stateMutability": "nonpayable",
      "type": "function"
    },
    {
      "inputs": [],
      "name": "isAdmin",
      "outputs": [
        {
          "internalType": "bool",
          "name": "",
          "type": "bool"
        }
      ],
      "stateMutability": "view",
      "type": "function"
    },
    {
      "inputs": [],
      "name": "paused",
      "outputs": [
        {
          "internalType": "bool",
          "name": "",
          "type": "bool"
        }
      ],
      "stateMutability": "view",
      "type": "function"
    },
    {
      "inputs": [
        {
          "internalType": "bytes32",
          "name": "role",
          "type": "bytes32"
        },
        {
          "internalType": "address",
          "name": "account",
          "type": "address"
        }
      ],
      "name": "renounceRole",
      "outputs": [],
      "stateMutability": "nonpayable",
      "type": "function"
    },
    {
      "inputs": [
        {
          "internalType": "bytes32",
          "name": "role",
          "type": "bytes32"
        },
        {
          "internalType": "address",
          "name": "account",
          "type": "address"
        }
      ],
      "name": "revokeRole",
      "outputs": [],
      "stateMutability": "nonpayable",
      "type": "function"
    },
    {
      "inputs": [
        {
          "internalType": "address",
          "name": "tokenAddress",
          "type": "address"
        },
        {
          "internalType": "address",
          "name": "rewardTokenAddress",
          "type": "address"
        },
        {
          "internalType": "uint256",
          "name": "amount",
          "type": "uint256"
        },
        {
          "internalType": "uint256",
          "name": "deadline",
          "type": "uint256"
        },
        {
          "internalType": "uint8",
          "name": "v",
          "type": "uint8"
        },
        {
          "internalType": "bytes32",
          "name": "r",
          "type": "bytes32"
        },
        {
          "internalType": "bytes32",
          "name": "s",
          "type": "bytes32"
        }
      ],
      "name": "supplyToken",
      "outputs": [
        {
          "internalType": "bool",
          "name": "",
          "type": "bool"
        }
      ],
      "stateMutability": "nonpayable",
      "type": "function"
    },
    {
      "inputs": [
        {
          "internalType": "bytes4",
          "name": "interfaceId",
          "type": "bytes4"
        }
      ],
      "name": "supportsInterface",
      "outputs": [
        {
          "internalType": "bool",
          "name": "",
          "type": "bool"
        }
      ],
      "stateMutability": "view",
      "type": "function"
    },
    {
      "inputs": [
        {
          "internalType": "address",
          "name": "tokenAddress",
          "type": "address"
        },
        {
          "internalType": "address",
          "name": "rewardTokenAddress",
          "type": "address"
        },
        {
          "internalType": "uint256",
          "name": "amount",
          "type": "uint256"
        }
      ],
      "name": "withdrawToken",
      "outputs": [
        {
          "internalType": "bool",
          "name": "",
          "type": "bool"
        }
      ],
      "stateMutability": "nonpayable",
      "type": "function"
    }
  ],
  "bytecode": "0x608060405234801561001057600080fd5b50613e11806100206000396000f3fe608060405234801561001057600080fd5b50600436106100f55760003560e01c80636f63211411610097578063a217fddf11610066578063a217fddf14610282578063b6db75a0146102a0578063c72fea59146102be578063d547741f146102ee576100f5565b80636f632114146101fc578063732debfb1461022c5780638129fc1c1461024857806391d1485414610252576100f5565b80632f2ff15d116100d35780632f2ff15d1461018a57806336568abe146101a65780635c975abb146101c25780636e810b1a146101e0576100f5565b806301e33667146100fa57806301ffc9a71461012a578063248a9ca31461015a575b600080fd5b610114600480360381019061010f9190612c78565b61030a565b6040516101219190612ce6565b60405180910390f35b610144600480360381019061013f9190612d59565b6108a6565b6040516101519190612ce6565b60405180910390f35b610174600480360381019061016f9190612dbc565b610920565b6040516101819190612df8565b60405180910390f35b6101a4600480360381019061019f9190612e13565b610940565b005b6101c060048036038101906101bb9190612e13565b610961565b005b6101ca6109e4565b6040516101d79190612ce6565b60405180910390f35b6101fa60048036038101906101f59190612e53565b6109fb565b005b61021660048036038101906102119190612eb9565b610b1d565b6040516102239190612ce6565b60405180910390f35b610246600480360381019061024191906130a1565b6110de565b005b61025061135a565b005b61026c60048036038101906102679190612e13565b6114a0565b6040516102799190612ce6565b60405180910390f35b61028a61150b565b6040516102979190612df8565b60405180910390f35b6102a8611512565b6040516102b59190612ce6565b60405180910390f35b6102d860048036038101906102d39190612e53565b611531565b6040516102e59190613133565b60405180910390f35b61030860048036038101906103039190612e13565b611b1c565b005b6000610314611b3d565b60fd600081546103239061317d565b91905081905550600061033584611531565b905082811015610371576040517fe7231dcd00000000000000000000000000000000000000000000000000000000815260040160405180910390fd5b6000859050600085905060008173ffffffffffffffffffffffffffffffffffffffff166370a08231306040518263ffffffff1660e01b81526004016103b691906131d4565b602060405180830381865afa1580156103d3573d6000803e3d6000fd5b505050506040513d601f19601f820116820180604052508101906103f79190613204565b90508561010260008973ffffffffffffffffffffffffffffffffffffffff1673ffffffffffffffffffffffffffffffffffffffff168152602001908152602001600020600060fd548152602001908152602001600020600001600082825461045f9190613231565b9250508190555061010260008873ffffffffffffffffffffffffffffffffffffffff1673ffffffffffffffffffffffffffffffffffffffff1681526020019081526020016000206000600160fd546104b79190613231565b815260200190815260200160002060000154816104d49190613231565b61010260008973ffffffffffffffffffffffffffffffffffffffff1673ffffffffffffffffffffffffffffffffffffffff1681526020019081526020016000206000600160fd546105259190613231565b815260200190815260200160002060010181905550856101016000610548611b8c565b73ffffffffffffffffffffffffffffffffffffffff1673ffffffffffffffffffffffffffffffffffffffff16815260200190815260200160002060008973ffffffffffffffffffffffffffffffffffffffff1673ffffffffffffffffffffffffffffffffffffffff168152602001908152602001600020600060fd54815260200190815260200160002060010160008282546105e49190613265565b925050819055508386036106935760006101006000610601611b8c565b73ffffffffffffffffffffffffffffffffffffffff1673ffffffffffffffffffffffffffffffffffffffff16815260200190815260200160002060008973ffffffffffffffffffffffffffffffffffffffff1673ffffffffffffffffffffffffffffffffffffffff16815260200190815260200160002060000160006101000a81548160ff0219169083151502179055505b60008373ffffffffffffffffffffffffffffffffffffffff166370a08231306040518263ffffffff1660e01b81526004016106ce91906131d4565b602060405180830381865afa1580156106eb573d6000803e3d6000fd5b505050506040513d601f19601f8201168201806040525081019061070f9190613204565b905060008873ffffffffffffffffffffffffffffffffffffffff1663852a12e3896040518263ffffffff1660e01b815260040161074c9190613133565b6020604051808303816000875af115801561076b573d6000803e3d6000fd5b505050506040513d601f19601f8201168201806040525081019061078f9190613204565b9050600081146107cb576040517f1941b85300000000000000000000000000000000000000000000000000000000815260040160405180910390fd5b60008573ffffffffffffffffffffffffffffffffffffffff166370a08231306040518263ffffffff1660e01b815260040161080691906131d4565b602060405180830381865afa158015610823573d6000803e3d6000fd5b505050506040513d601f19601f820116820180604052508101906108479190613204565b9050600083826108579190613231565b905061088b610864611b8c565b828973ffffffffffffffffffffffffffffffffffffffff16611b949092919063ffffffff16565b60019850505050505050505061089f611c1a565b9392505050565b60007f7965db0b000000000000000000000000000000000000000000000000000000007bffffffffffffffffffffffffffffffffffffffffffffffffffffffff1916827bffffffffffffffffffffffffffffffffffffffffffffffffffffffff19161480610919575061091882611c24565b5b9050919050565b600060976000838152602001908152602001600020600101549050919050565b61094982610920565b61095281611c8e565b61095c8383611ca2565b505050565b610969611b8c565b73ffffffffffffffffffffffffffffffffffffffff168173ffffffffffffffffffffffffffffffffffffffff16146109d6576040517f08c379a00000000000000000000000000000000000000000000000000000000081526004016109cd9061331c565b60405180910390fd5b6109e08282611d83565b5050565b6000603360009054906101000a900460ff16905090565b600060019054906101000a900460ff16610a4a576040517f08c379a0000000000000000000000000000000000000000000000000000000008152600401610a41906133ae565b60405180910390fd5b600073ffffffffffffffffffffffffffffffffffffffff168173ffffffffffffffffffffffffffffffffffffffff1603610ab0576040517f5415139400000000000000000000000000000000000000000000000000000000815260040160405180910390fd5b610ab8611e65565b610ac0611ebe565b610ac8611f0f565b610ad9610ad3611f68565b82611ca2565b610aea610ae4611f90565b82611ca2565b610b02610af5611f90565b610afd611f68565b611fb8565b610b1a610b0d611f68565b610b15611f68565b611fb8565b50565b6000610b27611b3d565b6402540be400861015610b66576040517f7e1764b300000000000000000000000000000000000000000000000000000000815260040160405180910390fd5b60fd60008154610b759061317d565b91905081905550600060fe60009054906101000a900473ffffffffffffffffffffffffffffffffffffffff1673ffffffffffffffffffffffffffffffffffffffff1663c07f47d46040518163ffffffff1660e01b8152600401602060405180830381865afa158015610beb573d6000803e3d6000fd5b505050506040513d601f19601f82011682018060405250810190610c0f9190613204565b90508060ff600060fd548152602001908152602001600020819055506000899050600089905060008b90506101006000610c47611b8c565b73ffffffffffffffffffffffffffffffffffffffff1673ffffffffffffffffffffffffffffffffffffffff16815260200190815260200160002060008c73ffffffffffffffffffffffffffffffffffffffff1673ffffffffffffffffffffffffffffffffffffffff16815260200190815260200160002060000160009054906101000a900460ff16610e025760fd546101006000610ce3611b8c565b73ffffffffffffffffffffffffffffffffffffffff1673ffffffffffffffffffffffffffffffffffffffff16815260200190815260200160002060008d73ffffffffffffffffffffffffffffffffffffffff1673ffffffffffffffffffffffffffffffffffffffff1681526020019081526020016000206001018190555060016101006000610d70611b8c565b73ffffffffffffffffffffffffffffffffffffffff1673ffffffffffffffffffffffffffffffffffffffff16815260200190815260200160002060008d73ffffffffffffffffffffffffffffffffffffffff1673ffffffffffffffffffffffffffffffffffffffff16815260200190815260200160002060000160006101000a81548160ff0219169083151502179055505b60008273ffffffffffffffffffffffffffffffffffffffff166370a08231306040518263ffffffff1660e01b8152600401610e3d91906131d4565b602060405180830381865afa158015610e5a573d6000803e3d6000fd5b505050506040513d601f19601f82011682018060405250810190610e7e9190613204565b9050610ebc610e8b611b8c565b308d8d8d8d8d8973ffffffffffffffffffffffffffffffffffffffff1661201490979695949392919063ffffffff16565b610ef0610ec7611b8c565b308d8773ffffffffffffffffffffffffffffffffffffffff166121e1909392919063ffffffff16565b610f1b8c8c8673ffffffffffffffffffffffffffffffffffffffff1661226a9092919063ffffffff16565b60008c73ffffffffffffffffffffffffffffffffffffffff1663a0712d688d6040518263ffffffff1660e01b8152600401610f569190613133565b6020604051808303816000875af1158015610f75573d6000803e3d6000fd5b505050506040513d601f19601f82011682018060405250810190610f999190613204565b905060008114610fd5576040517f1941b85300000000000000000000000000000000000000000000000000000000815260040160405180910390fd5b60008473ffffffffffffffffffffffffffffffffffffffff166370a08231306040518263ffffffff1660e01b815260040161101091906131d4565b602060405180830381865afa15801561102d573d6000803e3d6000fd5b505050506040513d601f19601f820116820180604052508101906110519190613204565b905061105e8e828561237c565b8c8f73ffffffffffffffffffffffffffffffffffffffff1661107e611b8c565b73ffffffffffffffffffffffffffffffffffffffff167fa64bf1fcc4f3d7c965ef3091c978df041ad959bfaa6d5abc7d99a17830407b2960405160405180910390a460019750505050505050506110d3611c1a565b979650505050505050565b6110e6611512565b611125576040517f08c379a000000000000000000000000000000000000000000000000000000000815260040161111c90613440565b60405180910390fd5b600060fc541115611162576040517f5f39ce3900000000000000000000000000000000000000000000000000000000815260040160405180910390fd5b60fc600081546111719061317d565b919050819055508360fe60006101000a81548173ffffffffffffffffffffffffffffffffffffffff021916908373ffffffffffffffffffffffffffffffffffffffff16021790555060008060fe60009054906101000a900473ffffffffffffffffffffffffffffffffffffffff1673ffffffffffffffffffffffffffffffffffffffff16634b40ac92846040518263ffffffff1660e01b81526004016112179190613133565b600060405180830381865afa158015611234573d6000803e3d6000fd5b505050506040513d6000823e3d601f19601f8201168201806040525081019061125d919061350f565b915091508373ffffffffffffffffffffffffffffffffffffffff168173ffffffffffffffffffffffffffffffffffffffff16146112c6576040517fd3d93e9600000000000000000000000000000000000000000000000000000000815260040160405180910390fd5b846040516020016112d791906135b2565b60405160208183030381529060405280519060200120826040516020016112fe91906135b2565b604051602081830303815290604052805190602001201461134b576040517fd3d93e9600000000000000000000000000000000000000000000000000000000815260040160405180910390fd5b8260fb81905550505050505050565b60008060019054906101000a900460ff1615905080801561138b5750600160008054906101000a900460ff1660ff16105b806113b8575061139a30612589565b1580156113b75750600160008054906101000a900460ff1660ff16145b5b6113f7576040517f08c379a00000000000000000000000000000000000000000000000000000000081526004016113ee9061363b565b60405180910390fd5b60016000806101000a81548160ff021916908360ff1602179055508015611434576001600060016101000a81548160ff0219169083151502179055505b61144461143f611b8c565b6109fb565b801561149d5760008060016101000a81548160ff0219169083151502179055507f7f26b83ff96e1f2b6a682f133852f6798a09c465da95921460cefb3847402498600160405161149491906136a0565b60405180910390a15b50565b60006097600084815260200190815260200160002060000160008373ffffffffffffffffffffffffffffffffffffffff1673ffffffffffffffffffffffffffffffffffffffff16815260200190815260200160002060009054906101000a900460ff16905092915050565b6000801b81565b600061152c61151f611f68565b611527611b8c565b6114a0565b905090565b600080600090506000806101006000611548611b8c565b73ffffffffffffffffffffffffffffffffffffffff1673ffffffffffffffffffffffffffffffffffffffff16815260200190815260200160002060008673ffffffffffffffffffffffffffffffffffffffff1673ffffffffffffffffffffffffffffffffffffffff168152602001908152602001600020600101549050600060fd54905060008060008490505b83811015611aff57600061010160006115ec611b8c565b73ffffffffffffffffffffffffffffffffffffffff1673ffffffffffffffffffffffffffffffffffffffff16815260200190815260200160002060008b73ffffffffffffffffffffffffffffffffffffffff1673ffffffffffffffffffffffffffffffffffffffff168152602001908152602001600020600083815260200190815260200160002060405180604001604052908160008201548152602001600182015481525050905060008160000151905060008260200151905060008211156116bf57818a6116bc9190613265565b99505b60008111156116d757808a6116d49190613231565b99505b600061010260008e73ffffffffffffffffffffffffffffffffffffffff1673ffffffffffffffffffffffffffffffffffffffff16815260200190815260200160002060008681526020019081526020016000206000015461010260008f73ffffffffffffffffffffffffffffffffffffffff1673ffffffffffffffffffffffffffffffffffffffff1681526020019081526020016000206000878152602001908152602001600020600101548c61178e91906136bb565b6117989190613744565b9050808a6117a69190613265565b9950600060fe60009054906101000a900473ffffffffffffffffffffffffffffffffffffffff1673ffffffffffffffffffffffffffffffffffffffff1663c07f47d46040518163ffffffff1660e01b8152600401602060405180830381865afa158015611817573d6000803e3d6000fd5b505050506040513d601f19601f8201168201806040525081019061183b9190613204565b9050808714611ae95780965060fe60009054906101000a900473ffffffffffffffffffffffffffffffffffffffff1673ffffffffffffffffffffffffffffffffffffffff166305044ea660fb54896040518363ffffffff1660e01b81526004016118a6929190613775565b602060405180830381865afa1580156118c3573d6000803e3d6000fd5b505050506040513d601f19601f820116820180604052508101906118e791906137ca565b1561198f5760fe60009054906101000a900473ffffffffffffffffffffffffffffffffffffffff1673ffffffffffffffffffffffffffffffffffffffff16639cb0675860fb54896040518363ffffffff1660e01b815260040161194b929190613775565b602060405180830381865afa158015611968573d6000803e3d6000fd5b505050506040513d601f19601f8201168201806040525081019061198c9190613204565b97505b60fe60009054906101000a900473ffffffffffffffffffffffffffffffffffffffff1673ffffffffffffffffffffffffffffffffffffffff1663b557e4a6888a6040518363ffffffff1660e01b81526004016119ec929190613775565b602060405180830381865afa158015611a09573d6000803e3d6000fd5b505050506040513d601f19601f82011682018060405250810190611a2d91906137ca565b15611ae857606460fe60009054906101000a900473ffffffffffffffffffffffffffffffffffffffff1673ffffffffffffffffffffffffffffffffffffffff166339c4c205896040518263ffffffff1660e01b8152600401611a8f9190613133565b602060405180830381865afa158015611aac573d6000803e3d6000fd5b505050506040513d601f19601f82011682018060405250810190611ad09190613204565b8d611adb91906136bb565b611ae59190613744565b9b505b5b85611af39061317d565b955050505050506115d5565b508486611b0c9190613265565b9550859650505050505050919050565b611b2582610920565b611b2e81611c8e565b611b388383611d83565b505050565b600260c95403611b82576040517f08c379a0000000000000000000000000000000000000000000000000000000008152600401611b7990613843565b60405180910390fd5b600260c981905550565b600033905090565b611c158363a9059cbb60e01b8484604051602401611bb3929190613863565b604051602081830303815290604052907bffffffffffffffffffffffffffffffffffffffffffffffffffffffff19166020820180517bffffffffffffffffffffffffffffffffffffffffffffffffffffffff83818316178352505050506125ac565b505050565b600160c981905550565b60007f01ffc9a7000000000000000000000000000000000000000000000000000000007bffffffffffffffffffffffffffffffffffffffffffffffffffffffff1916827bffffffffffffffffffffffffffffffffffffffffffffffffffffffff1916149050919050565b611c9f81611c9a611b8c565b612673565b50565b611cac82826114a0565b611d7f5760016097600084815260200190815260200160002060000160008373ffffffffffffffffffffffffffffffffffffffff1673ffffffffffffffffffffffffffffffffffffffff16815260200190815260200160002060006101000a81548160ff021916908315150217905550611d24611b8c565b73ffffffffffffffffffffffffffffffffffffffff168173ffffffffffffffffffffffffffffffffffffffff16837f2f8788117e7eff1d82e926ec794901d17c78024a50270940304540a733656f0d60405160405180910390a45b5050565b611d8d82826114a0565b15611e615760006097600084815260200190815260200160002060000160008373ffffffffffffffffffffffffffffffffffffffff1673ffffffffffffffffffffffffffffffffffffffff16815260200190815260200160002060006101000a81548160ff021916908315150217905550611e06611b8c565b73ffffffffffffffffffffffffffffffffffffffff168173ffffffffffffffffffffffffffffffffffffffff16837ff6391f5c32d9c69d2a47ea670b442974b53935d1edc7fd64eb21e047a839171b60405160405180910390a45b5050565b600060019054906101000a900460ff16611eb4576040517f08c379a0000000000000000000000000000000000000000000000000000000008152600401611eab906133ae565b60405180910390fd5b611ebc6126f8565b565b600060019054906101000a900460ff16611f0d576040517f08c379a0000000000000000000000000000000000000000000000000000000008152600401611f04906133ae565b60405180910390fd5b565b600060019054906101000a900460ff16611f5e576040517f08c379a0000000000000000000000000000000000000000000000000000000008152600401611f55906133ae565b60405180910390fd5b611f66612764565b565b60007fa49807205ce4d355092ef5a8a18f56e8913cf4a201fbe287825b095693c21775905090565b60007f65d7a28e3265b37a6474929f336521b332c1681b933f6cb9f3376673440d862a905090565b6000611fc383610920565b90508160976000858152602001908152602001600020600101819055508181847fbd79b86ffe0ab8e8776151514217cd7cacd52c909f66475c3af44e129f0b00ff60405160405180910390a4505050565b60008873ffffffffffffffffffffffffffffffffffffffff16637ecebe00896040518263ffffffff1660e01b815260040161204f91906131d4565b602060405180830381865afa15801561206c573d6000803e3d6000fd5b505050506040513d601f19601f820116820180604052508101906120909190613204565b90508873ffffffffffffffffffffffffffffffffffffffff1663d505accf898989898989896040518863ffffffff1660e01b81526004016120d7979695949392919061389b565b600060405180830381600087803b1580156120f157600080fd5b505af1158015612105573d6000803e3d6000fd5b5050505060008973ffffffffffffffffffffffffffffffffffffffff16637ecebe008a6040518263ffffffff1660e01b815260040161214491906131d4565b602060405180830381865afa158015612161573d6000803e3d6000fd5b505050506040513d601f19601f820116820180604052508101906121859190613204565b90506001826121949190613265565b81146121d5576040517f08c379a00000000000000000000000000000000000000000000000000000000081526004016121cc9061397c565b60405180910390fd5b50505050505050505050565b612264846323b872dd60e01b8585856040516024016122029392919061399c565b604051602081830303815290604052907bffffffffffffffffffffffffffffffffffffffffffffffffffffffff19166020820180517bffffffffffffffffffffffffffffffffffffffffffffffffffffffff83818316178352505050506125ac565b50505050565b6000818473ffffffffffffffffffffffffffffffffffffffff1663dd62ed3e30866040518363ffffffff1660e01b81526004016122a89291906139d3565b602060405180830381865afa1580156122c5573d6000803e3d6000fd5b505050506040513d601f19601f820116820180604052508101906122e99190613204565b6122f39190613265565b90506123768463095ea7b360e01b8584604051602401612314929190613863565b604051602081830303815290604052907bffffffffffffffffffffffffffffffffffffffffffffffffffffffff19166020820180517bffffffffffffffffffffffffffffffffffffffffffffffffffffffff83818316178352505050506125ac565b50505050565b80826123889190613231565b61010260008573ffffffffffffffffffffffffffffffffffffffff1673ffffffffffffffffffffffffffffffffffffffff168152602001908152602001600020600060fd54815260200190815260200160002060000160008282546123ed9190613265565b9250508190555061010260008473ffffffffffffffffffffffffffffffffffffffff1673ffffffffffffffffffffffffffffffffffffffff1681526020019081526020016000206000600160fd546124459190613231565b815260200190815260200160002060000154816124629190613231565b61010260008573ffffffffffffffffffffffffffffffffffffffff1673ffffffffffffffffffffffffffffffffffffffff1681526020019081526020016000206000600160fd546124b39190613231565b81526020019081526020016000206001018190555080826124d49190613231565b61010160006124e1611b8c565b73ffffffffffffffffffffffffffffffffffffffff1673ffffffffffffffffffffffffffffffffffffffff16815260200190815260200160002060008573ffffffffffffffffffffffffffffffffffffffff1673ffffffffffffffffffffffffffffffffffffffff168152602001908152602001600020600060fd548152602001908152602001600020600001600082825461257d9190613265565b92505081905550505050565b6000808273ffffffffffffffffffffffffffffffffffffffff163b119050919050565b600061260e826040518060400160405280602081526020017f5361666545524332303a206c6f772d6c6576656c2063616c6c206661696c65648152508573ffffffffffffffffffffffffffffffffffffffff166127bd9092919063ffffffff16565b905060008151111561266e578080602001905181019061262e91906137ca565b61266d576040517f08c379a000000000000000000000000000000000000000000000000000000000815260040161266490613a6e565b60405180910390fd5b5b505050565b61267d82826114a0565b6126f45761268a816127d5565b6126988360001c6020612802565b6040516020016126a9929190613b26565b6040516020818303038152906040526040517f08c379a00000000000000000000000000000000000000000000000000000000081526004016126eb9190613b99565b60405180910390fd5b5050565b600060019054906101000a900460ff16612747576040517f08c379a000000000000000000000000000000000000000000000000000000000815260040161273e906133ae565b60405180910390fd5b6000603360006101000a81548160ff021916908315150217905550565b600060019054906101000a900460ff166127b3576040517f08c379a00000000000000000000000000000000000000000000000000000000081526004016127aa906133ae565b60405180910390fd5b600160c981905550565b60606127cc8484600085612a3e565b90509392505050565b60606127fb8273ffffffffffffffffffffffffffffffffffffffff16601460ff16612802565b9050919050565b60606000600283600261281591906136bb565b61281f9190613265565b67ffffffffffffffff81111561283857612837612f76565b5b6040519080825280601f01601f19166020018201604052801561286a5781602001600182028036833780820191505090505b5090507f3000000000000000000000000000000000000000000000000000000000000000816000815181106128a2576128a1613bbb565b5b60200101907effffffffffffffffffffffffffffffffffffffffffffffffffffffffffffff1916908160001a9053507f78000000000000000000000000000000000000000000000000000000000000008160018151811061290657612905613bbb565b5b60200101907effffffffffffffffffffffffffffffffffffffffffffffffffffffffffffff1916908160001a9053506000600184600261294691906136bb565b6129509190613265565b90505b60018111156129f0577f3031323334353637383961626364656600000000000000000000000000000000600f86166010811061299257612991613bbb565b5b1a60f81b8282815181106129a9576129a8613bbb565b5b60200101907effffffffffffffffffffffffffffffffffffffffffffffffffffffffffffff1916908160001a905350600485901c9450806129e990613bea565b9050612953565b5060008414612a34576040517f08c379a0000000000000000000000000000000000000000000000000000000008152600401612a2b90613c5f565b60405180910390fd5b8091505092915050565b606082471015612a83576040517f08c379a0000000000000000000000000000000000000000000000000000000008152600401612a7a90613cf1565b60405180910390fd5b6000808673ffffffffffffffffffffffffffffffffffffffff168587604051612aac9190613d58565b60006040518083038185875af1925050503d8060008114612ae9576040519150601f19603f3d011682016040523d82523d6000602084013e612aee565b606091505b5091509150612aff87838387612b0b565b92505050949350505050565b60608315612b6d576000835103612b6557612b2585612589565b612b64576040517f08c379a0000000000000000000000000000000000000000000000000000000008152600401612b5b90613dbb565b60405180910390fd5b5b829050612b78565b612b778383612b80565b5b949350505050565b600082511115612b935781518083602001fd5b806040517f08c379a0000000000000000000000000000000000000000000000000000000008152600401612bc79190613b99565b60405180910390fd5b6000604051905090565b600080fd5b600080fd5b600073ffffffffffffffffffffffffffffffffffffffff82169050919050565b6000612c0f82612be4565b9050919050565b612c1f81612c04565b8114612c2a57600080fd5b50565b600081359050612c3c81612c16565b92915050565b6000819050919050565b612c5581612c42565b8114612c6057600080fd5b50565b600081359050612c7281612c4c565b92915050565b600080600060608486031215612c9157612c90612bda565b5b6000612c9f86828701612c2d565b9350506020612cb086828701612c2d565b9250506040612cc186828701612c63565b9150509250925092565b60008115159050919050565b612ce081612ccb565b82525050565b6000602082019050612cfb6000830184612cd7565b92915050565b60007fffffffff0000000000000000000000000000000000000000000000000000000082169050919050565b612d3681612d01565b8114612d4157600080fd5b50565b600081359050612d5381612d2d565b92915050565b600060208284031215612d6f57612d6e612bda565b5b6000612d7d84828501612d44565b91505092915050565b6000819050919050565b612d9981612d86565b8114612da457600080fd5b50565b600081359050612db681612d90565b92915050565b600060208284031215612dd257612dd1612bda565b5b6000612de084828501612da7565b91505092915050565b612df281612d86565b82525050565b6000602082019050612e0d6000830184612de9565b92915050565b60008060408385031215612e2a57612e29612bda565b5b6000612e3885828601612da7565b9250506020612e4985828601612c2d565b9150509250929050565b600060208284031215612e6957612e68612bda565b5b6000612e7784828501612c2d565b91505092915050565b600060ff82169050919050565b612e9681612e80565b8114612ea157600080fd5b50565b600081359050612eb381612e8d565b92915050565b600080600080600080600060e0888a031215612ed857612ed7612bda565b5b6000612ee68a828b01612c2d565b9750506020612ef78a828b01612c2d565b9650506040612f088a828b01612c63565b9550506060612f198a828b01612c63565b9450506080612f2a8a828b01612ea4565b93505060a0612f3b8a828b01612da7565b92505060c0612f4c8a828b01612da7565b91505092959891949750929550565b600080fd5b600080fd5b6000601f19601f8301169050919050565b7f4e487b7100000000000000000000000000000000000000000000000000000000600052604160045260246000fd5b612fae82612f65565b810181811067ffffffffffffffff82111715612fcd57612fcc612f76565b5b80604052505050565b6000612fe0612bd0565b9050612fec8282612fa5565b919050565b600067ffffffffffffffff82111561300c5761300b612f76565b5b61301582612f65565b9050602081019050919050565b82818337600083830152505050565b600061304461303f84612ff1565b612fd6565b9050828152602081018484840111156130605761305f612f60565b5b61306b848285613022565b509392505050565b600082601f83011261308857613087612f5b565b5b8135613098848260208601613031565b91505092915050565b600080600080608085870312156130bb576130ba612bda565b5b60006130c987828801612c2d565b945050602085013567ffffffffffffffff8111156130ea576130e9612bdf565b5b6130f687828801613073565b935050604061310787828801612c2d565b925050606061311887828801612c63565b91505092959194509250565b61312d81612c42565b82525050565b60006020820190506131486000830184613124565b92915050565b7f4e487b7100000000000000000000000000000000000000000000000000000000600052601160045260246000fd5b600061318882612c42565b91507fffffffffffffffffffffffffffffffffffffffffffffffffffffffffffffffff82036131ba576131b961314e565b5b600182019050919050565b6131ce81612c04565b82525050565b60006020820190506131e960008301846131c5565b92915050565b6000815190506131fe81612c4c565b92915050565b60006020828403121561321a57613219612bda565b5b6000613228848285016131ef565b91505092915050565b600061323c82612c42565b915061324783612c42565b925082820390508181111561325f5761325e61314e565b5b92915050565b600061327082612c42565b915061327b83612c42565b92508282019050808211156132935761329261314e565b5b92915050565b600082825260208201905092915050565b7f416363657373436f6e74726f6c3a2063616e206f6e6c792072656e6f756e636560008201527f20726f6c657320666f722073656c660000000000000000000000000000000000602082015250565b6000613306602f83613299565b9150613311826132aa565b604082019050919050565b60006020820190508181036000830152613335816132f9565b9050919050565b7f496e697469616c697a61626c653a20636f6e7472616374206973206e6f74206960008201527f6e697469616c697a696e67000000000000000000000000000000000000000000602082015250565b6000613398602b83613299565b91506133a38261333c565b604082019050919050565b600060208201905081810360008301526133c78161338b565b9050919050565b7f4d75737420686176652061646d696e20726f6c6520746f20706572666f726d2060008201527f7468697320616374696f6e2e0000000000000000000000000000000000000000602082015250565b600061342a602c83613299565b9150613435826133ce565b604082019050919050565b600060208201905081810360008301526134598161341d565b9050919050565b60005b8381101561347e578082015181840152602081019050613463565b60008484015250505050565b600061349d61349884612ff1565b612fd6565b9050828152602081018484840111156134b9576134b8612f60565b5b6134c4848285613460565b509392505050565b600082601f8301126134e1576134e0612f5b565b5b81516134f184826020860161348a565b91505092915050565b60008151905061350981612c16565b92915050565b6000806040838503121561352657613525612bda565b5b600083015167ffffffffffffffff81111561354457613543612bdf565b5b613550858286016134cc565b9250506020613561858286016134fa565b9150509250929050565b600081519050919050565b600081905092915050565b600061358c8261356b565b6135968185613576565b93506135a6818560208601613460565b80840191505092915050565b60006135be8284613581565b915081905092915050565b7f496e697469616c697a61626c653a20636f6e747261637420697320616c72656160008201527f647920696e697469616c697a6564000000000000000000000000000000000000602082015250565b6000613625602e83613299565b9150613630826135c9565b604082019050919050565b6000602082019050818103600083015261365481613618565b9050919050565b6000819050919050565b6000819050919050565b600061368a6136856136808461365b565b613665565b612e80565b9050919050565b61369a8161366f565b82525050565b60006020820190506136b56000830184613691565b92915050565b60006136c682612c42565b91506136d183612c42565b9250817fffffffffffffffffffffffffffffffffffffffffffffffffffffffffffffffff048311821515161561370a5761370961314e565b5b828202905092915050565b7f4e487b7100000000000000000000000000000000000000000000000000000000600052601260045260246000fd5b600061374f82612c42565b915061375a83612c42565b92508261376a57613769613715565b5b828204905092915050565b600060408201905061378a6000830185613124565b6137976020830184613124565b9392505050565b6137a781612ccb565b81146137b257600080fd5b50565b6000815190506137c48161379e565b92915050565b6000602082840312156137e0576137df612bda565b5b60006137ee848285016137b5565b91505092915050565b7f5265656e7472616e637947756172643a207265656e7472616e742063616c6c00600082015250565b600061382d601f83613299565b9150613838826137f7565b602082019050919050565b6000602082019050818103600083015261385c81613820565b9050919050565b600060408201905061387860008301856131c5565b6138856020830184613124565b9392505050565b61389581612e80565b82525050565b600060e0820190506138b0600083018a6131c5565b6138bd60208301896131c5565b6138ca6040830188613124565b6138d76060830187613124565b6138e4608083018661388c565b6138f160a0830185612de9565b6138fe60c0830184612de9565b98975050505050505050565b7f5361666545524332303a207065726d697420646964206e6f742073756363656560008201527f6400000000000000000000000000000000000000000000000000000000000000602082015250565b6000613966602183613299565b91506139718261390a565b604082019050919050565b6000602082019050818103600083015261399581613959565b9050919050565b60006060820190506139b160008301866131c5565b6139be60208301856131c5565b6139cb6040830184613124565b949350505050565b60006040820190506139e860008301856131c5565b6139f560208301846131c5565b9392505050565b7f5361666545524332303a204552433230206f7065726174696f6e20646964206e60008201527f6f74207375636365656400000000000000000000000000000000000000000000602082015250565b6000613a58602a83613299565b9150613a63826139fc565b604082019050919050565b60006020820190508181036000830152613a8781613a4b565b9050919050565b7f416363657373436f6e74726f6c3a206163636f756e7420000000000000000000600082015250565b6000613ac4601783613576565b9150613acf82613a8e565b601782019050919050565b7f206973206d697373696e6720726f6c6520000000000000000000000000000000600082015250565b6000613b10601183613576565b9150613b1b82613ada565b601182019050919050565b6000613b3182613ab7565b9150613b3d8285613581565b9150613b4882613b03565b9150613b548284613581565b91508190509392505050565b6000613b6b8261356b565b613b758185613299565b9350613b85818560208601613460565b613b8e81612f65565b840191505092915050565b60006020820190508181036000830152613bb38184613b60565b905092915050565b7f4e487b7100000000000000000000000000000000000000000000000000000000600052603260045260246000fd5b6000613bf582612c42565b915060008203613c0857613c0761314e565b5b600182039050919050565b7f537472696e67733a20686578206c656e67746820696e73756666696369656e74600082015250565b6000613c49602083613299565b9150613c5482613c13565b602082019050919050565b60006020820190508181036000830152613c7881613c3c565b9050919050565b7f416464726573733a20696e73756666696369656e742062616c616e636520666f60008201527f722063616c6c0000000000000000000000000000000000000000000000000000602082015250565b6000613cdb602683613299565b9150613ce682613c7f565b604082019050919050565b60006020820190508181036000830152613d0a81613cce565b9050919050565b600081519050919050565b600081905092915050565b6000613d3282613d11565b613d3c8185613d1c565b9350613d4c818560208601613460565b80840191505092915050565b6000613d648284613d27565b915081905092915050565b7f416464726573733a2063616c6c20746f206e6f6e2d636f6e7472616374000000600082015250565b6000613da5601d83613299565b9150613db082613d6f565b602082019050919050565b60006020820190508181036000830152613dd481613d98565b905091905056fea2646970667358221220db8e93da5e1fab747194507a26528d7c277dbe7a84887fbd3bf17f7937185b7b64736f6c63430008100033",
  "linkReferences": {},
  "deployedLinkReferences": {}
}