{
  "_format": "hh-sol-artifact-1",
  "contractName": "SmartContractZPController",
  "sourceName": "contracts/core/zeroPremium/SmartContractInsurance/SmartContractZPController.sol",
  "abi": [
    {
      "inputs": [],
      "name": "BaseUpgradeablePausable__ZeroAddressError",
      "type": "error"
    },
    {
      "anonymous": false,
      "inputs": [
        {
          "indexed": false,
          "internalType": "uint8",
          "name": "version",
          "type": "uint8"
        }
      ],
      "name": "Initialized",
      "type": "event"
    },
    {
      "anonymous": false,
      "inputs": [
        {
          "indexed": true,
          "internalType": "uint256",
          "name": "protocolID_",
          "type": "uint256"
        },
        {
          "indexed": true,
          "internalType": "string",
          "name": "protocolName",
          "type": "string"
        }
      ],
      "name": "NewProtocolAdded",
      "type": "event"
    },
    {
      "anonymous": false,
      "inputs": [
        {
          "indexed": false,
          "internalType": "address",
          "name": "account",
          "type": "address"
        }
      ],
      "name": "Paused",
      "type": "event"
    },
    {
      "anonymous": false,
      "inputs": [
        {
          "indexed": true,
          "internalType": "bytes32",
          "name": "role",
          "type": "bytes32"
        },
        {
          "indexed": true,
          "internalType": "bytes32",
          "name": "previousAdminRole",
          "type": "bytes32"
        },
        {
          "indexed": true,
          "internalType": "bytes32",
          "name": "newAdminRole",
          "type": "bytes32"
        }
      ],
      "name": "RoleAdminChanged",
      "type": "event"
    },
    {
      "anonymous": false,
      "inputs": [
        {
          "indexed": true,
          "internalType": "bytes32",
          "name": "role",
          "type": "bytes32"
        },
        {
          "indexed": true,
          "internalType": "address",
          "name": "account",
          "type": "address"
        },
        {
          "indexed": true,
          "internalType": "address",
          "name": "sender",
          "type": "address"
        }
      ],
      "name": "RoleGranted",
      "type": "event"
    },
    {
      "anonymous": false,
      "inputs": [
        {
          "indexed": true,
          "internalType": "bytes32",
          "name": "role",
          "type": "bytes32"
        },
        {
          "indexed": true,
          "internalType": "address",
          "name": "account",
          "type": "address"
        },
        {
          "indexed": true,
          "internalType": "address",
          "name": "sender",
          "type": "address"
        }
      ],
      "name": "RoleRevoked",
      "type": "event"
    },
    {
      "anonymous": false,
      "inputs": [
        {
          "indexed": false,
          "internalType": "address",
          "name": "account",
          "type": "address"
        }
      ],
      "name": "Unpaused",
      "type": "event"
    },
    {
      "inputs": [],
      "name": "DEFAULT_ADMIN_ROLE",
      "outputs": [
        {
          "internalType": "bytes32",
          "name": "",
          "type": "bytes32"
        }
      ],
      "stateMutability": "view",
      "type": "function"
    },
    {
      "inputs": [
        {
          "internalType": "address",
          "name": "owner",
          "type": "address"
        }
      ],
      "name": "__BaseUpgradeablePausable_init",
      "outputs": [],
      "stateMutability": "nonpayable",
      "type": "function"
    },
    {
      "inputs": [
        {
          "internalType": "string",
          "name": "protocolName",
          "type": "string"
        },
        {
          "internalType": "address",
          "name": "deployedAddress",
          "type": "address"
        },
        {
          "internalType": "bool",
          "name": "isCommunityGoverned",
          "type": "bool"
        },
        {
          "internalType": "uint256",
          "name": "riskPoolCategory",
          "type": "uint256"
        }
      ],
      "name": "addCoveredProtocol",
      "outputs": [],
      "stateMutability": "nonpayable",
      "type": "function"
    },
    {
      "inputs": [
        {
          "internalType": "uint256",
          "name": "version",
          "type": "uint256"
        }
      ],
      "name": "getLiquidationFactor",
      "outputs": [
        {
          "internalType": "uint256",
          "name": "",
          "type": "uint256"
        }
      ],
      "stateMutability": "view",
      "type": "function"
    },
    {
      "inputs": [
        {
          "internalType": "uint256",
          "name": "protocolID_",
          "type": "uint256"
        }
      ],
      "name": "getProtocolInfo",
      "outputs": [
        {
          "internalType": "string",
          "name": "protocolName",
          "type": "string"
        },
        {
          "internalType": "address",
          "name": "protocolAddress",
          "type": "address"
        }
      ],
      "stateMutability": "view",
      "type": "function"
    },
    {
      "inputs": [
        {
          "internalType": "uint256",
          "name": "protocolID_",
          "type": "uint256"
        }
      ],
      "name": "getProtocolRiskCategory",
      "outputs": [
        {
          "internalType": "uint256",
          "name": "",
          "type": "uint256"
        }
      ],
      "stateMutability": "view",
      "type": "function"
    },
    {
      "inputs": [
        {
          "internalType": "uint256",
          "name": "protocolID_",
          "type": "uint256"
        },
        {
          "internalType": "uint256",
          "name": "version",
          "type": "uint256"
        }
      ],
      "name": "getProtocolRiskCategory",
      "outputs": [
        {
          "internalType": "uint256",
          "name": "",
          "type": "uint256"
        }
      ],
      "stateMutability": "view",
      "type": "function"
    },
    {
      "inputs": [
        {
          "internalType": "uint256",
          "name": "protocolID_",
          "type": "uint256"
        }
      ],
      "name": "getProtocolStartVersionInfo",
      "outputs": [
        {
          "internalType": "uint256",
          "name": "",
          "type": "uint256"
        }
      ],
      "stateMutability": "view",
      "type": "function"
    },
    {
      "inputs": [
        {
          "internalType": "bytes32",
          "name": "role",
          "type": "bytes32"
        }
      ],
      "name": "getRoleAdmin",
      "outputs": [
        {
          "internalType": "bytes32",
          "name": "",
          "type": "bytes32"
        }
      ],
      "stateMutability": "view",
      "type": "function"
    },
    {
      "inputs": [
        {
          "internalType": "bytes32",
          "name": "role",
          "type": "bytes32"
        },
        {
          "internalType": "address",
          "name": "account",
          "type": "address"
        }
      ],
      "name": "grantRole",
      "outputs": [],
      "stateMutability": "nonpayable",
      "type": "function"
    },
    {
      "inputs": [
        {
          "internalType": "bytes32",
          "name": "role",
          "type": "bytes32"
        },
        {
          "internalType": "address",
          "name": "account",
          "type": "address"
        }
      ],
      "name": "hasRole",
      "outputs": [
        {
          "internalType": "bool",
          "name": "",
          "type": "bool"
        }
      ],
      "stateMutability": "view",
      "type": "function"
    },
    {
      "inputs": [
        {
          "internalType": "uint256",
          "name": "protocolID_",
          "type": "uint256"
        },
        {
          "internalType": "uint256",
          "name": "version",
          "type": "uint256"
        }
      ],
      "name": "ifProtocolUpdated",
      "outputs": [
        {
          "internalType": "bool",
          "name": "",
          "type": "bool"
        }
      ],
      "stateMutability": "view",
      "type": "function"
    },
    {
      "inputs": [],
      "name": "initialize",
      "outputs": [],
      "stateMutability": "nonpayable",
      "type": "function"
    },
    {
      "inputs": [],
      "name": "isAdmin",
      "outputs": [
        {
          "internalType": "bool",
          "name": "",
          "type": "bool"
        }
      ],
      "stateMutability": "view",
      "type": "function"
    },
    {
      "inputs": [
        {
          "internalType": "uint256",
          "name": "version",
          "type": "uint256"
        },
        {
          "internalType": "uint256",
          "name": "riskPoolCategory",
          "type": "uint256"
        }
      ],
      "name": "isRiskPoolLiquidated",
      "outputs": [
        {
          "internalType": "bool",
          "name": "",
          "type": "bool"
        }
      ],
      "stateMutability": "view",
      "type": "function"
    },
    {
      "inputs": [],
      "name": "latestVersion",
      "outputs": [
        {
          "internalType": "uint256",
          "name": "",
          "type": "uint256"
        }
      ],
      "stateMutability": "view",
      "type": "function"
    },
    {
      "inputs": [
        {
          "internalType": "uint256",
          "name": "riskPoolCategory",
          "type": "uint256"
        },
        {
          "internalType": "uint256",
          "name": "liquidationFactor",
          "type": "uint256"
        }
      ],
      "name": "liquidateRiskPool",
      "outputs": [],
      "stateMutability": "nonpayable",
      "type": "function"
    },
    {
      "inputs": [],
      "name": "paused",
      "outputs": [
        {
          "internalType": "bool",
          "name": "",
          "type": "bool"
        }
      ],
      "stateMutability": "view",
      "type": "function"
    },
    {
      "inputs": [],
      "name": "protocolID",
      "outputs": [
        {
          "internalType": "uint256",
          "name": "",
          "type": "uint256"
        }
      ],
      "stateMutability": "view",
      "type": "function"
    },
    {
      "inputs": [
        {
          "internalType": "uint256",
          "name": "",
          "type": "uint256"
        }
      ],
      "name": "protocolsInfo",
      "outputs": [
        {
          "internalType": "string",
          "name": "protocolName",
          "type": "string"
        },
        {
          "internalType": "address",
          "name": "deployedAddress",
          "type": "address"
        },
        {
          "internalType": "bool",
          "name": "isCommunityGoverned",
          "type": "bool"
        },
        {
          "internalType": "uint256",
          "name": "riskPoolCategory",
          "type": "uint256"
        },
        {
          "internalType": "uint256",
          "name": "startVersionBlock",
          "type": "uint256"
        }
      ],
      "stateMutability": "view",
      "type": "function"
    },
    {
      "inputs": [
        {
          "internalType": "uint256",
          "name": "",
          "type": "uint256"
        },
        {
          "internalType": "uint256",
          "name": "",
          "type": "uint256"
        }
      ],
      "name": "protocolsRiskInfo",
      "outputs": [
        {
          "internalType": "bool",
          "name": "isUpdated",
          "type": "bool"
        },
        {
          "internalType": "bool",
          "name": "isCommunityGoverned",
          "type": "bool"
        },
        {
          "internalType": "uint256",
          "name": "riskPoolCategory",
          "type": "uint256"
        }
      ],
      "stateMutability": "view",
      "type": "function"
    },
    {
      "inputs": [
        {
          "internalType": "bytes32",
          "name": "role",
          "type": "bytes32"
        },
        {
          "internalType": "address",
          "name": "account",
          "type": "address"
        }
      ],
      "name": "renounceRole",
      "outputs": [],
      "stateMutability": "nonpayable",
      "type": "function"
    },
    {
      "inputs": [
        {
          "internalType": "bytes32",
          "name": "role",
          "type": "bytes32"
        },
        {
          "internalType": "address",
          "name": "account",
          "type": "address"
        }
      ],
      "name": "revokeRole",
      "outputs": [],
      "stateMutability": "nonpayable",
      "type": "function"
    },
    {
      "inputs": [
        {
          "internalType": "bytes4",
          "name": "interfaceId",
          "type": "bytes4"
        }
      ],
      "name": "supportsInterface",
      "outputs": [
        {
          "internalType": "bool",
          "name": "",
          "type": "bool"
        }
      ],
      "stateMutability": "view",
      "type": "function"
    },
    {
      "inputs": [
        {
          "internalType": "uint256",
          "name": "protocolID_",
          "type": "uint256"
        },
        {
          "internalType": "uint256",
          "name": "riskPoolCategory",
          "type": "uint256"
        },
        {
          "internalType": "bool",
          "name": "isCommunityGoverned",
          "type": "bool"
        }
      ],
      "name": "updateRiskPoolCategory",
      "outputs": [],
      "stateMutability": "nonpayable",
      "type": "function"
    },
    {
      "inputs": [
        {
          "internalType": "uint256",
          "name": "",
          "type": "uint256"
        }
      ],
      "name": "versionLiquidationFactor",
      "outputs": [
        {
          "internalType": "uint256",
          "name": "liquidation",
          "type": "uint256"
        },
        {
          "internalType": "uint256",
          "name": "riskPoolCategory",
          "type": "uint256"
        }
      ],
      "stateMutability": "view",
      "type": "function"
    }
  ],
  "bytecode": "0x608060405234801561001057600080fd5b5061284b806100206000396000f3fe608060405234801561001057600080fd5b506004361061018e5760003560e01c8063676c5aea116100de57806397faa7d211610097578063b557e4a611610071578063b557e4a6146104e7578063b6db75a014610517578063c07f47d414610535578063d547741f146105535761018e565b806397faa7d2146104655780639cb0675814610499578063a217fddf146104c95761018e565b8063676c5aea146103b95780636e810b1a146103d55780638129fc1c146103f15780638b37a1d0146103fb57806391d148541461041757806393e9d1e8146104475761018e565b806336568abe1161014b5780634b40ac92116101255780634b40ac921461031e5780634dbc7b281461034f5780635c975abb1461037f5780635faa897c1461039d5761018e565b806336568abe146102a257806339c4c205146102be578063423c1c65146102ee5761018e565b806301ffc9a71461019357806305044ea6146101c357806322a99a63146101f3578063248a9ca3146102255780632589de94146102555780632f2ff15d14610286575b600080fd5b6101ad60048036038101906101a89190611934565b61056f565b6040516101ba919061197c565b60405180910390f35b6101dd60048036038101906101d891906119cd565b6105e9565b6040516101ea919061197c565b60405180910390f35b61020d600480360381019061020891906119cd565b610628565b60405161021c93929190611a1c565b60405180910390f35b61023f600480360381019061023a9190611a89565b610679565b60405161024c9190611ac5565b60405180910390f35b61026f600480360381019061026a9190611ae0565b610699565b60405161027d929190611b0d565b60405180910390f35b6102a0600480360381019061029b9190611b94565b6106be565b005b6102bc60048036038101906102b79190611b94565b6106df565b005b6102d860048036038101906102d39190611ae0565b610762565b6040516102e59190611bd4565b60405180910390f35b61030860048036038101906103039190611ae0565b610783565b6040516103159190611bd4565b60405180910390f35b61033860048036038101906103339190611ae0565b6107a3565b604051610346929190611c8e565b60405180910390f35b61036960048036038101906103649190611ae0565b61087c565b6040516103769190611bd4565b60405180910390f35b61038761089c565b604051610394919061197c565b60405180910390f35b6103b760048036038101906103b29190611cea565b6108b3565b005b6103d360048036038101906103ce91906119cd565b6109cf565b005b6103ef60048036038101906103ea9190611d3d565b610a5e565b005b6103f9610b80565b005b61041560048036038101906104109190611e9f565b610ce9565b005b610431600480360381019061042c9190611b94565b610ebf565b60405161043e919061197c565b60405180910390f35b61044f610f2a565b60405161045c9190611bd4565b60405180910390f35b61047f600480360381019061047a9190611ae0565b610f30565b604051610490959493929190611f22565b60405180910390f35b6104b360048036038101906104ae91906119cd565b61101b565b6040516104c09190611bd4565b60405180910390f35b6104d161104d565b6040516104de9190611ac5565b60405180910390f35b61050160048036038101906104fc91906119cd565b611054565b60405161050e919061197c565b60405180910390f35b61051f61107d565b60405161052c919061197c565b60405180910390f35b61053d61109c565b60405161054a9190611bd4565b60405180910390f35b61056d60048036038101906105689190611b94565b6110a2565b005b60007f7965db0b000000000000000000000000000000000000000000000000000000007bffffffffffffffffffffffffffffffffffffffffffffffffffffffff1916827bffffffffffffffffffffffffffffffffffffffffffffffffffffffff191614806105e257506105e1826110c3565b5b9050919050565b600060ff6000848152602001908152602001600020600083815260200190815260200160002060000160009054906101000a900460ff16905092915050565b60ff602052816000526040600020602052806000526040600020600091509150508060000160009054906101000a900460ff16908060000160019054906101000a900460ff16908060010154905083565b600060976000838152602001908152602001600020600101549050919050565b6101006020528060005260406000206000915090508060000154908060010154905082565b6106c782610679565b6106d08161112d565b6106da8383611141565b505050565b6106e7611222565b73ffffffffffffffffffffffffffffffffffffffff168173ffffffffffffffffffffffffffffffffffffffff1614610754576040517f08c379a000000000000000000000000000000000000000000000000000000000815260040161074b90611fee565b60405180910390fd5b61075e828261122a565b5050565b60006101006000838152602001908152602001600020600001549050919050565b600060fe6000838152602001908152602001600020600301549050919050565b606060008060fe60008581526020019081526020016000209050806000018160010160009054906101000a900473ffffffffffffffffffffffffffffffffffffffff168180546107f29061203d565b80601f016020809104026020016040519081016040528092919081815260200182805461081e9061203d565b801561086b5780601f106108405761010080835404028352916020019161086b565b820191906000526020600020905b81548152906001019060200180831161084e57829003601f168201915b505050505091509250925050915091565b600060fe6000838152602001908152602001600020600201549050919050565b6000603360009054906101000a900460ff16905090565b6108bb61107d565b6108fa576040517f08c379a00000000000000000000000000000000000000000000000000000000081526004016108f1906120e0565b60405180910390fd5b6000600160fc5461090b919061212f565b9050600060ff60008681526020019081526020016000206000838152602001908152602001600020905060018160000160006101000a81548160ff021916908315150217905550838160010181905550828160000160016101000a81548160ff0219169083151502179055508360fe6000878152602001908152602001600020600201819055508260fe600087815260200190815260200160002060010160146101000a81548160ff0219169083151502179055506109c861130c565b5050505050565b6109d761107d565b610a16576040517f08c379a0000000000000000000000000000000000000000000000000000000008152600401610a0d906120e0565b60405180910390fd5b80610100600060fc5481526020019081526020016000206000018190555081610100600060fc54815260200190815260200160002060010181905550610a5a61130c565b5050565b600060019054906101000a900460ff16610aad576040517f08c379a0000000000000000000000000000000000000000000000000000000008152600401610aa4906121d5565b60405180910390fd5b600073ffffffffffffffffffffffffffffffffffffffff168173ffffffffffffffffffffffffffffffffffffffff1603610b13576040517f5415139400000000000000000000000000000000000000000000000000000000815260040160405180910390fd5b610b1b611343565b610b2361139c565b610b2b6113ed565b610b3c610b36611446565b82611141565b610b4d610b4761146e565b82611141565b610b65610b5861146e565b610b60611446565b611496565b610b7d610b70611446565b610b78611446565b611496565b50565b60008060019054906101000a900460ff16159050808015610bb15750600160008054906101000a900460ff1660ff16105b80610bde5750610bc0306114f2565b158015610bdd5750600160008054906101000a900460ff1660ff16145b5b610c1d576040517f08c379a0000000000000000000000000000000000000000000000000000000008152600401610c1490612267565b60405180910390fd5b60016000806101000a81548160ff021916908360ff1602179055508015610c5a576001600060016101000a81548160ff0219169083151502179055505b60006101006000808152602001908152602001600020905060648160000181905550610c8c610c87611222565b610a5e565b508015610ce65760008060016101000a81548160ff0219169083151502179055507f7f26b83ff96e1f2b6a682f133852f6798a09c465da95921460cefb38474024986001604051610cdd91906122d9565b60405180910390a15b50565b610cf161107d565b610d30576040517f08c379a0000000000000000000000000000000000000000000000000000000008152600401610d27906120e0565b60405180910390fd5b60fb60008154610d3f906122f4565b91905081905550600060fe600060fb548152602001908152602001600020905084816000019081610d7091906124de565b50838160010160006101000a81548173ffffffffffffffffffffffffffffffffffffffff021916908373ffffffffffffffffffffffffffffffffffffffff160217905550600160fc54610dc3919061212f565b8160030181905550818160020181905550828160010160146101000a81548160ff021916908315150217905550600060ff600060fb5481526020019081526020016000206000600160fc54610e18919061212f565b8152602001908152602001600020905060018160000160006101000a81548160ff021916908315150217905550838160000160016101000a81548160ff021916908315150217905550828160010181905550610e7261130c565b85604051610e8091906125ec565b604051809103902060fb547ff12268f1ee765d7c9afac4d357ffdcab36199b5cc037b2f15e65eb87690db53d60405160405180910390a3505050505050565b60006097600084815260200190815260200160002060000160008373ffffffffffffffffffffffffffffffffffffffff1673ffffffffffffffffffffffffffffffffffffffff16815260200190815260200160002060009054906101000a900460ff16905092915050565b60fb5481565b60fe602052806000526040600020600091509050806000018054610f539061203d565b80601f0160208091040260200160405190810160405280929190818152602001828054610f7f9061203d565b8015610fcc5780601f10610fa157610100808354040283529160200191610fcc565b820191906000526020600020905b815481529060010190602001808311610faf57829003601f168201915b5050505050908060010160009054906101000a900473ffffffffffffffffffffffffffffffffffffffff16908060010160149054906101000a900460ff16908060020154908060030154905085565b600060ff6000848152602001908152602001600020600083815260200190815260200160002060010154905092915050565b6000801b81565b600080826101006000868152602001908152602001600020600101541490508091505092915050565b600061109761108a611446565b611092611222565b610ebf565b905090565b60fc5481565b6110ab82610679565b6110b48161112d565b6110be838361122a565b505050565b60007f01ffc9a7000000000000000000000000000000000000000000000000000000007bffffffffffffffffffffffffffffffffffffffffffffffffffffffff1916827bffffffffffffffffffffffffffffffffffffffffffffffffffffffff1916149050919050565b61113e81611139611222565b611515565b50565b61114b8282610ebf565b61121e5760016097600084815260200190815260200160002060000160008373ffffffffffffffffffffffffffffffffffffffff1673ffffffffffffffffffffffffffffffffffffffff16815260200190815260200160002060006101000a81548160ff0219169083151502179055506111c3611222565b73ffffffffffffffffffffffffffffffffffffffff168173ffffffffffffffffffffffffffffffffffffffff16837f2f8788117e7eff1d82e926ec794901d17c78024a50270940304540a733656f0d60405160405180910390a45b5050565b600033905090565b6112348282610ebf565b156113085760006097600084815260200190815260200160002060000160008373ffffffffffffffffffffffffffffffffffffffff1673ffffffffffffffffffffffffffffffffffffffff16815260200190815260200160002060006101000a81548160ff0219169083151502179055506112ad611222565b73ffffffffffffffffffffffffffffffffffffffff168173ffffffffffffffffffffffffffffffffffffffff16837ff6391f5c32d9c69d2a47ea670b442974b53935d1edc7fd64eb21e047a839171b60405160405180910390a45b5050565b60fc6000815461131b906122f4565b919050819055506064610100600060fc54815260200190815260200160002060000181905550565b600060019054906101000a900460ff16611392576040517f08c379a0000000000000000000000000000000000000000000000000000000008152600401611389906121d5565b60405180910390fd5b61139a61159a565b565b600060019054906101000a900460ff166113eb576040517f08c379a00000000000000000000000000000000000000000000000000000000081526004016113e2906121d5565b60405180910390fd5b565b600060019054906101000a900460ff1661143c576040517f08c379a0000000000000000000000000000000000000000000000000000000008152600401611433906121d5565b60405180910390fd5b611444611606565b565b60007fa49807205ce4d355092ef5a8a18f56e8913cf4a201fbe287825b095693c21775905090565b60007f65d7a28e3265b37a6474929f336521b332c1681b933f6cb9f3376673440d862a905090565b60006114a183610679565b90508160976000858152602001908152602001600020600101819055508181847fbd79b86ffe0ab8e8776151514217cd7cacd52c909f66475c3af44e129f0b00ff60405160405180910390a4505050565b6000808273ffffffffffffffffffffffffffffffffffffffff163b119050919050565b61151f8282610ebf565b6115965761152c8161165f565b61153a8360001c602061168c565b60405160200161154b92919061269b565b6040516020818303038152906040526040517f08c379a000000000000000000000000000000000000000000000000000000000815260040161158d91906126d5565b60405180910390fd5b5050565b600060019054906101000a900460ff166115e9576040517f08c379a00000000000000000000000000000000000000000000000000000000081526004016115e0906121d5565b60405180910390fd5b6000603360006101000a81548160ff021916908315150217905550565b600060019054906101000a900460ff16611655576040517f08c379a000000000000000000000000000000000000000000000000000000000815260040161164c906121d5565b60405180910390fd5b600160c981905550565b60606116858273ffffffffffffffffffffffffffffffffffffffff16601460ff1661168c565b9050919050565b60606000600283600261169f91906126f7565b6116a9919061212f565b67ffffffffffffffff8111156116c2576116c1611d74565b5b6040519080825280601f01601f1916602001820160405280156116f45781602001600182028036833780820191505090505b5090507f30000000000000000000000000000000000000000000000000000000000000008160008151811061172c5761172b612751565b5b60200101907effffffffffffffffffffffffffffffffffffffffffffffffffffffffffffff1916908160001a9053507f7800000000000000000000000000000000000000000000000000000000000000816001815181106117905761178f612751565b5b60200101907effffffffffffffffffffffffffffffffffffffffffffffffffffffffffffff1916908160001a905350600060018460026117d091906126f7565b6117da919061212f565b90505b600181111561187a577f3031323334353637383961626364656600000000000000000000000000000000600f86166010811061181c5761181b612751565b5b1a60f81b82828151811061183357611832612751565b5b60200101907effffffffffffffffffffffffffffffffffffffffffffffffffffffffffffff1916908160001a905350600485901c94508061187390612780565b90506117dd565b50600084146118be576040517f08c379a00000000000000000000000000000000000000000000000000000000081526004016118b5906127f5565b60405180910390fd5b8091505092915050565b6000604051905090565b600080fd5b600080fd5b60007fffffffff0000000000000000000000000000000000000000000000000000000082169050919050565b611911816118dc565b811461191c57600080fd5b50565b60008135905061192e81611908565b92915050565b60006020828403121561194a576119496118d2565b5b60006119588482850161191f565b91505092915050565b60008115159050919050565b61197681611961565b82525050565b6000602082019050611991600083018461196d565b92915050565b6000819050919050565b6119aa81611997565b81146119b557600080fd5b50565b6000813590506119c7816119a1565b92915050565b600080604083850312156119e4576119e36118d2565b5b60006119f2858286016119b8565b9250506020611a03858286016119b8565b9150509250929050565b611a1681611997565b82525050565b6000606082019050611a31600083018661196d565b611a3e602083018561196d565b611a4b6040830184611a0d565b949350505050565b6000819050919050565b611a6681611a53565b8114611a7157600080fd5b50565b600081359050611a8381611a5d565b92915050565b600060208284031215611a9f57611a9e6118d2565b5b6000611aad84828501611a74565b91505092915050565b611abf81611a53565b82525050565b6000602082019050611ada6000830184611ab6565b92915050565b600060208284031215611af657611af56118d2565b5b6000611b04848285016119b8565b91505092915050565b6000604082019050611b226000830185611a0d565b611b2f6020830184611a0d565b9392505050565b600073ffffffffffffffffffffffffffffffffffffffff82169050919050565b6000611b6182611b36565b9050919050565b611b7181611b56565b8114611b7c57600080fd5b50565b600081359050611b8e81611b68565b92915050565b60008060408385031215611bab57611baa6118d2565b5b6000611bb985828601611a74565b9250506020611bca85828601611b7f565b9150509250929050565b6000602082019050611be96000830184611a0d565b92915050565b600081519050919050565b600082825260208201905092915050565b60005b83811015611c29578082015181840152602081019050611c0e565b60008484015250505050565b6000601f19601f8301169050919050565b6000611c5182611bef565b611c5b8185611bfa565b9350611c6b818560208601611c0b565b611c7481611c35565b840191505092915050565b611c8881611b56565b82525050565b60006040820190508181036000830152611ca88185611c46565b9050611cb76020830184611c7f565b9392505050565b611cc781611961565b8114611cd257600080fd5b50565b600081359050611ce481611cbe565b92915050565b600080600060608486031215611d0357611d026118d2565b5b6000611d11868287016119b8565b9350506020611d22868287016119b8565b9250506040611d3386828701611cd5565b9150509250925092565b600060208284031215611d5357611d526118d2565b5b6000611d6184828501611b7f565b91505092915050565b600080fd5b600080fd5b7f4e487b7100000000000000000000000000000000000000000000000000000000600052604160045260246000fd5b611dac82611c35565b810181811067ffffffffffffffff82111715611dcb57611dca611d74565b5b80604052505050565b6000611dde6118c8565b9050611dea8282611da3565b919050565b600067ffffffffffffffff821115611e0a57611e09611d74565b5b611e1382611c35565b9050602081019050919050565b82818337600083830152505050565b6000611e42611e3d84611def565b611dd4565b905082815260208101848484011115611e5e57611e5d611d6f565b5b611e69848285611e20565b509392505050565b600082601f830112611e8657611e85611d6a565b5b8135611e96848260208601611e2f565b91505092915050565b60008060008060808587031215611eb957611eb86118d2565b5b600085013567ffffffffffffffff811115611ed757611ed66118d7565b5b611ee387828801611e71565b9450506020611ef487828801611b7f565b9350506040611f0587828801611cd5565b9250506060611f16878288016119b8565b91505092959194509250565b600060a0820190508181036000830152611f3c8188611c46565b9050611f4b6020830187611c7f565b611f58604083018661196d565b611f656060830185611a0d565b611f726080830184611a0d565b9695505050505050565b7f416363657373436f6e74726f6c3a2063616e206f6e6c792072656e6f756e636560008201527f20726f6c657320666f722073656c660000000000000000000000000000000000602082015250565b6000611fd8602f83611bfa565b9150611fe382611f7c565b604082019050919050565b6000602082019050818103600083015261200781611fcb565b9050919050565b7f4e487b7100000000000000000000000000000000000000000000000000000000600052602260045260246000fd5b6000600282049050600182168061205557607f821691505b6020821081036120685761206761200e565b5b50919050565b7f4d75737420686176652061646d696e20726f6c6520746f20706572666f726d2060008201527f7468697320616374696f6e2e0000000000000000000000000000000000000000602082015250565b60006120ca602c83611bfa565b91506120d58261206e565b604082019050919050565b600060208201905081810360008301526120f9816120bd565b9050919050565b7f4e487b7100000000000000000000000000000000000000000000000000000000600052601160045260246000fd5b600061213a82611997565b915061214583611997565b925082820190508082111561215d5761215c612100565b5b92915050565b7f496e697469616c697a61626c653a20636f6e7472616374206973206e6f74206960008201527f6e697469616c697a696e67000000000000000000000000000000000000000000602082015250565b60006121bf602b83611bfa565b91506121ca82612163565b604082019050919050565b600060208201905081810360008301526121ee816121b2565b9050919050565b7f496e697469616c697a61626c653a20636f6e747261637420697320616c72656160008201527f647920696e697469616c697a6564000000000000000000000000000000000000602082015250565b6000612251602e83611bfa565b915061225c826121f5565b604082019050919050565b6000602082019050818103600083015261228081612244565b9050919050565b6000819050919050565b600060ff82169050919050565b6000819050919050565b60006122c36122be6122b984612287565b61229e565b612291565b9050919050565b6122d3816122a8565b82525050565b60006020820190506122ee60008301846122ca565b92915050565b60006122ff82611997565b91507fffffffffffffffffffffffffffffffffffffffffffffffffffffffffffffffff820361233157612330612100565b5b600182019050919050565b60008190508160005260206000209050919050565b60006020601f8301049050919050565b600082821b905092915050565b60006008830261239e7fffffffffffffffffffffffffffffffffffffffffffffffffffffffffffffffff82612361565b6123a88683612361565b95508019841693508086168417925050509392505050565b60006123db6123d66123d184611997565b61229e565b611997565b9050919050565b6000819050919050565b6123f5836123c0565b612409612401826123e2565b84845461236e565b825550505050565b600090565b61241e612411565b6124298184846123ec565b505050565b5b8181101561244d57612442600082612416565b60018101905061242f565b5050565b601f821115612492576124638161233c565b61246c84612351565b8101602085101561247b578190505b61248f61248785612351565b83018261242e565b50505b505050565b600082821c905092915050565b60006124b560001984600802612497565b1980831691505092915050565b60006124ce83836124a4565b9150826002028217905092915050565b6124e782611bef565b67ffffffffffffffff811115612500576124ff611d74565b5b61250a825461203d565b612515828285612451565b600060209050601f8311600181146125485760008415612536578287015190505b61254085826124c2565b8655506125a8565b601f1984166125568661233c565b60005b8281101561257e57848901518255600182019150602085019450602081019050612559565b8683101561259b5784890151612597601f8916826124a4565b8355505b6001600288020188555050505b505050505050565b600081905092915050565b60006125c682611bef565b6125d081856125b0565b93506125e0818560208601611c0b565b80840191505092915050565b60006125f882846125bb565b915081905092915050565b7f416363657373436f6e74726f6c3a206163636f756e7420000000000000000000600082015250565b60006126396017836125b0565b915061264482612603565b601782019050919050565b7f206973206d697373696e6720726f6c6520000000000000000000000000000000600082015250565b60006126856011836125b0565b91506126908261264f565b601182019050919050565b60006126a68261262c565b91506126b282856125bb565b91506126bd82612678565b91506126c982846125bb565b91508190509392505050565b600060208201905081810360008301526126ef8184611c46565b905092915050565b600061270282611997565b915061270d83611997565b9250817fffffffffffffffffffffffffffffffffffffffffffffffffffffffffffffffff048311821515161561274657612745612100565b5b828202905092915050565b7f4e487b7100000000000000000000000000000000000000000000000000000000600052603260045260246000fd5b600061278b82611997565b91506000820361279e5761279d612100565b5b600182039050919050565b7f537472696e67733a20686578206c656e67746820696e73756666696369656e74600082015250565b60006127df602083611bfa565b91506127ea826127a9565b602082019050919050565b6000602082019050818103600083015261280e816127d2565b905091905056fea2646970667358221220b3acb50db46cd3e3e625ac31efbdf521e54d0294d3b13fe5eb1ecdd4dd1ded8e64736f6c63430008100033",
  "linkReferences": {},
  "deployedLinkReferences": {}
}