{
  "_format": "hh-sol-artifact-1",
  "contractName": "SmartContractZPController",
  "sourceName": "contracts/core/zeroPremium/SmartContractInsurance/SmartContractZPController.sol",
  "abi": [
    {
      "inputs": [],
      "name": "BaseUpgradeablePausable__ZeroAddressError",
      "type": "error"
    },
    {
      "anonymous": false,
      "inputs": [
        {
          "indexed": false,
          "internalType": "uint8",
          "name": "version",
          "type": "uint8"
        }
      ],
      "name": "Initialized",
      "type": "event"
    },
    {
      "anonymous": false,
      "inputs": [
        {
          "indexed": true,
          "internalType": "uint256",
          "name": "protocolID_",
          "type": "uint256"
        },
        {
          "indexed": true,
          "internalType": "string",
          "name": "protocolName",
          "type": "string"
        }
      ],
      "name": "NewProtocolAdded",
      "type": "event"
    },
    {
      "anonymous": false,
      "inputs": [
        {
          "indexed": false,
          "internalType": "address",
          "name": "account",
          "type": "address"
        }
      ],
      "name": "Paused",
      "type": "event"
    },
    {
      "anonymous": false,
      "inputs": [
        {
          "indexed": true,
          "internalType": "bytes32",
          "name": "role",
          "type": "bytes32"
        },
        {
          "indexed": true,
          "internalType": "bytes32",
          "name": "previousAdminRole",
          "type": "bytes32"
        },
        {
          "indexed": true,
          "internalType": "bytes32",
          "name": "newAdminRole",
          "type": "bytes32"
        }
      ],
      "name": "RoleAdminChanged",
      "type": "event"
    },
    {
      "anonymous": false,
      "inputs": [
        {
          "indexed": true,
          "internalType": "bytes32",
          "name": "role",
          "type": "bytes32"
        },
        {
          "indexed": true,
          "internalType": "address",
          "name": "account",
          "type": "address"
        },
        {
          "indexed": true,
          "internalType": "address",
          "name": "sender",
          "type": "address"
        }
      ],
      "name": "RoleGranted",
      "type": "event"
    },
    {
      "anonymous": false,
      "inputs": [
        {
          "indexed": true,
          "internalType": "bytes32",
          "name": "role",
          "type": "bytes32"
        },
        {
          "indexed": true,
          "internalType": "address",
          "name": "account",
          "type": "address"
        },
        {
          "indexed": true,
          "internalType": "address",
          "name": "sender",
          "type": "address"
        }
      ],
      "name": "RoleRevoked",
      "type": "event"
    },
    {
      "anonymous": false,
      "inputs": [
        {
          "indexed": false,
          "internalType": "address",
          "name": "account",
          "type": "address"
        }
      ],
      "name": "Unpaused",
      "type": "event"
    },
    {
      "inputs": [],
      "name": "DEFAULT_ADMIN_ROLE",
      "outputs": [
        {
          "internalType": "bytes32",
          "name": "",
          "type": "bytes32"
        }
      ],
      "stateMutability": "view",
      "type": "function"
    },
    {
      "inputs": [],
      "name": "STANDARD_PLATFORM_FEE",
      "outputs": [
        {
          "internalType": "uint256",
          "name": "",
          "type": "uint256"
        }
      ],
      "stateMutability": "view",
      "type": "function"
    },
    {
      "inputs": [
        {
          "internalType": "address",
          "name": "owner",
          "type": "address"
        }
      ],
      "name": "__BaseUpgradeablePausable_init",
      "outputs": [],
      "stateMutability": "nonpayable",
      "type": "function"
    },
    {
      "inputs": [
        {
          "internalType": "string",
          "name": "protocolName",
          "type": "string"
        },
        {
          "internalType": "address",
          "name": "deployedAddress",
          "type": "address"
        },
        {
          "internalType": "bool",
          "name": "isCommunityGoverned",
          "type": "bool"
        },
        {
          "internalType": "uint256",
          "name": "riskPoolCategory",
          "type": "uint256"
        }
      ],
      "name": "addCoveredProtocol",
      "outputs": [],
      "stateMutability": "nonpayable",
      "type": "function"
    },
    {
      "inputs": [
        {
          "internalType": "uint256",
          "name": "version",
          "type": "uint256"
        }
      ],
      "name": "getLiquidationFactor",
      "outputs": [
        {
          "internalType": "uint256",
          "name": "",
          "type": "uint256"
        }
      ],
      "stateMutability": "view",
      "type": "function"
    },
    {
      "inputs": [
        {
          "internalType": "uint256",
          "name": "protocolID_",
          "type": "uint256"
        }
      ],
      "name": "getProtocolInfo",
      "outputs": [
        {
          "internalType": "string",
          "name": "protocolName",
          "type": "string"
        },
        {
          "internalType": "address",
          "name": "protocolAddress",
          "type": "address"
        }
      ],
      "stateMutability": "view",
      "type": "function"
    },
    {
      "inputs": [
        {
          "internalType": "uint256",
          "name": "protocolID_",
          "type": "uint256"
        }
      ],
      "name": "getProtocolRiskCategory",
      "outputs": [
        {
          "internalType": "uint256",
          "name": "",
          "type": "uint256"
        }
      ],
      "stateMutability": "view",
      "type": "function"
    },
    {
      "inputs": [
        {
          "internalType": "uint256",
          "name": "protocolID_",
          "type": "uint256"
        },
        {
          "internalType": "uint256",
          "name": "version",
          "type": "uint256"
        }
      ],
      "name": "getProtocolRiskCategory",
      "outputs": [
        {
          "internalType": "uint256",
          "name": "",
          "type": "uint256"
        }
      ],
      "stateMutability": "view",
      "type": "function"
    },
    {
      "inputs": [
        {
          "internalType": "uint256",
          "name": "protocolID_",
          "type": "uint256"
        }
      ],
      "name": "getProtocolStartVersionInfo",
      "outputs": [
        {
          "internalType": "uint256",
          "name": "",
          "type": "uint256"
        }
      ],
      "stateMutability": "view",
      "type": "function"
    },
    {
      "inputs": [
        {
          "internalType": "bytes32",
          "name": "role",
          "type": "bytes32"
        }
      ],
      "name": "getRoleAdmin",
      "outputs": [
        {
          "internalType": "bytes32",
          "name": "",
          "type": "bytes32"
        }
      ],
      "stateMutability": "view",
      "type": "function"
    },
    {
      "inputs": [
        {
          "internalType": "bytes32",
          "name": "role",
          "type": "bytes32"
        },
        {
          "internalType": "address",
          "name": "account",
          "type": "address"
        }
      ],
      "name": "grantRole",
      "outputs": [],
      "stateMutability": "nonpayable",
      "type": "function"
    },
    {
      "inputs": [
        {
          "internalType": "bytes32",
          "name": "role",
          "type": "bytes32"
        },
        {
          "internalType": "address",
          "name": "account",
          "type": "address"
        }
      ],
      "name": "hasRole",
      "outputs": [
        {
          "internalType": "bool",
          "name": "",
          "type": "bool"
        }
      ],
      "stateMutability": "view",
      "type": "function"
    },
    {
      "inputs": [
        {
          "internalType": "uint256",
          "name": "protocolID_",
          "type": "uint256"
        },
        {
          "internalType": "uint256",
          "name": "version",
          "type": "uint256"
        }
      ],
      "name": "ifProtocolUpdated",
      "outputs": [
        {
          "internalType": "bool",
          "name": "",
          "type": "bool"
        }
      ],
      "stateMutability": "view",
      "type": "function"
    },
    {
      "inputs": [],
      "name": "initialize",
      "outputs": [],
      "stateMutability": "nonpayable",
      "type": "function"
    },
    {
      "inputs": [],
      "name": "isAdmin",
      "outputs": [
        {
          "internalType": "bool",
          "name": "",
          "type": "bool"
        }
      ],
      "stateMutability": "view",
      "type": "function"
    },
    {
      "inputs": [],
      "name": "isModerator",
      "outputs": [
        {
          "internalType": "bool",
          "name": "",
          "type": "bool"
        }
      ],
      "stateMutability": "view",
      "type": "function"
    },
    {
      "inputs": [
        {
          "internalType": "uint256",
          "name": "version",
          "type": "uint256"
        },
        {
          "internalType": "uint256",
          "name": "riskPoolCategory",
          "type": "uint256"
        }
      ],
      "name": "isRiskPoolLiquidated",
      "outputs": [
        {
          "internalType": "bool",
          "name": "",
          "type": "bool"
        }
      ],
      "stateMutability": "view",
      "type": "function"
    },
    {
      "inputs": [],
      "name": "latestVersion",
      "outputs": [
        {
          "internalType": "uint256",
          "name": "",
          "type": "uint256"
        }
      ],
      "stateMutability": "view",
      "type": "function"
    },
    {
      "inputs": [
        {
          "internalType": "uint256",
          "name": "riskPoolCategory",
          "type": "uint256"
        },
        {
          "internalType": "uint256",
          "name": "liquidationFactor",
          "type": "uint256"
        }
      ],
      "name": "liquidateRiskPool",
      "outputs": [],
      "stateMutability": "nonpayable",
      "type": "function"
    },
    {
      "inputs": [],
      "name": "paused",
      "outputs": [
        {
          "internalType": "bool",
          "name": "",
          "type": "bool"
        }
      ],
      "stateMutability": "view",
      "type": "function"
    },
    {
      "inputs": [],
      "name": "protocolID",
      "outputs": [
        {
          "internalType": "uint256",
          "name": "",
          "type": "uint256"
        }
      ],
      "stateMutability": "view",
      "type": "function"
    },
    {
      "inputs": [
        {
          "internalType": "uint256",
          "name": "",
          "type": "uint256"
        }
      ],
      "name": "protocolsInfo",
      "outputs": [
        {
          "internalType": "string",
          "name": "protocolName",
          "type": "string"
        },
        {
          "internalType": "address",
          "name": "deployedAddress",
          "type": "address"
        },
        {
          "internalType": "bool",
          "name": "isCommunityGoverned",
          "type": "bool"
        },
        {
          "internalType": "uint256",
          "name": "riskPoolCategory",
          "type": "uint256"
        },
        {
          "internalType": "uint256",
          "name": "startVersionBlock",
          "type": "uint256"
        }
      ],
      "stateMutability": "view",
      "type": "function"
    },
    {
      "inputs": [
        {
          "internalType": "uint256",
          "name": "",
          "type": "uint256"
        },
        {
          "internalType": "uint256",
          "name": "",
          "type": "uint256"
        }
      ],
      "name": "protocolsRiskInfo",
      "outputs": [
        {
          "internalType": "bool",
          "name": "isUpdated",
          "type": "bool"
        },
        {
          "internalType": "bool",
          "name": "isCommunityGoverned",
          "type": "bool"
        },
        {
          "internalType": "uint256",
          "name": "riskPoolCategory",
          "type": "uint256"
        }
      ],
      "stateMutability": "view",
      "type": "function"
    },
    {
      "inputs": [
        {
          "internalType": "bytes32",
          "name": "role",
          "type": "bytes32"
        },
        {
          "internalType": "address",
          "name": "account",
          "type": "address"
        }
      ],
      "name": "renounceRole",
      "outputs": [],
      "stateMutability": "nonpayable",
      "type": "function"
    },
    {
      "inputs": [
        {
          "internalType": "bytes32",
          "name": "role",
          "type": "bytes32"
        },
        {
          "internalType": "address",
          "name": "account",
          "type": "address"
        }
      ],
      "name": "revokeRole",
      "outputs": [],
      "stateMutability": "nonpayable",
      "type": "function"
    },
    {
      "inputs": [
        {
          "internalType": "bytes4",
          "name": "interfaceId",
          "type": "bytes4"
        }
      ],
      "name": "supportsInterface",
      "outputs": [
        {
          "internalType": "bool",
          "name": "",
          "type": "bool"
        }
      ],
      "stateMutability": "view",
      "type": "function"
    },
    {
      "inputs": [
        {
          "internalType": "uint256",
          "name": "protocolID_",
          "type": "uint256"
        },
        {
          "internalType": "uint256",
          "name": "riskPoolCategory",
          "type": "uint256"
        },
        {
          "internalType": "bool",
          "name": "isCommunityGoverned",
          "type": "bool"
        }
      ],
      "name": "updateRiskPoolCategory",
      "outputs": [],
      "stateMutability": "nonpayable",
      "type": "function"
    },
    {
      "inputs": [
        {
          "internalType": "uint256",
          "name": "",
          "type": "uint256"
        }
      ],
      "name": "versionLiquidationFactor",
      "outputs": [
        {
          "internalType": "uint256",
          "name": "liquidation",
          "type": "uint256"
        },
        {
          "internalType": "uint256",
          "name": "riskPoolCategory",
          "type": "uint256"
        }
      ],
      "stateMutability": "view",
      "type": "function"
    }
  ],
  "bytecode": "0x6080604052605a60fd5534801561001557600080fd5b506128e2806100256000396000f3fe608060405234801561001057600080fd5b50600436106101c45760003560e01c80636e810b1a116100f9578063a217fddf11610097578063b6db75a011610071578063b6db75a01461056b578063c07f47d414610589578063ce6975c8146105a7578063d547741f146105c5576101c4565b8063a217fddf146104ff578063aeabaff31461051d578063b557e4a61461053b576101c4565b806391d14854116100d357806391d148541461044d57806393e9d1e81461047d57806397faa7d21461049b5780639cb06758146104cf576101c4565b80636e810b1a1461040b5780638129fc1c146104275780638b37a1d014610431576101c4565b806339c4c205116101665780634dbc7b28116101405780634dbc7b28146103855780635c975abb146103b55780635faa897c146103d3578063676c5aea146103ef576101c4565b806339c4c205146102f4578063423c1c65146103245780634b40ac9214610354576101c4565b8063248a9ca3116101a2578063248a9ca31461025b5780632589de941461028b5780632f2ff15d146102bc57806336568abe146102d8576101c4565b806301ffc9a7146101c957806305044ea6146101f957806322a99a6314610229575b600080fd5b6101e360048036038101906101de91906119cb565b6105e1565b6040516101f09190611a13565b60405180910390f35b610213600480360381019061020e9190611a64565b61065b565b6040516102209190611a13565b60405180910390f35b610243600480360381019061023e9190611a64565b61069a565b60405161025293929190611ab3565b60405180910390f35b61027560048036038101906102709190611b20565b6106eb565b6040516102829190611b5c565b60405180910390f35b6102a560048036038101906102a09190611b77565b61070b565b6040516102b3929190611ba4565b60405180910390f35b6102d660048036038101906102d19190611c2b565b610730565b005b6102f260048036038101906102ed9190611c2b565b610751565b005b61030e60048036038101906103099190611b77565b6107d4565b60405161031b9190611c6b565b60405180910390f35b61033e60048036038101906103399190611b77565b6107f5565b60405161034b9190611c6b565b60405180910390f35b61036e60048036038101906103699190611b77565b610815565b60405161037c929190611d25565b60405180910390f35b61039f600480360381019061039a9190611b77565b6108ee565b6040516103ac9190611c6b565b60405180910390f35b6103bd61090e565b6040516103ca9190611a13565b60405180910390f35b6103ed60048036038101906103e89190611d81565b610925565b005b61040960048036038101906104049190611a64565b610a41565b005b61042560048036038101906104209190611dd4565b610ad0565b005b61042f610bf2565b005b61044b60048036038101906104469190611f36565b610d5b565b005b61046760048036038101906104629190611c2b565b610f31565b6040516104749190611a13565b60405180910390f35b610485610f9c565b6040516104929190611c6b565b60405180910390f35b6104b560048036038101906104b09190611b77565b610fa2565b6040516104c6959493929190611fb9565b60405180910390f35b6104e960048036038101906104e49190611a64565b61108d565b6040516104f69190611c6b565b60405180910390f35b6105076110bf565b6040516105149190611b5c565b60405180910390f35b6105256110c6565b6040516105329190611a13565b60405180910390f35b61055560048036038101906105509190611a64565b6110e5565b6040516105629190611a13565b60405180910390f35b61057361110e565b6040516105809190611a13565b60405180910390f35b61059161112d565b60405161059e9190611c6b565b60405180910390f35b6105af611133565b6040516105bc9190611c6b565b60405180910390f35b6105df60048036038101906105da9190611c2b565b611139565b005b60007f7965db0b000000000000000000000000000000000000000000000000000000007bffffffffffffffffffffffffffffffffffffffffffffffffffffffff1916827bffffffffffffffffffffffffffffffffffffffffffffffffffffffff1916148061065457506106538261115a565b5b9050919050565b600060ff6000848152602001908152602001600020600083815260200190815260200160002060000160009054906101000a900460ff16905092915050565b60ff602052816000526040600020602052806000526040600020600091509150508060000160009054906101000a900460ff16908060000160019054906101000a900460ff16908060010154905083565b600060976000838152602001908152602001600020600101549050919050565b6101006020528060005260406000206000915090508060000154908060010154905082565b610739826106eb565b610742816111c4565b61074c83836111d8565b505050565b6107596112b9565b73ffffffffffffffffffffffffffffffffffffffff168173ffffffffffffffffffffffffffffffffffffffff16146107c6576040517f08c379a00000000000000000000000000000000000000000000000000000000081526004016107bd90612085565b60405180910390fd5b6107d082826112c1565b5050565b60006101006000838152602001908152602001600020600001549050919050565b600060fe6000838152602001908152602001600020600301549050919050565b606060008060fe60008581526020019081526020016000209050806000018160010160009054906101000a900473ffffffffffffffffffffffffffffffffffffffff16818054610864906120d4565b80601f0160208091040260200160405190810160405280929190818152602001828054610890906120d4565b80156108dd5780601f106108b2576101008083540402835291602001916108dd565b820191906000526020600020905b8154815290600101906020018083116108c057829003601f168201915b505050505091509250925050915091565b600060fe6000838152602001908152602001600020600201549050919050565b6000603360009054906101000a900460ff16905090565b61092d61110e565b61096c576040517f08c379a000000000000000000000000000000000000000000000000000000000815260040161096390612177565b60405180910390fd5b6000600160fc5461097d91906121c6565b9050600060ff60008681526020019081526020016000206000838152602001908152602001600020905060018160000160006101000a81548160ff021916908315150217905550838160010181905550828160000160016101000a81548160ff0219169083151502179055508360fe6000878152602001908152602001600020600201819055508260fe600087815260200190815260200160002060010160146101000a81548160ff021916908315150217905550610a3a6113a3565b5050505050565b610a4961110e565b610a88576040517f08c379a0000000000000000000000000000000000000000000000000000000008152600401610a7f90612177565b60405180910390fd5b80610100600060fc5481526020019081526020016000206000018190555081610100600060fc54815260200190815260200160002060010181905550610acc6113a3565b5050565b600060019054906101000a900460ff16610b1f576040517f08c379a0000000000000000000000000000000000000000000000000000000008152600401610b169061226c565b60405180910390fd5b600073ffffffffffffffffffffffffffffffffffffffff168173ffffffffffffffffffffffffffffffffffffffff1603610b85576040517f5415139400000000000000000000000000000000000000000000000000000000815260040160405180910390fd5b610b8d6113da565b610b95611433565b610b9d611484565b610bae610ba86114dd565b826111d8565b610bbf610bb9611505565b826111d8565b610bd7610bca611505565b610bd26114dd565b61152d565b610bef610be26114dd565b610bea6114dd565b61152d565b50565b60008060019054906101000a900460ff16159050808015610c235750600160008054906101000a900460ff1660ff16105b80610c505750610c3230611589565b158015610c4f5750600160008054906101000a900460ff1660ff16145b5b610c8f576040517f08c379a0000000000000000000000000000000000000000000000000000000008152600401610c86906122fe565b60405180910390fd5b60016000806101000a81548160ff021916908360ff1602179055508015610ccc576001600060016101000a81548160ff0219169083151502179055505b60006101006000808152602001908152602001600020905060648160000181905550610cfe610cf96112b9565b610ad0565b508015610d585760008060016101000a81548160ff0219169083151502179055507f7f26b83ff96e1f2b6a682f133852f6798a09c465da95921460cefb38474024986001604051610d4f9190612370565b60405180910390a15b50565b610d6361110e565b610da2576040517f08c379a0000000000000000000000000000000000000000000000000000000008152600401610d9990612177565b60405180910390fd5b60fb60008154610db19061238b565b91905081905550600060fe600060fb548152602001908152602001600020905084816000019081610de29190612575565b50838160010160006101000a81548173ffffffffffffffffffffffffffffffffffffffff021916908373ffffffffffffffffffffffffffffffffffffffff160217905550600160fc54610e3591906121c6565b8160030181905550818160020181905550828160010160146101000a81548160ff021916908315150217905550600060ff600060fb5481526020019081526020016000206000600160fc54610e8a91906121c6565b8152602001908152602001600020905060018160000160006101000a81548160ff021916908315150217905550838160000160016101000a81548160ff021916908315150217905550828160010181905550610ee46113a3565b85604051610ef29190612683565b604051809103902060fb547ff12268f1ee765d7c9afac4d357ffdcab36199b5cc037b2f15e65eb87690db53d60405160405180910390a3505050505050565b60006097600084815260200190815260200160002060000160008373ffffffffffffffffffffffffffffffffffffffff1673ffffffffffffffffffffffffffffffffffffffff16815260200190815260200160002060009054906101000a900460ff16905092915050565b60fb5481565b60fe602052806000526040600020600091509050806000018054610fc5906120d4565b80601f0160208091040260200160405190810160405280929190818152602001828054610ff1906120d4565b801561103e5780601f106110135761010080835404028352916020019161103e565b820191906000526020600020905b81548152906001019060200180831161102157829003601f168201915b5050505050908060010160009054906101000a900473ffffffffffffffffffffffffffffffffffffffff16908060010160149054906101000a900460ff16908060020154908060030154905085565b600060ff6000848152602001908152602001600020600083815260200190815260200160002060010154905092915050565b6000801b81565b60006110e06110d3611505565b6110db6112b9565b610f31565b905090565b600080826101006000868152602001908152602001600020600101541490508091505092915050565b600061112861111b6114dd565b6111236112b9565b610f31565b905090565b60fc5481565b60fd5481565b611142826106eb565b61114b816111c4565b61115583836112c1565b505050565b60007f01ffc9a7000000000000000000000000000000000000000000000000000000007bffffffffffffffffffffffffffffffffffffffffffffffffffffffff1916827bffffffffffffffffffffffffffffffffffffffffffffffffffffffff1916149050919050565b6111d5816111d06112b9565b6115ac565b50565b6111e28282610f31565b6112b55760016097600084815260200190815260200160002060000160008373ffffffffffffffffffffffffffffffffffffffff1673ffffffffffffffffffffffffffffffffffffffff16815260200190815260200160002060006101000a81548160ff02191690831515021790555061125a6112b9565b73ffffffffffffffffffffffffffffffffffffffff168173ffffffffffffffffffffffffffffffffffffffff16837f2f8788117e7eff1d82e926ec794901d17c78024a50270940304540a733656f0d60405160405180910390a45b5050565b600033905090565b6112cb8282610f31565b1561139f5760006097600084815260200190815260200160002060000160008373ffffffffffffffffffffffffffffffffffffffff1673ffffffffffffffffffffffffffffffffffffffff16815260200190815260200160002060006101000a81548160ff0219169083151502179055506113446112b9565b73ffffffffffffffffffffffffffffffffffffffff168173ffffffffffffffffffffffffffffffffffffffff16837ff6391f5c32d9c69d2a47ea670b442974b53935d1edc7fd64eb21e047a839171b60405160405180910390a45b5050565b60fc600081546113b29061238b565b919050819055506064610100600060fc54815260200190815260200160002060000181905550565b600060019054906101000a900460ff16611429576040517f08c379a00000000000000000000000000000000000000000000000000000000081526004016114209061226c565b60405180910390fd5b611431611631565b565b600060019054906101000a900460ff16611482576040517f08c379a00000000000000000000000000000000000000000000000000000000081526004016114799061226c565b60405180910390fd5b565b600060019054906101000a900460ff166114d3576040517f08c379a00000000000000000000000000000000000000000000000000000000081526004016114ca9061226c565b60405180910390fd5b6114db61169d565b565b60007fa49807205ce4d355092ef5a8a18f56e8913cf4a201fbe287825b095693c21775905090565b60007f65d7a28e3265b37a6474929f336521b332c1681b933f6cb9f3376673440d862a905090565b6000611538836106eb565b90508160976000858152602001908152602001600020600101819055508181847fbd79b86ffe0ab8e8776151514217cd7cacd52c909f66475c3af44e129f0b00ff60405160405180910390a4505050565b6000808273ffffffffffffffffffffffffffffffffffffffff163b119050919050565b6115b68282610f31565b61162d576115c3816116f6565b6115d18360001c6020611723565b6040516020016115e2929190612732565b6040516020818303038152906040526040517f08c379a0000000000000000000000000000000000000000000000000000000008152600401611624919061276c565b60405180910390fd5b5050565b600060019054906101000a900460ff16611680576040517f08c379a00000000000000000000000000000000000000000000000000000000081526004016116779061226c565b60405180910390fd5b6000603360006101000a81548160ff021916908315150217905550565b600060019054906101000a900460ff166116ec576040517f08c379a00000000000000000000000000000000000000000000000000000000081526004016116e39061226c565b60405180910390fd5b600160c981905550565b606061171c8273ffffffffffffffffffffffffffffffffffffffff16601460ff16611723565b9050919050565b606060006002836002611736919061278e565b61174091906121c6565b67ffffffffffffffff81111561175957611758611e0b565b5b6040519080825280601f01601f19166020018201604052801561178b5781602001600182028036833780820191505090505b5090507f3000000000000000000000000000000000000000000000000000000000000000816000815181106117c3576117c26127e8565b5b60200101907effffffffffffffffffffffffffffffffffffffffffffffffffffffffffffff1916908160001a9053507f780000000000000000000000000000000000000000000000000000000000000081600181518110611827576118266127e8565b5b60200101907effffffffffffffffffffffffffffffffffffffffffffffffffffffffffffff1916908160001a90535060006001846002611867919061278e565b61187191906121c6565b90505b6001811115611911577f3031323334353637383961626364656600000000000000000000000000000000600f8616601081106118b3576118b26127e8565b5b1a60f81b8282815181106118ca576118c96127e8565b5b60200101907effffffffffffffffffffffffffffffffffffffffffffffffffffffffffffff1916908160001a905350600485901c94508061190a90612817565b9050611874565b5060008414611955576040517f08c379a000000000000000000000000000000000000000000000000000000000815260040161194c9061288c565b60405180910390fd5b8091505092915050565b6000604051905090565b600080fd5b600080fd5b60007fffffffff0000000000000000000000000000000000000000000000000000000082169050919050565b6119a881611973565b81146119b357600080fd5b50565b6000813590506119c58161199f565b92915050565b6000602082840312156119e1576119e0611969565b5b60006119ef848285016119b6565b91505092915050565b60008115159050919050565b611a0d816119f8565b82525050565b6000602082019050611a286000830184611a04565b92915050565b6000819050919050565b611a4181611a2e565b8114611a4c57600080fd5b50565b600081359050611a5e81611a38565b92915050565b60008060408385031215611a7b57611a7a611969565b5b6000611a8985828601611a4f565b9250506020611a9a85828601611a4f565b9150509250929050565b611aad81611a2e565b82525050565b6000606082019050611ac86000830186611a04565b611ad56020830185611a04565b611ae26040830184611aa4565b949350505050565b6000819050919050565b611afd81611aea565b8114611b0857600080fd5b50565b600081359050611b1a81611af4565b92915050565b600060208284031215611b3657611b35611969565b5b6000611b4484828501611b0b565b91505092915050565b611b5681611aea565b82525050565b6000602082019050611b716000830184611b4d565b92915050565b600060208284031215611b8d57611b8c611969565b5b6000611b9b84828501611a4f565b91505092915050565b6000604082019050611bb96000830185611aa4565b611bc66020830184611aa4565b9392505050565b600073ffffffffffffffffffffffffffffffffffffffff82169050919050565b6000611bf882611bcd565b9050919050565b611c0881611bed565b8114611c1357600080fd5b50565b600081359050611c2581611bff565b92915050565b60008060408385031215611c4257611c41611969565b5b6000611c5085828601611b0b565b9250506020611c6185828601611c16565b9150509250929050565b6000602082019050611c806000830184611aa4565b92915050565b600081519050919050565b600082825260208201905092915050565b60005b83811015611cc0578082015181840152602081019050611ca5565b60008484015250505050565b6000601f19601f8301169050919050565b6000611ce882611c86565b611cf28185611c91565b9350611d02818560208601611ca2565b611d0b81611ccc565b840191505092915050565b611d1f81611bed565b82525050565b60006040820190508181036000830152611d3f8185611cdd565b9050611d4e6020830184611d16565b9392505050565b611d5e816119f8565b8114611d6957600080fd5b50565b600081359050611d7b81611d55565b92915050565b600080600060608486031215611d9a57611d99611969565b5b6000611da886828701611a4f565b9350506020611db986828701611a4f565b9250506040611dca86828701611d6c565b9150509250925092565b600060208284031215611dea57611de9611969565b5b6000611df884828501611c16565b91505092915050565b600080fd5b600080fd5b7f4e487b7100000000000000000000000000000000000000000000000000000000600052604160045260246000fd5b611e4382611ccc565b810181811067ffffffffffffffff82111715611e6257611e61611e0b565b5b80604052505050565b6000611e7561195f565b9050611e818282611e3a565b919050565b600067ffffffffffffffff821115611ea157611ea0611e0b565b5b611eaa82611ccc565b9050602081019050919050565b82818337600083830152505050565b6000611ed9611ed484611e86565b611e6b565b905082815260208101848484011115611ef557611ef4611e06565b5b611f00848285611eb7565b509392505050565b600082601f830112611f1d57611f1c611e01565b5b8135611f2d848260208601611ec6565b91505092915050565b60008060008060808587031215611f5057611f4f611969565b5b600085013567ffffffffffffffff811115611f6e57611f6d61196e565b5b611f7a87828801611f08565b9450506020611f8b87828801611c16565b9350506040611f9c87828801611d6c565b9250506060611fad87828801611a4f565b91505092959194509250565b600060a0820190508181036000830152611fd38188611cdd565b9050611fe26020830187611d16565b611fef6040830186611a04565b611ffc6060830185611aa4565b6120096080830184611aa4565b9695505050505050565b7f416363657373436f6e74726f6c3a2063616e206f6e6c792072656e6f756e636560008201527f20726f6c657320666f722073656c660000000000000000000000000000000000602082015250565b600061206f602f83611c91565b915061207a82612013565b604082019050919050565b6000602082019050818103600083015261209e81612062565b9050919050565b7f4e487b7100000000000000000000000000000000000000000000000000000000600052602260045260246000fd5b600060028204905060018216806120ec57607f821691505b6020821081036120ff576120fe6120a5565b5b50919050565b7f4d75737420686176652061646d696e20726f6c6520746f20706572666f726d2060008201527f7468697320616374696f6e2e0000000000000000000000000000000000000000602082015250565b6000612161602c83611c91565b915061216c82612105565b604082019050919050565b6000602082019050818103600083015261219081612154565b9050919050565b7f4e487b7100000000000000000000000000000000000000000000000000000000600052601160045260246000fd5b60006121d182611a2e565b91506121dc83611a2e565b92508282019050808211156121f4576121f3612197565b5b92915050565b7f496e697469616c697a61626c653a20636f6e7472616374206973206e6f74206960008201527f6e697469616c697a696e67000000000000000000000000000000000000000000602082015250565b6000612256602b83611c91565b9150612261826121fa565b604082019050919050565b6000602082019050818103600083015261228581612249565b9050919050565b7f496e697469616c697a61626c653a20636f6e747261637420697320616c72656160008201527f647920696e697469616c697a6564000000000000000000000000000000000000602082015250565b60006122e8602e83611c91565b91506122f38261228c565b604082019050919050565b60006020820190508181036000830152612317816122db565b9050919050565b6000819050919050565b600060ff82169050919050565b6000819050919050565b600061235a6123556123508461231e565b612335565b612328565b9050919050565b61236a8161233f565b82525050565b60006020820190506123856000830184612361565b92915050565b600061239682611a2e565b91507fffffffffffffffffffffffffffffffffffffffffffffffffffffffffffffffff82036123c8576123c7612197565b5b600182019050919050565b60008190508160005260206000209050919050565b60006020601f8301049050919050565b600082821b905092915050565b6000600883026124357fffffffffffffffffffffffffffffffffffffffffffffffffffffffffffffffff826123f8565b61243f86836123f8565b95508019841693508086168417925050509392505050565b600061247261246d61246884611a2e565b612335565b611a2e565b9050919050565b6000819050919050565b61248c83612457565b6124a061249882612479565b848454612405565b825550505050565b600090565b6124b56124a8565b6124c0818484612483565b505050565b5b818110156124e4576124d96000826124ad565b6001810190506124c6565b5050565b601f821115612529576124fa816123d3565b612503846123e8565b81016020851015612512578190505b61252661251e856123e8565b8301826124c5565b50505b505050565b600082821c905092915050565b600061254c6000198460080261252e565b1980831691505092915050565b6000612565838361253b565b9150826002028217905092915050565b61257e82611c86565b67ffffffffffffffff81111561259757612596611e0b565b5b6125a182546120d4565b6125ac8282856124e8565b600060209050601f8311600181146125df57600084156125cd578287015190505b6125d78582612559565b86555061263f565b601f1984166125ed866123d3565b60005b82811015612615578489015182556001820191506020850194506020810190506125f0565b86831015612632578489015161262e601f89168261253b565b8355505b6001600288020188555050505b505050505050565b600081905092915050565b600061265d82611c86565b6126678185612647565b9350612677818560208601611ca2565b80840191505092915050565b600061268f8284612652565b915081905092915050565b7f416363657373436f6e74726f6c3a206163636f756e7420000000000000000000600082015250565b60006126d0601783612647565b91506126db8261269a565b601782019050919050565b7f206973206d697373696e6720726f6c6520000000000000000000000000000000600082015250565b600061271c601183612647565b9150612727826126e6565b601182019050919050565b600061273d826126c3565b91506127498285612652565b91506127548261270f565b91506127608284612652565b91508190509392505050565b600060208201905081810360008301526127868184611cdd565b905092915050565b600061279982611a2e565b91506127a483611a2e565b9250817fffffffffffffffffffffffffffffffffffffffffffffffffffffffffffffffff04831182151516156127dd576127dc612197565b5b828202905092915050565b7f4e487b7100000000000000000000000000000000000000000000000000000000600052603260045260246000fd5b600061282282611a2e565b91506000820361283557612834612197565b5b600182039050919050565b7f537472696e67733a20686578206c656e67746820696e73756666696369656e74600082015250565b6000612876602083611c91565b915061288182612840565b602082019050919050565b600060208201905081810360008301526128a581612869565b905091905056fea26469706673582212206379b1f9a443f78c6904398c6b46efcbacea89fea8a0b2e90edb070f8ccc357964736f6c63430008100033",
  "linkReferences": {},
  "deployedLinkReferences": {}
}