{
  "_format": "hh-sol-artifact-1",
  "contractName": "SwapManager",
  "sourceName": "contracts/core/payAsYouGo/SwapManager.sol",
  "abi": [
    {
      "inputs": [
        {
          "internalType": "address",
          "name": "addressStableSZT",
          "type": "address"
        }
      ],
      "stateMutability": "nonpayable",
      "type": "constructor"
    },
    {
      "inputs": [],
      "name": "BaseUpgradeablePausable__ZeroAddressError",
      "type": "error"
    },
    {
      "inputs": [],
      "name": "SwapDAI__TransactionFailedError",
      "type": "error"
    },
    {
      "inputs": [],
      "name": "SwapManager__ZeroAddressInputError",
      "type": "error"
    },
    {
      "inputs": [],
      "name": "SwapStablecoin__ZeroAddressInputError",
      "type": "error"
    },
    {
      "anonymous": false,
      "inputs": [
        {
          "indexed": false,
          "internalType": "uint8",
          "name": "version",
          "type": "uint8"
        }
      ],
      "name": "Initialized",
      "type": "event"
    },
    {
      "anonymous": false,
      "inputs": [
        {
          "indexed": true,
          "internalType": "uint256",
          "name": "tokenID",
          "type": "uint256"
        },
        {
          "indexed": true,
          "internalType": "address",
          "name": "tokenAddress",
          "type": "address"
        }
      ],
      "name": "NewTokenAdded",
      "type": "event"
    },
    {
      "anonymous": false,
      "inputs": [
        {
          "indexed": false,
          "internalType": "address",
          "name": "account",
          "type": "address"
        }
      ],
      "name": "Paused",
      "type": "event"
    },
    {
      "anonymous": false,
      "inputs": [
        {
          "indexed": true,
          "internalType": "bytes32",
          "name": "role",
          "type": "bytes32"
        },
        {
          "indexed": true,
          "internalType": "bytes32",
          "name": "previousAdminRole",
          "type": "bytes32"
        },
        {
          "indexed": true,
          "internalType": "bytes32",
          "name": "newAdminRole",
          "type": "bytes32"
        }
      ],
      "name": "RoleAdminChanged",
      "type": "event"
    },
    {
      "anonymous": false,
      "inputs": [
        {
          "indexed": true,
          "internalType": "bytes32",
          "name": "role",
          "type": "bytes32"
        },
        {
          "indexed": true,
          "internalType": "address",
          "name": "account",
          "type": "address"
        },
        {
          "indexed": true,
          "internalType": "address",
          "name": "sender",
          "type": "address"
        }
      ],
      "name": "RoleGranted",
      "type": "event"
    },
    {
      "anonymous": false,
      "inputs": [
        {
          "indexed": true,
          "internalType": "bytes32",
          "name": "role",
          "type": "bytes32"
        },
        {
          "indexed": true,
          "internalType": "address",
          "name": "account",
          "type": "address"
        },
        {
          "indexed": true,
          "internalType": "address",
          "name": "sender",
          "type": "address"
        }
      ],
      "name": "RoleRevoked",
      "type": "event"
    },
    {
      "anonymous": false,
      "inputs": [
        {
          "indexed": false,
          "internalType": "address",
          "name": "account",
          "type": "address"
        }
      ],
      "name": "Unpaused",
      "type": "event"
    },
    {
      "inputs": [],
      "name": "DEFAULT_ADMIN_ROLE",
      "outputs": [
        {
          "internalType": "bytes32",
          "name": "",
          "type": "bytes32"
        }
      ],
      "stateMutability": "view",
      "type": "function"
    },
    {
      "inputs": [
        {
          "internalType": "address",
          "name": "owner",
          "type": "address"
        }
      ],
      "name": "__BaseUpgradeablePausable_init",
      "outputs": [],
      "stateMutability": "nonpayable",
      "type": "function"
    },
    {
      "inputs": [
        {
          "internalType": "address",
          "name": "addressToken",
          "type": "address"
        }
      ],
      "name": "addTokenAddress",
      "outputs": [],
      "stateMutability": "nonpayable",
      "type": "function"
    },
    {
      "inputs": [
        {
          "internalType": "bytes32",
          "name": "role",
          "type": "bytes32"
        }
      ],
      "name": "getRoleAdmin",
      "outputs": [
        {
          "internalType": "bytes32",
          "name": "",
          "type": "bytes32"
        }
      ],
      "stateMutability": "view",
      "type": "function"
    },
    {
      "inputs": [
        {
          "internalType": "bytes32",
          "name": "role",
          "type": "bytes32"
        },
        {
          "internalType": "address",
          "name": "account",
          "type": "address"
        }
      ],
      "name": "grantRole",
      "outputs": [],
      "stateMutability": "nonpayable",
      "type": "function"
    },
    {
      "inputs": [
        {
          "internalType": "bytes32",
          "name": "role",
          "type": "bytes32"
        },
        {
          "internalType": "address",
          "name": "account",
          "type": "address"
        }
      ],
      "name": "hasRole",
      "outputs": [
        {
          "internalType": "bool",
          "name": "",
          "type": "bool"
        }
      ],
      "stateMutability": "view",
      "type": "function"
    },
    {
      "inputs": [],
      "name": "isAdmin",
      "outputs": [
        {
          "internalType": "bool",
          "name": "",
          "type": "bool"
        }
      ],
      "stateMutability": "view",
      "type": "function"
    },
    {
      "inputs": [],
      "name": "isModerator",
      "outputs": [
        {
          "internalType": "bool",
          "name": "",
          "type": "bool"
        }
      ],
      "stateMutability": "view",
      "type": "function"
    },
    {
      "inputs": [],
      "name": "pause",
      "outputs": [],
      "stateMutability": "nonpayable",
      "type": "function"
    },
    {
      "inputs": [],
      "name": "paused",
      "outputs": [
        {
          "internalType": "bool",
          "name": "",
          "type": "bool"
        }
      ],
      "stateMutability": "view",
      "type": "function"
    },
    {
      "inputs": [
        {
          "internalType": "uint256",
          "name": "",
          "type": "uint256"
        }
      ],
      "name": "permissionedTokens",
      "outputs": [
        {
          "internalType": "address",
          "name": "",
          "type": "address"
        }
      ],
      "stateMutability": "view",
      "type": "function"
    },
    {
      "inputs": [
        {
          "internalType": "bytes32",
          "name": "role",
          "type": "bytes32"
        },
        {
          "internalType": "address",
          "name": "account",
          "type": "address"
        }
      ],
      "name": "renounceRole",
      "outputs": [],
      "stateMutability": "nonpayable",
      "type": "function"
    },
    {
      "inputs": [
        {
          "internalType": "bytes32",
          "name": "role",
          "type": "bytes32"
        },
        {
          "internalType": "address",
          "name": "account",
          "type": "address"
        }
      ],
      "name": "revokeRole",
      "outputs": [],
      "stateMutability": "nonpayable",
      "type": "function"
    },
    {
      "inputs": [
        {
          "internalType": "bytes4",
          "name": "interfaceId",
          "type": "bytes4"
        }
      ],
      "name": "supportsInterface",
      "outputs": [
        {
          "internalType": "bool",
          "name": "",
          "type": "bool"
        }
      ],
      "stateMutability": "view",
      "type": "function"
    },
    {
      "inputs": [
        {
          "internalType": "uint256",
          "name": "tokenID_",
          "type": "uint256"
        },
        {
          "internalType": "uint256",
          "name": "amount",
          "type": "uint256"
        },
        {
          "internalType": "uint256",
          "name": "deadline",
          "type": "uint256"
        },
        {
          "internalType": "uint8",
          "name": "permitV",
          "type": "uint8"
        },
        {
          "internalType": "bytes32",
          "name": "permitR",
          "type": "bytes32"
        },
        {
          "internalType": "bytes32",
          "name": "permitS",
          "type": "bytes32"
        }
      ],
      "name": "swapStableSZT",
      "outputs": [
        {
          "internalType": "bool",
          "name": "",
          "type": "bool"
        }
      ],
      "stateMutability": "nonpayable",
      "type": "function"
    },
    {
      "inputs": [
        {
          "internalType": "uint256",
          "name": "tokenID_",
          "type": "uint256"
        },
        {
          "internalType": "uint256",
          "name": "amount",
          "type": "uint256"
        },
        {
          "internalType": "uint256",
          "name": "deadline",
          "type": "uint256"
        },
        {
          "internalType": "uint8",
          "name": "permitV",
          "type": "uint8"
        },
        {
          "internalType": "bytes32",
          "name": "permitR",
          "type": "bytes32"
        },
        {
          "internalType": "bytes32",
          "name": "permitS",
          "type": "bytes32"
        }
      ],
      "name": "swapStablecoin",
      "outputs": [
        {
          "internalType": "bool",
          "name": "",
          "type": "bool"
        }
      ],
      "stateMutability": "nonpayable",
      "type": "function"
    },
    {
      "inputs": [],
      "name": "tokenID",
      "outputs": [
        {
          "internalType": "uint256",
          "name": "",
          "type": "uint256"
        }
      ],
      "stateMutability": "view",
      "type": "function"
    },
    {
      "inputs": [],
      "name": "tokenPermitStableSZT",
      "outputs": [
        {
          "internalType": "contract IERC20PermitUpgradeable",
          "name": "",
          "type": "address"
        }
      ],
      "stateMutability": "view",
      "type": "function"
    },
    {
      "inputs": [],
      "name": "tokenStableSZT",
      "outputs": [
        {
          "internalType": "contract IERC20Extended",
          "name": "",
          "type": "address"
        }
      ],
      "stateMutability": "view",
      "type": "function"
    },
    {
      "inputs": [],
      "name": "unpause",
      "outputs": [],
      "stateMutability": "nonpayable",
      "type": "function"
    }
  ],
  "bytecode": "0x60c06040523480156200001157600080fd5b5060405162002be038038062002be0833981810160405281019062000037919062000110565b8073ffffffffffffffffffffffffffffffffffffffff1660808173ffffffffffffffffffffffffffffffffffffffff16815250508073ffffffffffffffffffffffffffffffffffffffff1660a08173ffffffffffffffffffffffffffffffffffffffff16815250505062000142565b600080fd5b600073ffffffffffffffffffffffffffffffffffffffff82169050919050565b6000620000d882620000ab565b9050919050565b620000ea81620000cb565b8114620000f657600080fd5b50565b6000815190506200010a81620000df565b92915050565b600060208284031215620001295762000128620000a6565b5b60006200013984828501620000f9565b91505092915050565b60805160a051612a636200017d6000396000818161075f0152610c5001526000818161055a01528181610a1c0152610ca80152612a636000f3fe608060405234801561001057600080fd5b506004361061012c5760003560e01c80637048909e116100ad578063aeabaff311610071578063aeabaff31461030b578063b6db75a014610329578063d547741f14610347578063dc1ccde214610363578063edde0c50146103935761012c565b80637048909e146102775780638456cb591461029557806391d148541461029f578063a217fddf146102cf578063a5c42ef1146102ed5761012c565b80633f4ba83a116100f45780633f4ba83a146101f95780634ec212f21461020357806351992fcb146102215780635c975abb1461023d5780636e810b1a1461025b5761012c565b806301ffc9a71461013157806322095fd114610161578063248a9ca3146101915780632f2ff15d146101c157806336568abe146101dd575b600080fd5b61014b60048036038101906101469190611c00565b6103c3565b6040516101589190611c48565b60405180910390f35b61017b60048036038101906101769190611d08565b61043d565b6040516101889190611c48565b60405180910390f35b6101ab60048036038101906101a69190611d95565b610648565b6040516101b89190611dd1565b60405180910390f35b6101db60048036038101906101d69190611e4a565b610668565b005b6101f760048036038101906101f29190611e4a565b610689565b005b61020161070c565b005b61020b61075d565b6040516102189190611ee9565b60405180910390f35b61023b60048036038101906102369190611f04565b610781565b005b6102456108e1565b6040516102529190611c48565b60405180910390f35b61027560048036038101906102709190611f04565b6108f8565b005b61027f610a1a565b60405161028c9190611f52565b60405180910390f35b61029d610a3e565b005b6102b960048036038101906102b49190611e4a565b610a8f565b6040516102c69190611c48565b60405180910390f35b6102d7610afa565b6040516102e49190611dd1565b60405180910390f35b6102f5610b01565b6040516103029190611f7c565b60405180910390f35b610313610b07565b6040516103209190611c48565b60405180910390f35b610331610b26565b60405161033e9190611c48565b60405180910390f35b610361600480360381019061035c9190611e4a565b610b45565b005b61037d60048036038101906103789190611f97565b610b66565b60405161038a9190611fd3565b60405180910390f35b6103ad60048036038101906103a89190611d08565b610b99565b6040516103ba9190611c48565b60405180910390f35b60007f7965db0b000000000000000000000000000000000000000000000000000000007bffffffffffffffffffffffffffffffffffffffffffffffffffffffff1916827bffffffffffffffffffffffffffffffffffffffffffffffffffffffff19161480610436575061043582610d2f565b5b9050919050565b60008060fc600089815260200190815260200160002060009054906101000a900473ffffffffffffffffffffffffffffffffffffffff169050600073ffffffffffffffffffffffffffffffffffffffff168173ffffffffffffffffffffffffffffffffffffffff16036104dc576040517ff231f59400000000000000000000000000000000000000000000000000000000815260040160405180910390fd5b600081905060008290506105226104f1610d99565b308b8b8b8b8b8873ffffffffffffffffffffffffffffffffffffffff16610da190979695949392919063ffffffff16565b61055661052d610d99565b308b8573ffffffffffffffffffffffffffffffffffffffff16610f6e909392919063ffffffff16565b60007f000000000000000000000000000000000000000000000000000000000000000073ffffffffffffffffffffffffffffffffffffffff166340c10f1961059c610d99565b8c6040518363ffffffff1660e01b81526004016105ba929190611fee565b6020604051808303816000875af11580156105d9573d6000803e3d6000fd5b505050506040513d601f19601f820116820180604052508101906105fd9190612043565b905080610636576040517f308184d500000000000000000000000000000000000000000000000000000000815260040160405180910390fd5b60019450505050509695505050505050565b600060976000838152602001908152602001600020600101549050919050565b61067182610648565b61067a81610ff7565b610684838361100b565b505050565b610691610d99565b73ffffffffffffffffffffffffffffffffffffffff168173ffffffffffffffffffffffffffffffffffffffff16146106fe576040517f08c379a00000000000000000000000000000000000000000000000000000000081526004016106f5906120f3565b60405180910390fd5b61070882826110ec565b5050565b610714610b26565b610753576040517f08c379a000000000000000000000000000000000000000000000000000000000815260040161074a90612185565b60405180910390fd5b61075b6111ce565b565b7f000000000000000000000000000000000000000000000000000000000000000081565b610789610b26565b6107c8576040517f08c379a00000000000000000000000000000000000000000000000000000000081526004016107bf90612185565b60405180910390fd5b600073ffffffffffffffffffffffffffffffffffffffff168173ffffffffffffffffffffffffffffffffffffffff160361082e576040517fd895e0d800000000000000000000000000000000000000000000000000000000815260040160405180910390fd5b60fb6000815461083d906121d4565b919050819055508060fc600060fb54815260200190815260200160002060006101000a81548173ffffffffffffffffffffffffffffffffffffffff021916908373ffffffffffffffffffffffffffffffffffffffff1602179055508073ffffffffffffffffffffffffffffffffffffffff1660fb547f8011fff8b5bba1d314cf6c6366e5398e6153bbf5a91322a1aed92f4511f4177a60405160405180910390a350565b6000603360009054906101000a900460ff16905090565b600060019054906101000a900460ff16610947576040517f08c379a000000000000000000000000000000000000000000000000000000000815260040161093e9061228e565b60405180910390fd5b600073ffffffffffffffffffffffffffffffffffffffff168173ffffffffffffffffffffffffffffffffffffffff16036109ad576040517f5415139400000000000000000000000000000000000000000000000000000000815260040160405180910390fd5b6109b5611231565b6109bd61128a565b6109c56112db565b6109d66109d0611334565b8261100b565b6109e76109e161135c565b8261100b565b6109ff6109f261135c565b6109fa611334565b611384565b610a17610a0a611334565b610a12611334565b611384565b50565b7f000000000000000000000000000000000000000000000000000000000000000081565b610a46610b26565b610a85576040517f08c379a0000000000000000000000000000000000000000000000000000000008152600401610a7c90612185565b60405180910390fd5b610a8d6113e0565b565b60006097600084815260200190815260200160002060000160008373ffffffffffffffffffffffffffffffffffffffff1673ffffffffffffffffffffffffffffffffffffffff16815260200190815260200160002060009054906101000a900460ff16905092915050565b6000801b81565b60fb5481565b6000610b21610b1461135c565b610b1c610d99565b610a8f565b905090565b6000610b40610b33611334565b610b3b610d99565b610a8f565b905090565b610b4e82610648565b610b5781610ff7565b610b6183836110ec565b505050565b60fc6020528060005260406000206000915054906101000a900473ffffffffffffffffffffffffffffffffffffffff1681565b60008060fc600089815260200190815260200160002060009054906101000a900473ffffffffffffffffffffffffffffffffffffffff169050600073ffffffffffffffffffffffffffffffffffffffff168173ffffffffffffffffffffffffffffffffffffffff1603610c38576040517ff231f59400000000000000000000000000000000000000000000000000000000815260040160405180910390fd5b6000819050610c99610c48610d99565b308a8a8a8a8a7f000000000000000000000000000000000000000000000000000000000000000073ffffffffffffffffffffffffffffffffffffffff16610da190979695949392919063ffffffff16565b610ced610ca4610d99565b308a7f000000000000000000000000000000000000000000000000000000000000000073ffffffffffffffffffffffffffffffffffffffff16610f6e909392919063ffffffff16565b610d1f610cf8610d99565b898373ffffffffffffffffffffffffffffffffffffffff166114439092919063ffffffff16565b6001925050509695505050505050565b60007f01ffc9a7000000000000000000000000000000000000000000000000000000007bffffffffffffffffffffffffffffffffffffffffffffffffffffffff1916827bffffffffffffffffffffffffffffffffffffffffffffffffffffffff1916149050919050565b600033905090565b60008873ffffffffffffffffffffffffffffffffffffffff16637ecebe00896040518263ffffffff1660e01b8152600401610ddc9190611fd3565b602060405180830381865afa158015610df9573d6000803e3d6000fd5b505050506040513d601f19601f82011682018060405250810190610e1d91906122c3565b90508873ffffffffffffffffffffffffffffffffffffffff1663d505accf898989898989896040518863ffffffff1660e01b8152600401610e6497969594939291906122ff565b600060405180830381600087803b158015610e7e57600080fd5b505af1158015610e92573d6000803e3d6000fd5b5050505060008973ffffffffffffffffffffffffffffffffffffffff16637ecebe008a6040518263ffffffff1660e01b8152600401610ed19190611fd3565b602060405180830381865afa158015610eee573d6000803e3d6000fd5b505050506040513d601f19601f82011682018060405250810190610f1291906122c3565b9050600182610f21919061236e565b8114610f62576040517f08c379a0000000000000000000000000000000000000000000000000000000008152600401610f5990612414565b60405180910390fd5b50505050505050505050565b610ff1846323b872dd60e01b858585604051602401610f8f93929190612434565b604051602081830303815290604052907bffffffffffffffffffffffffffffffffffffffffffffffffffffffff19166020820180517bffffffffffffffffffffffffffffffffffffffffffffffffffffffff83818316178352505050506114c9565b50505050565b61100881611003610d99565b611590565b50565b6110158282610a8f565b6110e85760016097600084815260200190815260200160002060000160008373ffffffffffffffffffffffffffffffffffffffff1673ffffffffffffffffffffffffffffffffffffffff16815260200190815260200160002060006101000a81548160ff02191690831515021790555061108d610d99565b73ffffffffffffffffffffffffffffffffffffffff168173ffffffffffffffffffffffffffffffffffffffff16837f2f8788117e7eff1d82e926ec794901d17c78024a50270940304540a733656f0d60405160405180910390a45b5050565b6110f68282610a8f565b156111ca5760006097600084815260200190815260200160002060000160008373ffffffffffffffffffffffffffffffffffffffff1673ffffffffffffffffffffffffffffffffffffffff16815260200190815260200160002060006101000a81548160ff02191690831515021790555061116f610d99565b73ffffffffffffffffffffffffffffffffffffffff168173ffffffffffffffffffffffffffffffffffffffff16837ff6391f5c32d9c69d2a47ea670b442974b53935d1edc7fd64eb21e047a839171b60405160405180910390a45b5050565b6111d6611615565b6000603360006101000a81548160ff0219169083151502179055507f5db9ee0a495bf2e6ff9c91a7834c1ba4fdd244a5e8aa4e537bd38aeae4b073aa61121a610d99565b6040516112279190611fd3565b60405180910390a1565b600060019054906101000a900460ff16611280576040517f08c379a00000000000000000000000000000000000000000000000000000000081526004016112779061228e565b60405180910390fd5b61128861165e565b565b600060019054906101000a900460ff166112d9576040517f08c379a00000000000000000000000000000000000000000000000000000000081526004016112d09061228e565b60405180910390fd5b565b600060019054906101000a900460ff1661132a576040517f08c379a00000000000000000000000000000000000000000000000000000000081526004016113219061228e565b60405180910390fd5b6113326116ca565b565b60007fa49807205ce4d355092ef5a8a18f56e8913cf4a201fbe287825b095693c21775905090565b60007f65d7a28e3265b37a6474929f336521b332c1681b933f6cb9f3376673440d862a905090565b600061138f83610648565b90508160976000858152602001908152602001600020600101819055508181847fbd79b86ffe0ab8e8776151514217cd7cacd52c909f66475c3af44e129f0b00ff60405160405180910390a4505050565b6113e8611723565b6001603360006101000a81548160ff0219169083151502179055507f62e78cea01bee320cd4e420270b5ea74000d11b0c9f74754ebdbfc544b05a25861142c610d99565b6040516114399190611fd3565b60405180910390a1565b6114c48363a9059cbb60e01b8484604051602401611462929190611fee565b604051602081830303815290604052907bffffffffffffffffffffffffffffffffffffffffffffffffffffffff19166020820180517bffffffffffffffffffffffffffffffffffffffffffffffffffffffff83818316178352505050506114c9565b505050565b600061152b826040518060400160405280602081526020017f5361666545524332303a206c6f772d6c6576656c2063616c6c206661696c65648152508573ffffffffffffffffffffffffffffffffffffffff1661176d9092919063ffffffff16565b905060008151111561158b578080602001905181019061154b9190612043565b61158a576040517f08c379a0000000000000000000000000000000000000000000000000000000008152600401611581906124dd565b60405180910390fd5b5b505050565b61159a8282610a8f565b611611576115a781611785565b6115b58360001c60206117b2565b6040516020016115c6929190612606565b6040516020818303038152906040526040517f08c379a0000000000000000000000000000000000000000000000000000000008152600401611608919061268a565b60405180910390fd5b5050565b61161d6108e1565b61165c576040517f08c379a0000000000000000000000000000000000000000000000000000000008152600401611653906126f8565b60405180910390fd5b565b600060019054906101000a900460ff166116ad576040517f08c379a00000000000000000000000000000000000000000000000000000000081526004016116a49061228e565b60405180910390fd5b6000603360006101000a81548160ff021916908315150217905550565b600060019054906101000a900460ff16611719576040517f08c379a00000000000000000000000000000000000000000000000000000000081526004016117109061228e565b60405180910390fd5b600160c981905550565b61172b6108e1565b1561176b576040517f08c379a000000000000000000000000000000000000000000000000000000000815260040161176290612764565b60405180910390fd5b565b606061177c84846000856119ee565b90509392505050565b60606117ab8273ffffffffffffffffffffffffffffffffffffffff16601460ff166117b2565b9050919050565b6060600060028360026117c59190612784565b6117cf919061236e565b67ffffffffffffffff8111156117e8576117e76127de565b5b6040519080825280601f01601f19166020018201604052801561181a5781602001600182028036833780820191505090505b5090507f3000000000000000000000000000000000000000000000000000000000000000816000815181106118525761185161280d565b5b60200101907effffffffffffffffffffffffffffffffffffffffffffffffffffffffffffff1916908160001a9053507f7800000000000000000000000000000000000000000000000000000000000000816001815181106118b6576118b561280d565b5b60200101907effffffffffffffffffffffffffffffffffffffffffffffffffffffffffffff1916908160001a905350600060018460026118f69190612784565b611900919061236e565b90505b60018111156119a0577f3031323334353637383961626364656600000000000000000000000000000000600f8616601081106119425761194161280d565b5b1a60f81b8282815181106119595761195861280d565b5b60200101907effffffffffffffffffffffffffffffffffffffffffffffffffffffffffffff1916908160001a905350600485901c9450806119999061283c565b9050611903565b50600084146119e4576040517f08c379a00000000000000000000000000000000000000000000000000000000081526004016119db906128b1565b60405180910390fd5b8091505092915050565b606082471015611a33576040517f08c379a0000000000000000000000000000000000000000000000000000000008152600401611a2a90612943565b60405180910390fd5b6000808673ffffffffffffffffffffffffffffffffffffffff168587604051611a5c91906129aa565b60006040518083038185875af1925050503d8060008114611a99576040519150601f19603f3d011682016040523d82523d6000602084013e611a9e565b606091505b5091509150611aaf87838387611abb565b92505050949350505050565b60608315611b1d576000835103611b1557611ad585611b30565b611b14576040517f08c379a0000000000000000000000000000000000000000000000000000000008152600401611b0b90612a0d565b60405180910390fd5b5b829050611b28565b611b278383611b53565b5b949350505050565b6000808273ffffffffffffffffffffffffffffffffffffffff163b119050919050565b600082511115611b665781518083602001fd5b806040517f08c379a0000000000000000000000000000000000000000000000000000000008152600401611b9a919061268a565b60405180910390fd5b600080fd5b60007fffffffff0000000000000000000000000000000000000000000000000000000082169050919050565b611bdd81611ba8565b8114611be857600080fd5b50565b600081359050611bfa81611bd4565b92915050565b600060208284031215611c1657611c15611ba3565b5b6000611c2484828501611beb565b91505092915050565b60008115159050919050565b611c4281611c2d565b82525050565b6000602082019050611c5d6000830184611c39565b92915050565b6000819050919050565b611c7681611c63565b8114611c8157600080fd5b50565b600081359050611c9381611c6d565b92915050565b600060ff82169050919050565b611caf81611c99565b8114611cba57600080fd5b50565b600081359050611ccc81611ca6565b92915050565b6000819050919050565b611ce581611cd2565b8114611cf057600080fd5b50565b600081359050611d0281611cdc565b92915050565b60008060008060008060c08789031215611d2557611d24611ba3565b5b6000611d3389828a01611c84565b9650506020611d4489828a01611c84565b9550506040611d5589828a01611c84565b9450506060611d6689828a01611cbd565b9350506080611d7789828a01611cf3565b92505060a0611d8889828a01611cf3565b9150509295509295509295565b600060208284031215611dab57611daa611ba3565b5b6000611db984828501611cf3565b91505092915050565b611dcb81611cd2565b82525050565b6000602082019050611de66000830184611dc2565b92915050565b600073ffffffffffffffffffffffffffffffffffffffff82169050919050565b6000611e1782611dec565b9050919050565b611e2781611e0c565b8114611e3257600080fd5b50565b600081359050611e4481611e1e565b92915050565b60008060408385031215611e6157611e60611ba3565b5b6000611e6f85828601611cf3565b9250506020611e8085828601611e35565b9150509250929050565b6000819050919050565b6000611eaf611eaa611ea584611dec565b611e8a565b611dec565b9050919050565b6000611ec182611e94565b9050919050565b6000611ed382611eb6565b9050919050565b611ee381611ec8565b82525050565b6000602082019050611efe6000830184611eda565b92915050565b600060208284031215611f1a57611f19611ba3565b5b6000611f2884828501611e35565b91505092915050565b6000611f3c82611eb6565b9050919050565b611f4c81611f31565b82525050565b6000602082019050611f676000830184611f43565b92915050565b611f7681611c63565b82525050565b6000602082019050611f916000830184611f6d565b92915050565b600060208284031215611fad57611fac611ba3565b5b6000611fbb84828501611c84565b91505092915050565b611fcd81611e0c565b82525050565b6000602082019050611fe86000830184611fc4565b92915050565b60006040820190506120036000830185611fc4565b6120106020830184611f6d565b9392505050565b61202081611c2d565b811461202b57600080fd5b50565b60008151905061203d81612017565b92915050565b60006020828403121561205957612058611ba3565b5b60006120678482850161202e565b91505092915050565b600082825260208201905092915050565b7f416363657373436f6e74726f6c3a2063616e206f6e6c792072656e6f756e636560008201527f20726f6c657320666f722073656c660000000000000000000000000000000000602082015250565b60006120dd602f83612070565b91506120e882612081565b604082019050919050565b6000602082019050818103600083015261210c816120d0565b9050919050565b7f4d75737420686176652061646d696e20726f6c6520746f20706572666f726d2060008201527f7468697320616374696f6e2e0000000000000000000000000000000000000000602082015250565b600061216f602c83612070565b915061217a82612113565b604082019050919050565b6000602082019050818103600083015261219e81612162565b9050919050565b7f4e487b7100000000000000000000000000000000000000000000000000000000600052601160045260246000fd5b60006121df82611c63565b91507fffffffffffffffffffffffffffffffffffffffffffffffffffffffffffffffff8203612211576122106121a5565b5b600182019050919050565b7f496e697469616c697a61626c653a20636f6e7472616374206973206e6f74206960008201527f6e697469616c697a696e67000000000000000000000000000000000000000000602082015250565b6000612278602b83612070565b91506122838261221c565b604082019050919050565b600060208201905081810360008301526122a78161226b565b9050919050565b6000815190506122bd81611c6d565b92915050565b6000602082840312156122d9576122d8611ba3565b5b60006122e7848285016122ae565b91505092915050565b6122f981611c99565b82525050565b600060e082019050612314600083018a611fc4565b6123216020830189611fc4565b61232e6040830188611f6d565b61233b6060830187611f6d565b61234860808301866122f0565b61235560a0830185611dc2565b61236260c0830184611dc2565b98975050505050505050565b600061237982611c63565b915061238483611c63565b925082820190508082111561239c5761239b6121a5565b5b92915050565b7f5361666545524332303a207065726d697420646964206e6f742073756363656560008201527f6400000000000000000000000000000000000000000000000000000000000000602082015250565b60006123fe602183612070565b9150612409826123a2565b604082019050919050565b6000602082019050818103600083015261242d816123f1565b9050919050565b60006060820190506124496000830186611fc4565b6124566020830185611fc4565b6124636040830184611f6d565b949350505050565b7f5361666545524332303a204552433230206f7065726174696f6e20646964206e60008201527f6f74207375636365656400000000000000000000000000000000000000000000602082015250565b60006124c7602a83612070565b91506124d28261246b565b604082019050919050565b600060208201905081810360008301526124f6816124ba565b9050919050565b600081905092915050565b7f416363657373436f6e74726f6c3a206163636f756e7420000000000000000000600082015250565b600061253e6017836124fd565b915061254982612508565b601782019050919050565b600081519050919050565b60005b8381101561257d578082015181840152602081019050612562565b60008484015250505050565b600061259482612554565b61259e81856124fd565b93506125ae81856020860161255f565b80840191505092915050565b7f206973206d697373696e6720726f6c6520000000000000000000000000000000600082015250565b60006125f06011836124fd565b91506125fb826125ba565b601182019050919050565b600061261182612531565b915061261d8285612589565b9150612628826125e3565b91506126348284612589565b91508190509392505050565b6000601f19601f8301169050919050565b600061265c82612554565b6126668185612070565b935061267681856020860161255f565b61267f81612640565b840191505092915050565b600060208201905081810360008301526126a48184612651565b905092915050565b7f5061757361626c653a206e6f7420706175736564000000000000000000000000600082015250565b60006126e2601483612070565b91506126ed826126ac565b602082019050919050565b60006020820190508181036000830152612711816126d5565b9050919050565b7f5061757361626c653a2070617573656400000000000000000000000000000000600082015250565b600061274e601083612070565b915061275982612718565b602082019050919050565b6000602082019050818103600083015261277d81612741565b9050919050565b600061278f82611c63565b915061279a83611c63565b9250817fffffffffffffffffffffffffffffffffffffffffffffffffffffffffffffffff04831182151516156127d3576127d26121a5565b5b828202905092915050565b7f4e487b7100000000000000000000000000000000000000000000000000000000600052604160045260246000fd5b7f4e487b7100000000000000000000000000000000000000000000000000000000600052603260045260246000fd5b600061284782611c63565b91506000820361285a576128596121a5565b5b600182039050919050565b7f537472696e67733a20686578206c656e67746820696e73756666696369656e74600082015250565b600061289b602083612070565b91506128a682612865565b602082019050919050565b600060208201905081810360008301526128ca8161288e565b9050919050565b7f416464726573733a20696e73756666696369656e742062616c616e636520666f60008201527f722063616c6c0000000000000000000000000000000000000000000000000000602082015250565b600061292d602683612070565b9150612938826128d1565b604082019050919050565b6000602082019050818103600083015261295c81612920565b9050919050565b600081519050919050565b600081905092915050565b600061298482612963565b61298e818561296e565b935061299e81856020860161255f565b80840191505092915050565b60006129b68284612979565b915081905092915050565b7f416464726573733a2063616c6c20746f206e6f6e2d636f6e7472616374000000600082015250565b60006129f7601d83612070565b9150612a02826129c1565b602082019050919050565b60006020820190508181036000830152612a26816129ea565b905091905056fea26469706673582212205660f3f060a382811676cd29b9f70b853c60d5792256d40c243fa4e2c6c3b55564736f6c63430008100033",
  "linkReferences": {},
  "deployedLinkReferences": {}
}