{"contracts/BaseUpgradeablePausable.sol":{"BaseUpgradeablePausable":{"abi":[{"inputs":[],"name":"BaseUpgradeablePausable__ZeroAddressError","type":"error"},{"anonymous":false,"inputs":[{"indexed":false,"internalType":"uint8","name":"version","type":"uint8"}],"name":"Initialized","type":"event"},{"anonymous":false,"inputs":[{"indexed":false,"internalType":"address","name":"account","type":"address"}],"name":"Paused","type":"event"},{"anonymous":false,"inputs":[{"indexed":true,"internalType":"bytes32","name":"role","type":"bytes32"},{"indexed":true,"internalType":"bytes32","name":"previousAdminRole","type":"bytes32"},{"indexed":true,"internalType":"bytes32","name":"newAdminRole","type":"bytes32"}],"name":"RoleAdminChanged","type":"event"},{"anonymous":false,"inputs":[{"indexed":true,"internalType":"bytes32","name":"role","type":"bytes32"},{"indexed":true,"internalType":"address","name":"account","type":"address"},{"indexed":true,"internalType":"address","name":"sender","type":"address"}],"name":"RoleGranted","type":"event"},{"anonymous":false,"inputs":[{"indexed":true,"internalType":"bytes32","name":"role","type":"bytes32"},{"indexed":true,"internalType":"address","name":"account","type":"address"},{"indexed":true,"internalType":"address","name":"sender","type":"address"}],"name":"RoleRevoked","type":"event"},{"anonymous":false,"inputs":[{"indexed":false,"internalType":"address","name":"account","type":"address"}],"name":"Unpaused","type":"event"},{"inputs":[],"name":"DEFAULT_ADMIN_ROLE","outputs":[{"internalType":"bytes32","name":"","type":"bytes32"}],"stateMutability":"view","type":"function"},{"inputs":[{"internalType":"address","name":"owner","type":"address"}],"name":"__BaseUpgradeablePausable_init","outputs":[],"stateMutability":"nonpayable","type":"function"},{"inputs":[{"internalType":"bytes32","name":"role","type":"bytes32"}],"name":"getRoleAdmin","outputs":[{"internalType":"bytes32","name":"","type":"bytes32"}],"stateMutability":"view","type":"function"},{"inputs":[{"internalType":"bytes32","name":"role","type":"bytes32"},{"internalType":"address","name":"account","type":"address"}],"name":"grantRole","outputs":[],"stateMutability":"nonpayable","type":"function"},{"inputs":[{"internalType":"bytes32","name":"role","type":"bytes32"},{"internalType":"address","name":"account","type":"address"}],"name":"hasRole","outputs":[{"internalType":"bool","name":"","type":"bool"}],"stateMutability":"view","type":"function"},{"inputs":[],"name":"isAdmin","outputs":[{"internalType":"bool","name":"","type":"bool"}],"stateMutability":"view","type":"function"},{"inputs":[],"name":"paused","outputs":[{"internalType":"bool","name":"","type":"bool"}],"stateMutability":"view","type":"function"},{"inputs":[{"internalType":"bytes32","name":"role","type":"bytes32"},{"internalType":"address","name":"account","type":"address"}],"name":"renounceRole","outputs":[],"stateMutability":"nonpayable","type":"function"},{"inputs":[{"internalType":"bytes32","name":"role","type":"bytes32"},{"internalType":"address","name":"account","type":"address"}],"name":"revokeRole","outputs":[],"stateMutability":"nonpayable","type":"function"},{"inputs":[{"internalType":"bytes4","name":"interfaceId","type":"bytes4"}],"name":"supportsInterface","outputs":[{"internalType":"bool","name":"","type":"bool"}],"stateMutability":"view","type":"function"}],"devdoc":{"kind":"dev","methods":{"getRoleAdmin(bytes32)":{"details":"Returns the admin role that controls `role`. See {grantRole} and {revokeRole}. To change a role's admin, use {_setRoleAdmin}."},"grantRole(bytes32,address)":{"details":"Grants `role` to `account`. If `account` had not been already granted `role`, emits a {RoleGranted} event. Requirements: - the caller must have ``role``'s admin role. May emit a {RoleGranted} event."},"hasRole(bytes32,address)":{"details":"Returns `true` if `account` has been granted `role`."},"paused()":{"details":"Returns true if the contract is paused, and false otherwise."},"renounceRole(bytes32,address)":{"details":"Revokes `role` from the calling account. Roles are often managed via {grantRole} and {revokeRole}: this function's purpose is to provide a mechanism for accounts to lose their privileges if they are compromised (such as when a trusted device is misplaced). If the calling account had been revoked `role`, emits a {RoleRevoked} event. Requirements: - the caller must be `account`. May emit a {RoleRevoked} event."},"revokeRole(bytes32,address)":{"details":"Revokes `role` from `account`. If `account` had been granted `role`, emits a {RoleRevoked} event. Requirements: - the caller must have ``role``'s admin role. May emit a {RoleRevoked} event."},"supportsInterface(bytes4)":{"details":"See {IERC165-supportsInterface}."}},"version":1},"evm":{"bytecode":{"linkReferences":{},"object":"608060405234801561001057600080fd5b506113bd806100206000396000f3fe608060405234801561001057600080fd5b506004361061009e5760003560e01c80636e810b1a116100665780636e810b1a1461015957806391d1485414610175578063a217fddf146101a5578063b6db75a0146101c3578063d547741f146101e15761009e565b806301ffc9a7146100a3578063248a9ca3146100d35780632f2ff15d1461010357806336568abe1461011f5780635c975abb1461013b575b600080fd5b6100bd60048036038101906100b89190610d2e565b6101fd565b6040516100ca9190610d76565b60405180910390f35b6100ed60048036038101906100e89190610dc7565b610277565b6040516100fa9190610e03565b60405180910390f35b61011d60048036038101906101189190610e7c565b610297565b005b61013960048036038101906101349190610e7c565b6102b8565b005b61014361033b565b6040516101509190610d76565b60405180910390f35b610173600480360381019061016e9190610ebc565b610352565b005b61018f600480360381019061018a9190610e7c565b610474565b60405161019c9190610d76565b60405180910390f35b6101ad6104df565b6040516101ba9190610e03565b60405180910390f35b6101cb6104e6565b6040516101d89190610d76565b60405180910390f35b6101fb60048036038101906101f69190610e7c565b610505565b005b60007f7965db0b000000000000000000000000000000000000000000000000000000007bffffffffffffffffffffffffffffffffffffffffffffffffffffffff1916827bffffffffffffffffffffffffffffffffffffffffffffffffffffffff19161480610270575061026f82610526565b5b9050919050565b600060976000838152602001908152602001600020600101549050919050565b6102a082610277565b6102a981610590565b6102b383836105a4565b505050565b6102c0610685565b73ffffffffffffffffffffffffffffffffffffffff168173ffffffffffffffffffffffffffffffffffffffff161461032d576040517f08c379a000000000000000000000000000000000000000000000000000000000815260040161032490610f6c565b60405180910390fd5b610337828261068d565b5050565b6000603360009054906101000a900460ff16905090565b600060019054906101000a900460ff166103a1576040517f08c379a000000000000000000000000000000000000000000000000000000000815260040161039890610ffe565b60405180910390fd5b600073ffffffffffffffffffffffffffffffffffffffff168173ffffffffffffffffffffffffffffffffffffffff1603610407576040517f5415139400000000000000000000000000000000000000000000000000000000815260040160405180910390fd5b61040f61076f565b6104176107c8565b61041f610819565b61043061042a610872565b826105a4565b61044161043b61089a565b826105a4565b61045961044c61089a565b610454610872565b6108c2565b610471610464610872565b61046c610872565b6108c2565b50565b60006097600084815260200190815260200160002060000160008373ffffffffffffffffffffffffffffffffffffffff1673ffffffffffffffffffffffffffffffffffffffff16815260200190815260200160002060009054906101000a900460ff16905092915050565b6000801b81565b60006105006104f3610872565b6104fb610685565b610474565b905090565b61050e82610277565b61051781610590565b610521838361068d565b505050565b60007f01ffc9a7000000000000000000000000000000000000000000000000000000007bffffffffffffffffffffffffffffffffffffffffffffffffffffffff1916827bffffffffffffffffffffffffffffffffffffffffffffffffffffffff1916149050919050565b6105a18161059c610685565b61091e565b50565b6105ae8282610474565b6106815760016097600084815260200190815260200160002060000160008373ffffffffffffffffffffffffffffffffffffffff1673ffffffffffffffffffffffffffffffffffffffff16815260200190815260200160002060006101000a81548160ff021916908315150217905550610626610685565b73ffffffffffffffffffffffffffffffffffffffff168173ffffffffffffffffffffffffffffffffffffffff16837f2f8788117e7eff1d82e926ec794901d17c78024a50270940304540a733656f0d60405160405180910390a45b5050565b600033905090565b6106978282610474565b1561076b5760006097600084815260200190815260200160002060000160008373ffffffffffffffffffffffffffffffffffffffff1673ffffffffffffffffffffffffffffffffffffffff16815260200190815260200160002060006101000a81548160ff021916908315150217905550610710610685565b73ffffffffffffffffffffffffffffffffffffffff168173ffffffffffffffffffffffffffffffffffffffff16837ff6391f5c32d9c69d2a47ea670b442974b53935d1edc7fd64eb21e047a839171b60405160405180910390a45b5050565b600060019054906101000a900460ff166107be576040517f08c379a00000000000000000000000000000000000000000000000000000000081526004016107b590610ffe565b60405180910390fd5b6107c66109a3565b565b600060019054906101000a900460ff16610817576040517f08c379a000000000000000000000000000000000000000000000000000000000815260040161080e90610ffe565b60405180910390fd5b565b600060019054906101000a900460ff16610868576040517f08c379a000000000000000000000000000000000000000000000000000000000815260040161085f90610ffe565b60405180910390fd5b610870610a0f565b565b60007fa49807205ce4d355092ef5a8a18f56e8913cf4a201fbe287825b095693c21775905090565b60007f65d7a28e3265b37a6474929f336521b332c1681b933f6cb9f3376673440d862a905090565b60006108cd83610277565b90508160976000858152602001908152602001600020600101819055508181847fbd79b86ffe0ab8e8776151514217cd7cacd52c909f66475c3af44e129f0b00ff60405160405180910390a4505050565b6109288282610474565b61099f5761093581610a68565b6109438360001c6020610a95565b604051602001610954929190611127565b6040516020818303038152906040526040517f08c379a000000000000000000000000000000000000000000000000000000000815260040161099691906111ab565b60405180910390fd5b5050565b600060019054906101000a900460ff166109f2576040517f08c379a00000000000000000000000000000000000000000000000000000000081526004016109e990610ffe565b60405180910390fd5b6000603360006101000a81548160ff021916908315150217905550565b600060019054906101000a900460ff16610a5e576040517f08c379a0000000000000000000000000000000000000000000000000000000008152600401610a5590610ffe565b60405180910390fd5b600160c981905550565b6060610a8e8273ffffffffffffffffffffffffffffffffffffffff16601460ff16610a95565b9050919050565b606060006002836002610aa89190611206565b610ab29190611260565b67ffffffffffffffff811115610acb57610aca611294565b5b6040519080825280601f01601f191660200182016040528015610afd5781602001600182028036833780820191505090505b5090507f300000000000000000000000000000000000000000000000000000000000000081600081518110610b3557610b346112c3565b5b60200101907effffffffffffffffffffffffffffffffffffffffffffffffffffffffffffff1916908160001a9053507f780000000000000000000000000000000000000000000000000000000000000081600181518110610b9957610b986112c3565b5b60200101907effffffffffffffffffffffffffffffffffffffffffffffffffffffffffffff1916908160001a90535060006001846002610bd99190611206565b610be39190611260565b90505b6001811115610c83577f3031323334353637383961626364656600000000000000000000000000000000600f861660108110610c2557610c246112c3565b5b1a60f81b828281518110610c3c57610c3b6112c3565b5b60200101907effffffffffffffffffffffffffffffffffffffffffffffffffffffffffffff1916908160001a905350600485901c945080610c7c906112f2565b9050610be6565b5060008414610cc7576040517f08c379a0000000000000000000000000000000000000000000000000000000008152600401610cbe90611367565b60405180910390fd5b8091505092915050565b600080fd5b60007fffffffff0000000000000000000000000000000000000000000000000000000082169050919050565b610d0b81610cd6565b8114610d1657600080fd5b50565b600081359050610d2881610d02565b92915050565b600060208284031215610d4457610d43610cd1565b5b6000610d5284828501610d19565b91505092915050565b60008115159050919050565b610d7081610d5b565b82525050565b6000602082019050610d8b6000830184610d67565b92915050565b6000819050919050565b610da481610d91565b8114610daf57600080fd5b50565b600081359050610dc181610d9b565b92915050565b600060208284031215610ddd57610ddc610cd1565b5b6000610deb84828501610db2565b91505092915050565b610dfd81610d91565b82525050565b6000602082019050610e186000830184610df4565b92915050565b600073ffffffffffffffffffffffffffffffffffffffff82169050919050565b6000610e4982610e1e565b9050919050565b610e5981610e3e565b8114610e6457600080fd5b50565b600081359050610e7681610e50565b92915050565b60008060408385031215610e9357610e92610cd1565b5b6000610ea185828601610db2565b9250506020610eb285828601610e67565b9150509250929050565b600060208284031215610ed257610ed1610cd1565b5b6000610ee084828501610e67565b91505092915050565b600082825260208201905092915050565b7f416363657373436f6e74726f6c3a2063616e206f6e6c792072656e6f756e636560008201527f20726f6c657320666f722073656c660000000000000000000000000000000000602082015250565b6000610f56602f83610ee9565b9150610f6182610efa565b604082019050919050565b60006020820190508181036000830152610f8581610f49565b9050919050565b7f496e697469616c697a61626c653a20636f6e7472616374206973206e6f74206960008201527f6e697469616c697a696e67000000000000000000000000000000000000000000602082015250565b6000610fe8602b83610ee9565b9150610ff382610f8c565b604082019050919050565b6000602082019050818103600083015261101781610fdb565b9050919050565b600081905092915050565b7f416363657373436f6e74726f6c3a206163636f756e7420000000000000000000600082015250565b600061105f60178361101e565b915061106a82611029565b601782019050919050565b600081519050919050565b60005b8381101561109e578082015181840152602081019050611083565b60008484015250505050565b60006110b582611075565b6110bf818561101e565b93506110cf818560208601611080565b80840191505092915050565b7f206973206d697373696e6720726f6c6520000000000000000000000000000000600082015250565b600061111160118361101e565b915061111c826110db565b601182019050919050565b600061113282611052565b915061113e82856110aa565b915061114982611104565b915061115582846110aa565b91508190509392505050565b6000601f19601f8301169050919050565b600061117d82611075565b6111878185610ee9565b9350611197818560208601611080565b6111a081611161565b840191505092915050565b600060208201905081810360008301526111c58184611172565b905092915050565b6000819050919050565b7f4e487b7100000000000000000000000000000000000000000000000000000000600052601160045260246000fd5b6000611211826111cd565b915061121c836111cd565b9250817fffffffffffffffffffffffffffffffffffffffffffffffffffffffffffffffff0483118215151615611255576112546111d7565b5b828202905092915050565b600061126b826111cd565b9150611276836111cd565b925082820190508082111561128e5761128d6111d7565b5b92915050565b7f4e487b7100000000000000000000000000000000000000000000000000000000600052604160045260246000fd5b7f4e487b7100000000000000000000000000000000000000000000000000000000600052603260045260246000fd5b60006112fd826111cd565b9150600082036113105761130f6111d7565b5b600182039050919050565b7f537472696e67733a20686578206c656e67746820696e73756666696369656e74600082015250565b6000611351602083610ee9565b915061135c8261131b565b602082019050919050565b6000602082019050818103600083015261138081611344565b905091905056fea2646970667358221220b74f206dcdcdebf392d7459b2ab1515c54cd9fe4808a3e861b805703bc1e9a2864736f6c63430008100033","opcodes":"PUSH1 0x80 PUSH1 0x40 MSTORE CALLVALUE DUP1 ISZERO PUSH2 0x10 JUMPI PUSH1 0x0 DUP1 REVERT JUMPDEST POP PUSH2 0x13BD DUP1 PUSH2 0x20 PUSH1 0x0 CODECOPY PUSH1 0x0 RETURN INVALID PUSH1 0x80 PUSH1 0x40 MSTORE CALLVALUE DUP1 ISZERO PUSH2 0x10 JUMPI PUSH1 0x0 DUP1 REVERT JUMPDEST POP PUSH1 0x4 CALLDATASIZE LT PUSH2 0x9E JUMPI PUSH1 0x0 CALLDATALOAD PUSH1 0xE0 SHR DUP1 PUSH4 0x6E810B1A GT PUSH2 0x66 JUMPI DUP1 PUSH4 0x6E810B1A EQ PUSH2 0x159 JUMPI DUP1 PUSH4 0x91D14854 EQ PUSH2 0x175 JUMPI DUP1 PUSH4 0xA217FDDF EQ PUSH2 0x1A5 JUMPI DUP1 PUSH4 0xB6DB75A0 EQ PUSH2 0x1C3 JUMPI DUP1 PUSH4 0xD547741F EQ PUSH2 0x1E1 JUMPI PUSH2 0x9E JUMP JUMPDEST DUP1 PUSH4 0x1FFC9A7 EQ PUSH2 0xA3 JUMPI DUP1 PUSH4 0x248A9CA3 EQ PUSH2 0xD3 JUMPI DUP1 PUSH4 0x2F2FF15D EQ PUSH2 0x103 JUMPI DUP1 PUSH4 0x36568ABE EQ PUSH2 0x11F JUMPI DUP1 PUSH4 0x5C975ABB EQ PUSH2 0x13B JUMPI JUMPDEST PUSH1 0x0 DUP1 REVERT JUMPDEST PUSH2 0xBD PUSH1 0x4 DUP1 CALLDATASIZE SUB DUP2 ADD SWAP1 PUSH2 0xB8 SWAP2 SWAP1 PUSH2 0xD2E JUMP JUMPDEST PUSH2 0x1FD JUMP JUMPDEST PUSH1 0x40 MLOAD PUSH2 0xCA SWAP2 SWAP1 PUSH2 0xD76 JUMP JUMPDEST PUSH1 0x40 MLOAD DUP1 SWAP2 SUB SWAP1 RETURN JUMPDEST PUSH2 0xED PUSH1 0x4 DUP1 CALLDATASIZE SUB DUP2 ADD SWAP1 PUSH2 0xE8 SWAP2 SWAP1 PUSH2 0xDC7 JUMP JUMPDEST PUSH2 0x277 JUMP JUMPDEST PUSH1 0x40 MLOAD PUSH2 0xFA SWAP2 SWAP1 PUSH2 0xE03 JUMP JUMPDEST PUSH1 0x40 MLOAD DUP1 SWAP2 SUB SWAP1 RETURN JUMPDEST PUSH2 0x11D PUSH1 0x4 DUP1 CALLDATASIZE SUB DUP2 ADD SWAP1 PUSH2 0x118 SWAP2 SWAP1 PUSH2 0xE7C JUMP JUMPDEST PUSH2 0x297 JUMP JUMPDEST STOP JUMPDEST PUSH2 0x139 PUSH1 0x4 DUP1 CALLDATASIZE SUB DUP2 ADD SWAP1 PUSH2 0x134 SWAP2 SWAP1 PUSH2 0xE7C JUMP JUMPDEST PUSH2 0x2B8 JUMP JUMPDEST STOP JUMPDEST PUSH2 0x143 PUSH2 0x33B JUMP JUMPDEST PUSH1 0x40 MLOAD PUSH2 0x150 SWAP2 SWAP1 PUSH2 0xD76 JUMP JUMPDEST PUSH1 0x40 MLOAD DUP1 SWAP2 SUB SWAP1 RETURN JUMPDEST PUSH2 0x173 PUSH1 0x4 DUP1 CALLDATASIZE SUB DUP2 ADD SWAP1 PUSH2 0x16E SWAP2 SWAP1 PUSH2 0xEBC JUMP JUMPDEST PUSH2 0x352 JUMP JUMPDEST STOP JUMPDEST PUSH2 0x18F PUSH1 0x4 DUP1 CALLDATASIZE SUB DUP2 ADD SWAP1 PUSH2 0x18A SWAP2 SWAP1 PUSH2 0xE7C JUMP JUMPDEST PUSH2 0x474 JUMP JUMPDEST PUSH1 0x40 MLOAD PUSH2 0x19C SWAP2 SWAP1 PUSH2 0xD76 JUMP JUMPDEST PUSH1 0x40 MLOAD DUP1 SWAP2 SUB SWAP1 RETURN JUMPDEST PUSH2 0x1AD PUSH2 0x4DF JUMP JUMPDEST PUSH1 0x40 MLOAD PUSH2 0x1BA SWAP2 SWAP1 PUSH2 0xE03 JUMP JUMPDEST PUSH1 0x40 MLOAD DUP1 SWAP2 SUB SWAP1 RETURN JUMPDEST PUSH2 0x1CB PUSH2 0x4E6 JUMP JUMPDEST PUSH1 0x40 MLOAD PUSH2 0x1D8 SWAP2 SWAP1 PUSH2 0xD76 JUMP JUMPDEST PUSH1 0x40 MLOAD DUP1 SWAP2 SUB SWAP1 RETURN JUMPDEST PUSH2 0x1FB PUSH1 0x4 DUP1 CALLDATASIZE SUB DUP2 ADD SWAP1 PUSH2 0x1F6 SWAP2 SWAP1 PUSH2 0xE7C JUMP JUMPDEST PUSH2 0x505 JUMP JUMPDEST STOP JUMPDEST PUSH1 0x0 PUSH32 0x7965DB0B00000000000000000000000000000000000000000000000000000000 PUSH28 0xFFFFFFFFFFFFFFFFFFFFFFFFFFFFFFFFFFFFFFFFFFFFFFFFFFFFFFFF NOT AND DUP3 PUSH28 0xFFFFFFFFFFFFFFFFFFFFFFFFFFFFFFFFFFFFFFFFFFFFFFFFFFFFFFFF NOT AND EQ DUP1 PUSH2 0x270 JUMPI POP PUSH2 0x26F DUP3 PUSH2 0x526 JUMP JUMPDEST JUMPDEST SWAP1 POP SWAP2 SWAP1 POP JUMP JUMPDEST PUSH1 0x0 PUSH1 0x97 PUSH1 0x0 DUP4 DUP2 MSTORE PUSH1 0x20 ADD SWAP1 DUP2 MSTORE PUSH1 0x20 ADD PUSH1 0x0 KECCAK256 PUSH1 0x1 ADD SLOAD SWAP1 POP SWAP2 SWAP1 POP JUMP JUMPDEST PUSH2 0x2A0 DUP3 PUSH2 0x277 JUMP JUMPDEST PUSH2 0x2A9 DUP2 PUSH2 0x590 JUMP JUMPDEST PUSH2 0x2B3 DUP4 DUP4 PUSH2 0x5A4 JUMP JUMPDEST POP POP POP JUMP JUMPDEST PUSH2 0x2C0 PUSH2 0x685 JUMP JUMPDEST PUSH20 0xFFFFFFFFFFFFFFFFFFFFFFFFFFFFFFFFFFFFFFFF AND DUP2 PUSH20 0xFFFFFFFFFFFFFFFFFFFFFFFFFFFFFFFFFFFFFFFF AND EQ PUSH2 0x32D JUMPI PUSH1 0x40 MLOAD PUSH32 0x8C379A000000000000000000000000000000000000000000000000000000000 DUP2 MSTORE PUSH1 0x4 ADD PUSH2 0x324 SWAP1 PUSH2 0xF6C JUMP JUMPDEST PUSH1 0x40 MLOAD DUP1 SWAP2 SUB SWAP1 REVERT JUMPDEST PUSH2 0x337 DUP3 DUP3 PUSH2 0x68D JUMP JUMPDEST POP POP JUMP JUMPDEST PUSH1 0x0 PUSH1 0x33 PUSH1 0x0 SWAP1 SLOAD SWAP1 PUSH2 0x100 EXP SWAP1 DIV PUSH1 0xFF AND SWAP1 POP SWAP1 JUMP JUMPDEST PUSH1 0x0 PUSH1 0x1 SWAP1 SLOAD SWAP1 PUSH2 0x100 EXP SWAP1 DIV PUSH1 0xFF AND PUSH2 0x3A1 JUMPI PUSH1 0x40 MLOAD PUSH32 0x8C379A000000000000000000000000000000000000000000000000000000000 DUP2 MSTORE PUSH1 0x4 ADD PUSH2 0x398 SWAP1 PUSH2 0xFFE JUMP JUMPDEST PUSH1 0x40 MLOAD DUP1 SWAP2 SUB SWAP1 REVERT JUMPDEST PUSH1 0x0 PUSH20 0xFFFFFFFFFFFFFFFFFFFFFFFFFFFFFFFFFFFFFFFF AND DUP2 PUSH20 0xFFFFFFFFFFFFFFFFFFFFFFFFFFFFFFFFFFFFFFFF AND SUB PUSH2 0x407 JUMPI PUSH1 0x40 MLOAD PUSH32 0x5415139400000000000000000000000000000000000000000000000000000000 DUP2 MSTORE PUSH1 0x4 ADD PUSH1 0x40 MLOAD DUP1 SWAP2 SUB SWAP1 REVERT JUMPDEST PUSH2 0x40F PUSH2 0x76F JUMP JUMPDEST PUSH2 0x417 PUSH2 0x7C8 JUMP JUMPDEST PUSH2 0x41F PUSH2 0x819 JUMP JUMPDEST PUSH2 0x430 PUSH2 0x42A PUSH2 0x872 JUMP JUMPDEST DUP3 PUSH2 0x5A4 JUMP JUMPDEST PUSH2 0x441 PUSH2 0x43B PUSH2 0x89A JUMP JUMPDEST DUP3 PUSH2 0x5A4 JUMP JUMPDEST PUSH2 0x459 PUSH2 0x44C PUSH2 0x89A JUMP JUMPDEST PUSH2 0x454 PUSH2 0x872 JUMP JUMPDEST PUSH2 0x8C2 JUMP JUMPDEST PUSH2 0x471 PUSH2 0x464 PUSH2 0x872 JUMP JUMPDEST PUSH2 0x46C PUSH2 0x872 JUMP JUMPDEST PUSH2 0x8C2 JUMP JUMPDEST POP JUMP JUMPDEST PUSH1 0x0 PUSH1 0x97 PUSH1 0x0 DUP5 DUP2 MSTORE PUSH1 0x20 ADD SWAP1 DUP2 MSTORE PUSH1 0x20 ADD PUSH1 0x0 KECCAK256 PUSH1 0x0 ADD PUSH1 0x0 DUP4 PUSH20 0xFFFFFFFFFFFFFFFFFFFFFFFFFFFFFFFFFFFFFFFF AND PUSH20 0xFFFFFFFFFFFFFFFFFFFFFFFFFFFFFFFFFFFFFFFF AND DUP2 MSTORE PUSH1 0x20 ADD SWAP1 DUP2 MSTORE PUSH1 0x20 ADD PUSH1 0x0 KECCAK256 PUSH1 0x0 SWAP1 SLOAD SWAP1 PUSH2 0x100 EXP SWAP1 DIV PUSH1 0xFF AND SWAP1 POP SWAP3 SWAP2 POP POP JUMP JUMPDEST PUSH1 0x0 DUP1 SHL DUP2 JUMP JUMPDEST PUSH1 0x0 PUSH2 0x500 PUSH2 0x4F3 PUSH2 0x872 JUMP JUMPDEST PUSH2 0x4FB PUSH2 0x685 JUMP JUMPDEST PUSH2 0x474 JUMP JUMPDEST SWAP1 POP SWAP1 JUMP JUMPDEST PUSH2 0x50E DUP3 PUSH2 0x277 JUMP JUMPDEST PUSH2 0x517 DUP2 PUSH2 0x590 JUMP JUMPDEST PUSH2 0x521 DUP4 DUP4 PUSH2 0x68D JUMP JUMPDEST POP POP POP JUMP JUMPDEST PUSH1 0x0 PUSH32 0x1FFC9A700000000000000000000000000000000000000000000000000000000 PUSH28 0xFFFFFFFFFFFFFFFFFFFFFFFFFFFFFFFFFFFFFFFFFFFFFFFFFFFFFFFF NOT AND DUP3 PUSH28 0xFFFFFFFFFFFFFFFFFFFFFFFFFFFFFFFFFFFFFFFFFFFFFFFFFFFFFFFF NOT AND EQ SWAP1 POP SWAP2 SWAP1 POP JUMP JUMPDEST PUSH2 0x5A1 DUP2 PUSH2 0x59C PUSH2 0x685 JUMP JUMPDEST PUSH2 0x91E JUMP JUMPDEST POP JUMP JUMPDEST PUSH2 0x5AE DUP3 DUP3 PUSH2 0x474 JUMP JUMPDEST PUSH2 0x681 JUMPI PUSH1 0x1 PUSH1 0x97 PUSH1 0x0 DUP5 DUP2 MSTORE PUSH1 0x20 ADD SWAP1 DUP2 MSTORE PUSH1 0x20 ADD PUSH1 0x0 KECCAK256 PUSH1 0x0 ADD PUSH1 0x0 DUP4 PUSH20 0xFFFFFFFFFFFFFFFFFFFFFFFFFFFFFFFFFFFFFFFF AND PUSH20 0xFFFFFFFFFFFFFFFFFFFFFFFFFFFFFFFFFFFFFFFF AND DUP2 MSTORE PUSH1 0x20 ADD SWAP1 DUP2 MSTORE PUSH1 0x20 ADD PUSH1 0x0 KECCAK256 PUSH1 0x0 PUSH2 0x100 EXP DUP2 SLOAD DUP2 PUSH1 0xFF MUL NOT AND SWAP1 DUP4 ISZERO ISZERO MUL OR SWAP1 SSTORE POP PUSH2 0x626 PUSH2 0x685 JUMP JUMPDEST PUSH20 0xFFFFFFFFFFFFFFFFFFFFFFFFFFFFFFFFFFFFFFFF AND DUP2 PUSH20 0xFFFFFFFFFFFFFFFFFFFFFFFFFFFFFFFFFFFFFFFF AND DUP4 PUSH32 0x2F8788117E7EFF1D82E926EC794901D17C78024A50270940304540A733656F0D PUSH1 0x40 MLOAD PUSH1 0x40 MLOAD DUP1 SWAP2 SUB SWAP1 LOG4 JUMPDEST POP POP JUMP JUMPDEST PUSH1 0x0 CALLER SWAP1 POP SWAP1 JUMP JUMPDEST PUSH2 0x697 DUP3 DUP3 PUSH2 0x474 JUMP JUMPDEST ISZERO PUSH2 0x76B JUMPI PUSH1 0x0 PUSH1 0x97 PUSH1 0x0 DUP5 DUP2 MSTORE PUSH1 0x20 ADD SWAP1 DUP2 MSTORE PUSH1 0x20 ADD PUSH1 0x0 KECCAK256 PUSH1 0x0 ADD PUSH1 0x0 DUP4 PUSH20 0xFFFFFFFFFFFFFFFFFFFFFFFFFFFFFFFFFFFFFFFF AND PUSH20 0xFFFFFFFFFFFFFFFFFFFFFFFFFFFFFFFFFFFFFFFF AND DUP2 MSTORE PUSH1 0x20 ADD SWAP1 DUP2 MSTORE PUSH1 0x20 ADD PUSH1 0x0 KECCAK256 PUSH1 0x0 PUSH2 0x100 EXP DUP2 SLOAD DUP2 PUSH1 0xFF MUL NOT AND SWAP1 DUP4 ISZERO ISZERO MUL OR SWAP1 SSTORE POP PUSH2 0x710 PUSH2 0x685 JUMP JUMPDEST PUSH20 0xFFFFFFFFFFFFFFFFFFFFFFFFFFFFFFFFFFFFFFFF AND DUP2 PUSH20 0xFFFFFFFFFFFFFFFFFFFFFFFFFFFFFFFFFFFFFFFF AND DUP4 PUSH32 0xF6391F5C32D9C69D2A47EA670B442974B53935D1EDC7FD64EB21E047A839171B PUSH1 0x40 MLOAD PUSH1 0x40 MLOAD DUP1 SWAP2 SUB SWAP1 LOG4 JUMPDEST POP POP JUMP JUMPDEST PUSH1 0x0 PUSH1 0x1 SWAP1 SLOAD SWAP1 PUSH2 0x100 EXP SWAP1 DIV PUSH1 0xFF AND PUSH2 0x7BE JUMPI PUSH1 0x40 MLOAD PUSH32 0x8C379A000000000000000000000000000000000000000000000000000000000 DUP2 MSTORE PUSH1 0x4 ADD PUSH2 0x7B5 SWAP1 PUSH2 0xFFE JUMP JUMPDEST PUSH1 0x40 MLOAD DUP1 SWAP2 SUB SWAP1 REVERT JUMPDEST PUSH2 0x7C6 PUSH2 0x9A3 JUMP JUMPDEST JUMP JUMPDEST PUSH1 0x0 PUSH1 0x1 SWAP1 SLOAD SWAP1 PUSH2 0x100 EXP SWAP1 DIV PUSH1 0xFF AND PUSH2 0x817 JUMPI PUSH1 0x40 MLOAD PUSH32 0x8C379A000000000000000000000000000000000000000000000000000000000 DUP2 MSTORE PUSH1 0x4 ADD PUSH2 0x80E SWAP1 PUSH2 0xFFE JUMP JUMPDEST PUSH1 0x40 MLOAD DUP1 SWAP2 SUB SWAP1 REVERT JUMPDEST JUMP JUMPDEST PUSH1 0x0 PUSH1 0x1 SWAP1 SLOAD SWAP1 PUSH2 0x100 EXP SWAP1 DIV PUSH1 0xFF AND PUSH2 0x868 JUMPI PUSH1 0x40 MLOAD PUSH32 0x8C379A000000000000000000000000000000000000000000000000000000000 DUP2 MSTORE PUSH1 0x4 ADD PUSH2 0x85F SWAP1 PUSH2 0xFFE JUMP JUMPDEST PUSH1 0x40 MLOAD DUP1 SWAP2 SUB SWAP1 REVERT JUMPDEST PUSH2 0x870 PUSH2 0xA0F JUMP JUMPDEST JUMP JUMPDEST PUSH1 0x0 PUSH32 0xA49807205CE4D355092EF5A8A18F56E8913CF4A201FBE287825B095693C21775 SWAP1 POP SWAP1 JUMP JUMPDEST PUSH1 0x0 PUSH32 0x65D7A28E3265B37A6474929F336521B332C1681B933F6CB9F3376673440D862A SWAP1 POP SWAP1 JUMP JUMPDEST PUSH1 0x0 PUSH2 0x8CD DUP4 PUSH2 0x277 JUMP JUMPDEST SWAP1 POP DUP2 PUSH1 0x97 PUSH1 0x0 DUP6 DUP2 MSTORE PUSH1 0x20 ADD SWAP1 DUP2 MSTORE PUSH1 0x20 ADD PUSH1 0x0 KECCAK256 PUSH1 0x1 ADD DUP2 SWAP1 SSTORE POP DUP2 DUP2 DUP5 PUSH32 0xBD79B86FFE0AB8E8776151514217CD7CACD52C909F66475C3AF44E129F0B00FF PUSH1 0x40 MLOAD PUSH1 0x40 MLOAD DUP1 SWAP2 SUB SWAP1 LOG4 POP POP POP JUMP JUMPDEST PUSH2 0x928 DUP3 DUP3 PUSH2 0x474 JUMP JUMPDEST PUSH2 0x99F JUMPI PUSH2 0x935 DUP2 PUSH2 0xA68 JUMP JUMPDEST PUSH2 0x943 DUP4 PUSH1 0x0 SHR PUSH1 0x20 PUSH2 0xA95 JUMP JUMPDEST PUSH1 0x40 MLOAD PUSH1 0x20 ADD PUSH2 0x954 SWAP3 SWAP2 SWAP1 PUSH2 0x1127 JUMP JUMPDEST PUSH1 0x40 MLOAD PUSH1 0x20 DUP2 DUP4 SUB SUB DUP2 MSTORE SWAP1 PUSH1 0x40 MSTORE PUSH1 0x40 MLOAD PUSH32 0x8C379A000000000000000000000000000000000000000000000000000000000 DUP2 MSTORE PUSH1 0x4 ADD PUSH2 0x996 SWAP2 SWAP1 PUSH2 0x11AB JUMP JUMPDEST PUSH1 0x40 MLOAD DUP1 SWAP2 SUB SWAP1 REVERT JUMPDEST POP POP JUMP JUMPDEST PUSH1 0x0 PUSH1 0x1 SWAP1 SLOAD SWAP1 PUSH2 0x100 EXP SWAP1 DIV PUSH1 0xFF AND PUSH2 0x9F2 JUMPI PUSH1 0x40 MLOAD PUSH32 0x8C379A000000000000000000000000000000000000000000000000000000000 DUP2 MSTORE PUSH1 0x4 ADD PUSH2 0x9E9 SWAP1 PUSH2 0xFFE JUMP JUMPDEST PUSH1 0x40 MLOAD DUP1 SWAP2 SUB SWAP1 REVERT JUMPDEST PUSH1 0x0 PUSH1 0x33 PUSH1 0x0 PUSH2 0x100 EXP DUP2 SLOAD DUP2 PUSH1 0xFF MUL NOT AND SWAP1 DUP4 ISZERO ISZERO MUL OR SWAP1 SSTORE POP JUMP JUMPDEST PUSH1 0x0 PUSH1 0x1 SWAP1 SLOAD SWAP1 PUSH2 0x100 EXP SWAP1 DIV PUSH1 0xFF AND PUSH2 0xA5E JUMPI PUSH1 0x40 MLOAD PUSH32 0x8C379A000000000000000000000000000000000000000000000000000000000 DUP2 MSTORE PUSH1 0x4 ADD PUSH2 0xA55 SWAP1 PUSH2 0xFFE JUMP JUMPDEST PUSH1 0x40 MLOAD DUP1 SWAP2 SUB SWAP1 REVERT JUMPDEST PUSH1 0x1 PUSH1 0xC9 DUP2 SWAP1 SSTORE POP JUMP JUMPDEST PUSH1 0x60 PUSH2 0xA8E DUP3 PUSH20 0xFFFFFFFFFFFFFFFFFFFFFFFFFFFFFFFFFFFFFFFF AND PUSH1 0x14 PUSH1 0xFF AND PUSH2 0xA95 JUMP JUMPDEST SWAP1 POP SWAP2 SWAP1 POP JUMP JUMPDEST PUSH1 0x60 PUSH1 0x0 PUSH1 0x2 DUP4 PUSH1 0x2 PUSH2 0xAA8 SWAP2 SWAP1 PUSH2 0x1206 JUMP JUMPDEST PUSH2 0xAB2 SWAP2 SWAP1 PUSH2 0x1260 JUMP JUMPDEST PUSH8 0xFFFFFFFFFFFFFFFF DUP2 GT ISZERO PUSH2 0xACB JUMPI PUSH2 0xACA PUSH2 0x1294 JUMP JUMPDEST JUMPDEST PUSH1 0x40 MLOAD SWAP1 DUP1 DUP3 MSTORE DUP1 PUSH1 0x1F ADD PUSH1 0x1F NOT AND PUSH1 0x20 ADD DUP3 ADD PUSH1 0x40 MSTORE DUP1 ISZERO PUSH2 0xAFD JUMPI DUP2 PUSH1 0x20 ADD PUSH1 0x1 DUP3 MUL DUP1 CALLDATASIZE DUP4 CALLDATACOPY DUP1 DUP3 ADD SWAP2 POP POP SWAP1 POP JUMPDEST POP SWAP1 POP PUSH32 0x3000000000000000000000000000000000000000000000000000000000000000 DUP2 PUSH1 0x0 DUP2 MLOAD DUP2 LT PUSH2 0xB35 JUMPI PUSH2 0xB34 PUSH2 0x12C3 JUMP JUMPDEST JUMPDEST PUSH1 0x20 ADD ADD SWAP1 PUSH31 0xFFFFFFFFFFFFFFFFFFFFFFFFFFFFFFFFFFFFFFFFFFFFFFFFFFFFFFFFFFFFFF NOT AND SWAP1 DUP2 PUSH1 0x0 BYTE SWAP1 MSTORE8 POP PUSH32 0x7800000000000000000000000000000000000000000000000000000000000000 DUP2 PUSH1 0x1 DUP2 MLOAD DUP2 LT PUSH2 0xB99 JUMPI PUSH2 0xB98 PUSH2 0x12C3 JUMP JUMPDEST JUMPDEST PUSH1 0x20 ADD ADD SWAP1 PUSH31 0xFFFFFFFFFFFFFFFFFFFFFFFFFFFFFFFFFFFFFFFFFFFFFFFFFFFFFFFFFFFFFF NOT AND SWAP1 DUP2 PUSH1 0x0 BYTE SWAP1 MSTORE8 POP PUSH1 0x0 PUSH1 0x1 DUP5 PUSH1 0x2 PUSH2 0xBD9 SWAP2 SWAP1 PUSH2 0x1206 JUMP JUMPDEST PUSH2 0xBE3 SWAP2 SWAP1 PUSH2 0x1260 JUMP JUMPDEST SWAP1 POP JUMPDEST PUSH1 0x1 DUP2 GT ISZERO PUSH2 0xC83 JUMPI PUSH32 0x3031323334353637383961626364656600000000000000000000000000000000 PUSH1 0xF DUP7 AND PUSH1 0x10 DUP2 LT PUSH2 0xC25 JUMPI PUSH2 0xC24 PUSH2 0x12C3 JUMP JUMPDEST JUMPDEST BYTE PUSH1 0xF8 SHL DUP3 DUP3 DUP2 MLOAD DUP2 LT PUSH2 0xC3C JUMPI PUSH2 0xC3B PUSH2 0x12C3 JUMP JUMPDEST JUMPDEST PUSH1 0x20 ADD ADD SWAP1 PUSH31 0xFFFFFFFFFFFFFFFFFFFFFFFFFFFFFFFFFFFFFFFFFFFFFFFFFFFFFFFFFFFFFF NOT AND SWAP1 DUP2 PUSH1 0x0 BYTE SWAP1 MSTORE8 POP PUSH1 0x4 DUP6 SWAP1 SHR SWAP5 POP DUP1 PUSH2 0xC7C SWAP1 PUSH2 0x12F2 JUMP JUMPDEST SWAP1 POP PUSH2 0xBE6 JUMP JUMPDEST POP PUSH1 0x0 DUP5 EQ PUSH2 0xCC7 JUMPI PUSH1 0x40 MLOAD PUSH32 0x8C379A000000000000000000000000000000000000000000000000000000000 DUP2 MSTORE PUSH1 0x4 ADD PUSH2 0xCBE SWAP1 PUSH2 0x1367 JUMP JUMPDEST PUSH1 0x40 MLOAD DUP1 SWAP2 SUB SWAP1 REVERT JUMPDEST DUP1 SWAP2 POP POP SWAP3 SWAP2 POP POP JUMP JUMPDEST PUSH1 0x0 DUP1 REVERT JUMPDEST PUSH1 0x0 PUSH32 0xFFFFFFFF00000000000000000000000000000000000000000000000000000000 DUP3 AND SWAP1 POP SWAP2 SWAP1 POP JUMP JUMPDEST PUSH2 0xD0B DUP2 PUSH2 0xCD6 JUMP JUMPDEST DUP2 EQ PUSH2 0xD16 JUMPI PUSH1 0x0 DUP1 REVERT JUMPDEST POP JUMP JUMPDEST PUSH1 0x0 DUP2 CALLDATALOAD SWAP1 POP PUSH2 0xD28 DUP2 PUSH2 0xD02 JUMP JUMPDEST SWAP3 SWAP2 POP POP JUMP JUMPDEST PUSH1 0x0 PUSH1 0x20 DUP3 DUP5 SUB SLT ISZERO PUSH2 0xD44 JUMPI PUSH2 0xD43 PUSH2 0xCD1 JUMP JUMPDEST JUMPDEST PUSH1 0x0 PUSH2 0xD52 DUP5 DUP3 DUP6 ADD PUSH2 0xD19 JUMP JUMPDEST SWAP2 POP POP SWAP3 SWAP2 POP POP JUMP JUMPDEST PUSH1 0x0 DUP2 ISZERO ISZERO SWAP1 POP SWAP2 SWAP1 POP JUMP JUMPDEST PUSH2 0xD70 DUP2 PUSH2 0xD5B JUMP JUMPDEST DUP3 MSTORE POP POP JUMP JUMPDEST PUSH1 0x0 PUSH1 0x20 DUP3 ADD SWAP1 POP PUSH2 0xD8B PUSH1 0x0 DUP4 ADD DUP5 PUSH2 0xD67 JUMP JUMPDEST SWAP3 SWAP2 POP POP JUMP JUMPDEST PUSH1 0x0 DUP2 SWAP1 POP SWAP2 SWAP1 POP JUMP JUMPDEST PUSH2 0xDA4 DUP2 PUSH2 0xD91 JUMP JUMPDEST DUP2 EQ PUSH2 0xDAF JUMPI PUSH1 0x0 DUP1 REVERT JUMPDEST POP JUMP JUMPDEST PUSH1 0x0 DUP2 CALLDATALOAD SWAP1 POP PUSH2 0xDC1 DUP2 PUSH2 0xD9B JUMP JUMPDEST SWAP3 SWAP2 POP POP JUMP JUMPDEST PUSH1 0x0 PUSH1 0x20 DUP3 DUP5 SUB SLT ISZERO PUSH2 0xDDD JUMPI PUSH2 0xDDC PUSH2 0xCD1 JUMP JUMPDEST JUMPDEST PUSH1 0x0 PUSH2 0xDEB DUP5 DUP3 DUP6 ADD PUSH2 0xDB2 JUMP JUMPDEST SWAP2 POP POP SWAP3 SWAP2 POP POP JUMP JUMPDEST PUSH2 0xDFD DUP2 PUSH2 0xD91 JUMP JUMPDEST DUP3 MSTORE POP POP JUMP JUMPDEST PUSH1 0x0 PUSH1 0x20 DUP3 ADD SWAP1 POP PUSH2 0xE18 PUSH1 0x0 DUP4 ADD DUP5 PUSH2 0xDF4 JUMP JUMPDEST SWAP3 SWAP2 POP POP JUMP JUMPDEST PUSH1 0x0 PUSH20 0xFFFFFFFFFFFFFFFFFFFFFFFFFFFFFFFFFFFFFFFF DUP3 AND SWAP1 POP SWAP2 SWAP1 POP JUMP JUMPDEST PUSH1 0x0 PUSH2 0xE49 DUP3 PUSH2 0xE1E JUMP JUMPDEST SWAP1 POP SWAP2 SWAP1 POP JUMP JUMPDEST PUSH2 0xE59 DUP2 PUSH2 0xE3E JUMP JUMPDEST DUP2 EQ PUSH2 0xE64 JUMPI PUSH1 0x0 DUP1 REVERT JUMPDEST POP JUMP JUMPDEST PUSH1 0x0 DUP2 CALLDATALOAD SWAP1 POP PUSH2 0xE76 DUP2 PUSH2 0xE50 JUMP JUMPDEST SWAP3 SWAP2 POP POP JUMP JUMPDEST PUSH1 0x0 DUP1 PUSH1 0x40 DUP4 DUP6 SUB SLT ISZERO PUSH2 0xE93 JUMPI PUSH2 0xE92 PUSH2 0xCD1 JUMP JUMPDEST JUMPDEST PUSH1 0x0 PUSH2 0xEA1 DUP6 DUP3 DUP7 ADD PUSH2 0xDB2 JUMP JUMPDEST SWAP3 POP POP PUSH1 0x20 PUSH2 0xEB2 DUP6 DUP3 DUP7 ADD PUSH2 0xE67 JUMP JUMPDEST SWAP2 POP POP SWAP3 POP SWAP3 SWAP1 POP JUMP JUMPDEST PUSH1 0x0 PUSH1 0x20 DUP3 DUP5 SUB SLT ISZERO PUSH2 0xED2 JUMPI PUSH2 0xED1 PUSH2 0xCD1 JUMP JUMPDEST JUMPDEST PUSH1 0x0 PUSH2 0xEE0 DUP5 DUP3 DUP6 ADD PUSH2 0xE67 JUMP JUMPDEST SWAP2 POP POP SWAP3 SWAP2 POP POP JUMP JUMPDEST PUSH1 0x0 DUP3 DUP3 MSTORE PUSH1 0x20 DUP3 ADD SWAP1 POP SWAP3 SWAP2 POP POP JUMP JUMPDEST PUSH32 0x416363657373436F6E74726F6C3A2063616E206F6E6C792072656E6F756E6365 PUSH1 0x0 DUP3 ADD MSTORE PUSH32 0x20726F6C657320666F722073656C660000000000000000000000000000000000 PUSH1 0x20 DUP3 ADD MSTORE POP JUMP JUMPDEST PUSH1 0x0 PUSH2 0xF56 PUSH1 0x2F DUP4 PUSH2 0xEE9 JUMP JUMPDEST SWAP2 POP PUSH2 0xF61 DUP3 PUSH2 0xEFA JUMP JUMPDEST PUSH1 0x40 DUP3 ADD SWAP1 POP SWAP2 SWAP1 POP JUMP JUMPDEST PUSH1 0x0 PUSH1 0x20 DUP3 ADD SWAP1 POP DUP2 DUP2 SUB PUSH1 0x0 DUP4 ADD MSTORE PUSH2 0xF85 DUP2 PUSH2 0xF49 JUMP JUMPDEST SWAP1 POP SWAP2 SWAP1 POP JUMP JUMPDEST PUSH32 0x496E697469616C697A61626C653A20636F6E7472616374206973206E6F742069 PUSH1 0x0 DUP3 ADD MSTORE PUSH32 0x6E697469616C697A696E67000000000000000000000000000000000000000000 PUSH1 0x20 DUP3 ADD MSTORE POP JUMP JUMPDEST PUSH1 0x0 PUSH2 0xFE8 PUSH1 0x2B DUP4 PUSH2 0xEE9 JUMP JUMPDEST SWAP2 POP PUSH2 0xFF3 DUP3 PUSH2 0xF8C JUMP JUMPDEST PUSH1 0x40 DUP3 ADD SWAP1 POP SWAP2 SWAP1 POP JUMP JUMPDEST PUSH1 0x0 PUSH1 0x20 DUP3 ADD SWAP1 POP DUP2 DUP2 SUB PUSH1 0x0 DUP4 ADD MSTORE PUSH2 0x1017 DUP2 PUSH2 0xFDB JUMP JUMPDEST SWAP1 POP SWAP2 SWAP1 POP JUMP JUMPDEST PUSH1 0x0 DUP2 SWAP1 POP SWAP3 SWAP2 POP POP JUMP JUMPDEST PUSH32 0x416363657373436F6E74726F6C3A206163636F756E7420000000000000000000 PUSH1 0x0 DUP3 ADD MSTORE POP JUMP JUMPDEST PUSH1 0x0 PUSH2 0x105F PUSH1 0x17 DUP4 PUSH2 0x101E JUMP JUMPDEST SWAP2 POP PUSH2 0x106A DUP3 PUSH2 0x1029 JUMP JUMPDEST PUSH1 0x17 DUP3 ADD SWAP1 POP SWAP2 SWAP1 POP JUMP JUMPDEST PUSH1 0x0 DUP2 MLOAD SWAP1 POP SWAP2 SWAP1 POP JUMP JUMPDEST PUSH1 0x0 JUMPDEST DUP4 DUP2 LT ISZERO PUSH2 0x109E JUMPI DUP1 DUP3 ADD MLOAD DUP2 DUP5 ADD MSTORE PUSH1 0x20 DUP2 ADD SWAP1 POP PUSH2 0x1083 JUMP JUMPDEST PUSH1 0x0 DUP5 DUP5 ADD MSTORE POP POP POP POP JUMP JUMPDEST PUSH1 0x0 PUSH2 0x10B5 DUP3 PUSH2 0x1075 JUMP JUMPDEST PUSH2 0x10BF DUP2 DUP6 PUSH2 0x101E JUMP JUMPDEST SWAP4 POP PUSH2 0x10CF DUP2 DUP6 PUSH1 0x20 DUP7 ADD PUSH2 0x1080 JUMP JUMPDEST DUP1 DUP5 ADD SWAP2 POP POP SWAP3 SWAP2 POP POP JUMP JUMPDEST PUSH32 0x206973206D697373696E6720726F6C6520000000000000000000000000000000 PUSH1 0x0 DUP3 ADD MSTORE POP JUMP JUMPDEST PUSH1 0x0 PUSH2 0x1111 PUSH1 0x11 DUP4 PUSH2 0x101E JUMP JUMPDEST SWAP2 POP PUSH2 0x111C DUP3 PUSH2 0x10DB JUMP JUMPDEST PUSH1 0x11 DUP3 ADD SWAP1 POP SWAP2 SWAP1 POP JUMP JUMPDEST PUSH1 0x0 PUSH2 0x1132 DUP3 PUSH2 0x1052 JUMP JUMPDEST SWAP2 POP PUSH2 0x113E DUP3 DUP6 PUSH2 0x10AA JUMP JUMPDEST SWAP2 POP PUSH2 0x1149 DUP3 PUSH2 0x1104 JUMP JUMPDEST SWAP2 POP PUSH2 0x1155 DUP3 DUP5 PUSH2 0x10AA JUMP JUMPDEST SWAP2 POP DUP2 SWAP1 POP SWAP4 SWAP3 POP POP POP JUMP JUMPDEST PUSH1 0x0 PUSH1 0x1F NOT PUSH1 0x1F DUP4 ADD AND SWAP1 POP SWAP2 SWAP1 POP JUMP JUMPDEST PUSH1 0x0 PUSH2 0x117D DUP3 PUSH2 0x1075 JUMP JUMPDEST PUSH2 0x1187 DUP2 DUP6 PUSH2 0xEE9 JUMP JUMPDEST SWAP4 POP PUSH2 0x1197 DUP2 DUP6 PUSH1 0x20 DUP7 ADD PUSH2 0x1080 JUMP JUMPDEST PUSH2 0x11A0 DUP2 PUSH2 0x1161 JUMP JUMPDEST DUP5 ADD SWAP2 POP POP SWAP3 SWAP2 POP POP JUMP JUMPDEST PUSH1 0x0 PUSH1 0x20 DUP3 ADD SWAP1 POP DUP2 DUP2 SUB PUSH1 0x0 DUP4 ADD MSTORE PUSH2 0x11C5 DUP2 DUP5 PUSH2 0x1172 JUMP JUMPDEST SWAP1 POP SWAP3 SWAP2 POP POP JUMP JUMPDEST PUSH1 0x0 DUP2 SWAP1 POP SWAP2 SWAP1 POP JUMP JUMPDEST PUSH32 0x4E487B7100000000000000000000000000000000000000000000000000000000 PUSH1 0x0 MSTORE PUSH1 0x11 PUSH1 0x4 MSTORE PUSH1 0x24 PUSH1 0x0 REVERT JUMPDEST PUSH1 0x0 PUSH2 0x1211 DUP3 PUSH2 0x11CD JUMP JUMPDEST SWAP2 POP PUSH2 0x121C DUP4 PUSH2 0x11CD JUMP JUMPDEST SWAP3 POP DUP2 PUSH32 0xFFFFFFFFFFFFFFFFFFFFFFFFFFFFFFFFFFFFFFFFFFFFFFFFFFFFFFFFFFFFFFFF DIV DUP4 GT DUP3 ISZERO ISZERO AND ISZERO PUSH2 0x1255 JUMPI PUSH2 0x1254 PUSH2 0x11D7 JUMP JUMPDEST JUMPDEST DUP3 DUP3 MUL SWAP1 POP SWAP3 SWAP2 POP POP JUMP JUMPDEST PUSH1 0x0 PUSH2 0x126B DUP3 PUSH2 0x11CD JUMP JUMPDEST SWAP2 POP PUSH2 0x1276 DUP4 PUSH2 0x11CD JUMP JUMPDEST SWAP3 POP DUP3 DUP3 ADD SWAP1 POP DUP1 DUP3 GT ISZERO PUSH2 0x128E JUMPI PUSH2 0x128D PUSH2 0x11D7 JUMP JUMPDEST JUMPDEST SWAP3 SWAP2 POP POP JUMP JUMPDEST PUSH32 0x4E487B7100000000000000000000000000000000000000000000000000000000 PUSH1 0x0 MSTORE PUSH1 0x41 PUSH1 0x4 MSTORE PUSH1 0x24 PUSH1 0x0 REVERT JUMPDEST PUSH32 0x4E487B7100000000000000000000000000000000000000000000000000000000 PUSH1 0x0 MSTORE PUSH1 0x32 PUSH1 0x4 MSTORE PUSH1 0x24 PUSH1 0x0 REVERT JUMPDEST PUSH1 0x0 PUSH2 0x12FD DUP3 PUSH2 0x11CD JUMP JUMPDEST SWAP2 POP PUSH1 0x0 DUP3 SUB PUSH2 0x1310 JUMPI PUSH2 0x130F PUSH2 0x11D7 JUMP JUMPDEST JUMPDEST PUSH1 0x1 DUP3 SUB SWAP1 POP SWAP2 SWAP1 POP JUMP JUMPDEST PUSH32 0x537472696E67733A20686578206C656E67746820696E73756666696369656E74 PUSH1 0x0 DUP3 ADD MSTORE POP JUMP JUMPDEST PUSH1 0x0 PUSH2 0x1351 PUSH1 0x20 DUP4 PUSH2 0xEE9 JUMP JUMPDEST SWAP2 POP PUSH2 0x135C DUP3 PUSH2 0x131B JUMP JUMPDEST PUSH1 0x20 DUP3 ADD SWAP1 POP SWAP2 SWAP1 POP JUMP JUMPDEST PUSH1 0x0 PUSH1 0x20 DUP3 ADD SWAP1 POP DUP2 DUP2 SUB PUSH1 0x0 DUP4 ADD MSTORE PUSH2 0x1380 DUP2 PUSH2 0x1344 JUMP JUMPDEST SWAP1 POP SWAP2 SWAP1 POP JUMP INVALID LOG2 PUSH5 0x6970667358 0x22 SLT KECCAK256 0xB7 0x4F KECCAK256 PUSH14 0xCDCDEBF392D7459B2AB1515C54CD SWAP16 0xE4 DUP1 DUP11 RETURNDATACOPY DUP7 SHL DUP1 JUMPI SUB 0xBC 0x1E SWAP11 0x28 PUSH5 0x736F6C6343 STOP ADDMOD LT STOP CALLER "},"gasEstimates":{"creation":{"codeDepositCost":"1010600","executionCost":"1047","totalCost":"1011647"},"external":{"DEFAULT_ADMIN_ROLE()":"379","__BaseUpgradeablePausable_init(address)":"infinite","getRoleAdmin(bytes32)":"infinite","grantRole(bytes32,address)":"infinite","hasRole(bytes32,address)":"3162","isAdmin()":"2836","paused()":"2568","renounceRole(bytes32,address)":"infinite","revokeRole(bytes32,address)":"infinite","supportsInterface(bytes4)":"728"}},"methodIdentifiers":{"DEFAULT_ADMIN_ROLE()":"a217fddf","__BaseUpgradeablePausable_init(address)":"6e810b1a","getRoleAdmin(bytes32)":"248a9ca3","grantRole(bytes32,address)":"2f2ff15d","hasRole(bytes32,address)":"91d14854","isAdmin()":"b6db75a0","paused()":"5c975abb","renounceRole(bytes32,address)":"36568abe","revokeRole(bytes32,address)":"d547741f","supportsInterface(bytes4)":"01ffc9a7"}},"storageLayout":{"storage":[{"astId":418,"contract":"contracts/BaseUpgradeablePausable.sol:BaseUpgradeablePausable","label":"_initialized","offset":0,"slot":"0","type":"t_uint8"},{"astId":421,"contract":"contracts/BaseUpgradeablePausable.sol:BaseUpgradeablePausable","label":"_initializing","offset":1,"slot":"0","type":"t_bool"},{"astId":2328,"contract":"contracts/BaseUpgradeablePausable.sol:BaseUpgradeablePausable","label":"__gap","offset":0,"slot":"1","type":"t_array(t_uint256)50_storage"},{"astId":601,"contract":"contracts/BaseUpgradeablePausable.sol:BaseUpgradeablePausable","label":"_paused","offset":0,"slot":"51","type":"t_bool"},{"astId":706,"contract":"contracts/BaseUpgradeablePausable.sol:BaseUpgradeablePausable","label":"__gap","offset":0,"slot":"52","type":"t_array(t_uint256)49_storage"},{"astId":3132,"contract":"contracts/BaseUpgradeablePausable.sol:BaseUpgradeablePausable","label":"__gap","offset":0,"slot":"101","type":"t_array(t_uint256)50_storage"},{"astId":39,"contract":"contracts/BaseUpgradeablePausable.sol:BaseUpgradeablePausable","label":"_roles","offset":0,"slot":"151","type":"t_mapping(t_bytes32,t_struct(RoleData)34_storage)"},{"astId":334,"contract":"contracts/BaseUpgradeablePausable.sol:BaseUpgradeablePausable","label":"__gap","offset":0,"slot":"152","type":"t_array(t_uint256)49_storage"},{"astId":721,"contract":"contracts/BaseUpgradeablePausable.sol:BaseUpgradeablePausable","label":"_status","offset":0,"slot":"201","type":"t_uint256"},{"astId":779,"contract":"contracts/BaseUpgradeablePausable.sol:BaseUpgradeablePausable","label":"__gap","offset":0,"slot":"202","type":"t_array(t_uint256)49_storage"}],"types":{"t_address":{"encoding":"inplace","label":"address","numberOfBytes":"20"},"t_array(t_uint256)49_storage":{"base":"t_uint256","encoding":"inplace","label":"uint256[49]","numberOfBytes":"1568"},"t_array(t_uint256)50_storage":{"base":"t_uint256","encoding":"inplace","label":"uint256[50]","numberOfBytes":"1600"},"t_bool":{"encoding":"inplace","label":"bool","numberOfBytes":"1"},"t_bytes32":{"encoding":"inplace","label":"bytes32","numberOfBytes":"32"},"t_mapping(t_address,t_bool)":{"encoding":"mapping","key":"t_address","label":"mapping(address => bool)","numberOfBytes":"32","value":"t_bool"},"t_mapping(t_bytes32,t_struct(RoleData)34_storage)":{"encoding":"mapping","key":"t_bytes32","label":"mapping(bytes32 => struct AccessControlUpgradeable.RoleData)","numberOfBytes":"32","value":"t_struct(RoleData)34_storage"},"t_struct(RoleData)34_storage":{"encoding":"inplace","label":"struct AccessControlUpgradeable.RoleData","members":[{"astId":31,"contract":"contracts/BaseUpgradeablePausable.sol:BaseUpgradeablePausable","label":"members","offset":0,"slot":"0","type":"t_mapping(t_address,t_bool)"},{"astId":33,"contract":"contracts/BaseUpgradeablePausable.sol:BaseUpgradeablePausable","label":"adminRole","offset":0,"slot":"1","type":"t_bytes32"}],"numberOfBytes":"64"},"t_uint256":{"encoding":"inplace","label":"uint256","numberOfBytes":"32"},"t_uint8":{"encoding":"inplace","label":"uint8","numberOfBytes":"1"}}},"userdoc":{"kind":"user","methods":{},"version":1}}}}