{"contracts/Constants.sol":{"Constants":{"abi":[{"inputs":[],"name":"ADMIN_ROLE","outputs":[{"internalType":"bytes32","name":"","type":"bytes32"}],"stateMutability":"view","type":"function"},{"inputs":[],"name":"PAUSER_ROLE","outputs":[{"internalType":"bytes32","name":"","type":"bytes32"}],"stateMutability":"view","type":"function"}],"devdoc":{"kind":"dev","methods":{},"version":1},"evm":{"bytecode":{"linkReferences":{},"object":"610124610053600b82828239805160001a607314610046577f4e487b7100000000000000000000000000000000000000000000000000000000600052600060045260246000fd5b30600052607381538281f3fe7300000000000000000000000000000000000000003014608060405260043610603d5760003560e01c806375b238fc146042578063e63ab1e914605c575b600080fd5b60486076565b6040516053919060d5565b60405180910390f35b6062609a565b604051606d919060d5565b60405180910390f35b7fa49807205ce4d355092ef5a8a18f56e8913cf4a201fbe287825b095693c2177581565b7f65d7a28e3265b37a6474929f336521b332c1681b933f6cb9f3376673440d862a81565b6000819050919050565b60cf8160be565b82525050565b600060208201905060e8600083018460c8565b9291505056fea2646970667358221220d17a2a816b9d6983dde5a1c6dcea24af5ac80304920f481a985b01122e3fa2a464736f6c63430008100033","opcodes":"PUSH2 0x124 PUSH2 0x53 PUSH1 0xB DUP3 DUP3 DUP3 CODECOPY DUP1 MLOAD PUSH1 0x0 BYTE PUSH1 0x73 EQ PUSH2 0x46 JUMPI PUSH32 0x4E487B7100000000000000000000000000000000000000000000000000000000 PUSH1 0x0 MSTORE PUSH1 0x0 PUSH1 0x4 MSTORE PUSH1 0x24 PUSH1 0x0 REVERT JUMPDEST ADDRESS PUSH1 0x0 MSTORE PUSH1 0x73 DUP2 MSTORE8 DUP3 DUP2 RETURN INVALID PUSH20 0x0 ADDRESS EQ PUSH1 0x80 PUSH1 0x40 MSTORE PUSH1 0x4 CALLDATASIZE LT PUSH1 0x3D JUMPI PUSH1 0x0 CALLDATALOAD PUSH1 0xE0 SHR DUP1 PUSH4 0x75B238FC EQ PUSH1 0x42 JUMPI DUP1 PUSH4 0xE63AB1E9 EQ PUSH1 0x5C JUMPI JUMPDEST PUSH1 0x0 DUP1 REVERT JUMPDEST PUSH1 0x48 PUSH1 0x76 JUMP JUMPDEST PUSH1 0x40 MLOAD PUSH1 0x53 SWAP2 SWAP1 PUSH1 0xD5 JUMP JUMPDEST PUSH1 0x40 MLOAD DUP1 SWAP2 SUB SWAP1 RETURN JUMPDEST PUSH1 0x62 PUSH1 0x9A JUMP JUMPDEST PUSH1 0x40 MLOAD PUSH1 0x6D SWAP2 SWAP1 PUSH1 0xD5 JUMP JUMPDEST PUSH1 0x40 MLOAD DUP1 SWAP2 SUB SWAP1 RETURN JUMPDEST PUSH32 0xA49807205CE4D355092EF5A8A18F56E8913CF4A201FBE287825B095693C21775 DUP2 JUMP JUMPDEST PUSH32 0x65D7A28E3265B37A6474929F336521B332C1681B933F6CB9F3376673440D862A DUP2 JUMP JUMPDEST PUSH1 0x0 DUP2 SWAP1 POP SWAP2 SWAP1 POP JUMP JUMPDEST PUSH1 0xCF DUP2 PUSH1 0xBE JUMP JUMPDEST DUP3 MSTORE POP POP JUMP JUMPDEST PUSH1 0x0 PUSH1 0x20 DUP3 ADD SWAP1 POP PUSH1 0xE8 PUSH1 0x0 DUP4 ADD DUP5 PUSH1 0xC8 JUMP JUMPDEST SWAP3 SWAP2 POP POP JUMP INVALID LOG2 PUSH5 0x6970667358 0x22 SLT KECCAK256 0xD1 PUSH27 0x2A816B9D6983DDE5A1C6DCEA24AF5AC80304920F481A985B01122E EXTCODEHASH LOG2 LOG4 PUSH5 0x736F6C6343 STOP ADDMOD LT STOP CALLER "},"gasEstimates":{"creation":{"codeDepositCost":"58400","executionCost":"136","totalCost":"58536"},"external":{"ADMIN_ROLE()":"291","PAUSER_ROLE()":"313"},"internal":{"getAdminRole()":"infinite","getPauserRole()":"infinite"}},"methodIdentifiers":{"ADMIN_ROLE()":"75b238fc","PAUSER_ROLE()":"e63ab1e9"}},"storageLayout":{"storage":[],"types":null},"userdoc":{"kind":"user","methods":{},"version":1}}}}