{"contracts/core/payAsYouGo/Claim.sol":{"ClaimGovernance":{"abi":[{"inputs":[{"internalType":"address","name":"tokenDAI","type":"address"}],"stateMutability":"nonpayable","type":"constructor"},{"inputs":[],"name":"BaseUpgradeablePausable__ZeroAddressError","type":"error"},{"inputs":[],"name":"Claim__DecisionChallengedError","type":"error"},{"inputs":[],"name":"Claim__DecisionNoLongerCanBeChallengedError","type":"error"},{"inputs":[],"name":"Claim__DecisionNotYetTakenError","type":"error"},{"inputs":[],"name":"Claim__ImmutableChangesError","type":"error"},{"inputs":[],"name":"Claim__PausedOperationFailedError","type":"error"},{"inputs":[],"name":"Claim__UserAlreadyVotedError","type":"error"},{"inputs":[],"name":"Claim__VotingDecisionNotYetFinalizedError","type":"error"},{"inputs":[],"name":"Claim__VotingNotYetStartedError","type":"error"},{"inputs":[],"name":"Claim__VotingTimeEndedError","type":"error"},{"anonymous":false,"inputs":[{"indexed":false,"internalType":"uint8","name":"version","type":"uint8"}],"name":"Initialized","type":"event"},{"anonymous":false,"inputs":[{"indexed":true,"internalType":"address","name":"userAddress","type":"address"},{"indexed":true,"internalType":"uint256","name":"claimID","type":"uint256"},{"indexed":true,"internalType":"string","name":"proof","type":"string"}],"name":"NewClaimCreated","type":"event"},{"anonymous":false,"inputs":[{"indexed":false,"internalType":"address","name":"account","type":"address"}],"name":"Paused","type":"event"},{"anonymous":false,"inputs":[{"indexed":true,"internalType":"bytes32","name":"role","type":"bytes32"},{"indexed":true,"internalType":"bytes32","name":"previousAdminRole","type":"bytes32"},{"indexed":true,"internalType":"bytes32","name":"newAdminRole","type":"bytes32"}],"name":"RoleAdminChanged","type":"event"},{"anonymous":false,"inputs":[{"indexed":true,"internalType":"bytes32","name":"role","type":"bytes32"},{"indexed":true,"internalType":"address","name":"account","type":"address"},{"indexed":true,"internalType":"address","name":"sender","type":"address"}],"name":"RoleGranted","type":"event"},{"anonymous":false,"inputs":[{"indexed":true,"internalType":"bytes32","name":"role","type":"bytes32"},{"indexed":true,"internalType":"address","name":"account","type":"address"},{"indexed":true,"internalType":"address","name":"sender","type":"address"}],"name":"RoleRevoked","type":"event"},{"anonymous":false,"inputs":[{"indexed":false,"internalType":"address","name":"account","type":"address"}],"name":"Unpaused","type":"event"},{"inputs":[],"name":"DEFAULT_ADMIN_ROLE","outputs":[{"internalType":"bytes32","name":"","type":"bytes32"}],"stateMutability":"view","type":"function"},{"inputs":[{"internalType":"address","name":"owner","type":"address"}],"name":"__BaseUpgradeablePausable_init","outputs":[],"stateMutability":"nonpayable","type":"function"},{"inputs":[{"internalType":"uint256","name":"_claimID","type":"uint256"},{"internalType":"uint256","name":"deadline","type":"uint256"},{"internalType":"uint8","name":"v","type":"uint8"},{"internalType":"bytes32","name":"r","type":"bytes32"},{"internalType":"bytes32","name":"s","type":"bytes32"}],"name":"challengeDecision","outputs":[],"stateMutability":"nonpayable","type":"function"},{"inputs":[{"internalType":"uint256","name":"_claimID","type":"uint256"}],"name":"claimDecision","outputs":[{"internalType":"bool","name":"","type":"bool"}],"stateMutability":"nonpayable","type":"function"},{"inputs":[],"name":"claimID","outputs":[{"internalType":"uint256","name":"","type":"uint256"}],"stateMutability":"view","type":"function"},{"inputs":[{"internalType":"uint256","name":"","type":"uint256"}],"name":"claims","outputs":[{"internalType":"address","name":"claimer","type":"address"},{"internalType":"uint256","name":"_claimID","type":"uint256"},{"internalType":"uint256","name":"categoryID","type":"uint256"},{"internalType":"uint256","name":"subcategoryID","type":"uint256"},{"internalType":"uint256","name":"claimAmountRequested","type":"uint256"},{"internalType":"string","name":"proof","type":"string"},{"internalType":"bool","name":"closed","type":"bool"},{"internalType":"bool","name":"accepted","type":"bool"},{"internalType":"bool","name":"isChallenged","type":"bool"}],"stateMutability":"view","type":"function"},{"inputs":[{"internalType":"uint256","name":"categoryID","type":"uint256"},{"internalType":"uint256","name":"subcategoryID","type":"uint256"},{"internalType":"string","name":"proof","type":"string"},{"internalType":"uint256","name":"requestedClaimAmount","type":"uint256"},{"internalType":"uint256","name":"deadline","type":"uint256"},{"internalType":"uint8","name":"v","type":"uint8"},{"internalType":"bytes32","name":"r","type":"bytes32"},{"internalType":"bytes32","name":"s","type":"bytes32"}],"name":"createClaim","outputs":[{"internalType":"bool","name":"","type":"bool"}],"stateMutability":"nonpayable","type":"function"},{"inputs":[],"name":"getClaimID","outputs":[{"internalType":"uint256","name":"","type":"uint256"}],"stateMutability":"view","type":"function"},{"inputs":[{"internalType":"bytes32","name":"role","type":"bytes32"}],"name":"getRoleAdmin","outputs":[{"internalType":"bytes32","name":"","type":"bytes32"}],"stateMutability":"view","type":"function"},{"inputs":[{"internalType":"uint256","name":"_claimID","type":"uint256"}],"name":"getVotingInfo","outputs":[{"internalType":"uint256","name":"","type":"uint256"},{"internalType":"uint256","name":"","type":"uint256"},{"internalType":"uint256","name":"","type":"uint256"},{"internalType":"uint256","name":"","type":"uint256"},{"internalType":"uint256","name":"","type":"uint256"},{"internalType":"uint256","name":"","type":"uint256"},{"internalType":"uint256","name":"","type":"uint256"}],"stateMutability":"view","type":"function"},{"inputs":[{"internalType":"bytes32","name":"role","type":"bytes32"},{"internalType":"address","name":"account","type":"address"}],"name":"grantRole","outputs":[],"stateMutability":"nonpayable","type":"function"},{"inputs":[{"internalType":"bytes32","name":"role","type":"bytes32"},{"internalType":"address","name":"account","type":"address"}],"name":"hasRole","outputs":[{"internalType":"bool","name":"","type":"bool"}],"stateMutability":"view","type":"function"},{"inputs":[{"internalType":"address","name":"","type":"address"}],"name":"individualClaims","outputs":[{"internalType":"uint256","name":"","type":"uint256"}],"stateMutability":"view","type":"function"},{"inputs":[{"internalType":"address","name":"safezenGovernanceTokenAddress","type":"address"},{"internalType":"address","name":"globalPauseOperationAddress","type":"address"}],"name":"initialize","outputs":[],"stateMutability":"nonpayable","type":"function"},{"inputs":[],"name":"isAdmin","outputs":[{"internalType":"bool","name":"","type":"bool"}],"stateMutability":"view","type":"function"},{"inputs":[{"internalType":"address","name":"","type":"address"}],"name":"isAdvisor","outputs":[{"internalType":"bool","name":"","type":"bool"}],"stateMutability":"view","type":"function"},{"inputs":[],"name":"pause","outputs":[],"stateMutability":"nonpayable","type":"function"},{"inputs":[],"name":"paused","outputs":[{"internalType":"bool","name":"","type":"bool"}],"stateMutability":"view","type":"function"},{"inputs":[{"internalType":"uint256","name":"","type":"uint256"},{"internalType":"uint256","name":"","type":"uint256"}],"name":"protocolSpecificClaims","outputs":[{"internalType":"uint256","name":"","type":"uint256"}],"stateMutability":"view","type":"function"},{"inputs":[{"internalType":"bytes32","name":"role","type":"bytes32"},{"internalType":"address","name":"account","type":"address"}],"name":"renounceRole","outputs":[],"stateMutability":"nonpayable","type":"function"},{"inputs":[{"internalType":"bytes32","name":"role","type":"bytes32"},{"internalType":"address","name":"account","type":"address"}],"name":"revokeRole","outputs":[],"stateMutability":"nonpayable","type":"function"},{"inputs":[{"internalType":"bytes4","name":"interfaceId","type":"bytes4"}],"name":"supportsInterface","outputs":[{"internalType":"bool","name":"","type":"bool"}],"stateMutability":"view","type":"function"},{"inputs":[],"name":"unpause","outputs":[],"stateMutability":"nonpayable","type":"function"},{"inputs":[{"internalType":"address","name":"userAddress","type":"address"}],"name":"updateAdvisors","outputs":[],"stateMutability":"nonpayable","type":"function"},{"inputs":[{"internalType":"uint256","name":"stakeAmount","type":"uint256"}],"name":"updateStakeAmount","outputs":[],"stateMutability":"nonpayable","type":"function"},{"inputs":[{"internalType":"uint256","name":"_claimID","type":"uint256"},{"internalType":"uint256","name":"timeInHours","type":"uint256"}],"name":"updateVotingEndTime","outputs":[],"stateMutability":"nonpayable","type":"function"},{"inputs":[{"internalType":"uint256","name":"_claimID","type":"uint256"}],"name":"viewVoteReceipt","outputs":[{"internalType":"bool","name":"","type":"bool"},{"internalType":"bool","name":"","type":"bool"},{"internalType":"uint256","name":"","type":"uint256"}],"stateMutability":"view","type":"function"},{"inputs":[{"internalType":"uint256","name":"_claimID","type":"uint256"},{"internalType":"bool","name":"support","type":"bool"}],"name":"vote","outputs":[{"internalType":"bool","name":"","type":"bool"}],"stateMutability":"nonpayable","type":"function"}],"devdoc":{"custom:security-contact":"anshik@safezen.finance","kind":"dev","methods":{"claimDecision(uint256)":{"details":"this function aims to finalize the claim decision, based on the claim voting","params":{"_claimID":": unique insurance claim ID"}},"constructor":{"custom:oz-upgrades-unsafe-allow-constructor":""},"getRoleAdmin(bytes32)":{"details":"Returns the admin role that controls `role`. See {grantRole} and {revokeRole}. To change a role's admin, use {_setRoleAdmin}."},"grantRole(bytes32,address)":{"details":"Grants `role` to `account`. If `account` had not been already granted `role`, emits a {RoleGranted} event. Requirements: - the caller must have ``role``'s admin role. May emit a {RoleGranted} event."},"hasRole(bytes32,address)":{"details":"Returns `true` if `account` has been granted `role`."},"paused()":{"details":"Returns true if the contract is paused, and false otherwise."},"renounceRole(bytes32,address)":{"details":"Revokes `role` from the calling account. Roles are often managed via {grantRole} and {revokeRole}: this function's purpose is to provide a mechanism for accounts to lose their privileges if they are compromised (such as when a trusted device is misplaced). If the calling account had been revoked `role`, emits a {RoleRevoked} event. Requirements: - the caller must be `account`. May emit a {RoleRevoked} event."},"revokeRole(bytes32,address)":{"details":"Revokes `role` from `account`. If `account` had been granted `role`, emits a {RoleRevoked} event. Requirements: - the caller must have ``role``'s admin role. May emit a {RoleRevoked} event."},"supportsInterface(bytes4)":{"details":"See {IERC165-supportsInterface}."},"updateVotingEndTime(uint256,uint256)":{"details":"in case if certain claim require additional time for DAO,  for e.g., awaiting additional inputs to reserve their decisions "}},"version":1},"evm":{"bytecode":{"linkReferences":{},"object":"60806040523480156200001157600080fd5b50604051620048683803806200486883398181016040528101906200003791906200012a565b8060fe60006101000a81548173ffffffffffffffffffffffffffffffffffffffff021916908373ffffffffffffffffffffffffffffffffffffffff1602179055508060ff60006101000a81548173ffffffffffffffffffffffffffffffffffffffff021916908373ffffffffffffffffffffffffffffffffffffffff160217905550506200015c565b600080fd5b600073ffffffffffffffffffffffffffffffffffffffff82169050919050565b6000620000f282620000c5565b9050919050565b6200010481620000e5565b81146200011057600080fd5b50565b6000815190506200012481620000f9565b92915050565b600060208284031215620001435762000142620000c0565b5b6000620001538482850162000113565b91505092915050565b6146fc806200016c6000396000f3fe608060405234801561001057600080fd5b50600436106101c45760003560e01c80638456cb59116100f9578063c661fed311610097578063c9d27afe11610071578063c9d27afe14610525578063d0c3609214610555578063d547741f14610585578063ef0c997a146105a1576101c4565b8063c661fed3146104a9578063c90054ee146104d9578063c95bee81146104f5576101c4565b8063a217fddf116100d3578063a217fddf14610405578063a888c2cd14610423578063b6db75a01461045b578063c499314014610479576101c4565b80638456cb59146103af5780638c33b395146103b957806391d14854146103d5576101c4565b8063485cc955116101665780635c975abb116101405780635c975abb1461033b5780635df6f2ee14610359578063602ce4c6146103775780636e810b1a14610393576101c4565b8063485cc955146102d357806355e5b444146102ef57806359405ed31461031f576101c4565b8063248a9ca3116101a2578063248a9ca3146102615780632f2ff15d1461029157806336568abe146102ad5780633f4ba83a146102c9576101c4565b806301ffc9a7146101c957806320849b07146101f9578063248a06341461022b575b600080fd5b6101e360048036038101906101de9190613174565b6105bf565b6040516101f091906131bc565b60405180910390f35b610213600480360381019061020e919061320d565b610639565b60405161022293929190613249565b60405180910390f35b6102456004803603810190610240919061320d565b610782565b6040516102589796959493929190613280565b60405180910390f35b61027b60048036038101906102769190613325565b6107f5565b6040516102889190613361565b60405180910390f35b6102ab60048036038101906102a691906133da565b610815565b005b6102c760048036038101906102c291906133da565b610836565b005b6102d16108b9565b005b6102ed60048036038101906102e8919061341a565b61090a565b005b610309600480360381019061030491906135d9565b610ae5565b60405161031691906131bc565b60405180910390f35b610339600480360381019061033491906136ab565b610ea7565b005b610343610f4a565b60405161035091906131bc565b60405180910390f35b610361610f61565b60405161036e91906136d8565b60405180910390f35b610391600480360381019061038c91906136f3565b610f67565b005b6103ad60048036038101906103a891906136ab565b6111d1565b005b6103b76112f3565b005b6103d360048036038101906103ce919061376e565b611344565b005b6103ef60048036038101906103ea91906133da565b6113cc565b6040516103fc91906131bc565b60405180910390f35b61040d611437565b60405161041a9190613361565b60405180910390f35b61043d6004803603810190610438919061320d565b61143e565b6040516104529998979695949392919061383c565b60405180910390f35b61046361155c565b60405161047091906131bc565b60405180910390f35b610493600480360381019061048e91906136ab565b61157b565b6040516104a091906136d8565b60405180910390f35b6104c360048036038101906104be91906136ab565b611594565b6040516104d091906131bc565b60405180910390f35b6104f360048036038101906104ee919061320d565b6115b5565b005b61050f600480360381019061050a919061376e565b611606565b60405161051c91906136d8565b60405180910390f35b61053f600480360381019061053a91906138fc565b61162c565b60405161054c91906131bc565b60405180910390f35b61056f600480360381019061056a919061320d565b611cc7565b60405161057c91906131bc565b60405180910390f35b61059f600480360381019061059a91906133da565b6122f2565b005b6105a9612313565b6040516105b691906136d8565b60405180910390f35b60007f7965db0b000000000000000000000000000000000000000000000000000000007bffffffffffffffffffffffffffffffffffffffffffffffffffffffff1916827bffffffffffffffffffffffffffffffffffffffffffffffffffffffff1916148061063257506106318261231d565b5b9050919050565b60008060006101036000858152602001908152602001600020600801600061065f612387565b73ffffffffffffffffffffffffffffffffffffffff1673ffffffffffffffffffffffffffffffffffffffff16815260200190815260200160002060000160009054906101000a900460ff16610103600086815260200190815260200160002060080160006106cb612387565b73ffffffffffffffffffffffffffffffffffffffff1673ffffffffffffffffffffffffffffffffffffffff16815260200190815260200160002060000160019054906101000a900460ff1661010360008781526020019081526020016000206008016000610737612387565b73ffffffffffffffffffffffffffffffffffffffff1673ffffffffffffffffffffffffffffffffffffffff168152602001908152602001600020600101549250925092509193909250565b60008060008060008060008061010360008a815260200190815260200160002060070160008a815260200190815260200160002090508060000154816001015482600201548360030154846004015485600501548660060154975097509750975097509750975050919395979092949650565b600060976000838152602001908152602001600020600101549050919050565b61081e826107f5565b6108278161238f565b61083183836123a3565b505050565b61083e612387565b73ffffffffffffffffffffffffffffffffffffffff168173ffffffffffffffffffffffffffffffffffffffff16146108ab576040517f08c379a00000000000000000000000000000000000000000000000000000000081526004016108a2906139ae565b60405180910390fd5b6108b58282612484565b5050565b6108c161155c565b610900576040517f08c379a00000000000000000000000000000000000000000000000000000000081526004016108f790613a40565b60405180910390fd5b610908612566565b565b60008060019054906101000a900460ff1615905080801561093b5750600160008054906101000a900460ff1660ff16105b80610968575061094a306125c9565b1580156109675750600160008054906101000a900460ff1660ff16145b5b6109a7576040517f08c379a000000000000000000000000000000000000000000000000000000000815260040161099e90613ad2565b60405180910390fd5b60016000806101000a81548160ff021916908360ff16021790555080156109e4576001600060016101000a81548160ff0219169083151502179055505b678ac7230489e8000060fc819055508261010060006101000a81548173ffffffffffffffffffffffffffffffffffffffff021916908373ffffffffffffffffffffffffffffffffffffffff1602179055508161010160006101000a81548173ffffffffffffffffffffffffffffffffffffffff021916908373ffffffffffffffffffffffffffffffffffffffff160217905550610a87610a82612387565b6111d1565b8015610ae05760008060016101000a81548160ff0219169083151502179055507f7f26b83ff96e1f2b6a682f133852f6798a09c465da95921460cefb38474024986001604051610ad79190613b37565b60405180910390a15b505050565b600060fb60008154610af690613b81565b919050819055506000610103600060fb548152602001908152602001600020905089816002018190555088816003018190555060fb548160010181905550610b3c612387565b8160000160006101000a81548173ffffffffffffffffffffffffffffffffffffffff021916908373ffffffffffffffffffffffffffffffffffffffff16021790555087816005019081610b8f9190613dcb565b50868160040181905550603c42610ba69190613e9d565b81600701600060fb5481526020019081526020016000206000018190555061012c81600701600060fb54815260200190815260200160002060000154610bec9190613e9d565b81600701600060fb548152602001908152602001600020600101819055506101046000610c17612387565b73ffffffffffffffffffffffffffffffffffffffff1673ffffffffffffffffffffffffffffffffffffffff16815260200190815260200160002060008154610c5e90613b81565b9190508190555061010560008b815260200190815260200160002060008a815260200190815260200160002060008154610c9790613b81565b9190508190555060fd60008154610cad90613b81565b91905081905550600061010160009054906101000a900473ffffffffffffffffffffffffffffffffffffffff1673ffffffffffffffffffffffffffffffffffffffff1663c9d070206040518163ffffffff1660e01b81526004016020604051808303816000875af1158015610d26573d6000803e3d6000fd5b505050506040513d601f19601f82011682018060405250810190610d4a9190613ee6565b905080610d83576040517f0c7ef03900000000000000000000000000000000000000000000000000000000815260040160405180910390fd5b610de3610d8e612387565b3060fc548a8a8a8a60ff60009054906101000a900473ffffffffffffffffffffffffffffffffffffffff1673ffffffffffffffffffffffffffffffffffffffff166125ec90979695949392919063ffffffff16565b610e323060fc5460fe60009054906101000a900473ffffffffffffffffffffffffffffffffffffffff1673ffffffffffffffffffffffffffffffffffffffff166127b99092919063ffffffff16565b88604051610e409190613f4f565b604051809103902060fb54610e53612387565b73ffffffffffffffffffffffffffffffffffffffff167fbb70aa717b6d2e0a9b9a1b647818482838fd0133dbdde6f6ff62d0dea579306d60405160405180910390a460019250505098975050505050505050565b610eaf61155c565b610eee576040517f08c379a0000000000000000000000000000000000000000000000000000000008152600401610ee590613a40565b60405180910390fd5b600161010260008373ffffffffffffffffffffffffffffffffffffffff1673ffffffffffffffffffffffffffffffffffffffff16815260200190815260200160002060006101000a81548160ff02191690831515021790555050565b6000603360009054906101000a900460ff16905090565b60fb5481565b610103600086815260200190815260200160002060060160009054906101000a900460ff161580610fba5750610103600086815260200190815260200160002060060160029054906101000a900460ff16155b15610ff1576040517fed43432a00000000000000000000000000000000000000000000000000000000815260040160405180910390fd5b6002610103600087815260200190815260200160002060070160008781526020019081526020016000206006015410611056576040517f4cf8bf0000000000000000000000000000000000000000000000000000000000815260040160405180910390fd5b6001610103600087815260200190815260200160002060060160026101000a81548160ff021916908315150217905550610103600060fb5481526020019081526020016000206007016000600160fb546110b09190613e9d565b8152602001908152602001600020600601600081546110ce90613b81565b919050819055506111c96101036000878152602001908152602001600020600201546101036000888152602001908152602001600020600301546101036000898152602001908152602001600020600501805461112a90613bf8565b80601f016020809104026020016040519081016040528092919081815260200182805461115690613bf8565b80156111a35780601f10611178576101008083540402835291602001916111a3565b820191906000526020600020905b81548152906001019060200180831161118657829003601f168201915b505050505061010360008a81526020019081526020016000206004015488888888610ae5565b505050505050565b600060019054906101000a900460ff16611220576040517f08c379a000000000000000000000000000000000000000000000000000000000815260040161121790613fd8565b60405180910390fd5b600073ffffffffffffffffffffffffffffffffffffffff168173ffffffffffffffffffffffffffffffffffffffff1603611286576040517f5415139400000000000000000000000000000000000000000000000000000000815260040160405180910390fd5b61128e61283f565b611296612898565b61129e6128e9565b6112af6112a9612942565b826123a3565b6112c06112ba61296a565b826123a3565b6112d86112cb61296a565b6112d3612942565b612992565b6112f06112e3612942565b6112eb612942565b612992565b50565b6112fb61155c565b61133a576040517f08c379a000000000000000000000000000000000000000000000000000000000815260040161133190613a40565b60405180910390fd5b6113426129ee565b565b61134c61155c565b61138b576040517f08c379a000000000000000000000000000000000000000000000000000000000815260040161138290613a40565b60405180910390fd5b610e10816113999190613ff8565b61010360008481526020019081526020016000206007016000848152602001908152602001600020600101819055505050565b60006097600084815260200190815260200160002060000160008373ffffffffffffffffffffffffffffffffffffffff1673ffffffffffffffffffffffffffffffffffffffff16815260200190815260200160002060009054906101000a900460ff16905092915050565b6000801b81565b6101036020528060005260406000206000915090508060000160009054906101000a900473ffffffffffffffffffffffffffffffffffffffff16908060010154908060020154908060030154908060040154908060050180546114a090613bf8565b80601f01602080910402602001604051908101604052809291908181526020018280546114cc90613bf8565b80156115195780601f106114ee57610100808354040283529160200191611519565b820191906000526020600020905b8154815290600101906020018083116114fc57829003601f168201915b5050505050908060060160009054906101000a900460ff16908060060160019054906101000a900460ff16908060060160029054906101000a900460ff16905089565b6000611576611569612942565b611571612387565b6113cc565b905090565b6101046020528060005260406000206000915090505481565b6101026020528060005260406000206000915054906101000a900460ff1681565b6115bd61155c565b6115fc576040517f08c379a00000000000000000000000000000000000000000000000000000000081526004016115f390613a40565b60405180910390fd5b8060fc8190555050565b610105602052816000526040600020602052806000526040600020600091509150505481565b60004261010360008581526020019081526020016000206007016000858152602001908152602001600020600001541115611693576040517fee6c0e1400000000000000000000000000000000000000000000000000000000815260040160405180910390fd5b610103600084815260200190815260200160002060080160006116b4612387565b73ffffffffffffffffffffffffffffffffffffffff1673ffffffffffffffffffffffffffffffffffffffff16815260200190815260200160002060000160009054906101000a900460ff1615611736576040517fe88a652b00000000000000000000000000000000000000000000000000000000815260040160405180910390fd5b426101036000858152602001908152602001600020600701600085815260200190815260200160002060010154101561179b576040517fd6db172200000000000000000000000000000000000000000000000000000000815260040160405180910390fd5b81610103600085815260200190815260200160002060080160006117bd612387565b73ffffffffffffffffffffffffffffffffffffffff1673ffffffffffffffffffffffffffffffffffffffff16815260200190815260200160002060000160016101000a81548160ff02191690831515021790555061010060009054906101000a900473ffffffffffffffffffffffffffffffffffffffff1673ffffffffffffffffffffffffffffffffffffffff166370a08231611858612387565b6040518263ffffffff1660e01b81526004016118749190614052565b602060405180830381865afa158015611891573d6000803e3d6000fd5b505050506040513d601f19601f820116820180604052508101906118b59190614082565b610103600085815260200190815260200160002060080160006118d6612387565b73ffffffffffffffffffffffffffffffffffffffff1673ffffffffffffffffffffffffffffffffffffffff1681526020019081526020016000206001018190555060016101036000858152602001908152602001600020600801600061193a612387565b73ffffffffffffffffffffffffffffffffffffffff1673ffffffffffffffffffffffffffffffffffffffff16815260200190815260200160002060000160006101000a81548160ff021916908315150217905550610102600061199b612387565b73ffffffffffffffffffffffffffffffffffffffff1673ffffffffffffffffffffffffffffffffffffffff16815260200190815260200160002060009054906101000a900460ff168015611a1a575060026101036000858152602001908152602001600020600701600085815260200190815260200160002060060154145b15611b70578115611aca5761010360008481526020019081526020016000206008016000611a46612387565b73ffffffffffffffffffffffffffffffffffffffff1673ffffffffffffffffffffffffffffffffffffffff16815260200190815260200160002060010154610103600085815260200190815260200160002060070160008581526020019081526020016000206004016000828254611abe9190613e9d565b92505081905550611b6b565b61010360008481526020019081526020016000206008016000611aeb612387565b73ffffffffffffffffffffffffffffffffffffffff1673ffffffffffffffffffffffffffffffffffffffff16815260200190815260200160002060010154610103600085815260200190815260200160002060070160008581526020019081526020016000206005016000828254611b639190613e9d565b925050819055505b611cbd565b8115611c1b5761010360008481526020019081526020016000206008016000611b97612387565b73ffffffffffffffffffffffffffffffffffffffff1673ffffffffffffffffffffffffffffffffffffffff16815260200190815260200160002060010154610103600085815260200190815260200160002060070160008581526020019081526020016000206002016000828254611c0f9190613e9d565b92505081905550611cbc565b61010360008481526020019081526020016000206008016000611c3c612387565b73ffffffffffffffffffffffffffffffffffffffff1673ffffffffffffffffffffffffffffffffffffffff16815260200190815260200160002060010154610103600085815260200190815260200160002060070160008581526020019081526020016000206003016000828254611cb49190613e9d565b925050819055505b5b6001905092915050565b600042603c6101036000858152602001908152602001600020600701600085815260200190815260200160002060010154611d029190613e9d565b1115611d3a576040517f449a56bc00000000000000000000000000000000000000000000000000000000815260040160405180910390fd5b610103600083815260200190815260200160002060060160029054906101000a900460ff1615611d96576040517f34e3808e00000000000000000000000000000000000000000000000000000000815260040160405180910390fd5b600061010360008481526020019081526020016000206007016000848152602001908152602001600020600301546101036000858152602001908152602001600020600701600085815260200190815260200160002060020154611dfa9190613e9d565b905060026101036000858152602001908152602001600020600701600085815260200190815260200160002060060154036120ba57600061010360008581526020019081526020016000206007016000858152602001908152602001600020600501546101036000868152602001908152602001600020600701600086815260200190815260200160002060040154611e939190613e9d565b90506000610103600086815260200190815260200160002060070160008681526020019081526020016000206005015461010360008781526020019081526020016000206007016000878152602001908152602001600020600401541015611efc576000611f44565b816064610103600060fb548152602001908152602001600020600701600060fb54815260200190815260200160002060020154611f399190613ff8565b611f4391906140de565b5b9050603b81106120825760006101036000878152602001908152602001600020600701600087815260200190815260200160002060030154610103600088815260200190815260200160002060070160008881526020019081526020016000206002015411611fb4576001611ff8565b8360646101036000898152602001908152602001600020600701600089815260200190815260200160002060020154611fed9190613ff8565b611ff791906140de565b5b90506000606460338361200b9190613ff8565b61201591906140de565b60646031856120249190613ff8565b61202e91906140de565b6120389190613e9d565b9050605081101561204a57600061204d565b60015b610103600089815260200190815260200160002060060160016101000a81548160ff02191690831515021790555050506120b3565b6000610103600087815260200190815260200160002060060160016101000a81548160ff0219169083151502179055505b50506121a9565b60006101036000858152602001908152602001600020600701600085815260200190815260200160002060030154610103600086815260200190815260200160002060070160008681526020019081526020016000206002015411612120576001612164565b81606461010360008781526020019081526020016000206007016000878152602001908152602001600020600201546121599190613ff8565b61216391906140de565b5b90506050811015612176576000612179565b60015b610103600086815260200190815260200160002060060160016101000a81548160ff021916908315150217905550505b6001610103600085815260200190815260200160002060060160006101000a81548160ff021916908315150217905550610103600084815260200190815260200160002060060160019054906101000a900460ff16156122d25760006001610103600086815260200190815260200160002060070160008681526020019081526020016000206006015461223d9190613e9d565b60fc5461224a9190613ff8565b90506122d0610103600086815260200190815260200160002060000160009054906101000a900473ffffffffffffffffffffffffffffffffffffffff168260fe60009054906101000a900473ffffffffffffffffffffffffffffffffffffffff1673ffffffffffffffffffffffffffffffffffffffff166127b99092919063ffffffff16565b505b60fd600081546122e19061410f565b919050819055506001915050919050565b6122fb826107f5565b6123048161238f565b61230e8383612484565b505050565b600060fb54905090565b60007f01ffc9a7000000000000000000000000000000000000000000000000000000007bffffffffffffffffffffffffffffffffffffffffffffffffffffffff1916827bffffffffffffffffffffffffffffffffffffffffffffffffffffffff1916149050919050565b600033905090565b6123a08161239b612387565b612a51565b50565b6123ad82826113cc565b6124805760016097600084815260200190815260200160002060000160008373ffffffffffffffffffffffffffffffffffffffff1673ffffffffffffffffffffffffffffffffffffffff16815260200190815260200160002060006101000a81548160ff021916908315150217905550612425612387565b73ffffffffffffffffffffffffffffffffffffffff168173ffffffffffffffffffffffffffffffffffffffff16837f2f8788117e7eff1d82e926ec794901d17c78024a50270940304540a733656f0d60405160405180910390a45b5050565b61248e82826113cc565b156125625760006097600084815260200190815260200160002060000160008373ffffffffffffffffffffffffffffffffffffffff1673ffffffffffffffffffffffffffffffffffffffff16815260200190815260200160002060006101000a81548160ff021916908315150217905550612507612387565b73ffffffffffffffffffffffffffffffffffffffff168173ffffffffffffffffffffffffffffffffffffffff16837ff6391f5c32d9c69d2a47ea670b442974b53935d1edc7fd64eb21e047a839171b60405160405180910390a45b5050565b61256e612ad6565b6000603360006101000a81548160ff0219169083151502179055507f5db9ee0a495bf2e6ff9c91a7834c1ba4fdd244a5e8aa4e537bd38aeae4b073aa6125b2612387565b6040516125bf9190614052565b60405180910390a1565b6000808273ffffffffffffffffffffffffffffffffffffffff163b119050919050565b60008873ffffffffffffffffffffffffffffffffffffffff16637ecebe00896040518263ffffffff1660e01b81526004016126279190614052565b602060405180830381865afa158015612644573d6000803e3d6000fd5b505050506040513d601f19601f820116820180604052508101906126689190614082565b90508873ffffffffffffffffffffffffffffffffffffffff1663d505accf898989898989896040518863ffffffff1660e01b81526004016126af9796959493929190614147565b600060405180830381600087803b1580156126c957600080fd5b505af11580156126dd573d6000803e3d6000fd5b5050505060008973ffffffffffffffffffffffffffffffffffffffff16637ecebe008a6040518263ffffffff1660e01b815260040161271c9190614052565b602060405180830381865afa158015612739573d6000803e3d6000fd5b505050506040513d601f19601f8201168201806040525081019061275d9190614082565b905060018261276c9190613e9d565b81146127ad576040517f08c379a00000000000000000000000000000000000000000000000000000000081526004016127a490614228565b60405180910390fd5b50505050505050505050565b61283a8363a9059cbb60e01b84846040516024016127d8929190614248565b604051602081830303815290604052907bffffffffffffffffffffffffffffffffffffffffffffffffffffffff19166020820180517bffffffffffffffffffffffffffffffffffffffffffffffffffffffff8381831617835250505050612b1f565b505050565b600060019054906101000a900460ff1661288e576040517f08c379a000000000000000000000000000000000000000000000000000000000815260040161288590613fd8565b60405180910390fd5b612896612be6565b565b600060019054906101000a900460ff166128e7576040517f08c379a00000000000000000000000000000000000000000000000000000000081526004016128de90613fd8565b60405180910390fd5b565b600060019054906101000a900460ff16612938576040517f08c379a000000000000000000000000000000000000000000000000000000000815260040161292f90613fd8565b60405180910390fd5b612940612c52565b565b60007fa49807205ce4d355092ef5a8a18f56e8913cf4a201fbe287825b095693c21775905090565b60007f65d7a28e3265b37a6474929f336521b332c1681b933f6cb9f3376673440d862a905090565b600061299d836107f5565b90508160976000858152602001908152602001600020600101819055508181847fbd79b86ffe0ab8e8776151514217cd7cacd52c909f66475c3af44e129f0b00ff60405160405180910390a4505050565b6129f6612cab565b6001603360006101000a81548160ff0219169083151502179055507f62e78cea01bee320cd4e420270b5ea74000d11b0c9f74754ebdbfc544b05a258612a3a612387565b604051612a479190614052565b60405180910390a1565b612a5b82826113cc565b612ad257612a6881612cf5565b612a768360001c6020612d22565b604051602001612a87929190614309565b6040516020818303038152906040526040517f08c379a0000000000000000000000000000000000000000000000000000000008152600401612ac99190614343565b60405180910390fd5b5050565b612ade610f4a565b612b1d576040517f08c379a0000000000000000000000000000000000000000000000000000000008152600401612b14906143b1565b60405180910390fd5b565b6000612b81826040518060400160405280602081526020017f5361666545524332303a206c6f772d6c6576656c2063616c6c206661696c65648152508573ffffffffffffffffffffffffffffffffffffffff16612f5e9092919063ffffffff16565b9050600081511115612be15780806020019051810190612ba19190613ee6565b612be0576040517f08c379a0000000000000000000000000000000000000000000000000000000008152600401612bd790614443565b60405180910390fd5b5b505050565b600060019054906101000a900460ff16612c35576040517f08c379a0000000000000000000000000000000000000000000000000000000008152600401612c2c90613fd8565b60405180910390fd5b6000603360006101000a81548160ff021916908315150217905550565b600060019054906101000a900460ff16612ca1576040517f08c379a0000000000000000000000000000000000000000000000000000000008152600401612c9890613fd8565b60405180910390fd5b600160c981905550565b612cb3610f4a565b15612cf3576040517f08c379a0000000000000000000000000000000000000000000000000000000008152600401612cea906144af565b60405180910390fd5b565b6060612d1b8273ffffffffffffffffffffffffffffffffffffffff16601460ff16612d22565b9050919050565b606060006002836002612d359190613ff8565b612d3f9190613e9d565b67ffffffffffffffff811115612d5857612d57613475565b5b6040519080825280601f01601f191660200182016040528015612d8a5781602001600182028036833780820191505090505b5090507f300000000000000000000000000000000000000000000000000000000000000081600081518110612dc257612dc16144cf565b5b60200101907effffffffffffffffffffffffffffffffffffffffffffffffffffffffffffff1916908160001a9053507f780000000000000000000000000000000000000000000000000000000000000081600181518110612e2657612e256144cf565b5b60200101907effffffffffffffffffffffffffffffffffffffffffffffffffffffffffffff1916908160001a90535060006001846002612e669190613ff8565b612e709190613e9d565b90505b6001811115612f10577f3031323334353637383961626364656600000000000000000000000000000000600f861660108110612eb257612eb16144cf565b5b1a60f81b828281518110612ec957612ec86144cf565b5b60200101907effffffffffffffffffffffffffffffffffffffffffffffffffffffffffffff1916908160001a905350600485901c945080612f099061410f565b9050612e73565b5060008414612f54576040517f08c379a0000000000000000000000000000000000000000000000000000000008152600401612f4b9061454a565b60405180910390fd5b8091505092915050565b6060612f6d8484600085612f76565b90509392505050565b606082471015612fbb576040517f08c379a0000000000000000000000000000000000000000000000000000000008152600401612fb2906145dc565b60405180910390fd5b6000808673ffffffffffffffffffffffffffffffffffffffff168587604051612fe49190614643565b60006040518083038185875af1925050503d8060008114613021576040519150601f19603f3d011682016040523d82523d6000602084013e613026565b606091505b509150915061303787838387613043565b92505050949350505050565b606083156130a557600083510361309d5761305d856125c9565b61309c576040517f08c379a0000000000000000000000000000000000000000000000000000000008152600401613093906146a6565b60405180910390fd5b5b8290506130b0565b6130af83836130b8565b5b949350505050565b6000825111156130cb5781518083602001fd5b806040517f08c379a00000000000000000000000000000000000000000000000000000000081526004016130ff9190614343565b60405180910390fd5b6000604051905090565b600080fd5b600080fd5b60007fffffffff0000000000000000000000000000000000000000000000000000000082169050919050565b6131518161311c565b811461315c57600080fd5b50565b60008135905061316e81613148565b92915050565b60006020828403121561318a57613189613112565b5b60006131988482850161315f565b91505092915050565b60008115159050919050565b6131b6816131a1565b82525050565b60006020820190506131d160008301846131ad565b92915050565b6000819050919050565b6131ea816131d7565b81146131f557600080fd5b50565b600081359050613207816131e1565b92915050565b60006020828403121561322357613222613112565b5b6000613231848285016131f8565b91505092915050565b613243816131d7565b82525050565b600060608201905061325e60008301866131ad565b61326b60208301856131ad565b613278604083018461323a565b949350505050565b600060e082019050613295600083018a61323a565b6132a2602083018961323a565b6132af604083018861323a565b6132bc606083018761323a565b6132c9608083018661323a565b6132d660a083018561323a565b6132e360c083018461323a565b98975050505050505050565b6000819050919050565b613302816132ef565b811461330d57600080fd5b50565b60008135905061331f816132f9565b92915050565b60006020828403121561333b5761333a613112565b5b600061334984828501613310565b91505092915050565b61335b816132ef565b82525050565b60006020820190506133766000830184613352565b92915050565b600073ffffffffffffffffffffffffffffffffffffffff82169050919050565b60006133a78261337c565b9050919050565b6133b78161339c565b81146133c257600080fd5b50565b6000813590506133d4816133ae565b92915050565b600080604083850312156133f1576133f0613112565b5b60006133ff85828601613310565b9250506020613410858286016133c5565b9150509250929050565b6000806040838503121561343157613430613112565b5b600061343f858286016133c5565b9250506020613450858286016133c5565b9150509250929050565b600080fd5b600080fd5b6000601f19601f8301169050919050565b7f4e487b7100000000000000000000000000000000000000000000000000000000600052604160045260246000fd5b6134ad82613464565b810181811067ffffffffffffffff821117156134cc576134cb613475565b5b80604052505050565b60006134df613108565b90506134eb82826134a4565b919050565b600067ffffffffffffffff82111561350b5761350a613475565b5b61351482613464565b9050602081019050919050565b82818337600083830152505050565b600061354361353e846134f0565b6134d5565b90508281526020810184848401111561355f5761355e61345f565b5b61356a848285613521565b509392505050565b600082601f8301126135875761358661345a565b5b8135613597848260208601613530565b91505092915050565b600060ff82169050919050565b6135b6816135a0565b81146135c157600080fd5b50565b6000813590506135d3816135ad565b92915050565b600080600080600080600080610100898b0312156135fa576135f9613112565b5b60006136088b828c016131f8565b98505060206136198b828c016131f8565b975050604089013567ffffffffffffffff81111561363a57613639613117565b5b6136468b828c01613572565b96505060606136578b828c016131f8565b95505060806136688b828c016131f8565b94505060a06136798b828c016135c4565b93505060c061368a8b828c01613310565b92505060e061369b8b828c01613310565b9150509295985092959890939650565b6000602082840312156136c1576136c0613112565b5b60006136cf848285016133c5565b91505092915050565b60006020820190506136ed600083018461323a565b92915050565b600080600080600060a0868803121561370f5761370e613112565b5b600061371d888289016131f8565b955050602061372e888289016131f8565b945050604061373f888289016135c4565b935050606061375088828901613310565b925050608061376188828901613310565b9150509295509295909350565b6000806040838503121561378557613784613112565b5b6000613793858286016131f8565b92505060206137a4858286016131f8565b9150509250929050565b6137b78161339c565b82525050565b600081519050919050565b600082825260208201905092915050565b60005b838110156137f75780820151818401526020810190506137dc565b60008484015250505050565b600061380e826137bd565b61381881856137c8565b93506138288185602086016137d9565b61383181613464565b840191505092915050565b600061012082019050613852600083018c6137ae565b61385f602083018b61323a565b61386c604083018a61323a565b613879606083018961323a565b613886608083018861323a565b81810360a08301526138988187613803565b90506138a760c08301866131ad565b6138b460e08301856131ad565b6138c26101008301846131ad565b9a9950505050505050505050565b6138d9816131a1565b81146138e457600080fd5b50565b6000813590506138f6816138d0565b92915050565b6000806040838503121561391357613912613112565b5b6000613921858286016131f8565b9250506020613932858286016138e7565b9150509250929050565b7f416363657373436f6e74726f6c3a2063616e206f6e6c792072656e6f756e636560008201527f20726f6c657320666f722073656c660000000000000000000000000000000000602082015250565b6000613998602f836137c8565b91506139a38261393c565b604082019050919050565b600060208201905081810360008301526139c78161398b565b9050919050565b7f4d75737420686176652061646d696e20726f6c6520746f20706572666f726d2060008201527f7468697320616374696f6e2e0000000000000000000000000000000000000000602082015250565b6000613a2a602c836137c8565b9150613a35826139ce565b604082019050919050565b60006020820190508181036000830152613a5981613a1d565b9050919050565b7f496e697469616c697a61626c653a20636f6e747261637420697320616c72656160008201527f647920696e697469616c697a6564000000000000000000000000000000000000602082015250565b6000613abc602e836137c8565b9150613ac782613a60565b604082019050919050565b60006020820190508181036000830152613aeb81613aaf565b9050919050565b6000819050919050565b6000819050919050565b6000613b21613b1c613b1784613af2565b613afc565b6135a0565b9050919050565b613b3181613b06565b82525050565b6000602082019050613b4c6000830184613b28565b92915050565b7f4e487b7100000000000000000000000000000000000000000000000000000000600052601160045260246000fd5b6000613b8c826131d7565b91507fffffffffffffffffffffffffffffffffffffffffffffffffffffffffffffffff8203613bbe57613bbd613b52565b5b600182019050919050565b7f4e487b7100000000000000000000000000000000000000000000000000000000600052602260045260246000fd5b60006002820490506001821680613c1057607f821691505b602082108103613c2357613c22613bc9565b5b50919050565b60008190508160005260206000209050919050565b60006020601f8301049050919050565b600082821b905092915050565b600060088302613c8b7fffffffffffffffffffffffffffffffffffffffffffffffffffffffffffffffff82613c4e565b613c958683613c4e565b95508019841693508086168417925050509392505050565b6000613cc8613cc3613cbe846131d7565b613afc565b6131d7565b9050919050565b6000819050919050565b613ce283613cad565b613cf6613cee82613ccf565b848454613c5b565b825550505050565b600090565b613d0b613cfe565b613d16818484613cd9565b505050565b5b81811015613d3a57613d2f600082613d03565b600181019050613d1c565b5050565b601f821115613d7f57613d5081613c29565b613d5984613c3e565b81016020851015613d68578190505b613d7c613d7485613c3e565b830182613d1b565b50505b505050565b600082821c905092915050565b6000613da260001984600802613d84565b1980831691505092915050565b6000613dbb8383613d91565b9150826002028217905092915050565b613dd4826137bd565b67ffffffffffffffff811115613ded57613dec613475565b5b613df78254613bf8565b613e02828285613d3e565b600060209050601f831160018114613e355760008415613e23578287015190505b613e2d8582613daf565b865550613e95565b601f198416613e4386613c29565b60005b82811015613e6b57848901518255600182019150602085019450602081019050613e46565b86831015613e885784890151613e84601f891682613d91565b8355505b6001600288020188555050505b505050505050565b6000613ea8826131d7565b9150613eb3836131d7565b9250828201905080821115613ecb57613eca613b52565b5b92915050565b600081519050613ee0816138d0565b92915050565b600060208284031215613efc57613efb613112565b5b6000613f0a84828501613ed1565b91505092915050565b600081905092915050565b6000613f29826137bd565b613f338185613f13565b9350613f438185602086016137d9565b80840191505092915050565b6000613f5b8284613f1e565b915081905092915050565b7f496e697469616c697a61626c653a20636f6e7472616374206973206e6f74206960008201527f6e697469616c697a696e67000000000000000000000000000000000000000000602082015250565b6000613fc2602b836137c8565b9150613fcd82613f66565b604082019050919050565b60006020820190508181036000830152613ff181613fb5565b9050919050565b6000614003826131d7565b915061400e836131d7565b9250817fffffffffffffffffffffffffffffffffffffffffffffffffffffffffffffffff048311821515161561404757614046613b52565b5b828202905092915050565b600060208201905061406760008301846137ae565b92915050565b60008151905061407c816131e1565b92915050565b60006020828403121561409857614097613112565b5b60006140a68482850161406d565b91505092915050565b7f4e487b7100000000000000000000000000000000000000000000000000000000600052601260045260246000fd5b60006140e9826131d7565b91506140f4836131d7565b925082614104576141036140af565b5b828204905092915050565b600061411a826131d7565b91506000820361412d5761412c613b52565b5b600182039050919050565b614141816135a0565b82525050565b600060e08201905061415c600083018a6137ae565b61416960208301896137ae565b614176604083018861323a565b614183606083018761323a565b6141906080830186614138565b61419d60a0830185613352565b6141aa60c0830184613352565b98975050505050505050565b7f5361666545524332303a207065726d697420646964206e6f742073756363656560008201527f6400000000000000000000000000000000000000000000000000000000000000602082015250565b60006142126021836137c8565b915061421d826141b6565b604082019050919050565b6000602082019050818103600083015261424181614205565b9050919050565b600060408201905061425d60008301856137ae565b61426a602083018461323a565b9392505050565b7f416363657373436f6e74726f6c3a206163636f756e7420000000000000000000600082015250565b60006142a7601783613f13565b91506142b282614271565b601782019050919050565b7f206973206d697373696e6720726f6c6520000000000000000000000000000000600082015250565b60006142f3601183613f13565b91506142fe826142bd565b601182019050919050565b60006143148261429a565b91506143208285613f1e565b915061432b826142e6565b91506143378284613f1e565b91508190509392505050565b6000602082019050818103600083015261435d8184613803565b905092915050565b7f5061757361626c653a206e6f7420706175736564000000000000000000000000600082015250565b600061439b6014836137c8565b91506143a682614365565b602082019050919050565b600060208201905081810360008301526143ca8161438e565b9050919050565b7f5361666545524332303a204552433230206f7065726174696f6e20646964206e60008201527f6f74207375636365656400000000000000000000000000000000000000000000602082015250565b600061442d602a836137c8565b9150614438826143d1565b604082019050919050565b6000602082019050818103600083015261445c81614420565b9050919050565b7f5061757361626c653a2070617573656400000000000000000000000000000000600082015250565b60006144996010836137c8565b91506144a482614463565b602082019050919050565b600060208201905081810360008301526144c88161448c565b9050919050565b7f4e487b7100000000000000000000000000000000000000000000000000000000600052603260045260246000fd5b7f537472696e67733a20686578206c656e67746820696e73756666696369656e74600082015250565b60006145346020836137c8565b915061453f826144fe565b602082019050919050565b6000602082019050818103600083015261456381614527565b9050919050565b7f416464726573733a20696e73756666696369656e742062616c616e636520666f60008201527f722063616c6c0000000000000000000000000000000000000000000000000000602082015250565b60006145c66026836137c8565b91506145d18261456a565b604082019050919050565b600060208201905081810360008301526145f5816145b9565b9050919050565b600081519050919050565b600081905092915050565b600061461d826145fc565b6146278185614607565b93506146378185602086016137d9565b80840191505092915050565b600061464f8284614612565b915081905092915050565b7f416464726573733a2063616c6c20746f206e6f6e2d636f6e7472616374000000600082015250565b6000614690601d836137c8565b915061469b8261465a565b602082019050919050565b600060208201905081810360008301526146bf81614683565b905091905056fea26469706673582212206334133160fcf85a3adbd2e89a93c3a3c994b2ba0287bea2670ed61c6b90aa9f64736f6c63430008100033","opcodes":"PUSH1 0x80 PUSH1 0x40 MSTORE CALLVALUE DUP1 ISZERO PUSH3 0x11 JUMPI PUSH1 0x0 DUP1 REVERT JUMPDEST POP PUSH1 0x40 MLOAD PUSH3 0x4868 CODESIZE SUB DUP1 PUSH3 0x4868 DUP4 CODECOPY DUP2 DUP2 ADD PUSH1 0x40 MSTORE DUP2 ADD SWAP1 PUSH3 0x37 SWAP2 SWAP1 PUSH3 0x12A JUMP JUMPDEST DUP1 PUSH1 0xFE PUSH1 0x0 PUSH2 0x100 EXP DUP2 SLOAD DUP2 PUSH20 0xFFFFFFFFFFFFFFFFFFFFFFFFFFFFFFFFFFFFFFFF MUL NOT AND SWAP1 DUP4 PUSH20 0xFFFFFFFFFFFFFFFFFFFFFFFFFFFFFFFFFFFFFFFF AND MUL OR SWAP1 SSTORE POP DUP1 PUSH1 0xFF PUSH1 0x0 PUSH2 0x100 EXP DUP2 SLOAD DUP2 PUSH20 0xFFFFFFFFFFFFFFFFFFFFFFFFFFFFFFFFFFFFFFFF MUL NOT AND SWAP1 DUP4 PUSH20 0xFFFFFFFFFFFFFFFFFFFFFFFFFFFFFFFFFFFFFFFF AND MUL OR SWAP1 SSTORE POP POP PUSH3 0x15C JUMP JUMPDEST PUSH1 0x0 DUP1 REVERT JUMPDEST PUSH1 0x0 PUSH20 0xFFFFFFFFFFFFFFFFFFFFFFFFFFFFFFFFFFFFFFFF DUP3 AND SWAP1 POP SWAP2 SWAP1 POP JUMP JUMPDEST PUSH1 0x0 PUSH3 0xF2 DUP3 PUSH3 0xC5 JUMP JUMPDEST SWAP1 POP SWAP2 SWAP1 POP JUMP JUMPDEST PUSH3 0x104 DUP2 PUSH3 0xE5 JUMP JUMPDEST DUP2 EQ PUSH3 0x110 JUMPI PUSH1 0x0 DUP1 REVERT JUMPDEST POP JUMP JUMPDEST PUSH1 0x0 DUP2 MLOAD SWAP1 POP PUSH3 0x124 DUP2 PUSH3 0xF9 JUMP JUMPDEST SWAP3 SWAP2 POP POP JUMP JUMPDEST PUSH1 0x0 PUSH1 0x20 DUP3 DUP5 SUB SLT ISZERO PUSH3 0x143 JUMPI PUSH3 0x142 PUSH3 0xC0 JUMP JUMPDEST JUMPDEST PUSH1 0x0 PUSH3 0x153 DUP5 DUP3 DUP6 ADD PUSH3 0x113 JUMP JUMPDEST SWAP2 POP POP SWAP3 SWAP2 POP POP JUMP JUMPDEST PUSH2 0x46FC DUP1 PUSH3 0x16C PUSH1 0x0 CODECOPY PUSH1 0x0 RETURN INVALID PUSH1 0x80 PUSH1 0x40 MSTORE CALLVALUE DUP1 ISZERO PUSH2 0x10 JUMPI PUSH1 0x0 DUP1 REVERT JUMPDEST POP PUSH1 0x4 CALLDATASIZE LT PUSH2 0x1C4 JUMPI PUSH1 0x0 CALLDATALOAD PUSH1 0xE0 SHR DUP1 PUSH4 0x8456CB59 GT PUSH2 0xF9 JUMPI DUP1 PUSH4 0xC661FED3 GT PUSH2 0x97 JUMPI DUP1 PUSH4 0xC9D27AFE GT PUSH2 0x71 JUMPI DUP1 PUSH4 0xC9D27AFE EQ PUSH2 0x525 JUMPI DUP1 PUSH4 0xD0C36092 EQ PUSH2 0x555 JUMPI DUP1 PUSH4 0xD547741F EQ PUSH2 0x585 JUMPI DUP1 PUSH4 0xEF0C997A EQ PUSH2 0x5A1 JUMPI PUSH2 0x1C4 JUMP JUMPDEST DUP1 PUSH4 0xC661FED3 EQ PUSH2 0x4A9 JUMPI DUP1 PUSH4 0xC90054EE EQ PUSH2 0x4D9 JUMPI DUP1 PUSH4 0xC95BEE81 EQ PUSH2 0x4F5 JUMPI PUSH2 0x1C4 JUMP JUMPDEST DUP1 PUSH4 0xA217FDDF GT PUSH2 0xD3 JUMPI DUP1 PUSH4 0xA217FDDF EQ PUSH2 0x405 JUMPI DUP1 PUSH4 0xA888C2CD EQ PUSH2 0x423 JUMPI DUP1 PUSH4 0xB6DB75A0 EQ PUSH2 0x45B JUMPI DUP1 PUSH4 0xC4993140 EQ PUSH2 0x479 JUMPI PUSH2 0x1C4 JUMP JUMPDEST DUP1 PUSH4 0x8456CB59 EQ PUSH2 0x3AF JUMPI DUP1 PUSH4 0x8C33B395 EQ PUSH2 0x3B9 JUMPI DUP1 PUSH4 0x91D14854 EQ PUSH2 0x3D5 JUMPI PUSH2 0x1C4 JUMP JUMPDEST DUP1 PUSH4 0x485CC955 GT PUSH2 0x166 JUMPI DUP1 PUSH4 0x5C975ABB GT PUSH2 0x140 JUMPI DUP1 PUSH4 0x5C975ABB EQ PUSH2 0x33B JUMPI DUP1 PUSH4 0x5DF6F2EE EQ PUSH2 0x359 JUMPI DUP1 PUSH4 0x602CE4C6 EQ PUSH2 0x377 JUMPI DUP1 PUSH4 0x6E810B1A EQ PUSH2 0x393 JUMPI PUSH2 0x1C4 JUMP JUMPDEST DUP1 PUSH4 0x485CC955 EQ PUSH2 0x2D3 JUMPI DUP1 PUSH4 0x55E5B444 EQ PUSH2 0x2EF JUMPI DUP1 PUSH4 0x59405ED3 EQ PUSH2 0x31F JUMPI PUSH2 0x1C4 JUMP JUMPDEST DUP1 PUSH4 0x248A9CA3 GT PUSH2 0x1A2 JUMPI DUP1 PUSH4 0x248A9CA3 EQ PUSH2 0x261 JUMPI DUP1 PUSH4 0x2F2FF15D EQ PUSH2 0x291 JUMPI DUP1 PUSH4 0x36568ABE EQ PUSH2 0x2AD JUMPI DUP1 PUSH4 0x3F4BA83A EQ PUSH2 0x2C9 JUMPI PUSH2 0x1C4 JUMP JUMPDEST DUP1 PUSH4 0x1FFC9A7 EQ PUSH2 0x1C9 JUMPI DUP1 PUSH4 0x20849B07 EQ PUSH2 0x1F9 JUMPI DUP1 PUSH4 0x248A0634 EQ PUSH2 0x22B JUMPI JUMPDEST PUSH1 0x0 DUP1 REVERT JUMPDEST PUSH2 0x1E3 PUSH1 0x4 DUP1 CALLDATASIZE SUB DUP2 ADD SWAP1 PUSH2 0x1DE SWAP2 SWAP1 PUSH2 0x3174 JUMP JUMPDEST PUSH2 0x5BF JUMP JUMPDEST PUSH1 0x40 MLOAD PUSH2 0x1F0 SWAP2 SWAP1 PUSH2 0x31BC JUMP JUMPDEST PUSH1 0x40 MLOAD DUP1 SWAP2 SUB SWAP1 RETURN JUMPDEST PUSH2 0x213 PUSH1 0x4 DUP1 CALLDATASIZE SUB DUP2 ADD SWAP1 PUSH2 0x20E SWAP2 SWAP1 PUSH2 0x320D JUMP JUMPDEST PUSH2 0x639 JUMP JUMPDEST PUSH1 0x40 MLOAD PUSH2 0x222 SWAP4 SWAP3 SWAP2 SWAP1 PUSH2 0x3249 JUMP JUMPDEST PUSH1 0x40 MLOAD DUP1 SWAP2 SUB SWAP1 RETURN JUMPDEST PUSH2 0x245 PUSH1 0x4 DUP1 CALLDATASIZE SUB DUP2 ADD SWAP1 PUSH2 0x240 SWAP2 SWAP1 PUSH2 0x320D JUMP JUMPDEST PUSH2 0x782 JUMP JUMPDEST PUSH1 0x40 MLOAD PUSH2 0x258 SWAP8 SWAP7 SWAP6 SWAP5 SWAP4 SWAP3 SWAP2 SWAP1 PUSH2 0x3280 JUMP JUMPDEST PUSH1 0x40 MLOAD DUP1 SWAP2 SUB SWAP1 RETURN JUMPDEST PUSH2 0x27B PUSH1 0x4 DUP1 CALLDATASIZE SUB DUP2 ADD SWAP1 PUSH2 0x276 SWAP2 SWAP1 PUSH2 0x3325 JUMP JUMPDEST PUSH2 0x7F5 JUMP JUMPDEST PUSH1 0x40 MLOAD PUSH2 0x288 SWAP2 SWAP1 PUSH2 0x3361 JUMP JUMPDEST PUSH1 0x40 MLOAD DUP1 SWAP2 SUB SWAP1 RETURN JUMPDEST PUSH2 0x2AB PUSH1 0x4 DUP1 CALLDATASIZE SUB DUP2 ADD SWAP1 PUSH2 0x2A6 SWAP2 SWAP1 PUSH2 0x33DA JUMP JUMPDEST PUSH2 0x815 JUMP JUMPDEST STOP JUMPDEST PUSH2 0x2C7 PUSH1 0x4 DUP1 CALLDATASIZE SUB DUP2 ADD SWAP1 PUSH2 0x2C2 SWAP2 SWAP1 PUSH2 0x33DA JUMP JUMPDEST PUSH2 0x836 JUMP JUMPDEST STOP JUMPDEST PUSH2 0x2D1 PUSH2 0x8B9 JUMP JUMPDEST STOP JUMPDEST PUSH2 0x2ED PUSH1 0x4 DUP1 CALLDATASIZE SUB DUP2 ADD SWAP1 PUSH2 0x2E8 SWAP2 SWAP1 PUSH2 0x341A JUMP JUMPDEST PUSH2 0x90A JUMP JUMPDEST STOP JUMPDEST PUSH2 0x309 PUSH1 0x4 DUP1 CALLDATASIZE SUB DUP2 ADD SWAP1 PUSH2 0x304 SWAP2 SWAP1 PUSH2 0x35D9 JUMP JUMPDEST PUSH2 0xAE5 JUMP JUMPDEST PUSH1 0x40 MLOAD PUSH2 0x316 SWAP2 SWAP1 PUSH2 0x31BC JUMP JUMPDEST PUSH1 0x40 MLOAD DUP1 SWAP2 SUB SWAP1 RETURN JUMPDEST PUSH2 0x339 PUSH1 0x4 DUP1 CALLDATASIZE SUB DUP2 ADD SWAP1 PUSH2 0x334 SWAP2 SWAP1 PUSH2 0x36AB JUMP JUMPDEST PUSH2 0xEA7 JUMP JUMPDEST STOP JUMPDEST PUSH2 0x343 PUSH2 0xF4A JUMP JUMPDEST PUSH1 0x40 MLOAD PUSH2 0x350 SWAP2 SWAP1 PUSH2 0x31BC JUMP JUMPDEST PUSH1 0x40 MLOAD DUP1 SWAP2 SUB SWAP1 RETURN JUMPDEST PUSH2 0x361 PUSH2 0xF61 JUMP JUMPDEST PUSH1 0x40 MLOAD PUSH2 0x36E SWAP2 SWAP1 PUSH2 0x36D8 JUMP JUMPDEST PUSH1 0x40 MLOAD DUP1 SWAP2 SUB SWAP1 RETURN JUMPDEST PUSH2 0x391 PUSH1 0x4 DUP1 CALLDATASIZE SUB DUP2 ADD SWAP1 PUSH2 0x38C SWAP2 SWAP1 PUSH2 0x36F3 JUMP JUMPDEST PUSH2 0xF67 JUMP JUMPDEST STOP JUMPDEST PUSH2 0x3AD PUSH1 0x4 DUP1 CALLDATASIZE SUB DUP2 ADD SWAP1 PUSH2 0x3A8 SWAP2 SWAP1 PUSH2 0x36AB JUMP JUMPDEST PUSH2 0x11D1 JUMP JUMPDEST STOP JUMPDEST PUSH2 0x3B7 PUSH2 0x12F3 JUMP JUMPDEST STOP JUMPDEST PUSH2 0x3D3 PUSH1 0x4 DUP1 CALLDATASIZE SUB DUP2 ADD SWAP1 PUSH2 0x3CE SWAP2 SWAP1 PUSH2 0x376E JUMP JUMPDEST PUSH2 0x1344 JUMP JUMPDEST STOP JUMPDEST PUSH2 0x3EF PUSH1 0x4 DUP1 CALLDATASIZE SUB DUP2 ADD SWAP1 PUSH2 0x3EA SWAP2 SWAP1 PUSH2 0x33DA JUMP JUMPDEST PUSH2 0x13CC JUMP JUMPDEST PUSH1 0x40 MLOAD PUSH2 0x3FC SWAP2 SWAP1 PUSH2 0x31BC JUMP JUMPDEST PUSH1 0x40 MLOAD DUP1 SWAP2 SUB SWAP1 RETURN JUMPDEST PUSH2 0x40D PUSH2 0x1437 JUMP JUMPDEST PUSH1 0x40 MLOAD PUSH2 0x41A SWAP2 SWAP1 PUSH2 0x3361 JUMP JUMPDEST PUSH1 0x40 MLOAD DUP1 SWAP2 SUB SWAP1 RETURN JUMPDEST PUSH2 0x43D PUSH1 0x4 DUP1 CALLDATASIZE SUB DUP2 ADD SWAP1 PUSH2 0x438 SWAP2 SWAP1 PUSH2 0x320D JUMP JUMPDEST PUSH2 0x143E JUMP JUMPDEST PUSH1 0x40 MLOAD PUSH2 0x452 SWAP10 SWAP9 SWAP8 SWAP7 SWAP6 SWAP5 SWAP4 SWAP3 SWAP2 SWAP1 PUSH2 0x383C JUMP JUMPDEST PUSH1 0x40 MLOAD DUP1 SWAP2 SUB SWAP1 RETURN JUMPDEST PUSH2 0x463 PUSH2 0x155C JUMP JUMPDEST PUSH1 0x40 MLOAD PUSH2 0x470 SWAP2 SWAP1 PUSH2 0x31BC JUMP JUMPDEST PUSH1 0x40 MLOAD DUP1 SWAP2 SUB SWAP1 RETURN JUMPDEST PUSH2 0x493 PUSH1 0x4 DUP1 CALLDATASIZE SUB DUP2 ADD SWAP1 PUSH2 0x48E SWAP2 SWAP1 PUSH2 0x36AB JUMP JUMPDEST PUSH2 0x157B JUMP JUMPDEST PUSH1 0x40 MLOAD PUSH2 0x4A0 SWAP2 SWAP1 PUSH2 0x36D8 JUMP JUMPDEST PUSH1 0x40 MLOAD DUP1 SWAP2 SUB SWAP1 RETURN JUMPDEST PUSH2 0x4C3 PUSH1 0x4 DUP1 CALLDATASIZE SUB DUP2 ADD SWAP1 PUSH2 0x4BE SWAP2 SWAP1 PUSH2 0x36AB JUMP JUMPDEST PUSH2 0x1594 JUMP JUMPDEST PUSH1 0x40 MLOAD PUSH2 0x4D0 SWAP2 SWAP1 PUSH2 0x31BC JUMP JUMPDEST PUSH1 0x40 MLOAD DUP1 SWAP2 SUB SWAP1 RETURN JUMPDEST PUSH2 0x4F3 PUSH1 0x4 DUP1 CALLDATASIZE SUB DUP2 ADD SWAP1 PUSH2 0x4EE SWAP2 SWAP1 PUSH2 0x320D JUMP JUMPDEST PUSH2 0x15B5 JUMP JUMPDEST STOP JUMPDEST PUSH2 0x50F PUSH1 0x4 DUP1 CALLDATASIZE SUB DUP2 ADD SWAP1 PUSH2 0x50A SWAP2 SWAP1 PUSH2 0x376E JUMP JUMPDEST PUSH2 0x1606 JUMP JUMPDEST PUSH1 0x40 MLOAD PUSH2 0x51C SWAP2 SWAP1 PUSH2 0x36D8 JUMP JUMPDEST PUSH1 0x40 MLOAD DUP1 SWAP2 SUB SWAP1 RETURN JUMPDEST PUSH2 0x53F PUSH1 0x4 DUP1 CALLDATASIZE SUB DUP2 ADD SWAP1 PUSH2 0x53A SWAP2 SWAP1 PUSH2 0x38FC JUMP JUMPDEST PUSH2 0x162C JUMP JUMPDEST PUSH1 0x40 MLOAD PUSH2 0x54C SWAP2 SWAP1 PUSH2 0x31BC JUMP JUMPDEST PUSH1 0x40 MLOAD DUP1 SWAP2 SUB SWAP1 RETURN JUMPDEST PUSH2 0x56F PUSH1 0x4 DUP1 CALLDATASIZE SUB DUP2 ADD SWAP1 PUSH2 0x56A SWAP2 SWAP1 PUSH2 0x320D JUMP JUMPDEST PUSH2 0x1CC7 JUMP JUMPDEST PUSH1 0x40 MLOAD PUSH2 0x57C SWAP2 SWAP1 PUSH2 0x31BC JUMP JUMPDEST PUSH1 0x40 MLOAD DUP1 SWAP2 SUB SWAP1 RETURN JUMPDEST PUSH2 0x59F PUSH1 0x4 DUP1 CALLDATASIZE SUB DUP2 ADD SWAP1 PUSH2 0x59A SWAP2 SWAP1 PUSH2 0x33DA JUMP JUMPDEST PUSH2 0x22F2 JUMP JUMPDEST STOP JUMPDEST PUSH2 0x5A9 PUSH2 0x2313 JUMP JUMPDEST PUSH1 0x40 MLOAD PUSH2 0x5B6 SWAP2 SWAP1 PUSH2 0x36D8 JUMP JUMPDEST PUSH1 0x40 MLOAD DUP1 SWAP2 SUB SWAP1 RETURN JUMPDEST PUSH1 0x0 PUSH32 0x7965DB0B00000000000000000000000000000000000000000000000000000000 PUSH28 0xFFFFFFFFFFFFFFFFFFFFFFFFFFFFFFFFFFFFFFFFFFFFFFFFFFFFFFFF NOT AND DUP3 PUSH28 0xFFFFFFFFFFFFFFFFFFFFFFFFFFFFFFFFFFFFFFFFFFFFFFFFFFFFFFFF NOT AND EQ DUP1 PUSH2 0x632 JUMPI POP PUSH2 0x631 DUP3 PUSH2 0x231D JUMP JUMPDEST JUMPDEST SWAP1 POP SWAP2 SWAP1 POP JUMP JUMPDEST PUSH1 0x0 DUP1 PUSH1 0x0 PUSH2 0x103 PUSH1 0x0 DUP6 DUP2 MSTORE PUSH1 0x20 ADD SWAP1 DUP2 MSTORE PUSH1 0x20 ADD PUSH1 0x0 KECCAK256 PUSH1 0x8 ADD PUSH1 0x0 PUSH2 0x65F PUSH2 0x2387 JUMP JUMPDEST PUSH20 0xFFFFFFFFFFFFFFFFFFFFFFFFFFFFFFFFFFFFFFFF AND PUSH20 0xFFFFFFFFFFFFFFFFFFFFFFFFFFFFFFFFFFFFFFFF AND DUP2 MSTORE PUSH1 0x20 ADD SWAP1 DUP2 MSTORE PUSH1 0x20 ADD PUSH1 0x0 KECCAK256 PUSH1 0x0 ADD PUSH1 0x0 SWAP1 SLOAD SWAP1 PUSH2 0x100 EXP SWAP1 DIV PUSH1 0xFF AND PUSH2 0x103 PUSH1 0x0 DUP7 DUP2 MSTORE PUSH1 0x20 ADD SWAP1 DUP2 MSTORE PUSH1 0x20 ADD PUSH1 0x0 KECCAK256 PUSH1 0x8 ADD PUSH1 0x0 PUSH2 0x6CB PUSH2 0x2387 JUMP JUMPDEST PUSH20 0xFFFFFFFFFFFFFFFFFFFFFFFFFFFFFFFFFFFFFFFF AND PUSH20 0xFFFFFFFFFFFFFFFFFFFFFFFFFFFFFFFFFFFFFFFF AND DUP2 MSTORE PUSH1 0x20 ADD SWAP1 DUP2 MSTORE PUSH1 0x20 ADD PUSH1 0x0 KECCAK256 PUSH1 0x0 ADD PUSH1 0x1 SWAP1 SLOAD SWAP1 PUSH2 0x100 EXP SWAP1 DIV PUSH1 0xFF AND PUSH2 0x103 PUSH1 0x0 DUP8 DUP2 MSTORE PUSH1 0x20 ADD SWAP1 DUP2 MSTORE PUSH1 0x20 ADD PUSH1 0x0 KECCAK256 PUSH1 0x8 ADD PUSH1 0x0 PUSH2 0x737 PUSH2 0x2387 JUMP JUMPDEST PUSH20 0xFFFFFFFFFFFFFFFFFFFFFFFFFFFFFFFFFFFFFFFF AND PUSH20 0xFFFFFFFFFFFFFFFFFFFFFFFFFFFFFFFFFFFFFFFF AND DUP2 MSTORE PUSH1 0x20 ADD SWAP1 DUP2 MSTORE PUSH1 0x20 ADD PUSH1 0x0 KECCAK256 PUSH1 0x1 ADD SLOAD SWAP3 POP SWAP3 POP SWAP3 POP SWAP2 SWAP4 SWAP1 SWAP3 POP JUMP JUMPDEST PUSH1 0x0 DUP1 PUSH1 0x0 DUP1 PUSH1 0x0 DUP1 PUSH1 0x0 DUP1 PUSH2 0x103 PUSH1 0x0 DUP11 DUP2 MSTORE PUSH1 0x20 ADD SWAP1 DUP2 MSTORE PUSH1 0x20 ADD PUSH1 0x0 KECCAK256 PUSH1 0x7 ADD PUSH1 0x0 DUP11 DUP2 MSTORE PUSH1 0x20 ADD SWAP1 DUP2 MSTORE PUSH1 0x20 ADD PUSH1 0x0 KECCAK256 SWAP1 POP DUP1 PUSH1 0x0 ADD SLOAD DUP2 PUSH1 0x1 ADD SLOAD DUP3 PUSH1 0x2 ADD SLOAD DUP4 PUSH1 0x3 ADD SLOAD DUP5 PUSH1 0x4 ADD SLOAD DUP6 PUSH1 0x5 ADD SLOAD DUP7 PUSH1 0x6 ADD SLOAD SWAP8 POP SWAP8 POP SWAP8 POP SWAP8 POP SWAP8 POP SWAP8 POP SWAP8 POP POP SWAP2 SWAP4 SWAP6 SWAP8 SWAP1 SWAP3 SWAP5 SWAP7 POP JUMP JUMPDEST PUSH1 0x0 PUSH1 0x97 PUSH1 0x0 DUP4 DUP2 MSTORE PUSH1 0x20 ADD SWAP1 DUP2 MSTORE PUSH1 0x20 ADD PUSH1 0x0 KECCAK256 PUSH1 0x1 ADD SLOAD SWAP1 POP SWAP2 SWAP1 POP JUMP JUMPDEST PUSH2 0x81E DUP3 PUSH2 0x7F5 JUMP JUMPDEST PUSH2 0x827 DUP2 PUSH2 0x238F JUMP JUMPDEST PUSH2 0x831 DUP4 DUP4 PUSH2 0x23A3 JUMP JUMPDEST POP POP POP JUMP JUMPDEST PUSH2 0x83E PUSH2 0x2387 JUMP JUMPDEST PUSH20 0xFFFFFFFFFFFFFFFFFFFFFFFFFFFFFFFFFFFFFFFF AND DUP2 PUSH20 0xFFFFFFFFFFFFFFFFFFFFFFFFFFFFFFFFFFFFFFFF AND EQ PUSH2 0x8AB JUMPI PUSH1 0x40 MLOAD PUSH32 0x8C379A000000000000000000000000000000000000000000000000000000000 DUP2 MSTORE PUSH1 0x4 ADD PUSH2 0x8A2 SWAP1 PUSH2 0x39AE JUMP JUMPDEST PUSH1 0x40 MLOAD DUP1 SWAP2 SUB SWAP1 REVERT JUMPDEST PUSH2 0x8B5 DUP3 DUP3 PUSH2 0x2484 JUMP JUMPDEST POP POP JUMP JUMPDEST PUSH2 0x8C1 PUSH2 0x155C JUMP JUMPDEST PUSH2 0x900 JUMPI PUSH1 0x40 MLOAD PUSH32 0x8C379A000000000000000000000000000000000000000000000000000000000 DUP2 MSTORE PUSH1 0x4 ADD PUSH2 0x8F7 SWAP1 PUSH2 0x3A40 JUMP JUMPDEST PUSH1 0x40 MLOAD DUP1 SWAP2 SUB SWAP1 REVERT JUMPDEST PUSH2 0x908 PUSH2 0x2566 JUMP JUMPDEST JUMP JUMPDEST PUSH1 0x0 DUP1 PUSH1 0x1 SWAP1 SLOAD SWAP1 PUSH2 0x100 EXP SWAP1 DIV PUSH1 0xFF AND ISZERO SWAP1 POP DUP1 DUP1 ISZERO PUSH2 0x93B JUMPI POP PUSH1 0x1 PUSH1 0x0 DUP1 SLOAD SWAP1 PUSH2 0x100 EXP SWAP1 DIV PUSH1 0xFF AND PUSH1 0xFF AND LT JUMPDEST DUP1 PUSH2 0x968 JUMPI POP PUSH2 0x94A ADDRESS PUSH2 0x25C9 JUMP JUMPDEST ISZERO DUP1 ISZERO PUSH2 0x967 JUMPI POP PUSH1 0x1 PUSH1 0x0 DUP1 SLOAD SWAP1 PUSH2 0x100 EXP SWAP1 DIV PUSH1 0xFF AND PUSH1 0xFF AND EQ JUMPDEST JUMPDEST PUSH2 0x9A7 JUMPI PUSH1 0x40 MLOAD PUSH32 0x8C379A000000000000000000000000000000000000000000000000000000000 DUP2 MSTORE PUSH1 0x4 ADD PUSH2 0x99E SWAP1 PUSH2 0x3AD2 JUMP JUMPDEST PUSH1 0x40 MLOAD DUP1 SWAP2 SUB SWAP1 REVERT JUMPDEST PUSH1 0x1 PUSH1 0x0 DUP1 PUSH2 0x100 EXP DUP2 SLOAD DUP2 PUSH1 0xFF MUL NOT AND SWAP1 DUP4 PUSH1 0xFF AND MUL OR SWAP1 SSTORE POP DUP1 ISZERO PUSH2 0x9E4 JUMPI PUSH1 0x1 PUSH1 0x0 PUSH1 0x1 PUSH2 0x100 EXP DUP2 SLOAD DUP2 PUSH1 0xFF MUL NOT AND SWAP1 DUP4 ISZERO ISZERO MUL OR SWAP1 SSTORE POP JUMPDEST PUSH8 0x8AC7230489E80000 PUSH1 0xFC DUP2 SWAP1 SSTORE POP DUP3 PUSH2 0x100 PUSH1 0x0 PUSH2 0x100 EXP DUP2 SLOAD DUP2 PUSH20 0xFFFFFFFFFFFFFFFFFFFFFFFFFFFFFFFFFFFFFFFF MUL NOT AND SWAP1 DUP4 PUSH20 0xFFFFFFFFFFFFFFFFFFFFFFFFFFFFFFFFFFFFFFFF AND MUL OR SWAP1 SSTORE POP DUP2 PUSH2 0x101 PUSH1 0x0 PUSH2 0x100 EXP DUP2 SLOAD DUP2 PUSH20 0xFFFFFFFFFFFFFFFFFFFFFFFFFFFFFFFFFFFFFFFF MUL NOT AND SWAP1 DUP4 PUSH20 0xFFFFFFFFFFFFFFFFFFFFFFFFFFFFFFFFFFFFFFFF AND MUL OR SWAP1 SSTORE POP PUSH2 0xA87 PUSH2 0xA82 PUSH2 0x2387 JUMP JUMPDEST PUSH2 0x11D1 JUMP JUMPDEST DUP1 ISZERO PUSH2 0xAE0 JUMPI PUSH1 0x0 DUP1 PUSH1 0x1 PUSH2 0x100 EXP DUP2 SLOAD DUP2 PUSH1 0xFF MUL NOT AND SWAP1 DUP4 ISZERO ISZERO MUL OR SWAP1 SSTORE POP PUSH32 0x7F26B83FF96E1F2B6A682F133852F6798A09C465DA95921460CEFB3847402498 PUSH1 0x1 PUSH1 0x40 MLOAD PUSH2 0xAD7 SWAP2 SWAP1 PUSH2 0x3B37 JUMP JUMPDEST PUSH1 0x40 MLOAD DUP1 SWAP2 SUB SWAP1 LOG1 JUMPDEST POP POP POP JUMP JUMPDEST PUSH1 0x0 PUSH1 0xFB PUSH1 0x0 DUP2 SLOAD PUSH2 0xAF6 SWAP1 PUSH2 0x3B81 JUMP JUMPDEST SWAP2 SWAP1 POP DUP2 SWAP1 SSTORE POP PUSH1 0x0 PUSH2 0x103 PUSH1 0x0 PUSH1 0xFB SLOAD DUP2 MSTORE PUSH1 0x20 ADD SWAP1 DUP2 MSTORE PUSH1 0x20 ADD PUSH1 0x0 KECCAK256 SWAP1 POP DUP10 DUP2 PUSH1 0x2 ADD DUP2 SWAP1 SSTORE POP DUP9 DUP2 PUSH1 0x3 ADD DUP2 SWAP1 SSTORE POP PUSH1 0xFB SLOAD DUP2 PUSH1 0x1 ADD DUP2 SWAP1 SSTORE POP PUSH2 0xB3C PUSH2 0x2387 JUMP JUMPDEST DUP2 PUSH1 0x0 ADD PUSH1 0x0 PUSH2 0x100 EXP DUP2 SLOAD DUP2 PUSH20 0xFFFFFFFFFFFFFFFFFFFFFFFFFFFFFFFFFFFFFFFF MUL NOT AND SWAP1 DUP4 PUSH20 0xFFFFFFFFFFFFFFFFFFFFFFFFFFFFFFFFFFFFFFFF AND MUL OR SWAP1 SSTORE POP DUP8 DUP2 PUSH1 0x5 ADD SWAP1 DUP2 PUSH2 0xB8F SWAP2 SWAP1 PUSH2 0x3DCB JUMP JUMPDEST POP DUP7 DUP2 PUSH1 0x4 ADD DUP2 SWAP1 SSTORE POP PUSH1 0x3C TIMESTAMP PUSH2 0xBA6 SWAP2 SWAP1 PUSH2 0x3E9D JUMP JUMPDEST DUP2 PUSH1 0x7 ADD PUSH1 0x0 PUSH1 0xFB SLOAD DUP2 MSTORE PUSH1 0x20 ADD SWAP1 DUP2 MSTORE PUSH1 0x20 ADD PUSH1 0x0 KECCAK256 PUSH1 0x0 ADD DUP2 SWAP1 SSTORE POP PUSH2 0x12C DUP2 PUSH1 0x7 ADD PUSH1 0x0 PUSH1 0xFB SLOAD DUP2 MSTORE PUSH1 0x20 ADD SWAP1 DUP2 MSTORE PUSH1 0x20 ADD PUSH1 0x0 KECCAK256 PUSH1 0x0 ADD SLOAD PUSH2 0xBEC SWAP2 SWAP1 PUSH2 0x3E9D JUMP JUMPDEST DUP2 PUSH1 0x7 ADD PUSH1 0x0 PUSH1 0xFB SLOAD DUP2 MSTORE PUSH1 0x20 ADD SWAP1 DUP2 MSTORE PUSH1 0x20 ADD PUSH1 0x0 KECCAK256 PUSH1 0x1 ADD DUP2 SWAP1 SSTORE POP PUSH2 0x104 PUSH1 0x0 PUSH2 0xC17 PUSH2 0x2387 JUMP JUMPDEST PUSH20 0xFFFFFFFFFFFFFFFFFFFFFFFFFFFFFFFFFFFFFFFF AND PUSH20 0xFFFFFFFFFFFFFFFFFFFFFFFFFFFFFFFFFFFFFFFF AND DUP2 MSTORE PUSH1 0x20 ADD SWAP1 DUP2 MSTORE PUSH1 0x20 ADD PUSH1 0x0 KECCAK256 PUSH1 0x0 DUP2 SLOAD PUSH2 0xC5E SWAP1 PUSH2 0x3B81 JUMP JUMPDEST SWAP2 SWAP1 POP DUP2 SWAP1 SSTORE POP PUSH2 0x105 PUSH1 0x0 DUP12 DUP2 MSTORE PUSH1 0x20 ADD SWAP1 DUP2 MSTORE PUSH1 0x20 ADD PUSH1 0x0 KECCAK256 PUSH1 0x0 DUP11 DUP2 MSTORE PUSH1 0x20 ADD SWAP1 DUP2 MSTORE PUSH1 0x20 ADD PUSH1 0x0 KECCAK256 PUSH1 0x0 DUP2 SLOAD PUSH2 0xC97 SWAP1 PUSH2 0x3B81 JUMP JUMPDEST SWAP2 SWAP1 POP DUP2 SWAP1 SSTORE POP PUSH1 0xFD PUSH1 0x0 DUP2 SLOAD PUSH2 0xCAD SWAP1 PUSH2 0x3B81 JUMP JUMPDEST SWAP2 SWAP1 POP DUP2 SWAP1 SSTORE POP PUSH1 0x0 PUSH2 0x101 PUSH1 0x0 SWAP1 SLOAD SWAP1 PUSH2 0x100 EXP SWAP1 DIV PUSH20 0xFFFFFFFFFFFFFFFFFFFFFFFFFFFFFFFFFFFFFFFF AND PUSH20 0xFFFFFFFFFFFFFFFFFFFFFFFFFFFFFFFFFFFFFFFF AND PUSH4 0xC9D07020 PUSH1 0x40 MLOAD DUP2 PUSH4 0xFFFFFFFF AND PUSH1 0xE0 SHL DUP2 MSTORE PUSH1 0x4 ADD PUSH1 0x20 PUSH1 0x40 MLOAD DUP1 DUP4 SUB DUP2 PUSH1 0x0 DUP8 GAS CALL ISZERO DUP1 ISZERO PUSH2 0xD26 JUMPI RETURNDATASIZE PUSH1 0x0 DUP1 RETURNDATACOPY RETURNDATASIZE PUSH1 0x0 REVERT JUMPDEST POP POP POP POP PUSH1 0x40 MLOAD RETURNDATASIZE PUSH1 0x1F NOT PUSH1 0x1F DUP3 ADD AND DUP3 ADD DUP1 PUSH1 0x40 MSTORE POP DUP2 ADD SWAP1 PUSH2 0xD4A SWAP2 SWAP1 PUSH2 0x3EE6 JUMP JUMPDEST SWAP1 POP DUP1 PUSH2 0xD83 JUMPI PUSH1 0x40 MLOAD PUSH32 0xC7EF03900000000000000000000000000000000000000000000000000000000 DUP2 MSTORE PUSH1 0x4 ADD PUSH1 0x40 MLOAD DUP1 SWAP2 SUB SWAP1 REVERT JUMPDEST PUSH2 0xDE3 PUSH2 0xD8E PUSH2 0x2387 JUMP JUMPDEST ADDRESS PUSH1 0xFC SLOAD DUP11 DUP11 DUP11 DUP11 PUSH1 0xFF PUSH1 0x0 SWAP1 SLOAD SWAP1 PUSH2 0x100 EXP SWAP1 DIV PUSH20 0xFFFFFFFFFFFFFFFFFFFFFFFFFFFFFFFFFFFFFFFF AND PUSH20 0xFFFFFFFFFFFFFFFFFFFFFFFFFFFFFFFFFFFFFFFF AND PUSH2 0x25EC SWAP1 SWAP8 SWAP7 SWAP6 SWAP5 SWAP4 SWAP3 SWAP2 SWAP1 PUSH4 0xFFFFFFFF AND JUMP JUMPDEST PUSH2 0xE32 ADDRESS PUSH1 0xFC SLOAD PUSH1 0xFE PUSH1 0x0 SWAP1 SLOAD SWAP1 PUSH2 0x100 EXP SWAP1 DIV PUSH20 0xFFFFFFFFFFFFFFFFFFFFFFFFFFFFFFFFFFFFFFFF AND PUSH20 0xFFFFFFFFFFFFFFFFFFFFFFFFFFFFFFFFFFFFFFFF AND PUSH2 0x27B9 SWAP1 SWAP3 SWAP2 SWAP1 PUSH4 0xFFFFFFFF AND JUMP JUMPDEST DUP9 PUSH1 0x40 MLOAD PUSH2 0xE40 SWAP2 SWAP1 PUSH2 0x3F4F JUMP JUMPDEST PUSH1 0x40 MLOAD DUP1 SWAP2 SUB SWAP1 KECCAK256 PUSH1 0xFB SLOAD PUSH2 0xE53 PUSH2 0x2387 JUMP JUMPDEST PUSH20 0xFFFFFFFFFFFFFFFFFFFFFFFFFFFFFFFFFFFFFFFF AND PUSH32 0xBB70AA717B6D2E0A9B9A1B647818482838FD0133DBDDE6F6FF62D0DEA579306D PUSH1 0x40 MLOAD PUSH1 0x40 MLOAD DUP1 SWAP2 SUB SWAP1 LOG4 PUSH1 0x1 SWAP3 POP POP POP SWAP9 SWAP8 POP POP POP POP POP POP POP POP JUMP JUMPDEST PUSH2 0xEAF PUSH2 0x155C JUMP JUMPDEST PUSH2 0xEEE JUMPI PUSH1 0x40 MLOAD PUSH32 0x8C379A000000000000000000000000000000000000000000000000000000000 DUP2 MSTORE PUSH1 0x4 ADD PUSH2 0xEE5 SWAP1 PUSH2 0x3A40 JUMP JUMPDEST PUSH1 0x40 MLOAD DUP1 SWAP2 SUB SWAP1 REVERT JUMPDEST PUSH1 0x1 PUSH2 0x102 PUSH1 0x0 DUP4 PUSH20 0xFFFFFFFFFFFFFFFFFFFFFFFFFFFFFFFFFFFFFFFF AND PUSH20 0xFFFFFFFFFFFFFFFFFFFFFFFFFFFFFFFFFFFFFFFF AND DUP2 MSTORE PUSH1 0x20 ADD SWAP1 DUP2 MSTORE PUSH1 0x20 ADD PUSH1 0x0 KECCAK256 PUSH1 0x0 PUSH2 0x100 EXP DUP2 SLOAD DUP2 PUSH1 0xFF MUL NOT AND SWAP1 DUP4 ISZERO ISZERO MUL OR SWAP1 SSTORE POP POP JUMP JUMPDEST PUSH1 0x0 PUSH1 0x33 PUSH1 0x0 SWAP1 SLOAD SWAP1 PUSH2 0x100 EXP SWAP1 DIV PUSH1 0xFF AND SWAP1 POP SWAP1 JUMP JUMPDEST PUSH1 0xFB SLOAD DUP2 JUMP JUMPDEST PUSH2 0x103 PUSH1 0x0 DUP7 DUP2 MSTORE PUSH1 0x20 ADD SWAP1 DUP2 MSTORE PUSH1 0x20 ADD PUSH1 0x0 KECCAK256 PUSH1 0x6 ADD PUSH1 0x0 SWAP1 SLOAD SWAP1 PUSH2 0x100 EXP SWAP1 DIV PUSH1 0xFF AND ISZERO DUP1 PUSH2 0xFBA JUMPI POP PUSH2 0x103 PUSH1 0x0 DUP7 DUP2 MSTORE PUSH1 0x20 ADD SWAP1 DUP2 MSTORE PUSH1 0x20 ADD PUSH1 0x0 KECCAK256 PUSH1 0x6 ADD PUSH1 0x2 SWAP1 SLOAD SWAP1 PUSH2 0x100 EXP SWAP1 DIV PUSH1 0xFF AND ISZERO JUMPDEST ISZERO PUSH2 0xFF1 JUMPI PUSH1 0x40 MLOAD PUSH32 0xED43432A00000000000000000000000000000000000000000000000000000000 DUP2 MSTORE PUSH1 0x4 ADD PUSH1 0x40 MLOAD DUP1 SWAP2 SUB SWAP1 REVERT JUMPDEST PUSH1 0x2 PUSH2 0x103 PUSH1 0x0 DUP8 DUP2 MSTORE PUSH1 0x20 ADD SWAP1 DUP2 MSTORE PUSH1 0x20 ADD PUSH1 0x0 KECCAK256 PUSH1 0x7 ADD PUSH1 0x0 DUP8 DUP2 MSTORE PUSH1 0x20 ADD SWAP1 DUP2 MSTORE PUSH1 0x20 ADD PUSH1 0x0 KECCAK256 PUSH1 0x6 ADD SLOAD LT PUSH2 0x1056 JUMPI PUSH1 0x40 MLOAD PUSH32 0x4CF8BF0000000000000000000000000000000000000000000000000000000000 DUP2 MSTORE PUSH1 0x4 ADD PUSH1 0x40 MLOAD DUP1 SWAP2 SUB SWAP1 REVERT JUMPDEST PUSH1 0x1 PUSH2 0x103 PUSH1 0x0 DUP8 DUP2 MSTORE PUSH1 0x20 ADD SWAP1 DUP2 MSTORE PUSH1 0x20 ADD PUSH1 0x0 KECCAK256 PUSH1 0x6 ADD PUSH1 0x2 PUSH2 0x100 EXP DUP2 SLOAD DUP2 PUSH1 0xFF MUL NOT AND SWAP1 DUP4 ISZERO ISZERO MUL OR SWAP1 SSTORE POP PUSH2 0x103 PUSH1 0x0 PUSH1 0xFB SLOAD DUP2 MSTORE PUSH1 0x20 ADD SWAP1 DUP2 MSTORE PUSH1 0x20 ADD PUSH1 0x0 KECCAK256 PUSH1 0x7 ADD PUSH1 0x0 PUSH1 0x1 PUSH1 0xFB SLOAD PUSH2 0x10B0 SWAP2 SWAP1 PUSH2 0x3E9D JUMP JUMPDEST DUP2 MSTORE PUSH1 0x20 ADD SWAP1 DUP2 MSTORE PUSH1 0x20 ADD PUSH1 0x0 KECCAK256 PUSH1 0x6 ADD PUSH1 0x0 DUP2 SLOAD PUSH2 0x10CE SWAP1 PUSH2 0x3B81 JUMP JUMPDEST SWAP2 SWAP1 POP DUP2 SWAP1 SSTORE POP PUSH2 0x11C9 PUSH2 0x103 PUSH1 0x0 DUP8 DUP2 MSTORE PUSH1 0x20 ADD SWAP1 DUP2 MSTORE PUSH1 0x20 ADD PUSH1 0x0 KECCAK256 PUSH1 0x2 ADD SLOAD PUSH2 0x103 PUSH1 0x0 DUP9 DUP2 MSTORE PUSH1 0x20 ADD SWAP1 DUP2 MSTORE PUSH1 0x20 ADD PUSH1 0x0 KECCAK256 PUSH1 0x3 ADD SLOAD PUSH2 0x103 PUSH1 0x0 DUP10 DUP2 MSTORE PUSH1 0x20 ADD SWAP1 DUP2 MSTORE PUSH1 0x20 ADD PUSH1 0x0 KECCAK256 PUSH1 0x5 ADD DUP1 SLOAD PUSH2 0x112A SWAP1 PUSH2 0x3BF8 JUMP JUMPDEST DUP1 PUSH1 0x1F ADD PUSH1 0x20 DUP1 SWAP2 DIV MUL PUSH1 0x20 ADD PUSH1 0x40 MLOAD SWAP1 DUP2 ADD PUSH1 0x40 MSTORE DUP1 SWAP3 SWAP2 SWAP1 DUP2 DUP2 MSTORE PUSH1 0x20 ADD DUP3 DUP1 SLOAD PUSH2 0x1156 SWAP1 PUSH2 0x3BF8 JUMP JUMPDEST DUP1 ISZERO PUSH2 0x11A3 JUMPI DUP1 PUSH1 0x1F LT PUSH2 0x1178 JUMPI PUSH2 0x100 DUP1 DUP4 SLOAD DIV MUL DUP4 MSTORE SWAP2 PUSH1 0x20 ADD SWAP2 PUSH2 0x11A3 JUMP JUMPDEST DUP3 ADD SWAP2 SWAP1 PUSH1 0x0 MSTORE PUSH1 0x20 PUSH1 0x0 KECCAK256 SWAP1 JUMPDEST DUP2 SLOAD DUP2 MSTORE SWAP1 PUSH1 0x1 ADD SWAP1 PUSH1 0x20 ADD DUP1 DUP4 GT PUSH2 0x1186 JUMPI DUP3 SWAP1 SUB PUSH1 0x1F AND DUP3 ADD SWAP2 JUMPDEST POP POP POP POP POP PUSH2 0x103 PUSH1 0x0 DUP11 DUP2 MSTORE PUSH1 0x20 ADD SWAP1 DUP2 MSTORE PUSH1 0x20 ADD PUSH1 0x0 KECCAK256 PUSH1 0x4 ADD SLOAD DUP9 DUP9 DUP9 DUP9 PUSH2 0xAE5 JUMP JUMPDEST POP POP POP POP POP POP JUMP JUMPDEST PUSH1 0x0 PUSH1 0x1 SWAP1 SLOAD SWAP1 PUSH2 0x100 EXP SWAP1 DIV PUSH1 0xFF AND PUSH2 0x1220 JUMPI PUSH1 0x40 MLOAD PUSH32 0x8C379A000000000000000000000000000000000000000000000000000000000 DUP2 MSTORE PUSH1 0x4 ADD PUSH2 0x1217 SWAP1 PUSH2 0x3FD8 JUMP JUMPDEST PUSH1 0x40 MLOAD DUP1 SWAP2 SUB SWAP1 REVERT JUMPDEST PUSH1 0x0 PUSH20 0xFFFFFFFFFFFFFFFFFFFFFFFFFFFFFFFFFFFFFFFF AND DUP2 PUSH20 0xFFFFFFFFFFFFFFFFFFFFFFFFFFFFFFFFFFFFFFFF AND SUB PUSH2 0x1286 JUMPI PUSH1 0x40 MLOAD PUSH32 0x5415139400000000000000000000000000000000000000000000000000000000 DUP2 MSTORE PUSH1 0x4 ADD PUSH1 0x40 MLOAD DUP1 SWAP2 SUB SWAP1 REVERT JUMPDEST PUSH2 0x128E PUSH2 0x283F JUMP JUMPDEST PUSH2 0x1296 PUSH2 0x2898 JUMP JUMPDEST PUSH2 0x129E PUSH2 0x28E9 JUMP JUMPDEST PUSH2 0x12AF PUSH2 0x12A9 PUSH2 0x2942 JUMP JUMPDEST DUP3 PUSH2 0x23A3 JUMP JUMPDEST PUSH2 0x12C0 PUSH2 0x12BA PUSH2 0x296A JUMP JUMPDEST DUP3 PUSH2 0x23A3 JUMP JUMPDEST PUSH2 0x12D8 PUSH2 0x12CB PUSH2 0x296A JUMP JUMPDEST PUSH2 0x12D3 PUSH2 0x2942 JUMP JUMPDEST PUSH2 0x2992 JUMP JUMPDEST PUSH2 0x12F0 PUSH2 0x12E3 PUSH2 0x2942 JUMP JUMPDEST PUSH2 0x12EB PUSH2 0x2942 JUMP JUMPDEST PUSH2 0x2992 JUMP JUMPDEST POP JUMP JUMPDEST PUSH2 0x12FB PUSH2 0x155C JUMP JUMPDEST PUSH2 0x133A JUMPI PUSH1 0x40 MLOAD PUSH32 0x8C379A000000000000000000000000000000000000000000000000000000000 DUP2 MSTORE PUSH1 0x4 ADD PUSH2 0x1331 SWAP1 PUSH2 0x3A40 JUMP JUMPDEST PUSH1 0x40 MLOAD DUP1 SWAP2 SUB SWAP1 REVERT JUMPDEST PUSH2 0x1342 PUSH2 0x29EE JUMP JUMPDEST JUMP JUMPDEST PUSH2 0x134C PUSH2 0x155C JUMP JUMPDEST PUSH2 0x138B JUMPI PUSH1 0x40 MLOAD PUSH32 0x8C379A000000000000000000000000000000000000000000000000000000000 DUP2 MSTORE PUSH1 0x4 ADD PUSH2 0x1382 SWAP1 PUSH2 0x3A40 JUMP JUMPDEST PUSH1 0x40 MLOAD DUP1 SWAP2 SUB SWAP1 REVERT JUMPDEST PUSH2 0xE10 DUP2 PUSH2 0x1399 SWAP2 SWAP1 PUSH2 0x3FF8 JUMP JUMPDEST PUSH2 0x103 PUSH1 0x0 DUP5 DUP2 MSTORE PUSH1 0x20 ADD SWAP1 DUP2 MSTORE PUSH1 0x20 ADD PUSH1 0x0 KECCAK256 PUSH1 0x7 ADD PUSH1 0x0 DUP5 DUP2 MSTORE PUSH1 0x20 ADD SWAP1 DUP2 MSTORE PUSH1 0x20 ADD PUSH1 0x0 KECCAK256 PUSH1 0x1 ADD DUP2 SWAP1 SSTORE POP POP POP JUMP JUMPDEST PUSH1 0x0 PUSH1 0x97 PUSH1 0x0 DUP5 DUP2 MSTORE PUSH1 0x20 ADD SWAP1 DUP2 MSTORE PUSH1 0x20 ADD PUSH1 0x0 KECCAK256 PUSH1 0x0 ADD PUSH1 0x0 DUP4 PUSH20 0xFFFFFFFFFFFFFFFFFFFFFFFFFFFFFFFFFFFFFFFF AND PUSH20 0xFFFFFFFFFFFFFFFFFFFFFFFFFFFFFFFFFFFFFFFF AND DUP2 MSTORE PUSH1 0x20 ADD SWAP1 DUP2 MSTORE PUSH1 0x20 ADD PUSH1 0x0 KECCAK256 PUSH1 0x0 SWAP1 SLOAD SWAP1 PUSH2 0x100 EXP SWAP1 DIV PUSH1 0xFF AND SWAP1 POP SWAP3 SWAP2 POP POP JUMP JUMPDEST PUSH1 0x0 DUP1 SHL DUP2 JUMP JUMPDEST PUSH2 0x103 PUSH1 0x20 MSTORE DUP1 PUSH1 0x0 MSTORE PUSH1 0x40 PUSH1 0x0 KECCAK256 PUSH1 0x0 SWAP2 POP SWAP1 POP DUP1 PUSH1 0x0 ADD PUSH1 0x0 SWAP1 SLOAD SWAP1 PUSH2 0x100 EXP SWAP1 DIV PUSH20 0xFFFFFFFFFFFFFFFFFFFFFFFFFFFFFFFFFFFFFFFF AND SWAP1 DUP1 PUSH1 0x1 ADD SLOAD SWAP1 DUP1 PUSH1 0x2 ADD SLOAD SWAP1 DUP1 PUSH1 0x3 ADD SLOAD SWAP1 DUP1 PUSH1 0x4 ADD SLOAD SWAP1 DUP1 PUSH1 0x5 ADD DUP1 SLOAD PUSH2 0x14A0 SWAP1 PUSH2 0x3BF8 JUMP JUMPDEST DUP1 PUSH1 0x1F ADD PUSH1 0x20 DUP1 SWAP2 DIV MUL PUSH1 0x20 ADD PUSH1 0x40 MLOAD SWAP1 DUP2 ADD PUSH1 0x40 MSTORE DUP1 SWAP3 SWAP2 SWAP1 DUP2 DUP2 MSTORE PUSH1 0x20 ADD DUP3 DUP1 SLOAD PUSH2 0x14CC SWAP1 PUSH2 0x3BF8 JUMP JUMPDEST DUP1 ISZERO PUSH2 0x1519 JUMPI DUP1 PUSH1 0x1F LT PUSH2 0x14EE JUMPI PUSH2 0x100 DUP1 DUP4 SLOAD DIV MUL DUP4 MSTORE SWAP2 PUSH1 0x20 ADD SWAP2 PUSH2 0x1519 JUMP JUMPDEST DUP3 ADD SWAP2 SWAP1 PUSH1 0x0 MSTORE PUSH1 0x20 PUSH1 0x0 KECCAK256 SWAP1 JUMPDEST DUP2 SLOAD DUP2 MSTORE SWAP1 PUSH1 0x1 ADD SWAP1 PUSH1 0x20 ADD DUP1 DUP4 GT PUSH2 0x14FC JUMPI DUP3 SWAP1 SUB PUSH1 0x1F AND DUP3 ADD SWAP2 JUMPDEST POP POP POP POP POP SWAP1 DUP1 PUSH1 0x6 ADD PUSH1 0x0 SWAP1 SLOAD SWAP1 PUSH2 0x100 EXP SWAP1 DIV PUSH1 0xFF AND SWAP1 DUP1 PUSH1 0x6 ADD PUSH1 0x1 SWAP1 SLOAD SWAP1 PUSH2 0x100 EXP SWAP1 DIV PUSH1 0xFF AND SWAP1 DUP1 PUSH1 0x6 ADD PUSH1 0x2 SWAP1 SLOAD SWAP1 PUSH2 0x100 EXP SWAP1 DIV PUSH1 0xFF AND SWAP1 POP DUP10 JUMP JUMPDEST PUSH1 0x0 PUSH2 0x1576 PUSH2 0x1569 PUSH2 0x2942 JUMP JUMPDEST PUSH2 0x1571 PUSH2 0x2387 JUMP JUMPDEST PUSH2 0x13CC JUMP JUMPDEST SWAP1 POP SWAP1 JUMP JUMPDEST PUSH2 0x104 PUSH1 0x20 MSTORE DUP1 PUSH1 0x0 MSTORE PUSH1 0x40 PUSH1 0x0 KECCAK256 PUSH1 0x0 SWAP2 POP SWAP1 POP SLOAD DUP2 JUMP JUMPDEST PUSH2 0x102 PUSH1 0x20 MSTORE DUP1 PUSH1 0x0 MSTORE PUSH1 0x40 PUSH1 0x0 KECCAK256 PUSH1 0x0 SWAP2 POP SLOAD SWAP1 PUSH2 0x100 EXP SWAP1 DIV PUSH1 0xFF AND DUP2 JUMP JUMPDEST PUSH2 0x15BD PUSH2 0x155C JUMP JUMPDEST PUSH2 0x15FC JUMPI PUSH1 0x40 MLOAD PUSH32 0x8C379A000000000000000000000000000000000000000000000000000000000 DUP2 MSTORE PUSH1 0x4 ADD PUSH2 0x15F3 SWAP1 PUSH2 0x3A40 JUMP JUMPDEST PUSH1 0x40 MLOAD DUP1 SWAP2 SUB SWAP1 REVERT JUMPDEST DUP1 PUSH1 0xFC DUP2 SWAP1 SSTORE POP POP JUMP JUMPDEST PUSH2 0x105 PUSH1 0x20 MSTORE DUP2 PUSH1 0x0 MSTORE PUSH1 0x40 PUSH1 0x0 KECCAK256 PUSH1 0x20 MSTORE DUP1 PUSH1 0x0 MSTORE PUSH1 0x40 PUSH1 0x0 KECCAK256 PUSH1 0x0 SWAP2 POP SWAP2 POP POP SLOAD DUP2 JUMP JUMPDEST PUSH1 0x0 TIMESTAMP PUSH2 0x103 PUSH1 0x0 DUP6 DUP2 MSTORE PUSH1 0x20 ADD SWAP1 DUP2 MSTORE PUSH1 0x20 ADD PUSH1 0x0 KECCAK256 PUSH1 0x7 ADD PUSH1 0x0 DUP6 DUP2 MSTORE PUSH1 0x20 ADD SWAP1 DUP2 MSTORE PUSH1 0x20 ADD PUSH1 0x0 KECCAK256 PUSH1 0x0 ADD SLOAD GT ISZERO PUSH2 0x1693 JUMPI PUSH1 0x40 MLOAD PUSH32 0xEE6C0E1400000000000000000000000000000000000000000000000000000000 DUP2 MSTORE PUSH1 0x4 ADD PUSH1 0x40 MLOAD DUP1 SWAP2 SUB SWAP1 REVERT JUMPDEST PUSH2 0x103 PUSH1 0x0 DUP5 DUP2 MSTORE PUSH1 0x20 ADD SWAP1 DUP2 MSTORE PUSH1 0x20 ADD PUSH1 0x0 KECCAK256 PUSH1 0x8 ADD PUSH1 0x0 PUSH2 0x16B4 PUSH2 0x2387 JUMP JUMPDEST PUSH20 0xFFFFFFFFFFFFFFFFFFFFFFFFFFFFFFFFFFFFFFFF AND PUSH20 0xFFFFFFFFFFFFFFFFFFFFFFFFFFFFFFFFFFFFFFFF AND DUP2 MSTORE PUSH1 0x20 ADD SWAP1 DUP2 MSTORE PUSH1 0x20 ADD PUSH1 0x0 KECCAK256 PUSH1 0x0 ADD PUSH1 0x0 SWAP1 SLOAD SWAP1 PUSH2 0x100 EXP SWAP1 DIV PUSH1 0xFF AND ISZERO PUSH2 0x1736 JUMPI PUSH1 0x40 MLOAD PUSH32 0xE88A652B00000000000000000000000000000000000000000000000000000000 DUP2 MSTORE PUSH1 0x4 ADD PUSH1 0x40 MLOAD DUP1 SWAP2 SUB SWAP1 REVERT JUMPDEST TIMESTAMP PUSH2 0x103 PUSH1 0x0 DUP6 DUP2 MSTORE PUSH1 0x20 ADD SWAP1 DUP2 MSTORE PUSH1 0x20 ADD PUSH1 0x0 KECCAK256 PUSH1 0x7 ADD PUSH1 0x0 DUP6 DUP2 MSTORE PUSH1 0x20 ADD SWAP1 DUP2 MSTORE PUSH1 0x20 ADD PUSH1 0x0 KECCAK256 PUSH1 0x1 ADD SLOAD LT ISZERO PUSH2 0x179B JUMPI PUSH1 0x40 MLOAD PUSH32 0xD6DB172200000000000000000000000000000000000000000000000000000000 DUP2 MSTORE PUSH1 0x4 ADD PUSH1 0x40 MLOAD DUP1 SWAP2 SUB SWAP1 REVERT JUMPDEST DUP2 PUSH2 0x103 PUSH1 0x0 DUP6 DUP2 MSTORE PUSH1 0x20 ADD SWAP1 DUP2 MSTORE PUSH1 0x20 ADD PUSH1 0x0 KECCAK256 PUSH1 0x8 ADD PUSH1 0x0 PUSH2 0x17BD PUSH2 0x2387 JUMP JUMPDEST PUSH20 0xFFFFFFFFFFFFFFFFFFFFFFFFFFFFFFFFFFFFFFFF AND PUSH20 0xFFFFFFFFFFFFFFFFFFFFFFFFFFFFFFFFFFFFFFFF AND DUP2 MSTORE PUSH1 0x20 ADD SWAP1 DUP2 MSTORE PUSH1 0x20 ADD PUSH1 0x0 KECCAK256 PUSH1 0x0 ADD PUSH1 0x1 PUSH2 0x100 EXP DUP2 SLOAD DUP2 PUSH1 0xFF MUL NOT AND SWAP1 DUP4 ISZERO ISZERO MUL OR SWAP1 SSTORE POP PUSH2 0x100 PUSH1 0x0 SWAP1 SLOAD SWAP1 PUSH2 0x100 EXP SWAP1 DIV PUSH20 0xFFFFFFFFFFFFFFFFFFFFFFFFFFFFFFFFFFFFFFFF AND PUSH20 0xFFFFFFFFFFFFFFFFFFFFFFFFFFFFFFFFFFFFFFFF AND PUSH4 0x70A08231 PUSH2 0x1858 PUSH2 0x2387 JUMP JUMPDEST PUSH1 0x40 MLOAD DUP3 PUSH4 0xFFFFFFFF AND PUSH1 0xE0 SHL DUP2 MSTORE PUSH1 0x4 ADD PUSH2 0x1874 SWAP2 SWAP1 PUSH2 0x4052 JUMP JUMPDEST PUSH1 0x20 PUSH1 0x40 MLOAD DUP1 DUP4 SUB DUP2 DUP7 GAS STATICCALL ISZERO DUP1 ISZERO PUSH2 0x1891 JUMPI RETURNDATASIZE PUSH1 0x0 DUP1 RETURNDATACOPY RETURNDATASIZE PUSH1 0x0 REVERT JUMPDEST POP POP POP POP PUSH1 0x40 MLOAD RETURNDATASIZE PUSH1 0x1F NOT PUSH1 0x1F DUP3 ADD AND DUP3 ADD DUP1 PUSH1 0x40 MSTORE POP DUP2 ADD SWAP1 PUSH2 0x18B5 SWAP2 SWAP1 PUSH2 0x4082 JUMP JUMPDEST PUSH2 0x103 PUSH1 0x0 DUP6 DUP2 MSTORE PUSH1 0x20 ADD SWAP1 DUP2 MSTORE PUSH1 0x20 ADD PUSH1 0x0 KECCAK256 PUSH1 0x8 ADD PUSH1 0x0 PUSH2 0x18D6 PUSH2 0x2387 JUMP JUMPDEST PUSH20 0xFFFFFFFFFFFFFFFFFFFFFFFFFFFFFFFFFFFFFFFF AND PUSH20 0xFFFFFFFFFFFFFFFFFFFFFFFFFFFFFFFFFFFFFFFF AND DUP2 MSTORE PUSH1 0x20 ADD SWAP1 DUP2 MSTORE PUSH1 0x20 ADD PUSH1 0x0 KECCAK256 PUSH1 0x1 ADD DUP2 SWAP1 SSTORE POP PUSH1 0x1 PUSH2 0x103 PUSH1 0x0 DUP6 DUP2 MSTORE PUSH1 0x20 ADD SWAP1 DUP2 MSTORE PUSH1 0x20 ADD PUSH1 0x0 KECCAK256 PUSH1 0x8 ADD PUSH1 0x0 PUSH2 0x193A PUSH2 0x2387 JUMP JUMPDEST PUSH20 0xFFFFFFFFFFFFFFFFFFFFFFFFFFFFFFFFFFFFFFFF AND PUSH20 0xFFFFFFFFFFFFFFFFFFFFFFFFFFFFFFFFFFFFFFFF AND DUP2 MSTORE PUSH1 0x20 ADD SWAP1 DUP2 MSTORE PUSH1 0x20 ADD PUSH1 0x0 KECCAK256 PUSH1 0x0 ADD PUSH1 0x0 PUSH2 0x100 EXP DUP2 SLOAD DUP2 PUSH1 0xFF MUL NOT AND SWAP1 DUP4 ISZERO ISZERO MUL OR SWAP1 SSTORE POP PUSH2 0x102 PUSH1 0x0 PUSH2 0x199B PUSH2 0x2387 JUMP JUMPDEST PUSH20 0xFFFFFFFFFFFFFFFFFFFFFFFFFFFFFFFFFFFFFFFF AND PUSH20 0xFFFFFFFFFFFFFFFFFFFFFFFFFFFFFFFFFFFFFFFF AND DUP2 MSTORE PUSH1 0x20 ADD SWAP1 DUP2 MSTORE PUSH1 0x20 ADD PUSH1 0x0 KECCAK256 PUSH1 0x0 SWAP1 SLOAD SWAP1 PUSH2 0x100 EXP SWAP1 DIV PUSH1 0xFF AND DUP1 ISZERO PUSH2 0x1A1A JUMPI POP PUSH1 0x2 PUSH2 0x103 PUSH1 0x0 DUP6 DUP2 MSTORE PUSH1 0x20 ADD SWAP1 DUP2 MSTORE PUSH1 0x20 ADD PUSH1 0x0 KECCAK256 PUSH1 0x7 ADD PUSH1 0x0 DUP6 DUP2 MSTORE PUSH1 0x20 ADD SWAP1 DUP2 MSTORE PUSH1 0x20 ADD PUSH1 0x0 KECCAK256 PUSH1 0x6 ADD SLOAD EQ JUMPDEST ISZERO PUSH2 0x1B70 JUMPI DUP2 ISZERO PUSH2 0x1ACA JUMPI PUSH2 0x103 PUSH1 0x0 DUP5 DUP2 MSTORE PUSH1 0x20 ADD SWAP1 DUP2 MSTORE PUSH1 0x20 ADD PUSH1 0x0 KECCAK256 PUSH1 0x8 ADD PUSH1 0x0 PUSH2 0x1A46 PUSH2 0x2387 JUMP JUMPDEST PUSH20 0xFFFFFFFFFFFFFFFFFFFFFFFFFFFFFFFFFFFFFFFF AND PUSH20 0xFFFFFFFFFFFFFFFFFFFFFFFFFFFFFFFFFFFFFFFF AND DUP2 MSTORE PUSH1 0x20 ADD SWAP1 DUP2 MSTORE PUSH1 0x20 ADD PUSH1 0x0 KECCAK256 PUSH1 0x1 ADD SLOAD PUSH2 0x103 PUSH1 0x0 DUP6 DUP2 MSTORE PUSH1 0x20 ADD SWAP1 DUP2 MSTORE PUSH1 0x20 ADD PUSH1 0x0 KECCAK256 PUSH1 0x7 ADD PUSH1 0x0 DUP6 DUP2 MSTORE PUSH1 0x20 ADD SWAP1 DUP2 MSTORE PUSH1 0x20 ADD PUSH1 0x0 KECCAK256 PUSH1 0x4 ADD PUSH1 0x0 DUP3 DUP3 SLOAD PUSH2 0x1ABE SWAP2 SWAP1 PUSH2 0x3E9D JUMP JUMPDEST SWAP3 POP POP DUP2 SWAP1 SSTORE POP PUSH2 0x1B6B JUMP JUMPDEST PUSH2 0x103 PUSH1 0x0 DUP5 DUP2 MSTORE PUSH1 0x20 ADD SWAP1 DUP2 MSTORE PUSH1 0x20 ADD PUSH1 0x0 KECCAK256 PUSH1 0x8 ADD PUSH1 0x0 PUSH2 0x1AEB PUSH2 0x2387 JUMP JUMPDEST PUSH20 0xFFFFFFFFFFFFFFFFFFFFFFFFFFFFFFFFFFFFFFFF AND PUSH20 0xFFFFFFFFFFFFFFFFFFFFFFFFFFFFFFFFFFFFFFFF AND DUP2 MSTORE PUSH1 0x20 ADD SWAP1 DUP2 MSTORE PUSH1 0x20 ADD PUSH1 0x0 KECCAK256 PUSH1 0x1 ADD SLOAD PUSH2 0x103 PUSH1 0x0 DUP6 DUP2 MSTORE PUSH1 0x20 ADD SWAP1 DUP2 MSTORE PUSH1 0x20 ADD PUSH1 0x0 KECCAK256 PUSH1 0x7 ADD PUSH1 0x0 DUP6 DUP2 MSTORE PUSH1 0x20 ADD SWAP1 DUP2 MSTORE PUSH1 0x20 ADD PUSH1 0x0 KECCAK256 PUSH1 0x5 ADD PUSH1 0x0 DUP3 DUP3 SLOAD PUSH2 0x1B63 SWAP2 SWAP1 PUSH2 0x3E9D JUMP JUMPDEST SWAP3 POP POP DUP2 SWAP1 SSTORE POP JUMPDEST PUSH2 0x1CBD JUMP JUMPDEST DUP2 ISZERO PUSH2 0x1C1B JUMPI PUSH2 0x103 PUSH1 0x0 DUP5 DUP2 MSTORE PUSH1 0x20 ADD SWAP1 DUP2 MSTORE PUSH1 0x20 ADD PUSH1 0x0 KECCAK256 PUSH1 0x8 ADD PUSH1 0x0 PUSH2 0x1B97 PUSH2 0x2387 JUMP JUMPDEST PUSH20 0xFFFFFFFFFFFFFFFFFFFFFFFFFFFFFFFFFFFFFFFF AND PUSH20 0xFFFFFFFFFFFFFFFFFFFFFFFFFFFFFFFFFFFFFFFF AND DUP2 MSTORE PUSH1 0x20 ADD SWAP1 DUP2 MSTORE PUSH1 0x20 ADD PUSH1 0x0 KECCAK256 PUSH1 0x1 ADD SLOAD PUSH2 0x103 PUSH1 0x0 DUP6 DUP2 MSTORE PUSH1 0x20 ADD SWAP1 DUP2 MSTORE PUSH1 0x20 ADD PUSH1 0x0 KECCAK256 PUSH1 0x7 ADD PUSH1 0x0 DUP6 DUP2 MSTORE PUSH1 0x20 ADD SWAP1 DUP2 MSTORE PUSH1 0x20 ADD PUSH1 0x0 KECCAK256 PUSH1 0x2 ADD PUSH1 0x0 DUP3 DUP3 SLOAD PUSH2 0x1C0F SWAP2 SWAP1 PUSH2 0x3E9D JUMP JUMPDEST SWAP3 POP POP DUP2 SWAP1 SSTORE POP PUSH2 0x1CBC JUMP JUMPDEST PUSH2 0x103 PUSH1 0x0 DUP5 DUP2 MSTORE PUSH1 0x20 ADD SWAP1 DUP2 MSTORE PUSH1 0x20 ADD PUSH1 0x0 KECCAK256 PUSH1 0x8 ADD PUSH1 0x0 PUSH2 0x1C3C PUSH2 0x2387 JUMP JUMPDEST PUSH20 0xFFFFFFFFFFFFFFFFFFFFFFFFFFFFFFFFFFFFFFFF AND PUSH20 0xFFFFFFFFFFFFFFFFFFFFFFFFFFFFFFFFFFFFFFFF AND DUP2 MSTORE PUSH1 0x20 ADD SWAP1 DUP2 MSTORE PUSH1 0x20 ADD PUSH1 0x0 KECCAK256 PUSH1 0x1 ADD SLOAD PUSH2 0x103 PUSH1 0x0 DUP6 DUP2 MSTORE PUSH1 0x20 ADD SWAP1 DUP2 MSTORE PUSH1 0x20 ADD PUSH1 0x0 KECCAK256 PUSH1 0x7 ADD PUSH1 0x0 DUP6 DUP2 MSTORE PUSH1 0x20 ADD SWAP1 DUP2 MSTORE PUSH1 0x20 ADD PUSH1 0x0 KECCAK256 PUSH1 0x3 ADD PUSH1 0x0 DUP3 DUP3 SLOAD PUSH2 0x1CB4 SWAP2 SWAP1 PUSH2 0x3E9D JUMP JUMPDEST SWAP3 POP POP DUP2 SWAP1 SSTORE POP JUMPDEST JUMPDEST PUSH1 0x1 SWAP1 POP SWAP3 SWAP2 POP POP JUMP JUMPDEST PUSH1 0x0 TIMESTAMP PUSH1 0x3C PUSH2 0x103 PUSH1 0x0 DUP6 DUP2 MSTORE PUSH1 0x20 ADD SWAP1 DUP2 MSTORE PUSH1 0x20 ADD PUSH1 0x0 KECCAK256 PUSH1 0x7 ADD PUSH1 0x0 DUP6 DUP2 MSTORE PUSH1 0x20 ADD SWAP1 DUP2 MSTORE PUSH1 0x20 ADD PUSH1 0x0 KECCAK256 PUSH1 0x1 ADD SLOAD PUSH2 0x1D02 SWAP2 SWAP1 PUSH2 0x3E9D JUMP JUMPDEST GT ISZERO PUSH2 0x1D3A JUMPI PUSH1 0x40 MLOAD PUSH32 0x449A56BC00000000000000000000000000000000000000000000000000000000 DUP2 MSTORE PUSH1 0x4 ADD PUSH1 0x40 MLOAD DUP1 SWAP2 SUB SWAP1 REVERT JUMPDEST PUSH2 0x103 PUSH1 0x0 DUP4 DUP2 MSTORE PUSH1 0x20 ADD SWAP1 DUP2 MSTORE PUSH1 0x20 ADD PUSH1 0x0 KECCAK256 PUSH1 0x6 ADD PUSH1 0x2 SWAP1 SLOAD SWAP1 PUSH2 0x100 EXP SWAP1 DIV PUSH1 0xFF AND ISZERO PUSH2 0x1D96 JUMPI PUSH1 0x40 MLOAD PUSH32 0x34E3808E00000000000000000000000000000000000000000000000000000000 DUP2 MSTORE PUSH1 0x4 ADD PUSH1 0x40 MLOAD DUP1 SWAP2 SUB SWAP1 REVERT JUMPDEST PUSH1 0x0 PUSH2 0x103 PUSH1 0x0 DUP5 DUP2 MSTORE PUSH1 0x20 ADD SWAP1 DUP2 MSTORE PUSH1 0x20 ADD PUSH1 0x0 KECCAK256 PUSH1 0x7 ADD PUSH1 0x0 DUP5 DUP2 MSTORE PUSH1 0x20 ADD SWAP1 DUP2 MSTORE PUSH1 0x20 ADD PUSH1 0x0 KECCAK256 PUSH1 0x3 ADD SLOAD PUSH2 0x103 PUSH1 0x0 DUP6 DUP2 MSTORE PUSH1 0x20 ADD SWAP1 DUP2 MSTORE PUSH1 0x20 ADD PUSH1 0x0 KECCAK256 PUSH1 0x7 ADD PUSH1 0x0 DUP6 DUP2 MSTORE PUSH1 0x20 ADD SWAP1 DUP2 MSTORE PUSH1 0x20 ADD PUSH1 0x0 KECCAK256 PUSH1 0x2 ADD SLOAD PUSH2 0x1DFA SWAP2 SWAP1 PUSH2 0x3E9D JUMP JUMPDEST SWAP1 POP PUSH1 0x2 PUSH2 0x103 PUSH1 0x0 DUP6 DUP2 MSTORE PUSH1 0x20 ADD SWAP1 DUP2 MSTORE PUSH1 0x20 ADD PUSH1 0x0 KECCAK256 PUSH1 0x7 ADD PUSH1 0x0 DUP6 DUP2 MSTORE PUSH1 0x20 ADD SWAP1 DUP2 MSTORE PUSH1 0x20 ADD PUSH1 0x0 KECCAK256 PUSH1 0x6 ADD SLOAD SUB PUSH2 0x20BA JUMPI PUSH1 0x0 PUSH2 0x103 PUSH1 0x0 DUP6 DUP2 MSTORE PUSH1 0x20 ADD SWAP1 DUP2 MSTORE PUSH1 0x20 ADD PUSH1 0x0 KECCAK256 PUSH1 0x7 ADD PUSH1 0x0 DUP6 DUP2 MSTORE PUSH1 0x20 ADD SWAP1 DUP2 MSTORE PUSH1 0x20 ADD PUSH1 0x0 KECCAK256 PUSH1 0x5 ADD SLOAD PUSH2 0x103 PUSH1 0x0 DUP7 DUP2 MSTORE PUSH1 0x20 ADD SWAP1 DUP2 MSTORE PUSH1 0x20 ADD PUSH1 0x0 KECCAK256 PUSH1 0x7 ADD PUSH1 0x0 DUP7 DUP2 MSTORE PUSH1 0x20 ADD SWAP1 DUP2 MSTORE PUSH1 0x20 ADD PUSH1 0x0 KECCAK256 PUSH1 0x4 ADD SLOAD PUSH2 0x1E93 SWAP2 SWAP1 PUSH2 0x3E9D JUMP JUMPDEST SWAP1 POP PUSH1 0x0 PUSH2 0x103 PUSH1 0x0 DUP7 DUP2 MSTORE PUSH1 0x20 ADD SWAP1 DUP2 MSTORE PUSH1 0x20 ADD PUSH1 0x0 KECCAK256 PUSH1 0x7 ADD PUSH1 0x0 DUP7 DUP2 MSTORE PUSH1 0x20 ADD SWAP1 DUP2 MSTORE PUSH1 0x20 ADD PUSH1 0x0 KECCAK256 PUSH1 0x5 ADD SLOAD PUSH2 0x103 PUSH1 0x0 DUP8 DUP2 MSTORE PUSH1 0x20 ADD SWAP1 DUP2 MSTORE PUSH1 0x20 ADD PUSH1 0x0 KECCAK256 PUSH1 0x7 ADD PUSH1 0x0 DUP8 DUP2 MSTORE PUSH1 0x20 ADD SWAP1 DUP2 MSTORE PUSH1 0x20 ADD PUSH1 0x0 KECCAK256 PUSH1 0x4 ADD SLOAD LT ISZERO PUSH2 0x1EFC JUMPI PUSH1 0x0 PUSH2 0x1F44 JUMP JUMPDEST DUP2 PUSH1 0x64 PUSH2 0x103 PUSH1 0x0 PUSH1 0xFB SLOAD DUP2 MSTORE PUSH1 0x20 ADD SWAP1 DUP2 MSTORE PUSH1 0x20 ADD PUSH1 0x0 KECCAK256 PUSH1 0x7 ADD PUSH1 0x0 PUSH1 0xFB SLOAD DUP2 MSTORE PUSH1 0x20 ADD SWAP1 DUP2 MSTORE PUSH1 0x20 ADD PUSH1 0x0 KECCAK256 PUSH1 0x2 ADD SLOAD PUSH2 0x1F39 SWAP2 SWAP1 PUSH2 0x3FF8 JUMP JUMPDEST PUSH2 0x1F43 SWAP2 SWAP1 PUSH2 0x40DE JUMP JUMPDEST JUMPDEST SWAP1 POP PUSH1 0x3B DUP2 LT PUSH2 0x2082 JUMPI PUSH1 0x0 PUSH2 0x103 PUSH1 0x0 DUP8 DUP2 MSTORE PUSH1 0x20 ADD SWAP1 DUP2 MSTORE PUSH1 0x20 ADD PUSH1 0x0 KECCAK256 PUSH1 0x7 ADD PUSH1 0x0 DUP8 DUP2 MSTORE PUSH1 0x20 ADD SWAP1 DUP2 MSTORE PUSH1 0x20 ADD PUSH1 0x0 KECCAK256 PUSH1 0x3 ADD SLOAD PUSH2 0x103 PUSH1 0x0 DUP9 DUP2 MSTORE PUSH1 0x20 ADD SWAP1 DUP2 MSTORE PUSH1 0x20 ADD PUSH1 0x0 KECCAK256 PUSH1 0x7 ADD PUSH1 0x0 DUP9 DUP2 MSTORE PUSH1 0x20 ADD SWAP1 DUP2 MSTORE PUSH1 0x20 ADD PUSH1 0x0 KECCAK256 PUSH1 0x2 ADD SLOAD GT PUSH2 0x1FB4 JUMPI PUSH1 0x1 PUSH2 0x1FF8 JUMP JUMPDEST DUP4 PUSH1 0x64 PUSH2 0x103 PUSH1 0x0 DUP10 DUP2 MSTORE PUSH1 0x20 ADD SWAP1 DUP2 MSTORE PUSH1 0x20 ADD PUSH1 0x0 KECCAK256 PUSH1 0x7 ADD PUSH1 0x0 DUP10 DUP2 MSTORE PUSH1 0x20 ADD SWAP1 DUP2 MSTORE PUSH1 0x20 ADD PUSH1 0x0 KECCAK256 PUSH1 0x2 ADD SLOAD PUSH2 0x1FED SWAP2 SWAP1 PUSH2 0x3FF8 JUMP JUMPDEST PUSH2 0x1FF7 SWAP2 SWAP1 PUSH2 0x40DE JUMP JUMPDEST JUMPDEST SWAP1 POP PUSH1 0x0 PUSH1 0x64 PUSH1 0x33 DUP4 PUSH2 0x200B SWAP2 SWAP1 PUSH2 0x3FF8 JUMP JUMPDEST PUSH2 0x2015 SWAP2 SWAP1 PUSH2 0x40DE JUMP JUMPDEST PUSH1 0x64 PUSH1 0x31 DUP6 PUSH2 0x2024 SWAP2 SWAP1 PUSH2 0x3FF8 JUMP JUMPDEST PUSH2 0x202E SWAP2 SWAP1 PUSH2 0x40DE JUMP JUMPDEST PUSH2 0x2038 SWAP2 SWAP1 PUSH2 0x3E9D JUMP JUMPDEST SWAP1 POP PUSH1 0x50 DUP2 LT ISZERO PUSH2 0x204A JUMPI PUSH1 0x0 PUSH2 0x204D JUMP JUMPDEST PUSH1 0x1 JUMPDEST PUSH2 0x103 PUSH1 0x0 DUP10 DUP2 MSTORE PUSH1 0x20 ADD SWAP1 DUP2 MSTORE PUSH1 0x20 ADD PUSH1 0x0 KECCAK256 PUSH1 0x6 ADD PUSH1 0x1 PUSH2 0x100 EXP DUP2 SLOAD DUP2 PUSH1 0xFF MUL NOT AND SWAP1 DUP4 ISZERO ISZERO MUL OR SWAP1 SSTORE POP POP POP PUSH2 0x20B3 JUMP JUMPDEST PUSH1 0x0 PUSH2 0x103 PUSH1 0x0 DUP8 DUP2 MSTORE PUSH1 0x20 ADD SWAP1 DUP2 MSTORE PUSH1 0x20 ADD PUSH1 0x0 KECCAK256 PUSH1 0x6 ADD PUSH1 0x1 PUSH2 0x100 EXP DUP2 SLOAD DUP2 PUSH1 0xFF MUL NOT AND SWAP1 DUP4 ISZERO ISZERO MUL OR SWAP1 SSTORE POP JUMPDEST POP POP PUSH2 0x21A9 JUMP JUMPDEST PUSH1 0x0 PUSH2 0x103 PUSH1 0x0 DUP6 DUP2 MSTORE PUSH1 0x20 ADD SWAP1 DUP2 MSTORE PUSH1 0x20 ADD PUSH1 0x0 KECCAK256 PUSH1 0x7 ADD PUSH1 0x0 DUP6 DUP2 MSTORE PUSH1 0x20 ADD SWAP1 DUP2 MSTORE PUSH1 0x20 ADD PUSH1 0x0 KECCAK256 PUSH1 0x3 ADD SLOAD PUSH2 0x103 PUSH1 0x0 DUP7 DUP2 MSTORE PUSH1 0x20 ADD SWAP1 DUP2 MSTORE PUSH1 0x20 ADD PUSH1 0x0 KECCAK256 PUSH1 0x7 ADD PUSH1 0x0 DUP7 DUP2 MSTORE PUSH1 0x20 ADD SWAP1 DUP2 MSTORE PUSH1 0x20 ADD PUSH1 0x0 KECCAK256 PUSH1 0x2 ADD SLOAD GT PUSH2 0x2120 JUMPI PUSH1 0x1 PUSH2 0x2164 JUMP JUMPDEST DUP2 PUSH1 0x64 PUSH2 0x103 PUSH1 0x0 DUP8 DUP2 MSTORE PUSH1 0x20 ADD SWAP1 DUP2 MSTORE PUSH1 0x20 ADD PUSH1 0x0 KECCAK256 PUSH1 0x7 ADD PUSH1 0x0 DUP8 DUP2 MSTORE PUSH1 0x20 ADD SWAP1 DUP2 MSTORE PUSH1 0x20 ADD PUSH1 0x0 KECCAK256 PUSH1 0x2 ADD SLOAD PUSH2 0x2159 SWAP2 SWAP1 PUSH2 0x3FF8 JUMP JUMPDEST PUSH2 0x2163 SWAP2 SWAP1 PUSH2 0x40DE JUMP JUMPDEST JUMPDEST SWAP1 POP PUSH1 0x50 DUP2 LT ISZERO PUSH2 0x2176 JUMPI PUSH1 0x0 PUSH2 0x2179 JUMP JUMPDEST PUSH1 0x1 JUMPDEST PUSH2 0x103 PUSH1 0x0 DUP7 DUP2 MSTORE PUSH1 0x20 ADD SWAP1 DUP2 MSTORE PUSH1 0x20 ADD PUSH1 0x0 KECCAK256 PUSH1 0x6 ADD PUSH1 0x1 PUSH2 0x100 EXP DUP2 SLOAD DUP2 PUSH1 0xFF MUL NOT AND SWAP1 DUP4 ISZERO ISZERO MUL OR SWAP1 SSTORE POP POP JUMPDEST PUSH1 0x1 PUSH2 0x103 PUSH1 0x0 DUP6 DUP2 MSTORE PUSH1 0x20 ADD SWAP1 DUP2 MSTORE PUSH1 0x20 ADD PUSH1 0x0 KECCAK256 PUSH1 0x6 ADD PUSH1 0x0 PUSH2 0x100 EXP DUP2 SLOAD DUP2 PUSH1 0xFF MUL NOT AND SWAP1 DUP4 ISZERO ISZERO MUL OR SWAP1 SSTORE POP PUSH2 0x103 PUSH1 0x0 DUP5 DUP2 MSTORE PUSH1 0x20 ADD SWAP1 DUP2 MSTORE PUSH1 0x20 ADD PUSH1 0x0 KECCAK256 PUSH1 0x6 ADD PUSH1 0x1 SWAP1 SLOAD SWAP1 PUSH2 0x100 EXP SWAP1 DIV PUSH1 0xFF AND ISZERO PUSH2 0x22D2 JUMPI PUSH1 0x0 PUSH1 0x1 PUSH2 0x103 PUSH1 0x0 DUP7 DUP2 MSTORE PUSH1 0x20 ADD SWAP1 DUP2 MSTORE PUSH1 0x20 ADD PUSH1 0x0 KECCAK256 PUSH1 0x7 ADD PUSH1 0x0 DUP7 DUP2 MSTORE PUSH1 0x20 ADD SWAP1 DUP2 MSTORE PUSH1 0x20 ADD PUSH1 0x0 KECCAK256 PUSH1 0x6 ADD SLOAD PUSH2 0x223D SWAP2 SWAP1 PUSH2 0x3E9D JUMP JUMPDEST PUSH1 0xFC SLOAD PUSH2 0x224A SWAP2 SWAP1 PUSH2 0x3FF8 JUMP JUMPDEST SWAP1 POP PUSH2 0x22D0 PUSH2 0x103 PUSH1 0x0 DUP7 DUP2 MSTORE PUSH1 0x20 ADD SWAP1 DUP2 MSTORE PUSH1 0x20 ADD PUSH1 0x0 KECCAK256 PUSH1 0x0 ADD PUSH1 0x0 SWAP1 SLOAD SWAP1 PUSH2 0x100 EXP SWAP1 DIV PUSH20 0xFFFFFFFFFFFFFFFFFFFFFFFFFFFFFFFFFFFFFFFF AND DUP3 PUSH1 0xFE PUSH1 0x0 SWAP1 SLOAD SWAP1 PUSH2 0x100 EXP SWAP1 DIV PUSH20 0xFFFFFFFFFFFFFFFFFFFFFFFFFFFFFFFFFFFFFFFF AND PUSH20 0xFFFFFFFFFFFFFFFFFFFFFFFFFFFFFFFFFFFFFFFF AND PUSH2 0x27B9 SWAP1 SWAP3 SWAP2 SWAP1 PUSH4 0xFFFFFFFF AND JUMP JUMPDEST POP JUMPDEST PUSH1 0xFD PUSH1 0x0 DUP2 SLOAD PUSH2 0x22E1 SWAP1 PUSH2 0x410F JUMP JUMPDEST SWAP2 SWAP1 POP DUP2 SWAP1 SSTORE POP PUSH1 0x1 SWAP2 POP POP SWAP2 SWAP1 POP JUMP JUMPDEST PUSH2 0x22FB DUP3 PUSH2 0x7F5 JUMP JUMPDEST PUSH2 0x2304 DUP2 PUSH2 0x238F JUMP JUMPDEST PUSH2 0x230E DUP4 DUP4 PUSH2 0x2484 JUMP JUMPDEST POP POP POP JUMP JUMPDEST PUSH1 0x0 PUSH1 0xFB SLOAD SWAP1 POP SWAP1 JUMP JUMPDEST PUSH1 0x0 PUSH32 0x1FFC9A700000000000000000000000000000000000000000000000000000000 PUSH28 0xFFFFFFFFFFFFFFFFFFFFFFFFFFFFFFFFFFFFFFFFFFFFFFFFFFFFFFFF NOT AND DUP3 PUSH28 0xFFFFFFFFFFFFFFFFFFFFFFFFFFFFFFFFFFFFFFFFFFFFFFFFFFFFFFFF NOT AND EQ SWAP1 POP SWAP2 SWAP1 POP JUMP JUMPDEST PUSH1 0x0 CALLER SWAP1 POP SWAP1 JUMP JUMPDEST PUSH2 0x23A0 DUP2 PUSH2 0x239B PUSH2 0x2387 JUMP JUMPDEST PUSH2 0x2A51 JUMP JUMPDEST POP JUMP JUMPDEST PUSH2 0x23AD DUP3 DUP3 PUSH2 0x13CC JUMP JUMPDEST PUSH2 0x2480 JUMPI PUSH1 0x1 PUSH1 0x97 PUSH1 0x0 DUP5 DUP2 MSTORE PUSH1 0x20 ADD SWAP1 DUP2 MSTORE PUSH1 0x20 ADD PUSH1 0x0 KECCAK256 PUSH1 0x0 ADD PUSH1 0x0 DUP4 PUSH20 0xFFFFFFFFFFFFFFFFFFFFFFFFFFFFFFFFFFFFFFFF AND PUSH20 0xFFFFFFFFFFFFFFFFFFFFFFFFFFFFFFFFFFFFFFFF AND DUP2 MSTORE PUSH1 0x20 ADD SWAP1 DUP2 MSTORE PUSH1 0x20 ADD PUSH1 0x0 KECCAK256 PUSH1 0x0 PUSH2 0x100 EXP DUP2 SLOAD DUP2 PUSH1 0xFF MUL NOT AND SWAP1 DUP4 ISZERO ISZERO MUL OR SWAP1 SSTORE POP PUSH2 0x2425 PUSH2 0x2387 JUMP JUMPDEST PUSH20 0xFFFFFFFFFFFFFFFFFFFFFFFFFFFFFFFFFFFFFFFF AND DUP2 PUSH20 0xFFFFFFFFFFFFFFFFFFFFFFFFFFFFFFFFFFFFFFFF AND DUP4 PUSH32 0x2F8788117E7EFF1D82E926EC794901D17C78024A50270940304540A733656F0D PUSH1 0x40 MLOAD PUSH1 0x40 MLOAD DUP1 SWAP2 SUB SWAP1 LOG4 JUMPDEST POP POP JUMP JUMPDEST PUSH2 0x248E DUP3 DUP3 PUSH2 0x13CC JUMP JUMPDEST ISZERO PUSH2 0x2562 JUMPI PUSH1 0x0 PUSH1 0x97 PUSH1 0x0 DUP5 DUP2 MSTORE PUSH1 0x20 ADD SWAP1 DUP2 MSTORE PUSH1 0x20 ADD PUSH1 0x0 KECCAK256 PUSH1 0x0 ADD PUSH1 0x0 DUP4 PUSH20 0xFFFFFFFFFFFFFFFFFFFFFFFFFFFFFFFFFFFFFFFF AND PUSH20 0xFFFFFFFFFFFFFFFFFFFFFFFFFFFFFFFFFFFFFFFF AND DUP2 MSTORE PUSH1 0x20 ADD SWAP1 DUP2 MSTORE PUSH1 0x20 ADD PUSH1 0x0 KECCAK256 PUSH1 0x0 PUSH2 0x100 EXP DUP2 SLOAD DUP2 PUSH1 0xFF MUL NOT AND SWAP1 DUP4 ISZERO ISZERO MUL OR SWAP1 SSTORE POP PUSH2 0x2507 PUSH2 0x2387 JUMP JUMPDEST PUSH20 0xFFFFFFFFFFFFFFFFFFFFFFFFFFFFFFFFFFFFFFFF AND DUP2 PUSH20 0xFFFFFFFFFFFFFFFFFFFFFFFFFFFFFFFFFFFFFFFF AND DUP4 PUSH32 0xF6391F5C32D9C69D2A47EA670B442974B53935D1EDC7FD64EB21E047A839171B PUSH1 0x40 MLOAD PUSH1 0x40 MLOAD DUP1 SWAP2 SUB SWAP1 LOG4 JUMPDEST POP POP JUMP JUMPDEST PUSH2 0x256E PUSH2 0x2AD6 JUMP JUMPDEST PUSH1 0x0 PUSH1 0x33 PUSH1 0x0 PUSH2 0x100 EXP DUP2 SLOAD DUP2 PUSH1 0xFF MUL NOT AND SWAP1 DUP4 ISZERO ISZERO MUL OR SWAP1 SSTORE POP PUSH32 0x5DB9EE0A495BF2E6FF9C91A7834C1BA4FDD244A5E8AA4E537BD38AEAE4B073AA PUSH2 0x25B2 PUSH2 0x2387 JUMP JUMPDEST PUSH1 0x40 MLOAD PUSH2 0x25BF SWAP2 SWAP1 PUSH2 0x4052 JUMP JUMPDEST PUSH1 0x40 MLOAD DUP1 SWAP2 SUB SWAP1 LOG1 JUMP JUMPDEST PUSH1 0x0 DUP1 DUP3 PUSH20 0xFFFFFFFFFFFFFFFFFFFFFFFFFFFFFFFFFFFFFFFF AND EXTCODESIZE GT SWAP1 POP SWAP2 SWAP1 POP JUMP JUMPDEST PUSH1 0x0 DUP9 PUSH20 0xFFFFFFFFFFFFFFFFFFFFFFFFFFFFFFFFFFFFFFFF AND PUSH4 0x7ECEBE00 DUP10 PUSH1 0x40 MLOAD DUP3 PUSH4 0xFFFFFFFF AND PUSH1 0xE0 SHL DUP2 MSTORE PUSH1 0x4 ADD PUSH2 0x2627 SWAP2 SWAP1 PUSH2 0x4052 JUMP JUMPDEST PUSH1 0x20 PUSH1 0x40 MLOAD DUP1 DUP4 SUB DUP2 DUP7 GAS STATICCALL ISZERO DUP1 ISZERO PUSH2 0x2644 JUMPI RETURNDATASIZE PUSH1 0x0 DUP1 RETURNDATACOPY RETURNDATASIZE PUSH1 0x0 REVERT JUMPDEST POP POP POP POP PUSH1 0x40 MLOAD RETURNDATASIZE PUSH1 0x1F NOT PUSH1 0x1F DUP3 ADD AND DUP3 ADD DUP1 PUSH1 0x40 MSTORE POP DUP2 ADD SWAP1 PUSH2 0x2668 SWAP2 SWAP1 PUSH2 0x4082 JUMP JUMPDEST SWAP1 POP DUP9 PUSH20 0xFFFFFFFFFFFFFFFFFFFFFFFFFFFFFFFFFFFFFFFF AND PUSH4 0xD505ACCF DUP10 DUP10 DUP10 DUP10 DUP10 DUP10 DUP10 PUSH1 0x40 MLOAD DUP9 PUSH4 0xFFFFFFFF AND PUSH1 0xE0 SHL DUP2 MSTORE PUSH1 0x4 ADD PUSH2 0x26AF SWAP8 SWAP7 SWAP6 SWAP5 SWAP4 SWAP3 SWAP2 SWAP1 PUSH2 0x4147 JUMP JUMPDEST PUSH1 0x0 PUSH1 0x40 MLOAD DUP1 DUP4 SUB DUP2 PUSH1 0x0 DUP8 DUP1 EXTCODESIZE ISZERO DUP1 ISZERO PUSH2 0x26C9 JUMPI PUSH1 0x0 DUP1 REVERT JUMPDEST POP GAS CALL ISZERO DUP1 ISZERO PUSH2 0x26DD JUMPI RETURNDATASIZE PUSH1 0x0 DUP1 RETURNDATACOPY RETURNDATASIZE PUSH1 0x0 REVERT JUMPDEST POP POP POP POP PUSH1 0x0 DUP10 PUSH20 0xFFFFFFFFFFFFFFFFFFFFFFFFFFFFFFFFFFFFFFFF AND PUSH4 0x7ECEBE00 DUP11 PUSH1 0x40 MLOAD DUP3 PUSH4 0xFFFFFFFF AND PUSH1 0xE0 SHL DUP2 MSTORE PUSH1 0x4 ADD PUSH2 0x271C SWAP2 SWAP1 PUSH2 0x4052 JUMP JUMPDEST PUSH1 0x20 PUSH1 0x40 MLOAD DUP1 DUP4 SUB DUP2 DUP7 GAS STATICCALL ISZERO DUP1 ISZERO PUSH2 0x2739 JUMPI RETURNDATASIZE PUSH1 0x0 DUP1 RETURNDATACOPY RETURNDATASIZE PUSH1 0x0 REVERT JUMPDEST POP POP POP POP PUSH1 0x40 MLOAD RETURNDATASIZE PUSH1 0x1F NOT PUSH1 0x1F DUP3 ADD AND DUP3 ADD DUP1 PUSH1 0x40 MSTORE POP DUP2 ADD SWAP1 PUSH2 0x275D SWAP2 SWAP1 PUSH2 0x4082 JUMP JUMPDEST SWAP1 POP PUSH1 0x1 DUP3 PUSH2 0x276C SWAP2 SWAP1 PUSH2 0x3E9D JUMP JUMPDEST DUP2 EQ PUSH2 0x27AD JUMPI PUSH1 0x40 MLOAD PUSH32 0x8C379A000000000000000000000000000000000000000000000000000000000 DUP2 MSTORE PUSH1 0x4 ADD PUSH2 0x27A4 SWAP1 PUSH2 0x4228 JUMP JUMPDEST PUSH1 0x40 MLOAD DUP1 SWAP2 SUB SWAP1 REVERT JUMPDEST POP POP POP POP POP POP POP POP POP POP JUMP JUMPDEST PUSH2 0x283A DUP4 PUSH4 0xA9059CBB PUSH1 0xE0 SHL DUP5 DUP5 PUSH1 0x40 MLOAD PUSH1 0x24 ADD PUSH2 0x27D8 SWAP3 SWAP2 SWAP1 PUSH2 0x4248 JUMP JUMPDEST PUSH1 0x40 MLOAD PUSH1 0x20 DUP2 DUP4 SUB SUB DUP2 MSTORE SWAP1 PUSH1 0x40 MSTORE SWAP1 PUSH28 0xFFFFFFFFFFFFFFFFFFFFFFFFFFFFFFFFFFFFFFFFFFFFFFFFFFFFFFFF NOT AND PUSH1 0x20 DUP3 ADD DUP1 MLOAD PUSH28 0xFFFFFFFFFFFFFFFFFFFFFFFFFFFFFFFFFFFFFFFFFFFFFFFFFFFFFFFF DUP4 DUP2 DUP4 AND OR DUP4 MSTORE POP POP POP POP PUSH2 0x2B1F JUMP JUMPDEST POP POP POP JUMP JUMPDEST PUSH1 0x0 PUSH1 0x1 SWAP1 SLOAD SWAP1 PUSH2 0x100 EXP SWAP1 DIV PUSH1 0xFF AND PUSH2 0x288E JUMPI PUSH1 0x40 MLOAD PUSH32 0x8C379A000000000000000000000000000000000000000000000000000000000 DUP2 MSTORE PUSH1 0x4 ADD PUSH2 0x2885 SWAP1 PUSH2 0x3FD8 JUMP JUMPDEST PUSH1 0x40 MLOAD DUP1 SWAP2 SUB SWAP1 REVERT JUMPDEST PUSH2 0x2896 PUSH2 0x2BE6 JUMP JUMPDEST JUMP JUMPDEST PUSH1 0x0 PUSH1 0x1 SWAP1 SLOAD SWAP1 PUSH2 0x100 EXP SWAP1 DIV PUSH1 0xFF AND PUSH2 0x28E7 JUMPI PUSH1 0x40 MLOAD PUSH32 0x8C379A000000000000000000000000000000000000000000000000000000000 DUP2 MSTORE PUSH1 0x4 ADD PUSH2 0x28DE SWAP1 PUSH2 0x3FD8 JUMP JUMPDEST PUSH1 0x40 MLOAD DUP1 SWAP2 SUB SWAP1 REVERT JUMPDEST JUMP JUMPDEST PUSH1 0x0 PUSH1 0x1 SWAP1 SLOAD SWAP1 PUSH2 0x100 EXP SWAP1 DIV PUSH1 0xFF AND PUSH2 0x2938 JUMPI PUSH1 0x40 MLOAD PUSH32 0x8C379A000000000000000000000000000000000000000000000000000000000 DUP2 MSTORE PUSH1 0x4 ADD PUSH2 0x292F SWAP1 PUSH2 0x3FD8 JUMP JUMPDEST PUSH1 0x40 MLOAD DUP1 SWAP2 SUB SWAP1 REVERT JUMPDEST PUSH2 0x2940 PUSH2 0x2C52 JUMP JUMPDEST JUMP JUMPDEST PUSH1 0x0 PUSH32 0xA49807205CE4D355092EF5A8A18F56E8913CF4A201FBE287825B095693C21775 SWAP1 POP SWAP1 JUMP JUMPDEST PUSH1 0x0 PUSH32 0x65D7A28E3265B37A6474929F336521B332C1681B933F6CB9F3376673440D862A SWAP1 POP SWAP1 JUMP JUMPDEST PUSH1 0x0 PUSH2 0x299D DUP4 PUSH2 0x7F5 JUMP JUMPDEST SWAP1 POP DUP2 PUSH1 0x97 PUSH1 0x0 DUP6 DUP2 MSTORE PUSH1 0x20 ADD SWAP1 DUP2 MSTORE PUSH1 0x20 ADD PUSH1 0x0 KECCAK256 PUSH1 0x1 ADD DUP2 SWAP1 SSTORE POP DUP2 DUP2 DUP5 PUSH32 0xBD79B86FFE0AB8E8776151514217CD7CACD52C909F66475C3AF44E129F0B00FF PUSH1 0x40 MLOAD PUSH1 0x40 MLOAD DUP1 SWAP2 SUB SWAP1 LOG4 POP POP POP JUMP JUMPDEST PUSH2 0x29F6 PUSH2 0x2CAB JUMP JUMPDEST PUSH1 0x1 PUSH1 0x33 PUSH1 0x0 PUSH2 0x100 EXP DUP2 SLOAD DUP2 PUSH1 0xFF MUL NOT AND SWAP1 DUP4 ISZERO ISZERO MUL OR SWAP1 SSTORE POP PUSH32 0x62E78CEA01BEE320CD4E420270B5EA74000D11B0C9F74754EBDBFC544B05A258 PUSH2 0x2A3A PUSH2 0x2387 JUMP JUMPDEST PUSH1 0x40 MLOAD PUSH2 0x2A47 SWAP2 SWAP1 PUSH2 0x4052 JUMP JUMPDEST PUSH1 0x40 MLOAD DUP1 SWAP2 SUB SWAP1 LOG1 JUMP JUMPDEST PUSH2 0x2A5B DUP3 DUP3 PUSH2 0x13CC JUMP JUMPDEST PUSH2 0x2AD2 JUMPI PUSH2 0x2A68 DUP2 PUSH2 0x2CF5 JUMP JUMPDEST PUSH2 0x2A76 DUP4 PUSH1 0x0 SHR PUSH1 0x20 PUSH2 0x2D22 JUMP JUMPDEST PUSH1 0x40 MLOAD PUSH1 0x20 ADD PUSH2 0x2A87 SWAP3 SWAP2 SWAP1 PUSH2 0x4309 JUMP JUMPDEST PUSH1 0x40 MLOAD PUSH1 0x20 DUP2 DUP4 SUB SUB DUP2 MSTORE SWAP1 PUSH1 0x40 MSTORE PUSH1 0x40 MLOAD PUSH32 0x8C379A000000000000000000000000000000000000000000000000000000000 DUP2 MSTORE PUSH1 0x4 ADD PUSH2 0x2AC9 SWAP2 SWAP1 PUSH2 0x4343 JUMP JUMPDEST PUSH1 0x40 MLOAD DUP1 SWAP2 SUB SWAP1 REVERT JUMPDEST POP POP JUMP JUMPDEST PUSH2 0x2ADE PUSH2 0xF4A JUMP JUMPDEST PUSH2 0x2B1D JUMPI PUSH1 0x40 MLOAD PUSH32 0x8C379A000000000000000000000000000000000000000000000000000000000 DUP2 MSTORE PUSH1 0x4 ADD PUSH2 0x2B14 SWAP1 PUSH2 0x43B1 JUMP JUMPDEST PUSH1 0x40 MLOAD DUP1 SWAP2 SUB SWAP1 REVERT JUMPDEST JUMP JUMPDEST PUSH1 0x0 PUSH2 0x2B81 DUP3 PUSH1 0x40 MLOAD DUP1 PUSH1 0x40 ADD PUSH1 0x40 MSTORE DUP1 PUSH1 0x20 DUP2 MSTORE PUSH1 0x20 ADD PUSH32 0x5361666545524332303A206C6F772D6C6576656C2063616C6C206661696C6564 DUP2 MSTORE POP DUP6 PUSH20 0xFFFFFFFFFFFFFFFFFFFFFFFFFFFFFFFFFFFFFFFF AND PUSH2 0x2F5E SWAP1 SWAP3 SWAP2 SWAP1 PUSH4 0xFFFFFFFF AND JUMP JUMPDEST SWAP1 POP PUSH1 0x0 DUP2 MLOAD GT ISZERO PUSH2 0x2BE1 JUMPI DUP1 DUP1 PUSH1 0x20 ADD SWAP1 MLOAD DUP2 ADD SWAP1 PUSH2 0x2BA1 SWAP2 SWAP1 PUSH2 0x3EE6 JUMP JUMPDEST PUSH2 0x2BE0 JUMPI PUSH1 0x40 MLOAD PUSH32 0x8C379A000000000000000000000000000000000000000000000000000000000 DUP2 MSTORE PUSH1 0x4 ADD PUSH2 0x2BD7 SWAP1 PUSH2 0x4443 JUMP JUMPDEST PUSH1 0x40 MLOAD DUP1 SWAP2 SUB SWAP1 REVERT JUMPDEST JUMPDEST POP POP POP JUMP JUMPDEST PUSH1 0x0 PUSH1 0x1 SWAP1 SLOAD SWAP1 PUSH2 0x100 EXP SWAP1 DIV PUSH1 0xFF AND PUSH2 0x2C35 JUMPI PUSH1 0x40 MLOAD PUSH32 0x8C379A000000000000000000000000000000000000000000000000000000000 DUP2 MSTORE PUSH1 0x4 ADD PUSH2 0x2C2C SWAP1 PUSH2 0x3FD8 JUMP JUMPDEST PUSH1 0x40 MLOAD DUP1 SWAP2 SUB SWAP1 REVERT JUMPDEST PUSH1 0x0 PUSH1 0x33 PUSH1 0x0 PUSH2 0x100 EXP DUP2 SLOAD DUP2 PUSH1 0xFF MUL NOT AND SWAP1 DUP4 ISZERO ISZERO MUL OR SWAP1 SSTORE POP JUMP JUMPDEST PUSH1 0x0 PUSH1 0x1 SWAP1 SLOAD SWAP1 PUSH2 0x100 EXP SWAP1 DIV PUSH1 0xFF AND PUSH2 0x2CA1 JUMPI PUSH1 0x40 MLOAD PUSH32 0x8C379A000000000000000000000000000000000000000000000000000000000 DUP2 MSTORE PUSH1 0x4 ADD PUSH2 0x2C98 SWAP1 PUSH2 0x3FD8 JUMP JUMPDEST PUSH1 0x40 MLOAD DUP1 SWAP2 SUB SWAP1 REVERT JUMPDEST PUSH1 0x1 PUSH1 0xC9 DUP2 SWAP1 SSTORE POP JUMP JUMPDEST PUSH2 0x2CB3 PUSH2 0xF4A JUMP JUMPDEST ISZERO PUSH2 0x2CF3 JUMPI PUSH1 0x40 MLOAD PUSH32 0x8C379A000000000000000000000000000000000000000000000000000000000 DUP2 MSTORE PUSH1 0x4 ADD PUSH2 0x2CEA SWAP1 PUSH2 0x44AF JUMP JUMPDEST PUSH1 0x40 MLOAD DUP1 SWAP2 SUB SWAP1 REVERT JUMPDEST JUMP JUMPDEST PUSH1 0x60 PUSH2 0x2D1B DUP3 PUSH20 0xFFFFFFFFFFFFFFFFFFFFFFFFFFFFFFFFFFFFFFFF AND PUSH1 0x14 PUSH1 0xFF AND PUSH2 0x2D22 JUMP JUMPDEST SWAP1 POP SWAP2 SWAP1 POP JUMP JUMPDEST PUSH1 0x60 PUSH1 0x0 PUSH1 0x2 DUP4 PUSH1 0x2 PUSH2 0x2D35 SWAP2 SWAP1 PUSH2 0x3FF8 JUMP JUMPDEST PUSH2 0x2D3F SWAP2 SWAP1 PUSH2 0x3E9D JUMP JUMPDEST PUSH8 0xFFFFFFFFFFFFFFFF DUP2 GT ISZERO PUSH2 0x2D58 JUMPI PUSH2 0x2D57 PUSH2 0x3475 JUMP JUMPDEST JUMPDEST PUSH1 0x40 MLOAD SWAP1 DUP1 DUP3 MSTORE DUP1 PUSH1 0x1F ADD PUSH1 0x1F NOT AND PUSH1 0x20 ADD DUP3 ADD PUSH1 0x40 MSTORE DUP1 ISZERO PUSH2 0x2D8A JUMPI DUP2 PUSH1 0x20 ADD PUSH1 0x1 DUP3 MUL DUP1 CALLDATASIZE DUP4 CALLDATACOPY DUP1 DUP3 ADD SWAP2 POP POP SWAP1 POP JUMPDEST POP SWAP1 POP PUSH32 0x3000000000000000000000000000000000000000000000000000000000000000 DUP2 PUSH1 0x0 DUP2 MLOAD DUP2 LT PUSH2 0x2DC2 JUMPI PUSH2 0x2DC1 PUSH2 0x44CF JUMP JUMPDEST JUMPDEST PUSH1 0x20 ADD ADD SWAP1 PUSH31 0xFFFFFFFFFFFFFFFFFFFFFFFFFFFFFFFFFFFFFFFFFFFFFFFFFFFFFFFFFFFFFF NOT AND SWAP1 DUP2 PUSH1 0x0 BYTE SWAP1 MSTORE8 POP PUSH32 0x7800000000000000000000000000000000000000000000000000000000000000 DUP2 PUSH1 0x1 DUP2 MLOAD DUP2 LT PUSH2 0x2E26 JUMPI PUSH2 0x2E25 PUSH2 0x44CF JUMP JUMPDEST JUMPDEST PUSH1 0x20 ADD ADD SWAP1 PUSH31 0xFFFFFFFFFFFFFFFFFFFFFFFFFFFFFFFFFFFFFFFFFFFFFFFFFFFFFFFFFFFFFF NOT AND SWAP1 DUP2 PUSH1 0x0 BYTE SWAP1 MSTORE8 POP PUSH1 0x0 PUSH1 0x1 DUP5 PUSH1 0x2 PUSH2 0x2E66 SWAP2 SWAP1 PUSH2 0x3FF8 JUMP JUMPDEST PUSH2 0x2E70 SWAP2 SWAP1 PUSH2 0x3E9D JUMP JUMPDEST SWAP1 POP JUMPDEST PUSH1 0x1 DUP2 GT ISZERO PUSH2 0x2F10 JUMPI PUSH32 0x3031323334353637383961626364656600000000000000000000000000000000 PUSH1 0xF DUP7 AND PUSH1 0x10 DUP2 LT PUSH2 0x2EB2 JUMPI PUSH2 0x2EB1 PUSH2 0x44CF JUMP JUMPDEST JUMPDEST BYTE PUSH1 0xF8 SHL DUP3 DUP3 DUP2 MLOAD DUP2 LT PUSH2 0x2EC9 JUMPI PUSH2 0x2EC8 PUSH2 0x44CF JUMP JUMPDEST JUMPDEST PUSH1 0x20 ADD ADD SWAP1 PUSH31 0xFFFFFFFFFFFFFFFFFFFFFFFFFFFFFFFFFFFFFFFFFFFFFFFFFFFFFFFFFFFFFF NOT AND SWAP1 DUP2 PUSH1 0x0 BYTE SWAP1 MSTORE8 POP PUSH1 0x4 DUP6 SWAP1 SHR SWAP5 POP DUP1 PUSH2 0x2F09 SWAP1 PUSH2 0x410F JUMP JUMPDEST SWAP1 POP PUSH2 0x2E73 JUMP JUMPDEST POP PUSH1 0x0 DUP5 EQ PUSH2 0x2F54 JUMPI PUSH1 0x40 MLOAD PUSH32 0x8C379A000000000000000000000000000000000000000000000000000000000 DUP2 MSTORE PUSH1 0x4 ADD PUSH2 0x2F4B SWAP1 PUSH2 0x454A JUMP JUMPDEST PUSH1 0x40 MLOAD DUP1 SWAP2 SUB SWAP1 REVERT JUMPDEST DUP1 SWAP2 POP POP SWAP3 SWAP2 POP POP JUMP JUMPDEST PUSH1 0x60 PUSH2 0x2F6D DUP5 DUP5 PUSH1 0x0 DUP6 PUSH2 0x2F76 JUMP JUMPDEST SWAP1 POP SWAP4 SWAP3 POP POP POP JUMP JUMPDEST PUSH1 0x60 DUP3 SELFBALANCE LT ISZERO PUSH2 0x2FBB JUMPI PUSH1 0x40 MLOAD PUSH32 0x8C379A000000000000000000000000000000000000000000000000000000000 DUP2 MSTORE PUSH1 0x4 ADD PUSH2 0x2FB2 SWAP1 PUSH2 0x45DC JUMP JUMPDEST PUSH1 0x40 MLOAD DUP1 SWAP2 SUB SWAP1 REVERT JUMPDEST PUSH1 0x0 DUP1 DUP7 PUSH20 0xFFFFFFFFFFFFFFFFFFFFFFFFFFFFFFFFFFFFFFFF AND DUP6 DUP8 PUSH1 0x40 MLOAD PUSH2 0x2FE4 SWAP2 SWAP1 PUSH2 0x4643 JUMP JUMPDEST PUSH1 0x0 PUSH1 0x40 MLOAD DUP1 DUP4 SUB DUP2 DUP6 DUP8 GAS CALL SWAP3 POP POP POP RETURNDATASIZE DUP1 PUSH1 0x0 DUP2 EQ PUSH2 0x3021 JUMPI PUSH1 0x40 MLOAD SWAP2 POP PUSH1 0x1F NOT PUSH1 0x3F RETURNDATASIZE ADD AND DUP3 ADD PUSH1 0x40 MSTORE RETURNDATASIZE DUP3 MSTORE RETURNDATASIZE PUSH1 0x0 PUSH1 0x20 DUP5 ADD RETURNDATACOPY PUSH2 0x3026 JUMP JUMPDEST PUSH1 0x60 SWAP2 POP JUMPDEST POP SWAP2 POP SWAP2 POP PUSH2 0x3037 DUP8 DUP4 DUP4 DUP8 PUSH2 0x3043 JUMP JUMPDEST SWAP3 POP POP POP SWAP5 SWAP4 POP POP POP POP JUMP JUMPDEST PUSH1 0x60 DUP4 ISZERO PUSH2 0x30A5 JUMPI PUSH1 0x0 DUP4 MLOAD SUB PUSH2 0x309D JUMPI PUSH2 0x305D DUP6 PUSH2 0x25C9 JUMP JUMPDEST PUSH2 0x309C JUMPI PUSH1 0x40 MLOAD PUSH32 0x8C379A000000000000000000000000000000000000000000000000000000000 DUP2 MSTORE PUSH1 0x4 ADD PUSH2 0x3093 SWAP1 PUSH2 0x46A6 JUMP JUMPDEST PUSH1 0x40 MLOAD DUP1 SWAP2 SUB SWAP1 REVERT JUMPDEST JUMPDEST DUP3 SWAP1 POP PUSH2 0x30B0 JUMP JUMPDEST PUSH2 0x30AF DUP4 DUP4 PUSH2 0x30B8 JUMP JUMPDEST JUMPDEST SWAP5 SWAP4 POP POP POP POP JUMP JUMPDEST PUSH1 0x0 DUP3 MLOAD GT ISZERO PUSH2 0x30CB JUMPI DUP2 MLOAD DUP1 DUP4 PUSH1 0x20 ADD REVERT JUMPDEST DUP1 PUSH1 0x40 MLOAD PUSH32 0x8C379A000000000000000000000000000000000000000000000000000000000 DUP2 MSTORE PUSH1 0x4 ADD PUSH2 0x30FF SWAP2 SWAP1 PUSH2 0x4343 JUMP JUMPDEST PUSH1 0x40 MLOAD DUP1 SWAP2 SUB SWAP1 REVERT JUMPDEST PUSH1 0x0 PUSH1 0x40 MLOAD SWAP1 POP SWAP1 JUMP JUMPDEST PUSH1 0x0 DUP1 REVERT JUMPDEST PUSH1 0x0 DUP1 REVERT JUMPDEST PUSH1 0x0 PUSH32 0xFFFFFFFF00000000000000000000000000000000000000000000000000000000 DUP3 AND SWAP1 POP SWAP2 SWAP1 POP JUMP JUMPDEST PUSH2 0x3151 DUP2 PUSH2 0x311C JUMP JUMPDEST DUP2 EQ PUSH2 0x315C JUMPI PUSH1 0x0 DUP1 REVERT JUMPDEST POP JUMP JUMPDEST PUSH1 0x0 DUP2 CALLDATALOAD SWAP1 POP PUSH2 0x316E DUP2 PUSH2 0x3148 JUMP JUMPDEST SWAP3 SWAP2 POP POP JUMP JUMPDEST PUSH1 0x0 PUSH1 0x20 DUP3 DUP5 SUB SLT ISZERO PUSH2 0x318A JUMPI PUSH2 0x3189 PUSH2 0x3112 JUMP JUMPDEST JUMPDEST PUSH1 0x0 PUSH2 0x3198 DUP5 DUP3 DUP6 ADD PUSH2 0x315F JUMP JUMPDEST SWAP2 POP POP SWAP3 SWAP2 POP POP JUMP JUMPDEST PUSH1 0x0 DUP2 ISZERO ISZERO SWAP1 POP SWAP2 SWAP1 POP JUMP JUMPDEST PUSH2 0x31B6 DUP2 PUSH2 0x31A1 JUMP JUMPDEST DUP3 MSTORE POP POP JUMP JUMPDEST PUSH1 0x0 PUSH1 0x20 DUP3 ADD SWAP1 POP PUSH2 0x31D1 PUSH1 0x0 DUP4 ADD DUP5 PUSH2 0x31AD JUMP JUMPDEST SWAP3 SWAP2 POP POP JUMP JUMPDEST PUSH1 0x0 DUP2 SWAP1 POP SWAP2 SWAP1 POP JUMP JUMPDEST PUSH2 0x31EA DUP2 PUSH2 0x31D7 JUMP JUMPDEST DUP2 EQ PUSH2 0x31F5 JUMPI PUSH1 0x0 DUP1 REVERT JUMPDEST POP JUMP JUMPDEST PUSH1 0x0 DUP2 CALLDATALOAD SWAP1 POP PUSH2 0x3207 DUP2 PUSH2 0x31E1 JUMP JUMPDEST SWAP3 SWAP2 POP POP JUMP JUMPDEST PUSH1 0x0 PUSH1 0x20 DUP3 DUP5 SUB SLT ISZERO PUSH2 0x3223 JUMPI PUSH2 0x3222 PUSH2 0x3112 JUMP JUMPDEST JUMPDEST PUSH1 0x0 PUSH2 0x3231 DUP5 DUP3 DUP6 ADD PUSH2 0x31F8 JUMP JUMPDEST SWAP2 POP POP SWAP3 SWAP2 POP POP JUMP JUMPDEST PUSH2 0x3243 DUP2 PUSH2 0x31D7 JUMP JUMPDEST DUP3 MSTORE POP POP JUMP JUMPDEST PUSH1 0x0 PUSH1 0x60 DUP3 ADD SWAP1 POP PUSH2 0x325E PUSH1 0x0 DUP4 ADD DUP7 PUSH2 0x31AD JUMP JUMPDEST PUSH2 0x326B PUSH1 0x20 DUP4 ADD DUP6 PUSH2 0x31AD JUMP JUMPDEST PUSH2 0x3278 PUSH1 0x40 DUP4 ADD DUP5 PUSH2 0x323A JUMP JUMPDEST SWAP5 SWAP4 POP POP POP POP JUMP JUMPDEST PUSH1 0x0 PUSH1 0xE0 DUP3 ADD SWAP1 POP PUSH2 0x3295 PUSH1 0x0 DUP4 ADD DUP11 PUSH2 0x323A JUMP JUMPDEST PUSH2 0x32A2 PUSH1 0x20 DUP4 ADD DUP10 PUSH2 0x323A JUMP JUMPDEST PUSH2 0x32AF PUSH1 0x40 DUP4 ADD DUP9 PUSH2 0x323A JUMP JUMPDEST PUSH2 0x32BC PUSH1 0x60 DUP4 ADD DUP8 PUSH2 0x323A JUMP JUMPDEST PUSH2 0x32C9 PUSH1 0x80 DUP4 ADD DUP7 PUSH2 0x323A JUMP JUMPDEST PUSH2 0x32D6 PUSH1 0xA0 DUP4 ADD DUP6 PUSH2 0x323A JUMP JUMPDEST PUSH2 0x32E3 PUSH1 0xC0 DUP4 ADD DUP5 PUSH2 0x323A JUMP JUMPDEST SWAP9 SWAP8 POP POP POP POP POP POP POP POP JUMP JUMPDEST PUSH1 0x0 DUP2 SWAP1 POP SWAP2 SWAP1 POP JUMP JUMPDEST PUSH2 0x3302 DUP2 PUSH2 0x32EF JUMP JUMPDEST DUP2 EQ PUSH2 0x330D JUMPI PUSH1 0x0 DUP1 REVERT JUMPDEST POP JUMP JUMPDEST PUSH1 0x0 DUP2 CALLDATALOAD SWAP1 POP PUSH2 0x331F DUP2 PUSH2 0x32F9 JUMP JUMPDEST SWAP3 SWAP2 POP POP JUMP JUMPDEST PUSH1 0x0 PUSH1 0x20 DUP3 DUP5 SUB SLT ISZERO PUSH2 0x333B JUMPI PUSH2 0x333A PUSH2 0x3112 JUMP JUMPDEST JUMPDEST PUSH1 0x0 PUSH2 0x3349 DUP5 DUP3 DUP6 ADD PUSH2 0x3310 JUMP JUMPDEST SWAP2 POP POP SWAP3 SWAP2 POP POP JUMP JUMPDEST PUSH2 0x335B DUP2 PUSH2 0x32EF JUMP JUMPDEST DUP3 MSTORE POP POP JUMP JUMPDEST PUSH1 0x0 PUSH1 0x20 DUP3 ADD SWAP1 POP PUSH2 0x3376 PUSH1 0x0 DUP4 ADD DUP5 PUSH2 0x3352 JUMP JUMPDEST SWAP3 SWAP2 POP POP JUMP JUMPDEST PUSH1 0x0 PUSH20 0xFFFFFFFFFFFFFFFFFFFFFFFFFFFFFFFFFFFFFFFF DUP3 AND SWAP1 POP SWAP2 SWAP1 POP JUMP JUMPDEST PUSH1 0x0 PUSH2 0x33A7 DUP3 PUSH2 0x337C JUMP JUMPDEST SWAP1 POP SWAP2 SWAP1 POP JUMP JUMPDEST PUSH2 0x33B7 DUP2 PUSH2 0x339C JUMP JUMPDEST DUP2 EQ PUSH2 0x33C2 JUMPI PUSH1 0x0 DUP1 REVERT JUMPDEST POP JUMP JUMPDEST PUSH1 0x0 DUP2 CALLDATALOAD SWAP1 POP PUSH2 0x33D4 DUP2 PUSH2 0x33AE JUMP JUMPDEST SWAP3 SWAP2 POP POP JUMP JUMPDEST PUSH1 0x0 DUP1 PUSH1 0x40 DUP4 DUP6 SUB SLT ISZERO PUSH2 0x33F1 JUMPI PUSH2 0x33F0 PUSH2 0x3112 JUMP JUMPDEST JUMPDEST PUSH1 0x0 PUSH2 0x33FF DUP6 DUP3 DUP7 ADD PUSH2 0x3310 JUMP JUMPDEST SWAP3 POP POP PUSH1 0x20 PUSH2 0x3410 DUP6 DUP3 DUP7 ADD PUSH2 0x33C5 JUMP JUMPDEST SWAP2 POP POP SWAP3 POP SWAP3 SWAP1 POP JUMP JUMPDEST PUSH1 0x0 DUP1 PUSH1 0x40 DUP4 DUP6 SUB SLT ISZERO PUSH2 0x3431 JUMPI PUSH2 0x3430 PUSH2 0x3112 JUMP JUMPDEST JUMPDEST PUSH1 0x0 PUSH2 0x343F DUP6 DUP3 DUP7 ADD PUSH2 0x33C5 JUMP JUMPDEST SWAP3 POP POP PUSH1 0x20 PUSH2 0x3450 DUP6 DUP3 DUP7 ADD PUSH2 0x33C5 JUMP JUMPDEST SWAP2 POP POP SWAP3 POP SWAP3 SWAP1 POP JUMP JUMPDEST PUSH1 0x0 DUP1 REVERT JUMPDEST PUSH1 0x0 DUP1 REVERT JUMPDEST PUSH1 0x0 PUSH1 0x1F NOT PUSH1 0x1F DUP4 ADD AND SWAP1 POP SWAP2 SWAP1 POP JUMP JUMPDEST PUSH32 0x4E487B7100000000000000000000000000000000000000000000000000000000 PUSH1 0x0 MSTORE PUSH1 0x41 PUSH1 0x4 MSTORE PUSH1 0x24 PUSH1 0x0 REVERT JUMPDEST PUSH2 0x34AD DUP3 PUSH2 0x3464 JUMP JUMPDEST DUP2 ADD DUP2 DUP2 LT PUSH8 0xFFFFFFFFFFFFFFFF DUP3 GT OR ISZERO PUSH2 0x34CC JUMPI PUSH2 0x34CB PUSH2 0x3475 JUMP JUMPDEST JUMPDEST DUP1 PUSH1 0x40 MSTORE POP POP POP JUMP JUMPDEST PUSH1 0x0 PUSH2 0x34DF PUSH2 0x3108 JUMP JUMPDEST SWAP1 POP PUSH2 0x34EB DUP3 DUP3 PUSH2 0x34A4 JUMP JUMPDEST SWAP2 SWAP1 POP JUMP JUMPDEST PUSH1 0x0 PUSH8 0xFFFFFFFFFFFFFFFF DUP3 GT ISZERO PUSH2 0x350B JUMPI PUSH2 0x350A PUSH2 0x3475 JUMP JUMPDEST JUMPDEST PUSH2 0x3514 DUP3 PUSH2 0x3464 JUMP JUMPDEST SWAP1 POP PUSH1 0x20 DUP2 ADD SWAP1 POP SWAP2 SWAP1 POP JUMP JUMPDEST DUP3 DUP2 DUP4 CALLDATACOPY PUSH1 0x0 DUP4 DUP4 ADD MSTORE POP POP POP JUMP JUMPDEST PUSH1 0x0 PUSH2 0x3543 PUSH2 0x353E DUP5 PUSH2 0x34F0 JUMP JUMPDEST PUSH2 0x34D5 JUMP JUMPDEST SWAP1 POP DUP3 DUP2 MSTORE PUSH1 0x20 DUP2 ADD DUP5 DUP5 DUP5 ADD GT ISZERO PUSH2 0x355F JUMPI PUSH2 0x355E PUSH2 0x345F JUMP JUMPDEST JUMPDEST PUSH2 0x356A DUP5 DUP3 DUP6 PUSH2 0x3521 JUMP JUMPDEST POP SWAP4 SWAP3 POP POP POP JUMP JUMPDEST PUSH1 0x0 DUP3 PUSH1 0x1F DUP4 ADD SLT PUSH2 0x3587 JUMPI PUSH2 0x3586 PUSH2 0x345A JUMP JUMPDEST JUMPDEST DUP2 CALLDATALOAD PUSH2 0x3597 DUP5 DUP3 PUSH1 0x20 DUP7 ADD PUSH2 0x3530 JUMP JUMPDEST SWAP2 POP POP SWAP3 SWAP2 POP POP JUMP JUMPDEST PUSH1 0x0 PUSH1 0xFF DUP3 AND SWAP1 POP SWAP2 SWAP1 POP JUMP JUMPDEST PUSH2 0x35B6 DUP2 PUSH2 0x35A0 JUMP JUMPDEST DUP2 EQ PUSH2 0x35C1 JUMPI PUSH1 0x0 DUP1 REVERT JUMPDEST POP JUMP JUMPDEST PUSH1 0x0 DUP2 CALLDATALOAD SWAP1 POP PUSH2 0x35D3 DUP2 PUSH2 0x35AD JUMP JUMPDEST SWAP3 SWAP2 POP POP JUMP JUMPDEST PUSH1 0x0 DUP1 PUSH1 0x0 DUP1 PUSH1 0x0 DUP1 PUSH1 0x0 DUP1 PUSH2 0x100 DUP10 DUP12 SUB SLT ISZERO PUSH2 0x35FA JUMPI PUSH2 0x35F9 PUSH2 0x3112 JUMP JUMPDEST JUMPDEST PUSH1 0x0 PUSH2 0x3608 DUP12 DUP3 DUP13 ADD PUSH2 0x31F8 JUMP JUMPDEST SWAP9 POP POP PUSH1 0x20 PUSH2 0x3619 DUP12 DUP3 DUP13 ADD PUSH2 0x31F8 JUMP JUMPDEST SWAP8 POP POP PUSH1 0x40 DUP10 ADD CALLDATALOAD PUSH8 0xFFFFFFFFFFFFFFFF DUP2 GT ISZERO PUSH2 0x363A JUMPI PUSH2 0x3639 PUSH2 0x3117 JUMP JUMPDEST JUMPDEST PUSH2 0x3646 DUP12 DUP3 DUP13 ADD PUSH2 0x3572 JUMP JUMPDEST SWAP7 POP POP PUSH1 0x60 PUSH2 0x3657 DUP12 DUP3 DUP13 ADD PUSH2 0x31F8 JUMP JUMPDEST SWAP6 POP POP PUSH1 0x80 PUSH2 0x3668 DUP12 DUP3 DUP13 ADD PUSH2 0x31F8 JUMP JUMPDEST SWAP5 POP POP PUSH1 0xA0 PUSH2 0x3679 DUP12 DUP3 DUP13 ADD PUSH2 0x35C4 JUMP JUMPDEST SWAP4 POP POP PUSH1 0xC0 PUSH2 0x368A DUP12 DUP3 DUP13 ADD PUSH2 0x3310 JUMP JUMPDEST SWAP3 POP POP PUSH1 0xE0 PUSH2 0x369B DUP12 DUP3 DUP13 ADD PUSH2 0x3310 JUMP JUMPDEST SWAP2 POP POP SWAP3 SWAP6 SWAP9 POP SWAP3 SWAP6 SWAP9 SWAP1 SWAP4 SWAP7 POP JUMP JUMPDEST PUSH1 0x0 PUSH1 0x20 DUP3 DUP5 SUB SLT ISZERO PUSH2 0x36C1 JUMPI PUSH2 0x36C0 PUSH2 0x3112 JUMP JUMPDEST JUMPDEST PUSH1 0x0 PUSH2 0x36CF DUP5 DUP3 DUP6 ADD PUSH2 0x33C5 JUMP JUMPDEST SWAP2 POP POP SWAP3 SWAP2 POP POP JUMP JUMPDEST PUSH1 0x0 PUSH1 0x20 DUP3 ADD SWAP1 POP PUSH2 0x36ED PUSH1 0x0 DUP4 ADD DUP5 PUSH2 0x323A JUMP JUMPDEST SWAP3 SWAP2 POP POP JUMP JUMPDEST PUSH1 0x0 DUP1 PUSH1 0x0 DUP1 PUSH1 0x0 PUSH1 0xA0 DUP7 DUP9 SUB SLT ISZERO PUSH2 0x370F JUMPI PUSH2 0x370E PUSH2 0x3112 JUMP JUMPDEST JUMPDEST PUSH1 0x0 PUSH2 0x371D DUP9 DUP3 DUP10 ADD PUSH2 0x31F8 JUMP JUMPDEST SWAP6 POP POP PUSH1 0x20 PUSH2 0x372E DUP9 DUP3 DUP10 ADD PUSH2 0x31F8 JUMP JUMPDEST SWAP5 POP POP PUSH1 0x40 PUSH2 0x373F DUP9 DUP3 DUP10 ADD PUSH2 0x35C4 JUMP JUMPDEST SWAP4 POP POP PUSH1 0x60 PUSH2 0x3750 DUP9 DUP3 DUP10 ADD PUSH2 0x3310 JUMP JUMPDEST SWAP3 POP POP PUSH1 0x80 PUSH2 0x3761 DUP9 DUP3 DUP10 ADD PUSH2 0x3310 JUMP JUMPDEST SWAP2 POP POP SWAP3 SWAP6 POP SWAP3 SWAP6 SWAP1 SWAP4 POP JUMP JUMPDEST PUSH1 0x0 DUP1 PUSH1 0x40 DUP4 DUP6 SUB SLT ISZERO PUSH2 0x3785 JUMPI PUSH2 0x3784 PUSH2 0x3112 JUMP JUMPDEST JUMPDEST PUSH1 0x0 PUSH2 0x3793 DUP6 DUP3 DUP7 ADD PUSH2 0x31F8 JUMP JUMPDEST SWAP3 POP POP PUSH1 0x20 PUSH2 0x37A4 DUP6 DUP3 DUP7 ADD PUSH2 0x31F8 JUMP JUMPDEST SWAP2 POP POP SWAP3 POP SWAP3 SWAP1 POP JUMP JUMPDEST PUSH2 0x37B7 DUP2 PUSH2 0x339C JUMP JUMPDEST DUP3 MSTORE POP POP JUMP JUMPDEST PUSH1 0x0 DUP2 MLOAD SWAP1 POP SWAP2 SWAP1 POP JUMP JUMPDEST PUSH1 0x0 DUP3 DUP3 MSTORE PUSH1 0x20 DUP3 ADD SWAP1 POP SWAP3 SWAP2 POP POP JUMP JUMPDEST PUSH1 0x0 JUMPDEST DUP4 DUP2 LT ISZERO PUSH2 0x37F7 JUMPI DUP1 DUP3 ADD MLOAD DUP2 DUP5 ADD MSTORE PUSH1 0x20 DUP2 ADD SWAP1 POP PUSH2 0x37DC JUMP JUMPDEST PUSH1 0x0 DUP5 DUP5 ADD MSTORE POP POP POP POP JUMP JUMPDEST PUSH1 0x0 PUSH2 0x380E DUP3 PUSH2 0x37BD JUMP JUMPDEST PUSH2 0x3818 DUP2 DUP6 PUSH2 0x37C8 JUMP JUMPDEST SWAP4 POP PUSH2 0x3828 DUP2 DUP6 PUSH1 0x20 DUP7 ADD PUSH2 0x37D9 JUMP JUMPDEST PUSH2 0x3831 DUP2 PUSH2 0x3464 JUMP JUMPDEST DUP5 ADD SWAP2 POP POP SWAP3 SWAP2 POP POP JUMP JUMPDEST PUSH1 0x0 PUSH2 0x120 DUP3 ADD SWAP1 POP PUSH2 0x3852 PUSH1 0x0 DUP4 ADD DUP13 PUSH2 0x37AE JUMP JUMPDEST PUSH2 0x385F PUSH1 0x20 DUP4 ADD DUP12 PUSH2 0x323A JUMP JUMPDEST PUSH2 0x386C PUSH1 0x40 DUP4 ADD DUP11 PUSH2 0x323A JUMP JUMPDEST PUSH2 0x3879 PUSH1 0x60 DUP4 ADD DUP10 PUSH2 0x323A JUMP JUMPDEST PUSH2 0x3886 PUSH1 0x80 DUP4 ADD DUP9 PUSH2 0x323A JUMP JUMPDEST DUP2 DUP2 SUB PUSH1 0xA0 DUP4 ADD MSTORE PUSH2 0x3898 DUP2 DUP8 PUSH2 0x3803 JUMP JUMPDEST SWAP1 POP PUSH2 0x38A7 PUSH1 0xC0 DUP4 ADD DUP7 PUSH2 0x31AD JUMP JUMPDEST PUSH2 0x38B4 PUSH1 0xE0 DUP4 ADD DUP6 PUSH2 0x31AD JUMP JUMPDEST PUSH2 0x38C2 PUSH2 0x100 DUP4 ADD DUP5 PUSH2 0x31AD JUMP JUMPDEST SWAP11 SWAP10 POP POP POP POP POP POP POP POP POP POP JUMP JUMPDEST PUSH2 0x38D9 DUP2 PUSH2 0x31A1 JUMP JUMPDEST DUP2 EQ PUSH2 0x38E4 JUMPI PUSH1 0x0 DUP1 REVERT JUMPDEST POP JUMP JUMPDEST PUSH1 0x0 DUP2 CALLDATALOAD SWAP1 POP PUSH2 0x38F6 DUP2 PUSH2 0x38D0 JUMP JUMPDEST SWAP3 SWAP2 POP POP JUMP JUMPDEST PUSH1 0x0 DUP1 PUSH1 0x40 DUP4 DUP6 SUB SLT ISZERO PUSH2 0x3913 JUMPI PUSH2 0x3912 PUSH2 0x3112 JUMP JUMPDEST JUMPDEST PUSH1 0x0 PUSH2 0x3921 DUP6 DUP3 DUP7 ADD PUSH2 0x31F8 JUMP JUMPDEST SWAP3 POP POP PUSH1 0x20 PUSH2 0x3932 DUP6 DUP3 DUP7 ADD PUSH2 0x38E7 JUMP JUMPDEST SWAP2 POP POP SWAP3 POP SWAP3 SWAP1 POP JUMP JUMPDEST PUSH32 0x416363657373436F6E74726F6C3A2063616E206F6E6C792072656E6F756E6365 PUSH1 0x0 DUP3 ADD MSTORE PUSH32 0x20726F6C657320666F722073656C660000000000000000000000000000000000 PUSH1 0x20 DUP3 ADD MSTORE POP JUMP JUMPDEST PUSH1 0x0 PUSH2 0x3998 PUSH1 0x2F DUP4 PUSH2 0x37C8 JUMP JUMPDEST SWAP2 POP PUSH2 0x39A3 DUP3 PUSH2 0x393C JUMP JUMPDEST PUSH1 0x40 DUP3 ADD SWAP1 POP SWAP2 SWAP1 POP JUMP JUMPDEST PUSH1 0x0 PUSH1 0x20 DUP3 ADD SWAP1 POP DUP2 DUP2 SUB PUSH1 0x0 DUP4 ADD MSTORE PUSH2 0x39C7 DUP2 PUSH2 0x398B JUMP JUMPDEST SWAP1 POP SWAP2 SWAP1 POP JUMP JUMPDEST PUSH32 0x4D75737420686176652061646D696E20726F6C6520746F20706572666F726D20 PUSH1 0x0 DUP3 ADD MSTORE PUSH32 0x7468697320616374696F6E2E0000000000000000000000000000000000000000 PUSH1 0x20 DUP3 ADD MSTORE POP JUMP JUMPDEST PUSH1 0x0 PUSH2 0x3A2A PUSH1 0x2C DUP4 PUSH2 0x37C8 JUMP JUMPDEST SWAP2 POP PUSH2 0x3A35 DUP3 PUSH2 0x39CE JUMP JUMPDEST PUSH1 0x40 DUP3 ADD SWAP1 POP SWAP2 SWAP1 POP JUMP JUMPDEST PUSH1 0x0 PUSH1 0x20 DUP3 ADD SWAP1 POP DUP2 DUP2 SUB PUSH1 0x0 DUP4 ADD MSTORE PUSH2 0x3A59 DUP2 PUSH2 0x3A1D JUMP JUMPDEST SWAP1 POP SWAP2 SWAP1 POP JUMP JUMPDEST PUSH32 0x496E697469616C697A61626C653A20636F6E747261637420697320616C726561 PUSH1 0x0 DUP3 ADD MSTORE PUSH32 0x647920696E697469616C697A6564000000000000000000000000000000000000 PUSH1 0x20 DUP3 ADD MSTORE POP JUMP JUMPDEST PUSH1 0x0 PUSH2 0x3ABC PUSH1 0x2E DUP4 PUSH2 0x37C8 JUMP JUMPDEST SWAP2 POP PUSH2 0x3AC7 DUP3 PUSH2 0x3A60 JUMP JUMPDEST PUSH1 0x40 DUP3 ADD SWAP1 POP SWAP2 SWAP1 POP JUMP JUMPDEST PUSH1 0x0 PUSH1 0x20 DUP3 ADD SWAP1 POP DUP2 DUP2 SUB PUSH1 0x0 DUP4 ADD MSTORE PUSH2 0x3AEB DUP2 PUSH2 0x3AAF JUMP JUMPDEST SWAP1 POP SWAP2 SWAP1 POP JUMP JUMPDEST PUSH1 0x0 DUP2 SWAP1 POP SWAP2 SWAP1 POP JUMP JUMPDEST PUSH1 0x0 DUP2 SWAP1 POP SWAP2 SWAP1 POP JUMP JUMPDEST PUSH1 0x0 PUSH2 0x3B21 PUSH2 0x3B1C PUSH2 0x3B17 DUP5 PUSH2 0x3AF2 JUMP JUMPDEST PUSH2 0x3AFC JUMP JUMPDEST PUSH2 0x35A0 JUMP JUMPDEST SWAP1 POP SWAP2 SWAP1 POP JUMP JUMPDEST PUSH2 0x3B31 DUP2 PUSH2 0x3B06 JUMP JUMPDEST DUP3 MSTORE POP POP JUMP JUMPDEST PUSH1 0x0 PUSH1 0x20 DUP3 ADD SWAP1 POP PUSH2 0x3B4C PUSH1 0x0 DUP4 ADD DUP5 PUSH2 0x3B28 JUMP JUMPDEST SWAP3 SWAP2 POP POP JUMP JUMPDEST PUSH32 0x4E487B7100000000000000000000000000000000000000000000000000000000 PUSH1 0x0 MSTORE PUSH1 0x11 PUSH1 0x4 MSTORE PUSH1 0x24 PUSH1 0x0 REVERT JUMPDEST PUSH1 0x0 PUSH2 0x3B8C DUP3 PUSH2 0x31D7 JUMP JUMPDEST SWAP2 POP PUSH32 0xFFFFFFFFFFFFFFFFFFFFFFFFFFFFFFFFFFFFFFFFFFFFFFFFFFFFFFFFFFFFFFFF DUP3 SUB PUSH2 0x3BBE JUMPI PUSH2 0x3BBD PUSH2 0x3B52 JUMP JUMPDEST JUMPDEST PUSH1 0x1 DUP3 ADD SWAP1 POP SWAP2 SWAP1 POP JUMP JUMPDEST PUSH32 0x4E487B7100000000000000000000000000000000000000000000000000000000 PUSH1 0x0 MSTORE PUSH1 0x22 PUSH1 0x4 MSTORE PUSH1 0x24 PUSH1 0x0 REVERT JUMPDEST PUSH1 0x0 PUSH1 0x2 DUP3 DIV SWAP1 POP PUSH1 0x1 DUP3 AND DUP1 PUSH2 0x3C10 JUMPI PUSH1 0x7F DUP3 AND SWAP2 POP JUMPDEST PUSH1 0x20 DUP3 LT DUP2 SUB PUSH2 0x3C23 JUMPI PUSH2 0x3C22 PUSH2 0x3BC9 JUMP JUMPDEST JUMPDEST POP SWAP2 SWAP1 POP JUMP JUMPDEST PUSH1 0x0 DUP2 SWAP1 POP DUP2 PUSH1 0x0 MSTORE PUSH1 0x20 PUSH1 0x0 KECCAK256 SWAP1 POP SWAP2 SWAP1 POP JUMP JUMPDEST PUSH1 0x0 PUSH1 0x20 PUSH1 0x1F DUP4 ADD DIV SWAP1 POP SWAP2 SWAP1 POP JUMP JUMPDEST PUSH1 0x0 DUP3 DUP3 SHL SWAP1 POP SWAP3 SWAP2 POP POP JUMP JUMPDEST PUSH1 0x0 PUSH1 0x8 DUP4 MUL PUSH2 0x3C8B PUSH32 0xFFFFFFFFFFFFFFFFFFFFFFFFFFFFFFFFFFFFFFFFFFFFFFFFFFFFFFFFFFFFFFFF DUP3 PUSH2 0x3C4E JUMP JUMPDEST PUSH2 0x3C95 DUP7 DUP4 PUSH2 0x3C4E JUMP JUMPDEST SWAP6 POP DUP1 NOT DUP5 AND SWAP4 POP DUP1 DUP7 AND DUP5 OR SWAP3 POP POP POP SWAP4 SWAP3 POP POP POP JUMP JUMPDEST PUSH1 0x0 PUSH2 0x3CC8 PUSH2 0x3CC3 PUSH2 0x3CBE DUP5 PUSH2 0x31D7 JUMP JUMPDEST PUSH2 0x3AFC JUMP JUMPDEST PUSH2 0x31D7 JUMP JUMPDEST SWAP1 POP SWAP2 SWAP1 POP JUMP JUMPDEST PUSH1 0x0 DUP2 SWAP1 POP SWAP2 SWAP1 POP JUMP JUMPDEST PUSH2 0x3CE2 DUP4 PUSH2 0x3CAD JUMP JUMPDEST PUSH2 0x3CF6 PUSH2 0x3CEE DUP3 PUSH2 0x3CCF JUMP JUMPDEST DUP5 DUP5 SLOAD PUSH2 0x3C5B JUMP JUMPDEST DUP3 SSTORE POP POP POP POP JUMP JUMPDEST PUSH1 0x0 SWAP1 JUMP JUMPDEST PUSH2 0x3D0B PUSH2 0x3CFE JUMP JUMPDEST PUSH2 0x3D16 DUP2 DUP5 DUP5 PUSH2 0x3CD9 JUMP JUMPDEST POP POP POP JUMP JUMPDEST JUMPDEST DUP2 DUP2 LT ISZERO PUSH2 0x3D3A JUMPI PUSH2 0x3D2F PUSH1 0x0 DUP3 PUSH2 0x3D03 JUMP JUMPDEST PUSH1 0x1 DUP2 ADD SWAP1 POP PUSH2 0x3D1C JUMP JUMPDEST POP POP JUMP JUMPDEST PUSH1 0x1F DUP3 GT ISZERO PUSH2 0x3D7F JUMPI PUSH2 0x3D50 DUP2 PUSH2 0x3C29 JUMP JUMPDEST PUSH2 0x3D59 DUP5 PUSH2 0x3C3E JUMP JUMPDEST DUP2 ADD PUSH1 0x20 DUP6 LT ISZERO PUSH2 0x3D68 JUMPI DUP2 SWAP1 POP JUMPDEST PUSH2 0x3D7C PUSH2 0x3D74 DUP6 PUSH2 0x3C3E JUMP JUMPDEST DUP4 ADD DUP3 PUSH2 0x3D1B JUMP JUMPDEST POP POP JUMPDEST POP POP POP JUMP JUMPDEST PUSH1 0x0 DUP3 DUP3 SHR SWAP1 POP SWAP3 SWAP2 POP POP JUMP JUMPDEST PUSH1 0x0 PUSH2 0x3DA2 PUSH1 0x0 NOT DUP5 PUSH1 0x8 MUL PUSH2 0x3D84 JUMP JUMPDEST NOT DUP1 DUP4 AND SWAP2 POP POP SWAP3 SWAP2 POP POP JUMP JUMPDEST PUSH1 0x0 PUSH2 0x3DBB DUP4 DUP4 PUSH2 0x3D91 JUMP JUMPDEST SWAP2 POP DUP3 PUSH1 0x2 MUL DUP3 OR SWAP1 POP SWAP3 SWAP2 POP POP JUMP JUMPDEST PUSH2 0x3DD4 DUP3 PUSH2 0x37BD JUMP JUMPDEST PUSH8 0xFFFFFFFFFFFFFFFF DUP2 GT ISZERO PUSH2 0x3DED JUMPI PUSH2 0x3DEC PUSH2 0x3475 JUMP JUMPDEST JUMPDEST PUSH2 0x3DF7 DUP3 SLOAD PUSH2 0x3BF8 JUMP JUMPDEST PUSH2 0x3E02 DUP3 DUP3 DUP6 PUSH2 0x3D3E JUMP JUMPDEST PUSH1 0x0 PUSH1 0x20 SWAP1 POP PUSH1 0x1F DUP4 GT PUSH1 0x1 DUP2 EQ PUSH2 0x3E35 JUMPI PUSH1 0x0 DUP5 ISZERO PUSH2 0x3E23 JUMPI DUP3 DUP8 ADD MLOAD SWAP1 POP JUMPDEST PUSH2 0x3E2D DUP6 DUP3 PUSH2 0x3DAF JUMP JUMPDEST DUP7 SSTORE POP PUSH2 0x3E95 JUMP JUMPDEST PUSH1 0x1F NOT DUP5 AND PUSH2 0x3E43 DUP7 PUSH2 0x3C29 JUMP JUMPDEST PUSH1 0x0 JUMPDEST DUP3 DUP2 LT ISZERO PUSH2 0x3E6B JUMPI DUP5 DUP10 ADD MLOAD DUP3 SSTORE PUSH1 0x1 DUP3 ADD SWAP2 POP PUSH1 0x20 DUP6 ADD SWAP5 POP PUSH1 0x20 DUP2 ADD SWAP1 POP PUSH2 0x3E46 JUMP JUMPDEST DUP7 DUP4 LT ISZERO PUSH2 0x3E88 JUMPI DUP5 DUP10 ADD MLOAD PUSH2 0x3E84 PUSH1 0x1F DUP10 AND DUP3 PUSH2 0x3D91 JUMP JUMPDEST DUP4 SSTORE POP JUMPDEST PUSH1 0x1 PUSH1 0x2 DUP9 MUL ADD DUP9 SSTORE POP POP POP JUMPDEST POP POP POP POP POP POP JUMP JUMPDEST PUSH1 0x0 PUSH2 0x3EA8 DUP3 PUSH2 0x31D7 JUMP JUMPDEST SWAP2 POP PUSH2 0x3EB3 DUP4 PUSH2 0x31D7 JUMP JUMPDEST SWAP3 POP DUP3 DUP3 ADD SWAP1 POP DUP1 DUP3 GT ISZERO PUSH2 0x3ECB JUMPI PUSH2 0x3ECA PUSH2 0x3B52 JUMP JUMPDEST JUMPDEST SWAP3 SWAP2 POP POP JUMP JUMPDEST PUSH1 0x0 DUP2 MLOAD SWAP1 POP PUSH2 0x3EE0 DUP2 PUSH2 0x38D0 JUMP JUMPDEST SWAP3 SWAP2 POP POP JUMP JUMPDEST PUSH1 0x0 PUSH1 0x20 DUP3 DUP5 SUB SLT ISZERO PUSH2 0x3EFC JUMPI PUSH2 0x3EFB PUSH2 0x3112 JUMP JUMPDEST JUMPDEST PUSH1 0x0 PUSH2 0x3F0A DUP5 DUP3 DUP6 ADD PUSH2 0x3ED1 JUMP JUMPDEST SWAP2 POP POP SWAP3 SWAP2 POP POP JUMP JUMPDEST PUSH1 0x0 DUP2 SWAP1 POP SWAP3 SWAP2 POP POP JUMP JUMPDEST PUSH1 0x0 PUSH2 0x3F29 DUP3 PUSH2 0x37BD JUMP JUMPDEST PUSH2 0x3F33 DUP2 DUP6 PUSH2 0x3F13 JUMP JUMPDEST SWAP4 POP PUSH2 0x3F43 DUP2 DUP6 PUSH1 0x20 DUP7 ADD PUSH2 0x37D9 JUMP JUMPDEST DUP1 DUP5 ADD SWAP2 POP POP SWAP3 SWAP2 POP POP JUMP JUMPDEST PUSH1 0x0 PUSH2 0x3F5B DUP3 DUP5 PUSH2 0x3F1E JUMP JUMPDEST SWAP2 POP DUP2 SWAP1 POP SWAP3 SWAP2 POP POP JUMP JUMPDEST PUSH32 0x496E697469616C697A61626C653A20636F6E7472616374206973206E6F742069 PUSH1 0x0 DUP3 ADD MSTORE PUSH32 0x6E697469616C697A696E67000000000000000000000000000000000000000000 PUSH1 0x20 DUP3 ADD MSTORE POP JUMP JUMPDEST PUSH1 0x0 PUSH2 0x3FC2 PUSH1 0x2B DUP4 PUSH2 0x37C8 JUMP JUMPDEST SWAP2 POP PUSH2 0x3FCD DUP3 PUSH2 0x3F66 JUMP JUMPDEST PUSH1 0x40 DUP3 ADD SWAP1 POP SWAP2 SWAP1 POP JUMP JUMPDEST PUSH1 0x0 PUSH1 0x20 DUP3 ADD SWAP1 POP DUP2 DUP2 SUB PUSH1 0x0 DUP4 ADD MSTORE PUSH2 0x3FF1 DUP2 PUSH2 0x3FB5 JUMP JUMPDEST SWAP1 POP SWAP2 SWAP1 POP JUMP JUMPDEST PUSH1 0x0 PUSH2 0x4003 DUP3 PUSH2 0x31D7 JUMP JUMPDEST SWAP2 POP PUSH2 0x400E DUP4 PUSH2 0x31D7 JUMP JUMPDEST SWAP3 POP DUP2 PUSH32 0xFFFFFFFFFFFFFFFFFFFFFFFFFFFFFFFFFFFFFFFFFFFFFFFFFFFFFFFFFFFFFFFF DIV DUP4 GT DUP3 ISZERO ISZERO AND ISZERO PUSH2 0x4047 JUMPI PUSH2 0x4046 PUSH2 0x3B52 JUMP JUMPDEST JUMPDEST DUP3 DUP3 MUL SWAP1 POP SWAP3 SWAP2 POP POP JUMP JUMPDEST PUSH1 0x0 PUSH1 0x20 DUP3 ADD SWAP1 POP PUSH2 0x4067 PUSH1 0x0 DUP4 ADD DUP5 PUSH2 0x37AE JUMP JUMPDEST SWAP3 SWAP2 POP POP JUMP JUMPDEST PUSH1 0x0 DUP2 MLOAD SWAP1 POP PUSH2 0x407C DUP2 PUSH2 0x31E1 JUMP JUMPDEST SWAP3 SWAP2 POP POP JUMP JUMPDEST PUSH1 0x0 PUSH1 0x20 DUP3 DUP5 SUB SLT ISZERO PUSH2 0x4098 JUMPI PUSH2 0x4097 PUSH2 0x3112 JUMP JUMPDEST JUMPDEST PUSH1 0x0 PUSH2 0x40A6 DUP5 DUP3 DUP6 ADD PUSH2 0x406D JUMP JUMPDEST SWAP2 POP POP SWAP3 SWAP2 POP POP JUMP JUMPDEST PUSH32 0x4E487B7100000000000000000000000000000000000000000000000000000000 PUSH1 0x0 MSTORE PUSH1 0x12 PUSH1 0x4 MSTORE PUSH1 0x24 PUSH1 0x0 REVERT JUMPDEST PUSH1 0x0 PUSH2 0x40E9 DUP3 PUSH2 0x31D7 JUMP JUMPDEST SWAP2 POP PUSH2 0x40F4 DUP4 PUSH2 0x31D7 JUMP JUMPDEST SWAP3 POP DUP3 PUSH2 0x4104 JUMPI PUSH2 0x4103 PUSH2 0x40AF JUMP JUMPDEST JUMPDEST DUP3 DUP3 DIV SWAP1 POP SWAP3 SWAP2 POP POP JUMP JUMPDEST PUSH1 0x0 PUSH2 0x411A DUP3 PUSH2 0x31D7 JUMP JUMPDEST SWAP2 POP PUSH1 0x0 DUP3 SUB PUSH2 0x412D JUMPI PUSH2 0x412C PUSH2 0x3B52 JUMP JUMPDEST JUMPDEST PUSH1 0x1 DUP3 SUB SWAP1 POP SWAP2 SWAP1 POP JUMP JUMPDEST PUSH2 0x4141 DUP2 PUSH2 0x35A0 JUMP JUMPDEST DUP3 MSTORE POP POP JUMP JUMPDEST PUSH1 0x0 PUSH1 0xE0 DUP3 ADD SWAP1 POP PUSH2 0x415C PUSH1 0x0 DUP4 ADD DUP11 PUSH2 0x37AE JUMP JUMPDEST PUSH2 0x4169 PUSH1 0x20 DUP4 ADD DUP10 PUSH2 0x37AE JUMP JUMPDEST PUSH2 0x4176 PUSH1 0x40 DUP4 ADD DUP9 PUSH2 0x323A JUMP JUMPDEST PUSH2 0x4183 PUSH1 0x60 DUP4 ADD DUP8 PUSH2 0x323A JUMP JUMPDEST PUSH2 0x4190 PUSH1 0x80 DUP4 ADD DUP7 PUSH2 0x4138 JUMP JUMPDEST PUSH2 0x419D PUSH1 0xA0 DUP4 ADD DUP6 PUSH2 0x3352 JUMP JUMPDEST PUSH2 0x41AA PUSH1 0xC0 DUP4 ADD DUP5 PUSH2 0x3352 JUMP JUMPDEST SWAP9 SWAP8 POP POP POP POP POP POP POP POP JUMP JUMPDEST PUSH32 0x5361666545524332303A207065726D697420646964206E6F7420737563636565 PUSH1 0x0 DUP3 ADD MSTORE PUSH32 0x6400000000000000000000000000000000000000000000000000000000000000 PUSH1 0x20 DUP3 ADD MSTORE POP JUMP JUMPDEST PUSH1 0x0 PUSH2 0x4212 PUSH1 0x21 DUP4 PUSH2 0x37C8 JUMP JUMPDEST SWAP2 POP PUSH2 0x421D DUP3 PUSH2 0x41B6 JUMP JUMPDEST PUSH1 0x40 DUP3 ADD SWAP1 POP SWAP2 SWAP1 POP JUMP JUMPDEST PUSH1 0x0 PUSH1 0x20 DUP3 ADD SWAP1 POP DUP2 DUP2 SUB PUSH1 0x0 DUP4 ADD MSTORE PUSH2 0x4241 DUP2 PUSH2 0x4205 JUMP JUMPDEST SWAP1 POP SWAP2 SWAP1 POP JUMP JUMPDEST PUSH1 0x0 PUSH1 0x40 DUP3 ADD SWAP1 POP PUSH2 0x425D PUSH1 0x0 DUP4 ADD DUP6 PUSH2 0x37AE JUMP JUMPDEST PUSH2 0x426A PUSH1 0x20 DUP4 ADD DUP5 PUSH2 0x323A JUMP JUMPDEST SWAP4 SWAP3 POP POP POP JUMP JUMPDEST PUSH32 0x416363657373436F6E74726F6C3A206163636F756E7420000000000000000000 PUSH1 0x0 DUP3 ADD MSTORE POP JUMP JUMPDEST PUSH1 0x0 PUSH2 0x42A7 PUSH1 0x17 DUP4 PUSH2 0x3F13 JUMP JUMPDEST SWAP2 POP PUSH2 0x42B2 DUP3 PUSH2 0x4271 JUMP JUMPDEST PUSH1 0x17 DUP3 ADD SWAP1 POP SWAP2 SWAP1 POP JUMP JUMPDEST PUSH32 0x206973206D697373696E6720726F6C6520000000000000000000000000000000 PUSH1 0x0 DUP3 ADD MSTORE POP JUMP JUMPDEST PUSH1 0x0 PUSH2 0x42F3 PUSH1 0x11 DUP4 PUSH2 0x3F13 JUMP JUMPDEST SWAP2 POP PUSH2 0x42FE DUP3 PUSH2 0x42BD JUMP JUMPDEST PUSH1 0x11 DUP3 ADD SWAP1 POP SWAP2 SWAP1 POP JUMP JUMPDEST PUSH1 0x0 PUSH2 0x4314 DUP3 PUSH2 0x429A JUMP JUMPDEST SWAP2 POP PUSH2 0x4320 DUP3 DUP6 PUSH2 0x3F1E JUMP JUMPDEST SWAP2 POP PUSH2 0x432B DUP3 PUSH2 0x42E6 JUMP JUMPDEST SWAP2 POP PUSH2 0x4337 DUP3 DUP5 PUSH2 0x3F1E JUMP JUMPDEST SWAP2 POP DUP2 SWAP1 POP SWAP4 SWAP3 POP POP POP JUMP JUMPDEST PUSH1 0x0 PUSH1 0x20 DUP3 ADD SWAP1 POP DUP2 DUP2 SUB PUSH1 0x0 DUP4 ADD MSTORE PUSH2 0x435D DUP2 DUP5 PUSH2 0x3803 JUMP JUMPDEST SWAP1 POP SWAP3 SWAP2 POP POP JUMP JUMPDEST PUSH32 0x5061757361626C653A206E6F7420706175736564000000000000000000000000 PUSH1 0x0 DUP3 ADD MSTORE POP JUMP JUMPDEST PUSH1 0x0 PUSH2 0x439B PUSH1 0x14 DUP4 PUSH2 0x37C8 JUMP JUMPDEST SWAP2 POP PUSH2 0x43A6 DUP3 PUSH2 0x4365 JUMP JUMPDEST PUSH1 0x20 DUP3 ADD SWAP1 POP SWAP2 SWAP1 POP JUMP JUMPDEST PUSH1 0x0 PUSH1 0x20 DUP3 ADD SWAP1 POP DUP2 DUP2 SUB PUSH1 0x0 DUP4 ADD MSTORE PUSH2 0x43CA DUP2 PUSH2 0x438E JUMP JUMPDEST SWAP1 POP SWAP2 SWAP1 POP JUMP JUMPDEST PUSH32 0x5361666545524332303A204552433230206F7065726174696F6E20646964206E PUSH1 0x0 DUP3 ADD MSTORE PUSH32 0x6F74207375636365656400000000000000000000000000000000000000000000 PUSH1 0x20 DUP3 ADD MSTORE POP JUMP JUMPDEST PUSH1 0x0 PUSH2 0x442D PUSH1 0x2A DUP4 PUSH2 0x37C8 JUMP JUMPDEST SWAP2 POP PUSH2 0x4438 DUP3 PUSH2 0x43D1 JUMP JUMPDEST PUSH1 0x40 DUP3 ADD SWAP1 POP SWAP2 SWAP1 POP JUMP JUMPDEST PUSH1 0x0 PUSH1 0x20 DUP3 ADD SWAP1 POP DUP2 DUP2 SUB PUSH1 0x0 DUP4 ADD MSTORE PUSH2 0x445C DUP2 PUSH2 0x4420 JUMP JUMPDEST SWAP1 POP SWAP2 SWAP1 POP JUMP JUMPDEST PUSH32 0x5061757361626C653A2070617573656400000000000000000000000000000000 PUSH1 0x0 DUP3 ADD MSTORE POP JUMP JUMPDEST PUSH1 0x0 PUSH2 0x4499 PUSH1 0x10 DUP4 PUSH2 0x37C8 JUMP JUMPDEST SWAP2 POP PUSH2 0x44A4 DUP3 PUSH2 0x4463 JUMP JUMPDEST PUSH1 0x20 DUP3 ADD SWAP1 POP SWAP2 SWAP1 POP JUMP JUMPDEST PUSH1 0x0 PUSH1 0x20 DUP3 ADD SWAP1 POP DUP2 DUP2 SUB PUSH1 0x0 DUP4 ADD MSTORE PUSH2 0x44C8 DUP2 PUSH2 0x448C JUMP JUMPDEST SWAP1 POP SWAP2 SWAP1 POP JUMP JUMPDEST PUSH32 0x4E487B7100000000000000000000000000000000000000000000000000000000 PUSH1 0x0 MSTORE PUSH1 0x32 PUSH1 0x4 MSTORE PUSH1 0x24 PUSH1 0x0 REVERT JUMPDEST PUSH32 0x537472696E67733A20686578206C656E67746820696E73756666696369656E74 PUSH1 0x0 DUP3 ADD MSTORE POP JUMP JUMPDEST PUSH1 0x0 PUSH2 0x4534 PUSH1 0x20 DUP4 PUSH2 0x37C8 JUMP JUMPDEST SWAP2 POP PUSH2 0x453F DUP3 PUSH2 0x44FE JUMP JUMPDEST PUSH1 0x20 DUP3 ADD SWAP1 POP SWAP2 SWAP1 POP JUMP JUMPDEST PUSH1 0x0 PUSH1 0x20 DUP3 ADD SWAP1 POP DUP2 DUP2 SUB PUSH1 0x0 DUP4 ADD MSTORE PUSH2 0x4563 DUP2 PUSH2 0x4527 JUMP JUMPDEST SWAP1 POP SWAP2 SWAP1 POP JUMP JUMPDEST PUSH32 0x416464726573733A20696E73756666696369656E742062616C616E636520666F PUSH1 0x0 DUP3 ADD MSTORE PUSH32 0x722063616C6C0000000000000000000000000000000000000000000000000000 PUSH1 0x20 DUP3 ADD MSTORE POP JUMP JUMPDEST PUSH1 0x0 PUSH2 0x45C6 PUSH1 0x26 DUP4 PUSH2 0x37C8 JUMP JUMPDEST SWAP2 POP PUSH2 0x45D1 DUP3 PUSH2 0x456A JUMP JUMPDEST PUSH1 0x40 DUP3 ADD SWAP1 POP SWAP2 SWAP1 POP JUMP JUMPDEST PUSH1 0x0 PUSH1 0x20 DUP3 ADD SWAP1 POP DUP2 DUP2 SUB PUSH1 0x0 DUP4 ADD MSTORE PUSH2 0x45F5 DUP2 PUSH2 0x45B9 JUMP JUMPDEST SWAP1 POP SWAP2 SWAP1 POP JUMP JUMPDEST PUSH1 0x0 DUP2 MLOAD SWAP1 POP SWAP2 SWAP1 POP JUMP JUMPDEST PUSH1 0x0 DUP2 SWAP1 POP SWAP3 SWAP2 POP POP JUMP JUMPDEST PUSH1 0x0 PUSH2 0x461D DUP3 PUSH2 0x45FC JUMP JUMPDEST PUSH2 0x4627 DUP2 DUP6 PUSH2 0x4607 JUMP JUMPDEST SWAP4 POP PUSH2 0x4637 DUP2 DUP6 PUSH1 0x20 DUP7 ADD PUSH2 0x37D9 JUMP JUMPDEST DUP1 DUP5 ADD SWAP2 POP POP SWAP3 SWAP2 POP POP JUMP JUMPDEST PUSH1 0x0 PUSH2 0x464F DUP3 DUP5 PUSH2 0x4612 JUMP JUMPDEST SWAP2 POP DUP2 SWAP1 POP SWAP3 SWAP2 POP POP JUMP JUMPDEST PUSH32 0x416464726573733A2063616C6C20746F206E6F6E2D636F6E7472616374000000 PUSH1 0x0 DUP3 ADD MSTORE POP JUMP JUMPDEST PUSH1 0x0 PUSH2 0x4690 PUSH1 0x1D DUP4 PUSH2 0x37C8 JUMP JUMPDEST SWAP2 POP PUSH2 0x469B DUP3 PUSH2 0x465A JUMP JUMPDEST PUSH1 0x20 DUP3 ADD SWAP1 POP SWAP2 SWAP1 POP JUMP JUMPDEST PUSH1 0x0 PUSH1 0x20 DUP3 ADD SWAP1 POP DUP2 DUP2 SUB PUSH1 0x0 DUP4 ADD MSTORE PUSH2 0x46BF DUP2 PUSH2 0x4683 JUMP JUMPDEST SWAP1 POP SWAP2 SWAP1 POP JUMP INVALID LOG2 PUSH5 0x6970667358 0x22 SLT KECCAK256 PUSH4 0x34133160 0xFC 0xF8 GAS GASPRICE 0xDB 0xD2 0xE8 SWAP11 SWAP4 0xC3 LOG3 0xC9 SWAP5 0xB2 0xBA MUL DUP8 0xBE LOG2 PUSH8 0xED61C6B90AA9F64 PUSH20 0x6F6C634300081000330000000000000000000000 "},"gasEstimates":{"creation":{"codeDepositCost":"3634400","executionCost":"infinite","totalCost":"infinite"},"external":{"DEFAULT_ADMIN_ROLE()":"380","__BaseUpgradeablePausable_init(address)":"infinite","challengeDecision(uint256,uint256,uint8,bytes32,bytes32)":"infinite","claimDecision(uint256)":"infinite","claimID()":"2496","claims(uint256)":"infinite","createClaim(uint256,uint256,string,uint256,uint256,uint8,bytes32,bytes32)":"infinite","getClaimID()":"2547","getRoleAdmin(bytes32)":"infinite","getVotingInfo(uint256)":"infinite","grantRole(bytes32,address)":"infinite","hasRole(bytes32,address)":"3230","individualClaims(address)":"2925","initialize(address,address)":"infinite","isAdmin()":"2859","isAdvisor(address)":"2890","pause()":"infinite","paused()":"2524","protocolSpecificClaims(uint256,uint256)":"infinite","renounceRole(bytes32,address)":"infinite","revokeRole(bytes32,address)":"infinite","supportsInterface(bytes4)":"774","unpause()":"infinite","updateAdvisors(address)":"27381","updateStakeAmount(uint256)":"25066","updateVotingEndTime(uint256,uint256)":"infinite","viewVoteReceipt(uint256)":"infinite","vote(uint256,bool)":"infinite"}},"methodIdentifiers":{"DEFAULT_ADMIN_ROLE()":"a217fddf","__BaseUpgradeablePausable_init(address)":"6e810b1a","challengeDecision(uint256,uint256,uint8,bytes32,bytes32)":"602ce4c6","claimDecision(uint256)":"d0c36092","claimID()":"5df6f2ee","claims(uint256)":"a888c2cd","createClaim(uint256,uint256,string,uint256,uint256,uint8,bytes32,bytes32)":"55e5b444","getClaimID()":"ef0c997a","getRoleAdmin(bytes32)":"248a9ca3","getVotingInfo(uint256)":"248a0634","grantRole(bytes32,address)":"2f2ff15d","hasRole(bytes32,address)":"91d14854","individualClaims(address)":"c4993140","initialize(address,address)":"485cc955","isAdmin()":"b6db75a0","isAdvisor(address)":"c661fed3","pause()":"8456cb59","paused()":"5c975abb","protocolSpecificClaims(uint256,uint256)":"c95bee81","renounceRole(bytes32,address)":"36568abe","revokeRole(bytes32,address)":"d547741f","supportsInterface(bytes4)":"01ffc9a7","unpause()":"3f4ba83a","updateAdvisors(address)":"59405ed3","updateStakeAmount(uint256)":"c90054ee","updateVotingEndTime(uint256,uint256)":"8c33b395","viewVoteReceipt(uint256)":"20849b07","vote(uint256,bool)":"c9d27afe"}},"storageLayout":{"storage":[{"astId":418,"contract":"contracts/core/payAsYouGo/Claim.sol:ClaimGovernance","label":"_initialized","offset":0,"slot":"0","type":"t_uint8"},{"astId":421,"contract":"contracts/core/payAsYouGo/Claim.sol:ClaimGovernance","label":"_initializing","offset":1,"slot":"0","type":"t_bool"},{"astId":1500,"contract":"contracts/core/payAsYouGo/Claim.sol:ClaimGovernance","label":"__gap","offset":0,"slot":"1","type":"t_array(t_uint256)50_storage"},{"astId":601,"contract":"contracts/core/payAsYouGo/Claim.sol:ClaimGovernance","label":"_paused","offset":0,"slot":"51","type":"t_bool"},{"astId":706,"contract":"contracts/core/payAsYouGo/Claim.sol:ClaimGovernance","label":"__gap","offset":0,"slot":"52","type":"t_array(t_uint256)49_storage"},{"astId":1719,"contract":"contracts/core/payAsYouGo/Claim.sol:ClaimGovernance","label":"__gap","offset":0,"slot":"101","type":"t_array(t_uint256)50_storage"},{"astId":39,"contract":"contracts/core/payAsYouGo/Claim.sol:ClaimGovernance","label":"_roles","offset":0,"slot":"151","type":"t_mapping(t_bytes32,t_struct(RoleData)34_storage)"},{"astId":334,"contract":"contracts/core/payAsYouGo/Claim.sol:ClaimGovernance","label":"__gap","offset":0,"slot":"152","type":"t_array(t_uint256)49_storage"},{"astId":721,"contract":"contracts/core/payAsYouGo/Claim.sol:ClaimGovernance","label":"_status","offset":0,"slot":"201","type":"t_uint256"},{"astId":779,"contract":"contracts/core/payAsYouGo/Claim.sol:ClaimGovernance","label":"__gap","offset":0,"slot":"202","type":"t_array(t_uint256)49_storage"},{"astId":2743,"contract":"contracts/core/payAsYouGo/Claim.sol:ClaimGovernance","label":"claimID","offset":0,"slot":"251","type":"t_uint256"},{"astId":2745,"contract":"contracts/core/payAsYouGo/Claim.sol:ClaimGovernance","label":"_stakedAmount","offset":0,"slot":"252","type":"t_uint256"},{"astId":2747,"contract":"contracts/core/payAsYouGo/Claim.sol:ClaimGovernance","label":"_openClaimsCount","offset":0,"slot":"253","type":"t_uint256"},{"astId":2768,"contract":"contracts/core/payAsYouGo/Claim.sol:ClaimGovernance","label":"_tokenDAI","offset":0,"slot":"254","type":"t_contract(IERC20Upgradeable)858"},{"astId":2771,"contract":"contracts/core/payAsYouGo/Claim.sol:ClaimGovernance","label":"_tokenPermitDAI","offset":0,"slot":"255","type":"t_contract(IERC20PermitUpgradeable)894"},{"astId":2774,"contract":"contracts/core/payAsYouGo/Claim.sol:ClaimGovernance","label":"_tokenGSZT","offset":0,"slot":"256","type":"t_contract(IERC20Upgradeable)858"},{"astId":2777,"contract":"contracts/core/payAsYouGo/Claim.sol:ClaimGovernance","label":"_globalPauseOperation","offset":0,"slot":"257","type":"t_contract(IGlobalPauseOperation)3940"},{"astId":2832,"contract":"contracts/core/payAsYouGo/Claim.sol:ClaimGovernance","label":"isAdvisor","offset":0,"slot":"258","type":"t_mapping(t_address,t_bool)"},{"astId":2838,"contract":"contracts/core/payAsYouGo/Claim.sol:ClaimGovernance","label":"claims","offset":0,"slot":"259","type":"t_mapping(t_uint256,t_struct(Claim)2806_storage)"},{"astId":2843,"contract":"contracts/core/payAsYouGo/Claim.sol:ClaimGovernance","label":"individualClaims","offset":0,"slot":"260","type":"t_mapping(t_address,t_uint256)"},{"astId":2850,"contract":"contracts/core/payAsYouGo/Claim.sol:ClaimGovernance","label":"protocolSpecificClaims","offset":0,"slot":"261","type":"t_mapping(t_uint256,t_mapping(t_uint256,t_uint256))"}],"types":{"t_address":{"encoding":"inplace","label":"address","numberOfBytes":"20"},"t_array(t_uint256)49_storage":{"base":"t_uint256","encoding":"inplace","label":"uint256[49]","numberOfBytes":"1568"},"t_array(t_uint256)50_storage":{"base":"t_uint256","encoding":"inplace","label":"uint256[50]","numberOfBytes":"1600"},"t_bool":{"encoding":"inplace","label":"bool","numberOfBytes":"1"},"t_bytes32":{"encoding":"inplace","label":"bytes32","numberOfBytes":"32"},"t_contract(IERC20PermitUpgradeable)894":{"encoding":"inplace","label":"contract IERC20PermitUpgradeable","numberOfBytes":"20"},"t_contract(IERC20Upgradeable)858":{"encoding":"inplace","label":"contract IERC20Upgradeable","numberOfBytes":"20"},"t_contract(IGlobalPauseOperation)3940":{"encoding":"inplace","label":"contract IGlobalPauseOperation","numberOfBytes":"20"},"t_mapping(t_address,t_bool)":{"encoding":"mapping","key":"t_address","label":"mapping(address => bool)","numberOfBytes":"32","value":"t_bool"},"t_mapping(t_address,t_struct(Receipt)2828_storage)":{"encoding":"mapping","key":"t_address","label":"mapping(address => struct ClaimGovernance.Receipt)","numberOfBytes":"32","value":"t_struct(Receipt)2828_storage"},"t_mapping(t_address,t_uint256)":{"encoding":"mapping","key":"t_address","label":"mapping(address => uint256)","numberOfBytes":"32","value":"t_uint256"},"t_mapping(t_bytes32,t_struct(RoleData)34_storage)":{"encoding":"mapping","key":"t_bytes32","label":"mapping(bytes32 => struct AccessControlUpgradeable.RoleData)","numberOfBytes":"32","value":"t_struct(RoleData)34_storage"},"t_mapping(t_uint256,t_mapping(t_uint256,t_uint256))":{"encoding":"mapping","key":"t_uint256","label":"mapping(uint256 => mapping(uint256 => uint256))","numberOfBytes":"32","value":"t_mapping(t_uint256,t_uint256)"},"t_mapping(t_uint256,t_struct(Claim)2806_storage)":{"encoding":"mapping","key":"t_uint256","label":"mapping(uint256 => struct ClaimGovernance.Claim)","numberOfBytes":"32","value":"t_struct(Claim)2806_storage"},"t_mapping(t_uint256,t_struct(VotingInfo)2821_storage)":{"encoding":"mapping","key":"t_uint256","label":"mapping(uint256 => struct ClaimGovernance.VotingInfo)","numberOfBytes":"32","value":"t_struct(VotingInfo)2821_storage"},"t_mapping(t_uint256,t_uint256)":{"encoding":"mapping","key":"t_uint256","label":"mapping(uint256 => uint256)","numberOfBytes":"32","value":"t_uint256"},"t_string_storage":{"encoding":"bytes","label":"string","numberOfBytes":"32"},"t_struct(Claim)2806_storage":{"encoding":"inplace","label":"struct ClaimGovernance.Claim","members":[{"astId":2779,"contract":"contracts/core/payAsYouGo/Claim.sol:ClaimGovernance","label":"claimer","offset":0,"slot":"0","type":"t_address"},{"astId":2781,"contract":"contracts/core/payAsYouGo/Claim.sol:ClaimGovernance","label":"_claimID","offset":0,"slot":"1","type":"t_uint256"},{"astId":2783,"contract":"contracts/core/payAsYouGo/Claim.sol:ClaimGovernance","label":"categoryID","offset":0,"slot":"2","type":"t_uint256"},{"astId":2785,"contract":"contracts/core/payAsYouGo/Claim.sol:ClaimGovernance","label":"subcategoryID","offset":0,"slot":"3","type":"t_uint256"},{"astId":2787,"contract":"contracts/core/payAsYouGo/Claim.sol:ClaimGovernance","label":"claimAmountRequested","offset":0,"slot":"4","type":"t_uint256"},{"astId":2789,"contract":"contracts/core/payAsYouGo/Claim.sol:ClaimGovernance","label":"proof","offset":0,"slot":"5","type":"t_string_storage"},{"astId":2791,"contract":"contracts/core/payAsYouGo/Claim.sol:ClaimGovernance","label":"closed","offset":0,"slot":"6","type":"t_bool"},{"astId":2793,"contract":"contracts/core/payAsYouGo/Claim.sol:ClaimGovernance","label":"accepted","offset":1,"slot":"6","type":"t_bool"},{"astId":2795,"contract":"contracts/core/payAsYouGo/Claim.sol:ClaimGovernance","label":"isChallenged","offset":2,"slot":"6","type":"t_bool"},{"astId":2800,"contract":"contracts/core/payAsYouGo/Claim.sol:ClaimGovernance","label":"votingInfo","offset":0,"slot":"7","type":"t_mapping(t_uint256,t_struct(VotingInfo)2821_storage)"},{"astId":2805,"contract":"contracts/core/payAsYouGo/Claim.sol:ClaimGovernance","label":"receipts","offset":0,"slot":"8","type":"t_mapping(t_address,t_struct(Receipt)2828_storage)"}],"numberOfBytes":"288"},"t_struct(Receipt)2828_storage":{"encoding":"inplace","label":"struct ClaimGovernance.Receipt","members":[{"astId":2823,"contract":"contracts/core/payAsYouGo/Claim.sol:ClaimGovernance","label":"hasVoted","offset":0,"slot":"0","type":"t_bool"},{"astId":2825,"contract":"contracts/core/payAsYouGo/Claim.sol:ClaimGovernance","label":"support","offset":1,"slot":"0","type":"t_bool"},{"astId":2827,"contract":"contracts/core/payAsYouGo/Claim.sol:ClaimGovernance","label":"votes","offset":0,"slot":"1","type":"t_uint256"}],"numberOfBytes":"64"},"t_struct(RoleData)34_storage":{"encoding":"inplace","label":"struct AccessControlUpgradeable.RoleData","members":[{"astId":31,"contract":"contracts/core/payAsYouGo/Claim.sol:ClaimGovernance","label":"members","offset":0,"slot":"0","type":"t_mapping(t_address,t_bool)"},{"astId":33,"contract":"contracts/core/payAsYouGo/Claim.sol:ClaimGovernance","label":"adminRole","offset":0,"slot":"1","type":"t_bytes32"}],"numberOfBytes":"64"},"t_struct(VotingInfo)2821_storage":{"encoding":"inplace","label":"struct ClaimGovernance.VotingInfo","members":[{"astId":2808,"contract":"contracts/core/payAsYouGo/Claim.sol:ClaimGovernance","label":"votingStartTime","offset":0,"slot":"0","type":"t_uint256"},{"astId":2810,"contract":"contracts/core/payAsYouGo/Claim.sol:ClaimGovernance","label":"votingEndTime","offset":0,"slot":"1","type":"t_uint256"},{"astId":2812,"contract":"contracts/core/payAsYouGo/Claim.sol:ClaimGovernance","label":"forVotes","offset":0,"slot":"2","type":"t_uint256"},{"astId":2814,"contract":"contracts/core/payAsYouGo/Claim.sol:ClaimGovernance","label":"againstVotes","offset":0,"slot":"3","type":"t_uint256"},{"astId":2816,"contract":"contracts/core/payAsYouGo/Claim.sol:ClaimGovernance","label":"advisorForVotes","offset":0,"slot":"4","type":"t_uint256"},{"astId":2818,"contract":"contracts/core/payAsYouGo/Claim.sol:ClaimGovernance","label":"advisorAgainstVotes","offset":0,"slot":"5","type":"t_uint256"},{"astId":2820,"contract":"contracts/core/payAsYouGo/Claim.sol:ClaimGovernance","label":"votingCounts","offset":0,"slot":"6","type":"t_uint256"}],"numberOfBytes":"224"},"t_uint256":{"encoding":"inplace","label":"uint256","numberOfBytes":"32"},"t_uint8":{"encoding":"inplace","label":"uint8","numberOfBytes":"1"}}},"userdoc":{"errors":{"Claim__VotingTimeEndedError()":[{"notice":"Custom Error Codes"}]},"kind":"user","methods":{"claimID()":{"notice":"claimID: unique insurance claim ID _openClaimsCount: count of the open insurance claims VOTING_END_TIME: voting maximum duration in hours TIME_BEFORE_VOTING_START: time before voting starts, so as users can be notified AFTER_VOTING_WAIT_PERIOD: voting challenge duration"},"claims(uint256)":{"notice":"The official record of all claims ever made"},"individualClaims(address)":{"notice":"The latest claim for each individual claimer if a user have filed most claims, then the protocol that user invests are generally risky"},"protocolSpecificClaims(uint256,uint256)":{"notice":"mapping the protocol specific claims count to date more the number, more the risky the platform will be"}},"notice":"Report any bug or issues at:","version":1}}}}