{"contracts/core/payAsYouGo/ConstantFlowAgreement.sol":{"ConstantFlowAgreement":{"abi":[{"inputs":[],"name":"BaseUpgradeablePausable__ZeroAddressError","type":"error"},{"inputs":[],"name":"CFA__ActiveInsuranceExistError","type":"error"},{"inputs":[],"name":"CFA__ImmutableChangesError","type":"error"},{"inputs":[],"name":"CFA__InactiveInsuranceError","type":"error"},{"inputs":[],"name":"CFA__InsuranceCoverNotAvailableError","type":"error"},{"inputs":[],"name":"CFA__NotEvenMinimumInsurancePeriodAmount","type":"error"},{"inputs":[],"name":"CFA__SubCategoryNotActiveError","type":"error"},{"inputs":[],"name":"CFA__TransactionFailedError","type":"error"},{"anonymous":false,"inputs":[{"indexed":false,"internalType":"uint8","name":"version","type":"uint8"}],"name":"Initialized","type":"event"},{"anonymous":false,"inputs":[{"indexed":false,"internalType":"address","name":"account","type":"address"}],"name":"Paused","type":"event"},{"anonymous":false,"inputs":[{"indexed":true,"internalType":"bytes32","name":"role","type":"bytes32"},{"indexed":true,"internalType":"bytes32","name":"previousAdminRole","type":"bytes32"},{"indexed":true,"internalType":"bytes32","name":"newAdminRole","type":"bytes32"}],"name":"RoleAdminChanged","type":"event"},{"anonymous":false,"inputs":[{"indexed":true,"internalType":"bytes32","name":"role","type":"bytes32"},{"indexed":true,"internalType":"address","name":"account","type":"address"},{"indexed":true,"internalType":"address","name":"sender","type":"address"}],"name":"RoleGranted","type":"event"},{"anonymous":false,"inputs":[{"indexed":true,"internalType":"bytes32","name":"role","type":"bytes32"},{"indexed":true,"internalType":"address","name":"account","type":"address"},{"indexed":true,"internalType":"address","name":"sender","type":"address"}],"name":"RoleRevoked","type":"event"},{"anonymous":false,"inputs":[{"indexed":false,"internalType":"address","name":"account","type":"address"}],"name":"Unpaused","type":"event"},{"anonymous":false,"inputs":[],"name":"UpdatedMaxInsuredDays","type":"event"},{"anonymous":false,"inputs":[],"name":"UpdatedMinimumInsurancePeriod","type":"event"},{"anonymous":false,"inputs":[],"name":"UpdatedStartWaitingTime","type":"event"},{"inputs":[],"name":"DEFAULT_ADMIN_ROLE","outputs":[{"internalType":"bytes32","name":"","type":"bytes32"}],"stateMutability":"view","type":"function"},{"inputs":[{"internalType":"address","name":"owner","type":"address"}],"name":"__BaseUpgradeablePausable_init","outputs":[],"stateMutability":"nonpayable","type":"function"},{"inputs":[{"internalType":"uint256","name":"insuredAmount","type":"uint256"},{"internalType":"uint256","name":"categoryID","type":"uint256"},{"internalType":"uint256","name":"subCategoryID","type":"uint256"},{"internalType":"uint8","name":"v","type":"uint8"},{"internalType":"bytes32","name":"r","type":"bytes32"},{"internalType":"bytes32","name":"s","type":"bytes32"}],"name":"addInsuranceAmount","outputs":[{"internalType":"bool","name":"","type":"bool"}],"stateMutability":"nonpayable","type":"function"},{"inputs":[{"internalType":"address","name":"userAddress","type":"address"},{"internalType":"uint256","name":"categoryID","type":"uint256"}],"name":"calculateTotalFlowMade","outputs":[{"internalType":"uint256","name":"","type":"uint256"}],"stateMutability":"view","type":"function"},{"inputs":[{"internalType":"address","name":"userAddress","type":"address"}],"name":"calculateTotalFlowMade","outputs":[{"internalType":"uint256","name":"","type":"uint256"}],"stateMutability":"view","type":"function"},{"inputs":[{"internalType":"address","name":"userAddress","type":"address"},{"internalType":"uint256","name":"categoryID","type":"uint256"}],"name":"claimPremium","outputs":[{"internalType":"bool","name":"","type":"bool"}],"stateMutability":"nonpayable","type":"function"},{"inputs":[{"internalType":"address","name":"userAddress","type":"address"},{"internalType":"uint256","name":"categoryID","type":"uint256"},{"internalType":"uint256","name":"subCategoryID","type":"uint256"}],"name":"claimPremium","outputs":[{"internalType":"bool","name":"","type":"bool"}],"stateMutability":"nonpayable","type":"function"},{"inputs":[{"internalType":"address","name":"userAddress","type":"address"},{"internalType":"uint256","name":"categoryID","type":"uint256"},{"internalType":"uint256","name":"subCategoryCount","type":"uint256"}],"name":"findActivePremiumCost","outputs":[{"internalType":"uint256[]","name":"","type":"uint256[]"}],"stateMutability":"view","type":"function"},{"inputs":[{"internalType":"address","name":"_userAddress","type":"address"}],"name":"getGlobalUserInsuranceInfo","outputs":[{"internalType":"uint256","name":"","type":"uint256"},{"internalType":"uint256","name":"","type":"uint256"}],"stateMutability":"view","type":"function"},{"inputs":[{"internalType":"address","name":"userAddress","type":"address"}],"name":"getGlobalUserInsurancePremiumCost","outputs":[{"internalType":"uint256","name":"","type":"uint256"}],"stateMutability":"view","type":"function"},{"inputs":[{"internalType":"bytes32","name":"role","type":"bytes32"}],"name":"getRoleAdmin","outputs":[{"internalType":"bytes32","name":"","type":"bytes32"}],"stateMutability":"view","type":"function"},{"inputs":[{"internalType":"address","name":"userAddress","type":"address"},{"internalType":"uint256","name":"categoryID","type":"uint256"},{"internalType":"uint256","name":"subCategoryID","type":"uint256"}],"name":"getUserInsuranceInfo","outputs":[{"internalType":"uint256","name":"","type":"uint256"},{"internalType":"uint256","name":"","type":"uint256"},{"internalType":"uint256","name":"","type":"uint256"},{"internalType":"uint256","name":"","type":"uint256"},{"internalType":"uint256","name":"","type":"uint256"},{"internalType":"bool","name":"","type":"bool"}],"stateMutability":"view","type":"function"},{"inputs":[{"internalType":"address","name":"userAddress","type":"address"},{"internalType":"uint256","name":"categoryID","type":"uint256"},{"internalType":"uint256","name":"subCategoryID","type":"uint256"}],"name":"getUserInsuranceStatus","outputs":[{"internalType":"bool","name":"","type":"bool"}],"stateMutability":"view","type":"function"},{"inputs":[{"internalType":"address","name":"userAddress","type":"address"},{"internalType":"uint256","name":"categoryID","type":"uint256"},{"internalType":"uint256","name":"subCategoryID","type":"uint256"}],"name":"getUserInsuranceValidTillInfo","outputs":[{"internalType":"uint256","name":"","type":"uint256"}],"stateMutability":"view","type":"function"},{"inputs":[{"internalType":"address","name":"userAddress","type":"address"},{"internalType":"uint256","name":"categoryID","type":"uint256"},{"internalType":"uint256","name":"subCategoryID","type":"uint256"}],"name":"getUserInsuredAmount","outputs":[{"internalType":"uint256","name":"","type":"uint256"}],"stateMutability":"view","type":"function"},{"inputs":[{"internalType":"bytes32","name":"role","type":"bytes32"},{"internalType":"address","name":"account","type":"address"}],"name":"grantRole","outputs":[],"stateMutability":"nonpayable","type":"function"},{"inputs":[{"internalType":"bytes32","name":"role","type":"bytes32"},{"internalType":"address","name":"account","type":"address"}],"name":"hasRole","outputs":[{"internalType":"bool","name":"","type":"bool"}],"stateMutability":"view","type":"function"},{"inputs":[{"internalType":"address","name":"tokenDAIaddress","type":"address"},{"internalType":"address","name":"sztDAIAddress","type":"address"},{"internalType":"address","name":"insuranceRegistryCA","type":"address"},{"internalType":"uint256","name":"minimumInsurancePeriod","type":"uint256"},{"internalType":"uint256","name":"startWaitingTime","type":"uint256"},{"internalType":"uint256","name":"maxInsuredDays","type":"uint256"}],"name":"initialize","outputs":[{"internalType":"bool","name":"","type":"bool"}],"stateMutability":"nonpayable","type":"function"},{"inputs":[],"name":"isAdmin","outputs":[{"internalType":"bool","name":"","type":"bool"}],"stateMutability":"view","type":"function"},{"inputs":[{"internalType":"uint256","name":"insuredAmount","type":"uint256"},{"internalType":"uint256","name":"categoryID","type":"uint256"},{"internalType":"uint256","name":"subCategoryID","type":"uint256"},{"internalType":"uint8","name":"v","type":"uint8"},{"internalType":"bytes32","name":"r","type":"bytes32"},{"internalType":"bytes32","name":"s","type":"bytes32"},{"internalType":"bool","name":"closeStream","type":"bool"}],"name":"minusInsuranceAmount","outputs":[{"internalType":"bool","name":"","type":"bool"}],"stateMutability":"nonpayable","type":"function"},{"inputs":[],"name":"pause","outputs":[],"stateMutability":"nonpayable","type":"function"},{"inputs":[],"name":"paused","outputs":[{"internalType":"bool","name":"","type":"bool"}],"stateMutability":"view","type":"function"},{"inputs":[{"internalType":"bytes32","name":"role","type":"bytes32"},{"internalType":"address","name":"account","type":"address"}],"name":"renounceRole","outputs":[],"stateMutability":"nonpayable","type":"function"},{"inputs":[{"internalType":"bytes32","name":"role","type":"bytes32"},{"internalType":"address","name":"account","type":"address"}],"name":"revokeRole","outputs":[],"stateMutability":"nonpayable","type":"function"},{"inputs":[{"internalType":"bytes4","name":"interfaceId","type":"bytes4"}],"name":"supportsInterface","outputs":[{"internalType":"bool","name":"","type":"bool"}],"stateMutability":"view","type":"function"},{"inputs":[],"name":"unpause","outputs":[],"stateMutability":"nonpayable","type":"function"},{"inputs":[{"internalType":"uint256","name":"timeInDays","type":"uint256"}],"name":"updateMaxInsuredDays","outputs":[],"stateMutability":"nonpayable","type":"function"},{"inputs":[{"internalType":"uint256","name":"timeInMinutes","type":"uint256"}],"name":"updateMinimumInsurancePeriod","outputs":[],"stateMutability":"nonpayable","type":"function"},{"inputs":[{"internalType":"uint256","name":"timeInHours","type":"uint256"}],"name":"updateStartWaitingTime","outputs":[],"stateMutability":"nonpayable","type":"function"}],"devdoc":{"custom:security-contact":"anshik@safezen.finance","kind":"dev","methods":{"addInsuranceAmount(uint256,uint256,uint256,uint8,bytes32,bytes32)":{"details":"this function aims to create or top-up user insurance coverage amount.","params":{"categoryID":": insurance category, e.g., stablecoin depeg insurance.","insuredAmount":": maximum user coverage amount","subCategoryID":": insurance sub-category, e.g., USDC depeg coverage, DAI depeg coverage."},"returns":{"_0":"bool: true if the function executues successfully else false."}},"getRoleAdmin(bytes32)":{"details":"Returns the admin role that controls `role`. See {grantRole} and {revokeRole}. To change a role's admin, use {_setRoleAdmin}."},"grantRole(bytes32,address)":{"details":"Grants `role` to `account`. If `account` had not been already granted `role`, emits a {RoleGranted} event. Requirements: - the caller must have ``role``'s admin role. May emit a {RoleGranted} event."},"hasRole(bytes32,address)":{"details":"Returns `true` if `account` has been granted `role`."},"initialize(address,address,address,uint256,uint256,uint256)":{"details":"one-time function aims to initialize the contractMUST revert if called more than once.","params":{"insuranceRegistryCA":": address of the Protocol Registry contract","minimumInsurancePeriod":": minimum insurance period","sztDAIAddress":"address of the sztDAI ERC20 token","tokenDAIaddress":": address of the DAI ERC20 token"},"returns":{"_0":"bool: true if the function executues successfully else false. [PRODUCTION TODO: _startWaitingTime =  startWaitingTime * 1 hours;] [PRODUCTION TODO: _maxInsuredDays = maxInsuredDays * 1 days;]"}},"minusInsuranceAmount(uint256,uint256,uint256,uint8,bytes32,bytes32,bool)":{"details":"this function aims to close or reduce user insurance coverage amount.","params":{"categoryID":": insurance category, e.g., stablecoin depeg insurance.","closeStream":": checks whether user initiate to deactivate its insurance or not.","insuredAmount":": maximum user coverage amount","subCategoryID":": insurance sub-category, e.g., USDC depeg coverage, DAI depeg coverage."},"returns":{"_0":"bool: true if the function executues successfully else false."}},"paused()":{"details":"Returns true if the contract is paused, and false otherwise."},"renounceRole(bytes32,address)":{"details":"Revokes `role` from the calling account. Roles are often managed via {grantRole} and {revokeRole}: this function's purpose is to provide a mechanism for accounts to lose their privileges if they are compromised (such as when a trusted device is misplaced). If the calling account had been revoked `role`, emits a {RoleRevoked} event. Requirements: - the caller must be `account`. May emit a {RoleRevoked} event."},"revokeRole(bytes32,address)":{"details":"Revokes `role` from `account`. If `account` had been granted `role`, emits a {RoleRevoked} event. Requirements: - the caller must have ``role``'s admin role. May emit a {RoleRevoked} event."},"supportsInterface(bytes4)":{"details":"See {IERC165-supportsInterface}."},"updateMaxInsuredDays(uint256)":{"details":"this function aims to update the maximum insurance period","params":{"timeInDays":": 90 days will be kept as default."}},"updateMinimumInsurancePeriod(uint256)":{"details":"this function aims to updates minimum insurance period","params":{"timeInMinutes":": 120 minutes will be kept as default."}},"updateStartWaitingTime(uint256)":{"details":"this function aims to update the insurance activation waiting period","params":{"timeInHours":": 4-8 hours will be kept as default. "}}},"stateVariables":{"usersGlobalInsuranceInfo":{"details":"mapping to store UserGlobalInsuranceInfo maps: userAddress => UserGlobalInsuranceInfo"},"usersInsuranceInfo":{"details":"mapping to store UserInsurance Info maps: userAddress => categoryID => subCategoryID => UserInsuranceInfo"}},"version":1},"evm":{"bytecode":{"linkReferences":{},"object":"608060405234801561001057600080fd5b5061435b806100206000396000f3fe608060405234801561001057600080fd5b50600436106101cf5760003560e01c80636e8847bd11610104578063a217fddf116100a2578063cff5eede11610071578063cff5eede1461058f578063d547741f146105bf578063ec249164146105db578063f099dd501461060c576101cf565b8063a217fddf14610507578063b470626814610525578063b6db75a014610541578063c392e8501461055f576101cf565b806381280d2b116100de57806381280d2b146104685780638456cb591461049857806388295fb2146104a257806391d14854146104d7576101cf565b80636e8847bd146103d8578063728cdbca1461040857806377bd35fc14610438576101cf565b806342f6b8a7116101715780635c975abb1161014b5780635c975abb1461033e578063642adc281461035c5780636b6d105e1461038c5780636e810b1a146103bc576101cf565b806342f6b8a7146102c25780634e94c048146102f257806356eb66bb14610322576101cf565b806324b7ab24116101ad57806324b7ab24146102645780632f2ff15d1461028057806336568abe1461029c5780633f4ba83a146102b8576101cf565b806301ffc9a7146101d45780631a5c8f2814610204578063248a9ca314610234575b600080fd5b6101ee60048036038101906101e99190613224565b61063c565b6040516101fb919061326c565b60405180910390f35b61021e6004803603810190610219919061331b565b6106b6565b60405161022b919061342c565b60405180910390f35b61024e60048036038101906102499190613484565b6108d9565b60405161025b91906134c0565b60405180910390f35b61027e600480360381019061027991906134db565b6108f9565b005b61029a60048036038101906102959190613508565b610983565b005b6102b660048036038101906102b19190613508565b6109a4565b005b6102c0610a27565b005b6102dc60048036038101906102d79190613548565b610a78565b6040516102e99190613584565b60405180910390f35b61030c6004803603810190610307919061359f565b610af3565b6040516103199190613584565b60405180910390f35b61033c600480360381019061033791906134db565b610c85565b005b610346610d0d565b604051610353919061326c565b60405180910390f35b61037660048036038101906103719190613644565b610d24565b604051610383919061326c565b60405180910390f35b6103a660048036038101906103a1919061331b565b610d58565b6040516103b39190613584565b60405180910390f35b6103d660048036038101906103d19190613548565b610dc9565b005b6103f260048036038101906103ed91906136e6565b610eeb565b6040516103ff919061326c565b60405180910390f35b610422600480360381019061041d9190613773565b610f1d565b60405161042f919061326c565b60405180910390f35b610452600480360381019061044d919061359f565b6111b9565b60405161045f919061326c565b60405180910390f35b610482600480360381019061047d919061331b565b6111c1565b60405161048f919061326c565b60405180910390f35b6104a061123f565b005b6104bc60048036038101906104b7919061331b565b611290565b6040516104ce96959493929190613800565b60405180910390f35b6104f160048036038101906104ec9190613508565b611398565b6040516104fe919061326c565b60405180910390f35b61050f611403565b60405161051c91906134c0565b60405180910390f35b61053f600480360381019061053a91906134db565b61140a565b005b610549611495565b604051610556919061326c565b60405180910390f35b6105796004803603810190610574919061331b565b6114b4565b6040516105869190613584565b60405180910390f35b6105a960048036038101906105a49190613548565b611525565b6040516105b69190613584565b60405180910390f35b6105d960048036038101906105d49190613508565b6116f4565b005b6105f560048036038101906105f09190613548565b611715565b604051610603929190613861565b60405180910390f35b6106266004803603810190610621919061331b565b611799565b604051610633919061326c565b60405180910390f35b60007f7965db0b000000000000000000000000000000000000000000000000000000007bffffffffffffffffffffffffffffffffffffffffffffffffffffffff1916827bffffffffffffffffffffffffffffffffffffffffffffffffffffffff191614806106af57506106ae82611831565b5b9050919050565b60606000805b838110156107b557600061010460008873ffffffffffffffffffffffffffffffffffffffff1673ffffffffffffffffffffffffffffffffffffffff168152602001908152602001600020600087815260200190815260200160002060008381526020019081526020016000206040518060e00160405290816000820154815260200160018201548152602001600282015481526020016003820154815260200160048201548152602001600582015481526020016006820160009054906101000a900460ff16151515158152505090508060c00151156107a357826107a0906138b9565b92505b816107ad906138b9565b9150506106bc565b5060008167ffffffffffffffff8111156107d2576107d1613901565b5b6040519080825280602002602001820160405280156108005781602001602082028036833780820191505090505b5090506000805b858110156108cb57600061010460008a73ffffffffffffffffffffffffffffffffffffffff1673ffffffffffffffffffffffffffffffffffffffff1681526020019081526020016000206000898152602001908152602001600020600083815260200190815260200160002090508060060160009054906101000a900460ff16156108b957818484815181106108a05761089f613930565b5b602002602001018181525050826108b6906138b9565b92505b816108c3906138b9565b915050610807565b508193505050509392505050565b600060976000838152602001908152602001600020600101549050919050565b610901611495565b610940576040517f08c379a0000000000000000000000000000000000000000000000000000000008152600401610937906139e2565b60405180910390fd5b610e108161094e9190613a02565b60fd819055507f75c07eb064b8ccf959bcc601b55315ca198e67b597dc0a7b93e130f8ca779a6760405160405180910390a150565b61098c826108d9565b6109958161189b565b61099f83836118af565b505050565b6109ac611990565b73ffffffffffffffffffffffffffffffffffffffff168173ffffffffffffffffffffffffffffffffffffffff1614610a19576040517f08c379a0000000000000000000000000000000000000000000000000000000008152600401610a1090613ace565b60405180910390fd5b610a238282611998565b5050565b610a2f611495565b610a6e576040517f08c379a0000000000000000000000000000000000000000000000000000000008152600401610a65906139e2565b60405180910390fd5b610a76611a7a565b565b60008061010360008473ffffffffffffffffffffffffffffffffffffffff1673ffffffffffffffffffffffffffffffffffffffff168152602001908152602001600020604051806060016040529081600082015481526020016001820154815260200160028201548152505090508060400151915050919050565b600080600090506000610ba3858561010260009054906101000a900473ffffffffffffffffffffffffffffffffffffffff1673ffffffffffffffffffffffffffffffffffffffff16633bf4c082886040518263ffffffff1660e01b8152600401610b5d9190613584565b602060405180830381865afa158015610b7a573d6000803e3d6000fd5b505050506040513d601f19601f82011682018060405250810190610b9e9190613b03565b6106b6565b905060005b8151811015610c7957600061010460008873ffffffffffffffffffffffffffffffffffffffff1673ffffffffffffffffffffffffffffffffffffffff16815260200190815260200160002060008781526020019081526020016000206000848481518110610c1957610c18613930565b5b602002602001015181526020019081526020016000209050600081600001548260010154610c479190613b30565b9050808260040154610c599190613a02565b85610c649190613b64565b945082610c70906138b9565b92505050610ba8565b50819250505092915050565b610c8d611495565b610ccc576040517f08c379a0000000000000000000000000000000000000000000000000000000008152600401610cc3906139e2565b60405180910390fd5b603c81610cd99190613a02565b60fe819055507e3a5a2424463bb22c8fc4c0f2422b7a18712b7713f9619caa313f499fad615e60405160405180910390a150565b6000603360009054906101000a900460ff16905090565b6000610d2e611add565b6000610d3f89898989898989611b2c565b905080915050610d4d611d89565b979650505050505050565b600061010460008573ffffffffffffffffffffffffffffffffffffffff1673ffffffffffffffffffffffffffffffffffffffff168152602001908152602001600020600084815260200190815260200160002060008381526020019081526020016000206002015490509392505050565b600060019054906101000a900460ff16610e18576040517f08c379a0000000000000000000000000000000000000000000000000000000008152600401610e0f90613c0a565b60405180910390fd5b600073ffffffffffffffffffffffffffffffffffffffff168173ffffffffffffffffffffffffffffffffffffffff1603610e7e576040517f5415139400000000000000000000000000000000000000000000000000000000815260040160405180910390fd5b610e86611d93565b610e8e611dec565b610e96611e3d565b610ea7610ea1611e96565b826118af565b610eb8610eb2611ebe565b826118af565b610ed0610ec3611ebe565b610ecb611e96565b611ee6565b610ee8610edb611e96565b610ee3611e96565b611ee6565b50565b6000610ef5611add565b6000610f05888888888888611f42565b905080915050610f13611d89565b9695505050505050565b600080600060019054906101000a900460ff16159050808015610f505750600160008054906101000a900460ff1660ff16105b80610f7d5750610f5f30612167565b158015610f7c5750600160008054906101000a900460ff1660ff16145b5b610fbc576040517f08c379a0000000000000000000000000000000000000000000000000000000008152600401610fb390613c9c565b60405180910390fd5b60016000806101000a81548160ff021916908360ff1602179055508015610ff9576001600060016101000a81548160ff0219169083151502179055505b600060fb81905550603c8361100e9190613a02565b60fc81905550603c846110219190613a02565b60fd81905550603c856110349190613a02565b60fe819055508760ff60006101000a81548173ffffffffffffffffffffffffffffffffffffffff021916908373ffffffffffffffffffffffffffffffffffffffff1602179055508761010060006101000a81548173ffffffffffffffffffffffffffffffffffffffff021916908373ffffffffffffffffffffffffffffffffffffffff1602179055508661010160006101000a81548173ffffffffffffffffffffffffffffffffffffffff021916908373ffffffffffffffffffffffffffffffffffffffff1602179055508561010260006101000a81548173ffffffffffffffffffffffffffffffffffffffff021916908373ffffffffffffffffffffffffffffffffffffffff16021790555061115161114c611990565b610dc9565b6001915080156111ae5760008060016101000a81548160ff0219169083151502179055507f7f26b83ff96e1f2b6a682f133852f6798a09c465da95921460cefb384740249860016040516111a59190613d01565b60405180910390a15b509695505050505050565b600092915050565b600061010460008573ffffffffffffffffffffffffffffffffffffffff1673ffffffffffffffffffffffffffffffffffffffff1681526020019081526020016000206000848152602001908152602001600020600083815260200190815260200160002060060160009054906101000a900460ff1690509392505050565b611247611495565b611286576040517f08c379a000000000000000000000000000000000000000000000000000000000815260040161127d906139e2565b60405180910390fd5b61128e61218a565b565b600080600080600080600061010460008b73ffffffffffffffffffffffffffffffffffffffff1673ffffffffffffffffffffffffffffffffffffffff16815260200190815260200160002060008a815260200190815260200160002060008981526020019081526020016000206040518060e00160405290816000820154815260200160018201548152602001600282015481526020016003820154815260200160048201548152602001600582015481526020016006820160009054906101000a900460ff1615151515815250509050806040015181608001518260600151836000015184602001518560c001519650965096509650965096505093975093979195509350565b60006097600084815260200190815260200160002060000160008373ffffffffffffffffffffffffffffffffffffffff1673ffffffffffffffffffffffffffffffffffffffff16815260200190815260200160002060009054906101000a900460ff16905092915050565b6000801b81565b611412611495565b611451576040517f08c379a0000000000000000000000000000000000000000000000000000000008152600401611448906139e2565b60405180910390fd5b62015180816114609190613a02565b60fc819055507fdb4fb2fd6b8b90f67bda8671842d5cab4eb4b7eba9683f5bcec9aba9473cc95760405160405180910390a150565b60006114af6114a2611e96565b6114aa611990565b611398565b905090565b600061010460008573ffffffffffffffffffffffffffffffffffffffff1673ffffffffffffffffffffffffffffffffffffffff168152602001908152602001600020600084815260200190815260200160002060008381526020019081526020016000206001015490509392505050565b6000806000905060005b60fb548110156116ea576000806115e3868461010260009054906101000a900473ffffffffffffffffffffffffffffffffffffffff1673ffffffffffffffffffffffffffffffffffffffff16633bf4c082876040518263ffffffff1660e01b815260040161159d9190613584565b602060405180830381865afa1580156115ba573d6000803e3d6000fd5b505050506040513d601f19601f820116820180604052508101906115de9190613b03565b6106b6565b905060005b81518110156116c857600061010460008973ffffffffffffffffffffffffffffffffffffffff1673ffffffffffffffffffffffffffffffffffffffff1681526020019081526020016000206000868152602001908152602001600020600084848151811061165957611658613930565b5b602002602001015181526020019081526020016000209050600081600001544211611685576000611696565b8160000154426116959190613b30565b5b90508082600401546116a89190613a02565b856116b39190613b64565b9450826116bf906138b9565b925050506115e8565b5081846116d59190613b64565b9350826116e1906138b9565b9250505061152f565b5080915050919050565b6116fd826108d9565b6117068161189b565b6117108383611998565b505050565b600080600061010360008573ffffffffffffffffffffffffffffffffffffffff1673ffffffffffffffffffffffffffffffffffffffff16815260200190815260200160002060405180606001604052908160008201548152602001600182015481526020016002820154815250509050806020015181600001519250925050915091565b6000426117a78585856114b4565b11156117df576040517f707001b500000000000000000000000000000000000000000000000000000000815260040160405180910390fd5b60006117ec8585856121ed565b905080611825576040517fb00fcb1e00000000000000000000000000000000000000000000000000000000815260040160405180910390fd5b60019150509392505050565b60007f01ffc9a7000000000000000000000000000000000000000000000000000000007bffffffffffffffffffffffffffffffffffffffffffffffffffffffff1916827bffffffffffffffffffffffffffffffffffffffffffffffffffffffff1916149050919050565b6118ac816118a7611990565b61258f565b50565b6118b98282611398565b61198c5760016097600084815260200190815260200160002060000160008373ffffffffffffffffffffffffffffffffffffffff1673ffffffffffffffffffffffffffffffffffffffff16815260200190815260200160002060006101000a81548160ff021916908315150217905550611931611990565b73ffffffffffffffffffffffffffffffffffffffff168173ffffffffffffffffffffffffffffffffffffffff16837f2f8788117e7eff1d82e926ec794901d17c78024a50270940304540a733656f0d60405160405180910390a45b5050565b600033905090565b6119a28282611398565b15611a765760006097600084815260200190815260200160002060000160008373ffffffffffffffffffffffffffffffffffffffff1673ffffffffffffffffffffffffffffffffffffffff16815260200190815260200160002060006101000a81548160ff021916908315150217905550611a1b611990565b73ffffffffffffffffffffffffffffffffffffffff168173ffffffffffffffffffffffffffffffffffffffff16837ff6391f5c32d9c69d2a47ea670b442974b53935d1edc7fd64eb21e047a839171b60405160405180910390a45b5050565b611a82612614565b6000603360006101000a81548160ff0219169083151502179055507f5db9ee0a495bf2e6ff9c91a7834c1ba4fdd244a5e8aa4e537bd38aeae4b073aa611ac6611990565b604051611ad39190613d2b565b60405180910390a1565b600260c95403611b22576040517f08c379a0000000000000000000000000000000000000000000000000000000008152600401611b1990613d92565b60405180910390fd5b600260c981905550565b60006101046000611b3b611990565b73ffffffffffffffffffffffffffffffffffffffff1673ffffffffffffffffffffffffffffffffffffffff1681526020019081526020016000206000888152602001908152602001600020600087815260200190815260200160002060060160009054906101000a900460ff16611bde576040517f96ae3e8200000000000000000000000000000000000000000000000000000000815260040160405180910390fd5b6000611bf2611beb611990565b89896121ed565b905080611c2b576040517fb00fcb1e00000000000000000000000000000000000000000000000000000000815260040160405180910390fd5b82611d79576000896101046000611c40611990565b73ffffffffffffffffffffffffffffffffffffffff1673ffffffffffffffffffffffffffffffffffffffff16815260200190815260200160002060008b815260200190815260200160002060008a815260200190815260200160002060020154611caa9190613b30565b9050600062278d0060fc5442611cc09190613b64565b611cca9190613b64565b9050600080611cda848d8d61265d565b9150915081611d15576040517fb00fcb1e00000000000000000000000000000000000000000000000000000000815260040160405180910390fd5b611d74611d20611990565b3083868e8e8e61010060009054906101000a900473ffffffffffffffffffffffffffffffffffffffff1673ffffffffffffffffffffffffffffffffffffffff16612c8290979695949392919063ffffffff16565b505050505b6001915050979650505050505050565b600160c981905550565b600060019054906101000a900460ff16611de2576040517f08c379a0000000000000000000000000000000000000000000000000000000008152600401611dd990613c0a565b60405180910390fd5b611dea612e4f565b565b600060019054906101000a900460ff16611e3b576040517f08c379a0000000000000000000000000000000000000000000000000000000008152600401611e3290613c0a565b60405180910390fd5b565b600060019054906101000a900460ff16611e8c576040517f08c379a0000000000000000000000000000000000000000000000000000000008152600401611e8390613c0a565b60405180910390fd5b611e94612ebb565b565b60007fa49807205ce4d355092ef5a8a18f56e8913cf4a201fbe287825b095693c21775905090565b60007f65d7a28e3265b37a6474929f336521b332c1681b933f6cb9f3376673440d862a905090565b6000611ef1836108d9565b90508160976000858152602001908152602001600020600101819055508181847fbd79b86ffe0ab8e8776151514217cd7cacd52c909f66475c3af44e129f0b00ff60405160405180910390a4505050565b600080876101046000611f53611990565b73ffffffffffffffffffffffffffffffffffffffff1673ffffffffffffffffffffffffffffffffffffffff1681526020019081526020016000206000898152602001908152602001600020600088815260200190815260200160002060020154611fbd9190613b64565b90506101046000611fcc611990565b73ffffffffffffffffffffffffffffffffffffffff1673ffffffffffffffffffffffffffffffffffffffff1681526020019081526020016000206000888152602001908152602001600020600087815260200190815260200160002060060160009054906101000a900460ff161561208d57600061205261204b611990565b89896121ed565b90508061208b576040517fb00fcb1e00000000000000000000000000000000000000000000000000000000815260040160405180910390fd5b505b600062278d0060fc54426120a19190613b64565b6120ab9190613b64565b90506000806120bb848b8b61265d565b91509150816120f6576040517fb00fcb1e00000000000000000000000000000000000000000000000000000000815260040160405180910390fd5b612155612101611990565b3083868c8c8c61010060009054906101000a900473ffffffffffffffffffffffffffffffffffffffff1673ffffffffffffffffffffffffffffffffffffffff16612c8290979695949392919063ffffffff16565b60019450505050509695505050505050565b6000808273ffffffffffffffffffffffffffffffffffffffff163b119050919050565b612192612f14565b6001603360006101000a81548160ff0219169083151502179055507f62e78cea01bee320cd4e420270b5ea74000d11b0c9f74754ebdbfc544b05a2586121d6611990565b6040516121e39190613d2b565b60405180910390a1565b60008061010460008673ffffffffffffffffffffffffffffffffffffffff1673ffffffffffffffffffffffffffffffffffffffff1681526020019081526020016000206000858152602001908152602001600020600084815260200190815260200160002090508060060160009054906101000a900460ff1661229c576040517f96ae3e8200000000000000000000000000000000000000000000000000000000815260040160405180910390fd5b60008160060160006101000a81548160ff0219169083151502179055506000816000015442116122cd5760006122f4565b816001015442116122ed578160000154426122e89190613b30565b6122f3565b81600101545b5b905060008260040154826123089190613a02565b90506000810361231e5760019350505050612588565b826004015461010360008973ffffffffffffffffffffffffffffffffffffffff1673ffffffffffffffffffffffffffffffffffffffff16815260200190815260200160002060010160008282546123759190613b30565b92505081905550826005015461010360008973ffffffffffffffffffffffffffffffffffffffff1673ffffffffffffffffffffffffffffffffffffffff16815260200190815260200160002060020160008282546123d39190613b30565b92505081905550600083600401549050600084600201549050600061010260009054906101000a900473ffffffffffffffffffffffffffffffffffffffff1673ffffffffffffffffffffffffffffffffffffffff166326a6e9eb8a8a85876040518563ffffffff1660e01b81526004016124509493929190613db2565b6020604051808303816000875af115801561246f573d6000803e3d6000fd5b505050506040513d601f19601f820116820180604052508101906124939190613e0c565b9050600061010160009054906101000a900473ffffffffffffffffffffffffffffffffffffffff1673ffffffffffffffffffffffffffffffffffffffff166379cc67908c876040518363ffffffff1660e01b81526004016124f5929190613e39565b6020604051808303816000875af1158015612514573d6000803e3d6000fd5b505050506040513d601f19601f820116820180604052508101906125389190613e0c565b9050811580612545575080155b1561257c576040517fb00fcb1e00000000000000000000000000000000000000000000000000000000815260040160405180910390fd5b60019750505050505050505b9392505050565b6125998282611398565b612610576125a681612f5e565b6125b48360001c6020612f8b565b6040516020016125c5929190613f6b565b6040516020818303038152906040526040517f08c379a00000000000000000000000000000000000000000000000000000000081526004016126079190613fef565b60405180910390fd5b5050565b61261c610d0d565b61265b576040517f08c379a00000000000000000000000000000000000000000000000000000000081526004016126529061405d565b60405180910390fd5b565b600080670de0b6b3a76400008510156126a1576040517ecd474300000000000000000000000000000000000000000000000000000000815260040160405180910390fd5b61010260009054906101000a900473ffffffffffffffffffffffffffffffffffffffff1673ffffffffffffffffffffffffffffffffffffffff16635657f79d8587866040518463ffffffff1660e01b81526004016127019392919061407d565b602060405180830381865afa15801561271e573d6000803e3d6000fd5b505050506040513d601f19601f820116820180604052508101906127429190613e0c565b612778576040517f1e45d1b400000000000000000000000000000000000000000000000000000000815260040160405180910390fd5b6101046000612785611990565b73ffffffffffffffffffffffffffffffffffffffff1673ffffffffffffffffffffffffffffffffffffffff1681526020019081526020016000206000858152602001908152602001600020600084815260200190815260200160002060060160009054906101000a900460ff1615612829576040517f707001b500000000000000000000000000000000000000000000000000000000815260040160405180910390fd5b60006101046000612838611990565b73ffffffffffffffffffffffffffffffffffffffff1673ffffffffffffffffffffffffffffffffffffffff168152602001908152602001600020600086815260200190815260200160002060008581526020019081526020016000209050600061010360006128a5611990565b73ffffffffffffffffffffffffffffffffffffffff1673ffffffffffffffffffffffffffffffffffffffff16815260200190815260200160002090506000816002015461010160009054906101000a900473ffffffffffffffffffffffffffffffffffffffff1673ffffffffffffffffffffffffffffffffffffffff166370a0823161292f611990565b6040518263ffffffff1660e01b815260040161294b9190613d2b565b602060405180830381865afa158015612968573d6000803e3d6000fd5b505050506040513d601f19601f8201168201806040525081019061298c9190613b03565b6129969190613b30565b90506000670de0b6b3a76400008961010260009054906101000a900473ffffffffffffffffffffffffffffffffffffffff1673ffffffffffffffffffffffffffffffffffffffff16635952a8c68b8b6040518363ffffffff1660e01b8152600401612a02929190613861565b602060405180830381865afa158015612a1f573d6000803e3d6000fd5b505050506040513d601f19601f82011682018060405250810190612a439190613b03565b612a4d9190613a02565b612a5791906140e3565b90506000818460010154612a6b9190613b64565b90508260fe5482612a7c9190613a02565b1115612ab4576040517fe4b581a500000000000000000000000000000000000000000000000000000000815260040160405180910390fd5b60008284612ac291906140e3565b905082856001016000828254612ad89190613b64565b925050819055508a866002018190555082866004018190555042866003018190555060fd5442612b089190613b64565b866000018190555060fc548110612b305760fc548660000154612b2b9190613b64565b612b41565b808660000154612b409190613b64565b5b86600101819055508281612b559190613a02565b866005018190555060018660060160006101000a81548160ff0219169083151502179055508560050154856002016000828254612b929190613b64565b925050819055508460000154866001015410612bb2578560010154612bb8565b84600001545b8560000181905550600061010260009054906101000a900473ffffffffffffffffffffffffffffffffffffffff1673ffffffffffffffffffffffffffffffffffffffff1663d9895c708c8c8f886040518563ffffffff1660e01b8152600401612c249493929190613db2565b6020604051808303816000875af1158015612c43573d6000803e3d6000fd5b505050506040513d601f19601f82011682018060405250810190612c679190613e0c565b90508087600501549850985050505050505050935093915050565b60008873ffffffffffffffffffffffffffffffffffffffff16637ecebe00896040518263ffffffff1660e01b8152600401612cbd9190613d2b565b602060405180830381865afa158015612cda573d6000803e3d6000fd5b505050506040513d601f19601f82011682018060405250810190612cfe9190613b03565b90508873ffffffffffffffffffffffffffffffffffffffff1663d505accf898989898989896040518863ffffffff1660e01b8152600401612d459796959493929190614123565b600060405180830381600087803b158015612d5f57600080fd5b505af1158015612d73573d6000803e3d6000fd5b5050505060008973ffffffffffffffffffffffffffffffffffffffff16637ecebe008a6040518263ffffffff1660e01b8152600401612db29190613d2b565b602060405180830381865afa158015612dcf573d6000803e3d6000fd5b505050506040513d601f19601f82011682018060405250810190612df39190613b03565b9050600182612e029190613b64565b8114612e43576040517f08c379a0000000000000000000000000000000000000000000000000000000008152600401612e3a90614204565b60405180910390fd5b50505050505050505050565b600060019054906101000a900460ff16612e9e576040517f08c379a0000000000000000000000000000000000000000000000000000000008152600401612e9590613c0a565b60405180910390fd5b6000603360006101000a81548160ff021916908315150217905550565b600060019054906101000a900460ff16612f0a576040517f08c379a0000000000000000000000000000000000000000000000000000000008152600401612f0190613c0a565b60405180910390fd5b600160c981905550565b612f1c610d0d565b15612f5c576040517f08c379a0000000000000000000000000000000000000000000000000000000008152600401612f5390614270565b60405180910390fd5b565b6060612f848273ffffffffffffffffffffffffffffffffffffffff16601460ff16612f8b565b9050919050565b606060006002836002612f9e9190613a02565b612fa89190613b64565b67ffffffffffffffff811115612fc157612fc0613901565b5b6040519080825280601f01601f191660200182016040528015612ff35781602001600182028036833780820191505090505b5090507f30000000000000000000000000000000000000000000000000000000000000008160008151811061302b5761302a613930565b5b60200101907effffffffffffffffffffffffffffffffffffffffffffffffffffffffffffff1916908160001a9053507f78000000000000000000000000000000000000000000000000000000000000008160018151811061308f5761308e613930565b5b60200101907effffffffffffffffffffffffffffffffffffffffffffffffffffffffffffff1916908160001a905350600060018460026130cf9190613a02565b6130d99190613b64565b90505b6001811115613179577f3031323334353637383961626364656600000000000000000000000000000000600f86166010811061311b5761311a613930565b5b1a60f81b82828151811061313257613131613930565b5b60200101907effffffffffffffffffffffffffffffffffffffffffffffffffffffffffffff1916908160001a905350600485901c94508061317290614290565b90506130dc565b50600084146131bd576040517f08c379a00000000000000000000000000000000000000000000000000000000081526004016131b490614305565b60405180910390fd5b8091505092915050565b600080fd5b60007fffffffff0000000000000000000000000000000000000000000000000000000082169050919050565b613201816131cc565b811461320c57600080fd5b50565b60008135905061321e816131f8565b92915050565b60006020828403121561323a576132396131c7565b5b60006132488482850161320f565b91505092915050565b60008115159050919050565b61326681613251565b82525050565b6000602082019050613281600083018461325d565b92915050565b600073ffffffffffffffffffffffffffffffffffffffff82169050919050565b60006132b282613287565b9050919050565b6132c2816132a7565b81146132cd57600080fd5b50565b6000813590506132df816132b9565b92915050565b6000819050919050565b6132f8816132e5565b811461330357600080fd5b50565b600081359050613315816132ef565b92915050565b600080600060608486031215613334576133336131c7565b5b6000613342868287016132d0565b935050602061335386828701613306565b925050604061336486828701613306565b9150509250925092565b600081519050919050565b600082825260208201905092915050565b6000819050602082019050919050565b6133a3816132e5565b82525050565b60006133b5838361339a565b60208301905092915050565b6000602082019050919050565b60006133d98261336e565b6133e38185613379565b93506133ee8361338a565b8060005b8381101561341f57815161340688826133a9565b9750613411836133c1565b9250506001810190506133f2565b5085935050505092915050565b6000602082019050818103600083015261344681846133ce565b905092915050565b6000819050919050565b6134618161344e565b811461346c57600080fd5b50565b60008135905061347e81613458565b92915050565b60006020828403121561349a576134996131c7565b5b60006134a88482850161346f565b91505092915050565b6134ba8161344e565b82525050565b60006020820190506134d560008301846134b1565b92915050565b6000602082840312156134f1576134f06131c7565b5b60006134ff84828501613306565b91505092915050565b6000806040838503121561351f5761351e6131c7565b5b600061352d8582860161346f565b925050602061353e858286016132d0565b9150509250929050565b60006020828403121561355e5761355d6131c7565b5b600061356c848285016132d0565b91505092915050565b61357e816132e5565b82525050565b60006020820190506135996000830184613575565b92915050565b600080604083850312156135b6576135b56131c7565b5b60006135c4858286016132d0565b92505060206135d585828601613306565b9150509250929050565b600060ff82169050919050565b6135f5816135df565b811461360057600080fd5b50565b600081359050613612816135ec565b92915050565b61362181613251565b811461362c57600080fd5b50565b60008135905061363e81613618565b92915050565b600080600080600080600060e0888a031215613663576136626131c7565b5b60006136718a828b01613306565b97505060206136828a828b01613306565b96505060406136938a828b01613306565b95505060606136a48a828b01613603565b94505060806136b58a828b0161346f565b93505060a06136c68a828b0161346f565b92505060c06136d78a828b0161362f565b91505092959891949750929550565b60008060008060008060c08789031215613703576137026131c7565b5b600061371189828a01613306565b965050602061372289828a01613306565b955050604061373389828a01613306565b945050606061374489828a01613603565b935050608061375589828a0161346f565b92505060a061376689828a0161346f565b9150509295509295509295565b60008060008060008060c087890312156137905761378f6131c7565b5b600061379e89828a016132d0565b96505060206137af89828a016132d0565b95505060406137c089828a016132d0565b94505060606137d189828a01613306565b93505060806137e289828a01613306565b92505060a06137f389828a01613306565b9150509295509295509295565b600060c0820190506138156000830189613575565b6138226020830188613575565b61382f6040830187613575565b61383c6060830186613575565b6138496080830185613575565b61385660a083018461325d565b979650505050505050565b60006040820190506138766000830185613575565b6138836020830184613575565b9392505050565b7f4e487b7100000000000000000000000000000000000000000000000000000000600052601160045260246000fd5b60006138c4826132e5565b91507fffffffffffffffffffffffffffffffffffffffffffffffffffffffffffffffff82036138f6576138f561388a565b5b600182019050919050565b7f4e487b7100000000000000000000000000000000000000000000000000000000600052604160045260246000fd5b7f4e487b7100000000000000000000000000000000000000000000000000000000600052603260045260246000fd5b600082825260208201905092915050565b7f4d75737420686176652061646d696e20726f6c6520746f20706572666f726d2060008201527f7468697320616374696f6e2e0000000000000000000000000000000000000000602082015250565b60006139cc602c8361395f565b91506139d782613970565b604082019050919050565b600060208201905081810360008301526139fb816139bf565b9050919050565b6000613a0d826132e5565b9150613a18836132e5565b9250817fffffffffffffffffffffffffffffffffffffffffffffffffffffffffffffffff0483118215151615613a5157613a5061388a565b5b828202905092915050565b7f416363657373436f6e74726f6c3a2063616e206f6e6c792072656e6f756e636560008201527f20726f6c657320666f722073656c660000000000000000000000000000000000602082015250565b6000613ab8602f8361395f565b9150613ac382613a5c565b604082019050919050565b60006020820190508181036000830152613ae781613aab565b9050919050565b600081519050613afd816132ef565b92915050565b600060208284031215613b1957613b186131c7565b5b6000613b2784828501613aee565b91505092915050565b6000613b3b826132e5565b9150613b46836132e5565b9250828203905081811115613b5e57613b5d61388a565b5b92915050565b6000613b6f826132e5565b9150613b7a836132e5565b9250828201905080821115613b9257613b9161388a565b5b92915050565b7f496e697469616c697a61626c653a20636f6e7472616374206973206e6f74206960008201527f6e697469616c697a696e67000000000000000000000000000000000000000000602082015250565b6000613bf4602b8361395f565b9150613bff82613b98565b604082019050919050565b60006020820190508181036000830152613c2381613be7565b9050919050565b7f496e697469616c697a61626c653a20636f6e747261637420697320616c72656160008201527f647920696e697469616c697a6564000000000000000000000000000000000000602082015250565b6000613c86602e8361395f565b9150613c9182613c2a565b604082019050919050565b60006020820190508181036000830152613cb581613c79565b9050919050565b6000819050919050565b6000819050919050565b6000613ceb613ce6613ce184613cbc565b613cc6565b6135df565b9050919050565b613cfb81613cd0565b82525050565b6000602082019050613d166000830184613cf2565b92915050565b613d25816132a7565b82525050565b6000602082019050613d406000830184613d1c565b92915050565b7f5265656e7472616e637947756172643a207265656e7472616e742063616c6c00600082015250565b6000613d7c601f8361395f565b9150613d8782613d46565b602082019050919050565b60006020820190508181036000830152613dab81613d6f565b9050919050565b6000608082019050613dc76000830187613575565b613dd46020830186613575565b613de16040830185613575565b613dee6060830184613575565b95945050505050565b600081519050613e0681613618565b92915050565b600060208284031215613e2257613e216131c7565b5b6000613e3084828501613df7565b91505092915050565b6000604082019050613e4e6000830185613d1c565b613e5b6020830184613575565b9392505050565b600081905092915050565b7f416363657373436f6e74726f6c3a206163636f756e7420000000000000000000600082015250565b6000613ea3601783613e62565b9150613eae82613e6d565b601782019050919050565b600081519050919050565b60005b83811015613ee2578082015181840152602081019050613ec7565b60008484015250505050565b6000613ef982613eb9565b613f038185613e62565b9350613f13818560208601613ec4565b80840191505092915050565b7f206973206d697373696e6720726f6c6520000000000000000000000000000000600082015250565b6000613f55601183613e62565b9150613f6082613f1f565b601182019050919050565b6000613f7682613e96565b9150613f828285613eee565b9150613f8d82613f48565b9150613f998284613eee565b91508190509392505050565b6000601f19601f8301169050919050565b6000613fc182613eb9565b613fcb818561395f565b9350613fdb818560208601613ec4565b613fe481613fa5565b840191505092915050565b600060208201905081810360008301526140098184613fb6565b905092915050565b7f5061757361626c653a206e6f7420706175736564000000000000000000000000600082015250565b600061404760148361395f565b915061405282614011565b602082019050919050565b600060208201905081810360008301526140768161403a565b9050919050565b60006060820190506140926000830186613575565b61409f6020830185613575565b6140ac6040830184613575565b949350505050565b7f4e487b7100000000000000000000000000000000000000000000000000000000600052601260045260246000fd5b60006140ee826132e5565b91506140f9836132e5565b925082614109576141086140b4565b5b828204905092915050565b61411d816135df565b82525050565b600060e082019050614138600083018a613d1c565b6141456020830189613d1c565b6141526040830188613575565b61415f6060830187613575565b61416c6080830186614114565b61417960a08301856134b1565b61418660c08301846134b1565b98975050505050505050565b7f5361666545524332303a207065726d697420646964206e6f742073756363656560008201527f6400000000000000000000000000000000000000000000000000000000000000602082015250565b60006141ee60218361395f565b91506141f982614192565b604082019050919050565b6000602082019050818103600083015261421d816141e1565b9050919050565b7f5061757361626c653a2070617573656400000000000000000000000000000000600082015250565b600061425a60108361395f565b915061426582614224565b602082019050919050565b600060208201905081810360008301526142898161424d565b9050919050565b600061429b826132e5565b9150600082036142ae576142ad61388a565b5b600182039050919050565b7f537472696e67733a20686578206c656e67746820696e73756666696369656e74600082015250565b60006142ef60208361395f565b91506142fa826142b9565b602082019050919050565b6000602082019050818103600083015261431e816142e2565b905091905056fea26469706673582212202774c3a7975a94a92bf13fa5d1a07228abf4b52df9bbcaf8805382c85aa7124f64736f6c63430008100033","opcodes":"PUSH1 0x80 PUSH1 0x40 MSTORE CALLVALUE DUP1 ISZERO PUSH2 0x10 JUMPI PUSH1 0x0 DUP1 REVERT JUMPDEST POP PUSH2 0x435B DUP1 PUSH2 0x20 PUSH1 0x0 CODECOPY PUSH1 0x0 RETURN INVALID PUSH1 0x80 PUSH1 0x40 MSTORE CALLVALUE DUP1 ISZERO PUSH2 0x10 JUMPI PUSH1 0x0 DUP1 REVERT JUMPDEST POP PUSH1 0x4 CALLDATASIZE LT PUSH2 0x1CF JUMPI PUSH1 0x0 CALLDATALOAD PUSH1 0xE0 SHR DUP1 PUSH4 0x6E8847BD GT PUSH2 0x104 JUMPI DUP1 PUSH4 0xA217FDDF GT PUSH2 0xA2 JUMPI DUP1 PUSH4 0xCFF5EEDE GT PUSH2 0x71 JUMPI DUP1 PUSH4 0xCFF5EEDE EQ PUSH2 0x58F JUMPI DUP1 PUSH4 0xD547741F EQ PUSH2 0x5BF JUMPI DUP1 PUSH4 0xEC249164 EQ PUSH2 0x5DB JUMPI DUP1 PUSH4 0xF099DD50 EQ PUSH2 0x60C JUMPI PUSH2 0x1CF JUMP JUMPDEST DUP1 PUSH4 0xA217FDDF EQ PUSH2 0x507 JUMPI DUP1 PUSH4 0xB4706268 EQ PUSH2 0x525 JUMPI DUP1 PUSH4 0xB6DB75A0 EQ PUSH2 0x541 JUMPI DUP1 PUSH4 0xC392E850 EQ PUSH2 0x55F JUMPI PUSH2 0x1CF JUMP JUMPDEST DUP1 PUSH4 0x81280D2B GT PUSH2 0xDE JUMPI DUP1 PUSH4 0x81280D2B EQ PUSH2 0x468 JUMPI DUP1 PUSH4 0x8456CB59 EQ PUSH2 0x498 JUMPI DUP1 PUSH4 0x88295FB2 EQ PUSH2 0x4A2 JUMPI DUP1 PUSH4 0x91D14854 EQ PUSH2 0x4D7 JUMPI PUSH2 0x1CF JUMP JUMPDEST DUP1 PUSH4 0x6E8847BD EQ PUSH2 0x3D8 JUMPI DUP1 PUSH4 0x728CDBCA EQ PUSH2 0x408 JUMPI DUP1 PUSH4 0x77BD35FC EQ PUSH2 0x438 JUMPI PUSH2 0x1CF JUMP JUMPDEST DUP1 PUSH4 0x42F6B8A7 GT PUSH2 0x171 JUMPI DUP1 PUSH4 0x5C975ABB GT PUSH2 0x14B JUMPI DUP1 PUSH4 0x5C975ABB EQ PUSH2 0x33E JUMPI DUP1 PUSH4 0x642ADC28 EQ PUSH2 0x35C JUMPI DUP1 PUSH4 0x6B6D105E EQ PUSH2 0x38C JUMPI DUP1 PUSH4 0x6E810B1A EQ PUSH2 0x3BC JUMPI PUSH2 0x1CF JUMP JUMPDEST DUP1 PUSH4 0x42F6B8A7 EQ PUSH2 0x2C2 JUMPI DUP1 PUSH4 0x4E94C048 EQ PUSH2 0x2F2 JUMPI DUP1 PUSH4 0x56EB66BB EQ PUSH2 0x322 JUMPI PUSH2 0x1CF JUMP JUMPDEST DUP1 PUSH4 0x24B7AB24 GT PUSH2 0x1AD JUMPI DUP1 PUSH4 0x24B7AB24 EQ PUSH2 0x264 JUMPI DUP1 PUSH4 0x2F2FF15D EQ PUSH2 0x280 JUMPI DUP1 PUSH4 0x36568ABE EQ PUSH2 0x29C JUMPI DUP1 PUSH4 0x3F4BA83A EQ PUSH2 0x2B8 JUMPI PUSH2 0x1CF JUMP JUMPDEST DUP1 PUSH4 0x1FFC9A7 EQ PUSH2 0x1D4 JUMPI DUP1 PUSH4 0x1A5C8F28 EQ PUSH2 0x204 JUMPI DUP1 PUSH4 0x248A9CA3 EQ PUSH2 0x234 JUMPI JUMPDEST PUSH1 0x0 DUP1 REVERT JUMPDEST PUSH2 0x1EE PUSH1 0x4 DUP1 CALLDATASIZE SUB DUP2 ADD SWAP1 PUSH2 0x1E9 SWAP2 SWAP1 PUSH2 0x3224 JUMP JUMPDEST PUSH2 0x63C JUMP JUMPDEST PUSH1 0x40 MLOAD PUSH2 0x1FB SWAP2 SWAP1 PUSH2 0x326C JUMP JUMPDEST PUSH1 0x40 MLOAD DUP1 SWAP2 SUB SWAP1 RETURN JUMPDEST PUSH2 0x21E PUSH1 0x4 DUP1 CALLDATASIZE SUB DUP2 ADD SWAP1 PUSH2 0x219 SWAP2 SWAP1 PUSH2 0x331B JUMP JUMPDEST PUSH2 0x6B6 JUMP JUMPDEST PUSH1 0x40 MLOAD PUSH2 0x22B SWAP2 SWAP1 PUSH2 0x342C JUMP JUMPDEST PUSH1 0x40 MLOAD DUP1 SWAP2 SUB SWAP1 RETURN JUMPDEST PUSH2 0x24E PUSH1 0x4 DUP1 CALLDATASIZE SUB DUP2 ADD SWAP1 PUSH2 0x249 SWAP2 SWAP1 PUSH2 0x3484 JUMP JUMPDEST PUSH2 0x8D9 JUMP JUMPDEST PUSH1 0x40 MLOAD PUSH2 0x25B SWAP2 SWAP1 PUSH2 0x34C0 JUMP JUMPDEST PUSH1 0x40 MLOAD DUP1 SWAP2 SUB SWAP1 RETURN JUMPDEST PUSH2 0x27E PUSH1 0x4 DUP1 CALLDATASIZE SUB DUP2 ADD SWAP1 PUSH2 0x279 SWAP2 SWAP1 PUSH2 0x34DB JUMP JUMPDEST PUSH2 0x8F9 JUMP JUMPDEST STOP JUMPDEST PUSH2 0x29A PUSH1 0x4 DUP1 CALLDATASIZE SUB DUP2 ADD SWAP1 PUSH2 0x295 SWAP2 SWAP1 PUSH2 0x3508 JUMP JUMPDEST PUSH2 0x983 JUMP JUMPDEST STOP JUMPDEST PUSH2 0x2B6 PUSH1 0x4 DUP1 CALLDATASIZE SUB DUP2 ADD SWAP1 PUSH2 0x2B1 SWAP2 SWAP1 PUSH2 0x3508 JUMP JUMPDEST PUSH2 0x9A4 JUMP JUMPDEST STOP JUMPDEST PUSH2 0x2C0 PUSH2 0xA27 JUMP JUMPDEST STOP JUMPDEST PUSH2 0x2DC PUSH1 0x4 DUP1 CALLDATASIZE SUB DUP2 ADD SWAP1 PUSH2 0x2D7 SWAP2 SWAP1 PUSH2 0x3548 JUMP JUMPDEST PUSH2 0xA78 JUMP JUMPDEST PUSH1 0x40 MLOAD PUSH2 0x2E9 SWAP2 SWAP1 PUSH2 0x3584 JUMP JUMPDEST PUSH1 0x40 MLOAD DUP1 SWAP2 SUB SWAP1 RETURN JUMPDEST PUSH2 0x30C PUSH1 0x4 DUP1 CALLDATASIZE SUB DUP2 ADD SWAP1 PUSH2 0x307 SWAP2 SWAP1 PUSH2 0x359F JUMP JUMPDEST PUSH2 0xAF3 JUMP JUMPDEST PUSH1 0x40 MLOAD PUSH2 0x319 SWAP2 SWAP1 PUSH2 0x3584 JUMP JUMPDEST PUSH1 0x40 MLOAD DUP1 SWAP2 SUB SWAP1 RETURN JUMPDEST PUSH2 0x33C PUSH1 0x4 DUP1 CALLDATASIZE SUB DUP2 ADD SWAP1 PUSH2 0x337 SWAP2 SWAP1 PUSH2 0x34DB JUMP JUMPDEST PUSH2 0xC85 JUMP JUMPDEST STOP JUMPDEST PUSH2 0x346 PUSH2 0xD0D JUMP JUMPDEST PUSH1 0x40 MLOAD PUSH2 0x353 SWAP2 SWAP1 PUSH2 0x326C JUMP JUMPDEST PUSH1 0x40 MLOAD DUP1 SWAP2 SUB SWAP1 RETURN JUMPDEST PUSH2 0x376 PUSH1 0x4 DUP1 CALLDATASIZE SUB DUP2 ADD SWAP1 PUSH2 0x371 SWAP2 SWAP1 PUSH2 0x3644 JUMP JUMPDEST PUSH2 0xD24 JUMP JUMPDEST PUSH1 0x40 MLOAD PUSH2 0x383 SWAP2 SWAP1 PUSH2 0x326C JUMP JUMPDEST PUSH1 0x40 MLOAD DUP1 SWAP2 SUB SWAP1 RETURN JUMPDEST PUSH2 0x3A6 PUSH1 0x4 DUP1 CALLDATASIZE SUB DUP2 ADD SWAP1 PUSH2 0x3A1 SWAP2 SWAP1 PUSH2 0x331B JUMP JUMPDEST PUSH2 0xD58 JUMP JUMPDEST PUSH1 0x40 MLOAD PUSH2 0x3B3 SWAP2 SWAP1 PUSH2 0x3584 JUMP JUMPDEST PUSH1 0x40 MLOAD DUP1 SWAP2 SUB SWAP1 RETURN JUMPDEST PUSH2 0x3D6 PUSH1 0x4 DUP1 CALLDATASIZE SUB DUP2 ADD SWAP1 PUSH2 0x3D1 SWAP2 SWAP1 PUSH2 0x3548 JUMP JUMPDEST PUSH2 0xDC9 JUMP JUMPDEST STOP JUMPDEST PUSH2 0x3F2 PUSH1 0x4 DUP1 CALLDATASIZE SUB DUP2 ADD SWAP1 PUSH2 0x3ED SWAP2 SWAP1 PUSH2 0x36E6 JUMP JUMPDEST PUSH2 0xEEB JUMP JUMPDEST PUSH1 0x40 MLOAD PUSH2 0x3FF SWAP2 SWAP1 PUSH2 0x326C JUMP JUMPDEST PUSH1 0x40 MLOAD DUP1 SWAP2 SUB SWAP1 RETURN JUMPDEST PUSH2 0x422 PUSH1 0x4 DUP1 CALLDATASIZE SUB DUP2 ADD SWAP1 PUSH2 0x41D SWAP2 SWAP1 PUSH2 0x3773 JUMP JUMPDEST PUSH2 0xF1D JUMP JUMPDEST PUSH1 0x40 MLOAD PUSH2 0x42F SWAP2 SWAP1 PUSH2 0x326C JUMP JUMPDEST PUSH1 0x40 MLOAD DUP1 SWAP2 SUB SWAP1 RETURN JUMPDEST PUSH2 0x452 PUSH1 0x4 DUP1 CALLDATASIZE SUB DUP2 ADD SWAP1 PUSH2 0x44D SWAP2 SWAP1 PUSH2 0x359F JUMP JUMPDEST PUSH2 0x11B9 JUMP JUMPDEST PUSH1 0x40 MLOAD PUSH2 0x45F SWAP2 SWAP1 PUSH2 0x326C JUMP JUMPDEST PUSH1 0x40 MLOAD DUP1 SWAP2 SUB SWAP1 RETURN JUMPDEST PUSH2 0x482 PUSH1 0x4 DUP1 CALLDATASIZE SUB DUP2 ADD SWAP1 PUSH2 0x47D SWAP2 SWAP1 PUSH2 0x331B JUMP JUMPDEST PUSH2 0x11C1 JUMP JUMPDEST PUSH1 0x40 MLOAD PUSH2 0x48F SWAP2 SWAP1 PUSH2 0x326C JUMP JUMPDEST PUSH1 0x40 MLOAD DUP1 SWAP2 SUB SWAP1 RETURN JUMPDEST PUSH2 0x4A0 PUSH2 0x123F JUMP JUMPDEST STOP JUMPDEST PUSH2 0x4BC PUSH1 0x4 DUP1 CALLDATASIZE SUB DUP2 ADD SWAP1 PUSH2 0x4B7 SWAP2 SWAP1 PUSH2 0x331B JUMP JUMPDEST PUSH2 0x1290 JUMP JUMPDEST PUSH1 0x40 MLOAD PUSH2 0x4CE SWAP7 SWAP6 SWAP5 SWAP4 SWAP3 SWAP2 SWAP1 PUSH2 0x3800 JUMP JUMPDEST PUSH1 0x40 MLOAD DUP1 SWAP2 SUB SWAP1 RETURN JUMPDEST PUSH2 0x4F1 PUSH1 0x4 DUP1 CALLDATASIZE SUB DUP2 ADD SWAP1 PUSH2 0x4EC SWAP2 SWAP1 PUSH2 0x3508 JUMP JUMPDEST PUSH2 0x1398 JUMP JUMPDEST PUSH1 0x40 MLOAD PUSH2 0x4FE SWAP2 SWAP1 PUSH2 0x326C JUMP JUMPDEST PUSH1 0x40 MLOAD DUP1 SWAP2 SUB SWAP1 RETURN JUMPDEST PUSH2 0x50F PUSH2 0x1403 JUMP JUMPDEST PUSH1 0x40 MLOAD PUSH2 0x51C SWAP2 SWAP1 PUSH2 0x34C0 JUMP JUMPDEST PUSH1 0x40 MLOAD DUP1 SWAP2 SUB SWAP1 RETURN JUMPDEST PUSH2 0x53F PUSH1 0x4 DUP1 CALLDATASIZE SUB DUP2 ADD SWAP1 PUSH2 0x53A SWAP2 SWAP1 PUSH2 0x34DB JUMP JUMPDEST PUSH2 0x140A JUMP JUMPDEST STOP JUMPDEST PUSH2 0x549 PUSH2 0x1495 JUMP JUMPDEST PUSH1 0x40 MLOAD PUSH2 0x556 SWAP2 SWAP1 PUSH2 0x326C JUMP JUMPDEST PUSH1 0x40 MLOAD DUP1 SWAP2 SUB SWAP1 RETURN JUMPDEST PUSH2 0x579 PUSH1 0x4 DUP1 CALLDATASIZE SUB DUP2 ADD SWAP1 PUSH2 0x574 SWAP2 SWAP1 PUSH2 0x331B JUMP JUMPDEST PUSH2 0x14B4 JUMP JUMPDEST PUSH1 0x40 MLOAD PUSH2 0x586 SWAP2 SWAP1 PUSH2 0x3584 JUMP JUMPDEST PUSH1 0x40 MLOAD DUP1 SWAP2 SUB SWAP1 RETURN JUMPDEST PUSH2 0x5A9 PUSH1 0x4 DUP1 CALLDATASIZE SUB DUP2 ADD SWAP1 PUSH2 0x5A4 SWAP2 SWAP1 PUSH2 0x3548 JUMP JUMPDEST PUSH2 0x1525 JUMP JUMPDEST PUSH1 0x40 MLOAD PUSH2 0x5B6 SWAP2 SWAP1 PUSH2 0x3584 JUMP JUMPDEST PUSH1 0x40 MLOAD DUP1 SWAP2 SUB SWAP1 RETURN JUMPDEST PUSH2 0x5D9 PUSH1 0x4 DUP1 CALLDATASIZE SUB DUP2 ADD SWAP1 PUSH2 0x5D4 SWAP2 SWAP1 PUSH2 0x3508 JUMP JUMPDEST PUSH2 0x16F4 JUMP JUMPDEST STOP JUMPDEST PUSH2 0x5F5 PUSH1 0x4 DUP1 CALLDATASIZE SUB DUP2 ADD SWAP1 PUSH2 0x5F0 SWAP2 SWAP1 PUSH2 0x3548 JUMP JUMPDEST PUSH2 0x1715 JUMP JUMPDEST PUSH1 0x40 MLOAD PUSH2 0x603 SWAP3 SWAP2 SWAP1 PUSH2 0x3861 JUMP JUMPDEST PUSH1 0x40 MLOAD DUP1 SWAP2 SUB SWAP1 RETURN JUMPDEST PUSH2 0x626 PUSH1 0x4 DUP1 CALLDATASIZE SUB DUP2 ADD SWAP1 PUSH2 0x621 SWAP2 SWAP1 PUSH2 0x331B JUMP JUMPDEST PUSH2 0x1799 JUMP JUMPDEST PUSH1 0x40 MLOAD PUSH2 0x633 SWAP2 SWAP1 PUSH2 0x326C JUMP JUMPDEST PUSH1 0x40 MLOAD DUP1 SWAP2 SUB SWAP1 RETURN JUMPDEST PUSH1 0x0 PUSH32 0x7965DB0B00000000000000000000000000000000000000000000000000000000 PUSH28 0xFFFFFFFFFFFFFFFFFFFFFFFFFFFFFFFFFFFFFFFFFFFFFFFFFFFFFFFF NOT AND DUP3 PUSH28 0xFFFFFFFFFFFFFFFFFFFFFFFFFFFFFFFFFFFFFFFFFFFFFFFFFFFFFFFF NOT AND EQ DUP1 PUSH2 0x6AF JUMPI POP PUSH2 0x6AE DUP3 PUSH2 0x1831 JUMP JUMPDEST JUMPDEST SWAP1 POP SWAP2 SWAP1 POP JUMP JUMPDEST PUSH1 0x60 PUSH1 0x0 DUP1 JUMPDEST DUP4 DUP2 LT ISZERO PUSH2 0x7B5 JUMPI PUSH1 0x0 PUSH2 0x104 PUSH1 0x0 DUP9 PUSH20 0xFFFFFFFFFFFFFFFFFFFFFFFFFFFFFFFFFFFFFFFF AND PUSH20 0xFFFFFFFFFFFFFFFFFFFFFFFFFFFFFFFFFFFFFFFF AND DUP2 MSTORE PUSH1 0x20 ADD SWAP1 DUP2 MSTORE PUSH1 0x20 ADD PUSH1 0x0 KECCAK256 PUSH1 0x0 DUP8 DUP2 MSTORE PUSH1 0x20 ADD SWAP1 DUP2 MSTORE PUSH1 0x20 ADD PUSH1 0x0 KECCAK256 PUSH1 0x0 DUP4 DUP2 MSTORE PUSH1 0x20 ADD SWAP1 DUP2 MSTORE PUSH1 0x20 ADD PUSH1 0x0 KECCAK256 PUSH1 0x40 MLOAD DUP1 PUSH1 0xE0 ADD PUSH1 0x40 MSTORE SWAP1 DUP2 PUSH1 0x0 DUP3 ADD SLOAD DUP2 MSTORE PUSH1 0x20 ADD PUSH1 0x1 DUP3 ADD SLOAD DUP2 MSTORE PUSH1 0x20 ADD PUSH1 0x2 DUP3 ADD SLOAD DUP2 MSTORE PUSH1 0x20 ADD PUSH1 0x3 DUP3 ADD SLOAD DUP2 MSTORE PUSH1 0x20 ADD PUSH1 0x4 DUP3 ADD SLOAD DUP2 MSTORE PUSH1 0x20 ADD PUSH1 0x5 DUP3 ADD SLOAD DUP2 MSTORE PUSH1 0x20 ADD PUSH1 0x6 DUP3 ADD PUSH1 0x0 SWAP1 SLOAD SWAP1 PUSH2 0x100 EXP SWAP1 DIV PUSH1 0xFF AND ISZERO ISZERO ISZERO ISZERO DUP2 MSTORE POP POP SWAP1 POP DUP1 PUSH1 0xC0 ADD MLOAD ISZERO PUSH2 0x7A3 JUMPI DUP3 PUSH2 0x7A0 SWAP1 PUSH2 0x38B9 JUMP JUMPDEST SWAP3 POP JUMPDEST DUP2 PUSH2 0x7AD SWAP1 PUSH2 0x38B9 JUMP JUMPDEST SWAP2 POP POP PUSH2 0x6BC JUMP JUMPDEST POP PUSH1 0x0 DUP2 PUSH8 0xFFFFFFFFFFFFFFFF DUP2 GT ISZERO PUSH2 0x7D2 JUMPI PUSH2 0x7D1 PUSH2 0x3901 JUMP JUMPDEST JUMPDEST PUSH1 0x40 MLOAD SWAP1 DUP1 DUP3 MSTORE DUP1 PUSH1 0x20 MUL PUSH1 0x20 ADD DUP3 ADD PUSH1 0x40 MSTORE DUP1 ISZERO PUSH2 0x800 JUMPI DUP2 PUSH1 0x20 ADD PUSH1 0x20 DUP3 MUL DUP1 CALLDATASIZE DUP4 CALLDATACOPY DUP1 DUP3 ADD SWAP2 POP POP SWAP1 POP JUMPDEST POP SWAP1 POP PUSH1 0x0 DUP1 JUMPDEST DUP6 DUP2 LT ISZERO PUSH2 0x8CB JUMPI PUSH1 0x0 PUSH2 0x104 PUSH1 0x0 DUP11 PUSH20 0xFFFFFFFFFFFFFFFFFFFFFFFFFFFFFFFFFFFFFFFF AND PUSH20 0xFFFFFFFFFFFFFFFFFFFFFFFFFFFFFFFFFFFFFFFF AND DUP2 MSTORE PUSH1 0x20 ADD SWAP1 DUP2 MSTORE PUSH1 0x20 ADD PUSH1 0x0 KECCAK256 PUSH1 0x0 DUP10 DUP2 MSTORE PUSH1 0x20 ADD SWAP1 DUP2 MSTORE PUSH1 0x20 ADD PUSH1 0x0 KECCAK256 PUSH1 0x0 DUP4 DUP2 MSTORE PUSH1 0x20 ADD SWAP1 DUP2 MSTORE PUSH1 0x20 ADD PUSH1 0x0 KECCAK256 SWAP1 POP DUP1 PUSH1 0x6 ADD PUSH1 0x0 SWAP1 SLOAD SWAP1 PUSH2 0x100 EXP SWAP1 DIV PUSH1 0xFF AND ISZERO PUSH2 0x8B9 JUMPI DUP2 DUP5 DUP5 DUP2 MLOAD DUP2 LT PUSH2 0x8A0 JUMPI PUSH2 0x89F PUSH2 0x3930 JUMP JUMPDEST JUMPDEST PUSH1 0x20 MUL PUSH1 0x20 ADD ADD DUP2 DUP2 MSTORE POP POP DUP3 PUSH2 0x8B6 SWAP1 PUSH2 0x38B9 JUMP JUMPDEST SWAP3 POP JUMPDEST DUP2 PUSH2 0x8C3 SWAP1 PUSH2 0x38B9 JUMP JUMPDEST SWAP2 POP POP PUSH2 0x807 JUMP JUMPDEST POP DUP2 SWAP4 POP POP POP POP SWAP4 SWAP3 POP POP POP JUMP JUMPDEST PUSH1 0x0 PUSH1 0x97 PUSH1 0x0 DUP4 DUP2 MSTORE PUSH1 0x20 ADD SWAP1 DUP2 MSTORE PUSH1 0x20 ADD PUSH1 0x0 KECCAK256 PUSH1 0x1 ADD SLOAD SWAP1 POP SWAP2 SWAP1 POP JUMP JUMPDEST PUSH2 0x901 PUSH2 0x1495 JUMP JUMPDEST PUSH2 0x940 JUMPI PUSH1 0x40 MLOAD PUSH32 0x8C379A000000000000000000000000000000000000000000000000000000000 DUP2 MSTORE PUSH1 0x4 ADD PUSH2 0x937 SWAP1 PUSH2 0x39E2 JUMP JUMPDEST PUSH1 0x40 MLOAD DUP1 SWAP2 SUB SWAP1 REVERT JUMPDEST PUSH2 0xE10 DUP2 PUSH2 0x94E SWAP2 SWAP1 PUSH2 0x3A02 JUMP JUMPDEST PUSH1 0xFD DUP2 SWAP1 SSTORE POP PUSH32 0x75C07EB064B8CCF959BCC601B55315CA198E67B597DC0A7B93E130F8CA779A67 PUSH1 0x40 MLOAD PUSH1 0x40 MLOAD DUP1 SWAP2 SUB SWAP1 LOG1 POP JUMP JUMPDEST PUSH2 0x98C DUP3 PUSH2 0x8D9 JUMP JUMPDEST PUSH2 0x995 DUP2 PUSH2 0x189B JUMP JUMPDEST PUSH2 0x99F DUP4 DUP4 PUSH2 0x18AF JUMP JUMPDEST POP POP POP JUMP JUMPDEST PUSH2 0x9AC PUSH2 0x1990 JUMP JUMPDEST PUSH20 0xFFFFFFFFFFFFFFFFFFFFFFFFFFFFFFFFFFFFFFFF AND DUP2 PUSH20 0xFFFFFFFFFFFFFFFFFFFFFFFFFFFFFFFFFFFFFFFF AND EQ PUSH2 0xA19 JUMPI PUSH1 0x40 MLOAD PUSH32 0x8C379A000000000000000000000000000000000000000000000000000000000 DUP2 MSTORE PUSH1 0x4 ADD PUSH2 0xA10 SWAP1 PUSH2 0x3ACE JUMP JUMPDEST PUSH1 0x40 MLOAD DUP1 SWAP2 SUB SWAP1 REVERT JUMPDEST PUSH2 0xA23 DUP3 DUP3 PUSH2 0x1998 JUMP JUMPDEST POP POP JUMP JUMPDEST PUSH2 0xA2F PUSH2 0x1495 JUMP JUMPDEST PUSH2 0xA6E JUMPI PUSH1 0x40 MLOAD PUSH32 0x8C379A000000000000000000000000000000000000000000000000000000000 DUP2 MSTORE PUSH1 0x4 ADD PUSH2 0xA65 SWAP1 PUSH2 0x39E2 JUMP JUMPDEST PUSH1 0x40 MLOAD DUP1 SWAP2 SUB SWAP1 REVERT JUMPDEST PUSH2 0xA76 PUSH2 0x1A7A JUMP JUMPDEST JUMP JUMPDEST PUSH1 0x0 DUP1 PUSH2 0x103 PUSH1 0x0 DUP5 PUSH20 0xFFFFFFFFFFFFFFFFFFFFFFFFFFFFFFFFFFFFFFFF AND PUSH20 0xFFFFFFFFFFFFFFFFFFFFFFFFFFFFFFFFFFFFFFFF AND DUP2 MSTORE PUSH1 0x20 ADD SWAP1 DUP2 MSTORE PUSH1 0x20 ADD PUSH1 0x0 KECCAK256 PUSH1 0x40 MLOAD DUP1 PUSH1 0x60 ADD PUSH1 0x40 MSTORE SWAP1 DUP2 PUSH1 0x0 DUP3 ADD SLOAD DUP2 MSTORE PUSH1 0x20 ADD PUSH1 0x1 DUP3 ADD SLOAD DUP2 MSTORE PUSH1 0x20 ADD PUSH1 0x2 DUP3 ADD SLOAD DUP2 MSTORE POP POP SWAP1 POP DUP1 PUSH1 0x40 ADD MLOAD SWAP2 POP POP SWAP2 SWAP1 POP JUMP JUMPDEST PUSH1 0x0 DUP1 PUSH1 0x0 SWAP1 POP PUSH1 0x0 PUSH2 0xBA3 DUP6 DUP6 PUSH2 0x102 PUSH1 0x0 SWAP1 SLOAD SWAP1 PUSH2 0x100 EXP SWAP1 DIV PUSH20 0xFFFFFFFFFFFFFFFFFFFFFFFFFFFFFFFFFFFFFFFF AND PUSH20 0xFFFFFFFFFFFFFFFFFFFFFFFFFFFFFFFFFFFFFFFF AND PUSH4 0x3BF4C082 DUP9 PUSH1 0x40 MLOAD DUP3 PUSH4 0xFFFFFFFF AND PUSH1 0xE0 SHL DUP2 MSTORE PUSH1 0x4 ADD PUSH2 0xB5D SWAP2 SWAP1 PUSH2 0x3584 JUMP JUMPDEST PUSH1 0x20 PUSH1 0x40 MLOAD DUP1 DUP4 SUB DUP2 DUP7 GAS STATICCALL ISZERO DUP1 ISZERO PUSH2 0xB7A JUMPI RETURNDATASIZE PUSH1 0x0 DUP1 RETURNDATACOPY RETURNDATASIZE PUSH1 0x0 REVERT JUMPDEST POP POP POP POP PUSH1 0x40 MLOAD RETURNDATASIZE PUSH1 0x1F NOT PUSH1 0x1F DUP3 ADD AND DUP3 ADD DUP1 PUSH1 0x40 MSTORE POP DUP2 ADD SWAP1 PUSH2 0xB9E SWAP2 SWAP1 PUSH2 0x3B03 JUMP JUMPDEST PUSH2 0x6B6 JUMP JUMPDEST SWAP1 POP PUSH1 0x0 JUMPDEST DUP2 MLOAD DUP2 LT ISZERO PUSH2 0xC79 JUMPI PUSH1 0x0 PUSH2 0x104 PUSH1 0x0 DUP9 PUSH20 0xFFFFFFFFFFFFFFFFFFFFFFFFFFFFFFFFFFFFFFFF AND PUSH20 0xFFFFFFFFFFFFFFFFFFFFFFFFFFFFFFFFFFFFFFFF AND DUP2 MSTORE PUSH1 0x20 ADD SWAP1 DUP2 MSTORE PUSH1 0x20 ADD PUSH1 0x0 KECCAK256 PUSH1 0x0 DUP8 DUP2 MSTORE PUSH1 0x20 ADD SWAP1 DUP2 MSTORE PUSH1 0x20 ADD PUSH1 0x0 KECCAK256 PUSH1 0x0 DUP5 DUP5 DUP2 MLOAD DUP2 LT PUSH2 0xC19 JUMPI PUSH2 0xC18 PUSH2 0x3930 JUMP JUMPDEST JUMPDEST PUSH1 0x20 MUL PUSH1 0x20 ADD ADD MLOAD DUP2 MSTORE PUSH1 0x20 ADD SWAP1 DUP2 MSTORE PUSH1 0x20 ADD PUSH1 0x0 KECCAK256 SWAP1 POP PUSH1 0x0 DUP2 PUSH1 0x0 ADD SLOAD DUP3 PUSH1 0x1 ADD SLOAD PUSH2 0xC47 SWAP2 SWAP1 PUSH2 0x3B30 JUMP JUMPDEST SWAP1 POP DUP1 DUP3 PUSH1 0x4 ADD SLOAD PUSH2 0xC59 SWAP2 SWAP1 PUSH2 0x3A02 JUMP JUMPDEST DUP6 PUSH2 0xC64 SWAP2 SWAP1 PUSH2 0x3B64 JUMP JUMPDEST SWAP5 POP DUP3 PUSH2 0xC70 SWAP1 PUSH2 0x38B9 JUMP JUMPDEST SWAP3 POP POP POP PUSH2 0xBA8 JUMP JUMPDEST POP DUP2 SWAP3 POP POP POP SWAP3 SWAP2 POP POP JUMP JUMPDEST PUSH2 0xC8D PUSH2 0x1495 JUMP JUMPDEST PUSH2 0xCCC JUMPI PUSH1 0x40 MLOAD PUSH32 0x8C379A000000000000000000000000000000000000000000000000000000000 DUP2 MSTORE PUSH1 0x4 ADD PUSH2 0xCC3 SWAP1 PUSH2 0x39E2 JUMP JUMPDEST PUSH1 0x40 MLOAD DUP1 SWAP2 SUB SWAP1 REVERT JUMPDEST PUSH1 0x3C DUP2 PUSH2 0xCD9 SWAP2 SWAP1 PUSH2 0x3A02 JUMP JUMPDEST PUSH1 0xFE DUP2 SWAP1 SSTORE POP PUSH31 0x3A5A2424463BB22C8FC4C0F2422B7A18712B7713F9619CAA313F499FAD615E PUSH1 0x40 MLOAD PUSH1 0x40 MLOAD DUP1 SWAP2 SUB SWAP1 LOG1 POP JUMP JUMPDEST PUSH1 0x0 PUSH1 0x33 PUSH1 0x0 SWAP1 SLOAD SWAP1 PUSH2 0x100 EXP SWAP1 DIV PUSH1 0xFF AND SWAP1 POP SWAP1 JUMP JUMPDEST PUSH1 0x0 PUSH2 0xD2E PUSH2 0x1ADD JUMP JUMPDEST PUSH1 0x0 PUSH2 0xD3F DUP10 DUP10 DUP10 DUP10 DUP10 DUP10 DUP10 PUSH2 0x1B2C JUMP JUMPDEST SWAP1 POP DUP1 SWAP2 POP POP PUSH2 0xD4D PUSH2 0x1D89 JUMP JUMPDEST SWAP8 SWAP7 POP POP POP POP POP POP POP JUMP JUMPDEST PUSH1 0x0 PUSH2 0x104 PUSH1 0x0 DUP6 PUSH20 0xFFFFFFFFFFFFFFFFFFFFFFFFFFFFFFFFFFFFFFFF AND PUSH20 0xFFFFFFFFFFFFFFFFFFFFFFFFFFFFFFFFFFFFFFFF AND DUP2 MSTORE PUSH1 0x20 ADD SWAP1 DUP2 MSTORE PUSH1 0x20 ADD PUSH1 0x0 KECCAK256 PUSH1 0x0 DUP5 DUP2 MSTORE PUSH1 0x20 ADD SWAP1 DUP2 MSTORE PUSH1 0x20 ADD PUSH1 0x0 KECCAK256 PUSH1 0x0 DUP4 DUP2 MSTORE PUSH1 0x20 ADD SWAP1 DUP2 MSTORE PUSH1 0x20 ADD PUSH1 0x0 KECCAK256 PUSH1 0x2 ADD SLOAD SWAP1 POP SWAP4 SWAP3 POP POP POP JUMP JUMPDEST PUSH1 0x0 PUSH1 0x1 SWAP1 SLOAD SWAP1 PUSH2 0x100 EXP SWAP1 DIV PUSH1 0xFF AND PUSH2 0xE18 JUMPI PUSH1 0x40 MLOAD PUSH32 0x8C379A000000000000000000000000000000000000000000000000000000000 DUP2 MSTORE PUSH1 0x4 ADD PUSH2 0xE0F SWAP1 PUSH2 0x3C0A JUMP JUMPDEST PUSH1 0x40 MLOAD DUP1 SWAP2 SUB SWAP1 REVERT JUMPDEST PUSH1 0x0 PUSH20 0xFFFFFFFFFFFFFFFFFFFFFFFFFFFFFFFFFFFFFFFF AND DUP2 PUSH20 0xFFFFFFFFFFFFFFFFFFFFFFFFFFFFFFFFFFFFFFFF AND SUB PUSH2 0xE7E JUMPI PUSH1 0x40 MLOAD PUSH32 0x5415139400000000000000000000000000000000000000000000000000000000 DUP2 MSTORE PUSH1 0x4 ADD PUSH1 0x40 MLOAD DUP1 SWAP2 SUB SWAP1 REVERT JUMPDEST PUSH2 0xE86 PUSH2 0x1D93 JUMP JUMPDEST PUSH2 0xE8E PUSH2 0x1DEC JUMP JUMPDEST PUSH2 0xE96 PUSH2 0x1E3D JUMP JUMPDEST PUSH2 0xEA7 PUSH2 0xEA1 PUSH2 0x1E96 JUMP JUMPDEST DUP3 PUSH2 0x18AF JUMP JUMPDEST PUSH2 0xEB8 PUSH2 0xEB2 PUSH2 0x1EBE JUMP JUMPDEST DUP3 PUSH2 0x18AF JUMP JUMPDEST PUSH2 0xED0 PUSH2 0xEC3 PUSH2 0x1EBE JUMP JUMPDEST PUSH2 0xECB PUSH2 0x1E96 JUMP JUMPDEST PUSH2 0x1EE6 JUMP JUMPDEST PUSH2 0xEE8 PUSH2 0xEDB PUSH2 0x1E96 JUMP JUMPDEST PUSH2 0xEE3 PUSH2 0x1E96 JUMP JUMPDEST PUSH2 0x1EE6 JUMP JUMPDEST POP JUMP JUMPDEST PUSH1 0x0 PUSH2 0xEF5 PUSH2 0x1ADD JUMP JUMPDEST PUSH1 0x0 PUSH2 0xF05 DUP9 DUP9 DUP9 DUP9 DUP9 DUP9 PUSH2 0x1F42 JUMP JUMPDEST SWAP1 POP DUP1 SWAP2 POP POP PUSH2 0xF13 PUSH2 0x1D89 JUMP JUMPDEST SWAP7 SWAP6 POP POP POP POP POP POP JUMP JUMPDEST PUSH1 0x0 DUP1 PUSH1 0x0 PUSH1 0x1 SWAP1 SLOAD SWAP1 PUSH2 0x100 EXP SWAP1 DIV PUSH1 0xFF AND ISZERO SWAP1 POP DUP1 DUP1 ISZERO PUSH2 0xF50 JUMPI POP PUSH1 0x1 PUSH1 0x0 DUP1 SLOAD SWAP1 PUSH2 0x100 EXP SWAP1 DIV PUSH1 0xFF AND PUSH1 0xFF AND LT JUMPDEST DUP1 PUSH2 0xF7D JUMPI POP PUSH2 0xF5F ADDRESS PUSH2 0x2167 JUMP JUMPDEST ISZERO DUP1 ISZERO PUSH2 0xF7C JUMPI POP PUSH1 0x1 PUSH1 0x0 DUP1 SLOAD SWAP1 PUSH2 0x100 EXP SWAP1 DIV PUSH1 0xFF AND PUSH1 0xFF AND EQ JUMPDEST JUMPDEST PUSH2 0xFBC JUMPI PUSH1 0x40 MLOAD PUSH32 0x8C379A000000000000000000000000000000000000000000000000000000000 DUP2 MSTORE PUSH1 0x4 ADD PUSH2 0xFB3 SWAP1 PUSH2 0x3C9C JUMP JUMPDEST PUSH1 0x40 MLOAD DUP1 SWAP2 SUB SWAP1 REVERT JUMPDEST PUSH1 0x1 PUSH1 0x0 DUP1 PUSH2 0x100 EXP DUP2 SLOAD DUP2 PUSH1 0xFF MUL NOT AND SWAP1 DUP4 PUSH1 0xFF AND MUL OR SWAP1 SSTORE POP DUP1 ISZERO PUSH2 0xFF9 JUMPI PUSH1 0x1 PUSH1 0x0 PUSH1 0x1 PUSH2 0x100 EXP DUP2 SLOAD DUP2 PUSH1 0xFF MUL NOT AND SWAP1 DUP4 ISZERO ISZERO MUL OR SWAP1 SSTORE POP JUMPDEST PUSH1 0x0 PUSH1 0xFB DUP2 SWAP1 SSTORE POP PUSH1 0x3C DUP4 PUSH2 0x100E SWAP2 SWAP1 PUSH2 0x3A02 JUMP JUMPDEST PUSH1 0xFC DUP2 SWAP1 SSTORE POP PUSH1 0x3C DUP5 PUSH2 0x1021 SWAP2 SWAP1 PUSH2 0x3A02 JUMP JUMPDEST PUSH1 0xFD DUP2 SWAP1 SSTORE POP PUSH1 0x3C DUP6 PUSH2 0x1034 SWAP2 SWAP1 PUSH2 0x3A02 JUMP JUMPDEST PUSH1 0xFE DUP2 SWAP1 SSTORE POP DUP8 PUSH1 0xFF PUSH1 0x0 PUSH2 0x100 EXP DUP2 SLOAD DUP2 PUSH20 0xFFFFFFFFFFFFFFFFFFFFFFFFFFFFFFFFFFFFFFFF MUL NOT AND SWAP1 DUP4 PUSH20 0xFFFFFFFFFFFFFFFFFFFFFFFFFFFFFFFFFFFFFFFF AND MUL OR SWAP1 SSTORE POP DUP8 PUSH2 0x100 PUSH1 0x0 PUSH2 0x100 EXP DUP2 SLOAD DUP2 PUSH20 0xFFFFFFFFFFFFFFFFFFFFFFFFFFFFFFFFFFFFFFFF MUL NOT AND SWAP1 DUP4 PUSH20 0xFFFFFFFFFFFFFFFFFFFFFFFFFFFFFFFFFFFFFFFF AND MUL OR SWAP1 SSTORE POP DUP7 PUSH2 0x101 PUSH1 0x0 PUSH2 0x100 EXP DUP2 SLOAD DUP2 PUSH20 0xFFFFFFFFFFFFFFFFFFFFFFFFFFFFFFFFFFFFFFFF MUL NOT AND SWAP1 DUP4 PUSH20 0xFFFFFFFFFFFFFFFFFFFFFFFFFFFFFFFFFFFFFFFF AND MUL OR SWAP1 SSTORE POP DUP6 PUSH2 0x102 PUSH1 0x0 PUSH2 0x100 EXP DUP2 SLOAD DUP2 PUSH20 0xFFFFFFFFFFFFFFFFFFFFFFFFFFFFFFFFFFFFFFFF MUL NOT AND SWAP1 DUP4 PUSH20 0xFFFFFFFFFFFFFFFFFFFFFFFFFFFFFFFFFFFFFFFF AND MUL OR SWAP1 SSTORE POP PUSH2 0x1151 PUSH2 0x114C PUSH2 0x1990 JUMP JUMPDEST PUSH2 0xDC9 JUMP JUMPDEST PUSH1 0x1 SWAP2 POP DUP1 ISZERO PUSH2 0x11AE JUMPI PUSH1 0x0 DUP1 PUSH1 0x1 PUSH2 0x100 EXP DUP2 SLOAD DUP2 PUSH1 0xFF MUL NOT AND SWAP1 DUP4 ISZERO ISZERO MUL OR SWAP1 SSTORE POP PUSH32 0x7F26B83FF96E1F2B6A682F133852F6798A09C465DA95921460CEFB3847402498 PUSH1 0x1 PUSH1 0x40 MLOAD PUSH2 0x11A5 SWAP2 SWAP1 PUSH2 0x3D01 JUMP JUMPDEST PUSH1 0x40 MLOAD DUP1 SWAP2 SUB SWAP1 LOG1 JUMPDEST POP SWAP7 SWAP6 POP POP POP POP POP POP JUMP JUMPDEST PUSH1 0x0 SWAP3 SWAP2 POP POP JUMP JUMPDEST PUSH1 0x0 PUSH2 0x104 PUSH1 0x0 DUP6 PUSH20 0xFFFFFFFFFFFFFFFFFFFFFFFFFFFFFFFFFFFFFFFF AND PUSH20 0xFFFFFFFFFFFFFFFFFFFFFFFFFFFFFFFFFFFFFFFF AND DUP2 MSTORE PUSH1 0x20 ADD SWAP1 DUP2 MSTORE PUSH1 0x20 ADD PUSH1 0x0 KECCAK256 PUSH1 0x0 DUP5 DUP2 MSTORE PUSH1 0x20 ADD SWAP1 DUP2 MSTORE PUSH1 0x20 ADD PUSH1 0x0 KECCAK256 PUSH1 0x0 DUP4 DUP2 MSTORE PUSH1 0x20 ADD SWAP1 DUP2 MSTORE PUSH1 0x20 ADD PUSH1 0x0 KECCAK256 PUSH1 0x6 ADD PUSH1 0x0 SWAP1 SLOAD SWAP1 PUSH2 0x100 EXP SWAP1 DIV PUSH1 0xFF AND SWAP1 POP SWAP4 SWAP3 POP POP POP JUMP JUMPDEST PUSH2 0x1247 PUSH2 0x1495 JUMP JUMPDEST PUSH2 0x1286 JUMPI PUSH1 0x40 MLOAD PUSH32 0x8C379A000000000000000000000000000000000000000000000000000000000 DUP2 MSTORE PUSH1 0x4 ADD PUSH2 0x127D SWAP1 PUSH2 0x39E2 JUMP JUMPDEST PUSH1 0x40 MLOAD DUP1 SWAP2 SUB SWAP1 REVERT JUMPDEST PUSH2 0x128E PUSH2 0x218A JUMP JUMPDEST JUMP JUMPDEST PUSH1 0x0 DUP1 PUSH1 0x0 DUP1 PUSH1 0x0 DUP1 PUSH1 0x0 PUSH2 0x104 PUSH1 0x0 DUP12 PUSH20 0xFFFFFFFFFFFFFFFFFFFFFFFFFFFFFFFFFFFFFFFF AND PUSH20 0xFFFFFFFFFFFFFFFFFFFFFFFFFFFFFFFFFFFFFFFF AND DUP2 MSTORE PUSH1 0x20 ADD SWAP1 DUP2 MSTORE PUSH1 0x20 ADD PUSH1 0x0 KECCAK256 PUSH1 0x0 DUP11 DUP2 MSTORE PUSH1 0x20 ADD SWAP1 DUP2 MSTORE PUSH1 0x20 ADD PUSH1 0x0 KECCAK256 PUSH1 0x0 DUP10 DUP2 MSTORE PUSH1 0x20 ADD SWAP1 DUP2 MSTORE PUSH1 0x20 ADD PUSH1 0x0 KECCAK256 PUSH1 0x40 MLOAD DUP1 PUSH1 0xE0 ADD PUSH1 0x40 MSTORE SWAP1 DUP2 PUSH1 0x0 DUP3 ADD SLOAD DUP2 MSTORE PUSH1 0x20 ADD PUSH1 0x1 DUP3 ADD SLOAD DUP2 MSTORE PUSH1 0x20 ADD PUSH1 0x2 DUP3 ADD SLOAD DUP2 MSTORE PUSH1 0x20 ADD PUSH1 0x3 DUP3 ADD SLOAD DUP2 MSTORE PUSH1 0x20 ADD PUSH1 0x4 DUP3 ADD SLOAD DUP2 MSTORE PUSH1 0x20 ADD PUSH1 0x5 DUP3 ADD SLOAD DUP2 MSTORE PUSH1 0x20 ADD PUSH1 0x6 DUP3 ADD PUSH1 0x0 SWAP1 SLOAD SWAP1 PUSH2 0x100 EXP SWAP1 DIV PUSH1 0xFF AND ISZERO ISZERO ISZERO ISZERO DUP2 MSTORE POP POP SWAP1 POP DUP1 PUSH1 0x40 ADD MLOAD DUP2 PUSH1 0x80 ADD MLOAD DUP3 PUSH1 0x60 ADD MLOAD DUP4 PUSH1 0x0 ADD MLOAD DUP5 PUSH1 0x20 ADD MLOAD DUP6 PUSH1 0xC0 ADD MLOAD SWAP7 POP SWAP7 POP SWAP7 POP SWAP7 POP SWAP7 POP SWAP7 POP POP SWAP4 SWAP8 POP SWAP4 SWAP8 SWAP2 SWAP6 POP SWAP4 POP JUMP JUMPDEST PUSH1 0x0 PUSH1 0x97 PUSH1 0x0 DUP5 DUP2 MSTORE PUSH1 0x20 ADD SWAP1 DUP2 MSTORE PUSH1 0x20 ADD PUSH1 0x0 KECCAK256 PUSH1 0x0 ADD PUSH1 0x0 DUP4 PUSH20 0xFFFFFFFFFFFFFFFFFFFFFFFFFFFFFFFFFFFFFFFF AND PUSH20 0xFFFFFFFFFFFFFFFFFFFFFFFFFFFFFFFFFFFFFFFF AND DUP2 MSTORE PUSH1 0x20 ADD SWAP1 DUP2 MSTORE PUSH1 0x20 ADD PUSH1 0x0 KECCAK256 PUSH1 0x0 SWAP1 SLOAD SWAP1 PUSH2 0x100 EXP SWAP1 DIV PUSH1 0xFF AND SWAP1 POP SWAP3 SWAP2 POP POP JUMP JUMPDEST PUSH1 0x0 DUP1 SHL DUP2 JUMP JUMPDEST PUSH2 0x1412 PUSH2 0x1495 JUMP JUMPDEST PUSH2 0x1451 JUMPI PUSH1 0x40 MLOAD PUSH32 0x8C379A000000000000000000000000000000000000000000000000000000000 DUP2 MSTORE PUSH1 0x4 ADD PUSH2 0x1448 SWAP1 PUSH2 0x39E2 JUMP JUMPDEST PUSH1 0x40 MLOAD DUP1 SWAP2 SUB SWAP1 REVERT JUMPDEST PUSH3 0x15180 DUP2 PUSH2 0x1460 SWAP2 SWAP1 PUSH2 0x3A02 JUMP JUMPDEST PUSH1 0xFC DUP2 SWAP1 SSTORE POP PUSH32 0xDB4FB2FD6B8B90F67BDA8671842D5CAB4EB4B7EBA9683F5BCEC9ABA9473CC957 PUSH1 0x40 MLOAD PUSH1 0x40 MLOAD DUP1 SWAP2 SUB SWAP1 LOG1 POP JUMP JUMPDEST PUSH1 0x0 PUSH2 0x14AF PUSH2 0x14A2 PUSH2 0x1E96 JUMP JUMPDEST PUSH2 0x14AA PUSH2 0x1990 JUMP JUMPDEST PUSH2 0x1398 JUMP JUMPDEST SWAP1 POP SWAP1 JUMP JUMPDEST PUSH1 0x0 PUSH2 0x104 PUSH1 0x0 DUP6 PUSH20 0xFFFFFFFFFFFFFFFFFFFFFFFFFFFFFFFFFFFFFFFF AND PUSH20 0xFFFFFFFFFFFFFFFFFFFFFFFFFFFFFFFFFFFFFFFF AND DUP2 MSTORE PUSH1 0x20 ADD SWAP1 DUP2 MSTORE PUSH1 0x20 ADD PUSH1 0x0 KECCAK256 PUSH1 0x0 DUP5 DUP2 MSTORE PUSH1 0x20 ADD SWAP1 DUP2 MSTORE PUSH1 0x20 ADD PUSH1 0x0 KECCAK256 PUSH1 0x0 DUP4 DUP2 MSTORE PUSH1 0x20 ADD SWAP1 DUP2 MSTORE PUSH1 0x20 ADD PUSH1 0x0 KECCAK256 PUSH1 0x1 ADD SLOAD SWAP1 POP SWAP4 SWAP3 POP POP POP JUMP JUMPDEST PUSH1 0x0 DUP1 PUSH1 0x0 SWAP1 POP PUSH1 0x0 JUMPDEST PUSH1 0xFB SLOAD DUP2 LT ISZERO PUSH2 0x16EA JUMPI PUSH1 0x0 DUP1 PUSH2 0x15E3 DUP7 DUP5 PUSH2 0x102 PUSH1 0x0 SWAP1 SLOAD SWAP1 PUSH2 0x100 EXP SWAP1 DIV PUSH20 0xFFFFFFFFFFFFFFFFFFFFFFFFFFFFFFFFFFFFFFFF AND PUSH20 0xFFFFFFFFFFFFFFFFFFFFFFFFFFFFFFFFFFFFFFFF AND PUSH4 0x3BF4C082 DUP8 PUSH1 0x40 MLOAD DUP3 PUSH4 0xFFFFFFFF AND PUSH1 0xE0 SHL DUP2 MSTORE PUSH1 0x4 ADD PUSH2 0x159D SWAP2 SWAP1 PUSH2 0x3584 JUMP JUMPDEST PUSH1 0x20 PUSH1 0x40 MLOAD DUP1 DUP4 SUB DUP2 DUP7 GAS STATICCALL ISZERO DUP1 ISZERO PUSH2 0x15BA JUMPI RETURNDATASIZE PUSH1 0x0 DUP1 RETURNDATACOPY RETURNDATASIZE PUSH1 0x0 REVERT JUMPDEST POP POP POP POP PUSH1 0x40 MLOAD RETURNDATASIZE PUSH1 0x1F NOT PUSH1 0x1F DUP3 ADD AND DUP3 ADD DUP1 PUSH1 0x40 MSTORE POP DUP2 ADD SWAP1 PUSH2 0x15DE SWAP2 SWAP1 PUSH2 0x3B03 JUMP JUMPDEST PUSH2 0x6B6 JUMP JUMPDEST SWAP1 POP PUSH1 0x0 JUMPDEST DUP2 MLOAD DUP2 LT ISZERO PUSH2 0x16C8 JUMPI PUSH1 0x0 PUSH2 0x104 PUSH1 0x0 DUP10 PUSH20 0xFFFFFFFFFFFFFFFFFFFFFFFFFFFFFFFFFFFFFFFF AND PUSH20 0xFFFFFFFFFFFFFFFFFFFFFFFFFFFFFFFFFFFFFFFF AND DUP2 MSTORE PUSH1 0x20 ADD SWAP1 DUP2 MSTORE PUSH1 0x20 ADD PUSH1 0x0 KECCAK256 PUSH1 0x0 DUP7 DUP2 MSTORE PUSH1 0x20 ADD SWAP1 DUP2 MSTORE PUSH1 0x20 ADD PUSH1 0x0 KECCAK256 PUSH1 0x0 DUP5 DUP5 DUP2 MLOAD DUP2 LT PUSH2 0x1659 JUMPI PUSH2 0x1658 PUSH2 0x3930 JUMP JUMPDEST JUMPDEST PUSH1 0x20 MUL PUSH1 0x20 ADD ADD MLOAD DUP2 MSTORE PUSH1 0x20 ADD SWAP1 DUP2 MSTORE PUSH1 0x20 ADD PUSH1 0x0 KECCAK256 SWAP1 POP PUSH1 0x0 DUP2 PUSH1 0x0 ADD SLOAD TIMESTAMP GT PUSH2 0x1685 JUMPI PUSH1 0x0 PUSH2 0x1696 JUMP JUMPDEST DUP2 PUSH1 0x0 ADD SLOAD TIMESTAMP PUSH2 0x1695 SWAP2 SWAP1 PUSH2 0x3B30 JUMP JUMPDEST JUMPDEST SWAP1 POP DUP1 DUP3 PUSH1 0x4 ADD SLOAD PUSH2 0x16A8 SWAP2 SWAP1 PUSH2 0x3A02 JUMP JUMPDEST DUP6 PUSH2 0x16B3 SWAP2 SWAP1 PUSH2 0x3B64 JUMP JUMPDEST SWAP5 POP DUP3 PUSH2 0x16BF SWAP1 PUSH2 0x38B9 JUMP JUMPDEST SWAP3 POP POP POP PUSH2 0x15E8 JUMP JUMPDEST POP DUP2 DUP5 PUSH2 0x16D5 SWAP2 SWAP1 PUSH2 0x3B64 JUMP JUMPDEST SWAP4 POP DUP3 PUSH2 0x16E1 SWAP1 PUSH2 0x38B9 JUMP JUMPDEST SWAP3 POP POP POP PUSH2 0x152F JUMP JUMPDEST POP DUP1 SWAP2 POP POP SWAP2 SWAP1 POP JUMP JUMPDEST PUSH2 0x16FD DUP3 PUSH2 0x8D9 JUMP JUMPDEST PUSH2 0x1706 DUP2 PUSH2 0x189B JUMP JUMPDEST PUSH2 0x1710 DUP4 DUP4 PUSH2 0x1998 JUMP JUMPDEST POP POP POP JUMP JUMPDEST PUSH1 0x0 DUP1 PUSH1 0x0 PUSH2 0x103 PUSH1 0x0 DUP6 PUSH20 0xFFFFFFFFFFFFFFFFFFFFFFFFFFFFFFFFFFFFFFFF AND PUSH20 0xFFFFFFFFFFFFFFFFFFFFFFFFFFFFFFFFFFFFFFFF AND DUP2 MSTORE PUSH1 0x20 ADD SWAP1 DUP2 MSTORE PUSH1 0x20 ADD PUSH1 0x0 KECCAK256 PUSH1 0x40 MLOAD DUP1 PUSH1 0x60 ADD PUSH1 0x40 MSTORE SWAP1 DUP2 PUSH1 0x0 DUP3 ADD SLOAD DUP2 MSTORE PUSH1 0x20 ADD PUSH1 0x1 DUP3 ADD SLOAD DUP2 MSTORE PUSH1 0x20 ADD PUSH1 0x2 DUP3 ADD SLOAD DUP2 MSTORE POP POP SWAP1 POP DUP1 PUSH1 0x20 ADD MLOAD DUP2 PUSH1 0x0 ADD MLOAD SWAP3 POP SWAP3 POP POP SWAP2 POP SWAP2 JUMP JUMPDEST PUSH1 0x0 TIMESTAMP PUSH2 0x17A7 DUP6 DUP6 DUP6 PUSH2 0x14B4 JUMP JUMPDEST GT ISZERO PUSH2 0x17DF JUMPI PUSH1 0x40 MLOAD PUSH32 0x707001B500000000000000000000000000000000000000000000000000000000 DUP2 MSTORE PUSH1 0x4 ADD PUSH1 0x40 MLOAD DUP1 SWAP2 SUB SWAP1 REVERT JUMPDEST PUSH1 0x0 PUSH2 0x17EC DUP6 DUP6 DUP6 PUSH2 0x21ED JUMP JUMPDEST SWAP1 POP DUP1 PUSH2 0x1825 JUMPI PUSH1 0x40 MLOAD PUSH32 0xB00FCB1E00000000000000000000000000000000000000000000000000000000 DUP2 MSTORE PUSH1 0x4 ADD PUSH1 0x40 MLOAD DUP1 SWAP2 SUB SWAP1 REVERT JUMPDEST PUSH1 0x1 SWAP2 POP POP SWAP4 SWAP3 POP POP POP JUMP JUMPDEST PUSH1 0x0 PUSH32 0x1FFC9A700000000000000000000000000000000000000000000000000000000 PUSH28 0xFFFFFFFFFFFFFFFFFFFFFFFFFFFFFFFFFFFFFFFFFFFFFFFFFFFFFFFF NOT AND DUP3 PUSH28 0xFFFFFFFFFFFFFFFFFFFFFFFFFFFFFFFFFFFFFFFFFFFFFFFFFFFFFFFF NOT AND EQ SWAP1 POP SWAP2 SWAP1 POP JUMP JUMPDEST PUSH2 0x18AC DUP2 PUSH2 0x18A7 PUSH2 0x1990 JUMP JUMPDEST PUSH2 0x258F JUMP JUMPDEST POP JUMP JUMPDEST PUSH2 0x18B9 DUP3 DUP3 PUSH2 0x1398 JUMP JUMPDEST PUSH2 0x198C JUMPI PUSH1 0x1 PUSH1 0x97 PUSH1 0x0 DUP5 DUP2 MSTORE PUSH1 0x20 ADD SWAP1 DUP2 MSTORE PUSH1 0x20 ADD PUSH1 0x0 KECCAK256 PUSH1 0x0 ADD PUSH1 0x0 DUP4 PUSH20 0xFFFFFFFFFFFFFFFFFFFFFFFFFFFFFFFFFFFFFFFF AND PUSH20 0xFFFFFFFFFFFFFFFFFFFFFFFFFFFFFFFFFFFFFFFF AND DUP2 MSTORE PUSH1 0x20 ADD SWAP1 DUP2 MSTORE PUSH1 0x20 ADD PUSH1 0x0 KECCAK256 PUSH1 0x0 PUSH2 0x100 EXP DUP2 SLOAD DUP2 PUSH1 0xFF MUL NOT AND SWAP1 DUP4 ISZERO ISZERO MUL OR SWAP1 SSTORE POP PUSH2 0x1931 PUSH2 0x1990 JUMP JUMPDEST PUSH20 0xFFFFFFFFFFFFFFFFFFFFFFFFFFFFFFFFFFFFFFFF AND DUP2 PUSH20 0xFFFFFFFFFFFFFFFFFFFFFFFFFFFFFFFFFFFFFFFF AND DUP4 PUSH32 0x2F8788117E7EFF1D82E926EC794901D17C78024A50270940304540A733656F0D PUSH1 0x40 MLOAD PUSH1 0x40 MLOAD DUP1 SWAP2 SUB SWAP1 LOG4 JUMPDEST POP POP JUMP JUMPDEST PUSH1 0x0 CALLER SWAP1 POP SWAP1 JUMP JUMPDEST PUSH2 0x19A2 DUP3 DUP3 PUSH2 0x1398 JUMP JUMPDEST ISZERO PUSH2 0x1A76 JUMPI PUSH1 0x0 PUSH1 0x97 PUSH1 0x0 DUP5 DUP2 MSTORE PUSH1 0x20 ADD SWAP1 DUP2 MSTORE PUSH1 0x20 ADD PUSH1 0x0 KECCAK256 PUSH1 0x0 ADD PUSH1 0x0 DUP4 PUSH20 0xFFFFFFFFFFFFFFFFFFFFFFFFFFFFFFFFFFFFFFFF AND PUSH20 0xFFFFFFFFFFFFFFFFFFFFFFFFFFFFFFFFFFFFFFFF AND DUP2 MSTORE PUSH1 0x20 ADD SWAP1 DUP2 MSTORE PUSH1 0x20 ADD PUSH1 0x0 KECCAK256 PUSH1 0x0 PUSH2 0x100 EXP DUP2 SLOAD DUP2 PUSH1 0xFF MUL NOT AND SWAP1 DUP4 ISZERO ISZERO MUL OR SWAP1 SSTORE POP PUSH2 0x1A1B PUSH2 0x1990 JUMP JUMPDEST PUSH20 0xFFFFFFFFFFFFFFFFFFFFFFFFFFFFFFFFFFFFFFFF AND DUP2 PUSH20 0xFFFFFFFFFFFFFFFFFFFFFFFFFFFFFFFFFFFFFFFF AND DUP4 PUSH32 0xF6391F5C32D9C69D2A47EA670B442974B53935D1EDC7FD64EB21E047A839171B PUSH1 0x40 MLOAD PUSH1 0x40 MLOAD DUP1 SWAP2 SUB SWAP1 LOG4 JUMPDEST POP POP JUMP JUMPDEST PUSH2 0x1A82 PUSH2 0x2614 JUMP JUMPDEST PUSH1 0x0 PUSH1 0x33 PUSH1 0x0 PUSH2 0x100 EXP DUP2 SLOAD DUP2 PUSH1 0xFF MUL NOT AND SWAP1 DUP4 ISZERO ISZERO MUL OR SWAP1 SSTORE POP PUSH32 0x5DB9EE0A495BF2E6FF9C91A7834C1BA4FDD244A5E8AA4E537BD38AEAE4B073AA PUSH2 0x1AC6 PUSH2 0x1990 JUMP JUMPDEST PUSH1 0x40 MLOAD PUSH2 0x1AD3 SWAP2 SWAP1 PUSH2 0x3D2B JUMP JUMPDEST PUSH1 0x40 MLOAD DUP1 SWAP2 SUB SWAP1 LOG1 JUMP JUMPDEST PUSH1 0x2 PUSH1 0xC9 SLOAD SUB PUSH2 0x1B22 JUMPI PUSH1 0x40 MLOAD PUSH32 0x8C379A000000000000000000000000000000000000000000000000000000000 DUP2 MSTORE PUSH1 0x4 ADD PUSH2 0x1B19 SWAP1 PUSH2 0x3D92 JUMP JUMPDEST PUSH1 0x40 MLOAD DUP1 SWAP2 SUB SWAP1 REVERT JUMPDEST PUSH1 0x2 PUSH1 0xC9 DUP2 SWAP1 SSTORE POP JUMP JUMPDEST PUSH1 0x0 PUSH2 0x104 PUSH1 0x0 PUSH2 0x1B3B PUSH2 0x1990 JUMP JUMPDEST PUSH20 0xFFFFFFFFFFFFFFFFFFFFFFFFFFFFFFFFFFFFFFFF AND PUSH20 0xFFFFFFFFFFFFFFFFFFFFFFFFFFFFFFFFFFFFFFFF AND DUP2 MSTORE PUSH1 0x20 ADD SWAP1 DUP2 MSTORE PUSH1 0x20 ADD PUSH1 0x0 KECCAK256 PUSH1 0x0 DUP9 DUP2 MSTORE PUSH1 0x20 ADD SWAP1 DUP2 MSTORE PUSH1 0x20 ADD PUSH1 0x0 KECCAK256 PUSH1 0x0 DUP8 DUP2 MSTORE PUSH1 0x20 ADD SWAP1 DUP2 MSTORE PUSH1 0x20 ADD PUSH1 0x0 KECCAK256 PUSH1 0x6 ADD PUSH1 0x0 SWAP1 SLOAD SWAP1 PUSH2 0x100 EXP SWAP1 DIV PUSH1 0xFF AND PUSH2 0x1BDE JUMPI PUSH1 0x40 MLOAD PUSH32 0x96AE3E8200000000000000000000000000000000000000000000000000000000 DUP2 MSTORE PUSH1 0x4 ADD PUSH1 0x40 MLOAD DUP1 SWAP2 SUB SWAP1 REVERT JUMPDEST PUSH1 0x0 PUSH2 0x1BF2 PUSH2 0x1BEB PUSH2 0x1990 JUMP JUMPDEST DUP10 DUP10 PUSH2 0x21ED JUMP JUMPDEST SWAP1 POP DUP1 PUSH2 0x1C2B JUMPI PUSH1 0x40 MLOAD PUSH32 0xB00FCB1E00000000000000000000000000000000000000000000000000000000 DUP2 MSTORE PUSH1 0x4 ADD PUSH1 0x40 MLOAD DUP1 SWAP2 SUB SWAP1 REVERT JUMPDEST DUP3 PUSH2 0x1D79 JUMPI PUSH1 0x0 DUP10 PUSH2 0x104 PUSH1 0x0 PUSH2 0x1C40 PUSH2 0x1990 JUMP JUMPDEST PUSH20 0xFFFFFFFFFFFFFFFFFFFFFFFFFFFFFFFFFFFFFFFF AND PUSH20 0xFFFFFFFFFFFFFFFFFFFFFFFFFFFFFFFFFFFFFFFF AND DUP2 MSTORE PUSH1 0x20 ADD SWAP1 DUP2 MSTORE PUSH1 0x20 ADD PUSH1 0x0 KECCAK256 PUSH1 0x0 DUP12 DUP2 MSTORE PUSH1 0x20 ADD SWAP1 DUP2 MSTORE PUSH1 0x20 ADD PUSH1 0x0 KECCAK256 PUSH1 0x0 DUP11 DUP2 MSTORE PUSH1 0x20 ADD SWAP1 DUP2 MSTORE PUSH1 0x20 ADD PUSH1 0x0 KECCAK256 PUSH1 0x2 ADD SLOAD PUSH2 0x1CAA SWAP2 SWAP1 PUSH2 0x3B30 JUMP JUMPDEST SWAP1 POP PUSH1 0x0 PUSH3 0x278D00 PUSH1 0xFC SLOAD TIMESTAMP PUSH2 0x1CC0 SWAP2 SWAP1 PUSH2 0x3B64 JUMP JUMPDEST PUSH2 0x1CCA SWAP2 SWAP1 PUSH2 0x3B64 JUMP JUMPDEST SWAP1 POP PUSH1 0x0 DUP1 PUSH2 0x1CDA DUP5 DUP14 DUP14 PUSH2 0x265D JUMP JUMPDEST SWAP2 POP SWAP2 POP DUP2 PUSH2 0x1D15 JUMPI PUSH1 0x40 MLOAD PUSH32 0xB00FCB1E00000000000000000000000000000000000000000000000000000000 DUP2 MSTORE PUSH1 0x4 ADD PUSH1 0x40 MLOAD DUP1 SWAP2 SUB SWAP1 REVERT JUMPDEST PUSH2 0x1D74 PUSH2 0x1D20 PUSH2 0x1990 JUMP JUMPDEST ADDRESS DUP4 DUP7 DUP15 DUP15 DUP15 PUSH2 0x100 PUSH1 0x0 SWAP1 SLOAD SWAP1 PUSH2 0x100 EXP SWAP1 DIV PUSH20 0xFFFFFFFFFFFFFFFFFFFFFFFFFFFFFFFFFFFFFFFF AND PUSH20 0xFFFFFFFFFFFFFFFFFFFFFFFFFFFFFFFFFFFFFFFF AND PUSH2 0x2C82 SWAP1 SWAP8 SWAP7 SWAP6 SWAP5 SWAP4 SWAP3 SWAP2 SWAP1 PUSH4 0xFFFFFFFF AND JUMP JUMPDEST POP POP POP POP JUMPDEST PUSH1 0x1 SWAP2 POP POP SWAP8 SWAP7 POP POP POP POP POP POP POP JUMP JUMPDEST PUSH1 0x1 PUSH1 0xC9 DUP2 SWAP1 SSTORE POP JUMP JUMPDEST PUSH1 0x0 PUSH1 0x1 SWAP1 SLOAD SWAP1 PUSH2 0x100 EXP SWAP1 DIV PUSH1 0xFF AND PUSH2 0x1DE2 JUMPI PUSH1 0x40 MLOAD PUSH32 0x8C379A000000000000000000000000000000000000000000000000000000000 DUP2 MSTORE PUSH1 0x4 ADD PUSH2 0x1DD9 SWAP1 PUSH2 0x3C0A JUMP JUMPDEST PUSH1 0x40 MLOAD DUP1 SWAP2 SUB SWAP1 REVERT JUMPDEST PUSH2 0x1DEA PUSH2 0x2E4F JUMP JUMPDEST JUMP JUMPDEST PUSH1 0x0 PUSH1 0x1 SWAP1 SLOAD SWAP1 PUSH2 0x100 EXP SWAP1 DIV PUSH1 0xFF AND PUSH2 0x1E3B JUMPI PUSH1 0x40 MLOAD PUSH32 0x8C379A000000000000000000000000000000000000000000000000000000000 DUP2 MSTORE PUSH1 0x4 ADD PUSH2 0x1E32 SWAP1 PUSH2 0x3C0A JUMP JUMPDEST PUSH1 0x40 MLOAD DUP1 SWAP2 SUB SWAP1 REVERT JUMPDEST JUMP JUMPDEST PUSH1 0x0 PUSH1 0x1 SWAP1 SLOAD SWAP1 PUSH2 0x100 EXP SWAP1 DIV PUSH1 0xFF AND PUSH2 0x1E8C JUMPI PUSH1 0x40 MLOAD PUSH32 0x8C379A000000000000000000000000000000000000000000000000000000000 DUP2 MSTORE PUSH1 0x4 ADD PUSH2 0x1E83 SWAP1 PUSH2 0x3C0A JUMP JUMPDEST PUSH1 0x40 MLOAD DUP1 SWAP2 SUB SWAP1 REVERT JUMPDEST PUSH2 0x1E94 PUSH2 0x2EBB JUMP JUMPDEST JUMP JUMPDEST PUSH1 0x0 PUSH32 0xA49807205CE4D355092EF5A8A18F56E8913CF4A201FBE287825B095693C21775 SWAP1 POP SWAP1 JUMP JUMPDEST PUSH1 0x0 PUSH32 0x65D7A28E3265B37A6474929F336521B332C1681B933F6CB9F3376673440D862A SWAP1 POP SWAP1 JUMP JUMPDEST PUSH1 0x0 PUSH2 0x1EF1 DUP4 PUSH2 0x8D9 JUMP JUMPDEST SWAP1 POP DUP2 PUSH1 0x97 PUSH1 0x0 DUP6 DUP2 MSTORE PUSH1 0x20 ADD SWAP1 DUP2 MSTORE PUSH1 0x20 ADD PUSH1 0x0 KECCAK256 PUSH1 0x1 ADD DUP2 SWAP1 SSTORE POP DUP2 DUP2 DUP5 PUSH32 0xBD79B86FFE0AB8E8776151514217CD7CACD52C909F66475C3AF44E129F0B00FF PUSH1 0x40 MLOAD PUSH1 0x40 MLOAD DUP1 SWAP2 SUB SWAP1 LOG4 POP POP POP JUMP JUMPDEST PUSH1 0x0 DUP1 DUP8 PUSH2 0x104 PUSH1 0x0 PUSH2 0x1F53 PUSH2 0x1990 JUMP JUMPDEST PUSH20 0xFFFFFFFFFFFFFFFFFFFFFFFFFFFFFFFFFFFFFFFF AND PUSH20 0xFFFFFFFFFFFFFFFFFFFFFFFFFFFFFFFFFFFFFFFF AND DUP2 MSTORE PUSH1 0x20 ADD SWAP1 DUP2 MSTORE PUSH1 0x20 ADD PUSH1 0x0 KECCAK256 PUSH1 0x0 DUP10 DUP2 MSTORE PUSH1 0x20 ADD SWAP1 DUP2 MSTORE PUSH1 0x20 ADD PUSH1 0x0 KECCAK256 PUSH1 0x0 DUP9 DUP2 MSTORE PUSH1 0x20 ADD SWAP1 DUP2 MSTORE PUSH1 0x20 ADD PUSH1 0x0 KECCAK256 PUSH1 0x2 ADD SLOAD PUSH2 0x1FBD SWAP2 SWAP1 PUSH2 0x3B64 JUMP JUMPDEST SWAP1 POP PUSH2 0x104 PUSH1 0x0 PUSH2 0x1FCC PUSH2 0x1990 JUMP JUMPDEST PUSH20 0xFFFFFFFFFFFFFFFFFFFFFFFFFFFFFFFFFFFFFFFF AND PUSH20 0xFFFFFFFFFFFFFFFFFFFFFFFFFFFFFFFFFFFFFFFF AND DUP2 MSTORE PUSH1 0x20 ADD SWAP1 DUP2 MSTORE PUSH1 0x20 ADD PUSH1 0x0 KECCAK256 PUSH1 0x0 DUP9 DUP2 MSTORE PUSH1 0x20 ADD SWAP1 DUP2 MSTORE PUSH1 0x20 ADD PUSH1 0x0 KECCAK256 PUSH1 0x0 DUP8 DUP2 MSTORE PUSH1 0x20 ADD SWAP1 DUP2 MSTORE PUSH1 0x20 ADD PUSH1 0x0 KECCAK256 PUSH1 0x6 ADD PUSH1 0x0 SWAP1 SLOAD SWAP1 PUSH2 0x100 EXP SWAP1 DIV PUSH1 0xFF AND ISZERO PUSH2 0x208D JUMPI PUSH1 0x0 PUSH2 0x2052 PUSH2 0x204B PUSH2 0x1990 JUMP JUMPDEST DUP10 DUP10 PUSH2 0x21ED JUMP JUMPDEST SWAP1 POP DUP1 PUSH2 0x208B JUMPI PUSH1 0x40 MLOAD PUSH32 0xB00FCB1E00000000000000000000000000000000000000000000000000000000 DUP2 MSTORE PUSH1 0x4 ADD PUSH1 0x40 MLOAD DUP1 SWAP2 SUB SWAP1 REVERT JUMPDEST POP JUMPDEST PUSH1 0x0 PUSH3 0x278D00 PUSH1 0xFC SLOAD TIMESTAMP PUSH2 0x20A1 SWAP2 SWAP1 PUSH2 0x3B64 JUMP JUMPDEST PUSH2 0x20AB SWAP2 SWAP1 PUSH2 0x3B64 JUMP JUMPDEST SWAP1 POP PUSH1 0x0 DUP1 PUSH2 0x20BB DUP5 DUP12 DUP12 PUSH2 0x265D JUMP JUMPDEST SWAP2 POP SWAP2 POP DUP2 PUSH2 0x20F6 JUMPI PUSH1 0x40 MLOAD PUSH32 0xB00FCB1E00000000000000000000000000000000000000000000000000000000 DUP2 MSTORE PUSH1 0x4 ADD PUSH1 0x40 MLOAD DUP1 SWAP2 SUB SWAP1 REVERT JUMPDEST PUSH2 0x2155 PUSH2 0x2101 PUSH2 0x1990 JUMP JUMPDEST ADDRESS DUP4 DUP7 DUP13 DUP13 DUP13 PUSH2 0x100 PUSH1 0x0 SWAP1 SLOAD SWAP1 PUSH2 0x100 EXP SWAP1 DIV PUSH20 0xFFFFFFFFFFFFFFFFFFFFFFFFFFFFFFFFFFFFFFFF AND PUSH20 0xFFFFFFFFFFFFFFFFFFFFFFFFFFFFFFFFFFFFFFFF AND PUSH2 0x2C82 SWAP1 SWAP8 SWAP7 SWAP6 SWAP5 SWAP4 SWAP3 SWAP2 SWAP1 PUSH4 0xFFFFFFFF AND JUMP JUMPDEST PUSH1 0x1 SWAP5 POP POP POP POP POP SWAP7 SWAP6 POP POP POP POP POP POP JUMP JUMPDEST PUSH1 0x0 DUP1 DUP3 PUSH20 0xFFFFFFFFFFFFFFFFFFFFFFFFFFFFFFFFFFFFFFFF AND EXTCODESIZE GT SWAP1 POP SWAP2 SWAP1 POP JUMP JUMPDEST PUSH2 0x2192 PUSH2 0x2F14 JUMP JUMPDEST PUSH1 0x1 PUSH1 0x33 PUSH1 0x0 PUSH2 0x100 EXP DUP2 SLOAD DUP2 PUSH1 0xFF MUL NOT AND SWAP1 DUP4 ISZERO ISZERO MUL OR SWAP1 SSTORE POP PUSH32 0x62E78CEA01BEE320CD4E420270B5EA74000D11B0C9F74754EBDBFC544B05A258 PUSH2 0x21D6 PUSH2 0x1990 JUMP JUMPDEST PUSH1 0x40 MLOAD PUSH2 0x21E3 SWAP2 SWAP1 PUSH2 0x3D2B JUMP JUMPDEST PUSH1 0x40 MLOAD DUP1 SWAP2 SUB SWAP1 LOG1 JUMP JUMPDEST PUSH1 0x0 DUP1 PUSH2 0x104 PUSH1 0x0 DUP7 PUSH20 0xFFFFFFFFFFFFFFFFFFFFFFFFFFFFFFFFFFFFFFFF AND PUSH20 0xFFFFFFFFFFFFFFFFFFFFFFFFFFFFFFFFFFFFFFFF AND DUP2 MSTORE PUSH1 0x20 ADD SWAP1 DUP2 MSTORE PUSH1 0x20 ADD PUSH1 0x0 KECCAK256 PUSH1 0x0 DUP6 DUP2 MSTORE PUSH1 0x20 ADD SWAP1 DUP2 MSTORE PUSH1 0x20 ADD PUSH1 0x0 KECCAK256 PUSH1 0x0 DUP5 DUP2 MSTORE PUSH1 0x20 ADD SWAP1 DUP2 MSTORE PUSH1 0x20 ADD PUSH1 0x0 KECCAK256 SWAP1 POP DUP1 PUSH1 0x6 ADD PUSH1 0x0 SWAP1 SLOAD SWAP1 PUSH2 0x100 EXP SWAP1 DIV PUSH1 0xFF AND PUSH2 0x229C JUMPI PUSH1 0x40 MLOAD PUSH32 0x96AE3E8200000000000000000000000000000000000000000000000000000000 DUP2 MSTORE PUSH1 0x4 ADD PUSH1 0x40 MLOAD DUP1 SWAP2 SUB SWAP1 REVERT JUMPDEST PUSH1 0x0 DUP2 PUSH1 0x6 ADD PUSH1 0x0 PUSH2 0x100 EXP DUP2 SLOAD DUP2 PUSH1 0xFF MUL NOT AND SWAP1 DUP4 ISZERO ISZERO MUL OR SWAP1 SSTORE POP PUSH1 0x0 DUP2 PUSH1 0x0 ADD SLOAD TIMESTAMP GT PUSH2 0x22CD JUMPI PUSH1 0x0 PUSH2 0x22F4 JUMP JUMPDEST DUP2 PUSH1 0x1 ADD SLOAD TIMESTAMP GT PUSH2 0x22ED JUMPI DUP2 PUSH1 0x0 ADD SLOAD TIMESTAMP PUSH2 0x22E8 SWAP2 SWAP1 PUSH2 0x3B30 JUMP JUMPDEST PUSH2 0x22F3 JUMP JUMPDEST DUP2 PUSH1 0x1 ADD SLOAD JUMPDEST JUMPDEST SWAP1 POP PUSH1 0x0 DUP3 PUSH1 0x4 ADD SLOAD DUP3 PUSH2 0x2308 SWAP2 SWAP1 PUSH2 0x3A02 JUMP JUMPDEST SWAP1 POP PUSH1 0x0 DUP2 SUB PUSH2 0x231E JUMPI PUSH1 0x1 SWAP4 POP POP POP POP PUSH2 0x2588 JUMP JUMPDEST DUP3 PUSH1 0x4 ADD SLOAD PUSH2 0x103 PUSH1 0x0 DUP10 PUSH20 0xFFFFFFFFFFFFFFFFFFFFFFFFFFFFFFFFFFFFFFFF AND PUSH20 0xFFFFFFFFFFFFFFFFFFFFFFFFFFFFFFFFFFFFFFFF AND DUP2 MSTORE PUSH1 0x20 ADD SWAP1 DUP2 MSTORE PUSH1 0x20 ADD PUSH1 0x0 KECCAK256 PUSH1 0x1 ADD PUSH1 0x0 DUP3 DUP3 SLOAD PUSH2 0x2375 SWAP2 SWAP1 PUSH2 0x3B30 JUMP JUMPDEST SWAP3 POP POP DUP2 SWAP1 SSTORE POP DUP3 PUSH1 0x5 ADD SLOAD PUSH2 0x103 PUSH1 0x0 DUP10 PUSH20 0xFFFFFFFFFFFFFFFFFFFFFFFFFFFFFFFFFFFFFFFF AND PUSH20 0xFFFFFFFFFFFFFFFFFFFFFFFFFFFFFFFFFFFFFFFF AND DUP2 MSTORE PUSH1 0x20 ADD SWAP1 DUP2 MSTORE PUSH1 0x20 ADD PUSH1 0x0 KECCAK256 PUSH1 0x2 ADD PUSH1 0x0 DUP3 DUP3 SLOAD PUSH2 0x23D3 SWAP2 SWAP1 PUSH2 0x3B30 JUMP JUMPDEST SWAP3 POP POP DUP2 SWAP1 SSTORE POP PUSH1 0x0 DUP4 PUSH1 0x4 ADD SLOAD SWAP1 POP PUSH1 0x0 DUP5 PUSH1 0x2 ADD SLOAD SWAP1 POP PUSH1 0x0 PUSH2 0x102 PUSH1 0x0 SWAP1 SLOAD SWAP1 PUSH2 0x100 EXP SWAP1 DIV PUSH20 0xFFFFFFFFFFFFFFFFFFFFFFFFFFFFFFFFFFFFFFFF AND PUSH20 0xFFFFFFFFFFFFFFFFFFFFFFFFFFFFFFFFFFFFFFFF AND PUSH4 0x26A6E9EB DUP11 DUP11 DUP6 DUP8 PUSH1 0x40 MLOAD DUP6 PUSH4 0xFFFFFFFF AND PUSH1 0xE0 SHL DUP2 MSTORE PUSH1 0x4 ADD PUSH2 0x2450 SWAP5 SWAP4 SWAP3 SWAP2 SWAP1 PUSH2 0x3DB2 JUMP JUMPDEST PUSH1 0x20 PUSH1 0x40 MLOAD DUP1 DUP4 SUB DUP2 PUSH1 0x0 DUP8 GAS CALL ISZERO DUP1 ISZERO PUSH2 0x246F JUMPI RETURNDATASIZE PUSH1 0x0 DUP1 RETURNDATACOPY RETURNDATASIZE PUSH1 0x0 REVERT JUMPDEST POP POP POP POP PUSH1 0x40 MLOAD RETURNDATASIZE PUSH1 0x1F NOT PUSH1 0x1F DUP3 ADD AND DUP3 ADD DUP1 PUSH1 0x40 MSTORE POP DUP2 ADD SWAP1 PUSH2 0x2493 SWAP2 SWAP1 PUSH2 0x3E0C JUMP JUMPDEST SWAP1 POP PUSH1 0x0 PUSH2 0x101 PUSH1 0x0 SWAP1 SLOAD SWAP1 PUSH2 0x100 EXP SWAP1 DIV PUSH20 0xFFFFFFFFFFFFFFFFFFFFFFFFFFFFFFFFFFFFFFFF AND PUSH20 0xFFFFFFFFFFFFFFFFFFFFFFFFFFFFFFFFFFFFFFFF AND PUSH4 0x79CC6790 DUP13 DUP8 PUSH1 0x40 MLOAD DUP4 PUSH4 0xFFFFFFFF AND PUSH1 0xE0 SHL DUP2 MSTORE PUSH1 0x4 ADD PUSH2 0x24F5 SWAP3 SWAP2 SWAP1 PUSH2 0x3E39 JUMP JUMPDEST PUSH1 0x20 PUSH1 0x40 MLOAD DUP1 DUP4 SUB DUP2 PUSH1 0x0 DUP8 GAS CALL ISZERO DUP1 ISZERO PUSH2 0x2514 JUMPI RETURNDATASIZE PUSH1 0x0 DUP1 RETURNDATACOPY RETURNDATASIZE PUSH1 0x0 REVERT JUMPDEST POP POP POP POP PUSH1 0x40 MLOAD RETURNDATASIZE PUSH1 0x1F NOT PUSH1 0x1F DUP3 ADD AND DUP3 ADD DUP1 PUSH1 0x40 MSTORE POP DUP2 ADD SWAP1 PUSH2 0x2538 SWAP2 SWAP1 PUSH2 0x3E0C JUMP JUMPDEST SWAP1 POP DUP2 ISZERO DUP1 PUSH2 0x2545 JUMPI POP DUP1 ISZERO JUMPDEST ISZERO PUSH2 0x257C JUMPI PUSH1 0x40 MLOAD PUSH32 0xB00FCB1E00000000000000000000000000000000000000000000000000000000 DUP2 MSTORE PUSH1 0x4 ADD PUSH1 0x40 MLOAD DUP1 SWAP2 SUB SWAP1 REVERT JUMPDEST PUSH1 0x1 SWAP8 POP POP POP POP POP POP POP POP JUMPDEST SWAP4 SWAP3 POP POP POP JUMP JUMPDEST PUSH2 0x2599 DUP3 DUP3 PUSH2 0x1398 JUMP JUMPDEST PUSH2 0x2610 JUMPI PUSH2 0x25A6 DUP2 PUSH2 0x2F5E JUMP JUMPDEST PUSH2 0x25B4 DUP4 PUSH1 0x0 SHR PUSH1 0x20 PUSH2 0x2F8B JUMP JUMPDEST PUSH1 0x40 MLOAD PUSH1 0x20 ADD PUSH2 0x25C5 SWAP3 SWAP2 SWAP1 PUSH2 0x3F6B JUMP JUMPDEST PUSH1 0x40 MLOAD PUSH1 0x20 DUP2 DUP4 SUB SUB DUP2 MSTORE SWAP1 PUSH1 0x40 MSTORE PUSH1 0x40 MLOAD PUSH32 0x8C379A000000000000000000000000000000000000000000000000000000000 DUP2 MSTORE PUSH1 0x4 ADD PUSH2 0x2607 SWAP2 SWAP1 PUSH2 0x3FEF JUMP JUMPDEST PUSH1 0x40 MLOAD DUP1 SWAP2 SUB SWAP1 REVERT JUMPDEST POP POP JUMP JUMPDEST PUSH2 0x261C PUSH2 0xD0D JUMP JUMPDEST PUSH2 0x265B JUMPI PUSH1 0x40 MLOAD PUSH32 0x8C379A000000000000000000000000000000000000000000000000000000000 DUP2 MSTORE PUSH1 0x4 ADD PUSH2 0x2652 SWAP1 PUSH2 0x405D JUMP JUMPDEST PUSH1 0x40 MLOAD DUP1 SWAP2 SUB SWAP1 REVERT JUMPDEST JUMP JUMPDEST PUSH1 0x0 DUP1 PUSH8 0xDE0B6B3A7640000 DUP6 LT ISZERO PUSH2 0x26A1 JUMPI PUSH1 0x40 MLOAD PUSH31 0xCD474300000000000000000000000000000000000000000000000000000000 DUP2 MSTORE PUSH1 0x4 ADD PUSH1 0x40 MLOAD DUP1 SWAP2 SUB SWAP1 REVERT JUMPDEST PUSH2 0x102 PUSH1 0x0 SWAP1 SLOAD SWAP1 PUSH2 0x100 EXP SWAP1 DIV PUSH20 0xFFFFFFFFFFFFFFFFFFFFFFFFFFFFFFFFFFFFFFFF AND PUSH20 0xFFFFFFFFFFFFFFFFFFFFFFFFFFFFFFFFFFFFFFFF AND PUSH4 0x5657F79D DUP6 DUP8 DUP7 PUSH1 0x40 MLOAD DUP5 PUSH4 0xFFFFFFFF AND PUSH1 0xE0 SHL DUP2 MSTORE PUSH1 0x4 ADD PUSH2 0x2701 SWAP4 SWAP3 SWAP2 SWAP1 PUSH2 0x407D JUMP JUMPDEST PUSH1 0x20 PUSH1 0x40 MLOAD DUP1 DUP4 SUB DUP2 DUP7 GAS STATICCALL ISZERO DUP1 ISZERO PUSH2 0x271E JUMPI RETURNDATASIZE PUSH1 0x0 DUP1 RETURNDATACOPY RETURNDATASIZE PUSH1 0x0 REVERT JUMPDEST POP POP POP POP PUSH1 0x40 MLOAD RETURNDATASIZE PUSH1 0x1F NOT PUSH1 0x1F DUP3 ADD AND DUP3 ADD DUP1 PUSH1 0x40 MSTORE POP DUP2 ADD SWAP1 PUSH2 0x2742 SWAP2 SWAP1 PUSH2 0x3E0C JUMP JUMPDEST PUSH2 0x2778 JUMPI PUSH1 0x40 MLOAD PUSH32 0x1E45D1B400000000000000000000000000000000000000000000000000000000 DUP2 MSTORE PUSH1 0x4 ADD PUSH1 0x40 MLOAD DUP1 SWAP2 SUB SWAP1 REVERT JUMPDEST PUSH2 0x104 PUSH1 0x0 PUSH2 0x2785 PUSH2 0x1990 JUMP JUMPDEST PUSH20 0xFFFFFFFFFFFFFFFFFFFFFFFFFFFFFFFFFFFFFFFF AND PUSH20 0xFFFFFFFFFFFFFFFFFFFFFFFFFFFFFFFFFFFFFFFF AND DUP2 MSTORE PUSH1 0x20 ADD SWAP1 DUP2 MSTORE PUSH1 0x20 ADD PUSH1 0x0 KECCAK256 PUSH1 0x0 DUP6 DUP2 MSTORE PUSH1 0x20 ADD SWAP1 DUP2 MSTORE PUSH1 0x20 ADD PUSH1 0x0 KECCAK256 PUSH1 0x0 DUP5 DUP2 MSTORE PUSH1 0x20 ADD SWAP1 DUP2 MSTORE PUSH1 0x20 ADD PUSH1 0x0 KECCAK256 PUSH1 0x6 ADD PUSH1 0x0 SWAP1 SLOAD SWAP1 PUSH2 0x100 EXP SWAP1 DIV PUSH1 0xFF AND ISZERO PUSH2 0x2829 JUMPI PUSH1 0x40 MLOAD PUSH32 0x707001B500000000000000000000000000000000000000000000000000000000 DUP2 MSTORE PUSH1 0x4 ADD PUSH1 0x40 MLOAD DUP1 SWAP2 SUB SWAP1 REVERT JUMPDEST PUSH1 0x0 PUSH2 0x104 PUSH1 0x0 PUSH2 0x2838 PUSH2 0x1990 JUMP JUMPDEST PUSH20 0xFFFFFFFFFFFFFFFFFFFFFFFFFFFFFFFFFFFFFFFF AND PUSH20 0xFFFFFFFFFFFFFFFFFFFFFFFFFFFFFFFFFFFFFFFF AND DUP2 MSTORE PUSH1 0x20 ADD SWAP1 DUP2 MSTORE PUSH1 0x20 ADD PUSH1 0x0 KECCAK256 PUSH1 0x0 DUP7 DUP2 MSTORE PUSH1 0x20 ADD SWAP1 DUP2 MSTORE PUSH1 0x20 ADD PUSH1 0x0 KECCAK256 PUSH1 0x0 DUP6 DUP2 MSTORE PUSH1 0x20 ADD SWAP1 DUP2 MSTORE PUSH1 0x20 ADD PUSH1 0x0 KECCAK256 SWAP1 POP PUSH1 0x0 PUSH2 0x103 PUSH1 0x0 PUSH2 0x28A5 PUSH2 0x1990 JUMP JUMPDEST PUSH20 0xFFFFFFFFFFFFFFFFFFFFFFFFFFFFFFFFFFFFFFFF AND PUSH20 0xFFFFFFFFFFFFFFFFFFFFFFFFFFFFFFFFFFFFFFFF AND DUP2 MSTORE PUSH1 0x20 ADD SWAP1 DUP2 MSTORE PUSH1 0x20 ADD PUSH1 0x0 KECCAK256 SWAP1 POP PUSH1 0x0 DUP2 PUSH1 0x2 ADD SLOAD PUSH2 0x101 PUSH1 0x0 SWAP1 SLOAD SWAP1 PUSH2 0x100 EXP SWAP1 DIV PUSH20 0xFFFFFFFFFFFFFFFFFFFFFFFFFFFFFFFFFFFFFFFF AND PUSH20 0xFFFFFFFFFFFFFFFFFFFFFFFFFFFFFFFFFFFFFFFF AND PUSH4 0x70A08231 PUSH2 0x292F PUSH2 0x1990 JUMP JUMPDEST PUSH1 0x40 MLOAD DUP3 PUSH4 0xFFFFFFFF AND PUSH1 0xE0 SHL DUP2 MSTORE PUSH1 0x4 ADD PUSH2 0x294B SWAP2 SWAP1 PUSH2 0x3D2B JUMP JUMPDEST PUSH1 0x20 PUSH1 0x40 MLOAD DUP1 DUP4 SUB DUP2 DUP7 GAS STATICCALL ISZERO DUP1 ISZERO PUSH2 0x2968 JUMPI RETURNDATASIZE PUSH1 0x0 DUP1 RETURNDATACOPY RETURNDATASIZE PUSH1 0x0 REVERT JUMPDEST POP POP POP POP PUSH1 0x40 MLOAD RETURNDATASIZE PUSH1 0x1F NOT PUSH1 0x1F DUP3 ADD AND DUP3 ADD DUP1 PUSH1 0x40 MSTORE POP DUP2 ADD SWAP1 PUSH2 0x298C SWAP2 SWAP1 PUSH2 0x3B03 JUMP JUMPDEST PUSH2 0x2996 SWAP2 SWAP1 PUSH2 0x3B30 JUMP JUMPDEST SWAP1 POP PUSH1 0x0 PUSH8 0xDE0B6B3A7640000 DUP10 PUSH2 0x102 PUSH1 0x0 SWAP1 SLOAD SWAP1 PUSH2 0x100 EXP SWAP1 DIV PUSH20 0xFFFFFFFFFFFFFFFFFFFFFFFFFFFFFFFFFFFFFFFF AND PUSH20 0xFFFFFFFFFFFFFFFFFFFFFFFFFFFFFFFFFFFFFFFF AND PUSH4 0x5952A8C6 DUP12 DUP12 PUSH1 0x40 MLOAD DUP4 PUSH4 0xFFFFFFFF AND PUSH1 0xE0 SHL DUP2 MSTORE PUSH1 0x4 ADD PUSH2 0x2A02 SWAP3 SWAP2 SWAP1 PUSH2 0x3861 JUMP JUMPDEST PUSH1 0x20 PUSH1 0x40 MLOAD DUP1 DUP4 SUB DUP2 DUP7 GAS STATICCALL ISZERO DUP1 ISZERO PUSH2 0x2A1F JUMPI RETURNDATASIZE PUSH1 0x0 DUP1 RETURNDATACOPY RETURNDATASIZE PUSH1 0x0 REVERT JUMPDEST POP POP POP POP PUSH1 0x40 MLOAD RETURNDATASIZE PUSH1 0x1F NOT PUSH1 0x1F DUP3 ADD AND DUP3 ADD DUP1 PUSH1 0x40 MSTORE POP DUP2 ADD SWAP1 PUSH2 0x2A43 SWAP2 SWAP1 PUSH2 0x3B03 JUMP JUMPDEST PUSH2 0x2A4D SWAP2 SWAP1 PUSH2 0x3A02 JUMP JUMPDEST PUSH2 0x2A57 SWAP2 SWAP1 PUSH2 0x40E3 JUMP JUMPDEST SWAP1 POP PUSH1 0x0 DUP2 DUP5 PUSH1 0x1 ADD SLOAD PUSH2 0x2A6B SWAP2 SWAP1 PUSH2 0x3B64 JUMP JUMPDEST SWAP1 POP DUP3 PUSH1 0xFE SLOAD DUP3 PUSH2 0x2A7C SWAP2 SWAP1 PUSH2 0x3A02 JUMP JUMPDEST GT ISZERO PUSH2 0x2AB4 JUMPI PUSH1 0x40 MLOAD PUSH32 0xE4B581A500000000000000000000000000000000000000000000000000000000 DUP2 MSTORE PUSH1 0x4 ADD PUSH1 0x40 MLOAD DUP1 SWAP2 SUB SWAP1 REVERT JUMPDEST PUSH1 0x0 DUP3 DUP5 PUSH2 0x2AC2 SWAP2 SWAP1 PUSH2 0x40E3 JUMP JUMPDEST SWAP1 POP DUP3 DUP6 PUSH1 0x1 ADD PUSH1 0x0 DUP3 DUP3 SLOAD PUSH2 0x2AD8 SWAP2 SWAP1 PUSH2 0x3B64 JUMP JUMPDEST SWAP3 POP POP DUP2 SWAP1 SSTORE POP DUP11 DUP7 PUSH1 0x2 ADD DUP2 SWAP1 SSTORE POP DUP3 DUP7 PUSH1 0x4 ADD DUP2 SWAP1 SSTORE POP TIMESTAMP DUP7 PUSH1 0x3 ADD DUP2 SWAP1 SSTORE POP PUSH1 0xFD SLOAD TIMESTAMP PUSH2 0x2B08 SWAP2 SWAP1 PUSH2 0x3B64 JUMP JUMPDEST DUP7 PUSH1 0x0 ADD DUP2 SWAP1 SSTORE POP PUSH1 0xFC SLOAD DUP2 LT PUSH2 0x2B30 JUMPI PUSH1 0xFC SLOAD DUP7 PUSH1 0x0 ADD SLOAD PUSH2 0x2B2B SWAP2 SWAP1 PUSH2 0x3B64 JUMP JUMPDEST PUSH2 0x2B41 JUMP JUMPDEST DUP1 DUP7 PUSH1 0x0 ADD SLOAD PUSH2 0x2B40 SWAP2 SWAP1 PUSH2 0x3B64 JUMP JUMPDEST JUMPDEST DUP7 PUSH1 0x1 ADD DUP2 SWAP1 SSTORE POP DUP3 DUP2 PUSH2 0x2B55 SWAP2 SWAP1 PUSH2 0x3A02 JUMP JUMPDEST DUP7 PUSH1 0x5 ADD DUP2 SWAP1 SSTORE POP PUSH1 0x1 DUP7 PUSH1 0x6 ADD PUSH1 0x0 PUSH2 0x100 EXP DUP2 SLOAD DUP2 PUSH1 0xFF MUL NOT AND SWAP1 DUP4 ISZERO ISZERO MUL OR SWAP1 SSTORE POP DUP6 PUSH1 0x5 ADD SLOAD DUP6 PUSH1 0x2 ADD PUSH1 0x0 DUP3 DUP3 SLOAD PUSH2 0x2B92 SWAP2 SWAP1 PUSH2 0x3B64 JUMP JUMPDEST SWAP3 POP POP DUP2 SWAP1 SSTORE POP DUP5 PUSH1 0x0 ADD SLOAD DUP7 PUSH1 0x1 ADD SLOAD LT PUSH2 0x2BB2 JUMPI DUP6 PUSH1 0x1 ADD SLOAD PUSH2 0x2BB8 JUMP JUMPDEST DUP5 PUSH1 0x0 ADD SLOAD JUMPDEST DUP6 PUSH1 0x0 ADD DUP2 SWAP1 SSTORE POP PUSH1 0x0 PUSH2 0x102 PUSH1 0x0 SWAP1 SLOAD SWAP1 PUSH2 0x100 EXP SWAP1 DIV PUSH20 0xFFFFFFFFFFFFFFFFFFFFFFFFFFFFFFFFFFFFFFFF AND PUSH20 0xFFFFFFFFFFFFFFFFFFFFFFFFFFFFFFFFFFFFFFFF AND PUSH4 0xD9895C70 DUP13 DUP13 DUP16 DUP9 PUSH1 0x40 MLOAD DUP6 PUSH4 0xFFFFFFFF AND PUSH1 0xE0 SHL DUP2 MSTORE PUSH1 0x4 ADD PUSH2 0x2C24 SWAP5 SWAP4 SWAP3 SWAP2 SWAP1 PUSH2 0x3DB2 JUMP JUMPDEST PUSH1 0x20 PUSH1 0x40 MLOAD DUP1 DUP4 SUB DUP2 PUSH1 0x0 DUP8 GAS CALL ISZERO DUP1 ISZERO PUSH2 0x2C43 JUMPI RETURNDATASIZE PUSH1 0x0 DUP1 RETURNDATACOPY RETURNDATASIZE PUSH1 0x0 REVERT JUMPDEST POP POP POP POP PUSH1 0x40 MLOAD RETURNDATASIZE PUSH1 0x1F NOT PUSH1 0x1F DUP3 ADD AND DUP3 ADD DUP1 PUSH1 0x40 MSTORE POP DUP2 ADD SWAP1 PUSH2 0x2C67 SWAP2 SWAP1 PUSH2 0x3E0C JUMP JUMPDEST SWAP1 POP DUP1 DUP8 PUSH1 0x5 ADD SLOAD SWAP9 POP SWAP9 POP POP POP POP POP POP POP POP SWAP4 POP SWAP4 SWAP2 POP POP JUMP JUMPDEST PUSH1 0x0 DUP9 PUSH20 0xFFFFFFFFFFFFFFFFFFFFFFFFFFFFFFFFFFFFFFFF AND PUSH4 0x7ECEBE00 DUP10 PUSH1 0x40 MLOAD DUP3 PUSH4 0xFFFFFFFF AND PUSH1 0xE0 SHL DUP2 MSTORE PUSH1 0x4 ADD PUSH2 0x2CBD SWAP2 SWAP1 PUSH2 0x3D2B JUMP JUMPDEST PUSH1 0x20 PUSH1 0x40 MLOAD DUP1 DUP4 SUB DUP2 DUP7 GAS STATICCALL ISZERO DUP1 ISZERO PUSH2 0x2CDA JUMPI RETURNDATASIZE PUSH1 0x0 DUP1 RETURNDATACOPY RETURNDATASIZE PUSH1 0x0 REVERT JUMPDEST POP POP POP POP PUSH1 0x40 MLOAD RETURNDATASIZE PUSH1 0x1F NOT PUSH1 0x1F DUP3 ADD AND DUP3 ADD DUP1 PUSH1 0x40 MSTORE POP DUP2 ADD SWAP1 PUSH2 0x2CFE SWAP2 SWAP1 PUSH2 0x3B03 JUMP JUMPDEST SWAP1 POP DUP9 PUSH20 0xFFFFFFFFFFFFFFFFFFFFFFFFFFFFFFFFFFFFFFFF AND PUSH4 0xD505ACCF DUP10 DUP10 DUP10 DUP10 DUP10 DUP10 DUP10 PUSH1 0x40 MLOAD DUP9 PUSH4 0xFFFFFFFF AND PUSH1 0xE0 SHL DUP2 MSTORE PUSH1 0x4 ADD PUSH2 0x2D45 SWAP8 SWAP7 SWAP6 SWAP5 SWAP4 SWAP3 SWAP2 SWAP1 PUSH2 0x4123 JUMP JUMPDEST PUSH1 0x0 PUSH1 0x40 MLOAD DUP1 DUP4 SUB DUP2 PUSH1 0x0 DUP8 DUP1 EXTCODESIZE ISZERO DUP1 ISZERO PUSH2 0x2D5F JUMPI PUSH1 0x0 DUP1 REVERT JUMPDEST POP GAS CALL ISZERO DUP1 ISZERO PUSH2 0x2D73 JUMPI RETURNDATASIZE PUSH1 0x0 DUP1 RETURNDATACOPY RETURNDATASIZE PUSH1 0x0 REVERT JUMPDEST POP POP POP POP PUSH1 0x0 DUP10 PUSH20 0xFFFFFFFFFFFFFFFFFFFFFFFFFFFFFFFFFFFFFFFF AND PUSH4 0x7ECEBE00 DUP11 PUSH1 0x40 MLOAD DUP3 PUSH4 0xFFFFFFFF AND PUSH1 0xE0 SHL DUP2 MSTORE PUSH1 0x4 ADD PUSH2 0x2DB2 SWAP2 SWAP1 PUSH2 0x3D2B JUMP JUMPDEST PUSH1 0x20 PUSH1 0x40 MLOAD DUP1 DUP4 SUB DUP2 DUP7 GAS STATICCALL ISZERO DUP1 ISZERO PUSH2 0x2DCF JUMPI RETURNDATASIZE PUSH1 0x0 DUP1 RETURNDATACOPY RETURNDATASIZE PUSH1 0x0 REVERT JUMPDEST POP POP POP POP PUSH1 0x40 MLOAD RETURNDATASIZE PUSH1 0x1F NOT PUSH1 0x1F DUP3 ADD AND DUP3 ADD DUP1 PUSH1 0x40 MSTORE POP DUP2 ADD SWAP1 PUSH2 0x2DF3 SWAP2 SWAP1 PUSH2 0x3B03 JUMP JUMPDEST SWAP1 POP PUSH1 0x1 DUP3 PUSH2 0x2E02 SWAP2 SWAP1 PUSH2 0x3B64 JUMP JUMPDEST DUP2 EQ PUSH2 0x2E43 JUMPI PUSH1 0x40 MLOAD PUSH32 0x8C379A000000000000000000000000000000000000000000000000000000000 DUP2 MSTORE PUSH1 0x4 ADD PUSH2 0x2E3A SWAP1 PUSH2 0x4204 JUMP JUMPDEST PUSH1 0x40 MLOAD DUP1 SWAP2 SUB SWAP1 REVERT JUMPDEST POP POP POP POP POP POP POP POP POP POP JUMP JUMPDEST PUSH1 0x0 PUSH1 0x1 SWAP1 SLOAD SWAP1 PUSH2 0x100 EXP SWAP1 DIV PUSH1 0xFF AND PUSH2 0x2E9E JUMPI PUSH1 0x40 MLOAD PUSH32 0x8C379A000000000000000000000000000000000000000000000000000000000 DUP2 MSTORE PUSH1 0x4 ADD PUSH2 0x2E95 SWAP1 PUSH2 0x3C0A JUMP JUMPDEST PUSH1 0x40 MLOAD DUP1 SWAP2 SUB SWAP1 REVERT JUMPDEST PUSH1 0x0 PUSH1 0x33 PUSH1 0x0 PUSH2 0x100 EXP DUP2 SLOAD DUP2 PUSH1 0xFF MUL NOT AND SWAP1 DUP4 ISZERO ISZERO MUL OR SWAP1 SSTORE POP JUMP JUMPDEST PUSH1 0x0 PUSH1 0x1 SWAP1 SLOAD SWAP1 PUSH2 0x100 EXP SWAP1 DIV PUSH1 0xFF AND PUSH2 0x2F0A JUMPI PUSH1 0x40 MLOAD PUSH32 0x8C379A000000000000000000000000000000000000000000000000000000000 DUP2 MSTORE PUSH1 0x4 ADD PUSH2 0x2F01 SWAP1 PUSH2 0x3C0A JUMP JUMPDEST PUSH1 0x40 MLOAD DUP1 SWAP2 SUB SWAP1 REVERT JUMPDEST PUSH1 0x1 PUSH1 0xC9 DUP2 SWAP1 SSTORE POP JUMP JUMPDEST PUSH2 0x2F1C PUSH2 0xD0D JUMP JUMPDEST ISZERO PUSH2 0x2F5C JUMPI PUSH1 0x40 MLOAD PUSH32 0x8C379A000000000000000000000000000000000000000000000000000000000 DUP2 MSTORE PUSH1 0x4 ADD PUSH2 0x2F53 SWAP1 PUSH2 0x4270 JUMP JUMPDEST PUSH1 0x40 MLOAD DUP1 SWAP2 SUB SWAP1 REVERT JUMPDEST JUMP JUMPDEST PUSH1 0x60 PUSH2 0x2F84 DUP3 PUSH20 0xFFFFFFFFFFFFFFFFFFFFFFFFFFFFFFFFFFFFFFFF AND PUSH1 0x14 PUSH1 0xFF AND PUSH2 0x2F8B JUMP JUMPDEST SWAP1 POP SWAP2 SWAP1 POP JUMP JUMPDEST PUSH1 0x60 PUSH1 0x0 PUSH1 0x2 DUP4 PUSH1 0x2 PUSH2 0x2F9E SWAP2 SWAP1 PUSH2 0x3A02 JUMP JUMPDEST PUSH2 0x2FA8 SWAP2 SWAP1 PUSH2 0x3B64 JUMP JUMPDEST PUSH8 0xFFFFFFFFFFFFFFFF DUP2 GT ISZERO PUSH2 0x2FC1 JUMPI PUSH2 0x2FC0 PUSH2 0x3901 JUMP JUMPDEST JUMPDEST PUSH1 0x40 MLOAD SWAP1 DUP1 DUP3 MSTORE DUP1 PUSH1 0x1F ADD PUSH1 0x1F NOT AND PUSH1 0x20 ADD DUP3 ADD PUSH1 0x40 MSTORE DUP1 ISZERO PUSH2 0x2FF3 JUMPI DUP2 PUSH1 0x20 ADD PUSH1 0x1 DUP3 MUL DUP1 CALLDATASIZE DUP4 CALLDATACOPY DUP1 DUP3 ADD SWAP2 POP POP SWAP1 POP JUMPDEST POP SWAP1 POP PUSH32 0x3000000000000000000000000000000000000000000000000000000000000000 DUP2 PUSH1 0x0 DUP2 MLOAD DUP2 LT PUSH2 0x302B JUMPI PUSH2 0x302A PUSH2 0x3930 JUMP JUMPDEST JUMPDEST PUSH1 0x20 ADD ADD SWAP1 PUSH31 0xFFFFFFFFFFFFFFFFFFFFFFFFFFFFFFFFFFFFFFFFFFFFFFFFFFFFFFFFFFFFFF NOT AND SWAP1 DUP2 PUSH1 0x0 BYTE SWAP1 MSTORE8 POP PUSH32 0x7800000000000000000000000000000000000000000000000000000000000000 DUP2 PUSH1 0x1 DUP2 MLOAD DUP2 LT PUSH2 0x308F JUMPI PUSH2 0x308E PUSH2 0x3930 JUMP JUMPDEST JUMPDEST PUSH1 0x20 ADD ADD SWAP1 PUSH31 0xFFFFFFFFFFFFFFFFFFFFFFFFFFFFFFFFFFFFFFFFFFFFFFFFFFFFFFFFFFFFFF NOT AND SWAP1 DUP2 PUSH1 0x0 BYTE SWAP1 MSTORE8 POP PUSH1 0x0 PUSH1 0x1 DUP5 PUSH1 0x2 PUSH2 0x30CF SWAP2 SWAP1 PUSH2 0x3A02 JUMP JUMPDEST PUSH2 0x30D9 SWAP2 SWAP1 PUSH2 0x3B64 JUMP JUMPDEST SWAP1 POP JUMPDEST PUSH1 0x1 DUP2 GT ISZERO PUSH2 0x3179 JUMPI PUSH32 0x3031323334353637383961626364656600000000000000000000000000000000 PUSH1 0xF DUP7 AND PUSH1 0x10 DUP2 LT PUSH2 0x311B JUMPI PUSH2 0x311A PUSH2 0x3930 JUMP JUMPDEST JUMPDEST BYTE PUSH1 0xF8 SHL DUP3 DUP3 DUP2 MLOAD DUP2 LT PUSH2 0x3132 JUMPI PUSH2 0x3131 PUSH2 0x3930 JUMP JUMPDEST JUMPDEST PUSH1 0x20 ADD ADD SWAP1 PUSH31 0xFFFFFFFFFFFFFFFFFFFFFFFFFFFFFFFFFFFFFFFFFFFFFFFFFFFFFFFFFFFFFF NOT AND SWAP1 DUP2 PUSH1 0x0 BYTE SWAP1 MSTORE8 POP PUSH1 0x4 DUP6 SWAP1 SHR SWAP5 POP DUP1 PUSH2 0x3172 SWAP1 PUSH2 0x4290 JUMP JUMPDEST SWAP1 POP PUSH2 0x30DC JUMP JUMPDEST POP PUSH1 0x0 DUP5 EQ PUSH2 0x31BD JUMPI PUSH1 0x40 MLOAD PUSH32 0x8C379A000000000000000000000000000000000000000000000000000000000 DUP2 MSTORE PUSH1 0x4 ADD PUSH2 0x31B4 SWAP1 PUSH2 0x4305 JUMP JUMPDEST PUSH1 0x40 MLOAD DUP1 SWAP2 SUB SWAP1 REVERT JUMPDEST DUP1 SWAP2 POP POP SWAP3 SWAP2 POP POP JUMP JUMPDEST PUSH1 0x0 DUP1 REVERT JUMPDEST PUSH1 0x0 PUSH32 0xFFFFFFFF00000000000000000000000000000000000000000000000000000000 DUP3 AND SWAP1 POP SWAP2 SWAP1 POP JUMP JUMPDEST PUSH2 0x3201 DUP2 PUSH2 0x31CC JUMP JUMPDEST DUP2 EQ PUSH2 0x320C JUMPI PUSH1 0x0 DUP1 REVERT JUMPDEST POP JUMP JUMPDEST PUSH1 0x0 DUP2 CALLDATALOAD SWAP1 POP PUSH2 0x321E DUP2 PUSH2 0x31F8 JUMP JUMPDEST SWAP3 SWAP2 POP POP JUMP JUMPDEST PUSH1 0x0 PUSH1 0x20 DUP3 DUP5 SUB SLT ISZERO PUSH2 0x323A JUMPI PUSH2 0x3239 PUSH2 0x31C7 JUMP JUMPDEST JUMPDEST PUSH1 0x0 PUSH2 0x3248 DUP5 DUP3 DUP6 ADD PUSH2 0x320F JUMP JUMPDEST SWAP2 POP POP SWAP3 SWAP2 POP POP JUMP JUMPDEST PUSH1 0x0 DUP2 ISZERO ISZERO SWAP1 POP SWAP2 SWAP1 POP JUMP JUMPDEST PUSH2 0x3266 DUP2 PUSH2 0x3251 JUMP JUMPDEST DUP3 MSTORE POP POP JUMP JUMPDEST PUSH1 0x0 PUSH1 0x20 DUP3 ADD SWAP1 POP PUSH2 0x3281 PUSH1 0x0 DUP4 ADD DUP5 PUSH2 0x325D JUMP JUMPDEST SWAP3 SWAP2 POP POP JUMP JUMPDEST PUSH1 0x0 PUSH20 0xFFFFFFFFFFFFFFFFFFFFFFFFFFFFFFFFFFFFFFFF DUP3 AND SWAP1 POP SWAP2 SWAP1 POP JUMP JUMPDEST PUSH1 0x0 PUSH2 0x32B2 DUP3 PUSH2 0x3287 JUMP JUMPDEST SWAP1 POP SWAP2 SWAP1 POP JUMP JUMPDEST PUSH2 0x32C2 DUP2 PUSH2 0x32A7 JUMP JUMPDEST DUP2 EQ PUSH2 0x32CD JUMPI PUSH1 0x0 DUP1 REVERT JUMPDEST POP JUMP JUMPDEST PUSH1 0x0 DUP2 CALLDATALOAD SWAP1 POP PUSH2 0x32DF DUP2 PUSH2 0x32B9 JUMP JUMPDEST SWAP3 SWAP2 POP POP JUMP JUMPDEST PUSH1 0x0 DUP2 SWAP1 POP SWAP2 SWAP1 POP JUMP JUMPDEST PUSH2 0x32F8 DUP2 PUSH2 0x32E5 JUMP JUMPDEST DUP2 EQ PUSH2 0x3303 JUMPI PUSH1 0x0 DUP1 REVERT JUMPDEST POP JUMP JUMPDEST PUSH1 0x0 DUP2 CALLDATALOAD SWAP1 POP PUSH2 0x3315 DUP2 PUSH2 0x32EF JUMP JUMPDEST SWAP3 SWAP2 POP POP JUMP JUMPDEST PUSH1 0x0 DUP1 PUSH1 0x0 PUSH1 0x60 DUP5 DUP7 SUB SLT ISZERO PUSH2 0x3334 JUMPI PUSH2 0x3333 PUSH2 0x31C7 JUMP JUMPDEST JUMPDEST PUSH1 0x0 PUSH2 0x3342 DUP7 DUP3 DUP8 ADD PUSH2 0x32D0 JUMP JUMPDEST SWAP4 POP POP PUSH1 0x20 PUSH2 0x3353 DUP7 DUP3 DUP8 ADD PUSH2 0x3306 JUMP JUMPDEST SWAP3 POP POP PUSH1 0x40 PUSH2 0x3364 DUP7 DUP3 DUP8 ADD PUSH2 0x3306 JUMP JUMPDEST SWAP2 POP POP SWAP3 POP SWAP3 POP SWAP3 JUMP JUMPDEST PUSH1 0x0 DUP2 MLOAD SWAP1 POP SWAP2 SWAP1 POP JUMP JUMPDEST PUSH1 0x0 DUP3 DUP3 MSTORE PUSH1 0x20 DUP3 ADD SWAP1 POP SWAP3 SWAP2 POP POP JUMP JUMPDEST PUSH1 0x0 DUP2 SWAP1 POP PUSH1 0x20 DUP3 ADD SWAP1 POP SWAP2 SWAP1 POP JUMP JUMPDEST PUSH2 0x33A3 DUP2 PUSH2 0x32E5 JUMP JUMPDEST DUP3 MSTORE POP POP JUMP JUMPDEST PUSH1 0x0 PUSH2 0x33B5 DUP4 DUP4 PUSH2 0x339A JUMP JUMPDEST PUSH1 0x20 DUP4 ADD SWAP1 POP SWAP3 SWAP2 POP POP JUMP JUMPDEST PUSH1 0x0 PUSH1 0x20 DUP3 ADD SWAP1 POP SWAP2 SWAP1 POP JUMP JUMPDEST PUSH1 0x0 PUSH2 0x33D9 DUP3 PUSH2 0x336E JUMP JUMPDEST PUSH2 0x33E3 DUP2 DUP6 PUSH2 0x3379 JUMP JUMPDEST SWAP4 POP PUSH2 0x33EE DUP4 PUSH2 0x338A JUMP JUMPDEST DUP1 PUSH1 0x0 JUMPDEST DUP4 DUP2 LT ISZERO PUSH2 0x341F JUMPI DUP2 MLOAD PUSH2 0x3406 DUP9 DUP3 PUSH2 0x33A9 JUMP JUMPDEST SWAP8 POP PUSH2 0x3411 DUP4 PUSH2 0x33C1 JUMP JUMPDEST SWAP3 POP POP PUSH1 0x1 DUP2 ADD SWAP1 POP PUSH2 0x33F2 JUMP JUMPDEST POP DUP6 SWAP4 POP POP POP POP SWAP3 SWAP2 POP POP JUMP JUMPDEST PUSH1 0x0 PUSH1 0x20 DUP3 ADD SWAP1 POP DUP2 DUP2 SUB PUSH1 0x0 DUP4 ADD MSTORE PUSH2 0x3446 DUP2 DUP5 PUSH2 0x33CE JUMP JUMPDEST SWAP1 POP SWAP3 SWAP2 POP POP JUMP JUMPDEST PUSH1 0x0 DUP2 SWAP1 POP SWAP2 SWAP1 POP JUMP JUMPDEST PUSH2 0x3461 DUP2 PUSH2 0x344E JUMP JUMPDEST DUP2 EQ PUSH2 0x346C JUMPI PUSH1 0x0 DUP1 REVERT JUMPDEST POP JUMP JUMPDEST PUSH1 0x0 DUP2 CALLDATALOAD SWAP1 POP PUSH2 0x347E DUP2 PUSH2 0x3458 JUMP JUMPDEST SWAP3 SWAP2 POP POP JUMP JUMPDEST PUSH1 0x0 PUSH1 0x20 DUP3 DUP5 SUB SLT ISZERO PUSH2 0x349A JUMPI PUSH2 0x3499 PUSH2 0x31C7 JUMP JUMPDEST JUMPDEST PUSH1 0x0 PUSH2 0x34A8 DUP5 DUP3 DUP6 ADD PUSH2 0x346F JUMP JUMPDEST SWAP2 POP POP SWAP3 SWAP2 POP POP JUMP JUMPDEST PUSH2 0x34BA DUP2 PUSH2 0x344E JUMP JUMPDEST DUP3 MSTORE POP POP JUMP JUMPDEST PUSH1 0x0 PUSH1 0x20 DUP3 ADD SWAP1 POP PUSH2 0x34D5 PUSH1 0x0 DUP4 ADD DUP5 PUSH2 0x34B1 JUMP JUMPDEST SWAP3 SWAP2 POP POP JUMP JUMPDEST PUSH1 0x0 PUSH1 0x20 DUP3 DUP5 SUB SLT ISZERO PUSH2 0x34F1 JUMPI PUSH2 0x34F0 PUSH2 0x31C7 JUMP JUMPDEST JUMPDEST PUSH1 0x0 PUSH2 0x34FF DUP5 DUP3 DUP6 ADD PUSH2 0x3306 JUMP JUMPDEST SWAP2 POP POP SWAP3 SWAP2 POP POP JUMP JUMPDEST PUSH1 0x0 DUP1 PUSH1 0x40 DUP4 DUP6 SUB SLT ISZERO PUSH2 0x351F JUMPI PUSH2 0x351E PUSH2 0x31C7 JUMP JUMPDEST JUMPDEST PUSH1 0x0 PUSH2 0x352D DUP6 DUP3 DUP7 ADD PUSH2 0x346F JUMP JUMPDEST SWAP3 POP POP PUSH1 0x20 PUSH2 0x353E DUP6 DUP3 DUP7 ADD PUSH2 0x32D0 JUMP JUMPDEST SWAP2 POP POP SWAP3 POP SWAP3 SWAP1 POP JUMP JUMPDEST PUSH1 0x0 PUSH1 0x20 DUP3 DUP5 SUB SLT ISZERO PUSH2 0x355E JUMPI PUSH2 0x355D PUSH2 0x31C7 JUMP JUMPDEST JUMPDEST PUSH1 0x0 PUSH2 0x356C DUP5 DUP3 DUP6 ADD PUSH2 0x32D0 JUMP JUMPDEST SWAP2 POP POP SWAP3 SWAP2 POP POP JUMP JUMPDEST PUSH2 0x357E DUP2 PUSH2 0x32E5 JUMP JUMPDEST DUP3 MSTORE POP POP JUMP JUMPDEST PUSH1 0x0 PUSH1 0x20 DUP3 ADD SWAP1 POP PUSH2 0x3599 PUSH1 0x0 DUP4 ADD DUP5 PUSH2 0x3575 JUMP JUMPDEST SWAP3 SWAP2 POP POP JUMP JUMPDEST PUSH1 0x0 DUP1 PUSH1 0x40 DUP4 DUP6 SUB SLT ISZERO PUSH2 0x35B6 JUMPI PUSH2 0x35B5 PUSH2 0x31C7 JUMP JUMPDEST JUMPDEST PUSH1 0x0 PUSH2 0x35C4 DUP6 DUP3 DUP7 ADD PUSH2 0x32D0 JUMP JUMPDEST SWAP3 POP POP PUSH1 0x20 PUSH2 0x35D5 DUP6 DUP3 DUP7 ADD PUSH2 0x3306 JUMP JUMPDEST SWAP2 POP POP SWAP3 POP SWAP3 SWAP1 POP JUMP JUMPDEST PUSH1 0x0 PUSH1 0xFF DUP3 AND SWAP1 POP SWAP2 SWAP1 POP JUMP JUMPDEST PUSH2 0x35F5 DUP2 PUSH2 0x35DF JUMP JUMPDEST DUP2 EQ PUSH2 0x3600 JUMPI PUSH1 0x0 DUP1 REVERT JUMPDEST POP JUMP JUMPDEST PUSH1 0x0 DUP2 CALLDATALOAD SWAP1 POP PUSH2 0x3612 DUP2 PUSH2 0x35EC JUMP JUMPDEST SWAP3 SWAP2 POP POP JUMP JUMPDEST PUSH2 0x3621 DUP2 PUSH2 0x3251 JUMP JUMPDEST DUP2 EQ PUSH2 0x362C JUMPI PUSH1 0x0 DUP1 REVERT JUMPDEST POP JUMP JUMPDEST PUSH1 0x0 DUP2 CALLDATALOAD SWAP1 POP PUSH2 0x363E DUP2 PUSH2 0x3618 JUMP JUMPDEST SWAP3 SWAP2 POP POP JUMP JUMPDEST PUSH1 0x0 DUP1 PUSH1 0x0 DUP1 PUSH1 0x0 DUP1 PUSH1 0x0 PUSH1 0xE0 DUP9 DUP11 SUB SLT ISZERO PUSH2 0x3663 JUMPI PUSH2 0x3662 PUSH2 0x31C7 JUMP JUMPDEST JUMPDEST PUSH1 0x0 PUSH2 0x3671 DUP11 DUP3 DUP12 ADD PUSH2 0x3306 JUMP JUMPDEST SWAP8 POP POP PUSH1 0x20 PUSH2 0x3682 DUP11 DUP3 DUP12 ADD PUSH2 0x3306 JUMP JUMPDEST SWAP7 POP POP PUSH1 0x40 PUSH2 0x3693 DUP11 DUP3 DUP12 ADD PUSH2 0x3306 JUMP JUMPDEST SWAP6 POP POP PUSH1 0x60 PUSH2 0x36A4 DUP11 DUP3 DUP12 ADD PUSH2 0x3603 JUMP JUMPDEST SWAP5 POP POP PUSH1 0x80 PUSH2 0x36B5 DUP11 DUP3 DUP12 ADD PUSH2 0x346F JUMP JUMPDEST SWAP4 POP POP PUSH1 0xA0 PUSH2 0x36C6 DUP11 DUP3 DUP12 ADD PUSH2 0x346F JUMP JUMPDEST SWAP3 POP POP PUSH1 0xC0 PUSH2 0x36D7 DUP11 DUP3 DUP12 ADD PUSH2 0x362F JUMP JUMPDEST SWAP2 POP POP SWAP3 SWAP6 SWAP9 SWAP2 SWAP5 SWAP8 POP SWAP3 SWAP6 POP JUMP JUMPDEST PUSH1 0x0 DUP1 PUSH1 0x0 DUP1 PUSH1 0x0 DUP1 PUSH1 0xC0 DUP8 DUP10 SUB SLT ISZERO PUSH2 0x3703 JUMPI PUSH2 0x3702 PUSH2 0x31C7 JUMP JUMPDEST JUMPDEST PUSH1 0x0 PUSH2 0x3711 DUP10 DUP3 DUP11 ADD PUSH2 0x3306 JUMP JUMPDEST SWAP7 POP POP PUSH1 0x20 PUSH2 0x3722 DUP10 DUP3 DUP11 ADD PUSH2 0x3306 JUMP JUMPDEST SWAP6 POP POP PUSH1 0x40 PUSH2 0x3733 DUP10 DUP3 DUP11 ADD PUSH2 0x3306 JUMP JUMPDEST SWAP5 POP POP PUSH1 0x60 PUSH2 0x3744 DUP10 DUP3 DUP11 ADD PUSH2 0x3603 JUMP JUMPDEST SWAP4 POP POP PUSH1 0x80 PUSH2 0x3755 DUP10 DUP3 DUP11 ADD PUSH2 0x346F JUMP JUMPDEST SWAP3 POP POP PUSH1 0xA0 PUSH2 0x3766 DUP10 DUP3 DUP11 ADD PUSH2 0x346F JUMP JUMPDEST SWAP2 POP POP SWAP3 SWAP6 POP SWAP3 SWAP6 POP SWAP3 SWAP6 JUMP JUMPDEST PUSH1 0x0 DUP1 PUSH1 0x0 DUP1 PUSH1 0x0 DUP1 PUSH1 0xC0 DUP8 DUP10 SUB SLT ISZERO PUSH2 0x3790 JUMPI PUSH2 0x378F PUSH2 0x31C7 JUMP JUMPDEST JUMPDEST PUSH1 0x0 PUSH2 0x379E DUP10 DUP3 DUP11 ADD PUSH2 0x32D0 JUMP JUMPDEST SWAP7 POP POP PUSH1 0x20 PUSH2 0x37AF DUP10 DUP3 DUP11 ADD PUSH2 0x32D0 JUMP JUMPDEST SWAP6 POP POP PUSH1 0x40 PUSH2 0x37C0 DUP10 DUP3 DUP11 ADD PUSH2 0x32D0 JUMP JUMPDEST SWAP5 POP POP PUSH1 0x60 PUSH2 0x37D1 DUP10 DUP3 DUP11 ADD PUSH2 0x3306 JUMP JUMPDEST SWAP4 POP POP PUSH1 0x80 PUSH2 0x37E2 DUP10 DUP3 DUP11 ADD PUSH2 0x3306 JUMP JUMPDEST SWAP3 POP POP PUSH1 0xA0 PUSH2 0x37F3 DUP10 DUP3 DUP11 ADD PUSH2 0x3306 JUMP JUMPDEST SWAP2 POP POP SWAP3 SWAP6 POP SWAP3 SWAP6 POP SWAP3 SWAP6 JUMP JUMPDEST PUSH1 0x0 PUSH1 0xC0 DUP3 ADD SWAP1 POP PUSH2 0x3815 PUSH1 0x0 DUP4 ADD DUP10 PUSH2 0x3575 JUMP JUMPDEST PUSH2 0x3822 PUSH1 0x20 DUP4 ADD DUP9 PUSH2 0x3575 JUMP JUMPDEST PUSH2 0x382F PUSH1 0x40 DUP4 ADD DUP8 PUSH2 0x3575 JUMP JUMPDEST PUSH2 0x383C PUSH1 0x60 DUP4 ADD DUP7 PUSH2 0x3575 JUMP JUMPDEST PUSH2 0x3849 PUSH1 0x80 DUP4 ADD DUP6 PUSH2 0x3575 JUMP JUMPDEST PUSH2 0x3856 PUSH1 0xA0 DUP4 ADD DUP5 PUSH2 0x325D JUMP JUMPDEST SWAP8 SWAP7 POP POP POP POP POP POP POP JUMP JUMPDEST PUSH1 0x0 PUSH1 0x40 DUP3 ADD SWAP1 POP PUSH2 0x3876 PUSH1 0x0 DUP4 ADD DUP6 PUSH2 0x3575 JUMP JUMPDEST PUSH2 0x3883 PUSH1 0x20 DUP4 ADD DUP5 PUSH2 0x3575 JUMP JUMPDEST SWAP4 SWAP3 POP POP POP JUMP JUMPDEST PUSH32 0x4E487B7100000000000000000000000000000000000000000000000000000000 PUSH1 0x0 MSTORE PUSH1 0x11 PUSH1 0x4 MSTORE PUSH1 0x24 PUSH1 0x0 REVERT JUMPDEST PUSH1 0x0 PUSH2 0x38C4 DUP3 PUSH2 0x32E5 JUMP JUMPDEST SWAP2 POP PUSH32 0xFFFFFFFFFFFFFFFFFFFFFFFFFFFFFFFFFFFFFFFFFFFFFFFFFFFFFFFFFFFFFFFF DUP3 SUB PUSH2 0x38F6 JUMPI PUSH2 0x38F5 PUSH2 0x388A JUMP JUMPDEST JUMPDEST PUSH1 0x1 DUP3 ADD SWAP1 POP SWAP2 SWAP1 POP JUMP JUMPDEST PUSH32 0x4E487B7100000000000000000000000000000000000000000000000000000000 PUSH1 0x0 MSTORE PUSH1 0x41 PUSH1 0x4 MSTORE PUSH1 0x24 PUSH1 0x0 REVERT JUMPDEST PUSH32 0x4E487B7100000000000000000000000000000000000000000000000000000000 PUSH1 0x0 MSTORE PUSH1 0x32 PUSH1 0x4 MSTORE PUSH1 0x24 PUSH1 0x0 REVERT JUMPDEST PUSH1 0x0 DUP3 DUP3 MSTORE PUSH1 0x20 DUP3 ADD SWAP1 POP SWAP3 SWAP2 POP POP JUMP JUMPDEST PUSH32 0x4D75737420686176652061646D696E20726F6C6520746F20706572666F726D20 PUSH1 0x0 DUP3 ADD MSTORE PUSH32 0x7468697320616374696F6E2E0000000000000000000000000000000000000000 PUSH1 0x20 DUP3 ADD MSTORE POP JUMP JUMPDEST PUSH1 0x0 PUSH2 0x39CC PUSH1 0x2C DUP4 PUSH2 0x395F JUMP JUMPDEST SWAP2 POP PUSH2 0x39D7 DUP3 PUSH2 0x3970 JUMP JUMPDEST PUSH1 0x40 DUP3 ADD SWAP1 POP SWAP2 SWAP1 POP JUMP JUMPDEST PUSH1 0x0 PUSH1 0x20 DUP3 ADD SWAP1 POP DUP2 DUP2 SUB PUSH1 0x0 DUP4 ADD MSTORE PUSH2 0x39FB DUP2 PUSH2 0x39BF JUMP JUMPDEST SWAP1 POP SWAP2 SWAP1 POP JUMP JUMPDEST PUSH1 0x0 PUSH2 0x3A0D DUP3 PUSH2 0x32E5 JUMP JUMPDEST SWAP2 POP PUSH2 0x3A18 DUP4 PUSH2 0x32E5 JUMP JUMPDEST SWAP3 POP DUP2 PUSH32 0xFFFFFFFFFFFFFFFFFFFFFFFFFFFFFFFFFFFFFFFFFFFFFFFFFFFFFFFFFFFFFFFF DIV DUP4 GT DUP3 ISZERO ISZERO AND ISZERO PUSH2 0x3A51 JUMPI PUSH2 0x3A50 PUSH2 0x388A JUMP JUMPDEST JUMPDEST DUP3 DUP3 MUL SWAP1 POP SWAP3 SWAP2 POP POP JUMP JUMPDEST PUSH32 0x416363657373436F6E74726F6C3A2063616E206F6E6C792072656E6F756E6365 PUSH1 0x0 DUP3 ADD MSTORE PUSH32 0x20726F6C657320666F722073656C660000000000000000000000000000000000 PUSH1 0x20 DUP3 ADD MSTORE POP JUMP JUMPDEST PUSH1 0x0 PUSH2 0x3AB8 PUSH1 0x2F DUP4 PUSH2 0x395F JUMP JUMPDEST SWAP2 POP PUSH2 0x3AC3 DUP3 PUSH2 0x3A5C JUMP JUMPDEST PUSH1 0x40 DUP3 ADD SWAP1 POP SWAP2 SWAP1 POP JUMP JUMPDEST PUSH1 0x0 PUSH1 0x20 DUP3 ADD SWAP1 POP DUP2 DUP2 SUB PUSH1 0x0 DUP4 ADD MSTORE PUSH2 0x3AE7 DUP2 PUSH2 0x3AAB JUMP JUMPDEST SWAP1 POP SWAP2 SWAP1 POP JUMP JUMPDEST PUSH1 0x0 DUP2 MLOAD SWAP1 POP PUSH2 0x3AFD DUP2 PUSH2 0x32EF JUMP JUMPDEST SWAP3 SWAP2 POP POP JUMP JUMPDEST PUSH1 0x0 PUSH1 0x20 DUP3 DUP5 SUB SLT ISZERO PUSH2 0x3B19 JUMPI PUSH2 0x3B18 PUSH2 0x31C7 JUMP JUMPDEST JUMPDEST PUSH1 0x0 PUSH2 0x3B27 DUP5 DUP3 DUP6 ADD PUSH2 0x3AEE JUMP JUMPDEST SWAP2 POP POP SWAP3 SWAP2 POP POP JUMP JUMPDEST PUSH1 0x0 PUSH2 0x3B3B DUP3 PUSH2 0x32E5 JUMP JUMPDEST SWAP2 POP PUSH2 0x3B46 DUP4 PUSH2 0x32E5 JUMP JUMPDEST SWAP3 POP DUP3 DUP3 SUB SWAP1 POP DUP2 DUP2 GT ISZERO PUSH2 0x3B5E JUMPI PUSH2 0x3B5D PUSH2 0x388A JUMP JUMPDEST JUMPDEST SWAP3 SWAP2 POP POP JUMP JUMPDEST PUSH1 0x0 PUSH2 0x3B6F DUP3 PUSH2 0x32E5 JUMP JUMPDEST SWAP2 POP PUSH2 0x3B7A DUP4 PUSH2 0x32E5 JUMP JUMPDEST SWAP3 POP DUP3 DUP3 ADD SWAP1 POP DUP1 DUP3 GT ISZERO PUSH2 0x3B92 JUMPI PUSH2 0x3B91 PUSH2 0x388A JUMP JUMPDEST JUMPDEST SWAP3 SWAP2 POP POP JUMP JUMPDEST PUSH32 0x496E697469616C697A61626C653A20636F6E7472616374206973206E6F742069 PUSH1 0x0 DUP3 ADD MSTORE PUSH32 0x6E697469616C697A696E67000000000000000000000000000000000000000000 PUSH1 0x20 DUP3 ADD MSTORE POP JUMP JUMPDEST PUSH1 0x0 PUSH2 0x3BF4 PUSH1 0x2B DUP4 PUSH2 0x395F JUMP JUMPDEST SWAP2 POP PUSH2 0x3BFF DUP3 PUSH2 0x3B98 JUMP JUMPDEST PUSH1 0x40 DUP3 ADD SWAP1 POP SWAP2 SWAP1 POP JUMP JUMPDEST PUSH1 0x0 PUSH1 0x20 DUP3 ADD SWAP1 POP DUP2 DUP2 SUB PUSH1 0x0 DUP4 ADD MSTORE PUSH2 0x3C23 DUP2 PUSH2 0x3BE7 JUMP JUMPDEST SWAP1 POP SWAP2 SWAP1 POP JUMP JUMPDEST PUSH32 0x496E697469616C697A61626C653A20636F6E747261637420697320616C726561 PUSH1 0x0 DUP3 ADD MSTORE PUSH32 0x647920696E697469616C697A6564000000000000000000000000000000000000 PUSH1 0x20 DUP3 ADD MSTORE POP JUMP JUMPDEST PUSH1 0x0 PUSH2 0x3C86 PUSH1 0x2E DUP4 PUSH2 0x395F JUMP JUMPDEST SWAP2 POP PUSH2 0x3C91 DUP3 PUSH2 0x3C2A JUMP JUMPDEST PUSH1 0x40 DUP3 ADD SWAP1 POP SWAP2 SWAP1 POP JUMP JUMPDEST PUSH1 0x0 PUSH1 0x20 DUP3 ADD SWAP1 POP DUP2 DUP2 SUB PUSH1 0x0 DUP4 ADD MSTORE PUSH2 0x3CB5 DUP2 PUSH2 0x3C79 JUMP JUMPDEST SWAP1 POP SWAP2 SWAP1 POP JUMP JUMPDEST PUSH1 0x0 DUP2 SWAP1 POP SWAP2 SWAP1 POP JUMP JUMPDEST PUSH1 0x0 DUP2 SWAP1 POP SWAP2 SWAP1 POP JUMP JUMPDEST PUSH1 0x0 PUSH2 0x3CEB PUSH2 0x3CE6 PUSH2 0x3CE1 DUP5 PUSH2 0x3CBC JUMP JUMPDEST PUSH2 0x3CC6 JUMP JUMPDEST PUSH2 0x35DF JUMP JUMPDEST SWAP1 POP SWAP2 SWAP1 POP JUMP JUMPDEST PUSH2 0x3CFB DUP2 PUSH2 0x3CD0 JUMP JUMPDEST DUP3 MSTORE POP POP JUMP JUMPDEST PUSH1 0x0 PUSH1 0x20 DUP3 ADD SWAP1 POP PUSH2 0x3D16 PUSH1 0x0 DUP4 ADD DUP5 PUSH2 0x3CF2 JUMP JUMPDEST SWAP3 SWAP2 POP POP JUMP JUMPDEST PUSH2 0x3D25 DUP2 PUSH2 0x32A7 JUMP JUMPDEST DUP3 MSTORE POP POP JUMP JUMPDEST PUSH1 0x0 PUSH1 0x20 DUP3 ADD SWAP1 POP PUSH2 0x3D40 PUSH1 0x0 DUP4 ADD DUP5 PUSH2 0x3D1C JUMP JUMPDEST SWAP3 SWAP2 POP POP JUMP JUMPDEST PUSH32 0x5265656E7472616E637947756172643A207265656E7472616E742063616C6C00 PUSH1 0x0 DUP3 ADD MSTORE POP JUMP JUMPDEST PUSH1 0x0 PUSH2 0x3D7C PUSH1 0x1F DUP4 PUSH2 0x395F JUMP JUMPDEST SWAP2 POP PUSH2 0x3D87 DUP3 PUSH2 0x3D46 JUMP JUMPDEST PUSH1 0x20 DUP3 ADD SWAP1 POP SWAP2 SWAP1 POP JUMP JUMPDEST PUSH1 0x0 PUSH1 0x20 DUP3 ADD SWAP1 POP DUP2 DUP2 SUB PUSH1 0x0 DUP4 ADD MSTORE PUSH2 0x3DAB DUP2 PUSH2 0x3D6F JUMP JUMPDEST SWAP1 POP SWAP2 SWAP1 POP JUMP JUMPDEST PUSH1 0x0 PUSH1 0x80 DUP3 ADD SWAP1 POP PUSH2 0x3DC7 PUSH1 0x0 DUP4 ADD DUP8 PUSH2 0x3575 JUMP JUMPDEST PUSH2 0x3DD4 PUSH1 0x20 DUP4 ADD DUP7 PUSH2 0x3575 JUMP JUMPDEST PUSH2 0x3DE1 PUSH1 0x40 DUP4 ADD DUP6 PUSH2 0x3575 JUMP JUMPDEST PUSH2 0x3DEE PUSH1 0x60 DUP4 ADD DUP5 PUSH2 0x3575 JUMP JUMPDEST SWAP6 SWAP5 POP POP POP POP POP JUMP JUMPDEST PUSH1 0x0 DUP2 MLOAD SWAP1 POP PUSH2 0x3E06 DUP2 PUSH2 0x3618 JUMP JUMPDEST SWAP3 SWAP2 POP POP JUMP JUMPDEST PUSH1 0x0 PUSH1 0x20 DUP3 DUP5 SUB SLT ISZERO PUSH2 0x3E22 JUMPI PUSH2 0x3E21 PUSH2 0x31C7 JUMP JUMPDEST JUMPDEST PUSH1 0x0 PUSH2 0x3E30 DUP5 DUP3 DUP6 ADD PUSH2 0x3DF7 JUMP JUMPDEST SWAP2 POP POP SWAP3 SWAP2 POP POP JUMP JUMPDEST PUSH1 0x0 PUSH1 0x40 DUP3 ADD SWAP1 POP PUSH2 0x3E4E PUSH1 0x0 DUP4 ADD DUP6 PUSH2 0x3D1C JUMP JUMPDEST PUSH2 0x3E5B PUSH1 0x20 DUP4 ADD DUP5 PUSH2 0x3575 JUMP JUMPDEST SWAP4 SWAP3 POP POP POP JUMP JUMPDEST PUSH1 0x0 DUP2 SWAP1 POP SWAP3 SWAP2 POP POP JUMP JUMPDEST PUSH32 0x416363657373436F6E74726F6C3A206163636F756E7420000000000000000000 PUSH1 0x0 DUP3 ADD MSTORE POP JUMP JUMPDEST PUSH1 0x0 PUSH2 0x3EA3 PUSH1 0x17 DUP4 PUSH2 0x3E62 JUMP JUMPDEST SWAP2 POP PUSH2 0x3EAE DUP3 PUSH2 0x3E6D JUMP JUMPDEST PUSH1 0x17 DUP3 ADD SWAP1 POP SWAP2 SWAP1 POP JUMP JUMPDEST PUSH1 0x0 DUP2 MLOAD SWAP1 POP SWAP2 SWAP1 POP JUMP JUMPDEST PUSH1 0x0 JUMPDEST DUP4 DUP2 LT ISZERO PUSH2 0x3EE2 JUMPI DUP1 DUP3 ADD MLOAD DUP2 DUP5 ADD MSTORE PUSH1 0x20 DUP2 ADD SWAP1 POP PUSH2 0x3EC7 JUMP JUMPDEST PUSH1 0x0 DUP5 DUP5 ADD MSTORE POP POP POP POP JUMP JUMPDEST PUSH1 0x0 PUSH2 0x3EF9 DUP3 PUSH2 0x3EB9 JUMP JUMPDEST PUSH2 0x3F03 DUP2 DUP6 PUSH2 0x3E62 JUMP JUMPDEST SWAP4 POP PUSH2 0x3F13 DUP2 DUP6 PUSH1 0x20 DUP7 ADD PUSH2 0x3EC4 JUMP JUMPDEST DUP1 DUP5 ADD SWAP2 POP POP SWAP3 SWAP2 POP POP JUMP JUMPDEST PUSH32 0x206973206D697373696E6720726F6C6520000000000000000000000000000000 PUSH1 0x0 DUP3 ADD MSTORE POP JUMP JUMPDEST PUSH1 0x0 PUSH2 0x3F55 PUSH1 0x11 DUP4 PUSH2 0x3E62 JUMP JUMPDEST SWAP2 POP PUSH2 0x3F60 DUP3 PUSH2 0x3F1F JUMP JUMPDEST PUSH1 0x11 DUP3 ADD SWAP1 POP SWAP2 SWAP1 POP JUMP JUMPDEST PUSH1 0x0 PUSH2 0x3F76 DUP3 PUSH2 0x3E96 JUMP JUMPDEST SWAP2 POP PUSH2 0x3F82 DUP3 DUP6 PUSH2 0x3EEE JUMP JUMPDEST SWAP2 POP PUSH2 0x3F8D DUP3 PUSH2 0x3F48 JUMP JUMPDEST SWAP2 POP PUSH2 0x3F99 DUP3 DUP5 PUSH2 0x3EEE JUMP JUMPDEST SWAP2 POP DUP2 SWAP1 POP SWAP4 SWAP3 POP POP POP JUMP JUMPDEST PUSH1 0x0 PUSH1 0x1F NOT PUSH1 0x1F DUP4 ADD AND SWAP1 POP SWAP2 SWAP1 POP JUMP JUMPDEST PUSH1 0x0 PUSH2 0x3FC1 DUP3 PUSH2 0x3EB9 JUMP JUMPDEST PUSH2 0x3FCB DUP2 DUP6 PUSH2 0x395F JUMP JUMPDEST SWAP4 POP PUSH2 0x3FDB DUP2 DUP6 PUSH1 0x20 DUP7 ADD PUSH2 0x3EC4 JUMP JUMPDEST PUSH2 0x3FE4 DUP2 PUSH2 0x3FA5 JUMP JUMPDEST DUP5 ADD SWAP2 POP POP SWAP3 SWAP2 POP POP JUMP JUMPDEST PUSH1 0x0 PUSH1 0x20 DUP3 ADD SWAP1 POP DUP2 DUP2 SUB PUSH1 0x0 DUP4 ADD MSTORE PUSH2 0x4009 DUP2 DUP5 PUSH2 0x3FB6 JUMP JUMPDEST SWAP1 POP SWAP3 SWAP2 POP POP JUMP JUMPDEST PUSH32 0x5061757361626C653A206E6F7420706175736564000000000000000000000000 PUSH1 0x0 DUP3 ADD MSTORE POP JUMP JUMPDEST PUSH1 0x0 PUSH2 0x4047 PUSH1 0x14 DUP4 PUSH2 0x395F JUMP JUMPDEST SWAP2 POP PUSH2 0x4052 DUP3 PUSH2 0x4011 JUMP JUMPDEST PUSH1 0x20 DUP3 ADD SWAP1 POP SWAP2 SWAP1 POP JUMP JUMPDEST PUSH1 0x0 PUSH1 0x20 DUP3 ADD SWAP1 POP DUP2 DUP2 SUB PUSH1 0x0 DUP4 ADD MSTORE PUSH2 0x4076 DUP2 PUSH2 0x403A JUMP JUMPDEST SWAP1 POP SWAP2 SWAP1 POP JUMP JUMPDEST PUSH1 0x0 PUSH1 0x60 DUP3 ADD SWAP1 POP PUSH2 0x4092 PUSH1 0x0 DUP4 ADD DUP7 PUSH2 0x3575 JUMP JUMPDEST PUSH2 0x409F PUSH1 0x20 DUP4 ADD DUP6 PUSH2 0x3575 JUMP JUMPDEST PUSH2 0x40AC PUSH1 0x40 DUP4 ADD DUP5 PUSH2 0x3575 JUMP JUMPDEST SWAP5 SWAP4 POP POP POP POP JUMP JUMPDEST PUSH32 0x4E487B7100000000000000000000000000000000000000000000000000000000 PUSH1 0x0 MSTORE PUSH1 0x12 PUSH1 0x4 MSTORE PUSH1 0x24 PUSH1 0x0 REVERT JUMPDEST PUSH1 0x0 PUSH2 0x40EE DUP3 PUSH2 0x32E5 JUMP JUMPDEST SWAP2 POP PUSH2 0x40F9 DUP4 PUSH2 0x32E5 JUMP JUMPDEST SWAP3 POP DUP3 PUSH2 0x4109 JUMPI PUSH2 0x4108 PUSH2 0x40B4 JUMP JUMPDEST JUMPDEST DUP3 DUP3 DIV SWAP1 POP SWAP3 SWAP2 POP POP JUMP JUMPDEST PUSH2 0x411D DUP2 PUSH2 0x35DF JUMP JUMPDEST DUP3 MSTORE POP POP JUMP JUMPDEST PUSH1 0x0 PUSH1 0xE0 DUP3 ADD SWAP1 POP PUSH2 0x4138 PUSH1 0x0 DUP4 ADD DUP11 PUSH2 0x3D1C JUMP JUMPDEST PUSH2 0x4145 PUSH1 0x20 DUP4 ADD DUP10 PUSH2 0x3D1C JUMP JUMPDEST PUSH2 0x4152 PUSH1 0x40 DUP4 ADD DUP9 PUSH2 0x3575 JUMP JUMPDEST PUSH2 0x415F PUSH1 0x60 DUP4 ADD DUP8 PUSH2 0x3575 JUMP JUMPDEST PUSH2 0x416C PUSH1 0x80 DUP4 ADD DUP7 PUSH2 0x4114 JUMP JUMPDEST PUSH2 0x4179 PUSH1 0xA0 DUP4 ADD DUP6 PUSH2 0x34B1 JUMP JUMPDEST PUSH2 0x4186 PUSH1 0xC0 DUP4 ADD DUP5 PUSH2 0x34B1 JUMP JUMPDEST SWAP9 SWAP8 POP POP POP POP POP POP POP POP JUMP JUMPDEST PUSH32 0x5361666545524332303A207065726D697420646964206E6F7420737563636565 PUSH1 0x0 DUP3 ADD MSTORE PUSH32 0x6400000000000000000000000000000000000000000000000000000000000000 PUSH1 0x20 DUP3 ADD MSTORE POP JUMP JUMPDEST PUSH1 0x0 PUSH2 0x41EE PUSH1 0x21 DUP4 PUSH2 0x395F JUMP JUMPDEST SWAP2 POP PUSH2 0x41F9 DUP3 PUSH2 0x4192 JUMP JUMPDEST PUSH1 0x40 DUP3 ADD SWAP1 POP SWAP2 SWAP1 POP JUMP JUMPDEST PUSH1 0x0 PUSH1 0x20 DUP3 ADD SWAP1 POP DUP2 DUP2 SUB PUSH1 0x0 DUP4 ADD MSTORE PUSH2 0x421D DUP2 PUSH2 0x41E1 JUMP JUMPDEST SWAP1 POP SWAP2 SWAP1 POP JUMP JUMPDEST PUSH32 0x5061757361626C653A2070617573656400000000000000000000000000000000 PUSH1 0x0 DUP3 ADD MSTORE POP JUMP JUMPDEST PUSH1 0x0 PUSH2 0x425A PUSH1 0x10 DUP4 PUSH2 0x395F JUMP JUMPDEST SWAP2 POP PUSH2 0x4265 DUP3 PUSH2 0x4224 JUMP JUMPDEST PUSH1 0x20 DUP3 ADD SWAP1 POP SWAP2 SWAP1 POP JUMP JUMPDEST PUSH1 0x0 PUSH1 0x20 DUP3 ADD SWAP1 POP DUP2 DUP2 SUB PUSH1 0x0 DUP4 ADD MSTORE PUSH2 0x4289 DUP2 PUSH2 0x424D JUMP JUMPDEST SWAP1 POP SWAP2 SWAP1 POP JUMP JUMPDEST PUSH1 0x0 PUSH2 0x429B DUP3 PUSH2 0x32E5 JUMP JUMPDEST SWAP2 POP PUSH1 0x0 DUP3 SUB PUSH2 0x42AE JUMPI PUSH2 0x42AD PUSH2 0x388A JUMP JUMPDEST JUMPDEST PUSH1 0x1 DUP3 SUB SWAP1 POP SWAP2 SWAP1 POP JUMP JUMPDEST PUSH32 0x537472696E67733A20686578206C656E67746820696E73756666696369656E74 PUSH1 0x0 DUP3 ADD MSTORE POP JUMP JUMPDEST PUSH1 0x0 PUSH2 0x42EF PUSH1 0x20 DUP4 PUSH2 0x395F JUMP JUMPDEST SWAP2 POP PUSH2 0x42FA DUP3 PUSH2 0x42B9 JUMP JUMPDEST PUSH1 0x20 DUP3 ADD SWAP1 POP SWAP2 SWAP1 POP JUMP JUMPDEST PUSH1 0x0 PUSH1 0x20 DUP3 ADD SWAP1 POP DUP2 DUP2 SUB PUSH1 0x0 DUP4 ADD MSTORE PUSH2 0x431E DUP2 PUSH2 0x42E2 JUMP JUMPDEST SWAP1 POP SWAP2 SWAP1 POP JUMP INVALID LOG2 PUSH5 0x6970667358 0x22 SLT KECCAK256 0x27 PUSH21 0xC3A7975A94A92BF13FA5D1A07228ABF4B52DF9BBCA 0xF8 DUP1 MSTORE8 DUP3 0xC8 GAS 0xA7 SLT 0x4F PUSH5 0x736F6C6343 STOP ADDMOD LT STOP CALLER "},"gasEstimates":{"creation":{"codeDepositCost":"3448600","executionCost":"3852","totalCost":"3452452"},"external":{"DEFAULT_ADMIN_ROLE()":"380","__BaseUpgradeablePausable_init(address)":"infinite","addInsuranceAmount(uint256,uint256,uint256,uint8,bytes32,bytes32)":"infinite","calculateTotalFlowMade(address)":"infinite","calculateTotalFlowMade(address,uint256)":"infinite","claimPremium(address,uint256)":"912","claimPremium(address,uint256,uint256)":"infinite","findActivePremiumCost(address,uint256,uint256)":"infinite","getGlobalUserInsuranceInfo(address)":"infinite","getGlobalUserInsurancePremiumCost(address)":"7206","getRoleAdmin(bytes32)":"infinite","getUserInsuranceInfo(address,uint256,uint256)":"infinite","getUserInsuranceStatus(address,uint256,uint256)":"infinite","getUserInsuranceValidTillInfo(address,uint256,uint256)":"infinite","getUserInsuredAmount(address,uint256,uint256)":"infinite","grantRole(bytes32,address)":"infinite","hasRole(bytes32,address)":"3251","initialize(address,address,address,uint256,uint256,uint256)":"infinite","isAdmin()":"2859","minusInsuranceAmount(uint256,uint256,uint256,uint8,bytes32,bytes32,bool)":"infinite","pause()":"infinite","paused()":"2524","renounceRole(bytes32,address)":"infinite","revokeRole(bytes32,address)":"infinite","supportsInterface(bytes4)":"774","unpause()":"infinite","updateMaxInsuredDays(uint256)":"infinite","updateMinimumInsurancePeriod(uint256)":"infinite","updateStartWaitingTime(uint256)":"infinite"},"internal":{"_addInsuranceAmount(uint256,uint256,uint256,uint8,bytes32,bytes32)":"infinite","_calculateTotalFlowMade(address,uint256,uint256[] memory)":"infinite","_minusInsuranceAmount(uint256,uint256,uint256,uint8,bytes32,bytes32,bool)":"infinite","activateInsurance(uint256,uint256,uint256)":"infinite","deactivateCategoryInsurance(address,uint256)":"infinite","deactivateInsurance(address,uint256,uint256)":"infinite"}},"methodIdentifiers":{"DEFAULT_ADMIN_ROLE()":"a217fddf","__BaseUpgradeablePausable_init(address)":"6e810b1a","addInsuranceAmount(uint256,uint256,uint256,uint8,bytes32,bytes32)":"6e8847bd","calculateTotalFlowMade(address)":"cff5eede","calculateTotalFlowMade(address,uint256)":"4e94c048","claimPremium(address,uint256)":"77bd35fc","claimPremium(address,uint256,uint256)":"f099dd50","findActivePremiumCost(address,uint256,uint256)":"1a5c8f28","getGlobalUserInsuranceInfo(address)":"ec249164","getGlobalUserInsurancePremiumCost(address)":"42f6b8a7","getRoleAdmin(bytes32)":"248a9ca3","getUserInsuranceInfo(address,uint256,uint256)":"88295fb2","getUserInsuranceStatus(address,uint256,uint256)":"81280d2b","getUserInsuranceValidTillInfo(address,uint256,uint256)":"c392e850","getUserInsuredAmount(address,uint256,uint256)":"6b6d105e","grantRole(bytes32,address)":"2f2ff15d","hasRole(bytes32,address)":"91d14854","initialize(address,address,address,uint256,uint256,uint256)":"728cdbca","isAdmin()":"b6db75a0","minusInsuranceAmount(uint256,uint256,uint256,uint8,bytes32,bytes32,bool)":"642adc28","pause()":"8456cb59","paused()":"5c975abb","renounceRole(bytes32,address)":"36568abe","revokeRole(bytes32,address)":"d547741f","supportsInterface(bytes4)":"01ffc9a7","unpause()":"3f4ba83a","updateMaxInsuredDays(uint256)":"b4706268","updateMinimumInsurancePeriod(uint256)":"56eb66bb","updateStartWaitingTime(uint256)":"24b7ab24"}},"storageLayout":{"storage":[{"astId":415,"contract":"contracts/core/payAsYouGo/ConstantFlowAgreement.sol:ConstantFlowAgreement","label":"_initialized","offset":0,"slot":"0","type":"t_uint8"},{"astId":418,"contract":"contracts/core/payAsYouGo/ConstantFlowAgreement.sol:ConstantFlowAgreement","label":"_initializing","offset":1,"slot":"0","type":"t_bool"},{"astId":2325,"contract":"contracts/core/payAsYouGo/ConstantFlowAgreement.sol:ConstantFlowAgreement","label":"__gap","offset":0,"slot":"1","type":"t_array(t_uint256)50_storage"},{"astId":598,"contract":"contracts/core/payAsYouGo/ConstantFlowAgreement.sol:ConstantFlowAgreement","label":"_paused","offset":0,"slot":"51","type":"t_bool"},{"astId":703,"contract":"contracts/core/payAsYouGo/ConstantFlowAgreement.sol:ConstantFlowAgreement","label":"__gap","offset":0,"slot":"52","type":"t_array(t_uint256)49_storage"},{"astId":3129,"contract":"contracts/core/payAsYouGo/ConstantFlowAgreement.sol:ConstantFlowAgreement","label":"__gap","offset":0,"slot":"101","type":"t_array(t_uint256)50_storage"},{"astId":39,"contract":"contracts/core/payAsYouGo/ConstantFlowAgreement.sol:ConstantFlowAgreement","label":"_roles","offset":0,"slot":"151","type":"t_mapping(t_bytes32,t_struct(RoleData)34_storage)"},{"astId":334,"contract":"contracts/core/payAsYouGo/ConstantFlowAgreement.sol:ConstantFlowAgreement","label":"__gap","offset":0,"slot":"152","type":"t_array(t_uint256)49_storage"},{"astId":718,"contract":"contracts/core/payAsYouGo/ConstantFlowAgreement.sol:ConstantFlowAgreement","label":"_status","offset":0,"slot":"201","type":"t_uint256"},{"astId":776,"contract":"contracts/core/payAsYouGo/ConstantFlowAgreement.sol:ConstantFlowAgreement","label":"__gap","offset":0,"slot":"202","type":"t_array(t_uint256)49_storage"},{"astId":4153,"contract":"contracts/core/payAsYouGo/ConstantFlowAgreement.sol:ConstantFlowAgreement","label":"_categoriesCount","offset":0,"slot":"251","type":"t_uint256"},{"astId":4155,"contract":"contracts/core/payAsYouGo/ConstantFlowAgreement.sol:ConstantFlowAgreement","label":"_maxInsuredDays","offset":0,"slot":"252","type":"t_uint256"},{"astId":4157,"contract":"contracts/core/payAsYouGo/ConstantFlowAgreement.sol:ConstantFlowAgreement","label":"_startWaitingTime","offset":0,"slot":"253","type":"t_uint256"},{"astId":4159,"contract":"contracts/core/payAsYouGo/ConstantFlowAgreement.sol:ConstantFlowAgreement","label":"_minimumInsurancePeriod","offset":0,"slot":"254","type":"t_uint256"},{"astId":4171,"contract":"contracts/core/payAsYouGo/ConstantFlowAgreement.sol:ConstantFlowAgreement","label":"_tokenDAI","offset":0,"slot":"255","type":"t_contract(IERC20Upgradeable)1467"},{"astId":4174,"contract":"contracts/core/payAsYouGo/ConstantFlowAgreement.sol:ConstantFlowAgreement","label":"_tokenPermitDAI","offset":0,"slot":"256","type":"t_contract(IERC20PermitUpgradeable)1719"},{"astId":4177,"contract":"contracts/core/payAsYouGo/ConstantFlowAgreement.sol:ConstantFlowAgreement","label":"_sztDAI","offset":0,"slot":"257","type":"t_contract(IERC20Extended)6160"},{"astId":4180,"contract":"contracts/core/payAsYouGo/ConstantFlowAgreement.sol:ConstantFlowAgreement","label":"_insuranceRegistry","offset":0,"slot":"258","type":"t_contract(IInsuranceRegistry)6279"},{"astId":4208,"contract":"contracts/core/payAsYouGo/ConstantFlowAgreement.sol:ConstantFlowAgreement","label":"usersGlobalInsuranceInfo","offset":0,"slot":"259","type":"t_mapping(t_address,t_struct(UserGlobalInsuranceInfo)4202_storage)"},{"astId":4218,"contract":"contracts/core/payAsYouGo/ConstantFlowAgreement.sol:ConstantFlowAgreement","label":"usersInsuranceInfo","offset":0,"slot":"260","type":"t_mapping(t_address,t_mapping(t_uint256,t_mapping(t_uint256,t_struct(UserInsuranceInfo)4195_storage)))"}],"types":{"t_address":{"encoding":"inplace","label":"address","numberOfBytes":"20"},"t_array(t_uint256)49_storage":{"base":"t_uint256","encoding":"inplace","label":"uint256[49]","numberOfBytes":"1568"},"t_array(t_uint256)50_storage":{"base":"t_uint256","encoding":"inplace","label":"uint256[50]","numberOfBytes":"1600"},"t_bool":{"encoding":"inplace","label":"bool","numberOfBytes":"1"},"t_bytes32":{"encoding":"inplace","label":"bytes32","numberOfBytes":"32"},"t_contract(IERC20Extended)6160":{"encoding":"inplace","label":"contract IERC20Extended","numberOfBytes":"20"},"t_contract(IERC20PermitUpgradeable)1719":{"encoding":"inplace","label":"contract IERC20PermitUpgradeable","numberOfBytes":"20"},"t_contract(IERC20Upgradeable)1467":{"encoding":"inplace","label":"contract IERC20Upgradeable","numberOfBytes":"20"},"t_contract(IInsuranceRegistry)6279":{"encoding":"inplace","label":"contract IInsuranceRegistry","numberOfBytes":"20"},"t_mapping(t_address,t_bool)":{"encoding":"mapping","key":"t_address","label":"mapping(address => bool)","numberOfBytes":"32","value":"t_bool"},"t_mapping(t_address,t_mapping(t_uint256,t_mapping(t_uint256,t_struct(UserInsuranceInfo)4195_storage)))":{"encoding":"mapping","key":"t_address","label":"mapping(address => mapping(uint256 => mapping(uint256 => struct ConstantFlowAgreement.UserInsuranceInfo)))","numberOfBytes":"32","value":"t_mapping(t_uint256,t_mapping(t_uint256,t_struct(UserInsuranceInfo)4195_storage))"},"t_mapping(t_address,t_struct(UserGlobalInsuranceInfo)4202_storage)":{"encoding":"mapping","key":"t_address","label":"mapping(address => struct ConstantFlowAgreement.UserGlobalInsuranceInfo)","numberOfBytes":"32","value":"t_struct(UserGlobalInsuranceInfo)4202_storage"},"t_mapping(t_bytes32,t_struct(RoleData)34_storage)":{"encoding":"mapping","key":"t_bytes32","label":"mapping(bytes32 => struct AccessControlUpgradeable.RoleData)","numberOfBytes":"32","value":"t_struct(RoleData)34_storage"},"t_mapping(t_uint256,t_mapping(t_uint256,t_struct(UserInsuranceInfo)4195_storage))":{"encoding":"mapping","key":"t_uint256","label":"mapping(uint256 => mapping(uint256 => struct ConstantFlowAgreement.UserInsuranceInfo))","numberOfBytes":"32","value":"t_mapping(t_uint256,t_struct(UserInsuranceInfo)4195_storage)"},"t_mapping(t_uint256,t_struct(UserInsuranceInfo)4195_storage)":{"encoding":"mapping","key":"t_uint256","label":"mapping(uint256 => struct ConstantFlowAgreement.UserInsuranceInfo)","numberOfBytes":"32","value":"t_struct(UserInsuranceInfo)4195_storage"},"t_struct(RoleData)34_storage":{"encoding":"inplace","label":"struct AccessControlUpgradeable.RoleData","members":[{"astId":31,"contract":"contracts/core/payAsYouGo/ConstantFlowAgreement.sol:ConstantFlowAgreement","label":"members","offset":0,"slot":"0","type":"t_mapping(t_address,t_bool)"},{"astId":33,"contract":"contracts/core/payAsYouGo/ConstantFlowAgreement.sol:ConstantFlowAgreement","label":"adminRole","offset":0,"slot":"1","type":"t_bytes32"}],"numberOfBytes":"64"},"t_struct(UserGlobalInsuranceInfo)4202_storage":{"encoding":"inplace","label":"struct ConstantFlowAgreement.UserGlobalInsuranceInfo","members":[{"astId":4197,"contract":"contracts/core/payAsYouGo/ConstantFlowAgreement.sol:ConstantFlowAgreement","label":"validTill","offset":0,"slot":"0","type":"t_uint256"},{"astId":4199,"contract":"contracts/core/payAsYouGo/ConstantFlowAgreement.sol:ConstantFlowAgreement","label":"insuranceStreamRate","offset":0,"slot":"1","type":"t_uint256"},{"astId":4201,"contract":"contracts/core/payAsYouGo/ConstantFlowAgreement.sol:ConstantFlowAgreement","label":"globalInsuranceCost","offset":0,"slot":"2","type":"t_uint256"}],"numberOfBytes":"96"},"t_struct(UserInsuranceInfo)4195_storage":{"encoding":"inplace","label":"struct ConstantFlowAgreement.UserInsuranceInfo","members":[{"astId":4182,"contract":"contracts/core/payAsYouGo/ConstantFlowAgreement.sol:ConstantFlowAgreement","label":"startTime","offset":0,"slot":"0","type":"t_uint256"},{"astId":4184,"contract":"contracts/core/payAsYouGo/ConstantFlowAgreement.sol:ConstantFlowAgreement","label":"validTill","offset":0,"slot":"1","type":"t_uint256"},{"astId":4186,"contract":"contracts/core/payAsYouGo/ConstantFlowAgreement.sol:ConstantFlowAgreement","label":"insuredAmount","offset":0,"slot":"2","type":"t_uint256"},{"astId":4188,"contract":"contracts/core/payAsYouGo/ConstantFlowAgreement.sol:ConstantFlowAgreement","label":"registrationTime","offset":0,"slot":"3","type":"t_uint256"},{"astId":4190,"contract":"contracts/core/payAsYouGo/ConstantFlowAgreement.sol:ConstantFlowAgreement","label":"insuranceFlowRate","offset":0,"slot":"4","type":"t_uint256"},{"astId":4192,"contract":"contracts/core/payAsYouGo/ConstantFlowAgreement.sol:ConstantFlowAgreement","label":"insuranceCost","offset":0,"slot":"5","type":"t_uint256"},{"astId":4194,"contract":"contracts/core/payAsYouGo/ConstantFlowAgreement.sol:ConstantFlowAgreement","label":"isValid","offset":0,"slot":"6","type":"t_bool"}],"numberOfBytes":"224"},"t_uint256":{"encoding":"inplace","label":"uint256","numberOfBytes":"32"},"t_uint8":{"encoding":"inplace","label":"uint8","numberOfBytes":"1"}}},"userdoc":{"kind":"user","methods":{"calculateTotalFlowMade(address)":{"notice":"DURATION"},"calculateTotalFlowMade(address,uint256)":{"notice":"DURATION"},"findActivePremiumCost(address,uint256,uint256)":{"notice":"VIEW FUNCTIONS"}},"notice":"Report any bug or issues at:","version":1}}}}