{"contracts/core/buySell/BuyGENZ.sol":{"BuyGENZ":{"abi":[{"inputs":[{"internalType":"uint256","name":"value","type":"uint256"},{"internalType":"uint256","name":"decimals","type":"uint256"},{"internalType":"address","name":"tokenDAI","type":"address"},{"internalType":"address","name":"tokenGENZ","type":"address"}],"stateMutability":"nonpayable","type":"constructor"},{"inputs":[],"name":"BaseUpgradeablePausable__ZeroAddressError","type":"error"},{"inputs":[],"name":"BuyGENZ__TransactionFailedError","type":"error"},{"inputs":[],"name":"BuySellGENZ__GENZBurnFailedError","type":"error"},{"inputs":[],"name":"BuySellGENZ__GENZMintFailedError","type":"error"},{"inputs":[],"name":"BuySellGENZ__ImmutableChangesError","type":"error"},{"inputs":[],"name":"BuySellGENZ__InsufficientBalanceError","type":"error"},{"inputs":[],"name":"BuySellGENZ__LowAmountError","type":"error"},{"inputs":[],"name":"BuySellGENZ__LowSZTBalanceError","type":"error"},{"inputs":[],"name":"BuySellGENZ__PausedError","type":"error"},{"inputs":[],"name":"BuySellGENZ__TransactionFailedError","type":"error"},{"inputs":[],"name":"BuySellGENZ__ZeroAddressTransactionError","type":"error"},{"anonymous":false,"inputs":[{"indexed":false,"internalType":"uint8","name":"version","type":"uint8"}],"name":"Initialized","type":"event"},{"anonymous":false,"inputs":[{"indexed":false,"internalType":"address","name":"account","type":"address"}],"name":"Paused","type":"event"},{"anonymous":false,"inputs":[{"indexed":true,"internalType":"bytes32","name":"role","type":"bytes32"},{"indexed":true,"internalType":"bytes32","name":"previousAdminRole","type":"bytes32"},{"indexed":true,"internalType":"bytes32","name":"newAdminRole","type":"bytes32"}],"name":"RoleAdminChanged","type":"event"},{"anonymous":false,"inputs":[{"indexed":true,"internalType":"bytes32","name":"role","type":"bytes32"},{"indexed":true,"internalType":"address","name":"account","type":"address"},{"indexed":true,"internalType":"address","name":"sender","type":"address"}],"name":"RoleGranted","type":"event"},{"anonymous":false,"inputs":[{"indexed":true,"internalType":"bytes32","name":"role","type":"bytes32"},{"indexed":true,"internalType":"address","name":"account","type":"address"},{"indexed":true,"internalType":"address","name":"sender","type":"address"}],"name":"RoleRevoked","type":"event"},{"anonymous":false,"inputs":[{"indexed":false,"internalType":"address","name":"account","type":"address"}],"name":"Unpaused","type":"event"},{"inputs":[],"name":"DEFAULT_ADMIN_ROLE","outputs":[{"internalType":"bytes32","name":"","type":"bytes32"}],"stateMutability":"view","type":"function"},{"inputs":[{"internalType":"address","name":"owner","type":"address"}],"name":"__BaseUpgradeablePausable_init","outputs":[],"stateMutability":"nonpayable","type":"function"},{"inputs":[{"internalType":"uint256","name":"value","type":"uint256"},{"internalType":"uint256","name":"deadline","type":"uint256"},{"internalType":"uint8","name":"v","type":"uint8"},{"internalType":"bytes32","name":"r","type":"bytes32"},{"internalType":"bytes32","name":"s","type":"bytes32"}],"name":"buyGENZToken","outputs":[{"internalType":"bool","name":"","type":"bool"}],"stateMutability":"nonpayable","type":"function"},{"inputs":[{"internalType":"uint256","name":"issuedTokensGENZ","type":"uint256"},{"internalType":"uint256","name":"requiredTokens","type":"uint256"}],"name":"calculatePriceGENZ","outputs":[{"internalType":"uint256","name":"","type":"uint256"},{"internalType":"uint256","name":"","type":"uint256"}],"stateMutability":"view","type":"function"},{"inputs":[],"name":"getCurrentTokenPrice","outputs":[{"internalType":"uint256","name":"","type":"uint256"}],"stateMutability":"view","type":"function"},{"inputs":[],"name":"getGENZTokenCount","outputs":[{"internalType":"uint256","name":"","type":"uint256"}],"stateMutability":"view","type":"function"},{"inputs":[{"internalType":"bytes32","name":"role","type":"bytes32"}],"name":"getRoleAdmin","outputs":[{"internalType":"bytes32","name":"","type":"bytes32"}],"stateMutability":"view","type":"function"},{"inputs":[{"internalType":"bytes32","name":"role","type":"bytes32"},{"internalType":"address","name":"account","type":"address"}],"name":"grantRole","outputs":[],"stateMutability":"nonpayable","type":"function"},{"inputs":[{"internalType":"bytes32","name":"role","type":"bytes32"},{"internalType":"address","name":"account","type":"address"}],"name":"hasRole","outputs":[{"internalType":"bool","name":"","type":"bool"}],"stateMutability":"view","type":"function"},{"inputs":[{"internalType":"address","name":"pauseOperationAddress","type":"address"}],"name":"initialize","outputs":[],"stateMutability":"nonpayable","type":"function"},{"inputs":[],"name":"isAdmin","outputs":[{"internalType":"bool","name":"","type":"bool"}],"stateMutability":"view","type":"function"},{"inputs":[],"name":"pause","outputs":[],"stateMutability":"nonpayable","type":"function"},{"inputs":[],"name":"paused","outputs":[{"internalType":"bool","name":"","type":"bool"}],"stateMutability":"view","type":"function"},{"inputs":[{"internalType":"bytes32","name":"role","type":"bytes32"},{"internalType":"address","name":"account","type":"address"}],"name":"renounceRole","outputs":[],"stateMutability":"nonpayable","type":"function"},{"inputs":[{"internalType":"bytes32","name":"role","type":"bytes32"},{"internalType":"address","name":"account","type":"address"}],"name":"revokeRole","outputs":[],"stateMutability":"nonpayable","type":"function"},{"inputs":[{"internalType":"bytes4","name":"interfaceId","type":"bytes4"}],"name":"supportsInterface","outputs":[{"internalType":"bool","name":"","type":"bool"}],"stateMutability":"view","type":"function"},{"inputs":[],"name":"unpause","outputs":[],"stateMutability":"nonpayable","type":"function"},{"inputs":[{"internalType":"uint256","name":"tokenPrice","type":"uint256"}],"name":"updateBaseSalePrice","outputs":[],"stateMutability":"nonpayable","type":"function"},{"inputs":[{"internalType":"uint256","name":"valueInDays","type":"uint256"}],"name":"updateMinimumWithdrawalPeriod","outputs":[],"stateMutability":"nonpayable","type":"function"},{"inputs":[],"name":"withdrawStakedToken","outputs":[],"stateMutability":"nonpayable","type":"function"}],"devdoc":{"custom:security-contact":"anshik@safezen.finance","kind":"dev","methods":{"buyGENZToken(uint256,uint256,uint8,bytes32,bytes32)":{"params":{"value":": amount of SZT tokens user wishes to purchase"}},"constructor":{"custom:oz-upgrades-unsafe-allow-constructor":"","details":"initializing _tokenDAI","params":{"tokenDAI":": address of the DAI token"}},"getGENZTokenCount()":{"details":"returns the token in circulation"},"getRoleAdmin(bytes32)":{"details":"Returns the admin role that controls `role`. See {grantRole} and {revokeRole}. To change a role's admin, use {_setRoleAdmin}."},"grantRole(bytes32,address)":{"details":"Grants `role` to `account`. If `account` had not been already granted `role`, emits a {RoleGranted} event. Requirements: - the caller must have ``role``'s admin role. May emit a {RoleGranted} event."},"hasRole(bytes32,address)":{"details":"Returns `true` if `account` has been granted `role`."},"initialize(address)":{"details":"one time function to initialize the contract","params":{"pauseOperationAddress":": address of the Global Pause Operation contract"}},"paused()":{"details":"Returns true if the contract is paused, and false otherwise."},"renounceRole(bytes32,address)":{"details":"Revokes `role` from the calling account. Roles are often managed via {grantRole} and {revokeRole}: this function's purpose is to provide a mechanism for accounts to lose their privileges if they are compromised (such as when a trusted device is misplaced). If the calling account had been revoked `role`, emits a {RoleRevoked} event. Requirements: - the caller must be `account`. May emit a {RoleRevoked} event."},"revokeRole(bytes32,address)":{"details":"Revokes `role` from `account`. If `account` had been granted `role`, emits a {RoleRevoked} event. Requirements: - the caller must have ``role``'s admin role. May emit a {RoleRevoked} event."},"supportsInterface(bytes4)":{"details":"See {IERC165-supportsInterface}."}},"version":1},"evm":{"bytecode":{"linkReferences":{},"object":"60e06040523480156200001157600080fd5b506040516200347b3803806200347b8339818101604052810190620000379190620001b9565b8173ffffffffffffffffffffffffffffffffffffffff1660808173ffffffffffffffffffffffffffffffffffffffff16815250508073ffffffffffffffffffffffffffffffffffffffff1660a08173ffffffffffffffffffffffffffffffffffffffff16815250508173ffffffffffffffffffffffffffffffffffffffff1660c08173ffffffffffffffffffffffffffffffffffffffff168152505082600a620000e29190620003ae565b670de0b6b3a764000085620000f89190620003ff565b6200010491906200048f565b60fd8190555050505050620004c7565b600080fd5b6000819050919050565b6200012e8162000119565b81146200013a57600080fd5b50565b6000815190506200014e8162000123565b92915050565b600073ffffffffffffffffffffffffffffffffffffffff82169050919050565b6000620001818262000154565b9050919050565b620001938162000174565b81146200019f57600080fd5b50565b600081519050620001b38162000188565b92915050565b60008060008060808587031215620001d657620001d562000114565b5b6000620001e6878288016200013d565b9450506020620001f9878288016200013d565b93505060406200020c87828801620001a2565b92505060606200021f87828801620001a2565b91505092959194509250565b7f4e487b7100000000000000000000000000000000000000000000000000000000600052601160045260246000fd5b60008160011c9050919050565b6000808291508390505b6001851115620002b9578086048111156200029157620002906200022b565b5b6001851615620002a15780820291505b8081029050620002b1856200025a565b945062000271565b94509492505050565b600082620002d45760019050620003a7565b81620002e45760009050620003a7565b8160018114620002fd576002811462000308576200033e565b6001915050620003a7565b60ff8411156200031d576200031c6200022b565b5b8360020a9150848211156200033757620003366200022b565b5b50620003a7565b5060208310610133831016604e8410600b8410161715620003785782820a9050838111156200037257620003716200022b565b5b620003a7565b62000387848484600162000267565b92509050818404811115620003a157620003a06200022b565b5b81810290505b9392505050565b6000620003bb8262000119565b9150620003c88362000119565b9250620003f77fffffffffffffffffffffffffffffffffffffffffffffffffffffffffffffffff8484620002c2565b905092915050565b60006200040c8262000119565b9150620004198362000119565b9250817fffffffffffffffffffffffffffffffffffffffffffffffffffffffffffffffff04831182151516156200045557620004546200022b565b5b828202905092915050565b7f4e487b7100000000000000000000000000000000000000000000000000000000600052601260045260246000fd5b60006200049c8262000119565b9150620004a98362000119565b925082620004bc57620004bb62000460565b5b828204905092915050565b60805160a05160c051612f7d620004fe600039600061083501526000610d730152600081816106b1015261088d0152612f7d6000f3fe608060405234801561001057600080fd5b506004361061012c5760003560e01c806374a7dce5116100ad578063b6db75a011610071578063b6db75a01461030a578063c4d66de814610328578063d547741f14610344578063eaef399914610360578063f751758b1461037c5761012c565b806374a7dce51461028a5780638456cb59146102a8578063869eac93146102b257806391d14854146102bc578063a217fddf146102ec5761012c565b806334d131bf116100f457806334d131bf146101fa57806336568abe1461022a5780633f4ba83a146102465780635c975abb146102505780636e810b1a1461026e5761012c565b806301ffc9a714610131578063051e6cb11461016157806306fb46ba1461017d578063248a9ca3146101ae5780632f2ff15d146101de575b600080fd5b61014b60048036038101906101469190611fcf565b61039a565b6040516101589190612017565b60405180910390f35b61017b60048036038101906101769190612068565b610414565b005b61019760048036038101906101929190612095565b610473565b6040516101a59291906120e4565b60405180910390f35b6101c860048036038101906101c39190612143565b61052e565b6040516101d5919061217f565b60405180910390f35b6101f860048036038101906101f391906121f8565b61054e565b005b610214600480360381019061020f9190612271565b61056f565b6040516102219190612017565b60405180910390f35b610244600480360381019061023f91906121f8565b6108e9565b005b61024e61096c565b005b6102586109bd565b6040516102659190612017565b60405180910390f35b610288600480360381019061028391906122ec565b6109d4565b005b610292610af6565b60405161029f9190612319565b60405180910390f35b6102b0610b00565b005b6102ba610b51565b005b6102d660048036038101906102d191906121f8565b610dba565b6040516102e39190612017565b60405180910390f35b6102f4610e25565b604051610301919061217f565b60405180910390f35b610312610e2c565b60405161031f9190612017565b60405180910390f35b610342600480360381019061033d91906122ec565b610e4b565b005b61035e600480360381019061035991906121f8565b610feb565b005b61037a60048036038101906103759190612068565b61100c565b005b610384611077565b6040516103919190612319565b60405180910390f35b60007f7965db0b000000000000000000000000000000000000000000000000000000007bffffffffffffffffffffffffffffffffffffffffffffffffffffffff1916827bffffffffffffffffffffffffffffffffffffffffffffffffffffffff1916148061040d575061040c826110a5565b5b9050919050565b61041c610e2c565b61045b576040517f08c379a0000000000000000000000000000000000000000000000000000000008152600401610452906123b7565b60405180910390fd5b620151808161046a9190612406565b60fc8190555050565b600080600060fe5460fd546104889190612406565b90506000670de0b6b3a7640000856104a09190612460565b866104ab9190612494565b90506000670de0b6b3a7640000600283856104c69190612406565b6104d091906124f7565b6104da91906124f7565b905060008160ff546104ec9190612494565b90506000670de0b6b3a764000089896105059190612460565b836105109190612406565b61051a91906124f7565b905081819650965050505050509250929050565b600060976000838152602001908152602001600020600101549050919050565b6105578261052e565b6105608161110f565b61056a8383611123565b505050565b6000610579611204565b600115156105856109bd565b15151415801561062b57506001151561010060009054906101000a900473ffffffffffffffffffffffffffffffffffffffff1673ffffffffffffffffffffffffffffffffffffffff1663b187bd266040518163ffffffff1660e01b8152600401602060405180830381865afa158015610602573d6000803e3d6000fd5b505050506040513d601f19601f820116820180604052508101906106269190612554565b151514155b61063457600080fd5b670de0b6b3a7640000861015610676576040517f8facb45e00000000000000000000000000000000000000000000000000000000815260040160405180910390fd5b61708060fc600082825461068a9190612494565b9250508190555060006106ac60fb548860fb546106a79190612494565b610473565b9150507f000000000000000000000000000000000000000000000000000000000000000073ffffffffffffffffffffffffffffffffffffffff166370a082316106f3611253565b6040518263ffffffff1660e01b815260040161070f9190612590565b602060405180830381865afa15801561072c573d6000803e3d6000fd5b505050506040513d601f19601f8201168201806040525081019061075091906125c0565b811115610789576040517f2b2cce3f00000000000000000000000000000000000000000000000000000000815260040160405180910390fd5b60006101016000610798611253565b73ffffffffffffffffffffffffffffffffffffffff1673ffffffffffffffffffffffffffffffffffffffff1681526020019081526020016000209050878160010160008282546107e89190612494565b9250508190555060018160000160006101000a81548160ff02191690831515021790555060fc544261081a9190612494565b816002018190555061087e61082d611253565b30848a8a8a8a7f000000000000000000000000000000000000000000000000000000000000000073ffffffffffffffffffffffffffffffffffffffff1661125b90979695949392919063ffffffff16565b6108d2610889611253565b30847f000000000000000000000000000000000000000000000000000000000000000073ffffffffffffffffffffffffffffffffffffffff16611428909392919063ffffffff16565b6001925050506108e06114b1565b95945050505050565b6108f1611253565b73ffffffffffffffffffffffffffffffffffffffff168173ffffffffffffffffffffffffffffffffffffffff161461095e576040517f08c379a00000000000000000000000000000000000000000000000000000000081526004016109559061265f565b60405180910390fd5b61096882826114bb565b5050565b610974610e2c565b6109b3576040517f08c379a00000000000000000000000000000000000000000000000000000000081526004016109aa906123b7565b60405180910390fd5b6109bb61159d565b565b6000603360009054906101000a900460ff16905090565b600060019054906101000a900460ff16610a23576040517f08c379a0000000000000000000000000000000000000000000000000000000008152600401610a1a906126f1565b60405180910390fd5b600073ffffffffffffffffffffffffffffffffffffffff168173ffffffffffffffffffffffffffffffffffffffff1603610a89576040517f5415139400000000000000000000000000000000000000000000000000000000815260040160405180910390fd5b610a91611600565b610a99611659565b610aa16116aa565b610ab2610aac611703565b82611123565b610ac3610abd61172b565b82611123565b610adb610ace61172b565b610ad6611703565b611753565b610af3610ae6611703565b610aee611703565b611753565b50565b600060fb54905090565b610b08610e2c565b610b47576040517f08c379a0000000000000000000000000000000000000000000000000000000008152600401610b3e906123b7565b60405180910390fd5b610b4f6117af565b565b6101016000610b5e611253565b73ffffffffffffffffffffffffffffffffffffffff1673ffffffffffffffffffffffffffffffffffffffff16815260200190815260200160002060000160009054906101000a900460ff16610bdf576040517f23d1e2cb00000000000000000000000000000000000000000000000000000000815260040160405180910390fd5b426101016000610bed611253565b73ffffffffffffffffffffffffffffffffffffffff1673ffffffffffffffffffffffffffffffffffffffff168152602001908152602001600020600201541115610c63576040517f23d1e2cb00000000000000000000000000000000000000000000000000000000815260040160405180910390fd5b60006101016000610c72611253565b73ffffffffffffffffffffffffffffffffffffffff1673ffffffffffffffffffffffffffffffffffffffff16815260200190815260200160002060010154905060006101016000610cc1611253565b73ffffffffffffffffffffffffffffffffffffffff1673ffffffffffffffffffffffffffffffffffffffff16815260200190815260200160002060000160006101000a81548160ff02191690831515021790555060006101016000610d24611253565b73ffffffffffffffffffffffffffffffffffffffff1673ffffffffffffffffffffffffffffffffffffffff16815260200190815260200160002060010181905550610db7610d70611253565b827f000000000000000000000000000000000000000000000000000000000000000073ffffffffffffffffffffffffffffffffffffffff166118129092919063ffffffff16565b50565b60006097600084815260200190815260200160002060000160008373ffffffffffffffffffffffffffffffffffffffff1673ffffffffffffffffffffffffffffffffffffffff16815260200190815260200160002060009054906101000a900460ff16905092915050565b6000801b81565b6000610e46610e39611703565b610e41611253565b610dba565b905090565b60008060019054906101000a900460ff16159050808015610e7c5750600160008054906101000a900460ff1660ff16105b80610ea95750610e8b30611898565b158015610ea85750600160008054906101000a900460ff1660ff16145b5b610ee8576040517f08c379a0000000000000000000000000000000000000000000000000000000008152600401610edf90612783565b60405180910390fd5b60016000806101000a81548160ff021916908360ff1602179055508015610f25576001600060016101000a81548160ff0219169083151502179055505b600160fe81905550670de0b6b3a764000060ff819055508161010060006101000a81548173ffffffffffffffffffffffffffffffffffffffff021916908373ffffffffffffffffffffffffffffffffffffffff160217905550610f8e610f89611253565b6109d4565b8015610fe75760008060016101000a81548160ff0219169083151502179055507f7f26b83ff96e1f2b6a682f133852f6798a09c465da95921460cefb38474024986001604051610fde91906127e8565b60405180910390a15b5050565b610ff48261052e565b610ffd8161110f565b61100783836114bb565b505050565b611014610e2c565b611053576040517f08c379a000000000000000000000000000000000000000000000000000000000815260040161104a906123b7565b60405180910390fd5b8060fe81905550670de0b6b3a76400008161106e9190612406565b60ff8190555050565b60008061109b60fb54670de0b6b3a764000060fb546110969190612494565b610473565b5090508091505090565b60007f01ffc9a7000000000000000000000000000000000000000000000000000000007bffffffffffffffffffffffffffffffffffffffffffffffffffffffff1916827bffffffffffffffffffffffffffffffffffffffffffffffffffffffff1916149050919050565b6111208161111b611253565b6118bb565b50565b61112d8282610dba565b6112005760016097600084815260200190815260200160002060000160008373ffffffffffffffffffffffffffffffffffffffff1673ffffffffffffffffffffffffffffffffffffffff16815260200190815260200160002060006101000a81548160ff0219169083151502179055506111a5611253565b73ffffffffffffffffffffffffffffffffffffffff168173ffffffffffffffffffffffffffffffffffffffff16837f2f8788117e7eff1d82e926ec794901d17c78024a50270940304540a733656f0d60405160405180910390a45b5050565b600260c95403611249576040517f08c379a00000000000000000000000000000000000000000000000000000000081526004016112409061284f565b60405180910390fd5b600260c981905550565b600033905090565b60008873ffffffffffffffffffffffffffffffffffffffff16637ecebe00896040518263ffffffff1660e01b81526004016112969190612590565b602060405180830381865afa1580156112b3573d6000803e3d6000fd5b505050506040513d601f19601f820116820180604052508101906112d791906125c0565b90508873ffffffffffffffffffffffffffffffffffffffff1663d505accf898989898989896040518863ffffffff1660e01b815260040161131e979695949392919061287e565b600060405180830381600087803b15801561133857600080fd5b505af115801561134c573d6000803e3d6000fd5b5050505060008973ffffffffffffffffffffffffffffffffffffffff16637ecebe008a6040518263ffffffff1660e01b815260040161138b9190612590565b602060405180830381865afa1580156113a8573d6000803e3d6000fd5b505050506040513d601f19601f820116820180604052508101906113cc91906125c0565b90506001826113db9190612494565b811461141c576040517f08c379a00000000000000000000000000000000000000000000000000000000081526004016114139061295f565b60405180910390fd5b50505050505050505050565b6114ab846323b872dd60e01b8585856040516024016114499392919061297f565b604051602081830303815290604052907bffffffffffffffffffffffffffffffffffffffffffffffffffffffff19166020820180517bffffffffffffffffffffffffffffffffffffffffffffffffffffffff8381831617835250505050611940565b50505050565b600160c981905550565b6114c58282610dba565b156115995760006097600084815260200190815260200160002060000160008373ffffffffffffffffffffffffffffffffffffffff1673ffffffffffffffffffffffffffffffffffffffff16815260200190815260200160002060006101000a81548160ff02191690831515021790555061153e611253565b73ffffffffffffffffffffffffffffffffffffffff168173ffffffffffffffffffffffffffffffffffffffff16837ff6391f5c32d9c69d2a47ea670b442974b53935d1edc7fd64eb21e047a839171b60405160405180910390a45b5050565b6115a5611a07565b6000603360006101000a81548160ff0219169083151502179055507f5db9ee0a495bf2e6ff9c91a7834c1ba4fdd244a5e8aa4e537bd38aeae4b073aa6115e9611253565b6040516115f69190612590565b60405180910390a1565b600060019054906101000a900460ff1661164f576040517f08c379a0000000000000000000000000000000000000000000000000000000008152600401611646906126f1565b60405180910390fd5b611657611a50565b565b600060019054906101000a900460ff166116a8576040517f08c379a000000000000000000000000000000000000000000000000000000000815260040161169f906126f1565b60405180910390fd5b565b600060019054906101000a900460ff166116f9576040517f08c379a00000000000000000000000000000000000000000000000000000000081526004016116f0906126f1565b60405180910390fd5b611701611abc565b565b60007fa49807205ce4d355092ef5a8a18f56e8913cf4a201fbe287825b095693c21775905090565b60007f65d7a28e3265b37a6474929f336521b332c1681b933f6cb9f3376673440d862a905090565b600061175e8361052e565b90508160976000858152602001908152602001600020600101819055508181847fbd79b86ffe0ab8e8776151514217cd7cacd52c909f66475c3af44e129f0b00ff60405160405180910390a4505050565b6117b7611b15565b6001603360006101000a81548160ff0219169083151502179055507f62e78cea01bee320cd4e420270b5ea74000d11b0c9f74754ebdbfc544b05a2586117fb611253565b6040516118089190612590565b60405180910390a1565b6118938363a9059cbb60e01b84846040516024016118319291906129b6565b604051602081830303815290604052907bffffffffffffffffffffffffffffffffffffffffffffffffffffffff19166020820180517bffffffffffffffffffffffffffffffffffffffffffffffffffffffff8381831617835250505050611940565b505050565b6000808273ffffffffffffffffffffffffffffffffffffffff163b119050919050565b6118c58282610dba565b61193c576118d281611b5f565b6118e08360001c6020611b8c565b6040516020016118f1929190612ae8565b6040516020818303038152906040526040517f08c379a00000000000000000000000000000000000000000000000000000000081526004016119339190612b6c565b60405180910390fd5b5050565b60006119a2826040518060400160405280602081526020017f5361666545524332303a206c6f772d6c6576656c2063616c6c206661696c65648152508573ffffffffffffffffffffffffffffffffffffffff16611dc89092919063ffffffff16565b9050600081511115611a0257808060200190518101906119c29190612554565b611a01576040517f08c379a00000000000000000000000000000000000000000000000000000000081526004016119f890612c00565b60405180910390fd5b5b505050565b611a0f6109bd565b611a4e576040517f08c379a0000000000000000000000000000000000000000000000000000000008152600401611a4590612c6c565b60405180910390fd5b565b600060019054906101000a900460ff16611a9f576040517f08c379a0000000000000000000000000000000000000000000000000000000008152600401611a96906126f1565b60405180910390fd5b6000603360006101000a81548160ff021916908315150217905550565b600060019054906101000a900460ff16611b0b576040517f08c379a0000000000000000000000000000000000000000000000000000000008152600401611b02906126f1565b60405180910390fd5b600160c981905550565b611b1d6109bd565b15611b5d576040517f08c379a0000000000000000000000000000000000000000000000000000000008152600401611b5490612cd8565b60405180910390fd5b565b6060611b858273ffffffffffffffffffffffffffffffffffffffff16601460ff16611b8c565b9050919050565b606060006002836002611b9f9190612406565b611ba99190612494565b67ffffffffffffffff811115611bc257611bc1612cf8565b5b6040519080825280601f01601f191660200182016040528015611bf45781602001600182028036833780820191505090505b5090507f300000000000000000000000000000000000000000000000000000000000000081600081518110611c2c57611c2b612d27565b5b60200101907effffffffffffffffffffffffffffffffffffffffffffffffffffffffffffff1916908160001a9053507f780000000000000000000000000000000000000000000000000000000000000081600181518110611c9057611c8f612d27565b5b60200101907effffffffffffffffffffffffffffffffffffffffffffffffffffffffffffff1916908160001a90535060006001846002611cd09190612406565b611cda9190612494565b90505b6001811115611d7a577f3031323334353637383961626364656600000000000000000000000000000000600f861660108110611d1c57611d1b612d27565b5b1a60f81b828281518110611d3357611d32612d27565b5b60200101907effffffffffffffffffffffffffffffffffffffffffffffffffffffffffffff1916908160001a905350600485901c945080611d7390612d56565b9050611cdd565b5060008414611dbe576040517f08c379a0000000000000000000000000000000000000000000000000000000008152600401611db590612dcb565b60405180910390fd5b8091505092915050565b6060611dd78484600085611de0565b90509392505050565b606082471015611e25576040517f08c379a0000000000000000000000000000000000000000000000000000000008152600401611e1c90612e5d565b60405180910390fd5b6000808673ffffffffffffffffffffffffffffffffffffffff168587604051611e4e9190612ec4565b60006040518083038185875af1925050503d8060008114611e8b576040519150601f19603f3d011682016040523d82523d6000602084013e611e90565b606091505b5091509150611ea187838387611ead565b92505050949350505050565b60608315611f0f576000835103611f0757611ec785611898565b611f06576040517f08c379a0000000000000000000000000000000000000000000000000000000008152600401611efd90612f27565b60405180910390fd5b5b829050611f1a565b611f198383611f22565b5b949350505050565b600082511115611f355781518083602001fd5b806040517f08c379a0000000000000000000000000000000000000000000000000000000008152600401611f699190612b6c565b60405180910390fd5b600080fd5b60007fffffffff0000000000000000000000000000000000000000000000000000000082169050919050565b611fac81611f77565b8114611fb757600080fd5b50565b600081359050611fc981611fa3565b92915050565b600060208284031215611fe557611fe4611f72565b5b6000611ff384828501611fba565b91505092915050565b60008115159050919050565b61201181611ffc565b82525050565b600060208201905061202c6000830184612008565b92915050565b6000819050919050565b61204581612032565b811461205057600080fd5b50565b6000813590506120628161203c565b92915050565b60006020828403121561207e5761207d611f72565b5b600061208c84828501612053565b91505092915050565b600080604083850312156120ac576120ab611f72565b5b60006120ba85828601612053565b92505060206120cb85828601612053565b9150509250929050565b6120de81612032565b82525050565b60006040820190506120f960008301856120d5565b61210660208301846120d5565b9392505050565b6000819050919050565b6121208161210d565b811461212b57600080fd5b50565b60008135905061213d81612117565b92915050565b60006020828403121561215957612158611f72565b5b60006121678482850161212e565b91505092915050565b6121798161210d565b82525050565b60006020820190506121946000830184612170565b92915050565b600073ffffffffffffffffffffffffffffffffffffffff82169050919050565b60006121c58261219a565b9050919050565b6121d5816121ba565b81146121e057600080fd5b50565b6000813590506121f2816121cc565b92915050565b6000806040838503121561220f5761220e611f72565b5b600061221d8582860161212e565b925050602061222e858286016121e3565b9150509250929050565b600060ff82169050919050565b61224e81612238565b811461225957600080fd5b50565b60008135905061226b81612245565b92915050565b600080600080600060a0868803121561228d5761228c611f72565b5b600061229b88828901612053565b95505060206122ac88828901612053565b94505060406122bd8882890161225c565b93505060606122ce8882890161212e565b92505060806122df8882890161212e565b9150509295509295909350565b60006020828403121561230257612301611f72565b5b6000612310848285016121e3565b91505092915050565b600060208201905061232e60008301846120d5565b92915050565b600082825260208201905092915050565b7f4d75737420686176652061646d696e20726f6c6520746f20706572666f726d2060008201527f7468697320616374696f6e2e0000000000000000000000000000000000000000602082015250565b60006123a1602c83612334565b91506123ac82612345565b604082019050919050565b600060208201905081810360008301526123d081612394565b9050919050565b7f4e487b7100000000000000000000000000000000000000000000000000000000600052601160045260246000fd5b600061241182612032565b915061241c83612032565b9250817fffffffffffffffffffffffffffffffffffffffffffffffffffffffffffffffff0483118215151615612455576124546123d7565b5b828202905092915050565b600061246b82612032565b915061247683612032565b925082820390508181111561248e5761248d6123d7565b5b92915050565b600061249f82612032565b91506124aa83612032565b92508282019050808211156124c2576124c16123d7565b5b92915050565b7f4e487b7100000000000000000000000000000000000000000000000000000000600052601260045260246000fd5b600061250282612032565b915061250d83612032565b92508261251d5761251c6124c8565b5b828204905092915050565b61253181611ffc565b811461253c57600080fd5b50565b60008151905061254e81612528565b92915050565b60006020828403121561256a57612569611f72565b5b60006125788482850161253f565b91505092915050565b61258a816121ba565b82525050565b60006020820190506125a56000830184612581565b92915050565b6000815190506125ba8161203c565b92915050565b6000602082840312156125d6576125d5611f72565b5b60006125e4848285016125ab565b91505092915050565b7f416363657373436f6e74726f6c3a2063616e206f6e6c792072656e6f756e636560008201527f20726f6c657320666f722073656c660000000000000000000000000000000000602082015250565b6000612649602f83612334565b9150612654826125ed565b604082019050919050565b600060208201905081810360008301526126788161263c565b9050919050565b7f496e697469616c697a61626c653a20636f6e7472616374206973206e6f74206960008201527f6e697469616c697a696e67000000000000000000000000000000000000000000602082015250565b60006126db602b83612334565b91506126e68261267f565b604082019050919050565b6000602082019050818103600083015261270a816126ce565b9050919050565b7f496e697469616c697a61626c653a20636f6e747261637420697320616c72656160008201527f647920696e697469616c697a6564000000000000000000000000000000000000602082015250565b600061276d602e83612334565b915061277882612711565b604082019050919050565b6000602082019050818103600083015261279c81612760565b9050919050565b6000819050919050565b6000819050919050565b60006127d26127cd6127c8846127a3565b6127ad565b612238565b9050919050565b6127e2816127b7565b82525050565b60006020820190506127fd60008301846127d9565b92915050565b7f5265656e7472616e637947756172643a207265656e7472616e742063616c6c00600082015250565b6000612839601f83612334565b915061284482612803565b602082019050919050565b600060208201905081810360008301526128688161282c565b9050919050565b61287881612238565b82525050565b600060e082019050612893600083018a612581565b6128a06020830189612581565b6128ad60408301886120d5565b6128ba60608301876120d5565b6128c7608083018661286f565b6128d460a0830185612170565b6128e160c0830184612170565b98975050505050505050565b7f5361666545524332303a207065726d697420646964206e6f742073756363656560008201527f6400000000000000000000000000000000000000000000000000000000000000602082015250565b6000612949602183612334565b9150612954826128ed565b604082019050919050565b600060208201905081810360008301526129788161293c565b9050919050565b60006060820190506129946000830186612581565b6129a16020830185612581565b6129ae60408301846120d5565b949350505050565b60006040820190506129cb6000830185612581565b6129d860208301846120d5565b9392505050565b600081905092915050565b7f416363657373436f6e74726f6c3a206163636f756e7420000000000000000000600082015250565b6000612a206017836129df565b9150612a2b826129ea565b601782019050919050565b600081519050919050565b60005b83811015612a5f578082015181840152602081019050612a44565b60008484015250505050565b6000612a7682612a36565b612a8081856129df565b9350612a90818560208601612a41565b80840191505092915050565b7f206973206d697373696e6720726f6c6520000000000000000000000000000000600082015250565b6000612ad26011836129df565b9150612add82612a9c565b601182019050919050565b6000612af382612a13565b9150612aff8285612a6b565b9150612b0a82612ac5565b9150612b168284612a6b565b91508190509392505050565b6000601f19601f8301169050919050565b6000612b3e82612a36565b612b488185612334565b9350612b58818560208601612a41565b612b6181612b22565b840191505092915050565b60006020820190508181036000830152612b868184612b33565b905092915050565b7f5361666545524332303a204552433230206f7065726174696f6e20646964206e60008201527f6f74207375636365656400000000000000000000000000000000000000000000602082015250565b6000612bea602a83612334565b9150612bf582612b8e565b604082019050919050565b60006020820190508181036000830152612c1981612bdd565b9050919050565b7f5061757361626c653a206e6f7420706175736564000000000000000000000000600082015250565b6000612c56601483612334565b9150612c6182612c20565b602082019050919050565b60006020820190508181036000830152612c8581612c49565b9050919050565b7f5061757361626c653a2070617573656400000000000000000000000000000000600082015250565b6000612cc2601083612334565b9150612ccd82612c8c565b602082019050919050565b60006020820190508181036000830152612cf181612cb5565b9050919050565b7f4e487b7100000000000000000000000000000000000000000000000000000000600052604160045260246000fd5b7f4e487b7100000000000000000000000000000000000000000000000000000000600052603260045260246000fd5b6000612d6182612032565b915060008203612d7457612d736123d7565b5b600182039050919050565b7f537472696e67733a20686578206c656e67746820696e73756666696369656e74600082015250565b6000612db5602083612334565b9150612dc082612d7f565b602082019050919050565b60006020820190508181036000830152612de481612da8565b9050919050565b7f416464726573733a20696e73756666696369656e742062616c616e636520666f60008201527f722063616c6c0000000000000000000000000000000000000000000000000000602082015250565b6000612e47602683612334565b9150612e5282612deb565b604082019050919050565b60006020820190508181036000830152612e7681612e3a565b9050919050565b600081519050919050565b600081905092915050565b6000612e9e82612e7d565b612ea88185612e88565b9350612eb8818560208601612a41565b80840191505092915050565b6000612ed08284612e93565b915081905092915050565b7f416464726573733a2063616c6c20746f206e6f6e2d636f6e7472616374000000600082015250565b6000612f11601d83612334565b9150612f1c82612edb565b602082019050919050565b60006020820190508181036000830152612f4081612f04565b905091905056fea264697066735822122094177042f27b4a540b9d649902ae28fd3676305b86731396d35037fbde98239664736f6c63430008100033","opcodes":"PUSH1 0xE0 PUSH1 0x40 MSTORE CALLVALUE DUP1 ISZERO PUSH3 0x11 JUMPI PUSH1 0x0 DUP1 REVERT JUMPDEST POP PUSH1 0x40 MLOAD PUSH3 0x347B CODESIZE SUB DUP1 PUSH3 0x347B DUP4 CODECOPY DUP2 DUP2 ADD PUSH1 0x40 MSTORE DUP2 ADD SWAP1 PUSH3 0x37 SWAP2 SWAP1 PUSH3 0x1B9 JUMP JUMPDEST DUP2 PUSH20 0xFFFFFFFFFFFFFFFFFFFFFFFFFFFFFFFFFFFFFFFF AND PUSH1 0x80 DUP2 PUSH20 0xFFFFFFFFFFFFFFFFFFFFFFFFFFFFFFFFFFFFFFFF AND DUP2 MSTORE POP POP DUP1 PUSH20 0xFFFFFFFFFFFFFFFFFFFFFFFFFFFFFFFFFFFFFFFF AND PUSH1 0xA0 DUP2 PUSH20 0xFFFFFFFFFFFFFFFFFFFFFFFFFFFFFFFFFFFFFFFF AND DUP2 MSTORE POP POP DUP2 PUSH20 0xFFFFFFFFFFFFFFFFFFFFFFFFFFFFFFFFFFFFFFFF AND PUSH1 0xC0 DUP2 PUSH20 0xFFFFFFFFFFFFFFFFFFFFFFFFFFFFFFFFFFFFFFFF AND DUP2 MSTORE POP POP DUP3 PUSH1 0xA PUSH3 0xE2 SWAP2 SWAP1 PUSH3 0x3AE JUMP JUMPDEST PUSH8 0xDE0B6B3A7640000 DUP6 PUSH3 0xF8 SWAP2 SWAP1 PUSH3 0x3FF JUMP JUMPDEST PUSH3 0x104 SWAP2 SWAP1 PUSH3 0x48F JUMP JUMPDEST PUSH1 0xFD DUP2 SWAP1 SSTORE POP POP POP POP POP PUSH3 0x4C7 JUMP JUMPDEST PUSH1 0x0 DUP1 REVERT JUMPDEST PUSH1 0x0 DUP2 SWAP1 POP SWAP2 SWAP1 POP JUMP JUMPDEST PUSH3 0x12E DUP2 PUSH3 0x119 JUMP JUMPDEST DUP2 EQ PUSH3 0x13A JUMPI PUSH1 0x0 DUP1 REVERT JUMPDEST POP JUMP JUMPDEST PUSH1 0x0 DUP2 MLOAD SWAP1 POP PUSH3 0x14E DUP2 PUSH3 0x123 JUMP JUMPDEST SWAP3 SWAP2 POP POP JUMP JUMPDEST PUSH1 0x0 PUSH20 0xFFFFFFFFFFFFFFFFFFFFFFFFFFFFFFFFFFFFFFFF DUP3 AND SWAP1 POP SWAP2 SWAP1 POP JUMP JUMPDEST PUSH1 0x0 PUSH3 0x181 DUP3 PUSH3 0x154 JUMP JUMPDEST SWAP1 POP SWAP2 SWAP1 POP JUMP JUMPDEST PUSH3 0x193 DUP2 PUSH3 0x174 JUMP JUMPDEST DUP2 EQ PUSH3 0x19F JUMPI PUSH1 0x0 DUP1 REVERT JUMPDEST POP JUMP JUMPDEST PUSH1 0x0 DUP2 MLOAD SWAP1 POP PUSH3 0x1B3 DUP2 PUSH3 0x188 JUMP JUMPDEST SWAP3 SWAP2 POP POP JUMP JUMPDEST PUSH1 0x0 DUP1 PUSH1 0x0 DUP1 PUSH1 0x80 DUP6 DUP8 SUB SLT ISZERO PUSH3 0x1D6 JUMPI PUSH3 0x1D5 PUSH3 0x114 JUMP JUMPDEST JUMPDEST PUSH1 0x0 PUSH3 0x1E6 DUP8 DUP3 DUP9 ADD PUSH3 0x13D JUMP JUMPDEST SWAP5 POP POP PUSH1 0x20 PUSH3 0x1F9 DUP8 DUP3 DUP9 ADD PUSH3 0x13D JUMP JUMPDEST SWAP4 POP POP PUSH1 0x40 PUSH3 0x20C DUP8 DUP3 DUP9 ADD PUSH3 0x1A2 JUMP JUMPDEST SWAP3 POP POP PUSH1 0x60 PUSH3 0x21F DUP8 DUP3 DUP9 ADD PUSH3 0x1A2 JUMP JUMPDEST SWAP2 POP POP SWAP3 SWAP6 SWAP2 SWAP5 POP SWAP3 POP JUMP JUMPDEST PUSH32 0x4E487B7100000000000000000000000000000000000000000000000000000000 PUSH1 0x0 MSTORE PUSH1 0x11 PUSH1 0x4 MSTORE PUSH1 0x24 PUSH1 0x0 REVERT JUMPDEST PUSH1 0x0 DUP2 PUSH1 0x1 SHR SWAP1 POP SWAP2 SWAP1 POP JUMP JUMPDEST PUSH1 0x0 DUP1 DUP3 SWAP2 POP DUP4 SWAP1 POP JUMPDEST PUSH1 0x1 DUP6 GT ISZERO PUSH3 0x2B9 JUMPI DUP1 DUP7 DIV DUP2 GT ISZERO PUSH3 0x291 JUMPI PUSH3 0x290 PUSH3 0x22B JUMP JUMPDEST JUMPDEST PUSH1 0x1 DUP6 AND ISZERO PUSH3 0x2A1 JUMPI DUP1 DUP3 MUL SWAP2 POP JUMPDEST DUP1 DUP2 MUL SWAP1 POP PUSH3 0x2B1 DUP6 PUSH3 0x25A JUMP JUMPDEST SWAP5 POP PUSH3 0x271 JUMP JUMPDEST SWAP5 POP SWAP5 SWAP3 POP POP POP JUMP JUMPDEST PUSH1 0x0 DUP3 PUSH3 0x2D4 JUMPI PUSH1 0x1 SWAP1 POP PUSH3 0x3A7 JUMP JUMPDEST DUP2 PUSH3 0x2E4 JUMPI PUSH1 0x0 SWAP1 POP PUSH3 0x3A7 JUMP JUMPDEST DUP2 PUSH1 0x1 DUP2 EQ PUSH3 0x2FD JUMPI PUSH1 0x2 DUP2 EQ PUSH3 0x308 JUMPI PUSH3 0x33E JUMP JUMPDEST PUSH1 0x1 SWAP2 POP POP PUSH3 0x3A7 JUMP JUMPDEST PUSH1 0xFF DUP5 GT ISZERO PUSH3 0x31D JUMPI PUSH3 0x31C PUSH3 0x22B JUMP JUMPDEST JUMPDEST DUP4 PUSH1 0x2 EXP SWAP2 POP DUP5 DUP3 GT ISZERO PUSH3 0x337 JUMPI PUSH3 0x336 PUSH3 0x22B JUMP JUMPDEST JUMPDEST POP PUSH3 0x3A7 JUMP JUMPDEST POP PUSH1 0x20 DUP4 LT PUSH2 0x133 DUP4 LT AND PUSH1 0x4E DUP5 LT PUSH1 0xB DUP5 LT AND OR ISZERO PUSH3 0x378 JUMPI DUP3 DUP3 EXP SWAP1 POP DUP4 DUP2 GT ISZERO PUSH3 0x372 JUMPI PUSH3 0x371 PUSH3 0x22B JUMP JUMPDEST JUMPDEST PUSH3 0x3A7 JUMP JUMPDEST PUSH3 0x387 DUP5 DUP5 DUP5 PUSH1 0x1 PUSH3 0x267 JUMP JUMPDEST SWAP3 POP SWAP1 POP DUP2 DUP5 DIV DUP2 GT ISZERO PUSH3 0x3A1 JUMPI PUSH3 0x3A0 PUSH3 0x22B JUMP JUMPDEST JUMPDEST DUP2 DUP2 MUL SWAP1 POP JUMPDEST SWAP4 SWAP3 POP POP POP JUMP JUMPDEST PUSH1 0x0 PUSH3 0x3BB DUP3 PUSH3 0x119 JUMP JUMPDEST SWAP2 POP PUSH3 0x3C8 DUP4 PUSH3 0x119 JUMP JUMPDEST SWAP3 POP PUSH3 0x3F7 PUSH32 0xFFFFFFFFFFFFFFFFFFFFFFFFFFFFFFFFFFFFFFFFFFFFFFFFFFFFFFFFFFFFFFFF DUP5 DUP5 PUSH3 0x2C2 JUMP JUMPDEST SWAP1 POP SWAP3 SWAP2 POP POP JUMP JUMPDEST PUSH1 0x0 PUSH3 0x40C DUP3 PUSH3 0x119 JUMP JUMPDEST SWAP2 POP PUSH3 0x419 DUP4 PUSH3 0x119 JUMP JUMPDEST SWAP3 POP DUP2 PUSH32 0xFFFFFFFFFFFFFFFFFFFFFFFFFFFFFFFFFFFFFFFFFFFFFFFFFFFFFFFFFFFFFFFF DIV DUP4 GT DUP3 ISZERO ISZERO AND ISZERO PUSH3 0x455 JUMPI PUSH3 0x454 PUSH3 0x22B JUMP JUMPDEST JUMPDEST DUP3 DUP3 MUL SWAP1 POP SWAP3 SWAP2 POP POP JUMP JUMPDEST PUSH32 0x4E487B7100000000000000000000000000000000000000000000000000000000 PUSH1 0x0 MSTORE PUSH1 0x12 PUSH1 0x4 MSTORE PUSH1 0x24 PUSH1 0x0 REVERT JUMPDEST PUSH1 0x0 PUSH3 0x49C DUP3 PUSH3 0x119 JUMP JUMPDEST SWAP2 POP PUSH3 0x4A9 DUP4 PUSH3 0x119 JUMP JUMPDEST SWAP3 POP DUP3 PUSH3 0x4BC JUMPI PUSH3 0x4BB PUSH3 0x460 JUMP JUMPDEST JUMPDEST DUP3 DUP3 DIV SWAP1 POP SWAP3 SWAP2 POP POP JUMP JUMPDEST PUSH1 0x80 MLOAD PUSH1 0xA0 MLOAD PUSH1 0xC0 MLOAD PUSH2 0x2F7D PUSH3 0x4FE PUSH1 0x0 CODECOPY PUSH1 0x0 PUSH2 0x835 ADD MSTORE PUSH1 0x0 PUSH2 0xD73 ADD MSTORE PUSH1 0x0 DUP2 DUP2 PUSH2 0x6B1 ADD MSTORE PUSH2 0x88D ADD MSTORE PUSH2 0x2F7D PUSH1 0x0 RETURN INVALID PUSH1 0x80 PUSH1 0x40 MSTORE CALLVALUE DUP1 ISZERO PUSH2 0x10 JUMPI PUSH1 0x0 DUP1 REVERT JUMPDEST POP PUSH1 0x4 CALLDATASIZE LT PUSH2 0x12C JUMPI PUSH1 0x0 CALLDATALOAD PUSH1 0xE0 SHR DUP1 PUSH4 0x74A7DCE5 GT PUSH2 0xAD JUMPI DUP1 PUSH4 0xB6DB75A0 GT PUSH2 0x71 JUMPI DUP1 PUSH4 0xB6DB75A0 EQ PUSH2 0x30A JUMPI DUP1 PUSH4 0xC4D66DE8 EQ PUSH2 0x328 JUMPI DUP1 PUSH4 0xD547741F EQ PUSH2 0x344 JUMPI DUP1 PUSH4 0xEAEF3999 EQ PUSH2 0x360 JUMPI DUP1 PUSH4 0xF751758B EQ PUSH2 0x37C JUMPI PUSH2 0x12C JUMP JUMPDEST DUP1 PUSH4 0x74A7DCE5 EQ PUSH2 0x28A JUMPI DUP1 PUSH4 0x8456CB59 EQ PUSH2 0x2A8 JUMPI DUP1 PUSH4 0x869EAC93 EQ PUSH2 0x2B2 JUMPI DUP1 PUSH4 0x91D14854 EQ PUSH2 0x2BC JUMPI DUP1 PUSH4 0xA217FDDF EQ PUSH2 0x2EC JUMPI PUSH2 0x12C JUMP JUMPDEST DUP1 PUSH4 0x34D131BF GT PUSH2 0xF4 JUMPI DUP1 PUSH4 0x34D131BF EQ PUSH2 0x1FA JUMPI DUP1 PUSH4 0x36568ABE EQ PUSH2 0x22A JUMPI DUP1 PUSH4 0x3F4BA83A EQ PUSH2 0x246 JUMPI DUP1 PUSH4 0x5C975ABB EQ PUSH2 0x250 JUMPI DUP1 PUSH4 0x6E810B1A EQ PUSH2 0x26E JUMPI PUSH2 0x12C JUMP JUMPDEST DUP1 PUSH4 0x1FFC9A7 EQ PUSH2 0x131 JUMPI DUP1 PUSH4 0x51E6CB1 EQ PUSH2 0x161 JUMPI DUP1 PUSH4 0x6FB46BA EQ PUSH2 0x17D JUMPI DUP1 PUSH4 0x248A9CA3 EQ PUSH2 0x1AE JUMPI DUP1 PUSH4 0x2F2FF15D EQ PUSH2 0x1DE JUMPI JUMPDEST PUSH1 0x0 DUP1 REVERT JUMPDEST PUSH2 0x14B PUSH1 0x4 DUP1 CALLDATASIZE SUB DUP2 ADD SWAP1 PUSH2 0x146 SWAP2 SWAP1 PUSH2 0x1FCF JUMP JUMPDEST PUSH2 0x39A JUMP JUMPDEST PUSH1 0x40 MLOAD PUSH2 0x158 SWAP2 SWAP1 PUSH2 0x2017 JUMP JUMPDEST PUSH1 0x40 MLOAD DUP1 SWAP2 SUB SWAP1 RETURN JUMPDEST PUSH2 0x17B PUSH1 0x4 DUP1 CALLDATASIZE SUB DUP2 ADD SWAP1 PUSH2 0x176 SWAP2 SWAP1 PUSH2 0x2068 JUMP JUMPDEST PUSH2 0x414 JUMP JUMPDEST STOP JUMPDEST PUSH2 0x197 PUSH1 0x4 DUP1 CALLDATASIZE SUB DUP2 ADD SWAP1 PUSH2 0x192 SWAP2 SWAP1 PUSH2 0x2095 JUMP JUMPDEST PUSH2 0x473 JUMP JUMPDEST PUSH1 0x40 MLOAD PUSH2 0x1A5 SWAP3 SWAP2 SWAP1 PUSH2 0x20E4 JUMP JUMPDEST PUSH1 0x40 MLOAD DUP1 SWAP2 SUB SWAP1 RETURN JUMPDEST PUSH2 0x1C8 PUSH1 0x4 DUP1 CALLDATASIZE SUB DUP2 ADD SWAP1 PUSH2 0x1C3 SWAP2 SWAP1 PUSH2 0x2143 JUMP JUMPDEST PUSH2 0x52E JUMP JUMPDEST PUSH1 0x40 MLOAD PUSH2 0x1D5 SWAP2 SWAP1 PUSH2 0x217F JUMP JUMPDEST PUSH1 0x40 MLOAD DUP1 SWAP2 SUB SWAP1 RETURN JUMPDEST PUSH2 0x1F8 PUSH1 0x4 DUP1 CALLDATASIZE SUB DUP2 ADD SWAP1 PUSH2 0x1F3 SWAP2 SWAP1 PUSH2 0x21F8 JUMP JUMPDEST PUSH2 0x54E JUMP JUMPDEST STOP JUMPDEST PUSH2 0x214 PUSH1 0x4 DUP1 CALLDATASIZE SUB DUP2 ADD SWAP1 PUSH2 0x20F SWAP2 SWAP1 PUSH2 0x2271 JUMP JUMPDEST PUSH2 0x56F JUMP JUMPDEST PUSH1 0x40 MLOAD PUSH2 0x221 SWAP2 SWAP1 PUSH2 0x2017 JUMP JUMPDEST PUSH1 0x40 MLOAD DUP1 SWAP2 SUB SWAP1 RETURN JUMPDEST PUSH2 0x244 PUSH1 0x4 DUP1 CALLDATASIZE SUB DUP2 ADD SWAP1 PUSH2 0x23F SWAP2 SWAP1 PUSH2 0x21F8 JUMP JUMPDEST PUSH2 0x8E9 JUMP JUMPDEST STOP JUMPDEST PUSH2 0x24E PUSH2 0x96C JUMP JUMPDEST STOP JUMPDEST PUSH2 0x258 PUSH2 0x9BD JUMP JUMPDEST PUSH1 0x40 MLOAD PUSH2 0x265 SWAP2 SWAP1 PUSH2 0x2017 JUMP JUMPDEST PUSH1 0x40 MLOAD DUP1 SWAP2 SUB SWAP1 RETURN JUMPDEST PUSH2 0x288 PUSH1 0x4 DUP1 CALLDATASIZE SUB DUP2 ADD SWAP1 PUSH2 0x283 SWAP2 SWAP1 PUSH2 0x22EC JUMP JUMPDEST PUSH2 0x9D4 JUMP JUMPDEST STOP JUMPDEST PUSH2 0x292 PUSH2 0xAF6 JUMP JUMPDEST PUSH1 0x40 MLOAD PUSH2 0x29F SWAP2 SWAP1 PUSH2 0x2319 JUMP JUMPDEST PUSH1 0x40 MLOAD DUP1 SWAP2 SUB SWAP1 RETURN JUMPDEST PUSH2 0x2B0 PUSH2 0xB00 JUMP JUMPDEST STOP JUMPDEST PUSH2 0x2BA PUSH2 0xB51 JUMP JUMPDEST STOP JUMPDEST PUSH2 0x2D6 PUSH1 0x4 DUP1 CALLDATASIZE SUB DUP2 ADD SWAP1 PUSH2 0x2D1 SWAP2 SWAP1 PUSH2 0x21F8 JUMP JUMPDEST PUSH2 0xDBA JUMP JUMPDEST PUSH1 0x40 MLOAD PUSH2 0x2E3 SWAP2 SWAP1 PUSH2 0x2017 JUMP JUMPDEST PUSH1 0x40 MLOAD DUP1 SWAP2 SUB SWAP1 RETURN JUMPDEST PUSH2 0x2F4 PUSH2 0xE25 JUMP JUMPDEST PUSH1 0x40 MLOAD PUSH2 0x301 SWAP2 SWAP1 PUSH2 0x217F JUMP JUMPDEST PUSH1 0x40 MLOAD DUP1 SWAP2 SUB SWAP1 RETURN JUMPDEST PUSH2 0x312 PUSH2 0xE2C JUMP JUMPDEST PUSH1 0x40 MLOAD PUSH2 0x31F SWAP2 SWAP1 PUSH2 0x2017 JUMP JUMPDEST PUSH1 0x40 MLOAD DUP1 SWAP2 SUB SWAP1 RETURN JUMPDEST PUSH2 0x342 PUSH1 0x4 DUP1 CALLDATASIZE SUB DUP2 ADD SWAP1 PUSH2 0x33D SWAP2 SWAP1 PUSH2 0x22EC JUMP JUMPDEST PUSH2 0xE4B JUMP JUMPDEST STOP JUMPDEST PUSH2 0x35E PUSH1 0x4 DUP1 CALLDATASIZE SUB DUP2 ADD SWAP1 PUSH2 0x359 SWAP2 SWAP1 PUSH2 0x21F8 JUMP JUMPDEST PUSH2 0xFEB JUMP JUMPDEST STOP JUMPDEST PUSH2 0x37A PUSH1 0x4 DUP1 CALLDATASIZE SUB DUP2 ADD SWAP1 PUSH2 0x375 SWAP2 SWAP1 PUSH2 0x2068 JUMP JUMPDEST PUSH2 0x100C JUMP JUMPDEST STOP JUMPDEST PUSH2 0x384 PUSH2 0x1077 JUMP JUMPDEST PUSH1 0x40 MLOAD PUSH2 0x391 SWAP2 SWAP1 PUSH2 0x2319 JUMP JUMPDEST PUSH1 0x40 MLOAD DUP1 SWAP2 SUB SWAP1 RETURN JUMPDEST PUSH1 0x0 PUSH32 0x7965DB0B00000000000000000000000000000000000000000000000000000000 PUSH28 0xFFFFFFFFFFFFFFFFFFFFFFFFFFFFFFFFFFFFFFFFFFFFFFFFFFFFFFFF NOT AND DUP3 PUSH28 0xFFFFFFFFFFFFFFFFFFFFFFFFFFFFFFFFFFFFFFFFFFFFFFFFFFFFFFFF NOT AND EQ DUP1 PUSH2 0x40D JUMPI POP PUSH2 0x40C DUP3 PUSH2 0x10A5 JUMP JUMPDEST JUMPDEST SWAP1 POP SWAP2 SWAP1 POP JUMP JUMPDEST PUSH2 0x41C PUSH2 0xE2C JUMP JUMPDEST PUSH2 0x45B JUMPI PUSH1 0x40 MLOAD PUSH32 0x8C379A000000000000000000000000000000000000000000000000000000000 DUP2 MSTORE PUSH1 0x4 ADD PUSH2 0x452 SWAP1 PUSH2 0x23B7 JUMP JUMPDEST PUSH1 0x40 MLOAD DUP1 SWAP2 SUB SWAP1 REVERT JUMPDEST PUSH3 0x15180 DUP2 PUSH2 0x46A SWAP2 SWAP1 PUSH2 0x2406 JUMP JUMPDEST PUSH1 0xFC DUP2 SWAP1 SSTORE POP POP JUMP JUMPDEST PUSH1 0x0 DUP1 PUSH1 0x0 PUSH1 0xFE SLOAD PUSH1 0xFD SLOAD PUSH2 0x488 SWAP2 SWAP1 PUSH2 0x2406 JUMP JUMPDEST SWAP1 POP PUSH1 0x0 PUSH8 0xDE0B6B3A7640000 DUP6 PUSH2 0x4A0 SWAP2 SWAP1 PUSH2 0x2460 JUMP JUMPDEST DUP7 PUSH2 0x4AB SWAP2 SWAP1 PUSH2 0x2494 JUMP JUMPDEST SWAP1 POP PUSH1 0x0 PUSH8 0xDE0B6B3A7640000 PUSH1 0x2 DUP4 DUP6 PUSH2 0x4C6 SWAP2 SWAP1 PUSH2 0x2406 JUMP JUMPDEST PUSH2 0x4D0 SWAP2 SWAP1 PUSH2 0x24F7 JUMP JUMPDEST PUSH2 0x4DA SWAP2 SWAP1 PUSH2 0x24F7 JUMP JUMPDEST SWAP1 POP PUSH1 0x0 DUP2 PUSH1 0xFF SLOAD PUSH2 0x4EC SWAP2 SWAP1 PUSH2 0x2494 JUMP JUMPDEST SWAP1 POP PUSH1 0x0 PUSH8 0xDE0B6B3A7640000 DUP10 DUP10 PUSH2 0x505 SWAP2 SWAP1 PUSH2 0x2460 JUMP JUMPDEST DUP4 PUSH2 0x510 SWAP2 SWAP1 PUSH2 0x2406 JUMP JUMPDEST PUSH2 0x51A SWAP2 SWAP1 PUSH2 0x24F7 JUMP JUMPDEST SWAP1 POP DUP2 DUP2 SWAP7 POP SWAP7 POP POP POP POP POP POP SWAP3 POP SWAP3 SWAP1 POP JUMP JUMPDEST PUSH1 0x0 PUSH1 0x97 PUSH1 0x0 DUP4 DUP2 MSTORE PUSH1 0x20 ADD SWAP1 DUP2 MSTORE PUSH1 0x20 ADD PUSH1 0x0 KECCAK256 PUSH1 0x1 ADD SLOAD SWAP1 POP SWAP2 SWAP1 POP JUMP JUMPDEST PUSH2 0x557 DUP3 PUSH2 0x52E JUMP JUMPDEST PUSH2 0x560 DUP2 PUSH2 0x110F JUMP JUMPDEST PUSH2 0x56A DUP4 DUP4 PUSH2 0x1123 JUMP JUMPDEST POP POP POP JUMP JUMPDEST PUSH1 0x0 PUSH2 0x579 PUSH2 0x1204 JUMP JUMPDEST PUSH1 0x1 ISZERO ISZERO PUSH2 0x585 PUSH2 0x9BD JUMP JUMPDEST ISZERO ISZERO EQ ISZERO DUP1 ISZERO PUSH2 0x62B JUMPI POP PUSH1 0x1 ISZERO ISZERO PUSH2 0x100 PUSH1 0x0 SWAP1 SLOAD SWAP1 PUSH2 0x100 EXP SWAP1 DIV PUSH20 0xFFFFFFFFFFFFFFFFFFFFFFFFFFFFFFFFFFFFFFFF AND PUSH20 0xFFFFFFFFFFFFFFFFFFFFFFFFFFFFFFFFFFFFFFFF AND PUSH4 0xB187BD26 PUSH1 0x40 MLOAD DUP2 PUSH4 0xFFFFFFFF AND PUSH1 0xE0 SHL DUP2 MSTORE PUSH1 0x4 ADD PUSH1 0x20 PUSH1 0x40 MLOAD DUP1 DUP4 SUB DUP2 DUP7 GAS STATICCALL ISZERO DUP1 ISZERO PUSH2 0x602 JUMPI RETURNDATASIZE PUSH1 0x0 DUP1 RETURNDATACOPY RETURNDATASIZE PUSH1 0x0 REVERT JUMPDEST POP POP POP POP PUSH1 0x40 MLOAD RETURNDATASIZE PUSH1 0x1F NOT PUSH1 0x1F DUP3 ADD AND DUP3 ADD DUP1 PUSH1 0x40 MSTORE POP DUP2 ADD SWAP1 PUSH2 0x626 SWAP2 SWAP1 PUSH2 0x2554 JUMP JUMPDEST ISZERO ISZERO EQ ISZERO JUMPDEST PUSH2 0x634 JUMPI PUSH1 0x0 DUP1 REVERT JUMPDEST PUSH8 0xDE0B6B3A7640000 DUP7 LT ISZERO PUSH2 0x676 JUMPI PUSH1 0x40 MLOAD PUSH32 0x8FACB45E00000000000000000000000000000000000000000000000000000000 DUP2 MSTORE PUSH1 0x4 ADD PUSH1 0x40 MLOAD DUP1 SWAP2 SUB SWAP1 REVERT JUMPDEST PUSH2 0x7080 PUSH1 0xFC PUSH1 0x0 DUP3 DUP3 SLOAD PUSH2 0x68A SWAP2 SWAP1 PUSH2 0x2494 JUMP JUMPDEST SWAP3 POP POP DUP2 SWAP1 SSTORE POP PUSH1 0x0 PUSH2 0x6AC PUSH1 0xFB SLOAD DUP9 PUSH1 0xFB SLOAD PUSH2 0x6A7 SWAP2 SWAP1 PUSH2 0x2494 JUMP JUMPDEST PUSH2 0x473 JUMP JUMPDEST SWAP2 POP POP PUSH32 0x0 PUSH20 0xFFFFFFFFFFFFFFFFFFFFFFFFFFFFFFFFFFFFFFFF AND PUSH4 0x70A08231 PUSH2 0x6F3 PUSH2 0x1253 JUMP JUMPDEST PUSH1 0x40 MLOAD DUP3 PUSH4 0xFFFFFFFF AND PUSH1 0xE0 SHL DUP2 MSTORE PUSH1 0x4 ADD PUSH2 0x70F SWAP2 SWAP1 PUSH2 0x2590 JUMP JUMPDEST PUSH1 0x20 PUSH1 0x40 MLOAD DUP1 DUP4 SUB DUP2 DUP7 GAS STATICCALL ISZERO DUP1 ISZERO PUSH2 0x72C JUMPI RETURNDATASIZE PUSH1 0x0 DUP1 RETURNDATACOPY RETURNDATASIZE PUSH1 0x0 REVERT JUMPDEST POP POP POP POP PUSH1 0x40 MLOAD RETURNDATASIZE PUSH1 0x1F NOT PUSH1 0x1F DUP3 ADD AND DUP3 ADD DUP1 PUSH1 0x40 MSTORE POP DUP2 ADD SWAP1 PUSH2 0x750 SWAP2 SWAP1 PUSH2 0x25C0 JUMP JUMPDEST DUP2 GT ISZERO PUSH2 0x789 JUMPI PUSH1 0x40 MLOAD PUSH32 0x2B2CCE3F00000000000000000000000000000000000000000000000000000000 DUP2 MSTORE PUSH1 0x4 ADD PUSH1 0x40 MLOAD DUP1 SWAP2 SUB SWAP1 REVERT JUMPDEST PUSH1 0x0 PUSH2 0x101 PUSH1 0x0 PUSH2 0x798 PUSH2 0x1253 JUMP JUMPDEST PUSH20 0xFFFFFFFFFFFFFFFFFFFFFFFFFFFFFFFFFFFFFFFF AND PUSH20 0xFFFFFFFFFFFFFFFFFFFFFFFFFFFFFFFFFFFFFFFF AND DUP2 MSTORE PUSH1 0x20 ADD SWAP1 DUP2 MSTORE PUSH1 0x20 ADD PUSH1 0x0 KECCAK256 SWAP1 POP DUP8 DUP2 PUSH1 0x1 ADD PUSH1 0x0 DUP3 DUP3 SLOAD PUSH2 0x7E8 SWAP2 SWAP1 PUSH2 0x2494 JUMP JUMPDEST SWAP3 POP POP DUP2 SWAP1 SSTORE POP PUSH1 0x1 DUP2 PUSH1 0x0 ADD PUSH1 0x0 PUSH2 0x100 EXP DUP2 SLOAD DUP2 PUSH1 0xFF MUL NOT AND SWAP1 DUP4 ISZERO ISZERO MUL OR SWAP1 SSTORE POP PUSH1 0xFC SLOAD TIMESTAMP PUSH2 0x81A SWAP2 SWAP1 PUSH2 0x2494 JUMP JUMPDEST DUP2 PUSH1 0x2 ADD DUP2 SWAP1 SSTORE POP PUSH2 0x87E PUSH2 0x82D PUSH2 0x1253 JUMP JUMPDEST ADDRESS DUP5 DUP11 DUP11 DUP11 DUP11 PUSH32 0x0 PUSH20 0xFFFFFFFFFFFFFFFFFFFFFFFFFFFFFFFFFFFFFFFF AND PUSH2 0x125B SWAP1 SWAP8 SWAP7 SWAP6 SWAP5 SWAP4 SWAP3 SWAP2 SWAP1 PUSH4 0xFFFFFFFF AND JUMP JUMPDEST PUSH2 0x8D2 PUSH2 0x889 PUSH2 0x1253 JUMP JUMPDEST ADDRESS DUP5 PUSH32 0x0 PUSH20 0xFFFFFFFFFFFFFFFFFFFFFFFFFFFFFFFFFFFFFFFF AND PUSH2 0x1428 SWAP1 SWAP4 SWAP3 SWAP2 SWAP1 PUSH4 0xFFFFFFFF AND JUMP JUMPDEST PUSH1 0x1 SWAP3 POP POP POP PUSH2 0x8E0 PUSH2 0x14B1 JUMP JUMPDEST SWAP6 SWAP5 POP POP POP POP POP JUMP JUMPDEST PUSH2 0x8F1 PUSH2 0x1253 JUMP JUMPDEST PUSH20 0xFFFFFFFFFFFFFFFFFFFFFFFFFFFFFFFFFFFFFFFF AND DUP2 PUSH20 0xFFFFFFFFFFFFFFFFFFFFFFFFFFFFFFFFFFFFFFFF AND EQ PUSH2 0x95E JUMPI PUSH1 0x40 MLOAD PUSH32 0x8C379A000000000000000000000000000000000000000000000000000000000 DUP2 MSTORE PUSH1 0x4 ADD PUSH2 0x955 SWAP1 PUSH2 0x265F JUMP JUMPDEST PUSH1 0x40 MLOAD DUP1 SWAP2 SUB SWAP1 REVERT JUMPDEST PUSH2 0x968 DUP3 DUP3 PUSH2 0x14BB JUMP JUMPDEST POP POP JUMP JUMPDEST PUSH2 0x974 PUSH2 0xE2C JUMP JUMPDEST PUSH2 0x9B3 JUMPI PUSH1 0x40 MLOAD PUSH32 0x8C379A000000000000000000000000000000000000000000000000000000000 DUP2 MSTORE PUSH1 0x4 ADD PUSH2 0x9AA SWAP1 PUSH2 0x23B7 JUMP JUMPDEST PUSH1 0x40 MLOAD DUP1 SWAP2 SUB SWAP1 REVERT JUMPDEST PUSH2 0x9BB PUSH2 0x159D JUMP JUMPDEST JUMP JUMPDEST PUSH1 0x0 PUSH1 0x33 PUSH1 0x0 SWAP1 SLOAD SWAP1 PUSH2 0x100 EXP SWAP1 DIV PUSH1 0xFF AND SWAP1 POP SWAP1 JUMP JUMPDEST PUSH1 0x0 PUSH1 0x1 SWAP1 SLOAD SWAP1 PUSH2 0x100 EXP SWAP1 DIV PUSH1 0xFF AND PUSH2 0xA23 JUMPI PUSH1 0x40 MLOAD PUSH32 0x8C379A000000000000000000000000000000000000000000000000000000000 DUP2 MSTORE PUSH1 0x4 ADD PUSH2 0xA1A SWAP1 PUSH2 0x26F1 JUMP JUMPDEST PUSH1 0x40 MLOAD DUP1 SWAP2 SUB SWAP1 REVERT JUMPDEST PUSH1 0x0 PUSH20 0xFFFFFFFFFFFFFFFFFFFFFFFFFFFFFFFFFFFFFFFF AND DUP2 PUSH20 0xFFFFFFFFFFFFFFFFFFFFFFFFFFFFFFFFFFFFFFFF AND SUB PUSH2 0xA89 JUMPI PUSH1 0x40 MLOAD PUSH32 0x5415139400000000000000000000000000000000000000000000000000000000 DUP2 MSTORE PUSH1 0x4 ADD PUSH1 0x40 MLOAD DUP1 SWAP2 SUB SWAP1 REVERT JUMPDEST PUSH2 0xA91 PUSH2 0x1600 JUMP JUMPDEST PUSH2 0xA99 PUSH2 0x1659 JUMP JUMPDEST PUSH2 0xAA1 PUSH2 0x16AA JUMP JUMPDEST PUSH2 0xAB2 PUSH2 0xAAC PUSH2 0x1703 JUMP JUMPDEST DUP3 PUSH2 0x1123 JUMP JUMPDEST PUSH2 0xAC3 PUSH2 0xABD PUSH2 0x172B JUMP JUMPDEST DUP3 PUSH2 0x1123 JUMP JUMPDEST PUSH2 0xADB PUSH2 0xACE PUSH2 0x172B JUMP JUMPDEST PUSH2 0xAD6 PUSH2 0x1703 JUMP JUMPDEST PUSH2 0x1753 JUMP JUMPDEST PUSH2 0xAF3 PUSH2 0xAE6 PUSH2 0x1703 JUMP JUMPDEST PUSH2 0xAEE PUSH2 0x1703 JUMP JUMPDEST PUSH2 0x1753 JUMP JUMPDEST POP JUMP JUMPDEST PUSH1 0x0 PUSH1 0xFB SLOAD SWAP1 POP SWAP1 JUMP JUMPDEST PUSH2 0xB08 PUSH2 0xE2C JUMP JUMPDEST PUSH2 0xB47 JUMPI PUSH1 0x40 MLOAD PUSH32 0x8C379A000000000000000000000000000000000000000000000000000000000 DUP2 MSTORE PUSH1 0x4 ADD PUSH2 0xB3E SWAP1 PUSH2 0x23B7 JUMP JUMPDEST PUSH1 0x40 MLOAD DUP1 SWAP2 SUB SWAP1 REVERT JUMPDEST PUSH2 0xB4F PUSH2 0x17AF JUMP JUMPDEST JUMP JUMPDEST PUSH2 0x101 PUSH1 0x0 PUSH2 0xB5E PUSH2 0x1253 JUMP JUMPDEST PUSH20 0xFFFFFFFFFFFFFFFFFFFFFFFFFFFFFFFFFFFFFFFF AND PUSH20 0xFFFFFFFFFFFFFFFFFFFFFFFFFFFFFFFFFFFFFFFF AND DUP2 MSTORE PUSH1 0x20 ADD SWAP1 DUP2 MSTORE PUSH1 0x20 ADD PUSH1 0x0 KECCAK256 PUSH1 0x0 ADD PUSH1 0x0 SWAP1 SLOAD SWAP1 PUSH2 0x100 EXP SWAP1 DIV PUSH1 0xFF AND PUSH2 0xBDF JUMPI PUSH1 0x40 MLOAD PUSH32 0x23D1E2CB00000000000000000000000000000000000000000000000000000000 DUP2 MSTORE PUSH1 0x4 ADD PUSH1 0x40 MLOAD DUP1 SWAP2 SUB SWAP1 REVERT JUMPDEST TIMESTAMP PUSH2 0x101 PUSH1 0x0 PUSH2 0xBED PUSH2 0x1253 JUMP JUMPDEST PUSH20 0xFFFFFFFFFFFFFFFFFFFFFFFFFFFFFFFFFFFFFFFF AND PUSH20 0xFFFFFFFFFFFFFFFFFFFFFFFFFFFFFFFFFFFFFFFF AND DUP2 MSTORE PUSH1 0x20 ADD SWAP1 DUP2 MSTORE PUSH1 0x20 ADD PUSH1 0x0 KECCAK256 PUSH1 0x2 ADD SLOAD GT ISZERO PUSH2 0xC63 JUMPI PUSH1 0x40 MLOAD PUSH32 0x23D1E2CB00000000000000000000000000000000000000000000000000000000 DUP2 MSTORE PUSH1 0x4 ADD PUSH1 0x40 MLOAD DUP1 SWAP2 SUB SWAP1 REVERT JUMPDEST PUSH1 0x0 PUSH2 0x101 PUSH1 0x0 PUSH2 0xC72 PUSH2 0x1253 JUMP JUMPDEST PUSH20 0xFFFFFFFFFFFFFFFFFFFFFFFFFFFFFFFFFFFFFFFF AND PUSH20 0xFFFFFFFFFFFFFFFFFFFFFFFFFFFFFFFFFFFFFFFF AND DUP2 MSTORE PUSH1 0x20 ADD SWAP1 DUP2 MSTORE PUSH1 0x20 ADD PUSH1 0x0 KECCAK256 PUSH1 0x1 ADD SLOAD SWAP1 POP PUSH1 0x0 PUSH2 0x101 PUSH1 0x0 PUSH2 0xCC1 PUSH2 0x1253 JUMP JUMPDEST PUSH20 0xFFFFFFFFFFFFFFFFFFFFFFFFFFFFFFFFFFFFFFFF AND PUSH20 0xFFFFFFFFFFFFFFFFFFFFFFFFFFFFFFFFFFFFFFFF AND DUP2 MSTORE PUSH1 0x20 ADD SWAP1 DUP2 MSTORE PUSH1 0x20 ADD PUSH1 0x0 KECCAK256 PUSH1 0x0 ADD PUSH1 0x0 PUSH2 0x100 EXP DUP2 SLOAD DUP2 PUSH1 0xFF MUL NOT AND SWAP1 DUP4 ISZERO ISZERO MUL OR SWAP1 SSTORE POP PUSH1 0x0 PUSH2 0x101 PUSH1 0x0 PUSH2 0xD24 PUSH2 0x1253 JUMP JUMPDEST PUSH20 0xFFFFFFFFFFFFFFFFFFFFFFFFFFFFFFFFFFFFFFFF AND PUSH20 0xFFFFFFFFFFFFFFFFFFFFFFFFFFFFFFFFFFFFFFFF AND DUP2 MSTORE PUSH1 0x20 ADD SWAP1 DUP2 MSTORE PUSH1 0x20 ADD PUSH1 0x0 KECCAK256 PUSH1 0x1 ADD DUP2 SWAP1 SSTORE POP PUSH2 0xDB7 PUSH2 0xD70 PUSH2 0x1253 JUMP JUMPDEST DUP3 PUSH32 0x0 PUSH20 0xFFFFFFFFFFFFFFFFFFFFFFFFFFFFFFFFFFFFFFFF AND PUSH2 0x1812 SWAP1 SWAP3 SWAP2 SWAP1 PUSH4 0xFFFFFFFF AND JUMP JUMPDEST POP JUMP JUMPDEST PUSH1 0x0 PUSH1 0x97 PUSH1 0x0 DUP5 DUP2 MSTORE PUSH1 0x20 ADD SWAP1 DUP2 MSTORE PUSH1 0x20 ADD PUSH1 0x0 KECCAK256 PUSH1 0x0 ADD PUSH1 0x0 DUP4 PUSH20 0xFFFFFFFFFFFFFFFFFFFFFFFFFFFFFFFFFFFFFFFF AND PUSH20 0xFFFFFFFFFFFFFFFFFFFFFFFFFFFFFFFFFFFFFFFF AND DUP2 MSTORE PUSH1 0x20 ADD SWAP1 DUP2 MSTORE PUSH1 0x20 ADD PUSH1 0x0 KECCAK256 PUSH1 0x0 SWAP1 SLOAD SWAP1 PUSH2 0x100 EXP SWAP1 DIV PUSH1 0xFF AND SWAP1 POP SWAP3 SWAP2 POP POP JUMP JUMPDEST PUSH1 0x0 DUP1 SHL DUP2 JUMP JUMPDEST PUSH1 0x0 PUSH2 0xE46 PUSH2 0xE39 PUSH2 0x1703 JUMP JUMPDEST PUSH2 0xE41 PUSH2 0x1253 JUMP JUMPDEST PUSH2 0xDBA JUMP JUMPDEST SWAP1 POP SWAP1 JUMP JUMPDEST PUSH1 0x0 DUP1 PUSH1 0x1 SWAP1 SLOAD SWAP1 PUSH2 0x100 EXP SWAP1 DIV PUSH1 0xFF AND ISZERO SWAP1 POP DUP1 DUP1 ISZERO PUSH2 0xE7C JUMPI POP PUSH1 0x1 PUSH1 0x0 DUP1 SLOAD SWAP1 PUSH2 0x100 EXP SWAP1 DIV PUSH1 0xFF AND PUSH1 0xFF AND LT JUMPDEST DUP1 PUSH2 0xEA9 JUMPI POP PUSH2 0xE8B ADDRESS PUSH2 0x1898 JUMP JUMPDEST ISZERO DUP1 ISZERO PUSH2 0xEA8 JUMPI POP PUSH1 0x1 PUSH1 0x0 DUP1 SLOAD SWAP1 PUSH2 0x100 EXP SWAP1 DIV PUSH1 0xFF AND PUSH1 0xFF AND EQ JUMPDEST JUMPDEST PUSH2 0xEE8 JUMPI PUSH1 0x40 MLOAD PUSH32 0x8C379A000000000000000000000000000000000000000000000000000000000 DUP2 MSTORE PUSH1 0x4 ADD PUSH2 0xEDF SWAP1 PUSH2 0x2783 JUMP JUMPDEST PUSH1 0x40 MLOAD DUP1 SWAP2 SUB SWAP1 REVERT JUMPDEST PUSH1 0x1 PUSH1 0x0 DUP1 PUSH2 0x100 EXP DUP2 SLOAD DUP2 PUSH1 0xFF MUL NOT AND SWAP1 DUP4 PUSH1 0xFF AND MUL OR SWAP1 SSTORE POP DUP1 ISZERO PUSH2 0xF25 JUMPI PUSH1 0x1 PUSH1 0x0 PUSH1 0x1 PUSH2 0x100 EXP DUP2 SLOAD DUP2 PUSH1 0xFF MUL NOT AND SWAP1 DUP4 ISZERO ISZERO MUL OR SWAP1 SSTORE POP JUMPDEST PUSH1 0x1 PUSH1 0xFE DUP2 SWAP1 SSTORE POP PUSH8 0xDE0B6B3A7640000 PUSH1 0xFF DUP2 SWAP1 SSTORE POP DUP2 PUSH2 0x100 PUSH1 0x0 PUSH2 0x100 EXP DUP2 SLOAD DUP2 PUSH20 0xFFFFFFFFFFFFFFFFFFFFFFFFFFFFFFFFFFFFFFFF MUL NOT AND SWAP1 DUP4 PUSH20 0xFFFFFFFFFFFFFFFFFFFFFFFFFFFFFFFFFFFFFFFF AND MUL OR SWAP1 SSTORE POP PUSH2 0xF8E PUSH2 0xF89 PUSH2 0x1253 JUMP JUMPDEST PUSH2 0x9D4 JUMP JUMPDEST DUP1 ISZERO PUSH2 0xFE7 JUMPI PUSH1 0x0 DUP1 PUSH1 0x1 PUSH2 0x100 EXP DUP2 SLOAD DUP2 PUSH1 0xFF MUL NOT AND SWAP1 DUP4 ISZERO ISZERO MUL OR SWAP1 SSTORE POP PUSH32 0x7F26B83FF96E1F2B6A682F133852F6798A09C465DA95921460CEFB3847402498 PUSH1 0x1 PUSH1 0x40 MLOAD PUSH2 0xFDE SWAP2 SWAP1 PUSH2 0x27E8 JUMP JUMPDEST PUSH1 0x40 MLOAD DUP1 SWAP2 SUB SWAP1 LOG1 JUMPDEST POP POP JUMP JUMPDEST PUSH2 0xFF4 DUP3 PUSH2 0x52E JUMP JUMPDEST PUSH2 0xFFD DUP2 PUSH2 0x110F JUMP JUMPDEST PUSH2 0x1007 DUP4 DUP4 PUSH2 0x14BB JUMP JUMPDEST POP POP POP JUMP JUMPDEST PUSH2 0x1014 PUSH2 0xE2C JUMP JUMPDEST PUSH2 0x1053 JUMPI PUSH1 0x40 MLOAD PUSH32 0x8C379A000000000000000000000000000000000000000000000000000000000 DUP2 MSTORE PUSH1 0x4 ADD PUSH2 0x104A SWAP1 PUSH2 0x23B7 JUMP JUMPDEST PUSH1 0x40 MLOAD DUP1 SWAP2 SUB SWAP1 REVERT JUMPDEST DUP1 PUSH1 0xFE DUP2 SWAP1 SSTORE POP PUSH8 0xDE0B6B3A7640000 DUP2 PUSH2 0x106E SWAP2 SWAP1 PUSH2 0x2406 JUMP JUMPDEST PUSH1 0xFF DUP2 SWAP1 SSTORE POP POP JUMP JUMPDEST PUSH1 0x0 DUP1 PUSH2 0x109B PUSH1 0xFB SLOAD PUSH8 0xDE0B6B3A7640000 PUSH1 0xFB SLOAD PUSH2 0x1096 SWAP2 SWAP1 PUSH2 0x2494 JUMP JUMPDEST PUSH2 0x473 JUMP JUMPDEST POP SWAP1 POP DUP1 SWAP2 POP POP SWAP1 JUMP JUMPDEST PUSH1 0x0 PUSH32 0x1FFC9A700000000000000000000000000000000000000000000000000000000 PUSH28 0xFFFFFFFFFFFFFFFFFFFFFFFFFFFFFFFFFFFFFFFFFFFFFFFFFFFFFFFF NOT AND DUP3 PUSH28 0xFFFFFFFFFFFFFFFFFFFFFFFFFFFFFFFFFFFFFFFFFFFFFFFFFFFFFFFF NOT AND EQ SWAP1 POP SWAP2 SWAP1 POP JUMP JUMPDEST PUSH2 0x1120 DUP2 PUSH2 0x111B PUSH2 0x1253 JUMP JUMPDEST PUSH2 0x18BB JUMP JUMPDEST POP JUMP JUMPDEST PUSH2 0x112D DUP3 DUP3 PUSH2 0xDBA JUMP JUMPDEST PUSH2 0x1200 JUMPI PUSH1 0x1 PUSH1 0x97 PUSH1 0x0 DUP5 DUP2 MSTORE PUSH1 0x20 ADD SWAP1 DUP2 MSTORE PUSH1 0x20 ADD PUSH1 0x0 KECCAK256 PUSH1 0x0 ADD PUSH1 0x0 DUP4 PUSH20 0xFFFFFFFFFFFFFFFFFFFFFFFFFFFFFFFFFFFFFFFF AND PUSH20 0xFFFFFFFFFFFFFFFFFFFFFFFFFFFFFFFFFFFFFFFF AND DUP2 MSTORE PUSH1 0x20 ADD SWAP1 DUP2 MSTORE PUSH1 0x20 ADD PUSH1 0x0 KECCAK256 PUSH1 0x0 PUSH2 0x100 EXP DUP2 SLOAD DUP2 PUSH1 0xFF MUL NOT AND SWAP1 DUP4 ISZERO ISZERO MUL OR SWAP1 SSTORE POP PUSH2 0x11A5 PUSH2 0x1253 JUMP JUMPDEST PUSH20 0xFFFFFFFFFFFFFFFFFFFFFFFFFFFFFFFFFFFFFFFF AND DUP2 PUSH20 0xFFFFFFFFFFFFFFFFFFFFFFFFFFFFFFFFFFFFFFFF AND DUP4 PUSH32 0x2F8788117E7EFF1D82E926EC794901D17C78024A50270940304540A733656F0D PUSH1 0x40 MLOAD PUSH1 0x40 MLOAD DUP1 SWAP2 SUB SWAP1 LOG4 JUMPDEST POP POP JUMP JUMPDEST PUSH1 0x2 PUSH1 0xC9 SLOAD SUB PUSH2 0x1249 JUMPI PUSH1 0x40 MLOAD PUSH32 0x8C379A000000000000000000000000000000000000000000000000000000000 DUP2 MSTORE PUSH1 0x4 ADD PUSH2 0x1240 SWAP1 PUSH2 0x284F JUMP JUMPDEST PUSH1 0x40 MLOAD DUP1 SWAP2 SUB SWAP1 REVERT JUMPDEST PUSH1 0x2 PUSH1 0xC9 DUP2 SWAP1 SSTORE POP JUMP JUMPDEST PUSH1 0x0 CALLER SWAP1 POP SWAP1 JUMP JUMPDEST PUSH1 0x0 DUP9 PUSH20 0xFFFFFFFFFFFFFFFFFFFFFFFFFFFFFFFFFFFFFFFF AND PUSH4 0x7ECEBE00 DUP10 PUSH1 0x40 MLOAD DUP3 PUSH4 0xFFFFFFFF AND PUSH1 0xE0 SHL DUP2 MSTORE PUSH1 0x4 ADD PUSH2 0x1296 SWAP2 SWAP1 PUSH2 0x2590 JUMP JUMPDEST PUSH1 0x20 PUSH1 0x40 MLOAD DUP1 DUP4 SUB DUP2 DUP7 GAS STATICCALL ISZERO DUP1 ISZERO PUSH2 0x12B3 JUMPI RETURNDATASIZE PUSH1 0x0 DUP1 RETURNDATACOPY RETURNDATASIZE PUSH1 0x0 REVERT JUMPDEST POP POP POP POP PUSH1 0x40 MLOAD RETURNDATASIZE PUSH1 0x1F NOT PUSH1 0x1F DUP3 ADD AND DUP3 ADD DUP1 PUSH1 0x40 MSTORE POP DUP2 ADD SWAP1 PUSH2 0x12D7 SWAP2 SWAP1 PUSH2 0x25C0 JUMP JUMPDEST SWAP1 POP DUP9 PUSH20 0xFFFFFFFFFFFFFFFFFFFFFFFFFFFFFFFFFFFFFFFF AND PUSH4 0xD505ACCF DUP10 DUP10 DUP10 DUP10 DUP10 DUP10 DUP10 PUSH1 0x40 MLOAD DUP9 PUSH4 0xFFFFFFFF AND PUSH1 0xE0 SHL DUP2 MSTORE PUSH1 0x4 ADD PUSH2 0x131E SWAP8 SWAP7 SWAP6 SWAP5 SWAP4 SWAP3 SWAP2 SWAP1 PUSH2 0x287E JUMP JUMPDEST PUSH1 0x0 PUSH1 0x40 MLOAD DUP1 DUP4 SUB DUP2 PUSH1 0x0 DUP8 DUP1 EXTCODESIZE ISZERO DUP1 ISZERO PUSH2 0x1338 JUMPI PUSH1 0x0 DUP1 REVERT JUMPDEST POP GAS CALL ISZERO DUP1 ISZERO PUSH2 0x134C JUMPI RETURNDATASIZE PUSH1 0x0 DUP1 RETURNDATACOPY RETURNDATASIZE PUSH1 0x0 REVERT JUMPDEST POP POP POP POP PUSH1 0x0 DUP10 PUSH20 0xFFFFFFFFFFFFFFFFFFFFFFFFFFFFFFFFFFFFFFFF AND PUSH4 0x7ECEBE00 DUP11 PUSH1 0x40 MLOAD DUP3 PUSH4 0xFFFFFFFF AND PUSH1 0xE0 SHL DUP2 MSTORE PUSH1 0x4 ADD PUSH2 0x138B SWAP2 SWAP1 PUSH2 0x2590 JUMP JUMPDEST PUSH1 0x20 PUSH1 0x40 MLOAD DUP1 DUP4 SUB DUP2 DUP7 GAS STATICCALL ISZERO DUP1 ISZERO PUSH2 0x13A8 JUMPI RETURNDATASIZE PUSH1 0x0 DUP1 RETURNDATACOPY RETURNDATASIZE PUSH1 0x0 REVERT JUMPDEST POP POP POP POP PUSH1 0x40 MLOAD RETURNDATASIZE PUSH1 0x1F NOT PUSH1 0x1F DUP3 ADD AND DUP3 ADD DUP1 PUSH1 0x40 MSTORE POP DUP2 ADD SWAP1 PUSH2 0x13CC SWAP2 SWAP1 PUSH2 0x25C0 JUMP JUMPDEST SWAP1 POP PUSH1 0x1 DUP3 PUSH2 0x13DB SWAP2 SWAP1 PUSH2 0x2494 JUMP JUMPDEST DUP2 EQ PUSH2 0x141C JUMPI PUSH1 0x40 MLOAD PUSH32 0x8C379A000000000000000000000000000000000000000000000000000000000 DUP2 MSTORE PUSH1 0x4 ADD PUSH2 0x1413 SWAP1 PUSH2 0x295F JUMP JUMPDEST PUSH1 0x40 MLOAD DUP1 SWAP2 SUB SWAP1 REVERT JUMPDEST POP POP POP POP POP POP POP POP POP POP JUMP JUMPDEST PUSH2 0x14AB DUP5 PUSH4 0x23B872DD PUSH1 0xE0 SHL DUP6 DUP6 DUP6 PUSH1 0x40 MLOAD PUSH1 0x24 ADD PUSH2 0x1449 SWAP4 SWAP3 SWAP2 SWAP1 PUSH2 0x297F JUMP JUMPDEST PUSH1 0x40 MLOAD PUSH1 0x20 DUP2 DUP4 SUB SUB DUP2 MSTORE SWAP1 PUSH1 0x40 MSTORE SWAP1 PUSH28 0xFFFFFFFFFFFFFFFFFFFFFFFFFFFFFFFFFFFFFFFFFFFFFFFFFFFFFFFF NOT AND PUSH1 0x20 DUP3 ADD DUP1 MLOAD PUSH28 0xFFFFFFFFFFFFFFFFFFFFFFFFFFFFFFFFFFFFFFFFFFFFFFFFFFFFFFFF DUP4 DUP2 DUP4 AND OR DUP4 MSTORE POP POP POP POP PUSH2 0x1940 JUMP JUMPDEST POP POP POP POP JUMP JUMPDEST PUSH1 0x1 PUSH1 0xC9 DUP2 SWAP1 SSTORE POP JUMP JUMPDEST PUSH2 0x14C5 DUP3 DUP3 PUSH2 0xDBA JUMP JUMPDEST ISZERO PUSH2 0x1599 JUMPI PUSH1 0x0 PUSH1 0x97 PUSH1 0x0 DUP5 DUP2 MSTORE PUSH1 0x20 ADD SWAP1 DUP2 MSTORE PUSH1 0x20 ADD PUSH1 0x0 KECCAK256 PUSH1 0x0 ADD PUSH1 0x0 DUP4 PUSH20 0xFFFFFFFFFFFFFFFFFFFFFFFFFFFFFFFFFFFFFFFF AND PUSH20 0xFFFFFFFFFFFFFFFFFFFFFFFFFFFFFFFFFFFFFFFF AND DUP2 MSTORE PUSH1 0x20 ADD SWAP1 DUP2 MSTORE PUSH1 0x20 ADD PUSH1 0x0 KECCAK256 PUSH1 0x0 PUSH2 0x100 EXP DUP2 SLOAD DUP2 PUSH1 0xFF MUL NOT AND SWAP1 DUP4 ISZERO ISZERO MUL OR SWAP1 SSTORE POP PUSH2 0x153E PUSH2 0x1253 JUMP JUMPDEST PUSH20 0xFFFFFFFFFFFFFFFFFFFFFFFFFFFFFFFFFFFFFFFF AND DUP2 PUSH20 0xFFFFFFFFFFFFFFFFFFFFFFFFFFFFFFFFFFFFFFFF AND DUP4 PUSH32 0xF6391F5C32D9C69D2A47EA670B442974B53935D1EDC7FD64EB21E047A839171B PUSH1 0x40 MLOAD PUSH1 0x40 MLOAD DUP1 SWAP2 SUB SWAP1 LOG4 JUMPDEST POP POP JUMP JUMPDEST PUSH2 0x15A5 PUSH2 0x1A07 JUMP JUMPDEST PUSH1 0x0 PUSH1 0x33 PUSH1 0x0 PUSH2 0x100 EXP DUP2 SLOAD DUP2 PUSH1 0xFF MUL NOT AND SWAP1 DUP4 ISZERO ISZERO MUL OR SWAP1 SSTORE POP PUSH32 0x5DB9EE0A495BF2E6FF9C91A7834C1BA4FDD244A5E8AA4E537BD38AEAE4B073AA PUSH2 0x15E9 PUSH2 0x1253 JUMP JUMPDEST PUSH1 0x40 MLOAD PUSH2 0x15F6 SWAP2 SWAP1 PUSH2 0x2590 JUMP JUMPDEST PUSH1 0x40 MLOAD DUP1 SWAP2 SUB SWAP1 LOG1 JUMP JUMPDEST PUSH1 0x0 PUSH1 0x1 SWAP1 SLOAD SWAP1 PUSH2 0x100 EXP SWAP1 DIV PUSH1 0xFF AND PUSH2 0x164F JUMPI PUSH1 0x40 MLOAD PUSH32 0x8C379A000000000000000000000000000000000000000000000000000000000 DUP2 MSTORE PUSH1 0x4 ADD PUSH2 0x1646 SWAP1 PUSH2 0x26F1 JUMP JUMPDEST PUSH1 0x40 MLOAD DUP1 SWAP2 SUB SWAP1 REVERT JUMPDEST PUSH2 0x1657 PUSH2 0x1A50 JUMP JUMPDEST JUMP JUMPDEST PUSH1 0x0 PUSH1 0x1 SWAP1 SLOAD SWAP1 PUSH2 0x100 EXP SWAP1 DIV PUSH1 0xFF AND PUSH2 0x16A8 JUMPI PUSH1 0x40 MLOAD PUSH32 0x8C379A000000000000000000000000000000000000000000000000000000000 DUP2 MSTORE PUSH1 0x4 ADD PUSH2 0x169F SWAP1 PUSH2 0x26F1 JUMP JUMPDEST PUSH1 0x40 MLOAD DUP1 SWAP2 SUB SWAP1 REVERT JUMPDEST JUMP JUMPDEST PUSH1 0x0 PUSH1 0x1 SWAP1 SLOAD SWAP1 PUSH2 0x100 EXP SWAP1 DIV PUSH1 0xFF AND PUSH2 0x16F9 JUMPI PUSH1 0x40 MLOAD PUSH32 0x8C379A000000000000000000000000000000000000000000000000000000000 DUP2 MSTORE PUSH1 0x4 ADD PUSH2 0x16F0 SWAP1 PUSH2 0x26F1 JUMP JUMPDEST PUSH1 0x40 MLOAD DUP1 SWAP2 SUB SWAP1 REVERT JUMPDEST PUSH2 0x1701 PUSH2 0x1ABC JUMP JUMPDEST JUMP JUMPDEST PUSH1 0x0 PUSH32 0xA49807205CE4D355092EF5A8A18F56E8913CF4A201FBE287825B095693C21775 SWAP1 POP SWAP1 JUMP JUMPDEST PUSH1 0x0 PUSH32 0x65D7A28E3265B37A6474929F336521B332C1681B933F6CB9F3376673440D862A SWAP1 POP SWAP1 JUMP JUMPDEST PUSH1 0x0 PUSH2 0x175E DUP4 PUSH2 0x52E JUMP JUMPDEST SWAP1 POP DUP2 PUSH1 0x97 PUSH1 0x0 DUP6 DUP2 MSTORE PUSH1 0x20 ADD SWAP1 DUP2 MSTORE PUSH1 0x20 ADD PUSH1 0x0 KECCAK256 PUSH1 0x1 ADD DUP2 SWAP1 SSTORE POP DUP2 DUP2 DUP5 PUSH32 0xBD79B86FFE0AB8E8776151514217CD7CACD52C909F66475C3AF44E129F0B00FF PUSH1 0x40 MLOAD PUSH1 0x40 MLOAD DUP1 SWAP2 SUB SWAP1 LOG4 POP POP POP JUMP JUMPDEST PUSH2 0x17B7 PUSH2 0x1B15 JUMP JUMPDEST PUSH1 0x1 PUSH1 0x33 PUSH1 0x0 PUSH2 0x100 EXP DUP2 SLOAD DUP2 PUSH1 0xFF MUL NOT AND SWAP1 DUP4 ISZERO ISZERO MUL OR SWAP1 SSTORE POP PUSH32 0x62E78CEA01BEE320CD4E420270B5EA74000D11B0C9F74754EBDBFC544B05A258 PUSH2 0x17FB PUSH2 0x1253 JUMP JUMPDEST PUSH1 0x40 MLOAD PUSH2 0x1808 SWAP2 SWAP1 PUSH2 0x2590 JUMP JUMPDEST PUSH1 0x40 MLOAD DUP1 SWAP2 SUB SWAP1 LOG1 JUMP JUMPDEST PUSH2 0x1893 DUP4 PUSH4 0xA9059CBB PUSH1 0xE0 SHL DUP5 DUP5 PUSH1 0x40 MLOAD PUSH1 0x24 ADD PUSH2 0x1831 SWAP3 SWAP2 SWAP1 PUSH2 0x29B6 JUMP JUMPDEST PUSH1 0x40 MLOAD PUSH1 0x20 DUP2 DUP4 SUB SUB DUP2 MSTORE SWAP1 PUSH1 0x40 MSTORE SWAP1 PUSH28 0xFFFFFFFFFFFFFFFFFFFFFFFFFFFFFFFFFFFFFFFFFFFFFFFFFFFFFFFF NOT AND PUSH1 0x20 DUP3 ADD DUP1 MLOAD PUSH28 0xFFFFFFFFFFFFFFFFFFFFFFFFFFFFFFFFFFFFFFFFFFFFFFFFFFFFFFFF DUP4 DUP2 DUP4 AND OR DUP4 MSTORE POP POP POP POP PUSH2 0x1940 JUMP JUMPDEST POP POP POP JUMP JUMPDEST PUSH1 0x0 DUP1 DUP3 PUSH20 0xFFFFFFFFFFFFFFFFFFFFFFFFFFFFFFFFFFFFFFFF AND EXTCODESIZE GT SWAP1 POP SWAP2 SWAP1 POP JUMP JUMPDEST PUSH2 0x18C5 DUP3 DUP3 PUSH2 0xDBA JUMP JUMPDEST PUSH2 0x193C JUMPI PUSH2 0x18D2 DUP2 PUSH2 0x1B5F JUMP JUMPDEST PUSH2 0x18E0 DUP4 PUSH1 0x0 SHR PUSH1 0x20 PUSH2 0x1B8C JUMP JUMPDEST PUSH1 0x40 MLOAD PUSH1 0x20 ADD PUSH2 0x18F1 SWAP3 SWAP2 SWAP1 PUSH2 0x2AE8 JUMP JUMPDEST PUSH1 0x40 MLOAD PUSH1 0x20 DUP2 DUP4 SUB SUB DUP2 MSTORE SWAP1 PUSH1 0x40 MSTORE PUSH1 0x40 MLOAD PUSH32 0x8C379A000000000000000000000000000000000000000000000000000000000 DUP2 MSTORE PUSH1 0x4 ADD PUSH2 0x1933 SWAP2 SWAP1 PUSH2 0x2B6C JUMP JUMPDEST PUSH1 0x40 MLOAD DUP1 SWAP2 SUB SWAP1 REVERT JUMPDEST POP POP JUMP JUMPDEST PUSH1 0x0 PUSH2 0x19A2 DUP3 PUSH1 0x40 MLOAD DUP1 PUSH1 0x40 ADD PUSH1 0x40 MSTORE DUP1 PUSH1 0x20 DUP2 MSTORE PUSH1 0x20 ADD PUSH32 0x5361666545524332303A206C6F772D6C6576656C2063616C6C206661696C6564 DUP2 MSTORE POP DUP6 PUSH20 0xFFFFFFFFFFFFFFFFFFFFFFFFFFFFFFFFFFFFFFFF AND PUSH2 0x1DC8 SWAP1 SWAP3 SWAP2 SWAP1 PUSH4 0xFFFFFFFF AND JUMP JUMPDEST SWAP1 POP PUSH1 0x0 DUP2 MLOAD GT ISZERO PUSH2 0x1A02 JUMPI DUP1 DUP1 PUSH1 0x20 ADD SWAP1 MLOAD DUP2 ADD SWAP1 PUSH2 0x19C2 SWAP2 SWAP1 PUSH2 0x2554 JUMP JUMPDEST PUSH2 0x1A01 JUMPI PUSH1 0x40 MLOAD PUSH32 0x8C379A000000000000000000000000000000000000000000000000000000000 DUP2 MSTORE PUSH1 0x4 ADD PUSH2 0x19F8 SWAP1 PUSH2 0x2C00 JUMP JUMPDEST PUSH1 0x40 MLOAD DUP1 SWAP2 SUB SWAP1 REVERT JUMPDEST JUMPDEST POP POP POP JUMP JUMPDEST PUSH2 0x1A0F PUSH2 0x9BD JUMP JUMPDEST PUSH2 0x1A4E JUMPI PUSH1 0x40 MLOAD PUSH32 0x8C379A000000000000000000000000000000000000000000000000000000000 DUP2 MSTORE PUSH1 0x4 ADD PUSH2 0x1A45 SWAP1 PUSH2 0x2C6C JUMP JUMPDEST PUSH1 0x40 MLOAD DUP1 SWAP2 SUB SWAP1 REVERT JUMPDEST JUMP JUMPDEST PUSH1 0x0 PUSH1 0x1 SWAP1 SLOAD SWAP1 PUSH2 0x100 EXP SWAP1 DIV PUSH1 0xFF AND PUSH2 0x1A9F JUMPI PUSH1 0x40 MLOAD PUSH32 0x8C379A000000000000000000000000000000000000000000000000000000000 DUP2 MSTORE PUSH1 0x4 ADD PUSH2 0x1A96 SWAP1 PUSH2 0x26F1 JUMP JUMPDEST PUSH1 0x40 MLOAD DUP1 SWAP2 SUB SWAP1 REVERT JUMPDEST PUSH1 0x0 PUSH1 0x33 PUSH1 0x0 PUSH2 0x100 EXP DUP2 SLOAD DUP2 PUSH1 0xFF MUL NOT AND SWAP1 DUP4 ISZERO ISZERO MUL OR SWAP1 SSTORE POP JUMP JUMPDEST PUSH1 0x0 PUSH1 0x1 SWAP1 SLOAD SWAP1 PUSH2 0x100 EXP SWAP1 DIV PUSH1 0xFF AND PUSH2 0x1B0B JUMPI PUSH1 0x40 MLOAD PUSH32 0x8C379A000000000000000000000000000000000000000000000000000000000 DUP2 MSTORE PUSH1 0x4 ADD PUSH2 0x1B02 SWAP1 PUSH2 0x26F1 JUMP JUMPDEST PUSH1 0x40 MLOAD DUP1 SWAP2 SUB SWAP1 REVERT JUMPDEST PUSH1 0x1 PUSH1 0xC9 DUP2 SWAP1 SSTORE POP JUMP JUMPDEST PUSH2 0x1B1D PUSH2 0x9BD JUMP JUMPDEST ISZERO PUSH2 0x1B5D JUMPI PUSH1 0x40 MLOAD PUSH32 0x8C379A000000000000000000000000000000000000000000000000000000000 DUP2 MSTORE PUSH1 0x4 ADD PUSH2 0x1B54 SWAP1 PUSH2 0x2CD8 JUMP JUMPDEST PUSH1 0x40 MLOAD DUP1 SWAP2 SUB SWAP1 REVERT JUMPDEST JUMP JUMPDEST PUSH1 0x60 PUSH2 0x1B85 DUP3 PUSH20 0xFFFFFFFFFFFFFFFFFFFFFFFFFFFFFFFFFFFFFFFF AND PUSH1 0x14 PUSH1 0xFF AND PUSH2 0x1B8C JUMP JUMPDEST SWAP1 POP SWAP2 SWAP1 POP JUMP JUMPDEST PUSH1 0x60 PUSH1 0x0 PUSH1 0x2 DUP4 PUSH1 0x2 PUSH2 0x1B9F SWAP2 SWAP1 PUSH2 0x2406 JUMP JUMPDEST PUSH2 0x1BA9 SWAP2 SWAP1 PUSH2 0x2494 JUMP JUMPDEST PUSH8 0xFFFFFFFFFFFFFFFF DUP2 GT ISZERO PUSH2 0x1BC2 JUMPI PUSH2 0x1BC1 PUSH2 0x2CF8 JUMP JUMPDEST JUMPDEST PUSH1 0x40 MLOAD SWAP1 DUP1 DUP3 MSTORE DUP1 PUSH1 0x1F ADD PUSH1 0x1F NOT AND PUSH1 0x20 ADD DUP3 ADD PUSH1 0x40 MSTORE DUP1 ISZERO PUSH2 0x1BF4 JUMPI DUP2 PUSH1 0x20 ADD PUSH1 0x1 DUP3 MUL DUP1 CALLDATASIZE DUP4 CALLDATACOPY DUP1 DUP3 ADD SWAP2 POP POP SWAP1 POP JUMPDEST POP SWAP1 POP PUSH32 0x3000000000000000000000000000000000000000000000000000000000000000 DUP2 PUSH1 0x0 DUP2 MLOAD DUP2 LT PUSH2 0x1C2C JUMPI PUSH2 0x1C2B PUSH2 0x2D27 JUMP JUMPDEST JUMPDEST PUSH1 0x20 ADD ADD SWAP1 PUSH31 0xFFFFFFFFFFFFFFFFFFFFFFFFFFFFFFFFFFFFFFFFFFFFFFFFFFFFFFFFFFFFFF NOT AND SWAP1 DUP2 PUSH1 0x0 BYTE SWAP1 MSTORE8 POP PUSH32 0x7800000000000000000000000000000000000000000000000000000000000000 DUP2 PUSH1 0x1 DUP2 MLOAD DUP2 LT PUSH2 0x1C90 JUMPI PUSH2 0x1C8F PUSH2 0x2D27 JUMP JUMPDEST JUMPDEST PUSH1 0x20 ADD ADD SWAP1 PUSH31 0xFFFFFFFFFFFFFFFFFFFFFFFFFFFFFFFFFFFFFFFFFFFFFFFFFFFFFFFFFFFFFF NOT AND SWAP1 DUP2 PUSH1 0x0 BYTE SWAP1 MSTORE8 POP PUSH1 0x0 PUSH1 0x1 DUP5 PUSH1 0x2 PUSH2 0x1CD0 SWAP2 SWAP1 PUSH2 0x2406 JUMP JUMPDEST PUSH2 0x1CDA SWAP2 SWAP1 PUSH2 0x2494 JUMP JUMPDEST SWAP1 POP JUMPDEST PUSH1 0x1 DUP2 GT ISZERO PUSH2 0x1D7A JUMPI PUSH32 0x3031323334353637383961626364656600000000000000000000000000000000 PUSH1 0xF DUP7 AND PUSH1 0x10 DUP2 LT PUSH2 0x1D1C JUMPI PUSH2 0x1D1B PUSH2 0x2D27 JUMP JUMPDEST JUMPDEST BYTE PUSH1 0xF8 SHL DUP3 DUP3 DUP2 MLOAD DUP2 LT PUSH2 0x1D33 JUMPI PUSH2 0x1D32 PUSH2 0x2D27 JUMP JUMPDEST JUMPDEST PUSH1 0x20 ADD ADD SWAP1 PUSH31 0xFFFFFFFFFFFFFFFFFFFFFFFFFFFFFFFFFFFFFFFFFFFFFFFFFFFFFFFFFFFFFF NOT AND SWAP1 DUP2 PUSH1 0x0 BYTE SWAP1 MSTORE8 POP PUSH1 0x4 DUP6 SWAP1 SHR SWAP5 POP DUP1 PUSH2 0x1D73 SWAP1 PUSH2 0x2D56 JUMP JUMPDEST SWAP1 POP PUSH2 0x1CDD JUMP JUMPDEST POP PUSH1 0x0 DUP5 EQ PUSH2 0x1DBE JUMPI PUSH1 0x40 MLOAD PUSH32 0x8C379A000000000000000000000000000000000000000000000000000000000 DUP2 MSTORE PUSH1 0x4 ADD PUSH2 0x1DB5 SWAP1 PUSH2 0x2DCB JUMP JUMPDEST PUSH1 0x40 MLOAD DUP1 SWAP2 SUB SWAP1 REVERT JUMPDEST DUP1 SWAP2 POP POP SWAP3 SWAP2 POP POP JUMP JUMPDEST PUSH1 0x60 PUSH2 0x1DD7 DUP5 DUP5 PUSH1 0x0 DUP6 PUSH2 0x1DE0 JUMP JUMPDEST SWAP1 POP SWAP4 SWAP3 POP POP POP JUMP JUMPDEST PUSH1 0x60 DUP3 SELFBALANCE LT ISZERO PUSH2 0x1E25 JUMPI PUSH1 0x40 MLOAD PUSH32 0x8C379A000000000000000000000000000000000000000000000000000000000 DUP2 MSTORE PUSH1 0x4 ADD PUSH2 0x1E1C SWAP1 PUSH2 0x2E5D JUMP JUMPDEST PUSH1 0x40 MLOAD DUP1 SWAP2 SUB SWAP1 REVERT JUMPDEST PUSH1 0x0 DUP1 DUP7 PUSH20 0xFFFFFFFFFFFFFFFFFFFFFFFFFFFFFFFFFFFFFFFF AND DUP6 DUP8 PUSH1 0x40 MLOAD PUSH2 0x1E4E SWAP2 SWAP1 PUSH2 0x2EC4 JUMP JUMPDEST PUSH1 0x0 PUSH1 0x40 MLOAD DUP1 DUP4 SUB DUP2 DUP6 DUP8 GAS CALL SWAP3 POP POP POP RETURNDATASIZE DUP1 PUSH1 0x0 DUP2 EQ PUSH2 0x1E8B JUMPI PUSH1 0x40 MLOAD SWAP2 POP PUSH1 0x1F NOT PUSH1 0x3F RETURNDATASIZE ADD AND DUP3 ADD PUSH1 0x40 MSTORE RETURNDATASIZE DUP3 MSTORE RETURNDATASIZE PUSH1 0x0 PUSH1 0x20 DUP5 ADD RETURNDATACOPY PUSH2 0x1E90 JUMP JUMPDEST PUSH1 0x60 SWAP2 POP JUMPDEST POP SWAP2 POP SWAP2 POP PUSH2 0x1EA1 DUP8 DUP4 DUP4 DUP8 PUSH2 0x1EAD JUMP JUMPDEST SWAP3 POP POP POP SWAP5 SWAP4 POP POP POP POP JUMP JUMPDEST PUSH1 0x60 DUP4 ISZERO PUSH2 0x1F0F JUMPI PUSH1 0x0 DUP4 MLOAD SUB PUSH2 0x1F07 JUMPI PUSH2 0x1EC7 DUP6 PUSH2 0x1898 JUMP JUMPDEST PUSH2 0x1F06 JUMPI PUSH1 0x40 MLOAD PUSH32 0x8C379A000000000000000000000000000000000000000000000000000000000 DUP2 MSTORE PUSH1 0x4 ADD PUSH2 0x1EFD SWAP1 PUSH2 0x2F27 JUMP JUMPDEST PUSH1 0x40 MLOAD DUP1 SWAP2 SUB SWAP1 REVERT JUMPDEST JUMPDEST DUP3 SWAP1 POP PUSH2 0x1F1A JUMP JUMPDEST PUSH2 0x1F19 DUP4 DUP4 PUSH2 0x1F22 JUMP JUMPDEST JUMPDEST SWAP5 SWAP4 POP POP POP POP JUMP JUMPDEST PUSH1 0x0 DUP3 MLOAD GT ISZERO PUSH2 0x1F35 JUMPI DUP2 MLOAD DUP1 DUP4 PUSH1 0x20 ADD REVERT JUMPDEST DUP1 PUSH1 0x40 MLOAD PUSH32 0x8C379A000000000000000000000000000000000000000000000000000000000 DUP2 MSTORE PUSH1 0x4 ADD PUSH2 0x1F69 SWAP2 SWAP1 PUSH2 0x2B6C JUMP JUMPDEST PUSH1 0x40 MLOAD DUP1 SWAP2 SUB SWAP1 REVERT JUMPDEST PUSH1 0x0 DUP1 REVERT JUMPDEST PUSH1 0x0 PUSH32 0xFFFFFFFF00000000000000000000000000000000000000000000000000000000 DUP3 AND SWAP1 POP SWAP2 SWAP1 POP JUMP JUMPDEST PUSH2 0x1FAC DUP2 PUSH2 0x1F77 JUMP JUMPDEST DUP2 EQ PUSH2 0x1FB7 JUMPI PUSH1 0x0 DUP1 REVERT JUMPDEST POP JUMP JUMPDEST PUSH1 0x0 DUP2 CALLDATALOAD SWAP1 POP PUSH2 0x1FC9 DUP2 PUSH2 0x1FA3 JUMP JUMPDEST SWAP3 SWAP2 POP POP JUMP JUMPDEST PUSH1 0x0 PUSH1 0x20 DUP3 DUP5 SUB SLT ISZERO PUSH2 0x1FE5 JUMPI PUSH2 0x1FE4 PUSH2 0x1F72 JUMP JUMPDEST JUMPDEST PUSH1 0x0 PUSH2 0x1FF3 DUP5 DUP3 DUP6 ADD PUSH2 0x1FBA JUMP JUMPDEST SWAP2 POP POP SWAP3 SWAP2 POP POP JUMP JUMPDEST PUSH1 0x0 DUP2 ISZERO ISZERO SWAP1 POP SWAP2 SWAP1 POP JUMP JUMPDEST PUSH2 0x2011 DUP2 PUSH2 0x1FFC JUMP JUMPDEST DUP3 MSTORE POP POP JUMP JUMPDEST PUSH1 0x0 PUSH1 0x20 DUP3 ADD SWAP1 POP PUSH2 0x202C PUSH1 0x0 DUP4 ADD DUP5 PUSH2 0x2008 JUMP JUMPDEST SWAP3 SWAP2 POP POP JUMP JUMPDEST PUSH1 0x0 DUP2 SWAP1 POP SWAP2 SWAP1 POP JUMP JUMPDEST PUSH2 0x2045 DUP2 PUSH2 0x2032 JUMP JUMPDEST DUP2 EQ PUSH2 0x2050 JUMPI PUSH1 0x0 DUP1 REVERT JUMPDEST POP JUMP JUMPDEST PUSH1 0x0 DUP2 CALLDATALOAD SWAP1 POP PUSH2 0x2062 DUP2 PUSH2 0x203C JUMP JUMPDEST SWAP3 SWAP2 POP POP JUMP JUMPDEST PUSH1 0x0 PUSH1 0x20 DUP3 DUP5 SUB SLT ISZERO PUSH2 0x207E JUMPI PUSH2 0x207D PUSH2 0x1F72 JUMP JUMPDEST JUMPDEST PUSH1 0x0 PUSH2 0x208C DUP5 DUP3 DUP6 ADD PUSH2 0x2053 JUMP JUMPDEST SWAP2 POP POP SWAP3 SWAP2 POP POP JUMP JUMPDEST PUSH1 0x0 DUP1 PUSH1 0x40 DUP4 DUP6 SUB SLT ISZERO PUSH2 0x20AC JUMPI PUSH2 0x20AB PUSH2 0x1F72 JUMP JUMPDEST JUMPDEST PUSH1 0x0 PUSH2 0x20BA DUP6 DUP3 DUP7 ADD PUSH2 0x2053 JUMP JUMPDEST SWAP3 POP POP PUSH1 0x20 PUSH2 0x20CB DUP6 DUP3 DUP7 ADD PUSH2 0x2053 JUMP JUMPDEST SWAP2 POP POP SWAP3 POP SWAP3 SWAP1 POP JUMP JUMPDEST PUSH2 0x20DE DUP2 PUSH2 0x2032 JUMP JUMPDEST DUP3 MSTORE POP POP JUMP JUMPDEST PUSH1 0x0 PUSH1 0x40 DUP3 ADD SWAP1 POP PUSH2 0x20F9 PUSH1 0x0 DUP4 ADD DUP6 PUSH2 0x20D5 JUMP JUMPDEST PUSH2 0x2106 PUSH1 0x20 DUP4 ADD DUP5 PUSH2 0x20D5 JUMP JUMPDEST SWAP4 SWAP3 POP POP POP JUMP JUMPDEST PUSH1 0x0 DUP2 SWAP1 POP SWAP2 SWAP1 POP JUMP JUMPDEST PUSH2 0x2120 DUP2 PUSH2 0x210D JUMP JUMPDEST DUP2 EQ PUSH2 0x212B JUMPI PUSH1 0x0 DUP1 REVERT JUMPDEST POP JUMP JUMPDEST PUSH1 0x0 DUP2 CALLDATALOAD SWAP1 POP PUSH2 0x213D DUP2 PUSH2 0x2117 JUMP JUMPDEST SWAP3 SWAP2 POP POP JUMP JUMPDEST PUSH1 0x0 PUSH1 0x20 DUP3 DUP5 SUB SLT ISZERO PUSH2 0x2159 JUMPI PUSH2 0x2158 PUSH2 0x1F72 JUMP JUMPDEST JUMPDEST PUSH1 0x0 PUSH2 0x2167 DUP5 DUP3 DUP6 ADD PUSH2 0x212E JUMP JUMPDEST SWAP2 POP POP SWAP3 SWAP2 POP POP JUMP JUMPDEST PUSH2 0x2179 DUP2 PUSH2 0x210D JUMP JUMPDEST DUP3 MSTORE POP POP JUMP JUMPDEST PUSH1 0x0 PUSH1 0x20 DUP3 ADD SWAP1 POP PUSH2 0x2194 PUSH1 0x0 DUP4 ADD DUP5 PUSH2 0x2170 JUMP JUMPDEST SWAP3 SWAP2 POP POP JUMP JUMPDEST PUSH1 0x0 PUSH20 0xFFFFFFFFFFFFFFFFFFFFFFFFFFFFFFFFFFFFFFFF DUP3 AND SWAP1 POP SWAP2 SWAP1 POP JUMP JUMPDEST PUSH1 0x0 PUSH2 0x21C5 DUP3 PUSH2 0x219A JUMP JUMPDEST SWAP1 POP SWAP2 SWAP1 POP JUMP JUMPDEST PUSH2 0x21D5 DUP2 PUSH2 0x21BA JUMP JUMPDEST DUP2 EQ PUSH2 0x21E0 JUMPI PUSH1 0x0 DUP1 REVERT JUMPDEST POP JUMP JUMPDEST PUSH1 0x0 DUP2 CALLDATALOAD SWAP1 POP PUSH2 0x21F2 DUP2 PUSH2 0x21CC JUMP JUMPDEST SWAP3 SWAP2 POP POP JUMP JUMPDEST PUSH1 0x0 DUP1 PUSH1 0x40 DUP4 DUP6 SUB SLT ISZERO PUSH2 0x220F JUMPI PUSH2 0x220E PUSH2 0x1F72 JUMP JUMPDEST JUMPDEST PUSH1 0x0 PUSH2 0x221D DUP6 DUP3 DUP7 ADD PUSH2 0x212E JUMP JUMPDEST SWAP3 POP POP PUSH1 0x20 PUSH2 0x222E DUP6 DUP3 DUP7 ADD PUSH2 0x21E3 JUMP JUMPDEST SWAP2 POP POP SWAP3 POP SWAP3 SWAP1 POP JUMP JUMPDEST PUSH1 0x0 PUSH1 0xFF DUP3 AND SWAP1 POP SWAP2 SWAP1 POP JUMP JUMPDEST PUSH2 0x224E DUP2 PUSH2 0x2238 JUMP JUMPDEST DUP2 EQ PUSH2 0x2259 JUMPI PUSH1 0x0 DUP1 REVERT JUMPDEST POP JUMP JUMPDEST PUSH1 0x0 DUP2 CALLDATALOAD SWAP1 POP PUSH2 0x226B DUP2 PUSH2 0x2245 JUMP JUMPDEST SWAP3 SWAP2 POP POP JUMP JUMPDEST PUSH1 0x0 DUP1 PUSH1 0x0 DUP1 PUSH1 0x0 PUSH1 0xA0 DUP7 DUP9 SUB SLT ISZERO PUSH2 0x228D JUMPI PUSH2 0x228C PUSH2 0x1F72 JUMP JUMPDEST JUMPDEST PUSH1 0x0 PUSH2 0x229B DUP9 DUP3 DUP10 ADD PUSH2 0x2053 JUMP JUMPDEST SWAP6 POP POP PUSH1 0x20 PUSH2 0x22AC DUP9 DUP3 DUP10 ADD PUSH2 0x2053 JUMP JUMPDEST SWAP5 POP POP PUSH1 0x40 PUSH2 0x22BD DUP9 DUP3 DUP10 ADD PUSH2 0x225C JUMP JUMPDEST SWAP4 POP POP PUSH1 0x60 PUSH2 0x22CE DUP9 DUP3 DUP10 ADD PUSH2 0x212E JUMP JUMPDEST SWAP3 POP POP PUSH1 0x80 PUSH2 0x22DF DUP9 DUP3 DUP10 ADD PUSH2 0x212E JUMP JUMPDEST SWAP2 POP POP SWAP3 SWAP6 POP SWAP3 SWAP6 SWAP1 SWAP4 POP JUMP JUMPDEST PUSH1 0x0 PUSH1 0x20 DUP3 DUP5 SUB SLT ISZERO PUSH2 0x2302 JUMPI PUSH2 0x2301 PUSH2 0x1F72 JUMP JUMPDEST JUMPDEST PUSH1 0x0 PUSH2 0x2310 DUP5 DUP3 DUP6 ADD PUSH2 0x21E3 JUMP JUMPDEST SWAP2 POP POP SWAP3 SWAP2 POP POP JUMP JUMPDEST PUSH1 0x0 PUSH1 0x20 DUP3 ADD SWAP1 POP PUSH2 0x232E PUSH1 0x0 DUP4 ADD DUP5 PUSH2 0x20D5 JUMP JUMPDEST SWAP3 SWAP2 POP POP JUMP JUMPDEST PUSH1 0x0 DUP3 DUP3 MSTORE PUSH1 0x20 DUP3 ADD SWAP1 POP SWAP3 SWAP2 POP POP JUMP JUMPDEST PUSH32 0x4D75737420686176652061646D696E20726F6C6520746F20706572666F726D20 PUSH1 0x0 DUP3 ADD MSTORE PUSH32 0x7468697320616374696F6E2E0000000000000000000000000000000000000000 PUSH1 0x20 DUP3 ADD MSTORE POP JUMP JUMPDEST PUSH1 0x0 PUSH2 0x23A1 PUSH1 0x2C DUP4 PUSH2 0x2334 JUMP JUMPDEST SWAP2 POP PUSH2 0x23AC DUP3 PUSH2 0x2345 JUMP JUMPDEST PUSH1 0x40 DUP3 ADD SWAP1 POP SWAP2 SWAP1 POP JUMP JUMPDEST PUSH1 0x0 PUSH1 0x20 DUP3 ADD SWAP1 POP DUP2 DUP2 SUB PUSH1 0x0 DUP4 ADD MSTORE PUSH2 0x23D0 DUP2 PUSH2 0x2394 JUMP JUMPDEST SWAP1 POP SWAP2 SWAP1 POP JUMP JUMPDEST PUSH32 0x4E487B7100000000000000000000000000000000000000000000000000000000 PUSH1 0x0 MSTORE PUSH1 0x11 PUSH1 0x4 MSTORE PUSH1 0x24 PUSH1 0x0 REVERT JUMPDEST PUSH1 0x0 PUSH2 0x2411 DUP3 PUSH2 0x2032 JUMP JUMPDEST SWAP2 POP PUSH2 0x241C DUP4 PUSH2 0x2032 JUMP JUMPDEST SWAP3 POP DUP2 PUSH32 0xFFFFFFFFFFFFFFFFFFFFFFFFFFFFFFFFFFFFFFFFFFFFFFFFFFFFFFFFFFFFFFFF DIV DUP4 GT DUP3 ISZERO ISZERO AND ISZERO PUSH2 0x2455 JUMPI PUSH2 0x2454 PUSH2 0x23D7 JUMP JUMPDEST JUMPDEST DUP3 DUP3 MUL SWAP1 POP SWAP3 SWAP2 POP POP JUMP JUMPDEST PUSH1 0x0 PUSH2 0x246B DUP3 PUSH2 0x2032 JUMP JUMPDEST SWAP2 POP PUSH2 0x2476 DUP4 PUSH2 0x2032 JUMP JUMPDEST SWAP3 POP DUP3 DUP3 SUB SWAP1 POP DUP2 DUP2 GT ISZERO PUSH2 0x248E JUMPI PUSH2 0x248D PUSH2 0x23D7 JUMP JUMPDEST JUMPDEST SWAP3 SWAP2 POP POP JUMP JUMPDEST PUSH1 0x0 PUSH2 0x249F DUP3 PUSH2 0x2032 JUMP JUMPDEST SWAP2 POP PUSH2 0x24AA DUP4 PUSH2 0x2032 JUMP JUMPDEST SWAP3 POP DUP3 DUP3 ADD SWAP1 POP DUP1 DUP3 GT ISZERO PUSH2 0x24C2 JUMPI PUSH2 0x24C1 PUSH2 0x23D7 JUMP JUMPDEST JUMPDEST SWAP3 SWAP2 POP POP JUMP JUMPDEST PUSH32 0x4E487B7100000000000000000000000000000000000000000000000000000000 PUSH1 0x0 MSTORE PUSH1 0x12 PUSH1 0x4 MSTORE PUSH1 0x24 PUSH1 0x0 REVERT JUMPDEST PUSH1 0x0 PUSH2 0x2502 DUP3 PUSH2 0x2032 JUMP JUMPDEST SWAP2 POP PUSH2 0x250D DUP4 PUSH2 0x2032 JUMP JUMPDEST SWAP3 POP DUP3 PUSH2 0x251D JUMPI PUSH2 0x251C PUSH2 0x24C8 JUMP JUMPDEST JUMPDEST DUP3 DUP3 DIV SWAP1 POP SWAP3 SWAP2 POP POP JUMP JUMPDEST PUSH2 0x2531 DUP2 PUSH2 0x1FFC JUMP JUMPDEST DUP2 EQ PUSH2 0x253C JUMPI PUSH1 0x0 DUP1 REVERT JUMPDEST POP JUMP JUMPDEST PUSH1 0x0 DUP2 MLOAD SWAP1 POP PUSH2 0x254E DUP2 PUSH2 0x2528 JUMP JUMPDEST SWAP3 SWAP2 POP POP JUMP JUMPDEST PUSH1 0x0 PUSH1 0x20 DUP3 DUP5 SUB SLT ISZERO PUSH2 0x256A JUMPI PUSH2 0x2569 PUSH2 0x1F72 JUMP JUMPDEST JUMPDEST PUSH1 0x0 PUSH2 0x2578 DUP5 DUP3 DUP6 ADD PUSH2 0x253F JUMP JUMPDEST SWAP2 POP POP SWAP3 SWAP2 POP POP JUMP JUMPDEST PUSH2 0x258A DUP2 PUSH2 0x21BA JUMP JUMPDEST DUP3 MSTORE POP POP JUMP JUMPDEST PUSH1 0x0 PUSH1 0x20 DUP3 ADD SWAP1 POP PUSH2 0x25A5 PUSH1 0x0 DUP4 ADD DUP5 PUSH2 0x2581 JUMP JUMPDEST SWAP3 SWAP2 POP POP JUMP JUMPDEST PUSH1 0x0 DUP2 MLOAD SWAP1 POP PUSH2 0x25BA DUP2 PUSH2 0x203C JUMP JUMPDEST SWAP3 SWAP2 POP POP JUMP JUMPDEST PUSH1 0x0 PUSH1 0x20 DUP3 DUP5 SUB SLT ISZERO PUSH2 0x25D6 JUMPI PUSH2 0x25D5 PUSH2 0x1F72 JUMP JUMPDEST JUMPDEST PUSH1 0x0 PUSH2 0x25E4 DUP5 DUP3 DUP6 ADD PUSH2 0x25AB JUMP JUMPDEST SWAP2 POP POP SWAP3 SWAP2 POP POP JUMP JUMPDEST PUSH32 0x416363657373436F6E74726F6C3A2063616E206F6E6C792072656E6F756E6365 PUSH1 0x0 DUP3 ADD MSTORE PUSH32 0x20726F6C657320666F722073656C660000000000000000000000000000000000 PUSH1 0x20 DUP3 ADD MSTORE POP JUMP JUMPDEST PUSH1 0x0 PUSH2 0x2649 PUSH1 0x2F DUP4 PUSH2 0x2334 JUMP JUMPDEST SWAP2 POP PUSH2 0x2654 DUP3 PUSH2 0x25ED JUMP JUMPDEST PUSH1 0x40 DUP3 ADD SWAP1 POP SWAP2 SWAP1 POP JUMP JUMPDEST PUSH1 0x0 PUSH1 0x20 DUP3 ADD SWAP1 POP DUP2 DUP2 SUB PUSH1 0x0 DUP4 ADD MSTORE PUSH2 0x2678 DUP2 PUSH2 0x263C JUMP JUMPDEST SWAP1 POP SWAP2 SWAP1 POP JUMP JUMPDEST PUSH32 0x496E697469616C697A61626C653A20636F6E7472616374206973206E6F742069 PUSH1 0x0 DUP3 ADD MSTORE PUSH32 0x6E697469616C697A696E67000000000000000000000000000000000000000000 PUSH1 0x20 DUP3 ADD MSTORE POP JUMP JUMPDEST PUSH1 0x0 PUSH2 0x26DB PUSH1 0x2B DUP4 PUSH2 0x2334 JUMP JUMPDEST SWAP2 POP PUSH2 0x26E6 DUP3 PUSH2 0x267F JUMP JUMPDEST PUSH1 0x40 DUP3 ADD SWAP1 POP SWAP2 SWAP1 POP JUMP JUMPDEST PUSH1 0x0 PUSH1 0x20 DUP3 ADD SWAP1 POP DUP2 DUP2 SUB PUSH1 0x0 DUP4 ADD MSTORE PUSH2 0x270A DUP2 PUSH2 0x26CE JUMP JUMPDEST SWAP1 POP SWAP2 SWAP1 POP JUMP JUMPDEST PUSH32 0x496E697469616C697A61626C653A20636F6E747261637420697320616C726561 PUSH1 0x0 DUP3 ADD MSTORE PUSH32 0x647920696E697469616C697A6564000000000000000000000000000000000000 PUSH1 0x20 DUP3 ADD MSTORE POP JUMP JUMPDEST PUSH1 0x0 PUSH2 0x276D PUSH1 0x2E DUP4 PUSH2 0x2334 JUMP JUMPDEST SWAP2 POP PUSH2 0x2778 DUP3 PUSH2 0x2711 JUMP JUMPDEST PUSH1 0x40 DUP3 ADD SWAP1 POP SWAP2 SWAP1 POP JUMP JUMPDEST PUSH1 0x0 PUSH1 0x20 DUP3 ADD SWAP1 POP DUP2 DUP2 SUB PUSH1 0x0 DUP4 ADD MSTORE PUSH2 0x279C DUP2 PUSH2 0x2760 JUMP JUMPDEST SWAP1 POP SWAP2 SWAP1 POP JUMP JUMPDEST PUSH1 0x0 DUP2 SWAP1 POP SWAP2 SWAP1 POP JUMP JUMPDEST PUSH1 0x0 DUP2 SWAP1 POP SWAP2 SWAP1 POP JUMP JUMPDEST PUSH1 0x0 PUSH2 0x27D2 PUSH2 0x27CD PUSH2 0x27C8 DUP5 PUSH2 0x27A3 JUMP JUMPDEST PUSH2 0x27AD JUMP JUMPDEST PUSH2 0x2238 JUMP JUMPDEST SWAP1 POP SWAP2 SWAP1 POP JUMP JUMPDEST PUSH2 0x27E2 DUP2 PUSH2 0x27B7 JUMP JUMPDEST DUP3 MSTORE POP POP JUMP JUMPDEST PUSH1 0x0 PUSH1 0x20 DUP3 ADD SWAP1 POP PUSH2 0x27FD PUSH1 0x0 DUP4 ADD DUP5 PUSH2 0x27D9 JUMP JUMPDEST SWAP3 SWAP2 POP POP JUMP JUMPDEST PUSH32 0x5265656E7472616E637947756172643A207265656E7472616E742063616C6C00 PUSH1 0x0 DUP3 ADD MSTORE POP JUMP JUMPDEST PUSH1 0x0 PUSH2 0x2839 PUSH1 0x1F DUP4 PUSH2 0x2334 JUMP JUMPDEST SWAP2 POP PUSH2 0x2844 DUP3 PUSH2 0x2803 JUMP JUMPDEST PUSH1 0x20 DUP3 ADD SWAP1 POP SWAP2 SWAP1 POP JUMP JUMPDEST PUSH1 0x0 PUSH1 0x20 DUP3 ADD SWAP1 POP DUP2 DUP2 SUB PUSH1 0x0 DUP4 ADD MSTORE PUSH2 0x2868 DUP2 PUSH2 0x282C JUMP JUMPDEST SWAP1 POP SWAP2 SWAP1 POP JUMP JUMPDEST PUSH2 0x2878 DUP2 PUSH2 0x2238 JUMP JUMPDEST DUP3 MSTORE POP POP JUMP JUMPDEST PUSH1 0x0 PUSH1 0xE0 DUP3 ADD SWAP1 POP PUSH2 0x2893 PUSH1 0x0 DUP4 ADD DUP11 PUSH2 0x2581 JUMP JUMPDEST PUSH2 0x28A0 PUSH1 0x20 DUP4 ADD DUP10 PUSH2 0x2581 JUMP JUMPDEST PUSH2 0x28AD PUSH1 0x40 DUP4 ADD DUP9 PUSH2 0x20D5 JUMP JUMPDEST PUSH2 0x28BA PUSH1 0x60 DUP4 ADD DUP8 PUSH2 0x20D5 JUMP JUMPDEST PUSH2 0x28C7 PUSH1 0x80 DUP4 ADD DUP7 PUSH2 0x286F JUMP JUMPDEST PUSH2 0x28D4 PUSH1 0xA0 DUP4 ADD DUP6 PUSH2 0x2170 JUMP JUMPDEST PUSH2 0x28E1 PUSH1 0xC0 DUP4 ADD DUP5 PUSH2 0x2170 JUMP JUMPDEST SWAP9 SWAP8 POP POP POP POP POP POP POP POP JUMP JUMPDEST PUSH32 0x5361666545524332303A207065726D697420646964206E6F7420737563636565 PUSH1 0x0 DUP3 ADD MSTORE PUSH32 0x6400000000000000000000000000000000000000000000000000000000000000 PUSH1 0x20 DUP3 ADD MSTORE POP JUMP JUMPDEST PUSH1 0x0 PUSH2 0x2949 PUSH1 0x21 DUP4 PUSH2 0x2334 JUMP JUMPDEST SWAP2 POP PUSH2 0x2954 DUP3 PUSH2 0x28ED JUMP JUMPDEST PUSH1 0x40 DUP3 ADD SWAP1 POP SWAP2 SWAP1 POP JUMP JUMPDEST PUSH1 0x0 PUSH1 0x20 DUP3 ADD SWAP1 POP DUP2 DUP2 SUB PUSH1 0x0 DUP4 ADD MSTORE PUSH2 0x2978 DUP2 PUSH2 0x293C JUMP JUMPDEST SWAP1 POP SWAP2 SWAP1 POP JUMP JUMPDEST PUSH1 0x0 PUSH1 0x60 DUP3 ADD SWAP1 POP PUSH2 0x2994 PUSH1 0x0 DUP4 ADD DUP7 PUSH2 0x2581 JUMP JUMPDEST PUSH2 0x29A1 PUSH1 0x20 DUP4 ADD DUP6 PUSH2 0x2581 JUMP JUMPDEST PUSH2 0x29AE PUSH1 0x40 DUP4 ADD DUP5 PUSH2 0x20D5 JUMP JUMPDEST SWAP5 SWAP4 POP POP POP POP JUMP JUMPDEST PUSH1 0x0 PUSH1 0x40 DUP3 ADD SWAP1 POP PUSH2 0x29CB PUSH1 0x0 DUP4 ADD DUP6 PUSH2 0x2581 JUMP JUMPDEST PUSH2 0x29D8 PUSH1 0x20 DUP4 ADD DUP5 PUSH2 0x20D5 JUMP JUMPDEST SWAP4 SWAP3 POP POP POP JUMP JUMPDEST PUSH1 0x0 DUP2 SWAP1 POP SWAP3 SWAP2 POP POP JUMP JUMPDEST PUSH32 0x416363657373436F6E74726F6C3A206163636F756E7420000000000000000000 PUSH1 0x0 DUP3 ADD MSTORE POP JUMP JUMPDEST PUSH1 0x0 PUSH2 0x2A20 PUSH1 0x17 DUP4 PUSH2 0x29DF JUMP JUMPDEST SWAP2 POP PUSH2 0x2A2B DUP3 PUSH2 0x29EA JUMP JUMPDEST PUSH1 0x17 DUP3 ADD SWAP1 POP SWAP2 SWAP1 POP JUMP JUMPDEST PUSH1 0x0 DUP2 MLOAD SWAP1 POP SWAP2 SWAP1 POP JUMP JUMPDEST PUSH1 0x0 JUMPDEST DUP4 DUP2 LT ISZERO PUSH2 0x2A5F JUMPI DUP1 DUP3 ADD MLOAD DUP2 DUP5 ADD MSTORE PUSH1 0x20 DUP2 ADD SWAP1 POP PUSH2 0x2A44 JUMP JUMPDEST PUSH1 0x0 DUP5 DUP5 ADD MSTORE POP POP POP POP JUMP JUMPDEST PUSH1 0x0 PUSH2 0x2A76 DUP3 PUSH2 0x2A36 JUMP JUMPDEST PUSH2 0x2A80 DUP2 DUP6 PUSH2 0x29DF JUMP JUMPDEST SWAP4 POP PUSH2 0x2A90 DUP2 DUP6 PUSH1 0x20 DUP7 ADD PUSH2 0x2A41 JUMP JUMPDEST DUP1 DUP5 ADD SWAP2 POP POP SWAP3 SWAP2 POP POP JUMP JUMPDEST PUSH32 0x206973206D697373696E6720726F6C6520000000000000000000000000000000 PUSH1 0x0 DUP3 ADD MSTORE POP JUMP JUMPDEST PUSH1 0x0 PUSH2 0x2AD2 PUSH1 0x11 DUP4 PUSH2 0x29DF JUMP JUMPDEST SWAP2 POP PUSH2 0x2ADD DUP3 PUSH2 0x2A9C JUMP JUMPDEST PUSH1 0x11 DUP3 ADD SWAP1 POP SWAP2 SWAP1 POP JUMP JUMPDEST PUSH1 0x0 PUSH2 0x2AF3 DUP3 PUSH2 0x2A13 JUMP JUMPDEST SWAP2 POP PUSH2 0x2AFF DUP3 DUP6 PUSH2 0x2A6B JUMP JUMPDEST SWAP2 POP PUSH2 0x2B0A DUP3 PUSH2 0x2AC5 JUMP JUMPDEST SWAP2 POP PUSH2 0x2B16 DUP3 DUP5 PUSH2 0x2A6B JUMP JUMPDEST SWAP2 POP DUP2 SWAP1 POP SWAP4 SWAP3 POP POP POP JUMP JUMPDEST PUSH1 0x0 PUSH1 0x1F NOT PUSH1 0x1F DUP4 ADD AND SWAP1 POP SWAP2 SWAP1 POP JUMP JUMPDEST PUSH1 0x0 PUSH2 0x2B3E DUP3 PUSH2 0x2A36 JUMP JUMPDEST PUSH2 0x2B48 DUP2 DUP6 PUSH2 0x2334 JUMP JUMPDEST SWAP4 POP PUSH2 0x2B58 DUP2 DUP6 PUSH1 0x20 DUP7 ADD PUSH2 0x2A41 JUMP JUMPDEST PUSH2 0x2B61 DUP2 PUSH2 0x2B22 JUMP JUMPDEST DUP5 ADD SWAP2 POP POP SWAP3 SWAP2 POP POP JUMP JUMPDEST PUSH1 0x0 PUSH1 0x20 DUP3 ADD SWAP1 POP DUP2 DUP2 SUB PUSH1 0x0 DUP4 ADD MSTORE PUSH2 0x2B86 DUP2 DUP5 PUSH2 0x2B33 JUMP JUMPDEST SWAP1 POP SWAP3 SWAP2 POP POP JUMP JUMPDEST PUSH32 0x5361666545524332303A204552433230206F7065726174696F6E20646964206E PUSH1 0x0 DUP3 ADD MSTORE PUSH32 0x6F74207375636365656400000000000000000000000000000000000000000000 PUSH1 0x20 DUP3 ADD MSTORE POP JUMP JUMPDEST PUSH1 0x0 PUSH2 0x2BEA PUSH1 0x2A DUP4 PUSH2 0x2334 JUMP JUMPDEST SWAP2 POP PUSH2 0x2BF5 DUP3 PUSH2 0x2B8E JUMP JUMPDEST PUSH1 0x40 DUP3 ADD SWAP1 POP SWAP2 SWAP1 POP JUMP JUMPDEST PUSH1 0x0 PUSH1 0x20 DUP3 ADD SWAP1 POP DUP2 DUP2 SUB PUSH1 0x0 DUP4 ADD MSTORE PUSH2 0x2C19 DUP2 PUSH2 0x2BDD JUMP JUMPDEST SWAP1 POP SWAP2 SWAP1 POP JUMP JUMPDEST PUSH32 0x5061757361626C653A206E6F7420706175736564000000000000000000000000 PUSH1 0x0 DUP3 ADD MSTORE POP JUMP JUMPDEST PUSH1 0x0 PUSH2 0x2C56 PUSH1 0x14 DUP4 PUSH2 0x2334 JUMP JUMPDEST SWAP2 POP PUSH2 0x2C61 DUP3 PUSH2 0x2C20 JUMP JUMPDEST PUSH1 0x20 DUP3 ADD SWAP1 POP SWAP2 SWAP1 POP JUMP JUMPDEST PUSH1 0x0 PUSH1 0x20 DUP3 ADD SWAP1 POP DUP2 DUP2 SUB PUSH1 0x0 DUP4 ADD MSTORE PUSH2 0x2C85 DUP2 PUSH2 0x2C49 JUMP JUMPDEST SWAP1 POP SWAP2 SWAP1 POP JUMP JUMPDEST PUSH32 0x5061757361626C653A2070617573656400000000000000000000000000000000 PUSH1 0x0 DUP3 ADD MSTORE POP JUMP JUMPDEST PUSH1 0x0 PUSH2 0x2CC2 PUSH1 0x10 DUP4 PUSH2 0x2334 JUMP JUMPDEST SWAP2 POP PUSH2 0x2CCD DUP3 PUSH2 0x2C8C JUMP JUMPDEST PUSH1 0x20 DUP3 ADD SWAP1 POP SWAP2 SWAP1 POP JUMP JUMPDEST PUSH1 0x0 PUSH1 0x20 DUP3 ADD SWAP1 POP DUP2 DUP2 SUB PUSH1 0x0 DUP4 ADD MSTORE PUSH2 0x2CF1 DUP2 PUSH2 0x2CB5 JUMP JUMPDEST SWAP1 POP SWAP2 SWAP1 POP JUMP JUMPDEST PUSH32 0x4E487B7100000000000000000000000000000000000000000000000000000000 PUSH1 0x0 MSTORE PUSH1 0x41 PUSH1 0x4 MSTORE PUSH1 0x24 PUSH1 0x0 REVERT JUMPDEST PUSH32 0x4E487B7100000000000000000000000000000000000000000000000000000000 PUSH1 0x0 MSTORE PUSH1 0x32 PUSH1 0x4 MSTORE PUSH1 0x24 PUSH1 0x0 REVERT JUMPDEST PUSH1 0x0 PUSH2 0x2D61 DUP3 PUSH2 0x2032 JUMP JUMPDEST SWAP2 POP PUSH1 0x0 DUP3 SUB PUSH2 0x2D74 JUMPI PUSH2 0x2D73 PUSH2 0x23D7 JUMP JUMPDEST JUMPDEST PUSH1 0x1 DUP3 SUB SWAP1 POP SWAP2 SWAP1 POP JUMP JUMPDEST PUSH32 0x537472696E67733A20686578206C656E67746820696E73756666696369656E74 PUSH1 0x0 DUP3 ADD MSTORE POP JUMP JUMPDEST PUSH1 0x0 PUSH2 0x2DB5 PUSH1 0x20 DUP4 PUSH2 0x2334 JUMP JUMPDEST SWAP2 POP PUSH2 0x2DC0 DUP3 PUSH2 0x2D7F JUMP JUMPDEST PUSH1 0x20 DUP3 ADD SWAP1 POP SWAP2 SWAP1 POP JUMP JUMPDEST PUSH1 0x0 PUSH1 0x20 DUP3 ADD SWAP1 POP DUP2 DUP2 SUB PUSH1 0x0 DUP4 ADD MSTORE PUSH2 0x2DE4 DUP2 PUSH2 0x2DA8 JUMP JUMPDEST SWAP1 POP SWAP2 SWAP1 POP JUMP JUMPDEST PUSH32 0x416464726573733A20696E73756666696369656E742062616C616E636520666F PUSH1 0x0 DUP3 ADD MSTORE PUSH32 0x722063616C6C0000000000000000000000000000000000000000000000000000 PUSH1 0x20 DUP3 ADD MSTORE POP JUMP JUMPDEST PUSH1 0x0 PUSH2 0x2E47 PUSH1 0x26 DUP4 PUSH2 0x2334 JUMP JUMPDEST SWAP2 POP PUSH2 0x2E52 DUP3 PUSH2 0x2DEB JUMP JUMPDEST PUSH1 0x40 DUP3 ADD SWAP1 POP SWAP2 SWAP1 POP JUMP JUMPDEST PUSH1 0x0 PUSH1 0x20 DUP3 ADD SWAP1 POP DUP2 DUP2 SUB PUSH1 0x0 DUP4 ADD MSTORE PUSH2 0x2E76 DUP2 PUSH2 0x2E3A JUMP JUMPDEST SWAP1 POP SWAP2 SWAP1 POP JUMP JUMPDEST PUSH1 0x0 DUP2 MLOAD SWAP1 POP SWAP2 SWAP1 POP JUMP JUMPDEST PUSH1 0x0 DUP2 SWAP1 POP SWAP3 SWAP2 POP POP JUMP JUMPDEST PUSH1 0x0 PUSH2 0x2E9E DUP3 PUSH2 0x2E7D JUMP JUMPDEST PUSH2 0x2EA8 DUP2 DUP6 PUSH2 0x2E88 JUMP JUMPDEST SWAP4 POP PUSH2 0x2EB8 DUP2 DUP6 PUSH1 0x20 DUP7 ADD PUSH2 0x2A41 JUMP JUMPDEST DUP1 DUP5 ADD SWAP2 POP POP SWAP3 SWAP2 POP POP JUMP JUMPDEST PUSH1 0x0 PUSH2 0x2ED0 DUP3 DUP5 PUSH2 0x2E93 JUMP JUMPDEST SWAP2 POP DUP2 SWAP1 POP SWAP3 SWAP2 POP POP JUMP JUMPDEST PUSH32 0x416464726573733A2063616C6C20746F206E6F6E2D636F6E7472616374000000 PUSH1 0x0 DUP3 ADD MSTORE POP JUMP JUMPDEST PUSH1 0x0 PUSH2 0x2F11 PUSH1 0x1D DUP4 PUSH2 0x2334 JUMP JUMPDEST SWAP2 POP PUSH2 0x2F1C DUP3 PUSH2 0x2EDB JUMP JUMPDEST PUSH1 0x20 DUP3 ADD SWAP1 POP SWAP2 SWAP1 POP JUMP JUMPDEST PUSH1 0x0 PUSH1 0x20 DUP3 ADD SWAP1 POP DUP2 DUP2 SUB PUSH1 0x0 DUP4 ADD MSTORE PUSH2 0x2F40 DUP2 PUSH2 0x2F04 JUMP JUMPDEST SWAP1 POP SWAP2 SWAP1 POP JUMP INVALID LOG2 PUSH5 0x6970667358 0x22 SLT KECCAK256 SWAP5 OR PUSH17 0x42F27B4A540B9D649902AE28FD3676305B DUP7 PUSH20 0x1396D35037FBDE98239664736F6C634300081000 CALLER "},"gasEstimates":{"creation":{"codeDepositCost":"2431400","executionCost":"infinite","totalCost":"infinite"},"external":{"DEFAULT_ADMIN_ROLE()":"446","__BaseUpgradeablePausable_init(address)":"infinite","buyGENZToken(uint256,uint256,uint8,bytes32,bytes32)":"infinite","calculatePriceGENZ(uint256,uint256)":"infinite","getCurrentTokenPrice()":"infinite","getGENZTokenCount()":"2460","getRoleAdmin(bytes32)":"infinite","grantRole(bytes32,address)":"infinite","hasRole(bytes32,address)":"3229","initialize(address)":"infinite","isAdmin()":"2792","pause()":"infinite","paused()":"2568","renounceRole(bytes32,address)":"infinite","revokeRole(bytes32,address)":"infinite","supportsInterface(bytes4)":"751","unpause()":"infinite","updateBaseSalePrice(uint256)":"infinite","updateMinimumWithdrawalPeriod(uint256)":"infinite","withdrawStakedToken()":"infinite"}},"methodIdentifiers":{"DEFAULT_ADMIN_ROLE()":"a217fddf","__BaseUpgradeablePausable_init(address)":"6e810b1a","buyGENZToken(uint256,uint256,uint8,bytes32,bytes32)":"34d131bf","calculatePriceGENZ(uint256,uint256)":"06fb46ba","getCurrentTokenPrice()":"f751758b","getGENZTokenCount()":"74a7dce5","getRoleAdmin(bytes32)":"248a9ca3","grantRole(bytes32,address)":"2f2ff15d","hasRole(bytes32,address)":"91d14854","initialize(address)":"c4d66de8","isAdmin()":"b6db75a0","pause()":"8456cb59","paused()":"5c975abb","renounceRole(bytes32,address)":"36568abe","revokeRole(bytes32,address)":"d547741f","supportsInterface(bytes4)":"01ffc9a7","unpause()":"3f4ba83a","updateBaseSalePrice(uint256)":"eaef3999","updateMinimumWithdrawalPeriod(uint256)":"051e6cb1","withdrawStakedToken()":"869eac93"}},"storageLayout":{"storage":[{"astId":418,"contract":"contracts/core/buySell/BuyGENZ.sol:BuyGENZ","label":"_initialized","offset":0,"slot":"0","type":"t_uint8"},{"astId":421,"contract":"contracts/core/buySell/BuyGENZ.sol:BuyGENZ","label":"_initializing","offset":1,"slot":"0","type":"t_bool"},{"astId":1500,"contract":"contracts/core/buySell/BuyGENZ.sol:BuyGENZ","label":"__gap","offset":0,"slot":"1","type":"t_array(t_uint256)50_storage"},{"astId":601,"contract":"contracts/core/buySell/BuyGENZ.sol:BuyGENZ","label":"_paused","offset":0,"slot":"51","type":"t_bool"},{"astId":706,"contract":"contracts/core/buySell/BuyGENZ.sol:BuyGENZ","label":"__gap","offset":0,"slot":"52","type":"t_array(t_uint256)49_storage"},{"astId":1719,"contract":"contracts/core/buySell/BuyGENZ.sol:BuyGENZ","label":"__gap","offset":0,"slot":"101","type":"t_array(t_uint256)50_storage"},{"astId":39,"contract":"contracts/core/buySell/BuyGENZ.sol:BuyGENZ","label":"_roles","offset":0,"slot":"151","type":"t_mapping(t_bytes32,t_struct(RoleData)34_storage)"},{"astId":334,"contract":"contracts/core/buySell/BuyGENZ.sol:BuyGENZ","label":"__gap","offset":0,"slot":"152","type":"t_array(t_uint256)49_storage"},{"astId":721,"contract":"contracts/core/buySell/BuyGENZ.sol:BuyGENZ","label":"_status","offset":0,"slot":"201","type":"t_uint256"},{"astId":779,"contract":"contracts/core/buySell/BuyGENZ.sol:BuyGENZ","label":"__gap","offset":0,"slot":"202","type":"t_array(t_uint256)49_storage"},{"astId":2751,"contract":"contracts/core/buySell/BuyGENZ.sol:BuyGENZ","label":"_tokenCounter","offset":0,"slot":"251","type":"t_uint256"},{"astId":2753,"contract":"contracts/core/buySell/BuyGENZ.sol:BuyGENZ","label":"_minWithdrawalPeriod","offset":0,"slot":"252","type":"t_uint256"},{"astId":2758,"contract":"contracts/core/buySell/BuyGENZ.sol:BuyGENZ","label":"_commonRatio","offset":0,"slot":"253","type":"t_uint256"},{"astId":2760,"contract":"contracts/core/buySell/BuyGENZ.sol:BuyGENZ","label":"_baseSalePrice","offset":0,"slot":"254","type":"t_uint256"},{"astId":2762,"contract":"contracts/core/buySell/BuyGENZ.sol:BuyGENZ","label":"_basePriceWithDec","offset":0,"slot":"255","type":"t_uint256"},{"astId":2772,"contract":"contracts/core/buySell/BuyGENZ.sol:BuyGENZ","label":"_globalPauseOperation","offset":0,"slot":"256","type":"t_contract(IGlobalPauseOperation)5797"},{"astId":2787,"contract":"contracts/core/buySell/BuyGENZ.sol:BuyGENZ","label":"stakingInformation","offset":0,"slot":"257","type":"t_mapping(t_address,t_struct(StakeInformation)2782_storage)"}],"types":{"t_address":{"encoding":"inplace","label":"address","numberOfBytes":"20"},"t_array(t_uint256)49_storage":{"base":"t_uint256","encoding":"inplace","label":"uint256[49]","numberOfBytes":"1568"},"t_array(t_uint256)50_storage":{"base":"t_uint256","encoding":"inplace","label":"uint256[50]","numberOfBytes":"1600"},"t_bool":{"encoding":"inplace","label":"bool","numberOfBytes":"1"},"t_bytes32":{"encoding":"inplace","label":"bytes32","numberOfBytes":"32"},"t_contract(IGlobalPauseOperation)5797":{"encoding":"inplace","label":"contract IGlobalPauseOperation","numberOfBytes":"20"},"t_mapping(t_address,t_bool)":{"encoding":"mapping","key":"t_address","label":"mapping(address => bool)","numberOfBytes":"32","value":"t_bool"},"t_mapping(t_address,t_struct(StakeInformation)2782_storage)":{"encoding":"mapping","key":"t_address","label":"mapping(address => struct BuyGENZ.StakeInformation)","numberOfBytes":"32","value":"t_struct(StakeInformation)2782_storage"},"t_mapping(t_bytes32,t_struct(RoleData)34_storage)":{"encoding":"mapping","key":"t_bytes32","label":"mapping(bytes32 => struct AccessControlUpgradeable.RoleData)","numberOfBytes":"32","value":"t_struct(RoleData)34_storage"},"t_struct(RoleData)34_storage":{"encoding":"inplace","label":"struct AccessControlUpgradeable.RoleData","members":[{"astId":31,"contract":"contracts/core/buySell/BuyGENZ.sol:BuyGENZ","label":"members","offset":0,"slot":"0","type":"t_mapping(t_address,t_bool)"},{"astId":33,"contract":"contracts/core/buySell/BuyGENZ.sol:BuyGENZ","label":"adminRole","offset":0,"slot":"1","type":"t_bytes32"}],"numberOfBytes":"64"},"t_struct(StakeInformation)2782_storage":{"encoding":"inplace","label":"struct BuyGENZ.StakeInformation","members":[{"astId":2777,"contract":"contracts/core/buySell/BuyGENZ.sol:BuyGENZ","label":"hasStaked","offset":0,"slot":"0","type":"t_bool"},{"astId":2779,"contract":"contracts/core/buySell/BuyGENZ.sol:BuyGENZ","label":"amount","offset":0,"slot":"1","type":"t_uint256"},{"astId":2781,"contract":"contracts/core/buySell/BuyGENZ.sol:BuyGENZ","label":"minWithdrawTime","offset":0,"slot":"2","type":"t_uint256"}],"numberOfBytes":"96"},"t_uint256":{"encoding":"inplace","label":"uint256","numberOfBytes":"32"},"t_uint8":{"encoding":"inplace","label":"uint8","numberOfBytes":"1"}}},"userdoc":{"errors":{"BuySellGENZ__PausedError()":[{"notice":"Custom Error Codes"}]},"kind":"user","methods":{},"notice":"Report any bug or issues at:","version":1}}}}