{"contracts/core/payAsYouGo/ConstantFlowAgreement.sol":{"ConstantFlowAgreement":{"abi":[{"inputs":[],"name":"BaseUpgradeablePausable__ZeroAddressError","type":"error"},{"inputs":[],"name":"CFA__ActiveInsuranceExistError","type":"error"},{"inputs":[],"name":"CFA__ImmutableChangesError","type":"error"},{"inputs":[],"name":"CFA__InactiveInsuranceError","type":"error"},{"inputs":[],"name":"CFA__InsuranceCoverNotAvailableError","type":"error"},{"inputs":[],"name":"CFA__NotEvenMinimumInsurancePeriodAmount","type":"error"},{"inputs":[],"name":"CFA__SubCategoryNotActiveError","type":"error"},{"inputs":[],"name":"CFA__TransactionFailedError","type":"error"},{"anonymous":false,"inputs":[{"indexed":false,"internalType":"uint8","name":"version","type":"uint8"}],"name":"Initialized","type":"event"},{"anonymous":false,"inputs":[{"indexed":false,"internalType":"address","name":"account","type":"address"}],"name":"Paused","type":"event"},{"anonymous":false,"inputs":[{"indexed":true,"internalType":"bytes32","name":"role","type":"bytes32"},{"indexed":true,"internalType":"bytes32","name":"previousAdminRole","type":"bytes32"},{"indexed":true,"internalType":"bytes32","name":"newAdminRole","type":"bytes32"}],"name":"RoleAdminChanged","type":"event"},{"anonymous":false,"inputs":[{"indexed":true,"internalType":"bytes32","name":"role","type":"bytes32"},{"indexed":true,"internalType":"address","name":"account","type":"address"},{"indexed":true,"internalType":"address","name":"sender","type":"address"}],"name":"RoleGranted","type":"event"},{"anonymous":false,"inputs":[{"indexed":true,"internalType":"bytes32","name":"role","type":"bytes32"},{"indexed":true,"internalType":"address","name":"account","type":"address"},{"indexed":true,"internalType":"address","name":"sender","type":"address"}],"name":"RoleRevoked","type":"event"},{"anonymous":false,"inputs":[{"indexed":false,"internalType":"address","name":"account","type":"address"}],"name":"Unpaused","type":"event"},{"anonymous":false,"inputs":[],"name":"UpdatedMaxInsuredDays","type":"event"},{"anonymous":false,"inputs":[],"name":"UpdatedMinimumInsurancePeriod","type":"event"},{"anonymous":false,"inputs":[],"name":"UpdatedStartWaitingTime","type":"event"},{"inputs":[],"name":"DEFAULT_ADMIN_ROLE","outputs":[{"internalType":"bytes32","name":"","type":"bytes32"}],"stateMutability":"view","type":"function"},{"inputs":[{"internalType":"address","name":"owner","type":"address"}],"name":"__BaseUpgradeablePausable_init","outputs":[],"stateMutability":"nonpayable","type":"function"},{"inputs":[{"internalType":"uint256","name":"insuredAmount","type":"uint256"},{"internalType":"uint256","name":"categoryID","type":"uint256"},{"internalType":"uint256","name":"subCategoryID","type":"uint256"},{"internalType":"uint8","name":"v","type":"uint8"},{"internalType":"bytes32","name":"r","type":"bytes32"},{"internalType":"bytes32","name":"s","type":"bytes32"}],"name":"addInsuranceAmount","outputs":[{"internalType":"bool","name":"","type":"bool"}],"stateMutability":"nonpayable","type":"function"},{"inputs":[{"internalType":"address","name":"userAddress","type":"address"},{"internalType":"uint256","name":"categoryID","type":"uint256"}],"name":"calculateTotalFlowMade","outputs":[{"internalType":"uint256","name":"","type":"uint256"}],"stateMutability":"view","type":"function"},{"inputs":[{"internalType":"address","name":"userAddress","type":"address"}],"name":"calculateTotalFlowMade","outputs":[{"internalType":"uint256","name":"","type":"uint256"}],"stateMutability":"view","type":"function"},{"inputs":[{"internalType":"address","name":"userAddress","type":"address"},{"internalType":"uint256","name":"categoryID","type":"uint256"}],"name":"claimPremium","outputs":[{"internalType":"bool","name":"","type":"bool"}],"stateMutability":"nonpayable","type":"function"},{"inputs":[{"internalType":"address","name":"userAddress","type":"address"},{"internalType":"uint256","name":"categoryID","type":"uint256"},{"internalType":"uint256","name":"subCategoryID","type":"uint256"}],"name":"claimPremium","outputs":[{"internalType":"bool","name":"","type":"bool"}],"stateMutability":"nonpayable","type":"function"},{"inputs":[{"internalType":"address","name":"userAddress","type":"address"},{"internalType":"uint256","name":"categoryID","type":"uint256"},{"internalType":"uint256","name":"subCategoryCount","type":"uint256"}],"name":"findActivePremiumCost","outputs":[{"internalType":"uint256[]","name":"","type":"uint256[]"}],"stateMutability":"view","type":"function"},{"inputs":[{"internalType":"address","name":"_userAddress","type":"address"}],"name":"getGlobalUserInsuranceInfo","outputs":[{"internalType":"uint256","name":"","type":"uint256"},{"internalType":"uint256","name":"","type":"uint256"}],"stateMutability":"view","type":"function"},{"inputs":[{"internalType":"address","name":"userAddress","type":"address"}],"name":"getGlobalUserInsurancePremiumCost","outputs":[{"internalType":"uint256","name":"","type":"uint256"}],"stateMutability":"view","type":"function"},{"inputs":[{"internalType":"bytes32","name":"role","type":"bytes32"}],"name":"getRoleAdmin","outputs":[{"internalType":"bytes32","name":"","type":"bytes32"}],"stateMutability":"view","type":"function"},{"inputs":[{"internalType":"address","name":"userAddress","type":"address"},{"internalType":"uint256","name":"categoryID","type":"uint256"},{"internalType":"uint256","name":"subCategoryID","type":"uint256"}],"name":"getUserInsuranceInfo","outputs":[{"internalType":"uint256","name":"","type":"uint256"},{"internalType":"uint256","name":"","type":"uint256"},{"internalType":"uint256","name":"","type":"uint256"},{"internalType":"uint256","name":"","type":"uint256"},{"internalType":"uint256","name":"","type":"uint256"},{"internalType":"bool","name":"","type":"bool"}],"stateMutability":"view","type":"function"},{"inputs":[{"internalType":"address","name":"userAddress","type":"address"},{"internalType":"uint256","name":"categoryID","type":"uint256"},{"internalType":"uint256","name":"subCategoryID","type":"uint256"}],"name":"getUserInsuranceStatus","outputs":[{"internalType":"bool","name":"","type":"bool"}],"stateMutability":"view","type":"function"},{"inputs":[{"internalType":"address","name":"userAddress","type":"address"},{"internalType":"uint256","name":"categoryID","type":"uint256"},{"internalType":"uint256","name":"subCategoryID","type":"uint256"}],"name":"getUserInsuranceValidTillInfo","outputs":[{"internalType":"uint256","name":"","type":"uint256"}],"stateMutability":"view","type":"function"},{"inputs":[{"internalType":"address","name":"userAddress","type":"address"},{"internalType":"uint256","name":"categoryID","type":"uint256"},{"internalType":"uint256","name":"subCategoryID","type":"uint256"}],"name":"getUserInsuredAmount","outputs":[{"internalType":"uint256","name":"","type":"uint256"}],"stateMutability":"view","type":"function"},{"inputs":[{"internalType":"bytes32","name":"role","type":"bytes32"},{"internalType":"address","name":"account","type":"address"}],"name":"grantRole","outputs":[],"stateMutability":"nonpayable","type":"function"},{"inputs":[{"internalType":"bytes32","name":"role","type":"bytes32"},{"internalType":"address","name":"account","type":"address"}],"name":"hasRole","outputs":[{"internalType":"bool","name":"","type":"bool"}],"stateMutability":"view","type":"function"},{"inputs":[{"internalType":"address","name":"tokenDAIaddress","type":"address"},{"internalType":"address","name":"sztDAIAddress","type":"address"},{"internalType":"address","name":"insuranceRegistryCA","type":"address"},{"internalType":"uint256","name":"minimumInsurancePeriod","type":"uint256"},{"internalType":"uint256","name":"startWaitingTime","type":"uint256"},{"internalType":"uint256","name":"maxInsuredDays","type":"uint256"}],"name":"initialize","outputs":[{"internalType":"bool","name":"","type":"bool"}],"stateMutability":"nonpayable","type":"function"},{"inputs":[],"name":"isAdmin","outputs":[{"internalType":"bool","name":"","type":"bool"}],"stateMutability":"view","type":"function"},{"inputs":[{"internalType":"uint256","name":"insuredAmount","type":"uint256"},{"internalType":"uint256","name":"categoryID","type":"uint256"},{"internalType":"uint256","name":"subCategoryID","type":"uint256"},{"internalType":"uint8","name":"v","type":"uint8"},{"internalType":"bytes32","name":"r","type":"bytes32"},{"internalType":"bytes32","name":"s","type":"bytes32"},{"internalType":"bool","name":"closeStream","type":"bool"}],"name":"minusInsuranceAmount","outputs":[{"internalType":"bool","name":"","type":"bool"}],"stateMutability":"nonpayable","type":"function"},{"inputs":[],"name":"pause","outputs":[],"stateMutability":"nonpayable","type":"function"},{"inputs":[],"name":"paused","outputs":[{"internalType":"bool","name":"","type":"bool"}],"stateMutability":"view","type":"function"},{"inputs":[{"internalType":"bytes32","name":"role","type":"bytes32"},{"internalType":"address","name":"account","type":"address"}],"name":"renounceRole","outputs":[],"stateMutability":"nonpayable","type":"function"},{"inputs":[{"internalType":"bytes32","name":"role","type":"bytes32"},{"internalType":"address","name":"account","type":"address"}],"name":"revokeRole","outputs":[],"stateMutability":"nonpayable","type":"function"},{"inputs":[{"internalType":"bytes4","name":"interfaceId","type":"bytes4"}],"name":"supportsInterface","outputs":[{"internalType":"bool","name":"","type":"bool"}],"stateMutability":"view","type":"function"},{"inputs":[],"name":"unpause","outputs":[],"stateMutability":"nonpayable","type":"function"},{"inputs":[{"internalType":"uint256","name":"timeInDays","type":"uint256"}],"name":"updateMaxInsuredDays","outputs":[],"stateMutability":"nonpayable","type":"function"},{"inputs":[{"internalType":"uint256","name":"timeInMinutes","type":"uint256"}],"name":"updateMinimumInsurancePeriod","outputs":[],"stateMutability":"nonpayable","type":"function"},{"inputs":[{"internalType":"uint256","name":"timeInHours","type":"uint256"}],"name":"updateStartWaitingTime","outputs":[],"stateMutability":"nonpayable","type":"function"}],"devdoc":{"custom:security-contact":"anshik@safezen.finance","kind":"dev","methods":{"addInsuranceAmount(uint256,uint256,uint256,uint8,bytes32,bytes32)":{"details":"this function aims to create or top-up user insurance coverage amount.","params":{"categoryID":": insurance category, e.g., stablecoin depeg insurance.","insuredAmount":": maximum user coverage amount","subCategoryID":": insurance sub-category, e.g., USDC depeg coverage, DAI depeg coverage."},"returns":{"_0":"bool: true if the function executues successfully else false."}},"getRoleAdmin(bytes32)":{"details":"Returns the admin role that controls `role`. See {grantRole} and {revokeRole}. To change a role's admin, use {_setRoleAdmin}."},"grantRole(bytes32,address)":{"details":"Grants `role` to `account`. If `account` had not been already granted `role`, emits a {RoleGranted} event. Requirements: - the caller must have ``role``'s admin role. May emit a {RoleGranted} event."},"hasRole(bytes32,address)":{"details":"Returns `true` if `account` has been granted `role`."},"initialize(address,address,address,uint256,uint256,uint256)":{"details":"one-time function aims to initialize the contractMUST revert if called more than once.","params":{"insuranceRegistryCA":": address of the Protocol Registry contract","minimumInsurancePeriod":": minimum insurance period","sztDAIAddress":"address of the sztDAI ERC20 token","tokenDAIaddress":": address of the DAI ERC20 token"},"returns":{"_0":"bool: true if the function executues successfully else false. [PRODUCTION TODO: _startWaitingTime =  startWaitingTime * 1 hours;] [PRODUCTION TODO: _maxInsuredDays = maxInsuredDays * 1 days;]"}},"minusInsuranceAmount(uint256,uint256,uint256,uint8,bytes32,bytes32,bool)":{"details":"this function aims to close or reduce user insurance coverage amount.","params":{"categoryID":": insurance category, e.g., stablecoin depeg insurance.","closeStream":": checks whether user initiate to deactivate its insurance or not.","insuredAmount":": maximum user coverage amount","subCategoryID":": insurance sub-category, e.g., USDC depeg coverage, DAI depeg coverage."},"returns":{"_0":"bool: true if the function executues successfully else false."}},"paused()":{"details":"Returns true if the contract is paused, and false otherwise."},"renounceRole(bytes32,address)":{"details":"Revokes `role` from the calling account. Roles are often managed via {grantRole} and {revokeRole}: this function's purpose is to provide a mechanism for accounts to lose their privileges if they are compromised (such as when a trusted device is misplaced). If the calling account had been revoked `role`, emits a {RoleRevoked} event. Requirements: - the caller must be `account`. May emit a {RoleRevoked} event."},"revokeRole(bytes32,address)":{"details":"Revokes `role` from `account`. If `account` had been granted `role`, emits a {RoleRevoked} event. Requirements: - the caller must have ``role``'s admin role. May emit a {RoleRevoked} event."},"supportsInterface(bytes4)":{"details":"See {IERC165-supportsInterface}."},"updateMaxInsuredDays(uint256)":{"details":"this function aims to update the maximum insurance period","params":{"timeInDays":": 90 days will be kept as default."}},"updateMinimumInsurancePeriod(uint256)":{"details":"this function aims to updates minimum insurance period","params":{"timeInMinutes":": 120 minutes will be kept as default."}},"updateStartWaitingTime(uint256)":{"details":"this function aims to update the insurance activation waiting period","params":{"timeInHours":": 4-8 hours will be kept as default. "}}},"stateVariables":{"usersGlobalInsuranceInfo":{"details":"mapping to store UserGlobalInsuranceInfo maps: userAddress => UserGlobalInsuranceInfo"},"usersInsuranceInfo":{"details":"mapping to store UserInsurance Info maps: userAddress => categoryID => subCategoryID => UserInsuranceInfo"}},"version":1},"evm":{"bytecode":{"linkReferences":{},"object":"608060405234801561001057600080fd5b50614396806100206000396000f3fe608060405234801561001057600080fd5b50600436106101cf5760003560e01c80636e8847bd11610104578063a217fddf116100a2578063cff5eede11610071578063cff5eede1461058f578063d547741f146105bf578063ec249164146105db578063f099dd501461060c576101cf565b8063a217fddf14610507578063b470626814610525578063b6db75a014610541578063c392e8501461055f576101cf565b806381280d2b116100de57806381280d2b146104685780638456cb591461049857806388295fb2146104a257806391d14854146104d7576101cf565b80636e8847bd146103d8578063728cdbca1461040857806377bd35fc14610438576101cf565b806342f6b8a7116101715780635c975abb1161014b5780635c975abb1461033e578063642adc281461035c5780636b6d105e1461038c5780636e810b1a146103bc576101cf565b806342f6b8a7146102c25780634e94c048146102f257806356eb66bb14610322576101cf565b806324b7ab24116101ad57806324b7ab24146102645780632f2ff15d1461028057806336568abe1461029c5780633f4ba83a146102b8576101cf565b806301ffc9a7146101d45780631a5c8f2814610204578063248a9ca314610234575b600080fd5b6101ee60048036038101906101e9919061325f565b61063c565b6040516101fb91906132a7565b60405180910390f35b61021e60048036038101906102199190613356565b6106b6565b60405161022b9190613467565b60405180910390f35b61024e600480360381019061024991906134bf565b6108d9565b60405161025b91906134fb565b60405180910390f35b61027e60048036038101906102799190613516565b6108f9565b005b61029a60048036038101906102959190613543565b610983565b005b6102b660048036038101906102b19190613543565b6109a4565b005b6102c0610a27565b005b6102dc60048036038101906102d79190613583565b610a78565b6040516102e991906135bf565b60405180910390f35b61030c600480360381019061030791906135da565b610af3565b60405161031991906135bf565b60405180910390f35b61033c60048036038101906103379190613516565b610caa565b005b610346610d32565b60405161035391906132a7565b60405180910390f35b6103766004803603810190610371919061367f565b610d49565b60405161038391906132a7565b60405180910390f35b6103a660048036038101906103a19190613356565b610d7d565b6040516103b391906135bf565b60405180910390f35b6103d660048036038101906103d19190613583565b610dee565b005b6103f260048036038101906103ed9190613721565b610f10565b6040516103ff91906132a7565b60405180910390f35b610422600480360381019061041d91906137ae565b610f42565b60405161042f91906132a7565b60405180910390f35b610452600480360381019061044d91906135da565b6111de565b60405161045f91906132a7565b60405180910390f35b610482600480360381019061047d9190613356565b6111e6565b60405161048f91906132a7565b60405180910390f35b6104a0611264565b005b6104bc60048036038101906104b79190613356565b6112b5565b6040516104ce9695949392919061383b565b60405180910390f35b6104f160048036038101906104ec9190613543565b6113bd565b6040516104fe91906132a7565b60405180910390f35b61050f611428565b60405161051c91906134fb565b60405180910390f35b61053f600480360381019061053a9190613516565b61142f565b005b6105496114ba565b60405161055691906132a7565b60405180910390f35b61057960048036038101906105749190613356565b6114d9565b60405161058691906135bf565b60405180910390f35b6105a960048036038101906105a49190613583565b61154a565b6040516105b691906135bf565b60405180910390f35b6105d960048036038101906105d49190613543565b61172f565b005b6105f560048036038101906105f09190613583565b611750565b60405161060392919061389c565b60405180910390f35b61062660048036038101906106219190613356565b6117d4565b60405161063391906132a7565b60405180910390f35b60007f7965db0b000000000000000000000000000000000000000000000000000000007bffffffffffffffffffffffffffffffffffffffffffffffffffffffff1916827bffffffffffffffffffffffffffffffffffffffffffffffffffffffff191614806106af57506106ae8261186c565b5b9050919050565b60606000805b838110156107b557600061010460008873ffffffffffffffffffffffffffffffffffffffff1673ffffffffffffffffffffffffffffffffffffffff168152602001908152602001600020600087815260200190815260200160002060008381526020019081526020016000206040518060e00160405290816000820154815260200160018201548152602001600282015481526020016003820154815260200160048201548152602001600582015481526020016006820160009054906101000a900460ff16151515158152505090508060c00151156107a357826107a0906138f4565b92505b816107ad906138f4565b9150506106bc565b5060008167ffffffffffffffff8111156107d2576107d161393c565b5b6040519080825280602002602001820160405280156108005781602001602082028036833780820191505090505b5090506000805b858110156108cb57600061010460008a73ffffffffffffffffffffffffffffffffffffffff1673ffffffffffffffffffffffffffffffffffffffff1681526020019081526020016000206000898152602001908152602001600020600083815260200190815260200160002090508060060160009054906101000a900460ff16156108b957818484815181106108a05761089f61396b565b5b602002602001018181525050826108b6906138f4565b92505b816108c3906138f4565b915050610807565b508193505050509392505050565b600060976000838152602001908152602001600020600101549050919050565b6109016114ba565b610940576040517f08c379a000000000000000000000000000000000000000000000000000000000815260040161093790613a1d565b60405180910390fd5b610e108161094e9190613a3d565b60fd819055507f75c07eb064b8ccf959bcc601b55315ca198e67b597dc0a7b93e130f8ca779a6760405160405180910390a150565b61098c826108d9565b610995816118d6565b61099f83836118ea565b505050565b6109ac6119cb565b73ffffffffffffffffffffffffffffffffffffffff168173ffffffffffffffffffffffffffffffffffffffff1614610a19576040517f08c379a0000000000000000000000000000000000000000000000000000000008152600401610a1090613b09565b60405180910390fd5b610a2382826119d3565b5050565b610a2f6114ba565b610a6e576040517f08c379a0000000000000000000000000000000000000000000000000000000008152600401610a6590613a1d565b60405180910390fd5b610a76611ab5565b565b60008061010360008473ffffffffffffffffffffffffffffffffffffffff1673ffffffffffffffffffffffffffffffffffffffff168152602001908152602001600020604051806060016040529081600082015481526020016001820154815260200160028201548152505090508060400151915050919050565b600080600090506000610ba3858561010260009054906101000a900473ffffffffffffffffffffffffffffffffffffffff1673ffffffffffffffffffffffffffffffffffffffff16633bf4c082886040518263ffffffff1660e01b8152600401610b5d91906135bf565b602060405180830381865afa158015610b7a573d6000803e3d6000fd5b505050506040513d601f19601f82011682018060405250810190610b9e9190613b3e565b6106b6565b905060005b8151811015610c9e57600061010460008873ffffffffffffffffffffffffffffffffffffffff1673ffffffffffffffffffffffffffffffffffffffff16815260200190815260200160002060008781526020019081526020016000206000848481518110610c1957610c1861396b565b5b602002602001015181526020019081526020016000209050600081600001544211610c45576000610c6c565b81600101544211610c6557816000015442610c609190613b6b565b610c6b565b81600101545b5b9050808260040154610c7e9190613a3d565b85610c899190613b9f565b945082610c95906138f4565b92505050610ba8565b50819250505092915050565b610cb26114ba565b610cf1576040517f08c379a0000000000000000000000000000000000000000000000000000000008152600401610ce890613a1d565b60405180910390fd5b603c81610cfe9190613a3d565b60fe819055507e3a5a2424463bb22c8fc4c0f2422b7a18712b7713f9619caa313f499fad615e60405160405180910390a150565b6000603360009054906101000a900460ff16905090565b6000610d53611b18565b6000610d6489898989898989611b67565b905080915050610d72611dc4565b979650505050505050565b600061010460008573ffffffffffffffffffffffffffffffffffffffff1673ffffffffffffffffffffffffffffffffffffffff168152602001908152602001600020600084815260200190815260200160002060008381526020019081526020016000206002015490509392505050565b600060019054906101000a900460ff16610e3d576040517f08c379a0000000000000000000000000000000000000000000000000000000008152600401610e3490613c45565b60405180910390fd5b600073ffffffffffffffffffffffffffffffffffffffff168173ffffffffffffffffffffffffffffffffffffffff1603610ea3576040517f5415139400000000000000000000000000000000000000000000000000000000815260040160405180910390fd5b610eab611dce565b610eb3611e27565b610ebb611e78565b610ecc610ec6611ed1565b826118ea565b610edd610ed7611ef9565b826118ea565b610ef5610ee8611ef9565b610ef0611ed1565b611f21565b610f0d610f00611ed1565b610f08611ed1565b611f21565b50565b6000610f1a611b18565b6000610f2a888888888888611f7d565b905080915050610f38611dc4565b9695505050505050565b600080600060019054906101000a900460ff16159050808015610f755750600160008054906101000a900460ff1660ff16105b80610fa25750610f84306121a2565b158015610fa15750600160008054906101000a900460ff1660ff16145b5b610fe1576040517f08c379a0000000000000000000000000000000000000000000000000000000008152600401610fd890613cd7565b60405180910390fd5b60016000806101000a81548160ff021916908360ff160217905550801561101e576001600060016101000a81548160ff0219169083151502179055505b600060fb81905550603c836110339190613a3d565b60fc81905550603c846110469190613a3d565b60fd81905550603c856110599190613a3d565b60fe819055508760ff60006101000a81548173ffffffffffffffffffffffffffffffffffffffff021916908373ffffffffffffffffffffffffffffffffffffffff1602179055508761010060006101000a81548173ffffffffffffffffffffffffffffffffffffffff021916908373ffffffffffffffffffffffffffffffffffffffff1602179055508661010160006101000a81548173ffffffffffffffffffffffffffffffffffffffff021916908373ffffffffffffffffffffffffffffffffffffffff1602179055508561010260006101000a81548173ffffffffffffffffffffffffffffffffffffffff021916908373ffffffffffffffffffffffffffffffffffffffff1602179055506111766111716119cb565b610dee565b6001915080156111d35760008060016101000a81548160ff0219169083151502179055507f7f26b83ff96e1f2b6a682f133852f6798a09c465da95921460cefb384740249860016040516111ca9190613d3c565b60405180910390a15b509695505050505050565b600092915050565b600061010460008573ffffffffffffffffffffffffffffffffffffffff1673ffffffffffffffffffffffffffffffffffffffff1681526020019081526020016000206000848152602001908152602001600020600083815260200190815260200160002060060160009054906101000a900460ff1690509392505050565b61126c6114ba565b6112ab576040517f08c379a00000000000000000000000000000000000000000000000000000000081526004016112a290613a1d565b60405180910390fd5b6112b36121c5565b565b600080600080600080600061010460008b73ffffffffffffffffffffffffffffffffffffffff1673ffffffffffffffffffffffffffffffffffffffff16815260200190815260200160002060008a815260200190815260200160002060008981526020019081526020016000206040518060e00160405290816000820154815260200160018201548152602001600282015481526020016003820154815260200160048201548152602001600582015481526020016006820160009054906101000a900460ff1615151515815250509050806040015181608001518260600151836000015184602001518560c001519650965096509650965096505093975093979195509350565b60006097600084815260200190815260200160002060000160008373ffffffffffffffffffffffffffffffffffffffff1673ffffffffffffffffffffffffffffffffffffffff16815260200190815260200160002060009054906101000a900460ff16905092915050565b6000801b81565b6114376114ba565b611476576040517f08c379a000000000000000000000000000000000000000000000000000000000815260040161146d90613a1d565b60405180910390fd5b62015180816114859190613a3d565b60fc819055507fdb4fb2fd6b8b90f67bda8671842d5cab4eb4b7eba9683f5bcec9aba9473cc95760405160405180910390a150565b60006114d46114c7611ed1565b6114cf6119cb565b6113bd565b905090565b600061010460008573ffffffffffffffffffffffffffffffffffffffff1673ffffffffffffffffffffffffffffffffffffffff168152602001908152602001600020600084815260200190815260200160002060008381526020019081526020016000206001015490509392505050565b6000806000905060005b60fb5481101561172557600080611608868461010260009054906101000a900473ffffffffffffffffffffffffffffffffffffffff1673ffffffffffffffffffffffffffffffffffffffff16633bf4c082876040518263ffffffff1660e01b81526004016115c291906135bf565b602060405180830381865afa1580156115df573d6000803e3d6000fd5b505050506040513d601f19601f820116820180604052508101906116039190613b3e565b6106b6565b905060005b815181101561170357600061010460008973ffffffffffffffffffffffffffffffffffffffff1673ffffffffffffffffffffffffffffffffffffffff1681526020019081526020016000206000868152602001908152602001600020600084848151811061167e5761167d61396b565b5b6020026020010151815260200190815260200160002090506000816000015442116116aa5760006116d1565b816001015442116116ca578160000154426116c59190613b6b565b6116d0565b81600101545b5b90508082600401546116e39190613a3d565b856116ee9190613b9f565b9450826116fa906138f4565b9250505061160d565b5081846117109190613b9f565b93508261171c906138f4565b92505050611554565b5080915050919050565b611738826108d9565b611741816118d6565b61174b83836119d3565b505050565b600080600061010360008573ffffffffffffffffffffffffffffffffffffffff1673ffffffffffffffffffffffffffffffffffffffff16815260200190815260200160002060405180606001604052908160008201548152602001600182015481526020016002820154815250509050806020015181600001519250925050915091565b6000426117e28585856114d9565b111561181a576040517f707001b500000000000000000000000000000000000000000000000000000000815260040160405180910390fd5b6000611827858585612228565b905080611860576040517fb00fcb1e00000000000000000000000000000000000000000000000000000000815260040160405180910390fd5b60019150509392505050565b60007f01ffc9a7000000000000000000000000000000000000000000000000000000007bffffffffffffffffffffffffffffffffffffffffffffffffffffffff1916827bffffffffffffffffffffffffffffffffffffffffffffffffffffffff1916149050919050565b6118e7816118e26119cb565b6125ca565b50565b6118f482826113bd565b6119c75760016097600084815260200190815260200160002060000160008373ffffffffffffffffffffffffffffffffffffffff1673ffffffffffffffffffffffffffffffffffffffff16815260200190815260200160002060006101000a81548160ff02191690831515021790555061196c6119cb565b73ffffffffffffffffffffffffffffffffffffffff168173ffffffffffffffffffffffffffffffffffffffff16837f2f8788117e7eff1d82e926ec794901d17c78024a50270940304540a733656f0d60405160405180910390a45b5050565b600033905090565b6119dd82826113bd565b15611ab15760006097600084815260200190815260200160002060000160008373ffffffffffffffffffffffffffffffffffffffff1673ffffffffffffffffffffffffffffffffffffffff16815260200190815260200160002060006101000a81548160ff021916908315150217905550611a566119cb565b73ffffffffffffffffffffffffffffffffffffffff168173ffffffffffffffffffffffffffffffffffffffff16837ff6391f5c32d9c69d2a47ea670b442974b53935d1edc7fd64eb21e047a839171b60405160405180910390a45b5050565b611abd61264f565b6000603360006101000a81548160ff0219169083151502179055507f5db9ee0a495bf2e6ff9c91a7834c1ba4fdd244a5e8aa4e537bd38aeae4b073aa611b016119cb565b604051611b0e9190613d66565b60405180910390a1565b600260c95403611b5d576040517f08c379a0000000000000000000000000000000000000000000000000000000008152600401611b5490613dcd565b60405180910390fd5b600260c981905550565b60006101046000611b766119cb565b73ffffffffffffffffffffffffffffffffffffffff1673ffffffffffffffffffffffffffffffffffffffff1681526020019081526020016000206000888152602001908152602001600020600087815260200190815260200160002060060160009054906101000a900460ff16611c19576040517f96ae3e8200000000000000000000000000000000000000000000000000000000815260040160405180910390fd5b6000611c2d611c266119cb565b8989612228565b905080611c66576040517fb00fcb1e00000000000000000000000000000000000000000000000000000000815260040160405180910390fd5b82611db4576000896101046000611c7b6119cb565b73ffffffffffffffffffffffffffffffffffffffff1673ffffffffffffffffffffffffffffffffffffffff16815260200190815260200160002060008b815260200190815260200160002060008a815260200190815260200160002060020154611ce59190613b6b565b9050600062278d0060fc5442611cfb9190613b9f565b611d059190613b9f565b9050600080611d15848d8d612698565b9150915081611d50576040517fb00fcb1e00000000000000000000000000000000000000000000000000000000815260040160405180910390fd5b611daf611d5b6119cb565b3083868e8e8e61010060009054906101000a900473ffffffffffffffffffffffffffffffffffffffff1673ffffffffffffffffffffffffffffffffffffffff16612cbd90979695949392919063ffffffff16565b505050505b6001915050979650505050505050565b600160c981905550565b600060019054906101000a900460ff16611e1d576040517f08c379a0000000000000000000000000000000000000000000000000000000008152600401611e1490613c45565b60405180910390fd5b611e25612e8a565b565b600060019054906101000a900460ff16611e76576040517f08c379a0000000000000000000000000000000000000000000000000000000008152600401611e6d90613c45565b60405180910390fd5b565b600060019054906101000a900460ff16611ec7576040517f08c379a0000000000000000000000000000000000000000000000000000000008152600401611ebe90613c45565b60405180910390fd5b611ecf612ef6565b565b60007fa49807205ce4d355092ef5a8a18f56e8913cf4a201fbe287825b095693c21775905090565b60007f65d7a28e3265b37a6474929f336521b332c1681b933f6cb9f3376673440d862a905090565b6000611f2c836108d9565b90508160976000858152602001908152602001600020600101819055508181847fbd79b86ffe0ab8e8776151514217cd7cacd52c909f66475c3af44e129f0b00ff60405160405180910390a4505050565b600080876101046000611f8e6119cb565b73ffffffffffffffffffffffffffffffffffffffff1673ffffffffffffffffffffffffffffffffffffffff1681526020019081526020016000206000898152602001908152602001600020600088815260200190815260200160002060020154611ff89190613b9f565b905061010460006120076119cb565b73ffffffffffffffffffffffffffffffffffffffff1673ffffffffffffffffffffffffffffffffffffffff1681526020019081526020016000206000888152602001908152602001600020600087815260200190815260200160002060060160009054906101000a900460ff16156120c857600061208d6120866119cb565b8989612228565b9050806120c6576040517fb00fcb1e00000000000000000000000000000000000000000000000000000000815260040160405180910390fd5b505b600062278d0060fc54426120dc9190613b9f565b6120e69190613b9f565b90506000806120f6848b8b612698565b9150915081612131576040517fb00fcb1e00000000000000000000000000000000000000000000000000000000815260040160405180910390fd5b61219061213c6119cb565b3083868c8c8c61010060009054906101000a900473ffffffffffffffffffffffffffffffffffffffff1673ffffffffffffffffffffffffffffffffffffffff16612cbd90979695949392919063ffffffff16565b60019450505050509695505050505050565b6000808273ffffffffffffffffffffffffffffffffffffffff163b119050919050565b6121cd612f4f565b6001603360006101000a81548160ff0219169083151502179055507f62e78cea01bee320cd4e420270b5ea74000d11b0c9f74754ebdbfc544b05a2586122116119cb565b60405161221e9190613d66565b60405180910390a1565b60008061010460008673ffffffffffffffffffffffffffffffffffffffff1673ffffffffffffffffffffffffffffffffffffffff1681526020019081526020016000206000858152602001908152602001600020600084815260200190815260200160002090508060060160009054906101000a900460ff166122d7576040517f96ae3e8200000000000000000000000000000000000000000000000000000000815260040160405180910390fd5b60008160060160006101000a81548160ff02191690831515021790555060008160000154421161230857600061232f565b81600101544211612328578160000154426123239190613b6b565b61232e565b81600101545b5b905060008260040154826123439190613a3d565b90506000810361235957600193505050506125c3565b826004015461010360008973ffffffffffffffffffffffffffffffffffffffff1673ffffffffffffffffffffffffffffffffffffffff16815260200190815260200160002060010160008282546123b09190613b6b565b92505081905550826005015461010360008973ffffffffffffffffffffffffffffffffffffffff1673ffffffffffffffffffffffffffffffffffffffff168152602001908152602001600020600201600082825461240e9190613b6b565b92505081905550600083600401549050600084600201549050600061010260009054906101000a900473ffffffffffffffffffffffffffffffffffffffff1673ffffffffffffffffffffffffffffffffffffffff166326a6e9eb8a8a85876040518563ffffffff1660e01b815260040161248b9493929190613ded565b6020604051808303816000875af11580156124aa573d6000803e3d6000fd5b505050506040513d601f19601f820116820180604052508101906124ce9190613e47565b9050600061010160009054906101000a900473ffffffffffffffffffffffffffffffffffffffff1673ffffffffffffffffffffffffffffffffffffffff166379cc67908c876040518363ffffffff1660e01b8152600401612530929190613e74565b6020604051808303816000875af115801561254f573d6000803e3d6000fd5b505050506040513d601f19601f820116820180604052508101906125739190613e47565b9050811580612580575080155b156125b7576040517fb00fcb1e00000000000000000000000000000000000000000000000000000000815260040160405180910390fd5b60019750505050505050505b9392505050565b6125d482826113bd565b61264b576125e181612f99565b6125ef8360001c6020612fc6565b604051602001612600929190613fa6565b6040516020818303038152906040526040517f08c379a0000000000000000000000000000000000000000000000000000000008152600401612642919061402a565b60405180910390fd5b5050565b612657610d32565b612696576040517f08c379a000000000000000000000000000000000000000000000000000000000815260040161268d90614098565b60405180910390fd5b565b600080670de0b6b3a76400008510156126dc576040517ecd474300000000000000000000000000000000000000000000000000000000815260040160405180910390fd5b61010260009054906101000a900473ffffffffffffffffffffffffffffffffffffffff1673ffffffffffffffffffffffffffffffffffffffff16635657f79d8587866040518463ffffffff1660e01b815260040161273c939291906140b8565b602060405180830381865afa158015612759573d6000803e3d6000fd5b505050506040513d601f19601f8201168201806040525081019061277d9190613e47565b6127b3576040517f1e45d1b400000000000000000000000000000000000000000000000000000000815260040160405180910390fd5b61010460006127c06119cb565b73ffffffffffffffffffffffffffffffffffffffff1673ffffffffffffffffffffffffffffffffffffffff1681526020019081526020016000206000858152602001908152602001600020600084815260200190815260200160002060060160009054906101000a900460ff1615612864576040517f707001b500000000000000000000000000000000000000000000000000000000815260040160405180910390fd5b600061010460006128736119cb565b73ffffffffffffffffffffffffffffffffffffffff1673ffffffffffffffffffffffffffffffffffffffff168152602001908152602001600020600086815260200190815260200160002060008581526020019081526020016000209050600061010360006128e06119cb565b73ffffffffffffffffffffffffffffffffffffffff1673ffffffffffffffffffffffffffffffffffffffff16815260200190815260200160002090506000816002015461010160009054906101000a900473ffffffffffffffffffffffffffffffffffffffff1673ffffffffffffffffffffffffffffffffffffffff166370a0823161296a6119cb565b6040518263ffffffff1660e01b81526004016129869190613d66565b602060405180830381865afa1580156129a3573d6000803e3d6000fd5b505050506040513d601f19601f820116820180604052508101906129c79190613b3e565b6129d19190613b6b565b90506000670de0b6b3a76400008961010260009054906101000a900473ffffffffffffffffffffffffffffffffffffffff1673ffffffffffffffffffffffffffffffffffffffff16635952a8c68b8b6040518363ffffffff1660e01b8152600401612a3d92919061389c565b602060405180830381865afa158015612a5a573d6000803e3d6000fd5b505050506040513d601f19601f82011682018060405250810190612a7e9190613b3e565b612a889190613a3d565b612a92919061411e565b90506000818460010154612aa69190613b9f565b90508260fe5482612ab79190613a3d565b1115612aef576040517fe4b581a500000000000000000000000000000000000000000000000000000000815260040160405180910390fd5b60008284612afd919061411e565b905082856001016000828254612b139190613b9f565b925050819055508a866002018190555082866004018190555042866003018190555060fd5442612b439190613b9f565b866000018190555060fc548110612b6b5760fc548660000154612b669190613b9f565b612b7c565b808660000154612b7b9190613b9f565b5b86600101819055508281612b909190613a3d565b866005018190555060018660060160006101000a81548160ff0219169083151502179055508560050154856002016000828254612bcd9190613b9f565b925050819055508460000154866001015410612bed578560010154612bf3565b84600001545b8560000181905550600061010260009054906101000a900473ffffffffffffffffffffffffffffffffffffffff1673ffffffffffffffffffffffffffffffffffffffff1663d9895c708c8c8f886040518563ffffffff1660e01b8152600401612c5f9493929190613ded565b6020604051808303816000875af1158015612c7e573d6000803e3d6000fd5b505050506040513d601f19601f82011682018060405250810190612ca29190613e47565b90508087600501549850985050505050505050935093915050565b60008873ffffffffffffffffffffffffffffffffffffffff16637ecebe00896040518263ffffffff1660e01b8152600401612cf89190613d66565b602060405180830381865afa158015612d15573d6000803e3d6000fd5b505050506040513d601f19601f82011682018060405250810190612d399190613b3e565b90508873ffffffffffffffffffffffffffffffffffffffff1663d505accf898989898989896040518863ffffffff1660e01b8152600401612d80979695949392919061415e565b600060405180830381600087803b158015612d9a57600080fd5b505af1158015612dae573d6000803e3d6000fd5b5050505060008973ffffffffffffffffffffffffffffffffffffffff16637ecebe008a6040518263ffffffff1660e01b8152600401612ded9190613d66565b602060405180830381865afa158015612e0a573d6000803e3d6000fd5b505050506040513d601f19601f82011682018060405250810190612e2e9190613b3e565b9050600182612e3d9190613b9f565b8114612e7e576040517f08c379a0000000000000000000000000000000000000000000000000000000008152600401612e759061423f565b60405180910390fd5b50505050505050505050565b600060019054906101000a900460ff16612ed9576040517f08c379a0000000000000000000000000000000000000000000000000000000008152600401612ed090613c45565b60405180910390fd5b6000603360006101000a81548160ff021916908315150217905550565b600060019054906101000a900460ff16612f45576040517f08c379a0000000000000000000000000000000000000000000000000000000008152600401612f3c90613c45565b60405180910390fd5b600160c981905550565b612f57610d32565b15612f97576040517f08c379a0000000000000000000000000000000000000000000000000000000008152600401612f8e906142ab565b60405180910390fd5b565b6060612fbf8273ffffffffffffffffffffffffffffffffffffffff16601460ff16612fc6565b9050919050565b606060006002836002612fd99190613a3d565b612fe39190613b9f565b67ffffffffffffffff811115612ffc57612ffb61393c565b5b6040519080825280601f01601f19166020018201604052801561302e5781602001600182028036833780820191505090505b5090507f3000000000000000000000000000000000000000000000000000000000000000816000815181106130665761306561396b565b5b60200101907effffffffffffffffffffffffffffffffffffffffffffffffffffffffffffff1916908160001a9053507f7800000000000000000000000000000000000000000000000000000000000000816001815181106130ca576130c961396b565b5b60200101907effffffffffffffffffffffffffffffffffffffffffffffffffffffffffffff1916908160001a9053506000600184600261310a9190613a3d565b6131149190613b9f565b90505b60018111156131b4577f3031323334353637383961626364656600000000000000000000000000000000600f8616601081106131565761315561396b565b5b1a60f81b82828151811061316d5761316c61396b565b5b60200101907effffffffffffffffffffffffffffffffffffffffffffffffffffffffffffff1916908160001a905350600485901c9450806131ad906142cb565b9050613117565b50600084146131f8576040517f08c379a00000000000000000000000000000000000000000000000000000000081526004016131ef90614340565b60405180910390fd5b8091505092915050565b600080fd5b60007fffffffff0000000000000000000000000000000000000000000000000000000082169050919050565b61323c81613207565b811461324757600080fd5b50565b60008135905061325981613233565b92915050565b60006020828403121561327557613274613202565b5b60006132838482850161324a565b91505092915050565b60008115159050919050565b6132a18161328c565b82525050565b60006020820190506132bc6000830184613298565b92915050565b600073ffffffffffffffffffffffffffffffffffffffff82169050919050565b60006132ed826132c2565b9050919050565b6132fd816132e2565b811461330857600080fd5b50565b60008135905061331a816132f4565b92915050565b6000819050919050565b61333381613320565b811461333e57600080fd5b50565b6000813590506133508161332a565b92915050565b60008060006060848603121561336f5761336e613202565b5b600061337d8682870161330b565b935050602061338e86828701613341565b925050604061339f86828701613341565b9150509250925092565b600081519050919050565b600082825260208201905092915050565b6000819050602082019050919050565b6133de81613320565b82525050565b60006133f083836133d5565b60208301905092915050565b6000602082019050919050565b6000613414826133a9565b61341e81856133b4565b9350613429836133c5565b8060005b8381101561345a57815161344188826133e4565b975061344c836133fc565b92505060018101905061342d565b5085935050505092915050565b600060208201905081810360008301526134818184613409565b905092915050565b6000819050919050565b61349c81613489565b81146134a757600080fd5b50565b6000813590506134b981613493565b92915050565b6000602082840312156134d5576134d4613202565b5b60006134e3848285016134aa565b91505092915050565b6134f581613489565b82525050565b600060208201905061351060008301846134ec565b92915050565b60006020828403121561352c5761352b613202565b5b600061353a84828501613341565b91505092915050565b6000806040838503121561355a57613559613202565b5b6000613568858286016134aa565b92505060206135798582860161330b565b9150509250929050565b60006020828403121561359957613598613202565b5b60006135a78482850161330b565b91505092915050565b6135b981613320565b82525050565b60006020820190506135d460008301846135b0565b92915050565b600080604083850312156135f1576135f0613202565b5b60006135ff8582860161330b565b925050602061361085828601613341565b9150509250929050565b600060ff82169050919050565b6136308161361a565b811461363b57600080fd5b50565b60008135905061364d81613627565b92915050565b61365c8161328c565b811461366757600080fd5b50565b60008135905061367981613653565b92915050565b600080600080600080600060e0888a03121561369e5761369d613202565b5b60006136ac8a828b01613341565b97505060206136bd8a828b01613341565b96505060406136ce8a828b01613341565b95505060606136df8a828b0161363e565b94505060806136f08a828b016134aa565b93505060a06137018a828b016134aa565b92505060c06137128a828b0161366a565b91505092959891949750929550565b60008060008060008060c0878903121561373e5761373d613202565b5b600061374c89828a01613341565b965050602061375d89828a01613341565b955050604061376e89828a01613341565b945050606061377f89828a0161363e565b935050608061379089828a016134aa565b92505060a06137a189828a016134aa565b9150509295509295509295565b60008060008060008060c087890312156137cb576137ca613202565b5b60006137d989828a0161330b565b96505060206137ea89828a0161330b565b95505060406137fb89828a0161330b565b945050606061380c89828a01613341565b935050608061381d89828a01613341565b92505060a061382e89828a01613341565b9150509295509295509295565b600060c08201905061385060008301896135b0565b61385d60208301886135b0565b61386a60408301876135b0565b61387760608301866135b0565b61388460808301856135b0565b61389160a0830184613298565b979650505050505050565b60006040820190506138b160008301856135b0565b6138be60208301846135b0565b9392505050565b7f4e487b7100000000000000000000000000000000000000000000000000000000600052601160045260246000fd5b60006138ff82613320565b91507fffffffffffffffffffffffffffffffffffffffffffffffffffffffffffffffff8203613931576139306138c5565b5b600182019050919050565b7f4e487b7100000000000000000000000000000000000000000000000000000000600052604160045260246000fd5b7f4e487b7100000000000000000000000000000000000000000000000000000000600052603260045260246000fd5b600082825260208201905092915050565b7f4d75737420686176652061646d696e20726f6c6520746f20706572666f726d2060008201527f7468697320616374696f6e2e0000000000000000000000000000000000000000602082015250565b6000613a07602c8361399a565b9150613a12826139ab565b604082019050919050565b60006020820190508181036000830152613a36816139fa565b9050919050565b6000613a4882613320565b9150613a5383613320565b9250817fffffffffffffffffffffffffffffffffffffffffffffffffffffffffffffffff0483118215151615613a8c57613a8b6138c5565b5b828202905092915050565b7f416363657373436f6e74726f6c3a2063616e206f6e6c792072656e6f756e636560008201527f20726f6c657320666f722073656c660000000000000000000000000000000000602082015250565b6000613af3602f8361399a565b9150613afe82613a97565b604082019050919050565b60006020820190508181036000830152613b2281613ae6565b9050919050565b600081519050613b388161332a565b92915050565b600060208284031215613b5457613b53613202565b5b6000613b6284828501613b29565b91505092915050565b6000613b7682613320565b9150613b8183613320565b9250828203905081811115613b9957613b986138c5565b5b92915050565b6000613baa82613320565b9150613bb583613320565b9250828201905080821115613bcd57613bcc6138c5565b5b92915050565b7f496e697469616c697a61626c653a20636f6e7472616374206973206e6f74206960008201527f6e697469616c697a696e67000000000000000000000000000000000000000000602082015250565b6000613c2f602b8361399a565b9150613c3a82613bd3565b604082019050919050565b60006020820190508181036000830152613c5e81613c22565b9050919050565b7f496e697469616c697a61626c653a20636f6e747261637420697320616c72656160008201527f647920696e697469616c697a6564000000000000000000000000000000000000602082015250565b6000613cc1602e8361399a565b9150613ccc82613c65565b604082019050919050565b60006020820190508181036000830152613cf081613cb4565b9050919050565b6000819050919050565b6000819050919050565b6000613d26613d21613d1c84613cf7565b613d01565b61361a565b9050919050565b613d3681613d0b565b82525050565b6000602082019050613d516000830184613d2d565b92915050565b613d60816132e2565b82525050565b6000602082019050613d7b6000830184613d57565b92915050565b7f5265656e7472616e637947756172643a207265656e7472616e742063616c6c00600082015250565b6000613db7601f8361399a565b9150613dc282613d81565b602082019050919050565b60006020820190508181036000830152613de681613daa565b9050919050565b6000608082019050613e0260008301876135b0565b613e0f60208301866135b0565b613e1c60408301856135b0565b613e2960608301846135b0565b95945050505050565b600081519050613e4181613653565b92915050565b600060208284031215613e5d57613e5c613202565b5b6000613e6b84828501613e32565b91505092915050565b6000604082019050613e896000830185613d57565b613e9660208301846135b0565b9392505050565b600081905092915050565b7f416363657373436f6e74726f6c3a206163636f756e7420000000000000000000600082015250565b6000613ede601783613e9d565b9150613ee982613ea8565b601782019050919050565b600081519050919050565b60005b83811015613f1d578082015181840152602081019050613f02565b60008484015250505050565b6000613f3482613ef4565b613f3e8185613e9d565b9350613f4e818560208601613eff565b80840191505092915050565b7f206973206d697373696e6720726f6c6520000000000000000000000000000000600082015250565b6000613f90601183613e9d565b9150613f9b82613f5a565b601182019050919050565b6000613fb182613ed1565b9150613fbd8285613f29565b9150613fc882613f83565b9150613fd48284613f29565b91508190509392505050565b6000601f19601f8301169050919050565b6000613ffc82613ef4565b614006818561399a565b9350614016818560208601613eff565b61401f81613fe0565b840191505092915050565b600060208201905081810360008301526140448184613ff1565b905092915050565b7f5061757361626c653a206e6f7420706175736564000000000000000000000000600082015250565b600061408260148361399a565b915061408d8261404c565b602082019050919050565b600060208201905081810360008301526140b181614075565b9050919050565b60006060820190506140cd60008301866135b0565b6140da60208301856135b0565b6140e760408301846135b0565b949350505050565b7f4e487b7100000000000000000000000000000000000000000000000000000000600052601260045260246000fd5b600061412982613320565b915061413483613320565b925082614144576141436140ef565b5b828204905092915050565b6141588161361a565b82525050565b600060e082019050614173600083018a613d57565b6141806020830189613d57565b61418d60408301886135b0565b61419a60608301876135b0565b6141a7608083018661414f565b6141b460a08301856134ec565b6141c160c08301846134ec565b98975050505050505050565b7f5361666545524332303a207065726d697420646964206e6f742073756363656560008201527f6400000000000000000000000000000000000000000000000000000000000000602082015250565b600061422960218361399a565b9150614234826141cd565b604082019050919050565b600060208201905081810360008301526142588161421c565b9050919050565b7f5061757361626c653a2070617573656400000000000000000000000000000000600082015250565b600061429560108361399a565b91506142a08261425f565b602082019050919050565b600060208201905081810360008301526142c481614288565b9050919050565b60006142d682613320565b9150600082036142e9576142e86138c5565b5b600182039050919050565b7f537472696e67733a20686578206c656e67746820696e73756666696369656e74600082015250565b600061432a60208361399a565b9150614335826142f4565b602082019050919050565b600060208201905081810360008301526143598161431d565b905091905056fea2646970667358221220b6dd0a9ead9dd2af36e35ca196795dbce265ae5257ec9529513441bafa0bc2b964736f6c63430008100033","opcodes":"PUSH1 0x80 PUSH1 0x40 MSTORE CALLVALUE DUP1 ISZERO PUSH2 0x10 JUMPI PUSH1 0x0 DUP1 REVERT JUMPDEST POP PUSH2 0x4396 DUP1 PUSH2 0x20 PUSH1 0x0 CODECOPY PUSH1 0x0 RETURN INVALID PUSH1 0x80 PUSH1 0x40 MSTORE CALLVALUE DUP1 ISZERO PUSH2 0x10 JUMPI PUSH1 0x0 DUP1 REVERT JUMPDEST POP PUSH1 0x4 CALLDATASIZE LT PUSH2 0x1CF JUMPI PUSH1 0x0 CALLDATALOAD PUSH1 0xE0 SHR DUP1 PUSH4 0x6E8847BD GT PUSH2 0x104 JUMPI DUP1 PUSH4 0xA217FDDF GT PUSH2 0xA2 JUMPI DUP1 PUSH4 0xCFF5EEDE GT PUSH2 0x71 JUMPI DUP1 PUSH4 0xCFF5EEDE EQ PUSH2 0x58F JUMPI DUP1 PUSH4 0xD547741F EQ PUSH2 0x5BF JUMPI DUP1 PUSH4 0xEC249164 EQ PUSH2 0x5DB JUMPI DUP1 PUSH4 0xF099DD50 EQ PUSH2 0x60C JUMPI PUSH2 0x1CF JUMP JUMPDEST DUP1 PUSH4 0xA217FDDF EQ PUSH2 0x507 JUMPI DUP1 PUSH4 0xB4706268 EQ PUSH2 0x525 JUMPI DUP1 PUSH4 0xB6DB75A0 EQ PUSH2 0x541 JUMPI DUP1 PUSH4 0xC392E850 EQ PUSH2 0x55F JUMPI PUSH2 0x1CF JUMP JUMPDEST DUP1 PUSH4 0x81280D2B GT PUSH2 0xDE JUMPI DUP1 PUSH4 0x81280D2B EQ PUSH2 0x468 JUMPI DUP1 PUSH4 0x8456CB59 EQ PUSH2 0x498 JUMPI DUP1 PUSH4 0x88295FB2 EQ PUSH2 0x4A2 JUMPI DUP1 PUSH4 0x91D14854 EQ PUSH2 0x4D7 JUMPI PUSH2 0x1CF JUMP JUMPDEST DUP1 PUSH4 0x6E8847BD EQ PUSH2 0x3D8 JUMPI DUP1 PUSH4 0x728CDBCA EQ PUSH2 0x408 JUMPI DUP1 PUSH4 0x77BD35FC EQ PUSH2 0x438 JUMPI PUSH2 0x1CF JUMP JUMPDEST DUP1 PUSH4 0x42F6B8A7 GT PUSH2 0x171 JUMPI DUP1 PUSH4 0x5C975ABB GT PUSH2 0x14B JUMPI DUP1 PUSH4 0x5C975ABB EQ PUSH2 0x33E JUMPI DUP1 PUSH4 0x642ADC28 EQ PUSH2 0x35C JUMPI DUP1 PUSH4 0x6B6D105E EQ PUSH2 0x38C JUMPI DUP1 PUSH4 0x6E810B1A EQ PUSH2 0x3BC JUMPI PUSH2 0x1CF JUMP JUMPDEST DUP1 PUSH4 0x42F6B8A7 EQ PUSH2 0x2C2 JUMPI DUP1 PUSH4 0x4E94C048 EQ PUSH2 0x2F2 JUMPI DUP1 PUSH4 0x56EB66BB EQ PUSH2 0x322 JUMPI PUSH2 0x1CF JUMP JUMPDEST DUP1 PUSH4 0x24B7AB24 GT PUSH2 0x1AD JUMPI DUP1 PUSH4 0x24B7AB24 EQ PUSH2 0x264 JUMPI DUP1 PUSH4 0x2F2FF15D EQ PUSH2 0x280 JUMPI DUP1 PUSH4 0x36568ABE EQ PUSH2 0x29C JUMPI DUP1 PUSH4 0x3F4BA83A EQ PUSH2 0x2B8 JUMPI PUSH2 0x1CF JUMP JUMPDEST DUP1 PUSH4 0x1FFC9A7 EQ PUSH2 0x1D4 JUMPI DUP1 PUSH4 0x1A5C8F28 EQ PUSH2 0x204 JUMPI DUP1 PUSH4 0x248A9CA3 EQ PUSH2 0x234 JUMPI JUMPDEST PUSH1 0x0 DUP1 REVERT JUMPDEST PUSH2 0x1EE PUSH1 0x4 DUP1 CALLDATASIZE SUB DUP2 ADD SWAP1 PUSH2 0x1E9 SWAP2 SWAP1 PUSH2 0x325F JUMP JUMPDEST PUSH2 0x63C JUMP JUMPDEST PUSH1 0x40 MLOAD PUSH2 0x1FB SWAP2 SWAP1 PUSH2 0x32A7 JUMP JUMPDEST PUSH1 0x40 MLOAD DUP1 SWAP2 SUB SWAP1 RETURN JUMPDEST PUSH2 0x21E PUSH1 0x4 DUP1 CALLDATASIZE SUB DUP2 ADD SWAP1 PUSH2 0x219 SWAP2 SWAP1 PUSH2 0x3356 JUMP JUMPDEST PUSH2 0x6B6 JUMP JUMPDEST PUSH1 0x40 MLOAD PUSH2 0x22B SWAP2 SWAP1 PUSH2 0x3467 JUMP JUMPDEST PUSH1 0x40 MLOAD DUP1 SWAP2 SUB SWAP1 RETURN JUMPDEST PUSH2 0x24E PUSH1 0x4 DUP1 CALLDATASIZE SUB DUP2 ADD SWAP1 PUSH2 0x249 SWAP2 SWAP1 PUSH2 0x34BF JUMP JUMPDEST PUSH2 0x8D9 JUMP JUMPDEST PUSH1 0x40 MLOAD PUSH2 0x25B SWAP2 SWAP1 PUSH2 0x34FB JUMP JUMPDEST PUSH1 0x40 MLOAD DUP1 SWAP2 SUB SWAP1 RETURN JUMPDEST PUSH2 0x27E PUSH1 0x4 DUP1 CALLDATASIZE SUB DUP2 ADD SWAP1 PUSH2 0x279 SWAP2 SWAP1 PUSH2 0x3516 JUMP JUMPDEST PUSH2 0x8F9 JUMP JUMPDEST STOP JUMPDEST PUSH2 0x29A PUSH1 0x4 DUP1 CALLDATASIZE SUB DUP2 ADD SWAP1 PUSH2 0x295 SWAP2 SWAP1 PUSH2 0x3543 JUMP JUMPDEST PUSH2 0x983 JUMP JUMPDEST STOP JUMPDEST PUSH2 0x2B6 PUSH1 0x4 DUP1 CALLDATASIZE SUB DUP2 ADD SWAP1 PUSH2 0x2B1 SWAP2 SWAP1 PUSH2 0x3543 JUMP JUMPDEST PUSH2 0x9A4 JUMP JUMPDEST STOP JUMPDEST PUSH2 0x2C0 PUSH2 0xA27 JUMP JUMPDEST STOP JUMPDEST PUSH2 0x2DC PUSH1 0x4 DUP1 CALLDATASIZE SUB DUP2 ADD SWAP1 PUSH2 0x2D7 SWAP2 SWAP1 PUSH2 0x3583 JUMP JUMPDEST PUSH2 0xA78 JUMP JUMPDEST PUSH1 0x40 MLOAD PUSH2 0x2E9 SWAP2 SWAP1 PUSH2 0x35BF JUMP JUMPDEST PUSH1 0x40 MLOAD DUP1 SWAP2 SUB SWAP1 RETURN JUMPDEST PUSH2 0x30C PUSH1 0x4 DUP1 CALLDATASIZE SUB DUP2 ADD SWAP1 PUSH2 0x307 SWAP2 SWAP1 PUSH2 0x35DA JUMP JUMPDEST PUSH2 0xAF3 JUMP JUMPDEST PUSH1 0x40 MLOAD PUSH2 0x319 SWAP2 SWAP1 PUSH2 0x35BF JUMP JUMPDEST PUSH1 0x40 MLOAD DUP1 SWAP2 SUB SWAP1 RETURN JUMPDEST PUSH2 0x33C PUSH1 0x4 DUP1 CALLDATASIZE SUB DUP2 ADD SWAP1 PUSH2 0x337 SWAP2 SWAP1 PUSH2 0x3516 JUMP JUMPDEST PUSH2 0xCAA JUMP JUMPDEST STOP JUMPDEST PUSH2 0x346 PUSH2 0xD32 JUMP JUMPDEST PUSH1 0x40 MLOAD PUSH2 0x353 SWAP2 SWAP1 PUSH2 0x32A7 JUMP JUMPDEST PUSH1 0x40 MLOAD DUP1 SWAP2 SUB SWAP1 RETURN JUMPDEST PUSH2 0x376 PUSH1 0x4 DUP1 CALLDATASIZE SUB DUP2 ADD SWAP1 PUSH2 0x371 SWAP2 SWAP1 PUSH2 0x367F JUMP JUMPDEST PUSH2 0xD49 JUMP JUMPDEST PUSH1 0x40 MLOAD PUSH2 0x383 SWAP2 SWAP1 PUSH2 0x32A7 JUMP JUMPDEST PUSH1 0x40 MLOAD DUP1 SWAP2 SUB SWAP1 RETURN JUMPDEST PUSH2 0x3A6 PUSH1 0x4 DUP1 CALLDATASIZE SUB DUP2 ADD SWAP1 PUSH2 0x3A1 SWAP2 SWAP1 PUSH2 0x3356 JUMP JUMPDEST PUSH2 0xD7D JUMP JUMPDEST PUSH1 0x40 MLOAD PUSH2 0x3B3 SWAP2 SWAP1 PUSH2 0x35BF JUMP JUMPDEST PUSH1 0x40 MLOAD DUP1 SWAP2 SUB SWAP1 RETURN JUMPDEST PUSH2 0x3D6 PUSH1 0x4 DUP1 CALLDATASIZE SUB DUP2 ADD SWAP1 PUSH2 0x3D1 SWAP2 SWAP1 PUSH2 0x3583 JUMP JUMPDEST PUSH2 0xDEE JUMP JUMPDEST STOP JUMPDEST PUSH2 0x3F2 PUSH1 0x4 DUP1 CALLDATASIZE SUB DUP2 ADD SWAP1 PUSH2 0x3ED SWAP2 SWAP1 PUSH2 0x3721 JUMP JUMPDEST PUSH2 0xF10 JUMP JUMPDEST PUSH1 0x40 MLOAD PUSH2 0x3FF SWAP2 SWAP1 PUSH2 0x32A7 JUMP JUMPDEST PUSH1 0x40 MLOAD DUP1 SWAP2 SUB SWAP1 RETURN JUMPDEST PUSH2 0x422 PUSH1 0x4 DUP1 CALLDATASIZE SUB DUP2 ADD SWAP1 PUSH2 0x41D SWAP2 SWAP1 PUSH2 0x37AE JUMP JUMPDEST PUSH2 0xF42 JUMP JUMPDEST PUSH1 0x40 MLOAD PUSH2 0x42F SWAP2 SWAP1 PUSH2 0x32A7 JUMP JUMPDEST PUSH1 0x40 MLOAD DUP1 SWAP2 SUB SWAP1 RETURN JUMPDEST PUSH2 0x452 PUSH1 0x4 DUP1 CALLDATASIZE SUB DUP2 ADD SWAP1 PUSH2 0x44D SWAP2 SWAP1 PUSH2 0x35DA JUMP JUMPDEST PUSH2 0x11DE JUMP JUMPDEST PUSH1 0x40 MLOAD PUSH2 0x45F SWAP2 SWAP1 PUSH2 0x32A7 JUMP JUMPDEST PUSH1 0x40 MLOAD DUP1 SWAP2 SUB SWAP1 RETURN JUMPDEST PUSH2 0x482 PUSH1 0x4 DUP1 CALLDATASIZE SUB DUP2 ADD SWAP1 PUSH2 0x47D SWAP2 SWAP1 PUSH2 0x3356 JUMP JUMPDEST PUSH2 0x11E6 JUMP JUMPDEST PUSH1 0x40 MLOAD PUSH2 0x48F SWAP2 SWAP1 PUSH2 0x32A7 JUMP JUMPDEST PUSH1 0x40 MLOAD DUP1 SWAP2 SUB SWAP1 RETURN JUMPDEST PUSH2 0x4A0 PUSH2 0x1264 JUMP JUMPDEST STOP JUMPDEST PUSH2 0x4BC PUSH1 0x4 DUP1 CALLDATASIZE SUB DUP2 ADD SWAP1 PUSH2 0x4B7 SWAP2 SWAP1 PUSH2 0x3356 JUMP JUMPDEST PUSH2 0x12B5 JUMP JUMPDEST PUSH1 0x40 MLOAD PUSH2 0x4CE SWAP7 SWAP6 SWAP5 SWAP4 SWAP3 SWAP2 SWAP1 PUSH2 0x383B JUMP JUMPDEST PUSH1 0x40 MLOAD DUP1 SWAP2 SUB SWAP1 RETURN JUMPDEST PUSH2 0x4F1 PUSH1 0x4 DUP1 CALLDATASIZE SUB DUP2 ADD SWAP1 PUSH2 0x4EC SWAP2 SWAP1 PUSH2 0x3543 JUMP JUMPDEST PUSH2 0x13BD JUMP JUMPDEST PUSH1 0x40 MLOAD PUSH2 0x4FE SWAP2 SWAP1 PUSH2 0x32A7 JUMP JUMPDEST PUSH1 0x40 MLOAD DUP1 SWAP2 SUB SWAP1 RETURN JUMPDEST PUSH2 0x50F PUSH2 0x1428 JUMP JUMPDEST PUSH1 0x40 MLOAD PUSH2 0x51C SWAP2 SWAP1 PUSH2 0x34FB JUMP JUMPDEST PUSH1 0x40 MLOAD DUP1 SWAP2 SUB SWAP1 RETURN JUMPDEST PUSH2 0x53F PUSH1 0x4 DUP1 CALLDATASIZE SUB DUP2 ADD SWAP1 PUSH2 0x53A SWAP2 SWAP1 PUSH2 0x3516 JUMP JUMPDEST PUSH2 0x142F JUMP JUMPDEST STOP JUMPDEST PUSH2 0x549 PUSH2 0x14BA JUMP JUMPDEST PUSH1 0x40 MLOAD PUSH2 0x556 SWAP2 SWAP1 PUSH2 0x32A7 JUMP JUMPDEST PUSH1 0x40 MLOAD DUP1 SWAP2 SUB SWAP1 RETURN JUMPDEST PUSH2 0x579 PUSH1 0x4 DUP1 CALLDATASIZE SUB DUP2 ADD SWAP1 PUSH2 0x574 SWAP2 SWAP1 PUSH2 0x3356 JUMP JUMPDEST PUSH2 0x14D9 JUMP JUMPDEST PUSH1 0x40 MLOAD PUSH2 0x586 SWAP2 SWAP1 PUSH2 0x35BF JUMP JUMPDEST PUSH1 0x40 MLOAD DUP1 SWAP2 SUB SWAP1 RETURN JUMPDEST PUSH2 0x5A9 PUSH1 0x4 DUP1 CALLDATASIZE SUB DUP2 ADD SWAP1 PUSH2 0x5A4 SWAP2 SWAP1 PUSH2 0x3583 JUMP JUMPDEST PUSH2 0x154A JUMP JUMPDEST PUSH1 0x40 MLOAD PUSH2 0x5B6 SWAP2 SWAP1 PUSH2 0x35BF JUMP JUMPDEST PUSH1 0x40 MLOAD DUP1 SWAP2 SUB SWAP1 RETURN JUMPDEST PUSH2 0x5D9 PUSH1 0x4 DUP1 CALLDATASIZE SUB DUP2 ADD SWAP1 PUSH2 0x5D4 SWAP2 SWAP1 PUSH2 0x3543 JUMP JUMPDEST PUSH2 0x172F JUMP JUMPDEST STOP JUMPDEST PUSH2 0x5F5 PUSH1 0x4 DUP1 CALLDATASIZE SUB DUP2 ADD SWAP1 PUSH2 0x5F0 SWAP2 SWAP1 PUSH2 0x3583 JUMP JUMPDEST PUSH2 0x1750 JUMP JUMPDEST PUSH1 0x40 MLOAD PUSH2 0x603 SWAP3 SWAP2 SWAP1 PUSH2 0x389C JUMP JUMPDEST PUSH1 0x40 MLOAD DUP1 SWAP2 SUB SWAP1 RETURN JUMPDEST PUSH2 0x626 PUSH1 0x4 DUP1 CALLDATASIZE SUB DUP2 ADD SWAP1 PUSH2 0x621 SWAP2 SWAP1 PUSH2 0x3356 JUMP JUMPDEST PUSH2 0x17D4 JUMP JUMPDEST PUSH1 0x40 MLOAD PUSH2 0x633 SWAP2 SWAP1 PUSH2 0x32A7 JUMP JUMPDEST PUSH1 0x40 MLOAD DUP1 SWAP2 SUB SWAP1 RETURN JUMPDEST PUSH1 0x0 PUSH32 0x7965DB0B00000000000000000000000000000000000000000000000000000000 PUSH28 0xFFFFFFFFFFFFFFFFFFFFFFFFFFFFFFFFFFFFFFFFFFFFFFFFFFFFFFFF NOT AND DUP3 PUSH28 0xFFFFFFFFFFFFFFFFFFFFFFFFFFFFFFFFFFFFFFFFFFFFFFFFFFFFFFFF NOT AND EQ DUP1 PUSH2 0x6AF JUMPI POP PUSH2 0x6AE DUP3 PUSH2 0x186C JUMP JUMPDEST JUMPDEST SWAP1 POP SWAP2 SWAP1 POP JUMP JUMPDEST PUSH1 0x60 PUSH1 0x0 DUP1 JUMPDEST DUP4 DUP2 LT ISZERO PUSH2 0x7B5 JUMPI PUSH1 0x0 PUSH2 0x104 PUSH1 0x0 DUP9 PUSH20 0xFFFFFFFFFFFFFFFFFFFFFFFFFFFFFFFFFFFFFFFF AND PUSH20 0xFFFFFFFFFFFFFFFFFFFFFFFFFFFFFFFFFFFFFFFF AND DUP2 MSTORE PUSH1 0x20 ADD SWAP1 DUP2 MSTORE PUSH1 0x20 ADD PUSH1 0x0 KECCAK256 PUSH1 0x0 DUP8 DUP2 MSTORE PUSH1 0x20 ADD SWAP1 DUP2 MSTORE PUSH1 0x20 ADD PUSH1 0x0 KECCAK256 PUSH1 0x0 DUP4 DUP2 MSTORE PUSH1 0x20 ADD SWAP1 DUP2 MSTORE PUSH1 0x20 ADD PUSH1 0x0 KECCAK256 PUSH1 0x40 MLOAD DUP1 PUSH1 0xE0 ADD PUSH1 0x40 MSTORE SWAP1 DUP2 PUSH1 0x0 DUP3 ADD SLOAD DUP2 MSTORE PUSH1 0x20 ADD PUSH1 0x1 DUP3 ADD SLOAD DUP2 MSTORE PUSH1 0x20 ADD PUSH1 0x2 DUP3 ADD SLOAD DUP2 MSTORE PUSH1 0x20 ADD PUSH1 0x3 DUP3 ADD SLOAD DUP2 MSTORE PUSH1 0x20 ADD PUSH1 0x4 DUP3 ADD SLOAD DUP2 MSTORE PUSH1 0x20 ADD PUSH1 0x5 DUP3 ADD SLOAD DUP2 MSTORE PUSH1 0x20 ADD PUSH1 0x6 DUP3 ADD PUSH1 0x0 SWAP1 SLOAD SWAP1 PUSH2 0x100 EXP SWAP1 DIV PUSH1 0xFF AND ISZERO ISZERO ISZERO ISZERO DUP2 MSTORE POP POP SWAP1 POP DUP1 PUSH1 0xC0 ADD MLOAD ISZERO PUSH2 0x7A3 JUMPI DUP3 PUSH2 0x7A0 SWAP1 PUSH2 0x38F4 JUMP JUMPDEST SWAP3 POP JUMPDEST DUP2 PUSH2 0x7AD SWAP1 PUSH2 0x38F4 JUMP JUMPDEST SWAP2 POP POP PUSH2 0x6BC JUMP JUMPDEST POP PUSH1 0x0 DUP2 PUSH8 0xFFFFFFFFFFFFFFFF DUP2 GT ISZERO PUSH2 0x7D2 JUMPI PUSH2 0x7D1 PUSH2 0x393C JUMP JUMPDEST JUMPDEST PUSH1 0x40 MLOAD SWAP1 DUP1 DUP3 MSTORE DUP1 PUSH1 0x20 MUL PUSH1 0x20 ADD DUP3 ADD PUSH1 0x40 MSTORE DUP1 ISZERO PUSH2 0x800 JUMPI DUP2 PUSH1 0x20 ADD PUSH1 0x20 DUP3 MUL DUP1 CALLDATASIZE DUP4 CALLDATACOPY DUP1 DUP3 ADD SWAP2 POP POP SWAP1 POP JUMPDEST POP SWAP1 POP PUSH1 0x0 DUP1 JUMPDEST DUP6 DUP2 LT ISZERO PUSH2 0x8CB JUMPI PUSH1 0x0 PUSH2 0x104 PUSH1 0x0 DUP11 PUSH20 0xFFFFFFFFFFFFFFFFFFFFFFFFFFFFFFFFFFFFFFFF AND PUSH20 0xFFFFFFFFFFFFFFFFFFFFFFFFFFFFFFFFFFFFFFFF AND DUP2 MSTORE PUSH1 0x20 ADD SWAP1 DUP2 MSTORE PUSH1 0x20 ADD PUSH1 0x0 KECCAK256 PUSH1 0x0 DUP10 DUP2 MSTORE PUSH1 0x20 ADD SWAP1 DUP2 MSTORE PUSH1 0x20 ADD PUSH1 0x0 KECCAK256 PUSH1 0x0 DUP4 DUP2 MSTORE PUSH1 0x20 ADD SWAP1 DUP2 MSTORE PUSH1 0x20 ADD PUSH1 0x0 KECCAK256 SWAP1 POP DUP1 PUSH1 0x6 ADD PUSH1 0x0 SWAP1 SLOAD SWAP1 PUSH2 0x100 EXP SWAP1 DIV PUSH1 0xFF AND ISZERO PUSH2 0x8B9 JUMPI DUP2 DUP5 DUP5 DUP2 MLOAD DUP2 LT PUSH2 0x8A0 JUMPI PUSH2 0x89F PUSH2 0x396B JUMP JUMPDEST JUMPDEST PUSH1 0x20 MUL PUSH1 0x20 ADD ADD DUP2 DUP2 MSTORE POP POP DUP3 PUSH2 0x8B6 SWAP1 PUSH2 0x38F4 JUMP JUMPDEST SWAP3 POP JUMPDEST DUP2 PUSH2 0x8C3 SWAP1 PUSH2 0x38F4 JUMP JUMPDEST SWAP2 POP POP PUSH2 0x807 JUMP JUMPDEST POP DUP2 SWAP4 POP POP POP POP SWAP4 SWAP3 POP POP POP JUMP JUMPDEST PUSH1 0x0 PUSH1 0x97 PUSH1 0x0 DUP4 DUP2 MSTORE PUSH1 0x20 ADD SWAP1 DUP2 MSTORE PUSH1 0x20 ADD PUSH1 0x0 KECCAK256 PUSH1 0x1 ADD SLOAD SWAP1 POP SWAP2 SWAP1 POP JUMP JUMPDEST PUSH2 0x901 PUSH2 0x14BA JUMP JUMPDEST PUSH2 0x940 JUMPI PUSH1 0x40 MLOAD PUSH32 0x8C379A000000000000000000000000000000000000000000000000000000000 DUP2 MSTORE PUSH1 0x4 ADD PUSH2 0x937 SWAP1 PUSH2 0x3A1D JUMP JUMPDEST PUSH1 0x40 MLOAD DUP1 SWAP2 SUB SWAP1 REVERT JUMPDEST PUSH2 0xE10 DUP2 PUSH2 0x94E SWAP2 SWAP1 PUSH2 0x3A3D JUMP JUMPDEST PUSH1 0xFD DUP2 SWAP1 SSTORE POP PUSH32 0x75C07EB064B8CCF959BCC601B55315CA198E67B597DC0A7B93E130F8CA779A67 PUSH1 0x40 MLOAD PUSH1 0x40 MLOAD DUP1 SWAP2 SUB SWAP1 LOG1 POP JUMP JUMPDEST PUSH2 0x98C DUP3 PUSH2 0x8D9 JUMP JUMPDEST PUSH2 0x995 DUP2 PUSH2 0x18D6 JUMP JUMPDEST PUSH2 0x99F DUP4 DUP4 PUSH2 0x18EA JUMP JUMPDEST POP POP POP JUMP JUMPDEST PUSH2 0x9AC PUSH2 0x19CB JUMP JUMPDEST PUSH20 0xFFFFFFFFFFFFFFFFFFFFFFFFFFFFFFFFFFFFFFFF AND DUP2 PUSH20 0xFFFFFFFFFFFFFFFFFFFFFFFFFFFFFFFFFFFFFFFF AND EQ PUSH2 0xA19 JUMPI PUSH1 0x40 MLOAD PUSH32 0x8C379A000000000000000000000000000000000000000000000000000000000 DUP2 MSTORE PUSH1 0x4 ADD PUSH2 0xA10 SWAP1 PUSH2 0x3B09 JUMP JUMPDEST PUSH1 0x40 MLOAD DUP1 SWAP2 SUB SWAP1 REVERT JUMPDEST PUSH2 0xA23 DUP3 DUP3 PUSH2 0x19D3 JUMP JUMPDEST POP POP JUMP JUMPDEST PUSH2 0xA2F PUSH2 0x14BA JUMP JUMPDEST PUSH2 0xA6E JUMPI PUSH1 0x40 MLOAD PUSH32 0x8C379A000000000000000000000000000000000000000000000000000000000 DUP2 MSTORE PUSH1 0x4 ADD PUSH2 0xA65 SWAP1 PUSH2 0x3A1D JUMP JUMPDEST PUSH1 0x40 MLOAD DUP1 SWAP2 SUB SWAP1 REVERT JUMPDEST PUSH2 0xA76 PUSH2 0x1AB5 JUMP JUMPDEST JUMP JUMPDEST PUSH1 0x0 DUP1 PUSH2 0x103 PUSH1 0x0 DUP5 PUSH20 0xFFFFFFFFFFFFFFFFFFFFFFFFFFFFFFFFFFFFFFFF AND PUSH20 0xFFFFFFFFFFFFFFFFFFFFFFFFFFFFFFFFFFFFFFFF AND DUP2 MSTORE PUSH1 0x20 ADD SWAP1 DUP2 MSTORE PUSH1 0x20 ADD PUSH1 0x0 KECCAK256 PUSH1 0x40 MLOAD DUP1 PUSH1 0x60 ADD PUSH1 0x40 MSTORE SWAP1 DUP2 PUSH1 0x0 DUP3 ADD SLOAD DUP2 MSTORE PUSH1 0x20 ADD PUSH1 0x1 DUP3 ADD SLOAD DUP2 MSTORE PUSH1 0x20 ADD PUSH1 0x2 DUP3 ADD SLOAD DUP2 MSTORE POP POP SWAP1 POP DUP1 PUSH1 0x40 ADD MLOAD SWAP2 POP POP SWAP2 SWAP1 POP JUMP JUMPDEST PUSH1 0x0 DUP1 PUSH1 0x0 SWAP1 POP PUSH1 0x0 PUSH2 0xBA3 DUP6 DUP6 PUSH2 0x102 PUSH1 0x0 SWAP1 SLOAD SWAP1 PUSH2 0x100 EXP SWAP1 DIV PUSH20 0xFFFFFFFFFFFFFFFFFFFFFFFFFFFFFFFFFFFFFFFF AND PUSH20 0xFFFFFFFFFFFFFFFFFFFFFFFFFFFFFFFFFFFFFFFF AND PUSH4 0x3BF4C082 DUP9 PUSH1 0x40 MLOAD DUP3 PUSH4 0xFFFFFFFF AND PUSH1 0xE0 SHL DUP2 MSTORE PUSH1 0x4 ADD PUSH2 0xB5D SWAP2 SWAP1 PUSH2 0x35BF JUMP JUMPDEST PUSH1 0x20 PUSH1 0x40 MLOAD DUP1 DUP4 SUB DUP2 DUP7 GAS STATICCALL ISZERO DUP1 ISZERO PUSH2 0xB7A JUMPI RETURNDATASIZE PUSH1 0x0 DUP1 RETURNDATACOPY RETURNDATASIZE PUSH1 0x0 REVERT JUMPDEST POP POP POP POP PUSH1 0x40 MLOAD RETURNDATASIZE PUSH1 0x1F NOT PUSH1 0x1F DUP3 ADD AND DUP3 ADD DUP1 PUSH1 0x40 MSTORE POP DUP2 ADD SWAP1 PUSH2 0xB9E SWAP2 SWAP1 PUSH2 0x3B3E JUMP JUMPDEST PUSH2 0x6B6 JUMP JUMPDEST SWAP1 POP PUSH1 0x0 JUMPDEST DUP2 MLOAD DUP2 LT ISZERO PUSH2 0xC9E JUMPI PUSH1 0x0 PUSH2 0x104 PUSH1 0x0 DUP9 PUSH20 0xFFFFFFFFFFFFFFFFFFFFFFFFFFFFFFFFFFFFFFFF AND PUSH20 0xFFFFFFFFFFFFFFFFFFFFFFFFFFFFFFFFFFFFFFFF AND DUP2 MSTORE PUSH1 0x20 ADD SWAP1 DUP2 MSTORE PUSH1 0x20 ADD PUSH1 0x0 KECCAK256 PUSH1 0x0 DUP8 DUP2 MSTORE PUSH1 0x20 ADD SWAP1 DUP2 MSTORE PUSH1 0x20 ADD PUSH1 0x0 KECCAK256 PUSH1 0x0 DUP5 DUP5 DUP2 MLOAD DUP2 LT PUSH2 0xC19 JUMPI PUSH2 0xC18 PUSH2 0x396B JUMP JUMPDEST JUMPDEST PUSH1 0x20 MUL PUSH1 0x20 ADD ADD MLOAD DUP2 MSTORE PUSH1 0x20 ADD SWAP1 DUP2 MSTORE PUSH1 0x20 ADD PUSH1 0x0 KECCAK256 SWAP1 POP PUSH1 0x0 DUP2 PUSH1 0x0 ADD SLOAD TIMESTAMP GT PUSH2 0xC45 JUMPI PUSH1 0x0 PUSH2 0xC6C JUMP JUMPDEST DUP2 PUSH1 0x1 ADD SLOAD TIMESTAMP GT PUSH2 0xC65 JUMPI DUP2 PUSH1 0x0 ADD SLOAD TIMESTAMP PUSH2 0xC60 SWAP2 SWAP1 PUSH2 0x3B6B JUMP JUMPDEST PUSH2 0xC6B JUMP JUMPDEST DUP2 PUSH1 0x1 ADD SLOAD JUMPDEST JUMPDEST SWAP1 POP DUP1 DUP3 PUSH1 0x4 ADD SLOAD PUSH2 0xC7E SWAP2 SWAP1 PUSH2 0x3A3D JUMP JUMPDEST DUP6 PUSH2 0xC89 SWAP2 SWAP1 PUSH2 0x3B9F JUMP JUMPDEST SWAP5 POP DUP3 PUSH2 0xC95 SWAP1 PUSH2 0x38F4 JUMP JUMPDEST SWAP3 POP POP POP PUSH2 0xBA8 JUMP JUMPDEST POP DUP2 SWAP3 POP POP POP SWAP3 SWAP2 POP POP JUMP JUMPDEST PUSH2 0xCB2 PUSH2 0x14BA JUMP JUMPDEST PUSH2 0xCF1 JUMPI PUSH1 0x40 MLOAD PUSH32 0x8C379A000000000000000000000000000000000000000000000000000000000 DUP2 MSTORE PUSH1 0x4 ADD PUSH2 0xCE8 SWAP1 PUSH2 0x3A1D JUMP JUMPDEST PUSH1 0x40 MLOAD DUP1 SWAP2 SUB SWAP1 REVERT JUMPDEST PUSH1 0x3C DUP2 PUSH2 0xCFE SWAP2 SWAP1 PUSH2 0x3A3D JUMP JUMPDEST PUSH1 0xFE DUP2 SWAP1 SSTORE POP PUSH31 0x3A5A2424463BB22C8FC4C0F2422B7A18712B7713F9619CAA313F499FAD615E PUSH1 0x40 MLOAD PUSH1 0x40 MLOAD DUP1 SWAP2 SUB SWAP1 LOG1 POP JUMP JUMPDEST PUSH1 0x0 PUSH1 0x33 PUSH1 0x0 SWAP1 SLOAD SWAP1 PUSH2 0x100 EXP SWAP1 DIV PUSH1 0xFF AND SWAP1 POP SWAP1 JUMP JUMPDEST PUSH1 0x0 PUSH2 0xD53 PUSH2 0x1B18 JUMP JUMPDEST PUSH1 0x0 PUSH2 0xD64 DUP10 DUP10 DUP10 DUP10 DUP10 DUP10 DUP10 PUSH2 0x1B67 JUMP JUMPDEST SWAP1 POP DUP1 SWAP2 POP POP PUSH2 0xD72 PUSH2 0x1DC4 JUMP JUMPDEST SWAP8 SWAP7 POP POP POP POP POP POP POP JUMP JUMPDEST PUSH1 0x0 PUSH2 0x104 PUSH1 0x0 DUP6 PUSH20 0xFFFFFFFFFFFFFFFFFFFFFFFFFFFFFFFFFFFFFFFF AND PUSH20 0xFFFFFFFFFFFFFFFFFFFFFFFFFFFFFFFFFFFFFFFF AND DUP2 MSTORE PUSH1 0x20 ADD SWAP1 DUP2 MSTORE PUSH1 0x20 ADD PUSH1 0x0 KECCAK256 PUSH1 0x0 DUP5 DUP2 MSTORE PUSH1 0x20 ADD SWAP1 DUP2 MSTORE PUSH1 0x20 ADD PUSH1 0x0 KECCAK256 PUSH1 0x0 DUP4 DUP2 MSTORE PUSH1 0x20 ADD SWAP1 DUP2 MSTORE PUSH1 0x20 ADD PUSH1 0x0 KECCAK256 PUSH1 0x2 ADD SLOAD SWAP1 POP SWAP4 SWAP3 POP POP POP JUMP JUMPDEST PUSH1 0x0 PUSH1 0x1 SWAP1 SLOAD SWAP1 PUSH2 0x100 EXP SWAP1 DIV PUSH1 0xFF AND PUSH2 0xE3D JUMPI PUSH1 0x40 MLOAD PUSH32 0x8C379A000000000000000000000000000000000000000000000000000000000 DUP2 MSTORE PUSH1 0x4 ADD PUSH2 0xE34 SWAP1 PUSH2 0x3C45 JUMP JUMPDEST PUSH1 0x40 MLOAD DUP1 SWAP2 SUB SWAP1 REVERT JUMPDEST PUSH1 0x0 PUSH20 0xFFFFFFFFFFFFFFFFFFFFFFFFFFFFFFFFFFFFFFFF AND DUP2 PUSH20 0xFFFFFFFFFFFFFFFFFFFFFFFFFFFFFFFFFFFFFFFF AND SUB PUSH2 0xEA3 JUMPI PUSH1 0x40 MLOAD PUSH32 0x5415139400000000000000000000000000000000000000000000000000000000 DUP2 MSTORE PUSH1 0x4 ADD PUSH1 0x40 MLOAD DUP1 SWAP2 SUB SWAP1 REVERT JUMPDEST PUSH2 0xEAB PUSH2 0x1DCE JUMP JUMPDEST PUSH2 0xEB3 PUSH2 0x1E27 JUMP JUMPDEST PUSH2 0xEBB PUSH2 0x1E78 JUMP JUMPDEST PUSH2 0xECC PUSH2 0xEC6 PUSH2 0x1ED1 JUMP JUMPDEST DUP3 PUSH2 0x18EA JUMP JUMPDEST PUSH2 0xEDD PUSH2 0xED7 PUSH2 0x1EF9 JUMP JUMPDEST DUP3 PUSH2 0x18EA JUMP JUMPDEST PUSH2 0xEF5 PUSH2 0xEE8 PUSH2 0x1EF9 JUMP JUMPDEST PUSH2 0xEF0 PUSH2 0x1ED1 JUMP JUMPDEST PUSH2 0x1F21 JUMP JUMPDEST PUSH2 0xF0D PUSH2 0xF00 PUSH2 0x1ED1 JUMP JUMPDEST PUSH2 0xF08 PUSH2 0x1ED1 JUMP JUMPDEST PUSH2 0x1F21 JUMP JUMPDEST POP JUMP JUMPDEST PUSH1 0x0 PUSH2 0xF1A PUSH2 0x1B18 JUMP JUMPDEST PUSH1 0x0 PUSH2 0xF2A DUP9 DUP9 DUP9 DUP9 DUP9 DUP9 PUSH2 0x1F7D JUMP JUMPDEST SWAP1 POP DUP1 SWAP2 POP POP PUSH2 0xF38 PUSH2 0x1DC4 JUMP JUMPDEST SWAP7 SWAP6 POP POP POP POP POP POP JUMP JUMPDEST PUSH1 0x0 DUP1 PUSH1 0x0 PUSH1 0x1 SWAP1 SLOAD SWAP1 PUSH2 0x100 EXP SWAP1 DIV PUSH1 0xFF AND ISZERO SWAP1 POP DUP1 DUP1 ISZERO PUSH2 0xF75 JUMPI POP PUSH1 0x1 PUSH1 0x0 DUP1 SLOAD SWAP1 PUSH2 0x100 EXP SWAP1 DIV PUSH1 0xFF AND PUSH1 0xFF AND LT JUMPDEST DUP1 PUSH2 0xFA2 JUMPI POP PUSH2 0xF84 ADDRESS PUSH2 0x21A2 JUMP JUMPDEST ISZERO DUP1 ISZERO PUSH2 0xFA1 JUMPI POP PUSH1 0x1 PUSH1 0x0 DUP1 SLOAD SWAP1 PUSH2 0x100 EXP SWAP1 DIV PUSH1 0xFF AND PUSH1 0xFF AND EQ JUMPDEST JUMPDEST PUSH2 0xFE1 JUMPI PUSH1 0x40 MLOAD PUSH32 0x8C379A000000000000000000000000000000000000000000000000000000000 DUP2 MSTORE PUSH1 0x4 ADD PUSH2 0xFD8 SWAP1 PUSH2 0x3CD7 JUMP JUMPDEST PUSH1 0x40 MLOAD DUP1 SWAP2 SUB SWAP1 REVERT JUMPDEST PUSH1 0x1 PUSH1 0x0 DUP1 PUSH2 0x100 EXP DUP2 SLOAD DUP2 PUSH1 0xFF MUL NOT AND SWAP1 DUP4 PUSH1 0xFF AND MUL OR SWAP1 SSTORE POP DUP1 ISZERO PUSH2 0x101E JUMPI PUSH1 0x1 PUSH1 0x0 PUSH1 0x1 PUSH2 0x100 EXP DUP2 SLOAD DUP2 PUSH1 0xFF MUL NOT AND SWAP1 DUP4 ISZERO ISZERO MUL OR SWAP1 SSTORE POP JUMPDEST PUSH1 0x0 PUSH1 0xFB DUP2 SWAP1 SSTORE POP PUSH1 0x3C DUP4 PUSH2 0x1033 SWAP2 SWAP1 PUSH2 0x3A3D JUMP JUMPDEST PUSH1 0xFC DUP2 SWAP1 SSTORE POP PUSH1 0x3C DUP5 PUSH2 0x1046 SWAP2 SWAP1 PUSH2 0x3A3D JUMP JUMPDEST PUSH1 0xFD DUP2 SWAP1 SSTORE POP PUSH1 0x3C DUP6 PUSH2 0x1059 SWAP2 SWAP1 PUSH2 0x3A3D JUMP JUMPDEST PUSH1 0xFE DUP2 SWAP1 SSTORE POP DUP8 PUSH1 0xFF PUSH1 0x0 PUSH2 0x100 EXP DUP2 SLOAD DUP2 PUSH20 0xFFFFFFFFFFFFFFFFFFFFFFFFFFFFFFFFFFFFFFFF MUL NOT AND SWAP1 DUP4 PUSH20 0xFFFFFFFFFFFFFFFFFFFFFFFFFFFFFFFFFFFFFFFF AND MUL OR SWAP1 SSTORE POP DUP8 PUSH2 0x100 PUSH1 0x0 PUSH2 0x100 EXP DUP2 SLOAD DUP2 PUSH20 0xFFFFFFFFFFFFFFFFFFFFFFFFFFFFFFFFFFFFFFFF MUL NOT AND SWAP1 DUP4 PUSH20 0xFFFFFFFFFFFFFFFFFFFFFFFFFFFFFFFFFFFFFFFF AND MUL OR SWAP1 SSTORE POP DUP7 PUSH2 0x101 PUSH1 0x0 PUSH2 0x100 EXP DUP2 SLOAD DUP2 PUSH20 0xFFFFFFFFFFFFFFFFFFFFFFFFFFFFFFFFFFFFFFFF MUL NOT AND SWAP1 DUP4 PUSH20 0xFFFFFFFFFFFFFFFFFFFFFFFFFFFFFFFFFFFFFFFF AND MUL OR SWAP1 SSTORE POP DUP6 PUSH2 0x102 PUSH1 0x0 PUSH2 0x100 EXP DUP2 SLOAD DUP2 PUSH20 0xFFFFFFFFFFFFFFFFFFFFFFFFFFFFFFFFFFFFFFFF MUL NOT AND SWAP1 DUP4 PUSH20 0xFFFFFFFFFFFFFFFFFFFFFFFFFFFFFFFFFFFFFFFF AND MUL OR SWAP1 SSTORE POP PUSH2 0x1176 PUSH2 0x1171 PUSH2 0x19CB JUMP JUMPDEST PUSH2 0xDEE JUMP JUMPDEST PUSH1 0x1 SWAP2 POP DUP1 ISZERO PUSH2 0x11D3 JUMPI PUSH1 0x0 DUP1 PUSH1 0x1 PUSH2 0x100 EXP DUP2 SLOAD DUP2 PUSH1 0xFF MUL NOT AND SWAP1 DUP4 ISZERO ISZERO MUL OR SWAP1 SSTORE POP PUSH32 0x7F26B83FF96E1F2B6A682F133852F6798A09C465DA95921460CEFB3847402498 PUSH1 0x1 PUSH1 0x40 MLOAD PUSH2 0x11CA SWAP2 SWAP1 PUSH2 0x3D3C JUMP JUMPDEST PUSH1 0x40 MLOAD DUP1 SWAP2 SUB SWAP1 LOG1 JUMPDEST POP SWAP7 SWAP6 POP POP POP POP POP POP JUMP JUMPDEST PUSH1 0x0 SWAP3 SWAP2 POP POP JUMP JUMPDEST PUSH1 0x0 PUSH2 0x104 PUSH1 0x0 DUP6 PUSH20 0xFFFFFFFFFFFFFFFFFFFFFFFFFFFFFFFFFFFFFFFF AND PUSH20 0xFFFFFFFFFFFFFFFFFFFFFFFFFFFFFFFFFFFFFFFF AND DUP2 MSTORE PUSH1 0x20 ADD SWAP1 DUP2 MSTORE PUSH1 0x20 ADD PUSH1 0x0 KECCAK256 PUSH1 0x0 DUP5 DUP2 MSTORE PUSH1 0x20 ADD SWAP1 DUP2 MSTORE PUSH1 0x20 ADD PUSH1 0x0 KECCAK256 PUSH1 0x0 DUP4 DUP2 MSTORE PUSH1 0x20 ADD SWAP1 DUP2 MSTORE PUSH1 0x20 ADD PUSH1 0x0 KECCAK256 PUSH1 0x6 ADD PUSH1 0x0 SWAP1 SLOAD SWAP1 PUSH2 0x100 EXP SWAP1 DIV PUSH1 0xFF AND SWAP1 POP SWAP4 SWAP3 POP POP POP JUMP JUMPDEST PUSH2 0x126C PUSH2 0x14BA JUMP JUMPDEST PUSH2 0x12AB JUMPI PUSH1 0x40 MLOAD PUSH32 0x8C379A000000000000000000000000000000000000000000000000000000000 DUP2 MSTORE PUSH1 0x4 ADD PUSH2 0x12A2 SWAP1 PUSH2 0x3A1D JUMP JUMPDEST PUSH1 0x40 MLOAD DUP1 SWAP2 SUB SWAP1 REVERT JUMPDEST PUSH2 0x12B3 PUSH2 0x21C5 JUMP JUMPDEST JUMP JUMPDEST PUSH1 0x0 DUP1 PUSH1 0x0 DUP1 PUSH1 0x0 DUP1 PUSH1 0x0 PUSH2 0x104 PUSH1 0x0 DUP12 PUSH20 0xFFFFFFFFFFFFFFFFFFFFFFFFFFFFFFFFFFFFFFFF AND PUSH20 0xFFFFFFFFFFFFFFFFFFFFFFFFFFFFFFFFFFFFFFFF AND DUP2 MSTORE PUSH1 0x20 ADD SWAP1 DUP2 MSTORE PUSH1 0x20 ADD PUSH1 0x0 KECCAK256 PUSH1 0x0 DUP11 DUP2 MSTORE PUSH1 0x20 ADD SWAP1 DUP2 MSTORE PUSH1 0x20 ADD PUSH1 0x0 KECCAK256 PUSH1 0x0 DUP10 DUP2 MSTORE PUSH1 0x20 ADD SWAP1 DUP2 MSTORE PUSH1 0x20 ADD PUSH1 0x0 KECCAK256 PUSH1 0x40 MLOAD DUP1 PUSH1 0xE0 ADD PUSH1 0x40 MSTORE SWAP1 DUP2 PUSH1 0x0 DUP3 ADD SLOAD DUP2 MSTORE PUSH1 0x20 ADD PUSH1 0x1 DUP3 ADD SLOAD DUP2 MSTORE PUSH1 0x20 ADD PUSH1 0x2 DUP3 ADD SLOAD DUP2 MSTORE PUSH1 0x20 ADD PUSH1 0x3 DUP3 ADD SLOAD DUP2 MSTORE PUSH1 0x20 ADD PUSH1 0x4 DUP3 ADD SLOAD DUP2 MSTORE PUSH1 0x20 ADD PUSH1 0x5 DUP3 ADD SLOAD DUP2 MSTORE PUSH1 0x20 ADD PUSH1 0x6 DUP3 ADD PUSH1 0x0 SWAP1 SLOAD SWAP1 PUSH2 0x100 EXP SWAP1 DIV PUSH1 0xFF AND ISZERO ISZERO ISZERO ISZERO DUP2 MSTORE POP POP SWAP1 POP DUP1 PUSH1 0x40 ADD MLOAD DUP2 PUSH1 0x80 ADD MLOAD DUP3 PUSH1 0x60 ADD MLOAD DUP4 PUSH1 0x0 ADD MLOAD DUP5 PUSH1 0x20 ADD MLOAD DUP6 PUSH1 0xC0 ADD MLOAD SWAP7 POP SWAP7 POP SWAP7 POP SWAP7 POP SWAP7 POP SWAP7 POP POP SWAP4 SWAP8 POP SWAP4 SWAP8 SWAP2 SWAP6 POP SWAP4 POP JUMP JUMPDEST PUSH1 0x0 PUSH1 0x97 PUSH1 0x0 DUP5 DUP2 MSTORE PUSH1 0x20 ADD SWAP1 DUP2 MSTORE PUSH1 0x20 ADD PUSH1 0x0 KECCAK256 PUSH1 0x0 ADD PUSH1 0x0 DUP4 PUSH20 0xFFFFFFFFFFFFFFFFFFFFFFFFFFFFFFFFFFFFFFFF AND PUSH20 0xFFFFFFFFFFFFFFFFFFFFFFFFFFFFFFFFFFFFFFFF AND DUP2 MSTORE PUSH1 0x20 ADD SWAP1 DUP2 MSTORE PUSH1 0x20 ADD PUSH1 0x0 KECCAK256 PUSH1 0x0 SWAP1 SLOAD SWAP1 PUSH2 0x100 EXP SWAP1 DIV PUSH1 0xFF AND SWAP1 POP SWAP3 SWAP2 POP POP JUMP JUMPDEST PUSH1 0x0 DUP1 SHL DUP2 JUMP JUMPDEST PUSH2 0x1437 PUSH2 0x14BA JUMP JUMPDEST PUSH2 0x1476 JUMPI PUSH1 0x40 MLOAD PUSH32 0x8C379A000000000000000000000000000000000000000000000000000000000 DUP2 MSTORE PUSH1 0x4 ADD PUSH2 0x146D SWAP1 PUSH2 0x3A1D JUMP JUMPDEST PUSH1 0x40 MLOAD DUP1 SWAP2 SUB SWAP1 REVERT JUMPDEST PUSH3 0x15180 DUP2 PUSH2 0x1485 SWAP2 SWAP1 PUSH2 0x3A3D JUMP JUMPDEST PUSH1 0xFC DUP2 SWAP1 SSTORE POP PUSH32 0xDB4FB2FD6B8B90F67BDA8671842D5CAB4EB4B7EBA9683F5BCEC9ABA9473CC957 PUSH1 0x40 MLOAD PUSH1 0x40 MLOAD DUP1 SWAP2 SUB SWAP1 LOG1 POP JUMP JUMPDEST PUSH1 0x0 PUSH2 0x14D4 PUSH2 0x14C7 PUSH2 0x1ED1 JUMP JUMPDEST PUSH2 0x14CF PUSH2 0x19CB JUMP JUMPDEST PUSH2 0x13BD JUMP JUMPDEST SWAP1 POP SWAP1 JUMP JUMPDEST PUSH1 0x0 PUSH2 0x104 PUSH1 0x0 DUP6 PUSH20 0xFFFFFFFFFFFFFFFFFFFFFFFFFFFFFFFFFFFFFFFF AND PUSH20 0xFFFFFFFFFFFFFFFFFFFFFFFFFFFFFFFFFFFFFFFF AND DUP2 MSTORE PUSH1 0x20 ADD SWAP1 DUP2 MSTORE PUSH1 0x20 ADD PUSH1 0x0 KECCAK256 PUSH1 0x0 DUP5 DUP2 MSTORE PUSH1 0x20 ADD SWAP1 DUP2 MSTORE PUSH1 0x20 ADD PUSH1 0x0 KECCAK256 PUSH1 0x0 DUP4 DUP2 MSTORE PUSH1 0x20 ADD SWAP1 DUP2 MSTORE PUSH1 0x20 ADD PUSH1 0x0 KECCAK256 PUSH1 0x1 ADD SLOAD SWAP1 POP SWAP4 SWAP3 POP POP POP JUMP JUMPDEST PUSH1 0x0 DUP1 PUSH1 0x0 SWAP1 POP PUSH1 0x0 JUMPDEST PUSH1 0xFB SLOAD DUP2 LT ISZERO PUSH2 0x1725 JUMPI PUSH1 0x0 DUP1 PUSH2 0x1608 DUP7 DUP5 PUSH2 0x102 PUSH1 0x0 SWAP1 SLOAD SWAP1 PUSH2 0x100 EXP SWAP1 DIV PUSH20 0xFFFFFFFFFFFFFFFFFFFFFFFFFFFFFFFFFFFFFFFF AND PUSH20 0xFFFFFFFFFFFFFFFFFFFFFFFFFFFFFFFFFFFFFFFF AND PUSH4 0x3BF4C082 DUP8 PUSH1 0x40 MLOAD DUP3 PUSH4 0xFFFFFFFF AND PUSH1 0xE0 SHL DUP2 MSTORE PUSH1 0x4 ADD PUSH2 0x15C2 SWAP2 SWAP1 PUSH2 0x35BF JUMP JUMPDEST PUSH1 0x20 PUSH1 0x40 MLOAD DUP1 DUP4 SUB DUP2 DUP7 GAS STATICCALL ISZERO DUP1 ISZERO PUSH2 0x15DF JUMPI RETURNDATASIZE PUSH1 0x0 DUP1 RETURNDATACOPY RETURNDATASIZE PUSH1 0x0 REVERT JUMPDEST POP POP POP POP PUSH1 0x40 MLOAD RETURNDATASIZE PUSH1 0x1F NOT PUSH1 0x1F DUP3 ADD AND DUP3 ADD DUP1 PUSH1 0x40 MSTORE POP DUP2 ADD SWAP1 PUSH2 0x1603 SWAP2 SWAP1 PUSH2 0x3B3E JUMP JUMPDEST PUSH2 0x6B6 JUMP JUMPDEST SWAP1 POP PUSH1 0x0 JUMPDEST DUP2 MLOAD DUP2 LT ISZERO PUSH2 0x1703 JUMPI PUSH1 0x0 PUSH2 0x104 PUSH1 0x0 DUP10 PUSH20 0xFFFFFFFFFFFFFFFFFFFFFFFFFFFFFFFFFFFFFFFF AND PUSH20 0xFFFFFFFFFFFFFFFFFFFFFFFFFFFFFFFFFFFFFFFF AND DUP2 MSTORE PUSH1 0x20 ADD SWAP1 DUP2 MSTORE PUSH1 0x20 ADD PUSH1 0x0 KECCAK256 PUSH1 0x0 DUP7 DUP2 MSTORE PUSH1 0x20 ADD SWAP1 DUP2 MSTORE PUSH1 0x20 ADD PUSH1 0x0 KECCAK256 PUSH1 0x0 DUP5 DUP5 DUP2 MLOAD DUP2 LT PUSH2 0x167E JUMPI PUSH2 0x167D PUSH2 0x396B JUMP JUMPDEST JUMPDEST PUSH1 0x20 MUL PUSH1 0x20 ADD ADD MLOAD DUP2 MSTORE PUSH1 0x20 ADD SWAP1 DUP2 MSTORE PUSH1 0x20 ADD PUSH1 0x0 KECCAK256 SWAP1 POP PUSH1 0x0 DUP2 PUSH1 0x0 ADD SLOAD TIMESTAMP GT PUSH2 0x16AA JUMPI PUSH1 0x0 PUSH2 0x16D1 JUMP JUMPDEST DUP2 PUSH1 0x1 ADD SLOAD TIMESTAMP GT PUSH2 0x16CA JUMPI DUP2 PUSH1 0x0 ADD SLOAD TIMESTAMP PUSH2 0x16C5 SWAP2 SWAP1 PUSH2 0x3B6B JUMP JUMPDEST PUSH2 0x16D0 JUMP JUMPDEST DUP2 PUSH1 0x1 ADD SLOAD JUMPDEST JUMPDEST SWAP1 POP DUP1 DUP3 PUSH1 0x4 ADD SLOAD PUSH2 0x16E3 SWAP2 SWAP1 PUSH2 0x3A3D JUMP JUMPDEST DUP6 PUSH2 0x16EE SWAP2 SWAP1 PUSH2 0x3B9F JUMP JUMPDEST SWAP5 POP DUP3 PUSH2 0x16FA SWAP1 PUSH2 0x38F4 JUMP JUMPDEST SWAP3 POP POP POP PUSH2 0x160D JUMP JUMPDEST POP DUP2 DUP5 PUSH2 0x1710 SWAP2 SWAP1 PUSH2 0x3B9F JUMP JUMPDEST SWAP4 POP DUP3 PUSH2 0x171C SWAP1 PUSH2 0x38F4 JUMP JUMPDEST SWAP3 POP POP POP PUSH2 0x1554 JUMP JUMPDEST POP DUP1 SWAP2 POP POP SWAP2 SWAP1 POP JUMP JUMPDEST PUSH2 0x1738 DUP3 PUSH2 0x8D9 JUMP JUMPDEST PUSH2 0x1741 DUP2 PUSH2 0x18D6 JUMP JUMPDEST PUSH2 0x174B DUP4 DUP4 PUSH2 0x19D3 JUMP JUMPDEST POP POP POP JUMP JUMPDEST PUSH1 0x0 DUP1 PUSH1 0x0 PUSH2 0x103 PUSH1 0x0 DUP6 PUSH20 0xFFFFFFFFFFFFFFFFFFFFFFFFFFFFFFFFFFFFFFFF AND PUSH20 0xFFFFFFFFFFFFFFFFFFFFFFFFFFFFFFFFFFFFFFFF AND DUP2 MSTORE PUSH1 0x20 ADD SWAP1 DUP2 MSTORE PUSH1 0x20 ADD PUSH1 0x0 KECCAK256 PUSH1 0x40 MLOAD DUP1 PUSH1 0x60 ADD PUSH1 0x40 MSTORE SWAP1 DUP2 PUSH1 0x0 DUP3 ADD SLOAD DUP2 MSTORE PUSH1 0x20 ADD PUSH1 0x1 DUP3 ADD SLOAD DUP2 MSTORE PUSH1 0x20 ADD PUSH1 0x2 DUP3 ADD SLOAD DUP2 MSTORE POP POP SWAP1 POP DUP1 PUSH1 0x20 ADD MLOAD DUP2 PUSH1 0x0 ADD MLOAD SWAP3 POP SWAP3 POP POP SWAP2 POP SWAP2 JUMP JUMPDEST PUSH1 0x0 TIMESTAMP PUSH2 0x17E2 DUP6 DUP6 DUP6 PUSH2 0x14D9 JUMP JUMPDEST GT ISZERO PUSH2 0x181A JUMPI PUSH1 0x40 MLOAD PUSH32 0x707001B500000000000000000000000000000000000000000000000000000000 DUP2 MSTORE PUSH1 0x4 ADD PUSH1 0x40 MLOAD DUP1 SWAP2 SUB SWAP1 REVERT JUMPDEST PUSH1 0x0 PUSH2 0x1827 DUP6 DUP6 DUP6 PUSH2 0x2228 JUMP JUMPDEST SWAP1 POP DUP1 PUSH2 0x1860 JUMPI PUSH1 0x40 MLOAD PUSH32 0xB00FCB1E00000000000000000000000000000000000000000000000000000000 DUP2 MSTORE PUSH1 0x4 ADD PUSH1 0x40 MLOAD DUP1 SWAP2 SUB SWAP1 REVERT JUMPDEST PUSH1 0x1 SWAP2 POP POP SWAP4 SWAP3 POP POP POP JUMP JUMPDEST PUSH1 0x0 PUSH32 0x1FFC9A700000000000000000000000000000000000000000000000000000000 PUSH28 0xFFFFFFFFFFFFFFFFFFFFFFFFFFFFFFFFFFFFFFFFFFFFFFFFFFFFFFFF NOT AND DUP3 PUSH28 0xFFFFFFFFFFFFFFFFFFFFFFFFFFFFFFFFFFFFFFFFFFFFFFFFFFFFFFFF NOT AND EQ SWAP1 POP SWAP2 SWAP1 POP JUMP JUMPDEST PUSH2 0x18E7 DUP2 PUSH2 0x18E2 PUSH2 0x19CB JUMP JUMPDEST PUSH2 0x25CA JUMP JUMPDEST POP JUMP JUMPDEST PUSH2 0x18F4 DUP3 DUP3 PUSH2 0x13BD JUMP JUMPDEST PUSH2 0x19C7 JUMPI PUSH1 0x1 PUSH1 0x97 PUSH1 0x0 DUP5 DUP2 MSTORE PUSH1 0x20 ADD SWAP1 DUP2 MSTORE PUSH1 0x20 ADD PUSH1 0x0 KECCAK256 PUSH1 0x0 ADD PUSH1 0x0 DUP4 PUSH20 0xFFFFFFFFFFFFFFFFFFFFFFFFFFFFFFFFFFFFFFFF AND PUSH20 0xFFFFFFFFFFFFFFFFFFFFFFFFFFFFFFFFFFFFFFFF AND DUP2 MSTORE PUSH1 0x20 ADD SWAP1 DUP2 MSTORE PUSH1 0x20 ADD PUSH1 0x0 KECCAK256 PUSH1 0x0 PUSH2 0x100 EXP DUP2 SLOAD DUP2 PUSH1 0xFF MUL NOT AND SWAP1 DUP4 ISZERO ISZERO MUL OR SWAP1 SSTORE POP PUSH2 0x196C PUSH2 0x19CB JUMP JUMPDEST PUSH20 0xFFFFFFFFFFFFFFFFFFFFFFFFFFFFFFFFFFFFFFFF AND DUP2 PUSH20 0xFFFFFFFFFFFFFFFFFFFFFFFFFFFFFFFFFFFFFFFF AND DUP4 PUSH32 0x2F8788117E7EFF1D82E926EC794901D17C78024A50270940304540A733656F0D PUSH1 0x40 MLOAD PUSH1 0x40 MLOAD DUP1 SWAP2 SUB SWAP1 LOG4 JUMPDEST POP POP JUMP JUMPDEST PUSH1 0x0 CALLER SWAP1 POP SWAP1 JUMP JUMPDEST PUSH2 0x19DD DUP3 DUP3 PUSH2 0x13BD JUMP JUMPDEST ISZERO PUSH2 0x1AB1 JUMPI PUSH1 0x0 PUSH1 0x97 PUSH1 0x0 DUP5 DUP2 MSTORE PUSH1 0x20 ADD SWAP1 DUP2 MSTORE PUSH1 0x20 ADD PUSH1 0x0 KECCAK256 PUSH1 0x0 ADD PUSH1 0x0 DUP4 PUSH20 0xFFFFFFFFFFFFFFFFFFFFFFFFFFFFFFFFFFFFFFFF AND PUSH20 0xFFFFFFFFFFFFFFFFFFFFFFFFFFFFFFFFFFFFFFFF AND DUP2 MSTORE PUSH1 0x20 ADD SWAP1 DUP2 MSTORE PUSH1 0x20 ADD PUSH1 0x0 KECCAK256 PUSH1 0x0 PUSH2 0x100 EXP DUP2 SLOAD DUP2 PUSH1 0xFF MUL NOT AND SWAP1 DUP4 ISZERO ISZERO MUL OR SWAP1 SSTORE POP PUSH2 0x1A56 PUSH2 0x19CB JUMP JUMPDEST PUSH20 0xFFFFFFFFFFFFFFFFFFFFFFFFFFFFFFFFFFFFFFFF AND DUP2 PUSH20 0xFFFFFFFFFFFFFFFFFFFFFFFFFFFFFFFFFFFFFFFF AND DUP4 PUSH32 0xF6391F5C32D9C69D2A47EA670B442974B53935D1EDC7FD64EB21E047A839171B PUSH1 0x40 MLOAD PUSH1 0x40 MLOAD DUP1 SWAP2 SUB SWAP1 LOG4 JUMPDEST POP POP JUMP JUMPDEST PUSH2 0x1ABD PUSH2 0x264F JUMP JUMPDEST PUSH1 0x0 PUSH1 0x33 PUSH1 0x0 PUSH2 0x100 EXP DUP2 SLOAD DUP2 PUSH1 0xFF MUL NOT AND SWAP1 DUP4 ISZERO ISZERO MUL OR SWAP1 SSTORE POP PUSH32 0x5DB9EE0A495BF2E6FF9C91A7834C1BA4FDD244A5E8AA4E537BD38AEAE4B073AA PUSH2 0x1B01 PUSH2 0x19CB JUMP JUMPDEST PUSH1 0x40 MLOAD PUSH2 0x1B0E SWAP2 SWAP1 PUSH2 0x3D66 JUMP JUMPDEST PUSH1 0x40 MLOAD DUP1 SWAP2 SUB SWAP1 LOG1 JUMP JUMPDEST PUSH1 0x2 PUSH1 0xC9 SLOAD SUB PUSH2 0x1B5D JUMPI PUSH1 0x40 MLOAD PUSH32 0x8C379A000000000000000000000000000000000000000000000000000000000 DUP2 MSTORE PUSH1 0x4 ADD PUSH2 0x1B54 SWAP1 PUSH2 0x3DCD JUMP JUMPDEST PUSH1 0x40 MLOAD DUP1 SWAP2 SUB SWAP1 REVERT JUMPDEST PUSH1 0x2 PUSH1 0xC9 DUP2 SWAP1 SSTORE POP JUMP JUMPDEST PUSH1 0x0 PUSH2 0x104 PUSH1 0x0 PUSH2 0x1B76 PUSH2 0x19CB JUMP JUMPDEST PUSH20 0xFFFFFFFFFFFFFFFFFFFFFFFFFFFFFFFFFFFFFFFF AND PUSH20 0xFFFFFFFFFFFFFFFFFFFFFFFFFFFFFFFFFFFFFFFF AND DUP2 MSTORE PUSH1 0x20 ADD SWAP1 DUP2 MSTORE PUSH1 0x20 ADD PUSH1 0x0 KECCAK256 PUSH1 0x0 DUP9 DUP2 MSTORE PUSH1 0x20 ADD SWAP1 DUP2 MSTORE PUSH1 0x20 ADD PUSH1 0x0 KECCAK256 PUSH1 0x0 DUP8 DUP2 MSTORE PUSH1 0x20 ADD SWAP1 DUP2 MSTORE PUSH1 0x20 ADD PUSH1 0x0 KECCAK256 PUSH1 0x6 ADD PUSH1 0x0 SWAP1 SLOAD SWAP1 PUSH2 0x100 EXP SWAP1 DIV PUSH1 0xFF AND PUSH2 0x1C19 JUMPI PUSH1 0x40 MLOAD PUSH32 0x96AE3E8200000000000000000000000000000000000000000000000000000000 DUP2 MSTORE PUSH1 0x4 ADD PUSH1 0x40 MLOAD DUP1 SWAP2 SUB SWAP1 REVERT JUMPDEST PUSH1 0x0 PUSH2 0x1C2D PUSH2 0x1C26 PUSH2 0x19CB JUMP JUMPDEST DUP10 DUP10 PUSH2 0x2228 JUMP JUMPDEST SWAP1 POP DUP1 PUSH2 0x1C66 JUMPI PUSH1 0x40 MLOAD PUSH32 0xB00FCB1E00000000000000000000000000000000000000000000000000000000 DUP2 MSTORE PUSH1 0x4 ADD PUSH1 0x40 MLOAD DUP1 SWAP2 SUB SWAP1 REVERT JUMPDEST DUP3 PUSH2 0x1DB4 JUMPI PUSH1 0x0 DUP10 PUSH2 0x104 PUSH1 0x0 PUSH2 0x1C7B PUSH2 0x19CB JUMP JUMPDEST PUSH20 0xFFFFFFFFFFFFFFFFFFFFFFFFFFFFFFFFFFFFFFFF AND PUSH20 0xFFFFFFFFFFFFFFFFFFFFFFFFFFFFFFFFFFFFFFFF AND DUP2 MSTORE PUSH1 0x20 ADD SWAP1 DUP2 MSTORE PUSH1 0x20 ADD PUSH1 0x0 KECCAK256 PUSH1 0x0 DUP12 DUP2 MSTORE PUSH1 0x20 ADD SWAP1 DUP2 MSTORE PUSH1 0x20 ADD PUSH1 0x0 KECCAK256 PUSH1 0x0 DUP11 DUP2 MSTORE PUSH1 0x20 ADD SWAP1 DUP2 MSTORE PUSH1 0x20 ADD PUSH1 0x0 KECCAK256 PUSH1 0x2 ADD SLOAD PUSH2 0x1CE5 SWAP2 SWAP1 PUSH2 0x3B6B JUMP JUMPDEST SWAP1 POP PUSH1 0x0 PUSH3 0x278D00 PUSH1 0xFC SLOAD TIMESTAMP PUSH2 0x1CFB SWAP2 SWAP1 PUSH2 0x3B9F JUMP JUMPDEST PUSH2 0x1D05 SWAP2 SWAP1 PUSH2 0x3B9F JUMP JUMPDEST SWAP1 POP PUSH1 0x0 DUP1 PUSH2 0x1D15 DUP5 DUP14 DUP14 PUSH2 0x2698 JUMP JUMPDEST SWAP2 POP SWAP2 POP DUP2 PUSH2 0x1D50 JUMPI PUSH1 0x40 MLOAD PUSH32 0xB00FCB1E00000000000000000000000000000000000000000000000000000000 DUP2 MSTORE PUSH1 0x4 ADD PUSH1 0x40 MLOAD DUP1 SWAP2 SUB SWAP1 REVERT JUMPDEST PUSH2 0x1DAF PUSH2 0x1D5B PUSH2 0x19CB JUMP JUMPDEST ADDRESS DUP4 DUP7 DUP15 DUP15 DUP15 PUSH2 0x100 PUSH1 0x0 SWAP1 SLOAD SWAP1 PUSH2 0x100 EXP SWAP1 DIV PUSH20 0xFFFFFFFFFFFFFFFFFFFFFFFFFFFFFFFFFFFFFFFF AND PUSH20 0xFFFFFFFFFFFFFFFFFFFFFFFFFFFFFFFFFFFFFFFF AND PUSH2 0x2CBD SWAP1 SWAP8 SWAP7 SWAP6 SWAP5 SWAP4 SWAP3 SWAP2 SWAP1 PUSH4 0xFFFFFFFF AND JUMP JUMPDEST POP POP POP POP JUMPDEST PUSH1 0x1 SWAP2 POP POP SWAP8 SWAP7 POP POP POP POP POP POP POP JUMP JUMPDEST PUSH1 0x1 PUSH1 0xC9 DUP2 SWAP1 SSTORE POP JUMP JUMPDEST PUSH1 0x0 PUSH1 0x1 SWAP1 SLOAD SWAP1 PUSH2 0x100 EXP SWAP1 DIV PUSH1 0xFF AND PUSH2 0x1E1D JUMPI PUSH1 0x40 MLOAD PUSH32 0x8C379A000000000000000000000000000000000000000000000000000000000 DUP2 MSTORE PUSH1 0x4 ADD PUSH2 0x1E14 SWAP1 PUSH2 0x3C45 JUMP JUMPDEST PUSH1 0x40 MLOAD DUP1 SWAP2 SUB SWAP1 REVERT JUMPDEST PUSH2 0x1E25 PUSH2 0x2E8A JUMP JUMPDEST JUMP JUMPDEST PUSH1 0x0 PUSH1 0x1 SWAP1 SLOAD SWAP1 PUSH2 0x100 EXP SWAP1 DIV PUSH1 0xFF AND PUSH2 0x1E76 JUMPI PUSH1 0x40 MLOAD PUSH32 0x8C379A000000000000000000000000000000000000000000000000000000000 DUP2 MSTORE PUSH1 0x4 ADD PUSH2 0x1E6D SWAP1 PUSH2 0x3C45 JUMP JUMPDEST PUSH1 0x40 MLOAD DUP1 SWAP2 SUB SWAP1 REVERT JUMPDEST JUMP JUMPDEST PUSH1 0x0 PUSH1 0x1 SWAP1 SLOAD SWAP1 PUSH2 0x100 EXP SWAP1 DIV PUSH1 0xFF AND PUSH2 0x1EC7 JUMPI PUSH1 0x40 MLOAD PUSH32 0x8C379A000000000000000000000000000000000000000000000000000000000 DUP2 MSTORE PUSH1 0x4 ADD PUSH2 0x1EBE SWAP1 PUSH2 0x3C45 JUMP JUMPDEST PUSH1 0x40 MLOAD DUP1 SWAP2 SUB SWAP1 REVERT JUMPDEST PUSH2 0x1ECF PUSH2 0x2EF6 JUMP JUMPDEST JUMP JUMPDEST PUSH1 0x0 PUSH32 0xA49807205CE4D355092EF5A8A18F56E8913CF4A201FBE287825B095693C21775 SWAP1 POP SWAP1 JUMP JUMPDEST PUSH1 0x0 PUSH32 0x65D7A28E3265B37A6474929F336521B332C1681B933F6CB9F3376673440D862A SWAP1 POP SWAP1 JUMP JUMPDEST PUSH1 0x0 PUSH2 0x1F2C DUP4 PUSH2 0x8D9 JUMP JUMPDEST SWAP1 POP DUP2 PUSH1 0x97 PUSH1 0x0 DUP6 DUP2 MSTORE PUSH1 0x20 ADD SWAP1 DUP2 MSTORE PUSH1 0x20 ADD PUSH1 0x0 KECCAK256 PUSH1 0x1 ADD DUP2 SWAP1 SSTORE POP DUP2 DUP2 DUP5 PUSH32 0xBD79B86FFE0AB8E8776151514217CD7CACD52C909F66475C3AF44E129F0B00FF PUSH1 0x40 MLOAD PUSH1 0x40 MLOAD DUP1 SWAP2 SUB SWAP1 LOG4 POP POP POP JUMP JUMPDEST PUSH1 0x0 DUP1 DUP8 PUSH2 0x104 PUSH1 0x0 PUSH2 0x1F8E PUSH2 0x19CB JUMP JUMPDEST PUSH20 0xFFFFFFFFFFFFFFFFFFFFFFFFFFFFFFFFFFFFFFFF AND PUSH20 0xFFFFFFFFFFFFFFFFFFFFFFFFFFFFFFFFFFFFFFFF AND DUP2 MSTORE PUSH1 0x20 ADD SWAP1 DUP2 MSTORE PUSH1 0x20 ADD PUSH1 0x0 KECCAK256 PUSH1 0x0 DUP10 DUP2 MSTORE PUSH1 0x20 ADD SWAP1 DUP2 MSTORE PUSH1 0x20 ADD PUSH1 0x0 KECCAK256 PUSH1 0x0 DUP9 DUP2 MSTORE PUSH1 0x20 ADD SWAP1 DUP2 MSTORE PUSH1 0x20 ADD PUSH1 0x0 KECCAK256 PUSH1 0x2 ADD SLOAD PUSH2 0x1FF8 SWAP2 SWAP1 PUSH2 0x3B9F JUMP JUMPDEST SWAP1 POP PUSH2 0x104 PUSH1 0x0 PUSH2 0x2007 PUSH2 0x19CB JUMP JUMPDEST PUSH20 0xFFFFFFFFFFFFFFFFFFFFFFFFFFFFFFFFFFFFFFFF AND PUSH20 0xFFFFFFFFFFFFFFFFFFFFFFFFFFFFFFFFFFFFFFFF AND DUP2 MSTORE PUSH1 0x20 ADD SWAP1 DUP2 MSTORE PUSH1 0x20 ADD PUSH1 0x0 KECCAK256 PUSH1 0x0 DUP9 DUP2 MSTORE PUSH1 0x20 ADD SWAP1 DUP2 MSTORE PUSH1 0x20 ADD PUSH1 0x0 KECCAK256 PUSH1 0x0 DUP8 DUP2 MSTORE PUSH1 0x20 ADD SWAP1 DUP2 MSTORE PUSH1 0x20 ADD PUSH1 0x0 KECCAK256 PUSH1 0x6 ADD PUSH1 0x0 SWAP1 SLOAD SWAP1 PUSH2 0x100 EXP SWAP1 DIV PUSH1 0xFF AND ISZERO PUSH2 0x20C8 JUMPI PUSH1 0x0 PUSH2 0x208D PUSH2 0x2086 PUSH2 0x19CB JUMP JUMPDEST DUP10 DUP10 PUSH2 0x2228 JUMP JUMPDEST SWAP1 POP DUP1 PUSH2 0x20C6 JUMPI PUSH1 0x40 MLOAD PUSH32 0xB00FCB1E00000000000000000000000000000000000000000000000000000000 DUP2 MSTORE PUSH1 0x4 ADD PUSH1 0x40 MLOAD DUP1 SWAP2 SUB SWAP1 REVERT JUMPDEST POP JUMPDEST PUSH1 0x0 PUSH3 0x278D00 PUSH1 0xFC SLOAD TIMESTAMP PUSH2 0x20DC SWAP2 SWAP1 PUSH2 0x3B9F JUMP JUMPDEST PUSH2 0x20E6 SWAP2 SWAP1 PUSH2 0x3B9F JUMP JUMPDEST SWAP1 POP PUSH1 0x0 DUP1 PUSH2 0x20F6 DUP5 DUP12 DUP12 PUSH2 0x2698 JUMP JUMPDEST SWAP2 POP SWAP2 POP DUP2 PUSH2 0x2131 JUMPI PUSH1 0x40 MLOAD PUSH32 0xB00FCB1E00000000000000000000000000000000000000000000000000000000 DUP2 MSTORE PUSH1 0x4 ADD PUSH1 0x40 MLOAD DUP1 SWAP2 SUB SWAP1 REVERT JUMPDEST PUSH2 0x2190 PUSH2 0x213C PUSH2 0x19CB JUMP JUMPDEST ADDRESS DUP4 DUP7 DUP13 DUP13 DUP13 PUSH2 0x100 PUSH1 0x0 SWAP1 SLOAD SWAP1 PUSH2 0x100 EXP SWAP1 DIV PUSH20 0xFFFFFFFFFFFFFFFFFFFFFFFFFFFFFFFFFFFFFFFF AND PUSH20 0xFFFFFFFFFFFFFFFFFFFFFFFFFFFFFFFFFFFFFFFF AND PUSH2 0x2CBD SWAP1 SWAP8 SWAP7 SWAP6 SWAP5 SWAP4 SWAP3 SWAP2 SWAP1 PUSH4 0xFFFFFFFF AND JUMP JUMPDEST PUSH1 0x1 SWAP5 POP POP POP POP POP SWAP7 SWAP6 POP POP POP POP POP POP JUMP JUMPDEST PUSH1 0x0 DUP1 DUP3 PUSH20 0xFFFFFFFFFFFFFFFFFFFFFFFFFFFFFFFFFFFFFFFF AND EXTCODESIZE GT SWAP1 POP SWAP2 SWAP1 POP JUMP JUMPDEST PUSH2 0x21CD PUSH2 0x2F4F JUMP JUMPDEST PUSH1 0x1 PUSH1 0x33 PUSH1 0x0 PUSH2 0x100 EXP DUP2 SLOAD DUP2 PUSH1 0xFF MUL NOT AND SWAP1 DUP4 ISZERO ISZERO MUL OR SWAP1 SSTORE POP PUSH32 0x62E78CEA01BEE320CD4E420270B5EA74000D11B0C9F74754EBDBFC544B05A258 PUSH2 0x2211 PUSH2 0x19CB JUMP JUMPDEST PUSH1 0x40 MLOAD PUSH2 0x221E SWAP2 SWAP1 PUSH2 0x3D66 JUMP JUMPDEST PUSH1 0x40 MLOAD DUP1 SWAP2 SUB SWAP1 LOG1 JUMP JUMPDEST PUSH1 0x0 DUP1 PUSH2 0x104 PUSH1 0x0 DUP7 PUSH20 0xFFFFFFFFFFFFFFFFFFFFFFFFFFFFFFFFFFFFFFFF AND PUSH20 0xFFFFFFFFFFFFFFFFFFFFFFFFFFFFFFFFFFFFFFFF AND DUP2 MSTORE PUSH1 0x20 ADD SWAP1 DUP2 MSTORE PUSH1 0x20 ADD PUSH1 0x0 KECCAK256 PUSH1 0x0 DUP6 DUP2 MSTORE PUSH1 0x20 ADD SWAP1 DUP2 MSTORE PUSH1 0x20 ADD PUSH1 0x0 KECCAK256 PUSH1 0x0 DUP5 DUP2 MSTORE PUSH1 0x20 ADD SWAP1 DUP2 MSTORE PUSH1 0x20 ADD PUSH1 0x0 KECCAK256 SWAP1 POP DUP1 PUSH1 0x6 ADD PUSH1 0x0 SWAP1 SLOAD SWAP1 PUSH2 0x100 EXP SWAP1 DIV PUSH1 0xFF AND PUSH2 0x22D7 JUMPI PUSH1 0x40 MLOAD PUSH32 0x96AE3E8200000000000000000000000000000000000000000000000000000000 DUP2 MSTORE PUSH1 0x4 ADD PUSH1 0x40 MLOAD DUP1 SWAP2 SUB SWAP1 REVERT JUMPDEST PUSH1 0x0 DUP2 PUSH1 0x6 ADD PUSH1 0x0 PUSH2 0x100 EXP DUP2 SLOAD DUP2 PUSH1 0xFF MUL NOT AND SWAP1 DUP4 ISZERO ISZERO MUL OR SWAP1 SSTORE POP PUSH1 0x0 DUP2 PUSH1 0x0 ADD SLOAD TIMESTAMP GT PUSH2 0x2308 JUMPI PUSH1 0x0 PUSH2 0x232F JUMP JUMPDEST DUP2 PUSH1 0x1 ADD SLOAD TIMESTAMP GT PUSH2 0x2328 JUMPI DUP2 PUSH1 0x0 ADD SLOAD TIMESTAMP PUSH2 0x2323 SWAP2 SWAP1 PUSH2 0x3B6B JUMP JUMPDEST PUSH2 0x232E JUMP JUMPDEST DUP2 PUSH1 0x1 ADD SLOAD JUMPDEST JUMPDEST SWAP1 POP PUSH1 0x0 DUP3 PUSH1 0x4 ADD SLOAD DUP3 PUSH2 0x2343 SWAP2 SWAP1 PUSH2 0x3A3D JUMP JUMPDEST SWAP1 POP PUSH1 0x0 DUP2 SUB PUSH2 0x2359 JUMPI PUSH1 0x1 SWAP4 POP POP POP POP PUSH2 0x25C3 JUMP JUMPDEST DUP3 PUSH1 0x4 ADD SLOAD PUSH2 0x103 PUSH1 0x0 DUP10 PUSH20 0xFFFFFFFFFFFFFFFFFFFFFFFFFFFFFFFFFFFFFFFF AND PUSH20 0xFFFFFFFFFFFFFFFFFFFFFFFFFFFFFFFFFFFFFFFF AND DUP2 MSTORE PUSH1 0x20 ADD SWAP1 DUP2 MSTORE PUSH1 0x20 ADD PUSH1 0x0 KECCAK256 PUSH1 0x1 ADD PUSH1 0x0 DUP3 DUP3 SLOAD PUSH2 0x23B0 SWAP2 SWAP1 PUSH2 0x3B6B JUMP JUMPDEST SWAP3 POP POP DUP2 SWAP1 SSTORE POP DUP3 PUSH1 0x5 ADD SLOAD PUSH2 0x103 PUSH1 0x0 DUP10 PUSH20 0xFFFFFFFFFFFFFFFFFFFFFFFFFFFFFFFFFFFFFFFF AND PUSH20 0xFFFFFFFFFFFFFFFFFFFFFFFFFFFFFFFFFFFFFFFF AND DUP2 MSTORE PUSH1 0x20 ADD SWAP1 DUP2 MSTORE PUSH1 0x20 ADD PUSH1 0x0 KECCAK256 PUSH1 0x2 ADD PUSH1 0x0 DUP3 DUP3 SLOAD PUSH2 0x240E SWAP2 SWAP1 PUSH2 0x3B6B JUMP JUMPDEST SWAP3 POP POP DUP2 SWAP1 SSTORE POP PUSH1 0x0 DUP4 PUSH1 0x4 ADD SLOAD SWAP1 POP PUSH1 0x0 DUP5 PUSH1 0x2 ADD SLOAD SWAP1 POP PUSH1 0x0 PUSH2 0x102 PUSH1 0x0 SWAP1 SLOAD SWAP1 PUSH2 0x100 EXP SWAP1 DIV PUSH20 0xFFFFFFFFFFFFFFFFFFFFFFFFFFFFFFFFFFFFFFFF AND PUSH20 0xFFFFFFFFFFFFFFFFFFFFFFFFFFFFFFFFFFFFFFFF AND PUSH4 0x26A6E9EB DUP11 DUP11 DUP6 DUP8 PUSH1 0x40 MLOAD DUP6 PUSH4 0xFFFFFFFF AND PUSH1 0xE0 SHL DUP2 MSTORE PUSH1 0x4 ADD PUSH2 0x248B SWAP5 SWAP4 SWAP3 SWAP2 SWAP1 PUSH2 0x3DED JUMP JUMPDEST PUSH1 0x20 PUSH1 0x40 MLOAD DUP1 DUP4 SUB DUP2 PUSH1 0x0 DUP8 GAS CALL ISZERO DUP1 ISZERO PUSH2 0x24AA JUMPI RETURNDATASIZE PUSH1 0x0 DUP1 RETURNDATACOPY RETURNDATASIZE PUSH1 0x0 REVERT JUMPDEST POP POP POP POP PUSH1 0x40 MLOAD RETURNDATASIZE PUSH1 0x1F NOT PUSH1 0x1F DUP3 ADD AND DUP3 ADD DUP1 PUSH1 0x40 MSTORE POP DUP2 ADD SWAP1 PUSH2 0x24CE SWAP2 SWAP1 PUSH2 0x3E47 JUMP JUMPDEST SWAP1 POP PUSH1 0x0 PUSH2 0x101 PUSH1 0x0 SWAP1 SLOAD SWAP1 PUSH2 0x100 EXP SWAP1 DIV PUSH20 0xFFFFFFFFFFFFFFFFFFFFFFFFFFFFFFFFFFFFFFFF AND PUSH20 0xFFFFFFFFFFFFFFFFFFFFFFFFFFFFFFFFFFFFFFFF AND PUSH4 0x79CC6790 DUP13 DUP8 PUSH1 0x40 MLOAD DUP4 PUSH4 0xFFFFFFFF AND PUSH1 0xE0 SHL DUP2 MSTORE PUSH1 0x4 ADD PUSH2 0x2530 SWAP3 SWAP2 SWAP1 PUSH2 0x3E74 JUMP JUMPDEST PUSH1 0x20 PUSH1 0x40 MLOAD DUP1 DUP4 SUB DUP2 PUSH1 0x0 DUP8 GAS CALL ISZERO DUP1 ISZERO PUSH2 0x254F JUMPI RETURNDATASIZE PUSH1 0x0 DUP1 RETURNDATACOPY RETURNDATASIZE PUSH1 0x0 REVERT JUMPDEST POP POP POP POP PUSH1 0x40 MLOAD RETURNDATASIZE PUSH1 0x1F NOT PUSH1 0x1F DUP3 ADD AND DUP3 ADD DUP1 PUSH1 0x40 MSTORE POP DUP2 ADD SWAP1 PUSH2 0x2573 SWAP2 SWAP1 PUSH2 0x3E47 JUMP JUMPDEST SWAP1 POP DUP2 ISZERO DUP1 PUSH2 0x2580 JUMPI POP DUP1 ISZERO JUMPDEST ISZERO PUSH2 0x25B7 JUMPI PUSH1 0x40 MLOAD PUSH32 0xB00FCB1E00000000000000000000000000000000000000000000000000000000 DUP2 MSTORE PUSH1 0x4 ADD PUSH1 0x40 MLOAD DUP1 SWAP2 SUB SWAP1 REVERT JUMPDEST PUSH1 0x1 SWAP8 POP POP POP POP POP POP POP POP JUMPDEST SWAP4 SWAP3 POP POP POP JUMP JUMPDEST PUSH2 0x25D4 DUP3 DUP3 PUSH2 0x13BD JUMP JUMPDEST PUSH2 0x264B JUMPI PUSH2 0x25E1 DUP2 PUSH2 0x2F99 JUMP JUMPDEST PUSH2 0x25EF DUP4 PUSH1 0x0 SHR PUSH1 0x20 PUSH2 0x2FC6 JUMP JUMPDEST PUSH1 0x40 MLOAD PUSH1 0x20 ADD PUSH2 0x2600 SWAP3 SWAP2 SWAP1 PUSH2 0x3FA6 JUMP JUMPDEST PUSH1 0x40 MLOAD PUSH1 0x20 DUP2 DUP4 SUB SUB DUP2 MSTORE SWAP1 PUSH1 0x40 MSTORE PUSH1 0x40 MLOAD PUSH32 0x8C379A000000000000000000000000000000000000000000000000000000000 DUP2 MSTORE PUSH1 0x4 ADD PUSH2 0x2642 SWAP2 SWAP1 PUSH2 0x402A JUMP JUMPDEST PUSH1 0x40 MLOAD DUP1 SWAP2 SUB SWAP1 REVERT JUMPDEST POP POP JUMP JUMPDEST PUSH2 0x2657 PUSH2 0xD32 JUMP JUMPDEST PUSH2 0x2696 JUMPI PUSH1 0x40 MLOAD PUSH32 0x8C379A000000000000000000000000000000000000000000000000000000000 DUP2 MSTORE PUSH1 0x4 ADD PUSH2 0x268D SWAP1 PUSH2 0x4098 JUMP JUMPDEST PUSH1 0x40 MLOAD DUP1 SWAP2 SUB SWAP1 REVERT JUMPDEST JUMP JUMPDEST PUSH1 0x0 DUP1 PUSH8 0xDE0B6B3A7640000 DUP6 LT ISZERO PUSH2 0x26DC JUMPI PUSH1 0x40 MLOAD PUSH31 0xCD474300000000000000000000000000000000000000000000000000000000 DUP2 MSTORE PUSH1 0x4 ADD PUSH1 0x40 MLOAD DUP1 SWAP2 SUB SWAP1 REVERT JUMPDEST PUSH2 0x102 PUSH1 0x0 SWAP1 SLOAD SWAP1 PUSH2 0x100 EXP SWAP1 DIV PUSH20 0xFFFFFFFFFFFFFFFFFFFFFFFFFFFFFFFFFFFFFFFF AND PUSH20 0xFFFFFFFFFFFFFFFFFFFFFFFFFFFFFFFFFFFFFFFF AND PUSH4 0x5657F79D DUP6 DUP8 DUP7 PUSH1 0x40 MLOAD DUP5 PUSH4 0xFFFFFFFF AND PUSH1 0xE0 SHL DUP2 MSTORE PUSH1 0x4 ADD PUSH2 0x273C SWAP4 SWAP3 SWAP2 SWAP1 PUSH2 0x40B8 JUMP JUMPDEST PUSH1 0x20 PUSH1 0x40 MLOAD DUP1 DUP4 SUB DUP2 DUP7 GAS STATICCALL ISZERO DUP1 ISZERO PUSH2 0x2759 JUMPI RETURNDATASIZE PUSH1 0x0 DUP1 RETURNDATACOPY RETURNDATASIZE PUSH1 0x0 REVERT JUMPDEST POP POP POP POP PUSH1 0x40 MLOAD RETURNDATASIZE PUSH1 0x1F NOT PUSH1 0x1F DUP3 ADD AND DUP3 ADD DUP1 PUSH1 0x40 MSTORE POP DUP2 ADD SWAP1 PUSH2 0x277D SWAP2 SWAP1 PUSH2 0x3E47 JUMP JUMPDEST PUSH2 0x27B3 JUMPI PUSH1 0x40 MLOAD PUSH32 0x1E45D1B400000000000000000000000000000000000000000000000000000000 DUP2 MSTORE PUSH1 0x4 ADD PUSH1 0x40 MLOAD DUP1 SWAP2 SUB SWAP1 REVERT JUMPDEST PUSH2 0x104 PUSH1 0x0 PUSH2 0x27C0 PUSH2 0x19CB JUMP JUMPDEST PUSH20 0xFFFFFFFFFFFFFFFFFFFFFFFFFFFFFFFFFFFFFFFF AND PUSH20 0xFFFFFFFFFFFFFFFFFFFFFFFFFFFFFFFFFFFFFFFF AND DUP2 MSTORE PUSH1 0x20 ADD SWAP1 DUP2 MSTORE PUSH1 0x20 ADD PUSH1 0x0 KECCAK256 PUSH1 0x0 DUP6 DUP2 MSTORE PUSH1 0x20 ADD SWAP1 DUP2 MSTORE PUSH1 0x20 ADD PUSH1 0x0 KECCAK256 PUSH1 0x0 DUP5 DUP2 MSTORE PUSH1 0x20 ADD SWAP1 DUP2 MSTORE PUSH1 0x20 ADD PUSH1 0x0 KECCAK256 PUSH1 0x6 ADD PUSH1 0x0 SWAP1 SLOAD SWAP1 PUSH2 0x100 EXP SWAP1 DIV PUSH1 0xFF AND ISZERO PUSH2 0x2864 JUMPI PUSH1 0x40 MLOAD PUSH32 0x707001B500000000000000000000000000000000000000000000000000000000 DUP2 MSTORE PUSH1 0x4 ADD PUSH1 0x40 MLOAD DUP1 SWAP2 SUB SWAP1 REVERT JUMPDEST PUSH1 0x0 PUSH2 0x104 PUSH1 0x0 PUSH2 0x2873 PUSH2 0x19CB JUMP JUMPDEST PUSH20 0xFFFFFFFFFFFFFFFFFFFFFFFFFFFFFFFFFFFFFFFF AND PUSH20 0xFFFFFFFFFFFFFFFFFFFFFFFFFFFFFFFFFFFFFFFF AND DUP2 MSTORE PUSH1 0x20 ADD SWAP1 DUP2 MSTORE PUSH1 0x20 ADD PUSH1 0x0 KECCAK256 PUSH1 0x0 DUP7 DUP2 MSTORE PUSH1 0x20 ADD SWAP1 DUP2 MSTORE PUSH1 0x20 ADD PUSH1 0x0 KECCAK256 PUSH1 0x0 DUP6 DUP2 MSTORE PUSH1 0x20 ADD SWAP1 DUP2 MSTORE PUSH1 0x20 ADD PUSH1 0x0 KECCAK256 SWAP1 POP PUSH1 0x0 PUSH2 0x103 PUSH1 0x0 PUSH2 0x28E0 PUSH2 0x19CB JUMP JUMPDEST PUSH20 0xFFFFFFFFFFFFFFFFFFFFFFFFFFFFFFFFFFFFFFFF AND PUSH20 0xFFFFFFFFFFFFFFFFFFFFFFFFFFFFFFFFFFFFFFFF AND DUP2 MSTORE PUSH1 0x20 ADD SWAP1 DUP2 MSTORE PUSH1 0x20 ADD PUSH1 0x0 KECCAK256 SWAP1 POP PUSH1 0x0 DUP2 PUSH1 0x2 ADD SLOAD PUSH2 0x101 PUSH1 0x0 SWAP1 SLOAD SWAP1 PUSH2 0x100 EXP SWAP1 DIV PUSH20 0xFFFFFFFFFFFFFFFFFFFFFFFFFFFFFFFFFFFFFFFF AND PUSH20 0xFFFFFFFFFFFFFFFFFFFFFFFFFFFFFFFFFFFFFFFF AND PUSH4 0x70A08231 PUSH2 0x296A PUSH2 0x19CB JUMP JUMPDEST PUSH1 0x40 MLOAD DUP3 PUSH4 0xFFFFFFFF AND PUSH1 0xE0 SHL DUP2 MSTORE PUSH1 0x4 ADD PUSH2 0x2986 SWAP2 SWAP1 PUSH2 0x3D66 JUMP JUMPDEST PUSH1 0x20 PUSH1 0x40 MLOAD DUP1 DUP4 SUB DUP2 DUP7 GAS STATICCALL ISZERO DUP1 ISZERO PUSH2 0x29A3 JUMPI RETURNDATASIZE PUSH1 0x0 DUP1 RETURNDATACOPY RETURNDATASIZE PUSH1 0x0 REVERT JUMPDEST POP POP POP POP PUSH1 0x40 MLOAD RETURNDATASIZE PUSH1 0x1F NOT PUSH1 0x1F DUP3 ADD AND DUP3 ADD DUP1 PUSH1 0x40 MSTORE POP DUP2 ADD SWAP1 PUSH2 0x29C7 SWAP2 SWAP1 PUSH2 0x3B3E JUMP JUMPDEST PUSH2 0x29D1 SWAP2 SWAP1 PUSH2 0x3B6B JUMP JUMPDEST SWAP1 POP PUSH1 0x0 PUSH8 0xDE0B6B3A7640000 DUP10 PUSH2 0x102 PUSH1 0x0 SWAP1 SLOAD SWAP1 PUSH2 0x100 EXP SWAP1 DIV PUSH20 0xFFFFFFFFFFFFFFFFFFFFFFFFFFFFFFFFFFFFFFFF AND PUSH20 0xFFFFFFFFFFFFFFFFFFFFFFFFFFFFFFFFFFFFFFFF AND PUSH4 0x5952A8C6 DUP12 DUP12 PUSH1 0x40 MLOAD DUP4 PUSH4 0xFFFFFFFF AND PUSH1 0xE0 SHL DUP2 MSTORE PUSH1 0x4 ADD PUSH2 0x2A3D SWAP3 SWAP2 SWAP1 PUSH2 0x389C JUMP JUMPDEST PUSH1 0x20 PUSH1 0x40 MLOAD DUP1 DUP4 SUB DUP2 DUP7 GAS STATICCALL ISZERO DUP1 ISZERO PUSH2 0x2A5A JUMPI RETURNDATASIZE PUSH1 0x0 DUP1 RETURNDATACOPY RETURNDATASIZE PUSH1 0x0 REVERT JUMPDEST POP POP POP POP PUSH1 0x40 MLOAD RETURNDATASIZE PUSH1 0x1F NOT PUSH1 0x1F DUP3 ADD AND DUP3 ADD DUP1 PUSH1 0x40 MSTORE POP DUP2 ADD SWAP1 PUSH2 0x2A7E SWAP2 SWAP1 PUSH2 0x3B3E JUMP JUMPDEST PUSH2 0x2A88 SWAP2 SWAP1 PUSH2 0x3A3D JUMP JUMPDEST PUSH2 0x2A92 SWAP2 SWAP1 PUSH2 0x411E JUMP JUMPDEST SWAP1 POP PUSH1 0x0 DUP2 DUP5 PUSH1 0x1 ADD SLOAD PUSH2 0x2AA6 SWAP2 SWAP1 PUSH2 0x3B9F JUMP JUMPDEST SWAP1 POP DUP3 PUSH1 0xFE SLOAD DUP3 PUSH2 0x2AB7 SWAP2 SWAP1 PUSH2 0x3A3D JUMP JUMPDEST GT ISZERO PUSH2 0x2AEF JUMPI PUSH1 0x40 MLOAD PUSH32 0xE4B581A500000000000000000000000000000000000000000000000000000000 DUP2 MSTORE PUSH1 0x4 ADD PUSH1 0x40 MLOAD DUP1 SWAP2 SUB SWAP1 REVERT JUMPDEST PUSH1 0x0 DUP3 DUP5 PUSH2 0x2AFD SWAP2 SWAP1 PUSH2 0x411E JUMP JUMPDEST SWAP1 POP DUP3 DUP6 PUSH1 0x1 ADD PUSH1 0x0 DUP3 DUP3 SLOAD PUSH2 0x2B13 SWAP2 SWAP1 PUSH2 0x3B9F JUMP JUMPDEST SWAP3 POP POP DUP2 SWAP1 SSTORE POP DUP11 DUP7 PUSH1 0x2 ADD DUP2 SWAP1 SSTORE POP DUP3 DUP7 PUSH1 0x4 ADD DUP2 SWAP1 SSTORE POP TIMESTAMP DUP7 PUSH1 0x3 ADD DUP2 SWAP1 SSTORE POP PUSH1 0xFD SLOAD TIMESTAMP PUSH2 0x2B43 SWAP2 SWAP1 PUSH2 0x3B9F JUMP JUMPDEST DUP7 PUSH1 0x0 ADD DUP2 SWAP1 SSTORE POP PUSH1 0xFC SLOAD DUP2 LT PUSH2 0x2B6B JUMPI PUSH1 0xFC SLOAD DUP7 PUSH1 0x0 ADD SLOAD PUSH2 0x2B66 SWAP2 SWAP1 PUSH2 0x3B9F JUMP JUMPDEST PUSH2 0x2B7C JUMP JUMPDEST DUP1 DUP7 PUSH1 0x0 ADD SLOAD PUSH2 0x2B7B SWAP2 SWAP1 PUSH2 0x3B9F JUMP JUMPDEST JUMPDEST DUP7 PUSH1 0x1 ADD DUP2 SWAP1 SSTORE POP DUP3 DUP2 PUSH2 0x2B90 SWAP2 SWAP1 PUSH2 0x3A3D JUMP JUMPDEST DUP7 PUSH1 0x5 ADD DUP2 SWAP1 SSTORE POP PUSH1 0x1 DUP7 PUSH1 0x6 ADD PUSH1 0x0 PUSH2 0x100 EXP DUP2 SLOAD DUP2 PUSH1 0xFF MUL NOT AND SWAP1 DUP4 ISZERO ISZERO MUL OR SWAP1 SSTORE POP DUP6 PUSH1 0x5 ADD SLOAD DUP6 PUSH1 0x2 ADD PUSH1 0x0 DUP3 DUP3 SLOAD PUSH2 0x2BCD SWAP2 SWAP1 PUSH2 0x3B9F JUMP JUMPDEST SWAP3 POP POP DUP2 SWAP1 SSTORE POP DUP5 PUSH1 0x0 ADD SLOAD DUP7 PUSH1 0x1 ADD SLOAD LT PUSH2 0x2BED JUMPI DUP6 PUSH1 0x1 ADD SLOAD PUSH2 0x2BF3 JUMP JUMPDEST DUP5 PUSH1 0x0 ADD SLOAD JUMPDEST DUP6 PUSH1 0x0 ADD DUP2 SWAP1 SSTORE POP PUSH1 0x0 PUSH2 0x102 PUSH1 0x0 SWAP1 SLOAD SWAP1 PUSH2 0x100 EXP SWAP1 DIV PUSH20 0xFFFFFFFFFFFFFFFFFFFFFFFFFFFFFFFFFFFFFFFF AND PUSH20 0xFFFFFFFFFFFFFFFFFFFFFFFFFFFFFFFFFFFFFFFF AND PUSH4 0xD9895C70 DUP13 DUP13 DUP16 DUP9 PUSH1 0x40 MLOAD DUP6 PUSH4 0xFFFFFFFF AND PUSH1 0xE0 SHL DUP2 MSTORE PUSH1 0x4 ADD PUSH2 0x2C5F SWAP5 SWAP4 SWAP3 SWAP2 SWAP1 PUSH2 0x3DED JUMP JUMPDEST PUSH1 0x20 PUSH1 0x40 MLOAD DUP1 DUP4 SUB DUP2 PUSH1 0x0 DUP8 GAS CALL ISZERO DUP1 ISZERO PUSH2 0x2C7E JUMPI RETURNDATASIZE PUSH1 0x0 DUP1 RETURNDATACOPY RETURNDATASIZE PUSH1 0x0 REVERT JUMPDEST POP POP POP POP PUSH1 0x40 MLOAD RETURNDATASIZE PUSH1 0x1F NOT PUSH1 0x1F DUP3 ADD AND DUP3 ADD DUP1 PUSH1 0x40 MSTORE POP DUP2 ADD SWAP1 PUSH2 0x2CA2 SWAP2 SWAP1 PUSH2 0x3E47 JUMP JUMPDEST SWAP1 POP DUP1 DUP8 PUSH1 0x5 ADD SLOAD SWAP9 POP SWAP9 POP POP POP POP POP POP POP POP SWAP4 POP SWAP4 SWAP2 POP POP JUMP JUMPDEST PUSH1 0x0 DUP9 PUSH20 0xFFFFFFFFFFFFFFFFFFFFFFFFFFFFFFFFFFFFFFFF AND PUSH4 0x7ECEBE00 DUP10 PUSH1 0x40 MLOAD DUP3 PUSH4 0xFFFFFFFF AND PUSH1 0xE0 SHL DUP2 MSTORE PUSH1 0x4 ADD PUSH2 0x2CF8 SWAP2 SWAP1 PUSH2 0x3D66 JUMP JUMPDEST PUSH1 0x20 PUSH1 0x40 MLOAD DUP1 DUP4 SUB DUP2 DUP7 GAS STATICCALL ISZERO DUP1 ISZERO PUSH2 0x2D15 JUMPI RETURNDATASIZE PUSH1 0x0 DUP1 RETURNDATACOPY RETURNDATASIZE PUSH1 0x0 REVERT JUMPDEST POP POP POP POP PUSH1 0x40 MLOAD RETURNDATASIZE PUSH1 0x1F NOT PUSH1 0x1F DUP3 ADD AND DUP3 ADD DUP1 PUSH1 0x40 MSTORE POP DUP2 ADD SWAP1 PUSH2 0x2D39 SWAP2 SWAP1 PUSH2 0x3B3E JUMP JUMPDEST SWAP1 POP DUP9 PUSH20 0xFFFFFFFFFFFFFFFFFFFFFFFFFFFFFFFFFFFFFFFF AND PUSH4 0xD505ACCF DUP10 DUP10 DUP10 DUP10 DUP10 DUP10 DUP10 PUSH1 0x40 MLOAD DUP9 PUSH4 0xFFFFFFFF AND PUSH1 0xE0 SHL DUP2 MSTORE PUSH1 0x4 ADD PUSH2 0x2D80 SWAP8 SWAP7 SWAP6 SWAP5 SWAP4 SWAP3 SWAP2 SWAP1 PUSH2 0x415E JUMP JUMPDEST PUSH1 0x0 PUSH1 0x40 MLOAD DUP1 DUP4 SUB DUP2 PUSH1 0x0 DUP8 DUP1 EXTCODESIZE ISZERO DUP1 ISZERO PUSH2 0x2D9A JUMPI PUSH1 0x0 DUP1 REVERT JUMPDEST POP GAS CALL ISZERO DUP1 ISZERO PUSH2 0x2DAE JUMPI RETURNDATASIZE PUSH1 0x0 DUP1 RETURNDATACOPY RETURNDATASIZE PUSH1 0x0 REVERT JUMPDEST POP POP POP POP PUSH1 0x0 DUP10 PUSH20 0xFFFFFFFFFFFFFFFFFFFFFFFFFFFFFFFFFFFFFFFF AND PUSH4 0x7ECEBE00 DUP11 PUSH1 0x40 MLOAD DUP3 PUSH4 0xFFFFFFFF AND PUSH1 0xE0 SHL DUP2 MSTORE PUSH1 0x4 ADD PUSH2 0x2DED SWAP2 SWAP1 PUSH2 0x3D66 JUMP JUMPDEST PUSH1 0x20 PUSH1 0x40 MLOAD DUP1 DUP4 SUB DUP2 DUP7 GAS STATICCALL ISZERO DUP1 ISZERO PUSH2 0x2E0A JUMPI RETURNDATASIZE PUSH1 0x0 DUP1 RETURNDATACOPY RETURNDATASIZE PUSH1 0x0 REVERT JUMPDEST POP POP POP POP PUSH1 0x40 MLOAD RETURNDATASIZE PUSH1 0x1F NOT PUSH1 0x1F DUP3 ADD AND DUP3 ADD DUP1 PUSH1 0x40 MSTORE POP DUP2 ADD SWAP1 PUSH2 0x2E2E SWAP2 SWAP1 PUSH2 0x3B3E JUMP JUMPDEST SWAP1 POP PUSH1 0x1 DUP3 PUSH2 0x2E3D SWAP2 SWAP1 PUSH2 0x3B9F JUMP JUMPDEST DUP2 EQ PUSH2 0x2E7E JUMPI PUSH1 0x40 MLOAD PUSH32 0x8C379A000000000000000000000000000000000000000000000000000000000 DUP2 MSTORE PUSH1 0x4 ADD PUSH2 0x2E75 SWAP1 PUSH2 0x423F JUMP JUMPDEST PUSH1 0x40 MLOAD DUP1 SWAP2 SUB SWAP1 REVERT JUMPDEST POP POP POP POP POP POP POP POP POP POP JUMP JUMPDEST PUSH1 0x0 PUSH1 0x1 SWAP1 SLOAD SWAP1 PUSH2 0x100 EXP SWAP1 DIV PUSH1 0xFF AND PUSH2 0x2ED9 JUMPI PUSH1 0x40 MLOAD PUSH32 0x8C379A000000000000000000000000000000000000000000000000000000000 DUP2 MSTORE PUSH1 0x4 ADD PUSH2 0x2ED0 SWAP1 PUSH2 0x3C45 JUMP JUMPDEST PUSH1 0x40 MLOAD DUP1 SWAP2 SUB SWAP1 REVERT JUMPDEST PUSH1 0x0 PUSH1 0x33 PUSH1 0x0 PUSH2 0x100 EXP DUP2 SLOAD DUP2 PUSH1 0xFF MUL NOT AND SWAP1 DUP4 ISZERO ISZERO MUL OR SWAP1 SSTORE POP JUMP JUMPDEST PUSH1 0x0 PUSH1 0x1 SWAP1 SLOAD SWAP1 PUSH2 0x100 EXP SWAP1 DIV PUSH1 0xFF AND PUSH2 0x2F45 JUMPI PUSH1 0x40 MLOAD PUSH32 0x8C379A000000000000000000000000000000000000000000000000000000000 DUP2 MSTORE PUSH1 0x4 ADD PUSH2 0x2F3C SWAP1 PUSH2 0x3C45 JUMP JUMPDEST PUSH1 0x40 MLOAD DUP1 SWAP2 SUB SWAP1 REVERT JUMPDEST PUSH1 0x1 PUSH1 0xC9 DUP2 SWAP1 SSTORE POP JUMP JUMPDEST PUSH2 0x2F57 PUSH2 0xD32 JUMP JUMPDEST ISZERO PUSH2 0x2F97 JUMPI PUSH1 0x40 MLOAD PUSH32 0x8C379A000000000000000000000000000000000000000000000000000000000 DUP2 MSTORE PUSH1 0x4 ADD PUSH2 0x2F8E SWAP1 PUSH2 0x42AB JUMP JUMPDEST PUSH1 0x40 MLOAD DUP1 SWAP2 SUB SWAP1 REVERT JUMPDEST JUMP JUMPDEST PUSH1 0x60 PUSH2 0x2FBF DUP3 PUSH20 0xFFFFFFFFFFFFFFFFFFFFFFFFFFFFFFFFFFFFFFFF AND PUSH1 0x14 PUSH1 0xFF AND PUSH2 0x2FC6 JUMP JUMPDEST SWAP1 POP SWAP2 SWAP1 POP JUMP JUMPDEST PUSH1 0x60 PUSH1 0x0 PUSH1 0x2 DUP4 PUSH1 0x2 PUSH2 0x2FD9 SWAP2 SWAP1 PUSH2 0x3A3D JUMP JUMPDEST PUSH2 0x2FE3 SWAP2 SWAP1 PUSH2 0x3B9F JUMP JUMPDEST PUSH8 0xFFFFFFFFFFFFFFFF DUP2 GT ISZERO PUSH2 0x2FFC JUMPI PUSH2 0x2FFB PUSH2 0x393C JUMP JUMPDEST JUMPDEST PUSH1 0x40 MLOAD SWAP1 DUP1 DUP3 MSTORE DUP1 PUSH1 0x1F ADD PUSH1 0x1F NOT AND PUSH1 0x20 ADD DUP3 ADD PUSH1 0x40 MSTORE DUP1 ISZERO PUSH2 0x302E JUMPI DUP2 PUSH1 0x20 ADD PUSH1 0x1 DUP3 MUL DUP1 CALLDATASIZE DUP4 CALLDATACOPY DUP1 DUP3 ADD SWAP2 POP POP SWAP1 POP JUMPDEST POP SWAP1 POP PUSH32 0x3000000000000000000000000000000000000000000000000000000000000000 DUP2 PUSH1 0x0 DUP2 MLOAD DUP2 LT PUSH2 0x3066 JUMPI PUSH2 0x3065 PUSH2 0x396B JUMP JUMPDEST JUMPDEST PUSH1 0x20 ADD ADD SWAP1 PUSH31 0xFFFFFFFFFFFFFFFFFFFFFFFFFFFFFFFFFFFFFFFFFFFFFFFFFFFFFFFFFFFFFF NOT AND SWAP1 DUP2 PUSH1 0x0 BYTE SWAP1 MSTORE8 POP PUSH32 0x7800000000000000000000000000000000000000000000000000000000000000 DUP2 PUSH1 0x1 DUP2 MLOAD DUP2 LT PUSH2 0x30CA JUMPI PUSH2 0x30C9 PUSH2 0x396B JUMP JUMPDEST JUMPDEST PUSH1 0x20 ADD ADD SWAP1 PUSH31 0xFFFFFFFFFFFFFFFFFFFFFFFFFFFFFFFFFFFFFFFFFFFFFFFFFFFFFFFFFFFFFF NOT AND SWAP1 DUP2 PUSH1 0x0 BYTE SWAP1 MSTORE8 POP PUSH1 0x0 PUSH1 0x1 DUP5 PUSH1 0x2 PUSH2 0x310A SWAP2 SWAP1 PUSH2 0x3A3D JUMP JUMPDEST PUSH2 0x3114 SWAP2 SWAP1 PUSH2 0x3B9F JUMP JUMPDEST SWAP1 POP JUMPDEST PUSH1 0x1 DUP2 GT ISZERO PUSH2 0x31B4 JUMPI PUSH32 0x3031323334353637383961626364656600000000000000000000000000000000 PUSH1 0xF DUP7 AND PUSH1 0x10 DUP2 LT PUSH2 0x3156 JUMPI PUSH2 0x3155 PUSH2 0x396B JUMP JUMPDEST JUMPDEST BYTE PUSH1 0xF8 SHL DUP3 DUP3 DUP2 MLOAD DUP2 LT PUSH2 0x316D JUMPI PUSH2 0x316C PUSH2 0x396B JUMP JUMPDEST JUMPDEST PUSH1 0x20 ADD ADD SWAP1 PUSH31 0xFFFFFFFFFFFFFFFFFFFFFFFFFFFFFFFFFFFFFFFFFFFFFFFFFFFFFFFFFFFFFF NOT AND SWAP1 DUP2 PUSH1 0x0 BYTE SWAP1 MSTORE8 POP PUSH1 0x4 DUP6 SWAP1 SHR SWAP5 POP DUP1 PUSH2 0x31AD SWAP1 PUSH2 0x42CB JUMP JUMPDEST SWAP1 POP PUSH2 0x3117 JUMP JUMPDEST POP PUSH1 0x0 DUP5 EQ PUSH2 0x31F8 JUMPI PUSH1 0x40 MLOAD PUSH32 0x8C379A000000000000000000000000000000000000000000000000000000000 DUP2 MSTORE PUSH1 0x4 ADD PUSH2 0x31EF SWAP1 PUSH2 0x4340 JUMP JUMPDEST PUSH1 0x40 MLOAD DUP1 SWAP2 SUB SWAP1 REVERT JUMPDEST DUP1 SWAP2 POP POP SWAP3 SWAP2 POP POP JUMP JUMPDEST PUSH1 0x0 DUP1 REVERT JUMPDEST PUSH1 0x0 PUSH32 0xFFFFFFFF00000000000000000000000000000000000000000000000000000000 DUP3 AND SWAP1 POP SWAP2 SWAP1 POP JUMP JUMPDEST PUSH2 0x323C DUP2 PUSH2 0x3207 JUMP JUMPDEST DUP2 EQ PUSH2 0x3247 JUMPI PUSH1 0x0 DUP1 REVERT JUMPDEST POP JUMP JUMPDEST PUSH1 0x0 DUP2 CALLDATALOAD SWAP1 POP PUSH2 0x3259 DUP2 PUSH2 0x3233 JUMP JUMPDEST SWAP3 SWAP2 POP POP JUMP JUMPDEST PUSH1 0x0 PUSH1 0x20 DUP3 DUP5 SUB SLT ISZERO PUSH2 0x3275 JUMPI PUSH2 0x3274 PUSH2 0x3202 JUMP JUMPDEST JUMPDEST PUSH1 0x0 PUSH2 0x3283 DUP5 DUP3 DUP6 ADD PUSH2 0x324A JUMP JUMPDEST SWAP2 POP POP SWAP3 SWAP2 POP POP JUMP JUMPDEST PUSH1 0x0 DUP2 ISZERO ISZERO SWAP1 POP SWAP2 SWAP1 POP JUMP JUMPDEST PUSH2 0x32A1 DUP2 PUSH2 0x328C JUMP JUMPDEST DUP3 MSTORE POP POP JUMP JUMPDEST PUSH1 0x0 PUSH1 0x20 DUP3 ADD SWAP1 POP PUSH2 0x32BC PUSH1 0x0 DUP4 ADD DUP5 PUSH2 0x3298 JUMP JUMPDEST SWAP3 SWAP2 POP POP JUMP JUMPDEST PUSH1 0x0 PUSH20 0xFFFFFFFFFFFFFFFFFFFFFFFFFFFFFFFFFFFFFFFF DUP3 AND SWAP1 POP SWAP2 SWAP1 POP JUMP JUMPDEST PUSH1 0x0 PUSH2 0x32ED DUP3 PUSH2 0x32C2 JUMP JUMPDEST SWAP1 POP SWAP2 SWAP1 POP JUMP JUMPDEST PUSH2 0x32FD DUP2 PUSH2 0x32E2 JUMP JUMPDEST DUP2 EQ PUSH2 0x3308 JUMPI PUSH1 0x0 DUP1 REVERT JUMPDEST POP JUMP JUMPDEST PUSH1 0x0 DUP2 CALLDATALOAD SWAP1 POP PUSH2 0x331A DUP2 PUSH2 0x32F4 JUMP JUMPDEST SWAP3 SWAP2 POP POP JUMP JUMPDEST PUSH1 0x0 DUP2 SWAP1 POP SWAP2 SWAP1 POP JUMP JUMPDEST PUSH2 0x3333 DUP2 PUSH2 0x3320 JUMP JUMPDEST DUP2 EQ PUSH2 0x333E JUMPI PUSH1 0x0 DUP1 REVERT JUMPDEST POP JUMP JUMPDEST PUSH1 0x0 DUP2 CALLDATALOAD SWAP1 POP PUSH2 0x3350 DUP2 PUSH2 0x332A JUMP JUMPDEST SWAP3 SWAP2 POP POP JUMP JUMPDEST PUSH1 0x0 DUP1 PUSH1 0x0 PUSH1 0x60 DUP5 DUP7 SUB SLT ISZERO PUSH2 0x336F JUMPI PUSH2 0x336E PUSH2 0x3202 JUMP JUMPDEST JUMPDEST PUSH1 0x0 PUSH2 0x337D DUP7 DUP3 DUP8 ADD PUSH2 0x330B JUMP JUMPDEST SWAP4 POP POP PUSH1 0x20 PUSH2 0x338E DUP7 DUP3 DUP8 ADD PUSH2 0x3341 JUMP JUMPDEST SWAP3 POP POP PUSH1 0x40 PUSH2 0x339F DUP7 DUP3 DUP8 ADD PUSH2 0x3341 JUMP JUMPDEST SWAP2 POP POP SWAP3 POP SWAP3 POP SWAP3 JUMP JUMPDEST PUSH1 0x0 DUP2 MLOAD SWAP1 POP SWAP2 SWAP1 POP JUMP JUMPDEST PUSH1 0x0 DUP3 DUP3 MSTORE PUSH1 0x20 DUP3 ADD SWAP1 POP SWAP3 SWAP2 POP POP JUMP JUMPDEST PUSH1 0x0 DUP2 SWAP1 POP PUSH1 0x20 DUP3 ADD SWAP1 POP SWAP2 SWAP1 POP JUMP JUMPDEST PUSH2 0x33DE DUP2 PUSH2 0x3320 JUMP JUMPDEST DUP3 MSTORE POP POP JUMP JUMPDEST PUSH1 0x0 PUSH2 0x33F0 DUP4 DUP4 PUSH2 0x33D5 JUMP JUMPDEST PUSH1 0x20 DUP4 ADD SWAP1 POP SWAP3 SWAP2 POP POP JUMP JUMPDEST PUSH1 0x0 PUSH1 0x20 DUP3 ADD SWAP1 POP SWAP2 SWAP1 POP JUMP JUMPDEST PUSH1 0x0 PUSH2 0x3414 DUP3 PUSH2 0x33A9 JUMP JUMPDEST PUSH2 0x341E DUP2 DUP6 PUSH2 0x33B4 JUMP JUMPDEST SWAP4 POP PUSH2 0x3429 DUP4 PUSH2 0x33C5 JUMP JUMPDEST DUP1 PUSH1 0x0 JUMPDEST DUP4 DUP2 LT ISZERO PUSH2 0x345A JUMPI DUP2 MLOAD PUSH2 0x3441 DUP9 DUP3 PUSH2 0x33E4 JUMP JUMPDEST SWAP8 POP PUSH2 0x344C DUP4 PUSH2 0x33FC JUMP JUMPDEST SWAP3 POP POP PUSH1 0x1 DUP2 ADD SWAP1 POP PUSH2 0x342D JUMP JUMPDEST POP DUP6 SWAP4 POP POP POP POP SWAP3 SWAP2 POP POP JUMP JUMPDEST PUSH1 0x0 PUSH1 0x20 DUP3 ADD SWAP1 POP DUP2 DUP2 SUB PUSH1 0x0 DUP4 ADD MSTORE PUSH2 0x3481 DUP2 DUP5 PUSH2 0x3409 JUMP JUMPDEST SWAP1 POP SWAP3 SWAP2 POP POP JUMP JUMPDEST PUSH1 0x0 DUP2 SWAP1 POP SWAP2 SWAP1 POP JUMP JUMPDEST PUSH2 0x349C DUP2 PUSH2 0x3489 JUMP JUMPDEST DUP2 EQ PUSH2 0x34A7 JUMPI PUSH1 0x0 DUP1 REVERT JUMPDEST POP JUMP JUMPDEST PUSH1 0x0 DUP2 CALLDATALOAD SWAP1 POP PUSH2 0x34B9 DUP2 PUSH2 0x3493 JUMP JUMPDEST SWAP3 SWAP2 POP POP JUMP JUMPDEST PUSH1 0x0 PUSH1 0x20 DUP3 DUP5 SUB SLT ISZERO PUSH2 0x34D5 JUMPI PUSH2 0x34D4 PUSH2 0x3202 JUMP JUMPDEST JUMPDEST PUSH1 0x0 PUSH2 0x34E3 DUP5 DUP3 DUP6 ADD PUSH2 0x34AA JUMP JUMPDEST SWAP2 POP POP SWAP3 SWAP2 POP POP JUMP JUMPDEST PUSH2 0x34F5 DUP2 PUSH2 0x3489 JUMP JUMPDEST DUP3 MSTORE POP POP JUMP JUMPDEST PUSH1 0x0 PUSH1 0x20 DUP3 ADD SWAP1 POP PUSH2 0x3510 PUSH1 0x0 DUP4 ADD DUP5 PUSH2 0x34EC JUMP JUMPDEST SWAP3 SWAP2 POP POP JUMP JUMPDEST PUSH1 0x0 PUSH1 0x20 DUP3 DUP5 SUB SLT ISZERO PUSH2 0x352C JUMPI PUSH2 0x352B PUSH2 0x3202 JUMP JUMPDEST JUMPDEST PUSH1 0x0 PUSH2 0x353A DUP5 DUP3 DUP6 ADD PUSH2 0x3341 JUMP JUMPDEST SWAP2 POP POP SWAP3 SWAP2 POP POP JUMP JUMPDEST PUSH1 0x0 DUP1 PUSH1 0x40 DUP4 DUP6 SUB SLT ISZERO PUSH2 0x355A JUMPI PUSH2 0x3559 PUSH2 0x3202 JUMP JUMPDEST JUMPDEST PUSH1 0x0 PUSH2 0x3568 DUP6 DUP3 DUP7 ADD PUSH2 0x34AA JUMP JUMPDEST SWAP3 POP POP PUSH1 0x20 PUSH2 0x3579 DUP6 DUP3 DUP7 ADD PUSH2 0x330B JUMP JUMPDEST SWAP2 POP POP SWAP3 POP SWAP3 SWAP1 POP JUMP JUMPDEST PUSH1 0x0 PUSH1 0x20 DUP3 DUP5 SUB SLT ISZERO PUSH2 0x3599 JUMPI PUSH2 0x3598 PUSH2 0x3202 JUMP JUMPDEST JUMPDEST PUSH1 0x0 PUSH2 0x35A7 DUP5 DUP3 DUP6 ADD PUSH2 0x330B JUMP JUMPDEST SWAP2 POP POP SWAP3 SWAP2 POP POP JUMP JUMPDEST PUSH2 0x35B9 DUP2 PUSH2 0x3320 JUMP JUMPDEST DUP3 MSTORE POP POP JUMP JUMPDEST PUSH1 0x0 PUSH1 0x20 DUP3 ADD SWAP1 POP PUSH2 0x35D4 PUSH1 0x0 DUP4 ADD DUP5 PUSH2 0x35B0 JUMP JUMPDEST SWAP3 SWAP2 POP POP JUMP JUMPDEST PUSH1 0x0 DUP1 PUSH1 0x40 DUP4 DUP6 SUB SLT ISZERO PUSH2 0x35F1 JUMPI PUSH2 0x35F0 PUSH2 0x3202 JUMP JUMPDEST JUMPDEST PUSH1 0x0 PUSH2 0x35FF DUP6 DUP3 DUP7 ADD PUSH2 0x330B JUMP JUMPDEST SWAP3 POP POP PUSH1 0x20 PUSH2 0x3610 DUP6 DUP3 DUP7 ADD PUSH2 0x3341 JUMP JUMPDEST SWAP2 POP POP SWAP3 POP SWAP3 SWAP1 POP JUMP JUMPDEST PUSH1 0x0 PUSH1 0xFF DUP3 AND SWAP1 POP SWAP2 SWAP1 POP JUMP JUMPDEST PUSH2 0x3630 DUP2 PUSH2 0x361A JUMP JUMPDEST DUP2 EQ PUSH2 0x363B JUMPI PUSH1 0x0 DUP1 REVERT JUMPDEST POP JUMP JUMPDEST PUSH1 0x0 DUP2 CALLDATALOAD SWAP1 POP PUSH2 0x364D DUP2 PUSH2 0x3627 JUMP JUMPDEST SWAP3 SWAP2 POP POP JUMP JUMPDEST PUSH2 0x365C DUP2 PUSH2 0x328C JUMP JUMPDEST DUP2 EQ PUSH2 0x3667 JUMPI PUSH1 0x0 DUP1 REVERT JUMPDEST POP JUMP JUMPDEST PUSH1 0x0 DUP2 CALLDATALOAD SWAP1 POP PUSH2 0x3679 DUP2 PUSH2 0x3653 JUMP JUMPDEST SWAP3 SWAP2 POP POP JUMP JUMPDEST PUSH1 0x0 DUP1 PUSH1 0x0 DUP1 PUSH1 0x0 DUP1 PUSH1 0x0 PUSH1 0xE0 DUP9 DUP11 SUB SLT ISZERO PUSH2 0x369E JUMPI PUSH2 0x369D PUSH2 0x3202 JUMP JUMPDEST JUMPDEST PUSH1 0x0 PUSH2 0x36AC DUP11 DUP3 DUP12 ADD PUSH2 0x3341 JUMP JUMPDEST SWAP8 POP POP PUSH1 0x20 PUSH2 0x36BD DUP11 DUP3 DUP12 ADD PUSH2 0x3341 JUMP JUMPDEST SWAP7 POP POP PUSH1 0x40 PUSH2 0x36CE DUP11 DUP3 DUP12 ADD PUSH2 0x3341 JUMP JUMPDEST SWAP6 POP POP PUSH1 0x60 PUSH2 0x36DF DUP11 DUP3 DUP12 ADD PUSH2 0x363E JUMP JUMPDEST SWAP5 POP POP PUSH1 0x80 PUSH2 0x36F0 DUP11 DUP3 DUP12 ADD PUSH2 0x34AA JUMP JUMPDEST SWAP4 POP POP PUSH1 0xA0 PUSH2 0x3701 DUP11 DUP3 DUP12 ADD PUSH2 0x34AA JUMP JUMPDEST SWAP3 POP POP PUSH1 0xC0 PUSH2 0x3712 DUP11 DUP3 DUP12 ADD PUSH2 0x366A JUMP JUMPDEST SWAP2 POP POP SWAP3 SWAP6 SWAP9 SWAP2 SWAP5 SWAP8 POP SWAP3 SWAP6 POP JUMP JUMPDEST PUSH1 0x0 DUP1 PUSH1 0x0 DUP1 PUSH1 0x0 DUP1 PUSH1 0xC0 DUP8 DUP10 SUB SLT ISZERO PUSH2 0x373E JUMPI PUSH2 0x373D PUSH2 0x3202 JUMP JUMPDEST JUMPDEST PUSH1 0x0 PUSH2 0x374C DUP10 DUP3 DUP11 ADD PUSH2 0x3341 JUMP JUMPDEST SWAP7 POP POP PUSH1 0x20 PUSH2 0x375D DUP10 DUP3 DUP11 ADD PUSH2 0x3341 JUMP JUMPDEST SWAP6 POP POP PUSH1 0x40 PUSH2 0x376E DUP10 DUP3 DUP11 ADD PUSH2 0x3341 JUMP JUMPDEST SWAP5 POP POP PUSH1 0x60 PUSH2 0x377F DUP10 DUP3 DUP11 ADD PUSH2 0x363E JUMP JUMPDEST SWAP4 POP POP PUSH1 0x80 PUSH2 0x3790 DUP10 DUP3 DUP11 ADD PUSH2 0x34AA JUMP JUMPDEST SWAP3 POP POP PUSH1 0xA0 PUSH2 0x37A1 DUP10 DUP3 DUP11 ADD PUSH2 0x34AA JUMP JUMPDEST SWAP2 POP POP SWAP3 SWAP6 POP SWAP3 SWAP6 POP SWAP3 SWAP6 JUMP JUMPDEST PUSH1 0x0 DUP1 PUSH1 0x0 DUP1 PUSH1 0x0 DUP1 PUSH1 0xC0 DUP8 DUP10 SUB SLT ISZERO PUSH2 0x37CB JUMPI PUSH2 0x37CA PUSH2 0x3202 JUMP JUMPDEST JUMPDEST PUSH1 0x0 PUSH2 0x37D9 DUP10 DUP3 DUP11 ADD PUSH2 0x330B JUMP JUMPDEST SWAP7 POP POP PUSH1 0x20 PUSH2 0x37EA DUP10 DUP3 DUP11 ADD PUSH2 0x330B JUMP JUMPDEST SWAP6 POP POP PUSH1 0x40 PUSH2 0x37FB DUP10 DUP3 DUP11 ADD PUSH2 0x330B JUMP JUMPDEST SWAP5 POP POP PUSH1 0x60 PUSH2 0x380C DUP10 DUP3 DUP11 ADD PUSH2 0x3341 JUMP JUMPDEST SWAP4 POP POP PUSH1 0x80 PUSH2 0x381D DUP10 DUP3 DUP11 ADD PUSH2 0x3341 JUMP JUMPDEST SWAP3 POP POP PUSH1 0xA0 PUSH2 0x382E DUP10 DUP3 DUP11 ADD PUSH2 0x3341 JUMP JUMPDEST SWAP2 POP POP SWAP3 SWAP6 POP SWAP3 SWAP6 POP SWAP3 SWAP6 JUMP JUMPDEST PUSH1 0x0 PUSH1 0xC0 DUP3 ADD SWAP1 POP PUSH2 0x3850 PUSH1 0x0 DUP4 ADD DUP10 PUSH2 0x35B0 JUMP JUMPDEST PUSH2 0x385D PUSH1 0x20 DUP4 ADD DUP9 PUSH2 0x35B0 JUMP JUMPDEST PUSH2 0x386A PUSH1 0x40 DUP4 ADD DUP8 PUSH2 0x35B0 JUMP JUMPDEST PUSH2 0x3877 PUSH1 0x60 DUP4 ADD DUP7 PUSH2 0x35B0 JUMP JUMPDEST PUSH2 0x3884 PUSH1 0x80 DUP4 ADD DUP6 PUSH2 0x35B0 JUMP JUMPDEST PUSH2 0x3891 PUSH1 0xA0 DUP4 ADD DUP5 PUSH2 0x3298 JUMP JUMPDEST SWAP8 SWAP7 POP POP POP POP POP POP POP JUMP JUMPDEST PUSH1 0x0 PUSH1 0x40 DUP3 ADD SWAP1 POP PUSH2 0x38B1 PUSH1 0x0 DUP4 ADD DUP6 PUSH2 0x35B0 JUMP JUMPDEST PUSH2 0x38BE PUSH1 0x20 DUP4 ADD DUP5 PUSH2 0x35B0 JUMP JUMPDEST SWAP4 SWAP3 POP POP POP JUMP JUMPDEST PUSH32 0x4E487B7100000000000000000000000000000000000000000000000000000000 PUSH1 0x0 MSTORE PUSH1 0x11 PUSH1 0x4 MSTORE PUSH1 0x24 PUSH1 0x0 REVERT JUMPDEST PUSH1 0x0 PUSH2 0x38FF DUP3 PUSH2 0x3320 JUMP JUMPDEST SWAP2 POP PUSH32 0xFFFFFFFFFFFFFFFFFFFFFFFFFFFFFFFFFFFFFFFFFFFFFFFFFFFFFFFFFFFFFFFF DUP3 SUB PUSH2 0x3931 JUMPI PUSH2 0x3930 PUSH2 0x38C5 JUMP JUMPDEST JUMPDEST PUSH1 0x1 DUP3 ADD SWAP1 POP SWAP2 SWAP1 POP JUMP JUMPDEST PUSH32 0x4E487B7100000000000000000000000000000000000000000000000000000000 PUSH1 0x0 MSTORE PUSH1 0x41 PUSH1 0x4 MSTORE PUSH1 0x24 PUSH1 0x0 REVERT JUMPDEST PUSH32 0x4E487B7100000000000000000000000000000000000000000000000000000000 PUSH1 0x0 MSTORE PUSH1 0x32 PUSH1 0x4 MSTORE PUSH1 0x24 PUSH1 0x0 REVERT JUMPDEST PUSH1 0x0 DUP3 DUP3 MSTORE PUSH1 0x20 DUP3 ADD SWAP1 POP SWAP3 SWAP2 POP POP JUMP JUMPDEST PUSH32 0x4D75737420686176652061646D696E20726F6C6520746F20706572666F726D20 PUSH1 0x0 DUP3 ADD MSTORE PUSH32 0x7468697320616374696F6E2E0000000000000000000000000000000000000000 PUSH1 0x20 DUP3 ADD MSTORE POP JUMP JUMPDEST PUSH1 0x0 PUSH2 0x3A07 PUSH1 0x2C DUP4 PUSH2 0x399A JUMP JUMPDEST SWAP2 POP PUSH2 0x3A12 DUP3 PUSH2 0x39AB JUMP JUMPDEST PUSH1 0x40 DUP3 ADD SWAP1 POP SWAP2 SWAP1 POP JUMP JUMPDEST PUSH1 0x0 PUSH1 0x20 DUP3 ADD SWAP1 POP DUP2 DUP2 SUB PUSH1 0x0 DUP4 ADD MSTORE PUSH2 0x3A36 DUP2 PUSH2 0x39FA JUMP JUMPDEST SWAP1 POP SWAP2 SWAP1 POP JUMP JUMPDEST PUSH1 0x0 PUSH2 0x3A48 DUP3 PUSH2 0x3320 JUMP JUMPDEST SWAP2 POP PUSH2 0x3A53 DUP4 PUSH2 0x3320 JUMP JUMPDEST SWAP3 POP DUP2 PUSH32 0xFFFFFFFFFFFFFFFFFFFFFFFFFFFFFFFFFFFFFFFFFFFFFFFFFFFFFFFFFFFFFFFF DIV DUP4 GT DUP3 ISZERO ISZERO AND ISZERO PUSH2 0x3A8C JUMPI PUSH2 0x3A8B PUSH2 0x38C5 JUMP JUMPDEST JUMPDEST DUP3 DUP3 MUL SWAP1 POP SWAP3 SWAP2 POP POP JUMP JUMPDEST PUSH32 0x416363657373436F6E74726F6C3A2063616E206F6E6C792072656E6F756E6365 PUSH1 0x0 DUP3 ADD MSTORE PUSH32 0x20726F6C657320666F722073656C660000000000000000000000000000000000 PUSH1 0x20 DUP3 ADD MSTORE POP JUMP JUMPDEST PUSH1 0x0 PUSH2 0x3AF3 PUSH1 0x2F DUP4 PUSH2 0x399A JUMP JUMPDEST SWAP2 POP PUSH2 0x3AFE DUP3 PUSH2 0x3A97 JUMP JUMPDEST PUSH1 0x40 DUP3 ADD SWAP1 POP SWAP2 SWAP1 POP JUMP JUMPDEST PUSH1 0x0 PUSH1 0x20 DUP3 ADD SWAP1 POP DUP2 DUP2 SUB PUSH1 0x0 DUP4 ADD MSTORE PUSH2 0x3B22 DUP2 PUSH2 0x3AE6 JUMP JUMPDEST SWAP1 POP SWAP2 SWAP1 POP JUMP JUMPDEST PUSH1 0x0 DUP2 MLOAD SWAP1 POP PUSH2 0x3B38 DUP2 PUSH2 0x332A JUMP JUMPDEST SWAP3 SWAP2 POP POP JUMP JUMPDEST PUSH1 0x0 PUSH1 0x20 DUP3 DUP5 SUB SLT ISZERO PUSH2 0x3B54 JUMPI PUSH2 0x3B53 PUSH2 0x3202 JUMP JUMPDEST JUMPDEST PUSH1 0x0 PUSH2 0x3B62 DUP5 DUP3 DUP6 ADD PUSH2 0x3B29 JUMP JUMPDEST SWAP2 POP POP SWAP3 SWAP2 POP POP JUMP JUMPDEST PUSH1 0x0 PUSH2 0x3B76 DUP3 PUSH2 0x3320 JUMP JUMPDEST SWAP2 POP PUSH2 0x3B81 DUP4 PUSH2 0x3320 JUMP JUMPDEST SWAP3 POP DUP3 DUP3 SUB SWAP1 POP DUP2 DUP2 GT ISZERO PUSH2 0x3B99 JUMPI PUSH2 0x3B98 PUSH2 0x38C5 JUMP JUMPDEST JUMPDEST SWAP3 SWAP2 POP POP JUMP JUMPDEST PUSH1 0x0 PUSH2 0x3BAA DUP3 PUSH2 0x3320 JUMP JUMPDEST SWAP2 POP PUSH2 0x3BB5 DUP4 PUSH2 0x3320 JUMP JUMPDEST SWAP3 POP DUP3 DUP3 ADD SWAP1 POP DUP1 DUP3 GT ISZERO PUSH2 0x3BCD JUMPI PUSH2 0x3BCC PUSH2 0x38C5 JUMP JUMPDEST JUMPDEST SWAP3 SWAP2 POP POP JUMP JUMPDEST PUSH32 0x496E697469616C697A61626C653A20636F6E7472616374206973206E6F742069 PUSH1 0x0 DUP3 ADD MSTORE PUSH32 0x6E697469616C697A696E67000000000000000000000000000000000000000000 PUSH1 0x20 DUP3 ADD MSTORE POP JUMP JUMPDEST PUSH1 0x0 PUSH2 0x3C2F PUSH1 0x2B DUP4 PUSH2 0x399A JUMP JUMPDEST SWAP2 POP PUSH2 0x3C3A DUP3 PUSH2 0x3BD3 JUMP JUMPDEST PUSH1 0x40 DUP3 ADD SWAP1 POP SWAP2 SWAP1 POP JUMP JUMPDEST PUSH1 0x0 PUSH1 0x20 DUP3 ADD SWAP1 POP DUP2 DUP2 SUB PUSH1 0x0 DUP4 ADD MSTORE PUSH2 0x3C5E DUP2 PUSH2 0x3C22 JUMP JUMPDEST SWAP1 POP SWAP2 SWAP1 POP JUMP JUMPDEST PUSH32 0x496E697469616C697A61626C653A20636F6E747261637420697320616C726561 PUSH1 0x0 DUP3 ADD MSTORE PUSH32 0x647920696E697469616C697A6564000000000000000000000000000000000000 PUSH1 0x20 DUP3 ADD MSTORE POP JUMP JUMPDEST PUSH1 0x0 PUSH2 0x3CC1 PUSH1 0x2E DUP4 PUSH2 0x399A JUMP JUMPDEST SWAP2 POP PUSH2 0x3CCC DUP3 PUSH2 0x3C65 JUMP JUMPDEST PUSH1 0x40 DUP3 ADD SWAP1 POP SWAP2 SWAP1 POP JUMP JUMPDEST PUSH1 0x0 PUSH1 0x20 DUP3 ADD SWAP1 POP DUP2 DUP2 SUB PUSH1 0x0 DUP4 ADD MSTORE PUSH2 0x3CF0 DUP2 PUSH2 0x3CB4 JUMP JUMPDEST SWAP1 POP SWAP2 SWAP1 POP JUMP JUMPDEST PUSH1 0x0 DUP2 SWAP1 POP SWAP2 SWAP1 POP JUMP JUMPDEST PUSH1 0x0 DUP2 SWAP1 POP SWAP2 SWAP1 POP JUMP JUMPDEST PUSH1 0x0 PUSH2 0x3D26 PUSH2 0x3D21 PUSH2 0x3D1C DUP5 PUSH2 0x3CF7 JUMP JUMPDEST PUSH2 0x3D01 JUMP JUMPDEST PUSH2 0x361A JUMP JUMPDEST SWAP1 POP SWAP2 SWAP1 POP JUMP JUMPDEST PUSH2 0x3D36 DUP2 PUSH2 0x3D0B JUMP JUMPDEST DUP3 MSTORE POP POP JUMP JUMPDEST PUSH1 0x0 PUSH1 0x20 DUP3 ADD SWAP1 POP PUSH2 0x3D51 PUSH1 0x0 DUP4 ADD DUP5 PUSH2 0x3D2D JUMP JUMPDEST SWAP3 SWAP2 POP POP JUMP JUMPDEST PUSH2 0x3D60 DUP2 PUSH2 0x32E2 JUMP JUMPDEST DUP3 MSTORE POP POP JUMP JUMPDEST PUSH1 0x0 PUSH1 0x20 DUP3 ADD SWAP1 POP PUSH2 0x3D7B PUSH1 0x0 DUP4 ADD DUP5 PUSH2 0x3D57 JUMP JUMPDEST SWAP3 SWAP2 POP POP JUMP JUMPDEST PUSH32 0x5265656E7472616E637947756172643A207265656E7472616E742063616C6C00 PUSH1 0x0 DUP3 ADD MSTORE POP JUMP JUMPDEST PUSH1 0x0 PUSH2 0x3DB7 PUSH1 0x1F DUP4 PUSH2 0x399A JUMP JUMPDEST SWAP2 POP PUSH2 0x3DC2 DUP3 PUSH2 0x3D81 JUMP JUMPDEST PUSH1 0x20 DUP3 ADD SWAP1 POP SWAP2 SWAP1 POP JUMP JUMPDEST PUSH1 0x0 PUSH1 0x20 DUP3 ADD SWAP1 POP DUP2 DUP2 SUB PUSH1 0x0 DUP4 ADD MSTORE PUSH2 0x3DE6 DUP2 PUSH2 0x3DAA JUMP JUMPDEST SWAP1 POP SWAP2 SWAP1 POP JUMP JUMPDEST PUSH1 0x0 PUSH1 0x80 DUP3 ADD SWAP1 POP PUSH2 0x3E02 PUSH1 0x0 DUP4 ADD DUP8 PUSH2 0x35B0 JUMP JUMPDEST PUSH2 0x3E0F PUSH1 0x20 DUP4 ADD DUP7 PUSH2 0x35B0 JUMP JUMPDEST PUSH2 0x3E1C PUSH1 0x40 DUP4 ADD DUP6 PUSH2 0x35B0 JUMP JUMPDEST PUSH2 0x3E29 PUSH1 0x60 DUP4 ADD DUP5 PUSH2 0x35B0 JUMP JUMPDEST SWAP6 SWAP5 POP POP POP POP POP JUMP JUMPDEST PUSH1 0x0 DUP2 MLOAD SWAP1 POP PUSH2 0x3E41 DUP2 PUSH2 0x3653 JUMP JUMPDEST SWAP3 SWAP2 POP POP JUMP JUMPDEST PUSH1 0x0 PUSH1 0x20 DUP3 DUP5 SUB SLT ISZERO PUSH2 0x3E5D JUMPI PUSH2 0x3E5C PUSH2 0x3202 JUMP JUMPDEST JUMPDEST PUSH1 0x0 PUSH2 0x3E6B DUP5 DUP3 DUP6 ADD PUSH2 0x3E32 JUMP JUMPDEST SWAP2 POP POP SWAP3 SWAP2 POP POP JUMP JUMPDEST PUSH1 0x0 PUSH1 0x40 DUP3 ADD SWAP1 POP PUSH2 0x3E89 PUSH1 0x0 DUP4 ADD DUP6 PUSH2 0x3D57 JUMP JUMPDEST PUSH2 0x3E96 PUSH1 0x20 DUP4 ADD DUP5 PUSH2 0x35B0 JUMP JUMPDEST SWAP4 SWAP3 POP POP POP JUMP JUMPDEST PUSH1 0x0 DUP2 SWAP1 POP SWAP3 SWAP2 POP POP JUMP JUMPDEST PUSH32 0x416363657373436F6E74726F6C3A206163636F756E7420000000000000000000 PUSH1 0x0 DUP3 ADD MSTORE POP JUMP JUMPDEST PUSH1 0x0 PUSH2 0x3EDE PUSH1 0x17 DUP4 PUSH2 0x3E9D JUMP JUMPDEST SWAP2 POP PUSH2 0x3EE9 DUP3 PUSH2 0x3EA8 JUMP JUMPDEST PUSH1 0x17 DUP3 ADD SWAP1 POP SWAP2 SWAP1 POP JUMP JUMPDEST PUSH1 0x0 DUP2 MLOAD SWAP1 POP SWAP2 SWAP1 POP JUMP JUMPDEST PUSH1 0x0 JUMPDEST DUP4 DUP2 LT ISZERO PUSH2 0x3F1D JUMPI DUP1 DUP3 ADD MLOAD DUP2 DUP5 ADD MSTORE PUSH1 0x20 DUP2 ADD SWAP1 POP PUSH2 0x3F02 JUMP JUMPDEST PUSH1 0x0 DUP5 DUP5 ADD MSTORE POP POP POP POP JUMP JUMPDEST PUSH1 0x0 PUSH2 0x3F34 DUP3 PUSH2 0x3EF4 JUMP JUMPDEST PUSH2 0x3F3E DUP2 DUP6 PUSH2 0x3E9D JUMP JUMPDEST SWAP4 POP PUSH2 0x3F4E DUP2 DUP6 PUSH1 0x20 DUP7 ADD PUSH2 0x3EFF JUMP JUMPDEST DUP1 DUP5 ADD SWAP2 POP POP SWAP3 SWAP2 POP POP JUMP JUMPDEST PUSH32 0x206973206D697373696E6720726F6C6520000000000000000000000000000000 PUSH1 0x0 DUP3 ADD MSTORE POP JUMP JUMPDEST PUSH1 0x0 PUSH2 0x3F90 PUSH1 0x11 DUP4 PUSH2 0x3E9D JUMP JUMPDEST SWAP2 POP PUSH2 0x3F9B DUP3 PUSH2 0x3F5A JUMP JUMPDEST PUSH1 0x11 DUP3 ADD SWAP1 POP SWAP2 SWAP1 POP JUMP JUMPDEST PUSH1 0x0 PUSH2 0x3FB1 DUP3 PUSH2 0x3ED1 JUMP JUMPDEST SWAP2 POP PUSH2 0x3FBD DUP3 DUP6 PUSH2 0x3F29 JUMP JUMPDEST SWAP2 POP PUSH2 0x3FC8 DUP3 PUSH2 0x3F83 JUMP JUMPDEST SWAP2 POP PUSH2 0x3FD4 DUP3 DUP5 PUSH2 0x3F29 JUMP JUMPDEST SWAP2 POP DUP2 SWAP1 POP SWAP4 SWAP3 POP POP POP JUMP JUMPDEST PUSH1 0x0 PUSH1 0x1F NOT PUSH1 0x1F DUP4 ADD AND SWAP1 POP SWAP2 SWAP1 POP JUMP JUMPDEST PUSH1 0x0 PUSH2 0x3FFC DUP3 PUSH2 0x3EF4 JUMP JUMPDEST PUSH2 0x4006 DUP2 DUP6 PUSH2 0x399A JUMP JUMPDEST SWAP4 POP PUSH2 0x4016 DUP2 DUP6 PUSH1 0x20 DUP7 ADD PUSH2 0x3EFF JUMP JUMPDEST PUSH2 0x401F DUP2 PUSH2 0x3FE0 JUMP JUMPDEST DUP5 ADD SWAP2 POP POP SWAP3 SWAP2 POP POP JUMP JUMPDEST PUSH1 0x0 PUSH1 0x20 DUP3 ADD SWAP1 POP DUP2 DUP2 SUB PUSH1 0x0 DUP4 ADD MSTORE PUSH2 0x4044 DUP2 DUP5 PUSH2 0x3FF1 JUMP JUMPDEST SWAP1 POP SWAP3 SWAP2 POP POP JUMP JUMPDEST PUSH32 0x5061757361626C653A206E6F7420706175736564000000000000000000000000 PUSH1 0x0 DUP3 ADD MSTORE POP JUMP JUMPDEST PUSH1 0x0 PUSH2 0x4082 PUSH1 0x14 DUP4 PUSH2 0x399A JUMP JUMPDEST SWAP2 POP PUSH2 0x408D DUP3 PUSH2 0x404C JUMP JUMPDEST PUSH1 0x20 DUP3 ADD SWAP1 POP SWAP2 SWAP1 POP JUMP JUMPDEST PUSH1 0x0 PUSH1 0x20 DUP3 ADD SWAP1 POP DUP2 DUP2 SUB PUSH1 0x0 DUP4 ADD MSTORE PUSH2 0x40B1 DUP2 PUSH2 0x4075 JUMP JUMPDEST SWAP1 POP SWAP2 SWAP1 POP JUMP JUMPDEST PUSH1 0x0 PUSH1 0x60 DUP3 ADD SWAP1 POP PUSH2 0x40CD PUSH1 0x0 DUP4 ADD DUP7 PUSH2 0x35B0 JUMP JUMPDEST PUSH2 0x40DA PUSH1 0x20 DUP4 ADD DUP6 PUSH2 0x35B0 JUMP JUMPDEST PUSH2 0x40E7 PUSH1 0x40 DUP4 ADD DUP5 PUSH2 0x35B0 JUMP JUMPDEST SWAP5 SWAP4 POP POP POP POP JUMP JUMPDEST PUSH32 0x4E487B7100000000000000000000000000000000000000000000000000000000 PUSH1 0x0 MSTORE PUSH1 0x12 PUSH1 0x4 MSTORE PUSH1 0x24 PUSH1 0x0 REVERT JUMPDEST PUSH1 0x0 PUSH2 0x4129 DUP3 PUSH2 0x3320 JUMP JUMPDEST SWAP2 POP PUSH2 0x4134 DUP4 PUSH2 0x3320 JUMP JUMPDEST SWAP3 POP DUP3 PUSH2 0x4144 JUMPI PUSH2 0x4143 PUSH2 0x40EF JUMP JUMPDEST JUMPDEST DUP3 DUP3 DIV SWAP1 POP SWAP3 SWAP2 POP POP JUMP JUMPDEST PUSH2 0x4158 DUP2 PUSH2 0x361A JUMP JUMPDEST DUP3 MSTORE POP POP JUMP JUMPDEST PUSH1 0x0 PUSH1 0xE0 DUP3 ADD SWAP1 POP PUSH2 0x4173 PUSH1 0x0 DUP4 ADD DUP11 PUSH2 0x3D57 JUMP JUMPDEST PUSH2 0x4180 PUSH1 0x20 DUP4 ADD DUP10 PUSH2 0x3D57 JUMP JUMPDEST PUSH2 0x418D PUSH1 0x40 DUP4 ADD DUP9 PUSH2 0x35B0 JUMP JUMPDEST PUSH2 0x419A PUSH1 0x60 DUP4 ADD DUP8 PUSH2 0x35B0 JUMP JUMPDEST PUSH2 0x41A7 PUSH1 0x80 DUP4 ADD DUP7 PUSH2 0x414F JUMP JUMPDEST PUSH2 0x41B4 PUSH1 0xA0 DUP4 ADD DUP6 PUSH2 0x34EC JUMP JUMPDEST PUSH2 0x41C1 PUSH1 0xC0 DUP4 ADD DUP5 PUSH2 0x34EC JUMP JUMPDEST SWAP9 SWAP8 POP POP POP POP POP POP POP POP JUMP JUMPDEST PUSH32 0x5361666545524332303A207065726D697420646964206E6F7420737563636565 PUSH1 0x0 DUP3 ADD MSTORE PUSH32 0x6400000000000000000000000000000000000000000000000000000000000000 PUSH1 0x20 DUP3 ADD MSTORE POP JUMP JUMPDEST PUSH1 0x0 PUSH2 0x4229 PUSH1 0x21 DUP4 PUSH2 0x399A JUMP JUMPDEST SWAP2 POP PUSH2 0x4234 DUP3 PUSH2 0x41CD JUMP JUMPDEST PUSH1 0x40 DUP3 ADD SWAP1 POP SWAP2 SWAP1 POP JUMP JUMPDEST PUSH1 0x0 PUSH1 0x20 DUP3 ADD SWAP1 POP DUP2 DUP2 SUB PUSH1 0x0 DUP4 ADD MSTORE PUSH2 0x4258 DUP2 PUSH2 0x421C JUMP JUMPDEST SWAP1 POP SWAP2 SWAP1 POP JUMP JUMPDEST PUSH32 0x5061757361626C653A2070617573656400000000000000000000000000000000 PUSH1 0x0 DUP3 ADD MSTORE POP JUMP JUMPDEST PUSH1 0x0 PUSH2 0x4295 PUSH1 0x10 DUP4 PUSH2 0x399A JUMP JUMPDEST SWAP2 POP PUSH2 0x42A0 DUP3 PUSH2 0x425F JUMP JUMPDEST PUSH1 0x20 DUP3 ADD SWAP1 POP SWAP2 SWAP1 POP JUMP JUMPDEST PUSH1 0x0 PUSH1 0x20 DUP3 ADD SWAP1 POP DUP2 DUP2 SUB PUSH1 0x0 DUP4 ADD MSTORE PUSH2 0x42C4 DUP2 PUSH2 0x4288 JUMP JUMPDEST SWAP1 POP SWAP2 SWAP1 POP JUMP JUMPDEST PUSH1 0x0 PUSH2 0x42D6 DUP3 PUSH2 0x3320 JUMP JUMPDEST SWAP2 POP PUSH1 0x0 DUP3 SUB PUSH2 0x42E9 JUMPI PUSH2 0x42E8 PUSH2 0x38C5 JUMP JUMPDEST JUMPDEST PUSH1 0x1 DUP3 SUB SWAP1 POP SWAP2 SWAP1 POP JUMP JUMPDEST PUSH32 0x537472696E67733A20686578206C656E67746820696E73756666696369656E74 PUSH1 0x0 DUP3 ADD MSTORE POP JUMP JUMPDEST PUSH1 0x0 PUSH2 0x432A PUSH1 0x20 DUP4 PUSH2 0x399A JUMP JUMPDEST SWAP2 POP PUSH2 0x4335 DUP3 PUSH2 0x42F4 JUMP JUMPDEST PUSH1 0x20 DUP3 ADD SWAP1 POP SWAP2 SWAP1 POP JUMP JUMPDEST PUSH1 0x0 PUSH1 0x20 DUP3 ADD SWAP1 POP DUP2 DUP2 SUB PUSH1 0x0 DUP4 ADD MSTORE PUSH2 0x4359 DUP2 PUSH2 0x431D JUMP JUMPDEST SWAP1 POP SWAP2 SWAP1 POP JUMP INVALID LOG2 PUSH5 0x6970667358 0x22 SLT KECCAK256 0xB6 0xDD EXP SWAP15 0xAD SWAP14 0xD2 0xAF CALLDATASIZE 0xE3 0x5C LOG1 SWAP7 PUSH26 0x5DBCE265AE5257EC9529513441BAFA0BC2B964736F6C63430008 LT STOP CALLER "},"gasEstimates":{"creation":{"codeDepositCost":"3460400","executionCost":"3868","totalCost":"3464268"},"external":{"DEFAULT_ADMIN_ROLE()":"380","__BaseUpgradeablePausable_init(address)":"infinite","addInsuranceAmount(uint256,uint256,uint256,uint8,bytes32,bytes32)":"infinite","calculateTotalFlowMade(address)":"infinite","calculateTotalFlowMade(address,uint256)":"infinite","claimPremium(address,uint256)":"912","claimPremium(address,uint256,uint256)":"infinite","findActivePremiumCost(address,uint256,uint256)":"infinite","getGlobalUserInsuranceInfo(address)":"infinite","getGlobalUserInsurancePremiumCost(address)":"7206","getRoleAdmin(bytes32)":"infinite","getUserInsuranceInfo(address,uint256,uint256)":"infinite","getUserInsuranceStatus(address,uint256,uint256)":"infinite","getUserInsuranceValidTillInfo(address,uint256,uint256)":"infinite","getUserInsuredAmount(address,uint256,uint256)":"infinite","grantRole(bytes32,address)":"infinite","hasRole(bytes32,address)":"3251","initialize(address,address,address,uint256,uint256,uint256)":"infinite","isAdmin()":"2859","minusInsuranceAmount(uint256,uint256,uint256,uint8,bytes32,bytes32,bool)":"infinite","pause()":"infinite","paused()":"2524","renounceRole(bytes32,address)":"infinite","revokeRole(bytes32,address)":"infinite","supportsInterface(bytes4)":"774","unpause()":"infinite","updateMaxInsuredDays(uint256)":"infinite","updateMinimumInsurancePeriod(uint256)":"infinite","updateStartWaitingTime(uint256)":"infinite"},"internal":{"_addInsuranceAmount(uint256,uint256,uint256,uint8,bytes32,bytes32)":"infinite","_calculateTotalFlowMade(address,uint256,uint256[] memory)":"infinite","_minusInsuranceAmount(uint256,uint256,uint256,uint8,bytes32,bytes32,bool)":"infinite","activateInsurance(uint256,uint256,uint256)":"infinite","deactivateCategoryInsurance(address,uint256)":"infinite","deactivateInsurance(address,uint256,uint256)":"infinite"}},"methodIdentifiers":{"DEFAULT_ADMIN_ROLE()":"a217fddf","__BaseUpgradeablePausable_init(address)":"6e810b1a","addInsuranceAmount(uint256,uint256,uint256,uint8,bytes32,bytes32)":"6e8847bd","calculateTotalFlowMade(address)":"cff5eede","calculateTotalFlowMade(address,uint256)":"4e94c048","claimPremium(address,uint256)":"77bd35fc","claimPremium(address,uint256,uint256)":"f099dd50","findActivePremiumCost(address,uint256,uint256)":"1a5c8f28","getGlobalUserInsuranceInfo(address)":"ec249164","getGlobalUserInsurancePremiumCost(address)":"42f6b8a7","getRoleAdmin(bytes32)":"248a9ca3","getUserInsuranceInfo(address,uint256,uint256)":"88295fb2","getUserInsuranceStatus(address,uint256,uint256)":"81280d2b","getUserInsuranceValidTillInfo(address,uint256,uint256)":"c392e850","getUserInsuredAmount(address,uint256,uint256)":"6b6d105e","grantRole(bytes32,address)":"2f2ff15d","hasRole(bytes32,address)":"91d14854","initialize(address,address,address,uint256,uint256,uint256)":"728cdbca","isAdmin()":"b6db75a0","minusInsuranceAmount(uint256,uint256,uint256,uint8,bytes32,bytes32,bool)":"642adc28","pause()":"8456cb59","paused()":"5c975abb","renounceRole(bytes32,address)":"36568abe","revokeRole(bytes32,address)":"d547741f","supportsInterface(bytes4)":"01ffc9a7","unpause()":"3f4ba83a","updateMaxInsuredDays(uint256)":"b4706268","updateMinimumInsurancePeriod(uint256)":"56eb66bb","updateStartWaitingTime(uint256)":"24b7ab24"}},"storageLayout":{"storage":[{"astId":418,"contract":"contracts/core/payAsYouGo/ConstantFlowAgreement.sol:ConstantFlowAgreement","label":"_initialized","offset":0,"slot":"0","type":"t_uint8"},{"astId":421,"contract":"contracts/core/payAsYouGo/ConstantFlowAgreement.sol:ConstantFlowAgreement","label":"_initializing","offset":1,"slot":"0","type":"t_bool"},{"astId":1500,"contract":"contracts/core/payAsYouGo/ConstantFlowAgreement.sol:ConstantFlowAgreement","label":"__gap","offset":0,"slot":"1","type":"t_array(t_uint256)50_storage"},{"astId":601,"contract":"contracts/core/payAsYouGo/ConstantFlowAgreement.sol:ConstantFlowAgreement","label":"_paused","offset":0,"slot":"51","type":"t_bool"},{"astId":706,"contract":"contracts/core/payAsYouGo/ConstantFlowAgreement.sol:ConstantFlowAgreement","label":"__gap","offset":0,"slot":"52","type":"t_array(t_uint256)49_storage"},{"astId":1719,"contract":"contracts/core/payAsYouGo/ConstantFlowAgreement.sol:ConstantFlowAgreement","label":"__gap","offset":0,"slot":"101","type":"t_array(t_uint256)50_storage"},{"astId":39,"contract":"contracts/core/payAsYouGo/ConstantFlowAgreement.sol:ConstantFlowAgreement","label":"_roles","offset":0,"slot":"151","type":"t_mapping(t_bytes32,t_struct(RoleData)34_storage)"},{"astId":334,"contract":"contracts/core/payAsYouGo/ConstantFlowAgreement.sol:ConstantFlowAgreement","label":"__gap","offset":0,"slot":"152","type":"t_array(t_uint256)49_storage"},{"astId":721,"contract":"contracts/core/payAsYouGo/ConstantFlowAgreement.sol:ConstantFlowAgreement","label":"_status","offset":0,"slot":"201","type":"t_uint256"},{"astId":779,"contract":"contracts/core/payAsYouGo/ConstantFlowAgreement.sol:ConstantFlowAgreement","label":"__gap","offset":0,"slot":"202","type":"t_array(t_uint256)49_storage"},{"astId":3206,"contract":"contracts/core/payAsYouGo/ConstantFlowAgreement.sol:ConstantFlowAgreement","label":"_categoriesCount","offset":0,"slot":"251","type":"t_uint256"},{"astId":3208,"contract":"contracts/core/payAsYouGo/ConstantFlowAgreement.sol:ConstantFlowAgreement","label":"_maxInsuredDays","offset":0,"slot":"252","type":"t_uint256"},{"astId":3210,"contract":"contracts/core/payAsYouGo/ConstantFlowAgreement.sol:ConstantFlowAgreement","label":"_startWaitingTime","offset":0,"slot":"253","type":"t_uint256"},{"astId":3212,"contract":"contracts/core/payAsYouGo/ConstantFlowAgreement.sol:ConstantFlowAgreement","label":"_minimumInsurancePeriod","offset":0,"slot":"254","type":"t_uint256"},{"astId":3224,"contract":"contracts/core/payAsYouGo/ConstantFlowAgreement.sol:ConstantFlowAgreement","label":"_tokenDAI","offset":0,"slot":"255","type":"t_contract(IERC20Upgradeable)858"},{"astId":3227,"contract":"contracts/core/payAsYouGo/ConstantFlowAgreement.sol:ConstantFlowAgreement","label":"_tokenPermitDAI","offset":0,"slot":"256","type":"t_contract(IERC20PermitUpgradeable)894"},{"astId":3230,"contract":"contracts/core/payAsYouGo/ConstantFlowAgreement.sol:ConstantFlowAgreement","label":"_sztDAI","offset":0,"slot":"257","type":"t_contract(IERC20Extended)5713"},{"astId":3233,"contract":"contracts/core/payAsYouGo/ConstantFlowAgreement.sol:ConstantFlowAgreement","label":"_insuranceRegistry","offset":0,"slot":"258","type":"t_contract(IInsuranceRegistry)5916"},{"astId":3261,"contract":"contracts/core/payAsYouGo/ConstantFlowAgreement.sol:ConstantFlowAgreement","label":"usersGlobalInsuranceInfo","offset":0,"slot":"259","type":"t_mapping(t_address,t_struct(UserGlobalInsuranceInfo)3255_storage)"},{"astId":3271,"contract":"contracts/core/payAsYouGo/ConstantFlowAgreement.sol:ConstantFlowAgreement","label":"usersInsuranceInfo","offset":0,"slot":"260","type":"t_mapping(t_address,t_mapping(t_uint256,t_mapping(t_uint256,t_struct(UserInsuranceInfo)3248_storage)))"}],"types":{"t_address":{"encoding":"inplace","label":"address","numberOfBytes":"20"},"t_array(t_uint256)49_storage":{"base":"t_uint256","encoding":"inplace","label":"uint256[49]","numberOfBytes":"1568"},"t_array(t_uint256)50_storage":{"base":"t_uint256","encoding":"inplace","label":"uint256[50]","numberOfBytes":"1600"},"t_bool":{"encoding":"inplace","label":"bool","numberOfBytes":"1"},"t_bytes32":{"encoding":"inplace","label":"bytes32","numberOfBytes":"32"},"t_contract(IERC20Extended)5713":{"encoding":"inplace","label":"contract IERC20Extended","numberOfBytes":"20"},"t_contract(IERC20PermitUpgradeable)894":{"encoding":"inplace","label":"contract IERC20PermitUpgradeable","numberOfBytes":"20"},"t_contract(IERC20Upgradeable)858":{"encoding":"inplace","label":"contract IERC20Upgradeable","numberOfBytes":"20"},"t_contract(IInsuranceRegistry)5916":{"encoding":"inplace","label":"contract IInsuranceRegistry","numberOfBytes":"20"},"t_mapping(t_address,t_bool)":{"encoding":"mapping","key":"t_address","label":"mapping(address => bool)","numberOfBytes":"32","value":"t_bool"},"t_mapping(t_address,t_mapping(t_uint256,t_mapping(t_uint256,t_struct(UserInsuranceInfo)3248_storage)))":{"encoding":"mapping","key":"t_address","label":"mapping(address => mapping(uint256 => mapping(uint256 => struct ConstantFlowAgreement.UserInsuranceInfo)))","numberOfBytes":"32","value":"t_mapping(t_uint256,t_mapping(t_uint256,t_struct(UserInsuranceInfo)3248_storage))"},"t_mapping(t_address,t_struct(UserGlobalInsuranceInfo)3255_storage)":{"encoding":"mapping","key":"t_address","label":"mapping(address => struct ConstantFlowAgreement.UserGlobalInsuranceInfo)","numberOfBytes":"32","value":"t_struct(UserGlobalInsuranceInfo)3255_storage"},"t_mapping(t_bytes32,t_struct(RoleData)34_storage)":{"encoding":"mapping","key":"t_bytes32","label":"mapping(bytes32 => struct AccessControlUpgradeable.RoleData)","numberOfBytes":"32","value":"t_struct(RoleData)34_storage"},"t_mapping(t_uint256,t_mapping(t_uint256,t_struct(UserInsuranceInfo)3248_storage))":{"encoding":"mapping","key":"t_uint256","label":"mapping(uint256 => mapping(uint256 => struct ConstantFlowAgreement.UserInsuranceInfo))","numberOfBytes":"32","value":"t_mapping(t_uint256,t_struct(UserInsuranceInfo)3248_storage)"},"t_mapping(t_uint256,t_struct(UserInsuranceInfo)3248_storage)":{"encoding":"mapping","key":"t_uint256","label":"mapping(uint256 => struct ConstantFlowAgreement.UserInsuranceInfo)","numberOfBytes":"32","value":"t_struct(UserInsuranceInfo)3248_storage"},"t_struct(RoleData)34_storage":{"encoding":"inplace","label":"struct AccessControlUpgradeable.RoleData","members":[{"astId":31,"contract":"contracts/core/payAsYouGo/ConstantFlowAgreement.sol:ConstantFlowAgreement","label":"members","offset":0,"slot":"0","type":"t_mapping(t_address,t_bool)"},{"astId":33,"contract":"contracts/core/payAsYouGo/ConstantFlowAgreement.sol:ConstantFlowAgreement","label":"adminRole","offset":0,"slot":"1","type":"t_bytes32"}],"numberOfBytes":"64"},"t_struct(UserGlobalInsuranceInfo)3255_storage":{"encoding":"inplace","label":"struct ConstantFlowAgreement.UserGlobalInsuranceInfo","members":[{"astId":3250,"contract":"contracts/core/payAsYouGo/ConstantFlowAgreement.sol:ConstantFlowAgreement","label":"validTill","offset":0,"slot":"0","type":"t_uint256"},{"astId":3252,"contract":"contracts/core/payAsYouGo/ConstantFlowAgreement.sol:ConstantFlowAgreement","label":"insuranceStreamRate","offset":0,"slot":"1","type":"t_uint256"},{"astId":3254,"contract":"contracts/core/payAsYouGo/ConstantFlowAgreement.sol:ConstantFlowAgreement","label":"globalInsuranceCost","offset":0,"slot":"2","type":"t_uint256"}],"numberOfBytes":"96"},"t_struct(UserInsuranceInfo)3248_storage":{"encoding":"inplace","label":"struct ConstantFlowAgreement.UserInsuranceInfo","members":[{"astId":3235,"contract":"contracts/core/payAsYouGo/ConstantFlowAgreement.sol:ConstantFlowAgreement","label":"startTime","offset":0,"slot":"0","type":"t_uint256"},{"astId":3237,"contract":"contracts/core/payAsYouGo/ConstantFlowAgreement.sol:ConstantFlowAgreement","label":"validTill","offset":0,"slot":"1","type":"t_uint256"},{"astId":3239,"contract":"contracts/core/payAsYouGo/ConstantFlowAgreement.sol:ConstantFlowAgreement","label":"insuredAmount","offset":0,"slot":"2","type":"t_uint256"},{"astId":3241,"contract":"contracts/core/payAsYouGo/ConstantFlowAgreement.sol:ConstantFlowAgreement","label":"registrationTime","offset":0,"slot":"3","type":"t_uint256"},{"astId":3243,"contract":"contracts/core/payAsYouGo/ConstantFlowAgreement.sol:ConstantFlowAgreement","label":"insuranceFlowRate","offset":0,"slot":"4","type":"t_uint256"},{"astId":3245,"contract":"contracts/core/payAsYouGo/ConstantFlowAgreement.sol:ConstantFlowAgreement","label":"insuranceCost","offset":0,"slot":"5","type":"t_uint256"},{"astId":3247,"contract":"contracts/core/payAsYouGo/ConstantFlowAgreement.sol:ConstantFlowAgreement","label":"isValid","offset":0,"slot":"6","type":"t_bool"}],"numberOfBytes":"224"},"t_uint256":{"encoding":"inplace","label":"uint256","numberOfBytes":"32"},"t_uint8":{"encoding":"inplace","label":"uint8","numberOfBytes":"1"}}},"userdoc":{"kind":"user","methods":{"calculateTotalFlowMade(address)":{"notice":"DURATION"},"calculateTotalFlowMade(address,uint256)":{"notice":"DURATION"},"findActivePremiumCost(address,uint256,uint256)":{"notice":"VIEW FUNCTIONS"}},"notice":"Report any bug or issues at:","version":1}}}}