{
  "_format": "hh-sol-artifact-1",
  "contractName": "ClaimGovernance",
  "sourceName": "contracts/core/payAsYouGo/Claim.sol",
  "abi": [
    {
      "inputs": [
        {
          "internalType": "address",
          "name": "tokenDAI",
          "type": "address"
        }
      ],
      "stateMutability": "nonpayable",
      "type": "constructor"
    },
    {
      "inputs": [],
      "name": "BaseUpgradeablePausable__ZeroAddressError",
      "type": "error"
    },
    {
      "inputs": [],
      "name": "Claim__DecisionChallengedError",
      "type": "error"
    },
    {
      "inputs": [],
      "name": "Claim__DecisionNoLongerCanBeChallengedError",
      "type": "error"
    },
    {
      "inputs": [],
      "name": "Claim__DecisionNotYetTakenError",
      "type": "error"
    },
    {
      "inputs": [],
      "name": "Claim__ImmutableChangesError",
      "type": "error"
    },
    {
      "inputs": [],
      "name": "Claim__PausedOperationFailedError",
      "type": "error"
    },
    {
      "inputs": [],
      "name": "Claim__UserAlreadyVotedError",
      "type": "error"
    },
    {
      "inputs": [],
      "name": "Claim__VotingDecisionNotYetFinalizedError",
      "type": "error"
    },
    {
      "inputs": [],
      "name": "Claim__VotingNotYetStartedError",
      "type": "error"
    },
    {
      "inputs": [],
      "name": "Claim__VotingTimeEndedError",
      "type": "error"
    },
    {
      "anonymous": false,
      "inputs": [
        {
          "indexed": false,
          "internalType": "uint8",
          "name": "version",
          "type": "uint8"
        }
      ],
      "name": "Initialized",
      "type": "event"
    },
    {
      "anonymous": false,
      "inputs": [
        {
          "indexed": true,
          "internalType": "address",
          "name": "userAddress",
          "type": "address"
        },
        {
          "indexed": true,
          "internalType": "uint256",
          "name": "claimID",
          "type": "uint256"
        },
        {
          "indexed": true,
          "internalType": "string",
          "name": "proof",
          "type": "string"
        }
      ],
      "name": "NewClaimCreated",
      "type": "event"
    },
    {
      "anonymous": false,
      "inputs": [
        {
          "indexed": false,
          "internalType": "address",
          "name": "account",
          "type": "address"
        }
      ],
      "name": "Paused",
      "type": "event"
    },
    {
      "anonymous": false,
      "inputs": [
        {
          "indexed": true,
          "internalType": "bytes32",
          "name": "role",
          "type": "bytes32"
        },
        {
          "indexed": true,
          "internalType": "bytes32",
          "name": "previousAdminRole",
          "type": "bytes32"
        },
        {
          "indexed": true,
          "internalType": "bytes32",
          "name": "newAdminRole",
          "type": "bytes32"
        }
      ],
      "name": "RoleAdminChanged",
      "type": "event"
    },
    {
      "anonymous": false,
      "inputs": [
        {
          "indexed": true,
          "internalType": "bytes32",
          "name": "role",
          "type": "bytes32"
        },
        {
          "indexed": true,
          "internalType": "address",
          "name": "account",
          "type": "address"
        },
        {
          "indexed": true,
          "internalType": "address",
          "name": "sender",
          "type": "address"
        }
      ],
      "name": "RoleGranted",
      "type": "event"
    },
    {
      "anonymous": false,
      "inputs": [
        {
          "indexed": true,
          "internalType": "bytes32",
          "name": "role",
          "type": "bytes32"
        },
        {
          "indexed": true,
          "internalType": "address",
          "name": "account",
          "type": "address"
        },
        {
          "indexed": true,
          "internalType": "address",
          "name": "sender",
          "type": "address"
        }
      ],
      "name": "RoleRevoked",
      "type": "event"
    },
    {
      "anonymous": false,
      "inputs": [
        {
          "indexed": false,
          "internalType": "address",
          "name": "account",
          "type": "address"
        }
      ],
      "name": "Unpaused",
      "type": "event"
    },
    {
      "inputs": [],
      "name": "DEFAULT_ADMIN_ROLE",
      "outputs": [
        {
          "internalType": "bytes32",
          "name": "",
          "type": "bytes32"
        }
      ],
      "stateMutability": "view",
      "type": "function"
    },
    {
      "inputs": [
        {
          "internalType": "address",
          "name": "owner",
          "type": "address"
        }
      ],
      "name": "__BaseUpgradeablePausable_init",
      "outputs": [],
      "stateMutability": "nonpayable",
      "type": "function"
    },
    {
      "inputs": [
        {
          "internalType": "uint256",
          "name": "_claimID",
          "type": "uint256"
        },
        {
          "internalType": "uint256",
          "name": "deadline",
          "type": "uint256"
        },
        {
          "internalType": "uint8",
          "name": "v",
          "type": "uint8"
        },
        {
          "internalType": "bytes32",
          "name": "r",
          "type": "bytes32"
        },
        {
          "internalType": "bytes32",
          "name": "s",
          "type": "bytes32"
        }
      ],
      "name": "challengeDecision",
      "outputs": [],
      "stateMutability": "nonpayable",
      "type": "function"
    },
    {
      "inputs": [
        {
          "internalType": "uint256",
          "name": "_claimID",
          "type": "uint256"
        }
      ],
      "name": "claimDecision",
      "outputs": [
        {
          "internalType": "bool",
          "name": "",
          "type": "bool"
        }
      ],
      "stateMutability": "nonpayable",
      "type": "function"
    },
    {
      "inputs": [],
      "name": "claimID",
      "outputs": [
        {
          "internalType": "uint256",
          "name": "",
          "type": "uint256"
        }
      ],
      "stateMutability": "view",
      "type": "function"
    },
    {
      "inputs": [
        {
          "internalType": "uint256",
          "name": "",
          "type": "uint256"
        }
      ],
      "name": "claims",
      "outputs": [
        {
          "internalType": "address",
          "name": "claimer",
          "type": "address"
        },
        {
          "internalType": "uint256",
          "name": "_claimID",
          "type": "uint256"
        },
        {
          "internalType": "uint256",
          "name": "categoryID",
          "type": "uint256"
        },
        {
          "internalType": "uint256",
          "name": "subcategoryID",
          "type": "uint256"
        },
        {
          "internalType": "uint256",
          "name": "claimAmountRequested",
          "type": "uint256"
        },
        {
          "internalType": "string",
          "name": "proof",
          "type": "string"
        },
        {
          "internalType": "bool",
          "name": "closed",
          "type": "bool"
        },
        {
          "internalType": "bool",
          "name": "accepted",
          "type": "bool"
        },
        {
          "internalType": "bool",
          "name": "isChallenged",
          "type": "bool"
        }
      ],
      "stateMutability": "view",
      "type": "function"
    },
    {
      "inputs": [
        {
          "internalType": "uint256",
          "name": "categoryID",
          "type": "uint256"
        },
        {
          "internalType": "uint256",
          "name": "subcategoryID",
          "type": "uint256"
        },
        {
          "internalType": "string",
          "name": "proof",
          "type": "string"
        },
        {
          "internalType": "uint256",
          "name": "requestedClaimAmount",
          "type": "uint256"
        },
        {
          "internalType": "uint256",
          "name": "deadline",
          "type": "uint256"
        },
        {
          "internalType": "uint8",
          "name": "v",
          "type": "uint8"
        },
        {
          "internalType": "bytes32",
          "name": "r",
          "type": "bytes32"
        },
        {
          "internalType": "bytes32",
          "name": "s",
          "type": "bytes32"
        }
      ],
      "name": "createClaim",
      "outputs": [
        {
          "internalType": "bool",
          "name": "",
          "type": "bool"
        }
      ],
      "stateMutability": "nonpayable",
      "type": "function"
    },
    {
      "inputs": [],
      "name": "getClaimID",
      "outputs": [
        {
          "internalType": "uint256",
          "name": "",
          "type": "uint256"
        }
      ],
      "stateMutability": "view",
      "type": "function"
    },
    {
      "inputs": [
        {
          "internalType": "bytes32",
          "name": "role",
          "type": "bytes32"
        }
      ],
      "name": "getRoleAdmin",
      "outputs": [
        {
          "internalType": "bytes32",
          "name": "",
          "type": "bytes32"
        }
      ],
      "stateMutability": "view",
      "type": "function"
    },
    {
      "inputs": [
        {
          "internalType": "uint256",
          "name": "_claimID",
          "type": "uint256"
        }
      ],
      "name": "getVotingInfo",
      "outputs": [
        {
          "internalType": "uint256",
          "name": "",
          "type": "uint256"
        },
        {
          "internalType": "uint256",
          "name": "",
          "type": "uint256"
        },
        {
          "internalType": "uint256",
          "name": "",
          "type": "uint256"
        },
        {
          "internalType": "uint256",
          "name": "",
          "type": "uint256"
        },
        {
          "internalType": "uint256",
          "name": "",
          "type": "uint256"
        },
        {
          "internalType": "uint256",
          "name": "",
          "type": "uint256"
        },
        {
          "internalType": "uint256",
          "name": "",
          "type": "uint256"
        }
      ],
      "stateMutability": "view",
      "type": "function"
    },
    {
      "inputs": [
        {
          "internalType": "bytes32",
          "name": "role",
          "type": "bytes32"
        },
        {
          "internalType": "address",
          "name": "account",
          "type": "address"
        }
      ],
      "name": "grantRole",
      "outputs": [],
      "stateMutability": "nonpayable",
      "type": "function"
    },
    {
      "inputs": [
        {
          "internalType": "bytes32",
          "name": "role",
          "type": "bytes32"
        },
        {
          "internalType": "address",
          "name": "account",
          "type": "address"
        }
      ],
      "name": "hasRole",
      "outputs": [
        {
          "internalType": "bool",
          "name": "",
          "type": "bool"
        }
      ],
      "stateMutability": "view",
      "type": "function"
    },
    {
      "inputs": [
        {
          "internalType": "address",
          "name": "",
          "type": "address"
        }
      ],
      "name": "individualClaims",
      "outputs": [
        {
          "internalType": "uint256",
          "name": "",
          "type": "uint256"
        }
      ],
      "stateMutability": "view",
      "type": "function"
    },
    {
      "inputs": [
        {
          "internalType": "address",
          "name": "safezenGovernanceTokenAddress",
          "type": "address"
        },
        {
          "internalType": "address",
          "name": "globalPauseOperationAddress",
          "type": "address"
        }
      ],
      "name": "initialize",
      "outputs": [],
      "stateMutability": "nonpayable",
      "type": "function"
    },
    {
      "inputs": [],
      "name": "isAdmin",
      "outputs": [
        {
          "internalType": "bool",
          "name": "",
          "type": "bool"
        }
      ],
      "stateMutability": "view",
      "type": "function"
    },
    {
      "inputs": [
        {
          "internalType": "address",
          "name": "",
          "type": "address"
        }
      ],
      "name": "isAdvisor",
      "outputs": [
        {
          "internalType": "bool",
          "name": "",
          "type": "bool"
        }
      ],
      "stateMutability": "view",
      "type": "function"
    },
    {
      "inputs": [],
      "name": "pause",
      "outputs": [],
      "stateMutability": "nonpayable",
      "type": "function"
    },
    {
      "inputs": [],
      "name": "paused",
      "outputs": [
        {
          "internalType": "bool",
          "name": "",
          "type": "bool"
        }
      ],
      "stateMutability": "view",
      "type": "function"
    },
    {
      "inputs": [
        {
          "internalType": "uint256",
          "name": "",
          "type": "uint256"
        },
        {
          "internalType": "uint256",
          "name": "",
          "type": "uint256"
        }
      ],
      "name": "protocolSpecificClaims",
      "outputs": [
        {
          "internalType": "uint256",
          "name": "",
          "type": "uint256"
        }
      ],
      "stateMutability": "view",
      "type": "function"
    },
    {
      "inputs": [
        {
          "internalType": "bytes32",
          "name": "role",
          "type": "bytes32"
        },
        {
          "internalType": "address",
          "name": "account",
          "type": "address"
        }
      ],
      "name": "renounceRole",
      "outputs": [],
      "stateMutability": "nonpayable",
      "type": "function"
    },
    {
      "inputs": [
        {
          "internalType": "bytes32",
          "name": "role",
          "type": "bytes32"
        },
        {
          "internalType": "address",
          "name": "account",
          "type": "address"
        }
      ],
      "name": "revokeRole",
      "outputs": [],
      "stateMutability": "nonpayable",
      "type": "function"
    },
    {
      "inputs": [
        {
          "internalType": "bytes4",
          "name": "interfaceId",
          "type": "bytes4"
        }
      ],
      "name": "supportsInterface",
      "outputs": [
        {
          "internalType": "bool",
          "name": "",
          "type": "bool"
        }
      ],
      "stateMutability": "view",
      "type": "function"
    },
    {
      "inputs": [],
      "name": "unpause",
      "outputs": [],
      "stateMutability": "nonpayable",
      "type": "function"
    },
    {
      "inputs": [
        {
          "internalType": "address",
          "name": "userAddress",
          "type": "address"
        }
      ],
      "name": "updateAdvisors",
      "outputs": [],
      "stateMutability": "nonpayable",
      "type": "function"
    },
    {
      "inputs": [
        {
          "internalType": "uint256",
          "name": "stakeAmount",
          "type": "uint256"
        }
      ],
      "name": "updateStakeAmount",
      "outputs": [],
      "stateMutability": "nonpayable",
      "type": "function"
    },
    {
      "inputs": [
        {
          "internalType": "uint256",
          "name": "_claimID",
          "type": "uint256"
        },
        {
          "internalType": "uint256",
          "name": "timeInHours",
          "type": "uint256"
        }
      ],
      "name": "updateVotingEndTime",
      "outputs": [],
      "stateMutability": "nonpayable",
      "type": "function"
    },
    {
      "inputs": [
        {
          "internalType": "uint256",
          "name": "_claimID",
          "type": "uint256"
        }
      ],
      "name": "viewVoteReceipt",
      "outputs": [
        {
          "internalType": "bool",
          "name": "",
          "type": "bool"
        },
        {
          "internalType": "bool",
          "name": "",
          "type": "bool"
        },
        {
          "internalType": "uint256",
          "name": "",
          "type": "uint256"
        }
      ],
      "stateMutability": "view",
      "type": "function"
    },
    {
      "inputs": [
        {
          "internalType": "uint256",
          "name": "_claimID",
          "type": "uint256"
        },
        {
          "internalType": "bool",
          "name": "support",
          "type": "bool"
        }
      ],
      "name": "vote",
      "outputs": [
        {
          "internalType": "bool",
          "name": "",
          "type": "bool"
        }
      ],
      "stateMutability": "nonpayable",
      "type": "function"
    }
  ],
  "bytecode": "0x60c06040523480156200001157600080fd5b506040516200492a3803806200492a833981810160405281019062000037919062000110565b8073ffffffffffffffffffffffffffffffffffffffff1660808173ffffffffffffffffffffffffffffffffffffffff16815250508073ffffffffffffffffffffffffffffffffffffffff1660a08173ffffffffffffffffffffffffffffffffffffffff16815250505062000142565b600080fd5b600073ffffffffffffffffffffffffffffffffffffffff82169050919050565b6000620000d882620000ab565b9050919050565b620000ea81620000cb565b8114620000f657600080fd5b50565b6000815190506200010a81620000df565b92915050565b600060208284031215620001295762000128620000a6565b5b60006200013984828501620000f9565b91505092915050565b60805160a0516147bb6200016f6000396000610d95015260008181610def015261228b01526147bb6000f3fe608060405234801561001057600080fd5b50600436106101c45760003560e01c80638456cb59116100f9578063c661fed311610097578063c9d27afe11610071578063c9d27afe14610525578063d0c3609214610555578063d547741f14610585578063ef0c997a146105a1576101c4565b8063c661fed3146104a9578063c90054ee146104d9578063c95bee81146104f5576101c4565b8063a217fddf116100d3578063a217fddf14610405578063a888c2cd14610423578063b6db75a01461045b578063c499314014610479576101c4565b80638456cb59146103af5780638c33b395146103b957806391d14854146103d5576101c4565b8063485cc955116101665780635c975abb116101405780635c975abb1461033b5780635df6f2ee14610359578063602ce4c6146103775780636e810b1a14610393576101c4565b8063485cc955146102d357806355e5b444146102ef57806359405ed31461031f576101c4565b8063248a9ca3116101a2578063248a9ca3146102615780632f2ff15d1461029157806336568abe146102ad5780633f4ba83a146102c9576101c4565b806301ffc9a7146101c957806320849b07146101f9578063248a06341461022b575b600080fd5b6101e360048036038101906101de91906131fc565b6105bf565b6040516101f09190613244565b60405180910390f35b610213600480360381019061020e9190613295565b610639565b604051610222939291906132d1565b60405180910390f35b61024560048036038101906102409190613295565b610782565b6040516102589796959493929190613308565b60405180910390f35b61027b600480360381019061027691906133ad565b6107f5565b60405161028891906133e9565b60405180910390f35b6102ab60048036038101906102a69190613462565b610815565b005b6102c760048036038101906102c29190613462565b610836565b005b6102d16108b9565b005b6102ed60048036038101906102e891906134a2565b61090a565b005b61030960048036038101906103049190613661565b610ae3565b6040516103169190613244565b60405180910390f35b61033960048036038101906103349190613733565b610ea9565b005b610343610f4c565b6040516103509190613244565b60405180910390f35b610361610f63565b60405161036e9190613760565b60405180910390f35b610391600480360381019061038c919061377b565b610f69565b005b6103ad60048036038101906103a89190613733565b6111d3565b005b6103b76112f5565b005b6103d360048036038101906103ce91906137f6565b611346565b005b6103ef60048036038101906103ea9190613462565b6113ce565b6040516103fc9190613244565b60405180910390f35b61040d611439565b60405161041a91906133e9565b60405180910390f35b61043d60048036038101906104389190613295565b611440565b604051610452999897969594939291906138c4565b60405180910390f35b61046361155e565b6040516104709190613244565b60405180910390f35b610493600480360381019061048e9190613733565b61157d565b6040516104a09190613760565b60405180910390f35b6104c360048036038101906104be9190613733565b611596565b6040516104d09190613244565b60405180910390f35b6104f360048036038101906104ee9190613295565b6115b7565b005b61050f600480360381019061050a91906137f6565b611608565b60405161051c9190613760565b60405180910390f35b61053f600480360381019061053a9190613984565b61162e565b60405161054c9190613244565b60405180910390f35b61056f600480360381019061056a9190613295565b611cc8565b60405161057c9190613244565b60405180910390f35b61059f600480360381019061059a9190613462565b6122f1565b005b6105a9612312565b6040516105b69190613760565b60405180910390f35b60007f7965db0b000000000000000000000000000000000000000000000000000000007bffffffffffffffffffffffffffffffffffffffffffffffffffffffff1916827bffffffffffffffffffffffffffffffffffffffffffffffffffffffff1916148061063257506106318261231c565b5b9050919050565b60008060006101016000858152602001908152602001600020600801600061065f612386565b73ffffffffffffffffffffffffffffffffffffffff1673ffffffffffffffffffffffffffffffffffffffff16815260200190815260200160002060000160009054906101000a900460ff16610101600086815260200190815260200160002060080160006106cb612386565b73ffffffffffffffffffffffffffffffffffffffff1673ffffffffffffffffffffffffffffffffffffffff16815260200190815260200160002060000160019054906101000a900460ff1661010160008781526020019081526020016000206008016000610737612386565b73ffffffffffffffffffffffffffffffffffffffff1673ffffffffffffffffffffffffffffffffffffffff168152602001908152602001600020600101549250925092509193909250565b60008060008060008060008061010160008a815260200190815260200160002060070160008a815260200190815260200160002090508060000154816001015482600201548360030154846004015485600501548660060154975097509750975097509750975050919395979092949650565b600060976000838152602001908152602001600020600101549050919050565b61081e826107f5565b6108278161238e565b61083183836123a2565b505050565b61083e612386565b73ffffffffffffffffffffffffffffffffffffffff168173ffffffffffffffffffffffffffffffffffffffff16146108ab576040517f08c379a00000000000000000000000000000000000000000000000000000000081526004016108a290613a36565b60405180910390fd5b6108b58282612483565b5050565b6108c161155e565b610900576040517f08c379a00000000000000000000000000000000000000000000000000000000081526004016108f790613ac8565b60405180910390fd5b610908612565565b565b60008060019054906101000a900460ff1615905080801561093b5750600160008054906101000a900460ff1660ff16105b80610968575061094a306125c8565b1580156109675750600160008054906101000a900460ff1660ff16145b5b6109a7576040517f08c379a000000000000000000000000000000000000000000000000000000000815260040161099e90613b5a565b60405180910390fd5b60016000806101000a81548160ff021916908360ff16021790555080156109e4576001600060016101000a81548160ff0219169083151502179055505b678ac7230489e8000060fc819055508260fe60006101000a81548173ffffffffffffffffffffffffffffffffffffffff021916908373ffffffffffffffffffffffffffffffffffffffff1602179055508160ff60006101000a81548173ffffffffffffffffffffffffffffffffffffffff021916908373ffffffffffffffffffffffffffffffffffffffff160217905550610a85610a80612386565b6111d3565b8015610ade5760008060016101000a81548160ff0219169083151502179055507f7f26b83ff96e1f2b6a682f133852f6798a09c465da95921460cefb38474024986001604051610ad59190613bbf565b60405180910390a15b505050565b600060fb60008154610af490613c09565b919050819055506000610101600060fb548152602001908152602001600020905089816002018190555088816003018190555060fb548160010181905550610b3a612386565b8160000160006101000a81548173ffffffffffffffffffffffffffffffffffffffff021916908373ffffffffffffffffffffffffffffffffffffffff16021790555087816005019081610b8d9190613e53565b50868160040181905550603c42610ba49190613f25565b81600701600060fb5481526020019081526020016000206000018190555061012c81600701600060fb54815260200190815260200160002060000154610bea9190613f25565b81600701600060fb548152602001908152602001600020600101819055506101026000610c15612386565b73ffffffffffffffffffffffffffffffffffffffff1673ffffffffffffffffffffffffffffffffffffffff16815260200190815260200160002060008154610c5c90613c09565b9190508190555061010360008b815260200190815260200160002060008a815260200190815260200160002060008154610c9590613c09565b9190508190555060fd60008154610cab90613c09565b91905081905550600060ff60009054906101000a900473ffffffffffffffffffffffffffffffffffffffff1673ffffffffffffffffffffffffffffffffffffffff1663c9d070206040518163ffffffff1660e01b81526004016020604051808303816000875af1158015610d23573d6000803e3d6000fd5b505050506040513d601f19601f82011682018060405250810190610d479190613f6e565b905080610d80576040517f0c7ef03900000000000000000000000000000000000000000000000000000000815260040160405180910390fd5b610dde610d8b612386565b3060fc548a8a8a8a7f000000000000000000000000000000000000000000000000000000000000000073ffffffffffffffffffffffffffffffffffffffff166125eb90979695949392919063ffffffff16565b610e34610de9612386565b3060fc547f000000000000000000000000000000000000000000000000000000000000000073ffffffffffffffffffffffffffffffffffffffff166127b8909392919063ffffffff16565b88604051610e429190613fd7565b604051809103902060fb54610e55612386565b73ffffffffffffffffffffffffffffffffffffffff167fbb70aa717b6d2e0a9b9a1b647818482838fd0133dbdde6f6ff62d0dea579306d60405160405180910390a460019250505098975050505050505050565b610eb161155e565b610ef0576040517f08c379a0000000000000000000000000000000000000000000000000000000008152600401610ee790613ac8565b60405180910390fd5b600161010060008373ffffffffffffffffffffffffffffffffffffffff1673ffffffffffffffffffffffffffffffffffffffff16815260200190815260200160002060006101000a81548160ff02191690831515021790555050565b6000603360009054906101000a900460ff16905090565b60fb5481565b610101600086815260200190815260200160002060060160009054906101000a900460ff161580610fbc5750610101600086815260200190815260200160002060060160029054906101000a900460ff16155b15610ff3576040517fed43432a00000000000000000000000000000000000000000000000000000000815260040160405180910390fd5b6002610101600087815260200190815260200160002060070160008781526020019081526020016000206006015410611058576040517f4cf8bf0000000000000000000000000000000000000000000000000000000000815260040160405180910390fd5b6001610101600087815260200190815260200160002060060160026101000a81548160ff021916908315150217905550610101600060fb5481526020019081526020016000206007016000600160fb546110b29190613f25565b8152602001908152602001600020600601600081546110d090613c09565b919050819055506111cb6101016000878152602001908152602001600020600201546101016000888152602001908152602001600020600301546101016000898152602001908152602001600020600501805461112c90613c80565b80601f016020809104026020016040519081016040528092919081815260200182805461115890613c80565b80156111a55780601f1061117a576101008083540402835291602001916111a5565b820191906000526020600020905b81548152906001019060200180831161118857829003601f168201915b505050505061010160008a81526020019081526020016000206004015488888888610ae3565b505050505050565b600060019054906101000a900460ff16611222576040517f08c379a000000000000000000000000000000000000000000000000000000000815260040161121990614060565b60405180910390fd5b600073ffffffffffffffffffffffffffffffffffffffff168173ffffffffffffffffffffffffffffffffffffffff1603611288576040517f5415139400000000000000000000000000000000000000000000000000000000815260040160405180910390fd5b611290612841565b61129861289a565b6112a06128eb565b6112b16112ab612944565b826123a2565b6112c26112bc61296c565b826123a2565b6112da6112cd61296c565b6112d5612944565b612994565b6112f26112e5612944565b6112ed612944565b612994565b50565b6112fd61155e565b61133c576040517f08c379a000000000000000000000000000000000000000000000000000000000815260040161133390613ac8565b60405180910390fd5b6113446129f0565b565b61134e61155e565b61138d576040517f08c379a000000000000000000000000000000000000000000000000000000000815260040161138490613ac8565b60405180910390fd5b610e108161139b9190614080565b61010160008481526020019081526020016000206007016000848152602001908152602001600020600101819055505050565b60006097600084815260200190815260200160002060000160008373ffffffffffffffffffffffffffffffffffffffff1673ffffffffffffffffffffffffffffffffffffffff16815260200190815260200160002060009054906101000a900460ff16905092915050565b6000801b81565b6101016020528060005260406000206000915090508060000160009054906101000a900473ffffffffffffffffffffffffffffffffffffffff16908060010154908060020154908060030154908060040154908060050180546114a290613c80565b80601f01602080910402602001604051908101604052809291908181526020018280546114ce90613c80565b801561151b5780601f106114f05761010080835404028352916020019161151b565b820191906000526020600020905b8154815290600101906020018083116114fe57829003601f168201915b5050505050908060060160009054906101000a900460ff16908060060160019054906101000a900460ff16908060060160029054906101000a900460ff16905089565b600061157861156b612944565b611573612386565b6113ce565b905090565b6101026020528060005260406000206000915090505481565b6101006020528060005260406000206000915054906101000a900460ff1681565b6115bf61155e565b6115fe576040517f08c379a00000000000000000000000000000000000000000000000000000000081526004016115f590613ac8565b60405180910390fd5b8060fc8190555050565b610103602052816000526040600020602052806000526040600020600091509150505481565b60004261010160008581526020019081526020016000206007016000858152602001908152602001600020600001541115611695576040517fee6c0e1400000000000000000000000000000000000000000000000000000000815260040160405180910390fd5b610101600084815260200190815260200160002060080160006116b6612386565b73ffffffffffffffffffffffffffffffffffffffff1673ffffffffffffffffffffffffffffffffffffffff16815260200190815260200160002060000160009054906101000a900460ff1615611738576040517fe88a652b00000000000000000000000000000000000000000000000000000000815260040160405180910390fd5b426101016000858152602001908152602001600020600701600085815260200190815260200160002060010154101561179d576040517fd6db172200000000000000000000000000000000000000000000000000000000815260040160405180910390fd5b81610101600085815260200190815260200160002060080160006117bf612386565b73ffffffffffffffffffffffffffffffffffffffff1673ffffffffffffffffffffffffffffffffffffffff16815260200190815260200160002060000160016101000a81548160ff02191690831515021790555060fe60009054906101000a900473ffffffffffffffffffffffffffffffffffffffff1673ffffffffffffffffffffffffffffffffffffffff166370a08231611859612386565b6040518263ffffffff1660e01b815260040161187591906140da565b602060405180830381865afa158015611892573d6000803e3d6000fd5b505050506040513d601f19601f820116820180604052508101906118b6919061410a565b610101600085815260200190815260200160002060080160006118d7612386565b73ffffffffffffffffffffffffffffffffffffffff1673ffffffffffffffffffffffffffffffffffffffff1681526020019081526020016000206001018190555060016101016000858152602001908152602001600020600801600061193b612386565b73ffffffffffffffffffffffffffffffffffffffff1673ffffffffffffffffffffffffffffffffffffffff16815260200190815260200160002060000160006101000a81548160ff021916908315150217905550610100600061199c612386565b73ffffffffffffffffffffffffffffffffffffffff1673ffffffffffffffffffffffffffffffffffffffff16815260200190815260200160002060009054906101000a900460ff168015611a1b575060026101016000858152602001908152602001600020600701600085815260200190815260200160002060060154145b15611b71578115611acb5761010160008481526020019081526020016000206008016000611a47612386565b73ffffffffffffffffffffffffffffffffffffffff1673ffffffffffffffffffffffffffffffffffffffff16815260200190815260200160002060010154610101600085815260200190815260200160002060070160008581526020019081526020016000206004016000828254611abf9190613f25565b92505081905550611b6c565b61010160008481526020019081526020016000206008016000611aec612386565b73ffffffffffffffffffffffffffffffffffffffff1673ffffffffffffffffffffffffffffffffffffffff16815260200190815260200160002060010154610101600085815260200190815260200160002060070160008581526020019081526020016000206005016000828254611b649190613f25565b925050819055505b611cbe565b8115611c1c5761010160008481526020019081526020016000206008016000611b98612386565b73ffffffffffffffffffffffffffffffffffffffff1673ffffffffffffffffffffffffffffffffffffffff16815260200190815260200160002060010154610101600085815260200190815260200160002060070160008581526020019081526020016000206002016000828254611c109190613f25565b92505081905550611cbd565b61010160008481526020019081526020016000206008016000611c3d612386565b73ffffffffffffffffffffffffffffffffffffffff1673ffffffffffffffffffffffffffffffffffffffff16815260200190815260200160002060010154610101600085815260200190815260200160002060070160008581526020019081526020016000206003016000828254611cb59190613f25565b925050819055505b5b6001905092915050565b600042603c6101016000858152602001908152602001600020600701600085815260200190815260200160002060010154611d039190613f25565b1115611d3b576040517f449a56bc00000000000000000000000000000000000000000000000000000000815260040160405180910390fd5b610101600083815260200190815260200160002060060160029054906101000a900460ff1615611d97576040517f34e3808e00000000000000000000000000000000000000000000000000000000815260040160405180910390fd5b600061010160008481526020019081526020016000206007016000848152602001908152602001600020600301546101016000858152602001908152602001600020600701600085815260200190815260200160002060020154611dfb9190613f25565b905060026101016000858152602001908152602001600020600701600085815260200190815260200160002060060154036120bb57600061010160008581526020019081526020016000206007016000858152602001908152602001600020600501546101016000868152602001908152602001600020600701600086815260200190815260200160002060040154611e949190613f25565b90506000610101600086815260200190815260200160002060070160008681526020019081526020016000206005015461010160008781526020019081526020016000206007016000878152602001908152602001600020600401541015611efd576000611f45565b816064610101600060fb548152602001908152602001600020600701600060fb54815260200190815260200160002060020154611f3a9190614080565b611f449190614166565b5b9050603b81106120835760006101016000878152602001908152602001600020600701600087815260200190815260200160002060030154610101600088815260200190815260200160002060070160008881526020019081526020016000206002015411611fb5576001611ff9565b8360646101016000898152602001908152602001600020600701600089815260200190815260200160002060020154611fee9190614080565b611ff89190614166565b5b90506000606460338361200c9190614080565b6120169190614166565b60646031856120259190614080565b61202f9190614166565b6120399190613f25565b9050605081101561204b57600061204e565b60015b610101600089815260200190815260200160002060060160016101000a81548160ff02191690831515021790555050506120b4565b6000610101600087815260200190815260200160002060060160016101000a81548160ff0219169083151502179055505b50506121aa565b60006101016000858152602001908152602001600020600701600085815260200190815260200160002060030154610101600086815260200190815260200160002060070160008681526020019081526020016000206002015411612121576001612165565b816064610101600087815260200190815260200160002060070160008781526020019081526020016000206002015461215a9190614080565b6121649190614166565b5b9050605081101561217757600061217a565b60015b610101600086815260200190815260200160002060060160016101000a81548160ff021916908315150217905550505b6001610101600085815260200190815260200160002060060160006101000a81548160ff021916908315150217905550610101600084815260200190815260200160002060060160019054906101000a900460ff16156122d15760006001610101600086815260200190815260200160002060070160008681526020019081526020016000206006015461223e9190613f25565b60fc5461224b9190614080565b90506122cf610101600086815260200190815260200160002060000160009054906101000a900473ffffffffffffffffffffffffffffffffffffffff16827f000000000000000000000000000000000000000000000000000000000000000073ffffffffffffffffffffffffffffffffffffffff16612a539092919063ffffffff16565b505b60fd600081546122e090614197565b919050819055506001915050919050565b6122fa826107f5565b6123038161238e565b61230d8383612483565b505050565b600060fb54905090565b60007f01ffc9a7000000000000000000000000000000000000000000000000000000007bffffffffffffffffffffffffffffffffffffffffffffffffffffffff1916827bffffffffffffffffffffffffffffffffffffffffffffffffffffffff1916149050919050565b600033905090565b61239f8161239a612386565b612ad9565b50565b6123ac82826113ce565b61247f5760016097600084815260200190815260200160002060000160008373ffffffffffffffffffffffffffffffffffffffff1673ffffffffffffffffffffffffffffffffffffffff16815260200190815260200160002060006101000a81548160ff021916908315150217905550612424612386565b73ffffffffffffffffffffffffffffffffffffffff168173ffffffffffffffffffffffffffffffffffffffff16837f2f8788117e7eff1d82e926ec794901d17c78024a50270940304540a733656f0d60405160405180910390a45b5050565b61248d82826113ce565b156125615760006097600084815260200190815260200160002060000160008373ffffffffffffffffffffffffffffffffffffffff1673ffffffffffffffffffffffffffffffffffffffff16815260200190815260200160002060006101000a81548160ff021916908315150217905550612506612386565b73ffffffffffffffffffffffffffffffffffffffff168173ffffffffffffffffffffffffffffffffffffffff16837ff6391f5c32d9c69d2a47ea670b442974b53935d1edc7fd64eb21e047a839171b60405160405180910390a45b5050565b61256d612b5e565b6000603360006101000a81548160ff0219169083151502179055507f5db9ee0a495bf2e6ff9c91a7834c1ba4fdd244a5e8aa4e537bd38aeae4b073aa6125b1612386565b6040516125be91906140da565b60405180910390a1565b6000808273ffffffffffffffffffffffffffffffffffffffff163b119050919050565b60008873ffffffffffffffffffffffffffffffffffffffff16637ecebe00896040518263ffffffff1660e01b815260040161262691906140da565b602060405180830381865afa158015612643573d6000803e3d6000fd5b505050506040513d601f19601f82011682018060405250810190612667919061410a565b90508873ffffffffffffffffffffffffffffffffffffffff1663d505accf898989898989896040518863ffffffff1660e01b81526004016126ae97969594939291906141cf565b600060405180830381600087803b1580156126c857600080fd5b505af11580156126dc573d6000803e3d6000fd5b5050505060008973ffffffffffffffffffffffffffffffffffffffff16637ecebe008a6040518263ffffffff1660e01b815260040161271b91906140da565b602060405180830381865afa158015612738573d6000803e3d6000fd5b505050506040513d601f19601f8201168201806040525081019061275c919061410a565b905060018261276b9190613f25565b81146127ac576040517f08c379a00000000000000000000000000000000000000000000000000000000081526004016127a3906142b0565b60405180910390fd5b50505050505050505050565b61283b846323b872dd60e01b8585856040516024016127d9939291906142d0565b604051602081830303815290604052907bffffffffffffffffffffffffffffffffffffffffffffffffffffffff19166020820180517bffffffffffffffffffffffffffffffffffffffffffffffffffffffff8381831617835250505050612ba7565b50505050565b600060019054906101000a900460ff16612890576040517f08c379a000000000000000000000000000000000000000000000000000000000815260040161288790614060565b60405180910390fd5b612898612c6e565b565b600060019054906101000a900460ff166128e9576040517f08c379a00000000000000000000000000000000000000000000000000000000081526004016128e090614060565b60405180910390fd5b565b600060019054906101000a900460ff1661293a576040517f08c379a000000000000000000000000000000000000000000000000000000000815260040161293190614060565b60405180910390fd5b612942612cda565b565b60007fa49807205ce4d355092ef5a8a18f56e8913cf4a201fbe287825b095693c21775905090565b60007f65d7a28e3265b37a6474929f336521b332c1681b933f6cb9f3376673440d862a905090565b600061299f836107f5565b90508160976000858152602001908152602001600020600101819055508181847fbd79b86ffe0ab8e8776151514217cd7cacd52c909f66475c3af44e129f0b00ff60405160405180910390a4505050565b6129f8612d33565b6001603360006101000a81548160ff0219169083151502179055507f62e78cea01bee320cd4e420270b5ea74000d11b0c9f74754ebdbfc544b05a258612a3c612386565b604051612a4991906140da565b60405180910390a1565b612ad48363a9059cbb60e01b8484604051602401612a72929190614307565b604051602081830303815290604052907bffffffffffffffffffffffffffffffffffffffffffffffffffffffff19166020820180517bffffffffffffffffffffffffffffffffffffffffffffffffffffffff8381831617835250505050612ba7565b505050565b612ae382826113ce565b612b5a57612af081612d7d565b612afe8360001c6020612daa565b604051602001612b0f9291906143c8565b6040516020818303038152906040526040517f08c379a0000000000000000000000000000000000000000000000000000000008152600401612b519190614402565b60405180910390fd5b5050565b612b66610f4c565b612ba5576040517f08c379a0000000000000000000000000000000000000000000000000000000008152600401612b9c90614470565b60405180910390fd5b565b6000612c09826040518060400160405280602081526020017f5361666545524332303a206c6f772d6c6576656c2063616c6c206661696c65648152508573ffffffffffffffffffffffffffffffffffffffff16612fe69092919063ffffffff16565b9050600081511115612c695780806020019051810190612c299190613f6e565b612c68576040517f08c379a0000000000000000000000000000000000000000000000000000000008152600401612c5f90614502565b60405180910390fd5b5b505050565b600060019054906101000a900460ff16612cbd576040517f08c379a0000000000000000000000000000000000000000000000000000000008152600401612cb490614060565b60405180910390fd5b6000603360006101000a81548160ff021916908315150217905550565b600060019054906101000a900460ff16612d29576040517f08c379a0000000000000000000000000000000000000000000000000000000008152600401612d2090614060565b60405180910390fd5b600160c981905550565b612d3b610f4c565b15612d7b576040517f08c379a0000000000000000000000000000000000000000000000000000000008152600401612d729061456e565b60405180910390fd5b565b6060612da38273ffffffffffffffffffffffffffffffffffffffff16601460ff16612daa565b9050919050565b606060006002836002612dbd9190614080565b612dc79190613f25565b67ffffffffffffffff811115612de057612ddf6134fd565b5b6040519080825280601f01601f191660200182016040528015612e125781602001600182028036833780820191505090505b5090507f300000000000000000000000000000000000000000000000000000000000000081600081518110612e4a57612e4961458e565b5b60200101907effffffffffffffffffffffffffffffffffffffffffffffffffffffffffffff1916908160001a9053507f780000000000000000000000000000000000000000000000000000000000000081600181518110612eae57612ead61458e565b5b60200101907effffffffffffffffffffffffffffffffffffffffffffffffffffffffffffff1916908160001a90535060006001846002612eee9190614080565b612ef89190613f25565b90505b6001811115612f98577f3031323334353637383961626364656600000000000000000000000000000000600f861660108110612f3a57612f3961458e565b5b1a60f81b828281518110612f5157612f5061458e565b5b60200101907effffffffffffffffffffffffffffffffffffffffffffffffffffffffffffff1916908160001a905350600485901c945080612f9190614197565b9050612efb565b5060008414612fdc576040517f08c379a0000000000000000000000000000000000000000000000000000000008152600401612fd390614609565b60405180910390fd5b8091505092915050565b6060612ff58484600085612ffe565b90509392505050565b606082471015613043576040517f08c379a000000000000000000000000000000000000000000000000000000000815260040161303a9061469b565b60405180910390fd5b6000808673ffffffffffffffffffffffffffffffffffffffff16858760405161306c9190614702565b60006040518083038185875af1925050503d80600081146130a9576040519150601f19603f3d011682016040523d82523d6000602084013e6130ae565b606091505b50915091506130bf878383876130cb565b92505050949350505050565b6060831561312d576000835103613125576130e5856125c8565b613124576040517f08c379a000000000000000000000000000000000000000000000000000000000815260040161311b90614765565b60405180910390fd5b5b829050613138565b6131378383613140565b5b949350505050565b6000825111156131535781518083602001fd5b806040517f08c379a00000000000000000000000000000000000000000000000000000000081526004016131879190614402565b60405180910390fd5b6000604051905090565b600080fd5b600080fd5b60007fffffffff0000000000000000000000000000000000000000000000000000000082169050919050565b6131d9816131a4565b81146131e457600080fd5b50565b6000813590506131f6816131d0565b92915050565b6000602082840312156132125761321161319a565b5b6000613220848285016131e7565b91505092915050565b60008115159050919050565b61323e81613229565b82525050565b60006020820190506132596000830184613235565b92915050565b6000819050919050565b6132728161325f565b811461327d57600080fd5b50565b60008135905061328f81613269565b92915050565b6000602082840312156132ab576132aa61319a565b5b60006132b984828501613280565b91505092915050565b6132cb8161325f565b82525050565b60006060820190506132e66000830186613235565b6132f36020830185613235565b61330060408301846132c2565b949350505050565b600060e08201905061331d600083018a6132c2565b61332a60208301896132c2565b61333760408301886132c2565b61334460608301876132c2565b61335160808301866132c2565b61335e60a08301856132c2565b61336b60c08301846132c2565b98975050505050505050565b6000819050919050565b61338a81613377565b811461339557600080fd5b50565b6000813590506133a781613381565b92915050565b6000602082840312156133c3576133c261319a565b5b60006133d184828501613398565b91505092915050565b6133e381613377565b82525050565b60006020820190506133fe60008301846133da565b92915050565b600073ffffffffffffffffffffffffffffffffffffffff82169050919050565b600061342f82613404565b9050919050565b61343f81613424565b811461344a57600080fd5b50565b60008135905061345c81613436565b92915050565b600080604083850312156134795761347861319a565b5b600061348785828601613398565b92505060206134988582860161344d565b9150509250929050565b600080604083850312156134b9576134b861319a565b5b60006134c78582860161344d565b92505060206134d88582860161344d565b9150509250929050565b600080fd5b600080fd5b6000601f19601f8301169050919050565b7f4e487b7100000000000000000000000000000000000000000000000000000000600052604160045260246000fd5b613535826134ec565b810181811067ffffffffffffffff82111715613554576135536134fd565b5b80604052505050565b6000613567613190565b9050613573828261352c565b919050565b600067ffffffffffffffff821115613593576135926134fd565b5b61359c826134ec565b9050602081019050919050565b82818337600083830152505050565b60006135cb6135c684613578565b61355d565b9050828152602081018484840111156135e7576135e66134e7565b5b6135f28482856135a9565b509392505050565b600082601f83011261360f5761360e6134e2565b5b813561361f8482602086016135b8565b91505092915050565b600060ff82169050919050565b61363e81613628565b811461364957600080fd5b50565b60008135905061365b81613635565b92915050565b600080600080600080600080610100898b0312156136825761368161319a565b5b60006136908b828c01613280565b98505060206136a18b828c01613280565b975050604089013567ffffffffffffffff8111156136c2576136c161319f565b5b6136ce8b828c016135fa565b96505060606136df8b828c01613280565b95505060806136f08b828c01613280565b94505060a06137018b828c0161364c565b93505060c06137128b828c01613398565b92505060e06137238b828c01613398565b9150509295985092959890939650565b6000602082840312156137495761374861319a565b5b60006137578482850161344d565b91505092915050565b600060208201905061377560008301846132c2565b92915050565b600080600080600060a086880312156137975761379661319a565b5b60006137a588828901613280565b95505060206137b688828901613280565b94505060406137c78882890161364c565b93505060606137d888828901613398565b92505060806137e988828901613398565b9150509295509295909350565b6000806040838503121561380d5761380c61319a565b5b600061381b85828601613280565b925050602061382c85828601613280565b9150509250929050565b61383f81613424565b82525050565b600081519050919050565b600082825260208201905092915050565b60005b8381101561387f578082015181840152602081019050613864565b60008484015250505050565b600061389682613845565b6138a08185613850565b93506138b0818560208601613861565b6138b9816134ec565b840191505092915050565b6000610120820190506138da600083018c613836565b6138e7602083018b6132c2565b6138f4604083018a6132c2565b61390160608301896132c2565b61390e60808301886132c2565b81810360a0830152613920818761388b565b905061392f60c0830186613235565b61393c60e0830185613235565b61394a610100830184613235565b9a9950505050505050505050565b61396181613229565b811461396c57600080fd5b50565b60008135905061397e81613958565b92915050565b6000806040838503121561399b5761399a61319a565b5b60006139a985828601613280565b92505060206139ba8582860161396f565b9150509250929050565b7f416363657373436f6e74726f6c3a2063616e206f6e6c792072656e6f756e636560008201527f20726f6c657320666f722073656c660000000000000000000000000000000000602082015250565b6000613a20602f83613850565b9150613a2b826139c4565b604082019050919050565b60006020820190508181036000830152613a4f81613a13565b9050919050565b7f4d75737420686176652061646d696e20726f6c6520746f20706572666f726d2060008201527f7468697320616374696f6e2e0000000000000000000000000000000000000000602082015250565b6000613ab2602c83613850565b9150613abd82613a56565b604082019050919050565b60006020820190508181036000830152613ae181613aa5565b9050919050565b7f496e697469616c697a61626c653a20636f6e747261637420697320616c72656160008201527f647920696e697469616c697a6564000000000000000000000000000000000000602082015250565b6000613b44602e83613850565b9150613b4f82613ae8565b604082019050919050565b60006020820190508181036000830152613b7381613b37565b9050919050565b6000819050919050565b6000819050919050565b6000613ba9613ba4613b9f84613b7a565b613b84565b613628565b9050919050565b613bb981613b8e565b82525050565b6000602082019050613bd46000830184613bb0565b92915050565b7f4e487b7100000000000000000000000000000000000000000000000000000000600052601160045260246000fd5b6000613c148261325f565b91507fffffffffffffffffffffffffffffffffffffffffffffffffffffffffffffffff8203613c4657613c45613bda565b5b600182019050919050565b7f4e487b7100000000000000000000000000000000000000000000000000000000600052602260045260246000fd5b60006002820490506001821680613c9857607f821691505b602082108103613cab57613caa613c51565b5b50919050565b60008190508160005260206000209050919050565b60006020601f8301049050919050565b600082821b905092915050565b600060088302613d137fffffffffffffffffffffffffffffffffffffffffffffffffffffffffffffffff82613cd6565b613d1d8683613cd6565b95508019841693508086168417925050509392505050565b6000613d50613d4b613d468461325f565b613b84565b61325f565b9050919050565b6000819050919050565b613d6a83613d35565b613d7e613d7682613d57565b848454613ce3565b825550505050565b600090565b613d93613d86565b613d9e818484613d61565b505050565b5b81811015613dc257613db7600082613d8b565b600181019050613da4565b5050565b601f821115613e0757613dd881613cb1565b613de184613cc6565b81016020851015613df0578190505b613e04613dfc85613cc6565b830182613da3565b50505b505050565b600082821c905092915050565b6000613e2a60001984600802613e0c565b1980831691505092915050565b6000613e438383613e19565b9150826002028217905092915050565b613e5c82613845565b67ffffffffffffffff811115613e7557613e746134fd565b5b613e7f8254613c80565b613e8a828285613dc6565b600060209050601f831160018114613ebd5760008415613eab578287015190505b613eb58582613e37565b865550613f1d565b601f198416613ecb86613cb1565b60005b82811015613ef357848901518255600182019150602085019450602081019050613ece565b86831015613f105784890151613f0c601f891682613e19565b8355505b6001600288020188555050505b505050505050565b6000613f308261325f565b9150613f3b8361325f565b9250828201905080821115613f5357613f52613bda565b5b92915050565b600081519050613f6881613958565b92915050565b600060208284031215613f8457613f8361319a565b5b6000613f9284828501613f59565b91505092915050565b600081905092915050565b6000613fb182613845565b613fbb8185613f9b565b9350613fcb818560208601613861565b80840191505092915050565b6000613fe38284613fa6565b915081905092915050565b7f496e697469616c697a61626c653a20636f6e7472616374206973206e6f74206960008201527f6e697469616c697a696e67000000000000000000000000000000000000000000602082015250565b600061404a602b83613850565b915061405582613fee565b604082019050919050565b600060208201905081810360008301526140798161403d565b9050919050565b600061408b8261325f565b91506140968361325f565b9250817fffffffffffffffffffffffffffffffffffffffffffffffffffffffffffffffff04831182151516156140cf576140ce613bda565b5b828202905092915050565b60006020820190506140ef6000830184613836565b92915050565b60008151905061410481613269565b92915050565b6000602082840312156141205761411f61319a565b5b600061412e848285016140f5565b91505092915050565b7f4e487b7100000000000000000000000000000000000000000000000000000000600052601260045260246000fd5b60006141718261325f565b915061417c8361325f565b92508261418c5761418b614137565b5b828204905092915050565b60006141a28261325f565b9150600082036141b5576141b4613bda565b5b600182039050919050565b6141c981613628565b82525050565b600060e0820190506141e4600083018a613836565b6141f16020830189613836565b6141fe60408301886132c2565b61420b60608301876132c2565b61421860808301866141c0565b61422560a08301856133da565b61423260c08301846133da565b98975050505050505050565b7f5361666545524332303a207065726d697420646964206e6f742073756363656560008201527f6400000000000000000000000000000000000000000000000000000000000000602082015250565b600061429a602183613850565b91506142a58261423e565b604082019050919050565b600060208201905081810360008301526142c98161428d565b9050919050565b60006060820190506142e56000830186613836565b6142f26020830185613836565b6142ff60408301846132c2565b949350505050565b600060408201905061431c6000830185613836565b61432960208301846132c2565b9392505050565b7f416363657373436f6e74726f6c3a206163636f756e7420000000000000000000600082015250565b6000614366601783613f9b565b915061437182614330565b601782019050919050565b7f206973206d697373696e6720726f6c6520000000000000000000000000000000600082015250565b60006143b2601183613f9b565b91506143bd8261437c565b601182019050919050565b60006143d382614359565b91506143df8285613fa6565b91506143ea826143a5565b91506143f68284613fa6565b91508190509392505050565b6000602082019050818103600083015261441c818461388b565b905092915050565b7f5061757361626c653a206e6f7420706175736564000000000000000000000000600082015250565b600061445a601483613850565b915061446582614424565b602082019050919050565b600060208201905081810360008301526144898161444d565b9050919050565b7f5361666545524332303a204552433230206f7065726174696f6e20646964206e60008201527f6f74207375636365656400000000000000000000000000000000000000000000602082015250565b60006144ec602a83613850565b91506144f782614490565b604082019050919050565b6000602082019050818103600083015261451b816144df565b9050919050565b7f5061757361626c653a2070617573656400000000000000000000000000000000600082015250565b6000614558601083613850565b915061456382614522565b602082019050919050565b600060208201905081810360008301526145878161454b565b9050919050565b7f4e487b7100000000000000000000000000000000000000000000000000000000600052603260045260246000fd5b7f537472696e67733a20686578206c656e67746820696e73756666696369656e74600082015250565b60006145f3602083613850565b91506145fe826145bd565b602082019050919050565b60006020820190508181036000830152614622816145e6565b9050919050565b7f416464726573733a20696e73756666696369656e742062616c616e636520666f60008201527f722063616c6c0000000000000000000000000000000000000000000000000000602082015250565b6000614685602683613850565b915061469082614629565b604082019050919050565b600060208201905081810360008301526146b481614678565b9050919050565b600081519050919050565b600081905092915050565b60006146dc826146bb565b6146e681856146c6565b93506146f6818560208601613861565b80840191505092915050565b600061470e82846146d1565b915081905092915050565b7f416464726573733a2063616c6c20746f206e6f6e2d636f6e7472616374000000600082015250565b600061474f601d83613850565b915061475a82614719565b602082019050919050565b6000602082019050818103600083015261477e81614742565b905091905056fea2646970667358221220203d863d2803fabea20cc1ec78e3de4bda17aa09a425b3b871fda4f22f5034c264736f6c63430008100033",
  "linkReferences": {},
  "deployedLinkReferences": {}
}