{
  "_format": "hh-sol-artifact-1",
  "contractName": "ClaimGovernance",
  "sourceName": "contracts/core/payAsYouGo/Claim.sol",
  "abi": [
    {
      "inputs": [
        {
          "internalType": "address",
          "name": "tokenDAI",
          "type": "address"
        }
      ],
      "stateMutability": "nonpayable",
      "type": "constructor"
    },
    {
      "inputs": [],
      "name": "BaseUpgradeablePausable__ZeroAddressError",
      "type": "error"
    },
    {
      "inputs": [],
      "name": "Claim__DecisionChallengedError",
      "type": "error"
    },
    {
      "inputs": [],
      "name": "Claim__DecisionNoLongerCanBeChallengedError",
      "type": "error"
    },
    {
      "inputs": [],
      "name": "Claim__DecisionNotYetTakenError",
      "type": "error"
    },
    {
      "inputs": [],
      "name": "Claim__ImmutableChangesError",
      "type": "error"
    },
    {
      "inputs": [],
      "name": "Claim__PausedOperationFailedError",
      "type": "error"
    },
    {
      "inputs": [],
      "name": "Claim__UserAlreadyVotedError",
      "type": "error"
    },
    {
      "inputs": [],
      "name": "Claim__VotingDecisionNotYetFinalizedError",
      "type": "error"
    },
    {
      "inputs": [],
      "name": "Claim__VotingNotYetStartedError",
      "type": "error"
    },
    {
      "inputs": [],
      "name": "Claim__VotingTimeEndedError",
      "type": "error"
    },
    {
      "anonymous": false,
      "inputs": [
        {
          "indexed": false,
          "internalType": "uint8",
          "name": "version",
          "type": "uint8"
        }
      ],
      "name": "Initialized",
      "type": "event"
    },
    {
      "anonymous": false,
      "inputs": [
        {
          "indexed": true,
          "internalType": "address",
          "name": "userAddress",
          "type": "address"
        },
        {
          "indexed": true,
          "internalType": "uint256",
          "name": "claimID",
          "type": "uint256"
        },
        {
          "indexed": true,
          "internalType": "string",
          "name": "proof",
          "type": "string"
        }
      ],
      "name": "NewClaimCreated",
      "type": "event"
    },
    {
      "anonymous": false,
      "inputs": [
        {
          "indexed": false,
          "internalType": "address",
          "name": "account",
          "type": "address"
        }
      ],
      "name": "Paused",
      "type": "event"
    },
    {
      "anonymous": false,
      "inputs": [
        {
          "indexed": true,
          "internalType": "bytes32",
          "name": "role",
          "type": "bytes32"
        },
        {
          "indexed": true,
          "internalType": "bytes32",
          "name": "previousAdminRole",
          "type": "bytes32"
        },
        {
          "indexed": true,
          "internalType": "bytes32",
          "name": "newAdminRole",
          "type": "bytes32"
        }
      ],
      "name": "RoleAdminChanged",
      "type": "event"
    },
    {
      "anonymous": false,
      "inputs": [
        {
          "indexed": true,
          "internalType": "bytes32",
          "name": "role",
          "type": "bytes32"
        },
        {
          "indexed": true,
          "internalType": "address",
          "name": "account",
          "type": "address"
        },
        {
          "indexed": true,
          "internalType": "address",
          "name": "sender",
          "type": "address"
        }
      ],
      "name": "RoleGranted",
      "type": "event"
    },
    {
      "anonymous": false,
      "inputs": [
        {
          "indexed": true,
          "internalType": "bytes32",
          "name": "role",
          "type": "bytes32"
        },
        {
          "indexed": true,
          "internalType": "address",
          "name": "account",
          "type": "address"
        },
        {
          "indexed": true,
          "internalType": "address",
          "name": "sender",
          "type": "address"
        }
      ],
      "name": "RoleRevoked",
      "type": "event"
    },
    {
      "anonymous": false,
      "inputs": [
        {
          "indexed": false,
          "internalType": "address",
          "name": "account",
          "type": "address"
        }
      ],
      "name": "Unpaused",
      "type": "event"
    },
    {
      "inputs": [],
      "name": "DEFAULT_ADMIN_ROLE",
      "outputs": [
        {
          "internalType": "bytes32",
          "name": "",
          "type": "bytes32"
        }
      ],
      "stateMutability": "view",
      "type": "function"
    },
    {
      "inputs": [
        {
          "internalType": "address",
          "name": "owner",
          "type": "address"
        }
      ],
      "name": "__BaseUpgradeablePausable_init",
      "outputs": [],
      "stateMutability": "nonpayable",
      "type": "function"
    },
    {
      "inputs": [
        {
          "internalType": "uint256",
          "name": "_claimID",
          "type": "uint256"
        },
        {
          "internalType": "uint256",
          "name": "deadline",
          "type": "uint256"
        },
        {
          "internalType": "uint8",
          "name": "v",
          "type": "uint8"
        },
        {
          "internalType": "bytes32",
          "name": "r",
          "type": "bytes32"
        },
        {
          "internalType": "bytes32",
          "name": "s",
          "type": "bytes32"
        }
      ],
      "name": "challengeDecision",
      "outputs": [],
      "stateMutability": "nonpayable",
      "type": "function"
    },
    {
      "inputs": [
        {
          "internalType": "uint256",
          "name": "_claimID",
          "type": "uint256"
        }
      ],
      "name": "claimDecision",
      "outputs": [
        {
          "internalType": "bool",
          "name": "",
          "type": "bool"
        }
      ],
      "stateMutability": "nonpayable",
      "type": "function"
    },
    {
      "inputs": [],
      "name": "claimID",
      "outputs": [
        {
          "internalType": "uint256",
          "name": "",
          "type": "uint256"
        }
      ],
      "stateMutability": "view",
      "type": "function"
    },
    {
      "inputs": [
        {
          "internalType": "uint256",
          "name": "",
          "type": "uint256"
        }
      ],
      "name": "claims",
      "outputs": [
        {
          "internalType": "address",
          "name": "claimer",
          "type": "address"
        },
        {
          "internalType": "uint256",
          "name": "_claimID",
          "type": "uint256"
        },
        {
          "internalType": "uint256",
          "name": "categoryID",
          "type": "uint256"
        },
        {
          "internalType": "uint256",
          "name": "subcategoryID",
          "type": "uint256"
        },
        {
          "internalType": "uint256",
          "name": "claimAmountRequested",
          "type": "uint256"
        },
        {
          "internalType": "string",
          "name": "proof",
          "type": "string"
        },
        {
          "internalType": "bool",
          "name": "closed",
          "type": "bool"
        },
        {
          "internalType": "bool",
          "name": "accepted",
          "type": "bool"
        },
        {
          "internalType": "bool",
          "name": "isChallenged",
          "type": "bool"
        }
      ],
      "stateMutability": "view",
      "type": "function"
    },
    {
      "inputs": [
        {
          "internalType": "uint256",
          "name": "categoryID",
          "type": "uint256"
        },
        {
          "internalType": "uint256",
          "name": "subcategoryID",
          "type": "uint256"
        },
        {
          "internalType": "string",
          "name": "proof",
          "type": "string"
        },
        {
          "internalType": "uint256",
          "name": "requestedClaimAmount",
          "type": "uint256"
        },
        {
          "internalType": "uint256",
          "name": "deadline",
          "type": "uint256"
        },
        {
          "internalType": "uint8",
          "name": "v",
          "type": "uint8"
        },
        {
          "internalType": "bytes32",
          "name": "r",
          "type": "bytes32"
        },
        {
          "internalType": "bytes32",
          "name": "s",
          "type": "bytes32"
        }
      ],
      "name": "createClaim",
      "outputs": [
        {
          "internalType": "bool",
          "name": "",
          "type": "bool"
        }
      ],
      "stateMutability": "nonpayable",
      "type": "function"
    },
    {
      "inputs": [],
      "name": "getClaimID",
      "outputs": [
        {
          "internalType": "uint256",
          "name": "",
          "type": "uint256"
        }
      ],
      "stateMutability": "view",
      "type": "function"
    },
    {
      "inputs": [
        {
          "internalType": "bytes32",
          "name": "role",
          "type": "bytes32"
        }
      ],
      "name": "getRoleAdmin",
      "outputs": [
        {
          "internalType": "bytes32",
          "name": "",
          "type": "bytes32"
        }
      ],
      "stateMutability": "view",
      "type": "function"
    },
    {
      "inputs": [
        {
          "internalType": "uint256",
          "name": "_claimID",
          "type": "uint256"
        }
      ],
      "name": "getVotingInfo",
      "outputs": [
        {
          "internalType": "uint256",
          "name": "",
          "type": "uint256"
        },
        {
          "internalType": "uint256",
          "name": "",
          "type": "uint256"
        },
        {
          "internalType": "uint256",
          "name": "",
          "type": "uint256"
        },
        {
          "internalType": "uint256",
          "name": "",
          "type": "uint256"
        },
        {
          "internalType": "uint256",
          "name": "",
          "type": "uint256"
        },
        {
          "internalType": "uint256",
          "name": "",
          "type": "uint256"
        },
        {
          "internalType": "uint256",
          "name": "",
          "type": "uint256"
        }
      ],
      "stateMutability": "view",
      "type": "function"
    },
    {
      "inputs": [
        {
          "internalType": "bytes32",
          "name": "role",
          "type": "bytes32"
        },
        {
          "internalType": "address",
          "name": "account",
          "type": "address"
        }
      ],
      "name": "grantRole",
      "outputs": [],
      "stateMutability": "nonpayable",
      "type": "function"
    },
    {
      "inputs": [
        {
          "internalType": "bytes32",
          "name": "role",
          "type": "bytes32"
        },
        {
          "internalType": "address",
          "name": "account",
          "type": "address"
        }
      ],
      "name": "hasRole",
      "outputs": [
        {
          "internalType": "bool",
          "name": "",
          "type": "bool"
        }
      ],
      "stateMutability": "view",
      "type": "function"
    },
    {
      "inputs": [
        {
          "internalType": "address",
          "name": "",
          "type": "address"
        }
      ],
      "name": "individualClaims",
      "outputs": [
        {
          "internalType": "uint256",
          "name": "",
          "type": "uint256"
        }
      ],
      "stateMutability": "view",
      "type": "function"
    },
    {
      "inputs": [
        {
          "internalType": "address",
          "name": "safezenGovernanceTokenAddress",
          "type": "address"
        },
        {
          "internalType": "address",
          "name": "globalPauseOperationAddress",
          "type": "address"
        }
      ],
      "name": "initialize",
      "outputs": [],
      "stateMutability": "nonpayable",
      "type": "function"
    },
    {
      "inputs": [],
      "name": "isAdmin",
      "outputs": [
        {
          "internalType": "bool",
          "name": "",
          "type": "bool"
        }
      ],
      "stateMutability": "view",
      "type": "function"
    },
    {
      "inputs": [
        {
          "internalType": "address",
          "name": "",
          "type": "address"
        }
      ],
      "name": "isAdvisor",
      "outputs": [
        {
          "internalType": "bool",
          "name": "",
          "type": "bool"
        }
      ],
      "stateMutability": "view",
      "type": "function"
    },
    {
      "inputs": [],
      "name": "pause",
      "outputs": [],
      "stateMutability": "nonpayable",
      "type": "function"
    },
    {
      "inputs": [],
      "name": "paused",
      "outputs": [
        {
          "internalType": "bool",
          "name": "",
          "type": "bool"
        }
      ],
      "stateMutability": "view",
      "type": "function"
    },
    {
      "inputs": [
        {
          "internalType": "uint256",
          "name": "",
          "type": "uint256"
        },
        {
          "internalType": "uint256",
          "name": "",
          "type": "uint256"
        }
      ],
      "name": "protocolSpecificClaims",
      "outputs": [
        {
          "internalType": "uint256",
          "name": "",
          "type": "uint256"
        }
      ],
      "stateMutability": "view",
      "type": "function"
    },
    {
      "inputs": [
        {
          "internalType": "bytes32",
          "name": "role",
          "type": "bytes32"
        },
        {
          "internalType": "address",
          "name": "account",
          "type": "address"
        }
      ],
      "name": "renounceRole",
      "outputs": [],
      "stateMutability": "nonpayable",
      "type": "function"
    },
    {
      "inputs": [
        {
          "internalType": "bytes32",
          "name": "role",
          "type": "bytes32"
        },
        {
          "internalType": "address",
          "name": "account",
          "type": "address"
        }
      ],
      "name": "revokeRole",
      "outputs": [],
      "stateMutability": "nonpayable",
      "type": "function"
    },
    {
      "inputs": [
        {
          "internalType": "bytes4",
          "name": "interfaceId",
          "type": "bytes4"
        }
      ],
      "name": "supportsInterface",
      "outputs": [
        {
          "internalType": "bool",
          "name": "",
          "type": "bool"
        }
      ],
      "stateMutability": "view",
      "type": "function"
    },
    {
      "inputs": [],
      "name": "unpause",
      "outputs": [],
      "stateMutability": "nonpayable",
      "type": "function"
    },
    {
      "inputs": [
        {
          "internalType": "address",
          "name": "userAddress",
          "type": "address"
        }
      ],
      "name": "updateAdvisors",
      "outputs": [],
      "stateMutability": "nonpayable",
      "type": "function"
    },
    {
      "inputs": [
        {
          "internalType": "uint256",
          "name": "stakeAmount",
          "type": "uint256"
        }
      ],
      "name": "updateStakeAmount",
      "outputs": [],
      "stateMutability": "nonpayable",
      "type": "function"
    },
    {
      "inputs": [
        {
          "internalType": "uint256",
          "name": "_claimID",
          "type": "uint256"
        },
        {
          "internalType": "uint256",
          "name": "timeInHours",
          "type": "uint256"
        }
      ],
      "name": "updateVotingEndTime",
      "outputs": [],
      "stateMutability": "nonpayable",
      "type": "function"
    },
    {
      "inputs": [
        {
          "internalType": "uint256",
          "name": "_claimID",
          "type": "uint256"
        }
      ],
      "name": "viewVoteReceipt",
      "outputs": [
        {
          "internalType": "bool",
          "name": "",
          "type": "bool"
        },
        {
          "internalType": "bool",
          "name": "",
          "type": "bool"
        },
        {
          "internalType": "uint256",
          "name": "",
          "type": "uint256"
        }
      ],
      "stateMutability": "view",
      "type": "function"
    },
    {
      "inputs": [
        {
          "internalType": "uint256",
          "name": "_claimID",
          "type": "uint256"
        },
        {
          "internalType": "bool",
          "name": "support",
          "type": "bool"
        }
      ],
      "name": "vote",
      "outputs": [
        {
          "internalType": "bool",
          "name": "",
          "type": "bool"
        }
      ],
      "stateMutability": "nonpayable",
      "type": "function"
    }
  ],
  "bytecode": "0x60806040523480156200001157600080fd5b50604051620048683803806200486883398181016040528101906200003791906200012a565b8060fe60006101000a81548173ffffffffffffffffffffffffffffffffffffffff021916908373ffffffffffffffffffffffffffffffffffffffff1602179055508060ff60006101000a81548173ffffffffffffffffffffffffffffffffffffffff021916908373ffffffffffffffffffffffffffffffffffffffff160217905550506200015c565b600080fd5b600073ffffffffffffffffffffffffffffffffffffffff82169050919050565b6000620000f282620000c5565b9050919050565b6200010481620000e5565b81146200011057600080fd5b50565b6000815190506200012481620000f9565b92915050565b600060208284031215620001435762000142620000c0565b5b6000620001538482850162000113565b91505092915050565b6146fc806200016c6000396000f3fe608060405234801561001057600080fd5b50600436106101c45760003560e01c80638456cb59116100f9578063c661fed311610097578063c9d27afe11610071578063c9d27afe14610525578063d0c3609214610555578063d547741f14610585578063ef0c997a146105a1576101c4565b8063c661fed3146104a9578063c90054ee146104d9578063c95bee81146104f5576101c4565b8063a217fddf116100d3578063a217fddf14610405578063a888c2cd14610423578063b6db75a01461045b578063c499314014610479576101c4565b80638456cb59146103af5780638c33b395146103b957806391d14854146103d5576101c4565b8063485cc955116101665780635c975abb116101405780635c975abb1461033b5780635df6f2ee14610359578063602ce4c6146103775780636e810b1a14610393576101c4565b8063485cc955146102d357806355e5b444146102ef57806359405ed31461031f576101c4565b8063248a9ca3116101a2578063248a9ca3146102615780632f2ff15d1461029157806336568abe146102ad5780633f4ba83a146102c9576101c4565b806301ffc9a7146101c957806320849b07146101f9578063248a06341461022b575b600080fd5b6101e360048036038101906101de9190613174565b6105bf565b6040516101f091906131bc565b60405180910390f35b610213600480360381019061020e919061320d565b610639565b60405161022293929190613249565b60405180910390f35b6102456004803603810190610240919061320d565b610782565b6040516102589796959493929190613280565b60405180910390f35b61027b60048036038101906102769190613325565b6107f5565b6040516102889190613361565b60405180910390f35b6102ab60048036038101906102a691906133da565b610815565b005b6102c760048036038101906102c291906133da565b610836565b005b6102d16108b9565b005b6102ed60048036038101906102e8919061341a565b61090a565b005b610309600480360381019061030491906135d9565b610ae5565b60405161031691906131bc565b60405180910390f35b610339600480360381019061033491906136ab565b610ea7565b005b610343610f4a565b60405161035091906131bc565b60405180910390f35b610361610f61565b60405161036e91906136d8565b60405180910390f35b610391600480360381019061038c91906136f3565b610f67565b005b6103ad60048036038101906103a891906136ab565b6111d1565b005b6103b76112f3565b005b6103d360048036038101906103ce919061376e565b611344565b005b6103ef60048036038101906103ea91906133da565b6113cc565b6040516103fc91906131bc565b60405180910390f35b61040d611437565b60405161041a9190613361565b60405180910390f35b61043d6004803603810190610438919061320d565b61143e565b6040516104529998979695949392919061383c565b60405180910390f35b61046361155c565b60405161047091906131bc565b60405180910390f35b610493600480360381019061048e91906136ab565b61157b565b6040516104a091906136d8565b60405180910390f35b6104c360048036038101906104be91906136ab565b611594565b6040516104d091906131bc565b60405180910390f35b6104f360048036038101906104ee919061320d565b6115b5565b005b61050f600480360381019061050a919061376e565b611606565b60405161051c91906136d8565b60405180910390f35b61053f600480360381019061053a91906138fc565b61162c565b60405161054c91906131bc565b60405180910390f35b61056f600480360381019061056a919061320d565b611cc7565b60405161057c91906131bc565b60405180910390f35b61059f600480360381019061059a91906133da565b6122f2565b005b6105a9612313565b6040516105b691906136d8565b60405180910390f35b60007f7965db0b000000000000000000000000000000000000000000000000000000007bffffffffffffffffffffffffffffffffffffffffffffffffffffffff1916827bffffffffffffffffffffffffffffffffffffffffffffffffffffffff1916148061063257506106318261231d565b5b9050919050565b60008060006101036000858152602001908152602001600020600801600061065f612387565b73ffffffffffffffffffffffffffffffffffffffff1673ffffffffffffffffffffffffffffffffffffffff16815260200190815260200160002060000160009054906101000a900460ff16610103600086815260200190815260200160002060080160006106cb612387565b73ffffffffffffffffffffffffffffffffffffffff1673ffffffffffffffffffffffffffffffffffffffff16815260200190815260200160002060000160019054906101000a900460ff1661010360008781526020019081526020016000206008016000610737612387565b73ffffffffffffffffffffffffffffffffffffffff1673ffffffffffffffffffffffffffffffffffffffff168152602001908152602001600020600101549250925092509193909250565b60008060008060008060008061010360008a815260200190815260200160002060070160008a815260200190815260200160002090508060000154816001015482600201548360030154846004015485600501548660060154975097509750975097509750975050919395979092949650565b600060976000838152602001908152602001600020600101549050919050565b61081e826107f5565b6108278161238f565b61083183836123a3565b505050565b61083e612387565b73ffffffffffffffffffffffffffffffffffffffff168173ffffffffffffffffffffffffffffffffffffffff16146108ab576040517f08c379a00000000000000000000000000000000000000000000000000000000081526004016108a2906139ae565b60405180910390fd5b6108b58282612484565b5050565b6108c161155c565b610900576040517f08c379a00000000000000000000000000000000000000000000000000000000081526004016108f790613a40565b60405180910390fd5b610908612566565b565b60008060019054906101000a900460ff1615905080801561093b5750600160008054906101000a900460ff1660ff16105b80610968575061094a306125c9565b1580156109675750600160008054906101000a900460ff1660ff16145b5b6109a7576040517f08c379a000000000000000000000000000000000000000000000000000000000815260040161099e90613ad2565b60405180910390fd5b60016000806101000a81548160ff021916908360ff16021790555080156109e4576001600060016101000a81548160ff0219169083151502179055505b678ac7230489e8000060fc819055508261010060006101000a81548173ffffffffffffffffffffffffffffffffffffffff021916908373ffffffffffffffffffffffffffffffffffffffff1602179055508161010160006101000a81548173ffffffffffffffffffffffffffffffffffffffff021916908373ffffffffffffffffffffffffffffffffffffffff160217905550610a87610a82612387565b6111d1565b8015610ae05760008060016101000a81548160ff0219169083151502179055507f7f26b83ff96e1f2b6a682f133852f6798a09c465da95921460cefb38474024986001604051610ad79190613b37565b60405180910390a15b505050565b600060fb60008154610af690613b81565b919050819055506000610103600060fb548152602001908152602001600020905089816002018190555088816003018190555060fb548160010181905550610b3c612387565b8160000160006101000a81548173ffffffffffffffffffffffffffffffffffffffff021916908373ffffffffffffffffffffffffffffffffffffffff16021790555087816005019081610b8f9190613dcb565b50868160040181905550603c42610ba69190613e9d565b81600701600060fb5481526020019081526020016000206000018190555061012c81600701600060fb54815260200190815260200160002060000154610bec9190613e9d565b81600701600060fb548152602001908152602001600020600101819055506101046000610c17612387565b73ffffffffffffffffffffffffffffffffffffffff1673ffffffffffffffffffffffffffffffffffffffff16815260200190815260200160002060008154610c5e90613b81565b9190508190555061010560008b815260200190815260200160002060008a815260200190815260200160002060008154610c9790613b81565b9190508190555060fd60008154610cad90613b81565b91905081905550600061010160009054906101000a900473ffffffffffffffffffffffffffffffffffffffff1673ffffffffffffffffffffffffffffffffffffffff1663c9d070206040518163ffffffff1660e01b81526004016020604051808303816000875af1158015610d26573d6000803e3d6000fd5b505050506040513d601f19601f82011682018060405250810190610d4a9190613ee6565b905080610d83576040517f0c7ef03900000000000000000000000000000000000000000000000000000000815260040160405180910390fd5b610de3610d8e612387565b3060fc548a8a8a8a60ff60009054906101000a900473ffffffffffffffffffffffffffffffffffffffff1673ffffffffffffffffffffffffffffffffffffffff166125ec90979695949392919063ffffffff16565b610e323060fc5460fe60009054906101000a900473ffffffffffffffffffffffffffffffffffffffff1673ffffffffffffffffffffffffffffffffffffffff166127b99092919063ffffffff16565b88604051610e409190613f4f565b604051809103902060fb54610e53612387565b73ffffffffffffffffffffffffffffffffffffffff167fbb70aa717b6d2e0a9b9a1b647818482838fd0133dbdde6f6ff62d0dea579306d60405160405180910390a460019250505098975050505050505050565b610eaf61155c565b610eee576040517f08c379a0000000000000000000000000000000000000000000000000000000008152600401610ee590613a40565b60405180910390fd5b600161010260008373ffffffffffffffffffffffffffffffffffffffff1673ffffffffffffffffffffffffffffffffffffffff16815260200190815260200160002060006101000a81548160ff02191690831515021790555050565b6000603360009054906101000a900460ff16905090565b60fb5481565b610103600086815260200190815260200160002060060160009054906101000a900460ff161580610fba5750610103600086815260200190815260200160002060060160029054906101000a900460ff16155b15610ff1576040517fed43432a00000000000000000000000000000000000000000000000000000000815260040160405180910390fd5b6002610103600087815260200190815260200160002060070160008781526020019081526020016000206006015410611056576040517f4cf8bf0000000000000000000000000000000000000000000000000000000000815260040160405180910390fd5b6001610103600087815260200190815260200160002060060160026101000a81548160ff021916908315150217905550610103600060fb5481526020019081526020016000206007016000600160fb546110b09190613e9d565b8152602001908152602001600020600601600081546110ce90613b81565b919050819055506111c96101036000878152602001908152602001600020600201546101036000888152602001908152602001600020600301546101036000898152602001908152602001600020600501805461112a90613bf8565b80601f016020809104026020016040519081016040528092919081815260200182805461115690613bf8565b80156111a35780601f10611178576101008083540402835291602001916111a3565b820191906000526020600020905b81548152906001019060200180831161118657829003601f168201915b505050505061010360008a81526020019081526020016000206004015488888888610ae5565b505050505050565b600060019054906101000a900460ff16611220576040517f08c379a000000000000000000000000000000000000000000000000000000000815260040161121790613fd8565b60405180910390fd5b600073ffffffffffffffffffffffffffffffffffffffff168173ffffffffffffffffffffffffffffffffffffffff1603611286576040517f5415139400000000000000000000000000000000000000000000000000000000815260040160405180910390fd5b61128e61283f565b611296612898565b61129e6128e9565b6112af6112a9612942565b826123a3565b6112c06112ba61296a565b826123a3565b6112d86112cb61296a565b6112d3612942565b612992565b6112f06112e3612942565b6112eb612942565b612992565b50565b6112fb61155c565b61133a576040517f08c379a000000000000000000000000000000000000000000000000000000000815260040161133190613a40565b60405180910390fd5b6113426129ee565b565b61134c61155c565b61138b576040517f08c379a000000000000000000000000000000000000000000000000000000000815260040161138290613a40565b60405180910390fd5b610e10816113999190613ff8565b61010360008481526020019081526020016000206007016000848152602001908152602001600020600101819055505050565b60006097600084815260200190815260200160002060000160008373ffffffffffffffffffffffffffffffffffffffff1673ffffffffffffffffffffffffffffffffffffffff16815260200190815260200160002060009054906101000a900460ff16905092915050565b6000801b81565b6101036020528060005260406000206000915090508060000160009054906101000a900473ffffffffffffffffffffffffffffffffffffffff16908060010154908060020154908060030154908060040154908060050180546114a090613bf8565b80601f01602080910402602001604051908101604052809291908181526020018280546114cc90613bf8565b80156115195780601f106114ee57610100808354040283529160200191611519565b820191906000526020600020905b8154815290600101906020018083116114fc57829003601f168201915b5050505050908060060160009054906101000a900460ff16908060060160019054906101000a900460ff16908060060160029054906101000a900460ff16905089565b6000611576611569612942565b611571612387565b6113cc565b905090565b6101046020528060005260406000206000915090505481565b6101026020528060005260406000206000915054906101000a900460ff1681565b6115bd61155c565b6115fc576040517f08c379a00000000000000000000000000000000000000000000000000000000081526004016115f390613a40565b60405180910390fd5b8060fc8190555050565b610105602052816000526040600020602052806000526040600020600091509150505481565b60004261010360008581526020019081526020016000206007016000858152602001908152602001600020600001541115611693576040517fee6c0e1400000000000000000000000000000000000000000000000000000000815260040160405180910390fd5b610103600084815260200190815260200160002060080160006116b4612387565b73ffffffffffffffffffffffffffffffffffffffff1673ffffffffffffffffffffffffffffffffffffffff16815260200190815260200160002060000160009054906101000a900460ff1615611736576040517fe88a652b00000000000000000000000000000000000000000000000000000000815260040160405180910390fd5b426101036000858152602001908152602001600020600701600085815260200190815260200160002060010154101561179b576040517fd6db172200000000000000000000000000000000000000000000000000000000815260040160405180910390fd5b81610103600085815260200190815260200160002060080160006117bd612387565b73ffffffffffffffffffffffffffffffffffffffff1673ffffffffffffffffffffffffffffffffffffffff16815260200190815260200160002060000160016101000a81548160ff02191690831515021790555061010060009054906101000a900473ffffffffffffffffffffffffffffffffffffffff1673ffffffffffffffffffffffffffffffffffffffff166370a08231611858612387565b6040518263ffffffff1660e01b81526004016118749190614052565b602060405180830381865afa158015611891573d6000803e3d6000fd5b505050506040513d601f19601f820116820180604052508101906118b59190614082565b610103600085815260200190815260200160002060080160006118d6612387565b73ffffffffffffffffffffffffffffffffffffffff1673ffffffffffffffffffffffffffffffffffffffff1681526020019081526020016000206001018190555060016101036000858152602001908152602001600020600801600061193a612387565b73ffffffffffffffffffffffffffffffffffffffff1673ffffffffffffffffffffffffffffffffffffffff16815260200190815260200160002060000160006101000a81548160ff021916908315150217905550610102600061199b612387565b73ffffffffffffffffffffffffffffffffffffffff1673ffffffffffffffffffffffffffffffffffffffff16815260200190815260200160002060009054906101000a900460ff168015611a1a575060026101036000858152602001908152602001600020600701600085815260200190815260200160002060060154145b15611b70578115611aca5761010360008481526020019081526020016000206008016000611a46612387565b73ffffffffffffffffffffffffffffffffffffffff1673ffffffffffffffffffffffffffffffffffffffff16815260200190815260200160002060010154610103600085815260200190815260200160002060070160008581526020019081526020016000206004016000828254611abe9190613e9d565b92505081905550611b6b565b61010360008481526020019081526020016000206008016000611aeb612387565b73ffffffffffffffffffffffffffffffffffffffff1673ffffffffffffffffffffffffffffffffffffffff16815260200190815260200160002060010154610103600085815260200190815260200160002060070160008581526020019081526020016000206005016000828254611b639190613e9d565b925050819055505b611cbd565b8115611c1b5761010360008481526020019081526020016000206008016000611b97612387565b73ffffffffffffffffffffffffffffffffffffffff1673ffffffffffffffffffffffffffffffffffffffff16815260200190815260200160002060010154610103600085815260200190815260200160002060070160008581526020019081526020016000206002016000828254611c0f9190613e9d565b92505081905550611cbc565b61010360008481526020019081526020016000206008016000611c3c612387565b73ffffffffffffffffffffffffffffffffffffffff1673ffffffffffffffffffffffffffffffffffffffff16815260200190815260200160002060010154610103600085815260200190815260200160002060070160008581526020019081526020016000206003016000828254611cb49190613e9d565b925050819055505b5b6001905092915050565b600042603c6101036000858152602001908152602001600020600701600085815260200190815260200160002060010154611d029190613e9d565b1115611d3a576040517f449a56bc00000000000000000000000000000000000000000000000000000000815260040160405180910390fd5b610103600083815260200190815260200160002060060160029054906101000a900460ff1615611d96576040517f34e3808e00000000000000000000000000000000000000000000000000000000815260040160405180910390fd5b600061010360008481526020019081526020016000206007016000848152602001908152602001600020600301546101036000858152602001908152602001600020600701600085815260200190815260200160002060020154611dfa9190613e9d565b905060026101036000858152602001908152602001600020600701600085815260200190815260200160002060060154036120ba57600061010360008581526020019081526020016000206007016000858152602001908152602001600020600501546101036000868152602001908152602001600020600701600086815260200190815260200160002060040154611e939190613e9d565b90506000610103600086815260200190815260200160002060070160008681526020019081526020016000206005015461010360008781526020019081526020016000206007016000878152602001908152602001600020600401541015611efc576000611f44565b816064610103600060fb548152602001908152602001600020600701600060fb54815260200190815260200160002060020154611f399190613ff8565b611f4391906140de565b5b9050603b81106120825760006101036000878152602001908152602001600020600701600087815260200190815260200160002060030154610103600088815260200190815260200160002060070160008881526020019081526020016000206002015411611fb4576001611ff8565b8360646101036000898152602001908152602001600020600701600089815260200190815260200160002060020154611fed9190613ff8565b611ff791906140de565b5b90506000606460338361200b9190613ff8565b61201591906140de565b60646031856120249190613ff8565b61202e91906140de565b6120389190613e9d565b9050605081101561204a57600061204d565b60015b610103600089815260200190815260200160002060060160016101000a81548160ff02191690831515021790555050506120b3565b6000610103600087815260200190815260200160002060060160016101000a81548160ff0219169083151502179055505b50506121a9565b60006101036000858152602001908152602001600020600701600085815260200190815260200160002060030154610103600086815260200190815260200160002060070160008681526020019081526020016000206002015411612120576001612164565b81606461010360008781526020019081526020016000206007016000878152602001908152602001600020600201546121599190613ff8565b61216391906140de565b5b90506050811015612176576000612179565b60015b610103600086815260200190815260200160002060060160016101000a81548160ff021916908315150217905550505b6001610103600085815260200190815260200160002060060160006101000a81548160ff021916908315150217905550610103600084815260200190815260200160002060060160019054906101000a900460ff16156122d25760006001610103600086815260200190815260200160002060070160008681526020019081526020016000206006015461223d9190613e9d565b60fc5461224a9190613ff8565b90506122d0610103600086815260200190815260200160002060000160009054906101000a900473ffffffffffffffffffffffffffffffffffffffff168260fe60009054906101000a900473ffffffffffffffffffffffffffffffffffffffff1673ffffffffffffffffffffffffffffffffffffffff166127b99092919063ffffffff16565b505b60fd600081546122e19061410f565b919050819055506001915050919050565b6122fb826107f5565b6123048161238f565b61230e8383612484565b505050565b600060fb54905090565b60007f01ffc9a7000000000000000000000000000000000000000000000000000000007bffffffffffffffffffffffffffffffffffffffffffffffffffffffff1916827bffffffffffffffffffffffffffffffffffffffffffffffffffffffff1916149050919050565b600033905090565b6123a08161239b612387565b612a51565b50565b6123ad82826113cc565b6124805760016097600084815260200190815260200160002060000160008373ffffffffffffffffffffffffffffffffffffffff1673ffffffffffffffffffffffffffffffffffffffff16815260200190815260200160002060006101000a81548160ff021916908315150217905550612425612387565b73ffffffffffffffffffffffffffffffffffffffff168173ffffffffffffffffffffffffffffffffffffffff16837f2f8788117e7eff1d82e926ec794901d17c78024a50270940304540a733656f0d60405160405180910390a45b5050565b61248e82826113cc565b156125625760006097600084815260200190815260200160002060000160008373ffffffffffffffffffffffffffffffffffffffff1673ffffffffffffffffffffffffffffffffffffffff16815260200190815260200160002060006101000a81548160ff021916908315150217905550612507612387565b73ffffffffffffffffffffffffffffffffffffffff168173ffffffffffffffffffffffffffffffffffffffff16837ff6391f5c32d9c69d2a47ea670b442974b53935d1edc7fd64eb21e047a839171b60405160405180910390a45b5050565b61256e612ad6565b6000603360006101000a81548160ff0219169083151502179055507f5db9ee0a495bf2e6ff9c91a7834c1ba4fdd244a5e8aa4e537bd38aeae4b073aa6125b2612387565b6040516125bf9190614052565b60405180910390a1565b6000808273ffffffffffffffffffffffffffffffffffffffff163b119050919050565b60008873ffffffffffffffffffffffffffffffffffffffff16637ecebe00896040518263ffffffff1660e01b81526004016126279190614052565b602060405180830381865afa158015612644573d6000803e3d6000fd5b505050506040513d601f19601f820116820180604052508101906126689190614082565b90508873ffffffffffffffffffffffffffffffffffffffff1663d505accf898989898989896040518863ffffffff1660e01b81526004016126af9796959493929190614147565b600060405180830381600087803b1580156126c957600080fd5b505af11580156126dd573d6000803e3d6000fd5b5050505060008973ffffffffffffffffffffffffffffffffffffffff16637ecebe008a6040518263ffffffff1660e01b815260040161271c9190614052565b602060405180830381865afa158015612739573d6000803e3d6000fd5b505050506040513d601f19601f8201168201806040525081019061275d9190614082565b905060018261276c9190613e9d565b81146127ad576040517f08c379a00000000000000000000000000000000000000000000000000000000081526004016127a490614228565b60405180910390fd5b50505050505050505050565b61283a8363a9059cbb60e01b84846040516024016127d8929190614248565b604051602081830303815290604052907bffffffffffffffffffffffffffffffffffffffffffffffffffffffff19166020820180517bffffffffffffffffffffffffffffffffffffffffffffffffffffffff8381831617835250505050612b1f565b505050565b600060019054906101000a900460ff1661288e576040517f08c379a000000000000000000000000000000000000000000000000000000000815260040161288590613fd8565b60405180910390fd5b612896612be6565b565b600060019054906101000a900460ff166128e7576040517f08c379a00000000000000000000000000000000000000000000000000000000081526004016128de90613fd8565b60405180910390fd5b565b600060019054906101000a900460ff16612938576040517f08c379a000000000000000000000000000000000000000000000000000000000815260040161292f90613fd8565b60405180910390fd5b612940612c52565b565b60007fa49807205ce4d355092ef5a8a18f56e8913cf4a201fbe287825b095693c21775905090565b60007f65d7a28e3265b37a6474929f336521b332c1681b933f6cb9f3376673440d862a905090565b600061299d836107f5565b90508160976000858152602001908152602001600020600101819055508181847fbd79b86ffe0ab8e8776151514217cd7cacd52c909f66475c3af44e129f0b00ff60405160405180910390a4505050565b6129f6612cab565b6001603360006101000a81548160ff0219169083151502179055507f62e78cea01bee320cd4e420270b5ea74000d11b0c9f74754ebdbfc544b05a258612a3a612387565b604051612a479190614052565b60405180910390a1565b612a5b82826113cc565b612ad257612a6881612cf5565b612a768360001c6020612d22565b604051602001612a87929190614309565b6040516020818303038152906040526040517f08c379a0000000000000000000000000000000000000000000000000000000008152600401612ac99190614343565b60405180910390fd5b5050565b612ade610f4a565b612b1d576040517f08c379a0000000000000000000000000000000000000000000000000000000008152600401612b14906143b1565b60405180910390fd5b565b6000612b81826040518060400160405280602081526020017f5361666545524332303a206c6f772d6c6576656c2063616c6c206661696c65648152508573ffffffffffffffffffffffffffffffffffffffff16612f5e9092919063ffffffff16565b9050600081511115612be15780806020019051810190612ba19190613ee6565b612be0576040517f08c379a0000000000000000000000000000000000000000000000000000000008152600401612bd790614443565b60405180910390fd5b5b505050565b600060019054906101000a900460ff16612c35576040517f08c379a0000000000000000000000000000000000000000000000000000000008152600401612c2c90613fd8565b60405180910390fd5b6000603360006101000a81548160ff021916908315150217905550565b600060019054906101000a900460ff16612ca1576040517f08c379a0000000000000000000000000000000000000000000000000000000008152600401612c9890613fd8565b60405180910390fd5b600160c981905550565b612cb3610f4a565b15612cf3576040517f08c379a0000000000000000000000000000000000000000000000000000000008152600401612cea906144af565b60405180910390fd5b565b6060612d1b8273ffffffffffffffffffffffffffffffffffffffff16601460ff16612d22565b9050919050565b606060006002836002612d359190613ff8565b612d3f9190613e9d565b67ffffffffffffffff811115612d5857612d57613475565b5b6040519080825280601f01601f191660200182016040528015612d8a5781602001600182028036833780820191505090505b5090507f300000000000000000000000000000000000000000000000000000000000000081600081518110612dc257612dc16144cf565b5b60200101907effffffffffffffffffffffffffffffffffffffffffffffffffffffffffffff1916908160001a9053507f780000000000000000000000000000000000000000000000000000000000000081600181518110612e2657612e256144cf565b5b60200101907effffffffffffffffffffffffffffffffffffffffffffffffffffffffffffff1916908160001a90535060006001846002612e669190613ff8565b612e709190613e9d565b90505b6001811115612f10577f3031323334353637383961626364656600000000000000000000000000000000600f861660108110612eb257612eb16144cf565b5b1a60f81b828281518110612ec957612ec86144cf565b5b60200101907effffffffffffffffffffffffffffffffffffffffffffffffffffffffffffff1916908160001a905350600485901c945080612f099061410f565b9050612e73565b5060008414612f54576040517f08c379a0000000000000000000000000000000000000000000000000000000008152600401612f4b9061454a565b60405180910390fd5b8091505092915050565b6060612f6d8484600085612f76565b90509392505050565b606082471015612fbb576040517f08c379a0000000000000000000000000000000000000000000000000000000008152600401612fb2906145dc565b60405180910390fd5b6000808673ffffffffffffffffffffffffffffffffffffffff168587604051612fe49190614643565b60006040518083038185875af1925050503d8060008114613021576040519150601f19603f3d011682016040523d82523d6000602084013e613026565b606091505b509150915061303787838387613043565b92505050949350505050565b606083156130a557600083510361309d5761305d856125c9565b61309c576040517f08c379a0000000000000000000000000000000000000000000000000000000008152600401613093906146a6565b60405180910390fd5b5b8290506130b0565b6130af83836130b8565b5b949350505050565b6000825111156130cb5781518083602001fd5b806040517f08c379a00000000000000000000000000000000000000000000000000000000081526004016130ff9190614343565b60405180910390fd5b6000604051905090565b600080fd5b600080fd5b60007fffffffff0000000000000000000000000000000000000000000000000000000082169050919050565b6131518161311c565b811461315c57600080fd5b50565b60008135905061316e81613148565b92915050565b60006020828403121561318a57613189613112565b5b60006131988482850161315f565b91505092915050565b60008115159050919050565b6131b6816131a1565b82525050565b60006020820190506131d160008301846131ad565b92915050565b6000819050919050565b6131ea816131d7565b81146131f557600080fd5b50565b600081359050613207816131e1565b92915050565b60006020828403121561322357613222613112565b5b6000613231848285016131f8565b91505092915050565b613243816131d7565b82525050565b600060608201905061325e60008301866131ad565b61326b60208301856131ad565b613278604083018461323a565b949350505050565b600060e082019050613295600083018a61323a565b6132a2602083018961323a565b6132af604083018861323a565b6132bc606083018761323a565b6132c9608083018661323a565b6132d660a083018561323a565b6132e360c083018461323a565b98975050505050505050565b6000819050919050565b613302816132ef565b811461330d57600080fd5b50565b60008135905061331f816132f9565b92915050565b60006020828403121561333b5761333a613112565b5b600061334984828501613310565b91505092915050565b61335b816132ef565b82525050565b60006020820190506133766000830184613352565b92915050565b600073ffffffffffffffffffffffffffffffffffffffff82169050919050565b60006133a78261337c565b9050919050565b6133b78161339c565b81146133c257600080fd5b50565b6000813590506133d4816133ae565b92915050565b600080604083850312156133f1576133f0613112565b5b60006133ff85828601613310565b9250506020613410858286016133c5565b9150509250929050565b6000806040838503121561343157613430613112565b5b600061343f858286016133c5565b9250506020613450858286016133c5565b9150509250929050565b600080fd5b600080fd5b6000601f19601f8301169050919050565b7f4e487b7100000000000000000000000000000000000000000000000000000000600052604160045260246000fd5b6134ad82613464565b810181811067ffffffffffffffff821117156134cc576134cb613475565b5b80604052505050565b60006134df613108565b90506134eb82826134a4565b919050565b600067ffffffffffffffff82111561350b5761350a613475565b5b61351482613464565b9050602081019050919050565b82818337600083830152505050565b600061354361353e846134f0565b6134d5565b90508281526020810184848401111561355f5761355e61345f565b5b61356a848285613521565b509392505050565b600082601f8301126135875761358661345a565b5b8135613597848260208601613530565b91505092915050565b600060ff82169050919050565b6135b6816135a0565b81146135c157600080fd5b50565b6000813590506135d3816135ad565b92915050565b600080600080600080600080610100898b0312156135fa576135f9613112565b5b60006136088b828c016131f8565b98505060206136198b828c016131f8565b975050604089013567ffffffffffffffff81111561363a57613639613117565b5b6136468b828c01613572565b96505060606136578b828c016131f8565b95505060806136688b828c016131f8565b94505060a06136798b828c016135c4565b93505060c061368a8b828c01613310565b92505060e061369b8b828c01613310565b9150509295985092959890939650565b6000602082840312156136c1576136c0613112565b5b60006136cf848285016133c5565b91505092915050565b60006020820190506136ed600083018461323a565b92915050565b600080600080600060a0868803121561370f5761370e613112565b5b600061371d888289016131f8565b955050602061372e888289016131f8565b945050604061373f888289016135c4565b935050606061375088828901613310565b925050608061376188828901613310565b9150509295509295909350565b6000806040838503121561378557613784613112565b5b6000613793858286016131f8565b92505060206137a4858286016131f8565b9150509250929050565b6137b78161339c565b82525050565b600081519050919050565b600082825260208201905092915050565b60005b838110156137f75780820151818401526020810190506137dc565b60008484015250505050565b600061380e826137bd565b61381881856137c8565b93506138288185602086016137d9565b61383181613464565b840191505092915050565b600061012082019050613852600083018c6137ae565b61385f602083018b61323a565b61386c604083018a61323a565b613879606083018961323a565b613886608083018861323a565b81810360a08301526138988187613803565b90506138a760c08301866131ad565b6138b460e08301856131ad565b6138c26101008301846131ad565b9a9950505050505050505050565b6138d9816131a1565b81146138e457600080fd5b50565b6000813590506138f6816138d0565b92915050565b6000806040838503121561391357613912613112565b5b6000613921858286016131f8565b9250506020613932858286016138e7565b9150509250929050565b7f416363657373436f6e74726f6c3a2063616e206f6e6c792072656e6f756e636560008201527f20726f6c657320666f722073656c660000000000000000000000000000000000602082015250565b6000613998602f836137c8565b91506139a38261393c565b604082019050919050565b600060208201905081810360008301526139c78161398b565b9050919050565b7f4d75737420686176652061646d696e20726f6c6520746f20706572666f726d2060008201527f7468697320616374696f6e2e0000000000000000000000000000000000000000602082015250565b6000613a2a602c836137c8565b9150613a35826139ce565b604082019050919050565b60006020820190508181036000830152613a5981613a1d565b9050919050565b7f496e697469616c697a61626c653a20636f6e747261637420697320616c72656160008201527f647920696e697469616c697a6564000000000000000000000000000000000000602082015250565b6000613abc602e836137c8565b9150613ac782613a60565b604082019050919050565b60006020820190508181036000830152613aeb81613aaf565b9050919050565b6000819050919050565b6000819050919050565b6000613b21613b1c613b1784613af2565b613afc565b6135a0565b9050919050565b613b3181613b06565b82525050565b6000602082019050613b4c6000830184613b28565b92915050565b7f4e487b7100000000000000000000000000000000000000000000000000000000600052601160045260246000fd5b6000613b8c826131d7565b91507fffffffffffffffffffffffffffffffffffffffffffffffffffffffffffffffff8203613bbe57613bbd613b52565b5b600182019050919050565b7f4e487b7100000000000000000000000000000000000000000000000000000000600052602260045260246000fd5b60006002820490506001821680613c1057607f821691505b602082108103613c2357613c22613bc9565b5b50919050565b60008190508160005260206000209050919050565b60006020601f8301049050919050565b600082821b905092915050565b600060088302613c8b7fffffffffffffffffffffffffffffffffffffffffffffffffffffffffffffffff82613c4e565b613c958683613c4e565b95508019841693508086168417925050509392505050565b6000613cc8613cc3613cbe846131d7565b613afc565b6131d7565b9050919050565b6000819050919050565b613ce283613cad565b613cf6613cee82613ccf565b848454613c5b565b825550505050565b600090565b613d0b613cfe565b613d16818484613cd9565b505050565b5b81811015613d3a57613d2f600082613d03565b600181019050613d1c565b5050565b601f821115613d7f57613d5081613c29565b613d5984613c3e565b81016020851015613d68578190505b613d7c613d7485613c3e565b830182613d1b565b50505b505050565b600082821c905092915050565b6000613da260001984600802613d84565b1980831691505092915050565b6000613dbb8383613d91565b9150826002028217905092915050565b613dd4826137bd565b67ffffffffffffffff811115613ded57613dec613475565b5b613df78254613bf8565b613e02828285613d3e565b600060209050601f831160018114613e355760008415613e23578287015190505b613e2d8582613daf565b865550613e95565b601f198416613e4386613c29565b60005b82811015613e6b57848901518255600182019150602085019450602081019050613e46565b86831015613e885784890151613e84601f891682613d91565b8355505b6001600288020188555050505b505050505050565b6000613ea8826131d7565b9150613eb3836131d7565b9250828201905080821115613ecb57613eca613b52565b5b92915050565b600081519050613ee0816138d0565b92915050565b600060208284031215613efc57613efb613112565b5b6000613f0a84828501613ed1565b91505092915050565b600081905092915050565b6000613f29826137bd565b613f338185613f13565b9350613f438185602086016137d9565b80840191505092915050565b6000613f5b8284613f1e565b915081905092915050565b7f496e697469616c697a61626c653a20636f6e7472616374206973206e6f74206960008201527f6e697469616c697a696e67000000000000000000000000000000000000000000602082015250565b6000613fc2602b836137c8565b9150613fcd82613f66565b604082019050919050565b60006020820190508181036000830152613ff181613fb5565b9050919050565b6000614003826131d7565b915061400e836131d7565b9250817fffffffffffffffffffffffffffffffffffffffffffffffffffffffffffffffff048311821515161561404757614046613b52565b5b828202905092915050565b600060208201905061406760008301846137ae565b92915050565b60008151905061407c816131e1565b92915050565b60006020828403121561409857614097613112565b5b60006140a68482850161406d565b91505092915050565b7f4e487b7100000000000000000000000000000000000000000000000000000000600052601260045260246000fd5b60006140e9826131d7565b91506140f4836131d7565b925082614104576141036140af565b5b828204905092915050565b600061411a826131d7565b91506000820361412d5761412c613b52565b5b600182039050919050565b614141816135a0565b82525050565b600060e08201905061415c600083018a6137ae565b61416960208301896137ae565b614176604083018861323a565b614183606083018761323a565b6141906080830186614138565b61419d60a0830185613352565b6141aa60c0830184613352565b98975050505050505050565b7f5361666545524332303a207065726d697420646964206e6f742073756363656560008201527f6400000000000000000000000000000000000000000000000000000000000000602082015250565b60006142126021836137c8565b915061421d826141b6565b604082019050919050565b6000602082019050818103600083015261424181614205565b9050919050565b600060408201905061425d60008301856137ae565b61426a602083018461323a565b9392505050565b7f416363657373436f6e74726f6c3a206163636f756e7420000000000000000000600082015250565b60006142a7601783613f13565b91506142b282614271565b601782019050919050565b7f206973206d697373696e6720726f6c6520000000000000000000000000000000600082015250565b60006142f3601183613f13565b91506142fe826142bd565b601182019050919050565b60006143148261429a565b91506143208285613f1e565b915061432b826142e6565b91506143378284613f1e565b91508190509392505050565b6000602082019050818103600083015261435d8184613803565b905092915050565b7f5061757361626c653a206e6f7420706175736564000000000000000000000000600082015250565b600061439b6014836137c8565b91506143a682614365565b602082019050919050565b600060208201905081810360008301526143ca8161438e565b9050919050565b7f5361666545524332303a204552433230206f7065726174696f6e20646964206e60008201527f6f74207375636365656400000000000000000000000000000000000000000000602082015250565b600061442d602a836137c8565b9150614438826143d1565b604082019050919050565b6000602082019050818103600083015261445c81614420565b9050919050565b7f5061757361626c653a2070617573656400000000000000000000000000000000600082015250565b60006144996010836137c8565b91506144a482614463565b602082019050919050565b600060208201905081810360008301526144c88161448c565b9050919050565b7f4e487b7100000000000000000000000000000000000000000000000000000000600052603260045260246000fd5b7f537472696e67733a20686578206c656e67746820696e73756666696369656e74600082015250565b60006145346020836137c8565b915061453f826144fe565b602082019050919050565b6000602082019050818103600083015261456381614527565b9050919050565b7f416464726573733a20696e73756666696369656e742062616c616e636520666f60008201527f722063616c6c0000000000000000000000000000000000000000000000000000602082015250565b60006145c66026836137c8565b91506145d18261456a565b604082019050919050565b600060208201905081810360008301526145f5816145b9565b9050919050565b600081519050919050565b600081905092915050565b600061461d826145fc565b6146278185614607565b93506146378185602086016137d9565b80840191505092915050565b600061464f8284614612565b915081905092915050565b7f416464726573733a2063616c6c20746f206e6f6e2d636f6e7472616374000000600082015250565b6000614690601d836137c8565b915061469b8261465a565b602082019050919050565b600060208201905081810360008301526146bf81614683565b905091905056fea26469706673582212206334133160fcf85a3adbd2e89a93c3a3c994b2ba0287bea2670ed61c6b90aa9f64736f6c63430008100033",
  "linkReferences": {},
  "deployedLinkReferences": {}
}