{
  "_format": "hh-sol-artifact-1",
  "contractName": "ConstantFlowAgreement",
  "sourceName": "contracts/core/payAsYouGo/ConstantFlowAgreement.sol",
  "abi": [
    {
      "inputs": [],
      "name": "BaseUpgradeablePausable__ZeroAddressError",
      "type": "error"
    },
    {
      "inputs": [],
      "name": "CFA__ActiveInsuranceExistError",
      "type": "error"
    },
    {
      "inputs": [],
      "name": "CFA__ImmutableChangesError",
      "type": "error"
    },
    {
      "inputs": [],
      "name": "CFA__InactiveInsuranceError",
      "type": "error"
    },
    {
      "inputs": [],
      "name": "CFA__InsuranceCoverNotAvailableError",
      "type": "error"
    },
    {
      "inputs": [],
      "name": "CFA__NotEvenMinimumInsurancePeriodAmount",
      "type": "error"
    },
    {
      "inputs": [],
      "name": "CFA__SubCategoryNotActiveError",
      "type": "error"
    },
    {
      "inputs": [],
      "name": "CFA__TransactionFailedError",
      "type": "error"
    },
    {
      "anonymous": false,
      "inputs": [
        {
          "indexed": false,
          "internalType": "uint8",
          "name": "version",
          "type": "uint8"
        }
      ],
      "name": "Initialized",
      "type": "event"
    },
    {
      "anonymous": false,
      "inputs": [
        {
          "indexed": false,
          "internalType": "address",
          "name": "account",
          "type": "address"
        }
      ],
      "name": "Paused",
      "type": "event"
    },
    {
      "anonymous": false,
      "inputs": [
        {
          "indexed": true,
          "internalType": "bytes32",
          "name": "role",
          "type": "bytes32"
        },
        {
          "indexed": true,
          "internalType": "bytes32",
          "name": "previousAdminRole",
          "type": "bytes32"
        },
        {
          "indexed": true,
          "internalType": "bytes32",
          "name": "newAdminRole",
          "type": "bytes32"
        }
      ],
      "name": "RoleAdminChanged",
      "type": "event"
    },
    {
      "anonymous": false,
      "inputs": [
        {
          "indexed": true,
          "internalType": "bytes32",
          "name": "role",
          "type": "bytes32"
        },
        {
          "indexed": true,
          "internalType": "address",
          "name": "account",
          "type": "address"
        },
        {
          "indexed": true,
          "internalType": "address",
          "name": "sender",
          "type": "address"
        }
      ],
      "name": "RoleGranted",
      "type": "event"
    },
    {
      "anonymous": false,
      "inputs": [
        {
          "indexed": true,
          "internalType": "bytes32",
          "name": "role",
          "type": "bytes32"
        },
        {
          "indexed": true,
          "internalType": "address",
          "name": "account",
          "type": "address"
        },
        {
          "indexed": true,
          "internalType": "address",
          "name": "sender",
          "type": "address"
        }
      ],
      "name": "RoleRevoked",
      "type": "event"
    },
    {
      "anonymous": false,
      "inputs": [
        {
          "indexed": false,
          "internalType": "address",
          "name": "account",
          "type": "address"
        }
      ],
      "name": "Unpaused",
      "type": "event"
    },
    {
      "anonymous": false,
      "inputs": [],
      "name": "UpdatedMaxInsuredDays",
      "type": "event"
    },
    {
      "anonymous": false,
      "inputs": [],
      "name": "UpdatedMinimumInsurancePeriod",
      "type": "event"
    },
    {
      "anonymous": false,
      "inputs": [],
      "name": "UpdatedStartWaitingTime",
      "type": "event"
    },
    {
      "inputs": [],
      "name": "DEFAULT_ADMIN_ROLE",
      "outputs": [
        {
          "internalType": "bytes32",
          "name": "",
          "type": "bytes32"
        }
      ],
      "stateMutability": "view",
      "type": "function"
    },
    {
      "inputs": [
        {
          "internalType": "address",
          "name": "owner",
          "type": "address"
        }
      ],
      "name": "__BaseUpgradeablePausable_init",
      "outputs": [],
      "stateMutability": "nonpayable",
      "type": "function"
    },
    {
      "inputs": [
        {
          "internalType": "uint256",
          "name": "insuredAmount",
          "type": "uint256"
        },
        {
          "internalType": "uint256",
          "name": "categoryID",
          "type": "uint256"
        },
        {
          "internalType": "uint256",
          "name": "subCategoryID",
          "type": "uint256"
        },
        {
          "internalType": "uint256",
          "name": "deadline",
          "type": "uint256"
        },
        {
          "internalType": "uint8",
          "name": "v",
          "type": "uint8"
        },
        {
          "internalType": "bytes32",
          "name": "r",
          "type": "bytes32"
        },
        {
          "internalType": "bytes32",
          "name": "s",
          "type": "bytes32"
        }
      ],
      "name": "addInsuranceAmount",
      "outputs": [
        {
          "internalType": "bool",
          "name": "",
          "type": "bool"
        }
      ],
      "stateMutability": "nonpayable",
      "type": "function"
    },
    {
      "inputs": [
        {
          "internalType": "address",
          "name": "userAddress",
          "type": "address"
        },
        {
          "internalType": "uint256",
          "name": "categoryID",
          "type": "uint256"
        }
      ],
      "name": "calculateTotalFlowMade",
      "outputs": [
        {
          "internalType": "uint256",
          "name": "",
          "type": "uint256"
        }
      ],
      "stateMutability": "view",
      "type": "function"
    },
    {
      "inputs": [
        {
          "internalType": "address",
          "name": "userAddress",
          "type": "address"
        }
      ],
      "name": "calculateTotalFlowMade",
      "outputs": [
        {
          "internalType": "uint256",
          "name": "",
          "type": "uint256"
        }
      ],
      "stateMutability": "view",
      "type": "function"
    },
    {
      "inputs": [
        {
          "internalType": "address",
          "name": "userAddress",
          "type": "address"
        },
        {
          "internalType": "uint256",
          "name": "categoryID",
          "type": "uint256"
        }
      ],
      "name": "claimPremium",
      "outputs": [
        {
          "internalType": "bool",
          "name": "",
          "type": "bool"
        }
      ],
      "stateMutability": "nonpayable",
      "type": "function"
    },
    {
      "inputs": [
        {
          "internalType": "address",
          "name": "userAddress",
          "type": "address"
        },
        {
          "internalType": "uint256",
          "name": "categoryID",
          "type": "uint256"
        },
        {
          "internalType": "uint256",
          "name": "subCategoryID",
          "type": "uint256"
        }
      ],
      "name": "claimPremium",
      "outputs": [
        {
          "internalType": "bool",
          "name": "",
          "type": "bool"
        }
      ],
      "stateMutability": "nonpayable",
      "type": "function"
    },
    {
      "inputs": [
        {
          "internalType": "address",
          "name": "userAddress",
          "type": "address"
        },
        {
          "internalType": "uint256",
          "name": "categoryID",
          "type": "uint256"
        },
        {
          "internalType": "uint256",
          "name": "subCategoryCount",
          "type": "uint256"
        }
      ],
      "name": "findActivePremiumCost",
      "outputs": [
        {
          "internalType": "uint256[]",
          "name": "",
          "type": "uint256[]"
        }
      ],
      "stateMutability": "view",
      "type": "function"
    },
    {
      "inputs": [
        {
          "internalType": "uint256",
          "name": "insuredAmount",
          "type": "uint256"
        },
        {
          "internalType": "uint256",
          "name": "categoryID",
          "type": "uint256"
        },
        {
          "internalType": "uint256",
          "name": "subCategoryID",
          "type": "uint256"
        }
      ],
      "name": "getExpectedInsuranceCostAndDeadline",
      "outputs": [
        {
          "internalType": "uint256",
          "name": "",
          "type": "uint256"
        },
        {
          "internalType": "uint256",
          "name": "",
          "type": "uint256"
        }
      ],
      "stateMutability": "view",
      "type": "function"
    },
    {
      "inputs": [
        {
          "internalType": "address",
          "name": "_userAddress",
          "type": "address"
        }
      ],
      "name": "getGlobalUserInsuranceInfo",
      "outputs": [
        {
          "internalType": "uint256",
          "name": "",
          "type": "uint256"
        },
        {
          "internalType": "uint256",
          "name": "",
          "type": "uint256"
        }
      ],
      "stateMutability": "view",
      "type": "function"
    },
    {
      "inputs": [
        {
          "internalType": "address",
          "name": "userAddress",
          "type": "address"
        }
      ],
      "name": "getGlobalUserInsurancePremiumCost",
      "outputs": [
        {
          "internalType": "uint256",
          "name": "",
          "type": "uint256"
        }
      ],
      "stateMutability": "view",
      "type": "function"
    },
    {
      "inputs": [
        {
          "internalType": "bytes32",
          "name": "role",
          "type": "bytes32"
        }
      ],
      "name": "getRoleAdmin",
      "outputs": [
        {
          "internalType": "bytes32",
          "name": "",
          "type": "bytes32"
        }
      ],
      "stateMutability": "view",
      "type": "function"
    },
    {
      "inputs": [
        {
          "internalType": "address",
          "name": "userAddress",
          "type": "address"
        },
        {
          "internalType": "uint256",
          "name": "categoryID",
          "type": "uint256"
        },
        {
          "internalType": "uint256",
          "name": "subCategoryID",
          "type": "uint256"
        }
      ],
      "name": "getUserInsuranceInfo",
      "outputs": [
        {
          "internalType": "uint256",
          "name": "",
          "type": "uint256"
        },
        {
          "internalType": "uint256",
          "name": "",
          "type": "uint256"
        },
        {
          "internalType": "uint256",
          "name": "",
          "type": "uint256"
        },
        {
          "internalType": "uint256",
          "name": "",
          "type": "uint256"
        },
        {
          "internalType": "uint256",
          "name": "",
          "type": "uint256"
        },
        {
          "internalType": "bool",
          "name": "",
          "type": "bool"
        }
      ],
      "stateMutability": "view",
      "type": "function"
    },
    {
      "inputs": [
        {
          "internalType": "address",
          "name": "userAddress",
          "type": "address"
        },
        {
          "internalType": "uint256",
          "name": "categoryID",
          "type": "uint256"
        },
        {
          "internalType": "uint256",
          "name": "subCategoryID",
          "type": "uint256"
        }
      ],
      "name": "getUserInsuranceStatus",
      "outputs": [
        {
          "internalType": "bool",
          "name": "",
          "type": "bool"
        }
      ],
      "stateMutability": "view",
      "type": "function"
    },
    {
      "inputs": [
        {
          "internalType": "address",
          "name": "userAddress",
          "type": "address"
        },
        {
          "internalType": "uint256",
          "name": "categoryID",
          "type": "uint256"
        },
        {
          "internalType": "uint256",
          "name": "subCategoryID",
          "type": "uint256"
        }
      ],
      "name": "getUserInsuranceValidTillInfo",
      "outputs": [
        {
          "internalType": "uint256",
          "name": "",
          "type": "uint256"
        }
      ],
      "stateMutability": "view",
      "type": "function"
    },
    {
      "inputs": [
        {
          "internalType": "address",
          "name": "userAddress",
          "type": "address"
        },
        {
          "internalType": "uint256",
          "name": "categoryID",
          "type": "uint256"
        },
        {
          "internalType": "uint256",
          "name": "subCategoryID",
          "type": "uint256"
        }
      ],
      "name": "getUserInsuredAmount",
      "outputs": [
        {
          "internalType": "uint256",
          "name": "",
          "type": "uint256"
        }
      ],
      "stateMutability": "view",
      "type": "function"
    },
    {
      "inputs": [
        {
          "internalType": "bytes32",
          "name": "role",
          "type": "bytes32"
        },
        {
          "internalType": "address",
          "name": "account",
          "type": "address"
        }
      ],
      "name": "grantRole",
      "outputs": [],
      "stateMutability": "nonpayable",
      "type": "function"
    },
    {
      "inputs": [
        {
          "internalType": "bytes32",
          "name": "role",
          "type": "bytes32"
        },
        {
          "internalType": "address",
          "name": "account",
          "type": "address"
        }
      ],
      "name": "hasRole",
      "outputs": [
        {
          "internalType": "bool",
          "name": "",
          "type": "bool"
        }
      ],
      "stateMutability": "view",
      "type": "function"
    },
    {
      "inputs": [
        {
          "internalType": "address",
          "name": "tokenDAIaddress",
          "type": "address"
        },
        {
          "internalType": "address",
          "name": "sztDAIAddress",
          "type": "address"
        },
        {
          "internalType": "address",
          "name": "insuranceRegistryCA",
          "type": "address"
        },
        {
          "internalType": "uint256",
          "name": "minimumInsurancePeriod",
          "type": "uint256"
        },
        {
          "internalType": "uint256",
          "name": "startWaitingTime",
          "type": "uint256"
        },
        {
          "internalType": "uint256",
          "name": "maxInsuredDays",
          "type": "uint256"
        }
      ],
      "name": "initialize",
      "outputs": [
        {
          "internalType": "bool",
          "name": "",
          "type": "bool"
        }
      ],
      "stateMutability": "nonpayable",
      "type": "function"
    },
    {
      "inputs": [],
      "name": "isAdmin",
      "outputs": [
        {
          "internalType": "bool",
          "name": "",
          "type": "bool"
        }
      ],
      "stateMutability": "view",
      "type": "function"
    },
    {
      "inputs": [
        {
          "internalType": "uint256",
          "name": "insuredAmount",
          "type": "uint256"
        },
        {
          "internalType": "uint256",
          "name": "categoryID",
          "type": "uint256"
        },
        {
          "internalType": "uint256",
          "name": "subCategoryID",
          "type": "uint256"
        },
        {
          "internalType": "uint256",
          "name": "deadline",
          "type": "uint256"
        },
        {
          "internalType": "uint8",
          "name": "v",
          "type": "uint8"
        },
        {
          "internalType": "bytes32",
          "name": "r",
          "type": "bytes32"
        },
        {
          "internalType": "bytes32",
          "name": "s",
          "type": "bytes32"
        },
        {
          "internalType": "bool",
          "name": "closeStream",
          "type": "bool"
        }
      ],
      "name": "minusInsuranceAmount",
      "outputs": [
        {
          "internalType": "bool",
          "name": "",
          "type": "bool"
        }
      ],
      "stateMutability": "nonpayable",
      "type": "function"
    },
    {
      "inputs": [],
      "name": "pause",
      "outputs": [],
      "stateMutability": "nonpayable",
      "type": "function"
    },
    {
      "inputs": [],
      "name": "paused",
      "outputs": [
        {
          "internalType": "bool",
          "name": "",
          "type": "bool"
        }
      ],
      "stateMutability": "view",
      "type": "function"
    },
    {
      "inputs": [
        {
          "internalType": "bytes32",
          "name": "role",
          "type": "bytes32"
        },
        {
          "internalType": "address",
          "name": "account",
          "type": "address"
        }
      ],
      "name": "renounceRole",
      "outputs": [],
      "stateMutability": "nonpayable",
      "type": "function"
    },
    {
      "inputs": [
        {
          "internalType": "bytes32",
          "name": "role",
          "type": "bytes32"
        },
        {
          "internalType": "address",
          "name": "account",
          "type": "address"
        }
      ],
      "name": "revokeRole",
      "outputs": [],
      "stateMutability": "nonpayable",
      "type": "function"
    },
    {
      "inputs": [
        {
          "internalType": "bytes4",
          "name": "interfaceId",
          "type": "bytes4"
        }
      ],
      "name": "supportsInterface",
      "outputs": [
        {
          "internalType": "bool",
          "name": "",
          "type": "bool"
        }
      ],
      "stateMutability": "view",
      "type": "function"
    },
    {
      "inputs": [],
      "name": "unpause",
      "outputs": [],
      "stateMutability": "nonpayable",
      "type": "function"
    },
    {
      "inputs": [
        {
          "internalType": "uint256",
          "name": "timeInDays",
          "type": "uint256"
        }
      ],
      "name": "updateMaxInsuredDays",
      "outputs": [],
      "stateMutability": "nonpayable",
      "type": "function"
    },
    {
      "inputs": [
        {
          "internalType": "uint256",
          "name": "timeInMinutes",
          "type": "uint256"
        }
      ],
      "name": "updateMinimumInsurancePeriod",
      "outputs": [],
      "stateMutability": "nonpayable",
      "type": "function"
    },
    {
      "inputs": [
        {
          "internalType": "uint256",
          "name": "timeInHours",
          "type": "uint256"
        }
      ],
      "name": "updateStartWaitingTime",
      "outputs": [],
      "stateMutability": "nonpayable",
      "type": "function"
    }
  ],
  "bytecode": "0x608060405234801561001057600080fd5b50614750806100206000396000f3fe608060405234801561001057600080fd5b50600436106101da5760003560e01c806377bd35fc11610104578063b4706268116100a2578063d547741f11610071578063d547741f146105cb578063ec249164146105e7578063ef4e52d514610618578063f099dd5014610648576101da565b8063b470626814610531578063b6db75a01461054d578063c392e8501461056b578063cff5eede1461059b576101da565b806388295fb2116100de57806388295fb21461047e57806391d14854146104b3578063a217fddf146104e3578063ad09c2a114610501576101da565b806377bd35fc1461041457806381280d2b146104445780638456cb5914610474576101da565b806342f6b8a71161017c5780636b6d105e1161014b5780636b6d105e146103675780636e810b1a14610397578063728cdbca146103b3578063734bf2c7146103e3576101da565b806342f6b8a7146102cd5780634e94c048146102fd57806356eb66bb1461032d5780635c975abb14610349576101da565b806324b7ab24116101b857806324b7ab241461026f5780632f2ff15d1461028b57806336568abe146102a75780633f4ba83a146102c3576101da565b806301ffc9a7146101df5780631a5c8f281461020f578063248a9ca31461023f575b600080fd5b6101f960048036038101906101f4919061359d565b610678565b60405161020691906135e5565b60405180910390f35b61022960048036038101906102249190613694565b6106f2565b60405161023691906137a5565b60405180910390f35b610259600480360381019061025491906137fd565b610915565b6040516102669190613839565b60405180910390f35b61028960048036038101906102849190613854565b610935565b005b6102a560048036038101906102a09190613881565b6109bf565b005b6102c160048036038101906102bc9190613881565b6109e0565b005b6102cb610a63565b005b6102e760048036038101906102e291906138c1565b610ab4565b6040516102f491906138fd565b60405180910390f35b61031760048036038101906103129190613918565b610b2f565b60405161032491906138fd565b60405180910390f35b61034760048036038101906103429190613854565b610ce6565b005b610351610d6e565b60405161035e91906135e5565b60405180910390f35b610381600480360381019061037c9190613694565b610d85565b60405161038e91906138fd565b60405180910390f35b6103b160048036038101906103ac91906138c1565b610df6565b005b6103cd60048036038101906103c89190613958565b610f18565b6040516103da91906135e5565b60405180910390f35b6103fd60048036038101906103f891906139e5565b6111b4565b60405161040b929190613a38565b60405180910390f35b61042e60048036038101906104299190613918565b61143e565b60405161043b91906135e5565b60405180910390f35b61045e60048036038101906104599190613694565b611446565b60405161046b91906135e5565b60405180910390f35b61047c6114c4565b005b61049860048036038101906104939190613694565b611515565b6040516104aa96959493929190613a61565b60405180910390f35b6104cd60048036038101906104c89190613881565b61161d565b6040516104da91906135e5565b60405180910390f35b6104eb611688565b6040516104f89190613839565b60405180910390f35b61051b60048036038101906105169190613afb565b61168f565b60405161052891906135e5565b60405180910390f35b61054b60048036038101906105469190613854565b61171e565b005b6105556117a9565b60405161056291906135e5565b60405180910390f35b61058560048036038101906105809190613694565b6117c8565b60405161059291906138fd565b60405180910390f35b6105b560048036038101906105b091906138c1565b611839565b6040516105c291906138fd565b60405180910390f35b6105e560048036038101906105e09190613881565b611a1e565b005b61060160048036038101906105fc91906138c1565b611a3f565b60405161060f929190613a38565b60405180910390f35b610632600480360381019061062d9190613bc9565b611ac3565b60405161063f91906135e5565b60405180910390f35b610662600480360381019061065d9190613694565b611b54565b60405161066f91906135e5565b60405180910390f35b60007f7965db0b000000000000000000000000000000000000000000000000000000007bffffffffffffffffffffffffffffffffffffffffffffffffffffffff1916827bffffffffffffffffffffffffffffffffffffffffffffffffffffffff191614806106eb57506106ea82611bec565b5b9050919050565b60606000805b838110156107f157600061010460008873ffffffffffffffffffffffffffffffffffffffff1673ffffffffffffffffffffffffffffffffffffffff168152602001908152602001600020600087815260200190815260200160002060008381526020019081526020016000206040518060e00160405290816000820154815260200160018201548152602001600282015481526020016003820154815260200160048201548152602001600582015481526020016006820160009054906101000a900460ff16151515158152505090508060c00151156107df57826107dc90613cae565b92505b816107e990613cae565b9150506106f8565b5060008167ffffffffffffffff81111561080e5761080d613cf6565b5b60405190808252806020026020018201604052801561083c5781602001602082028036833780820191505090505b5090506000805b8581101561090757600061010460008a73ffffffffffffffffffffffffffffffffffffffff1673ffffffffffffffffffffffffffffffffffffffff1681526020019081526020016000206000898152602001908152602001600020600083815260200190815260200160002090508060060160009054906101000a900460ff16156108f557818484815181106108dc576108db613d25565b5b602002602001018181525050826108f290613cae565b92505b816108ff90613cae565b915050610843565b508193505050509392505050565b600060976000838152602001908152602001600020600101549050919050565b61093d6117a9565b61097c576040517f08c379a000000000000000000000000000000000000000000000000000000000815260040161097390613dd7565b60405180910390fd5b610e108161098a9190613df7565b60fd819055507f75c07eb064b8ccf959bcc601b55315ca198e67b597dc0a7b93e130f8ca779a6760405160405180910390a150565b6109c882610915565b6109d181611c56565b6109db8383611c6a565b505050565b6109e8611d4b565b73ffffffffffffffffffffffffffffffffffffffff168173ffffffffffffffffffffffffffffffffffffffff1614610a55576040517f08c379a0000000000000000000000000000000000000000000000000000000008152600401610a4c90613ec3565b60405180910390fd5b610a5f8282611d53565b5050565b610a6b6117a9565b610aaa576040517f08c379a0000000000000000000000000000000000000000000000000000000008152600401610aa190613dd7565b60405180910390fd5b610ab2611e35565b565b60008061010360008473ffffffffffffffffffffffffffffffffffffffff1673ffffffffffffffffffffffffffffffffffffffff168152602001908152602001600020604051806060016040529081600082015481526020016001820154815260200160028201548152505090508060400151915050919050565b600080600090506000610bdf858561010260009054906101000a900473ffffffffffffffffffffffffffffffffffffffff1673ffffffffffffffffffffffffffffffffffffffff16633bf4c082886040518263ffffffff1660e01b8152600401610b9991906138fd565b602060405180830381865afa158015610bb6573d6000803e3d6000fd5b505050506040513d601f19601f82011682018060405250810190610bda9190613ef8565b6106f2565b905060005b8151811015610cda57600061010460008873ffffffffffffffffffffffffffffffffffffffff1673ffffffffffffffffffffffffffffffffffffffff16815260200190815260200160002060008781526020019081526020016000206000848481518110610c5557610c54613d25565b5b602002602001015181526020019081526020016000209050600081600001544211610c81576000610ca8565b81600101544211610ca157816000015442610c9c9190613f25565b610ca7565b81600101545b5b9050808260040154610cba9190613df7565b85610cc59190613f59565b945082610cd190613cae565b92505050610be4565b50819250505092915050565b610cee6117a9565b610d2d576040517f08c379a0000000000000000000000000000000000000000000000000000000008152600401610d2490613dd7565b60405180910390fd5b603c81610d3a9190613df7565b60fe819055507e3a5a2424463bb22c8fc4c0f2422b7a18712b7713f9619caa313f499fad615e60405160405180910390a150565b6000603360009054906101000a900460ff16905090565b600061010460008573ffffffffffffffffffffffffffffffffffffffff1673ffffffffffffffffffffffffffffffffffffffff168152602001908152602001600020600084815260200190815260200160002060008381526020019081526020016000206002015490509392505050565b600060019054906101000a900460ff16610e45576040517f08c379a0000000000000000000000000000000000000000000000000000000008152600401610e3c90613fff565b60405180910390fd5b600073ffffffffffffffffffffffffffffffffffffffff168173ffffffffffffffffffffffffffffffffffffffff1603610eab576040517f5415139400000000000000000000000000000000000000000000000000000000815260040160405180910390fd5b610eb3611e98565b610ebb611ef1565b610ec3611f42565b610ed4610ece611f9b565b82611c6a565b610ee5610edf611fc3565b82611c6a565b610efd610ef0611fc3565b610ef8611f9b565b611feb565b610f15610f08611f9b565b610f10611f9b565b611feb565b50565b600080600060019054906101000a900460ff16159050808015610f4b5750600160008054906101000a900460ff1660ff16105b80610f785750610f5a30612047565b158015610f775750600160008054906101000a900460ff1660ff16145b5b610fb7576040517f08c379a0000000000000000000000000000000000000000000000000000000008152600401610fae90614091565b60405180910390fd5b60016000806101000a81548160ff021916908360ff1602179055508015610ff4576001600060016101000a81548160ff0219169083151502179055505b600060fb81905550603c836110099190613df7565b60fc81905550603c8461101c9190613df7565b60fd81905550603c8561102f9190613df7565b60fe819055508761010060006101000a81548173ffffffffffffffffffffffffffffffffffffffff021916908373ffffffffffffffffffffffffffffffffffffffff1602179055508660ff60006101000a81548173ffffffffffffffffffffffffffffffffffffffff021916908373ffffffffffffffffffffffffffffffffffffffff1602179055508761010160006101000a81548173ffffffffffffffffffffffffffffffffffffffff021916908373ffffffffffffffffffffffffffffffffffffffff1602179055508561010260006101000a81548173ffffffffffffffffffffffffffffffffffffffff021916908373ffffffffffffffffffffffffffffffffffffffff16021790555061114c611147611d4b565b610df6565b6001915080156111a95760008060016101000a81548160ff0219169083151502179055507f7f26b83ff96e1f2b6a682f133852f6798a09c465da95921460cefb384740249860016040516111a091906140f6565b60405180910390a15b509695505050505050565b600080600061010360006111c6611d4b565b73ffffffffffffffffffffffffffffffffffffffff1673ffffffffffffffffffffffffffffffffffffffff168152602001908152602001600020604051806060016040529081600082015481526020016001820154815260200160028201548152505090506000816040015160ff60009054906101000a900473ffffffffffffffffffffffffffffffffffffffff1673ffffffffffffffffffffffffffffffffffffffff166370a08231611278611d4b565b6040518263ffffffff1660e01b81526004016112949190614120565b602060405180830381865afa1580156112b1573d6000803e3d6000fd5b505050506040513d601f19601f820116820180604052508101906112d59190613ef8565b6112df9190613f25565b90506000670de0b6b3a76400008861010260009054906101000a900473ffffffffffffffffffffffffffffffffffffffff1673ffffffffffffffffffffffffffffffffffffffff16635952a8c68a8a6040518363ffffffff1660e01b815260040161134b929190613a38565b602060405180830381865afa158015611368573d6000803e3d6000fd5b505050506040513d601f19601f8201168201806040525081019061138c9190613ef8565b6113969190613df7565b6113a0919061416a565b9050600081836113b0919061416a565b9050600060fc5482106113dd5760fc5460fd54426113ce9190613f59565b6113d89190613f59565b6113f7565b8160fd54426113ec9190613f59565b6113f69190613f59565b5b9050600083826114079190613df7565b9050600062278d0060fc544261141d9190613f59565b6114279190613f59565b905081819850985050505050505050935093915050565b600092915050565b600061010460008573ffffffffffffffffffffffffffffffffffffffff1673ffffffffffffffffffffffffffffffffffffffff1681526020019081526020016000206000848152602001908152602001600020600083815260200190815260200160002060060160009054906101000a900460ff1690509392505050565b6114cc6117a9565b61150b576040517f08c379a000000000000000000000000000000000000000000000000000000000815260040161150290613dd7565b60405180910390fd5b61151361206a565b565b600080600080600080600061010460008b73ffffffffffffffffffffffffffffffffffffffff1673ffffffffffffffffffffffffffffffffffffffff16815260200190815260200160002060008a815260200190815260200160002060008981526020019081526020016000206040518060e00160405290816000820154815260200160018201548152602001600282015481526020016003820154815260200160048201548152602001600582015481526020016006820160009054906101000a900460ff1615151515815250509050806040015181608001518260600151836000015184602001518560c001519650965096509650965096505093975093979195509350565b60006097600084815260200190815260200160002060000160008373ffffffffffffffffffffffffffffffffffffffff1673ffffffffffffffffffffffffffffffffffffffff16815260200190815260200160002060009054906101000a900460ff16905092915050565b6000801b81565b60006116996120cd565b600062278d0060fc54426116ad9190613f59565b6116b79190613f59565b9050808610156116f3576040517fb00fcb1e00000000000000000000000000000000000000000000000000000000815260040160405180910390fd5b60006117048a8a8a8a8a8a8a61211c565b90508092505050611713612321565b979650505050505050565b6117266117a9565b611765576040517f08c379a000000000000000000000000000000000000000000000000000000000815260040161175c90613dd7565b60405180910390fd5b62015180816117749190613df7565b60fc819055507fdb4fb2fd6b8b90f67bda8671842d5cab4eb4b7eba9683f5bcec9aba9473cc95760405160405180910390a150565b60006117c36117b6611f9b565b6117be611d4b565b61161d565b905090565b600061010460008573ffffffffffffffffffffffffffffffffffffffff1673ffffffffffffffffffffffffffffffffffffffff168152602001908152602001600020600084815260200190815260200160002060008381526020019081526020016000206001015490509392505050565b6000806000905060005b60fb54811015611a14576000806118f7868461010260009054906101000a900473ffffffffffffffffffffffffffffffffffffffff1673ffffffffffffffffffffffffffffffffffffffff16633bf4c082876040518263ffffffff1660e01b81526004016118b191906138fd565b602060405180830381865afa1580156118ce573d6000803e3d6000fd5b505050506040513d601f19601f820116820180604052508101906118f29190613ef8565b6106f2565b905060005b81518110156119f257600061010460008973ffffffffffffffffffffffffffffffffffffffff1673ffffffffffffffffffffffffffffffffffffffff1681526020019081526020016000206000868152602001908152602001600020600084848151811061196d5761196c613d25565b5b6020026020010151815260200190815260200160002090506000816000015442116119995760006119c0565b816001015442116119b9578160000154426119b49190613f25565b6119bf565b81600101545b5b90508082600401546119d29190613df7565b856119dd9190613f59565b9450826119e990613cae565b925050506118fc565b5081846119ff9190613f59565b935082611a0b90613cae565b92505050611843565b5080915050919050565b611a2782610915565b611a3081611c56565b611a3a8383611d53565b505050565b600080600061010360008573ffffffffffffffffffffffffffffffffffffffff1673ffffffffffffffffffffffffffffffffffffffff16815260200190815260200160002060405180606001604052908160008201548152602001600182015481526020016002820154815250509050806020015181600001519250925050915091565b6000611acd6120cd565b600062278d0060fc5442611ae19190613f59565b611aeb9190613f59565b905080871015611b27576040517fb00fcb1e00000000000000000000000000000000000000000000000000000000815260040160405180910390fd5b6000611b398b8b8b8b8b8b8b8b61232b565b90508092505050611b48612321565b98975050505050505050565b600042611b628585856117c8565b1115611b9a576040517f707001b500000000000000000000000000000000000000000000000000000000815260040160405180910390fd5b6000611ba7858585612568565b905080611be0576040517fb00fcb1e00000000000000000000000000000000000000000000000000000000815260040160405180910390fd5b60019150509392505050565b60007f01ffc9a7000000000000000000000000000000000000000000000000000000007bffffffffffffffffffffffffffffffffffffffffffffffffffffffff1916827bffffffffffffffffffffffffffffffffffffffffffffffffffffffff1916149050919050565b611c6781611c62611d4b565b612909565b50565b611c74828261161d565b611d475760016097600084815260200190815260200160002060000160008373ffffffffffffffffffffffffffffffffffffffff1673ffffffffffffffffffffffffffffffffffffffff16815260200190815260200160002060006101000a81548160ff021916908315150217905550611cec611d4b565b73ffffffffffffffffffffffffffffffffffffffff168173ffffffffffffffffffffffffffffffffffffffff16837f2f8788117e7eff1d82e926ec794901d17c78024a50270940304540a733656f0d60405160405180910390a45b5050565b600033905090565b611d5d828261161d565b15611e315760006097600084815260200190815260200160002060000160008373ffffffffffffffffffffffffffffffffffffffff1673ffffffffffffffffffffffffffffffffffffffff16815260200190815260200160002060006101000a81548160ff021916908315150217905550611dd6611d4b565b73ffffffffffffffffffffffffffffffffffffffff168173ffffffffffffffffffffffffffffffffffffffff16837ff6391f5c32d9c69d2a47ea670b442974b53935d1edc7fd64eb21e047a839171b60405160405180910390a45b5050565b611e3d61298e565b6000603360006101000a81548160ff0219169083151502179055507f5db9ee0a495bf2e6ff9c91a7834c1ba4fdd244a5e8aa4e537bd38aeae4b073aa611e81611d4b565b604051611e8e9190614120565b60405180910390a1565b600060019054906101000a900460ff16611ee7576040517f08c379a0000000000000000000000000000000000000000000000000000000008152600401611ede90613fff565b60405180910390fd5b611eef6129d7565b565b600060019054906101000a900460ff16611f40576040517f08c379a0000000000000000000000000000000000000000000000000000000008152600401611f3790613fff565b60405180910390fd5b565b600060019054906101000a900460ff16611f91576040517f08c379a0000000000000000000000000000000000000000000000000000000008152600401611f8890613fff565b60405180910390fd5b611f99612a43565b565b60007fa49807205ce4d355092ef5a8a18f56e8913cf4a201fbe287825b095693c21775905090565b60007f65d7a28e3265b37a6474929f336521b332c1681b933f6cb9f3376673440d862a905090565b6000611ff683610915565b90508160976000858152602001908152602001600020600101819055508181847fbd79b86ffe0ab8e8776151514217cd7cacd52c909f66475c3af44e129f0b00ff60405160405180910390a4505050565b6000808273ffffffffffffffffffffffffffffffffffffffff163b119050919050565b612072612a9c565b6001603360006101000a81548160ff0219169083151502179055507f62e78cea01bee320cd4e420270b5ea74000d11b0c9f74754ebdbfc544b05a2586120b6611d4b565b6040516120c39190614120565b60405180910390a1565b600260c95403612112576040517f08c379a0000000000000000000000000000000000000000000000000000000008152600401612109906141e7565b60405180910390fd5b600260c981905550565b60008088610104600061212d611d4b565b73ffffffffffffffffffffffffffffffffffffffff1673ffffffffffffffffffffffffffffffffffffffff16815260200190815260200160002060008a81526020019081526020016000206000898152602001908152602001600020600201546121979190613f59565b905061010460006121a6611d4b565b73ffffffffffffffffffffffffffffffffffffffff1673ffffffffffffffffffffffffffffffffffffffff1681526020019081526020016000206000898152602001908152602001600020600088815260200190815260200160002060060160009054906101000a900460ff161561226757600061222c612225611d4b565b8a8a612568565b905080612265576040517fb00fcb1e00000000000000000000000000000000000000000000000000000000815260040160405180910390fd5b505b600080612275838b8b612ae6565b91509150816122b0576040517fb00fcb1e00000000000000000000000000000000000000000000000000000000815260040160405180910390fd5b61230f6122bb611d4b565b30838b8b8b8b61010160009054906101000a900473ffffffffffffffffffffffffffffffffffffffff1673ffffffffffffffffffffffffffffffffffffffff1661310a90979695949392919063ffffffff16565b60019350505050979650505050505050565b600160c981905550565b6000610104600061233a611d4b565b73ffffffffffffffffffffffffffffffffffffffff1673ffffffffffffffffffffffffffffffffffffffff1681526020019081526020016000206000898152602001908152602001600020600088815260200190815260200160002060060160009054906101000a900460ff166123dd576040517f96ae3e8200000000000000000000000000000000000000000000000000000000815260040160405180910390fd5b60006123f16123ea611d4b565b8a8a612568565b90508061242a576040517fb00fcb1e00000000000000000000000000000000000000000000000000000000815260040160405180910390fd5b826125575760008a610104600061243f611d4b565b73ffffffffffffffffffffffffffffffffffffffff1673ffffffffffffffffffffffffffffffffffffffff16815260200190815260200160002060008c815260200190815260200160002060008b8152602001908152602001600020600201546124a99190613f25565b90506000806124b9838d8d612ae6565b91509150816124f4576040517fb00fcb1e00000000000000000000000000000000000000000000000000000000815260040160405180910390fd5b6125536124ff611d4b565b30838d8d8d8d61010160009054906101000a900473ffffffffffffffffffffffffffffffffffffffff1673ffffffffffffffffffffffffffffffffffffffff1661310a90979695949392919063ffffffff16565b5050505b600191505098975050505050505050565b60008061010460008673ffffffffffffffffffffffffffffffffffffffff1673ffffffffffffffffffffffffffffffffffffffff1681526020019081526020016000206000858152602001908152602001600020600084815260200190815260200160002090508060060160009054906101000a900460ff16612617576040517f96ae3e8200000000000000000000000000000000000000000000000000000000815260040160405180910390fd5b60008160060160006101000a81548160ff02191690831515021790555060008160000154421161264857600061266f565b81600101544211612668578160000154426126639190613f25565b61266e565b81600101545b5b905060008260040154826126839190613df7565b9050600081036126995760019350505050612902565b826004015461010360008973ffffffffffffffffffffffffffffffffffffffff1673ffffffffffffffffffffffffffffffffffffffff16815260200190815260200160002060010160008282546126f09190613f25565b92505081905550826005015461010360008973ffffffffffffffffffffffffffffffffffffffff1673ffffffffffffffffffffffffffffffffffffffff168152602001908152602001600020600201600082825461274e9190613f25565b92505081905550600083600401549050600084600201549050600061010260009054906101000a900473ffffffffffffffffffffffffffffffffffffffff1673ffffffffffffffffffffffffffffffffffffffff166326a6e9eb8a8a85876040518563ffffffff1660e01b81526004016127cb9493929190614207565b6020604051808303816000875af11580156127ea573d6000803e3d6000fd5b505050506040513d601f19601f8201168201806040525081019061280e9190614261565b9050600060ff60009054906101000a900473ffffffffffffffffffffffffffffffffffffffff1673ffffffffffffffffffffffffffffffffffffffff166379cc67908c876040518363ffffffff1660e01b815260040161286f92919061428e565b6020604051808303816000875af115801561288e573d6000803e3d6000fd5b505050506040513d601f19601f820116820180604052508101906128b29190614261565b90508115806128bf575080155b156128f6576040517fb00fcb1e00000000000000000000000000000000000000000000000000000000815260040160405180910390fd5b60019750505050505050505b9392505050565b612913828261161d565b61298a57612920816132d7565b61292e8360001c6020613304565b60405160200161293f9291906143c0565b6040516020818303038152906040526040517f08c379a00000000000000000000000000000000000000000000000000000000081526004016129819190614444565b60405180910390fd5b5050565b612996610d6e565b6129d5576040517f08c379a00000000000000000000000000000000000000000000000000000000081526004016129cc906144b2565b60405180910390fd5b565b600060019054906101000a900460ff16612a26576040517f08c379a0000000000000000000000000000000000000000000000000000000008152600401612a1d90613fff565b60405180910390fd5b6000603360006101000a81548160ff021916908315150217905550565b600060019054906101000a900460ff16612a92576040517f08c379a0000000000000000000000000000000000000000000000000000000008152600401612a8990613fff565b60405180910390fd5b600160c981905550565b612aa4610d6e565b15612ae4576040517f08c379a0000000000000000000000000000000000000000000000000000000008152600401612adb9061451e565b60405180910390fd5b565b600080670de0b6b3a7640000851015612b2a576040517ecd474300000000000000000000000000000000000000000000000000000000815260040160405180910390fd5b61010260009054906101000a900473ffffffffffffffffffffffffffffffffffffffff1673ffffffffffffffffffffffffffffffffffffffff16635657f79d8587866040518463ffffffff1660e01b8152600401612b8a9392919061453e565b602060405180830381865afa158015612ba7573d6000803e3d6000fd5b505050506040513d601f19601f82011682018060405250810190612bcb9190614261565b612c01576040517f1e45d1b400000000000000000000000000000000000000000000000000000000815260040160405180910390fd5b6101046000612c0e611d4b565b73ffffffffffffffffffffffffffffffffffffffff1673ffffffffffffffffffffffffffffffffffffffff1681526020019081526020016000206000858152602001908152602001600020600084815260200190815260200160002060060160009054906101000a900460ff1615612cb2576040517f707001b500000000000000000000000000000000000000000000000000000000815260040160405180910390fd5b60006101046000612cc1611d4b565b73ffffffffffffffffffffffffffffffffffffffff1673ffffffffffffffffffffffffffffffffffffffff16815260200190815260200160002060008681526020019081526020016000206000858152602001908152602001600020905060006101036000612d2e611d4b565b73ffffffffffffffffffffffffffffffffffffffff1673ffffffffffffffffffffffffffffffffffffffff16815260200190815260200160002090506000816002015460ff60009054906101000a900473ffffffffffffffffffffffffffffffffffffffff1673ffffffffffffffffffffffffffffffffffffffff166370a08231612db7611d4b565b6040518263ffffffff1660e01b8152600401612dd39190614120565b602060405180830381865afa158015612df0573d6000803e3d6000fd5b505050506040513d601f19601f82011682018060405250810190612e149190613ef8565b612e1e9190613f25565b90506000670de0b6b3a76400008961010260009054906101000a900473ffffffffffffffffffffffffffffffffffffffff1673ffffffffffffffffffffffffffffffffffffffff16635952a8c68b8b6040518363ffffffff1660e01b8152600401612e8a929190613a38565b602060405180830381865afa158015612ea7573d6000803e3d6000fd5b505050506040513d601f19601f82011682018060405250810190612ecb9190613ef8565b612ed59190613df7565b612edf919061416a565b90506000818460010154612ef39190613f59565b90508260fe5482612f049190613df7565b1115612f3c576040517fe4b581a500000000000000000000000000000000000000000000000000000000815260040160405180910390fd5b60008284612f4a919061416a565b905082856001016000828254612f609190613f59565b925050819055508a866002018190555082866004018190555042866003018190555060fd5442612f909190613f59565b866000018190555060fc548110612fb85760fc548660000154612fb39190613f59565b612fc9565b808660000154612fc89190613f59565b5b86600101819055508281612fdd9190613df7565b866005018190555060018660060160006101000a81548160ff021916908315150217905550856005015485600201600082825461301a9190613f59565b92505081905550846000015486600101541061303a578560010154613040565b84600001545b8560000181905550600061010260009054906101000a900473ffffffffffffffffffffffffffffffffffffffff1673ffffffffffffffffffffffffffffffffffffffff1663d9895c708c8c8f886040518563ffffffff1660e01b81526004016130ac9493929190614207565b6020604051808303816000875af11580156130cb573d6000803e3d6000fd5b505050506040513d601f19601f820116820180604052508101906130ef9190614261565b90508087600501549850985050505050505050935093915050565b60008873ffffffffffffffffffffffffffffffffffffffff16637ecebe00896040518263ffffffff1660e01b81526004016131459190614120565b602060405180830381865afa158015613162573d6000803e3d6000fd5b505050506040513d601f19601f820116820180604052508101906131869190613ef8565b90508873ffffffffffffffffffffffffffffffffffffffff1663d505accf898989898989896040518863ffffffff1660e01b81526004016131cd9796959493929190614584565b600060405180830381600087803b1580156131e757600080fd5b505af11580156131fb573d6000803e3d6000fd5b5050505060008973ffffffffffffffffffffffffffffffffffffffff16637ecebe008a6040518263ffffffff1660e01b815260040161323a9190614120565b602060405180830381865afa158015613257573d6000803e3d6000fd5b505050506040513d601f19601f8201168201806040525081019061327b9190613ef8565b905060018261328a9190613f59565b81146132cb576040517f08c379a00000000000000000000000000000000000000000000000000000000081526004016132c290614665565b60405180910390fd5b50505050505050505050565b60606132fd8273ffffffffffffffffffffffffffffffffffffffff16601460ff16613304565b9050919050565b6060600060028360026133179190613df7565b6133219190613f59565b67ffffffffffffffff81111561333a57613339613cf6565b5b6040519080825280601f01601f19166020018201604052801561336c5781602001600182028036833780820191505090505b5090507f3000000000000000000000000000000000000000000000000000000000000000816000815181106133a4576133a3613d25565b5b60200101907effffffffffffffffffffffffffffffffffffffffffffffffffffffffffffff1916908160001a9053507f78000000000000000000000000000000000000000000000000000000000000008160018151811061340857613407613d25565b5b60200101907effffffffffffffffffffffffffffffffffffffffffffffffffffffffffffff1916908160001a905350600060018460026134489190613df7565b6134529190613f59565b90505b60018111156134f2577f3031323334353637383961626364656600000000000000000000000000000000600f86166010811061349457613493613d25565b5b1a60f81b8282815181106134ab576134aa613d25565b5b60200101907effffffffffffffffffffffffffffffffffffffffffffffffffffffffffffff1916908160001a905350600485901c9450806134eb90614685565b9050613455565b5060008414613536576040517f08c379a000000000000000000000000000000000000000000000000000000000815260040161352d906146fa565b60405180910390fd5b8091505092915050565b600080fd5b60007fffffffff0000000000000000000000000000000000000000000000000000000082169050919050565b61357a81613545565b811461358557600080fd5b50565b60008135905061359781613571565b92915050565b6000602082840312156135b3576135b2613540565b5b60006135c184828501613588565b91505092915050565b60008115159050919050565b6135df816135ca565b82525050565b60006020820190506135fa60008301846135d6565b92915050565b600073ffffffffffffffffffffffffffffffffffffffff82169050919050565b600061362b82613600565b9050919050565b61363b81613620565b811461364657600080fd5b50565b60008135905061365881613632565b92915050565b6000819050919050565b6136718161365e565b811461367c57600080fd5b50565b60008135905061368e81613668565b92915050565b6000806000606084860312156136ad576136ac613540565b5b60006136bb86828701613649565b93505060206136cc8682870161367f565b92505060406136dd8682870161367f565b9150509250925092565b600081519050919050565b600082825260208201905092915050565b6000819050602082019050919050565b61371c8161365e565b82525050565b600061372e8383613713565b60208301905092915050565b6000602082019050919050565b6000613752826136e7565b61375c81856136f2565b935061376783613703565b8060005b8381101561379857815161377f8882613722565b975061378a8361373a565b92505060018101905061376b565b5085935050505092915050565b600060208201905081810360008301526137bf8184613747565b905092915050565b6000819050919050565b6137da816137c7565b81146137e557600080fd5b50565b6000813590506137f7816137d1565b92915050565b60006020828403121561381357613812613540565b5b6000613821848285016137e8565b91505092915050565b613833816137c7565b82525050565b600060208201905061384e600083018461382a565b92915050565b60006020828403121561386a57613869613540565b5b60006138788482850161367f565b91505092915050565b6000806040838503121561389857613897613540565b5b60006138a6858286016137e8565b92505060206138b785828601613649565b9150509250929050565b6000602082840312156138d7576138d6613540565b5b60006138e584828501613649565b91505092915050565b6138f78161365e565b82525050565b600060208201905061391260008301846138ee565b92915050565b6000806040838503121561392f5761392e613540565b5b600061393d85828601613649565b925050602061394e8582860161367f565b9150509250929050565b60008060008060008060c0878903121561397557613974613540565b5b600061398389828a01613649565b965050602061399489828a01613649565b95505060406139a589828a01613649565b94505060606139b689828a0161367f565b93505060806139c789828a0161367f565b92505060a06139d889828a0161367f565b9150509295509295509295565b6000806000606084860312156139fe576139fd613540565b5b6000613a0c8682870161367f565b9350506020613a1d8682870161367f565b9250506040613a2e8682870161367f565b9150509250925092565b6000604082019050613a4d60008301856138ee565b613a5a60208301846138ee565b9392505050565b600060c082019050613a7660008301896138ee565b613a8360208301886138ee565b613a9060408301876138ee565b613a9d60608301866138ee565b613aaa60808301856138ee565b613ab760a08301846135d6565b979650505050505050565b600060ff82169050919050565b613ad881613ac2565b8114613ae357600080fd5b50565b600081359050613af581613acf565b92915050565b600080600080600080600060e0888a031215613b1a57613b19613540565b5b6000613b288a828b0161367f565b9750506020613b398a828b0161367f565b9650506040613b4a8a828b0161367f565b9550506060613b5b8a828b0161367f565b9450506080613b6c8a828b01613ae6565b93505060a0613b7d8a828b016137e8565b92505060c0613b8e8a828b016137e8565b91505092959891949750929550565b613ba6816135ca565b8114613bb157600080fd5b50565b600081359050613bc381613b9d565b92915050565b600080600080600080600080610100898b031215613bea57613be9613540565b5b6000613bf88b828c0161367f565b9850506020613c098b828c0161367f565b9750506040613c1a8b828c0161367f565b9650506060613c2b8b828c0161367f565b9550506080613c3c8b828c01613ae6565b94505060a0613c4d8b828c016137e8565b93505060c0613c5e8b828c016137e8565b92505060e0613c6f8b828c01613bb4565b9150509295985092959890939650565b7f4e487b7100000000000000000000000000000000000000000000000000000000600052601160045260246000fd5b6000613cb98261365e565b91507fffffffffffffffffffffffffffffffffffffffffffffffffffffffffffffffff8203613ceb57613cea613c7f565b5b600182019050919050565b7f4e487b7100000000000000000000000000000000000000000000000000000000600052604160045260246000fd5b7f4e487b7100000000000000000000000000000000000000000000000000000000600052603260045260246000fd5b600082825260208201905092915050565b7f4d75737420686176652061646d696e20726f6c6520746f20706572666f726d2060008201527f7468697320616374696f6e2e0000000000000000000000000000000000000000602082015250565b6000613dc1602c83613d54565b9150613dcc82613d65565b604082019050919050565b60006020820190508181036000830152613df081613db4565b9050919050565b6000613e028261365e565b9150613e0d8361365e565b9250817fffffffffffffffffffffffffffffffffffffffffffffffffffffffffffffffff0483118215151615613e4657613e45613c7f565b5b828202905092915050565b7f416363657373436f6e74726f6c3a2063616e206f6e6c792072656e6f756e636560008201527f20726f6c657320666f722073656c660000000000000000000000000000000000602082015250565b6000613ead602f83613d54565b9150613eb882613e51565b604082019050919050565b60006020820190508181036000830152613edc81613ea0565b9050919050565b600081519050613ef281613668565b92915050565b600060208284031215613f0e57613f0d613540565b5b6000613f1c84828501613ee3565b91505092915050565b6000613f308261365e565b9150613f3b8361365e565b9250828203905081811115613f5357613f52613c7f565b5b92915050565b6000613f648261365e565b9150613f6f8361365e565b9250828201905080821115613f8757613f86613c7f565b5b92915050565b7f496e697469616c697a61626c653a20636f6e7472616374206973206e6f74206960008201527f6e697469616c697a696e67000000000000000000000000000000000000000000602082015250565b6000613fe9602b83613d54565b9150613ff482613f8d565b604082019050919050565b6000602082019050818103600083015261401881613fdc565b9050919050565b7f496e697469616c697a61626c653a20636f6e747261637420697320616c72656160008201527f647920696e697469616c697a6564000000000000000000000000000000000000602082015250565b600061407b602e83613d54565b91506140868261401f565b604082019050919050565b600060208201905081810360008301526140aa8161406e565b9050919050565b6000819050919050565b6000819050919050565b60006140e06140db6140d6846140b1565b6140bb565b613ac2565b9050919050565b6140f0816140c5565b82525050565b600060208201905061410b60008301846140e7565b92915050565b61411a81613620565b82525050565b60006020820190506141356000830184614111565b92915050565b7f4e487b7100000000000000000000000000000000000000000000000000000000600052601260045260246000fd5b60006141758261365e565b91506141808361365e565b9250826141905761418f61413b565b5b828204905092915050565b7f5265656e7472616e637947756172643a207265656e7472616e742063616c6c00600082015250565b60006141d1601f83613d54565b91506141dc8261419b565b602082019050919050565b60006020820190508181036000830152614200816141c4565b9050919050565b600060808201905061421c60008301876138ee565b61422960208301866138ee565b61423660408301856138ee565b61424360608301846138ee565b95945050505050565b60008151905061425b81613b9d565b92915050565b60006020828403121561427757614276613540565b5b60006142858482850161424c565b91505092915050565b60006040820190506142a36000830185614111565b6142b060208301846138ee565b9392505050565b600081905092915050565b7f416363657373436f6e74726f6c3a206163636f756e7420000000000000000000600082015250565b60006142f86017836142b7565b9150614303826142c2565b601782019050919050565b600081519050919050565b60005b8381101561433757808201518184015260208101905061431c565b60008484015250505050565b600061434e8261430e565b61435881856142b7565b9350614368818560208601614319565b80840191505092915050565b7f206973206d697373696e6720726f6c6520000000000000000000000000000000600082015250565b60006143aa6011836142b7565b91506143b582614374565b601182019050919050565b60006143cb826142eb565b91506143d78285614343565b91506143e28261439d565b91506143ee8284614343565b91508190509392505050565b6000601f19601f8301169050919050565b60006144168261430e565b6144208185613d54565b9350614430818560208601614319565b614439816143fa565b840191505092915050565b6000602082019050818103600083015261445e818461440b565b905092915050565b7f5061757361626c653a206e6f7420706175736564000000000000000000000000600082015250565b600061449c601483613d54565b91506144a782614466565b602082019050919050565b600060208201905081810360008301526144cb8161448f565b9050919050565b7f5061757361626c653a2070617573656400000000000000000000000000000000600082015250565b6000614508601083613d54565b9150614513826144d2565b602082019050919050565b60006020820190508181036000830152614537816144fb565b9050919050565b600060608201905061455360008301866138ee565b61456060208301856138ee565b61456d60408301846138ee565b949350505050565b61457e81613ac2565b82525050565b600060e082019050614599600083018a614111565b6145a66020830189614111565b6145b360408301886138ee565b6145c060608301876138ee565b6145cd6080830186614575565b6145da60a083018561382a565b6145e760c083018461382a565b98975050505050505050565b7f5361666545524332303a207065726d697420646964206e6f742073756363656560008201527f6400000000000000000000000000000000000000000000000000000000000000602082015250565b600061464f602183613d54565b915061465a826145f3565b604082019050919050565b6000602082019050818103600083015261467e81614642565b9050919050565b60006146908261365e565b9150600082036146a3576146a2613c7f565b5b600182039050919050565b7f537472696e67733a20686578206c656e67746820696e73756666696369656e74600082015250565b60006146e4602083613d54565b91506146ef826146ae565b602082019050919050565b60006020820190508181036000830152614713816146d7565b905091905056fea264697066735822122038023fbb46d449bba385ffb71f4e9a31485ce0c82359d9190d91b5f7bca5ddaa64736f6c63430008100033",
  "linkReferences": {},
  "deployedLinkReferences": {}
}