{
  "_format": "hh-sol-artifact-1",
  "contractName": "ConstantFlowAgreement",
  "sourceName": "contracts/core/payAsYouGo/ConstantFlowAgreement.sol",
  "abi": [
    {
      "inputs": [],
      "name": "BaseUpgradeablePausable__ZeroAddressError",
      "type": "error"
    },
    {
      "inputs": [],
      "name": "CFA__ActiveInsuranceExistError",
      "type": "error"
    },
    {
      "inputs": [],
      "name": "CFA__DeactivateInsuranceOperationFailed",
      "type": "error"
    },
    {
      "inputs": [],
      "name": "CFA__ImmutableChangesError",
      "type": "error"
    },
    {
      "inputs": [],
      "name": "CFA__InactiveInsuranceError",
      "type": "error"
    },
    {
      "inputs": [],
      "name": "CFA__InsufficientBalanceError",
      "type": "error"
    },
    {
      "inputs": [],
      "name": "CFA__InsuranceCoverNotAvailableError",
      "type": "error"
    },
    {
      "inputs": [],
      "name": "CFA__NotEvenMinimumInsurancePeriodAmount",
      "type": "error"
    },
    {
      "inputs": [],
      "name": "CFA__OperationPaused",
      "type": "error"
    },
    {
      "inputs": [],
      "name": "CFA__RemoveCoverageOperationFailed",
      "type": "error"
    },
    {
      "inputs": [],
      "name": "CFA__StableSZT_BurnOperationFailed",
      "type": "error"
    },
    {
      "inputs": [],
      "name": "CFA__SubCategoryNotActiveError",
      "type": "error"
    },
    {
      "inputs": [],
      "name": "CFA__TransactionFailedError",
      "type": "error"
    },
    {
      "anonymous": false,
      "inputs": [
        {
          "indexed": false,
          "internalType": "uint8",
          "name": "version",
          "type": "uint8"
        }
      ],
      "name": "Initialized",
      "type": "event"
    },
    {
      "anonymous": false,
      "inputs": [
        {
          "indexed": false,
          "internalType": "address",
          "name": "account",
          "type": "address"
        }
      ],
      "name": "Paused",
      "type": "event"
    },
    {
      "anonymous": false,
      "inputs": [
        {
          "indexed": true,
          "internalType": "bytes32",
          "name": "role",
          "type": "bytes32"
        },
        {
          "indexed": true,
          "internalType": "bytes32",
          "name": "previousAdminRole",
          "type": "bytes32"
        },
        {
          "indexed": true,
          "internalType": "bytes32",
          "name": "newAdminRole",
          "type": "bytes32"
        }
      ],
      "name": "RoleAdminChanged",
      "type": "event"
    },
    {
      "anonymous": false,
      "inputs": [
        {
          "indexed": true,
          "internalType": "bytes32",
          "name": "role",
          "type": "bytes32"
        },
        {
          "indexed": true,
          "internalType": "address",
          "name": "account",
          "type": "address"
        },
        {
          "indexed": true,
          "internalType": "address",
          "name": "sender",
          "type": "address"
        }
      ],
      "name": "RoleGranted",
      "type": "event"
    },
    {
      "anonymous": false,
      "inputs": [
        {
          "indexed": true,
          "internalType": "bytes32",
          "name": "role",
          "type": "bytes32"
        },
        {
          "indexed": true,
          "internalType": "address",
          "name": "account",
          "type": "address"
        },
        {
          "indexed": true,
          "internalType": "address",
          "name": "sender",
          "type": "address"
        }
      ],
      "name": "RoleRevoked",
      "type": "event"
    },
    {
      "anonymous": false,
      "inputs": [
        {
          "indexed": false,
          "internalType": "address",
          "name": "account",
          "type": "address"
        }
      ],
      "name": "Unpaused",
      "type": "event"
    },
    {
      "anonymous": false,
      "inputs": [],
      "name": "UpdatedMaxInsuredDays",
      "type": "event"
    },
    {
      "anonymous": false,
      "inputs": [],
      "name": "UpdatedMinimumInsurancePeriod",
      "type": "event"
    },
    {
      "anonymous": false,
      "inputs": [],
      "name": "UpdatedStartWaitingTime",
      "type": "event"
    },
    {
      "inputs": [],
      "name": "DEFAULT_ADMIN_ROLE",
      "outputs": [
        {
          "internalType": "bytes32",
          "name": "",
          "type": "bytes32"
        }
      ],
      "stateMutability": "view",
      "type": "function"
    },
    {
      "inputs": [
        {
          "internalType": "address",
          "name": "owner",
          "type": "address"
        }
      ],
      "name": "__BaseUpgradeablePausable_init",
      "outputs": [],
      "stateMutability": "nonpayable",
      "type": "function"
    },
    {
      "inputs": [
        {
          "internalType": "uint256",
          "name": "insuredAmount",
          "type": "uint256"
        },
        {
          "internalType": "uint256",
          "name": "categoryID",
          "type": "uint256"
        },
        {
          "internalType": "uint256",
          "name": "subCategoryID",
          "type": "uint256"
        },
        {
          "internalType": "uint256",
          "name": "deadline",
          "type": "uint256"
        },
        {
          "internalType": "uint8",
          "name": "permitV",
          "type": "uint8"
        },
        {
          "internalType": "bytes32",
          "name": "permitR",
          "type": "bytes32"
        },
        {
          "internalType": "bytes32",
          "name": "permitS",
          "type": "bytes32"
        }
      ],
      "name": "addInsuranceAmount",
      "outputs": [
        {
          "internalType": "bool",
          "name": "",
          "type": "bool"
        }
      ],
      "stateMutability": "nonpayable",
      "type": "function"
    },
    {
      "inputs": [
        {
          "internalType": "address",
          "name": "userAddress",
          "type": "address"
        },
        {
          "internalType": "uint256",
          "name": "categoryID",
          "type": "uint256"
        }
      ],
      "name": "calculateTotalFlowMade",
      "outputs": [
        {
          "internalType": "uint256",
          "name": "",
          "type": "uint256"
        }
      ],
      "stateMutability": "view",
      "type": "function"
    },
    {
      "inputs": [
        {
          "internalType": "address",
          "name": "userAddress",
          "type": "address"
        }
      ],
      "name": "calculateTotalFlowMade",
      "outputs": [
        {
          "internalType": "uint256",
          "name": "",
          "type": "uint256"
        }
      ],
      "stateMutability": "view",
      "type": "function"
    },
    {
      "inputs": [
        {
          "internalType": "address",
          "name": "userAddress",
          "type": "address"
        },
        {
          "internalType": "uint256",
          "name": "categoryID",
          "type": "uint256"
        }
      ],
      "name": "claimPremiumCategoryWise",
      "outputs": [
        {
          "internalType": "bool",
          "name": "",
          "type": "bool"
        }
      ],
      "stateMutability": "nonpayable",
      "type": "function"
    },
    {
      "inputs": [
        {
          "internalType": "address",
          "name": "userAddress",
          "type": "address"
        },
        {
          "internalType": "uint256",
          "name": "categoryID",
          "type": "uint256"
        },
        {
          "internalType": "uint256",
          "name": "subCategoryID",
          "type": "uint256"
        }
      ],
      "name": "claimSinglePremium",
      "outputs": [],
      "stateMutability": "nonpayable",
      "type": "function"
    },
    {
      "inputs": [
        {
          "internalType": "address",
          "name": "userAddress",
          "type": "address"
        },
        {
          "internalType": "uint256",
          "name": "categoryID",
          "type": "uint256"
        },
        {
          "internalType": "uint256",
          "name": "subCategoryCount",
          "type": "uint256"
        }
      ],
      "name": "findActivePremiumCost",
      "outputs": [
        {
          "internalType": "uint256[]",
          "name": "",
          "type": "uint256[]"
        }
      ],
      "stateMutability": "view",
      "type": "function"
    },
    {
      "inputs": [
        {
          "internalType": "uint256",
          "name": "insuredAmount",
          "type": "uint256"
        },
        {
          "internalType": "uint256",
          "name": "categoryID",
          "type": "uint256"
        },
        {
          "internalType": "uint256",
          "name": "subCategoryID",
          "type": "uint256"
        }
      ],
      "name": "getExpectedInsuranceCostAndDeadline",
      "outputs": [
        {
          "internalType": "uint256",
          "name": "",
          "type": "uint256"
        },
        {
          "internalType": "uint256",
          "name": "",
          "type": "uint256"
        }
      ],
      "stateMutability": "view",
      "type": "function"
    },
    {
      "inputs": [
        {
          "internalType": "address",
          "name": "_userAddress",
          "type": "address"
        }
      ],
      "name": "getGlobalUserInsuranceInfo",
      "outputs": [
        {
          "internalType": "uint256",
          "name": "",
          "type": "uint256"
        },
        {
          "internalType": "uint256",
          "name": "",
          "type": "uint256"
        }
      ],
      "stateMutability": "view",
      "type": "function"
    },
    {
      "inputs": [
        {
          "internalType": "address",
          "name": "userAddress",
          "type": "address"
        }
      ],
      "name": "getGlobalUserInsurancePremiumCost",
      "outputs": [
        {
          "internalType": "uint256",
          "name": "",
          "type": "uint256"
        }
      ],
      "stateMutability": "view",
      "type": "function"
    },
    {
      "inputs": [
        {
          "internalType": "bytes32",
          "name": "role",
          "type": "bytes32"
        }
      ],
      "name": "getRoleAdmin",
      "outputs": [
        {
          "internalType": "bytes32",
          "name": "",
          "type": "bytes32"
        }
      ],
      "stateMutability": "view",
      "type": "function"
    },
    {
      "inputs": [
        {
          "internalType": "address",
          "name": "userAddress",
          "type": "address"
        },
        {
          "internalType": "uint256",
          "name": "categoryID",
          "type": "uint256"
        },
        {
          "internalType": "uint256",
          "name": "subCategoryID",
          "type": "uint256"
        }
      ],
      "name": "getUserInsuranceInfo",
      "outputs": [
        {
          "internalType": "uint256",
          "name": "",
          "type": "uint256"
        },
        {
          "internalType": "uint256",
          "name": "",
          "type": "uint256"
        },
        {
          "internalType": "uint256",
          "name": "",
          "type": "uint256"
        },
        {
          "internalType": "uint256",
          "name": "",
          "type": "uint256"
        },
        {
          "internalType": "uint256",
          "name": "",
          "type": "uint256"
        },
        {
          "internalType": "bool",
          "name": "",
          "type": "bool"
        }
      ],
      "stateMutability": "view",
      "type": "function"
    },
    {
      "inputs": [
        {
          "internalType": "address",
          "name": "userAddress",
          "type": "address"
        },
        {
          "internalType": "uint256",
          "name": "categoryID",
          "type": "uint256"
        },
        {
          "internalType": "uint256",
          "name": "subCategoryID",
          "type": "uint256"
        }
      ],
      "name": "getUserInsuranceStatus",
      "outputs": [
        {
          "internalType": "bool",
          "name": "",
          "type": "bool"
        }
      ],
      "stateMutability": "view",
      "type": "function"
    },
    {
      "inputs": [
        {
          "internalType": "address",
          "name": "userAddress",
          "type": "address"
        },
        {
          "internalType": "uint256",
          "name": "categoryID",
          "type": "uint256"
        },
        {
          "internalType": "uint256",
          "name": "subCategoryID",
          "type": "uint256"
        }
      ],
      "name": "getUserInsuranceValidTillInfo",
      "outputs": [
        {
          "internalType": "uint256",
          "name": "",
          "type": "uint256"
        }
      ],
      "stateMutability": "view",
      "type": "function"
    },
    {
      "inputs": [
        {
          "internalType": "address",
          "name": "userAddress",
          "type": "address"
        },
        {
          "internalType": "uint256",
          "name": "categoryID",
          "type": "uint256"
        },
        {
          "internalType": "uint256",
          "name": "subCategoryID",
          "type": "uint256"
        }
      ],
      "name": "getUserInsuredAmount",
      "outputs": [
        {
          "internalType": "uint256",
          "name": "",
          "type": "uint256"
        }
      ],
      "stateMutability": "view",
      "type": "function"
    },
    {
      "inputs": [],
      "name": "globalPauseOperation",
      "outputs": [
        {
          "internalType": "contract IGlobalPauseOperation",
          "name": "",
          "type": "address"
        }
      ],
      "stateMutability": "view",
      "type": "function"
    },
    {
      "inputs": [
        {
          "internalType": "bytes32",
          "name": "role",
          "type": "bytes32"
        },
        {
          "internalType": "address",
          "name": "account",
          "type": "address"
        }
      ],
      "name": "grantRole",
      "outputs": [],
      "stateMutability": "nonpayable",
      "type": "function"
    },
    {
      "inputs": [
        {
          "internalType": "bytes32",
          "name": "role",
          "type": "bytes32"
        },
        {
          "internalType": "address",
          "name": "account",
          "type": "address"
        }
      ],
      "name": "hasRole",
      "outputs": [
        {
          "internalType": "bool",
          "name": "",
          "type": "bool"
        }
      ],
      "stateMutability": "view",
      "type": "function"
    },
    {
      "inputs": [],
      "name": "ifNotPaused",
      "outputs": [],
      "stateMutability": "view",
      "type": "function"
    },
    {
      "inputs": [
        {
          "internalType": "address",
          "name": "addressDAI",
          "type": "address"
        },
        {
          "internalType": "address",
          "name": "addressStableSZT",
          "type": "address"
        },
        {
          "internalType": "address",
          "name": "addressInsuranceRegistry",
          "type": "address"
        },
        {
          "internalType": "address",
          "name": "addressGlobalPauseOperation",
          "type": "address"
        },
        {
          "internalType": "uint256",
          "name": "minimumInsurancePeriod_",
          "type": "uint256"
        },
        {
          "internalType": "uint256",
          "name": "startWaitingTime_",
          "type": "uint256"
        },
        {
          "internalType": "uint256",
          "name": "maxInsuredDays_",
          "type": "uint256"
        }
      ],
      "name": "initialize",
      "outputs": [
        {
          "internalType": "bool",
          "name": "",
          "type": "bool"
        }
      ],
      "stateMutability": "nonpayable",
      "type": "function"
    },
    {
      "inputs": [],
      "name": "insuranceRegistry",
      "outputs": [
        {
          "internalType": "contract IInsuranceRegistry",
          "name": "",
          "type": "address"
        }
      ],
      "stateMutability": "view",
      "type": "function"
    },
    {
      "inputs": [],
      "name": "isAdmin",
      "outputs": [
        {
          "internalType": "bool",
          "name": "",
          "type": "bool"
        }
      ],
      "stateMutability": "view",
      "type": "function"
    },
    {
      "inputs": [],
      "name": "isModerator",
      "outputs": [
        {
          "internalType": "bool",
          "name": "",
          "type": "bool"
        }
      ],
      "stateMutability": "view",
      "type": "function"
    },
    {
      "inputs": [],
      "name": "maxInsuredDays",
      "outputs": [
        {
          "internalType": "uint256",
          "name": "",
          "type": "uint256"
        }
      ],
      "stateMutability": "view",
      "type": "function"
    },
    {
      "inputs": [],
      "name": "minimumInsurancePeriod",
      "outputs": [
        {
          "internalType": "uint256",
          "name": "",
          "type": "uint256"
        }
      ],
      "stateMutability": "view",
      "type": "function"
    },
    {
      "inputs": [
        {
          "internalType": "uint256",
          "name": "insuredAmount",
          "type": "uint256"
        },
        {
          "internalType": "uint256",
          "name": "categoryID",
          "type": "uint256"
        },
        {
          "internalType": "uint256",
          "name": "subCategoryID",
          "type": "uint256"
        },
        {
          "internalType": "uint256",
          "name": "deadline",
          "type": "uint256"
        },
        {
          "internalType": "uint8",
          "name": "permitV",
          "type": "uint8"
        },
        {
          "internalType": "bytes32",
          "name": "permitR",
          "type": "bytes32"
        },
        {
          "internalType": "bytes32",
          "name": "permitS",
          "type": "bytes32"
        },
        {
          "internalType": "bool",
          "name": "closeStream",
          "type": "bool"
        }
      ],
      "name": "minusInsuranceAmount",
      "outputs": [
        {
          "internalType": "bool",
          "name": "",
          "type": "bool"
        }
      ],
      "stateMutability": "nonpayable",
      "type": "function"
    },
    {
      "inputs": [],
      "name": "pause",
      "outputs": [],
      "stateMutability": "nonpayable",
      "type": "function"
    },
    {
      "inputs": [],
      "name": "paused",
      "outputs": [
        {
          "internalType": "bool",
          "name": "",
          "type": "bool"
        }
      ],
      "stateMutability": "view",
      "type": "function"
    },
    {
      "inputs": [
        {
          "internalType": "bytes32",
          "name": "role",
          "type": "bytes32"
        },
        {
          "internalType": "address",
          "name": "account",
          "type": "address"
        }
      ],
      "name": "renounceRole",
      "outputs": [],
      "stateMutability": "nonpayable",
      "type": "function"
    },
    {
      "inputs": [
        {
          "internalType": "bytes32",
          "name": "role",
          "type": "bytes32"
        },
        {
          "internalType": "address",
          "name": "account",
          "type": "address"
        }
      ],
      "name": "revokeRole",
      "outputs": [],
      "stateMutability": "nonpayable",
      "type": "function"
    },
    {
      "inputs": [],
      "name": "startWaitingTime",
      "outputs": [
        {
          "internalType": "uint256",
          "name": "",
          "type": "uint256"
        }
      ],
      "stateMutability": "view",
      "type": "function"
    },
    {
      "inputs": [
        {
          "internalType": "bytes4",
          "name": "interfaceId",
          "type": "bytes4"
        }
      ],
      "name": "supportsInterface",
      "outputs": [
        {
          "internalType": "bool",
          "name": "",
          "type": "bool"
        }
      ],
      "stateMutability": "view",
      "type": "function"
    },
    {
      "inputs": [],
      "name": "tokenDAI",
      "outputs": [
        {
          "internalType": "contract IERC20Upgradeable",
          "name": "",
          "type": "address"
        }
      ],
      "stateMutability": "view",
      "type": "function"
    },
    {
      "inputs": [],
      "name": "tokenPermitStableSZT",
      "outputs": [
        {
          "internalType": "contract IERC20PermitUpgradeable",
          "name": "",
          "type": "address"
        }
      ],
      "stateMutability": "view",
      "type": "function"
    },
    {
      "inputs": [],
      "name": "tokenStableSZT",
      "outputs": [
        {
          "internalType": "contract IERC20Extended",
          "name": "",
          "type": "address"
        }
      ],
      "stateMutability": "view",
      "type": "function"
    },
    {
      "inputs": [],
      "name": "unpause",
      "outputs": [],
      "stateMutability": "nonpayable",
      "type": "function"
    },
    {
      "inputs": [
        {
          "internalType": "uint256",
          "name": "timeInDays",
          "type": "uint256"
        }
      ],
      "name": "updateMaxInsuredDays",
      "outputs": [],
      "stateMutability": "nonpayable",
      "type": "function"
    },
    {
      "inputs": [
        {
          "internalType": "uint256",
          "name": "timeInMinutes",
          "type": "uint256"
        }
      ],
      "name": "updateMinimumInsurancePeriod",
      "outputs": [],
      "stateMutability": "nonpayable",
      "type": "function"
    },
    {
      "inputs": [
        {
          "internalType": "uint256",
          "name": "timeInHours",
          "type": "uint256"
        }
      ],
      "name": "updateStartWaitingTime",
      "outputs": [],
      "stateMutability": "nonpayable",
      "type": "function"
    },
    {
      "inputs": [
        {
          "internalType": "address",
          "name": "",
          "type": "address"
        }
      ],
      "name": "usersGlobalInsuranceInfo",
      "outputs": [
        {
          "internalType": "uint256",
          "name": "validTill",
          "type": "uint256"
        },
        {
          "internalType": "uint256",
          "name": "insuranceStreamRate",
          "type": "uint256"
        },
        {
          "internalType": "uint256",
          "name": "globalInsuranceCost",
          "type": "uint256"
        }
      ],
      "stateMutability": "view",
      "type": "function"
    },
    {
      "inputs": [
        {
          "internalType": "address",
          "name": "",
          "type": "address"
        },
        {
          "internalType": "uint256",
          "name": "",
          "type": "uint256"
        },
        {
          "internalType": "uint256",
          "name": "",
          "type": "uint256"
        }
      ],
      "name": "usersInsuranceInfo",
      "outputs": [
        {
          "internalType": "bool",
          "name": "isValid",
          "type": "bool"
        },
        {
          "internalType": "uint256",
          "name": "startTime",
          "type": "uint256"
        },
        {
          "internalType": "uint256",
          "name": "validTill",
          "type": "uint256"
        },
        {
          "internalType": "uint256",
          "name": "insuranceCost",
          "type": "uint256"
        },
        {
          "internalType": "uint256",
          "name": "insuredAmount",
          "type": "uint256"
        },
        {
          "internalType": "uint256",
          "name": "registrationTime",
          "type": "uint256"
        },
        {
          "internalType": "uint256",
          "name": "insuranceFlowRate",
          "type": "uint256"
        }
      ],
      "stateMutability": "view",
      "type": "function"
    }
  ],
  "bytecode": "0x608060405234801561001057600080fd5b50614f5a806100206000396000f3fe608060405234801561001057600080fd5b506004361061025e5760003560e01c806370385b3711610146578063b4706268116100c3578063d547741f11610087578063d547741f14610767578063d996748514610783578063e77fc7a4146107a1578063e8067356146107d1578063ec24916414610807578063ef4e52d5146108385761025e565b8063b4706268146106af578063b6db75a0146106cb578063c392e850146106e9578063cea8b27f14610719578063cff5eede146107375761025e565b806388295fb21161010a57806388295fb2146105de57806391d1485414610613578063a217fddf14610643578063ad09c2a114610661578063aeabaff3146106915761025e565b806370385b37146105395780637048909e14610555578063734bf2c71461057357806381280d2b146105a45780638456cb59146105d45761025e565b80634d868f98116101df5780635e6cc28b116101a35780635e6cc28b1461044f57806362465b051461047f57806364063fdf1461049d578063671b4afd146104bb5780636b6d105e146104ed5780636e810b1a1461051d5761025e565b80634d868f98146103bd5780634e94c048146103c75780634ec212f2146103f757806356eb66bb146104155780635c975abb146104315761025e565b806324b7ab241161022657806324b7ab241461032f5780632f2ff15d1461034b57806336568abe146103675780633f4ba83a1461038357806342f6b8a71461038d5761025e565b806301ffc9a714610263578063023b15aa14610293578063091be6bd146102b15780631a5c8f28146102cf578063248a9ca3146102ff575b600080fd5b61027d60048036038101906102789190613bc3565b610868565b60405161028a9190613c0b565b60405180910390f35b61029b6108e2565b6040516102a89190613c3f565b60405180910390f35b6102b96108e8565b6040516102c69190613c3f565b60405180910390f35b6102e960048036038101906102e49190613ce4565b6108ee565b6040516102f69190613df5565b60405180910390f35b61031960048036038101906103149190613e4d565b610b11565b6040516103269190613e89565b60405180910390f35b61034960048036038101906103449190613ea4565b610b31565b005b61036560048036038101906103609190613ed1565b610bbb565b005b610381600480360381019061037c9190613ed1565b610bdc565b005b61038b610c5f565b005b6103a760048036038101906103a29190613f11565b610cb0565b6040516103b49190613c3f565b60405180910390f35b6103c5610d2b565b005b6103e160048036038101906103dc9190613f3e565b610e05565b6040516103ee9190613c3f565b60405180910390f35b6103ff610fbc565b60405161040c9190613fdd565b60405180910390f35b61042f600480360381019061042a9190613ea4565b610fe3565b005b61043961106b565b6040516104469190613c0b565b60405180910390f35b61046960048036038101906104649190613f3e565b611082565b6040516104769190613c0b565b60405180910390f35b61048761115a565b6040516104949190613c3f565b60405180910390f35b6104a5611160565b6040516104b29190614019565b60405180910390f35b6104d560048036038101906104d09190613f11565b611187565b6040516104e493929190614034565b60405180910390f35b61050760048036038101906105029190613ce4565b6111b2565b6040516105149190613c3f565b60405180910390f35b61053760048036038101906105329190613f11565b611223565b005b610553600480360381019061054e9190613ce4565b611345565b005b61055d611430565b60405161056a919061408c565b60405180910390f35b61058d600480360381019061058891906140a7565b611456565b60405161059b9291906140fa565b60405180910390f35b6105be60048036038101906105b99190613ce4565b6116e0565b6040516105cb9190613c0b565b60405180910390f35b6105dc61175e565b005b6105f860048036038101906105f39190613ce4565b6117af565b60405161060a96959493929190614123565b60405180910390f35b61062d60048036038101906106289190613ed1565b6118b7565b60405161063a9190613c0b565b60405180910390f35b61064b611922565b6040516106589190613e89565b60405180910390f35b61067b600480360381019061067691906141bd565b611929565b6040516106889190613c0b565b60405180910390f35b6106996119b8565b6040516106a69190613c0b565b60405180910390f35b6106c960048036038101906106c49190613ea4565b6119d7565b005b6106d3611a62565b6040516106e09190613c0b565b60405180910390f35b61070360048036038101906106fe9190613ce4565b611a81565b6040516107109190613c3f565b60405180910390f35b610721611af2565b60405161072e9190614280565b60405180910390f35b610751600480360381019061074c9190613f11565b611b18565b60405161075e9190613c3f565b60405180910390f35b610781600480360381019061077c9190613ed1565b611d95565b005b61078b611db6565b60405161079891906142bc565b60405180910390f35b6107bb60048036038101906107b691906142d7565b611ddd565b6040516107c89190613c0b565b60405180910390f35b6107eb60048036038101906107e69190613ce4565b6120b3565b6040516107fe9796959493929190614379565b60405180910390f35b610821600480360381019061081c9190613f11565b61211d565b60405161082f9291906140fa565b60405180910390f35b610852600480360381019061084d9190614414565b6121a1565b60405161085f9190613c0b565b60405180910390f35b60007f7965db0b000000000000000000000000000000000000000000000000000000007bffffffffffffffffffffffffffffffffffffffffffffffffffffffff1916827bffffffffffffffffffffffffffffffffffffffffffffffffffffffff191614806108db57506108da82612232565b5b9050919050565b60fc5481565b60fd5481565b60606000805b838110156109ed57600061010460008873ffffffffffffffffffffffffffffffffffffffff1673ffffffffffffffffffffffffffffffffffffffff168152602001908152602001600020600087815260200190815260200160002060008381526020019081526020016000206040518060e00160405290816000820160009054906101000a900460ff16151515158152602001600182015481526020016002820154815260200160038201548152602001600482015481526020016005820154815260200160068201548152505090508060000151156109db57826109d8906144f9565b92505b816109e5906144f9565b9150506108f4565b5060008167ffffffffffffffff811115610a0a57610a09614541565b5b604051908082528060200260200182016040528015610a385781602001602082028036833780820191505090505b5090506000805b85811015610b0357600061010460008a73ffffffffffffffffffffffffffffffffffffffff1673ffffffffffffffffffffffffffffffffffffffff1681526020019081526020016000206000898152602001908152602001600020600083815260200190815260200160002090508060000160009054906101000a900460ff1615610af15781848481518110610ad857610ad7614570565b5b60200260200101818152505082610aee906144f9565b92505b81610afb906144f9565b915050610a3f565b508193505050509392505050565b600060976000838152602001908152602001600020600101549050919050565b610b39611a62565b610b78576040517f08c379a0000000000000000000000000000000000000000000000000000000008152600401610b6f90614622565b60405180910390fd5b610e1081610b869190614642565b60fc819055507f75c07eb064b8ccf959bcc601b55315ca198e67b597dc0a7b93e130f8ca779a6760405160405180910390a150565b610bc482610b11565b610bcd8161229c565b610bd783836122b0565b505050565b610be4612391565b73ffffffffffffffffffffffffffffffffffffffff168173ffffffffffffffffffffffffffffffffffffffff1614610c51576040517f08c379a0000000000000000000000000000000000000000000000000000000008152600401610c489061470e565b60405180910390fd5b610c5b8282612399565b5050565b610c67611a62565b610ca6576040517f08c379a0000000000000000000000000000000000000000000000000000000008152600401610c9d90614622565b60405180910390fd5b610cae61247b565b565b60008061010360008473ffffffffffffffffffffffffffffffffffffffff1673ffffffffffffffffffffffffffffffffffffffff168152602001908152602001600020604051806060016040529081600082015481526020016001820154815260200160028201548152505090508060400151915050919050565b610d3361106b565b80610dcc575061010160009054906101000a900473ffffffffffffffffffffffffffffffffffffffff1673ffffffffffffffffffffffffffffffffffffffff1663b187bd266040518163ffffffff1660e01b8152600401602060405180830381865afa158015610da7573d6000803e3d6000fd5b505050506040513d601f19601f82011682018060405250810190610dcb9190614743565b5b15610e03576040517fae1de27a00000000000000000000000000000000000000000000000000000000815260040160405180910390fd5b565b600080600090506000610eb5858561010060009054906101000a900473ffffffffffffffffffffffffffffffffffffffff1673ffffffffffffffffffffffffffffffffffffffff16633bf4c082886040518263ffffffff1660e01b8152600401610e6f9190613c3f565b602060405180830381865afa158015610e8c573d6000803e3d6000fd5b505050506040513d601f19601f82011682018060405250810190610eb09190614785565b6108ee565b905060005b8151811015610fb057600061010460008873ffffffffffffffffffffffffffffffffffffffff1673ffffffffffffffffffffffffffffffffffffffff16815260200190815260200160002060008781526020019081526020016000206000848481518110610f2b57610f2a614570565b5b602002602001015181526020019081526020016000209050600081600101544211610f57576000610f7e565b81600201544211610f7757816001015442610f7291906147b2565b610f7d565b81600201545b5b9050808260060154610f909190614642565b85610f9b91906147e6565b945082610fa7906144f9565b92505050610eba565b50819250505092915050565b61010260009054906101000a900473ffffffffffffffffffffffffffffffffffffffff1681565b610feb611a62565b61102a576040517f08c379a000000000000000000000000000000000000000000000000000000000815260040161102190614622565b60405180910390fd5b603c816110379190614642565b60fd819055507e3a5a2424463bb22c8fc4c0f2422b7a18712b7713f9619caa313f499fad615e60405160405180910390a150565b6000603360009054906101000a900460ff16905090565b60008061010060009054906101000a900473ffffffffffffffffffffffffffffffffffffffff1673ffffffffffffffffffffffffffffffffffffffff1663754e6e79846040518263ffffffff1660e01b81526004016110e19190613c3f565b602060405180830381865afa1580156110fe573d6000803e3d6000fd5b505050506040513d601f19601f820116820180604052508101906111229190614785565b90506000600190505b81811161114e5761113d858583611345565b80611147906144f9565b905061112b565b50600191505092915050565b60fb5481565b61010160009054906101000a900473ffffffffffffffffffffffffffffffffffffffff1681565b6101036020528060005260406000206000915090508060000154908060010154908060020154905083565b600061010460008573ffffffffffffffffffffffffffffffffffffffff1673ffffffffffffffffffffffffffffffffffffffff168152602001908152602001600020600084815260200190815260200160002060008381526020019081526020016000206004015490509392505050565b600060019054906101000a900460ff16611272576040517f08c379a00000000000000000000000000000000000000000000000000000000081526004016112699061488c565b60405180910390fd5b600073ffffffffffffffffffffffffffffffffffffffff168173ffffffffffffffffffffffffffffffffffffffff16036112d8576040517f5415139400000000000000000000000000000000000000000000000000000000815260040160405180910390fd5b6112e06124de565b6112e8612537565b6112f0612588565b6113016112fb6125e1565b826122b0565b61131261130c612609565b826122b0565b61132a61131d612609565b6113256125e1565b612631565b6113426113356125e1565b61133d6125e1565b612631565b50565b4261010460008573ffffffffffffffffffffffffffffffffffffffff1673ffffffffffffffffffffffffffffffffffffffff168152602001908152602001600020600084815260200190815260200160002060008381526020019081526020016000206002015411156113e4576040517f707001b500000000000000000000000000000000000000000000000000000000815260040160405180910390fd5b60006113f184848461268d565b90508061142a576040517f33fce75b00000000000000000000000000000000000000000000000000000000815260040160405180910390fd5b50505050565b60ff60009054906101000a900473ffffffffffffffffffffffffffffffffffffffff1681565b60008060006101036000611468612391565b73ffffffffffffffffffffffffffffffffffffffff1673ffffffffffffffffffffffffffffffffffffffff168152602001908152602001600020604051806060016040529081600082015481526020016001820154815260200160028201548152505090506000816040015160ff60009054906101000a900473ffffffffffffffffffffffffffffffffffffffff1673ffffffffffffffffffffffffffffffffffffffff166370a0823161151a612391565b6040518263ffffffff1660e01b815260040161153691906148bb565b602060405180830381865afa158015611553573d6000803e3d6000fd5b505050506040513d601f19601f820116820180604052508101906115779190614785565b61158191906147b2565b90506000670de0b6b3a76400008861010060009054906101000a900473ffffffffffffffffffffffffffffffffffffffff1673ffffffffffffffffffffffffffffffffffffffff16635952a8c68a8a6040518363ffffffff1660e01b81526004016115ed9291906140fa565b602060405180830381865afa15801561160a573d6000803e3d6000fd5b505050506040513d601f19601f8201168201806040525081019061162e9190614785565b6116389190614642565b6116429190614905565b9050600081836116529190614905565b9050600060fb54821061167f5760fb5460fc544261167091906147e6565b61167a91906147e6565b611699565b8160fc544261168e91906147e6565b61169891906147e6565b5b9050600083826116a99190614642565b9050600062278d0060fb54426116bf91906147e6565b6116c991906147e6565b905081819850985050505050505050935093915050565b600061010460008573ffffffffffffffffffffffffffffffffffffffff1673ffffffffffffffffffffffffffffffffffffffff1681526020019081526020016000206000848152602001908152602001600020600083815260200190815260200160002060000160009054906101000a900460ff1690509392505050565b611766611a62565b6117a5576040517f08c379a000000000000000000000000000000000000000000000000000000000815260040161179c90614622565b60405180910390fd5b6117ad612a4f565b565b600080600080600080600061010460008b73ffffffffffffffffffffffffffffffffffffffff1673ffffffffffffffffffffffffffffffffffffffff16815260200190815260200160002060008a815260200190815260200160002060008981526020019081526020016000206040518060e00160405290816000820160009054906101000a900460ff161515151581526020016001820154815260200160028201548152602001600382015481526020016004820154815260200160058201548152602001600682015481525050905080608001518160c001518260a001518360200151846040015185600001519650965096509650965096505093975093979195509350565b60006097600084815260200190815260200160002060000160008373ffffffffffffffffffffffffffffffffffffffff1673ffffffffffffffffffffffffffffffffffffffff16815260200190815260200160002060009054906101000a900460ff16905092915050565b6000801b81565b6000611933612ab2565b600062278d0060fb544261194791906147e6565b61195191906147e6565b90508086101561198d576040517fb00fcb1e00000000000000000000000000000000000000000000000000000000815260040160405180910390fd5b600061199e8a8a8a8a8a8a8a612b01565b905080925050506119ad612d06565b979650505050505050565b60006119d26119c5612609565b6119cd612391565b6118b7565b905090565b6119df611a62565b611a1e576040517f08c379a0000000000000000000000000000000000000000000000000000000008152600401611a1590614622565b60405180910390fd5b6201518081611a2d9190614642565b60fb819055507fdb4fb2fd6b8b90f67bda8671842d5cab4eb4b7eba9683f5bcec9aba9473cc95760405160405180910390a150565b6000611a7c611a6f6125e1565b611a77612391565b6118b7565b905090565b600061010460008573ffffffffffffffffffffffffffffffffffffffff1673ffffffffffffffffffffffffffffffffffffffff168152602001908152602001600020600084815260200190815260200160002060008381526020019081526020016000206002015490509392505050565b60fe60009054906101000a900473ffffffffffffffffffffffffffffffffffffffff1681565b60008060009050600061010060009054906101000a900473ffffffffffffffffffffffffffffffffffffffff1673ffffffffffffffffffffffffffffffffffffffff1663b28917fe6040518163ffffffff1660e01b8152600401602060405180830381865afa158015611b8f573d6000803e3d6000fd5b505050506040513d601f19601f82011682018060405250810190611bb39190614785565b90506000600190505b818111611d8a57600080611c6d878461010060009054906101000a900473ffffffffffffffffffffffffffffffffffffffff1673ffffffffffffffffffffffffffffffffffffffff16633bf4c082876040518263ffffffff1660e01b8152600401611c279190613c3f565b602060405180830381865afa158015611c44573d6000803e3d6000fd5b505050506040513d601f19601f82011682018060405250810190611c689190614785565b6108ee565b905060005b8151811015611d6857600061010460008a73ffffffffffffffffffffffffffffffffffffffff1673ffffffffffffffffffffffffffffffffffffffff16815260200190815260200160002060008681526020019081526020016000206000848481518110611ce357611ce2614570565b5b602002602001015181526020019081526020016000209050600081600101544211611d0f576000611d36565b81600201544211611d2f57816001015442611d2a91906147b2565b611d35565b81600201545b5b9050808260060154611d489190614642565b85611d5391906147e6565b945082611d5f906144f9565b92505050611c72565b508185611d7591906147e6565b945082611d81906144f9565b92505050611bbc565b508192505050919050565b611d9e82610b11565b611da78161229c565b611db18383612399565b505050565b61010060009054906101000a900473ffffffffffffffffffffffffffffffffffffffff1681565b600080600060019054906101000a900460ff16159050808015611e105750600160008054906101000a900460ff1660ff16105b80611e3d5750611e1f30612d10565b158015611e3c5750600160008054906101000a900460ff1660ff16145b5b611e7c576040517f08c379a0000000000000000000000000000000000000000000000000000000008152600401611e73906149a8565b60405180910390fd5b60016000806101000a81548160ff021916908360ff1602179055508015611eb9576001600060016101000a81548160ff0219169083151502179055505b603c83611ec69190614642565b60fb81905550603c84611ed99190614642565b60fc81905550603c85611eec9190614642565b60fd819055508860fe60006101000a81548173ffffffffffffffffffffffffffffffffffffffff021916908373ffffffffffffffffffffffffffffffffffffffff1602179055508760ff60006101000a81548173ffffffffffffffffffffffffffffffffffffffff021916908373ffffffffffffffffffffffffffffffffffffffff1602179055508761010260006101000a81548173ffffffffffffffffffffffffffffffffffffffff021916908373ffffffffffffffffffffffffffffffffffffffff1602179055508661010060006101000a81548173ffffffffffffffffffffffffffffffffffffffff021916908373ffffffffffffffffffffffffffffffffffffffff1602179055508561010160006101000a81548173ffffffffffffffffffffffffffffffffffffffff021916908373ffffffffffffffffffffffffffffffffffffffff16021790555061204a612045612391565b611223565b6001915080156120a75760008060016101000a81548160ff0219169083151502179055507f7f26b83ff96e1f2b6a682f133852f6798a09c465da95921460cefb3847402498600160405161209e9190614a03565b60405180910390a15b50979650505050505050565b61010460205282600052604060002060205281600052604060002060205280600052604060002060009250925050508060000160009054906101000a900460ff16908060010154908060020154908060030154908060040154908060050154908060060154905087565b600080600061010360008573ffffffffffffffffffffffffffffffffffffffff1673ffffffffffffffffffffffffffffffffffffffff16815260200190815260200160002060405180606001604052908160008201548152602001600182015481526020016002820154815250509050806020015181600001519250925050915091565b60006121ab612ab2565b600062278d0060fb54426121bf91906147e6565b6121c991906147e6565b905080871015612205576040517fb00fcb1e00000000000000000000000000000000000000000000000000000000815260040160405180910390fd5b60006122178b8b8b8b8b8b8b8b612d33565b90508092505050612226612d06565b98975050505050505050565b60007f01ffc9a7000000000000000000000000000000000000000000000000000000007bffffffffffffffffffffffffffffffffffffffffffffffffffffffff1916827bffffffffffffffffffffffffffffffffffffffffffffffffffffffff1916149050919050565b6122ad816122a8612391565b612f70565b50565b6122ba82826118b7565b61238d5760016097600084815260200190815260200160002060000160008373ffffffffffffffffffffffffffffffffffffffff1673ffffffffffffffffffffffffffffffffffffffff16815260200190815260200160002060006101000a81548160ff021916908315150217905550612332612391565b73ffffffffffffffffffffffffffffffffffffffff168173ffffffffffffffffffffffffffffffffffffffff16837f2f8788117e7eff1d82e926ec794901d17c78024a50270940304540a733656f0d60405160405180910390a45b5050565b600033905090565b6123a382826118b7565b156124775760006097600084815260200190815260200160002060000160008373ffffffffffffffffffffffffffffffffffffffff1673ffffffffffffffffffffffffffffffffffffffff16815260200190815260200160002060006101000a81548160ff02191690831515021790555061241c612391565b73ffffffffffffffffffffffffffffffffffffffff168173ffffffffffffffffffffffffffffffffffffffff16837ff6391f5c32d9c69d2a47ea670b442974b53935d1edc7fd64eb21e047a839171b60405160405180910390a45b5050565b612483612ff5565b6000603360006101000a81548160ff0219169083151502179055507f5db9ee0a495bf2e6ff9c91a7834c1ba4fdd244a5e8aa4e537bd38aeae4b073aa6124c7612391565b6040516124d491906148bb565b60405180910390a1565b600060019054906101000a900460ff1661252d576040517f08c379a00000000000000000000000000000000000000000000000000000000081526004016125249061488c565b60405180910390fd5b61253561303e565b565b600060019054906101000a900460ff16612586576040517f08c379a000000000000000000000000000000000000000000000000000000000815260040161257d9061488c565b60405180910390fd5b565b600060019054906101000a900460ff166125d7576040517f08c379a00000000000000000000000000000000000000000000000000000000081526004016125ce9061488c565b60405180910390fd5b6125df6130aa565b565b60007fa49807205ce4d355092ef5a8a18f56e8913cf4a201fbe287825b095693c21775905090565b60007f65d7a28e3265b37a6474929f336521b332c1681b933f6cb9f3376673440d862a905090565b600061263c83610b11565b90508160976000858152602001908152602001600020600101819055508181847fbd79b86ffe0ab8e8776151514217cd7cacd52c909f66475c3af44e129f0b00ff60405160405180910390a4505050565b60008061010460008673ffffffffffffffffffffffffffffffffffffffff1673ffffffffffffffffffffffffffffffffffffffff1681526020019081526020016000206000858152602001908152602001600020600084815260200190815260200160002090508060000160009054906101000a900460ff1661273c576040517f96ae3e8200000000000000000000000000000000000000000000000000000000815260040160405180910390fd5b60008160000160006101000a81548160ff02191690831515021790555060008160010154421161276d576000612794565b8160020154421161278d5781600101544261278891906147b2565b612793565b81600201545b5b905060008260060154826127a89190614642565b9050826006015461010360008973ffffffffffffffffffffffffffffffffffffffff1673ffffffffffffffffffffffffffffffffffffffff168152602001908152602001600020600101600082825461280191906147b2565b92505081905550826003015461010360008973ffffffffffffffffffffffffffffffffffffffff1673ffffffffffffffffffffffffffffffffffffffff168152602001908152602001600020600201600082825461285f91906147b2565b92505081905550600083600601549050600084600401549050600083111561295e57600060ff60009054906101000a900473ffffffffffffffffffffffffffffffffffffffff1673ffffffffffffffffffffffffffffffffffffffff166379cc67908b866040518363ffffffff1660e01b81526004016128e0929190614a1e565b6020604051808303816000875af11580156128ff573d6000803e3d6000fd5b505050506040513d601f19601f820116820180604052508101906129239190614743565b90508061295c576040517f0842e2f000000000000000000000000000000000000000000000000000000000815260040160405180910390fd5b505b600061010060009054906101000a900473ffffffffffffffffffffffffffffffffffffffff1673ffffffffffffffffffffffffffffffffffffffff166326a6e9eb8a8a85876040518563ffffffff1660e01b81526004016129c29493929190614a47565b6020604051808303816000875af11580156129e1573d6000803e3d6000fd5b505050506040513d601f19601f82011682018060405250810190612a059190614743565b905080612a3e576040517f0e6c0e4f00000000000000000000000000000000000000000000000000000000815260040160405180910390fd5b600196505050505050509392505050565b612a57613103565b6001603360006101000a81548160ff0219169083151502179055507f62e78cea01bee320cd4e420270b5ea74000d11b0c9f74754ebdbfc544b05a258612a9b612391565b604051612aa891906148bb565b60405180910390a1565b600260c95403612af7576040517f08c379a0000000000000000000000000000000000000000000000000000000008152600401612aee90614ad8565b60405180910390fd5b600260c981905550565b600080886101046000612b12612391565b73ffffffffffffffffffffffffffffffffffffffff1673ffffffffffffffffffffffffffffffffffffffff16815260200190815260200160002060008a8152602001908152602001600020600089815260200190815260200160002060040154612b7c91906147e6565b90506101046000612b8b612391565b73ffffffffffffffffffffffffffffffffffffffff1673ffffffffffffffffffffffffffffffffffffffff1681526020019081526020016000206000898152602001908152602001600020600088815260200190815260200160002060000160009054906101000a900460ff1615612c4c576000612c11612c0a612391565b8a8a61268d565b905080612c4a576040517fb00fcb1e00000000000000000000000000000000000000000000000000000000815260040160405180910390fd5b505b600080612c5a838b8b61314d565b9150915081612c95576040517fb00fcb1e00000000000000000000000000000000000000000000000000000000815260040160405180910390fd5b612cf4612ca0612391565b30838b8b8b8b61010260009054906101000a900473ffffffffffffffffffffffffffffffffffffffff1673ffffffffffffffffffffffffffffffffffffffff1661373090979695949392919063ffffffff16565b60019350505050979650505050505050565b600160c981905550565b6000808273ffffffffffffffffffffffffffffffffffffffff163b119050919050565b60006101046000612d42612391565b73ffffffffffffffffffffffffffffffffffffffff1673ffffffffffffffffffffffffffffffffffffffff1681526020019081526020016000206000898152602001908152602001600020600088815260200190815260200160002060000160009054906101000a900460ff16612de5576040517f96ae3e8200000000000000000000000000000000000000000000000000000000815260040160405180910390fd5b6000612df9612df2612391565b8a8a61268d565b905080612e32576040517fb00fcb1e00000000000000000000000000000000000000000000000000000000815260040160405180910390fd5b82612f5f5760008a6101046000612e47612391565b73ffffffffffffffffffffffffffffffffffffffff1673ffffffffffffffffffffffffffffffffffffffff16815260200190815260200160002060008c815260200190815260200160002060008b815260200190815260200160002060040154612eb191906147b2565b9050600080612ec1838d8d61314d565b9150915081612efc576040517fb00fcb1e00000000000000000000000000000000000000000000000000000000815260040160405180910390fd5b612f5b612f07612391565b30838d8d8d8d61010260009054906101000a900473ffffffffffffffffffffffffffffffffffffffff1673ffffffffffffffffffffffffffffffffffffffff1661373090979695949392919063ffffffff16565b5050505b600191505098975050505050505050565b612f7a82826118b7565b612ff157612f87816138fd565b612f958360001c602061392a565b604051602001612fa6929190614c01565b6040516020818303038152906040526040517f08c379a0000000000000000000000000000000000000000000000000000000008152600401612fe89190614c85565b60405180910390fd5b5050565b612ffd61106b565b61303c576040517f08c379a000000000000000000000000000000000000000000000000000000000815260040161303390614cf3565b60405180910390fd5b565b600060019054906101000a900460ff1661308d576040517f08c379a00000000000000000000000000000000000000000000000000000000081526004016130849061488c565b60405180910390fd5b6000603360006101000a81548160ff021916908315150217905550565b600060019054906101000a900460ff166130f9576040517f08c379a00000000000000000000000000000000000000000000000000000000081526004016130f09061488c565b60405180910390fd5b600160c981905550565b61310b61106b565b1561314b576040517f08c379a000000000000000000000000000000000000000000000000000000000815260040161314290614d5f565b60405180910390fd5b565b60008061010060009054906101000a900473ffffffffffffffffffffffffffffffffffffffff1673ffffffffffffffffffffffffffffffffffffffff16635657f79d8587866040518463ffffffff1660e01b81526004016131b093929190614034565b602060405180830381865afa1580156131cd573d6000803e3d6000fd5b505050506040513d601f19601f820116820180604052508101906131f19190614743565b613227576040517f1e45d1b400000000000000000000000000000000000000000000000000000000815260040160405180910390fd5b6101046000613234612391565b73ffffffffffffffffffffffffffffffffffffffff1673ffffffffffffffffffffffffffffffffffffffff1681526020019081526020016000206000858152602001908152602001600020600084815260200190815260200160002060000160009054906101000a900460ff16156132d8576040517f707001b500000000000000000000000000000000000000000000000000000000815260040160405180910390fd5b600061010460006132e7612391565b73ffffffffffffffffffffffffffffffffffffffff1673ffffffffffffffffffffffffffffffffffffffff16815260200190815260200160002060008681526020019081526020016000206000858152602001908152602001600020905060006101036000613354612391565b73ffffffffffffffffffffffffffffffffffffffff1673ffffffffffffffffffffffffffffffffffffffff16815260200190815260200160002090506000816002015460ff60009054906101000a900473ffffffffffffffffffffffffffffffffffffffff1673ffffffffffffffffffffffffffffffffffffffff166370a082316133dd612391565b6040518263ffffffff1660e01b81526004016133f991906148bb565b602060405180830381865afa158015613416573d6000803e3d6000fd5b505050506040513d601f19601f8201168201806040525081019061343a9190614785565b61344491906147b2565b90506000670de0b6b3a76400008961010060009054906101000a900473ffffffffffffffffffffffffffffffffffffffff1673ffffffffffffffffffffffffffffffffffffffff16635952a8c68b8b6040518363ffffffff1660e01b81526004016134b09291906140fa565b602060405180830381865afa1580156134cd573d6000803e3d6000fd5b505050506040513d601f19601f820116820180604052508101906134f19190614785565b6134fb9190614642565b6135059190614905565b9050600081846001015461351991906147e6565b90508260fd548261352a9190614642565b1115613562576040517fe5dc532b00000000000000000000000000000000000000000000000000000000815260040160405180910390fd5b600082846135709190614905565b90508285600101600082825461358691906147e6565b925050819055508a866004018190555082866006018190555042866005018190555060fc54426135b691906147e6565b866001018190555060fb5481106135de5760fb5486600101546135d991906147e6565b6135ef565b8086600101546135ee91906147e6565b5b866002018190555082816136039190614642565b866003018190555060018660000160006101000a81548160ff021916908315150217905550856003015485600201600082825461364091906147e6565b925050819055508460000154866002015410613660578560020154613666565b84600001545b8560000181905550600061010060009054906101000a900473ffffffffffffffffffffffffffffffffffffffff1673ffffffffffffffffffffffffffffffffffffffff1663d9895c708c8c8f886040518563ffffffff1660e01b81526004016136d29493929190614a47565b6020604051808303816000875af11580156136f1573d6000803e3d6000fd5b505050506040513d601f19601f820116820180604052508101906137159190614743565b90508087600301549850985050505050505050935093915050565b60008873ffffffffffffffffffffffffffffffffffffffff16637ecebe00896040518263ffffffff1660e01b815260040161376b91906148bb565b602060405180830381865afa158015613788573d6000803e3d6000fd5b505050506040513d601f19601f820116820180604052508101906137ac9190614785565b90508873ffffffffffffffffffffffffffffffffffffffff1663d505accf898989898989896040518863ffffffff1660e01b81526004016137f39796959493929190614d8e565b600060405180830381600087803b15801561380d57600080fd5b505af1158015613821573d6000803e3d6000fd5b5050505060008973ffffffffffffffffffffffffffffffffffffffff16637ecebe008a6040518263ffffffff1660e01b815260040161386091906148bb565b602060405180830381865afa15801561387d573d6000803e3d6000fd5b505050506040513d601f19601f820116820180604052508101906138a19190614785565b90506001826138b091906147e6565b81146138f1576040517f08c379a00000000000000000000000000000000000000000000000000000000081526004016138e890614e6f565b60405180910390fd5b50505050505050505050565b60606139238273ffffffffffffffffffffffffffffffffffffffff16601460ff1661392a565b9050919050565b60606000600283600261393d9190614642565b61394791906147e6565b67ffffffffffffffff8111156139605761395f614541565b5b6040519080825280601f01601f1916602001820160405280156139925781602001600182028036833780820191505090505b5090507f3000000000000000000000000000000000000000000000000000000000000000816000815181106139ca576139c9614570565b5b60200101907effffffffffffffffffffffffffffffffffffffffffffffffffffffffffffff1916908160001a9053507f780000000000000000000000000000000000000000000000000000000000000081600181518110613a2e57613a2d614570565b5b60200101907effffffffffffffffffffffffffffffffffffffffffffffffffffffffffffff1916908160001a90535060006001846002613a6e9190614642565b613a7891906147e6565b90505b6001811115613b18577f3031323334353637383961626364656600000000000000000000000000000000600f861660108110613aba57613ab9614570565b5b1a60f81b828281518110613ad157613ad0614570565b5b60200101907effffffffffffffffffffffffffffffffffffffffffffffffffffffffffffff1916908160001a905350600485901c945080613b1190614e8f565b9050613a7b565b5060008414613b5c576040517f08c379a0000000000000000000000000000000000000000000000000000000008152600401613b5390614f04565b60405180910390fd5b8091505092915050565b600080fd5b60007fffffffff0000000000000000000000000000000000000000000000000000000082169050919050565b613ba081613b6b565b8114613bab57600080fd5b50565b600081359050613bbd81613b97565b92915050565b600060208284031215613bd957613bd8613b66565b5b6000613be784828501613bae565b91505092915050565b60008115159050919050565b613c0581613bf0565b82525050565b6000602082019050613c206000830184613bfc565b92915050565b6000819050919050565b613c3981613c26565b82525050565b6000602082019050613c546000830184613c30565b92915050565b600073ffffffffffffffffffffffffffffffffffffffff82169050919050565b6000613c8582613c5a565b9050919050565b613c9581613c7a565b8114613ca057600080fd5b50565b600081359050613cb281613c8c565b92915050565b613cc181613c26565b8114613ccc57600080fd5b50565b600081359050613cde81613cb8565b92915050565b600080600060608486031215613cfd57613cfc613b66565b5b6000613d0b86828701613ca3565b9350506020613d1c86828701613ccf565b9250506040613d2d86828701613ccf565b9150509250925092565b600081519050919050565b600082825260208201905092915050565b6000819050602082019050919050565b613d6c81613c26565b82525050565b6000613d7e8383613d63565b60208301905092915050565b6000602082019050919050565b6000613da282613d37565b613dac8185613d42565b9350613db783613d53565b8060005b83811015613de8578151613dcf8882613d72565b9750613dda83613d8a565b925050600181019050613dbb565b5085935050505092915050565b60006020820190508181036000830152613e0f8184613d97565b905092915050565b6000819050919050565b613e2a81613e17565b8114613e3557600080fd5b50565b600081359050613e4781613e21565b92915050565b600060208284031215613e6357613e62613b66565b5b6000613e7184828501613e38565b91505092915050565b613e8381613e17565b82525050565b6000602082019050613e9e6000830184613e7a565b92915050565b600060208284031215613eba57613eb9613b66565b5b6000613ec884828501613ccf565b91505092915050565b60008060408385031215613ee857613ee7613b66565b5b6000613ef685828601613e38565b9250506020613f0785828601613ca3565b9150509250929050565b600060208284031215613f2757613f26613b66565b5b6000613f3584828501613ca3565b91505092915050565b60008060408385031215613f5557613f54613b66565b5b6000613f6385828601613ca3565b9250506020613f7485828601613ccf565b9150509250929050565b6000819050919050565b6000613fa3613f9e613f9984613c5a565b613f7e565b613c5a565b9050919050565b6000613fb582613f88565b9050919050565b6000613fc782613faa565b9050919050565b613fd781613fbc565b82525050565b6000602082019050613ff26000830184613fce565b92915050565b600061400382613faa565b9050919050565b61401381613ff8565b82525050565b600060208201905061402e600083018461400a565b92915050565b60006060820190506140496000830186613c30565b6140566020830185613c30565b6140636040830184613c30565b949350505050565b600061407682613faa565b9050919050565b6140868161406b565b82525050565b60006020820190506140a1600083018461407d565b92915050565b6000806000606084860312156140c0576140bf613b66565b5b60006140ce86828701613ccf565b93505060206140df86828701613ccf565b92505060406140f086828701613ccf565b9150509250925092565b600060408201905061410f6000830185613c30565b61411c6020830184613c30565b9392505050565b600060c0820190506141386000830189613c30565b6141456020830188613c30565b6141526040830187613c30565b61415f6060830186613c30565b61416c6080830185613c30565b61417960a0830184613bfc565b979650505050505050565b600060ff82169050919050565b61419a81614184565b81146141a557600080fd5b50565b6000813590506141b781614191565b92915050565b600080600080600080600060e0888a0312156141dc576141db613b66565b5b60006141ea8a828b01613ccf565b97505060206141fb8a828b01613ccf565b965050604061420c8a828b01613ccf565b955050606061421d8a828b01613ccf565b945050608061422e8a828b016141a8565b93505060a061423f8a828b01613e38565b92505060c06142508a828b01613e38565b91505092959891949750929550565b600061426a82613faa565b9050919050565b61427a8161425f565b82525050565b60006020820190506142956000830184614271565b92915050565b60006142a682613faa565b9050919050565b6142b68161429b565b82525050565b60006020820190506142d160008301846142ad565b92915050565b600080600080600080600060e0888a0312156142f6576142f5613b66565b5b60006143048a828b01613ca3565b97505060206143158a828b01613ca3565b96505060406143268a828b01613ca3565b95505060606143378a828b01613ca3565b94505060806143488a828b01613ccf565b93505060a06143598a828b01613ccf565b92505060c061436a8a828b01613ccf565b91505092959891949750929550565b600060e08201905061438e600083018a613bfc565b61439b6020830189613c30565b6143a86040830188613c30565b6143b56060830187613c30565b6143c26080830186613c30565b6143cf60a0830185613c30565b6143dc60c0830184613c30565b98975050505050505050565b6143f181613bf0565b81146143fc57600080fd5b50565b60008135905061440e816143e8565b92915050565b600080600080600080600080610100898b03121561443557614434613b66565b5b60006144438b828c01613ccf565b98505060206144548b828c01613ccf565b97505060406144658b828c01613ccf565b96505060606144768b828c01613ccf565b95505060806144878b828c016141a8565b94505060a06144988b828c01613e38565b93505060c06144a98b828c01613e38565b92505060e06144ba8b828c016143ff565b9150509295985092959890939650565b7f4e487b7100000000000000000000000000000000000000000000000000000000600052601160045260246000fd5b600061450482613c26565b91507fffffffffffffffffffffffffffffffffffffffffffffffffffffffffffffffff8203614536576145356144ca565b5b600182019050919050565b7f4e487b7100000000000000000000000000000000000000000000000000000000600052604160045260246000fd5b7f4e487b7100000000000000000000000000000000000000000000000000000000600052603260045260246000fd5b600082825260208201905092915050565b7f4d75737420686176652061646d696e20726f6c6520746f20706572666f726d2060008201527f7468697320616374696f6e2e0000000000000000000000000000000000000000602082015250565b600061460c602c8361459f565b9150614617826145b0565b604082019050919050565b6000602082019050818103600083015261463b816145ff565b9050919050565b600061464d82613c26565b915061465883613c26565b9250817fffffffffffffffffffffffffffffffffffffffffffffffffffffffffffffffff0483118215151615614691576146906144ca565b5b828202905092915050565b7f416363657373436f6e74726f6c3a2063616e206f6e6c792072656e6f756e636560008201527f20726f6c657320666f722073656c660000000000000000000000000000000000602082015250565b60006146f8602f8361459f565b91506147038261469c565b604082019050919050565b60006020820190508181036000830152614727816146eb565b9050919050565b60008151905061473d816143e8565b92915050565b60006020828403121561475957614758613b66565b5b60006147678482850161472e565b91505092915050565b60008151905061477f81613cb8565b92915050565b60006020828403121561479b5761479a613b66565b5b60006147a984828501614770565b91505092915050565b60006147bd82613c26565b91506147c883613c26565b92508282039050818111156147e0576147df6144ca565b5b92915050565b60006147f182613c26565b91506147fc83613c26565b9250828201905080821115614814576148136144ca565b5b92915050565b7f496e697469616c697a61626c653a20636f6e7472616374206973206e6f74206960008201527f6e697469616c697a696e67000000000000000000000000000000000000000000602082015250565b6000614876602b8361459f565b91506148818261481a565b604082019050919050565b600060208201905081810360008301526148a581614869565b9050919050565b6148b581613c7a565b82525050565b60006020820190506148d060008301846148ac565b92915050565b7f4e487b7100000000000000000000000000000000000000000000000000000000600052601260045260246000fd5b600061491082613c26565b915061491b83613c26565b92508261492b5761492a6148d6565b5b828204905092915050565b7f496e697469616c697a61626c653a20636f6e747261637420697320616c72656160008201527f647920696e697469616c697a6564000000000000000000000000000000000000602082015250565b6000614992602e8361459f565b915061499d82614936565b604082019050919050565b600060208201905081810360008301526149c181614985565b9050919050565b6000819050919050565b60006149ed6149e86149e3846149c8565b613f7e565b614184565b9050919050565b6149fd816149d2565b82525050565b6000602082019050614a1860008301846149f4565b92915050565b6000604082019050614a3360008301856148ac565b614a406020830184613c30565b9392505050565b6000608082019050614a5c6000830187613c30565b614a696020830186613c30565b614a766040830185613c30565b614a836060830184613c30565b95945050505050565b7f5265656e7472616e637947756172643a207265656e7472616e742063616c6c00600082015250565b6000614ac2601f8361459f565b9150614acd82614a8c565b602082019050919050565b60006020820190508181036000830152614af181614ab5565b9050919050565b600081905092915050565b7f416363657373436f6e74726f6c3a206163636f756e7420000000000000000000600082015250565b6000614b39601783614af8565b9150614b4482614b03565b601782019050919050565b600081519050919050565b60005b83811015614b78578082015181840152602081019050614b5d565b60008484015250505050565b6000614b8f82614b4f565b614b998185614af8565b9350614ba9818560208601614b5a565b80840191505092915050565b7f206973206d697373696e6720726f6c6520000000000000000000000000000000600082015250565b6000614beb601183614af8565b9150614bf682614bb5565b601182019050919050565b6000614c0c82614b2c565b9150614c188285614b84565b9150614c2382614bde565b9150614c2f8284614b84565b91508190509392505050565b6000601f19601f8301169050919050565b6000614c5782614b4f565b614c61818561459f565b9350614c71818560208601614b5a565b614c7a81614c3b565b840191505092915050565b60006020820190508181036000830152614c9f8184614c4c565b905092915050565b7f5061757361626c653a206e6f7420706175736564000000000000000000000000600082015250565b6000614cdd60148361459f565b9150614ce882614ca7565b602082019050919050565b60006020820190508181036000830152614d0c81614cd0565b9050919050565b7f5061757361626c653a2070617573656400000000000000000000000000000000600082015250565b6000614d4960108361459f565b9150614d5482614d13565b602082019050919050565b60006020820190508181036000830152614d7881614d3c565b9050919050565b614d8881614184565b82525050565b600060e082019050614da3600083018a6148ac565b614db060208301896148ac565b614dbd6040830188613c30565b614dca6060830187613c30565b614dd76080830186614d7f565b614de460a0830185613e7a565b614df160c0830184613e7a565b98975050505050505050565b7f5361666545524332303a207065726d697420646964206e6f742073756363656560008201527f6400000000000000000000000000000000000000000000000000000000000000602082015250565b6000614e5960218361459f565b9150614e6482614dfd565b604082019050919050565b60006020820190508181036000830152614e8881614e4c565b9050919050565b6000614e9a82613c26565b915060008203614ead57614eac6144ca565b5b600182039050919050565b7f537472696e67733a20686578206c656e67746820696e73756666696369656e74600082015250565b6000614eee60208361459f565b9150614ef982614eb8565b602082019050919050565b60006020820190508181036000830152614f1d81614ee1565b905091905056fea2646970667358221220b03a4c7abb068f203e41260c9b0d1e23452ed24111a2d76b2c2e952777008dc664736f6c63430008100033",
  "linkReferences": {},
  "deployedLinkReferences": {}
}