{
  "_format": "hh-sol-artifact-1",
  "contractName": "ConstantFlowAgreement",
  "sourceName": "contracts/core/payAsYouGo/ConstantFlowAgreement.sol",
  "abi": [
    {
      "inputs": [],
      "name": "BaseUpgradeablePausable__ZeroAddressError",
      "type": "error"
    },
    {
      "inputs": [],
      "name": "CFA__ActiveInsuranceExistError",
      "type": "error"
    },
    {
      "inputs": [],
      "name": "CFA__ImmutableChangesError",
      "type": "error"
    },
    {
      "inputs": [],
      "name": "CFA__InactiveInsuranceError",
      "type": "error"
    },
    {
      "inputs": [],
      "name": "CFA__InsuranceCoverNotAvailableError",
      "type": "error"
    },
    {
      "inputs": [],
      "name": "CFA__NotEvenMinimumInsurancePeriodAmount",
      "type": "error"
    },
    {
      "inputs": [],
      "name": "CFA__SubCategoryNotActiveError",
      "type": "error"
    },
    {
      "inputs": [],
      "name": "CFA__TransactionFailedError",
      "type": "error"
    },
    {
      "anonymous": false,
      "inputs": [
        {
          "indexed": false,
          "internalType": "uint8",
          "name": "version",
          "type": "uint8"
        }
      ],
      "name": "Initialized",
      "type": "event"
    },
    {
      "anonymous": false,
      "inputs": [
        {
          "indexed": false,
          "internalType": "address",
          "name": "account",
          "type": "address"
        }
      ],
      "name": "Paused",
      "type": "event"
    },
    {
      "anonymous": false,
      "inputs": [
        {
          "indexed": true,
          "internalType": "bytes32",
          "name": "role",
          "type": "bytes32"
        },
        {
          "indexed": true,
          "internalType": "bytes32",
          "name": "previousAdminRole",
          "type": "bytes32"
        },
        {
          "indexed": true,
          "internalType": "bytes32",
          "name": "newAdminRole",
          "type": "bytes32"
        }
      ],
      "name": "RoleAdminChanged",
      "type": "event"
    },
    {
      "anonymous": false,
      "inputs": [
        {
          "indexed": true,
          "internalType": "bytes32",
          "name": "role",
          "type": "bytes32"
        },
        {
          "indexed": true,
          "internalType": "address",
          "name": "account",
          "type": "address"
        },
        {
          "indexed": true,
          "internalType": "address",
          "name": "sender",
          "type": "address"
        }
      ],
      "name": "RoleGranted",
      "type": "event"
    },
    {
      "anonymous": false,
      "inputs": [
        {
          "indexed": true,
          "internalType": "bytes32",
          "name": "role",
          "type": "bytes32"
        },
        {
          "indexed": true,
          "internalType": "address",
          "name": "account",
          "type": "address"
        },
        {
          "indexed": true,
          "internalType": "address",
          "name": "sender",
          "type": "address"
        }
      ],
      "name": "RoleRevoked",
      "type": "event"
    },
    {
      "anonymous": false,
      "inputs": [
        {
          "indexed": false,
          "internalType": "address",
          "name": "account",
          "type": "address"
        }
      ],
      "name": "Unpaused",
      "type": "event"
    },
    {
      "anonymous": false,
      "inputs": [],
      "name": "UpdatedMaxInsuredDays",
      "type": "event"
    },
    {
      "anonymous": false,
      "inputs": [],
      "name": "UpdatedMinimumInsurancePeriod",
      "type": "event"
    },
    {
      "anonymous": false,
      "inputs": [],
      "name": "UpdatedStartWaitingTime",
      "type": "event"
    },
    {
      "inputs": [],
      "name": "DEFAULT_ADMIN_ROLE",
      "outputs": [
        {
          "internalType": "bytes32",
          "name": "",
          "type": "bytes32"
        }
      ],
      "stateMutability": "view",
      "type": "function"
    },
    {
      "inputs": [
        {
          "internalType": "address",
          "name": "owner",
          "type": "address"
        }
      ],
      "name": "__BaseUpgradeablePausable_init",
      "outputs": [],
      "stateMutability": "nonpayable",
      "type": "function"
    },
    {
      "inputs": [
        {
          "internalType": "uint256",
          "name": "insuredAmount",
          "type": "uint256"
        },
        {
          "internalType": "uint256",
          "name": "categoryID",
          "type": "uint256"
        },
        {
          "internalType": "uint256",
          "name": "subCategoryID",
          "type": "uint256"
        },
        {
          "internalType": "uint8",
          "name": "v",
          "type": "uint8"
        },
        {
          "internalType": "bytes32",
          "name": "r",
          "type": "bytes32"
        },
        {
          "internalType": "bytes32",
          "name": "s",
          "type": "bytes32"
        }
      ],
      "name": "addInsuranceAmount",
      "outputs": [
        {
          "internalType": "bool",
          "name": "",
          "type": "bool"
        }
      ],
      "stateMutability": "nonpayable",
      "type": "function"
    },
    {
      "inputs": [
        {
          "internalType": "address",
          "name": "userAddress",
          "type": "address"
        },
        {
          "internalType": "uint256",
          "name": "categoryID",
          "type": "uint256"
        }
      ],
      "name": "calculateTotalFlowMade",
      "outputs": [
        {
          "internalType": "uint256",
          "name": "",
          "type": "uint256"
        }
      ],
      "stateMutability": "view",
      "type": "function"
    },
    {
      "inputs": [
        {
          "internalType": "address",
          "name": "userAddress",
          "type": "address"
        }
      ],
      "name": "calculateTotalFlowMade",
      "outputs": [
        {
          "internalType": "uint256",
          "name": "",
          "type": "uint256"
        }
      ],
      "stateMutability": "view",
      "type": "function"
    },
    {
      "inputs": [
        {
          "internalType": "address",
          "name": "userAddress",
          "type": "address"
        },
        {
          "internalType": "uint256",
          "name": "categoryID",
          "type": "uint256"
        }
      ],
      "name": "claimPremium",
      "outputs": [
        {
          "internalType": "bool",
          "name": "",
          "type": "bool"
        }
      ],
      "stateMutability": "nonpayable",
      "type": "function"
    },
    {
      "inputs": [
        {
          "internalType": "address",
          "name": "userAddress",
          "type": "address"
        },
        {
          "internalType": "uint256",
          "name": "categoryID",
          "type": "uint256"
        },
        {
          "internalType": "uint256",
          "name": "subCategoryID",
          "type": "uint256"
        }
      ],
      "name": "claimPremium",
      "outputs": [
        {
          "internalType": "bool",
          "name": "",
          "type": "bool"
        }
      ],
      "stateMutability": "nonpayable",
      "type": "function"
    },
    {
      "inputs": [
        {
          "internalType": "address",
          "name": "userAddress",
          "type": "address"
        },
        {
          "internalType": "uint256",
          "name": "categoryID",
          "type": "uint256"
        },
        {
          "internalType": "uint256",
          "name": "subCategoryCount",
          "type": "uint256"
        }
      ],
      "name": "findActivePremiumCost",
      "outputs": [
        {
          "internalType": "uint256[]",
          "name": "",
          "type": "uint256[]"
        }
      ],
      "stateMutability": "view",
      "type": "function"
    },
    {
      "inputs": [
        {
          "internalType": "address",
          "name": "_userAddress",
          "type": "address"
        }
      ],
      "name": "getGlobalUserInsuranceInfo",
      "outputs": [
        {
          "internalType": "uint256",
          "name": "",
          "type": "uint256"
        },
        {
          "internalType": "uint256",
          "name": "",
          "type": "uint256"
        }
      ],
      "stateMutability": "view",
      "type": "function"
    },
    {
      "inputs": [
        {
          "internalType": "address",
          "name": "userAddress",
          "type": "address"
        }
      ],
      "name": "getGlobalUserInsurancePremiumCost",
      "outputs": [
        {
          "internalType": "uint256",
          "name": "",
          "type": "uint256"
        }
      ],
      "stateMutability": "view",
      "type": "function"
    },
    {
      "inputs": [
        {
          "internalType": "bytes32",
          "name": "role",
          "type": "bytes32"
        }
      ],
      "name": "getRoleAdmin",
      "outputs": [
        {
          "internalType": "bytes32",
          "name": "",
          "type": "bytes32"
        }
      ],
      "stateMutability": "view",
      "type": "function"
    },
    {
      "inputs": [
        {
          "internalType": "address",
          "name": "userAddress",
          "type": "address"
        },
        {
          "internalType": "uint256",
          "name": "categoryID",
          "type": "uint256"
        },
        {
          "internalType": "uint256",
          "name": "subCategoryID",
          "type": "uint256"
        }
      ],
      "name": "getUserInsuranceInfo",
      "outputs": [
        {
          "internalType": "uint256",
          "name": "",
          "type": "uint256"
        },
        {
          "internalType": "uint256",
          "name": "",
          "type": "uint256"
        },
        {
          "internalType": "uint256",
          "name": "",
          "type": "uint256"
        },
        {
          "internalType": "uint256",
          "name": "",
          "type": "uint256"
        },
        {
          "internalType": "uint256",
          "name": "",
          "type": "uint256"
        },
        {
          "internalType": "bool",
          "name": "",
          "type": "bool"
        }
      ],
      "stateMutability": "view",
      "type": "function"
    },
    {
      "inputs": [
        {
          "internalType": "address",
          "name": "userAddress",
          "type": "address"
        },
        {
          "internalType": "uint256",
          "name": "categoryID",
          "type": "uint256"
        },
        {
          "internalType": "uint256",
          "name": "subCategoryID",
          "type": "uint256"
        }
      ],
      "name": "getUserInsuranceStatus",
      "outputs": [
        {
          "internalType": "bool",
          "name": "",
          "type": "bool"
        }
      ],
      "stateMutability": "view",
      "type": "function"
    },
    {
      "inputs": [
        {
          "internalType": "address",
          "name": "userAddress",
          "type": "address"
        },
        {
          "internalType": "uint256",
          "name": "categoryID",
          "type": "uint256"
        },
        {
          "internalType": "uint256",
          "name": "subCategoryID",
          "type": "uint256"
        }
      ],
      "name": "getUserInsuranceValidTillInfo",
      "outputs": [
        {
          "internalType": "uint256",
          "name": "",
          "type": "uint256"
        }
      ],
      "stateMutability": "view",
      "type": "function"
    },
    {
      "inputs": [
        {
          "internalType": "address",
          "name": "userAddress",
          "type": "address"
        },
        {
          "internalType": "uint256",
          "name": "categoryID",
          "type": "uint256"
        },
        {
          "internalType": "uint256",
          "name": "subCategoryID",
          "type": "uint256"
        }
      ],
      "name": "getUserInsuredAmount",
      "outputs": [
        {
          "internalType": "uint256",
          "name": "",
          "type": "uint256"
        }
      ],
      "stateMutability": "view",
      "type": "function"
    },
    {
      "inputs": [
        {
          "internalType": "bytes32",
          "name": "role",
          "type": "bytes32"
        },
        {
          "internalType": "address",
          "name": "account",
          "type": "address"
        }
      ],
      "name": "grantRole",
      "outputs": [],
      "stateMutability": "nonpayable",
      "type": "function"
    },
    {
      "inputs": [
        {
          "internalType": "bytes32",
          "name": "role",
          "type": "bytes32"
        },
        {
          "internalType": "address",
          "name": "account",
          "type": "address"
        }
      ],
      "name": "hasRole",
      "outputs": [
        {
          "internalType": "bool",
          "name": "",
          "type": "bool"
        }
      ],
      "stateMutability": "view",
      "type": "function"
    },
    {
      "inputs": [
        {
          "internalType": "address",
          "name": "tokenDAIaddress",
          "type": "address"
        },
        {
          "internalType": "address",
          "name": "sztDAIAddress",
          "type": "address"
        },
        {
          "internalType": "address",
          "name": "insuranceRegistryCA",
          "type": "address"
        },
        {
          "internalType": "uint256",
          "name": "minimumInsurancePeriod",
          "type": "uint256"
        },
        {
          "internalType": "uint256",
          "name": "startWaitingTime",
          "type": "uint256"
        },
        {
          "internalType": "uint256",
          "name": "maxInsuredDays",
          "type": "uint256"
        }
      ],
      "name": "initialize",
      "outputs": [
        {
          "internalType": "bool",
          "name": "",
          "type": "bool"
        }
      ],
      "stateMutability": "nonpayable",
      "type": "function"
    },
    {
      "inputs": [],
      "name": "isAdmin",
      "outputs": [
        {
          "internalType": "bool",
          "name": "",
          "type": "bool"
        }
      ],
      "stateMutability": "view",
      "type": "function"
    },
    {
      "inputs": [
        {
          "internalType": "uint256",
          "name": "insuredAmount",
          "type": "uint256"
        },
        {
          "internalType": "uint256",
          "name": "categoryID",
          "type": "uint256"
        },
        {
          "internalType": "uint256",
          "name": "subCategoryID",
          "type": "uint256"
        },
        {
          "internalType": "uint8",
          "name": "v",
          "type": "uint8"
        },
        {
          "internalType": "bytes32",
          "name": "r",
          "type": "bytes32"
        },
        {
          "internalType": "bytes32",
          "name": "s",
          "type": "bytes32"
        },
        {
          "internalType": "bool",
          "name": "closeStream",
          "type": "bool"
        }
      ],
      "name": "minusInsuranceAmount",
      "outputs": [
        {
          "internalType": "bool",
          "name": "",
          "type": "bool"
        }
      ],
      "stateMutability": "nonpayable",
      "type": "function"
    },
    {
      "inputs": [],
      "name": "pause",
      "outputs": [],
      "stateMutability": "nonpayable",
      "type": "function"
    },
    {
      "inputs": [],
      "name": "paused",
      "outputs": [
        {
          "internalType": "bool",
          "name": "",
          "type": "bool"
        }
      ],
      "stateMutability": "view",
      "type": "function"
    },
    {
      "inputs": [
        {
          "internalType": "bytes32",
          "name": "role",
          "type": "bytes32"
        },
        {
          "internalType": "address",
          "name": "account",
          "type": "address"
        }
      ],
      "name": "renounceRole",
      "outputs": [],
      "stateMutability": "nonpayable",
      "type": "function"
    },
    {
      "inputs": [
        {
          "internalType": "bytes32",
          "name": "role",
          "type": "bytes32"
        },
        {
          "internalType": "address",
          "name": "account",
          "type": "address"
        }
      ],
      "name": "revokeRole",
      "outputs": [],
      "stateMutability": "nonpayable",
      "type": "function"
    },
    {
      "inputs": [
        {
          "internalType": "bytes4",
          "name": "interfaceId",
          "type": "bytes4"
        }
      ],
      "name": "supportsInterface",
      "outputs": [
        {
          "internalType": "bool",
          "name": "",
          "type": "bool"
        }
      ],
      "stateMutability": "view",
      "type": "function"
    },
    {
      "inputs": [],
      "name": "unpause",
      "outputs": [],
      "stateMutability": "nonpayable",
      "type": "function"
    },
    {
      "inputs": [
        {
          "internalType": "uint256",
          "name": "timeInDays",
          "type": "uint256"
        }
      ],
      "name": "updateMaxInsuredDays",
      "outputs": [],
      "stateMutability": "nonpayable",
      "type": "function"
    },
    {
      "inputs": [
        {
          "internalType": "uint256",
          "name": "timeInMinutes",
          "type": "uint256"
        }
      ],
      "name": "updateMinimumInsurancePeriod",
      "outputs": [],
      "stateMutability": "nonpayable",
      "type": "function"
    },
    {
      "inputs": [
        {
          "internalType": "uint256",
          "name": "timeInHours",
          "type": "uint256"
        }
      ],
      "name": "updateStartWaitingTime",
      "outputs": [],
      "stateMutability": "nonpayable",
      "type": "function"
    }
  ],
  "bytecode": "0x608060405234801561001057600080fd5b50614396806100206000396000f3fe608060405234801561001057600080fd5b50600436106101cf5760003560e01c80636e8847bd11610104578063a217fddf116100a2578063cff5eede11610071578063cff5eede1461058f578063d547741f146105bf578063ec249164146105db578063f099dd501461060c576101cf565b8063a217fddf14610507578063b470626814610525578063b6db75a014610541578063c392e8501461055f576101cf565b806381280d2b116100de57806381280d2b146104685780638456cb591461049857806388295fb2146104a257806391d14854146104d7576101cf565b80636e8847bd146103d8578063728cdbca1461040857806377bd35fc14610438576101cf565b806342f6b8a7116101715780635c975abb1161014b5780635c975abb1461033e578063642adc281461035c5780636b6d105e1461038c5780636e810b1a146103bc576101cf565b806342f6b8a7146102c25780634e94c048146102f257806356eb66bb14610322576101cf565b806324b7ab24116101ad57806324b7ab24146102645780632f2ff15d1461028057806336568abe1461029c5780633f4ba83a146102b8576101cf565b806301ffc9a7146101d45780631a5c8f2814610204578063248a9ca314610234575b600080fd5b6101ee60048036038101906101e9919061325f565b61063c565b6040516101fb91906132a7565b60405180910390f35b61021e60048036038101906102199190613356565b6106b6565b60405161022b9190613467565b60405180910390f35b61024e600480360381019061024991906134bf565b6108d9565b60405161025b91906134fb565b60405180910390f35b61027e60048036038101906102799190613516565b6108f9565b005b61029a60048036038101906102959190613543565b610983565b005b6102b660048036038101906102b19190613543565b6109a4565b005b6102c0610a27565b005b6102dc60048036038101906102d79190613583565b610a78565b6040516102e991906135bf565b60405180910390f35b61030c600480360381019061030791906135da565b610af3565b60405161031991906135bf565b60405180910390f35b61033c60048036038101906103379190613516565b610caa565b005b610346610d32565b60405161035391906132a7565b60405180910390f35b6103766004803603810190610371919061367f565b610d49565b60405161038391906132a7565b60405180910390f35b6103a660048036038101906103a19190613356565b610d7d565b6040516103b391906135bf565b60405180910390f35b6103d660048036038101906103d19190613583565b610dee565b005b6103f260048036038101906103ed9190613721565b610f10565b6040516103ff91906132a7565b60405180910390f35b610422600480360381019061041d91906137ae565b610f42565b60405161042f91906132a7565b60405180910390f35b610452600480360381019061044d91906135da565b6111de565b60405161045f91906132a7565b60405180910390f35b610482600480360381019061047d9190613356565b6111e6565b60405161048f91906132a7565b60405180910390f35b6104a0611264565b005b6104bc60048036038101906104b79190613356565b6112b5565b6040516104ce9695949392919061383b565b60405180910390f35b6104f160048036038101906104ec9190613543565b6113bd565b6040516104fe91906132a7565b60405180910390f35b61050f611428565b60405161051c91906134fb565b60405180910390f35b61053f600480360381019061053a9190613516565b61142f565b005b6105496114ba565b60405161055691906132a7565b60405180910390f35b61057960048036038101906105749190613356565b6114d9565b60405161058691906135bf565b60405180910390f35b6105a960048036038101906105a49190613583565b61154a565b6040516105b691906135bf565b60405180910390f35b6105d960048036038101906105d49190613543565b61172f565b005b6105f560048036038101906105f09190613583565b611750565b60405161060392919061389c565b60405180910390f35b61062660048036038101906106219190613356565b6117d4565b60405161063391906132a7565b60405180910390f35b60007f7965db0b000000000000000000000000000000000000000000000000000000007bffffffffffffffffffffffffffffffffffffffffffffffffffffffff1916827bffffffffffffffffffffffffffffffffffffffffffffffffffffffff191614806106af57506106ae8261186c565b5b9050919050565b60606000805b838110156107b557600061010460008873ffffffffffffffffffffffffffffffffffffffff1673ffffffffffffffffffffffffffffffffffffffff168152602001908152602001600020600087815260200190815260200160002060008381526020019081526020016000206040518060e00160405290816000820154815260200160018201548152602001600282015481526020016003820154815260200160048201548152602001600582015481526020016006820160009054906101000a900460ff16151515158152505090508060c00151156107a357826107a0906138f4565b92505b816107ad906138f4565b9150506106bc565b5060008167ffffffffffffffff8111156107d2576107d161393c565b5b6040519080825280602002602001820160405280156108005781602001602082028036833780820191505090505b5090506000805b858110156108cb57600061010460008a73ffffffffffffffffffffffffffffffffffffffff1673ffffffffffffffffffffffffffffffffffffffff1681526020019081526020016000206000898152602001908152602001600020600083815260200190815260200160002090508060060160009054906101000a900460ff16156108b957818484815181106108a05761089f61396b565b5b602002602001018181525050826108b6906138f4565b92505b816108c3906138f4565b915050610807565b508193505050509392505050565b600060976000838152602001908152602001600020600101549050919050565b6109016114ba565b610940576040517f08c379a000000000000000000000000000000000000000000000000000000000815260040161093790613a1d565b60405180910390fd5b610e108161094e9190613a3d565b60fd819055507f75c07eb064b8ccf959bcc601b55315ca198e67b597dc0a7b93e130f8ca779a6760405160405180910390a150565b61098c826108d9565b610995816118d6565b61099f83836118ea565b505050565b6109ac6119cb565b73ffffffffffffffffffffffffffffffffffffffff168173ffffffffffffffffffffffffffffffffffffffff1614610a19576040517f08c379a0000000000000000000000000000000000000000000000000000000008152600401610a1090613b09565b60405180910390fd5b610a2382826119d3565b5050565b610a2f6114ba565b610a6e576040517f08c379a0000000000000000000000000000000000000000000000000000000008152600401610a6590613a1d565b60405180910390fd5b610a76611ab5565b565b60008061010360008473ffffffffffffffffffffffffffffffffffffffff1673ffffffffffffffffffffffffffffffffffffffff168152602001908152602001600020604051806060016040529081600082015481526020016001820154815260200160028201548152505090508060400151915050919050565b600080600090506000610ba3858561010260009054906101000a900473ffffffffffffffffffffffffffffffffffffffff1673ffffffffffffffffffffffffffffffffffffffff16633bf4c082886040518263ffffffff1660e01b8152600401610b5d91906135bf565b602060405180830381865afa158015610b7a573d6000803e3d6000fd5b505050506040513d601f19601f82011682018060405250810190610b9e9190613b3e565b6106b6565b905060005b8151811015610c9e57600061010460008873ffffffffffffffffffffffffffffffffffffffff1673ffffffffffffffffffffffffffffffffffffffff16815260200190815260200160002060008781526020019081526020016000206000848481518110610c1957610c1861396b565b5b602002602001015181526020019081526020016000209050600081600001544211610c45576000610c6c565b81600101544211610c6557816000015442610c609190613b6b565b610c6b565b81600101545b5b9050808260040154610c7e9190613a3d565b85610c899190613b9f565b945082610c95906138f4565b92505050610ba8565b50819250505092915050565b610cb26114ba565b610cf1576040517f08c379a0000000000000000000000000000000000000000000000000000000008152600401610ce890613a1d565b60405180910390fd5b603c81610cfe9190613a3d565b60fe819055507e3a5a2424463bb22c8fc4c0f2422b7a18712b7713f9619caa313f499fad615e60405160405180910390a150565b6000603360009054906101000a900460ff16905090565b6000610d53611b18565b6000610d6489898989898989611b67565b905080915050610d72611dc4565b979650505050505050565b600061010460008573ffffffffffffffffffffffffffffffffffffffff1673ffffffffffffffffffffffffffffffffffffffff168152602001908152602001600020600084815260200190815260200160002060008381526020019081526020016000206002015490509392505050565b600060019054906101000a900460ff16610e3d576040517f08c379a0000000000000000000000000000000000000000000000000000000008152600401610e3490613c45565b60405180910390fd5b600073ffffffffffffffffffffffffffffffffffffffff168173ffffffffffffffffffffffffffffffffffffffff1603610ea3576040517f5415139400000000000000000000000000000000000000000000000000000000815260040160405180910390fd5b610eab611dce565b610eb3611e27565b610ebb611e78565b610ecc610ec6611ed1565b826118ea565b610edd610ed7611ef9565b826118ea565b610ef5610ee8611ef9565b610ef0611ed1565b611f21565b610f0d610f00611ed1565b610f08611ed1565b611f21565b50565b6000610f1a611b18565b6000610f2a888888888888611f7d565b905080915050610f38611dc4565b9695505050505050565b600080600060019054906101000a900460ff16159050808015610f755750600160008054906101000a900460ff1660ff16105b80610fa25750610f84306121a2565b158015610fa15750600160008054906101000a900460ff1660ff16145b5b610fe1576040517f08c379a0000000000000000000000000000000000000000000000000000000008152600401610fd890613cd7565b60405180910390fd5b60016000806101000a81548160ff021916908360ff160217905550801561101e576001600060016101000a81548160ff0219169083151502179055505b600060fb81905550603c836110339190613a3d565b60fc81905550603c846110469190613a3d565b60fd81905550603c856110599190613a3d565b60fe819055508760ff60006101000a81548173ffffffffffffffffffffffffffffffffffffffff021916908373ffffffffffffffffffffffffffffffffffffffff1602179055508761010060006101000a81548173ffffffffffffffffffffffffffffffffffffffff021916908373ffffffffffffffffffffffffffffffffffffffff1602179055508661010160006101000a81548173ffffffffffffffffffffffffffffffffffffffff021916908373ffffffffffffffffffffffffffffffffffffffff1602179055508561010260006101000a81548173ffffffffffffffffffffffffffffffffffffffff021916908373ffffffffffffffffffffffffffffffffffffffff1602179055506111766111716119cb565b610dee565b6001915080156111d35760008060016101000a81548160ff0219169083151502179055507f7f26b83ff96e1f2b6a682f133852f6798a09c465da95921460cefb384740249860016040516111ca9190613d3c565b60405180910390a15b509695505050505050565b600092915050565b600061010460008573ffffffffffffffffffffffffffffffffffffffff1673ffffffffffffffffffffffffffffffffffffffff1681526020019081526020016000206000848152602001908152602001600020600083815260200190815260200160002060060160009054906101000a900460ff1690509392505050565b61126c6114ba565b6112ab576040517f08c379a00000000000000000000000000000000000000000000000000000000081526004016112a290613a1d565b60405180910390fd5b6112b36121c5565b565b600080600080600080600061010460008b73ffffffffffffffffffffffffffffffffffffffff1673ffffffffffffffffffffffffffffffffffffffff16815260200190815260200160002060008a815260200190815260200160002060008981526020019081526020016000206040518060e00160405290816000820154815260200160018201548152602001600282015481526020016003820154815260200160048201548152602001600582015481526020016006820160009054906101000a900460ff1615151515815250509050806040015181608001518260600151836000015184602001518560c001519650965096509650965096505093975093979195509350565b60006097600084815260200190815260200160002060000160008373ffffffffffffffffffffffffffffffffffffffff1673ffffffffffffffffffffffffffffffffffffffff16815260200190815260200160002060009054906101000a900460ff16905092915050565b6000801b81565b6114376114ba565b611476576040517f08c379a000000000000000000000000000000000000000000000000000000000815260040161146d90613a1d565b60405180910390fd5b62015180816114859190613a3d565b60fc819055507fdb4fb2fd6b8b90f67bda8671842d5cab4eb4b7eba9683f5bcec9aba9473cc95760405160405180910390a150565b60006114d46114c7611ed1565b6114cf6119cb565b6113bd565b905090565b600061010460008573ffffffffffffffffffffffffffffffffffffffff1673ffffffffffffffffffffffffffffffffffffffff168152602001908152602001600020600084815260200190815260200160002060008381526020019081526020016000206001015490509392505050565b6000806000905060005b60fb5481101561172557600080611608868461010260009054906101000a900473ffffffffffffffffffffffffffffffffffffffff1673ffffffffffffffffffffffffffffffffffffffff16633bf4c082876040518263ffffffff1660e01b81526004016115c291906135bf565b602060405180830381865afa1580156115df573d6000803e3d6000fd5b505050506040513d601f19601f820116820180604052508101906116039190613b3e565b6106b6565b905060005b815181101561170357600061010460008973ffffffffffffffffffffffffffffffffffffffff1673ffffffffffffffffffffffffffffffffffffffff1681526020019081526020016000206000868152602001908152602001600020600084848151811061167e5761167d61396b565b5b6020026020010151815260200190815260200160002090506000816000015442116116aa5760006116d1565b816001015442116116ca578160000154426116c59190613b6b565b6116d0565b81600101545b5b90508082600401546116e39190613a3d565b856116ee9190613b9f565b9450826116fa906138f4565b9250505061160d565b5081846117109190613b9f565b93508261171c906138f4565b92505050611554565b5080915050919050565b611738826108d9565b611741816118d6565b61174b83836119d3565b505050565b600080600061010360008573ffffffffffffffffffffffffffffffffffffffff1673ffffffffffffffffffffffffffffffffffffffff16815260200190815260200160002060405180606001604052908160008201548152602001600182015481526020016002820154815250509050806020015181600001519250925050915091565b6000426117e28585856114d9565b111561181a576040517f707001b500000000000000000000000000000000000000000000000000000000815260040160405180910390fd5b6000611827858585612228565b905080611860576040517fb00fcb1e00000000000000000000000000000000000000000000000000000000815260040160405180910390fd5b60019150509392505050565b60007f01ffc9a7000000000000000000000000000000000000000000000000000000007bffffffffffffffffffffffffffffffffffffffffffffffffffffffff1916827bffffffffffffffffffffffffffffffffffffffffffffffffffffffff1916149050919050565b6118e7816118e26119cb565b6125ca565b50565b6118f482826113bd565b6119c75760016097600084815260200190815260200160002060000160008373ffffffffffffffffffffffffffffffffffffffff1673ffffffffffffffffffffffffffffffffffffffff16815260200190815260200160002060006101000a81548160ff02191690831515021790555061196c6119cb565b73ffffffffffffffffffffffffffffffffffffffff168173ffffffffffffffffffffffffffffffffffffffff16837f2f8788117e7eff1d82e926ec794901d17c78024a50270940304540a733656f0d60405160405180910390a45b5050565b600033905090565b6119dd82826113bd565b15611ab15760006097600084815260200190815260200160002060000160008373ffffffffffffffffffffffffffffffffffffffff1673ffffffffffffffffffffffffffffffffffffffff16815260200190815260200160002060006101000a81548160ff021916908315150217905550611a566119cb565b73ffffffffffffffffffffffffffffffffffffffff168173ffffffffffffffffffffffffffffffffffffffff16837ff6391f5c32d9c69d2a47ea670b442974b53935d1edc7fd64eb21e047a839171b60405160405180910390a45b5050565b611abd61264f565b6000603360006101000a81548160ff0219169083151502179055507f5db9ee0a495bf2e6ff9c91a7834c1ba4fdd244a5e8aa4e537bd38aeae4b073aa611b016119cb565b604051611b0e9190613d66565b60405180910390a1565b600260c95403611b5d576040517f08c379a0000000000000000000000000000000000000000000000000000000008152600401611b5490613dcd565b60405180910390fd5b600260c981905550565b60006101046000611b766119cb565b73ffffffffffffffffffffffffffffffffffffffff1673ffffffffffffffffffffffffffffffffffffffff1681526020019081526020016000206000888152602001908152602001600020600087815260200190815260200160002060060160009054906101000a900460ff16611c19576040517f96ae3e8200000000000000000000000000000000000000000000000000000000815260040160405180910390fd5b6000611c2d611c266119cb565b8989612228565b905080611c66576040517fb00fcb1e00000000000000000000000000000000000000000000000000000000815260040160405180910390fd5b82611db4576000896101046000611c7b6119cb565b73ffffffffffffffffffffffffffffffffffffffff1673ffffffffffffffffffffffffffffffffffffffff16815260200190815260200160002060008b815260200190815260200160002060008a815260200190815260200160002060020154611ce59190613b6b565b9050600062278d0060fc5442611cfb9190613b9f565b611d059190613b9f565b9050600080611d15848d8d612698565b9150915081611d50576040517fb00fcb1e00000000000000000000000000000000000000000000000000000000815260040160405180910390fd5b611daf611d5b6119cb565b3083868e8e8e61010060009054906101000a900473ffffffffffffffffffffffffffffffffffffffff1673ffffffffffffffffffffffffffffffffffffffff16612cbd90979695949392919063ffffffff16565b505050505b6001915050979650505050505050565b600160c981905550565b600060019054906101000a900460ff16611e1d576040517f08c379a0000000000000000000000000000000000000000000000000000000008152600401611e1490613c45565b60405180910390fd5b611e25612e8a565b565b600060019054906101000a900460ff16611e76576040517f08c379a0000000000000000000000000000000000000000000000000000000008152600401611e6d90613c45565b60405180910390fd5b565b600060019054906101000a900460ff16611ec7576040517f08c379a0000000000000000000000000000000000000000000000000000000008152600401611ebe90613c45565b60405180910390fd5b611ecf612ef6565b565b60007fa49807205ce4d355092ef5a8a18f56e8913cf4a201fbe287825b095693c21775905090565b60007f65d7a28e3265b37a6474929f336521b332c1681b933f6cb9f3376673440d862a905090565b6000611f2c836108d9565b90508160976000858152602001908152602001600020600101819055508181847fbd79b86ffe0ab8e8776151514217cd7cacd52c909f66475c3af44e129f0b00ff60405160405180910390a4505050565b600080876101046000611f8e6119cb565b73ffffffffffffffffffffffffffffffffffffffff1673ffffffffffffffffffffffffffffffffffffffff1681526020019081526020016000206000898152602001908152602001600020600088815260200190815260200160002060020154611ff89190613b9f565b905061010460006120076119cb565b73ffffffffffffffffffffffffffffffffffffffff1673ffffffffffffffffffffffffffffffffffffffff1681526020019081526020016000206000888152602001908152602001600020600087815260200190815260200160002060060160009054906101000a900460ff16156120c857600061208d6120866119cb565b8989612228565b9050806120c6576040517fb00fcb1e00000000000000000000000000000000000000000000000000000000815260040160405180910390fd5b505b600062278d0060fc54426120dc9190613b9f565b6120e69190613b9f565b90506000806120f6848b8b612698565b9150915081612131576040517fb00fcb1e00000000000000000000000000000000000000000000000000000000815260040160405180910390fd5b61219061213c6119cb565b3083868c8c8c61010060009054906101000a900473ffffffffffffffffffffffffffffffffffffffff1673ffffffffffffffffffffffffffffffffffffffff16612cbd90979695949392919063ffffffff16565b60019450505050509695505050505050565b6000808273ffffffffffffffffffffffffffffffffffffffff163b119050919050565b6121cd612f4f565b6001603360006101000a81548160ff0219169083151502179055507f62e78cea01bee320cd4e420270b5ea74000d11b0c9f74754ebdbfc544b05a2586122116119cb565b60405161221e9190613d66565b60405180910390a1565b60008061010460008673ffffffffffffffffffffffffffffffffffffffff1673ffffffffffffffffffffffffffffffffffffffff1681526020019081526020016000206000858152602001908152602001600020600084815260200190815260200160002090508060060160009054906101000a900460ff166122d7576040517f96ae3e8200000000000000000000000000000000000000000000000000000000815260040160405180910390fd5b60008160060160006101000a81548160ff02191690831515021790555060008160000154421161230857600061232f565b81600101544211612328578160000154426123239190613b6b565b61232e565b81600101545b5b905060008260040154826123439190613a3d565b90506000810361235957600193505050506125c3565b826004015461010360008973ffffffffffffffffffffffffffffffffffffffff1673ffffffffffffffffffffffffffffffffffffffff16815260200190815260200160002060010160008282546123b09190613b6b565b92505081905550826005015461010360008973ffffffffffffffffffffffffffffffffffffffff1673ffffffffffffffffffffffffffffffffffffffff168152602001908152602001600020600201600082825461240e9190613b6b565b92505081905550600083600401549050600084600201549050600061010260009054906101000a900473ffffffffffffffffffffffffffffffffffffffff1673ffffffffffffffffffffffffffffffffffffffff166326a6e9eb8a8a85876040518563ffffffff1660e01b815260040161248b9493929190613ded565b6020604051808303816000875af11580156124aa573d6000803e3d6000fd5b505050506040513d601f19601f820116820180604052508101906124ce9190613e47565b9050600061010160009054906101000a900473ffffffffffffffffffffffffffffffffffffffff1673ffffffffffffffffffffffffffffffffffffffff166379cc67908c876040518363ffffffff1660e01b8152600401612530929190613e74565b6020604051808303816000875af115801561254f573d6000803e3d6000fd5b505050506040513d601f19601f820116820180604052508101906125739190613e47565b9050811580612580575080155b156125b7576040517fb00fcb1e00000000000000000000000000000000000000000000000000000000815260040160405180910390fd5b60019750505050505050505b9392505050565b6125d482826113bd565b61264b576125e181612f99565b6125ef8360001c6020612fc6565b604051602001612600929190613fa6565b6040516020818303038152906040526040517f08c379a0000000000000000000000000000000000000000000000000000000008152600401612642919061402a565b60405180910390fd5b5050565b612657610d32565b612696576040517f08c379a000000000000000000000000000000000000000000000000000000000815260040161268d90614098565b60405180910390fd5b565b600080670de0b6b3a76400008510156126dc576040517ecd474300000000000000000000000000000000000000000000000000000000815260040160405180910390fd5b61010260009054906101000a900473ffffffffffffffffffffffffffffffffffffffff1673ffffffffffffffffffffffffffffffffffffffff16635657f79d8587866040518463ffffffff1660e01b815260040161273c939291906140b8565b602060405180830381865afa158015612759573d6000803e3d6000fd5b505050506040513d601f19601f8201168201806040525081019061277d9190613e47565b6127b3576040517f1e45d1b400000000000000000000000000000000000000000000000000000000815260040160405180910390fd5b61010460006127c06119cb565b73ffffffffffffffffffffffffffffffffffffffff1673ffffffffffffffffffffffffffffffffffffffff1681526020019081526020016000206000858152602001908152602001600020600084815260200190815260200160002060060160009054906101000a900460ff1615612864576040517f707001b500000000000000000000000000000000000000000000000000000000815260040160405180910390fd5b600061010460006128736119cb565b73ffffffffffffffffffffffffffffffffffffffff1673ffffffffffffffffffffffffffffffffffffffff168152602001908152602001600020600086815260200190815260200160002060008581526020019081526020016000209050600061010360006128e06119cb565b73ffffffffffffffffffffffffffffffffffffffff1673ffffffffffffffffffffffffffffffffffffffff16815260200190815260200160002090506000816002015461010160009054906101000a900473ffffffffffffffffffffffffffffffffffffffff1673ffffffffffffffffffffffffffffffffffffffff166370a0823161296a6119cb565b6040518263ffffffff1660e01b81526004016129869190613d66565b602060405180830381865afa1580156129a3573d6000803e3d6000fd5b505050506040513d601f19601f820116820180604052508101906129c79190613b3e565b6129d19190613b6b565b90506000670de0b6b3a76400008961010260009054906101000a900473ffffffffffffffffffffffffffffffffffffffff1673ffffffffffffffffffffffffffffffffffffffff16635952a8c68b8b6040518363ffffffff1660e01b8152600401612a3d92919061389c565b602060405180830381865afa158015612a5a573d6000803e3d6000fd5b505050506040513d601f19601f82011682018060405250810190612a7e9190613b3e565b612a889190613a3d565b612a92919061411e565b90506000818460010154612aa69190613b9f565b90508260fe5482612ab79190613a3d565b1115612aef576040517fe4b581a500000000000000000000000000000000000000000000000000000000815260040160405180910390fd5b60008284612afd919061411e565b905082856001016000828254612b139190613b9f565b925050819055508a866002018190555082866004018190555042866003018190555060fd5442612b439190613b9f565b866000018190555060fc548110612b6b5760fc548660000154612b669190613b9f565b612b7c565b808660000154612b7b9190613b9f565b5b86600101819055508281612b909190613a3d565b866005018190555060018660060160006101000a81548160ff0219169083151502179055508560050154856002016000828254612bcd9190613b9f565b925050819055508460000154866001015410612bed578560010154612bf3565b84600001545b8560000181905550600061010260009054906101000a900473ffffffffffffffffffffffffffffffffffffffff1673ffffffffffffffffffffffffffffffffffffffff1663d9895c708c8c8f886040518563ffffffff1660e01b8152600401612c5f9493929190613ded565b6020604051808303816000875af1158015612c7e573d6000803e3d6000fd5b505050506040513d601f19601f82011682018060405250810190612ca29190613e47565b90508087600501549850985050505050505050935093915050565b60008873ffffffffffffffffffffffffffffffffffffffff16637ecebe00896040518263ffffffff1660e01b8152600401612cf89190613d66565b602060405180830381865afa158015612d15573d6000803e3d6000fd5b505050506040513d601f19601f82011682018060405250810190612d399190613b3e565b90508873ffffffffffffffffffffffffffffffffffffffff1663d505accf898989898989896040518863ffffffff1660e01b8152600401612d80979695949392919061415e565b600060405180830381600087803b158015612d9a57600080fd5b505af1158015612dae573d6000803e3d6000fd5b5050505060008973ffffffffffffffffffffffffffffffffffffffff16637ecebe008a6040518263ffffffff1660e01b8152600401612ded9190613d66565b602060405180830381865afa158015612e0a573d6000803e3d6000fd5b505050506040513d601f19601f82011682018060405250810190612e2e9190613b3e565b9050600182612e3d9190613b9f565b8114612e7e576040517f08c379a0000000000000000000000000000000000000000000000000000000008152600401612e759061423f565b60405180910390fd5b50505050505050505050565b600060019054906101000a900460ff16612ed9576040517f08c379a0000000000000000000000000000000000000000000000000000000008152600401612ed090613c45565b60405180910390fd5b6000603360006101000a81548160ff021916908315150217905550565b600060019054906101000a900460ff16612f45576040517f08c379a0000000000000000000000000000000000000000000000000000000008152600401612f3c90613c45565b60405180910390fd5b600160c981905550565b612f57610d32565b15612f97576040517f08c379a0000000000000000000000000000000000000000000000000000000008152600401612f8e906142ab565b60405180910390fd5b565b6060612fbf8273ffffffffffffffffffffffffffffffffffffffff16601460ff16612fc6565b9050919050565b606060006002836002612fd99190613a3d565b612fe39190613b9f565b67ffffffffffffffff811115612ffc57612ffb61393c565b5b6040519080825280601f01601f19166020018201604052801561302e5781602001600182028036833780820191505090505b5090507f3000000000000000000000000000000000000000000000000000000000000000816000815181106130665761306561396b565b5b60200101907effffffffffffffffffffffffffffffffffffffffffffffffffffffffffffff1916908160001a9053507f7800000000000000000000000000000000000000000000000000000000000000816001815181106130ca576130c961396b565b5b60200101907effffffffffffffffffffffffffffffffffffffffffffffffffffffffffffff1916908160001a9053506000600184600261310a9190613a3d565b6131149190613b9f565b90505b60018111156131b4577f3031323334353637383961626364656600000000000000000000000000000000600f8616601081106131565761315561396b565b5b1a60f81b82828151811061316d5761316c61396b565b5b60200101907effffffffffffffffffffffffffffffffffffffffffffffffffffffffffffff1916908160001a905350600485901c9450806131ad906142cb565b9050613117565b50600084146131f8576040517f08c379a00000000000000000000000000000000000000000000000000000000081526004016131ef90614340565b60405180910390fd5b8091505092915050565b600080fd5b60007fffffffff0000000000000000000000000000000000000000000000000000000082169050919050565b61323c81613207565b811461324757600080fd5b50565b60008135905061325981613233565b92915050565b60006020828403121561327557613274613202565b5b60006132838482850161324a565b91505092915050565b60008115159050919050565b6132a18161328c565b82525050565b60006020820190506132bc6000830184613298565b92915050565b600073ffffffffffffffffffffffffffffffffffffffff82169050919050565b60006132ed826132c2565b9050919050565b6132fd816132e2565b811461330857600080fd5b50565b60008135905061331a816132f4565b92915050565b6000819050919050565b61333381613320565b811461333e57600080fd5b50565b6000813590506133508161332a565b92915050565b60008060006060848603121561336f5761336e613202565b5b600061337d8682870161330b565b935050602061338e86828701613341565b925050604061339f86828701613341565b9150509250925092565b600081519050919050565b600082825260208201905092915050565b6000819050602082019050919050565b6133de81613320565b82525050565b60006133f083836133d5565b60208301905092915050565b6000602082019050919050565b6000613414826133a9565b61341e81856133b4565b9350613429836133c5565b8060005b8381101561345a57815161344188826133e4565b975061344c836133fc565b92505060018101905061342d565b5085935050505092915050565b600060208201905081810360008301526134818184613409565b905092915050565b6000819050919050565b61349c81613489565b81146134a757600080fd5b50565b6000813590506134b981613493565b92915050565b6000602082840312156134d5576134d4613202565b5b60006134e3848285016134aa565b91505092915050565b6134f581613489565b82525050565b600060208201905061351060008301846134ec565b92915050565b60006020828403121561352c5761352b613202565b5b600061353a84828501613341565b91505092915050565b6000806040838503121561355a57613559613202565b5b6000613568858286016134aa565b92505060206135798582860161330b565b9150509250929050565b60006020828403121561359957613598613202565b5b60006135a78482850161330b565b91505092915050565b6135b981613320565b82525050565b60006020820190506135d460008301846135b0565b92915050565b600080604083850312156135f1576135f0613202565b5b60006135ff8582860161330b565b925050602061361085828601613341565b9150509250929050565b600060ff82169050919050565b6136308161361a565b811461363b57600080fd5b50565b60008135905061364d81613627565b92915050565b61365c8161328c565b811461366757600080fd5b50565b60008135905061367981613653565b92915050565b600080600080600080600060e0888a03121561369e5761369d613202565b5b60006136ac8a828b01613341565b97505060206136bd8a828b01613341565b96505060406136ce8a828b01613341565b95505060606136df8a828b0161363e565b94505060806136f08a828b016134aa565b93505060a06137018a828b016134aa565b92505060c06137128a828b0161366a565b91505092959891949750929550565b60008060008060008060c0878903121561373e5761373d613202565b5b600061374c89828a01613341565b965050602061375d89828a01613341565b955050604061376e89828a01613341565b945050606061377f89828a0161363e565b935050608061379089828a016134aa565b92505060a06137a189828a016134aa565b9150509295509295509295565b60008060008060008060c087890312156137cb576137ca613202565b5b60006137d989828a0161330b565b96505060206137ea89828a0161330b565b95505060406137fb89828a0161330b565b945050606061380c89828a01613341565b935050608061381d89828a01613341565b92505060a061382e89828a01613341565b9150509295509295509295565b600060c08201905061385060008301896135b0565b61385d60208301886135b0565b61386a60408301876135b0565b61387760608301866135b0565b61388460808301856135b0565b61389160a0830184613298565b979650505050505050565b60006040820190506138b160008301856135b0565b6138be60208301846135b0565b9392505050565b7f4e487b7100000000000000000000000000000000000000000000000000000000600052601160045260246000fd5b60006138ff82613320565b91507fffffffffffffffffffffffffffffffffffffffffffffffffffffffffffffffff8203613931576139306138c5565b5b600182019050919050565b7f4e487b7100000000000000000000000000000000000000000000000000000000600052604160045260246000fd5b7f4e487b7100000000000000000000000000000000000000000000000000000000600052603260045260246000fd5b600082825260208201905092915050565b7f4d75737420686176652061646d696e20726f6c6520746f20706572666f726d2060008201527f7468697320616374696f6e2e0000000000000000000000000000000000000000602082015250565b6000613a07602c8361399a565b9150613a12826139ab565b604082019050919050565b60006020820190508181036000830152613a36816139fa565b9050919050565b6000613a4882613320565b9150613a5383613320565b9250817fffffffffffffffffffffffffffffffffffffffffffffffffffffffffffffffff0483118215151615613a8c57613a8b6138c5565b5b828202905092915050565b7f416363657373436f6e74726f6c3a2063616e206f6e6c792072656e6f756e636560008201527f20726f6c657320666f722073656c660000000000000000000000000000000000602082015250565b6000613af3602f8361399a565b9150613afe82613a97565b604082019050919050565b60006020820190508181036000830152613b2281613ae6565b9050919050565b600081519050613b388161332a565b92915050565b600060208284031215613b5457613b53613202565b5b6000613b6284828501613b29565b91505092915050565b6000613b7682613320565b9150613b8183613320565b9250828203905081811115613b9957613b986138c5565b5b92915050565b6000613baa82613320565b9150613bb583613320565b9250828201905080821115613bcd57613bcc6138c5565b5b92915050565b7f496e697469616c697a61626c653a20636f6e7472616374206973206e6f74206960008201527f6e697469616c697a696e67000000000000000000000000000000000000000000602082015250565b6000613c2f602b8361399a565b9150613c3a82613bd3565b604082019050919050565b60006020820190508181036000830152613c5e81613c22565b9050919050565b7f496e697469616c697a61626c653a20636f6e747261637420697320616c72656160008201527f647920696e697469616c697a6564000000000000000000000000000000000000602082015250565b6000613cc1602e8361399a565b9150613ccc82613c65565b604082019050919050565b60006020820190508181036000830152613cf081613cb4565b9050919050565b6000819050919050565b6000819050919050565b6000613d26613d21613d1c84613cf7565b613d01565b61361a565b9050919050565b613d3681613d0b565b82525050565b6000602082019050613d516000830184613d2d565b92915050565b613d60816132e2565b82525050565b6000602082019050613d7b6000830184613d57565b92915050565b7f5265656e7472616e637947756172643a207265656e7472616e742063616c6c00600082015250565b6000613db7601f8361399a565b9150613dc282613d81565b602082019050919050565b60006020820190508181036000830152613de681613daa565b9050919050565b6000608082019050613e0260008301876135b0565b613e0f60208301866135b0565b613e1c60408301856135b0565b613e2960608301846135b0565b95945050505050565b600081519050613e4181613653565b92915050565b600060208284031215613e5d57613e5c613202565b5b6000613e6b84828501613e32565b91505092915050565b6000604082019050613e896000830185613d57565b613e9660208301846135b0565b9392505050565b600081905092915050565b7f416363657373436f6e74726f6c3a206163636f756e7420000000000000000000600082015250565b6000613ede601783613e9d565b9150613ee982613ea8565b601782019050919050565b600081519050919050565b60005b83811015613f1d578082015181840152602081019050613f02565b60008484015250505050565b6000613f3482613ef4565b613f3e8185613e9d565b9350613f4e818560208601613eff565b80840191505092915050565b7f206973206d697373696e6720726f6c6520000000000000000000000000000000600082015250565b6000613f90601183613e9d565b9150613f9b82613f5a565b601182019050919050565b6000613fb182613ed1565b9150613fbd8285613f29565b9150613fc882613f83565b9150613fd48284613f29565b91508190509392505050565b6000601f19601f8301169050919050565b6000613ffc82613ef4565b614006818561399a565b9350614016818560208601613eff565b61401f81613fe0565b840191505092915050565b600060208201905081810360008301526140448184613ff1565b905092915050565b7f5061757361626c653a206e6f7420706175736564000000000000000000000000600082015250565b600061408260148361399a565b915061408d8261404c565b602082019050919050565b600060208201905081810360008301526140b181614075565b9050919050565b60006060820190506140cd60008301866135b0565b6140da60208301856135b0565b6140e760408301846135b0565b949350505050565b7f4e487b7100000000000000000000000000000000000000000000000000000000600052601260045260246000fd5b600061412982613320565b915061413483613320565b925082614144576141436140ef565b5b828204905092915050565b6141588161361a565b82525050565b600060e082019050614173600083018a613d57565b6141806020830189613d57565b61418d60408301886135b0565b61419a60608301876135b0565b6141a7608083018661414f565b6141b460a08301856134ec565b6141c160c08301846134ec565b98975050505050505050565b7f5361666545524332303a207065726d697420646964206e6f742073756363656560008201527f6400000000000000000000000000000000000000000000000000000000000000602082015250565b600061422960218361399a565b9150614234826141cd565b604082019050919050565b600060208201905081810360008301526142588161421c565b9050919050565b7f5061757361626c653a2070617573656400000000000000000000000000000000600082015250565b600061429560108361399a565b91506142a08261425f565b602082019050919050565b600060208201905081810360008301526142c481614288565b9050919050565b60006142d682613320565b9150600082036142e9576142e86138c5565b5b600182039050919050565b7f537472696e67733a20686578206c656e67746820696e73756666696369656e74600082015250565b600061432a60208361399a565b9150614335826142f4565b602082019050919050565b600060208201905081810360008301526143598161431d565b905091905056fea2646970667358221220b6dd0a9ead9dd2af36e35ca196795dbce265ae5257ec9529513441bafa0bc2b964736f6c63430008100033",
  "linkReferences": {},
  "deployedLinkReferences": {}
}