{
  "_format": "hh-sol-artifact-1",
  "contractName": "ConstantFlowAgreement",
  "sourceName": "contracts/core/payAsYouGo/ConstantFlowAgreement.sol",
  "abi": [
    {
      "inputs": [],
      "name": "BaseUpgradeablePausable__ZeroAddressError",
      "type": "error"
    },
    {
      "inputs": [],
      "name": "CFA__ActiveInsuranceExistError",
      "type": "error"
    },
    {
      "inputs": [],
      "name": "CFA__ImmutableChangesError",
      "type": "error"
    },
    {
      "inputs": [],
      "name": "CFA__InactiveInsuranceError",
      "type": "error"
    },
    {
      "inputs": [],
      "name": "CFA__InsuranceCoverNotAvailableError",
      "type": "error"
    },
    {
      "inputs": [],
      "name": "CFA__NotEvenMinimumInsurancePeriodAmount",
      "type": "error"
    },
    {
      "inputs": [],
      "name": "CFA__SubCategoryNotActiveError",
      "type": "error"
    },
    {
      "inputs": [],
      "name": "CFA__TransactionFailedError",
      "type": "error"
    },
    {
      "anonymous": false,
      "inputs": [
        {
          "indexed": false,
          "internalType": "uint8",
          "name": "version",
          "type": "uint8"
        }
      ],
      "name": "Initialized",
      "type": "event"
    },
    {
      "anonymous": false,
      "inputs": [
        {
          "indexed": false,
          "internalType": "address",
          "name": "account",
          "type": "address"
        }
      ],
      "name": "Paused",
      "type": "event"
    },
    {
      "anonymous": false,
      "inputs": [
        {
          "indexed": true,
          "internalType": "bytes32",
          "name": "role",
          "type": "bytes32"
        },
        {
          "indexed": true,
          "internalType": "bytes32",
          "name": "previousAdminRole",
          "type": "bytes32"
        },
        {
          "indexed": true,
          "internalType": "bytes32",
          "name": "newAdminRole",
          "type": "bytes32"
        }
      ],
      "name": "RoleAdminChanged",
      "type": "event"
    },
    {
      "anonymous": false,
      "inputs": [
        {
          "indexed": true,
          "internalType": "bytes32",
          "name": "role",
          "type": "bytes32"
        },
        {
          "indexed": true,
          "internalType": "address",
          "name": "account",
          "type": "address"
        },
        {
          "indexed": true,
          "internalType": "address",
          "name": "sender",
          "type": "address"
        }
      ],
      "name": "RoleGranted",
      "type": "event"
    },
    {
      "anonymous": false,
      "inputs": [
        {
          "indexed": true,
          "internalType": "bytes32",
          "name": "role",
          "type": "bytes32"
        },
        {
          "indexed": true,
          "internalType": "address",
          "name": "account",
          "type": "address"
        },
        {
          "indexed": true,
          "internalType": "address",
          "name": "sender",
          "type": "address"
        }
      ],
      "name": "RoleRevoked",
      "type": "event"
    },
    {
      "anonymous": false,
      "inputs": [
        {
          "indexed": false,
          "internalType": "address",
          "name": "account",
          "type": "address"
        }
      ],
      "name": "Unpaused",
      "type": "event"
    },
    {
      "anonymous": false,
      "inputs": [],
      "name": "UpdatedMaxInsuredDays",
      "type": "event"
    },
    {
      "anonymous": false,
      "inputs": [],
      "name": "UpdatedMinimumInsurancePeriod",
      "type": "event"
    },
    {
      "anonymous": false,
      "inputs": [],
      "name": "UpdatedStartWaitingTime",
      "type": "event"
    },
    {
      "inputs": [],
      "name": "DEFAULT_ADMIN_ROLE",
      "outputs": [
        {
          "internalType": "bytes32",
          "name": "",
          "type": "bytes32"
        }
      ],
      "stateMutability": "view",
      "type": "function"
    },
    {
      "inputs": [
        {
          "internalType": "address",
          "name": "owner",
          "type": "address"
        }
      ],
      "name": "__BaseUpgradeablePausable_init",
      "outputs": [],
      "stateMutability": "nonpayable",
      "type": "function"
    },
    {
      "inputs": [
        {
          "internalType": "uint256",
          "name": "insuredAmount",
          "type": "uint256"
        },
        {
          "internalType": "uint256",
          "name": "categoryID",
          "type": "uint256"
        },
        {
          "internalType": "uint256",
          "name": "subCategoryID",
          "type": "uint256"
        }
      ],
      "name": "addInsuranceAmount",
      "outputs": [
        {
          "internalType": "bool",
          "name": "",
          "type": "bool"
        }
      ],
      "stateMutability": "nonpayable",
      "type": "function"
    },
    {
      "inputs": [
        {
          "internalType": "address",
          "name": "userAddress",
          "type": "address"
        },
        {
          "internalType": "uint256",
          "name": "categoryID",
          "type": "uint256"
        }
      ],
      "name": "calculateTotalFlowMade",
      "outputs": [
        {
          "internalType": "uint256",
          "name": "",
          "type": "uint256"
        }
      ],
      "stateMutability": "view",
      "type": "function"
    },
    {
      "inputs": [
        {
          "internalType": "address",
          "name": "userAddress",
          "type": "address"
        }
      ],
      "name": "calculateTotalFlowMade",
      "outputs": [
        {
          "internalType": "uint256",
          "name": "",
          "type": "uint256"
        }
      ],
      "stateMutability": "view",
      "type": "function"
    },
    {
      "inputs": [
        {
          "internalType": "address",
          "name": "userAddress",
          "type": "address"
        },
        {
          "internalType": "uint256",
          "name": "categoryID",
          "type": "uint256"
        }
      ],
      "name": "claimPremium",
      "outputs": [
        {
          "internalType": "bool",
          "name": "",
          "type": "bool"
        }
      ],
      "stateMutability": "nonpayable",
      "type": "function"
    },
    {
      "inputs": [
        {
          "internalType": "address",
          "name": "userAddress",
          "type": "address"
        },
        {
          "internalType": "uint256",
          "name": "categoryID",
          "type": "uint256"
        },
        {
          "internalType": "uint256",
          "name": "subCategoryID",
          "type": "uint256"
        }
      ],
      "name": "claimPremium",
      "outputs": [
        {
          "internalType": "bool",
          "name": "",
          "type": "bool"
        }
      ],
      "stateMutability": "nonpayable",
      "type": "function"
    },
    {
      "inputs": [
        {
          "internalType": "address",
          "name": "userAddress",
          "type": "address"
        },
        {
          "internalType": "uint256",
          "name": "categoryID",
          "type": "uint256"
        },
        {
          "internalType": "uint256",
          "name": "subCategoryCount",
          "type": "uint256"
        }
      ],
      "name": "findActivePremiumCost",
      "outputs": [
        {
          "internalType": "uint256[]",
          "name": "",
          "type": "uint256[]"
        }
      ],
      "stateMutability": "view",
      "type": "function"
    },
    {
      "inputs": [
        {
          "internalType": "address",
          "name": "_userAddress",
          "type": "address"
        }
      ],
      "name": "getGlobalUserInsuranceInfo",
      "outputs": [
        {
          "internalType": "uint256",
          "name": "",
          "type": "uint256"
        },
        {
          "internalType": "uint256",
          "name": "",
          "type": "uint256"
        }
      ],
      "stateMutability": "view",
      "type": "function"
    },
    {
      "inputs": [
        {
          "internalType": "address",
          "name": "userAddress",
          "type": "address"
        }
      ],
      "name": "getGlobalUserInsurancePremiumCost",
      "outputs": [
        {
          "internalType": "uint256",
          "name": "",
          "type": "uint256"
        }
      ],
      "stateMutability": "view",
      "type": "function"
    },
    {
      "inputs": [
        {
          "internalType": "bytes32",
          "name": "role",
          "type": "bytes32"
        }
      ],
      "name": "getRoleAdmin",
      "outputs": [
        {
          "internalType": "bytes32",
          "name": "",
          "type": "bytes32"
        }
      ],
      "stateMutability": "view",
      "type": "function"
    },
    {
      "inputs": [
        {
          "internalType": "address",
          "name": "userAddress",
          "type": "address"
        },
        {
          "internalType": "uint256",
          "name": "categoryID",
          "type": "uint256"
        },
        {
          "internalType": "uint256",
          "name": "subCategoryID",
          "type": "uint256"
        }
      ],
      "name": "getUserInsuranceInfo",
      "outputs": [
        {
          "internalType": "uint256",
          "name": "",
          "type": "uint256"
        },
        {
          "internalType": "uint256",
          "name": "",
          "type": "uint256"
        },
        {
          "internalType": "uint256",
          "name": "",
          "type": "uint256"
        },
        {
          "internalType": "uint256",
          "name": "",
          "type": "uint256"
        },
        {
          "internalType": "uint256",
          "name": "",
          "type": "uint256"
        },
        {
          "internalType": "bool",
          "name": "",
          "type": "bool"
        }
      ],
      "stateMutability": "view",
      "type": "function"
    },
    {
      "inputs": [
        {
          "internalType": "address",
          "name": "userAddress",
          "type": "address"
        },
        {
          "internalType": "uint256",
          "name": "categoryID",
          "type": "uint256"
        },
        {
          "internalType": "uint256",
          "name": "subCategoryID",
          "type": "uint256"
        }
      ],
      "name": "getUserInsuranceStatus",
      "outputs": [
        {
          "internalType": "bool",
          "name": "",
          "type": "bool"
        }
      ],
      "stateMutability": "view",
      "type": "function"
    },
    {
      "inputs": [
        {
          "internalType": "address",
          "name": "userAddress",
          "type": "address"
        },
        {
          "internalType": "uint256",
          "name": "categoryID",
          "type": "uint256"
        },
        {
          "internalType": "uint256",
          "name": "subCategoryID",
          "type": "uint256"
        }
      ],
      "name": "getUserInsuranceValidTillInfo",
      "outputs": [
        {
          "internalType": "uint256",
          "name": "",
          "type": "uint256"
        }
      ],
      "stateMutability": "view",
      "type": "function"
    },
    {
      "inputs": [
        {
          "internalType": "address",
          "name": "userAddress",
          "type": "address"
        },
        {
          "internalType": "uint256",
          "name": "categoryID",
          "type": "uint256"
        },
        {
          "internalType": "uint256",
          "name": "subCategoryID",
          "type": "uint256"
        }
      ],
      "name": "getUserInsuredAmount",
      "outputs": [
        {
          "internalType": "uint256",
          "name": "",
          "type": "uint256"
        }
      ],
      "stateMutability": "view",
      "type": "function"
    },
    {
      "inputs": [
        {
          "internalType": "bytes32",
          "name": "role",
          "type": "bytes32"
        },
        {
          "internalType": "address",
          "name": "account",
          "type": "address"
        }
      ],
      "name": "grantRole",
      "outputs": [],
      "stateMutability": "nonpayable",
      "type": "function"
    },
    {
      "inputs": [
        {
          "internalType": "bytes32",
          "name": "role",
          "type": "bytes32"
        },
        {
          "internalType": "address",
          "name": "account",
          "type": "address"
        }
      ],
      "name": "hasRole",
      "outputs": [
        {
          "internalType": "bool",
          "name": "",
          "type": "bool"
        }
      ],
      "stateMutability": "view",
      "type": "function"
    },
    {
      "inputs": [
        {
          "internalType": "address",
          "name": "tokenDAIaddress",
          "type": "address"
        },
        {
          "internalType": "address",
          "name": "sztDAIAddress",
          "type": "address"
        },
        {
          "internalType": "address",
          "name": "insuranceRegistryCA",
          "type": "address"
        },
        {
          "internalType": "uint256",
          "name": "minimumInsurancePeriod",
          "type": "uint256"
        },
        {
          "internalType": "uint256",
          "name": "startWaitingTime",
          "type": "uint256"
        },
        {
          "internalType": "uint256",
          "name": "maxInsuredDays",
          "type": "uint256"
        }
      ],
      "name": "initialize",
      "outputs": [
        {
          "internalType": "bool",
          "name": "",
          "type": "bool"
        }
      ],
      "stateMutability": "nonpayable",
      "type": "function"
    },
    {
      "inputs": [],
      "name": "isAdmin",
      "outputs": [
        {
          "internalType": "bool",
          "name": "",
          "type": "bool"
        }
      ],
      "stateMutability": "view",
      "type": "function"
    },
    {
      "inputs": [
        {
          "internalType": "uint256",
          "name": "insuredAmount",
          "type": "uint256"
        },
        {
          "internalType": "uint256",
          "name": "categoryID",
          "type": "uint256"
        },
        {
          "internalType": "uint256",
          "name": "subCategoryID",
          "type": "uint256"
        },
        {
          "internalType": "bool",
          "name": "closeStream",
          "type": "bool"
        }
      ],
      "name": "minusInsuranceAmount",
      "outputs": [
        {
          "internalType": "bool",
          "name": "",
          "type": "bool"
        }
      ],
      "stateMutability": "nonpayable",
      "type": "function"
    },
    {
      "inputs": [],
      "name": "pause",
      "outputs": [],
      "stateMutability": "nonpayable",
      "type": "function"
    },
    {
      "inputs": [],
      "name": "paused",
      "outputs": [
        {
          "internalType": "bool",
          "name": "",
          "type": "bool"
        }
      ],
      "stateMutability": "view",
      "type": "function"
    },
    {
      "inputs": [
        {
          "internalType": "bytes32",
          "name": "role",
          "type": "bytes32"
        },
        {
          "internalType": "address",
          "name": "account",
          "type": "address"
        }
      ],
      "name": "renounceRole",
      "outputs": [],
      "stateMutability": "nonpayable",
      "type": "function"
    },
    {
      "inputs": [
        {
          "internalType": "bytes32",
          "name": "role",
          "type": "bytes32"
        },
        {
          "internalType": "address",
          "name": "account",
          "type": "address"
        }
      ],
      "name": "revokeRole",
      "outputs": [],
      "stateMutability": "nonpayable",
      "type": "function"
    },
    {
      "inputs": [
        {
          "internalType": "bytes4",
          "name": "interfaceId",
          "type": "bytes4"
        }
      ],
      "name": "supportsInterface",
      "outputs": [
        {
          "internalType": "bool",
          "name": "",
          "type": "bool"
        }
      ],
      "stateMutability": "view",
      "type": "function"
    },
    {
      "inputs": [],
      "name": "unpause",
      "outputs": [],
      "stateMutability": "nonpayable",
      "type": "function"
    },
    {
      "inputs": [
        {
          "internalType": "uint256",
          "name": "timeInDays",
          "type": "uint256"
        }
      ],
      "name": "updateMaxInsuredDays",
      "outputs": [],
      "stateMutability": "nonpayable",
      "type": "function"
    },
    {
      "inputs": [
        {
          "internalType": "uint256",
          "name": "timeInMinutes",
          "type": "uint256"
        }
      ],
      "name": "updateMinimumInsurancePeriod",
      "outputs": [],
      "stateMutability": "nonpayable",
      "type": "function"
    },
    {
      "inputs": [
        {
          "internalType": "uint256",
          "name": "timeInHours",
          "type": "uint256"
        }
      ],
      "name": "updateStartWaitingTime",
      "outputs": [],
      "stateMutability": "nonpayable",
      "type": "function"
    }
  ],
  "bytecode": "0x608060405234801561001057600080fd5b50613e78806100206000396000f3fe608060405234801561001057600080fd5b50600436106101cf5760003560e01c8063728cdbca11610104578063b4706268116100a2578063d547741f11610071578063d547741f1461058f578063ec249164146105ab578063f099dd50146105dc578063f1ef8f8b1461060c576101cf565b8063b4706268146104f5578063b6db75a014610511578063c392e8501461052f578063cff5eede1461055f576101cf565b80638456cb59116100de5780638456cb591461046857806388295fb21461047257806391d14854146104a7578063a217fddf146104d7576101cf565b8063728cdbca146103d857806377bd35fc1461040857806381280d2b14610438576101cf565b80633f4ba83a1161017157806356eb66bb1161014b57806356eb66bb146103525780635c975abb1461036e5780636b6d105e1461038c5780636e810b1a146103bc576101cf565b80633f4ba83a146102e857806342f6b8a7146102f25780634e94c04814610322576101cf565b806324b7ab24116101ad57806324b7ab24146102645780632a023547146102805780632f2ff15d146102b057806336568abe146102cc576101cf565b806301ffc9a7146101d45780631a5c8f2814610204578063248a9ca314610234575b600080fd5b6101ee60048036038101906101e99190612ef2565b61063c565b6040516101fb9190612f3a565b60405180910390f35b61021e60048036038101906102199190612fe9565b6106b6565b60405161022b91906130fa565b60405180910390f35b61024e60048036038101906102499190613152565b6108d9565b60405161025b919061318e565b60405180910390f35b61027e600480360381019061027991906131a9565b6108f9565b005b61029a600480360381019061029591906131d6565b610983565b6040516102a79190612f3a565b60405180910390f35b6102ca60048036038101906102c59190613229565b6109af565b005b6102e660048036038101906102e19190613229565b6109d0565b005b6102f0610a53565b005b61030c60048036038101906103079190613269565b610aa4565b60405161031991906132a5565b60405180910390f35b61033c600480360381019061033791906132c0565b610b1f565b60405161034991906132a5565b60405180910390f35b61036c600480360381019061036791906131a9565b610cb1565b005b610376610d39565b6040516103839190612f3a565b60405180910390f35b6103a660048036038101906103a19190612fe9565b610d50565b6040516103b391906132a5565b60405180910390f35b6103d660048036038101906103d19190613269565b610dc1565b005b6103f260048036038101906103ed9190613300565b610ee3565b6040516103ff9190612f3a565b60405180910390f35b610422600480360381019061041d91906132c0565b61113d565b60405161042f9190612f3a565b60405180910390f35b610452600480360381019061044d9190612fe9565b611145565b60405161045f9190612f3a565b60405180910390f35b6104706111c3565b005b61048c60048036038101906104879190612fe9565b611214565b60405161049e9695949392919061338d565b60405180910390f35b6104c160048036038101906104bc9190613229565b61131c565b6040516104ce9190612f3a565b60405180910390f35b6104df611387565b6040516104ec919061318e565b60405180910390f35b61050f600480360381019061050a91906131a9565b61138e565b005b610519611419565b6040516105269190612f3a565b60405180910390f35b61054960048036038101906105449190612fe9565b611438565b60405161055691906132a5565b60405180910390f35b61057960048036038101906105749190613269565b6114a9565b60405161058691906132a5565b60405180910390f35b6105a960048036038101906105a49190613229565b611678565b005b6105c560048036038101906105c09190613269565b611699565b6040516105d39291906133ee565b60405180910390f35b6105f660048036038101906105f19190612fe9565b61171d565b6040516106039190612f3a565b60405180910390f35b61062660048036038101906106219190613443565b6117b5565b6040516106339190612f3a565b60405180910390f35b60007f7965db0b000000000000000000000000000000000000000000000000000000007bffffffffffffffffffffffffffffffffffffffffffffffffffffffff1916827bffffffffffffffffffffffffffffffffffffffffffffffffffffffff191614806106af57506106ae826117e3565b5b9050919050565b60606000805b838110156107b557600061010360008873ffffffffffffffffffffffffffffffffffffffff1673ffffffffffffffffffffffffffffffffffffffff168152602001908152602001600020600087815260200190815260200160002060008381526020019081526020016000206040518060e00160405290816000820154815260200160018201548152602001600282015481526020016003820154815260200160048201548152602001600582015481526020016006820160009054906101000a900460ff16151515158152505090508060c00151156107a357826107a0906134d9565b92505b816107ad906134d9565b9150506106bc565b5060008167ffffffffffffffff8111156107d2576107d1613521565b5b6040519080825280602002602001820160405280156108005781602001602082028036833780820191505090505b5090506000805b858110156108cb57600061010360008a73ffffffffffffffffffffffffffffffffffffffff1673ffffffffffffffffffffffffffffffffffffffff1681526020019081526020016000206000898152602001908152602001600020600083815260200190815260200160002090508060060160009054906101000a900460ff16156108b957818484815181106108a05761089f613550565b5b602002602001018181525050826108b6906134d9565b92505b816108c3906134d9565b915050610807565b508193505050509392505050565b600060976000838152602001908152602001600020600101549050919050565b610901611419565b610940576040517f08c379a000000000000000000000000000000000000000000000000000000000815260040161093790613602565b60405180910390fd5b610e108161094e9190613622565b60fd819055507f75c07eb064b8ccf959bcc601b55315ca198e67b597dc0a7b93e130f8ca779a6760405160405180910390a150565b600061098d61184d565b600061099a85858561189c565b9050809150506109a8611a3a565b9392505050565b6109b8826108d9565b6109c181611a44565b6109cb8383611a58565b505050565b6109d8611b39565b73ffffffffffffffffffffffffffffffffffffffff168173ffffffffffffffffffffffffffffffffffffffff1614610a45576040517f08c379a0000000000000000000000000000000000000000000000000000000008152600401610a3c906136ee565b60405180910390fd5b610a4f8282611b41565b5050565b610a5b611419565b610a9a576040517f08c379a0000000000000000000000000000000000000000000000000000000008152600401610a9190613602565b60405180910390fd5b610aa2611c23565b565b60008061010260008473ffffffffffffffffffffffffffffffffffffffff1673ffffffffffffffffffffffffffffffffffffffff168152602001908152602001600020604051806060016040529081600082015481526020016001820154815260200160028201548152505090508060400151915050919050565b600080600090506000610bcf858561010160009054906101000a900473ffffffffffffffffffffffffffffffffffffffff1673ffffffffffffffffffffffffffffffffffffffff16633bf4c082886040518263ffffffff1660e01b8152600401610b8991906132a5565b602060405180830381865afa158015610ba6573d6000803e3d6000fd5b505050506040513d601f19601f82011682018060405250810190610bca9190613723565b6106b6565b905060005b8151811015610ca557600061010360008873ffffffffffffffffffffffffffffffffffffffff1673ffffffffffffffffffffffffffffffffffffffff16815260200190815260200160002060008781526020019081526020016000206000848481518110610c4557610c44613550565b5b602002602001015181526020019081526020016000209050600081600001548260010154610c739190613750565b9050808260040154610c859190613622565b85610c909190613784565b945082610c9c906134d9565b92505050610bd4565b50819250505092915050565b610cb9611419565b610cf8576040517f08c379a0000000000000000000000000000000000000000000000000000000008152600401610cef90613602565b60405180910390fd5b603c81610d059190613622565b60fe819055507e3a5a2424463bb22c8fc4c0f2422b7a18712b7713f9619caa313f499fad615e60405160405180910390a150565b6000603360009054906101000a900460ff16905090565b600061010360008573ffffffffffffffffffffffffffffffffffffffff1673ffffffffffffffffffffffffffffffffffffffff168152602001908152602001600020600084815260200190815260200160002060008381526020019081526020016000206002015490509392505050565b600060019054906101000a900460ff16610e10576040517f08c379a0000000000000000000000000000000000000000000000000000000008152600401610e079061382a565b60405180910390fd5b600073ffffffffffffffffffffffffffffffffffffffff168173ffffffffffffffffffffffffffffffffffffffff1603610e76576040517f5415139400000000000000000000000000000000000000000000000000000000815260040160405180910390fd5b610e7e611c86565b610e86611cdf565b610e8e611d30565b610e9f610e99611d89565b82611a58565b610eb0610eaa611db1565b82611a58565b610ec8610ebb611db1565b610ec3611d89565b611dd9565b610ee0610ed3611d89565b610edb611d89565b611dd9565b50565b600080600060019054906101000a900460ff16159050808015610f165750600160008054906101000a900460ff1660ff16105b80610f435750610f2530611e35565b158015610f425750600160008054906101000a900460ff1660ff16145b5b610f82576040517f08c379a0000000000000000000000000000000000000000000000000000000008152600401610f79906138bc565b60405180910390fd5b60016000806101000a81548160ff021916908360ff1602179055508015610fbf576001600060016101000a81548160ff0219169083151502179055505b600060fb81905550603c83610fd49190613622565b60fc81905550603c84610fe79190613622565b60fd81905550603c85610ffa9190613622565b60fe819055508760ff60006101000a81548173ffffffffffffffffffffffffffffffffffffffff021916908373ffffffffffffffffffffffffffffffffffffffff1602179055508661010060006101000a81548173ffffffffffffffffffffffffffffffffffffffff021916908373ffffffffffffffffffffffffffffffffffffffff1602179055508561010160006101000a81548173ffffffffffffffffffffffffffffffffffffffff021916908373ffffffffffffffffffffffffffffffffffffffff1602179055506110d56110d0611b39565b610dc1565b6001915080156111325760008060016101000a81548160ff0219169083151502179055507f7f26b83ff96e1f2b6a682f133852f6798a09c465da95921460cefb38474024986001604051611129919061392e565b60405180910390a15b509695505050505050565b600092915050565b600061010360008573ffffffffffffffffffffffffffffffffffffffff1673ffffffffffffffffffffffffffffffffffffffff1681526020019081526020016000206000848152602001908152602001600020600083815260200190815260200160002060060160009054906101000a900460ff1690509392505050565b6111cb611419565b61120a576040517f08c379a000000000000000000000000000000000000000000000000000000000815260040161120190613602565b60405180910390fd5b611212611e58565b565b600080600080600080600061010360008b73ffffffffffffffffffffffffffffffffffffffff1673ffffffffffffffffffffffffffffffffffffffff16815260200190815260200160002060008a815260200190815260200160002060008981526020019081526020016000206040518060e00160405290816000820154815260200160018201548152602001600282015481526020016003820154815260200160048201548152602001600582015481526020016006820160009054906101000a900460ff1615151515815250509050806040015181608001518260600151836000015184602001518560c001519650965096509650965096505093975093979195509350565b60006097600084815260200190815260200160002060000160008373ffffffffffffffffffffffffffffffffffffffff1673ffffffffffffffffffffffffffffffffffffffff16815260200190815260200160002060009054906101000a900460ff16905092915050565b6000801b81565b611396611419565b6113d5576040517f08c379a00000000000000000000000000000000000000000000000000000000081526004016113cc90613602565b60405180910390fd5b62015180816113e49190613622565b60fc819055507fdb4fb2fd6b8b90f67bda8671842d5cab4eb4b7eba9683f5bcec9aba9473cc95760405160405180910390a150565b6000611433611426611d89565b61142e611b39565b61131c565b905090565b600061010360008573ffffffffffffffffffffffffffffffffffffffff1673ffffffffffffffffffffffffffffffffffffffff168152602001908152602001600020600084815260200190815260200160002060008381526020019081526020016000206001015490509392505050565b6000806000905060005b60fb5481101561166e57600080611567868461010160009054906101000a900473ffffffffffffffffffffffffffffffffffffffff1673ffffffffffffffffffffffffffffffffffffffff16633bf4c082876040518263ffffffff1660e01b815260040161152191906132a5565b602060405180830381865afa15801561153e573d6000803e3d6000fd5b505050506040513d601f19601f820116820180604052508101906115629190613723565b6106b6565b905060005b815181101561164c57600061010360008973ffffffffffffffffffffffffffffffffffffffff1673ffffffffffffffffffffffffffffffffffffffff168152602001908152602001600020600086815260200190815260200160002060008484815181106115dd576115dc613550565b5b60200260200101518152602001908152602001600020905060008160000154421161160957600061161a565b8160000154426116199190613750565b5b905080826004015461162c9190613622565b856116379190613784565b945082611643906134d9565b9250505061156c565b5081846116599190613784565b935082611665906134d9565b925050506114b3565b5080915050919050565b611681826108d9565b61168a81611a44565b6116948383611b41565b505050565b600080600061010260008573ffffffffffffffffffffffffffffffffffffffff1673ffffffffffffffffffffffffffffffffffffffff16815260200190815260200160002060405180606001604052908160008201548152602001600182015481526020016002820154815250509050806020015181600001519250925050915091565b60004261172b858585611438565b1115611763576040517f707001b500000000000000000000000000000000000000000000000000000000815260040160405180910390fd5b6000611770858585611ebb565b9050806117a9576040517fb00fcb1e00000000000000000000000000000000000000000000000000000000815260040160405180910390fd5b60019150509392505050565b60006117bf61184d565b60006117cd8686868661225d565b9050809150506117db611a3a565b949350505050565b60007f01ffc9a7000000000000000000000000000000000000000000000000000000007bffffffffffffffffffffffffffffffffffffffffffffffffffffffff1916827bffffffffffffffffffffffffffffffffffffffffffffffffffffffff1916149050919050565b600260c95403611892576040517f08c379a000000000000000000000000000000000000000000000000000000000815260040161188990613995565b60405180910390fd5b600260c981905550565b6000808461010360006118ad611b39565b73ffffffffffffffffffffffffffffffffffffffff1673ffffffffffffffffffffffffffffffffffffffff16815260200190815260200160002060008681526020019081526020016000206000858152602001908152602001600020600201546119179190613784565b90506101036000611926611b39565b73ffffffffffffffffffffffffffffffffffffffff1673ffffffffffffffffffffffffffffffffffffffff1681526020019081526020016000206000858152602001908152602001600020600084815260200190815260200160002060060160009054906101000a900460ff16156119e75760006119ac6119a5611b39565b8686611ebb565b9050806119e5576040517fb00fcb1e00000000000000000000000000000000000000000000000000000000815260040160405180910390fd5b505b60006119f4828686612433565b905080611a2d576040517fb00fcb1e00000000000000000000000000000000000000000000000000000000815260040160405180910390fd5b6001925050509392505050565b600160c981905550565b611a5581611a50611b39565b612a4f565b50565b611a62828261131c565b611b355760016097600084815260200190815260200160002060000160008373ffffffffffffffffffffffffffffffffffffffff1673ffffffffffffffffffffffffffffffffffffffff16815260200190815260200160002060006101000a81548160ff021916908315150217905550611ada611b39565b73ffffffffffffffffffffffffffffffffffffffff168173ffffffffffffffffffffffffffffffffffffffff16837f2f8788117e7eff1d82e926ec794901d17c78024a50270940304540a733656f0d60405160405180910390a45b5050565b600033905090565b611b4b828261131c565b15611c1f5760006097600084815260200190815260200160002060000160008373ffffffffffffffffffffffffffffffffffffffff1673ffffffffffffffffffffffffffffffffffffffff16815260200190815260200160002060006101000a81548160ff021916908315150217905550611bc4611b39565b73ffffffffffffffffffffffffffffffffffffffff168173ffffffffffffffffffffffffffffffffffffffff16837ff6391f5c32d9c69d2a47ea670b442974b53935d1edc7fd64eb21e047a839171b60405160405180910390a45b5050565b611c2b612ad4565b6000603360006101000a81548160ff0219169083151502179055507f5db9ee0a495bf2e6ff9c91a7834c1ba4fdd244a5e8aa4e537bd38aeae4b073aa611c6f611b39565b604051611c7c91906139c4565b60405180910390a1565b600060019054906101000a900460ff16611cd5576040517f08c379a0000000000000000000000000000000000000000000000000000000008152600401611ccc9061382a565b60405180910390fd5b611cdd612b1d565b565b600060019054906101000a900460ff16611d2e576040517f08c379a0000000000000000000000000000000000000000000000000000000008152600401611d259061382a565b60405180910390fd5b565b600060019054906101000a900460ff16611d7f576040517f08c379a0000000000000000000000000000000000000000000000000000000008152600401611d769061382a565b60405180910390fd5b611d87612b89565b565b60007fa49807205ce4d355092ef5a8a18f56e8913cf4a201fbe287825b095693c21775905090565b60007f65d7a28e3265b37a6474929f336521b332c1681b933f6cb9f3376673440d862a905090565b6000611de4836108d9565b90508160976000858152602001908152602001600020600101819055508181847fbd79b86ffe0ab8e8776151514217cd7cacd52c909f66475c3af44e129f0b00ff60405160405180910390a4505050565b6000808273ffffffffffffffffffffffffffffffffffffffff163b119050919050565b611e60612be2565b6001603360006101000a81548160ff0219169083151502179055507f62e78cea01bee320cd4e420270b5ea74000d11b0c9f74754ebdbfc544b05a258611ea4611b39565b604051611eb191906139c4565b60405180910390a1565b60008061010360008673ffffffffffffffffffffffffffffffffffffffff1673ffffffffffffffffffffffffffffffffffffffff1681526020019081526020016000206000858152602001908152602001600020600084815260200190815260200160002090508060060160009054906101000a900460ff16611f6a576040517f96ae3e8200000000000000000000000000000000000000000000000000000000815260040160405180910390fd5b60008160060160006101000a81548160ff021916908315150217905550600081600001544211611f9b576000611fc2565b81600101544211611fbb57816000015442611fb69190613750565b611fc1565b81600101545b5b90506000826004015482611fd69190613622565b905060008103611fec5760019350505050612256565b826004015461010260008973ffffffffffffffffffffffffffffffffffffffff1673ffffffffffffffffffffffffffffffffffffffff16815260200190815260200160002060010160008282546120439190613750565b92505081905550826005015461010260008973ffffffffffffffffffffffffffffffffffffffff1673ffffffffffffffffffffffffffffffffffffffff16815260200190815260200160002060020160008282546120a19190613750565b92505081905550600083600401549050600084600201549050600061010160009054906101000a900473ffffffffffffffffffffffffffffffffffffffff1673ffffffffffffffffffffffffffffffffffffffff166326a6e9eb8a8a85876040518563ffffffff1660e01b815260040161211e94939291906139df565b6020604051808303816000875af115801561213d573d6000803e3d6000fd5b505050506040513d601f19601f820116820180604052508101906121619190613a39565b9050600061010060009054906101000a900473ffffffffffffffffffffffffffffffffffffffff1673ffffffffffffffffffffffffffffffffffffffff166379cc67908c876040518363ffffffff1660e01b81526004016121c3929190613a66565b6020604051808303816000875af11580156121e2573d6000803e3d6000fd5b505050506040513d601f19601f820116820180604052508101906122069190613a39565b9050811580612213575080155b1561224a576040517fb00fcb1e00000000000000000000000000000000000000000000000000000000815260040160405180910390fd5b60019750505050505050505b9392505050565b6000610103600061226c611b39565b73ffffffffffffffffffffffffffffffffffffffff1673ffffffffffffffffffffffffffffffffffffffff1681526020019081526020016000206000858152602001908152602001600020600084815260200190815260200160002060060160009054906101000a900460ff1661230f576040517f96ae3e8200000000000000000000000000000000000000000000000000000000815260040160405180910390fd5b600061232361231c611b39565b8686611ebb565b90508061235c576040517fb00fcb1e00000000000000000000000000000000000000000000000000000000815260040160405180910390fd5b82612426576000866101036000612371611b39565b73ffffffffffffffffffffffffffffffffffffffff1673ffffffffffffffffffffffffffffffffffffffff16815260200190815260200160002060008881526020019081526020016000206000878152602001908152602001600020600201546123db9190613750565b905060006123ea828888612433565b905080612423576040517fb00fcb1e00000000000000000000000000000000000000000000000000000000815260040160405180910390fd5b50505b6001915050949350505050565b6000670de0b6b3a7640000841015612476576040517ecd474300000000000000000000000000000000000000000000000000000000815260040160405180910390fd5b61010160009054906101000a900473ffffffffffffffffffffffffffffffffffffffff1673ffffffffffffffffffffffffffffffffffffffff16635657f79d8486856040518463ffffffff1660e01b81526004016124d693929190613a8f565b602060405180830381865afa1580156124f3573d6000803e3d6000fd5b505050506040513d601f19601f820116820180604052508101906125179190613a39565b61254d576040517f1e45d1b400000000000000000000000000000000000000000000000000000000815260040160405180910390fd5b610103600061255a611b39565b73ffffffffffffffffffffffffffffffffffffffff1673ffffffffffffffffffffffffffffffffffffffff1681526020019081526020016000206000848152602001908152602001600020600083815260200190815260200160002060060160009054906101000a900460ff16156125fe576040517f707001b500000000000000000000000000000000000000000000000000000000815260040160405180910390fd5b6000610103600061260d611b39565b73ffffffffffffffffffffffffffffffffffffffff1673ffffffffffffffffffffffffffffffffffffffff1681526020019081526020016000206000858152602001908152602001600020600084815260200190815260200160002090506000610102600061267a611b39565b73ffffffffffffffffffffffffffffffffffffffff1673ffffffffffffffffffffffffffffffffffffffff16815260200190815260200160002090506000816002015461010060009054906101000a900473ffffffffffffffffffffffffffffffffffffffff1673ffffffffffffffffffffffffffffffffffffffff166370a08231612704611b39565b6040518263ffffffff1660e01b815260040161272091906139c4565b602060405180830381865afa15801561273d573d6000803e3d6000fd5b505050506040513d601f19601f820116820180604052508101906127619190613723565b61276b9190613750565b90506000670de0b6b3a76400008861010160009054906101000a900473ffffffffffffffffffffffffffffffffffffffff1673ffffffffffffffffffffffffffffffffffffffff16635952a8c68a8a6040518363ffffffff1660e01b81526004016127d79291906133ee565b602060405180830381865afa1580156127f4573d6000803e3d6000fd5b505050506040513d601f19601f820116820180604052508101906128189190613723565b6128229190613622565b61282c9190613af5565b905060008184600101546128409190613784565b90508260fe54826128519190613622565b1115612889576040517fe4b581a500000000000000000000000000000000000000000000000000000000815260040160405180910390fd5b600082846128979190613af5565b9050828560010160008282546128ad9190613784565b9250508190555089866002018190555082866004018190555042866003018190555060fd54426128dd9190613784565b866000018190555060fc5481106129055760fc5486600001546129009190613784565b612916565b8086600001546129159190613784565b5b8660010181905550828161292a9190613622565b866005018190555060018660060160006101000a81548160ff02191690831515021790555085600501548560020160008282546129679190613784565b92505081905550846000015486600101541061298757856001015461298d565b84600001545b8560000181905550600061010160009054906101000a900473ffffffffffffffffffffffffffffffffffffffff1673ffffffffffffffffffffffffffffffffffffffff1663d9895c708b8b8e886040518563ffffffff1660e01b81526004016129f994939291906139df565b6020604051808303816000875af1158015612a18573d6000803e3d6000fd5b505050506040513d601f19601f82011682018060405250810190612a3c9190613a39565b9050809750505050505050509392505050565b612a59828261131c565b612ad057612a6681612c2c565b612a748360001c6020612c59565b604051602001612a85929190613c2f565b6040516020818303038152906040526040517f08c379a0000000000000000000000000000000000000000000000000000000008152600401612ac79190613cb3565b60405180910390fd5b5050565b612adc610d39565b612b1b576040517f08c379a0000000000000000000000000000000000000000000000000000000008152600401612b1290613d21565b60405180910390fd5b565b600060019054906101000a900460ff16612b6c576040517f08c379a0000000000000000000000000000000000000000000000000000000008152600401612b639061382a565b60405180910390fd5b6000603360006101000a81548160ff021916908315150217905550565b600060019054906101000a900460ff16612bd8576040517f08c379a0000000000000000000000000000000000000000000000000000000008152600401612bcf9061382a565b60405180910390fd5b600160c981905550565b612bea610d39565b15612c2a576040517f08c379a0000000000000000000000000000000000000000000000000000000008152600401612c2190613d8d565b60405180910390fd5b565b6060612c528273ffffffffffffffffffffffffffffffffffffffff16601460ff16612c59565b9050919050565b606060006002836002612c6c9190613622565b612c769190613784565b67ffffffffffffffff811115612c8f57612c8e613521565b5b6040519080825280601f01601f191660200182016040528015612cc15781602001600182028036833780820191505090505b5090507f300000000000000000000000000000000000000000000000000000000000000081600081518110612cf957612cf8613550565b5b60200101907effffffffffffffffffffffffffffffffffffffffffffffffffffffffffffff1916908160001a9053507f780000000000000000000000000000000000000000000000000000000000000081600181518110612d5d57612d5c613550565b5b60200101907effffffffffffffffffffffffffffffffffffffffffffffffffffffffffffff1916908160001a90535060006001846002612d9d9190613622565b612da79190613784565b90505b6001811115612e47577f3031323334353637383961626364656600000000000000000000000000000000600f861660108110612de957612de8613550565b5b1a60f81b828281518110612e0057612dff613550565b5b60200101907effffffffffffffffffffffffffffffffffffffffffffffffffffffffffffff1916908160001a905350600485901c945080612e4090613dad565b9050612daa565b5060008414612e8b576040517f08c379a0000000000000000000000000000000000000000000000000000000008152600401612e8290613e22565b60405180910390fd5b8091505092915050565b600080fd5b60007fffffffff0000000000000000000000000000000000000000000000000000000082169050919050565b612ecf81612e9a565b8114612eda57600080fd5b50565b600081359050612eec81612ec6565b92915050565b600060208284031215612f0857612f07612e95565b5b6000612f1684828501612edd565b91505092915050565b60008115159050919050565b612f3481612f1f565b82525050565b6000602082019050612f4f6000830184612f2b565b92915050565b600073ffffffffffffffffffffffffffffffffffffffff82169050919050565b6000612f8082612f55565b9050919050565b612f9081612f75565b8114612f9b57600080fd5b50565b600081359050612fad81612f87565b92915050565b6000819050919050565b612fc681612fb3565b8114612fd157600080fd5b50565b600081359050612fe381612fbd565b92915050565b60008060006060848603121561300257613001612e95565b5b600061301086828701612f9e565b935050602061302186828701612fd4565b925050604061303286828701612fd4565b9150509250925092565b600081519050919050565b600082825260208201905092915050565b6000819050602082019050919050565b61307181612fb3565b82525050565b60006130838383613068565b60208301905092915050565b6000602082019050919050565b60006130a78261303c565b6130b18185613047565b93506130bc83613058565b8060005b838110156130ed5781516130d48882613077565b97506130df8361308f565b9250506001810190506130c0565b5085935050505092915050565b60006020820190508181036000830152613114818461309c565b905092915050565b6000819050919050565b61312f8161311c565b811461313a57600080fd5b50565b60008135905061314c81613126565b92915050565b60006020828403121561316857613167612e95565b5b60006131768482850161313d565b91505092915050565b6131888161311c565b82525050565b60006020820190506131a3600083018461317f565b92915050565b6000602082840312156131bf576131be612e95565b5b60006131cd84828501612fd4565b91505092915050565b6000806000606084860312156131ef576131ee612e95565b5b60006131fd86828701612fd4565b935050602061320e86828701612fd4565b925050604061321f86828701612fd4565b9150509250925092565b600080604083850312156132405761323f612e95565b5b600061324e8582860161313d565b925050602061325f85828601612f9e565b9150509250929050565b60006020828403121561327f5761327e612e95565b5b600061328d84828501612f9e565b91505092915050565b61329f81612fb3565b82525050565b60006020820190506132ba6000830184613296565b92915050565b600080604083850312156132d7576132d6612e95565b5b60006132e585828601612f9e565b92505060206132f685828601612fd4565b9150509250929050565b60008060008060008060c0878903121561331d5761331c612e95565b5b600061332b89828a01612f9e565b965050602061333c89828a01612f9e565b955050604061334d89828a01612f9e565b945050606061335e89828a01612fd4565b935050608061336f89828a01612fd4565b92505060a061338089828a01612fd4565b9150509295509295509295565b600060c0820190506133a26000830189613296565b6133af6020830188613296565b6133bc6040830187613296565b6133c96060830186613296565b6133d66080830185613296565b6133e360a0830184612f2b565b979650505050505050565b60006040820190506134036000830185613296565b6134106020830184613296565b9392505050565b61342081612f1f565b811461342b57600080fd5b50565b60008135905061343d81613417565b92915050565b6000806000806080858703121561345d5761345c612e95565b5b600061346b87828801612fd4565b945050602061347c87828801612fd4565b935050604061348d87828801612fd4565b925050606061349e8782880161342e565b91505092959194509250565b7f4e487b7100000000000000000000000000000000000000000000000000000000600052601160045260246000fd5b60006134e482612fb3565b91507fffffffffffffffffffffffffffffffffffffffffffffffffffffffffffffffff8203613516576135156134aa565b5b600182019050919050565b7f4e487b7100000000000000000000000000000000000000000000000000000000600052604160045260246000fd5b7f4e487b7100000000000000000000000000000000000000000000000000000000600052603260045260246000fd5b600082825260208201905092915050565b7f4d75737420686176652061646d696e20726f6c6520746f20706572666f726d2060008201527f7468697320616374696f6e2e0000000000000000000000000000000000000000602082015250565b60006135ec602c8361357f565b91506135f782613590565b604082019050919050565b6000602082019050818103600083015261361b816135df565b9050919050565b600061362d82612fb3565b915061363883612fb3565b9250817fffffffffffffffffffffffffffffffffffffffffffffffffffffffffffffffff0483118215151615613671576136706134aa565b5b828202905092915050565b7f416363657373436f6e74726f6c3a2063616e206f6e6c792072656e6f756e636560008201527f20726f6c657320666f722073656c660000000000000000000000000000000000602082015250565b60006136d8602f8361357f565b91506136e38261367c565b604082019050919050565b60006020820190508181036000830152613707816136cb565b9050919050565b60008151905061371d81612fbd565b92915050565b60006020828403121561373957613738612e95565b5b60006137478482850161370e565b91505092915050565b600061375b82612fb3565b915061376683612fb3565b925082820390508181111561377e5761377d6134aa565b5b92915050565b600061378f82612fb3565b915061379a83612fb3565b92508282019050808211156137b2576137b16134aa565b5b92915050565b7f496e697469616c697a61626c653a20636f6e7472616374206973206e6f74206960008201527f6e697469616c697a696e67000000000000000000000000000000000000000000602082015250565b6000613814602b8361357f565b915061381f826137b8565b604082019050919050565b6000602082019050818103600083015261384381613807565b9050919050565b7f496e697469616c697a61626c653a20636f6e747261637420697320616c72656160008201527f647920696e697469616c697a6564000000000000000000000000000000000000602082015250565b60006138a6602e8361357f565b91506138b18261384a565b604082019050919050565b600060208201905081810360008301526138d581613899565b9050919050565b6000819050919050565b600060ff82169050919050565b6000819050919050565b600061391861391361390e846138dc565b6138f3565b6138e6565b9050919050565b613928816138fd565b82525050565b6000602082019050613943600083018461391f565b92915050565b7f5265656e7472616e637947756172643a207265656e7472616e742063616c6c00600082015250565b600061397f601f8361357f565b915061398a82613949565b602082019050919050565b600060208201905081810360008301526139ae81613972565b9050919050565b6139be81612f75565b82525050565b60006020820190506139d960008301846139b5565b92915050565b60006080820190506139f46000830187613296565b613a016020830186613296565b613a0e6040830185613296565b613a1b6060830184613296565b95945050505050565b600081519050613a3381613417565b92915050565b600060208284031215613a4f57613a4e612e95565b5b6000613a5d84828501613a24565b91505092915050565b6000604082019050613a7b60008301856139b5565b613a886020830184613296565b9392505050565b6000606082019050613aa46000830186613296565b613ab16020830185613296565b613abe6040830184613296565b949350505050565b7f4e487b7100000000000000000000000000000000000000000000000000000000600052601260045260246000fd5b6000613b0082612fb3565b9150613b0b83612fb3565b925082613b1b57613b1a613ac6565b5b828204905092915050565b600081905092915050565b7f416363657373436f6e74726f6c3a206163636f756e7420000000000000000000600082015250565b6000613b67601783613b26565b9150613b7282613b31565b601782019050919050565b600081519050919050565b60005b83811015613ba6578082015181840152602081019050613b8b565b60008484015250505050565b6000613bbd82613b7d565b613bc78185613b26565b9350613bd7818560208601613b88565b80840191505092915050565b7f206973206d697373696e6720726f6c6520000000000000000000000000000000600082015250565b6000613c19601183613b26565b9150613c2482613be3565b601182019050919050565b6000613c3a82613b5a565b9150613c468285613bb2565b9150613c5182613c0c565b9150613c5d8284613bb2565b91508190509392505050565b6000601f19601f8301169050919050565b6000613c8582613b7d565b613c8f818561357f565b9350613c9f818560208601613b88565b613ca881613c69565b840191505092915050565b60006020820190508181036000830152613ccd8184613c7a565b905092915050565b7f5061757361626c653a206e6f7420706175736564000000000000000000000000600082015250565b6000613d0b60148361357f565b9150613d1682613cd5565b602082019050919050565b60006020820190508181036000830152613d3a81613cfe565b9050919050565b7f5061757361626c653a2070617573656400000000000000000000000000000000600082015250565b6000613d7760108361357f565b9150613d8282613d41565b602082019050919050565b60006020820190508181036000830152613da681613d6a565b9050919050565b6000613db882612fb3565b915060008203613dcb57613dca6134aa565b5b600182039050919050565b7f537472696e67733a20686578206c656e67746820696e73756666696369656e74600082015250565b6000613e0c60208361357f565b9150613e1782613dd6565b602082019050919050565b60006020820190508181036000830152613e3b81613dff565b905091905056fea264697066735822122021c0e6a2d41d1301f448e3c838fa245ecaf7dbf5d3a3a0c56d5ba5acbb23b44d64736f6c63430008100033",
  "linkReferences": {},
  "deployedLinkReferences": {}
}