{
  "_format": "hh-sol-artifact-1",
  "contractName": "MockCompoundV2Insurance",
  "sourceName": "contracts/core/zeroPremium/SmartContractInsurance/Compound/MockCompoundV2Insurance.sol",
  "abi": [
    {
      "inputs": [],
      "name": "BaseUpgradeablePausable__ZeroAddressError",
      "type": "error"
    },
    {
      "inputs": [],
      "name": "Compound_ZP__ImmutableChangesError",
      "type": "error"
    },
    {
      "inputs": [],
      "name": "Compound_ZP__LowAmountError",
      "type": "error"
    },
    {
      "inputs": [],
      "name": "Compound_ZP__LowSupplyAmountError",
      "type": "error"
    },
    {
      "inputs": [],
      "name": "Compound_ZP__TransactionFailedError",
      "type": "error"
    },
    {
      "inputs": [],
      "name": "Compound_ZP__WrongInfoEnteredError",
      "type": "error"
    },
    {
      "anonymous": false,
      "inputs": [
        {
          "indexed": false,
          "internalType": "uint8",
          "name": "version",
          "type": "uint8"
        }
      ],
      "name": "Initialized",
      "type": "event"
    },
    {
      "anonymous": false,
      "inputs": [
        {
          "indexed": false,
          "internalType": "address",
          "name": "account",
          "type": "address"
        }
      ],
      "name": "Paused",
      "type": "event"
    },
    {
      "anonymous": false,
      "inputs": [
        {
          "indexed": true,
          "internalType": "bytes32",
          "name": "role",
          "type": "bytes32"
        },
        {
          "indexed": true,
          "internalType": "bytes32",
          "name": "previousAdminRole",
          "type": "bytes32"
        },
        {
          "indexed": true,
          "internalType": "bytes32",
          "name": "newAdminRole",
          "type": "bytes32"
        }
      ],
      "name": "RoleAdminChanged",
      "type": "event"
    },
    {
      "anonymous": false,
      "inputs": [
        {
          "indexed": true,
          "internalType": "bytes32",
          "name": "role",
          "type": "bytes32"
        },
        {
          "indexed": true,
          "internalType": "address",
          "name": "account",
          "type": "address"
        },
        {
          "indexed": true,
          "internalType": "address",
          "name": "sender",
          "type": "address"
        }
      ],
      "name": "RoleGranted",
      "type": "event"
    },
    {
      "anonymous": false,
      "inputs": [
        {
          "indexed": true,
          "internalType": "bytes32",
          "name": "role",
          "type": "bytes32"
        },
        {
          "indexed": true,
          "internalType": "address",
          "name": "account",
          "type": "address"
        },
        {
          "indexed": true,
          "internalType": "address",
          "name": "sender",
          "type": "address"
        }
      ],
      "name": "RoleRevoked",
      "type": "event"
    },
    {
      "anonymous": false,
      "inputs": [
        {
          "indexed": true,
          "internalType": "address",
          "name": "userAddress",
          "type": "address"
        },
        {
          "indexed": true,
          "internalType": "address",
          "name": "tokenAddress",
          "type": "address"
        },
        {
          "indexed": true,
          "internalType": "uint256",
          "name": "amount",
          "type": "uint256"
        }
      ],
      "name": "SuppliedToken",
      "type": "event"
    },
    {
      "anonymous": false,
      "inputs": [
        {
          "indexed": true,
          "internalType": "address",
          "name": "userAddress",
          "type": "address"
        },
        {
          "indexed": true,
          "internalType": "address",
          "name": "tokenAddress",
          "type": "address"
        },
        {
          "indexed": false,
          "internalType": "uint256",
          "name": "amount",
          "type": "uint256"
        }
      ],
      "name": "TokenMinted",
      "type": "event"
    },
    {
      "anonymous": false,
      "inputs": [
        {
          "indexed": false,
          "internalType": "address",
          "name": "account",
          "type": "address"
        }
      ],
      "name": "Unpaused",
      "type": "event"
    },
    {
      "anonymous": false,
      "inputs": [
        {
          "indexed": true,
          "internalType": "address",
          "name": "userAddress",
          "type": "address"
        },
        {
          "indexed": true,
          "internalType": "address",
          "name": "tokenAddress",
          "type": "address"
        },
        {
          "indexed": true,
          "internalType": "uint256",
          "name": "amount",
          "type": "uint256"
        }
      ],
      "name": "WithdrawnToken",
      "type": "event"
    },
    {
      "inputs": [],
      "name": "DEFAULT_ADMIN_ROLE",
      "outputs": [
        {
          "internalType": "bytes32",
          "name": "",
          "type": "bytes32"
        }
      ],
      "stateMutability": "view",
      "type": "function"
    },
    {
      "inputs": [],
      "name": "PLATFORM_FEE",
      "outputs": [
        {
          "internalType": "uint256",
          "name": "",
          "type": "uint256"
        }
      ],
      "stateMutability": "view",
      "type": "function"
    },
    {
      "inputs": [
        {
          "internalType": "address",
          "name": "owner",
          "type": "address"
        }
      ],
      "name": "__BaseUpgradeablePausable_init",
      "outputs": [],
      "stateMutability": "nonpayable",
      "type": "function"
    },
    {
      "inputs": [
        {
          "internalType": "address",
          "name": "cTokenAddress",
          "type": "address"
        }
      ],
      "name": "calculateUserBalance",
      "outputs": [
        {
          "internalType": "uint256",
          "name": "",
          "type": "uint256"
        },
        {
          "internalType": "uint256",
          "name": "",
          "type": "uint256"
        }
      ],
      "stateMutability": "view",
      "type": "function"
    },
    {
      "inputs": [],
      "name": "childEpoch",
      "outputs": [
        {
          "internalType": "uint256",
          "name": "",
          "type": "uint256"
        }
      ],
      "stateMutability": "view",
      "type": "function"
    },
    {
      "inputs": [],
      "name": "compoundComptroller",
      "outputs": [
        {
          "internalType": "contract IComptroller",
          "name": "",
          "type": "address"
        }
      ],
      "stateMutability": "view",
      "type": "function"
    },
    {
      "inputs": [
        {
          "internalType": "bytes32",
          "name": "role",
          "type": "bytes32"
        }
      ],
      "name": "getRoleAdmin",
      "outputs": [
        {
          "internalType": "bytes32",
          "name": "",
          "type": "bytes32"
        }
      ],
      "stateMutability": "view",
      "type": "function"
    },
    {
      "inputs": [],
      "name": "globalPauseOperation",
      "outputs": [
        {
          "internalType": "contract IGlobalPauseOperation",
          "name": "",
          "type": "address"
        }
      ],
      "stateMutability": "view",
      "type": "function"
    },
    {
      "inputs": [
        {
          "internalType": "bytes32",
          "name": "role",
          "type": "bytes32"
        },
        {
          "internalType": "address",
          "name": "account",
          "type": "address"
        }
      ],
      "name": "grantRole",
      "outputs": [],
      "stateMutability": "nonpayable",
      "type": "function"
    },
    {
      "inputs": [
        {
          "internalType": "bytes32",
          "name": "role",
          "type": "bytes32"
        },
        {
          "internalType": "address",
          "name": "account",
          "type": "address"
        }
      ],
      "name": "hasRole",
      "outputs": [
        {
          "internalType": "bool",
          "name": "",
          "type": "bool"
        }
      ],
      "stateMutability": "view",
      "type": "function"
    },
    {
      "inputs": [
        {
          "internalType": "address",
          "name": "controllerAddress",
          "type": "address"
        },
        {
          "internalType": "string",
          "name": "protocolName",
          "type": "string"
        },
        {
          "internalType": "address",
          "name": "deployedAddress",
          "type": "address"
        },
        {
          "internalType": "uint256",
          "name": "protocolID_",
          "type": "uint256"
        }
      ],
      "name": "init",
      "outputs": [],
      "stateMutability": "nonpayable",
      "type": "function"
    },
    {
      "inputs": [],
      "name": "initVersion",
      "outputs": [
        {
          "internalType": "uint256",
          "name": "",
          "type": "uint256"
        }
      ],
      "stateMutability": "view",
      "type": "function"
    },
    {
      "inputs": [
        {
          "internalType": "address",
          "name": "addressComp",
          "type": "address"
        },
        {
          "internalType": "address",
          "name": "addressPauseOperation",
          "type": "address"
        },
        {
          "internalType": "address",
          "name": "addressCompComptroller",
          "type": "address"
        }
      ],
      "name": "initialize",
      "outputs": [],
      "stateMutability": "nonpayable",
      "type": "function"
    },
    {
      "inputs": [],
      "name": "isAdmin",
      "outputs": [
        {
          "internalType": "bool",
          "name": "",
          "type": "bool"
        }
      ],
      "stateMutability": "view",
      "type": "function"
    },
    {
      "inputs": [],
      "name": "isModerator",
      "outputs": [
        {
          "internalType": "bool",
          "name": "",
          "type": "bool"
        }
      ],
      "stateMutability": "view",
      "type": "function"
    },
    {
      "inputs": [
        {
          "internalType": "address[]",
          "name": "tokenAddresses",
          "type": "address[]"
        },
        {
          "internalType": "address[]",
          "name": "cTokenAddresses",
          "type": "address[]"
        },
        {
          "internalType": "address",
          "name": "claimSettlementAddress",
          "type": "address"
        },
        {
          "internalType": "uint256",
          "name": "protocolRiskCategory",
          "type": "uint256"
        },
        {
          "internalType": "uint256",
          "name": "liquidatedEpoch",
          "type": "uint256"
        }
      ],
      "name": "liquidateTokens",
      "outputs": [],
      "stateMutability": "nonpayable",
      "type": "function"
    },
    {
      "inputs": [
        {
          "internalType": "address",
          "name": "userAddress",
          "type": "address"
        },
        {
          "internalType": "address",
          "name": "tokenAddress",
          "type": "address"
        },
        {
          "internalType": "uint256",
          "name": "amount",
          "type": "uint256"
        }
      ],
      "name": "mintERC20Tokens",
      "outputs": [],
      "stateMutability": "nonpayable",
      "type": "function"
    },
    {
      "inputs": [],
      "name": "paused",
      "outputs": [
        {
          "internalType": "bool",
          "name": "",
          "type": "bool"
        }
      ],
      "stateMutability": "view",
      "type": "function"
    },
    {
      "inputs": [],
      "name": "protocolID",
      "outputs": [
        {
          "internalType": "uint256",
          "name": "",
          "type": "uint256"
        }
      ],
      "stateMutability": "view",
      "type": "function"
    },
    {
      "inputs": [
        {
          "internalType": "bytes32",
          "name": "role",
          "type": "bytes32"
        },
        {
          "internalType": "address",
          "name": "account",
          "type": "address"
        }
      ],
      "name": "renounceRole",
      "outputs": [],
      "stateMutability": "nonpayable",
      "type": "function"
    },
    {
      "inputs": [
        {
          "internalType": "bytes32",
          "name": "role",
          "type": "bytes32"
        },
        {
          "internalType": "address",
          "name": "account",
          "type": "address"
        }
      ],
      "name": "revokeRole",
      "outputs": [],
      "stateMutability": "nonpayable",
      "type": "function"
    },
    {
      "inputs": [
        {
          "internalType": "address",
          "name": "tokenAddress",
          "type": "address"
        },
        {
          "internalType": "address",
          "name": "cTokenAddress",
          "type": "address"
        },
        {
          "internalType": "uint256",
          "name": "amount",
          "type": "uint256"
        },
        {
          "internalType": "uint256",
          "name": "deadline",
          "type": "uint256"
        },
        {
          "internalType": "uint8",
          "name": "permitV",
          "type": "uint8"
        },
        {
          "internalType": "bytes32",
          "name": "permitR",
          "type": "bytes32"
        },
        {
          "internalType": "bytes32",
          "name": "permitS",
          "type": "bytes32"
        }
      ],
      "name": "supplyToken",
      "outputs": [
        {
          "internalType": "bool",
          "name": "",
          "type": "bool"
        }
      ],
      "stateMutability": "nonpayable",
      "type": "function"
    },
    {
      "inputs": [
        {
          "internalType": "bytes4",
          "name": "interfaceId",
          "type": "bytes4"
        }
      ],
      "name": "supportsInterface",
      "outputs": [
        {
          "internalType": "bool",
          "name": "",
          "type": "bool"
        }
      ],
      "stateMutability": "view",
      "type": "function"
    },
    {
      "inputs": [],
      "name": "tokenComp",
      "outputs": [
        {
          "internalType": "contract IERC20Upgradeable",
          "name": "",
          "type": "address"
        }
      ],
      "stateMutability": "view",
      "type": "function"
    },
    {
      "inputs": [
        {
          "internalType": "address",
          "name": "tokenAddress",
          "type": "address"
        },
        {
          "internalType": "address",
          "name": "cTokenAddress",
          "type": "address"
        },
        {
          "internalType": "uint256",
          "name": "amount",
          "type": "uint256"
        }
      ],
      "name": "withdrawToken",
      "outputs": [
        {
          "internalType": "bool",
          "name": "",
          "type": "bool"
        }
      ],
      "stateMutability": "nonpayable",
      "type": "function"
    },
    {
      "inputs": [],
      "name": "zpController",
      "outputs": [
        {
          "internalType": "contract ISmartContractZPController",
          "name": "",
          "type": "address"
        }
      ],
      "stateMutability": "view",
      "type": "function"
    }
  ],
  "bytecode": "0x608060405234801561001057600080fd5b506152fa806100206000396000f3fe608060405234801561001057600080fd5b506004361061018e5760003560e01c80636f632114116100de578063b6db75a011610097578063d547741f11610071578063d547741f14610486578063d6602575146104a2578063e322f1fe146104c0578063e8031a96146104de5761018e565b8063b6db75a01461041b578063c0c53b8b14610439578063c72fea59146104555761018e565b80636f63211414610345578063732debfb1461037557806391d148541461039157806393e9d1e8146103c1578063a217fddf146103df578063aeabaff3146103fd5761018e565b806336568abe1161014b57806364063fdf1161012557806364063fdf146102d357806367f235c3146102f1578063699bf6fc1461030d5780636e810b1a146103295761018e565b806336568abe1461027b57806338d38c97146102975780635c975abb146102b55761018e565b806301e336671461019357806301ffc9a7146101c35780631fe32b0c146101f3578063248a9ca3146102115780632f2ff15d1461024157806334fbc9a11461025d575b600080fd5b6101ad60048036038101906101a89190613d6f565b6104fc565b6040516101ba9190613ddd565b60405180910390f35b6101dd60048036038101906101d89190613e50565b610a5e565b6040516101ea9190613ddd565b60405180910390f35b6101fb610ad8565b6040516102089190613edc565b60405180910390f35b61022b60048036038101906102269190613f2d565b610afe565b6040516102389190613f69565b60405180910390f35b61025b60048036038101906102569190613f84565b610b1e565b005b610265610b3f565b6040516102729190613fd3565b60405180910390f35b61029560048036038101906102909190613f84565b610b44565b005b61029f610bc7565b6040516102ac9190613fd3565b60405180910390f35b6102bd610bcd565b6040516102ca9190613ddd565b60405180910390f35b6102db610be4565b6040516102e8919061400f565b60405180910390f35b61030b60048036038101906103069190613d6f565b610c0b565b005b61032760048036038101906103229190614183565b610ce8565b005b610343600480360381019061033e9190614236565b611110565b005b61035f600480360381019061035a919061429c565b611232565b60405161036c9190613ddd565b60405180910390f35b61038f600480360381019061038a91906143f3565b611735565b005b6103ab60048036038101906103a69190613f84565b6119b3565b6040516103b89190613ddd565b60405180910390f35b6103c9611a1e565b6040516103d69190613fd3565b60405180910390f35b6103e7611a24565b6040516103f49190613f69565b60405180910390f35b610405611a2b565b6040516104129190613ddd565b60405180910390f35b610423611a4a565b6040516104309190613ddd565b60405180910390f35b610453600480360381019061044e9190614476565b611a69565b005b61046f600480360381019061046a9190614236565b611c76565b60405161047d9291906144c9565b60405180910390f35b6104a0600480360381019061049b9190613f84565b6122b0565b005b6104aa6122d1565b6040516104b79190613fd3565b60405180910390f35b6104c86122d7565b6040516104d59190614513565b60405180910390f35b6104e66122fd565b6040516104f3919061454f565b60405180910390f35b6000610506612324565b60fc6000815461051590614599565b9190508190555060008061052885611c76565b9150915083821015610566576040517fe7231dcd00000000000000000000000000000000000000000000000000000000815260040160405180910390fd5b600061010360008773ffffffffffffffffffffffffffffffffffffffff1673ffffffffffffffffffffffffffffffffffffffff1681526020019081526020016000205490508461010560008873ffffffffffffffffffffffffffffffffffffffff1673ffffffffffffffffffffffffffffffffffffffff16815260200190815260200160002060008381526020019081526020016000206000015461060b91906145e1565b61010560008873ffffffffffffffffffffffffffffffffffffffff1673ffffffffffffffffffffffffffffffffffffffff168152602001908152602001600020600060fc54815260200190815260200160002060000181905550600061067087612373565b90508061010560008973ffffffffffffffffffffffffffffffffffffffff1673ffffffffffffffffffffffffffffffffffffffff1681526020019081526020016000206000600160fc546106c491906145e1565b815260200190815260200160002060010181905550600061010460006106e86125fc565b73ffffffffffffffffffffffffffffffffffffffff1673ffffffffffffffffffffffffffffffffffffffff16815260200190815260200160002060008973ffffffffffffffffffffffffffffffffffffffff1673ffffffffffffffffffffffffffffffffffffffff1681526020019081526020016000206003015490508661010660006107736125fc565b73ffffffffffffffffffffffffffffffffffffffff1673ffffffffffffffffffffffffffffffffffffffff16815260200190815260200160002060008a73ffffffffffffffffffffffffffffffffffffffff1673ffffffffffffffffffffffffffffffffffffffff16815260200190815260200160002060008381526020019081526020016000205461080691906145e1565b61010660006108136125fc565b73ffffffffffffffffffffffffffffffffffffffff1673ffffffffffffffffffffffffffffffffffffffff16815260200190815260200160002060008a73ffffffffffffffffffffffffffffffffffffffff1673ffffffffffffffffffffffffffffffffffffffff168152602001908152602001600020600060fc5481526020019081526020016000208190555084870361094957600061010460006108b76125fc565b73ffffffffffffffffffffffffffffffffffffffff1673ffffffffffffffffffffffffffffffffffffffff16815260200190815260200160002060008a73ffffffffffffffffffffffffffffffffffffffff1673ffffffffffffffffffffffffffffffffffffffff16815260200190815260200160002060000160006101000a81548160ff0219169083151502179055505b8361010460006109576125fc565b73ffffffffffffffffffffffffffffffffffffffff1673ffffffffffffffffffffffffffffffffffffffff16815260200190815260200160002060008a73ffffffffffffffffffffffffffffffffffffffff1673ffffffffffffffffffffffffffffffffffffffff16815260200190815260200160002060010160008282546109e09190614615565b925050819055506109f2898989612604565b610a466109fd6125fc565b8560fe60009054906101000a900473ffffffffffffffffffffffffffffffffffffffff1673ffffffffffffffffffffffffffffffffffffffff166128589092919063ffffffff16565b600195505050505050610a576128de565b9392505050565b60007f7965db0b000000000000000000000000000000000000000000000000000000007bffffffffffffffffffffffffffffffffffffffffffffffffffffffff1916827bffffffffffffffffffffffffffffffffffffffffffffffffffffffff19161480610ad15750610ad0826128e8565b5b9050919050565b60fe60009054906101000a900473ffffffffffffffffffffffffffffffffffffffff1681565b600060976000838152602001908152602001600020600101549050919050565b610b2782610afe565b610b3081612952565b610b3a8383612966565b505050565b605a81565b610b4c6125fc565b73ffffffffffffffffffffffffffffffffffffffff168173ffffffffffffffffffffffffffffffffffffffff1614610bb9576040517f08c379a0000000000000000000000000000000000000000000000000000000008152600401610bb0906146cc565b60405180910390fd5b610bc38282612a47565b5050565b60fd5481565b6000603360009054906101000a900460ff16905090565b61010160009054906101000a900473ffffffffffffffffffffffffffffffffffffffff1681565b60008290508073ffffffffffffffffffffffffffffffffffffffff166308bca56685846040518363ffffffff1660e01b8152600401610c4b9291906146fb565b600060405180830381600087803b158015610c6557600080fd5b505af1158015610c79573d6000803e3d6000fd5b505050508273ffffffffffffffffffffffffffffffffffffffff168473ffffffffffffffffffffffffffffffffffffffff167fdf1b2b09e9800d31c599375056be9f9e4eb37f078102643600c4e149714efaad84604051610cda9190613fd3565b60405180910390a350505050565b610cf0611a4a565b610d2f576040517f08c379a0000000000000000000000000000000000000000000000000000000008152600401610d2690614796565b60405180910390fd5b600084519050600061010060009054906101000a900473ffffffffffffffffffffffffffffffffffffffff1673ffffffffffffffffffffffffffffffffffffffff166339c4c205846040518263ffffffff1660e01b8152600401610d939190613fd3565b602060405180830381865afa158015610db0573d6000803e3d6000fd5b505050506040513d601f19601f82011682018060405250810190610dd491906147cb565b905060005b828110156110fe578461010060009054906101000a900473ffffffffffffffffffffffffffffffffffffffff1673ffffffffffffffffffffffffffffffffffffffff16634dbc7b2860fb546040518263ffffffff1660e01b8152600401610e409190613fd3565b602060405180830381865afa158015610e5d573d6000803e3d6000fd5b505050506040513d601f19601f82011682018060405250810190610e8191906147cb565b036110ed576000888281518110610e9b57610e9a6147f8565b5b602002602001015190506000888381518110610eba57610eb96147f8565b5b60200260200101519050600061010360008373ffffffffffffffffffffffffffffffffffffffff1673ffffffffffffffffffffffffffffffffffffffff168152602001908152602001600020549050600061010560008473ffffffffffffffffffffffffffffffffffffffff1673ffffffffffffffffffffffffffffffffffffffff1681526020019081526020016000206000838152602001908152602001600020600001549050600060648288610f729190614827565b610f7c91906148b0565b90506000610f8985612373565b90508061010560008773ffffffffffffffffffffffffffffffffffffffff1673ffffffffffffffffffffffffffffffffffffffff168152602001908152602001600020600060fc548152602001908152602001600020600101819055508183610ff291906145e1565b61010560008773ffffffffffffffffffffffffffffffffffffffff1673ffffffffffffffffffffffffffffffffffffffff1681526020019081526020016000206000600160fc546110439190614615565b8152602001908152602001600020600001819055506000611065878785612b29565b90506110928d828973ffffffffffffffffffffffffffffffffffffffff166128589092919063ffffffff16565b600160fc546110a19190614615565b61010360008873ffffffffffffffffffffffffffffffffffffffff1673ffffffffffffffffffffffffffffffffffffffff16815260200190815260200160002081905550505050505050505b806110f790614599565b9050610dd9565b50611107612d04565b50505050505050565b600060019054906101000a900460ff1661115f576040517f08c379a000000000000000000000000000000000000000000000000000000000815260040161115690614953565b60405180910390fd5b600073ffffffffffffffffffffffffffffffffffffffff168173ffffffffffffffffffffffffffffffffffffffff16036111c5576040517f5415139400000000000000000000000000000000000000000000000000000000815260040160405180910390fd5b6111cd612dce565b6111d5612e27565b6111dd612e78565b6111ee6111e8612ed1565b82612966565b6111ff6111f9612ef9565b82612966565b61121761120a612ef9565b611212612ed1565b612f21565b61122f611222612ed1565b61122a612ed1565b612f21565b50565b600061123c612324565b6402540be40086101561127b576040517f7e1764b300000000000000000000000000000000000000000000000000000000815260040160405180910390fd5b611283612d04565b6000889050600088905060008a9050610104600061129f6125fc565b73ffffffffffffffffffffffffffffffffffffffff1673ffffffffffffffffffffffffffffffffffffffff16815260200190815260200160002060008b73ffffffffffffffffffffffffffffffffffffffff1673ffffffffffffffffffffffffffffffffffffffff16815260200190815260200160002060000160009054906101000a900460ff1661145a5760fc54610104600061133b6125fc565b73ffffffffffffffffffffffffffffffffffffffff1673ffffffffffffffffffffffffffffffffffffffff16815260200190815260200160002060008c73ffffffffffffffffffffffffffffffffffffffff1673ffffffffffffffffffffffffffffffffffffffff16815260200190815260200160002060020181905550600161010460006113c86125fc565b73ffffffffffffffffffffffffffffffffffffffff1673ffffffffffffffffffffffffffffffffffffffff16815260200190815260200160002060008c73ffffffffffffffffffffffffffffffffffffffff1673ffffffffffffffffffffffffffffffffffffffff16815260200190815260200160002060000160006101000a81548160ff0219169083151502179055505b60008273ffffffffffffffffffffffffffffffffffffffff166370a08231306040518263ffffffff1660e01b81526004016114959190614973565b602060405180830381865afa1580156114b2573d6000803e3d6000fd5b505050506040513d601f19601f820116820180604052508101906114d691906147cb565b90506115146114e36125fc565b308c8c8c8c8c8973ffffffffffffffffffffffffffffffffffffffff16612f7d90979695949392919063ffffffff16565b61154861151f6125fc565b308c8773ffffffffffffffffffffffffffffffffffffffff1661314a909392919063ffffffff16565b6115738b8b8673ffffffffffffffffffffffffffffffffffffffff166131d39092919063ffffffff16565b60008b73ffffffffffffffffffffffffffffffffffffffff1663a0712d688c6040518263ffffffff1660e01b81526004016115ae9190613fd3565b6020604051808303816000875af11580156115cd573d6000803e3d6000fd5b505050506040513d601f19601f820116820180604052508101906115f191906147cb565b90506000811461162d576040517f1941b85300000000000000000000000000000000000000000000000000000000815260040160405180910390fd5b60008473ffffffffffffffffffffffffffffffffffffffff166370a08231306040518263ffffffff1660e01b81526004016116689190614973565b602060405180830381865afa158015611685573d6000803e3d6000fd5b505050506040513d601f19601f820116820180604052508101906116a991906147cb565b90506116b68d82856132e5565b8b8e73ffffffffffffffffffffffffffffffffffffffff166116d66125fc565b73ffffffffffffffffffffffffffffffffffffffff167fa64bf1fcc4f3d7c965ef3091c978df041ad959bfaa6d5abc7d99a17830407b2960405160405180910390a46001965050505050505061172a6128de565b979650505050505050565b61173d611a4a565b61177c576040517f08c379a000000000000000000000000000000000000000000000000000000000815260040161177390614796565b60405180910390fd5b600060fd5411156117b9576040517f5f39ce3900000000000000000000000000000000000000000000000000000000815260040160405180910390fd5b60fd600081546117c890614599565b919050819055508361010060006101000a81548173ffffffffffffffffffffffffffffffffffffffff021916908373ffffffffffffffffffffffffffffffffffffffff16021790555060008061010060009054906101000a900473ffffffffffffffffffffffffffffffffffffffff1673ffffffffffffffffffffffffffffffffffffffff16634b40ac92846040518263ffffffff1660e01b81526004016118709190613fd3565b600060405180830381865afa15801561188d573d6000803e3d6000fd5b505050506040513d6000823e3d601f19601f820116820180604052508101906118b69190614a3d565b915091508373ffffffffffffffffffffffffffffffffffffffff168173ffffffffffffffffffffffffffffffffffffffff161461191f576040517fd3d93e9600000000000000000000000000000000000000000000000000000000815260040160405180910390fd5b846040516020016119309190614ae0565b60405160208183030381529060405280519060200120826040516020016119579190614ae0565b60405160208183030381529060405280519060200120146119a4576040517fd3d93e9600000000000000000000000000000000000000000000000000000000815260040160405180910390fd5b8260fb81905550505050505050565b60006097600084815260200190815260200160002060000160008373ffffffffffffffffffffffffffffffffffffffff1673ffffffffffffffffffffffffffffffffffffffff16815260200190815260200160002060009054906101000a900460ff16905092915050565b60fb5481565b6000801b81565b6000611a45611a38612ef9565b611a406125fc565b6119b3565b905090565b6000611a64611a57612ed1565b611a5f6125fc565b6119b3565b905090565b60008060019054906101000a900460ff16159050808015611a9a5750600160008054906101000a900460ff1660ff16105b80611ac75750611aa930613680565b158015611ac65750600160008054906101000a900460ff1660ff16145b5b611b06576040517f08c379a0000000000000000000000000000000000000000000000000000000008152600401611afd90614b69565b60405180910390fd5b60016000806101000a81548160ff021916908360ff1602179055508015611b43576001600060016101000a81548160ff0219169083151502179055505b8160ff60006101000a81548173ffffffffffffffffffffffffffffffffffffffff021916908373ffffffffffffffffffffffffffffffffffffffff1602179055508261010160006101000a81548173ffffffffffffffffffffffffffffffffffffffff021916908373ffffffffffffffffffffffffffffffffffffffff1602179055508360fe60006101000a81548173ffffffffffffffffffffffffffffffffffffffff021916908373ffffffffffffffffffffffffffffffffffffffff160217905550611c17611c126125fc565b611110565b8015611c705760008060016101000a81548160ff0219169083151502179055507f7f26b83ff96e1f2b6a682f133852f6798a09c465da95921460cefb38474024986001604051611c679190614bc4565b60405180910390a15b50505050565b60008060008060006101046000611c8b6125fc565b73ffffffffffffffffffffffffffffffffffffffff1673ffffffffffffffffffffffffffffffffffffffff16815260200190815260200160002060008773ffffffffffffffffffffffffffffffffffffffff1673ffffffffffffffffffffffffffffffffffffffff168152602001908152602001600020600201549050600060fc54905060008060008490505b838110156122095760006101066000611d2f6125fc565b73ffffffffffffffffffffffffffffffffffffffff1673ffffffffffffffffffffffffffffffffffffffff16815260200190815260200160002060008c73ffffffffffffffffffffffffffffffffffffffff1673ffffffffffffffffffffffffffffffffffffffff16815260200190815260200160002060008381526020019081526020016000205411611dc35786611e5a565b6101066000611dd06125fc565b73ffffffffffffffffffffffffffffffffffffffff1673ffffffffffffffffffffffffffffffffffffffff16815260200190815260200160002060008b73ffffffffffffffffffffffffffffffffffffffff1673ffffffffffffffffffffffffffffffffffffffff1681526020019081526020016000206000828152602001908152602001600020545b9650600061010560008c73ffffffffffffffffffffffffffffffffffffffff1673ffffffffffffffffffffffffffffffffffffffff16815260200190815260200160002060008381526020019081526020016000206000015461010560008d73ffffffffffffffffffffffffffffffffffffffff1673ffffffffffffffffffffffffffffffffffffffff16815260200190815260200160002060008481526020019081526020016000206001015489611f139190614827565b611f1d91906148b0565b90508087611f2b9190614615565b9650600061010260008481526020019081526020016000205490508084146121f65780935061010060009054906101000a900473ffffffffffffffffffffffffffffffffffffffff1673ffffffffffffffffffffffffffffffffffffffff166305044ea660fb54866040518363ffffffff1660e01b8152600401611fb09291906144c9565b602060405180830381865afa158015611fcd573d6000803e3d6000fd5b505050506040513d601f19601f82011682018060405250810190611ff19190614c0b565b1561209a5761010060009054906101000a900473ffffffffffffffffffffffffffffffffffffffff1673ffffffffffffffffffffffffffffffffffffffff16639cb0675860fb54866040518363ffffffff1660e01b81526004016120569291906144c9565b602060405180830381865afa158015612073573d6000803e3d6000fd5b505050506040513d601f19601f8201168201806040525081019061209791906147cb565b94505b61010060009054906101000a900473ffffffffffffffffffffffffffffffffffffffff1673ffffffffffffffffffffffffffffffffffffffff1663b557e4a685876040518363ffffffff1660e01b81526004016120f89291906144c9565b602060405180830381865afa158015612115573d6000803e3d6000fd5b505050506040513d601f19601f820116820180604052508101906121399190614c0b565b156121f557606461010060009054906101000a900473ffffffffffffffffffffffffffffffffffffffff1673ffffffffffffffffffffffffffffffffffffffff166339c4c205866040518263ffffffff1660e01b815260040161219c9190613fd3565b602060405180830381865afa1580156121b9573d6000803e3d6000fd5b505050506040513d601f19601f820116820180604052508101906121dd91906147cb565b8a6121e89190614827565b6121f291906148b0565b98505b5b8261220090614599565b92505050611d18565b5061010460006122176125fc565b73ffffffffffffffffffffffffffffffffffffffff1673ffffffffffffffffffffffffffffffffffffffff16815260200190815260200160002060008a73ffffffffffffffffffffffffffffffffffffffff1673ffffffffffffffffffffffffffffffffffffffff168152602001908152602001600020600101548561229d91906145e1565b9450858597509750505050505050915091565b6122b982610afe565b6122c281612952565b6122cc8383612a47565b505050565b60fc5481565b60ff60009054906101000a900473ffffffffffffffffffffffffffffffffffffffff1681565b61010060009054906101000a900473ffffffffffffffffffffffffffffffffffffffff1681565b600260c95403612369576040517f08c379a000000000000000000000000000000000000000000000000000000000815260040161236090614c84565b60405180910390fd5b600260c981905550565b600080600167ffffffffffffffff81111561239157612390614040565b5b6040519080825280602002602001820160405280156123bf5781602001602082028036833780820191505090505b50905082816000815181106123d7576123d66147f8565b5b602002602001019073ffffffffffffffffffffffffffffffffffffffff16908173ffffffffffffffffffffffffffffffffffffffff1681525050600060fe60009054906101000a900473ffffffffffffffffffffffffffffffffffffffff1673ffffffffffffffffffffffffffffffffffffffff166370a08231306040518263ffffffff1660e01b815260040161246e9190614973565b602060405180830381865afa15801561248b573d6000803e3d6000fd5b505050506040513d601f19601f820116820180604052508101906124af91906147cb565b905060ff60009054906101000a900473ffffffffffffffffffffffffffffffffffffffff1673ffffffffffffffffffffffffffffffffffffffff166386df31ee30846040518363ffffffff1660e01b815260040161250e929190614d74565b600060405180830381600087803b15801561252857600080fd5b505af115801561253c573d6000803e3d6000fd5b50505050600060fe60009054906101000a900473ffffffffffffffffffffffffffffffffffffffff1673ffffffffffffffffffffffffffffffffffffffff166370a08231306040518263ffffffff1660e01b815260040161259d9190614973565b602060405180830381865afa1580156125ba573d6000803e3d6000fd5b505050506040513d601f19601f820116820180604052508101906125de91906147cb565b9050600082826125ee91906145e1565b905080945050505050919050565b600033905090565b6000839050600083905060008273ffffffffffffffffffffffffffffffffffffffff166370a08231306040518263ffffffff1660e01b81526004016126499190614973565b602060405180830381865afa158015612666573d6000803e3d6000fd5b505050506040513d601f19601f8201168201806040525081019061268a91906147cb565b905060008273ffffffffffffffffffffffffffffffffffffffff1663db006a75866040518263ffffffff1660e01b81526004016126c79190613fd3565b6020604051808303816000875af11580156126e6573d6000803e3d6000fd5b505050506040513d601f19601f8201168201806040525081019061270a91906147cb565b905060008114612746576040517f1941b85300000000000000000000000000000000000000000000000000000000815260040160405180910390fd5b60008473ffffffffffffffffffffffffffffffffffffffff166370a08231306040518263ffffffff1660e01b81526004016127819190614973565b602060405180830381865afa15801561279e573d6000803e3d6000fd5b505050506040513d601f19601f820116820180604052508101906127c291906147cb565b9050600083826127d291906145e1565b905060fc5461010360008a73ffffffffffffffffffffffffffffffffffffffff1673ffffffffffffffffffffffffffffffffffffffff1681526020019081526020016000208190555061284d6128266125fc565b828873ffffffffffffffffffffffffffffffffffffffff166128589092919063ffffffff16565b505050505050505050565b6128d98363a9059cbb60e01b84846040516024016128779291906146fb565b604051602081830303815290604052907bffffffffffffffffffffffffffffffffffffffffffffffffffffffff19166020820180517bffffffffffffffffffffffffffffffffffffffffffffffffffffffff83818316178352505050506136a3565b505050565b600160c981905550565b60007f01ffc9a7000000000000000000000000000000000000000000000000000000007bffffffffffffffffffffffffffffffffffffffffffffffffffffffff1916827bffffffffffffffffffffffffffffffffffffffffffffffffffffffff1916149050919050565b6129638161295e6125fc565b61376a565b50565b61297082826119b3565b612a435760016097600084815260200190815260200160002060000160008373ffffffffffffffffffffffffffffffffffffffff1673ffffffffffffffffffffffffffffffffffffffff16815260200190815260200160002060006101000a81548160ff0219169083151502179055506129e86125fc565b73ffffffffffffffffffffffffffffffffffffffff168173ffffffffffffffffffffffffffffffffffffffff16837f2f8788117e7eff1d82e926ec794901d17c78024a50270940304540a733656f0d60405160405180910390a45b5050565b612a5182826119b3565b15612b255760006097600084815260200190815260200160002060000160008373ffffffffffffffffffffffffffffffffffffffff1673ffffffffffffffffffffffffffffffffffffffff16815260200190815260200160002060006101000a81548160ff021916908315150217905550612aca6125fc565b73ffffffffffffffffffffffffffffffffffffffff168173ffffffffffffffffffffffffffffffffffffffff16837ff6391f5c32d9c69d2a47ea670b442974b53935d1edc7fd64eb21e047a839171b60405160405180910390a45b5050565b60008083905060008573ffffffffffffffffffffffffffffffffffffffff166370a08231306040518263ffffffff1660e01b8152600401612b6a9190614973565b602060405180830381865afa158015612b87573d6000803e3d6000fd5b505050506040513d601f19601f82011682018060405250810190612bab91906147cb565b905060008273ffffffffffffffffffffffffffffffffffffffff1663db006a75866040518263ffffffff1660e01b8152600401612be89190613fd3565b6020604051808303816000875af1158015612c07573d6000803e3d6000fd5b505050506040513d601f19601f82011682018060405250810190612c2b91906147cb565b905060008114612c67576040517f1941b85300000000000000000000000000000000000000000000000000000000815260040160405180910390fd5b60008773ffffffffffffffffffffffffffffffffffffffff166370a08231306040518263ffffffff1660e01b8152600401612ca29190614973565b602060405180830381865afa158015612cbf573d6000803e3d6000fd5b505050506040513d601f19601f82011682018060405250810190612ce391906147cb565b905060008382612cf391906145e1565b905080955050505050509392505050565b60fc60008154612d1390614599565b91905081905550600061010060009054906101000a900473ffffffffffffffffffffffffffffffffffffffff1673ffffffffffffffffffffffffffffffffffffffff1663c07f47d46040518163ffffffff1660e01b8152600401602060405180830381865afa158015612d8a573d6000803e3d6000fd5b505050506040513d601f19601f82011682018060405250810190612dae91906147cb565b905080610102600060fc5481526020019081526020016000208190555050565b600060019054906101000a900460ff16612e1d576040517f08c379a0000000000000000000000000000000000000000000000000000000008152600401612e1490614953565b60405180910390fd5b612e256137ef565b565b600060019054906101000a900460ff16612e76576040517f08c379a0000000000000000000000000000000000000000000000000000000008152600401612e6d90614953565b60405180910390fd5b565b600060019054906101000a900460ff16612ec7576040517f08c379a0000000000000000000000000000000000000000000000000000000008152600401612ebe90614953565b60405180910390fd5b612ecf61385b565b565b60007fa49807205ce4d355092ef5a8a18f56e8913cf4a201fbe287825b095693c21775905090565b60007f65d7a28e3265b37a6474929f336521b332c1681b933f6cb9f3376673440d862a905090565b6000612f2c83610afe565b90508160976000858152602001908152602001600020600101819055508181847fbd79b86ffe0ab8e8776151514217cd7cacd52c909f66475c3af44e129f0b00ff60405160405180910390a4505050565b60008873ffffffffffffffffffffffffffffffffffffffff16637ecebe00896040518263ffffffff1660e01b8152600401612fb89190614973565b602060405180830381865afa158015612fd5573d6000803e3d6000fd5b505050506040513d601f19601f82011682018060405250810190612ff991906147cb565b90508873ffffffffffffffffffffffffffffffffffffffff1663d505accf898989898989896040518863ffffffff1660e01b81526004016130409796959493929190614db3565b600060405180830381600087803b15801561305a57600080fd5b505af115801561306e573d6000803e3d6000fd5b5050505060008973ffffffffffffffffffffffffffffffffffffffff16637ecebe008a6040518263ffffffff1660e01b81526004016130ad9190614973565b602060405180830381865afa1580156130ca573d6000803e3d6000fd5b505050506040513d601f19601f820116820180604052508101906130ee91906147cb565b90506001826130fd9190614615565b811461313e576040517f08c379a000000000000000000000000000000000000000000000000000000000815260040161313590614e94565b60405180910390fd5b50505050505050505050565b6131cd846323b872dd60e01b85858560405160240161316b93929190614eb4565b604051602081830303815290604052907bffffffffffffffffffffffffffffffffffffffffffffffffffffffff19166020820180517bffffffffffffffffffffffffffffffffffffffffffffffffffffffff83818316178352505050506136a3565b50505050565b6000818473ffffffffffffffffffffffffffffffffffffffff1663dd62ed3e30866040518363ffffffff1660e01b8152600401613211929190614eeb565b602060405180830381865afa15801561322e573d6000803e3d6000fd5b505050506040513d601f19601f8201168201806040525081019061325291906147cb565b61325c9190614615565b90506132df8463095ea7b360e01b858460405160240161327d9291906146fb565b604051602081830303815290604052907bffffffffffffffffffffffffffffffffffffffffffffffffffffffff19166020820180517bffffffffffffffffffffffffffffffffffffffffffffffffffffffff83818316178352505050506136a3565b50505050565b600081836132f391906145e1565b9050600061010360008673ffffffffffffffffffffffffffffffffffffffff1673ffffffffffffffffffffffffffffffffffffffff168152602001908152602001600020549050600061010460006133496125fc565b73ffffffffffffffffffffffffffffffffffffffff1673ffffffffffffffffffffffffffffffffffffffff16815260200190815260200160002060008773ffffffffffffffffffffffffffffffffffffffff1673ffffffffffffffffffffffffffffffffffffffff16815260200190815260200160002060030154905060006133d187612373565b90508361010560008973ffffffffffffffffffffffffffffffffffffffff1673ffffffffffffffffffffffffffffffffffffffff1681526020019081526020016000206000858152602001908152602001600020600001546134339190614615565b61010560008973ffffffffffffffffffffffffffffffffffffffff1673ffffffffffffffffffffffffffffffffffffffff168152602001908152602001600020600060fc548152602001908152602001600020600001819055508061010560008973ffffffffffffffffffffffffffffffffffffffff1673ffffffffffffffffffffffffffffffffffffffff1681526020019081526020016000206000600160fc546134df91906145e1565b8152602001908152602001600020600101819055508361010660006135026125fc565b73ffffffffffffffffffffffffffffffffffffffff1673ffffffffffffffffffffffffffffffffffffffff16815260200190815260200160002060008973ffffffffffffffffffffffffffffffffffffffff1673ffffffffffffffffffffffffffffffffffffffff1681526020019081526020016000206000848152602001908152602001600020546135959190614615565b61010660006135a26125fc565b73ffffffffffffffffffffffffffffffffffffffff1673ffffffffffffffffffffffffffffffffffffffff16815260200190815260200160002060008973ffffffffffffffffffffffffffffffffffffffff1673ffffffffffffffffffffffffffffffffffffffff168152602001908152602001600020600060fc5481526020019081526020016000208190555060fc5461010360008973ffffffffffffffffffffffffffffffffffffffff1673ffffffffffffffffffffffffffffffffffffffff1681526020019081526020016000208190555050505050505050565b6000808273ffffffffffffffffffffffffffffffffffffffff163b119050919050565b6000613705826040518060400160405280602081526020017f5361666545524332303a206c6f772d6c6576656c2063616c6c206661696c65648152508573ffffffffffffffffffffffffffffffffffffffff166138b49092919063ffffffff16565b905060008151111561376557808060200190518101906137259190614c0b565b613764576040517f08c379a000000000000000000000000000000000000000000000000000000000815260040161375b90614f86565b60405180910390fd5b5b505050565b61377482826119b3565b6137eb57613781816138cc565b61378f8360001c60206138f9565b6040516020016137a092919061503e565b6040516020818303038152906040526040517f08c379a00000000000000000000000000000000000000000000000000000000081526004016137e291906150b1565b60405180910390fd5b5050565b600060019054906101000a900460ff1661383e576040517f08c379a000000000000000000000000000000000000000000000000000000000815260040161383590614953565b60405180910390fd5b6000603360006101000a81548160ff021916908315150217905550565b600060019054906101000a900460ff166138aa576040517f08c379a00000000000000000000000000000000000000000000000000000000081526004016138a190614953565b60405180910390fd5b600160c981905550565b60606138c38484600085613b35565b90509392505050565b60606138f28273ffffffffffffffffffffffffffffffffffffffff16601460ff166138f9565b9050919050565b60606000600283600261390c9190614827565b6139169190614615565b67ffffffffffffffff81111561392f5761392e614040565b5b6040519080825280601f01601f1916602001820160405280156139615781602001600182028036833780820191505090505b5090507f300000000000000000000000000000000000000000000000000000000000000081600081518110613999576139986147f8565b5b60200101907effffffffffffffffffffffffffffffffffffffffffffffffffffffffffffff1916908160001a9053507f7800000000000000000000000000000000000000000000000000000000000000816001815181106139fd576139fc6147f8565b5b60200101907effffffffffffffffffffffffffffffffffffffffffffffffffffffffffffff1916908160001a90535060006001846002613a3d9190614827565b613a479190614615565b90505b6001811115613ae7577f3031323334353637383961626364656600000000000000000000000000000000600f861660108110613a8957613a886147f8565b5b1a60f81b828281518110613aa057613a9f6147f8565b5b60200101907effffffffffffffffffffffffffffffffffffffffffffffffffffffffffffff1916908160001a905350600485901c945080613ae0906150d3565b9050613a4a565b5060008414613b2b576040517f08c379a0000000000000000000000000000000000000000000000000000000008152600401613b2290615148565b60405180910390fd5b8091505092915050565b606082471015613b7a576040517f08c379a0000000000000000000000000000000000000000000000000000000008152600401613b71906151da565b60405180910390fd5b6000808673ffffffffffffffffffffffffffffffffffffffff168587604051613ba39190615241565b60006040518083038185875af1925050503d8060008114613be0576040519150601f19603f3d011682016040523d82523d6000602084013e613be5565b606091505b5091509150613bf687838387613c02565b92505050949350505050565b60608315613c64576000835103613c5c57613c1c85613680565b613c5b576040517f08c379a0000000000000000000000000000000000000000000000000000000008152600401613c52906152a4565b60405180910390fd5b5b829050613c6f565b613c6e8383613c77565b5b949350505050565b600082511115613c8a5781518083602001fd5b806040517f08c379a0000000000000000000000000000000000000000000000000000000008152600401613cbe91906150b1565b60405180910390fd5b6000604051905090565b600080fd5b600080fd5b600073ffffffffffffffffffffffffffffffffffffffff82169050919050565b6000613d0682613cdb565b9050919050565b613d1681613cfb565b8114613d2157600080fd5b50565b600081359050613d3381613d0d565b92915050565b6000819050919050565b613d4c81613d39565b8114613d5757600080fd5b50565b600081359050613d6981613d43565b92915050565b600080600060608486031215613d8857613d87613cd1565b5b6000613d9686828701613d24565b9350506020613da786828701613d24565b9250506040613db886828701613d5a565b9150509250925092565b60008115159050919050565b613dd781613dc2565b82525050565b6000602082019050613df26000830184613dce565b92915050565b60007fffffffff0000000000000000000000000000000000000000000000000000000082169050919050565b613e2d81613df8565b8114613e3857600080fd5b50565b600081359050613e4a81613e24565b92915050565b600060208284031215613e6657613e65613cd1565b5b6000613e7484828501613e3b565b91505092915050565b6000819050919050565b6000613ea2613e9d613e9884613cdb565b613e7d565b613cdb565b9050919050565b6000613eb482613e87565b9050919050565b6000613ec682613ea9565b9050919050565b613ed681613ebb565b82525050565b6000602082019050613ef16000830184613ecd565b92915050565b6000819050919050565b613f0a81613ef7565b8114613f1557600080fd5b50565b600081359050613f2781613f01565b92915050565b600060208284031215613f4357613f42613cd1565b5b6000613f5184828501613f18565b91505092915050565b613f6381613ef7565b82525050565b6000602082019050613f7e6000830184613f5a565b92915050565b60008060408385031215613f9b57613f9a613cd1565b5b6000613fa985828601613f18565b9250506020613fba85828601613d24565b9150509250929050565b613fcd81613d39565b82525050565b6000602082019050613fe86000830184613fc4565b92915050565b6000613ff982613ea9565b9050919050565b61400981613fee565b82525050565b60006020820190506140246000830184614000565b92915050565b600080fd5b6000601f19601f8301169050919050565b7f4e487b7100000000000000000000000000000000000000000000000000000000600052604160045260246000fd5b6140788261402f565b810181811067ffffffffffffffff8211171561409757614096614040565b5b80604052505050565b60006140aa613cc7565b90506140b6828261406f565b919050565b600067ffffffffffffffff8211156140d6576140d5614040565b5b602082029050602081019050919050565b600080fd5b60006140ff6140fa846140bb565b6140a0565b90508083825260208201905060208402830185811115614122576141216140e7565b5b835b8181101561414b57806141378882613d24565b845260208401935050602081019050614124565b5050509392505050565b600082601f83011261416a5761416961402a565b5b813561417a8482602086016140ec565b91505092915050565b600080600080600060a0868803121561419f5761419e613cd1565b5b600086013567ffffffffffffffff8111156141bd576141bc613cd6565b5b6141c988828901614155565b955050602086013567ffffffffffffffff8111156141ea576141e9613cd6565b5b6141f688828901614155565b945050604061420788828901613d24565b935050606061421888828901613d5a565b925050608061422988828901613d5a565b9150509295509295909350565b60006020828403121561424c5761424b613cd1565b5b600061425a84828501613d24565b91505092915050565b600060ff82169050919050565b61427981614263565b811461428457600080fd5b50565b60008135905061429681614270565b92915050565b600080600080600080600060e0888a0312156142bb576142ba613cd1565b5b60006142c98a828b01613d24565b97505060206142da8a828b01613d24565b96505060406142eb8a828b01613d5a565b95505060606142fc8a828b01613d5a565b945050608061430d8a828b01614287565b93505060a061431e8a828b01613f18565b92505060c061432f8a828b01613f18565b91505092959891949750929550565b600080fd5b600067ffffffffffffffff82111561435e5761435d614040565b5b6143678261402f565b9050602081019050919050565b82818337600083830152505050565b600061439661439184614343565b6140a0565b9050828152602081018484840111156143b2576143b161433e565b5b6143bd848285614374565b509392505050565b600082601f8301126143da576143d961402a565b5b81356143ea848260208601614383565b91505092915050565b6000806000806080858703121561440d5761440c613cd1565b5b600061441b87828801613d24565b945050602085013567ffffffffffffffff81111561443c5761443b613cd6565b5b614448878288016143c5565b935050604061445987828801613d24565b925050606061446a87828801613d5a565b91505092959194509250565b60008060006060848603121561448f5761448e613cd1565b5b600061449d86828701613d24565b93505060206144ae86828701613d24565b92505060406144bf86828701613d24565b9150509250925092565b60006040820190506144de6000830185613fc4565b6144eb6020830184613fc4565b9392505050565b60006144fd82613ea9565b9050919050565b61450d816144f2565b82525050565b60006020820190506145286000830184614504565b92915050565b600061453982613ea9565b9050919050565b6145498161452e565b82525050565b60006020820190506145646000830184614540565b92915050565b7f4e487b7100000000000000000000000000000000000000000000000000000000600052601160045260246000fd5b60006145a482613d39565b91507fffffffffffffffffffffffffffffffffffffffffffffffffffffffffffffffff82036145d6576145d561456a565b5b600182019050919050565b60006145ec82613d39565b91506145f783613d39565b925082820390508181111561460f5761460e61456a565b5b92915050565b600061462082613d39565b915061462b83613d39565b92508282019050808211156146435761464261456a565b5b92915050565b600082825260208201905092915050565b7f416363657373436f6e74726f6c3a2063616e206f6e6c792072656e6f756e636560008201527f20726f6c657320666f722073656c660000000000000000000000000000000000602082015250565b60006146b6602f83614649565b91506146c18261465a565b604082019050919050565b600060208201905081810360008301526146e5816146a9565b9050919050565b6146f581613cfb565b82525050565b600060408201905061471060008301856146ec565b61471d6020830184613fc4565b9392505050565b7f4d75737420686176652061646d696e20726f6c6520746f20706572666f726d2060008201527f7468697320616374696f6e2e0000000000000000000000000000000000000000602082015250565b6000614780602c83614649565b915061478b82614724565b604082019050919050565b600060208201905081810360008301526147af81614773565b9050919050565b6000815190506147c581613d43565b92915050565b6000602082840312156147e1576147e0613cd1565b5b60006147ef848285016147b6565b91505092915050565b7f4e487b7100000000000000000000000000000000000000000000000000000000600052603260045260246000fd5b600061483282613d39565b915061483d83613d39565b9250817fffffffffffffffffffffffffffffffffffffffffffffffffffffffffffffffff04831182151516156148765761487561456a565b5b828202905092915050565b7f4e487b7100000000000000000000000000000000000000000000000000000000600052601260045260246000fd5b60006148bb82613d39565b91506148c683613d39565b9250826148d6576148d5614881565b5b828204905092915050565b7f496e697469616c697a61626c653a20636f6e7472616374206973206e6f74206960008201527f6e697469616c697a696e67000000000000000000000000000000000000000000602082015250565b600061493d602b83614649565b9150614948826148e1565b604082019050919050565b6000602082019050818103600083015261496c81614930565b9050919050565b600060208201905061498860008301846146ec565b92915050565b60005b838110156149ac578082015181840152602081019050614991565b60008484015250505050565b60006149cb6149c684614343565b6140a0565b9050828152602081018484840111156149e7576149e661433e565b5b6149f284828561498e565b509392505050565b600082601f830112614a0f57614a0e61402a565b5b8151614a1f8482602086016149b8565b91505092915050565b600081519050614a3781613d0d565b92915050565b60008060408385031215614a5457614a53613cd1565b5b600083015167ffffffffffffffff811115614a7257614a71613cd6565b5b614a7e858286016149fa565b9250506020614a8f85828601614a28565b9150509250929050565b600081519050919050565b600081905092915050565b6000614aba82614a99565b614ac48185614aa4565b9350614ad481856020860161498e565b80840191505092915050565b6000614aec8284614aaf565b915081905092915050565b7f496e697469616c697a61626c653a20636f6e747261637420697320616c72656160008201527f647920696e697469616c697a6564000000000000000000000000000000000000602082015250565b6000614b53602e83614649565b9150614b5e82614af7565b604082019050919050565b60006020820190508181036000830152614b8281614b46565b9050919050565b6000819050919050565b6000614bae614ba9614ba484614b89565b613e7d565b614263565b9050919050565b614bbe81614b93565b82525050565b6000602082019050614bd96000830184614bb5565b92915050565b614be881613dc2565b8114614bf357600080fd5b50565b600081519050614c0581614bdf565b92915050565b600060208284031215614c2157614c20613cd1565b5b6000614c2f84828501614bf6565b91505092915050565b7f5265656e7472616e637947756172643a207265656e7472616e742063616c6c00600082015250565b6000614c6e601f83614649565b9150614c7982614c38565b602082019050919050565b60006020820190508181036000830152614c9d81614c61565b9050919050565b600081519050919050565b600082825260208201905092915050565b6000819050602082019050919050565b6000614cdb82613ea9565b9050919050565b614ceb81614cd0565b82525050565b6000614cfd8383614ce2565b60208301905092915050565b6000602082019050919050565b6000614d2182614ca4565b614d2b8185614caf565b9350614d3683614cc0565b8060005b83811015614d67578151614d4e8882614cf1565b9750614d5983614d09565b925050600181019050614d3a565b5085935050505092915050565b6000604082019050614d8960008301856146ec565b8181036020830152614d9b8184614d16565b90509392505050565b614dad81614263565b82525050565b600060e082019050614dc8600083018a6146ec565b614dd560208301896146ec565b614de26040830188613fc4565b614def6060830187613fc4565b614dfc6080830186614da4565b614e0960a0830185613f5a565b614e1660c0830184613f5a565b98975050505050505050565b7f5361666545524332303a207065726d697420646964206e6f742073756363656560008201527f6400000000000000000000000000000000000000000000000000000000000000602082015250565b6000614e7e602183614649565b9150614e8982614e22565b604082019050919050565b60006020820190508181036000830152614ead81614e71565b9050919050565b6000606082019050614ec960008301866146ec565b614ed660208301856146ec565b614ee36040830184613fc4565b949350505050565b6000604082019050614f0060008301856146ec565b614f0d60208301846146ec565b9392505050565b7f5361666545524332303a204552433230206f7065726174696f6e20646964206e60008201527f6f74207375636365656400000000000000000000000000000000000000000000602082015250565b6000614f70602a83614649565b9150614f7b82614f14565b604082019050919050565b60006020820190508181036000830152614f9f81614f63565b9050919050565b7f416363657373436f6e74726f6c3a206163636f756e7420000000000000000000600082015250565b6000614fdc601783614aa4565b9150614fe782614fa6565b601782019050919050565b7f206973206d697373696e6720726f6c6520000000000000000000000000000000600082015250565b6000615028601183614aa4565b915061503382614ff2565b601182019050919050565b600061504982614fcf565b91506150558285614aaf565b91506150608261501b565b915061506c8284614aaf565b91508190509392505050565b600061508382614a99565b61508d8185614649565b935061509d81856020860161498e565b6150a68161402f565b840191505092915050565b600060208201905081810360008301526150cb8184615078565b905092915050565b60006150de82613d39565b9150600082036150f1576150f061456a565b5b600182039050919050565b7f537472696e67733a20686578206c656e67746820696e73756666696369656e74600082015250565b6000615132602083614649565b915061513d826150fc565b602082019050919050565b6000602082019050818103600083015261516181615125565b9050919050565b7f416464726573733a20696e73756666696369656e742062616c616e636520666f60008201527f722063616c6c0000000000000000000000000000000000000000000000000000602082015250565b60006151c4602683614649565b91506151cf82615168565b604082019050919050565b600060208201905081810360008301526151f3816151b7565b9050919050565b600081519050919050565b600081905092915050565b600061521b826151fa565b6152258185615205565b935061523581856020860161498e565b80840191505092915050565b600061524d8284615210565b915081905092915050565b7f416464726573733a2063616c6c20746f206e6f6e2d636f6e7472616374000000600082015250565b600061528e601d83614649565b915061529982615258565b602082019050919050565b600060208201905081810360008301526152bd81615281565b905091905056fea2646970667358221220e85ea2b9a95d1836c355898ab6e3ee7040cd5db1f23cd24577224f7c53c7960364736f6c63430008100033",
  "linkReferences": {},
  "deployedLinkReferences": {}
}