{
  "_format": "hh-sol-artifact-1",
  "contractName": "BaseUpgradeablePausable",
  "sourceName": "contracts/BaseUpgradeablePausable.sol",
  "abi": [
    {
      "inputs": [],
      "name": "BaseUpgradeablePausable__ZeroAddressError",
      "type": "error"
    },
    {
      "anonymous": false,
      "inputs": [
        {
          "indexed": false,
          "internalType": "uint8",
          "name": "version",
          "type": "uint8"
        }
      ],
      "name": "Initialized",
      "type": "event"
    },
    {
      "anonymous": false,
      "inputs": [
        {
          "indexed": false,
          "internalType": "address",
          "name": "account",
          "type": "address"
        }
      ],
      "name": "Paused",
      "type": "event"
    },
    {
      "anonymous": false,
      "inputs": [
        {
          "indexed": true,
          "internalType": "bytes32",
          "name": "role",
          "type": "bytes32"
        },
        {
          "indexed": true,
          "internalType": "bytes32",
          "name": "previousAdminRole",
          "type": "bytes32"
        },
        {
          "indexed": true,
          "internalType": "bytes32",
          "name": "newAdminRole",
          "type": "bytes32"
        }
      ],
      "name": "RoleAdminChanged",
      "type": "event"
    },
    {
      "anonymous": false,
      "inputs": [
        {
          "indexed": true,
          "internalType": "bytes32",
          "name": "role",
          "type": "bytes32"
        },
        {
          "indexed": true,
          "internalType": "address",
          "name": "account",
          "type": "address"
        },
        {
          "indexed": true,
          "internalType": "address",
          "name": "sender",
          "type": "address"
        }
      ],
      "name": "RoleGranted",
      "type": "event"
    },
    {
      "anonymous": false,
      "inputs": [
        {
          "indexed": true,
          "internalType": "bytes32",
          "name": "role",
          "type": "bytes32"
        },
        {
          "indexed": true,
          "internalType": "address",
          "name": "account",
          "type": "address"
        },
        {
          "indexed": true,
          "internalType": "address",
          "name": "sender",
          "type": "address"
        }
      ],
      "name": "RoleRevoked",
      "type": "event"
    },
    {
      "anonymous": false,
      "inputs": [
        {
          "indexed": false,
          "internalType": "address",
          "name": "account",
          "type": "address"
        }
      ],
      "name": "Unpaused",
      "type": "event"
    },
    {
      "inputs": [],
      "name": "DEFAULT_ADMIN_ROLE",
      "outputs": [
        {
          "internalType": "bytes32",
          "name": "",
          "type": "bytes32"
        }
      ],
      "stateMutability": "view",
      "type": "function"
    },
    {
      "inputs": [
        {
          "internalType": "address",
          "name": "owner",
          "type": "address"
        }
      ],
      "name": "__BaseUpgradeablePausable_init",
      "outputs": [],
      "stateMutability": "nonpayable",
      "type": "function"
    },
    {
      "inputs": [
        {
          "internalType": "bytes32",
          "name": "role",
          "type": "bytes32"
        }
      ],
      "name": "getRoleAdmin",
      "outputs": [
        {
          "internalType": "bytes32",
          "name": "",
          "type": "bytes32"
        }
      ],
      "stateMutability": "view",
      "type": "function"
    },
    {
      "inputs": [
        {
          "internalType": "bytes32",
          "name": "role",
          "type": "bytes32"
        },
        {
          "internalType": "address",
          "name": "account",
          "type": "address"
        }
      ],
      "name": "grantRole",
      "outputs": [],
      "stateMutability": "nonpayable",
      "type": "function"
    },
    {
      "inputs": [
        {
          "internalType": "bytes32",
          "name": "role",
          "type": "bytes32"
        },
        {
          "internalType": "address",
          "name": "account",
          "type": "address"
        }
      ],
      "name": "hasRole",
      "outputs": [
        {
          "internalType": "bool",
          "name": "",
          "type": "bool"
        }
      ],
      "stateMutability": "view",
      "type": "function"
    },
    {
      "inputs": [],
      "name": "isAdmin",
      "outputs": [
        {
          "internalType": "bool",
          "name": "",
          "type": "bool"
        }
      ],
      "stateMutability": "view",
      "type": "function"
    },
    {
      "inputs": [],
      "name": "paused",
      "outputs": [
        {
          "internalType": "bool",
          "name": "",
          "type": "bool"
        }
      ],
      "stateMutability": "view",
      "type": "function"
    },
    {
      "inputs": [
        {
          "internalType": "bytes32",
          "name": "role",
          "type": "bytes32"
        },
        {
          "internalType": "address",
          "name": "account",
          "type": "address"
        }
      ],
      "name": "renounceRole",
      "outputs": [],
      "stateMutability": "nonpayable",
      "type": "function"
    },
    {
      "inputs": [
        {
          "internalType": "bytes32",
          "name": "role",
          "type": "bytes32"
        },
        {
          "internalType": "address",
          "name": "account",
          "type": "address"
        }
      ],
      "name": "revokeRole",
      "outputs": [],
      "stateMutability": "nonpayable",
      "type": "function"
    },
    {
      "inputs": [
        {
          "internalType": "bytes4",
          "name": "interfaceId",
          "type": "bytes4"
        }
      ],
      "name": "supportsInterface",
      "outputs": [
        {
          "internalType": "bool",
          "name": "",
          "type": "bool"
        }
      ],
      "stateMutability": "view",
      "type": "function"
    }
  ],
  "bytecode": "0x608060405234801561001057600080fd5b506113bd806100206000396000f3fe608060405234801561001057600080fd5b506004361061009e5760003560e01c80636e810b1a116100665780636e810b1a1461015957806391d1485414610175578063a217fddf146101a5578063b6db75a0146101c3578063d547741f146101e15761009e565b806301ffc9a7146100a3578063248a9ca3146100d35780632f2ff15d1461010357806336568abe1461011f5780635c975abb1461013b575b600080fd5b6100bd60048036038101906100b89190610d2e565b6101fd565b6040516100ca9190610d76565b60405180910390f35b6100ed60048036038101906100e89190610dc7565b610277565b6040516100fa9190610e03565b60405180910390f35b61011d60048036038101906101189190610e7c565b610297565b005b61013960048036038101906101349190610e7c565b6102b8565b005b61014361033b565b6040516101509190610d76565b60405180910390f35b610173600480360381019061016e9190610ebc565b610352565b005b61018f600480360381019061018a9190610e7c565b610474565b60405161019c9190610d76565b60405180910390f35b6101ad6104df565b6040516101ba9190610e03565b60405180910390f35b6101cb6104e6565b6040516101d89190610d76565b60405180910390f35b6101fb60048036038101906101f69190610e7c565b610505565b005b60007f7965db0b000000000000000000000000000000000000000000000000000000007bffffffffffffffffffffffffffffffffffffffffffffffffffffffff1916827bffffffffffffffffffffffffffffffffffffffffffffffffffffffff19161480610270575061026f82610526565b5b9050919050565b600060976000838152602001908152602001600020600101549050919050565b6102a082610277565b6102a981610590565b6102b383836105a4565b505050565b6102c0610685565b73ffffffffffffffffffffffffffffffffffffffff168173ffffffffffffffffffffffffffffffffffffffff161461032d576040517f08c379a000000000000000000000000000000000000000000000000000000000815260040161032490610f6c565b60405180910390fd5b610337828261068d565b5050565b6000603360009054906101000a900460ff16905090565b600060019054906101000a900460ff166103a1576040517f08c379a000000000000000000000000000000000000000000000000000000000815260040161039890610ffe565b60405180910390fd5b600073ffffffffffffffffffffffffffffffffffffffff168173ffffffffffffffffffffffffffffffffffffffff1603610407576040517f5415139400000000000000000000000000000000000000000000000000000000815260040160405180910390fd5b61040f61076f565b6104176107c8565b61041f610819565b61043061042a610872565b826105a4565b61044161043b61089a565b826105a4565b61045961044c61089a565b610454610872565b6108c2565b610471610464610872565b61046c610872565b6108c2565b50565b60006097600084815260200190815260200160002060000160008373ffffffffffffffffffffffffffffffffffffffff1673ffffffffffffffffffffffffffffffffffffffff16815260200190815260200160002060009054906101000a900460ff16905092915050565b6000801b81565b60006105006104f3610872565b6104fb610685565b610474565b905090565b61050e82610277565b61051781610590565b610521838361068d565b505050565b60007f01ffc9a7000000000000000000000000000000000000000000000000000000007bffffffffffffffffffffffffffffffffffffffffffffffffffffffff1916827bffffffffffffffffffffffffffffffffffffffffffffffffffffffff1916149050919050565b6105a18161059c610685565b61091e565b50565b6105ae8282610474565b6106815760016097600084815260200190815260200160002060000160008373ffffffffffffffffffffffffffffffffffffffff1673ffffffffffffffffffffffffffffffffffffffff16815260200190815260200160002060006101000a81548160ff021916908315150217905550610626610685565b73ffffffffffffffffffffffffffffffffffffffff168173ffffffffffffffffffffffffffffffffffffffff16837f2f8788117e7eff1d82e926ec794901d17c78024a50270940304540a733656f0d60405160405180910390a45b5050565b600033905090565b6106978282610474565b1561076b5760006097600084815260200190815260200160002060000160008373ffffffffffffffffffffffffffffffffffffffff1673ffffffffffffffffffffffffffffffffffffffff16815260200190815260200160002060006101000a81548160ff021916908315150217905550610710610685565b73ffffffffffffffffffffffffffffffffffffffff168173ffffffffffffffffffffffffffffffffffffffff16837ff6391f5c32d9c69d2a47ea670b442974b53935d1edc7fd64eb21e047a839171b60405160405180910390a45b5050565b600060019054906101000a900460ff166107be576040517f08c379a00000000000000000000000000000000000000000000000000000000081526004016107b590610ffe565b60405180910390fd5b6107c66109a3565b565b600060019054906101000a900460ff16610817576040517f08c379a000000000000000000000000000000000000000000000000000000000815260040161080e90610ffe565b60405180910390fd5b565b600060019054906101000a900460ff16610868576040517f08c379a000000000000000000000000000000000000000000000000000000000815260040161085f90610ffe565b60405180910390fd5b610870610a0f565b565b60007fa49807205ce4d355092ef5a8a18f56e8913cf4a201fbe287825b095693c21775905090565b60007f65d7a28e3265b37a6474929f336521b332c1681b933f6cb9f3376673440d862a905090565b60006108cd83610277565b90508160976000858152602001908152602001600020600101819055508181847fbd79b86ffe0ab8e8776151514217cd7cacd52c909f66475c3af44e129f0b00ff60405160405180910390a4505050565b6109288282610474565b61099f5761093581610a68565b6109438360001c6020610a95565b604051602001610954929190611127565b6040516020818303038152906040526040517f08c379a000000000000000000000000000000000000000000000000000000000815260040161099691906111ab565b60405180910390fd5b5050565b600060019054906101000a900460ff166109f2576040517f08c379a00000000000000000000000000000000000000000000000000000000081526004016109e990610ffe565b60405180910390fd5b6000603360006101000a81548160ff021916908315150217905550565b600060019054906101000a900460ff16610a5e576040517f08c379a0000000000000000000000000000000000000000000000000000000008152600401610a5590610ffe565b60405180910390fd5b600160c981905550565b6060610a8e8273ffffffffffffffffffffffffffffffffffffffff16601460ff16610a95565b9050919050565b606060006002836002610aa89190611206565b610ab29190611260565b67ffffffffffffffff811115610acb57610aca611294565b5b6040519080825280601f01601f191660200182016040528015610afd5781602001600182028036833780820191505090505b5090507f300000000000000000000000000000000000000000000000000000000000000081600081518110610b3557610b346112c3565b5b60200101907effffffffffffffffffffffffffffffffffffffffffffffffffffffffffffff1916908160001a9053507f780000000000000000000000000000000000000000000000000000000000000081600181518110610b9957610b986112c3565b5b60200101907effffffffffffffffffffffffffffffffffffffffffffffffffffffffffffff1916908160001a90535060006001846002610bd99190611206565b610be39190611260565b90505b6001811115610c83577f3031323334353637383961626364656600000000000000000000000000000000600f861660108110610c2557610c246112c3565b5b1a60f81b828281518110610c3c57610c3b6112c3565b5b60200101907effffffffffffffffffffffffffffffffffffffffffffffffffffffffffffff1916908160001a905350600485901c945080610c7c906112f2565b9050610be6565b5060008414610cc7576040517f08c379a0000000000000000000000000000000000000000000000000000000008152600401610cbe90611367565b60405180910390fd5b8091505092915050565b600080fd5b60007fffffffff0000000000000000000000000000000000000000000000000000000082169050919050565b610d0b81610cd6565b8114610d1657600080fd5b50565b600081359050610d2881610d02565b92915050565b600060208284031215610d4457610d43610cd1565b5b6000610d5284828501610d19565b91505092915050565b60008115159050919050565b610d7081610d5b565b82525050565b6000602082019050610d8b6000830184610d67565b92915050565b6000819050919050565b610da481610d91565b8114610daf57600080fd5b50565b600081359050610dc181610d9b565b92915050565b600060208284031215610ddd57610ddc610cd1565b5b6000610deb84828501610db2565b91505092915050565b610dfd81610d91565b82525050565b6000602082019050610e186000830184610df4565b92915050565b600073ffffffffffffffffffffffffffffffffffffffff82169050919050565b6000610e4982610e1e565b9050919050565b610e5981610e3e565b8114610e6457600080fd5b50565b600081359050610e7681610e50565b92915050565b60008060408385031215610e9357610e92610cd1565b5b6000610ea185828601610db2565b9250506020610eb285828601610e67565b9150509250929050565b600060208284031215610ed257610ed1610cd1565b5b6000610ee084828501610e67565b91505092915050565b600082825260208201905092915050565b7f416363657373436f6e74726f6c3a2063616e206f6e6c792072656e6f756e636560008201527f20726f6c657320666f722073656c660000000000000000000000000000000000602082015250565b6000610f56602f83610ee9565b9150610f6182610efa565b604082019050919050565b60006020820190508181036000830152610f8581610f49565b9050919050565b7f496e697469616c697a61626c653a20636f6e7472616374206973206e6f74206960008201527f6e697469616c697a696e67000000000000000000000000000000000000000000602082015250565b6000610fe8602b83610ee9565b9150610ff382610f8c565b604082019050919050565b6000602082019050818103600083015261101781610fdb565b9050919050565b600081905092915050565b7f416363657373436f6e74726f6c3a206163636f756e7420000000000000000000600082015250565b600061105f60178361101e565b915061106a82611029565b601782019050919050565b600081519050919050565b60005b8381101561109e578082015181840152602081019050611083565b60008484015250505050565b60006110b582611075565b6110bf818561101e565b93506110cf818560208601611080565b80840191505092915050565b7f206973206d697373696e6720726f6c6520000000000000000000000000000000600082015250565b600061111160118361101e565b915061111c826110db565b601182019050919050565b600061113282611052565b915061113e82856110aa565b915061114982611104565b915061115582846110aa565b91508190509392505050565b6000601f19601f8301169050919050565b600061117d82611075565b6111878185610ee9565b9350611197818560208601611080565b6111a081611161565b840191505092915050565b600060208201905081810360008301526111c58184611172565b905092915050565b6000819050919050565b7f4e487b7100000000000000000000000000000000000000000000000000000000600052601160045260246000fd5b6000611211826111cd565b915061121c836111cd565b9250817fffffffffffffffffffffffffffffffffffffffffffffffffffffffffffffffff0483118215151615611255576112546111d7565b5b828202905092915050565b600061126b826111cd565b9150611276836111cd565b925082820190508082111561128e5761128d6111d7565b5b92915050565b7f4e487b7100000000000000000000000000000000000000000000000000000000600052604160045260246000fd5b7f4e487b7100000000000000000000000000000000000000000000000000000000600052603260045260246000fd5b60006112fd826111cd565b9150600082036113105761130f6111d7565b5b600182039050919050565b7f537472696e67733a20686578206c656e67746820696e73756666696369656e74600082015250565b6000611351602083610ee9565b915061135c8261131b565b602082019050919050565b6000602082019050818103600083015261138081611344565b905091905056fea2646970667358221220b74f206dcdcdebf392d7459b2ab1515c54cd9fe4808a3e861b805703bc1e9a2864736f6c63430008100033",
  "linkReferences": {},
  "deployedLinkReferences": {}
}