{
  "_format": "hh-sol-artifact-1",
  "contractName": "BaseUpgradeablePausable",
  "sourceName": "contracts/BaseUpgradeablePausable.sol",
  "abi": [
    {
      "inputs": [],
      "name": "BaseUpgradeablePausable__ZeroAddressError",
      "type": "error"
    },
    {
      "anonymous": false,
      "inputs": [
        {
          "indexed": false,
          "internalType": "uint8",
          "name": "version",
          "type": "uint8"
        }
      ],
      "name": "Initialized",
      "type": "event"
    },
    {
      "anonymous": false,
      "inputs": [
        {
          "indexed": false,
          "internalType": "address",
          "name": "account",
          "type": "address"
        }
      ],
      "name": "Paused",
      "type": "event"
    },
    {
      "anonymous": false,
      "inputs": [
        {
          "indexed": true,
          "internalType": "bytes32",
          "name": "role",
          "type": "bytes32"
        },
        {
          "indexed": true,
          "internalType": "bytes32",
          "name": "previousAdminRole",
          "type": "bytes32"
        },
        {
          "indexed": true,
          "internalType": "bytes32",
          "name": "newAdminRole",
          "type": "bytes32"
        }
      ],
      "name": "RoleAdminChanged",
      "type": "event"
    },
    {
      "anonymous": false,
      "inputs": [
        {
          "indexed": true,
          "internalType": "bytes32",
          "name": "role",
          "type": "bytes32"
        },
        {
          "indexed": true,
          "internalType": "address",
          "name": "account",
          "type": "address"
        },
        {
          "indexed": true,
          "internalType": "address",
          "name": "sender",
          "type": "address"
        }
      ],
      "name": "RoleGranted",
      "type": "event"
    },
    {
      "anonymous": false,
      "inputs": [
        {
          "indexed": true,
          "internalType": "bytes32",
          "name": "role",
          "type": "bytes32"
        },
        {
          "indexed": true,
          "internalType": "address",
          "name": "account",
          "type": "address"
        },
        {
          "indexed": true,
          "internalType": "address",
          "name": "sender",
          "type": "address"
        }
      ],
      "name": "RoleRevoked",
      "type": "event"
    },
    {
      "anonymous": false,
      "inputs": [
        {
          "indexed": false,
          "internalType": "address",
          "name": "account",
          "type": "address"
        }
      ],
      "name": "Unpaused",
      "type": "event"
    },
    {
      "inputs": [],
      "name": "DEFAULT_ADMIN_ROLE",
      "outputs": [
        {
          "internalType": "bytes32",
          "name": "",
          "type": "bytes32"
        }
      ],
      "stateMutability": "view",
      "type": "function"
    },
    {
      "inputs": [
        {
          "internalType": "address",
          "name": "owner",
          "type": "address"
        }
      ],
      "name": "__BaseUpgradeablePausable_init",
      "outputs": [],
      "stateMutability": "nonpayable",
      "type": "function"
    },
    {
      "inputs": [
        {
          "internalType": "bytes32",
          "name": "role",
          "type": "bytes32"
        }
      ],
      "name": "getRoleAdmin",
      "outputs": [
        {
          "internalType": "bytes32",
          "name": "",
          "type": "bytes32"
        }
      ],
      "stateMutability": "view",
      "type": "function"
    },
    {
      "inputs": [
        {
          "internalType": "bytes32",
          "name": "role",
          "type": "bytes32"
        },
        {
          "internalType": "address",
          "name": "account",
          "type": "address"
        }
      ],
      "name": "grantRole",
      "outputs": [],
      "stateMutability": "nonpayable",
      "type": "function"
    },
    {
      "inputs": [
        {
          "internalType": "bytes32",
          "name": "role",
          "type": "bytes32"
        },
        {
          "internalType": "address",
          "name": "account",
          "type": "address"
        }
      ],
      "name": "hasRole",
      "outputs": [
        {
          "internalType": "bool",
          "name": "",
          "type": "bool"
        }
      ],
      "stateMutability": "view",
      "type": "function"
    },
    {
      "inputs": [],
      "name": "isAdmin",
      "outputs": [
        {
          "internalType": "bool",
          "name": "",
          "type": "bool"
        }
      ],
      "stateMutability": "view",
      "type": "function"
    },
    {
      "inputs": [],
      "name": "isModerator",
      "outputs": [
        {
          "internalType": "bool",
          "name": "",
          "type": "bool"
        }
      ],
      "stateMutability": "view",
      "type": "function"
    },
    {
      "inputs": [],
      "name": "paused",
      "outputs": [
        {
          "internalType": "bool",
          "name": "",
          "type": "bool"
        }
      ],
      "stateMutability": "view",
      "type": "function"
    },
    {
      "inputs": [
        {
          "internalType": "bytes32",
          "name": "role",
          "type": "bytes32"
        },
        {
          "internalType": "address",
          "name": "account",
          "type": "address"
        }
      ],
      "name": "renounceRole",
      "outputs": [],
      "stateMutability": "nonpayable",
      "type": "function"
    },
    {
      "inputs": [
        {
          "internalType": "bytes32",
          "name": "role",
          "type": "bytes32"
        },
        {
          "internalType": "address",
          "name": "account",
          "type": "address"
        }
      ],
      "name": "revokeRole",
      "outputs": [],
      "stateMutability": "nonpayable",
      "type": "function"
    },
    {
      "inputs": [
        {
          "internalType": "bytes4",
          "name": "interfaceId",
          "type": "bytes4"
        }
      ],
      "name": "supportsInterface",
      "outputs": [
        {
          "internalType": "bool",
          "name": "",
          "type": "bool"
        }
      ],
      "stateMutability": "view",
      "type": "function"
    }
  ],
  "bytecode": "0x608060405234801561001057600080fd5b50611405806100206000396000f3fe608060405234801561001057600080fd5b50600436106100a95760003560e01c80636e810b1a116100715780636e810b1a1461016457806391d1485414610180578063a217fddf146101b0578063aeabaff3146101ce578063b6db75a0146101ec578063d547741f1461020a576100a9565b806301ffc9a7146100ae578063248a9ca3146100de5780632f2ff15d1461010e57806336568abe1461012a5780635c975abb14610146575b600080fd5b6100c860048036038101906100c39190610d76565b610226565b6040516100d59190610dbe565b60405180910390f35b6100f860048036038101906100f39190610e0f565b6102a0565b6040516101059190610e4b565b60405180910390f35b61012860048036038101906101239190610ec4565b6102c0565b005b610144600480360381019061013f9190610ec4565b6102e1565b005b61014e610364565b60405161015b9190610dbe565b60405180910390f35b61017e60048036038101906101799190610f04565b61037b565b005b61019a60048036038101906101959190610ec4565b61049d565b6040516101a79190610dbe565b60405180910390f35b6101b8610508565b6040516101c59190610e4b565b60405180910390f35b6101d661050f565b6040516101e39190610dbe565b60405180910390f35b6101f461052e565b6040516102019190610dbe565b60405180910390f35b610224600480360381019061021f9190610ec4565b61054d565b005b60007f7965db0b000000000000000000000000000000000000000000000000000000007bffffffffffffffffffffffffffffffffffffffffffffffffffffffff1916827bffffffffffffffffffffffffffffffffffffffffffffffffffffffff1916148061029957506102988261056e565b5b9050919050565b600060976000838152602001908152602001600020600101549050919050565b6102c9826102a0565b6102d2816105d8565b6102dc83836105ec565b505050565b6102e96106cd565b73ffffffffffffffffffffffffffffffffffffffff168173ffffffffffffffffffffffffffffffffffffffff1614610356576040517f08c379a000000000000000000000000000000000000000000000000000000000815260040161034d90610fb4565b60405180910390fd5b61036082826106d5565b5050565b6000603360009054906101000a900460ff16905090565b600060019054906101000a900460ff166103ca576040517f08c379a00000000000000000000000000000000000000000000000000000000081526004016103c190611046565b60405180910390fd5b600073ffffffffffffffffffffffffffffffffffffffff168173ffffffffffffffffffffffffffffffffffffffff1603610430576040517f5415139400000000000000000000000000000000000000000000000000000000815260040160405180910390fd5b6104386107b7565b610440610810565b610448610861565b6104596104536108ba565b826105ec565b61046a6104646108e2565b826105ec565b6104826104756108e2565b61047d6108ba565b61090a565b61049a61048d6108ba565b6104956108ba565b61090a565b50565b60006097600084815260200190815260200160002060000160008373ffffffffffffffffffffffffffffffffffffffff1673ffffffffffffffffffffffffffffffffffffffff16815260200190815260200160002060009054906101000a900460ff16905092915050565b6000801b81565b600061052961051c6108e2565b6105246106cd565b61049d565b905090565b600061054861053b6108ba565b6105436106cd565b61049d565b905090565b610556826102a0565b61055f816105d8565b61056983836106d5565b505050565b60007f01ffc9a7000000000000000000000000000000000000000000000000000000007bffffffffffffffffffffffffffffffffffffffffffffffffffffffff1916827bffffffffffffffffffffffffffffffffffffffffffffffffffffffff1916149050919050565b6105e9816105e46106cd565b610966565b50565b6105f6828261049d565b6106c95760016097600084815260200190815260200160002060000160008373ffffffffffffffffffffffffffffffffffffffff1673ffffffffffffffffffffffffffffffffffffffff16815260200190815260200160002060006101000a81548160ff02191690831515021790555061066e6106cd565b73ffffffffffffffffffffffffffffffffffffffff168173ffffffffffffffffffffffffffffffffffffffff16837f2f8788117e7eff1d82e926ec794901d17c78024a50270940304540a733656f0d60405160405180910390a45b5050565b600033905090565b6106df828261049d565b156107b35760006097600084815260200190815260200160002060000160008373ffffffffffffffffffffffffffffffffffffffff1673ffffffffffffffffffffffffffffffffffffffff16815260200190815260200160002060006101000a81548160ff0219169083151502179055506107586106cd565b73ffffffffffffffffffffffffffffffffffffffff168173ffffffffffffffffffffffffffffffffffffffff16837ff6391f5c32d9c69d2a47ea670b442974b53935d1edc7fd64eb21e047a839171b60405160405180910390a45b5050565b600060019054906101000a900460ff16610806576040517f08c379a00000000000000000000000000000000000000000000000000000000081526004016107fd90611046565b60405180910390fd5b61080e6109eb565b565b600060019054906101000a900460ff1661085f576040517f08c379a000000000000000000000000000000000000000000000000000000000815260040161085690611046565b60405180910390fd5b565b600060019054906101000a900460ff166108b0576040517f08c379a00000000000000000000000000000000000000000000000000000000081526004016108a790611046565b60405180910390fd5b6108b8610a57565b565b60007fa49807205ce4d355092ef5a8a18f56e8913cf4a201fbe287825b095693c21775905090565b60007f65d7a28e3265b37a6474929f336521b332c1681b933f6cb9f3376673440d862a905090565b6000610915836102a0565b90508160976000858152602001908152602001600020600101819055508181847fbd79b86ffe0ab8e8776151514217cd7cacd52c909f66475c3af44e129f0b00ff60405160405180910390a4505050565b610970828261049d565b6109e75761097d81610ab0565b61098b8360001c6020610add565b60405160200161099c92919061116f565b6040516020818303038152906040526040517f08c379a00000000000000000000000000000000000000000000000000000000081526004016109de91906111f3565b60405180910390fd5b5050565b600060019054906101000a900460ff16610a3a576040517f08c379a0000000000000000000000000000000000000000000000000000000008152600401610a3190611046565b60405180910390fd5b6000603360006101000a81548160ff021916908315150217905550565b600060019054906101000a900460ff16610aa6576040517f08c379a0000000000000000000000000000000000000000000000000000000008152600401610a9d90611046565b60405180910390fd5b600160c981905550565b6060610ad68273ffffffffffffffffffffffffffffffffffffffff16601460ff16610add565b9050919050565b606060006002836002610af0919061124e565b610afa91906112a8565b67ffffffffffffffff811115610b1357610b126112dc565b5b6040519080825280601f01601f191660200182016040528015610b455781602001600182028036833780820191505090505b5090507f300000000000000000000000000000000000000000000000000000000000000081600081518110610b7d57610b7c61130b565b5b60200101907effffffffffffffffffffffffffffffffffffffffffffffffffffffffffffff1916908160001a9053507f780000000000000000000000000000000000000000000000000000000000000081600181518110610be157610be061130b565b5b60200101907effffffffffffffffffffffffffffffffffffffffffffffffffffffffffffff1916908160001a90535060006001846002610c21919061124e565b610c2b91906112a8565b90505b6001811115610ccb577f3031323334353637383961626364656600000000000000000000000000000000600f861660108110610c6d57610c6c61130b565b5b1a60f81b828281518110610c8457610c8361130b565b5b60200101907effffffffffffffffffffffffffffffffffffffffffffffffffffffffffffff1916908160001a905350600485901c945080610cc49061133a565b9050610c2e565b5060008414610d0f576040517f08c379a0000000000000000000000000000000000000000000000000000000008152600401610d06906113af565b60405180910390fd5b8091505092915050565b600080fd5b60007fffffffff0000000000000000000000000000000000000000000000000000000082169050919050565b610d5381610d1e565b8114610d5e57600080fd5b50565b600081359050610d7081610d4a565b92915050565b600060208284031215610d8c57610d8b610d19565b5b6000610d9a84828501610d61565b91505092915050565b60008115159050919050565b610db881610da3565b82525050565b6000602082019050610dd36000830184610daf565b92915050565b6000819050919050565b610dec81610dd9565b8114610df757600080fd5b50565b600081359050610e0981610de3565b92915050565b600060208284031215610e2557610e24610d19565b5b6000610e3384828501610dfa565b91505092915050565b610e4581610dd9565b82525050565b6000602082019050610e606000830184610e3c565b92915050565b600073ffffffffffffffffffffffffffffffffffffffff82169050919050565b6000610e9182610e66565b9050919050565b610ea181610e86565b8114610eac57600080fd5b50565b600081359050610ebe81610e98565b92915050565b60008060408385031215610edb57610eda610d19565b5b6000610ee985828601610dfa565b9250506020610efa85828601610eaf565b9150509250929050565b600060208284031215610f1a57610f19610d19565b5b6000610f2884828501610eaf565b91505092915050565b600082825260208201905092915050565b7f416363657373436f6e74726f6c3a2063616e206f6e6c792072656e6f756e636560008201527f20726f6c657320666f722073656c660000000000000000000000000000000000602082015250565b6000610f9e602f83610f31565b9150610fa982610f42565b604082019050919050565b60006020820190508181036000830152610fcd81610f91565b9050919050565b7f496e697469616c697a61626c653a20636f6e7472616374206973206e6f74206960008201527f6e697469616c697a696e67000000000000000000000000000000000000000000602082015250565b6000611030602b83610f31565b915061103b82610fd4565b604082019050919050565b6000602082019050818103600083015261105f81611023565b9050919050565b600081905092915050565b7f416363657373436f6e74726f6c3a206163636f756e7420000000000000000000600082015250565b60006110a7601783611066565b91506110b282611071565b601782019050919050565b600081519050919050565b60005b838110156110e65780820151818401526020810190506110cb565b60008484015250505050565b60006110fd826110bd565b6111078185611066565b93506111178185602086016110c8565b80840191505092915050565b7f206973206d697373696e6720726f6c6520000000000000000000000000000000600082015250565b6000611159601183611066565b915061116482611123565b601182019050919050565b600061117a8261109a565b915061118682856110f2565b91506111918261114c565b915061119d82846110f2565b91508190509392505050565b6000601f19601f8301169050919050565b60006111c5826110bd565b6111cf8185610f31565b93506111df8185602086016110c8565b6111e8816111a9565b840191505092915050565b6000602082019050818103600083015261120d81846111ba565b905092915050565b6000819050919050565b7f4e487b7100000000000000000000000000000000000000000000000000000000600052601160045260246000fd5b600061125982611215565b915061126483611215565b9250817fffffffffffffffffffffffffffffffffffffffffffffffffffffffffffffffff048311821515161561129d5761129c61121f565b5b828202905092915050565b60006112b382611215565b91506112be83611215565b92508282019050808211156112d6576112d561121f565b5b92915050565b7f4e487b7100000000000000000000000000000000000000000000000000000000600052604160045260246000fd5b7f4e487b7100000000000000000000000000000000000000000000000000000000600052603260045260246000fd5b600061134582611215565b9150600082036113585761135761121f565b5b600182039050919050565b7f537472696e67733a20686578206c656e67746820696e73756666696369656e74600082015250565b6000611399602083610f31565b91506113a482611363565b602082019050919050565b600060208201905081810360008301526113c88161138c565b905091905056fea264697066735822122035fad7b7bfd3590234e623d5d771a67abaabf11b0a1942fb646c86abb77a8dd964736f6c63430008100033",
  "linkReferences": {},
  "deployedLinkReferences": {}
}