{
  "_format": "hh-sol-artifact-1",
  "contractName": "CompoundV2Insurance",
  "sourceName": "contracts/core/zeroPremium/SmartContractInsurance/Compound/CompoundV2Insurance.sol",
  "abi": [
    {
      "inputs": [],
      "name": "BaseUpgradeablePausable__ZeroAddressError",
      "type": "error"
    },
    {
      "inputs": [],
      "name": "Compound_ZP__ImmutableChangesError",
      "type": "error"
    },
    {
      "inputs": [],
      "name": "Compound_ZP__LowAmountError",
      "type": "error"
    },
    {
      "inputs": [],
      "name": "Compound_ZP__LowSupplyAmountError",
      "type": "error"
    },
    {
      "inputs": [],
      "name": "Compound_ZP__TransactionFailedError",
      "type": "error"
    },
    {
      "inputs": [],
      "name": "Compound_ZP__WrongInfoEnteredError",
      "type": "error"
    },
    {
      "anonymous": false,
      "inputs": [
        {
          "indexed": false,
          "internalType": "uint8",
          "name": "version",
          "type": "uint8"
        }
      ],
      "name": "Initialized",
      "type": "event"
    },
    {
      "anonymous": false,
      "inputs": [
        {
          "indexed": false,
          "internalType": "address",
          "name": "account",
          "type": "address"
        }
      ],
      "name": "Paused",
      "type": "event"
    },
    {
      "anonymous": false,
      "inputs": [
        {
          "indexed": true,
          "internalType": "bytes32",
          "name": "role",
          "type": "bytes32"
        },
        {
          "indexed": true,
          "internalType": "bytes32",
          "name": "previousAdminRole",
          "type": "bytes32"
        },
        {
          "indexed": true,
          "internalType": "bytes32",
          "name": "newAdminRole",
          "type": "bytes32"
        }
      ],
      "name": "RoleAdminChanged",
      "type": "event"
    },
    {
      "anonymous": false,
      "inputs": [
        {
          "indexed": true,
          "internalType": "bytes32",
          "name": "role",
          "type": "bytes32"
        },
        {
          "indexed": true,
          "internalType": "address",
          "name": "account",
          "type": "address"
        },
        {
          "indexed": true,
          "internalType": "address",
          "name": "sender",
          "type": "address"
        }
      ],
      "name": "RoleGranted",
      "type": "event"
    },
    {
      "anonymous": false,
      "inputs": [
        {
          "indexed": true,
          "internalType": "bytes32",
          "name": "role",
          "type": "bytes32"
        },
        {
          "indexed": true,
          "internalType": "address",
          "name": "account",
          "type": "address"
        },
        {
          "indexed": true,
          "internalType": "address",
          "name": "sender",
          "type": "address"
        }
      ],
      "name": "RoleRevoked",
      "type": "event"
    },
    {
      "anonymous": false,
      "inputs": [
        {
          "indexed": true,
          "internalType": "address",
          "name": "userAddress",
          "type": "address"
        },
        {
          "indexed": true,
          "internalType": "address",
          "name": "tokenAddress",
          "type": "address"
        },
        {
          "indexed": true,
          "internalType": "uint256",
          "name": "amount",
          "type": "uint256"
        }
      ],
      "name": "SuppliedToken",
      "type": "event"
    },
    {
      "anonymous": false,
      "inputs": [
        {
          "indexed": false,
          "internalType": "address",
          "name": "account",
          "type": "address"
        }
      ],
      "name": "Unpaused",
      "type": "event"
    },
    {
      "anonymous": false,
      "inputs": [
        {
          "indexed": true,
          "internalType": "address",
          "name": "userAddress",
          "type": "address"
        },
        {
          "indexed": true,
          "internalType": "address",
          "name": "tokenAddress",
          "type": "address"
        },
        {
          "indexed": true,
          "internalType": "uint256",
          "name": "amount",
          "type": "uint256"
        }
      ],
      "name": "WithdrawnToken",
      "type": "event"
    },
    {
      "inputs": [],
      "name": "DEFAULT_ADMIN_ROLE",
      "outputs": [
        {
          "internalType": "bytes32",
          "name": "",
          "type": "bytes32"
        }
      ],
      "stateMutability": "view",
      "type": "function"
    },
    {
      "inputs": [],
      "name": "PLATFORM_FEE",
      "outputs": [
        {
          "internalType": "uint256",
          "name": "",
          "type": "uint256"
        }
      ],
      "stateMutability": "view",
      "type": "function"
    },
    {
      "inputs": [
        {
          "internalType": "address",
          "name": "owner",
          "type": "address"
        }
      ],
      "name": "__BaseUpgradeablePausable_init",
      "outputs": [],
      "stateMutability": "nonpayable",
      "type": "function"
    },
    {
      "inputs": [
        {
          "internalType": "address",
          "name": "cTokenAddress",
          "type": "address"
        }
      ],
      "name": "calculateUserBalance",
      "outputs": [
        {
          "internalType": "uint256",
          "name": "",
          "type": "uint256"
        },
        {
          "internalType": "uint256",
          "name": "",
          "type": "uint256"
        }
      ],
      "stateMutability": "view",
      "type": "function"
    },
    {
      "inputs": [],
      "name": "childEpoch",
      "outputs": [
        {
          "internalType": "uint256",
          "name": "",
          "type": "uint256"
        }
      ],
      "stateMutability": "view",
      "type": "function"
    },
    {
      "inputs": [],
      "name": "compoundComptroller",
      "outputs": [
        {
          "internalType": "contract IComptroller",
          "name": "",
          "type": "address"
        }
      ],
      "stateMutability": "view",
      "type": "function"
    },
    {
      "inputs": [
        {
          "internalType": "bytes32",
          "name": "role",
          "type": "bytes32"
        }
      ],
      "name": "getRoleAdmin",
      "outputs": [
        {
          "internalType": "bytes32",
          "name": "",
          "type": "bytes32"
        }
      ],
      "stateMutability": "view",
      "type": "function"
    },
    {
      "inputs": [],
      "name": "globalPauseOperation",
      "outputs": [
        {
          "internalType": "contract IGlobalPauseOperation",
          "name": "",
          "type": "address"
        }
      ],
      "stateMutability": "view",
      "type": "function"
    },
    {
      "inputs": [
        {
          "internalType": "bytes32",
          "name": "role",
          "type": "bytes32"
        },
        {
          "internalType": "address",
          "name": "account",
          "type": "address"
        }
      ],
      "name": "grantRole",
      "outputs": [],
      "stateMutability": "nonpayable",
      "type": "function"
    },
    {
      "inputs": [
        {
          "internalType": "bytes32",
          "name": "role",
          "type": "bytes32"
        },
        {
          "internalType": "address",
          "name": "account",
          "type": "address"
        }
      ],
      "name": "hasRole",
      "outputs": [
        {
          "internalType": "bool",
          "name": "",
          "type": "bool"
        }
      ],
      "stateMutability": "view",
      "type": "function"
    },
    {
      "inputs": [
        {
          "internalType": "address",
          "name": "controllerAddress",
          "type": "address"
        },
        {
          "internalType": "string",
          "name": "protocolName",
          "type": "string"
        },
        {
          "internalType": "address",
          "name": "deployedAddress",
          "type": "address"
        },
        {
          "internalType": "uint256",
          "name": "protocolID_",
          "type": "uint256"
        }
      ],
      "name": "init",
      "outputs": [],
      "stateMutability": "nonpayable",
      "type": "function"
    },
    {
      "inputs": [],
      "name": "initVersion",
      "outputs": [
        {
          "internalType": "uint256",
          "name": "",
          "type": "uint256"
        }
      ],
      "stateMutability": "view",
      "type": "function"
    },
    {
      "inputs": [
        {
          "internalType": "address",
          "name": "addressComp",
          "type": "address"
        },
        {
          "internalType": "address",
          "name": "addressPauseOperation",
          "type": "address"
        },
        {
          "internalType": "address",
          "name": "addressCompComptroller",
          "type": "address"
        }
      ],
      "name": "initialize",
      "outputs": [],
      "stateMutability": "nonpayable",
      "type": "function"
    },
    {
      "inputs": [],
      "name": "isAdmin",
      "outputs": [
        {
          "internalType": "bool",
          "name": "",
          "type": "bool"
        }
      ],
      "stateMutability": "view",
      "type": "function"
    },
    {
      "inputs": [],
      "name": "isModerator",
      "outputs": [
        {
          "internalType": "bool",
          "name": "",
          "type": "bool"
        }
      ],
      "stateMutability": "view",
      "type": "function"
    },
    {
      "inputs": [
        {
          "internalType": "address[]",
          "name": "tokenAddresses",
          "type": "address[]"
        },
        {
          "internalType": "address[]",
          "name": "cTokenAddresses",
          "type": "address[]"
        },
        {
          "internalType": "address",
          "name": "claimSettlementAddress",
          "type": "address"
        },
        {
          "internalType": "uint256",
          "name": "protocolRiskCategory",
          "type": "uint256"
        },
        {
          "internalType": "uint256",
          "name": "liquidatedEpoch",
          "type": "uint256"
        }
      ],
      "name": "liquidateTokens",
      "outputs": [],
      "stateMutability": "nonpayable",
      "type": "function"
    },
    {
      "inputs": [],
      "name": "paused",
      "outputs": [
        {
          "internalType": "bool",
          "name": "",
          "type": "bool"
        }
      ],
      "stateMutability": "view",
      "type": "function"
    },
    {
      "inputs": [],
      "name": "protocolID",
      "outputs": [
        {
          "internalType": "uint256",
          "name": "",
          "type": "uint256"
        }
      ],
      "stateMutability": "view",
      "type": "function"
    },
    {
      "inputs": [
        {
          "internalType": "bytes32",
          "name": "role",
          "type": "bytes32"
        },
        {
          "internalType": "address",
          "name": "account",
          "type": "address"
        }
      ],
      "name": "renounceRole",
      "outputs": [],
      "stateMutability": "nonpayable",
      "type": "function"
    },
    {
      "inputs": [
        {
          "internalType": "bytes32",
          "name": "role",
          "type": "bytes32"
        },
        {
          "internalType": "address",
          "name": "account",
          "type": "address"
        }
      ],
      "name": "revokeRole",
      "outputs": [],
      "stateMutability": "nonpayable",
      "type": "function"
    },
    {
      "inputs": [
        {
          "internalType": "address",
          "name": "tokenAddress",
          "type": "address"
        },
        {
          "internalType": "address",
          "name": "cTokenAddress",
          "type": "address"
        },
        {
          "internalType": "uint256",
          "name": "amount",
          "type": "uint256"
        },
        {
          "internalType": "uint256",
          "name": "deadline",
          "type": "uint256"
        },
        {
          "internalType": "uint8",
          "name": "permitV",
          "type": "uint8"
        },
        {
          "internalType": "bytes32",
          "name": "permitR",
          "type": "bytes32"
        },
        {
          "internalType": "bytes32",
          "name": "permitS",
          "type": "bytes32"
        }
      ],
      "name": "supplyToken",
      "outputs": [
        {
          "internalType": "bool",
          "name": "",
          "type": "bool"
        }
      ],
      "stateMutability": "nonpayable",
      "type": "function"
    },
    {
      "inputs": [
        {
          "internalType": "bytes4",
          "name": "interfaceId",
          "type": "bytes4"
        }
      ],
      "name": "supportsInterface",
      "outputs": [
        {
          "internalType": "bool",
          "name": "",
          "type": "bool"
        }
      ],
      "stateMutability": "view",
      "type": "function"
    },
    {
      "inputs": [],
      "name": "tokenComp",
      "outputs": [
        {
          "internalType": "contract IERC20Upgradeable",
          "name": "",
          "type": "address"
        }
      ],
      "stateMutability": "view",
      "type": "function"
    },
    {
      "inputs": [
        {
          "internalType": "address",
          "name": "tokenAddress",
          "type": "address"
        },
        {
          "internalType": "address",
          "name": "cTokenAddress",
          "type": "address"
        },
        {
          "internalType": "uint256",
          "name": "amount",
          "type": "uint256"
        }
      ],
      "name": "withdrawToken",
      "outputs": [
        {
          "internalType": "bool",
          "name": "",
          "type": "bool"
        }
      ],
      "stateMutability": "nonpayable",
      "type": "function"
    },
    {
      "inputs": [],
      "name": "zpController",
      "outputs": [
        {
          "internalType": "contract ISmartContractZPController",
          "name": "",
          "type": "address"
        }
      ],
      "stateMutability": "view",
      "type": "function"
    }
  ],
  "bytecode": "0x608060405234801561001057600080fd5b506151e6806100206000396000f3fe608060405234801561001057600080fd5b50600436106101735760003560e01c80636f632114116100de578063b6db75a011610097578063d547741f11610071578063d547741f1461044f578063d66025751461046b578063e322f1fe14610489578063e8031a96146104a757610173565b8063b6db75a0146103e4578063c0c53b8b14610402578063c72fea591461041e57610173565b80636f6321141461030e578063732debfb1461033e57806391d148541461035a57806393e9d1e81461038a578063a217fddf146103a8578063aeabaff3146103c657610173565b806336568abe1161013057806336568abe1461026057806338d38c971461027c5780635c975abb1461029a57806364063fdf146102b8578063699bf6fc146102d65780636e810b1a146102f257610173565b806301e336671461017857806301ffc9a7146101a85780631fe32b0c146101d8578063248a9ca3146101f65780632f2ff15d1461022657806334fbc9a114610242575b600080fd5b610192600480360381019061018d9190613c5b565b6104c5565b60405161019f9190613cc9565b60405180910390f35b6101c260048036038101906101bd9190613d3c565b610a27565b6040516101cf9190613cc9565b60405180910390f35b6101e0610aa1565b6040516101ed9190613dc8565b60405180910390f35b610210600480360381019061020b9190613e19565b610ac7565b60405161021d9190613e55565b60405180910390f35b610240600480360381019061023b9190613e70565b610ae7565b005b61024a610b08565b6040516102579190613ebf565b60405180910390f35b61027a60048036038101906102759190613e70565b610b0d565b005b610284610b90565b6040516102919190613ebf565b60405180910390f35b6102a2610b96565b6040516102af9190613cc9565b60405180910390f35b6102c0610bad565b6040516102cd9190613efb565b60405180910390f35b6102f060048036038101906102eb919061406f565b610bd4565b005b61030c60048036038101906103079190614122565b610ffc565b005b61032860048036038101906103239190614188565b61111e565b6040516103359190613cc9565b60405180910390f35b610358600480360381019061035391906142df565b611621565b005b610374600480360381019061036f9190613e70565b61189f565b6040516103819190613cc9565b60405180910390f35b61039261190a565b60405161039f9190613ebf565b60405180910390f35b6103b0611910565b6040516103bd9190613e55565b60405180910390f35b6103ce611917565b6040516103db9190613cc9565b60405180910390f35b6103ec611936565b6040516103f99190613cc9565b60405180910390f35b61041c60048036038101906104179190614362565b611955565b005b61043860048036038101906104339190614122565b611b62565b6040516104469291906143b5565b60405180910390f35b61046960048036038101906104649190613e70565b61219c565b005b6104736121bd565b6040516104809190613ebf565b60405180910390f35b6104916121c3565b60405161049e91906143ff565b60405180910390f35b6104af6121e9565b6040516104bc919061443b565b60405180910390f35b60006104cf612210565b60fc600081546104de90614485565b919050819055506000806104f185611b62565b915091508382101561052f576040517fe7231dcd00000000000000000000000000000000000000000000000000000000815260040160405180910390fd5b600061010360008773ffffffffffffffffffffffffffffffffffffffff1673ffffffffffffffffffffffffffffffffffffffff1681526020019081526020016000205490508461010560008873ffffffffffffffffffffffffffffffffffffffff1673ffffffffffffffffffffffffffffffffffffffff1681526020019081526020016000206000838152602001908152602001600020600001546105d491906144cd565b61010560008873ffffffffffffffffffffffffffffffffffffffff1673ffffffffffffffffffffffffffffffffffffffff168152602001908152602001600020600060fc5481526020019081526020016000206000018190555060006106398761225f565b90508061010560008973ffffffffffffffffffffffffffffffffffffffff1673ffffffffffffffffffffffffffffffffffffffff1681526020019081526020016000206000600160fc5461068d91906144cd565b815260200190815260200160002060010181905550600061010460006106b16124e8565b73ffffffffffffffffffffffffffffffffffffffff1673ffffffffffffffffffffffffffffffffffffffff16815260200190815260200160002060008973ffffffffffffffffffffffffffffffffffffffff1673ffffffffffffffffffffffffffffffffffffffff16815260200190815260200160002060030154905086610106600061073c6124e8565b73ffffffffffffffffffffffffffffffffffffffff1673ffffffffffffffffffffffffffffffffffffffff16815260200190815260200160002060008a73ffffffffffffffffffffffffffffffffffffffff1673ffffffffffffffffffffffffffffffffffffffff1681526020019081526020016000206000838152602001908152602001600020546107cf91906144cd565b61010660006107dc6124e8565b73ffffffffffffffffffffffffffffffffffffffff1673ffffffffffffffffffffffffffffffffffffffff16815260200190815260200160002060008a73ffffffffffffffffffffffffffffffffffffffff1673ffffffffffffffffffffffffffffffffffffffff168152602001908152602001600020600060fc5481526020019081526020016000208190555084870361091257600061010460006108806124e8565b73ffffffffffffffffffffffffffffffffffffffff1673ffffffffffffffffffffffffffffffffffffffff16815260200190815260200160002060008a73ffffffffffffffffffffffffffffffffffffffff1673ffffffffffffffffffffffffffffffffffffffff16815260200190815260200160002060000160006101000a81548160ff0219169083151502179055505b8361010460006109206124e8565b73ffffffffffffffffffffffffffffffffffffffff1673ffffffffffffffffffffffffffffffffffffffff16815260200190815260200160002060008a73ffffffffffffffffffffffffffffffffffffffff1673ffffffffffffffffffffffffffffffffffffffff16815260200190815260200160002060010160008282546109a99190614501565b925050819055506109bb8989896124f0565b610a0f6109c66124e8565b8560fe60009054906101000a900473ffffffffffffffffffffffffffffffffffffffff1673ffffffffffffffffffffffffffffffffffffffff166127449092919063ffffffff16565b600195505050505050610a206127ca565b9392505050565b60007f7965db0b000000000000000000000000000000000000000000000000000000007bffffffffffffffffffffffffffffffffffffffffffffffffffffffff1916827bffffffffffffffffffffffffffffffffffffffffffffffffffffffff19161480610a9a5750610a99826127d4565b5b9050919050565b60fe60009054906101000a900473ffffffffffffffffffffffffffffffffffffffff1681565b600060976000838152602001908152602001600020600101549050919050565b610af082610ac7565b610af98161283e565b610b038383612852565b505050565b605a81565b610b156124e8565b73ffffffffffffffffffffffffffffffffffffffff168173ffffffffffffffffffffffffffffffffffffffff1614610b82576040517f08c379a0000000000000000000000000000000000000000000000000000000008152600401610b79906145b8565b60405180910390fd5b610b8c8282612933565b5050565b60fd5481565b6000603360009054906101000a900460ff16905090565b61010160009054906101000a900473ffffffffffffffffffffffffffffffffffffffff1681565b610bdc611936565b610c1b576040517f08c379a0000000000000000000000000000000000000000000000000000000008152600401610c129061464a565b60405180910390fd5b600084519050600061010060009054906101000a900473ffffffffffffffffffffffffffffffffffffffff1673ffffffffffffffffffffffffffffffffffffffff166339c4c205846040518263ffffffff1660e01b8152600401610c7f9190613ebf565b602060405180830381865afa158015610c9c573d6000803e3d6000fd5b505050506040513d601f19601f82011682018060405250810190610cc0919061467f565b905060005b82811015610fea578461010060009054906101000a900473ffffffffffffffffffffffffffffffffffffffff1673ffffffffffffffffffffffffffffffffffffffff16634dbc7b2860fb546040518263ffffffff1660e01b8152600401610d2c9190613ebf565b602060405180830381865afa158015610d49573d6000803e3d6000fd5b505050506040513d601f19601f82011682018060405250810190610d6d919061467f565b03610fd9576000888281518110610d8757610d866146ac565b5b602002602001015190506000888381518110610da657610da56146ac565b5b60200260200101519050600061010360008373ffffffffffffffffffffffffffffffffffffffff1673ffffffffffffffffffffffffffffffffffffffff168152602001908152602001600020549050600061010560008473ffffffffffffffffffffffffffffffffffffffff1673ffffffffffffffffffffffffffffffffffffffff1681526020019081526020016000206000838152602001908152602001600020600001549050600060648288610e5e91906146db565b610e689190614764565b90506000610e758561225f565b90508061010560008773ffffffffffffffffffffffffffffffffffffffff1673ffffffffffffffffffffffffffffffffffffffff168152602001908152602001600020600060fc548152602001908152602001600020600101819055508183610ede91906144cd565b61010560008773ffffffffffffffffffffffffffffffffffffffff1673ffffffffffffffffffffffffffffffffffffffff1681526020019081526020016000206000600160fc54610f2f9190614501565b8152602001908152602001600020600001819055506000610f51878785612a15565b9050610f7e8d828973ffffffffffffffffffffffffffffffffffffffff166127449092919063ffffffff16565b600160fc54610f8d9190614501565b61010360008873ffffffffffffffffffffffffffffffffffffffff1673ffffffffffffffffffffffffffffffffffffffff16815260200190815260200160002081905550505050505050505b80610fe390614485565b9050610cc5565b50610ff3612bf0565b50505050505050565b600060019054906101000a900460ff1661104b576040517f08c379a000000000000000000000000000000000000000000000000000000000815260040161104290614807565b60405180910390fd5b600073ffffffffffffffffffffffffffffffffffffffff168173ffffffffffffffffffffffffffffffffffffffff16036110b1576040517f5415139400000000000000000000000000000000000000000000000000000000815260040160405180910390fd5b6110b9612cba565b6110c1612d13565b6110c9612d64565b6110da6110d4612dbd565b82612852565b6110eb6110e5612de5565b82612852565b6111036110f6612de5565b6110fe612dbd565b612e0d565b61111b61110e612dbd565b611116612dbd565b612e0d565b50565b6000611128612210565b6402540be400861015611167576040517f7e1764b300000000000000000000000000000000000000000000000000000000815260040160405180910390fd5b61116f612bf0565b6000889050600088905060008a9050610104600061118b6124e8565b73ffffffffffffffffffffffffffffffffffffffff1673ffffffffffffffffffffffffffffffffffffffff16815260200190815260200160002060008b73ffffffffffffffffffffffffffffffffffffffff1673ffffffffffffffffffffffffffffffffffffffff16815260200190815260200160002060000160009054906101000a900460ff166113465760fc5461010460006112276124e8565b73ffffffffffffffffffffffffffffffffffffffff1673ffffffffffffffffffffffffffffffffffffffff16815260200190815260200160002060008c73ffffffffffffffffffffffffffffffffffffffff1673ffffffffffffffffffffffffffffffffffffffff16815260200190815260200160002060020181905550600161010460006112b46124e8565b73ffffffffffffffffffffffffffffffffffffffff1673ffffffffffffffffffffffffffffffffffffffff16815260200190815260200160002060008c73ffffffffffffffffffffffffffffffffffffffff1673ffffffffffffffffffffffffffffffffffffffff16815260200190815260200160002060000160006101000a81548160ff0219169083151502179055505b60008273ffffffffffffffffffffffffffffffffffffffff166370a08231306040518263ffffffff1660e01b81526004016113819190614836565b602060405180830381865afa15801561139e573d6000803e3d6000fd5b505050506040513d601f19601f820116820180604052508101906113c2919061467f565b90506114006113cf6124e8565b308c8c8c8c8c8973ffffffffffffffffffffffffffffffffffffffff16612e6990979695949392919063ffffffff16565b61143461140b6124e8565b308c8773ffffffffffffffffffffffffffffffffffffffff16613036909392919063ffffffff16565b61145f8b8b8673ffffffffffffffffffffffffffffffffffffffff166130bf9092919063ffffffff16565b60008b73ffffffffffffffffffffffffffffffffffffffff1663a0712d688c6040518263ffffffff1660e01b815260040161149a9190613ebf565b6020604051808303816000875af11580156114b9573d6000803e3d6000fd5b505050506040513d601f19601f820116820180604052508101906114dd919061467f565b905060008114611519576040517f1941b85300000000000000000000000000000000000000000000000000000000815260040160405180910390fd5b60008473ffffffffffffffffffffffffffffffffffffffff166370a08231306040518263ffffffff1660e01b81526004016115549190614836565b602060405180830381865afa158015611571573d6000803e3d6000fd5b505050506040513d601f19601f82011682018060405250810190611595919061467f565b90506115a28d82856131d1565b8b8e73ffffffffffffffffffffffffffffffffffffffff166115c26124e8565b73ffffffffffffffffffffffffffffffffffffffff167fa64bf1fcc4f3d7c965ef3091c978df041ad959bfaa6d5abc7d99a17830407b2960405160405180910390a4600196505050505050506116166127ca565b979650505050505050565b611629611936565b611668576040517f08c379a000000000000000000000000000000000000000000000000000000000815260040161165f9061464a565b60405180910390fd5b600060fd5411156116a5576040517f5f39ce3900000000000000000000000000000000000000000000000000000000815260040160405180910390fd5b60fd600081546116b490614485565b919050819055508361010060006101000a81548173ffffffffffffffffffffffffffffffffffffffff021916908373ffffffffffffffffffffffffffffffffffffffff16021790555060008061010060009054906101000a900473ffffffffffffffffffffffffffffffffffffffff1673ffffffffffffffffffffffffffffffffffffffff16634b40ac92846040518263ffffffff1660e01b815260040161175c9190613ebf565b600060405180830381865afa158015611779573d6000803e3d6000fd5b505050506040513d6000823e3d601f19601f820116820180604052508101906117a29190614900565b915091508373ffffffffffffffffffffffffffffffffffffffff168173ffffffffffffffffffffffffffffffffffffffff161461180b576040517fd3d93e9600000000000000000000000000000000000000000000000000000000815260040160405180910390fd5b8460405160200161181c91906149a3565b604051602081830303815290604052805190602001208260405160200161184391906149a3565b6040516020818303038152906040528051906020012014611890576040517fd3d93e9600000000000000000000000000000000000000000000000000000000815260040160405180910390fd5b8260fb81905550505050505050565b60006097600084815260200190815260200160002060000160008373ffffffffffffffffffffffffffffffffffffffff1673ffffffffffffffffffffffffffffffffffffffff16815260200190815260200160002060009054906101000a900460ff16905092915050565b60fb5481565b6000801b81565b6000611931611924612de5565b61192c6124e8565b61189f565b905090565b6000611950611943612dbd565b61194b6124e8565b61189f565b905090565b60008060019054906101000a900460ff161590508080156119865750600160008054906101000a900460ff1660ff16105b806119b357506119953061356c565b1580156119b25750600160008054906101000a900460ff1660ff16145b5b6119f2576040517f08c379a00000000000000000000000000000000000000000000000000000000081526004016119e990614a2c565b60405180910390fd5b60016000806101000a81548160ff021916908360ff1602179055508015611a2f576001600060016101000a81548160ff0219169083151502179055505b8160ff60006101000a81548173ffffffffffffffffffffffffffffffffffffffff021916908373ffffffffffffffffffffffffffffffffffffffff1602179055508261010160006101000a81548173ffffffffffffffffffffffffffffffffffffffff021916908373ffffffffffffffffffffffffffffffffffffffff1602179055508360fe60006101000a81548173ffffffffffffffffffffffffffffffffffffffff021916908373ffffffffffffffffffffffffffffffffffffffff160217905550611b03611afe6124e8565b610ffc565b8015611b5c5760008060016101000a81548160ff0219169083151502179055507f7f26b83ff96e1f2b6a682f133852f6798a09c465da95921460cefb38474024986001604051611b539190614a87565b60405180910390a15b50505050565b60008060008060006101046000611b776124e8565b73ffffffffffffffffffffffffffffffffffffffff1673ffffffffffffffffffffffffffffffffffffffff16815260200190815260200160002060008773ffffffffffffffffffffffffffffffffffffffff1673ffffffffffffffffffffffffffffffffffffffff168152602001908152602001600020600201549050600060fc54905060008060008490505b838110156120f55760006101066000611c1b6124e8565b73ffffffffffffffffffffffffffffffffffffffff1673ffffffffffffffffffffffffffffffffffffffff16815260200190815260200160002060008c73ffffffffffffffffffffffffffffffffffffffff1673ffffffffffffffffffffffffffffffffffffffff16815260200190815260200160002060008381526020019081526020016000205411611caf5786611d46565b6101066000611cbc6124e8565b73ffffffffffffffffffffffffffffffffffffffff1673ffffffffffffffffffffffffffffffffffffffff16815260200190815260200160002060008b73ffffffffffffffffffffffffffffffffffffffff1673ffffffffffffffffffffffffffffffffffffffff1681526020019081526020016000206000828152602001908152602001600020545b9650600061010560008c73ffffffffffffffffffffffffffffffffffffffff1673ffffffffffffffffffffffffffffffffffffffff16815260200190815260200160002060008381526020019081526020016000206000015461010560008d73ffffffffffffffffffffffffffffffffffffffff1673ffffffffffffffffffffffffffffffffffffffff16815260200190815260200160002060008481526020019081526020016000206001015489611dff91906146db565b611e099190614764565b90508087611e179190614501565b9650600061010260008481526020019081526020016000205490508084146120e25780935061010060009054906101000a900473ffffffffffffffffffffffffffffffffffffffff1673ffffffffffffffffffffffffffffffffffffffff166305044ea660fb54866040518363ffffffff1660e01b8152600401611e9c9291906143b5565b602060405180830381865afa158015611eb9573d6000803e3d6000fd5b505050506040513d601f19601f82011682018060405250810190611edd9190614ace565b15611f865761010060009054906101000a900473ffffffffffffffffffffffffffffffffffffffff1673ffffffffffffffffffffffffffffffffffffffff16639cb0675860fb54866040518363ffffffff1660e01b8152600401611f429291906143b5565b602060405180830381865afa158015611f5f573d6000803e3d6000fd5b505050506040513d601f19601f82011682018060405250810190611f83919061467f565b94505b61010060009054906101000a900473ffffffffffffffffffffffffffffffffffffffff1673ffffffffffffffffffffffffffffffffffffffff1663b557e4a685876040518363ffffffff1660e01b8152600401611fe49291906143b5565b602060405180830381865afa158015612001573d6000803e3d6000fd5b505050506040513d601f19601f820116820180604052508101906120259190614ace565b156120e157606461010060009054906101000a900473ffffffffffffffffffffffffffffffffffffffff1673ffffffffffffffffffffffffffffffffffffffff166339c4c205866040518263ffffffff1660e01b81526004016120889190613ebf565b602060405180830381865afa1580156120a5573d6000803e3d6000fd5b505050506040513d601f19601f820116820180604052508101906120c9919061467f565b8a6120d491906146db565b6120de9190614764565b98505b5b826120ec90614485565b92505050611c04565b5061010460006121036124e8565b73ffffffffffffffffffffffffffffffffffffffff1673ffffffffffffffffffffffffffffffffffffffff16815260200190815260200160002060008a73ffffffffffffffffffffffffffffffffffffffff1673ffffffffffffffffffffffffffffffffffffffff168152602001908152602001600020600101548561218991906144cd565b9450858597509750505050505050915091565b6121a582610ac7565b6121ae8161283e565b6121b88383612933565b505050565b60fc5481565b60ff60009054906101000a900473ffffffffffffffffffffffffffffffffffffffff1681565b61010060009054906101000a900473ffffffffffffffffffffffffffffffffffffffff1681565b600260c95403612255576040517f08c379a000000000000000000000000000000000000000000000000000000000815260040161224c90614b47565b60405180910390fd5b600260c981905550565b600080600167ffffffffffffffff81111561227d5761227c613f2c565b5b6040519080825280602002602001820160405280156122ab5781602001602082028036833780820191505090505b50905082816000815181106122c3576122c26146ac565b5b602002602001019073ffffffffffffffffffffffffffffffffffffffff16908173ffffffffffffffffffffffffffffffffffffffff1681525050600060fe60009054906101000a900473ffffffffffffffffffffffffffffffffffffffff1673ffffffffffffffffffffffffffffffffffffffff166370a08231306040518263ffffffff1660e01b815260040161235a9190614836565b602060405180830381865afa158015612377573d6000803e3d6000fd5b505050506040513d601f19601f8201168201806040525081019061239b919061467f565b905060ff60009054906101000a900473ffffffffffffffffffffffffffffffffffffffff1673ffffffffffffffffffffffffffffffffffffffff166386df31ee30846040518363ffffffff1660e01b81526004016123fa929190614c37565b600060405180830381600087803b15801561241457600080fd5b505af1158015612428573d6000803e3d6000fd5b50505050600060fe60009054906101000a900473ffffffffffffffffffffffffffffffffffffffff1673ffffffffffffffffffffffffffffffffffffffff166370a08231306040518263ffffffff1660e01b81526004016124899190614836565b602060405180830381865afa1580156124a6573d6000803e3d6000fd5b505050506040513d601f19601f820116820180604052508101906124ca919061467f565b9050600082826124da91906144cd565b905080945050505050919050565b600033905090565b6000839050600083905060008273ffffffffffffffffffffffffffffffffffffffff166370a08231306040518263ffffffff1660e01b81526004016125359190614836565b602060405180830381865afa158015612552573d6000803e3d6000fd5b505050506040513d601f19601f82011682018060405250810190612576919061467f565b905060008273ffffffffffffffffffffffffffffffffffffffff1663db006a75866040518263ffffffff1660e01b81526004016125b39190613ebf565b6020604051808303816000875af11580156125d2573d6000803e3d6000fd5b505050506040513d601f19601f820116820180604052508101906125f6919061467f565b905060008114612632576040517f1941b85300000000000000000000000000000000000000000000000000000000815260040160405180910390fd5b60008473ffffffffffffffffffffffffffffffffffffffff166370a08231306040518263ffffffff1660e01b815260040161266d9190614836565b602060405180830381865afa15801561268a573d6000803e3d6000fd5b505050506040513d601f19601f820116820180604052508101906126ae919061467f565b9050600083826126be91906144cd565b905060fc5461010360008a73ffffffffffffffffffffffffffffffffffffffff1673ffffffffffffffffffffffffffffffffffffffff168152602001908152602001600020819055506127396127126124e8565b828873ffffffffffffffffffffffffffffffffffffffff166127449092919063ffffffff16565b505050505050505050565b6127c58363a9059cbb60e01b8484604051602401612763929190614c67565b604051602081830303815290604052907bffffffffffffffffffffffffffffffffffffffffffffffffffffffff19166020820180517bffffffffffffffffffffffffffffffffffffffffffffffffffffffff838183161783525050505061358f565b505050565b600160c981905550565b60007f01ffc9a7000000000000000000000000000000000000000000000000000000007bffffffffffffffffffffffffffffffffffffffffffffffffffffffff1916827bffffffffffffffffffffffffffffffffffffffffffffffffffffffff1916149050919050565b61284f8161284a6124e8565b613656565b50565b61285c828261189f565b61292f5760016097600084815260200190815260200160002060000160008373ffffffffffffffffffffffffffffffffffffffff1673ffffffffffffffffffffffffffffffffffffffff16815260200190815260200160002060006101000a81548160ff0219169083151502179055506128d46124e8565b73ffffffffffffffffffffffffffffffffffffffff168173ffffffffffffffffffffffffffffffffffffffff16837f2f8788117e7eff1d82e926ec794901d17c78024a50270940304540a733656f0d60405160405180910390a45b5050565b61293d828261189f565b15612a115760006097600084815260200190815260200160002060000160008373ffffffffffffffffffffffffffffffffffffffff1673ffffffffffffffffffffffffffffffffffffffff16815260200190815260200160002060006101000a81548160ff0219169083151502179055506129b66124e8565b73ffffffffffffffffffffffffffffffffffffffff168173ffffffffffffffffffffffffffffffffffffffff16837ff6391f5c32d9c69d2a47ea670b442974b53935d1edc7fd64eb21e047a839171b60405160405180910390a45b5050565b60008083905060008573ffffffffffffffffffffffffffffffffffffffff166370a08231306040518263ffffffff1660e01b8152600401612a569190614836565b602060405180830381865afa158015612a73573d6000803e3d6000fd5b505050506040513d601f19601f82011682018060405250810190612a97919061467f565b905060008273ffffffffffffffffffffffffffffffffffffffff1663db006a75866040518263ffffffff1660e01b8152600401612ad49190613ebf565b6020604051808303816000875af1158015612af3573d6000803e3d6000fd5b505050506040513d601f19601f82011682018060405250810190612b17919061467f565b905060008114612b53576040517f1941b85300000000000000000000000000000000000000000000000000000000815260040160405180910390fd5b60008773ffffffffffffffffffffffffffffffffffffffff166370a08231306040518263ffffffff1660e01b8152600401612b8e9190614836565b602060405180830381865afa158015612bab573d6000803e3d6000fd5b505050506040513d601f19601f82011682018060405250810190612bcf919061467f565b905060008382612bdf91906144cd565b905080955050505050509392505050565b60fc60008154612bff90614485565b91905081905550600061010060009054906101000a900473ffffffffffffffffffffffffffffffffffffffff1673ffffffffffffffffffffffffffffffffffffffff1663c07f47d46040518163ffffffff1660e01b8152600401602060405180830381865afa158015612c76573d6000803e3d6000fd5b505050506040513d601f19601f82011682018060405250810190612c9a919061467f565b905080610102600060fc5481526020019081526020016000208190555050565b600060019054906101000a900460ff16612d09576040517f08c379a0000000000000000000000000000000000000000000000000000000008152600401612d0090614807565b60405180910390fd5b612d116136db565b565b600060019054906101000a900460ff16612d62576040517f08c379a0000000000000000000000000000000000000000000000000000000008152600401612d5990614807565b60405180910390fd5b565b600060019054906101000a900460ff16612db3576040517f08c379a0000000000000000000000000000000000000000000000000000000008152600401612daa90614807565b60405180910390fd5b612dbb613747565b565b60007fa49807205ce4d355092ef5a8a18f56e8913cf4a201fbe287825b095693c21775905090565b60007f65d7a28e3265b37a6474929f336521b332c1681b933f6cb9f3376673440d862a905090565b6000612e1883610ac7565b90508160976000858152602001908152602001600020600101819055508181847fbd79b86ffe0ab8e8776151514217cd7cacd52c909f66475c3af44e129f0b00ff60405160405180910390a4505050565b60008873ffffffffffffffffffffffffffffffffffffffff16637ecebe00896040518263ffffffff1660e01b8152600401612ea49190614836565b602060405180830381865afa158015612ec1573d6000803e3d6000fd5b505050506040513d601f19601f82011682018060405250810190612ee5919061467f565b90508873ffffffffffffffffffffffffffffffffffffffff1663d505accf898989898989896040518863ffffffff1660e01b8152600401612f2c9796959493929190614c9f565b600060405180830381600087803b158015612f4657600080fd5b505af1158015612f5a573d6000803e3d6000fd5b5050505060008973ffffffffffffffffffffffffffffffffffffffff16637ecebe008a6040518263ffffffff1660e01b8152600401612f999190614836565b602060405180830381865afa158015612fb6573d6000803e3d6000fd5b505050506040513d601f19601f82011682018060405250810190612fda919061467f565b9050600182612fe99190614501565b811461302a576040517f08c379a000000000000000000000000000000000000000000000000000000000815260040161302190614d80565b60405180910390fd5b50505050505050505050565b6130b9846323b872dd60e01b85858560405160240161305793929190614da0565b604051602081830303815290604052907bffffffffffffffffffffffffffffffffffffffffffffffffffffffff19166020820180517bffffffffffffffffffffffffffffffffffffffffffffffffffffffff838183161783525050505061358f565b50505050565b6000818473ffffffffffffffffffffffffffffffffffffffff1663dd62ed3e30866040518363ffffffff1660e01b81526004016130fd929190614dd7565b602060405180830381865afa15801561311a573d6000803e3d6000fd5b505050506040513d601f19601f8201168201806040525081019061313e919061467f565b6131489190614501565b90506131cb8463095ea7b360e01b8584604051602401613169929190614c67565b604051602081830303815290604052907bffffffffffffffffffffffffffffffffffffffffffffffffffffffff19166020820180517bffffffffffffffffffffffffffffffffffffffffffffffffffffffff838183161783525050505061358f565b50505050565b600081836131df91906144cd565b9050600061010360008673ffffffffffffffffffffffffffffffffffffffff1673ffffffffffffffffffffffffffffffffffffffff168152602001908152602001600020549050600061010460006132356124e8565b73ffffffffffffffffffffffffffffffffffffffff1673ffffffffffffffffffffffffffffffffffffffff16815260200190815260200160002060008773ffffffffffffffffffffffffffffffffffffffff1673ffffffffffffffffffffffffffffffffffffffff16815260200190815260200160002060030154905060006132bd8761225f565b90508361010560008973ffffffffffffffffffffffffffffffffffffffff1673ffffffffffffffffffffffffffffffffffffffff16815260200190815260200160002060008581526020019081526020016000206000015461331f9190614501565b61010560008973ffffffffffffffffffffffffffffffffffffffff1673ffffffffffffffffffffffffffffffffffffffff168152602001908152602001600020600060fc548152602001908152602001600020600001819055508061010560008973ffffffffffffffffffffffffffffffffffffffff1673ffffffffffffffffffffffffffffffffffffffff1681526020019081526020016000206000600160fc546133cb91906144cd565b8152602001908152602001600020600101819055508361010660006133ee6124e8565b73ffffffffffffffffffffffffffffffffffffffff1673ffffffffffffffffffffffffffffffffffffffff16815260200190815260200160002060008973ffffffffffffffffffffffffffffffffffffffff1673ffffffffffffffffffffffffffffffffffffffff1681526020019081526020016000206000848152602001908152602001600020546134819190614501565b610106600061348e6124e8565b73ffffffffffffffffffffffffffffffffffffffff1673ffffffffffffffffffffffffffffffffffffffff16815260200190815260200160002060008973ffffffffffffffffffffffffffffffffffffffff1673ffffffffffffffffffffffffffffffffffffffff168152602001908152602001600020600060fc5481526020019081526020016000208190555060fc5461010360008973ffffffffffffffffffffffffffffffffffffffff1673ffffffffffffffffffffffffffffffffffffffff1681526020019081526020016000208190555050505050505050565b6000808273ffffffffffffffffffffffffffffffffffffffff163b119050919050565b60006135f1826040518060400160405280602081526020017f5361666545524332303a206c6f772d6c6576656c2063616c6c206661696c65648152508573ffffffffffffffffffffffffffffffffffffffff166137a09092919063ffffffff16565b905060008151111561365157808060200190518101906136119190614ace565b613650576040517f08c379a000000000000000000000000000000000000000000000000000000000815260040161364790614e72565b60405180910390fd5b5b505050565b613660828261189f565b6136d75761366d816137b8565b61367b8360001c60206137e5565b60405160200161368c929190614f2a565b6040516020818303038152906040526040517f08c379a00000000000000000000000000000000000000000000000000000000081526004016136ce9190614f9d565b60405180910390fd5b5050565b600060019054906101000a900460ff1661372a576040517f08c379a000000000000000000000000000000000000000000000000000000000815260040161372190614807565b60405180910390fd5b6000603360006101000a81548160ff021916908315150217905550565b600060019054906101000a900460ff16613796576040517f08c379a000000000000000000000000000000000000000000000000000000000815260040161378d90614807565b60405180910390fd5b600160c981905550565b60606137af8484600085613a21565b90509392505050565b60606137de8273ffffffffffffffffffffffffffffffffffffffff16601460ff166137e5565b9050919050565b6060600060028360026137f891906146db565b6138029190614501565b67ffffffffffffffff81111561381b5761381a613f2c565b5b6040519080825280601f01601f19166020018201604052801561384d5781602001600182028036833780820191505090505b5090507f300000000000000000000000000000000000000000000000000000000000000081600081518110613885576138846146ac565b5b60200101907effffffffffffffffffffffffffffffffffffffffffffffffffffffffffffff1916908160001a9053507f7800000000000000000000000000000000000000000000000000000000000000816001815181106138e9576138e86146ac565b5b60200101907effffffffffffffffffffffffffffffffffffffffffffffffffffffffffffff1916908160001a9053506000600184600261392991906146db565b6139339190614501565b90505b60018111156139d3577f3031323334353637383961626364656600000000000000000000000000000000600f861660108110613975576139746146ac565b5b1a60f81b82828151811061398c5761398b6146ac565b5b60200101907effffffffffffffffffffffffffffffffffffffffffffffffffffffffffffff1916908160001a905350600485901c9450806139cc90614fbf565b9050613936565b5060008414613a17576040517f08c379a0000000000000000000000000000000000000000000000000000000008152600401613a0e90615034565b60405180910390fd5b8091505092915050565b606082471015613a66576040517f08c379a0000000000000000000000000000000000000000000000000000000008152600401613a5d906150c6565b60405180910390fd5b6000808673ffffffffffffffffffffffffffffffffffffffff168587604051613a8f919061512d565b60006040518083038185875af1925050503d8060008114613acc576040519150601f19603f3d011682016040523d82523d6000602084013e613ad1565b606091505b5091509150613ae287838387613aee565b92505050949350505050565b60608315613b50576000835103613b4857613b088561356c565b613b47576040517f08c379a0000000000000000000000000000000000000000000000000000000008152600401613b3e90615190565b60405180910390fd5b5b829050613b5b565b613b5a8383613b63565b5b949350505050565b600082511115613b765781518083602001fd5b806040517f08c379a0000000000000000000000000000000000000000000000000000000008152600401613baa9190614f9d565b60405180910390fd5b6000604051905090565b600080fd5b600080fd5b600073ffffffffffffffffffffffffffffffffffffffff82169050919050565b6000613bf282613bc7565b9050919050565b613c0281613be7565b8114613c0d57600080fd5b50565b600081359050613c1f81613bf9565b92915050565b6000819050919050565b613c3881613c25565b8114613c4357600080fd5b50565b600081359050613c5581613c2f565b92915050565b600080600060608486031215613c7457613c73613bbd565b5b6000613c8286828701613c10565b9350506020613c9386828701613c10565b9250506040613ca486828701613c46565b9150509250925092565b60008115159050919050565b613cc381613cae565b82525050565b6000602082019050613cde6000830184613cba565b92915050565b60007fffffffff0000000000000000000000000000000000000000000000000000000082169050919050565b613d1981613ce4565b8114613d2457600080fd5b50565b600081359050613d3681613d10565b92915050565b600060208284031215613d5257613d51613bbd565b5b6000613d6084828501613d27565b91505092915050565b6000819050919050565b6000613d8e613d89613d8484613bc7565b613d69565b613bc7565b9050919050565b6000613da082613d73565b9050919050565b6000613db282613d95565b9050919050565b613dc281613da7565b82525050565b6000602082019050613ddd6000830184613db9565b92915050565b6000819050919050565b613df681613de3565b8114613e0157600080fd5b50565b600081359050613e1381613ded565b92915050565b600060208284031215613e2f57613e2e613bbd565b5b6000613e3d84828501613e04565b91505092915050565b613e4f81613de3565b82525050565b6000602082019050613e6a6000830184613e46565b92915050565b60008060408385031215613e8757613e86613bbd565b5b6000613e9585828601613e04565b9250506020613ea685828601613c10565b9150509250929050565b613eb981613c25565b82525050565b6000602082019050613ed46000830184613eb0565b92915050565b6000613ee582613d95565b9050919050565b613ef581613eda565b82525050565b6000602082019050613f106000830184613eec565b92915050565b600080fd5b6000601f19601f8301169050919050565b7f4e487b7100000000000000000000000000000000000000000000000000000000600052604160045260246000fd5b613f6482613f1b565b810181811067ffffffffffffffff82111715613f8357613f82613f2c565b5b80604052505050565b6000613f96613bb3565b9050613fa28282613f5b565b919050565b600067ffffffffffffffff821115613fc257613fc1613f2c565b5b602082029050602081019050919050565b600080fd5b6000613feb613fe684613fa7565b613f8c565b9050808382526020820190506020840283018581111561400e5761400d613fd3565b5b835b8181101561403757806140238882613c10565b845260208401935050602081019050614010565b5050509392505050565b600082601f83011261405657614055613f16565b5b8135614066848260208601613fd8565b91505092915050565b600080600080600060a0868803121561408b5761408a613bbd565b5b600086013567ffffffffffffffff8111156140a9576140a8613bc2565b5b6140b588828901614041565b955050602086013567ffffffffffffffff8111156140d6576140d5613bc2565b5b6140e288828901614041565b94505060406140f388828901613c10565b935050606061410488828901613c46565b925050608061411588828901613c46565b9150509295509295909350565b60006020828403121561413857614137613bbd565b5b600061414684828501613c10565b91505092915050565b600060ff82169050919050565b6141658161414f565b811461417057600080fd5b50565b6000813590506141828161415c565b92915050565b600080600080600080600060e0888a0312156141a7576141a6613bbd565b5b60006141b58a828b01613c10565b97505060206141c68a828b01613c10565b96505060406141d78a828b01613c46565b95505060606141e88a828b01613c46565b94505060806141f98a828b01614173565b93505060a061420a8a828b01613e04565b92505060c061421b8a828b01613e04565b91505092959891949750929550565b600080fd5b600067ffffffffffffffff82111561424a57614249613f2c565b5b61425382613f1b565b9050602081019050919050565b82818337600083830152505050565b600061428261427d8461422f565b613f8c565b90508281526020810184848401111561429e5761429d61422a565b5b6142a9848285614260565b509392505050565b600082601f8301126142c6576142c5613f16565b5b81356142d684826020860161426f565b91505092915050565b600080600080608085870312156142f9576142f8613bbd565b5b600061430787828801613c10565b945050602085013567ffffffffffffffff81111561432857614327613bc2565b5b614334878288016142b1565b935050604061434587828801613c10565b925050606061435687828801613c46565b91505092959194509250565b60008060006060848603121561437b5761437a613bbd565b5b600061438986828701613c10565b935050602061439a86828701613c10565b92505060406143ab86828701613c10565b9150509250925092565b60006040820190506143ca6000830185613eb0565b6143d76020830184613eb0565b9392505050565b60006143e982613d95565b9050919050565b6143f9816143de565b82525050565b600060208201905061441460008301846143f0565b92915050565b600061442582613d95565b9050919050565b6144358161441a565b82525050565b6000602082019050614450600083018461442c565b92915050565b7f4e487b7100000000000000000000000000000000000000000000000000000000600052601160045260246000fd5b600061449082613c25565b91507fffffffffffffffffffffffffffffffffffffffffffffffffffffffffffffffff82036144c2576144c1614456565b5b600182019050919050565b60006144d882613c25565b91506144e383613c25565b92508282039050818111156144fb576144fa614456565b5b92915050565b600061450c82613c25565b915061451783613c25565b925082820190508082111561452f5761452e614456565b5b92915050565b600082825260208201905092915050565b7f416363657373436f6e74726f6c3a2063616e206f6e6c792072656e6f756e636560008201527f20726f6c657320666f722073656c660000000000000000000000000000000000602082015250565b60006145a2602f83614535565b91506145ad82614546565b604082019050919050565b600060208201905081810360008301526145d181614595565b9050919050565b7f4d75737420686176652061646d696e20726f6c6520746f20706572666f726d2060008201527f7468697320616374696f6e2e0000000000000000000000000000000000000000602082015250565b6000614634602c83614535565b915061463f826145d8565b604082019050919050565b6000602082019050818103600083015261466381614627565b9050919050565b60008151905061467981613c2f565b92915050565b60006020828403121561469557614694613bbd565b5b60006146a38482850161466a565b91505092915050565b7f4e487b7100000000000000000000000000000000000000000000000000000000600052603260045260246000fd5b60006146e682613c25565b91506146f183613c25565b9250817fffffffffffffffffffffffffffffffffffffffffffffffffffffffffffffffff048311821515161561472a57614729614456565b5b828202905092915050565b7f4e487b7100000000000000000000000000000000000000000000000000000000600052601260045260246000fd5b600061476f82613c25565b915061477a83613c25565b92508261478a57614789614735565b5b828204905092915050565b7f496e697469616c697a61626c653a20636f6e7472616374206973206e6f74206960008201527f6e697469616c697a696e67000000000000000000000000000000000000000000602082015250565b60006147f1602b83614535565b91506147fc82614795565b604082019050919050565b60006020820190508181036000830152614820816147e4565b9050919050565b61483081613be7565b82525050565b600060208201905061484b6000830184614827565b92915050565b60005b8381101561486f578082015181840152602081019050614854565b60008484015250505050565b600061488e6148898461422f565b613f8c565b9050828152602081018484840111156148aa576148a961422a565b5b6148b5848285614851565b509392505050565b600082601f8301126148d2576148d1613f16565b5b81516148e284826020860161487b565b91505092915050565b6000815190506148fa81613bf9565b92915050565b6000806040838503121561491757614916613bbd565b5b600083015167ffffffffffffffff81111561493557614934613bc2565b5b614941858286016148bd565b9250506020614952858286016148eb565b9150509250929050565b600081519050919050565b600081905092915050565b600061497d8261495c565b6149878185614967565b9350614997818560208601614851565b80840191505092915050565b60006149af8284614972565b915081905092915050565b7f496e697469616c697a61626c653a20636f6e747261637420697320616c72656160008201527f647920696e697469616c697a6564000000000000000000000000000000000000602082015250565b6000614a16602e83614535565b9150614a21826149ba565b604082019050919050565b60006020820190508181036000830152614a4581614a09565b9050919050565b6000819050919050565b6000614a71614a6c614a6784614a4c565b613d69565b61414f565b9050919050565b614a8181614a56565b82525050565b6000602082019050614a9c6000830184614a78565b92915050565b614aab81613cae565b8114614ab657600080fd5b50565b600081519050614ac881614aa2565b92915050565b600060208284031215614ae457614ae3613bbd565b5b6000614af284828501614ab9565b91505092915050565b7f5265656e7472616e637947756172643a207265656e7472616e742063616c6c00600082015250565b6000614b31601f83614535565b9150614b3c82614afb565b602082019050919050565b60006020820190508181036000830152614b6081614b24565b9050919050565b600081519050919050565b600082825260208201905092915050565b6000819050602082019050919050565b6000614b9e82613d95565b9050919050565b614bae81614b93565b82525050565b6000614bc08383614ba5565b60208301905092915050565b6000602082019050919050565b6000614be482614b67565b614bee8185614b72565b9350614bf983614b83565b8060005b83811015614c2a578151614c118882614bb4565b9750614c1c83614bcc565b925050600181019050614bfd565b5085935050505092915050565b6000604082019050614c4c6000830185614827565b8181036020830152614c5e8184614bd9565b90509392505050565b6000604082019050614c7c6000830185614827565b614c896020830184613eb0565b9392505050565b614c998161414f565b82525050565b600060e082019050614cb4600083018a614827565b614cc16020830189614827565b614cce6040830188613eb0565b614cdb6060830187613eb0565b614ce86080830186614c90565b614cf560a0830185613e46565b614d0260c0830184613e46565b98975050505050505050565b7f5361666545524332303a207065726d697420646964206e6f742073756363656560008201527f6400000000000000000000000000000000000000000000000000000000000000602082015250565b6000614d6a602183614535565b9150614d7582614d0e565b604082019050919050565b60006020820190508181036000830152614d9981614d5d565b9050919050565b6000606082019050614db56000830186614827565b614dc26020830185614827565b614dcf6040830184613eb0565b949350505050565b6000604082019050614dec6000830185614827565b614df96020830184614827565b9392505050565b7f5361666545524332303a204552433230206f7065726174696f6e20646964206e60008201527f6f74207375636365656400000000000000000000000000000000000000000000602082015250565b6000614e5c602a83614535565b9150614e6782614e00565b604082019050919050565b60006020820190508181036000830152614e8b81614e4f565b9050919050565b7f416363657373436f6e74726f6c3a206163636f756e7420000000000000000000600082015250565b6000614ec8601783614967565b9150614ed382614e92565b601782019050919050565b7f206973206d697373696e6720726f6c6520000000000000000000000000000000600082015250565b6000614f14601183614967565b9150614f1f82614ede565b601182019050919050565b6000614f3582614ebb565b9150614f418285614972565b9150614f4c82614f07565b9150614f588284614972565b91508190509392505050565b6000614f6f8261495c565b614f798185614535565b9350614f89818560208601614851565b614f9281613f1b565b840191505092915050565b60006020820190508181036000830152614fb78184614f64565b905092915050565b6000614fca82613c25565b915060008203614fdd57614fdc614456565b5b600182039050919050565b7f537472696e67733a20686578206c656e67746820696e73756666696369656e74600082015250565b600061501e602083614535565b915061502982614fe8565b602082019050919050565b6000602082019050818103600083015261504d81615011565b9050919050565b7f416464726573733a20696e73756666696369656e742062616c616e636520666f60008201527f722063616c6c0000000000000000000000000000000000000000000000000000602082015250565b60006150b0602683614535565b91506150bb82615054565b604082019050919050565b600060208201905081810360008301526150df816150a3565b9050919050565b600081519050919050565b600081905092915050565b6000615107826150e6565b61511181856150f1565b9350615121818560208601614851565b80840191505092915050565b600061513982846150fc565b915081905092915050565b7f416464726573733a2063616c6c20746f206e6f6e2d636f6e7472616374000000600082015250565b600061517a601d83614535565b915061518582615144565b602082019050919050565b600060208201905081810360008301526151a98161516d565b905091905056fea2646970667358221220b957a7231735dddf751468b4faf0b6fb949876725e767a0f989179c0ac69c90d64736f6c63430008100033",
  "linkReferences": {},
  "deployedLinkReferences": {}
}