{
  "_format": "hh-sol-artifact-1",
  "contractName": "CompoundV2Insurance",
  "sourceName": "contracts/core/zeroPremium/SmartContractInsurance/Compound/CompoundV2Insurance.sol",
  "abi": [
    {
      "inputs": [],
      "name": "BaseUpgradeablePausable__ZeroAddressError",
      "type": "error"
    },
    {
      "inputs": [],
      "name": "Compound_ZP__ImmutableChangesError",
      "type": "error"
    },
    {
      "inputs": [],
      "name": "Compound_ZP__LowAmountError",
      "type": "error"
    },
    {
      "inputs": [],
      "name": "Compound_ZP__LowSupplyAmountError",
      "type": "error"
    },
    {
      "inputs": [],
      "name": "Compound_ZP__TransactionFailedError",
      "type": "error"
    },
    {
      "inputs": [],
      "name": "Compound_ZP__WrongInfoEnteredError",
      "type": "error"
    },
    {
      "anonymous": false,
      "inputs": [
        {
          "indexed": false,
          "internalType": "uint8",
          "name": "version",
          "type": "uint8"
        }
      ],
      "name": "Initialized",
      "type": "event"
    },
    {
      "anonymous": false,
      "inputs": [
        {
          "indexed": false,
          "internalType": "address",
          "name": "account",
          "type": "address"
        }
      ],
      "name": "Paused",
      "type": "event"
    },
    {
      "anonymous": false,
      "inputs": [
        {
          "indexed": true,
          "internalType": "bytes32",
          "name": "role",
          "type": "bytes32"
        },
        {
          "indexed": true,
          "internalType": "bytes32",
          "name": "previousAdminRole",
          "type": "bytes32"
        },
        {
          "indexed": true,
          "internalType": "bytes32",
          "name": "newAdminRole",
          "type": "bytes32"
        }
      ],
      "name": "RoleAdminChanged",
      "type": "event"
    },
    {
      "anonymous": false,
      "inputs": [
        {
          "indexed": true,
          "internalType": "bytes32",
          "name": "role",
          "type": "bytes32"
        },
        {
          "indexed": true,
          "internalType": "address",
          "name": "account",
          "type": "address"
        },
        {
          "indexed": true,
          "internalType": "address",
          "name": "sender",
          "type": "address"
        }
      ],
      "name": "RoleGranted",
      "type": "event"
    },
    {
      "anonymous": false,
      "inputs": [
        {
          "indexed": true,
          "internalType": "bytes32",
          "name": "role",
          "type": "bytes32"
        },
        {
          "indexed": true,
          "internalType": "address",
          "name": "account",
          "type": "address"
        },
        {
          "indexed": true,
          "internalType": "address",
          "name": "sender",
          "type": "address"
        }
      ],
      "name": "RoleRevoked",
      "type": "event"
    },
    {
      "anonymous": false,
      "inputs": [
        {
          "indexed": true,
          "internalType": "address",
          "name": "userAddress",
          "type": "address"
        },
        {
          "indexed": true,
          "internalType": "address",
          "name": "tokenAddress",
          "type": "address"
        },
        {
          "indexed": true,
          "internalType": "uint256",
          "name": "amount",
          "type": "uint256"
        }
      ],
      "name": "SuppliedToken",
      "type": "event"
    },
    {
      "anonymous": false,
      "inputs": [
        {
          "indexed": false,
          "internalType": "address",
          "name": "account",
          "type": "address"
        }
      ],
      "name": "Unpaused",
      "type": "event"
    },
    {
      "anonymous": false,
      "inputs": [
        {
          "indexed": true,
          "internalType": "address",
          "name": "userAddress",
          "type": "address"
        },
        {
          "indexed": true,
          "internalType": "address",
          "name": "tokenAddress",
          "type": "address"
        },
        {
          "indexed": true,
          "internalType": "uint256",
          "name": "amount",
          "type": "uint256"
        }
      ],
      "name": "WithdrawnToken",
      "type": "event"
    },
    {
      "inputs": [],
      "name": "DEFAULT_ADMIN_ROLE",
      "outputs": [
        {
          "internalType": "bytes32",
          "name": "",
          "type": "bytes32"
        }
      ],
      "stateMutability": "view",
      "type": "function"
    },
    {
      "inputs": [
        {
          "internalType": "address",
          "name": "owner",
          "type": "address"
        }
      ],
      "name": "__BaseUpgradeablePausable_init",
      "outputs": [],
      "stateMutability": "nonpayable",
      "type": "function"
    },
    {
      "inputs": [
        {
          "internalType": "address",
          "name": "rewardTokenAddress",
          "type": "address"
        }
      ],
      "name": "calculateUserBalance",
      "outputs": [
        {
          "internalType": "uint256",
          "name": "",
          "type": "uint256"
        },
        {
          "internalType": "uint256",
          "name": "",
          "type": "uint256"
        }
      ],
      "stateMutability": "view",
      "type": "function"
    },
    {
      "inputs": [
        {
          "internalType": "bytes32",
          "name": "role",
          "type": "bytes32"
        }
      ],
      "name": "getRoleAdmin",
      "outputs": [
        {
          "internalType": "bytes32",
          "name": "",
          "type": "bytes32"
        }
      ],
      "stateMutability": "view",
      "type": "function"
    },
    {
      "inputs": [
        {
          "internalType": "bytes32",
          "name": "role",
          "type": "bytes32"
        },
        {
          "internalType": "address",
          "name": "account",
          "type": "address"
        }
      ],
      "name": "grantRole",
      "outputs": [],
      "stateMutability": "nonpayable",
      "type": "function"
    },
    {
      "inputs": [
        {
          "internalType": "bytes32",
          "name": "role",
          "type": "bytes32"
        },
        {
          "internalType": "address",
          "name": "account",
          "type": "address"
        }
      ],
      "name": "hasRole",
      "outputs": [
        {
          "internalType": "bool",
          "name": "",
          "type": "bool"
        }
      ],
      "stateMutability": "view",
      "type": "function"
    },
    {
      "inputs": [
        {
          "internalType": "address",
          "name": "controllerAddress",
          "type": "address"
        },
        {
          "internalType": "string",
          "name": "protocolName",
          "type": "string"
        },
        {
          "internalType": "address",
          "name": "deployedAddress",
          "type": "address"
        },
        {
          "internalType": "uint256",
          "name": "protocolID",
          "type": "uint256"
        }
      ],
      "name": "init",
      "outputs": [],
      "stateMutability": "nonpayable",
      "type": "function"
    },
    {
      "inputs": [
        {
          "internalType": "address",
          "name": "addressXVS",
          "type": "address"
        },
        {
          "internalType": "address",
          "name": "addressPauseOperation",
          "type": "address"
        },
        {
          "internalType": "address",
          "name": "addressCompComptroller",
          "type": "address"
        }
      ],
      "name": "initialize",
      "outputs": [],
      "stateMutability": "nonpayable",
      "type": "function"
    },
    {
      "inputs": [],
      "name": "isAdmin",
      "outputs": [
        {
          "internalType": "bool",
          "name": "",
          "type": "bool"
        }
      ],
      "stateMutability": "view",
      "type": "function"
    },
    {
      "inputs": [
        {
          "internalType": "address[]",
          "name": "tokenAddresses",
          "type": "address[]"
        },
        {
          "internalType": "address[]",
          "name": "vTokenAddresses",
          "type": "address[]"
        },
        {
          "internalType": "address",
          "name": "claimSettlementAddress",
          "type": "address"
        },
        {
          "internalType": "uint256",
          "name": "protocolRiskCategory",
          "type": "uint256"
        },
        {
          "internalType": "uint256",
          "name": "liquidationPercent",
          "type": "uint256"
        }
      ],
      "name": "liquidateTokens",
      "outputs": [],
      "stateMutability": "nonpayable",
      "type": "function"
    },
    {
      "inputs": [],
      "name": "paused",
      "outputs": [
        {
          "internalType": "bool",
          "name": "",
          "type": "bool"
        }
      ],
      "stateMutability": "view",
      "type": "function"
    },
    {
      "inputs": [
        {
          "internalType": "bytes32",
          "name": "role",
          "type": "bytes32"
        },
        {
          "internalType": "address",
          "name": "account",
          "type": "address"
        }
      ],
      "name": "renounceRole",
      "outputs": [],
      "stateMutability": "nonpayable",
      "type": "function"
    },
    {
      "inputs": [
        {
          "internalType": "bytes32",
          "name": "role",
          "type": "bytes32"
        },
        {
          "internalType": "address",
          "name": "account",
          "type": "address"
        }
      ],
      "name": "revokeRole",
      "outputs": [],
      "stateMutability": "nonpayable",
      "type": "function"
    },
    {
      "inputs": [
        {
          "internalType": "address",
          "name": "tokenAddress",
          "type": "address"
        },
        {
          "internalType": "address",
          "name": "vTokenAddress",
          "type": "address"
        },
        {
          "internalType": "uint256",
          "name": "amount",
          "type": "uint256"
        },
        {
          "internalType": "uint256",
          "name": "deadline",
          "type": "uint256"
        },
        {
          "internalType": "uint8",
          "name": "v",
          "type": "uint8"
        },
        {
          "internalType": "bytes32",
          "name": "r",
          "type": "bytes32"
        },
        {
          "internalType": "bytes32",
          "name": "s",
          "type": "bytes32"
        }
      ],
      "name": "supplyToken",
      "outputs": [
        {
          "internalType": "bool",
          "name": "",
          "type": "bool"
        }
      ],
      "stateMutability": "nonpayable",
      "type": "function"
    },
    {
      "inputs": [
        {
          "internalType": "bytes4",
          "name": "interfaceId",
          "type": "bytes4"
        }
      ],
      "name": "supportsInterface",
      "outputs": [
        {
          "internalType": "bool",
          "name": "",
          "type": "bool"
        }
      ],
      "stateMutability": "view",
      "type": "function"
    },
    {
      "inputs": [
        {
          "internalType": "address",
          "name": "tokenAddress",
          "type": "address"
        },
        {
          "internalType": "address",
          "name": "vTokenAddress",
          "type": "address"
        },
        {
          "internalType": "uint256",
          "name": "amount",
          "type": "uint256"
        }
      ],
      "name": "withdrawToken",
      "outputs": [
        {
          "internalType": "bool",
          "name": "",
          "type": "bool"
        }
      ],
      "stateMutability": "nonpayable",
      "type": "function"
    }
  ],
  "bytecode": "0x608060405234801561001057600080fd5b50614e03806100206000396000f3fe608060405234801561001057600080fd5b50600436106101005760003560e01c80636f63211411610097578063b6db75a011610066578063b6db75a0146102bd578063c0c53b8b146102db578063c72fea59146102f7578063d547741f1461032857610100565b80636f63211414610223578063732debfb1461025357806391d148541461026f578063a217fddf1461029f57610100565b806336568abe116100d357806336568abe146101b15780635c975abb146101cd578063699bf6fc146101eb5780636e810b1a1461020757610100565b806301e336671461010557806301ffc9a714610135578063248a9ca3146101655780632f2ff15d14610195575b600080fd5b61011f600480360381019061011a9190613968565b610344565b60405161012c91906139d6565b60405180910390f35b61014f600480360381019061014a9190613a49565b6108a6565b60405161015c91906139d6565b60405180910390f35b61017f600480360381019061017a9190613aac565b610920565b60405161018c9190613ae8565b60405180910390f35b6101af60048036038101906101aa9190613b03565b610940565b005b6101cb60048036038101906101c69190613b03565b610961565b005b6101d56109e4565b6040516101e291906139d6565b60405180910390f35b61020560048036038101906102009190613c9c565b6109fb565b005b610221600480360381019061021c9190613d4f565b610d81565b005b61023d60048036038101906102389190613db5565b610ea3565b60405161024a91906139d6565b60405180910390f35b61026d60048036038101906102689190613f0c565b6113a6565b005b61028960048036038101906102849190613b03565b611624565b60405161029691906139d6565b60405180910390f35b6102a761168f565b6040516102b49190613ae8565b60405180910390f35b6102c5611696565b6040516102d291906139d6565b60405180910390f35b6102f560048036038101906102f09190613f8f565b6116b5565b005b610311600480360381019061030c9190613d4f565b6118c2565b60405161031f929190613ff1565b60405180910390f35b610342600480360381019061033d9190613b03565b611efc565b005b600061034e611f1d565b60fc6000815461035d90614049565b91905081905550600080610370856118c2565b91509150838210156103ae576040517fe7231dcd00000000000000000000000000000000000000000000000000000000815260040160405180910390fd5b600061010660008773ffffffffffffffffffffffffffffffffffffffff1673ffffffffffffffffffffffffffffffffffffffff1681526020019081526020016000205490508461010560008873ffffffffffffffffffffffffffffffffffffffff1673ffffffffffffffffffffffffffffffffffffffff1681526020019081526020016000206000838152602001908152602001600020600001546104539190614091565b61010560008873ffffffffffffffffffffffffffffffffffffffff1673ffffffffffffffffffffffffffffffffffffffff168152602001908152602001600020600060fc5481526020019081526020016000206000018190555060006104b887611f6c565b90508061010560008973ffffffffffffffffffffffffffffffffffffffff1673ffffffffffffffffffffffffffffffffffffffff1681526020019081526020016000206000600160fc5461050c9190614091565b815260200190815260200160002060010181905550600061010360006105306121f5565b73ffffffffffffffffffffffffffffffffffffffff1673ffffffffffffffffffffffffffffffffffffffff16815260200190815260200160002060008973ffffffffffffffffffffffffffffffffffffffff1673ffffffffffffffffffffffffffffffffffffffff1681526020019081526020016000206003015490508661010460006105bb6121f5565b73ffffffffffffffffffffffffffffffffffffffff1673ffffffffffffffffffffffffffffffffffffffff16815260200190815260200160002060008a73ffffffffffffffffffffffffffffffffffffffff1673ffffffffffffffffffffffffffffffffffffffff16815260200190815260200160002060008381526020019081526020016000205461064e9190614091565b610104600061065b6121f5565b73ffffffffffffffffffffffffffffffffffffffff1673ffffffffffffffffffffffffffffffffffffffff16815260200190815260200160002060008a73ffffffffffffffffffffffffffffffffffffffff1673ffffffffffffffffffffffffffffffffffffffff168152602001908152602001600020600060fc5481526020019081526020016000208190555084870361079157600061010360006106ff6121f5565b73ffffffffffffffffffffffffffffffffffffffff1673ffffffffffffffffffffffffffffffffffffffff16815260200190815260200160002060008a73ffffffffffffffffffffffffffffffffffffffff1673ffffffffffffffffffffffffffffffffffffffff16815260200190815260200160002060000160006101000a81548160ff0219169083151502179055505b83610103600061079f6121f5565b73ffffffffffffffffffffffffffffffffffffffff1673ffffffffffffffffffffffffffffffffffffffff16815260200190815260200160002060008a73ffffffffffffffffffffffffffffffffffffffff1673ffffffffffffffffffffffffffffffffffffffff168152602001908152602001600020600101600082825461082891906140c5565b9250508190555061083a8989896121fd565b61088e6108456121f5565b8560fe60009054906101000a900473ffffffffffffffffffffffffffffffffffffffff1673ffffffffffffffffffffffffffffffffffffffff166124519092919063ffffffff16565b60019550505050505061089f6124d7565b9392505050565b60007f7965db0b000000000000000000000000000000000000000000000000000000007bffffffffffffffffffffffffffffffffffffffffffffffffffffffff1916827bffffffffffffffffffffffffffffffffffffffffffffffffffffffff191614806109195750610918826124e1565b5b9050919050565b600060976000838152602001908152602001600020600101549050919050565b61094982610920565b6109528161254b565b61095c838361255f565b505050565b6109696121f5565b73ffffffffffffffffffffffffffffffffffffffff168173ffffffffffffffffffffffffffffffffffffffff16146109d6576040517f08c379a00000000000000000000000000000000000000000000000000000000081526004016109cd9061417c565b60405180910390fd5b6109e08282612640565b5050565b6000603360009054906101000a900460ff16905090565b610a03611696565b610a42576040517f08c379a0000000000000000000000000000000000000000000000000000000008152600401610a399061420e565b60405180910390fd5b60008451905060005b81811015610d70578361010060009054906101000a900473ffffffffffffffffffffffffffffffffffffffff1673ffffffffffffffffffffffffffffffffffffffff16634dbc7b2860fb546040518263ffffffff1660e01b8152600401610ab2919061422e565b602060405180830381865afa158015610acf573d6000803e3d6000fd5b505050506040513d601f19601f82011682018060405250810190610af3919061425e565b03610d5f576000878281518110610b0d57610b0c61428b565b5b602002602001015190506000878381518110610b2c57610b2b61428b565b5b60200260200101519050600061010660008373ffffffffffffffffffffffffffffffffffffffff1673ffffffffffffffffffffffffffffffffffffffff168152602001908152602001600020549050600061010560008473ffffffffffffffffffffffffffffffffffffffff1673ffffffffffffffffffffffffffffffffffffffff1681526020019081526020016000206000838152602001908152602001600020600001549050600060648289610be491906142ba565b610bee9190614343565b90506000610bfb85611f6c565b90508061010560008773ffffffffffffffffffffffffffffffffffffffff1673ffffffffffffffffffffffffffffffffffffffff168152602001908152602001600020600060fc548152602001908152602001600020600101819055508183610c649190614091565b61010560008773ffffffffffffffffffffffffffffffffffffffff1673ffffffffffffffffffffffffffffffffffffffff1681526020019081526020016000206000600160fc54610cb591906140c5565b8152602001908152602001600020600001819055506000610cd7878785612722565b9050610d048c828973ffffffffffffffffffffffffffffffffffffffff166124519092919063ffffffff16565b600160fc54610d1391906140c5565b61010660008873ffffffffffffffffffffffffffffffffffffffff1673ffffffffffffffffffffffffffffffffffffffff16815260200190815260200160002081905550505050505050505b80610d6990614049565b9050610a4b565b50610d796128fd565b505050505050565b600060019054906101000a900460ff16610dd0576040517f08c379a0000000000000000000000000000000000000000000000000000000008152600401610dc7906143e6565b60405180910390fd5b600073ffffffffffffffffffffffffffffffffffffffff168173ffffffffffffffffffffffffffffffffffffffff1603610e36576040517f5415139400000000000000000000000000000000000000000000000000000000815260040160405180910390fd5b610e3e6129c7565b610e46612a20565b610e4e612a71565b610e5f610e59612aca565b8261255f565b610e70610e6a612af2565b8261255f565b610e88610e7b612af2565b610e83612aca565b612b1a565b610ea0610e93612aca565b610e9b612aca565b612b1a565b50565b6000610ead611f1d565b6402540be400861015610eec576040517f7e1764b300000000000000000000000000000000000000000000000000000000815260040160405180910390fd5b610ef46128fd565b6000889050600088905060008a90506101036000610f106121f5565b73ffffffffffffffffffffffffffffffffffffffff1673ffffffffffffffffffffffffffffffffffffffff16815260200190815260200160002060008b73ffffffffffffffffffffffffffffffffffffffff1673ffffffffffffffffffffffffffffffffffffffff16815260200190815260200160002060000160009054906101000a900460ff166110cb5760fc546101036000610fac6121f5565b73ffffffffffffffffffffffffffffffffffffffff1673ffffffffffffffffffffffffffffffffffffffff16815260200190815260200160002060008c73ffffffffffffffffffffffffffffffffffffffff1673ffffffffffffffffffffffffffffffffffffffff16815260200190815260200160002060020181905550600161010360006110396121f5565b73ffffffffffffffffffffffffffffffffffffffff1673ffffffffffffffffffffffffffffffffffffffff16815260200190815260200160002060008c73ffffffffffffffffffffffffffffffffffffffff1673ffffffffffffffffffffffffffffffffffffffff16815260200190815260200160002060000160006101000a81548160ff0219169083151502179055505b60008273ffffffffffffffffffffffffffffffffffffffff166370a08231306040518263ffffffff1660e01b81526004016111069190614415565b602060405180830381865afa158015611123573d6000803e3d6000fd5b505050506040513d601f19601f82011682018060405250810190611147919061425e565b90506111856111546121f5565b308c8c8c8c8c8973ffffffffffffffffffffffffffffffffffffffff16612b7690979695949392919063ffffffff16565b6111b96111906121f5565b308c8773ffffffffffffffffffffffffffffffffffffffff16612d43909392919063ffffffff16565b6111e48b8b8673ffffffffffffffffffffffffffffffffffffffff16612dcc9092919063ffffffff16565b60008b73ffffffffffffffffffffffffffffffffffffffff1663a0712d688c6040518263ffffffff1660e01b815260040161121f919061422e565b6020604051808303816000875af115801561123e573d6000803e3d6000fd5b505050506040513d601f19601f82011682018060405250810190611262919061425e565b90506000811461129e576040517f1941b85300000000000000000000000000000000000000000000000000000000815260040160405180910390fd5b60008473ffffffffffffffffffffffffffffffffffffffff166370a08231306040518263ffffffff1660e01b81526004016112d99190614415565b602060405180830381865afa1580156112f6573d6000803e3d6000fd5b505050506040513d601f19601f8201168201806040525081019061131a919061425e565b90506113278d8285612ede565b8b8e73ffffffffffffffffffffffffffffffffffffffff166113476121f5565b73ffffffffffffffffffffffffffffffffffffffff167fa64bf1fcc4f3d7c965ef3091c978df041ad959bfaa6d5abc7d99a17830407b2960405160405180910390a46001965050505050505061139b6124d7565b979650505050505050565b6113ae611696565b6113ed576040517f08c379a00000000000000000000000000000000000000000000000000000000081526004016113e49061420e565b60405180910390fd5b600060fd54111561142a576040517f5f39ce3900000000000000000000000000000000000000000000000000000000815260040160405180910390fd5b60fd6000815461143990614049565b919050819055508361010060006101000a81548173ffffffffffffffffffffffffffffffffffffffff021916908373ffffffffffffffffffffffffffffffffffffffff16021790555060008061010060009054906101000a900473ffffffffffffffffffffffffffffffffffffffff1673ffffffffffffffffffffffffffffffffffffffff16634b40ac92846040518263ffffffff1660e01b81526004016114e1919061422e565b600060405180830381865afa1580156114fe573d6000803e3d6000fd5b505050506040513d6000823e3d601f19601f8201168201806040525081019061152791906144df565b915091508373ffffffffffffffffffffffffffffffffffffffff168173ffffffffffffffffffffffffffffffffffffffff1614611590576040517fd3d93e9600000000000000000000000000000000000000000000000000000000815260040160405180910390fd5b846040516020016115a19190614582565b60405160208183030381529060405280519060200120826040516020016115c89190614582565b6040516020818303038152906040528051906020012014611615576040517fd3d93e9600000000000000000000000000000000000000000000000000000000815260040160405180910390fd5b8260fb81905550505050505050565b60006097600084815260200190815260200160002060000160008373ffffffffffffffffffffffffffffffffffffffff1673ffffffffffffffffffffffffffffffffffffffff16815260200190815260200160002060009054906101000a900460ff16905092915050565b6000801b81565b60006116b06116a3612aca565b6116ab6121f5565b611624565b905090565b60008060019054906101000a900460ff161590508080156116e65750600160008054906101000a900460ff1660ff16105b8061171357506116f530613279565b1580156117125750600160008054906101000a900460ff1660ff16145b5b611752576040517f08c379a00000000000000000000000000000000000000000000000000000000081526004016117499061460b565b60405180910390fd5b60016000806101000a81548160ff021916908360ff160217905550801561178f576001600060016101000a81548160ff0219169083151502179055505b8160ff60006101000a81548173ffffffffffffffffffffffffffffffffffffffff021916908373ffffffffffffffffffffffffffffffffffffffff1602179055508261010160006101000a81548173ffffffffffffffffffffffffffffffffffffffff021916908373ffffffffffffffffffffffffffffffffffffffff1602179055508360fe60006101000a81548173ffffffffffffffffffffffffffffffffffffffff021916908373ffffffffffffffffffffffffffffffffffffffff16021790555061186361185e6121f5565b610d81565b80156118bc5760008060016101000a81548160ff0219169083151502179055507f7f26b83ff96e1f2b6a682f133852f6798a09c465da95921460cefb384740249860016040516118b39190614670565b60405180910390a15b50505050565b600080600080600061010360006118d76121f5565b73ffffffffffffffffffffffffffffffffffffffff1673ffffffffffffffffffffffffffffffffffffffff16815260200190815260200160002060008773ffffffffffffffffffffffffffffffffffffffff1673ffffffffffffffffffffffffffffffffffffffff168152602001908152602001600020600201549050600060fc54905060008060008490505b83811015611e55576000610104600061197b6121f5565b73ffffffffffffffffffffffffffffffffffffffff1673ffffffffffffffffffffffffffffffffffffffff16815260200190815260200160002060008c73ffffffffffffffffffffffffffffffffffffffff1673ffffffffffffffffffffffffffffffffffffffff16815260200190815260200160002060008381526020019081526020016000205411611a0f5786611aa6565b6101046000611a1c6121f5565b73ffffffffffffffffffffffffffffffffffffffff1673ffffffffffffffffffffffffffffffffffffffff16815260200190815260200160002060008b73ffffffffffffffffffffffffffffffffffffffff1673ffffffffffffffffffffffffffffffffffffffff1681526020019081526020016000206000828152602001908152602001600020545b9650600061010560008c73ffffffffffffffffffffffffffffffffffffffff1673ffffffffffffffffffffffffffffffffffffffff16815260200190815260200160002060008381526020019081526020016000206000015461010560008d73ffffffffffffffffffffffffffffffffffffffff1673ffffffffffffffffffffffffffffffffffffffff16815260200190815260200160002060008481526020019081526020016000206001015489611b5f91906142ba565b611b699190614343565b90508087611b7791906140c5565b965060006101026000848152602001908152602001600020549050808414611e425780935061010060009054906101000a900473ffffffffffffffffffffffffffffffffffffffff1673ffffffffffffffffffffffffffffffffffffffff166305044ea660fb54866040518363ffffffff1660e01b8152600401611bfc929190613ff1565b602060405180830381865afa158015611c19573d6000803e3d6000fd5b505050506040513d601f19601f82011682018060405250810190611c3d91906146b7565b15611ce65761010060009054906101000a900473ffffffffffffffffffffffffffffffffffffffff1673ffffffffffffffffffffffffffffffffffffffff16639cb0675860fb54866040518363ffffffff1660e01b8152600401611ca2929190613ff1565b602060405180830381865afa158015611cbf573d6000803e3d6000fd5b505050506040513d601f19601f82011682018060405250810190611ce3919061425e565b94505b61010060009054906101000a900473ffffffffffffffffffffffffffffffffffffffff1673ffffffffffffffffffffffffffffffffffffffff1663b557e4a685876040518363ffffffff1660e01b8152600401611d44929190613ff1565b602060405180830381865afa158015611d61573d6000803e3d6000fd5b505050506040513d601f19601f82011682018060405250810190611d8591906146b7565b15611e4157606461010060009054906101000a900473ffffffffffffffffffffffffffffffffffffffff1673ffffffffffffffffffffffffffffffffffffffff166339c4c205866040518263ffffffff1660e01b8152600401611de8919061422e565b602060405180830381865afa158015611e05573d6000803e3d6000fd5b505050506040513d601f19601f82011682018060405250810190611e29919061425e565b8a611e3491906142ba565b611e3e9190614343565b98505b5b82611e4c90614049565b92505050611964565b506101036000611e636121f5565b73ffffffffffffffffffffffffffffffffffffffff1673ffffffffffffffffffffffffffffffffffffffff16815260200190815260200160002060008a73ffffffffffffffffffffffffffffffffffffffff1673ffffffffffffffffffffffffffffffffffffffff1681526020019081526020016000206001015485611ee99190614091565b9450858597509750505050505050915091565b611f0582610920565b611f0e8161254b565b611f188383612640565b505050565b600260c95403611f62576040517f08c379a0000000000000000000000000000000000000000000000000000000008152600401611f5990614730565b60405180910390fd5b600260c981905550565b600080600167ffffffffffffffff811115611f8a57611f89613b59565b5b604051908082528060200260200182016040528015611fb85781602001602082028036833780820191505090505b5090508281600081518110611fd057611fcf61428b565b5b602002602001019073ffffffffffffffffffffffffffffffffffffffff16908173ffffffffffffffffffffffffffffffffffffffff1681525050600060fe60009054906101000a900473ffffffffffffffffffffffffffffffffffffffff1673ffffffffffffffffffffffffffffffffffffffff166370a08231306040518263ffffffff1660e01b81526004016120679190614415565b602060405180830381865afa158015612084573d6000803e3d6000fd5b505050506040513d601f19601f820116820180604052508101906120a8919061425e565b905060ff60009054906101000a900473ffffffffffffffffffffffffffffffffffffffff1673ffffffffffffffffffffffffffffffffffffffff166386df31ee30846040518363ffffffff1660e01b8152600401612107929190614854565b600060405180830381600087803b15801561212157600080fd5b505af1158015612135573d6000803e3d6000fd5b50505050600060fe60009054906101000a900473ffffffffffffffffffffffffffffffffffffffff1673ffffffffffffffffffffffffffffffffffffffff166370a08231306040518263ffffffff1660e01b81526004016121969190614415565b602060405180830381865afa1580156121b3573d6000803e3d6000fd5b505050506040513d601f19601f820116820180604052508101906121d7919061425e565b9050600082826121e79190614091565b905080945050505050919050565b600033905090565b6000839050600083905060008273ffffffffffffffffffffffffffffffffffffffff166370a08231306040518263ffffffff1660e01b81526004016122429190614415565b602060405180830381865afa15801561225f573d6000803e3d6000fd5b505050506040513d601f19601f82011682018060405250810190612283919061425e565b905060008273ffffffffffffffffffffffffffffffffffffffff1663db006a75866040518263ffffffff1660e01b81526004016122c0919061422e565b6020604051808303816000875af11580156122df573d6000803e3d6000fd5b505050506040513d601f19601f82011682018060405250810190612303919061425e565b90506000811461233f576040517f1941b85300000000000000000000000000000000000000000000000000000000815260040160405180910390fd5b60008473ffffffffffffffffffffffffffffffffffffffff166370a08231306040518263ffffffff1660e01b815260040161237a9190614415565b602060405180830381865afa158015612397573d6000803e3d6000fd5b505050506040513d601f19601f820116820180604052508101906123bb919061425e565b9050600083826123cb9190614091565b905060fc5461010660008a73ffffffffffffffffffffffffffffffffffffffff1673ffffffffffffffffffffffffffffffffffffffff1681526020019081526020016000208190555061244661241f6121f5565b828873ffffffffffffffffffffffffffffffffffffffff166124519092919063ffffffff16565b505050505050505050565b6124d28363a9059cbb60e01b8484604051602401612470929190614884565b604051602081830303815290604052907bffffffffffffffffffffffffffffffffffffffffffffffffffffffff19166020820180517bffffffffffffffffffffffffffffffffffffffffffffffffffffffff838183161783525050505061329c565b505050565b600160c981905550565b60007f01ffc9a7000000000000000000000000000000000000000000000000000000007bffffffffffffffffffffffffffffffffffffffffffffffffffffffff1916827bffffffffffffffffffffffffffffffffffffffffffffffffffffffff1916149050919050565b61255c816125576121f5565b613363565b50565b6125698282611624565b61263c5760016097600084815260200190815260200160002060000160008373ffffffffffffffffffffffffffffffffffffffff1673ffffffffffffffffffffffffffffffffffffffff16815260200190815260200160002060006101000a81548160ff0219169083151502179055506125e16121f5565b73ffffffffffffffffffffffffffffffffffffffff168173ffffffffffffffffffffffffffffffffffffffff16837f2f8788117e7eff1d82e926ec794901d17c78024a50270940304540a733656f0d60405160405180910390a45b5050565b61264a8282611624565b1561271e5760006097600084815260200190815260200160002060000160008373ffffffffffffffffffffffffffffffffffffffff1673ffffffffffffffffffffffffffffffffffffffff16815260200190815260200160002060006101000a81548160ff0219169083151502179055506126c36121f5565b73ffffffffffffffffffffffffffffffffffffffff168173ffffffffffffffffffffffffffffffffffffffff16837ff6391f5c32d9c69d2a47ea670b442974b53935d1edc7fd64eb21e047a839171b60405160405180910390a45b5050565b60008083905060008573ffffffffffffffffffffffffffffffffffffffff166370a08231306040518263ffffffff1660e01b81526004016127639190614415565b602060405180830381865afa158015612780573d6000803e3d6000fd5b505050506040513d601f19601f820116820180604052508101906127a4919061425e565b905060008273ffffffffffffffffffffffffffffffffffffffff1663db006a75866040518263ffffffff1660e01b81526004016127e1919061422e565b6020604051808303816000875af1158015612800573d6000803e3d6000fd5b505050506040513d601f19601f82011682018060405250810190612824919061425e565b905060008114612860576040517f1941b85300000000000000000000000000000000000000000000000000000000815260040160405180910390fd5b60008773ffffffffffffffffffffffffffffffffffffffff166370a08231306040518263ffffffff1660e01b815260040161289b9190614415565b602060405180830381865afa1580156128b8573d6000803e3d6000fd5b505050506040513d601f19601f820116820180604052508101906128dc919061425e565b9050600083826128ec9190614091565b905080955050505050509392505050565b60fc6000815461290c90614049565b91905081905550600061010060009054906101000a900473ffffffffffffffffffffffffffffffffffffffff1673ffffffffffffffffffffffffffffffffffffffff1663c07f47d46040518163ffffffff1660e01b8152600401602060405180830381865afa158015612983573d6000803e3d6000fd5b505050506040513d601f19601f820116820180604052508101906129a7919061425e565b905080610102600060fc5481526020019081526020016000208190555050565b600060019054906101000a900460ff16612a16576040517f08c379a0000000000000000000000000000000000000000000000000000000008152600401612a0d906143e6565b60405180910390fd5b612a1e6133e8565b565b600060019054906101000a900460ff16612a6f576040517f08c379a0000000000000000000000000000000000000000000000000000000008152600401612a66906143e6565b60405180910390fd5b565b600060019054906101000a900460ff16612ac0576040517f08c379a0000000000000000000000000000000000000000000000000000000008152600401612ab7906143e6565b60405180910390fd5b612ac8613454565b565b60007fa49807205ce4d355092ef5a8a18f56e8913cf4a201fbe287825b095693c21775905090565b60007f65d7a28e3265b37a6474929f336521b332c1681b933f6cb9f3376673440d862a905090565b6000612b2583610920565b90508160976000858152602001908152602001600020600101819055508181847fbd79b86ffe0ab8e8776151514217cd7cacd52c909f66475c3af44e129f0b00ff60405160405180910390a4505050565b60008873ffffffffffffffffffffffffffffffffffffffff16637ecebe00896040518263ffffffff1660e01b8152600401612bb19190614415565b602060405180830381865afa158015612bce573d6000803e3d6000fd5b505050506040513d601f19601f82011682018060405250810190612bf2919061425e565b90508873ffffffffffffffffffffffffffffffffffffffff1663d505accf898989898989896040518863ffffffff1660e01b8152600401612c3997969594939291906148bc565b600060405180830381600087803b158015612c5357600080fd5b505af1158015612c67573d6000803e3d6000fd5b5050505060008973ffffffffffffffffffffffffffffffffffffffff16637ecebe008a6040518263ffffffff1660e01b8152600401612ca69190614415565b602060405180830381865afa158015612cc3573d6000803e3d6000fd5b505050506040513d601f19601f82011682018060405250810190612ce7919061425e565b9050600182612cf691906140c5565b8114612d37576040517f08c379a0000000000000000000000000000000000000000000000000000000008152600401612d2e9061499d565b60405180910390fd5b50505050505050505050565b612dc6846323b872dd60e01b858585604051602401612d64939291906149bd565b604051602081830303815290604052907bffffffffffffffffffffffffffffffffffffffffffffffffffffffff19166020820180517bffffffffffffffffffffffffffffffffffffffffffffffffffffffff838183161783525050505061329c565b50505050565b6000818473ffffffffffffffffffffffffffffffffffffffff1663dd62ed3e30866040518363ffffffff1660e01b8152600401612e0a9291906149f4565b602060405180830381865afa158015612e27573d6000803e3d6000fd5b505050506040513d601f19601f82011682018060405250810190612e4b919061425e565b612e5591906140c5565b9050612ed88463095ea7b360e01b8584604051602401612e76929190614884565b604051602081830303815290604052907bffffffffffffffffffffffffffffffffffffffffffffffffffffffff19166020820180517bffffffffffffffffffffffffffffffffffffffffffffffffffffffff838183161783525050505061329c565b50505050565b60008183612eec9190614091565b9050600061010660008673ffffffffffffffffffffffffffffffffffffffff1673ffffffffffffffffffffffffffffffffffffffff16815260200190815260200160002054905060006101036000612f426121f5565b73ffffffffffffffffffffffffffffffffffffffff1673ffffffffffffffffffffffffffffffffffffffff16815260200190815260200160002060008773ffffffffffffffffffffffffffffffffffffffff1673ffffffffffffffffffffffffffffffffffffffff1681526020019081526020016000206003015490506000612fca87611f6c565b90508361010560008973ffffffffffffffffffffffffffffffffffffffff1673ffffffffffffffffffffffffffffffffffffffff16815260200190815260200160002060008581526020019081526020016000206000015461302c91906140c5565b61010560008973ffffffffffffffffffffffffffffffffffffffff1673ffffffffffffffffffffffffffffffffffffffff168152602001908152602001600020600060fc548152602001908152602001600020600001819055508061010560008973ffffffffffffffffffffffffffffffffffffffff1673ffffffffffffffffffffffffffffffffffffffff1681526020019081526020016000206000600160fc546130d89190614091565b8152602001908152602001600020600101819055508361010460006130fb6121f5565b73ffffffffffffffffffffffffffffffffffffffff1673ffffffffffffffffffffffffffffffffffffffff16815260200190815260200160002060008973ffffffffffffffffffffffffffffffffffffffff1673ffffffffffffffffffffffffffffffffffffffff16815260200190815260200160002060008481526020019081526020016000205461318e91906140c5565b610104600061319b6121f5565b73ffffffffffffffffffffffffffffffffffffffff1673ffffffffffffffffffffffffffffffffffffffff16815260200190815260200160002060008973ffffffffffffffffffffffffffffffffffffffff1673ffffffffffffffffffffffffffffffffffffffff168152602001908152602001600020600060fc5481526020019081526020016000208190555060fc5461010660008973ffffffffffffffffffffffffffffffffffffffff1673ffffffffffffffffffffffffffffffffffffffff1681526020019081526020016000208190555050505050505050565b6000808273ffffffffffffffffffffffffffffffffffffffff163b119050919050565b60006132fe826040518060400160405280602081526020017f5361666545524332303a206c6f772d6c6576656c2063616c6c206661696c65648152508573ffffffffffffffffffffffffffffffffffffffff166134ad9092919063ffffffff16565b905060008151111561335e578080602001905181019061331e91906146b7565b61335d576040517f08c379a000000000000000000000000000000000000000000000000000000000815260040161335490614a8f565b60405180910390fd5b5b505050565b61336d8282611624565b6133e45761337a816134c5565b6133888360001c60206134f2565b604051602001613399929190614b47565b6040516020818303038152906040526040517f08c379a00000000000000000000000000000000000000000000000000000000081526004016133db9190614bba565b60405180910390fd5b5050565b600060019054906101000a900460ff16613437576040517f08c379a000000000000000000000000000000000000000000000000000000000815260040161342e906143e6565b60405180910390fd5b6000603360006101000a81548160ff021916908315150217905550565b600060019054906101000a900460ff166134a3576040517f08c379a000000000000000000000000000000000000000000000000000000000815260040161349a906143e6565b60405180910390fd5b600160c981905550565b60606134bc848460008561372e565b90509392505050565b60606134eb8273ffffffffffffffffffffffffffffffffffffffff16601460ff166134f2565b9050919050565b60606000600283600261350591906142ba565b61350f91906140c5565b67ffffffffffffffff81111561352857613527613b59565b5b6040519080825280601f01601f19166020018201604052801561355a5781602001600182028036833780820191505090505b5090507f3000000000000000000000000000000000000000000000000000000000000000816000815181106135925761359161428b565b5b60200101907effffffffffffffffffffffffffffffffffffffffffffffffffffffffffffff1916908160001a9053507f7800000000000000000000000000000000000000000000000000000000000000816001815181106135f6576135f561428b565b5b60200101907effffffffffffffffffffffffffffffffffffffffffffffffffffffffffffff1916908160001a9053506000600184600261363691906142ba565b61364091906140c5565b90505b60018111156136e0577f3031323334353637383961626364656600000000000000000000000000000000600f8616601081106136825761368161428b565b5b1a60f81b8282815181106136995761369861428b565b5b60200101907effffffffffffffffffffffffffffffffffffffffffffffffffffffffffffff1916908160001a905350600485901c9450806136d990614bdc565b9050613643565b5060008414613724576040517f08c379a000000000000000000000000000000000000000000000000000000000815260040161371b90614c51565b60405180910390fd5b8091505092915050565b606082471015613773576040517f08c379a000000000000000000000000000000000000000000000000000000000815260040161376a90614ce3565b60405180910390fd5b6000808673ffffffffffffffffffffffffffffffffffffffff16858760405161379c9190614d4a565b60006040518083038185875af1925050503d80600081146137d9576040519150601f19603f3d011682016040523d82523d6000602084013e6137de565b606091505b50915091506137ef878383876137fb565b92505050949350505050565b6060831561385d5760008351036138555761381585613279565b613854576040517f08c379a000000000000000000000000000000000000000000000000000000000815260040161384b90614dad565b60405180910390fd5b5b829050613868565b6138678383613870565b5b949350505050565b6000825111156138835781518083602001fd5b806040517f08c379a00000000000000000000000000000000000000000000000000000000081526004016138b79190614bba565b60405180910390fd5b6000604051905090565b600080fd5b600080fd5b600073ffffffffffffffffffffffffffffffffffffffff82169050919050565b60006138ff826138d4565b9050919050565b61390f816138f4565b811461391a57600080fd5b50565b60008135905061392c81613906565b92915050565b6000819050919050565b61394581613932565b811461395057600080fd5b50565b6000813590506139628161393c565b92915050565b600080600060608486031215613981576139806138ca565b5b600061398f8682870161391d565b93505060206139a08682870161391d565b92505060406139b186828701613953565b9150509250925092565b60008115159050919050565b6139d0816139bb565b82525050565b60006020820190506139eb60008301846139c7565b92915050565b60007fffffffff0000000000000000000000000000000000000000000000000000000082169050919050565b613a26816139f1565b8114613a3157600080fd5b50565b600081359050613a4381613a1d565b92915050565b600060208284031215613a5f57613a5e6138ca565b5b6000613a6d84828501613a34565b91505092915050565b6000819050919050565b613a8981613a76565b8114613a9457600080fd5b50565b600081359050613aa681613a80565b92915050565b600060208284031215613ac257613ac16138ca565b5b6000613ad084828501613a97565b91505092915050565b613ae281613a76565b82525050565b6000602082019050613afd6000830184613ad9565b92915050565b60008060408385031215613b1a57613b196138ca565b5b6000613b2885828601613a97565b9250506020613b398582860161391d565b9150509250929050565b600080fd5b6000601f19601f8301169050919050565b7f4e487b7100000000000000000000000000000000000000000000000000000000600052604160045260246000fd5b613b9182613b48565b810181811067ffffffffffffffff82111715613bb057613baf613b59565b5b80604052505050565b6000613bc36138c0565b9050613bcf8282613b88565b919050565b600067ffffffffffffffff821115613bef57613bee613b59565b5b602082029050602081019050919050565b600080fd5b6000613c18613c1384613bd4565b613bb9565b90508083825260208201905060208402830185811115613c3b57613c3a613c00565b5b835b81811015613c645780613c50888261391d565b845260208401935050602081019050613c3d565b5050509392505050565b600082601f830112613c8357613c82613b43565b5b8135613c93848260208601613c05565b91505092915050565b600080600080600060a08688031215613cb857613cb76138ca565b5b600086013567ffffffffffffffff811115613cd657613cd56138cf565b5b613ce288828901613c6e565b955050602086013567ffffffffffffffff811115613d0357613d026138cf565b5b613d0f88828901613c6e565b9450506040613d208882890161391d565b9350506060613d3188828901613953565b9250506080613d4288828901613953565b9150509295509295909350565b600060208284031215613d6557613d646138ca565b5b6000613d738482850161391d565b91505092915050565b600060ff82169050919050565b613d9281613d7c565b8114613d9d57600080fd5b50565b600081359050613daf81613d89565b92915050565b600080600080600080600060e0888a031215613dd457613dd36138ca565b5b6000613de28a828b0161391d565b9750506020613df38a828b0161391d565b9650506040613e048a828b01613953565b9550506060613e158a828b01613953565b9450506080613e268a828b01613da0565b93505060a0613e378a828b01613a97565b92505060c0613e488a828b01613a97565b91505092959891949750929550565b600080fd5b600067ffffffffffffffff821115613e7757613e76613b59565b5b613e8082613b48565b9050602081019050919050565b82818337600083830152505050565b6000613eaf613eaa84613e5c565b613bb9565b905082815260208101848484011115613ecb57613eca613e57565b5b613ed6848285613e8d565b509392505050565b600082601f830112613ef357613ef2613b43565b5b8135613f03848260208601613e9c565b91505092915050565b60008060008060808587031215613f2657613f256138ca565b5b6000613f348782880161391d565b945050602085013567ffffffffffffffff811115613f5557613f546138cf565b5b613f6187828801613ede565b9350506040613f728782880161391d565b9250506060613f8387828801613953565b91505092959194509250565b600080600060608486031215613fa857613fa76138ca565b5b6000613fb68682870161391d565b9350506020613fc78682870161391d565b9250506040613fd88682870161391d565b9150509250925092565b613feb81613932565b82525050565b60006040820190506140066000830185613fe2565b6140136020830184613fe2565b9392505050565b7f4e487b7100000000000000000000000000000000000000000000000000000000600052601160045260246000fd5b600061405482613932565b91507fffffffffffffffffffffffffffffffffffffffffffffffffffffffffffffffff82036140865761408561401a565b5b600182019050919050565b600061409c82613932565b91506140a783613932565b92508282039050818111156140bf576140be61401a565b5b92915050565b60006140d082613932565b91506140db83613932565b92508282019050808211156140f3576140f261401a565b5b92915050565b600082825260208201905092915050565b7f416363657373436f6e74726f6c3a2063616e206f6e6c792072656e6f756e636560008201527f20726f6c657320666f722073656c660000000000000000000000000000000000602082015250565b6000614166602f836140f9565b91506141718261410a565b604082019050919050565b6000602082019050818103600083015261419581614159565b9050919050565b7f4d75737420686176652061646d696e20726f6c6520746f20706572666f726d2060008201527f7468697320616374696f6e2e0000000000000000000000000000000000000000602082015250565b60006141f8602c836140f9565b91506142038261419c565b604082019050919050565b60006020820190508181036000830152614227816141eb565b9050919050565b60006020820190506142436000830184613fe2565b92915050565b6000815190506142588161393c565b92915050565b600060208284031215614274576142736138ca565b5b600061428284828501614249565b91505092915050565b7f4e487b7100000000000000000000000000000000000000000000000000000000600052603260045260246000fd5b60006142c582613932565b91506142d083613932565b9250817fffffffffffffffffffffffffffffffffffffffffffffffffffffffffffffffff04831182151516156143095761430861401a565b5b828202905092915050565b7f4e487b7100000000000000000000000000000000000000000000000000000000600052601260045260246000fd5b600061434e82613932565b915061435983613932565b92508261436957614368614314565b5b828204905092915050565b7f496e697469616c697a61626c653a20636f6e7472616374206973206e6f74206960008201527f6e697469616c697a696e67000000000000000000000000000000000000000000602082015250565b60006143d0602b836140f9565b91506143db82614374565b604082019050919050565b600060208201905081810360008301526143ff816143c3565b9050919050565b61440f816138f4565b82525050565b600060208201905061442a6000830184614406565b92915050565b60005b8381101561444e578082015181840152602081019050614433565b60008484015250505050565b600061446d61446884613e5c565b613bb9565b90508281526020810184848401111561448957614488613e57565b5b614494848285614430565b509392505050565b600082601f8301126144b1576144b0613b43565b5b81516144c184826020860161445a565b91505092915050565b6000815190506144d981613906565b92915050565b600080604083850312156144f6576144f56138ca565b5b600083015167ffffffffffffffff811115614514576145136138cf565b5b6145208582860161449c565b9250506020614531858286016144ca565b9150509250929050565b600081519050919050565b600081905092915050565b600061455c8261453b565b6145668185614546565b9350614576818560208601614430565b80840191505092915050565b600061458e8284614551565b915081905092915050565b7f496e697469616c697a61626c653a20636f6e747261637420697320616c72656160008201527f647920696e697469616c697a6564000000000000000000000000000000000000602082015250565b60006145f5602e836140f9565b915061460082614599565b604082019050919050565b60006020820190508181036000830152614624816145e8565b9050919050565b6000819050919050565b6000819050919050565b600061465a6146556146508461462b565b614635565b613d7c565b9050919050565b61466a8161463f565b82525050565b60006020820190506146856000830184614661565b92915050565b614694816139bb565b811461469f57600080fd5b50565b6000815190506146b18161468b565b92915050565b6000602082840312156146cd576146cc6138ca565b5b60006146db848285016146a2565b91505092915050565b7f5265656e7472616e637947756172643a207265656e7472616e742063616c6c00600082015250565b600061471a601f836140f9565b9150614725826146e4565b602082019050919050565b600060208201905081810360008301526147498161470d565b9050919050565b600081519050919050565b600082825260208201905092915050565b6000819050602082019050919050565b600061479761479261478d846138d4565b614635565b6138d4565b9050919050565b60006147a98261477c565b9050919050565b60006147bb8261479e565b9050919050565b6147cb816147b0565b82525050565b60006147dd83836147c2565b60208301905092915050565b6000602082019050919050565b600061480182614750565b61480b818561475b565b93506148168361476c565b8060005b8381101561484757815161482e88826147d1565b9750614839836147e9565b92505060018101905061481a565b5085935050505092915050565b60006040820190506148696000830185614406565b818103602083015261487b81846147f6565b90509392505050565b60006040820190506148996000830185614406565b6148a66020830184613fe2565b9392505050565b6148b681613d7c565b82525050565b600060e0820190506148d1600083018a614406565b6148de6020830189614406565b6148eb6040830188613fe2565b6148f86060830187613fe2565b61490560808301866148ad565b61491260a0830185613ad9565b61491f60c0830184613ad9565b98975050505050505050565b7f5361666545524332303a207065726d697420646964206e6f742073756363656560008201527f6400000000000000000000000000000000000000000000000000000000000000602082015250565b60006149876021836140f9565b91506149928261492b565b604082019050919050565b600060208201905081810360008301526149b68161497a565b9050919050565b60006060820190506149d26000830186614406565b6149df6020830185614406565b6149ec6040830184613fe2565b949350505050565b6000604082019050614a096000830185614406565b614a166020830184614406565b9392505050565b7f5361666545524332303a204552433230206f7065726174696f6e20646964206e60008201527f6f74207375636365656400000000000000000000000000000000000000000000602082015250565b6000614a79602a836140f9565b9150614a8482614a1d565b604082019050919050565b60006020820190508181036000830152614aa881614a6c565b9050919050565b7f416363657373436f6e74726f6c3a206163636f756e7420000000000000000000600082015250565b6000614ae5601783614546565b9150614af082614aaf565b601782019050919050565b7f206973206d697373696e6720726f6c6520000000000000000000000000000000600082015250565b6000614b31601183614546565b9150614b3c82614afb565b601182019050919050565b6000614b5282614ad8565b9150614b5e8285614551565b9150614b6982614b24565b9150614b758284614551565b91508190509392505050565b6000614b8c8261453b565b614b9681856140f9565b9350614ba6818560208601614430565b614baf81613b48565b840191505092915050565b60006020820190508181036000830152614bd48184614b81565b905092915050565b6000614be782613932565b915060008203614bfa57614bf961401a565b5b600182039050919050565b7f537472696e67733a20686578206c656e67746820696e73756666696369656e74600082015250565b6000614c3b6020836140f9565b9150614c4682614c05565b602082019050919050565b60006020820190508181036000830152614c6a81614c2e565b9050919050565b7f416464726573733a20696e73756666696369656e742062616c616e636520666f60008201527f722063616c6c0000000000000000000000000000000000000000000000000000602082015250565b6000614ccd6026836140f9565b9150614cd882614c71565b604082019050919050565b60006020820190508181036000830152614cfc81614cc0565b9050919050565b600081519050919050565b600081905092915050565b6000614d2482614d03565b614d2e8185614d0e565b9350614d3e818560208601614430565b80840191505092915050565b6000614d568284614d19565b915081905092915050565b7f416464726573733a2063616c6c20746f206e6f6e2d636f6e7472616374000000600082015250565b6000614d97601d836140f9565b9150614da282614d61565b602082019050919050565b60006020820190508181036000830152614dc681614d8a565b905091905056fea26469706673582212207b3bcb864e414043cc9e84f222bc9f2e3cfdd789485172c1131e011d9084de5464736f6c63430008100033",
  "linkReferences": {},
  "deployedLinkReferences": {}
}