{
  "_format": "hh-sol-artifact-1",
  "contractName": "CompoundV2Insurance",
  "sourceName": "contracts/core/zeroPremium/SmartContractInsurance/Compound/CompoundV2Insurance.sol",
  "abi": [
    {
      "inputs": [],
      "name": "BaseUpgradeablePausable__ZeroAddressError",
      "type": "error"
    },
    {
      "inputs": [],
      "name": "Compound_ZP__ImmutableChangesError",
      "type": "error"
    },
    {
      "inputs": [],
      "name": "Compound_ZP__LowAmountError",
      "type": "error"
    },
    {
      "inputs": [],
      "name": "Compound_ZP__LowSupplyAmountError",
      "type": "error"
    },
    {
      "inputs": [],
      "name": "Compound_ZP__TransactionFailedError",
      "type": "error"
    },
    {
      "inputs": [],
      "name": "Compound_ZP__WrongInfoEnteredError",
      "type": "error"
    },
    {
      "anonymous": false,
      "inputs": [
        {
          "indexed": false,
          "internalType": "uint8",
          "name": "version",
          "type": "uint8"
        }
      ],
      "name": "Initialized",
      "type": "event"
    },
    {
      "anonymous": false,
      "inputs": [
        {
          "indexed": false,
          "internalType": "address",
          "name": "account",
          "type": "address"
        }
      ],
      "name": "Paused",
      "type": "event"
    },
    {
      "anonymous": false,
      "inputs": [
        {
          "indexed": true,
          "internalType": "bytes32",
          "name": "role",
          "type": "bytes32"
        },
        {
          "indexed": true,
          "internalType": "bytes32",
          "name": "previousAdminRole",
          "type": "bytes32"
        },
        {
          "indexed": true,
          "internalType": "bytes32",
          "name": "newAdminRole",
          "type": "bytes32"
        }
      ],
      "name": "RoleAdminChanged",
      "type": "event"
    },
    {
      "anonymous": false,
      "inputs": [
        {
          "indexed": true,
          "internalType": "bytes32",
          "name": "role",
          "type": "bytes32"
        },
        {
          "indexed": true,
          "internalType": "address",
          "name": "account",
          "type": "address"
        },
        {
          "indexed": true,
          "internalType": "address",
          "name": "sender",
          "type": "address"
        }
      ],
      "name": "RoleGranted",
      "type": "event"
    },
    {
      "anonymous": false,
      "inputs": [
        {
          "indexed": true,
          "internalType": "bytes32",
          "name": "role",
          "type": "bytes32"
        },
        {
          "indexed": true,
          "internalType": "address",
          "name": "account",
          "type": "address"
        },
        {
          "indexed": true,
          "internalType": "address",
          "name": "sender",
          "type": "address"
        }
      ],
      "name": "RoleRevoked",
      "type": "event"
    },
    {
      "anonymous": false,
      "inputs": [
        {
          "indexed": true,
          "internalType": "address",
          "name": "userAddress",
          "type": "address"
        },
        {
          "indexed": true,
          "internalType": "address",
          "name": "tokenAddress",
          "type": "address"
        },
        {
          "indexed": true,
          "internalType": "uint256",
          "name": "amount",
          "type": "uint256"
        }
      ],
      "name": "SuppliedToken",
      "type": "event"
    },
    {
      "anonymous": false,
      "inputs": [
        {
          "indexed": false,
          "internalType": "address",
          "name": "account",
          "type": "address"
        }
      ],
      "name": "Unpaused",
      "type": "event"
    },
    {
      "anonymous": false,
      "inputs": [
        {
          "indexed": true,
          "internalType": "address",
          "name": "userAddress",
          "type": "address"
        },
        {
          "indexed": true,
          "internalType": "address",
          "name": "tokenAddress",
          "type": "address"
        },
        {
          "indexed": true,
          "internalType": "uint256",
          "name": "amount",
          "type": "uint256"
        }
      ],
      "name": "WithdrawnToken",
      "type": "event"
    },
    {
      "inputs": [],
      "name": "DEFAULT_ADMIN_ROLE",
      "outputs": [
        {
          "internalType": "bytes32",
          "name": "",
          "type": "bytes32"
        }
      ],
      "stateMutability": "view",
      "type": "function"
    },
    {
      "inputs": [
        {
          "internalType": "address",
          "name": "owner",
          "type": "address"
        }
      ],
      "name": "__BaseUpgradeablePausable_init",
      "outputs": [],
      "stateMutability": "nonpayable",
      "type": "function"
    },
    {
      "inputs": [
        {
          "internalType": "address",
          "name": "rewardTokenAddress",
          "type": "address"
        }
      ],
      "name": "calculateUserBalance",
      "outputs": [
        {
          "internalType": "uint256",
          "name": "",
          "type": "uint256"
        }
      ],
      "stateMutability": "view",
      "type": "function"
    },
    {
      "inputs": [
        {
          "internalType": "bytes32",
          "name": "role",
          "type": "bytes32"
        }
      ],
      "name": "getRoleAdmin",
      "outputs": [
        {
          "internalType": "bytes32",
          "name": "",
          "type": "bytes32"
        }
      ],
      "stateMutability": "view",
      "type": "function"
    },
    {
      "inputs": [
        {
          "internalType": "bytes32",
          "name": "role",
          "type": "bytes32"
        },
        {
          "internalType": "address",
          "name": "account",
          "type": "address"
        }
      ],
      "name": "grantRole",
      "outputs": [],
      "stateMutability": "nonpayable",
      "type": "function"
    },
    {
      "inputs": [
        {
          "internalType": "bytes32",
          "name": "role",
          "type": "bytes32"
        },
        {
          "internalType": "address",
          "name": "account",
          "type": "address"
        }
      ],
      "name": "hasRole",
      "outputs": [
        {
          "internalType": "bool",
          "name": "",
          "type": "bool"
        }
      ],
      "stateMutability": "view",
      "type": "function"
    },
    {
      "inputs": [
        {
          "internalType": "address",
          "name": "_controllerAddress",
          "type": "address"
        },
        {
          "internalType": "string",
          "name": "protocolName",
          "type": "string"
        },
        {
          "internalType": "address",
          "name": "deployedAddress",
          "type": "address"
        },
        {
          "internalType": "uint256",
          "name": "protocolID",
          "type": "uint256"
        }
      ],
      "name": "init",
      "outputs": [],
      "stateMutability": "nonpayable",
      "type": "function"
    },
    {
      "inputs": [
        {
          "internalType": "address",
          "name": "pauseOperationAddress",
          "type": "address"
        }
      ],
      "name": "initialize",
      "outputs": [],
      "stateMutability": "nonpayable",
      "type": "function"
    },
    {
      "inputs": [],
      "name": "isAdmin",
      "outputs": [
        {
          "internalType": "bool",
          "name": "",
          "type": "bool"
        }
      ],
      "stateMutability": "view",
      "type": "function"
    },
    {
      "inputs": [
        {
          "internalType": "address[]",
          "name": "tokenAddresses",
          "type": "address[]"
        },
        {
          "internalType": "address[]",
          "name": "rewardTokenAddresses",
          "type": "address[]"
        },
        {
          "internalType": "address",
          "name": "claimSettlementAddress",
          "type": "address"
        },
        {
          "internalType": "uint256",
          "name": "protocolRiskCategory",
          "type": "uint256"
        },
        {
          "internalType": "uint256",
          "name": "liquidationPercent",
          "type": "uint256"
        }
      ],
      "name": "liquidateTokens",
      "outputs": [],
      "stateMutability": "nonpayable",
      "type": "function"
    },
    {
      "inputs": [],
      "name": "paused",
      "outputs": [
        {
          "internalType": "bool",
          "name": "",
          "type": "bool"
        }
      ],
      "stateMutability": "view",
      "type": "function"
    },
    {
      "inputs": [
        {
          "internalType": "bytes32",
          "name": "role",
          "type": "bytes32"
        },
        {
          "internalType": "address",
          "name": "account",
          "type": "address"
        }
      ],
      "name": "renounceRole",
      "outputs": [],
      "stateMutability": "nonpayable",
      "type": "function"
    },
    {
      "inputs": [
        {
          "internalType": "bytes32",
          "name": "role",
          "type": "bytes32"
        },
        {
          "internalType": "address",
          "name": "account",
          "type": "address"
        }
      ],
      "name": "revokeRole",
      "outputs": [],
      "stateMutability": "nonpayable",
      "type": "function"
    },
    {
      "inputs": [
        {
          "internalType": "address",
          "name": "tokenAddress",
          "type": "address"
        },
        {
          "internalType": "address",
          "name": "rewardTokenAddress",
          "type": "address"
        },
        {
          "internalType": "uint256",
          "name": "amount",
          "type": "uint256"
        },
        {
          "internalType": "uint256",
          "name": "deadline",
          "type": "uint256"
        },
        {
          "internalType": "uint8",
          "name": "v",
          "type": "uint8"
        },
        {
          "internalType": "bytes32",
          "name": "r",
          "type": "bytes32"
        },
        {
          "internalType": "bytes32",
          "name": "s",
          "type": "bytes32"
        }
      ],
      "name": "supplyToken",
      "outputs": [
        {
          "internalType": "bool",
          "name": "",
          "type": "bool"
        }
      ],
      "stateMutability": "nonpayable",
      "type": "function"
    },
    {
      "inputs": [
        {
          "internalType": "bytes4",
          "name": "interfaceId",
          "type": "bytes4"
        }
      ],
      "name": "supportsInterface",
      "outputs": [
        {
          "internalType": "bool",
          "name": "",
          "type": "bool"
        }
      ],
      "stateMutability": "view",
      "type": "function"
    },
    {
      "inputs": [
        {
          "internalType": "address",
          "name": "tokenAddress",
          "type": "address"
        },
        {
          "internalType": "address",
          "name": "rewardTokenAddress",
          "type": "address"
        },
        {
          "internalType": "uint256",
          "name": "amount",
          "type": "uint256"
        }
      ],
      "name": "withdrawToken",
      "outputs": [
        {
          "internalType": "bool",
          "name": "",
          "type": "bool"
        }
      ],
      "stateMutability": "nonpayable",
      "type": "function"
    }
  ],
  "bytecode": "0x608060405234801561001057600080fd5b506144df806100206000396000f3fe608060405234801561001057600080fd5b50600436106101005760003560e01c80636f63211411610097578063b6db75a011610066578063b6db75a0146102bd578063c4d66de8146102db578063c72fea59146102f7578063d547741f1461032757610100565b80636f63211414610223578063732debfb1461025357806391d148541461026f578063a217fddf1461029f57610100565b806336568abe116100d357806336568abe146101b15780635c975abb146101cd578063699bf6fc146101eb5780636e810b1a1461020757610100565b806301e336671461010557806301ffc9a714610135578063248a9ca3146101655780632f2ff15d14610195575b600080fd5b61011f600480360381019061011a91906131cb565b610343565b60405161012c9190613239565b60405180910390f35b61014f600480360381019061014a91906132ac565b610936565b60405161015c9190613239565b60405180910390f35b61017f600480360381019061017a919061330f565b6109b0565b60405161018c919061334b565b60405180910390f35b6101af60048036038101906101aa9190613366565b6109d0565b005b6101cb60048036038101906101c69190613366565b6109f1565b005b6101d5610a74565b6040516101e29190613239565b60405180910390f35b610205600480360381019061020091906134ff565b610a8b565b005b610221600480360381019061021c91906135b2565b610eb9565b005b61023d60048036038101906102389190613618565b610fdb565b60405161024a9190613239565b60405180910390f35b61026d6004803603810190610268919061376f565b61159d565b005b61028960048036038101906102849190613366565b611819565b6040516102969190613239565b60405180910390f35b6102a7611884565b6040516102b4919061334b565b60405180910390f35b6102c561188b565b6040516102d29190613239565b60405180910390f35b6102f560048036038101906102f091906135b2565b6118aa565b005b610311600480360381019061030c91906135b2565b611a32565b60405161031e9190613801565b60405180910390f35b610341600480360381019061033c9190613366565b61201d565b005b600061034d61203e565b60fd6000815461035c9061384b565b91905081905550600061036e84611a32565b9050828110156103aa576040517fe7231dcd00000000000000000000000000000000000000000000000000000000815260040160405180910390fd5b6000859050600085905060008173ffffffffffffffffffffffffffffffffffffffff166370a08231306040518263ffffffff1660e01b81526004016103ef91906138a2565b602060405180830381865afa15801561040c573d6000803e3d6000fd5b505050506040513d601f19601f8201168201806040525081019061043091906138d2565b90508561010360008973ffffffffffffffffffffffffffffffffffffffff1673ffffffffffffffffffffffffffffffffffffffff168152602001908152602001600020600060fd548152602001908152602001600020600001600082825461049891906138ff565b9250508190555061010360008873ffffffffffffffffffffffffffffffffffffffff1673ffffffffffffffffffffffffffffffffffffffff1681526020019081526020016000206000600160fd546104f091906138ff565b8152602001908152602001600020600001548161050d91906138ff565b61010360008973ffffffffffffffffffffffffffffffffffffffff1673ffffffffffffffffffffffffffffffffffffffff1681526020019081526020016000206000600160fd5461055e91906138ff565b81526020019081526020016000206001018190555085610102600061058161208d565b73ffffffffffffffffffffffffffffffffffffffff1673ffffffffffffffffffffffffffffffffffffffff16815260200190815260200160002060008973ffffffffffffffffffffffffffffffffffffffff1673ffffffffffffffffffffffffffffffffffffffff168152602001908152602001600020600060fd548152602001908152602001600020600101600082825461061d9190613933565b925050819055508386036106cc576000610101600061063a61208d565b73ffffffffffffffffffffffffffffffffffffffff1673ffffffffffffffffffffffffffffffffffffffff16815260200190815260200160002060008973ffffffffffffffffffffffffffffffffffffffff1673ffffffffffffffffffffffffffffffffffffffff16815260200190815260200160002060000160006101000a81548160ff0219169083151502179055505b60008373ffffffffffffffffffffffffffffffffffffffff166370a08231306040518263ffffffff1660e01b815260040161070791906138a2565b602060405180830381865afa158015610724573d6000803e3d6000fd5b505050506040513d601f19601f8201168201806040525081019061074891906138d2565b905060008873ffffffffffffffffffffffffffffffffffffffff1663852a12e3896040518263ffffffff1660e01b81526004016107859190613801565b6020604051808303816000875af11580156107a4573d6000803e3d6000fd5b505050506040513d601f19601f820116820180604052508101906107c891906138d2565b905060008114610804576040517f1941b85300000000000000000000000000000000000000000000000000000000815260040160405180910390fd5b60008573ffffffffffffffffffffffffffffffffffffffff166370a08231306040518263ffffffff1660e01b815260040161083f91906138a2565b602060405180830381865afa15801561085c573d6000803e3d6000fd5b505050506040513d601f19601f8201168201806040525081019061088091906138d2565b90506000838261089091906138ff565b90508961010460008d73ffffffffffffffffffffffffffffffffffffffff1673ffffffffffffffffffffffffffffffffffffffff16815260200190815260200160002060008282546108e291906138ff565b9250508190555061091b6108f461208d565b828973ffffffffffffffffffffffffffffffffffffffff166120959092919063ffffffff16565b60019850505050505050505061092f61211b565b9392505050565b60007f7965db0b000000000000000000000000000000000000000000000000000000007bffffffffffffffffffffffffffffffffffffffffffffffffffffffff1916827bffffffffffffffffffffffffffffffffffffffffffffffffffffffff191614806109a957506109a882612125565b5b9050919050565b600060976000838152602001908152602001600020600101549050919050565b6109d9826109b0565b6109e28161218f565b6109ec83836121a3565b505050565b6109f961208d565b73ffffffffffffffffffffffffffffffffffffffff168173ffffffffffffffffffffffffffffffffffffffff1614610a66576040517f08c379a0000000000000000000000000000000000000000000000000000000008152600401610a5d906139ea565b60405180910390fd5b610a708282612284565b5050565b6000603360009054906101000a900460ff16905090565b610a9361188b565b610ad2576040517f08c379a0000000000000000000000000000000000000000000000000000000008152600401610ac990613a7c565b60405180910390fd5b60008451905060005b81811015610eb0578360fe60009054906101000a900473ffffffffffffffffffffffffffffffffffffffff1673ffffffffffffffffffffffffffffffffffffffff16634dbc7b2860fb546040518263ffffffff1660e01b8152600401610b419190613801565b602060405180830381865afa158015610b5e573d6000803e3d6000fd5b505050506040513d601f19601f82011682018060405250810190610b8291906138d2565b03610e9f57600060646101046000898581518110610ba357610ba2613a9c565b5b602002602001015173ffffffffffffffffffffffffffffffffffffffff1673ffffffffffffffffffffffffffffffffffffffff1681526020019081526020016000205485610bf19190613acb565b610bfb9190613b54565b9050806101046000898581518110610c1657610c15613a9c565b5b602002602001015173ffffffffffffffffffffffffffffffffffffffff1673ffffffffffffffffffffffffffffffffffffffff1681526020019081526020016000206000828254610c6791906138ff565b925050819055506000888381518110610c8357610c82613a9c565b5b6020026020010151905060008173ffffffffffffffffffffffffffffffffffffffff166370a08231306040518263ffffffff1660e01b8152600401610cc891906138a2565b602060405180830381865afa158015610ce5573d6000803e3d6000fd5b505050506040513d601f19601f82011682018060405250810190610d0991906138d2565b90506000898581518110610d2057610d1f613a9c565b5b602002602001015173ffffffffffffffffffffffffffffffffffffffff1663852a12e3856040518263ffffffff1660e01b8152600401610d609190613801565b6020604051808303816000875af1158015610d7f573d6000803e3d6000fd5b505050506040513d601f19601f82011682018060405250810190610da391906138d2565b905060008114610ddf576040517f1941b85300000000000000000000000000000000000000000000000000000000815260040160405180910390fd5b60008373ffffffffffffffffffffffffffffffffffffffff166370a08231306040518263ffffffff1660e01b8152600401610e1a91906138a2565b602060405180830381865afa158015610e37573d6000803e3d6000fd5b505050506040513d601f19601f82011682018060405250810190610e5b91906138d2565b905060008382610e6b91906138ff565b9050610e988b828773ffffffffffffffffffffffffffffffffffffffff166120959092919063ffffffff16565b5050505050505b80610ea99061384b565b9050610adb565b50505050505050565b600060019054906101000a900460ff16610f08576040517f08c379a0000000000000000000000000000000000000000000000000000000008152600401610eff90613bf7565b60405180910390fd5b600073ffffffffffffffffffffffffffffffffffffffff168173ffffffffffffffffffffffffffffffffffffffff1603610f6e576040517f5415139400000000000000000000000000000000000000000000000000000000815260040160405180910390fd5b610f76612366565b610f7e6123bf565b610f86612410565b610f97610f91612469565b826121a3565b610fa8610fa2612491565b826121a3565b610fc0610fb3612491565b610fbb612469565b6124b9565b610fd8610fcb612469565b610fd3612469565b6124b9565b50565b6000610fe561203e565b6402540be400861015611024576040517f7e1764b300000000000000000000000000000000000000000000000000000000815260040160405180910390fd5b60fd600081546110339061384b565b91905081905550600060fe60009054906101000a900473ffffffffffffffffffffffffffffffffffffffff1673ffffffffffffffffffffffffffffffffffffffff1663c07f47d46040518163ffffffff1660e01b8152600401602060405180830381865afa1580156110a9573d6000803e3d6000fd5b505050506040513d601f19601f820116820180604052508101906110cd91906138d2565b905080610100600060fd548152602001908152602001600020819055506000899050600089905060008b9050610101600061110661208d565b73ffffffffffffffffffffffffffffffffffffffff1673ffffffffffffffffffffffffffffffffffffffff16815260200190815260200160002060008c73ffffffffffffffffffffffffffffffffffffffff1673ffffffffffffffffffffffffffffffffffffffff16815260200190815260200160002060000160009054906101000a900460ff166112c15760fd5461010160006111a261208d565b73ffffffffffffffffffffffffffffffffffffffff1673ffffffffffffffffffffffffffffffffffffffff16815260200190815260200160002060008d73ffffffffffffffffffffffffffffffffffffffff1673ffffffffffffffffffffffffffffffffffffffff168152602001908152602001600020600101819055506001610101600061122f61208d565b73ffffffffffffffffffffffffffffffffffffffff1673ffffffffffffffffffffffffffffffffffffffff16815260200190815260200160002060008d73ffffffffffffffffffffffffffffffffffffffff1673ffffffffffffffffffffffffffffffffffffffff16815260200190815260200160002060000160006101000a81548160ff0219169083151502179055505b60008273ffffffffffffffffffffffffffffffffffffffff166370a08231306040518263ffffffff1660e01b81526004016112fc91906138a2565b602060405180830381865afa158015611319573d6000803e3d6000fd5b505050506040513d601f19601f8201168201806040525081019061133d91906138d2565b905061137b61134a61208d565b308d8d8d8d8d8973ffffffffffffffffffffffffffffffffffffffff1661251590979695949392919063ffffffff16565b6113af61138661208d565b308d8773ffffffffffffffffffffffffffffffffffffffff166126e2909392919063ffffffff16565b6113da8c8c8673ffffffffffffffffffffffffffffffffffffffff1661276b9092919063ffffffff16565b60008c73ffffffffffffffffffffffffffffffffffffffff1663a0712d688d6040518263ffffffff1660e01b81526004016114159190613801565b6020604051808303816000875af1158015611434573d6000803e3d6000fd5b505050506040513d601f19601f8201168201806040525081019061145891906138d2565b905060008114611494576040517f1941b85300000000000000000000000000000000000000000000000000000000815260040160405180910390fd5b60008473ffffffffffffffffffffffffffffffffffffffff166370a08231306040518263ffffffff1660e01b81526004016114cf91906138a2565b602060405180830381865afa1580156114ec573d6000803e3d6000fd5b505050506040513d601f19601f8201168201806040525081019061151091906138d2565b905061151d8e828561287d565b8c8f73ffffffffffffffffffffffffffffffffffffffff1661153d61208d565b73ffffffffffffffffffffffffffffffffffffffff167fa64bf1fcc4f3d7c965ef3091c978df041ad959bfaa6d5abc7d99a17830407b2960405160405180910390a4600197505050505050505061159261211b565b979650505050505050565b6115a561188b565b6115e4576040517f08c379a00000000000000000000000000000000000000000000000000000000081526004016115db90613a7c565b60405180910390fd5b600060fc541115611621576040517f5f39ce3900000000000000000000000000000000000000000000000000000000815260040160405180910390fd5b60fc600081546116309061384b565b919050819055508360fe60006101000a81548173ffffffffffffffffffffffffffffffffffffffff021916908373ffffffffffffffffffffffffffffffffffffffff16021790555060008060fe60009054906101000a900473ffffffffffffffffffffffffffffffffffffffff1673ffffffffffffffffffffffffffffffffffffffff16634b40ac92846040518263ffffffff1660e01b81526004016116d69190613801565b600060405180830381865afa1580156116f3573d6000803e3d6000fd5b505050506040513d6000823e3d601f19601f8201168201806040525081019061171c9190613cc6565b915091508373ffffffffffffffffffffffffffffffffffffffff168173ffffffffffffffffffffffffffffffffffffffff1614611785576040517fd3d93e9600000000000000000000000000000000000000000000000000000000815260040160405180910390fd5b846040516020016117969190613d69565b60405160208183030381529060405280519060200120826040516020016117bd9190613d69565b604051602081830303815290604052805190602001201461180a576040517fd3d93e9600000000000000000000000000000000000000000000000000000000815260040160405180910390fd5b8260fb81905550505050505050565b60006097600084815260200190815260200160002060000160008373ffffffffffffffffffffffffffffffffffffffff1673ffffffffffffffffffffffffffffffffffffffff16815260200190815260200160002060009054906101000a900460ff16905092915050565b6000801b81565b60006118a5611898612469565b6118a061208d565b611819565b905090565b60008060019054906101000a900460ff161590508080156118db5750600160008054906101000a900460ff1660ff16105b8061190857506118ea30612adc565b1580156119075750600160008054906101000a900460ff1660ff16145b5b611947576040517f08c379a000000000000000000000000000000000000000000000000000000000815260040161193e90613df2565b60405180910390fd5b60016000806101000a81548160ff021916908360ff1602179055508015611984576001600060016101000a81548160ff0219169083151502179055505b8160ff60006101000a81548173ffffffffffffffffffffffffffffffffffffffff021916908373ffffffffffffffffffffffffffffffffffffffff1602179055506119d56119d061208d565b610eb9565b8015611a2e5760008060016101000a81548160ff0219169083151502179055507f7f26b83ff96e1f2b6a682f133852f6798a09c465da95921460cefb38474024986001604051611a259190613e57565b60405180910390a15b5050565b600080600090506000806101016000611a4961208d565b73ffffffffffffffffffffffffffffffffffffffff1673ffffffffffffffffffffffffffffffffffffffff16815260200190815260200160002060008673ffffffffffffffffffffffffffffffffffffffff1673ffffffffffffffffffffffffffffffffffffffff168152602001908152602001600020600101549050600060fd54905060008060008490505b838110156120005760006101026000611aed61208d565b73ffffffffffffffffffffffffffffffffffffffff1673ffffffffffffffffffffffffffffffffffffffff16815260200190815260200160002060008b73ffffffffffffffffffffffffffffffffffffffff1673ffffffffffffffffffffffffffffffffffffffff16815260200190815260200160002060008381526020019081526020016000206040518060400160405290816000820154815260200160018201548152505090506000816000015190506000826020015190506000821115611bc057818a611bbd9190613933565b99505b6000811115611bd857808a611bd591906138ff565b99505b600061010360008e73ffffffffffffffffffffffffffffffffffffffff1673ffffffffffffffffffffffffffffffffffffffff16815260200190815260200160002060008681526020019081526020016000206000015461010360008f73ffffffffffffffffffffffffffffffffffffffff1673ffffffffffffffffffffffffffffffffffffffff1681526020019081526020016000206000878152602001908152602001600020600101548c611c8f9190613acb565b611c999190613b54565b9050808a611ca79190613933565b9950600060fe60009054906101000a900473ffffffffffffffffffffffffffffffffffffffff1673ffffffffffffffffffffffffffffffffffffffff1663c07f47d46040518163ffffffff1660e01b8152600401602060405180830381865afa158015611d18573d6000803e3d6000fd5b505050506040513d601f19601f82011682018060405250810190611d3c91906138d2565b9050808714611fea5780965060fe60009054906101000a900473ffffffffffffffffffffffffffffffffffffffff1673ffffffffffffffffffffffffffffffffffffffff166305044ea660fb54896040518363ffffffff1660e01b8152600401611da7929190613e72565b602060405180830381865afa158015611dc4573d6000803e3d6000fd5b505050506040513d601f19601f82011682018060405250810190611de89190613ec7565b15611e905760fe60009054906101000a900473ffffffffffffffffffffffffffffffffffffffff1673ffffffffffffffffffffffffffffffffffffffff16639cb0675860fb54896040518363ffffffff1660e01b8152600401611e4c929190613e72565b602060405180830381865afa158015611e69573d6000803e3d6000fd5b505050506040513d601f19601f82011682018060405250810190611e8d91906138d2565b97505b60fe60009054906101000a900473ffffffffffffffffffffffffffffffffffffffff1673ffffffffffffffffffffffffffffffffffffffff1663b557e4a6888a6040518363ffffffff1660e01b8152600401611eed929190613e72565b602060405180830381865afa158015611f0a573d6000803e3d6000fd5b505050506040513d601f19601f82011682018060405250810190611f2e9190613ec7565b15611fe957606460fe60009054906101000a900473ffffffffffffffffffffffffffffffffffffffff1673ffffffffffffffffffffffffffffffffffffffff166339c4c205896040518263ffffffff1660e01b8152600401611f909190613801565b602060405180830381865afa158015611fad573d6000803e3d6000fd5b505050506040513d601f19601f82011682018060405250810190611fd191906138d2565b8d611fdc9190613acb565b611fe69190613b54565b9b505b5b85611ff49061384b565b95505050505050611ad6565b50848661200d9190613933565b9550859650505050505050919050565b612026826109b0565b61202f8161218f565b6120398383612284565b505050565b600260c95403612083576040517f08c379a000000000000000000000000000000000000000000000000000000000815260040161207a90613f40565b60405180910390fd5b600260c981905550565b600033905090565b6121168363a9059cbb60e01b84846040516024016120b4929190613f60565b604051602081830303815290604052907bffffffffffffffffffffffffffffffffffffffffffffffffffffffff19166020820180517bffffffffffffffffffffffffffffffffffffffffffffffffffffffff8381831617835250505050612aff565b505050565b600160c981905550565b60007f01ffc9a7000000000000000000000000000000000000000000000000000000007bffffffffffffffffffffffffffffffffffffffffffffffffffffffff1916827bffffffffffffffffffffffffffffffffffffffffffffffffffffffff1916149050919050565b6121a08161219b61208d565b612bc6565b50565b6121ad8282611819565b6122805760016097600084815260200190815260200160002060000160008373ffffffffffffffffffffffffffffffffffffffff1673ffffffffffffffffffffffffffffffffffffffff16815260200190815260200160002060006101000a81548160ff02191690831515021790555061222561208d565b73ffffffffffffffffffffffffffffffffffffffff168173ffffffffffffffffffffffffffffffffffffffff16837f2f8788117e7eff1d82e926ec794901d17c78024a50270940304540a733656f0d60405160405180910390a45b5050565b61228e8282611819565b156123625760006097600084815260200190815260200160002060000160008373ffffffffffffffffffffffffffffffffffffffff1673ffffffffffffffffffffffffffffffffffffffff16815260200190815260200160002060006101000a81548160ff02191690831515021790555061230761208d565b73ffffffffffffffffffffffffffffffffffffffff168173ffffffffffffffffffffffffffffffffffffffff16837ff6391f5c32d9c69d2a47ea670b442974b53935d1edc7fd64eb21e047a839171b60405160405180910390a45b5050565b600060019054906101000a900460ff166123b5576040517f08c379a00000000000000000000000000000000000000000000000000000000081526004016123ac90613bf7565b60405180910390fd5b6123bd612c4b565b565b600060019054906101000a900460ff1661240e576040517f08c379a000000000000000000000000000000000000000000000000000000000815260040161240590613bf7565b60405180910390fd5b565b600060019054906101000a900460ff1661245f576040517f08c379a000000000000000000000000000000000000000000000000000000000815260040161245690613bf7565b60405180910390fd5b612467612cb7565b565b60007fa49807205ce4d355092ef5a8a18f56e8913cf4a201fbe287825b095693c21775905090565b60007f65d7a28e3265b37a6474929f336521b332c1681b933f6cb9f3376673440d862a905090565b60006124c4836109b0565b90508160976000858152602001908152602001600020600101819055508181847fbd79b86ffe0ab8e8776151514217cd7cacd52c909f66475c3af44e129f0b00ff60405160405180910390a4505050565b60008873ffffffffffffffffffffffffffffffffffffffff16637ecebe00896040518263ffffffff1660e01b815260040161255091906138a2565b602060405180830381865afa15801561256d573d6000803e3d6000fd5b505050506040513d601f19601f8201168201806040525081019061259191906138d2565b90508873ffffffffffffffffffffffffffffffffffffffff1663d505accf898989898989896040518863ffffffff1660e01b81526004016125d89796959493929190613f98565b600060405180830381600087803b1580156125f257600080fd5b505af1158015612606573d6000803e3d6000fd5b5050505060008973ffffffffffffffffffffffffffffffffffffffff16637ecebe008a6040518263ffffffff1660e01b815260040161264591906138a2565b602060405180830381865afa158015612662573d6000803e3d6000fd5b505050506040513d601f19601f8201168201806040525081019061268691906138d2565b90506001826126959190613933565b81146126d6576040517f08c379a00000000000000000000000000000000000000000000000000000000081526004016126cd90614079565b60405180910390fd5b50505050505050505050565b612765846323b872dd60e01b85858560405160240161270393929190614099565b604051602081830303815290604052907bffffffffffffffffffffffffffffffffffffffffffffffffffffffff19166020820180517bffffffffffffffffffffffffffffffffffffffffffffffffffffffff8381831617835250505050612aff565b50505050565b6000818473ffffffffffffffffffffffffffffffffffffffff1663dd62ed3e30866040518363ffffffff1660e01b81526004016127a99291906140d0565b602060405180830381865afa1580156127c6573d6000803e3d6000fd5b505050506040513d601f19601f820116820180604052508101906127ea91906138d2565b6127f49190613933565b90506128778463095ea7b360e01b8584604051602401612815929190613f60565b604051602081830303815290604052907bffffffffffffffffffffffffffffffffffffffffffffffffffffffff19166020820180517bffffffffffffffffffffffffffffffffffffffffffffffffffffffff8381831617835250505050612aff565b50505050565b6000818361288b91906138ff565b90508061010360008673ffffffffffffffffffffffffffffffffffffffff1673ffffffffffffffffffffffffffffffffffffffff168152602001908152602001600020600060fd54815260200190815260200160002060000160008282546128f39190613933565b9250508190555061010360008573ffffffffffffffffffffffffffffffffffffffff1673ffffffffffffffffffffffffffffffffffffffff1681526020019081526020016000206000600160fd5461294b91906138ff565b8152602001908152602001600020600001548261296891906138ff565b61010360008673ffffffffffffffffffffffffffffffffffffffff1673ffffffffffffffffffffffffffffffffffffffff1681526020019081526020016000206000600160fd546129b991906138ff565b8152602001908152602001600020600101819055508061010260006129dc61208d565b73ffffffffffffffffffffffffffffffffffffffff1673ffffffffffffffffffffffffffffffffffffffff16815260200190815260200160002060008673ffffffffffffffffffffffffffffffffffffffff1673ffffffffffffffffffffffffffffffffffffffff168152602001908152602001600020600060fd5481526020019081526020016000206000016000828254612a789190613933565b925050819055508061010460008673ffffffffffffffffffffffffffffffffffffffff1673ffffffffffffffffffffffffffffffffffffffff1681526020019081526020016000206000828254612acf9190613933565b9250508190555050505050565b6000808273ffffffffffffffffffffffffffffffffffffffff163b119050919050565b6000612b61826040518060400160405280602081526020017f5361666545524332303a206c6f772d6c6576656c2063616c6c206661696c65648152508573ffffffffffffffffffffffffffffffffffffffff16612d109092919063ffffffff16565b9050600081511115612bc15780806020019051810190612b819190613ec7565b612bc0576040517f08c379a0000000000000000000000000000000000000000000000000000000008152600401612bb79061416b565b60405180910390fd5b5b505050565b612bd08282611819565b612c4757612bdd81612d28565b612beb8360001c6020612d55565b604051602001612bfc929190614223565b6040516020818303038152906040526040517f08c379a0000000000000000000000000000000000000000000000000000000008152600401612c3e9190614296565b60405180910390fd5b5050565b600060019054906101000a900460ff16612c9a576040517f08c379a0000000000000000000000000000000000000000000000000000000008152600401612c9190613bf7565b60405180910390fd5b6000603360006101000a81548160ff021916908315150217905550565b600060019054906101000a900460ff16612d06576040517f08c379a0000000000000000000000000000000000000000000000000000000008152600401612cfd90613bf7565b60405180910390fd5b600160c981905550565b6060612d1f8484600085612f91565b90509392505050565b6060612d4e8273ffffffffffffffffffffffffffffffffffffffff16601460ff16612d55565b9050919050565b606060006002836002612d689190613acb565b612d729190613933565b67ffffffffffffffff811115612d8b57612d8a6133bc565b5b6040519080825280601f01601f191660200182016040528015612dbd5781602001600182028036833780820191505090505b5090507f300000000000000000000000000000000000000000000000000000000000000081600081518110612df557612df4613a9c565b5b60200101907effffffffffffffffffffffffffffffffffffffffffffffffffffffffffffff1916908160001a9053507f780000000000000000000000000000000000000000000000000000000000000081600181518110612e5957612e58613a9c565b5b60200101907effffffffffffffffffffffffffffffffffffffffffffffffffffffffffffff1916908160001a90535060006001846002612e999190613acb565b612ea39190613933565b90505b6001811115612f43577f3031323334353637383961626364656600000000000000000000000000000000600f861660108110612ee557612ee4613a9c565b5b1a60f81b828281518110612efc57612efb613a9c565b5b60200101907effffffffffffffffffffffffffffffffffffffffffffffffffffffffffffff1916908160001a905350600485901c945080612f3c906142b8565b9050612ea6565b5060008414612f87576040517f08c379a0000000000000000000000000000000000000000000000000000000008152600401612f7e9061432d565b60405180910390fd5b8091505092915050565b606082471015612fd6576040517f08c379a0000000000000000000000000000000000000000000000000000000008152600401612fcd906143bf565b60405180910390fd5b6000808673ffffffffffffffffffffffffffffffffffffffff168587604051612fff9190614426565b60006040518083038185875af1925050503d806000811461303c576040519150601f19603f3d011682016040523d82523d6000602084013e613041565b606091505b50915091506130528783838761305e565b92505050949350505050565b606083156130c05760008351036130b85761307885612adc565b6130b7576040517f08c379a00000000000000000000000000000000000000000000000000000000081526004016130ae90614489565b60405180910390fd5b5b8290506130cb565b6130ca83836130d3565b5b949350505050565b6000825111156130e65781518083602001fd5b806040517f08c379a000000000000000000000000000000000000000000000000000000000815260040161311a9190614296565b60405180910390fd5b6000604051905090565b600080fd5b600080fd5b600073ffffffffffffffffffffffffffffffffffffffff82169050919050565b600061316282613137565b9050919050565b61317281613157565b811461317d57600080fd5b50565b60008135905061318f81613169565b92915050565b6000819050919050565b6131a881613195565b81146131b357600080fd5b50565b6000813590506131c58161319f565b92915050565b6000806000606084860312156131e4576131e361312d565b5b60006131f286828701613180565b935050602061320386828701613180565b9250506040613214868287016131b6565b9150509250925092565b60008115159050919050565b6132338161321e565b82525050565b600060208201905061324e600083018461322a565b92915050565b60007fffffffff0000000000000000000000000000000000000000000000000000000082169050919050565b61328981613254565b811461329457600080fd5b50565b6000813590506132a681613280565b92915050565b6000602082840312156132c2576132c161312d565b5b60006132d084828501613297565b91505092915050565b6000819050919050565b6132ec816132d9565b81146132f757600080fd5b50565b600081359050613309816132e3565b92915050565b6000602082840312156133255761332461312d565b5b6000613333848285016132fa565b91505092915050565b613345816132d9565b82525050565b6000602082019050613360600083018461333c565b92915050565b6000806040838503121561337d5761337c61312d565b5b600061338b858286016132fa565b925050602061339c85828601613180565b9150509250929050565b600080fd5b6000601f19601f8301169050919050565b7f4e487b7100000000000000000000000000000000000000000000000000000000600052604160045260246000fd5b6133f4826133ab565b810181811067ffffffffffffffff82111715613413576134126133bc565b5b80604052505050565b6000613426613123565b905061343282826133eb565b919050565b600067ffffffffffffffff821115613452576134516133bc565b5b602082029050602081019050919050565b600080fd5b600061347b61347684613437565b61341c565b9050808382526020820190506020840283018581111561349e5761349d613463565b5b835b818110156134c757806134b38882613180565b8452602084019350506020810190506134a0565b5050509392505050565b600082601f8301126134e6576134e56133a6565b5b81356134f6848260208601613468565b91505092915050565b600080600080600060a0868803121561351b5761351a61312d565b5b600086013567ffffffffffffffff81111561353957613538613132565b5b613545888289016134d1565b955050602086013567ffffffffffffffff81111561356657613565613132565b5b613572888289016134d1565b945050604061358388828901613180565b9350506060613594888289016131b6565b92505060806135a5888289016131b6565b9150509295509295909350565b6000602082840312156135c8576135c761312d565b5b60006135d684828501613180565b91505092915050565b600060ff82169050919050565b6135f5816135df565b811461360057600080fd5b50565b600081359050613612816135ec565b92915050565b600080600080600080600060e0888a0312156136375761363661312d565b5b60006136458a828b01613180565b97505060206136568a828b01613180565b96505060406136678a828b016131b6565b95505060606136788a828b016131b6565b94505060806136898a828b01613603565b93505060a061369a8a828b016132fa565b92505060c06136ab8a828b016132fa565b91505092959891949750929550565b600080fd5b600067ffffffffffffffff8211156136da576136d96133bc565b5b6136e3826133ab565b9050602081019050919050565b82818337600083830152505050565b600061371261370d846136bf565b61341c565b90508281526020810184848401111561372e5761372d6136ba565b5b6137398482856136f0565b509392505050565b600082601f830112613756576137556133a6565b5b81356137668482602086016136ff565b91505092915050565b600080600080608085870312156137895761378861312d565b5b600061379787828801613180565b945050602085013567ffffffffffffffff8111156137b8576137b7613132565b5b6137c487828801613741565b93505060406137d587828801613180565b92505060606137e6878288016131b6565b91505092959194509250565b6137fb81613195565b82525050565b600060208201905061381660008301846137f2565b92915050565b7f4e487b7100000000000000000000000000000000000000000000000000000000600052601160045260246000fd5b600061385682613195565b91507fffffffffffffffffffffffffffffffffffffffffffffffffffffffffffffffff82036138885761388761381c565b5b600182019050919050565b61389c81613157565b82525050565b60006020820190506138b76000830184613893565b92915050565b6000815190506138cc8161319f565b92915050565b6000602082840312156138e8576138e761312d565b5b60006138f6848285016138bd565b91505092915050565b600061390a82613195565b915061391583613195565b925082820390508181111561392d5761392c61381c565b5b92915050565b600061393e82613195565b915061394983613195565b92508282019050808211156139615761396061381c565b5b92915050565b600082825260208201905092915050565b7f416363657373436f6e74726f6c3a2063616e206f6e6c792072656e6f756e636560008201527f20726f6c657320666f722073656c660000000000000000000000000000000000602082015250565b60006139d4602f83613967565b91506139df82613978565b604082019050919050565b60006020820190508181036000830152613a03816139c7565b9050919050565b7f4d75737420686176652061646d696e20726f6c6520746f20706572666f726d2060008201527f7468697320616374696f6e2e0000000000000000000000000000000000000000602082015250565b6000613a66602c83613967565b9150613a7182613a0a565b604082019050919050565b60006020820190508181036000830152613a9581613a59565b9050919050565b7f4e487b7100000000000000000000000000000000000000000000000000000000600052603260045260246000fd5b6000613ad682613195565b9150613ae183613195565b9250817fffffffffffffffffffffffffffffffffffffffffffffffffffffffffffffffff0483118215151615613b1a57613b1961381c565b5b828202905092915050565b7f4e487b7100000000000000000000000000000000000000000000000000000000600052601260045260246000fd5b6000613b5f82613195565b9150613b6a83613195565b925082613b7a57613b79613b25565b5b828204905092915050565b7f496e697469616c697a61626c653a20636f6e7472616374206973206e6f74206960008201527f6e697469616c697a696e67000000000000000000000000000000000000000000602082015250565b6000613be1602b83613967565b9150613bec82613b85565b604082019050919050565b60006020820190508181036000830152613c1081613bd4565b9050919050565b60005b83811015613c35578082015181840152602081019050613c1a565b60008484015250505050565b6000613c54613c4f846136bf565b61341c565b905082815260208101848484011115613c7057613c6f6136ba565b5b613c7b848285613c17565b509392505050565b600082601f830112613c9857613c976133a6565b5b8151613ca8848260208601613c41565b91505092915050565b600081519050613cc081613169565b92915050565b60008060408385031215613cdd57613cdc61312d565b5b600083015167ffffffffffffffff811115613cfb57613cfa613132565b5b613d0785828601613c83565b9250506020613d1885828601613cb1565b9150509250929050565b600081519050919050565b600081905092915050565b6000613d4382613d22565b613d4d8185613d2d565b9350613d5d818560208601613c17565b80840191505092915050565b6000613d758284613d38565b915081905092915050565b7f496e697469616c697a61626c653a20636f6e747261637420697320616c72656160008201527f647920696e697469616c697a6564000000000000000000000000000000000000602082015250565b6000613ddc602e83613967565b9150613de782613d80565b604082019050919050565b60006020820190508181036000830152613e0b81613dcf565b9050919050565b6000819050919050565b6000819050919050565b6000613e41613e3c613e3784613e12565b613e1c565b6135df565b9050919050565b613e5181613e26565b82525050565b6000602082019050613e6c6000830184613e48565b92915050565b6000604082019050613e8760008301856137f2565b613e9460208301846137f2565b9392505050565b613ea48161321e565b8114613eaf57600080fd5b50565b600081519050613ec181613e9b565b92915050565b600060208284031215613edd57613edc61312d565b5b6000613eeb84828501613eb2565b91505092915050565b7f5265656e7472616e637947756172643a207265656e7472616e742063616c6c00600082015250565b6000613f2a601f83613967565b9150613f3582613ef4565b602082019050919050565b60006020820190508181036000830152613f5981613f1d565b9050919050565b6000604082019050613f756000830185613893565b613f8260208301846137f2565b9392505050565b613f92816135df565b82525050565b600060e082019050613fad600083018a613893565b613fba6020830189613893565b613fc760408301886137f2565b613fd460608301876137f2565b613fe16080830186613f89565b613fee60a083018561333c565b613ffb60c083018461333c565b98975050505050505050565b7f5361666545524332303a207065726d697420646964206e6f742073756363656560008201527f6400000000000000000000000000000000000000000000000000000000000000602082015250565b6000614063602183613967565b915061406e82614007565b604082019050919050565b6000602082019050818103600083015261409281614056565b9050919050565b60006060820190506140ae6000830186613893565b6140bb6020830185613893565b6140c860408301846137f2565b949350505050565b60006040820190506140e56000830185613893565b6140f26020830184613893565b9392505050565b7f5361666545524332303a204552433230206f7065726174696f6e20646964206e60008201527f6f74207375636365656400000000000000000000000000000000000000000000602082015250565b6000614155602a83613967565b9150614160826140f9565b604082019050919050565b6000602082019050818103600083015261418481614148565b9050919050565b7f416363657373436f6e74726f6c3a206163636f756e7420000000000000000000600082015250565b60006141c1601783613d2d565b91506141cc8261418b565b601782019050919050565b7f206973206d697373696e6720726f6c6520000000000000000000000000000000600082015250565b600061420d601183613d2d565b9150614218826141d7565b601182019050919050565b600061422e826141b4565b915061423a8285613d38565b915061424582614200565b91506142518284613d38565b91508190509392505050565b600061426882613d22565b6142728185613967565b9350614282818560208601613c17565b61428b816133ab565b840191505092915050565b600060208201905081810360008301526142b0818461425d565b905092915050565b60006142c382613195565b9150600082036142d6576142d561381c565b5b600182039050919050565b7f537472696e67733a20686578206c656e67746820696e73756666696369656e74600082015250565b6000614317602083613967565b9150614322826142e1565b602082019050919050565b600060208201905081810360008301526143468161430a565b9050919050565b7f416464726573733a20696e73756666696369656e742062616c616e636520666f60008201527f722063616c6c0000000000000000000000000000000000000000000000000000602082015250565b60006143a9602683613967565b91506143b48261434d565b604082019050919050565b600060208201905081810360008301526143d88161439c565b9050919050565b600081519050919050565b600081905092915050565b6000614400826143df565b61440a81856143ea565b935061441a818560208601613c17565b80840191505092915050565b600061443282846143f5565b915081905092915050565b7f416464726573733a2063616c6c20746f206e6f6e2d636f6e7472616374000000600082015250565b6000614473601d83613967565b915061447e8261443d565b602082019050919050565b600060208201905081810360008301526144a281614466565b905091905056fea26469706673582212208bf429cf1f1ee8a3204d26c296155efc99489ad0fc7bc4f3fef33783226e093164736f6c63430008100033",
  "linkReferences": {},
  "deployedLinkReferences": {}
}