{
  "_format": "hh-sol-artifact-1",
  "contractName": "MockDAI",
  "sourceName": "contracts/core/token/Mock/MockDAI.sol",
  "abi": [
    {
      "inputs": [],
      "name": "BaseUpgradeablePausable__ZeroAddressError",
      "type": "error"
    },
    {
      "anonymous": false,
      "inputs": [
        {
          "indexed": true,
          "internalType": "address",
          "name": "owner",
          "type": "address"
        },
        {
          "indexed": true,
          "internalType": "address",
          "name": "spender",
          "type": "address"
        },
        {
          "indexed": false,
          "internalType": "uint256",
          "name": "value",
          "type": "uint256"
        }
      ],
      "name": "Approval",
      "type": "event"
    },
    {
      "anonymous": false,
      "inputs": [
        {
          "indexed": false,
          "internalType": "uint8",
          "name": "version",
          "type": "uint8"
        }
      ],
      "name": "Initialized",
      "type": "event"
    },
    {
      "anonymous": false,
      "inputs": [
        {
          "indexed": false,
          "internalType": "address",
          "name": "account",
          "type": "address"
        }
      ],
      "name": "Paused",
      "type": "event"
    },
    {
      "anonymous": false,
      "inputs": [
        {
          "indexed": true,
          "internalType": "bytes32",
          "name": "role",
          "type": "bytes32"
        },
        {
          "indexed": true,
          "internalType": "bytes32",
          "name": "previousAdminRole",
          "type": "bytes32"
        },
        {
          "indexed": true,
          "internalType": "bytes32",
          "name": "newAdminRole",
          "type": "bytes32"
        }
      ],
      "name": "RoleAdminChanged",
      "type": "event"
    },
    {
      "anonymous": false,
      "inputs": [
        {
          "indexed": true,
          "internalType": "bytes32",
          "name": "role",
          "type": "bytes32"
        },
        {
          "indexed": true,
          "internalType": "address",
          "name": "account",
          "type": "address"
        },
        {
          "indexed": true,
          "internalType": "address",
          "name": "sender",
          "type": "address"
        }
      ],
      "name": "RoleGranted",
      "type": "event"
    },
    {
      "anonymous": false,
      "inputs": [
        {
          "indexed": true,
          "internalType": "bytes32",
          "name": "role",
          "type": "bytes32"
        },
        {
          "indexed": true,
          "internalType": "address",
          "name": "account",
          "type": "address"
        },
        {
          "indexed": true,
          "internalType": "address",
          "name": "sender",
          "type": "address"
        }
      ],
      "name": "RoleRevoked",
      "type": "event"
    },
    {
      "anonymous": false,
      "inputs": [
        {
          "indexed": true,
          "internalType": "address",
          "name": "from",
          "type": "address"
        },
        {
          "indexed": true,
          "internalType": "address",
          "name": "to",
          "type": "address"
        },
        {
          "indexed": false,
          "internalType": "uint256",
          "name": "value",
          "type": "uint256"
        }
      ],
      "name": "Transfer",
      "type": "event"
    },
    {
      "anonymous": false,
      "inputs": [
        {
          "indexed": false,
          "internalType": "address",
          "name": "account",
          "type": "address"
        }
      ],
      "name": "Unpaused",
      "type": "event"
    },
    {
      "inputs": [],
      "name": "DEFAULT_ADMIN_ROLE",
      "outputs": [
        {
          "internalType": "bytes32",
          "name": "",
          "type": "bytes32"
        }
      ],
      "stateMutability": "view",
      "type": "function"
    },
    {
      "inputs": [],
      "name": "DOMAIN_SEPARATOR",
      "outputs": [
        {
          "internalType": "bytes32",
          "name": "",
          "type": "bytes32"
        }
      ],
      "stateMutability": "view",
      "type": "function"
    },
    {
      "inputs": [
        {
          "internalType": "address",
          "name": "owner",
          "type": "address"
        }
      ],
      "name": "__BaseUpgradeablePausable_init",
      "outputs": [],
      "stateMutability": "nonpayable",
      "type": "function"
    },
    {
      "inputs": [
        {
          "internalType": "address",
          "name": "owner",
          "type": "address"
        },
        {
          "internalType": "address",
          "name": "spender",
          "type": "address"
        }
      ],
      "name": "allowance",
      "outputs": [
        {
          "internalType": "uint256",
          "name": "",
          "type": "uint256"
        }
      ],
      "stateMutability": "view",
      "type": "function"
    },
    {
      "inputs": [
        {
          "internalType": "address",
          "name": "spender",
          "type": "address"
        },
        {
          "internalType": "uint256",
          "name": "amount",
          "type": "uint256"
        }
      ],
      "name": "approve",
      "outputs": [
        {
          "internalType": "bool",
          "name": "",
          "type": "bool"
        }
      ],
      "stateMutability": "nonpayable",
      "type": "function"
    },
    {
      "inputs": [
        {
          "internalType": "address",
          "name": "account",
          "type": "address"
        }
      ],
      "name": "balanceOf",
      "outputs": [
        {
          "internalType": "uint256",
          "name": "",
          "type": "uint256"
        }
      ],
      "stateMutability": "view",
      "type": "function"
    },
    {
      "inputs": [
        {
          "internalType": "address",
          "name": "account",
          "type": "address"
        },
        {
          "internalType": "uint256",
          "name": "amount",
          "type": "uint256"
        }
      ],
      "name": "burnFrom",
      "outputs": [
        {
          "internalType": "bool",
          "name": "",
          "type": "bool"
        }
      ],
      "stateMutability": "nonpayable",
      "type": "function"
    },
    {
      "inputs": [],
      "name": "decimals",
      "outputs": [
        {
          "internalType": "uint8",
          "name": "",
          "type": "uint8"
        }
      ],
      "stateMutability": "view",
      "type": "function"
    },
    {
      "inputs": [
        {
          "internalType": "address",
          "name": "spender",
          "type": "address"
        },
        {
          "internalType": "uint256",
          "name": "subtractedValue",
          "type": "uint256"
        }
      ],
      "name": "decreaseAllowance",
      "outputs": [
        {
          "internalType": "bool",
          "name": "",
          "type": "bool"
        }
      ],
      "stateMutability": "nonpayable",
      "type": "function"
    },
    {
      "inputs": [
        {
          "internalType": "bytes32",
          "name": "role",
          "type": "bytes32"
        }
      ],
      "name": "getRoleAdmin",
      "outputs": [
        {
          "internalType": "bytes32",
          "name": "",
          "type": "bytes32"
        }
      ],
      "stateMutability": "view",
      "type": "function"
    },
    {
      "inputs": [
        {
          "internalType": "bytes32",
          "name": "role",
          "type": "bytes32"
        },
        {
          "internalType": "address",
          "name": "account",
          "type": "address"
        }
      ],
      "name": "grantRole",
      "outputs": [],
      "stateMutability": "nonpayable",
      "type": "function"
    },
    {
      "inputs": [
        {
          "internalType": "bytes32",
          "name": "role",
          "type": "bytes32"
        },
        {
          "internalType": "address",
          "name": "account",
          "type": "address"
        }
      ],
      "name": "hasRole",
      "outputs": [
        {
          "internalType": "bool",
          "name": "",
          "type": "bool"
        }
      ],
      "stateMutability": "view",
      "type": "function"
    },
    {
      "inputs": [
        {
          "internalType": "address",
          "name": "spender",
          "type": "address"
        },
        {
          "internalType": "uint256",
          "name": "addedValue",
          "type": "uint256"
        }
      ],
      "name": "increaseAllowance",
      "outputs": [
        {
          "internalType": "bool",
          "name": "",
          "type": "bool"
        }
      ],
      "stateMutability": "nonpayable",
      "type": "function"
    },
    {
      "inputs": [
        {
          "internalType": "string",
          "name": "name_",
          "type": "string"
        },
        {
          "internalType": "string",
          "name": "symbol_",
          "type": "string"
        }
      ],
      "name": "initialize",
      "outputs": [],
      "stateMutability": "nonpayable",
      "type": "function"
    },
    {
      "inputs": [],
      "name": "isAdmin",
      "outputs": [
        {
          "internalType": "bool",
          "name": "",
          "type": "bool"
        }
      ],
      "stateMutability": "view",
      "type": "function"
    },
    {
      "inputs": [],
      "name": "isModerator",
      "outputs": [
        {
          "internalType": "bool",
          "name": "",
          "type": "bool"
        }
      ],
      "stateMutability": "view",
      "type": "function"
    },
    {
      "inputs": [
        {
          "internalType": "address",
          "name": "to",
          "type": "address"
        },
        {
          "internalType": "uint256",
          "name": "amount",
          "type": "uint256"
        }
      ],
      "name": "mint",
      "outputs": [
        {
          "internalType": "bool",
          "name": "",
          "type": "bool"
        }
      ],
      "stateMutability": "nonpayable",
      "type": "function"
    },
    {
      "inputs": [],
      "name": "name",
      "outputs": [
        {
          "internalType": "string",
          "name": "",
          "type": "string"
        }
      ],
      "stateMutability": "view",
      "type": "function"
    },
    {
      "inputs": [
        {
          "internalType": "address",
          "name": "owner",
          "type": "address"
        }
      ],
      "name": "nonces",
      "outputs": [
        {
          "internalType": "uint256",
          "name": "",
          "type": "uint256"
        }
      ],
      "stateMutability": "view",
      "type": "function"
    },
    {
      "inputs": [],
      "name": "paused",
      "outputs": [
        {
          "internalType": "bool",
          "name": "",
          "type": "bool"
        }
      ],
      "stateMutability": "view",
      "type": "function"
    },
    {
      "inputs": [
        {
          "internalType": "address",
          "name": "owner",
          "type": "address"
        },
        {
          "internalType": "address",
          "name": "spender",
          "type": "address"
        },
        {
          "internalType": "uint256",
          "name": "value",
          "type": "uint256"
        },
        {
          "internalType": "uint256",
          "name": "deadline",
          "type": "uint256"
        },
        {
          "internalType": "uint8",
          "name": "v",
          "type": "uint8"
        },
        {
          "internalType": "bytes32",
          "name": "r",
          "type": "bytes32"
        },
        {
          "internalType": "bytes32",
          "name": "s",
          "type": "bytes32"
        }
      ],
      "name": "permit",
      "outputs": [],
      "stateMutability": "nonpayable",
      "type": "function"
    },
    {
      "inputs": [
        {
          "internalType": "bytes32",
          "name": "role",
          "type": "bytes32"
        },
        {
          "internalType": "address",
          "name": "account",
          "type": "address"
        }
      ],
      "name": "renounceRole",
      "outputs": [],
      "stateMutability": "nonpayable",
      "type": "function"
    },
    {
      "inputs": [
        {
          "internalType": "bytes32",
          "name": "role",
          "type": "bytes32"
        },
        {
          "internalType": "address",
          "name": "account",
          "type": "address"
        }
      ],
      "name": "revokeRole",
      "outputs": [],
      "stateMutability": "nonpayable",
      "type": "function"
    },
    {
      "inputs": [
        {
          "internalType": "bytes4",
          "name": "interfaceId",
          "type": "bytes4"
        }
      ],
      "name": "supportsInterface",
      "outputs": [
        {
          "internalType": "bool",
          "name": "",
          "type": "bool"
        }
      ],
      "stateMutability": "view",
      "type": "function"
    },
    {
      "inputs": [],
      "name": "symbol",
      "outputs": [
        {
          "internalType": "string",
          "name": "",
          "type": "string"
        }
      ],
      "stateMutability": "view",
      "type": "function"
    },
    {
      "inputs": [],
      "name": "totalSupply",
      "outputs": [
        {
          "internalType": "uint256",
          "name": "",
          "type": "uint256"
        }
      ],
      "stateMutability": "view",
      "type": "function"
    },
    {
      "inputs": [
        {
          "internalType": "address",
          "name": "to",
          "type": "address"
        },
        {
          "internalType": "uint256",
          "name": "amount",
          "type": "uint256"
        }
      ],
      "name": "transfer",
      "outputs": [
        {
          "internalType": "bool",
          "name": "",
          "type": "bool"
        }
      ],
      "stateMutability": "nonpayable",
      "type": "function"
    },
    {
      "inputs": [
        {
          "internalType": "address",
          "name": "from",
          "type": "address"
        },
        {
          "internalType": "address",
          "name": "to",
          "type": "address"
        },
        {
          "internalType": "uint256",
          "name": "amount",
          "type": "uint256"
        }
      ],
      "name": "transferFrom",
      "outputs": [
        {
          "internalType": "bool",
          "name": "",
          "type": "bool"
        }
      ],
      "stateMutability": "nonpayable",
      "type": "function"
    }
  ],
  "bytecode": "0x608060405234801561001057600080fd5b50613d27806100206000396000f3fe608060405234801561001057600080fd5b50600436106101c45760003560e01c80636e810b1a116100f9578063a457c2d711610097578063b6db75a011610071578063b6db75a014610569578063d505accf14610587578063d547741f146105a3578063dd62ed3e146105bf576101c4565b8063a457c2d7146104eb578063a9059cbb1461051b578063aeabaff31461054b576101c4565b80637ecebe00116100d35780637ecebe001461044f57806391d148541461047f57806395d89b41146104af578063a217fddf146104cd576101c4565b80636e810b1a146103d357806370a08231146103ef57806379cc67901461041f576101c4565b8063313ce567116101665780633950935111610140578063395093511461033957806340c10f19146103695780634cd88b76146103995780635c975abb146103b5576101c4565b8063313ce567146102e15780633644e515146102ff57806336568abe1461031d576101c4565b806318160ddd116101a257806318160ddd1461024757806323b872dd14610265578063248a9ca3146102955780632f2ff15d146102c5576101c4565b806301ffc9a7146101c957806306fdde03146101f9578063095ea7b314610217575b600080fd5b6101e360048036038101906101de91906125a1565b6105ef565b6040516101f091906125e9565b60405180910390f35b610201610669565b60405161020e9190612694565b60405180910390f35b610231600480360381019061022c919061274a565b6106fb565b60405161023e91906125e9565b60405180910390f35b61024f61071e565b60405161025c9190612799565b60405180910390f35b61027f600480360381019061027a91906127b4565b610728565b60405161028c91906125e9565b60405180910390f35b6102af60048036038101906102aa919061283d565b610757565b6040516102bc9190612879565b60405180910390f35b6102df60048036038101906102da9190612894565b610778565b005b6102e9610799565b6040516102f691906128f0565b60405180910390f35b6103076107a2565b6040516103149190612879565b60405180910390f35b61033760048036038101906103329190612894565b6107b1565b005b610353600480360381019061034e919061274a565b610834565b60405161036091906125e9565b60405180910390f35b610383600480360381019061037e919061274a565b61086b565b60405161039091906125e9565b60405180910390f35b6103b360048036038101906103ae9190612a40565b610881565b005b6103bd6109f8565b6040516103ca91906125e9565b60405180910390f35b6103ed60048036038101906103e89190612ab8565b610a0f565b005b61040960048036038101906104049190612ab8565b610b31565b6040516104169190612799565b60405180910390f35b6104396004803603810190610434919061274a565b610b7a565b60405161044691906125e9565b60405180910390f35b61046960048036038101906104649190612ab8565b610ba2565b6040516104769190612799565b60405180910390f35b61049960048036038101906104949190612894565b610bf2565b6040516104a691906125e9565b60405180910390f35b6104b7610c5e565b6040516104c49190612694565b60405180910390f35b6104d5610cf0565b6040516104e29190612879565b60405180910390f35b6105056004803603810190610500919061274a565b610cf7565b60405161051291906125e9565b60405180910390f35b6105356004803603810190610530919061274a565b610d6e565b60405161054291906125e9565b60405180910390f35b610553610d91565b60405161056091906125e9565b60405180910390f35b610571610db0565b60405161057e91906125e9565b60405180910390f35b6105a1600480360381019061059c9190612b11565b610dcf565b005b6105bd60048036038101906105b89190612894565b610f11565b005b6105d960048036038101906105d49190612bb3565b610f32565b6040516105e69190612799565b60405180910390f35b60007f7965db0b000000000000000000000000000000000000000000000000000000007bffffffffffffffffffffffffffffffffffffffffffffffffffffffff1916827bffffffffffffffffffffffffffffffffffffffffffffffffffffffff19161480610662575061066182610fb9565b5b9050919050565b60606036805461067890612c22565b80601f01602080910402602001604051908101604052809291908181526020018280546106a490612c22565b80156106f15780601f106106c6576101008083540402835291602001916106f1565b820191906000526020600020905b8154815290600101906020018083116106d457829003601f168201915b5050505050905090565b600080610706611023565b905061071381858561102b565b600191505092915050565b6000603554905090565b600080610733611023565b90506107408582856111f4565b61074b858585611280565b60019150509392505050565b60006101306000838152602001908152602001600020600101549050919050565b61078182610757565b61078a816114f9565b610794838361150d565b505050565b60006012905090565b60006107ac6115ef565b905090565b6107b9611023565b73ffffffffffffffffffffffffffffffffffffffff168173ffffffffffffffffffffffffffffffffffffffff1614610826576040517f08c379a000000000000000000000000000000000000000000000000000000000815260040161081d90612cc5565b60405180910390fd5b610830828261162f565b5050565b60008061083f611023565b90506108608185856108518589610f32565b61085b9190612d14565b61102b565b600191505092915050565b60006108778383611712565b6001905092915050565b60008060019054906101000a900460ff161590508080156108b25750600160008054906101000a900460ff1660ff16105b806108df57506108c130611869565b1580156108de5750600160008054906101000a900460ff1660ff16145b5b61091e576040517f08c379a000000000000000000000000000000000000000000000000000000000815260040161091590612dba565b60405180910390fd5b60016000806101000a81548160ff021916908360ff160217905550801561095b576001600060016101000a81548160ff0219169083151502179055505b610965838361188c565b61096e826118e9565b61097e610979611023565b610a0f565b61099a610989611023565b6a52b7d2dcc80cd2e4000000611712565b80156109f35760008060016101000a81548160ff0219169083151502179055507f7f26b83ff96e1f2b6a682f133852f6798a09c465da95921460cefb384740249860016040516109ea9190612e1f565b60405180910390a15b505050565b600060cc60009054906101000a900460ff16905090565b600060019054906101000a900460ff16610a5e576040517f08c379a0000000000000000000000000000000000000000000000000000000008152600401610a5590612eac565b60405180910390fd5b600073ffffffffffffffffffffffffffffffffffffffff168173ffffffffffffffffffffffffffffffffffffffff1603610ac4576040517f5415139400000000000000000000000000000000000000000000000000000000815260040160405180910390fd5b610acc61197a565b610ad46119d3565b610adc611a24565b610aed610ae7611a7d565b8261150d565b610afe610af8611aa5565b8261150d565b610b16610b09611aa5565b610b11611a7d565b611acd565b610b2e610b21611a7d565b610b29611a7d565b611acd565b50565b6000603360008373ffffffffffffffffffffffffffffffffffffffff1673ffffffffffffffffffffffffffffffffffffffff168152602001908152602001600020549050919050565b6000610b8e83610b88611023565b846111f4565b610b988383611b2a565b6001905092915050565b6000610beb609960008473ffffffffffffffffffffffffffffffffffffffff1673ffffffffffffffffffffffffffffffffffffffff168152602001908152602001600020611cf9565b9050919050565b6000610130600084815260200190815260200160002060000160008373ffffffffffffffffffffffffffffffffffffffff1673ffffffffffffffffffffffffffffffffffffffff16815260200190815260200160002060009054906101000a900460ff16905092915050565b606060378054610c6d90612c22565b80601f0160208091040260200160405190810160405280929190818152602001828054610c9990612c22565b8015610ce65780601f10610cbb57610100808354040283529160200191610ce6565b820191906000526020600020905b815481529060010190602001808311610cc957829003601f168201915b5050505050905090565b6000801b81565b600080610d02611023565b90506000610d108286610f32565b905083811015610d55576040517f08c379a0000000000000000000000000000000000000000000000000000000008152600401610d4c90612f3e565b60405180910390fd5b610d62828686840361102b565b60019250505092915050565b600080610d79611023565b9050610d86818585611280565b600191505092915050565b6000610dab610d9e611aa5565b610da6611023565b610bf2565b905090565b6000610dca610dbd611a7d565b610dc5611023565b610bf2565b905090565b83421115610e12576040517f08c379a0000000000000000000000000000000000000000000000000000000008152600401610e0990612faa565b60405180910390fd5b60007f6e71edae12b1b97f4d1f60370fef10105fa2faae0126114a169c64845d6126c9888888610e418c611d07565b89604051602001610e5796959493929190612fd9565b6040516020818303038152906040528051906020012090506000610e7a82611d65565b90506000610e8a82878787611d7f565b90508973ffffffffffffffffffffffffffffffffffffffff168173ffffffffffffffffffffffffffffffffffffffff1614610efa576040517f08c379a0000000000000000000000000000000000000000000000000000000008152600401610ef190613086565b60405180910390fd5b610f058a8a8a61102b565b50505050505050505050565b610f1a82610757565b610f23816114f9565b610f2d838361162f565b505050565b6000603460008473ffffffffffffffffffffffffffffffffffffffff1673ffffffffffffffffffffffffffffffffffffffff16815260200190815260200160002060008373ffffffffffffffffffffffffffffffffffffffff1673ffffffffffffffffffffffffffffffffffffffff16815260200190815260200160002054905092915050565b60007f01ffc9a7000000000000000000000000000000000000000000000000000000007bffffffffffffffffffffffffffffffffffffffffffffffffffffffff1916827bffffffffffffffffffffffffffffffffffffffffffffffffffffffff1916149050919050565b600033905090565b600073ffffffffffffffffffffffffffffffffffffffff168373ffffffffffffffffffffffffffffffffffffffff160361109a576040517f08c379a000000000000000000000000000000000000000000000000000000000815260040161109190613118565b60405180910390fd5b600073ffffffffffffffffffffffffffffffffffffffff168273ffffffffffffffffffffffffffffffffffffffff1603611109576040517f08c379a0000000000000000000000000000000000000000000000000000000008152600401611100906131aa565b60405180910390fd5b80603460008573ffffffffffffffffffffffffffffffffffffffff1673ffffffffffffffffffffffffffffffffffffffff16815260200190815260200160002060008473ffffffffffffffffffffffffffffffffffffffff1673ffffffffffffffffffffffffffffffffffffffff168152602001908152602001600020819055508173ffffffffffffffffffffffffffffffffffffffff168373ffffffffffffffffffffffffffffffffffffffff167f8c5be1e5ebec7d5bd14f71427d1e84f3dd0314c0f7b2291e5b200ac8c7c3b925836040516111e79190612799565b60405180910390a3505050565b60006112008484610f32565b90507fffffffffffffffffffffffffffffffffffffffffffffffffffffffffffffffff811461127a578181101561126c576040517f08c379a000000000000000000000000000000000000000000000000000000000815260040161126390613216565b60405180910390fd5b611279848484840361102b565b5b50505050565b600073ffffffffffffffffffffffffffffffffffffffff168373ffffffffffffffffffffffffffffffffffffffff16036112ef576040517f08c379a00000000000000000000000000000000000000000000000000000000081526004016112e6906132a8565b60405180910390fd5b600073ffffffffffffffffffffffffffffffffffffffff168273ffffffffffffffffffffffffffffffffffffffff160361135e576040517f08c379a00000000000000000000000000000000000000000000000000000000081526004016113559061333a565b60405180910390fd5b611369838383611daa565b6000603360008573ffffffffffffffffffffffffffffffffffffffff1673ffffffffffffffffffffffffffffffffffffffff168152602001908152602001600020549050818110156113f0576040517f08c379a00000000000000000000000000000000000000000000000000000000081526004016113e7906133cc565b60405180910390fd5b818103603360008673ffffffffffffffffffffffffffffffffffffffff1673ffffffffffffffffffffffffffffffffffffffff1681526020019081526020016000208190555081603360008573ffffffffffffffffffffffffffffffffffffffff1673ffffffffffffffffffffffffffffffffffffffff168152602001908152602001600020600082825401925050819055508273ffffffffffffffffffffffffffffffffffffffff168473ffffffffffffffffffffffffffffffffffffffff167fddf252ad1be2c89b69c2b068fc378daa952ba7f163c4a11628f55a4df523b3ef846040516114e09190612799565b60405180910390a36114f3848484611daf565b50505050565b61150a81611505611023565b611db4565b50565b6115178282610bf2565b6115eb576001610130600084815260200190815260200160002060000160008373ffffffffffffffffffffffffffffffffffffffff1673ffffffffffffffffffffffffffffffffffffffff16815260200190815260200160002060006101000a81548160ff021916908315150217905550611590611023565b73ffffffffffffffffffffffffffffffffffffffff168173ffffffffffffffffffffffffffffffffffffffff16837f2f8788117e7eff1d82e926ec794901d17c78024a50270940304540a733656f0d60405160405180910390a45b5050565b600061162a7f8b73c3c69bb8fe3d512ecc4cf759cc79239f7b179b0ffacaa9a75d522b39400f61161d611e39565b611625611e43565b611e4d565b905090565b6116398282610bf2565b1561170e576000610130600084815260200190815260200160002060000160008373ffffffffffffffffffffffffffffffffffffffff1673ffffffffffffffffffffffffffffffffffffffff16815260200190815260200160002060006101000a81548160ff0219169083151502179055506116b3611023565b73ffffffffffffffffffffffffffffffffffffffff168173ffffffffffffffffffffffffffffffffffffffff16837ff6391f5c32d9c69d2a47ea670b442974b53935d1edc7fd64eb21e047a839171b60405160405180910390a45b5050565b600073ffffffffffffffffffffffffffffffffffffffff168273ffffffffffffffffffffffffffffffffffffffff1603611781576040517f08c379a000000000000000000000000000000000000000000000000000000000815260040161177890613438565b60405180910390fd5b61178d60008383611daa565b806035600082825461179f9190612d14565b9250508190555080603360008473ffffffffffffffffffffffffffffffffffffffff1673ffffffffffffffffffffffffffffffffffffffff168152602001908152602001600020600082825401925050819055508173ffffffffffffffffffffffffffffffffffffffff16600073ffffffffffffffffffffffffffffffffffffffff167fddf252ad1be2c89b69c2b068fc378daa952ba7f163c4a11628f55a4df523b3ef836040516118519190612799565b60405180910390a361186560008383611daf565b5050565b6000808273ffffffffffffffffffffffffffffffffffffffff163b119050919050565b600060019054906101000a900460ff166118db576040517f08c379a00000000000000000000000000000000000000000000000000000000081526004016118d290612eac565b60405180910390fd5b6118e58282611e87565b5050565b600060019054906101000a900460ff16611938576040517f08c379a000000000000000000000000000000000000000000000000000000000815260040161192f90612eac565b60405180910390fd5b611977816040518060400160405280600181526020017f3100000000000000000000000000000000000000000000000000000000000000815250611efa565b50565b600060019054906101000a900460ff166119c9576040517f08c379a00000000000000000000000000000000000000000000000000000000081526004016119c090612eac565b60405180910390fd5b6119d1611f75565b565b600060019054906101000a900460ff16611a22576040517f08c379a0000000000000000000000000000000000000000000000000000000008152600401611a1990612eac565b60405180910390fd5b565b600060019054906101000a900460ff16611a73576040517f08c379a0000000000000000000000000000000000000000000000000000000008152600401611a6a90612eac565b60405180910390fd5b611a7b611fe1565b565b60007fa49807205ce4d355092ef5a8a18f56e8913cf4a201fbe287825b095693c21775905090565b60007f65d7a28e3265b37a6474929f336521b332c1681b933f6cb9f3376673440d862a905090565b6000611ad883610757565b9050816101306000858152602001908152602001600020600101819055508181847fbd79b86ffe0ab8e8776151514217cd7cacd52c909f66475c3af44e129f0b00ff60405160405180910390a4505050565b600073ffffffffffffffffffffffffffffffffffffffff168273ffffffffffffffffffffffffffffffffffffffff1603611b99576040517f08c379a0000000000000000000000000000000000000000000000000000000008152600401611b90906134ca565b60405180910390fd5b611ba582600083611daa565b6000603360008473ffffffffffffffffffffffffffffffffffffffff1673ffffffffffffffffffffffffffffffffffffffff16815260200190815260200160002054905081811015611c2c576040517f08c379a0000000000000000000000000000000000000000000000000000000008152600401611c239061355c565b60405180910390fd5b818103603360008573ffffffffffffffffffffffffffffffffffffffff1673ffffffffffffffffffffffffffffffffffffffff1681526020019081526020016000208190555081603560008282540392505081905550600073ffffffffffffffffffffffffffffffffffffffff168373ffffffffffffffffffffffffffffffffffffffff167fddf252ad1be2c89b69c2b068fc378daa952ba7f163c4a11628f55a4df523b3ef84604051611ce09190612799565b60405180910390a3611cf483600084611daf565b505050565b600081600001549050919050565b600080609960008473ffffffffffffffffffffffffffffffffffffffff1673ffffffffffffffffffffffffffffffffffffffff1681526020019081526020016000209050611d5481611cf9565b9150611d5f8161203b565b50919050565b6000611d78611d726115ef565b83612051565b9050919050565b6000806000611d9087878787612084565b91509150611d9d81612166565b8192505050949350505050565b505050565b505050565b611dbe8282610bf2565b611e3557611dcb816122cc565b611dd98360001c60206122f9565b604051602001611dea929190613650565b6040516020818303038152906040526040517f08c379a0000000000000000000000000000000000000000000000000000000008152600401611e2c9190612694565b60405180910390fd5b5050565b6000606554905090565b6000606654905090565b60008383834630604051602001611e6895949392919061368a565b6040516020818303038152906040528051906020012090509392505050565b600060019054906101000a900460ff16611ed6576040517f08c379a0000000000000000000000000000000000000000000000000000000008152600401611ecd90612eac565b60405180910390fd5b8160369081611ee5919061387f565b508060379081611ef5919061387f565b505050565b600060019054906101000a900460ff16611f49576040517f08c379a0000000000000000000000000000000000000000000000000000000008152600401611f4090612eac565b60405180910390fd5b600082805190602001209050600082805190602001209050816065819055508060668190555050505050565b600060019054906101000a900460ff16611fc4576040517f08c379a0000000000000000000000000000000000000000000000000000000008152600401611fbb90612eac565b60405180910390fd5b600060cc60006101000a81548160ff021916908315150217905550565b600060019054906101000a900460ff16612030576040517f08c379a000000000000000000000000000000000000000000000000000000000815260040161202790612eac565b60405180910390fd5b600161016281905550565b6001816000016000828254019250508190555050565b600082826040516020016120669291906139be565b60405160208183030381529060405280519060200120905092915050565b6000807f7fffffffffffffffffffffffffffffff5d576e7357a4501ddfe92f46681b20a08360001c11156120bf57600060039150915061215d565b6000600187878787604051600081526020016040526040516120e494939291906139f5565b6020604051602081039080840390855afa158015612106573d6000803e3d6000fd5b505050602060405103519050600073ffffffffffffffffffffffffffffffffffffffff168173ffffffffffffffffffffffffffffffffffffffff16036121545760006001925092505061215d565b80600092509250505b94509492505050565b6000600481111561217a57612179613a3a565b5b81600481111561218d5761218c613a3a565b5b03156122c957600160048111156121a7576121a6613a3a565b5b8160048111156121ba576121b9613a3a565b5b036121fa576040517f08c379a00000000000000000000000000000000000000000000000000000000081526004016121f190613ab5565b60405180910390fd5b6002600481111561220e5761220d613a3a565b5b81600481111561222157612220613a3a565b5b03612261576040517f08c379a000000000000000000000000000000000000000000000000000000000815260040161225890613b21565b60405180910390fd5b6003600481111561227557612274613a3a565b5b81600481111561228857612287613a3a565b5b036122c8576040517f08c379a00000000000000000000000000000000000000000000000000000000081526004016122bf90613bb3565b60405180910390fd5b5b50565b60606122f28273ffffffffffffffffffffffffffffffffffffffff16601460ff166122f9565b9050919050565b60606000600283600261230c9190613bd3565b6123169190612d14565b67ffffffffffffffff81111561232f5761232e612915565b5b6040519080825280601f01601f1916602001820160405280156123615781602001600182028036833780820191505090505b5090507f30000000000000000000000000000000000000000000000000000000000000008160008151811061239957612398613c2d565b5b60200101907effffffffffffffffffffffffffffffffffffffffffffffffffffffffffffff1916908160001a9053507f7800000000000000000000000000000000000000000000000000000000000000816001815181106123fd576123fc613c2d565b5b60200101907effffffffffffffffffffffffffffffffffffffffffffffffffffffffffffff1916908160001a9053506000600184600261243d9190613bd3565b6124479190612d14565b90505b60018111156124e7577f3031323334353637383961626364656600000000000000000000000000000000600f86166010811061248957612488613c2d565b5b1a60f81b8282815181106124a05761249f613c2d565b5b60200101907effffffffffffffffffffffffffffffffffffffffffffffffffffffffffffff1916908160001a905350600485901c9450806124e090613c5c565b905061244a565b506000841461252b576040517f08c379a000000000000000000000000000000000000000000000000000000000815260040161252290613cd1565b60405180910390fd5b8091505092915050565b6000604051905090565b600080fd5b600080fd5b60007fffffffff0000000000000000000000000000000000000000000000000000000082169050919050565b61257e81612549565b811461258957600080fd5b50565b60008135905061259b81612575565b92915050565b6000602082840312156125b7576125b661253f565b5b60006125c58482850161258c565b91505092915050565b60008115159050919050565b6125e3816125ce565b82525050565b60006020820190506125fe60008301846125da565b92915050565b600081519050919050565b600082825260208201905092915050565b60005b8381101561263e578082015181840152602081019050612623565b60008484015250505050565b6000601f19601f8301169050919050565b600061266682612604565b612670818561260f565b9350612680818560208601612620565b6126898161264a565b840191505092915050565b600060208201905081810360008301526126ae818461265b565b905092915050565b600073ffffffffffffffffffffffffffffffffffffffff82169050919050565b60006126e1826126b6565b9050919050565b6126f1816126d6565b81146126fc57600080fd5b50565b60008135905061270e816126e8565b92915050565b6000819050919050565b61272781612714565b811461273257600080fd5b50565b6000813590506127448161271e565b92915050565b600080604083850312156127615761276061253f565b5b600061276f858286016126ff565b925050602061278085828601612735565b9150509250929050565b61279381612714565b82525050565b60006020820190506127ae600083018461278a565b92915050565b6000806000606084860312156127cd576127cc61253f565b5b60006127db868287016126ff565b93505060206127ec868287016126ff565b92505060406127fd86828701612735565b9150509250925092565b6000819050919050565b61281a81612807565b811461282557600080fd5b50565b60008135905061283781612811565b92915050565b6000602082840312156128535761285261253f565b5b600061286184828501612828565b91505092915050565b61287381612807565b82525050565b600060208201905061288e600083018461286a565b92915050565b600080604083850312156128ab576128aa61253f565b5b60006128b985828601612828565b92505060206128ca858286016126ff565b9150509250929050565b600060ff82169050919050565b6128ea816128d4565b82525050565b600060208201905061290560008301846128e1565b92915050565b600080fd5b600080fd5b7f4e487b7100000000000000000000000000000000000000000000000000000000600052604160045260246000fd5b61294d8261264a565b810181811067ffffffffffffffff8211171561296c5761296b612915565b5b80604052505050565b600061297f612535565b905061298b8282612944565b919050565b600067ffffffffffffffff8211156129ab576129aa612915565b5b6129b48261264a565b9050602081019050919050565b82818337600083830152505050565b60006129e36129de84612990565b612975565b9050828152602081018484840111156129ff576129fe612910565b5b612a0a8482856129c1565b509392505050565b600082601f830112612a2757612a2661290b565b5b8135612a378482602086016129d0565b91505092915050565b60008060408385031215612a5757612a5661253f565b5b600083013567ffffffffffffffff811115612a7557612a74612544565b5b612a8185828601612a12565b925050602083013567ffffffffffffffff811115612aa257612aa1612544565b5b612aae85828601612a12565b9150509250929050565b600060208284031215612ace57612acd61253f565b5b6000612adc848285016126ff565b91505092915050565b612aee816128d4565b8114612af957600080fd5b50565b600081359050612b0b81612ae5565b92915050565b600080600080600080600060e0888a031215612b3057612b2f61253f565b5b6000612b3e8a828b016126ff565b9750506020612b4f8a828b016126ff565b9650506040612b608a828b01612735565b9550506060612b718a828b01612735565b9450506080612b828a828b01612afc565b93505060a0612b938a828b01612828565b92505060c0612ba48a828b01612828565b91505092959891949750929550565b60008060408385031215612bca57612bc961253f565b5b6000612bd8858286016126ff565b9250506020612be9858286016126ff565b9150509250929050565b7f4e487b7100000000000000000000000000000000000000000000000000000000600052602260045260246000fd5b60006002820490506001821680612c3a57607f821691505b602082108103612c4d57612c4c612bf3565b5b50919050565b7f416363657373436f6e74726f6c3a2063616e206f6e6c792072656e6f756e636560008201527f20726f6c657320666f722073656c660000000000000000000000000000000000602082015250565b6000612caf602f8361260f565b9150612cba82612c53565b604082019050919050565b60006020820190508181036000830152612cde81612ca2565b9050919050565b7f4e487b7100000000000000000000000000000000000000000000000000000000600052601160045260246000fd5b6000612d1f82612714565b9150612d2a83612714565b9250828201905080821115612d4257612d41612ce5565b5b92915050565b7f496e697469616c697a61626c653a20636f6e747261637420697320616c72656160008201527f647920696e697469616c697a6564000000000000000000000000000000000000602082015250565b6000612da4602e8361260f565b9150612daf82612d48565b604082019050919050565b60006020820190508181036000830152612dd381612d97565b9050919050565b6000819050919050565b6000819050919050565b6000612e09612e04612dff84612dda565b612de4565b6128d4565b9050919050565b612e1981612dee565b82525050565b6000602082019050612e346000830184612e10565b92915050565b7f496e697469616c697a61626c653a20636f6e7472616374206973206e6f74206960008201527f6e697469616c697a696e67000000000000000000000000000000000000000000602082015250565b6000612e96602b8361260f565b9150612ea182612e3a565b604082019050919050565b60006020820190508181036000830152612ec581612e89565b9050919050565b7f45524332303a2064656372656173656420616c6c6f77616e63652062656c6f7760008201527f207a65726f000000000000000000000000000000000000000000000000000000602082015250565b6000612f2860258361260f565b9150612f3382612ecc565b604082019050919050565b60006020820190508181036000830152612f5781612f1b565b9050919050565b7f45524332305065726d69743a206578706972656420646561646c696e65000000600082015250565b6000612f94601d8361260f565b9150612f9f82612f5e565b602082019050919050565b60006020820190508181036000830152612fc381612f87565b9050919050565b612fd3816126d6565b82525050565b600060c082019050612fee600083018961286a565b612ffb6020830188612fca565b6130086040830187612fca565b613015606083018661278a565b613022608083018561278a565b61302f60a083018461278a565b979650505050505050565b7f45524332305065726d69743a20696e76616c6964207369676e61747572650000600082015250565b6000613070601e8361260f565b915061307b8261303a565b602082019050919050565b6000602082019050818103600083015261309f81613063565b9050919050565b7f45524332303a20617070726f76652066726f6d20746865207a65726f2061646460008201527f7265737300000000000000000000000000000000000000000000000000000000602082015250565b600061310260248361260f565b915061310d826130a6565b604082019050919050565b60006020820190508181036000830152613131816130f5565b9050919050565b7f45524332303a20617070726f766520746f20746865207a65726f20616464726560008201527f7373000000000000000000000000000000000000000000000000000000000000602082015250565b600061319460228361260f565b915061319f82613138565b604082019050919050565b600060208201905081810360008301526131c381613187565b9050919050565b7f45524332303a20696e73756666696369656e7420616c6c6f77616e6365000000600082015250565b6000613200601d8361260f565b915061320b826131ca565b602082019050919050565b6000602082019050818103600083015261322f816131f3565b9050919050565b7f45524332303a207472616e736665722066726f6d20746865207a65726f20616460008201527f6472657373000000000000000000000000000000000000000000000000000000602082015250565b600061329260258361260f565b915061329d82613236565b604082019050919050565b600060208201905081810360008301526132c181613285565b9050919050565b7f45524332303a207472616e7366657220746f20746865207a65726f206164647260008201527f6573730000000000000000000000000000000000000000000000000000000000602082015250565b600061332460238361260f565b915061332f826132c8565b604082019050919050565b6000602082019050818103600083015261335381613317565b9050919050565b7f45524332303a207472616e7366657220616d6f756e742065786365656473206260008201527f616c616e63650000000000000000000000000000000000000000000000000000602082015250565b60006133b660268361260f565b91506133c18261335a565b604082019050919050565b600060208201905081810360008301526133e5816133a9565b9050919050565b7f45524332303a206d696e7420746f20746865207a65726f206164647265737300600082015250565b6000613422601f8361260f565b915061342d826133ec565b602082019050919050565b6000602082019050818103600083015261345181613415565b9050919050565b7f45524332303a206275726e2066726f6d20746865207a65726f2061646472657360008201527f7300000000000000000000000000000000000000000000000000000000000000602082015250565b60006134b460218361260f565b91506134bf82613458565b604082019050919050565b600060208201905081810360008301526134e3816134a7565b9050919050565b7f45524332303a206275726e20616d6f756e7420657863656564732062616c616e60008201527f6365000000000000000000000000000000000000000000000000000000000000602082015250565b600061354660228361260f565b9150613551826134ea565b604082019050919050565b6000602082019050818103600083015261357581613539565b9050919050565b600081905092915050565b7f416363657373436f6e74726f6c3a206163636f756e7420000000000000000000600082015250565b60006135bd60178361357c565b91506135c882613587565b601782019050919050565b60006135de82612604565b6135e8818561357c565b93506135f8818560208601612620565b80840191505092915050565b7f206973206d697373696e6720726f6c6520000000000000000000000000000000600082015250565b600061363a60118361357c565b915061364582613604565b601182019050919050565b600061365b826135b0565b915061366782856135d3565b91506136728261362d565b915061367e82846135d3565b91508190509392505050565b600060a08201905061369f600083018861286a565b6136ac602083018761286a565b6136b9604083018661286a565b6136c6606083018561278a565b6136d36080830184612fca565b9695505050505050565b60008190508160005260206000209050919050565b60006020601f8301049050919050565b600082821b905092915050565b60006008830261373f7fffffffffffffffffffffffffffffffffffffffffffffffffffffffffffffffff82613702565b6137498683613702565b95508019841693508086168417925050509392505050565b600061377c61377761377284612714565b612de4565b612714565b9050919050565b6000819050919050565b61379683613761565b6137aa6137a282613783565b84845461370f565b825550505050565b600090565b6137bf6137b2565b6137ca81848461378d565b505050565b5b818110156137ee576137e36000826137b7565b6001810190506137d0565b5050565b601f82111561383357613804816136dd565b61380d846136f2565b8101602085101561381c578190505b613830613828856136f2565b8301826137cf565b50505b505050565b600082821c905092915050565b600061385660001984600802613838565b1980831691505092915050565b600061386f8383613845565b9150826002028217905092915050565b61388882612604565b67ffffffffffffffff8111156138a1576138a0612915565b5b6138ab8254612c22565b6138b68282856137f2565b600060209050601f8311600181146138e957600084156138d7578287015190505b6138e18582613863565b865550613949565b601f1984166138f7866136dd565b60005b8281101561391f578489015182556001820191506020850194506020810190506138fa565b8683101561393c5784890151613938601f891682613845565b8355505b6001600288020188555050505b505050505050565b7f1901000000000000000000000000000000000000000000000000000000000000600082015250565b600061398760028361357c565b915061399282613951565b600282019050919050565b6000819050919050565b6139b86139b382612807565b61399d565b82525050565b60006139c98261397a565b91506139d582856139a7565b6020820191506139e582846139a7565b6020820191508190509392505050565b6000608082019050613a0a600083018761286a565b613a1760208301866128e1565b613a24604083018561286a565b613a31606083018461286a565b95945050505050565b7f4e487b7100000000000000000000000000000000000000000000000000000000600052602160045260246000fd5b7f45434453413a20696e76616c6964207369676e61747572650000000000000000600082015250565b6000613a9f60188361260f565b9150613aaa82613a69565b602082019050919050565b60006020820190508181036000830152613ace81613a92565b9050919050565b7f45434453413a20696e76616c6964207369676e6174757265206c656e67746800600082015250565b6000613b0b601f8361260f565b9150613b1682613ad5565b602082019050919050565b60006020820190508181036000830152613b3a81613afe565b9050919050565b7f45434453413a20696e76616c6964207369676e6174757265202773272076616c60008201527f7565000000000000000000000000000000000000000000000000000000000000602082015250565b6000613b9d60228361260f565b9150613ba882613b41565b604082019050919050565b60006020820190508181036000830152613bcc81613b90565b9050919050565b6000613bde82612714565b9150613be983612714565b9250817fffffffffffffffffffffffffffffffffffffffffffffffffffffffffffffffff0483118215151615613c2257613c21612ce5565b5b828202905092915050565b7f4e487b7100000000000000000000000000000000000000000000000000000000600052603260045260246000fd5b6000613c6782612714565b915060008203613c7a57613c79612ce5565b5b600182039050919050565b7f537472696e67733a20686578206c656e67746820696e73756666696369656e74600082015250565b6000613cbb60208361260f565b9150613cc682613c85565b602082019050919050565b60006020820190508181036000830152613cea81613cae565b905091905056fea2646970667358221220400b934247efa84da136af70b3a5f298f438ef7b2581ded8078c6fc37cbe1da664736f6c63430008100033",
  "linkReferences": {},
  "deployedLinkReferences": {}
}