{
  "_format": "hh-sol-artifact-1",
  "contractName": "SZT",
  "sourceName": "contracts/core/token/SZTERC20.sol",
  "abi": [
    {
      "inputs": [],
      "name": "BaseUpgradeablePausable__ZeroAddressError",
      "type": "error"
    },
    {
      "anonymous": false,
      "inputs": [
        {
          "indexed": true,
          "internalType": "address",
          "name": "owner",
          "type": "address"
        },
        {
          "indexed": true,
          "internalType": "address",
          "name": "spender",
          "type": "address"
        },
        {
          "indexed": false,
          "internalType": "uint256",
          "name": "value",
          "type": "uint256"
        }
      ],
      "name": "Approval",
      "type": "event"
    },
    {
      "anonymous": false,
      "inputs": [
        {
          "indexed": false,
          "internalType": "uint8",
          "name": "version",
          "type": "uint8"
        }
      ],
      "name": "Initialized",
      "type": "event"
    },
    {
      "anonymous": false,
      "inputs": [
        {
          "indexed": false,
          "internalType": "address",
          "name": "account",
          "type": "address"
        }
      ],
      "name": "Paused",
      "type": "event"
    },
    {
      "anonymous": false,
      "inputs": [
        {
          "indexed": true,
          "internalType": "bytes32",
          "name": "role",
          "type": "bytes32"
        },
        {
          "indexed": true,
          "internalType": "bytes32",
          "name": "previousAdminRole",
          "type": "bytes32"
        },
        {
          "indexed": true,
          "internalType": "bytes32",
          "name": "newAdminRole",
          "type": "bytes32"
        }
      ],
      "name": "RoleAdminChanged",
      "type": "event"
    },
    {
      "anonymous": false,
      "inputs": [
        {
          "indexed": true,
          "internalType": "bytes32",
          "name": "role",
          "type": "bytes32"
        },
        {
          "indexed": true,
          "internalType": "address",
          "name": "account",
          "type": "address"
        },
        {
          "indexed": true,
          "internalType": "address",
          "name": "sender",
          "type": "address"
        }
      ],
      "name": "RoleGranted",
      "type": "event"
    },
    {
      "anonymous": false,
      "inputs": [
        {
          "indexed": true,
          "internalType": "bytes32",
          "name": "role",
          "type": "bytes32"
        },
        {
          "indexed": true,
          "internalType": "address",
          "name": "account",
          "type": "address"
        },
        {
          "indexed": true,
          "internalType": "address",
          "name": "sender",
          "type": "address"
        }
      ],
      "name": "RoleRevoked",
      "type": "event"
    },
    {
      "anonymous": false,
      "inputs": [
        {
          "indexed": true,
          "internalType": "address",
          "name": "from",
          "type": "address"
        },
        {
          "indexed": true,
          "internalType": "address",
          "name": "to",
          "type": "address"
        },
        {
          "indexed": false,
          "internalType": "uint256",
          "name": "value",
          "type": "uint256"
        }
      ],
      "name": "Transfer",
      "type": "event"
    },
    {
      "anonymous": false,
      "inputs": [
        {
          "indexed": false,
          "internalType": "address",
          "name": "account",
          "type": "address"
        }
      ],
      "name": "Unpaused",
      "type": "event"
    },
    {
      "inputs": [],
      "name": "DEFAULT_ADMIN_ROLE",
      "outputs": [
        {
          "internalType": "bytes32",
          "name": "",
          "type": "bytes32"
        }
      ],
      "stateMutability": "view",
      "type": "function"
    },
    {
      "inputs": [],
      "name": "DOMAIN_SEPARATOR",
      "outputs": [
        {
          "internalType": "bytes32",
          "name": "",
          "type": "bytes32"
        }
      ],
      "stateMutability": "view",
      "type": "function"
    },
    {
      "inputs": [
        {
          "internalType": "address",
          "name": "owner",
          "type": "address"
        }
      ],
      "name": "__BaseUpgradeablePausable_init",
      "outputs": [],
      "stateMutability": "nonpayable",
      "type": "function"
    },
    {
      "inputs": [
        {
          "internalType": "address",
          "name": "owner",
          "type": "address"
        },
        {
          "internalType": "address",
          "name": "spender",
          "type": "address"
        }
      ],
      "name": "allowance",
      "outputs": [
        {
          "internalType": "uint256",
          "name": "",
          "type": "uint256"
        }
      ],
      "stateMutability": "view",
      "type": "function"
    },
    {
      "inputs": [
        {
          "internalType": "address",
          "name": "spender",
          "type": "address"
        },
        {
          "internalType": "uint256",
          "name": "amount",
          "type": "uint256"
        }
      ],
      "name": "approve",
      "outputs": [
        {
          "internalType": "bool",
          "name": "",
          "type": "bool"
        }
      ],
      "stateMutability": "nonpayable",
      "type": "function"
    },
    {
      "inputs": [
        {
          "internalType": "address",
          "name": "account",
          "type": "address"
        }
      ],
      "name": "balanceOf",
      "outputs": [
        {
          "internalType": "uint256",
          "name": "",
          "type": "uint256"
        }
      ],
      "stateMutability": "view",
      "type": "function"
    },
    {
      "inputs": [],
      "name": "decimals",
      "outputs": [
        {
          "internalType": "uint8",
          "name": "",
          "type": "uint8"
        }
      ],
      "stateMutability": "view",
      "type": "function"
    },
    {
      "inputs": [
        {
          "internalType": "address",
          "name": "spender",
          "type": "address"
        },
        {
          "internalType": "uint256",
          "name": "subtractedValue",
          "type": "uint256"
        }
      ],
      "name": "decreaseAllowance",
      "outputs": [
        {
          "internalType": "bool",
          "name": "",
          "type": "bool"
        }
      ],
      "stateMutability": "nonpayable",
      "type": "function"
    },
    {
      "inputs": [
        {
          "internalType": "bytes32",
          "name": "role",
          "type": "bytes32"
        }
      ],
      "name": "getRoleAdmin",
      "outputs": [
        {
          "internalType": "bytes32",
          "name": "",
          "type": "bytes32"
        }
      ],
      "stateMutability": "view",
      "type": "function"
    },
    {
      "inputs": [
        {
          "internalType": "bytes32",
          "name": "role",
          "type": "bytes32"
        },
        {
          "internalType": "address",
          "name": "account",
          "type": "address"
        }
      ],
      "name": "grantRole",
      "outputs": [],
      "stateMutability": "nonpayable",
      "type": "function"
    },
    {
      "inputs": [
        {
          "internalType": "bytes32",
          "name": "role",
          "type": "bytes32"
        },
        {
          "internalType": "address",
          "name": "account",
          "type": "address"
        }
      ],
      "name": "hasRole",
      "outputs": [
        {
          "internalType": "bool",
          "name": "",
          "type": "bool"
        }
      ],
      "stateMutability": "view",
      "type": "function"
    },
    {
      "inputs": [
        {
          "internalType": "address",
          "name": "spender",
          "type": "address"
        },
        {
          "internalType": "uint256",
          "name": "addedValue",
          "type": "uint256"
        }
      ],
      "name": "increaseAllowance",
      "outputs": [
        {
          "internalType": "bool",
          "name": "",
          "type": "bool"
        }
      ],
      "stateMutability": "nonpayable",
      "type": "function"
    },
    {
      "inputs": [
        {
          "internalType": "address",
          "name": "buySellContractAddress",
          "type": "address"
        }
      ],
      "name": "initialize",
      "outputs": [],
      "stateMutability": "nonpayable",
      "type": "function"
    },
    {
      "inputs": [],
      "name": "isAdmin",
      "outputs": [
        {
          "internalType": "bool",
          "name": "",
          "type": "bool"
        }
      ],
      "stateMutability": "view",
      "type": "function"
    },
    {
      "inputs": [],
      "name": "isModerator",
      "outputs": [
        {
          "internalType": "bool",
          "name": "",
          "type": "bool"
        }
      ],
      "stateMutability": "view",
      "type": "function"
    },
    {
      "inputs": [],
      "name": "name",
      "outputs": [
        {
          "internalType": "string",
          "name": "",
          "type": "string"
        }
      ],
      "stateMutability": "view",
      "type": "function"
    },
    {
      "inputs": [
        {
          "internalType": "address",
          "name": "owner",
          "type": "address"
        }
      ],
      "name": "nonces",
      "outputs": [
        {
          "internalType": "uint256",
          "name": "",
          "type": "uint256"
        }
      ],
      "stateMutability": "view",
      "type": "function"
    },
    {
      "inputs": [],
      "name": "pause",
      "outputs": [],
      "stateMutability": "nonpayable",
      "type": "function"
    },
    {
      "inputs": [],
      "name": "paused",
      "outputs": [
        {
          "internalType": "bool",
          "name": "",
          "type": "bool"
        }
      ],
      "stateMutability": "view",
      "type": "function"
    },
    {
      "inputs": [
        {
          "internalType": "address",
          "name": "owner",
          "type": "address"
        },
        {
          "internalType": "address",
          "name": "spender",
          "type": "address"
        },
        {
          "internalType": "uint256",
          "name": "value",
          "type": "uint256"
        },
        {
          "internalType": "uint256",
          "name": "deadline",
          "type": "uint256"
        },
        {
          "internalType": "uint8",
          "name": "v",
          "type": "uint8"
        },
        {
          "internalType": "bytes32",
          "name": "r",
          "type": "bytes32"
        },
        {
          "internalType": "bytes32",
          "name": "s",
          "type": "bytes32"
        }
      ],
      "name": "permit",
      "outputs": [],
      "stateMutability": "nonpayable",
      "type": "function"
    },
    {
      "inputs": [
        {
          "internalType": "bytes32",
          "name": "role",
          "type": "bytes32"
        },
        {
          "internalType": "address",
          "name": "account",
          "type": "address"
        }
      ],
      "name": "renounceRole",
      "outputs": [],
      "stateMutability": "nonpayable",
      "type": "function"
    },
    {
      "inputs": [
        {
          "internalType": "bytes32",
          "name": "role",
          "type": "bytes32"
        },
        {
          "internalType": "address",
          "name": "account",
          "type": "address"
        }
      ],
      "name": "revokeRole",
      "outputs": [],
      "stateMutability": "nonpayable",
      "type": "function"
    },
    {
      "inputs": [
        {
          "internalType": "bytes4",
          "name": "interfaceId",
          "type": "bytes4"
        }
      ],
      "name": "supportsInterface",
      "outputs": [
        {
          "internalType": "bool",
          "name": "",
          "type": "bool"
        }
      ],
      "stateMutability": "view",
      "type": "function"
    },
    {
      "inputs": [],
      "name": "symbol",
      "outputs": [
        {
          "internalType": "string",
          "name": "",
          "type": "string"
        }
      ],
      "stateMutability": "view",
      "type": "function"
    },
    {
      "inputs": [],
      "name": "totalSupply",
      "outputs": [
        {
          "internalType": "uint256",
          "name": "",
          "type": "uint256"
        }
      ],
      "stateMutability": "view",
      "type": "function"
    },
    {
      "inputs": [
        {
          "internalType": "address",
          "name": "to",
          "type": "address"
        },
        {
          "internalType": "uint256",
          "name": "amount",
          "type": "uint256"
        }
      ],
      "name": "transfer",
      "outputs": [
        {
          "internalType": "bool",
          "name": "",
          "type": "bool"
        }
      ],
      "stateMutability": "nonpayable",
      "type": "function"
    },
    {
      "inputs": [
        {
          "internalType": "address",
          "name": "from",
          "type": "address"
        },
        {
          "internalType": "address",
          "name": "to",
          "type": "address"
        },
        {
          "internalType": "uint256",
          "name": "amount",
          "type": "uint256"
        }
      ],
      "name": "transferFrom",
      "outputs": [
        {
          "internalType": "bool",
          "name": "",
          "type": "bool"
        }
      ],
      "stateMutability": "nonpayable",
      "type": "function"
    },
    {
      "inputs": [],
      "name": "unpause",
      "outputs": [],
      "stateMutability": "nonpayable",
      "type": "function"
    }
  ],
  "bytecode": "0x608060405234801561001057600080fd5b50613c35806100206000396000f3fe608060405234801561001057600080fd5b50600436106101c45760003560e01c806370a08231116100f9578063a9059cbb11610097578063c4d66de811610071578063c4d66de81461051f578063d505accf1461053b578063d547741f14610557578063dd62ed3e14610573576101c4565b8063a9059cbb146104b3578063aeabaff3146104e3578063b6db75a014610501576101c4565b806391d14854116100d357806391d148541461041757806395d89b4114610447578063a217fddf14610465578063a457c2d714610483576101c4565b806370a08231146103ad5780637ecebe00146103dd5780638456cb591461040d576101c4565b8063313ce56711610166578063395093511161014057806339509351146103395780633f4ba83a146103695780635c975abb146103735780636e810b1a14610391576101c4565b8063313ce567146102e15780633644e515146102ff57806336568abe1461031d576101c4565b806318160ddd116101a257806318160ddd1461024757806323b872dd14610265578063248a9ca3146102955780632f2ff15d146102c5576101c4565b806301ffc9a7146101c957806306fdde03146101f9578063095ea7b314610217575b600080fd5b6101e360048036038101906101de91906125cc565b6105a3565b6040516101f09190612614565b60405180910390f35b61020161061d565b60405161020e91906126bf565b60405180910390f35b610231600480360381019061022c9190612775565b6106af565b60405161023e9190612614565b60405180910390f35b61024f6106d2565b60405161025c91906127c4565b60405180910390f35b61027f600480360381019061027a91906127df565b6106dc565b60405161028c9190612614565b60405180910390f35b6102af60048036038101906102aa9190612868565b61070b565b6040516102bc91906128a4565b60405180910390f35b6102df60048036038101906102da91906128bf565b61072c565b005b6102e961074d565b6040516102f6919061291b565b60405180910390f35b610307610756565b60405161031491906128a4565b60405180910390f35b610337600480360381019061033291906128bf565b610765565b005b610353600480360381019061034e9190612775565b6107e8565b6040516103609190612614565b60405180910390f35b61037161081f565b005b61037b610870565b6040516103889190612614565b60405180910390f35b6103ab60048036038101906103a69190612936565b610887565b005b6103c760048036038101906103c29190612936565b6109a9565b6040516103d491906127c4565b60405180910390f35b6103f760048036038101906103f29190612936565b6109f2565b60405161040491906127c4565b60405180910390f35b610415610a42565b005b610431600480360381019061042c91906128bf565b610a93565b60405161043e9190612614565b60405180910390f35b61044f610aff565b60405161045c91906126bf565b60405180910390f35b61046d610b91565b60405161047a91906128a4565b60405180910390f35b61049d60048036038101906104989190612775565b610b98565b6040516104aa9190612614565b60405180910390f35b6104cd60048036038101906104c89190612775565b610c0f565b6040516104da9190612614565b60405180910390f35b6104eb610c32565b6040516104f89190612614565b60405180910390f35b610509610c51565b6040516105169190612614565b60405180910390f35b61053960048036038101906105349190612936565b610c70565b005b6105556004803603810190610550919061298f565b610e7f565b005b610571600480360381019061056c91906128bf565b610fc1565b005b61058d60048036038101906105889190612a31565b610fe2565b60405161059a91906127c4565b60405180910390f35b60007f7965db0b000000000000000000000000000000000000000000000000000000007bffffffffffffffffffffffffffffffffffffffffffffffffffffffff1916827bffffffffffffffffffffffffffffffffffffffffffffffffffffffff19161480610616575061061582611069565b5b9050919050565b60606036805461062c90612aa0565b80601f016020809104026020016040519081016040528092919081815260200182805461065890612aa0565b80156106a55780601f1061067a576101008083540402835291602001916106a5565b820191906000526020600020905b81548152906001019060200180831161068857829003601f168201915b5050505050905090565b6000806106ba6110d3565b90506106c78185856110db565b600191505092915050565b6000603554905090565b6000806106e76110d3565b90506106f48582856112a4565b6106ff858585611330565b60019150509392505050565b60006101306000838152602001908152602001600020600101549050919050565b6107358261070b565b61073e816115a9565b61074883836115bd565b505050565b60006012905090565b600061076061169f565b905090565b61076d6110d3565b73ffffffffffffffffffffffffffffffffffffffff168173ffffffffffffffffffffffffffffffffffffffff16146107da576040517f08c379a00000000000000000000000000000000000000000000000000000000081526004016107d190612b43565b60405180910390fd5b6107e482826116df565b5050565b6000806107f36110d3565b90506108148185856108058589610fe2565b61080f9190612b92565b6110db565b600191505092915050565b610827610c51565b610866576040517f08c379a000000000000000000000000000000000000000000000000000000000815260040161085d90612c38565b60405180910390fd5b61086e6117c2565b565b600060cc60009054906101000a900460ff16905090565b600060019054906101000a900460ff166108d6576040517f08c379a00000000000000000000000000000000000000000000000000000000081526004016108cd90612cca565b60405180910390fd5b600073ffffffffffffffffffffffffffffffffffffffff168173ffffffffffffffffffffffffffffffffffffffff160361093c576040517f5415139400000000000000000000000000000000000000000000000000000000815260040160405180910390fd5b610944611825565b61094c61187e565b6109546118cf565b61096561095f611928565b826115bd565b610976610970611950565b826115bd565b61098e610981611950565b610989611928565b611978565b6109a6610999611928565b6109a1611928565b611978565b50565b6000603360008373ffffffffffffffffffffffffffffffffffffffff1673ffffffffffffffffffffffffffffffffffffffff168152602001908152602001600020549050919050565b6000610a3b609960008473ffffffffffffffffffffffffffffffffffffffff1673ffffffffffffffffffffffffffffffffffffffff1681526020019081526020016000206119d5565b9050919050565b610a4a610c51565b610a89576040517f08c379a0000000000000000000000000000000000000000000000000000000008152600401610a8090612c38565b60405180910390fd5b610a916119e3565b565b6000610130600084815260200190815260200160002060000160008373ffffffffffffffffffffffffffffffffffffffff1673ffffffffffffffffffffffffffffffffffffffff16815260200190815260200160002060009054906101000a900460ff16905092915050565b606060378054610b0e90612aa0565b80601f0160208091040260200160405190810160405280929190818152602001828054610b3a90612aa0565b8015610b875780601f10610b5c57610100808354040283529160200191610b87565b820191906000526020600020905b815481529060010190602001808311610b6a57829003601f168201915b5050505050905090565b6000801b81565b600080610ba36110d3565b90506000610bb18286610fe2565b905083811015610bf6576040517f08c379a0000000000000000000000000000000000000000000000000000000008152600401610bed90612d5c565b60405180910390fd5b610c0382868684036110db565b60019250505092915050565b600080610c1a6110d3565b9050610c27818585611330565b600191505092915050565b6000610c4c610c3f611950565b610c476110d3565b610a93565b905090565b6000610c6b610c5e611928565b610c666110d3565b610a93565b905090565b60008060019054906101000a900460ff16159050808015610ca15750600160008054906101000a900460ff1660ff16105b80610cce5750610cb030611a46565b158015610ccd5750600160008054906101000a900460ff1660ff16145b5b610d0d576040517f08c379a0000000000000000000000000000000000000000000000000000000008152600401610d0490612dee565b60405180910390fd5b60016000806101000a81548160ff021916908360ff1602179055508015610d4a576001600060016101000a81548160ff0219169083151502179055505b610dbe6040518060400160405280600d81526020017f536166655a656e20546f6b656e000000000000000000000000000000000000008152506040518060400160405280600381526020017f535a540000000000000000000000000000000000000000000000000000000000815250611a69565b610dfc6040518060400160405280600381526020017f535a540000000000000000000000000000000000000000000000000000000000815250611ac6565b610e0c610e076110d3565b610887565b610e22826b43dacaf91c1a84ff08000000611b57565b8015610e7b5760008060016101000a81548160ff0219169083151502179055507f7f26b83ff96e1f2b6a682f133852f6798a09c465da95921460cefb38474024986001604051610e729190612e53565b60405180910390a15b5050565b83421115610ec2576040517f08c379a0000000000000000000000000000000000000000000000000000000008152600401610eb990612eba565b60405180910390fd5b60007f6e71edae12b1b97f4d1f60370fef10105fa2faae0126114a169c64845d6126c9888888610ef18c611cae565b89604051602001610f0796959493929190612ee9565b6040516020818303038152906040528051906020012090506000610f2a82611d0c565b90506000610f3a82878787611d26565b90508973ffffffffffffffffffffffffffffffffffffffff168173ffffffffffffffffffffffffffffffffffffffff1614610faa576040517f08c379a0000000000000000000000000000000000000000000000000000000008152600401610fa190612f96565b60405180910390fd5b610fb58a8a8a6110db565b50505050505050505050565b610fca8261070b565b610fd3816115a9565b610fdd83836116df565b505050565b6000603460008473ffffffffffffffffffffffffffffffffffffffff1673ffffffffffffffffffffffffffffffffffffffff16815260200190815260200160002060008373ffffffffffffffffffffffffffffffffffffffff1673ffffffffffffffffffffffffffffffffffffffff16815260200190815260200160002054905092915050565b60007f01ffc9a7000000000000000000000000000000000000000000000000000000007bffffffffffffffffffffffffffffffffffffffffffffffffffffffff1916827bffffffffffffffffffffffffffffffffffffffffffffffffffffffff1916149050919050565b600033905090565b600073ffffffffffffffffffffffffffffffffffffffff168373ffffffffffffffffffffffffffffffffffffffff160361114a576040517f08c379a000000000000000000000000000000000000000000000000000000000815260040161114190613028565b60405180910390fd5b600073ffffffffffffffffffffffffffffffffffffffff168273ffffffffffffffffffffffffffffffffffffffff16036111b9576040517f08c379a00000000000000000000000000000000000000000000000000000000081526004016111b0906130ba565b60405180910390fd5b80603460008573ffffffffffffffffffffffffffffffffffffffff1673ffffffffffffffffffffffffffffffffffffffff16815260200190815260200160002060008473ffffffffffffffffffffffffffffffffffffffff1673ffffffffffffffffffffffffffffffffffffffff168152602001908152602001600020819055508173ffffffffffffffffffffffffffffffffffffffff168373ffffffffffffffffffffffffffffffffffffffff167f8c5be1e5ebec7d5bd14f71427d1e84f3dd0314c0f7b2291e5b200ac8c7c3b9258360405161129791906127c4565b60405180910390a3505050565b60006112b08484610fe2565b90507fffffffffffffffffffffffffffffffffffffffffffffffffffffffffffffffff811461132a578181101561131c576040517f08c379a000000000000000000000000000000000000000000000000000000000815260040161131390613126565b60405180910390fd5b61132984848484036110db565b5b50505050565b600073ffffffffffffffffffffffffffffffffffffffff168373ffffffffffffffffffffffffffffffffffffffff160361139f576040517f08c379a0000000000000000000000000000000000000000000000000000000008152600401611396906131b8565b60405180910390fd5b600073ffffffffffffffffffffffffffffffffffffffff168273ffffffffffffffffffffffffffffffffffffffff160361140e576040517f08c379a00000000000000000000000000000000000000000000000000000000081526004016114059061324a565b60405180910390fd5b611419838383611d51565b6000603360008573ffffffffffffffffffffffffffffffffffffffff1673ffffffffffffffffffffffffffffffffffffffff168152602001908152602001600020549050818110156114a0576040517f08c379a0000000000000000000000000000000000000000000000000000000008152600401611497906132dc565b60405180910390fd5b818103603360008673ffffffffffffffffffffffffffffffffffffffff1673ffffffffffffffffffffffffffffffffffffffff1681526020019081526020016000208190555081603360008573ffffffffffffffffffffffffffffffffffffffff1673ffffffffffffffffffffffffffffffffffffffff168152602001908152602001600020600082825401925050819055508273ffffffffffffffffffffffffffffffffffffffff168473ffffffffffffffffffffffffffffffffffffffff167fddf252ad1be2c89b69c2b068fc378daa952ba7f163c4a11628f55a4df523b3ef8460405161159091906127c4565b60405180910390a36115a3848484611d56565b50505050565b6115ba816115b56110d3565b611d5b565b50565b6115c78282610a93565b61169b576001610130600084815260200190815260200160002060000160008373ffffffffffffffffffffffffffffffffffffffff1673ffffffffffffffffffffffffffffffffffffffff16815260200190815260200160002060006101000a81548160ff0219169083151502179055506116406110d3565b73ffffffffffffffffffffffffffffffffffffffff168173ffffffffffffffffffffffffffffffffffffffff16837f2f8788117e7eff1d82e926ec794901d17c78024a50270940304540a733656f0d60405160405180910390a45b5050565b60006116da7f8b73c3c69bb8fe3d512ecc4cf759cc79239f7b179b0ffacaa9a75d522b39400f6116cd611de0565b6116d5611dea565b611df4565b905090565b6116e98282610a93565b156117be576000610130600084815260200190815260200160002060000160008373ffffffffffffffffffffffffffffffffffffffff1673ffffffffffffffffffffffffffffffffffffffff16815260200190815260200160002060006101000a81548160ff0219169083151502179055506117636110d3565b73ffffffffffffffffffffffffffffffffffffffff168173ffffffffffffffffffffffffffffffffffffffff16837ff6391f5c32d9c69d2a47ea670b442974b53935d1edc7fd64eb21e047a839171b60405160405180910390a45b5050565b6117ca611e2e565b600060cc60006101000a81548160ff0219169083151502179055507f5db9ee0a495bf2e6ff9c91a7834c1ba4fdd244a5e8aa4e537bd38aeae4b073aa61180e6110d3565b60405161181b91906132fc565b60405180910390a1565b600060019054906101000a900460ff16611874576040517f08c379a000000000000000000000000000000000000000000000000000000000815260040161186b90612cca565b60405180910390fd5b61187c611e77565b565b600060019054906101000a900460ff166118cd576040517f08c379a00000000000000000000000000000000000000000000000000000000081526004016118c490612cca565b60405180910390fd5b565b600060019054906101000a900460ff1661191e576040517f08c379a000000000000000000000000000000000000000000000000000000000815260040161191590612cca565b60405180910390fd5b611926611ee3565b565b60007fa49807205ce4d355092ef5a8a18f56e8913cf4a201fbe287825b095693c21775905090565b60007f65d7a28e3265b37a6474929f336521b332c1681b933f6cb9f3376673440d862a905090565b60006119838361070b565b9050816101306000858152602001908152602001600020600101819055508181847fbd79b86ffe0ab8e8776151514217cd7cacd52c909f66475c3af44e129f0b00ff60405160405180910390a4505050565b600081600001549050919050565b6119eb611f3d565b600160cc60006101000a81548160ff0219169083151502179055507f62e78cea01bee320cd4e420270b5ea74000d11b0c9f74754ebdbfc544b05a258611a2f6110d3565b604051611a3c91906132fc565b60405180910390a1565b6000808273ffffffffffffffffffffffffffffffffffffffff163b119050919050565b600060019054906101000a900460ff16611ab8576040517f08c379a0000000000000000000000000000000000000000000000000000000008152600401611aaf90612cca565b60405180910390fd5b611ac28282611f87565b5050565b600060019054906101000a900460ff16611b15576040517f08c379a0000000000000000000000000000000000000000000000000000000008152600401611b0c90612cca565b60405180910390fd5b611b54816040518060400160405280600181526020017f3100000000000000000000000000000000000000000000000000000000000000815250611ffa565b50565b600073ffffffffffffffffffffffffffffffffffffffff168273ffffffffffffffffffffffffffffffffffffffff1603611bc6576040517f08c379a0000000000000000000000000000000000000000000000000000000008152600401611bbd90613363565b60405180910390fd5b611bd260008383611d51565b8060356000828254611be49190612b92565b9250508190555080603360008473ffffffffffffffffffffffffffffffffffffffff1673ffffffffffffffffffffffffffffffffffffffff168152602001908152602001600020600082825401925050819055508173ffffffffffffffffffffffffffffffffffffffff16600073ffffffffffffffffffffffffffffffffffffffff167fddf252ad1be2c89b69c2b068fc378daa952ba7f163c4a11628f55a4df523b3ef83604051611c9691906127c4565b60405180910390a3611caa60008383611d56565b5050565b600080609960008473ffffffffffffffffffffffffffffffffffffffff1673ffffffffffffffffffffffffffffffffffffffff1681526020019081526020016000209050611cfb816119d5565b9150611d0681612075565b50919050565b6000611d1f611d1961169f565b8361208b565b9050919050565b6000806000611d37878787876120be565b91509150611d44816121a0565b8192505050949350505050565b505050565b505050565b611d658282610a93565b611ddc57611d7281612306565b611d808360001c6020612333565b604051602001611d91929190613457565b6040516020818303038152906040526040517f08c379a0000000000000000000000000000000000000000000000000000000008152600401611dd391906126bf565b60405180910390fd5b5050565b6000606554905090565b6000606654905090565b60008383834630604051602001611e0f959493929190613491565b6040516020818303038152906040528051906020012090509392505050565b611e36610870565b611e75576040517f08c379a0000000000000000000000000000000000000000000000000000000008152600401611e6c90613530565b60405180910390fd5b565b600060019054906101000a900460ff16611ec6576040517f08c379a0000000000000000000000000000000000000000000000000000000008152600401611ebd90612cca565b60405180910390fd5b600060cc60006101000a81548160ff021916908315150217905550565b600060019054906101000a900460ff16611f32576040517f08c379a0000000000000000000000000000000000000000000000000000000008152600401611f2990612cca565b60405180910390fd5b600161016281905550565b611f45610870565b15611f85576040517f08c379a0000000000000000000000000000000000000000000000000000000008152600401611f7c9061359c565b60405180910390fd5b565b600060019054906101000a900460ff16611fd6576040517f08c379a0000000000000000000000000000000000000000000000000000000008152600401611fcd90612cca565b60405180910390fd5b8160369081611fe5919061378d565b508060379081611ff5919061378d565b505050565b600060019054906101000a900460ff16612049576040517f08c379a000000000000000000000000000000000000000000000000000000000815260040161204090612cca565b60405180910390fd5b600082805190602001209050600082805190602001209050816065819055508060668190555050505050565b6001816000016000828254019250508190555050565b600082826040516020016120a09291906138cc565b60405160208183030381529060405280519060200120905092915050565b6000807f7fffffffffffffffffffffffffffffff5d576e7357a4501ddfe92f46681b20a08360001c11156120f9576000600391509150612197565b60006001878787876040516000815260200160405260405161211e9493929190613903565b6020604051602081039080840390855afa158015612140573d6000803e3d6000fd5b505050602060405103519050600073ffffffffffffffffffffffffffffffffffffffff168173ffffffffffffffffffffffffffffffffffffffff160361218e57600060019250925050612197565b80600092509250505b94509492505050565b600060048111156121b4576121b3613948565b5b8160048111156121c7576121c6613948565b5b031561230357600160048111156121e1576121e0613948565b5b8160048111156121f4576121f3613948565b5b03612234576040517f08c379a000000000000000000000000000000000000000000000000000000000815260040161222b906139c3565b60405180910390fd5b6002600481111561224857612247613948565b5b81600481111561225b5761225a613948565b5b0361229b576040517f08c379a000000000000000000000000000000000000000000000000000000000815260040161229290613a2f565b60405180910390fd5b600360048111156122af576122ae613948565b5b8160048111156122c2576122c1613948565b5b03612302576040517f08c379a00000000000000000000000000000000000000000000000000000000081526004016122f990613ac1565b60405180910390fd5b5b50565b606061232c8273ffffffffffffffffffffffffffffffffffffffff16601460ff16612333565b9050919050565b6060600060028360026123469190613ae1565b6123509190612b92565b67ffffffffffffffff811115612369576123686135bc565b5b6040519080825280601f01601f19166020018201604052801561239b5781602001600182028036833780820191505090505b5090507f3000000000000000000000000000000000000000000000000000000000000000816000815181106123d3576123d2613b3b565b5b60200101907effffffffffffffffffffffffffffffffffffffffffffffffffffffffffffff1916908160001a9053507f78000000000000000000000000000000000000000000000000000000000000008160018151811061243757612436613b3b565b5b60200101907effffffffffffffffffffffffffffffffffffffffffffffffffffffffffffff1916908160001a905350600060018460026124779190613ae1565b6124819190612b92565b90505b6001811115612521577f3031323334353637383961626364656600000000000000000000000000000000600f8616601081106124c3576124c2613b3b565b5b1a60f81b8282815181106124da576124d9613b3b565b5b60200101907effffffffffffffffffffffffffffffffffffffffffffffffffffffffffffff1916908160001a905350600485901c94508061251a90613b6a565b9050612484565b5060008414612565576040517f08c379a000000000000000000000000000000000000000000000000000000000815260040161255c90613bdf565b60405180910390fd5b8091505092915050565b600080fd5b60007fffffffff0000000000000000000000000000000000000000000000000000000082169050919050565b6125a981612574565b81146125b457600080fd5b50565b6000813590506125c6816125a0565b92915050565b6000602082840312156125e2576125e161256f565b5b60006125f0848285016125b7565b91505092915050565b60008115159050919050565b61260e816125f9565b82525050565b60006020820190506126296000830184612605565b92915050565b600081519050919050565b600082825260208201905092915050565b60005b8381101561266957808201518184015260208101905061264e565b60008484015250505050565b6000601f19601f8301169050919050565b60006126918261262f565b61269b818561263a565b93506126ab81856020860161264b565b6126b481612675565b840191505092915050565b600060208201905081810360008301526126d98184612686565b905092915050565b600073ffffffffffffffffffffffffffffffffffffffff82169050919050565b600061270c826126e1565b9050919050565b61271c81612701565b811461272757600080fd5b50565b60008135905061273981612713565b92915050565b6000819050919050565b6127528161273f565b811461275d57600080fd5b50565b60008135905061276f81612749565b92915050565b6000806040838503121561278c5761278b61256f565b5b600061279a8582860161272a565b92505060206127ab85828601612760565b9150509250929050565b6127be8161273f565b82525050565b60006020820190506127d960008301846127b5565b92915050565b6000806000606084860312156127f8576127f761256f565b5b60006128068682870161272a565b93505060206128178682870161272a565b925050604061282886828701612760565b9150509250925092565b6000819050919050565b61284581612832565b811461285057600080fd5b50565b6000813590506128628161283c565b92915050565b60006020828403121561287e5761287d61256f565b5b600061288c84828501612853565b91505092915050565b61289e81612832565b82525050565b60006020820190506128b96000830184612895565b92915050565b600080604083850312156128d6576128d561256f565b5b60006128e485828601612853565b92505060206128f58582860161272a565b9150509250929050565b600060ff82169050919050565b612915816128ff565b82525050565b6000602082019050612930600083018461290c565b92915050565b60006020828403121561294c5761294b61256f565b5b600061295a8482850161272a565b91505092915050565b61296c816128ff565b811461297757600080fd5b50565b60008135905061298981612963565b92915050565b600080600080600080600060e0888a0312156129ae576129ad61256f565b5b60006129bc8a828b0161272a565b97505060206129cd8a828b0161272a565b96505060406129de8a828b01612760565b95505060606129ef8a828b01612760565b9450506080612a008a828b0161297a565b93505060a0612a118a828b01612853565b92505060c0612a228a828b01612853565b91505092959891949750929550565b60008060408385031215612a4857612a4761256f565b5b6000612a568582860161272a565b9250506020612a678582860161272a565b9150509250929050565b7f4e487b7100000000000000000000000000000000000000000000000000000000600052602260045260246000fd5b60006002820490506001821680612ab857607f821691505b602082108103612acb57612aca612a71565b5b50919050565b7f416363657373436f6e74726f6c3a2063616e206f6e6c792072656e6f756e636560008201527f20726f6c657320666f722073656c660000000000000000000000000000000000602082015250565b6000612b2d602f8361263a565b9150612b3882612ad1565b604082019050919050565b60006020820190508181036000830152612b5c81612b20565b9050919050565b7f4e487b7100000000000000000000000000000000000000000000000000000000600052601160045260246000fd5b6000612b9d8261273f565b9150612ba88361273f565b9250828201905080821115612bc057612bbf612b63565b5b92915050565b7f4d75737420686176652061646d696e20726f6c6520746f20706572666f726d2060008201527f7468697320616374696f6e2e0000000000000000000000000000000000000000602082015250565b6000612c22602c8361263a565b9150612c2d82612bc6565b604082019050919050565b60006020820190508181036000830152612c5181612c15565b9050919050565b7f496e697469616c697a61626c653a20636f6e7472616374206973206e6f74206960008201527f6e697469616c697a696e67000000000000000000000000000000000000000000602082015250565b6000612cb4602b8361263a565b9150612cbf82612c58565b604082019050919050565b60006020820190508181036000830152612ce381612ca7565b9050919050565b7f45524332303a2064656372656173656420616c6c6f77616e63652062656c6f7760008201527f207a65726f000000000000000000000000000000000000000000000000000000602082015250565b6000612d4660258361263a565b9150612d5182612cea565b604082019050919050565b60006020820190508181036000830152612d7581612d39565b9050919050565b7f496e697469616c697a61626c653a20636f6e747261637420697320616c72656160008201527f647920696e697469616c697a6564000000000000000000000000000000000000602082015250565b6000612dd8602e8361263a565b9150612de382612d7c565b604082019050919050565b60006020820190508181036000830152612e0781612dcb565b9050919050565b6000819050919050565b6000819050919050565b6000612e3d612e38612e3384612e0e565b612e18565b6128ff565b9050919050565b612e4d81612e22565b82525050565b6000602082019050612e686000830184612e44565b92915050565b7f45524332305065726d69743a206578706972656420646561646c696e65000000600082015250565b6000612ea4601d8361263a565b9150612eaf82612e6e565b602082019050919050565b60006020820190508181036000830152612ed381612e97565b9050919050565b612ee381612701565b82525050565b600060c082019050612efe6000830189612895565b612f0b6020830188612eda565b612f186040830187612eda565b612f2560608301866127b5565b612f3260808301856127b5565b612f3f60a08301846127b5565b979650505050505050565b7f45524332305065726d69743a20696e76616c6964207369676e61747572650000600082015250565b6000612f80601e8361263a565b9150612f8b82612f4a565b602082019050919050565b60006020820190508181036000830152612faf81612f73565b9050919050565b7f45524332303a20617070726f76652066726f6d20746865207a65726f2061646460008201527f7265737300000000000000000000000000000000000000000000000000000000602082015250565b600061301260248361263a565b915061301d82612fb6565b604082019050919050565b6000602082019050818103600083015261304181613005565b9050919050565b7f45524332303a20617070726f766520746f20746865207a65726f20616464726560008201527f7373000000000000000000000000000000000000000000000000000000000000602082015250565b60006130a460228361263a565b91506130af82613048565b604082019050919050565b600060208201905081810360008301526130d381613097565b9050919050565b7f45524332303a20696e73756666696369656e7420616c6c6f77616e6365000000600082015250565b6000613110601d8361263a565b915061311b826130da565b602082019050919050565b6000602082019050818103600083015261313f81613103565b9050919050565b7f45524332303a207472616e736665722066726f6d20746865207a65726f20616460008201527f6472657373000000000000000000000000000000000000000000000000000000602082015250565b60006131a260258361263a565b91506131ad82613146565b604082019050919050565b600060208201905081810360008301526131d181613195565b9050919050565b7f45524332303a207472616e7366657220746f20746865207a65726f206164647260008201527f6573730000000000000000000000000000000000000000000000000000000000602082015250565b600061323460238361263a565b915061323f826131d8565b604082019050919050565b6000602082019050818103600083015261326381613227565b9050919050565b7f45524332303a207472616e7366657220616d6f756e742065786365656473206260008201527f616c616e63650000000000000000000000000000000000000000000000000000602082015250565b60006132c660268361263a565b91506132d18261326a565b604082019050919050565b600060208201905081810360008301526132f5816132b9565b9050919050565b60006020820190506133116000830184612eda565b92915050565b7f45524332303a206d696e7420746f20746865207a65726f206164647265737300600082015250565b600061334d601f8361263a565b915061335882613317565b602082019050919050565b6000602082019050818103600083015261337c81613340565b9050919050565b600081905092915050565b7f416363657373436f6e74726f6c3a206163636f756e7420000000000000000000600082015250565b60006133c4601783613383565b91506133cf8261338e565b601782019050919050565b60006133e58261262f565b6133ef8185613383565b93506133ff81856020860161264b565b80840191505092915050565b7f206973206d697373696e6720726f6c6520000000000000000000000000000000600082015250565b6000613441601183613383565b915061344c8261340b565b601182019050919050565b6000613462826133b7565b915061346e82856133da565b915061347982613434565b915061348582846133da565b91508190509392505050565b600060a0820190506134a66000830188612895565b6134b36020830187612895565b6134c06040830186612895565b6134cd60608301856127b5565b6134da6080830184612eda565b9695505050505050565b7f5061757361626c653a206e6f7420706175736564000000000000000000000000600082015250565b600061351a60148361263a565b9150613525826134e4565b602082019050919050565b600060208201905081810360008301526135498161350d565b9050919050565b7f5061757361626c653a2070617573656400000000000000000000000000000000600082015250565b600061358660108361263a565b915061359182613550565b602082019050919050565b600060208201905081810360008301526135b581613579565b9050919050565b7f4e487b7100000000000000000000000000000000000000000000000000000000600052604160045260246000fd5b60008190508160005260206000209050919050565b60006020601f8301049050919050565b600082821b905092915050565b60006008830261364d7fffffffffffffffffffffffffffffffffffffffffffffffffffffffffffffffff82613610565b6136578683613610565b95508019841693508086168417925050509392505050565b600061368a6136856136808461273f565b612e18565b61273f565b9050919050565b6000819050919050565b6136a48361366f565b6136b86136b082613691565b84845461361d565b825550505050565b600090565b6136cd6136c0565b6136d881848461369b565b505050565b5b818110156136fc576136f16000826136c5565b6001810190506136de565b5050565b601f82111561374157613712816135eb565b61371b84613600565b8101602085101561372a578190505b61373e61373685613600565b8301826136dd565b50505b505050565b600082821c905092915050565b600061376460001984600802613746565b1980831691505092915050565b600061377d8383613753565b9150826002028217905092915050565b6137968261262f565b67ffffffffffffffff8111156137af576137ae6135bc565b5b6137b98254612aa0565b6137c4828285613700565b600060209050601f8311600181146137f757600084156137e5578287015190505b6137ef8582613771565b865550613857565b601f198416613805866135eb565b60005b8281101561382d57848901518255600182019150602085019450602081019050613808565b8683101561384a5784890151613846601f891682613753565b8355505b6001600288020188555050505b505050505050565b7f1901000000000000000000000000000000000000000000000000000000000000600082015250565b6000613895600283613383565b91506138a08261385f565b600282019050919050565b6000819050919050565b6138c66138c182612832565b6138ab565b82525050565b60006138d782613888565b91506138e382856138b5565b6020820191506138f382846138b5565b6020820191508190509392505050565b60006080820190506139186000830187612895565b613925602083018661290c565b6139326040830185612895565b61393f6060830184612895565b95945050505050565b7f4e487b7100000000000000000000000000000000000000000000000000000000600052602160045260246000fd5b7f45434453413a20696e76616c6964207369676e61747572650000000000000000600082015250565b60006139ad60188361263a565b91506139b882613977565b602082019050919050565b600060208201905081810360008301526139dc816139a0565b9050919050565b7f45434453413a20696e76616c6964207369676e6174757265206c656e67746800600082015250565b6000613a19601f8361263a565b9150613a24826139e3565b602082019050919050565b60006020820190508181036000830152613a4881613a0c565b9050919050565b7f45434453413a20696e76616c6964207369676e6174757265202773272076616c60008201527f7565000000000000000000000000000000000000000000000000000000000000602082015250565b6000613aab60228361263a565b9150613ab682613a4f565b604082019050919050565b60006020820190508181036000830152613ada81613a9e565b9050919050565b6000613aec8261273f565b9150613af78361273f565b9250817fffffffffffffffffffffffffffffffffffffffffffffffffffffffffffffffff0483118215151615613b3057613b2f612b63565b5b828202905092915050565b7f4e487b7100000000000000000000000000000000000000000000000000000000600052603260045260246000fd5b6000613b758261273f565b915060008203613b8857613b87612b63565b5b600182039050919050565b7f537472696e67733a20686578206c656e67746820696e73756666696369656e74600082015250565b6000613bc960208361263a565b9150613bd482613b93565b602082019050919050565b60006020820190508181036000830152613bf881613bbc565b905091905056fea264697066735822122049afcc2623db77c2bce2645f47f73dd96eae343ea158e887cbdba271537dd0ee64736f6c63430008100033",
  "linkReferences": {},
  "deployedLinkReferences": {}
}