{
  "_format": "hh-sol-artifact-1",
  "contractName": "SZT",
  "sourceName": "contracts/core/token/SZTERC20.sol",
  "abi": [
    {
      "inputs": [],
      "name": "BaseUpgradeablePausable__ZeroAddressError",
      "type": "error"
    },
    {
      "anonymous": false,
      "inputs": [
        {
          "indexed": true,
          "internalType": "address",
          "name": "owner",
          "type": "address"
        },
        {
          "indexed": true,
          "internalType": "address",
          "name": "spender",
          "type": "address"
        },
        {
          "indexed": false,
          "internalType": "uint256",
          "name": "value",
          "type": "uint256"
        }
      ],
      "name": "Approval",
      "type": "event"
    },
    {
      "anonymous": false,
      "inputs": [
        {
          "indexed": false,
          "internalType": "uint8",
          "name": "version",
          "type": "uint8"
        }
      ],
      "name": "Initialized",
      "type": "event"
    },
    {
      "anonymous": false,
      "inputs": [
        {
          "indexed": false,
          "internalType": "address",
          "name": "account",
          "type": "address"
        }
      ],
      "name": "Paused",
      "type": "event"
    },
    {
      "anonymous": false,
      "inputs": [
        {
          "indexed": true,
          "internalType": "bytes32",
          "name": "role",
          "type": "bytes32"
        },
        {
          "indexed": true,
          "internalType": "bytes32",
          "name": "previousAdminRole",
          "type": "bytes32"
        },
        {
          "indexed": true,
          "internalType": "bytes32",
          "name": "newAdminRole",
          "type": "bytes32"
        }
      ],
      "name": "RoleAdminChanged",
      "type": "event"
    },
    {
      "anonymous": false,
      "inputs": [
        {
          "indexed": true,
          "internalType": "bytes32",
          "name": "role",
          "type": "bytes32"
        },
        {
          "indexed": true,
          "internalType": "address",
          "name": "account",
          "type": "address"
        },
        {
          "indexed": true,
          "internalType": "address",
          "name": "sender",
          "type": "address"
        }
      ],
      "name": "RoleGranted",
      "type": "event"
    },
    {
      "anonymous": false,
      "inputs": [
        {
          "indexed": true,
          "internalType": "bytes32",
          "name": "role",
          "type": "bytes32"
        },
        {
          "indexed": true,
          "internalType": "address",
          "name": "account",
          "type": "address"
        },
        {
          "indexed": true,
          "internalType": "address",
          "name": "sender",
          "type": "address"
        }
      ],
      "name": "RoleRevoked",
      "type": "event"
    },
    {
      "anonymous": false,
      "inputs": [
        {
          "indexed": true,
          "internalType": "address",
          "name": "from",
          "type": "address"
        },
        {
          "indexed": true,
          "internalType": "address",
          "name": "to",
          "type": "address"
        },
        {
          "indexed": false,
          "internalType": "uint256",
          "name": "value",
          "type": "uint256"
        }
      ],
      "name": "Transfer",
      "type": "event"
    },
    {
      "anonymous": false,
      "inputs": [
        {
          "indexed": false,
          "internalType": "address",
          "name": "account",
          "type": "address"
        }
      ],
      "name": "Unpaused",
      "type": "event"
    },
    {
      "inputs": [],
      "name": "DEFAULT_ADMIN_ROLE",
      "outputs": [
        {
          "internalType": "bytes32",
          "name": "",
          "type": "bytes32"
        }
      ],
      "stateMutability": "view",
      "type": "function"
    },
    {
      "inputs": [],
      "name": "DOMAIN_SEPARATOR",
      "outputs": [
        {
          "internalType": "bytes32",
          "name": "",
          "type": "bytes32"
        }
      ],
      "stateMutability": "view",
      "type": "function"
    },
    {
      "inputs": [
        {
          "internalType": "address",
          "name": "owner",
          "type": "address"
        }
      ],
      "name": "__BaseUpgradeablePausable_init",
      "outputs": [],
      "stateMutability": "nonpayable",
      "type": "function"
    },
    {
      "inputs": [
        {
          "internalType": "address",
          "name": "owner",
          "type": "address"
        },
        {
          "internalType": "address",
          "name": "spender",
          "type": "address"
        }
      ],
      "name": "allowance",
      "outputs": [
        {
          "internalType": "uint256",
          "name": "",
          "type": "uint256"
        }
      ],
      "stateMutability": "view",
      "type": "function"
    },
    {
      "inputs": [
        {
          "internalType": "address",
          "name": "spender",
          "type": "address"
        },
        {
          "internalType": "uint256",
          "name": "amount",
          "type": "uint256"
        }
      ],
      "name": "approve",
      "outputs": [
        {
          "internalType": "bool",
          "name": "",
          "type": "bool"
        }
      ],
      "stateMutability": "nonpayable",
      "type": "function"
    },
    {
      "inputs": [
        {
          "internalType": "address",
          "name": "account",
          "type": "address"
        }
      ],
      "name": "balanceOf",
      "outputs": [
        {
          "internalType": "uint256",
          "name": "",
          "type": "uint256"
        }
      ],
      "stateMutability": "view",
      "type": "function"
    },
    {
      "inputs": [],
      "name": "decimals",
      "outputs": [
        {
          "internalType": "uint8",
          "name": "",
          "type": "uint8"
        }
      ],
      "stateMutability": "view",
      "type": "function"
    },
    {
      "inputs": [
        {
          "internalType": "address",
          "name": "spender",
          "type": "address"
        },
        {
          "internalType": "uint256",
          "name": "subtractedValue",
          "type": "uint256"
        }
      ],
      "name": "decreaseAllowance",
      "outputs": [
        {
          "internalType": "bool",
          "name": "",
          "type": "bool"
        }
      ],
      "stateMutability": "nonpayable",
      "type": "function"
    },
    {
      "inputs": [
        {
          "internalType": "bytes32",
          "name": "role",
          "type": "bytes32"
        }
      ],
      "name": "getRoleAdmin",
      "outputs": [
        {
          "internalType": "bytes32",
          "name": "",
          "type": "bytes32"
        }
      ],
      "stateMutability": "view",
      "type": "function"
    },
    {
      "inputs": [
        {
          "internalType": "bytes32",
          "name": "role",
          "type": "bytes32"
        },
        {
          "internalType": "address",
          "name": "account",
          "type": "address"
        }
      ],
      "name": "grantRole",
      "outputs": [],
      "stateMutability": "nonpayable",
      "type": "function"
    },
    {
      "inputs": [
        {
          "internalType": "bytes32",
          "name": "role",
          "type": "bytes32"
        },
        {
          "internalType": "address",
          "name": "account",
          "type": "address"
        }
      ],
      "name": "hasRole",
      "outputs": [
        {
          "internalType": "bool",
          "name": "",
          "type": "bool"
        }
      ],
      "stateMutability": "view",
      "type": "function"
    },
    {
      "inputs": [
        {
          "internalType": "address",
          "name": "spender",
          "type": "address"
        },
        {
          "internalType": "uint256",
          "name": "addedValue",
          "type": "uint256"
        }
      ],
      "name": "increaseAllowance",
      "outputs": [
        {
          "internalType": "bool",
          "name": "",
          "type": "bool"
        }
      ],
      "stateMutability": "nonpayable",
      "type": "function"
    },
    {
      "inputs": [
        {
          "internalType": "address",
          "name": "buySellContractAddress",
          "type": "address"
        }
      ],
      "name": "initialize",
      "outputs": [],
      "stateMutability": "nonpayable",
      "type": "function"
    },
    {
      "inputs": [],
      "name": "isAdmin",
      "outputs": [
        {
          "internalType": "bool",
          "name": "",
          "type": "bool"
        }
      ],
      "stateMutability": "view",
      "type": "function"
    },
    {
      "inputs": [],
      "name": "name",
      "outputs": [
        {
          "internalType": "string",
          "name": "",
          "type": "string"
        }
      ],
      "stateMutability": "view",
      "type": "function"
    },
    {
      "inputs": [
        {
          "internalType": "address",
          "name": "owner",
          "type": "address"
        }
      ],
      "name": "nonces",
      "outputs": [
        {
          "internalType": "uint256",
          "name": "",
          "type": "uint256"
        }
      ],
      "stateMutability": "view",
      "type": "function"
    },
    {
      "inputs": [],
      "name": "pause",
      "outputs": [],
      "stateMutability": "nonpayable",
      "type": "function"
    },
    {
      "inputs": [],
      "name": "paused",
      "outputs": [
        {
          "internalType": "bool",
          "name": "",
          "type": "bool"
        }
      ],
      "stateMutability": "view",
      "type": "function"
    },
    {
      "inputs": [
        {
          "internalType": "address",
          "name": "owner",
          "type": "address"
        },
        {
          "internalType": "address",
          "name": "spender",
          "type": "address"
        },
        {
          "internalType": "uint256",
          "name": "value",
          "type": "uint256"
        },
        {
          "internalType": "uint256",
          "name": "deadline",
          "type": "uint256"
        },
        {
          "internalType": "uint8",
          "name": "v",
          "type": "uint8"
        },
        {
          "internalType": "bytes32",
          "name": "r",
          "type": "bytes32"
        },
        {
          "internalType": "bytes32",
          "name": "s",
          "type": "bytes32"
        }
      ],
      "name": "permit",
      "outputs": [],
      "stateMutability": "nonpayable",
      "type": "function"
    },
    {
      "inputs": [
        {
          "internalType": "bytes32",
          "name": "role",
          "type": "bytes32"
        },
        {
          "internalType": "address",
          "name": "account",
          "type": "address"
        }
      ],
      "name": "renounceRole",
      "outputs": [],
      "stateMutability": "nonpayable",
      "type": "function"
    },
    {
      "inputs": [
        {
          "internalType": "bytes32",
          "name": "role",
          "type": "bytes32"
        },
        {
          "internalType": "address",
          "name": "account",
          "type": "address"
        }
      ],
      "name": "revokeRole",
      "outputs": [],
      "stateMutability": "nonpayable",
      "type": "function"
    },
    {
      "inputs": [
        {
          "internalType": "bytes4",
          "name": "interfaceId",
          "type": "bytes4"
        }
      ],
      "name": "supportsInterface",
      "outputs": [
        {
          "internalType": "bool",
          "name": "",
          "type": "bool"
        }
      ],
      "stateMutability": "view",
      "type": "function"
    },
    {
      "inputs": [],
      "name": "symbol",
      "outputs": [
        {
          "internalType": "string",
          "name": "",
          "type": "string"
        }
      ],
      "stateMutability": "view",
      "type": "function"
    },
    {
      "inputs": [],
      "name": "totalSupply",
      "outputs": [
        {
          "internalType": "uint256",
          "name": "",
          "type": "uint256"
        }
      ],
      "stateMutability": "view",
      "type": "function"
    },
    {
      "inputs": [
        {
          "internalType": "address",
          "name": "to",
          "type": "address"
        },
        {
          "internalType": "uint256",
          "name": "amount",
          "type": "uint256"
        }
      ],
      "name": "transfer",
      "outputs": [
        {
          "internalType": "bool",
          "name": "",
          "type": "bool"
        }
      ],
      "stateMutability": "nonpayable",
      "type": "function"
    },
    {
      "inputs": [
        {
          "internalType": "address",
          "name": "from",
          "type": "address"
        },
        {
          "internalType": "address",
          "name": "to",
          "type": "address"
        },
        {
          "internalType": "uint256",
          "name": "amount",
          "type": "uint256"
        }
      ],
      "name": "transferFrom",
      "outputs": [
        {
          "internalType": "bool",
          "name": "",
          "type": "bool"
        }
      ],
      "stateMutability": "nonpayable",
      "type": "function"
    },
    {
      "inputs": [],
      "name": "unpause",
      "outputs": [],
      "stateMutability": "nonpayable",
      "type": "function"
    }
  ],
  "bytecode": "0x608060405234801561001057600080fd5b50613bdd806100206000396000f3fe608060405234801561001057600080fd5b50600436106101a95760003560e01c80636e810b1a116100f9578063a457c2d711610097578063c4d66de811610071578063c4d66de8146104e6578063d505accf14610502578063d547741f1461051e578063dd62ed3e1461053a576101a9565b8063a457c2d714610468578063a9059cbb14610498578063b6db75a0146104c8576101a9565b80638456cb59116100d35780638456cb59146103f257806391d14854146103fc57806395d89b411461042c578063a217fddf1461044a576101a9565b80636e810b1a1461037657806370a08231146103925780637ecebe00146103c2576101a9565b80632f2ff15d1161016657806336568abe1161014057806336568abe14610302578063395093511461031e5780633f4ba83a1461034e5780635c975abb14610358576101a9565b80632f2ff15d146102aa578063313ce567146102c65780633644e515146102e4576101a9565b806301ffc9a7146101ae57806306fdde03146101de578063095ea7b3146101fc57806318160ddd1461022c57806323b872dd1461024a578063248a9ca31461027a575b600080fd5b6101c860048036038101906101c39190612574565b61056a565b6040516101d591906125bc565b60405180910390f35b6101e66105e4565b6040516101f39190612667565b60405180910390f35b6102166004803603810190610211919061271d565b610676565b60405161022391906125bc565b60405180910390f35b610234610699565b604051610241919061276c565b60405180910390f35b610264600480360381019061025f9190612787565b6106a3565b60405161027191906125bc565b60405180910390f35b610294600480360381019061028f9190612810565b6106d2565b6040516102a1919061284c565b60405180910390f35b6102c460048036038101906102bf9190612867565b6106f3565b005b6102ce610714565b6040516102db91906128c3565b60405180910390f35b6102ec61071d565b6040516102f9919061284c565b60405180910390f35b61031c60048036038101906103179190612867565b61072c565b005b6103386004803603810190610333919061271d565b6107af565b60405161034591906125bc565b60405180910390f35b6103566107e6565b005b610360610837565b60405161036d91906125bc565b60405180910390f35b610390600480360381019061038b91906128de565b61084e565b005b6103ac60048036038101906103a791906128de565b610970565b6040516103b9919061276c565b60405180910390f35b6103dc60048036038101906103d791906128de565b6109b9565b6040516103e9919061276c565b60405180910390f35b6103fa610a09565b005b61041660048036038101906104119190612867565b610a5a565b60405161042391906125bc565b60405180910390f35b610434610ac6565b6040516104419190612667565b60405180910390f35b610452610b58565b60405161045f919061284c565b60405180910390f35b610482600480360381019061047d919061271d565b610b5f565b60405161048f91906125bc565b60405180910390f35b6104b260048036038101906104ad919061271d565b610bd6565b6040516104bf91906125bc565b60405180910390f35b6104d0610bf9565b6040516104dd91906125bc565b60405180910390f35b61050060048036038101906104fb91906128de565b610c18565b005b61051c60048036038101906105179190612937565b610e27565b005b61053860048036038101906105339190612867565b610f69565b005b610554600480360381019061054f91906129d9565b610f8a565b604051610561919061276c565b60405180910390f35b60007f7965db0b000000000000000000000000000000000000000000000000000000007bffffffffffffffffffffffffffffffffffffffffffffffffffffffff1916827bffffffffffffffffffffffffffffffffffffffffffffffffffffffff191614806105dd57506105dc82611011565b5b9050919050565b6060603680546105f390612a48565b80601f016020809104026020016040519081016040528092919081815260200182805461061f90612a48565b801561066c5780601f106106415761010080835404028352916020019161066c565b820191906000526020600020905b81548152906001019060200180831161064f57829003601f168201915b5050505050905090565b60008061068161107b565b905061068e818585611083565b600191505092915050565b6000603554905090565b6000806106ae61107b565b90506106bb85828561124c565b6106c68585856112d8565b60019150509392505050565b60006101306000838152602001908152602001600020600101549050919050565b6106fc826106d2565b61070581611551565b61070f8383611565565b505050565b60006012905090565b6000610727611647565b905090565b61073461107b565b73ffffffffffffffffffffffffffffffffffffffff168173ffffffffffffffffffffffffffffffffffffffff16146107a1576040517f08c379a000000000000000000000000000000000000000000000000000000000815260040161079890612aeb565b60405180910390fd5b6107ab8282611687565b5050565b6000806107ba61107b565b90506107db8185856107cc8589610f8a565b6107d69190612b3a565b611083565b600191505092915050565b6107ee610bf9565b61082d576040517f08c379a000000000000000000000000000000000000000000000000000000000815260040161082490612be0565b60405180910390fd5b61083561176a565b565b600060cc60009054906101000a900460ff16905090565b600060019054906101000a900460ff1661089d576040517f08c379a000000000000000000000000000000000000000000000000000000000815260040161089490612c72565b60405180910390fd5b600073ffffffffffffffffffffffffffffffffffffffff168173ffffffffffffffffffffffffffffffffffffffff1603610903576040517f5415139400000000000000000000000000000000000000000000000000000000815260040160405180910390fd5b61090b6117cd565b610913611826565b61091b611877565b61092c6109266118d0565b82611565565b61093d6109376118f8565b82611565565b6109556109486118f8565b6109506118d0565b611920565b61096d6109606118d0565b6109686118d0565b611920565b50565b6000603360008373ffffffffffffffffffffffffffffffffffffffff1673ffffffffffffffffffffffffffffffffffffffff168152602001908152602001600020549050919050565b6000610a02609960008473ffffffffffffffffffffffffffffffffffffffff1673ffffffffffffffffffffffffffffffffffffffff16815260200190815260200160002061197d565b9050919050565b610a11610bf9565b610a50576040517f08c379a0000000000000000000000000000000000000000000000000000000008152600401610a4790612be0565b60405180910390fd5b610a5861198b565b565b6000610130600084815260200190815260200160002060000160008373ffffffffffffffffffffffffffffffffffffffff1673ffffffffffffffffffffffffffffffffffffffff16815260200190815260200160002060009054906101000a900460ff16905092915050565b606060378054610ad590612a48565b80601f0160208091040260200160405190810160405280929190818152602001828054610b0190612a48565b8015610b4e5780601f10610b2357610100808354040283529160200191610b4e565b820191906000526020600020905b815481529060010190602001808311610b3157829003601f168201915b5050505050905090565b6000801b81565b600080610b6a61107b565b90506000610b788286610f8a565b905083811015610bbd576040517f08c379a0000000000000000000000000000000000000000000000000000000008152600401610bb490612d04565b60405180910390fd5b610bca8286868403611083565b60019250505092915050565b600080610be161107b565b9050610bee8185856112d8565b600191505092915050565b6000610c13610c066118d0565b610c0e61107b565b610a5a565b905090565b60008060019054906101000a900460ff16159050808015610c495750600160008054906101000a900460ff1660ff16105b80610c765750610c58306119ee565b158015610c755750600160008054906101000a900460ff1660ff16145b5b610cb5576040517f08c379a0000000000000000000000000000000000000000000000000000000008152600401610cac90612d96565b60405180910390fd5b60016000806101000a81548160ff021916908360ff1602179055508015610cf2576001600060016101000a81548160ff0219169083151502179055505b610d666040518060400160405280600d81526020017f536166655a656e20546f6b656e000000000000000000000000000000000000008152506040518060400160405280600381526020017f535a540000000000000000000000000000000000000000000000000000000000815250611a11565b610da46040518060400160405280600381526020017f535a540000000000000000000000000000000000000000000000000000000000815250611a6e565b610db4610daf61107b565b61084e565b610dca826b43dacaf91c1a84ff08000000611aff565b8015610e235760008060016101000a81548160ff0219169083151502179055507f7f26b83ff96e1f2b6a682f133852f6798a09c465da95921460cefb38474024986001604051610e1a9190612dfb565b60405180910390a15b5050565b83421115610e6a576040517f08c379a0000000000000000000000000000000000000000000000000000000008152600401610e6190612e62565b60405180910390fd5b60007f6e71edae12b1b97f4d1f60370fef10105fa2faae0126114a169c64845d6126c9888888610e998c611c56565b89604051602001610eaf96959493929190612e91565b6040516020818303038152906040528051906020012090506000610ed282611cb4565b90506000610ee282878787611cce565b90508973ffffffffffffffffffffffffffffffffffffffff168173ffffffffffffffffffffffffffffffffffffffff1614610f52576040517f08c379a0000000000000000000000000000000000000000000000000000000008152600401610f4990612f3e565b60405180910390fd5b610f5d8a8a8a611083565b50505050505050505050565b610f72826106d2565b610f7b81611551565b610f858383611687565b505050565b6000603460008473ffffffffffffffffffffffffffffffffffffffff1673ffffffffffffffffffffffffffffffffffffffff16815260200190815260200160002060008373ffffffffffffffffffffffffffffffffffffffff1673ffffffffffffffffffffffffffffffffffffffff16815260200190815260200160002054905092915050565b60007f01ffc9a7000000000000000000000000000000000000000000000000000000007bffffffffffffffffffffffffffffffffffffffffffffffffffffffff1916827bffffffffffffffffffffffffffffffffffffffffffffffffffffffff1916149050919050565b600033905090565b600073ffffffffffffffffffffffffffffffffffffffff168373ffffffffffffffffffffffffffffffffffffffff16036110f2576040517f08c379a00000000000000000000000000000000000000000000000000000000081526004016110e990612fd0565b60405180910390fd5b600073ffffffffffffffffffffffffffffffffffffffff168273ffffffffffffffffffffffffffffffffffffffff1603611161576040517f08c379a000000000000000000000000000000000000000000000000000000000815260040161115890613062565b60405180910390fd5b80603460008573ffffffffffffffffffffffffffffffffffffffff1673ffffffffffffffffffffffffffffffffffffffff16815260200190815260200160002060008473ffffffffffffffffffffffffffffffffffffffff1673ffffffffffffffffffffffffffffffffffffffff168152602001908152602001600020819055508173ffffffffffffffffffffffffffffffffffffffff168373ffffffffffffffffffffffffffffffffffffffff167f8c5be1e5ebec7d5bd14f71427d1e84f3dd0314c0f7b2291e5b200ac8c7c3b9258360405161123f919061276c565b60405180910390a3505050565b60006112588484610f8a565b90507fffffffffffffffffffffffffffffffffffffffffffffffffffffffffffffffff81146112d257818110156112c4576040517f08c379a00000000000000000000000000000000000000000000000000000000081526004016112bb906130ce565b60405180910390fd5b6112d18484848403611083565b5b50505050565b600073ffffffffffffffffffffffffffffffffffffffff168373ffffffffffffffffffffffffffffffffffffffff1603611347576040517f08c379a000000000000000000000000000000000000000000000000000000000815260040161133e90613160565b60405180910390fd5b600073ffffffffffffffffffffffffffffffffffffffff168273ffffffffffffffffffffffffffffffffffffffff16036113b6576040517f08c379a00000000000000000000000000000000000000000000000000000000081526004016113ad906131f2565b60405180910390fd5b6113c1838383611cf9565b6000603360008573ffffffffffffffffffffffffffffffffffffffff1673ffffffffffffffffffffffffffffffffffffffff16815260200190815260200160002054905081811015611448576040517f08c379a000000000000000000000000000000000000000000000000000000000815260040161143f90613284565b60405180910390fd5b818103603360008673ffffffffffffffffffffffffffffffffffffffff1673ffffffffffffffffffffffffffffffffffffffff1681526020019081526020016000208190555081603360008573ffffffffffffffffffffffffffffffffffffffff1673ffffffffffffffffffffffffffffffffffffffff168152602001908152602001600020600082825401925050819055508273ffffffffffffffffffffffffffffffffffffffff168473ffffffffffffffffffffffffffffffffffffffff167fddf252ad1be2c89b69c2b068fc378daa952ba7f163c4a11628f55a4df523b3ef84604051611538919061276c565b60405180910390a361154b848484611cfe565b50505050565b6115628161155d61107b565b611d03565b50565b61156f8282610a5a565b611643576001610130600084815260200190815260200160002060000160008373ffffffffffffffffffffffffffffffffffffffff1673ffffffffffffffffffffffffffffffffffffffff16815260200190815260200160002060006101000a81548160ff0219169083151502179055506115e861107b565b73ffffffffffffffffffffffffffffffffffffffff168173ffffffffffffffffffffffffffffffffffffffff16837f2f8788117e7eff1d82e926ec794901d17c78024a50270940304540a733656f0d60405160405180910390a45b5050565b60006116827f8b73c3c69bb8fe3d512ecc4cf759cc79239f7b179b0ffacaa9a75d522b39400f611675611d88565b61167d611d92565b611d9c565b905090565b6116918282610a5a565b15611766576000610130600084815260200190815260200160002060000160008373ffffffffffffffffffffffffffffffffffffffff1673ffffffffffffffffffffffffffffffffffffffff16815260200190815260200160002060006101000a81548160ff02191690831515021790555061170b61107b565b73ffffffffffffffffffffffffffffffffffffffff168173ffffffffffffffffffffffffffffffffffffffff16837ff6391f5c32d9c69d2a47ea670b442974b53935d1edc7fd64eb21e047a839171b60405160405180910390a45b5050565b611772611dd6565b600060cc60006101000a81548160ff0219169083151502179055507f5db9ee0a495bf2e6ff9c91a7834c1ba4fdd244a5e8aa4e537bd38aeae4b073aa6117b661107b565b6040516117c391906132a4565b60405180910390a1565b600060019054906101000a900460ff1661181c576040517f08c379a000000000000000000000000000000000000000000000000000000000815260040161181390612c72565b60405180910390fd5b611824611e1f565b565b600060019054906101000a900460ff16611875576040517f08c379a000000000000000000000000000000000000000000000000000000000815260040161186c90612c72565b60405180910390fd5b565b600060019054906101000a900460ff166118c6576040517f08c379a00000000000000000000000000000000000000000000000000000000081526004016118bd90612c72565b60405180910390fd5b6118ce611e8b565b565b60007fa49807205ce4d355092ef5a8a18f56e8913cf4a201fbe287825b095693c21775905090565b60007f65d7a28e3265b37a6474929f336521b332c1681b933f6cb9f3376673440d862a905090565b600061192b836106d2565b9050816101306000858152602001908152602001600020600101819055508181847fbd79b86ffe0ab8e8776151514217cd7cacd52c909f66475c3af44e129f0b00ff60405160405180910390a4505050565b600081600001549050919050565b611993611ee5565b600160cc60006101000a81548160ff0219169083151502179055507f62e78cea01bee320cd4e420270b5ea74000d11b0c9f74754ebdbfc544b05a2586119d761107b565b6040516119e491906132a4565b60405180910390a1565b6000808273ffffffffffffffffffffffffffffffffffffffff163b119050919050565b600060019054906101000a900460ff16611a60576040517f08c379a0000000000000000000000000000000000000000000000000000000008152600401611a5790612c72565b60405180910390fd5b611a6a8282611f2f565b5050565b600060019054906101000a900460ff16611abd576040517f08c379a0000000000000000000000000000000000000000000000000000000008152600401611ab490612c72565b60405180910390fd5b611afc816040518060400160405280600181526020017f3100000000000000000000000000000000000000000000000000000000000000815250611fa2565b50565b600073ffffffffffffffffffffffffffffffffffffffff168273ffffffffffffffffffffffffffffffffffffffff1603611b6e576040517f08c379a0000000000000000000000000000000000000000000000000000000008152600401611b659061330b565b60405180910390fd5b611b7a60008383611cf9565b8060356000828254611b8c9190612b3a565b9250508190555080603360008473ffffffffffffffffffffffffffffffffffffffff1673ffffffffffffffffffffffffffffffffffffffff168152602001908152602001600020600082825401925050819055508173ffffffffffffffffffffffffffffffffffffffff16600073ffffffffffffffffffffffffffffffffffffffff167fddf252ad1be2c89b69c2b068fc378daa952ba7f163c4a11628f55a4df523b3ef83604051611c3e919061276c565b60405180910390a3611c5260008383611cfe565b5050565b600080609960008473ffffffffffffffffffffffffffffffffffffffff1673ffffffffffffffffffffffffffffffffffffffff1681526020019081526020016000209050611ca38161197d565b9150611cae8161201d565b50919050565b6000611cc7611cc1611647565b83612033565b9050919050565b6000806000611cdf87878787612066565b91509150611cec81612148565b8192505050949350505050565b505050565b505050565b611d0d8282610a5a565b611d8457611d1a816122ae565b611d288360001c60206122db565b604051602001611d399291906133ff565b6040516020818303038152906040526040517f08c379a0000000000000000000000000000000000000000000000000000000008152600401611d7b9190612667565b60405180910390fd5b5050565b6000606554905090565b6000606654905090565b60008383834630604051602001611db7959493929190613439565b6040516020818303038152906040528051906020012090509392505050565b611dde610837565b611e1d576040517f08c379a0000000000000000000000000000000000000000000000000000000008152600401611e14906134d8565b60405180910390fd5b565b600060019054906101000a900460ff16611e6e576040517f08c379a0000000000000000000000000000000000000000000000000000000008152600401611e6590612c72565b60405180910390fd5b600060cc60006101000a81548160ff021916908315150217905550565b600060019054906101000a900460ff16611eda576040517f08c379a0000000000000000000000000000000000000000000000000000000008152600401611ed190612c72565b60405180910390fd5b600161016281905550565b611eed610837565b15611f2d576040517f08c379a0000000000000000000000000000000000000000000000000000000008152600401611f2490613544565b60405180910390fd5b565b600060019054906101000a900460ff16611f7e576040517f08c379a0000000000000000000000000000000000000000000000000000000008152600401611f7590612c72565b60405180910390fd5b8160369081611f8d9190613735565b508060379081611f9d9190613735565b505050565b600060019054906101000a900460ff16611ff1576040517f08c379a0000000000000000000000000000000000000000000000000000000008152600401611fe890612c72565b60405180910390fd5b600082805190602001209050600082805190602001209050816065819055508060668190555050505050565b6001816000016000828254019250508190555050565b60008282604051602001612048929190613874565b60405160208183030381529060405280519060200120905092915050565b6000807f7fffffffffffffffffffffffffffffff5d576e7357a4501ddfe92f46681b20a08360001c11156120a157600060039150915061213f565b6000600187878787604051600081526020016040526040516120c694939291906138ab565b6020604051602081039080840390855afa1580156120e8573d6000803e3d6000fd5b505050602060405103519050600073ffffffffffffffffffffffffffffffffffffffff168173ffffffffffffffffffffffffffffffffffffffff16036121365760006001925092505061213f565b80600092509250505b94509492505050565b6000600481111561215c5761215b6138f0565b5b81600481111561216f5761216e6138f0565b5b03156122ab5760016004811115612189576121886138f0565b5b81600481111561219c5761219b6138f0565b5b036121dc576040517f08c379a00000000000000000000000000000000000000000000000000000000081526004016121d39061396b565b60405180910390fd5b600260048111156121f0576121ef6138f0565b5b816004811115612203576122026138f0565b5b03612243576040517f08c379a000000000000000000000000000000000000000000000000000000000815260040161223a906139d7565b60405180910390fd5b60036004811115612257576122566138f0565b5b81600481111561226a576122696138f0565b5b036122aa576040517f08c379a00000000000000000000000000000000000000000000000000000000081526004016122a190613a69565b60405180910390fd5b5b50565b60606122d48273ffffffffffffffffffffffffffffffffffffffff16601460ff166122db565b9050919050565b6060600060028360026122ee9190613a89565b6122f89190612b3a565b67ffffffffffffffff81111561231157612310613564565b5b6040519080825280601f01601f1916602001820160405280156123435781602001600182028036833780820191505090505b5090507f30000000000000000000000000000000000000000000000000000000000000008160008151811061237b5761237a613ae3565b5b60200101907effffffffffffffffffffffffffffffffffffffffffffffffffffffffffffff1916908160001a9053507f7800000000000000000000000000000000000000000000000000000000000000816001815181106123df576123de613ae3565b5b60200101907effffffffffffffffffffffffffffffffffffffffffffffffffffffffffffff1916908160001a9053506000600184600261241f9190613a89565b6124299190612b3a565b90505b60018111156124c9577f3031323334353637383961626364656600000000000000000000000000000000600f86166010811061246b5761246a613ae3565b5b1a60f81b82828151811061248257612481613ae3565b5b60200101907effffffffffffffffffffffffffffffffffffffffffffffffffffffffffffff1916908160001a905350600485901c9450806124c290613b12565b905061242c565b506000841461250d576040517f08c379a000000000000000000000000000000000000000000000000000000000815260040161250490613b87565b60405180910390fd5b8091505092915050565b600080fd5b60007fffffffff0000000000000000000000000000000000000000000000000000000082169050919050565b6125518161251c565b811461255c57600080fd5b50565b60008135905061256e81612548565b92915050565b60006020828403121561258a57612589612517565b5b60006125988482850161255f565b91505092915050565b60008115159050919050565b6125b6816125a1565b82525050565b60006020820190506125d160008301846125ad565b92915050565b600081519050919050565b600082825260208201905092915050565b60005b838110156126115780820151818401526020810190506125f6565b60008484015250505050565b6000601f19601f8301169050919050565b6000612639826125d7565b61264381856125e2565b93506126538185602086016125f3565b61265c8161261d565b840191505092915050565b60006020820190508181036000830152612681818461262e565b905092915050565b600073ffffffffffffffffffffffffffffffffffffffff82169050919050565b60006126b482612689565b9050919050565b6126c4816126a9565b81146126cf57600080fd5b50565b6000813590506126e1816126bb565b92915050565b6000819050919050565b6126fa816126e7565b811461270557600080fd5b50565b600081359050612717816126f1565b92915050565b6000806040838503121561273457612733612517565b5b6000612742858286016126d2565b925050602061275385828601612708565b9150509250929050565b612766816126e7565b82525050565b6000602082019050612781600083018461275d565b92915050565b6000806000606084860312156127a05761279f612517565b5b60006127ae868287016126d2565b93505060206127bf868287016126d2565b92505060406127d086828701612708565b9150509250925092565b6000819050919050565b6127ed816127da565b81146127f857600080fd5b50565b60008135905061280a816127e4565b92915050565b60006020828403121561282657612825612517565b5b6000612834848285016127fb565b91505092915050565b612846816127da565b82525050565b6000602082019050612861600083018461283d565b92915050565b6000806040838503121561287e5761287d612517565b5b600061288c858286016127fb565b925050602061289d858286016126d2565b9150509250929050565b600060ff82169050919050565b6128bd816128a7565b82525050565b60006020820190506128d860008301846128b4565b92915050565b6000602082840312156128f4576128f3612517565b5b6000612902848285016126d2565b91505092915050565b612914816128a7565b811461291f57600080fd5b50565b6000813590506129318161290b565b92915050565b600080600080600080600060e0888a03121561295657612955612517565b5b60006129648a828b016126d2565b97505060206129758a828b016126d2565b96505060406129868a828b01612708565b95505060606129978a828b01612708565b94505060806129a88a828b01612922565b93505060a06129b98a828b016127fb565b92505060c06129ca8a828b016127fb565b91505092959891949750929550565b600080604083850312156129f0576129ef612517565b5b60006129fe858286016126d2565b9250506020612a0f858286016126d2565b9150509250929050565b7f4e487b7100000000000000000000000000000000000000000000000000000000600052602260045260246000fd5b60006002820490506001821680612a6057607f821691505b602082108103612a7357612a72612a19565b5b50919050565b7f416363657373436f6e74726f6c3a2063616e206f6e6c792072656e6f756e636560008201527f20726f6c657320666f722073656c660000000000000000000000000000000000602082015250565b6000612ad5602f836125e2565b9150612ae082612a79565b604082019050919050565b60006020820190508181036000830152612b0481612ac8565b9050919050565b7f4e487b7100000000000000000000000000000000000000000000000000000000600052601160045260246000fd5b6000612b45826126e7565b9150612b50836126e7565b9250828201905080821115612b6857612b67612b0b565b5b92915050565b7f4d75737420686176652061646d696e20726f6c6520746f20706572666f726d2060008201527f7468697320616374696f6e2e0000000000000000000000000000000000000000602082015250565b6000612bca602c836125e2565b9150612bd582612b6e565b604082019050919050565b60006020820190508181036000830152612bf981612bbd565b9050919050565b7f496e697469616c697a61626c653a20636f6e7472616374206973206e6f74206960008201527f6e697469616c697a696e67000000000000000000000000000000000000000000602082015250565b6000612c5c602b836125e2565b9150612c6782612c00565b604082019050919050565b60006020820190508181036000830152612c8b81612c4f565b9050919050565b7f45524332303a2064656372656173656420616c6c6f77616e63652062656c6f7760008201527f207a65726f000000000000000000000000000000000000000000000000000000602082015250565b6000612cee6025836125e2565b9150612cf982612c92565b604082019050919050565b60006020820190508181036000830152612d1d81612ce1565b9050919050565b7f496e697469616c697a61626c653a20636f6e747261637420697320616c72656160008201527f647920696e697469616c697a6564000000000000000000000000000000000000602082015250565b6000612d80602e836125e2565b9150612d8b82612d24565b604082019050919050565b60006020820190508181036000830152612daf81612d73565b9050919050565b6000819050919050565b6000819050919050565b6000612de5612de0612ddb84612db6565b612dc0565b6128a7565b9050919050565b612df581612dca565b82525050565b6000602082019050612e106000830184612dec565b92915050565b7f45524332305065726d69743a206578706972656420646561646c696e65000000600082015250565b6000612e4c601d836125e2565b9150612e5782612e16565b602082019050919050565b60006020820190508181036000830152612e7b81612e3f565b9050919050565b612e8b816126a9565b82525050565b600060c082019050612ea6600083018961283d565b612eb36020830188612e82565b612ec06040830187612e82565b612ecd606083018661275d565b612eda608083018561275d565b612ee760a083018461275d565b979650505050505050565b7f45524332305065726d69743a20696e76616c6964207369676e61747572650000600082015250565b6000612f28601e836125e2565b9150612f3382612ef2565b602082019050919050565b60006020820190508181036000830152612f5781612f1b565b9050919050565b7f45524332303a20617070726f76652066726f6d20746865207a65726f2061646460008201527f7265737300000000000000000000000000000000000000000000000000000000602082015250565b6000612fba6024836125e2565b9150612fc582612f5e565b604082019050919050565b60006020820190508181036000830152612fe981612fad565b9050919050565b7f45524332303a20617070726f766520746f20746865207a65726f20616464726560008201527f7373000000000000000000000000000000000000000000000000000000000000602082015250565b600061304c6022836125e2565b915061305782612ff0565b604082019050919050565b6000602082019050818103600083015261307b8161303f565b9050919050565b7f45524332303a20696e73756666696369656e7420616c6c6f77616e6365000000600082015250565b60006130b8601d836125e2565b91506130c382613082565b602082019050919050565b600060208201905081810360008301526130e7816130ab565b9050919050565b7f45524332303a207472616e736665722066726f6d20746865207a65726f20616460008201527f6472657373000000000000000000000000000000000000000000000000000000602082015250565b600061314a6025836125e2565b9150613155826130ee565b604082019050919050565b600060208201905081810360008301526131798161313d565b9050919050565b7f45524332303a207472616e7366657220746f20746865207a65726f206164647260008201527f6573730000000000000000000000000000000000000000000000000000000000602082015250565b60006131dc6023836125e2565b91506131e782613180565b604082019050919050565b6000602082019050818103600083015261320b816131cf565b9050919050565b7f45524332303a207472616e7366657220616d6f756e742065786365656473206260008201527f616c616e63650000000000000000000000000000000000000000000000000000602082015250565b600061326e6026836125e2565b915061327982613212565b604082019050919050565b6000602082019050818103600083015261329d81613261565b9050919050565b60006020820190506132b96000830184612e82565b92915050565b7f45524332303a206d696e7420746f20746865207a65726f206164647265737300600082015250565b60006132f5601f836125e2565b9150613300826132bf565b602082019050919050565b60006020820190508181036000830152613324816132e8565b9050919050565b600081905092915050565b7f416363657373436f6e74726f6c3a206163636f756e7420000000000000000000600082015250565b600061336c60178361332b565b915061337782613336565b601782019050919050565b600061338d826125d7565b613397818561332b565b93506133a78185602086016125f3565b80840191505092915050565b7f206973206d697373696e6720726f6c6520000000000000000000000000000000600082015250565b60006133e960118361332b565b91506133f4826133b3565b601182019050919050565b600061340a8261335f565b91506134168285613382565b9150613421826133dc565b915061342d8284613382565b91508190509392505050565b600060a08201905061344e600083018861283d565b61345b602083018761283d565b613468604083018661283d565b613475606083018561275d565b6134826080830184612e82565b9695505050505050565b7f5061757361626c653a206e6f7420706175736564000000000000000000000000600082015250565b60006134c26014836125e2565b91506134cd8261348c565b602082019050919050565b600060208201905081810360008301526134f1816134b5565b9050919050565b7f5061757361626c653a2070617573656400000000000000000000000000000000600082015250565b600061352e6010836125e2565b9150613539826134f8565b602082019050919050565b6000602082019050818103600083015261355d81613521565b9050919050565b7f4e487b7100000000000000000000000000000000000000000000000000000000600052604160045260246000fd5b60008190508160005260206000209050919050565b60006020601f8301049050919050565b600082821b905092915050565b6000600883026135f57fffffffffffffffffffffffffffffffffffffffffffffffffffffffffffffffff826135b8565b6135ff86836135b8565b95508019841693508086168417925050509392505050565b600061363261362d613628846126e7565b612dc0565b6126e7565b9050919050565b6000819050919050565b61364c83613617565b61366061365882613639565b8484546135c5565b825550505050565b600090565b613675613668565b613680818484613643565b505050565b5b818110156136a45761369960008261366d565b600181019050613686565b5050565b601f8211156136e9576136ba81613593565b6136c3846135a8565b810160208510156136d2578190505b6136e66136de856135a8565b830182613685565b50505b505050565b600082821c905092915050565b600061370c600019846008026136ee565b1980831691505092915050565b600061372583836136fb565b9150826002028217905092915050565b61373e826125d7565b67ffffffffffffffff81111561375757613756613564565b5b6137618254612a48565b61376c8282856136a8565b600060209050601f83116001811461379f576000841561378d578287015190505b6137978582613719565b8655506137ff565b601f1984166137ad86613593565b60005b828110156137d5578489015182556001820191506020850194506020810190506137b0565b868310156137f257848901516137ee601f8916826136fb565b8355505b6001600288020188555050505b505050505050565b7f1901000000000000000000000000000000000000000000000000000000000000600082015250565b600061383d60028361332b565b915061384882613807565b600282019050919050565b6000819050919050565b61386e613869826127da565b613853565b82525050565b600061387f82613830565b915061388b828561385d565b60208201915061389b828461385d565b6020820191508190509392505050565b60006080820190506138c0600083018761283d565b6138cd60208301866128b4565b6138da604083018561283d565b6138e7606083018461283d565b95945050505050565b7f4e487b7100000000000000000000000000000000000000000000000000000000600052602160045260246000fd5b7f45434453413a20696e76616c6964207369676e61747572650000000000000000600082015250565b60006139556018836125e2565b91506139608261391f565b602082019050919050565b6000602082019050818103600083015261398481613948565b9050919050565b7f45434453413a20696e76616c6964207369676e6174757265206c656e67746800600082015250565b60006139c1601f836125e2565b91506139cc8261398b565b602082019050919050565b600060208201905081810360008301526139f0816139b4565b9050919050565b7f45434453413a20696e76616c6964207369676e6174757265202773272076616c60008201527f7565000000000000000000000000000000000000000000000000000000000000602082015250565b6000613a536022836125e2565b9150613a5e826139f7565b604082019050919050565b60006020820190508181036000830152613a8281613a46565b9050919050565b6000613a94826126e7565b9150613a9f836126e7565b9250817fffffffffffffffffffffffffffffffffffffffffffffffffffffffffffffffff0483118215151615613ad857613ad7612b0b565b5b828202905092915050565b7f4e487b7100000000000000000000000000000000000000000000000000000000600052603260045260246000fd5b6000613b1d826126e7565b915060008203613b3057613b2f612b0b565b5b600182039050919050565b7f537472696e67733a20686578206c656e67746820696e73756666696369656e74600082015250565b6000613b716020836125e2565b9150613b7c82613b3b565b602082019050919050565b60006020820190508181036000830152613ba081613b64565b905091905056fea2646970667358221220b830e749555bb17a4158c42b8a21ed19e08dfa95146921d603aa61fe9cc53ca164736f6c63430008100033",
  "linkReferences": {},
  "deployedLinkReferences": {}
}