{
  "_format": "hh-sol-artifact-1",
  "contractName": "AAVEV3Insurance",
  "sourceName": "contracts/core/zeroPremium/SmartContractInsurance/AAVE/AAVEV3Insurance.sol",
  "abi": [
    {
      "inputs": [],
      "name": "AAVE_ZP__IncorrectAddressesInputError",
      "type": "error"
    },
    {
      "inputs": [],
      "name": "AAVE_ZP__InitializedEarlierError",
      "type": "error"
    },
    {
      "inputs": [],
      "name": "AAVE_ZP__LessThanMinimumAmountError",
      "type": "error"
    },
    {
      "inputs": [],
      "name": "AAVE_ZP__LiquidateTokensOperationFailedError",
      "type": "error"
    },
    {
      "inputs": [],
      "name": "AAVE_ZP__OperationPaused",
      "type": "error"
    },
    {
      "inputs": [],
      "name": "AAVE_ZP__RewardClaimOperationReverted",
      "type": "error"
    },
    {
      "inputs": [],
      "name": "AAVE_ZP__TokenSupplyFailed",
      "type": "error"
    },
    {
      "inputs": [],
      "name": "AAVE_ZP__TokenSupplyOperationReverted",
      "type": "error"
    },
    {
      "inputs": [],
      "name": "AAVE_ZP__TokenWithdrawalOperationReverted",
      "type": "error"
    },
    {
      "inputs": [],
      "name": "AAVE_ZP__WrongInfoEnteredError",
      "type": "error"
    },
    {
      "inputs": [],
      "name": "BaseUpgradeablePausable__ZeroAddressError",
      "type": "error"
    },
    {
      "anonymous": false,
      "inputs": [
        {
          "indexed": false,
          "internalType": "uint8",
          "name": "version",
          "type": "uint8"
        }
      ],
      "name": "Initialized",
      "type": "event"
    },
    {
      "anonymous": false,
      "inputs": [
        {
          "indexed": false,
          "internalType": "address",
          "name": "account",
          "type": "address"
        }
      ],
      "name": "Paused",
      "type": "event"
    },
    {
      "anonymous": false,
      "inputs": [
        {
          "indexed": true,
          "internalType": "bytes32",
          "name": "role",
          "type": "bytes32"
        },
        {
          "indexed": true,
          "internalType": "bytes32",
          "name": "previousAdminRole",
          "type": "bytes32"
        },
        {
          "indexed": true,
          "internalType": "bytes32",
          "name": "newAdminRole",
          "type": "bytes32"
        }
      ],
      "name": "RoleAdminChanged",
      "type": "event"
    },
    {
      "anonymous": false,
      "inputs": [
        {
          "indexed": true,
          "internalType": "bytes32",
          "name": "role",
          "type": "bytes32"
        },
        {
          "indexed": true,
          "internalType": "address",
          "name": "account",
          "type": "address"
        },
        {
          "indexed": true,
          "internalType": "address",
          "name": "sender",
          "type": "address"
        }
      ],
      "name": "RoleGranted",
      "type": "event"
    },
    {
      "anonymous": false,
      "inputs": [
        {
          "indexed": true,
          "internalType": "bytes32",
          "name": "role",
          "type": "bytes32"
        },
        {
          "indexed": true,
          "internalType": "address",
          "name": "account",
          "type": "address"
        },
        {
          "indexed": true,
          "internalType": "address",
          "name": "sender",
          "type": "address"
        }
      ],
      "name": "RoleRevoked",
      "type": "event"
    },
    {
      "anonymous": false,
      "inputs": [
        {
          "indexed": true,
          "internalType": "address",
          "name": "userAddress",
          "type": "address"
        },
        {
          "indexed": true,
          "internalType": "address",
          "name": "tokenAddress",
          "type": "address"
        },
        {
          "indexed": true,
          "internalType": "uint256",
          "name": "amount",
          "type": "uint256"
        }
      ],
      "name": "SuppliedToken",
      "type": "event"
    },
    {
      "anonymous": false,
      "inputs": [
        {
          "indexed": false,
          "internalType": "address",
          "name": "account",
          "type": "address"
        }
      ],
      "name": "Unpaused",
      "type": "event"
    },
    {
      "anonymous": false,
      "inputs": [
        {
          "indexed": true,
          "internalType": "address",
          "name": "userAddress",
          "type": "address"
        },
        {
          "indexed": true,
          "internalType": "address",
          "name": "tokenAddress",
          "type": "address"
        },
        {
          "indexed": true,
          "internalType": "uint256",
          "name": "amount",
          "type": "uint256"
        }
      ],
      "name": "WithdrawnToken",
      "type": "event"
    },
    {
      "inputs": [],
      "name": "DEFAULT_ADMIN_ROLE",
      "outputs": [
        {
          "internalType": "bytes32",
          "name": "",
          "type": "bytes32"
        }
      ],
      "stateMutability": "view",
      "type": "function"
    },
    {
      "inputs": [],
      "name": "PLATFORM_FEE",
      "outputs": [
        {
          "internalType": "uint256",
          "name": "",
          "type": "uint256"
        }
      ],
      "stateMutability": "view",
      "type": "function"
    },
    {
      "inputs": [
        {
          "internalType": "address",
          "name": "owner",
          "type": "address"
        }
      ],
      "name": "__BaseUpgradeablePausable_init",
      "outputs": [],
      "stateMutability": "nonpayable",
      "type": "function"
    },
    {
      "inputs": [
        {
          "internalType": "address",
          "name": "addressUser",
          "type": "address"
        },
        {
          "internalType": "address",
          "name": "aTokenAddress",
          "type": "address"
        }
      ],
      "name": "calculateUserRewardAndBalance",
      "outputs": [
        {
          "internalType": "uint256",
          "name": "",
          "type": "uint256"
        },
        {
          "internalType": "uint256[]",
          "name": "",
          "type": "uint256[]"
        }
      ],
      "stateMutability": "view",
      "type": "function"
    },
    {
      "inputs": [],
      "name": "childEpoch",
      "outputs": [
        {
          "internalType": "uint256",
          "name": "",
          "type": "uint256"
        }
      ],
      "stateMutability": "view",
      "type": "function"
    },
    {
      "inputs": [
        {
          "internalType": "address",
          "name": "",
          "type": "address"
        },
        {
          "internalType": "uint256",
          "name": "",
          "type": "uint256"
        }
      ],
      "name": "epochsInfo",
      "outputs": [
        {
          "internalType": "uint256",
          "name": "aTokenBalance",
          "type": "uint256"
        }
      ],
      "stateMutability": "view",
      "type": "function"
    },
    {
      "inputs": [
        {
          "internalType": "bytes32",
          "name": "role",
          "type": "bytes32"
        }
      ],
      "name": "getRoleAdmin",
      "outputs": [
        {
          "internalType": "bytes32",
          "name": "",
          "type": "bytes32"
        }
      ],
      "stateMutability": "view",
      "type": "function"
    },
    {
      "inputs": [],
      "name": "globalPauseOperation",
      "outputs": [
        {
          "internalType": "contract IGlobalPauseOperation",
          "name": "",
          "type": "address"
        }
      ],
      "stateMutability": "view",
      "type": "function"
    },
    {
      "inputs": [
        {
          "internalType": "bytes32",
          "name": "role",
          "type": "bytes32"
        },
        {
          "internalType": "address",
          "name": "account",
          "type": "address"
        }
      ],
      "name": "grantRole",
      "outputs": [],
      "stateMutability": "nonpayable",
      "type": "function"
    },
    {
      "inputs": [
        {
          "internalType": "bytes32",
          "name": "role",
          "type": "bytes32"
        },
        {
          "internalType": "address",
          "name": "account",
          "type": "address"
        }
      ],
      "name": "hasRole",
      "outputs": [
        {
          "internalType": "bool",
          "name": "",
          "type": "bool"
        }
      ],
      "stateMutability": "view",
      "type": "function"
    },
    {
      "inputs": [],
      "name": "ifNotPaused",
      "outputs": [],
      "stateMutability": "view",
      "type": "function"
    },
    {
      "inputs": [],
      "name": "incentivesAAVEV3",
      "outputs": [
        {
          "internalType": "contract IAAVEV3Incentives",
          "name": "",
          "type": "address"
        }
      ],
      "stateMutability": "view",
      "type": "function"
    },
    {
      "inputs": [
        {
          "internalType": "uint256",
          "name": "protocolID_",
          "type": "uint256"
        },
        {
          "internalType": "address",
          "name": "lendingAddress",
          "type": "address"
        },
        {
          "internalType": "address",
          "name": "incentivesAddress",
          "type": "address"
        },
        {
          "internalType": "address",
          "name": "deployedAddress",
          "type": "address"
        },
        {
          "internalType": "address",
          "name": "zpControllerAddress",
          "type": "address"
        },
        {
          "internalType": "string",
          "name": "protocolName",
          "type": "string"
        }
      ],
      "name": "init",
      "outputs": [],
      "stateMutability": "nonpayable",
      "type": "function"
    },
    {
      "inputs": [],
      "name": "initVersion",
      "outputs": [
        {
          "internalType": "uint256",
          "name": "",
          "type": "uint256"
        }
      ],
      "stateMutability": "view",
      "type": "function"
    },
    {
      "inputs": [
        {
          "internalType": "address",
          "name": "addressPauseOperation",
          "type": "address"
        }
      ],
      "name": "initialize",
      "outputs": [],
      "stateMutability": "nonpayable",
      "type": "function"
    },
    {
      "inputs": [],
      "name": "interfaceAAVEV3",
      "outputs": [
        {
          "internalType": "contract IAAVEV3Interface",
          "name": "",
          "type": "address"
        }
      ],
      "stateMutability": "view",
      "type": "function"
    },
    {
      "inputs": [],
      "name": "isAdmin",
      "outputs": [
        {
          "internalType": "bool",
          "name": "",
          "type": "bool"
        }
      ],
      "stateMutability": "view",
      "type": "function"
    },
    {
      "inputs": [],
      "name": "isModerator",
      "outputs": [
        {
          "internalType": "bool",
          "name": "",
          "type": "bool"
        }
      ],
      "stateMutability": "view",
      "type": "function"
    },
    {
      "inputs": [
        {
          "internalType": "address[]",
          "name": "tokenAddresses",
          "type": "address[]"
        },
        {
          "internalType": "address[]",
          "name": "aTokenAddresses",
          "type": "address[]"
        },
        {
          "internalType": "address",
          "name": "claimSettlementAddress",
          "type": "address"
        },
        {
          "internalType": "uint256",
          "name": "protocolRiskCategory",
          "type": "uint256"
        },
        {
          "internalType": "uint256",
          "name": "liquidatedEpoch",
          "type": "uint256"
        }
      ],
      "name": "liquidateTokens",
      "outputs": [],
      "stateMutability": "nonpayable",
      "type": "function"
    },
    {
      "inputs": [
        {
          "internalType": "uint256",
          "name": "",
          "type": "uint256"
        }
      ],
      "name": "parentEpoch",
      "outputs": [
        {
          "internalType": "uint256",
          "name": "",
          "type": "uint256"
        }
      ],
      "stateMutability": "view",
      "type": "function"
    },
    {
      "inputs": [],
      "name": "paused",
      "outputs": [
        {
          "internalType": "bool",
          "name": "",
          "type": "bool"
        }
      ],
      "stateMutability": "view",
      "type": "function"
    },
    {
      "inputs": [
        {
          "internalType": "address",
          "name": "",
          "type": "address"
        }
      ],
      "name": "previousChildEpoch",
      "outputs": [
        {
          "internalType": "uint256",
          "name": "",
          "type": "uint256"
        }
      ],
      "stateMutability": "view",
      "type": "function"
    },
    {
      "inputs": [],
      "name": "protocolID",
      "outputs": [
        {
          "internalType": "uint256",
          "name": "",
          "type": "uint256"
        }
      ],
      "stateMutability": "view",
      "type": "function"
    },
    {
      "inputs": [
        {
          "internalType": "bytes32",
          "name": "role",
          "type": "bytes32"
        },
        {
          "internalType": "address",
          "name": "account",
          "type": "address"
        }
      ],
      "name": "renounceRole",
      "outputs": [],
      "stateMutability": "nonpayable",
      "type": "function"
    },
    {
      "inputs": [
        {
          "internalType": "bytes32",
          "name": "role",
          "type": "bytes32"
        },
        {
          "internalType": "address",
          "name": "account",
          "type": "address"
        }
      ],
      "name": "revokeRole",
      "outputs": [],
      "stateMutability": "nonpayable",
      "type": "function"
    },
    {
      "inputs": [
        {
          "internalType": "uint256",
          "name": "",
          "type": "uint256"
        }
      ],
      "name": "rewardTokenAddresses",
      "outputs": [
        {
          "internalType": "address",
          "name": "",
          "type": "address"
        }
      ],
      "stateMutability": "view",
      "type": "function"
    },
    {
      "inputs": [
        {
          "internalType": "address",
          "name": "",
          "type": "address"
        }
      ],
      "name": "rewardTokenExists",
      "outputs": [
        {
          "internalType": "bool",
          "name": "",
          "type": "bool"
        }
      ],
      "stateMutability": "view",
      "type": "function"
    },
    {
      "inputs": [
        {
          "internalType": "address",
          "name": "tokenAddress",
          "type": "address"
        },
        {
          "internalType": "address",
          "name": "aTokenAddress",
          "type": "address"
        },
        {
          "internalType": "uint256",
          "name": "amount",
          "type": "uint256"
        },
        {
          "internalType": "uint256",
          "name": "deadline",
          "type": "uint256"
        },
        {
          "internalType": "uint8",
          "name": "permitV",
          "type": "uint8"
        },
        {
          "internalType": "bytes32",
          "name": "permitR",
          "type": "bytes32"
        },
        {
          "internalType": "bytes32",
          "name": "permitS",
          "type": "bytes32"
        }
      ],
      "name": "supplyToken",
      "outputs": [],
      "stateMutability": "nonpayable",
      "type": "function"
    },
    {
      "inputs": [
        {
          "internalType": "bytes4",
          "name": "interfaceId",
          "type": "bytes4"
        }
      ],
      "name": "supportsInterface",
      "outputs": [
        {
          "internalType": "bool",
          "name": "",
          "type": "bool"
        }
      ],
      "stateMutability": "view",
      "type": "function"
    },
    {
      "inputs": [
        {
          "internalType": "address",
          "name": "",
          "type": "address"
        },
        {
          "internalType": "address",
          "name": "",
          "type": "address"
        },
        {
          "internalType": "uint256",
          "name": "",
          "type": "uint256"
        }
      ],
      "name": "userChildEpochBalance",
      "outputs": [
        {
          "internalType": "uint256",
          "name": "",
          "type": "uint256"
        }
      ],
      "stateMutability": "view",
      "type": "function"
    },
    {
      "inputs": [
        {
          "internalType": "address",
          "name": "",
          "type": "address"
        },
        {
          "internalType": "address",
          "name": "",
          "type": "address"
        }
      ],
      "name": "usersInfo",
      "outputs": [
        {
          "internalType": "bool",
          "name": "isActiveInvested",
          "type": "bool"
        },
        {
          "internalType": "uint256",
          "name": "poolSupplyRate",
          "type": "uint256"
        },
        {
          "internalType": "uint256",
          "name": "startChildEpoch",
          "type": "uint256"
        },
        {
          "internalType": "uint256",
          "name": "previousChildEpoch",
          "type": "uint256"
        },
        {
          "internalType": "uint256",
          "name": "lastRewardWithdrawalEpoch",
          "type": "uint256"
        }
      ],
      "stateMutability": "view",
      "type": "function"
    },
    {
      "inputs": [
        {
          "internalType": "address",
          "name": "tokenAddress",
          "type": "address"
        },
        {
          "internalType": "address",
          "name": "aTokenAddress",
          "type": "address"
        },
        {
          "internalType": "uint256",
          "name": "amount",
          "type": "uint256"
        }
      ],
      "name": "withdrawToken",
      "outputs": [],
      "stateMutability": "nonpayable",
      "type": "function"
    },
    {
      "inputs": [],
      "name": "zpController",
      "outputs": [
        {
          "internalType": "contract ISmartContractZPController",
          "name": "",
          "type": "address"
        }
      ],
      "stateMutability": "view",
      "type": "function"
    }
  ],
  "bytecode": "0x608060405234801561001057600080fd5b50615cd580620000216000396000f3fe608060405234801561001057600080fd5b50600436106101fa5760003560e01c8063699bf6fc1161011a578063a217fddf116100ad578063c4d66de81161007c578063c4d66de8146105dd578063d547741f146105f9578063d660257514610615578063e0fb2a0914610633578063e8031a9614610664576101fa565b8063a217fddf1461054f578063aeabaff31461056d578063b6db75a01461058b578063c207de5c146105a9576101fa565b806380eade32116100e957806380eade32146104b557806391d14854146104d157806393e9d1e814610501578063a1f1c3fc1461051f576101fa565b8063699bf6fc146104315780636e810b1a1461044d5780636f632114146104695780637b2d9b2c14610485576101fa565b806334fbc9a1116101925780634d868f98116101615780634d868f98146103bb5780635c7eaa6e146103c55780635c975abb146103f557806364063fdf14610413576101fa565b806334fbc9a11461034557806336568abe1461036357806338d38c971461037f5780633a21b1c01461039d576101fa565b8063248a9ca3116101ce578063248a9ca3146102ab5780632e4a5d60146102db5780632e7826501461030b5780632f2ff15d14610329576101fa565b8062fb7200146101ff57806301e336671461022f57806301ffc9a71461024b5780632200b6641461027b575b600080fd5b6102196004803603810190610214919061408e565b610682565b60405161022691906140f0565b60405180910390f35b6102496004803603810190610244919061408e565b6106b5565b005b61026560048036038101906102609190614163565b610772565b60405161027291906141ab565b60405180910390f35b610295600480360381019061029091906141c6565b6107ec565b6040516102a291906140f0565b60405180910390f35b6102c560048036038101906102c09190614229565b610805565b6040516102d29190614265565b60405180910390f35b6102f560048036038101906102f09190614280565b610825565b60405161030291906141ab565b60405180910390f35b610313610846565b604051610320919061430c565b60405180910390f35b610343600480360381019061033e9190614327565b61086d565b005b61034d61088e565b60405161035a91906140f0565b60405180910390f35b61037d60048036038101906103789190614327565b610893565b005b610387610916565b60405161039491906140f0565b60405180910390f35b6103a561091c565b6040516103b29190614388565b60405180910390f35b6103c3610942565b005b6103df60048036038101906103da9190614280565b610a1c565b6040516103ec91906140f0565b60405180910390f35b6103fd610a35565b60405161040a91906141ab565b60405180910390f35b61041b610a4c565b60405161042891906143c4565b60405180910390f35b61044b60048036038101906104469190614538565b610a73565b005b61046760048036038101906104629190614280565b610b45565b005b610483600480360381019061047e9190614624565b610c67565b005b61049f600480360381019061049a91906141c6565b610d7c565b6040516104ac91906146d5565b60405180910390f35b6104cf60048036038101906104ca91906147a5565b610dbb565b005b6104eb60048036038101906104e69190614327565b6110be565b6040516104f891906141ab565b60405180910390f35b610509611129565b60405161051691906140f0565b60405180910390f35b6105396004803603810190610534919061484e565b61112f565b60405161054691906140f0565b60405180910390f35b61055761115b565b6040516105649190614265565b60405180910390f35b610575611162565b60405161058291906141ab565b60405180910390f35b610593611181565b6040516105a091906141ab565b60405180910390f35b6105c360048036038101906105be919061488e565b6111a0565b6040516105d49594939291906148ce565b60405180910390f35b6105f760048036038101906105f29190614280565b6111f1565b005b610613600480360381019061060e9190614327565b61137a565b005b61061d61139b565b60405161062a91906140f0565b60405180910390f35b61064d6004803603810190610648919061488e565b6113a1565b60405161065b9291906149df565b60405180910390f35b61066c611bcc565b6040516106799190614a30565b60405180910390f35b61010860205282600052604060002060205281600052604060002060205280600052604060002060009250925050505481565b6106bd611bf3565b6106c5610942565b60006106d86106d2611c42565b846113a1565b50905081811015610715576040517fd610850300000000000000000000000000000000000000000000000000000000815260040160405180910390fd5b600061072a610722611c42565b868686611c4a565b905080610763576040517f3f099fb200000000000000000000000000000000000000000000000000000000815260040160405180910390fd5b505061076d612010565b505050565b60007f7965db0b000000000000000000000000000000000000000000000000000000007bffffffffffffffffffffffffffffffffffffffffffffffffffffffff1916827bffffffffffffffffffffffffffffffffffffffffffffffffffffffff191614806107e557506107e48261201a565b5b9050919050565b6101036020528060005260406000206000915090505481565b600060976000838152602001908152602001600020600101549050919050565b6101046020528060005260406000206000915054906101000a900460ff1681565b61010060009054906101000a900473ffffffffffffffffffffffffffffffffffffffff1681565b61087682610805565b61087f81612084565b6108898383612098565b505050565b600a81565b61089b611c42565b73ffffffffffffffffffffffffffffffffffffffff168173ffffffffffffffffffffffffffffffffffffffff1614610908576040517f08c379a00000000000000000000000000000000000000000000000000000000081526004016108ff90614ace565b60405180910390fd5b6109128282612179565b5050565b60fd5481565b60ff60009054906101000a900473ffffffffffffffffffffffffffffffffffffffff1681565b61094a610a35565b806109e3575061010260009054906101000a900473ffffffffffffffffffffffffffffffffffffffff1673ffffffffffffffffffffffffffffffffffffffff1663b187bd266040518163ffffffff1660e01b8152600401602060405180830381865afa1580156109be573d6000803e3d6000fd5b505050506040513d601f19601f820116820180604052508101906109e29190614b1a565b5b15610a1a576040517fd9ecdc8600000000000000000000000000000000000000000000000000000000815260040160405180910390fd5b565b6101056020528060005260406000206000915090505481565b6000603360009054906101000a900460ff16905090565b61010260009054906101000a900473ffffffffffffffffffffffffffffffffffffffff1681565b610a7b611181565b610aba576040517f08c379a0000000000000000000000000000000000000000000000000000000008152600401610ab190614bb9565b60405180910390fd5b8351855114610af5576040517fe4014eb800000000000000000000000000000000000000000000000000000000815260040160405180910390fd5b6000610b04868686868661225b565b905080610b3d576040517f424a677100000000000000000000000000000000000000000000000000000000815260040160405180910390fd5b505050505050565b600060019054906101000a900460ff16610b94576040517f08c379a0000000000000000000000000000000000000000000000000000000008152600401610b8b90614c4b565b60405180910390fd5b600073ffffffffffffffffffffffffffffffffffffffff168173ffffffffffffffffffffffffffffffffffffffff1603610bfa576040517f5415139400000000000000000000000000000000000000000000000000000000815260040160405180910390fd5b610c026126cc565b610c0a612725565b610c12612776565b610c23610c1d6127cf565b82612098565b610c34610c2e6127f7565b82612098565b610c4c610c3f6127f7565b610c476127cf565b61281f565b610c64610c576127cf565b610c5f6127cf565b61281f565b50565b610c6f611bf3565b610c77610942565b6402540be400851015610cb6576040517fd610850300000000000000000000000000000000000000000000000000000000815260040160405180910390fd5b6000610ccf610cc3611c42565b8989898989898961287b565b905080610d08576040517fb9d5cdcc00000000000000000000000000000000000000000000000000000000815260040160405180910390fd5b858873ffffffffffffffffffffffffffffffffffffffff16610d28611c42565b73ffffffffffffffffffffffffffffffffffffffff167fa64bf1fcc4f3d7c965ef3091c978df041ad959bfaa6d5abc7d99a17830407b2960405160405180910390a450610d73612010565b50505050505050565b60fe8181548110610d8c57600080fd5b906000526020600020016000915054906101000a900473ffffffffffffffffffffffffffffffffffffffff1681565b610dc3611181565b610e02576040517f08c379a0000000000000000000000000000000000000000000000000000000008152600401610df990614bb9565b60405180910390fd5b600060fd541115610e3f576040517f96e81afa00000000000000000000000000000000000000000000000000000000815260040160405180910390fd5b60fd60008154610e4e90614c9a565b919050819055508460ff60006101000a81548173ffffffffffffffffffffffffffffffffffffffff021916908373ffffffffffffffffffffffffffffffffffffffff1602179055508361010060006101000a81548173ffffffffffffffffffffffffffffffffffffffff021916908373ffffffffffffffffffffffffffffffffffffffff1602179055508161010160006101000a81548173ffffffffffffffffffffffffffffffffffffffff021916908373ffffffffffffffffffffffffffffffffffffffff16021790555060008061010160009054906101000a900473ffffffffffffffffffffffffffffffffffffffff1673ffffffffffffffffffffffffffffffffffffffff16634b40ac92896040518263ffffffff1660e01b8152600401610f7991906140f0565b600060405180830381865afa158015610f96573d6000803e3d6000fd5b505050506040513d6000823e3d601f19601f82011682018060405250810190610fbf9190614d91565b915091508473ffffffffffffffffffffffffffffffffffffffff168173ffffffffffffffffffffffffffffffffffffffff1614611028576040517fc10890ef00000000000000000000000000000000000000000000000000000000815260040160405180910390fd5b826040516020016110399190614e34565b60405160208183030381529060405280519060200120826040516020016110609190614e34565b60405160208183030381529060405280519060200120146110ad576040517fc10890ef00000000000000000000000000000000000000000000000000000000815260040160405180910390fd5b8760fb819055505050505050505050565b60006097600084815260200190815260200160002060000160008373ffffffffffffffffffffffffffffffffffffffff1673ffffffffffffffffffffffffffffffffffffffff16815260200190815260200160002060009054906101000a900460ff16905092915050565b60fb5481565b610107602052816000526040600020602052806000526040600020600091509150508060000154905081565b6000801b81565b600061117c61116f6127f7565b611177611c42565b6110be565b905090565b600061119b61118e6127cf565b611196611c42565b6110be565b905090565b610106602052816000526040600020602052806000526040600020600091509150508060000160009054906101000a900460ff16908060010154908060020154908060030154908060040154905085565b60008060019054906101000a900460ff161590508080156112225750600160008054906101000a900460ff1660ff16105b8061124f575061123130612b18565b15801561124e5750600160008054906101000a900460ff1660ff16145b5b61128e576040517f08c379a000000000000000000000000000000000000000000000000000000000815260040161128590614ebd565b60405180910390fd5b60016000806101000a81548160ff021916908360ff16021790555080156112cb576001600060016101000a81548160ff0219169083151502179055505b8161010260006101000a81548173ffffffffffffffffffffffffffffffffffffffff021916908373ffffffffffffffffffffffffffffffffffffffff16021790555061131d611318611c42565b610b45565b80156113765760008060016101000a81548160ff0219169083151502179055507f7f26b83ff96e1f2b6a682f133852f6798a09c465da95921460cefb3847402498600160405161136d9190614f18565b60405180910390a15b5050565b61138382610805565b61138c81612084565b6113968383612179565b505050565b60fc5481565b60006060600080600080600060fc549050600061010660008b73ffffffffffffffffffffffffffffffffffffffff1673ffffffffffffffffffffffffffffffffffffffff16815260200190815260200160002060008a73ffffffffffffffffffffffffffffffffffffffff1673ffffffffffffffffffffffffffffffffffffffff168152602001908152602001600020600201549050600060fe8054905067ffffffffffffffff811115611458576114576143f5565b5b6040519080825280602002602001820160405280156114865781602001602082028036833780820191505090505b50905060008290505b83811015611ad557600061010860008e73ffffffffffffffffffffffffffffffffffffffff1673ffffffffffffffffffffffffffffffffffffffff16815260200190815260200160002060008d73ffffffffffffffffffffffffffffffffffffffff1673ffffffffffffffffffffffffffffffffffffffff1681526020019081526020016000206000838152602001908152602001600020541161153357876115c3565b61010860008d73ffffffffffffffffffffffffffffffffffffffff1673ffffffffffffffffffffffffffffffffffffffff16815260200190815260200160002060008c73ffffffffffffffffffffffffffffffffffffffff1673ffffffffffffffffffffffffffffffffffffffff1681526020019081526020016000206000828152602001908152602001600020545b97508061010660008e73ffffffffffffffffffffffffffffffffffffffff1673ffffffffffffffffffffffffffffffffffffffff16815260200190815260200160002060008d73ffffffffffffffffffffffffffffffffffffffff1673ffffffffffffffffffffffffffffffffffffffff1681526020019081526020016000206004015410156117e45760005b60fe805490508110156117e257600060fe828154811061167357611672614f33565b5b9060005260206000200160009054906101000a900473ffffffffffffffffffffffffffffffffffffffff169050600061010760008f73ffffffffffffffffffffffffffffffffffffffff1673ffffffffffffffffffffffffffffffffffffffff1681526020019081526020016000206000858152602001908152602001600020905061010760008f73ffffffffffffffffffffffffffffffffffffffff1673ffffffffffffffffffffffffffffffffffffffff1681526020019081526020016000206000858152602001908152602001600020600001548160010160008473ffffffffffffffffffffffffffffffffffffffff1673ffffffffffffffffffffffffffffffffffffffff168152602001908152602001600020548c6117979190614f62565b6117a19190614feb565b8584815181106117b4576117b3614f33565b5b602002602001018181516117c8919061501c565b91508181525050826117d990614c9a565b92505050611650565b505b60006101036000838152602001908152602001600020549050808814611ac35780975061010160009054906101000a900473ffffffffffffffffffffffffffffffffffffffff1673ffffffffffffffffffffffffffffffffffffffff166305044ea660fb548a6040518363ffffffff1660e01b8152600401611867929190615050565b602060405180830381865afa158015611884573d6000803e3d6000fd5b505050506040513d601f19601f820116820180604052508101906118a89190614b1a565b156119515761010160009054906101000a900473ffffffffffffffffffffffffffffffffffffffff1673ffffffffffffffffffffffffffffffffffffffff16639cb0675860fb548a6040518363ffffffff1660e01b815260040161190d929190615050565b602060405180830381865afa15801561192a573d6000803e3d6000fd5b505050506040513d601f19601f8201168201806040525081019061194e919061508e565b96505b61010160009054906101000a900473ffffffffffffffffffffffffffffffffffffffff1673ffffffffffffffffffffffffffffffffffffffff1663b557e4a689896040518363ffffffff1660e01b81526004016119af929190615050565b602060405180830381865afa1580156119cc573d6000803e3d6000fd5b505050506040513d601f19601f820116820180604052508101906119f09190614b1a565b15611ac257606461010160009054906101000a900473ffffffffffffffffffffffffffffffffffffffff1673ffffffffffffffffffffffffffffffffffffffff166339c4c2058a6040518263ffffffff1660e01b8152600401611a5391906140f0565b602060405180830381865afa158015611a70573d6000803e3d6000fd5b505050506040513d601f19601f82011682018060405250810190611a94919061508e565b8a611a9f9190614f62565b611aa99190614feb565b89611ab491906150bb565b86611abf919061501c565b95505b5b81611acd90614c9a565b91505061148f565b508387611ae291906150bb565b9650600061010660008d73ffffffffffffffffffffffffffffffffffffffff1673ffffffffffffffffffffffffffffffffffffffff16815260200190815260200160002060008c73ffffffffffffffffffffffffffffffffffffffff1673ffffffffffffffffffffffffffffffffffffffff168152602001908152602001600020600101549050600064174876e800600a670de0b6b3a764000084611b879190614feb565b8b611b929190614f62565b611b9c9190614f62565b611ba69190614feb565b90508089611bb491906150bb565b985088839a509a505050505050505050509250929050565b61010160009054906101000a900473ffffffffffffffffffffffffffffffffffffffff1681565b600260c95403611c38576040517f08c379a0000000000000000000000000000000000000000000000000000000008152600401611c2f9061513b565b60405180910390fd5b600260c981905550565b600033905090565b6000611c54612b3b565b611c6c83600160fc54611c6791906150bb565b612c05565b611c7b600060fc548486612e51565b611c8760008585613005565b611c9460008387866131a9565b600080611ca8611ca2611c42565b866113a1565b91509150818403611d545760006101066000611cc2611c42565b73ffffffffffffffffffffffffffffffffffffffff1673ffffffffffffffffffffffffffffffffffffffff16815260200190815260200160002060008773ffffffffffffffffffffffffffffffffffffffff1673ffffffffffffffffffffffffffffffffffffffff16815260200190815260200160002060000160006101000a81548160ff0219169083151502179055505b600086905060008173ffffffffffffffffffffffffffffffffffffffff166370a08231306040518263ffffffff1660e01b8152600401611d9491906146d5565b602060405180830381865afa158015611db1573d6000803e3d6000fd5b505050506040513d601f19601f82011682018060405250810190611dd5919061508e565b905060ff60009054906101000a900473ffffffffffffffffffffffffffffffffffffffff1673ffffffffffffffffffffffffffffffffffffffff166369328dec8888306040518463ffffffff1660e01b8152600401611e369392919061515b565b600060405180830381600087803b158015611e5057600080fd5b505af1158015611e64573d6000803e3d6000fd5b5050505060008273ffffffffffffffffffffffffffffffffffffffff166370a08231306040518263ffffffff1660e01b8152600401611ea391906146d5565b602060405180830381865afa158015611ec0573d6000803e3d6000fd5b505050506040513d601f19601f82011682018060405250810190611ee4919061508e565b905060008282611ef491906150bb565b9050611f28611f01611c42565b828673ffffffffffffffffffffffffffffffffffffffff1661348f9092919063ffffffff16565b60005b60fe80549050811015611ffd57600060fe8281548110611f4e57611f4d614f33565b5b9060005260206000200160009054906101000a900473ffffffffffffffffffffffffffffffffffffffff1690506000878381518110611f9057611f8f614f33565b5b60200260200101511115611feb57611fea611fa9611c42565b888481518110611fbc57611fbb614f33565b5b60200260200101518373ffffffffffffffffffffffffffffffffffffffff1661348f9092919063ffffffff16565b5b81611ff590614c9a565b915050611f2b565b5060019650505050505050949350505050565b600160c981905550565b60007f01ffc9a7000000000000000000000000000000000000000000000000000000007bffffffffffffffffffffffffffffffffffffffffffffffffffffffff1916827bffffffffffffffffffffffffffffffffffffffffffffffffffffffff1916149050919050565b61209581612090611c42565b613515565b50565b6120a282826110be565b6121755760016097600084815260200190815260200160002060000160008373ffffffffffffffffffffffffffffffffffffffff1673ffffffffffffffffffffffffffffffffffffffff16815260200190815260200160002060006101000a81548160ff02191690831515021790555061211a611c42565b73ffffffffffffffffffffffffffffffffffffffff168173ffffffffffffffffffffffffffffffffffffffff16837f2f8788117e7eff1d82e926ec794901d17c78024a50270940304540a733656f0d60405160405180910390a45b5050565b61218382826110be565b156122575760006097600084815260200190815260200160002060000160008373ffffffffffffffffffffffffffffffffffffffff1673ffffffffffffffffffffffffffffffffffffffff16815260200190815260200160002060006101000a81548160ff0219169083151502179055506121fc611c42565b73ffffffffffffffffffffffffffffffffffffffff168173ffffffffffffffffffffffffffffffffffffffff16837ff6391f5c32d9c69d2a47ea670b442974b53935d1edc7fd64eb21e047a839171b60405160405180910390a45b5050565b60008086519050600061010160009054906101000a900473ffffffffffffffffffffffffffffffffffffffff1673ffffffffffffffffffffffffffffffffffffffff166339c4c205856040518263ffffffff1660e01b81526004016122c091906140f0565b602060405180830381865afa1580156122dd573d6000803e3d6000fd5b505050506040513d601f19601f82011682018060405250810190612301919061508e565b905060005b828110156126b4578561010160009054906101000a900473ffffffffffffffffffffffffffffffffffffffff1673ffffffffffffffffffffffffffffffffffffffff16634dbc7b2860fb546040518263ffffffff1660e01b815260040161236d91906140f0565b602060405180830381865afa15801561238a573d6000803e3d6000fd5b505050506040513d601f19601f820116820180604052508101906123ae919061508e565b036126a35760008982815181106123c8576123c7614f33565b5b6020026020010151905060008983815181106123e7576123e6614f33565b5b60200260200101519050600061010560008373ffffffffffffffffffffffffffffffffffffffff1673ffffffffffffffffffffffffffffffffffffffff168152602001908152602001600020549050600061010760008473ffffffffffffffffffffffffffffffffffffffff1673ffffffffffffffffffffffffffffffffffffffff168152602001908152602001600020600083815260200190815260200160002060000154905060006064828861249f9190614f62565b6124a99190614feb565b905060008573ffffffffffffffffffffffffffffffffffffffff166370a08231306040518263ffffffff1660e01b81526004016124e691906146d5565b602060405180830381865afa158015612503573d6000803e3d6000fd5b505050506040513d601f19601f82011682018060405250810190612527919061508e565b905060ff60009054906101000a900473ffffffffffffffffffffffffffffffffffffffff1673ffffffffffffffffffffffffffffffffffffffff166369328dec8684306040518463ffffffff1660e01b81526004016125889392919061515b565b600060405180830381600087803b1580156125a257600080fd5b505af11580156125b6573d6000803e3d6000fd5b5050505060008673ffffffffffffffffffffffffffffffffffffffff166370a08231306040518263ffffffff1660e01b81526004016125f591906146d5565b602060405180830381865afa158015612612573d6000803e3d6000fd5b505050506040513d601f19601f82011682018060405250810190612636919061508e565b90506000828261264691906150bb565b90506126636000600160fc5461265c919061501c565b868a612e51565b61266f8760fc54612c05565b61269a8f828a73ffffffffffffffffffffffffffffffffffffffff1661348f9092919063ffffffff16565b50505050505050505b806126ad90614c9a565b9050612306565b506126bd612b3b565b60019250505095945050505050565b600060019054906101000a900460ff1661271b576040517f08c379a000000000000000000000000000000000000000000000000000000000815260040161271290614c4b565b60405180910390fd5b61272361359a565b565b600060019054906101000a900460ff16612774576040517f08c379a000000000000000000000000000000000000000000000000000000000815260040161276b90614c4b565b60405180910390fd5b565b600060019054906101000a900460ff166127c5576040517f08c379a00000000000000000000000000000000000000000000000000000000081526004016127bc90614c4b565b60405180910390fd5b6127cd613606565b565b60007fa49807205ce4d355092ef5a8a18f56e8913cf4a201fbe287825b095693c21775905090565b60007f65d7a28e3265b37a6474929f336521b332c1681b933f6cb9f3376673440d862a905090565b600061282a83610805565b90508160976000858152602001908152602001600020600101819055508181847fbd79b86ffe0ab8e8776151514217cd7cacd52c909f66475c3af44e129f0b00ff60405160405180910390a4505050565b6000612885612b3b565b61289d87600160fc5461289891906150bb565b612c05565b6128a960018989613005565b6000889050600088905060008a905060008273ffffffffffffffffffffffffffffffffffffffff166370a08231306040518263ffffffff1660e01b81526004016128f391906146d5565b602060405180830381865afa158015612910573d6000803e3d6000fd5b505050506040513d601f19601f82011682018060405250810190612934919061508e565b905061296b8d308c8c8c8c8c8973ffffffffffffffffffffffffffffffffffffffff1661365f90979695949392919063ffffffff16565b6129988d308c8773ffffffffffffffffffffffffffffffffffffffff1661382c909392919063ffffffff16565b6129e560ff60009054906101000a900473ffffffffffffffffffffffffffffffffffffffff168b8673ffffffffffffffffffffffffffffffffffffffff166138b59092919063ffffffff16565b60ff60009054906101000a900473ffffffffffffffffffffffffffffffffffffffff1673ffffffffffffffffffffffffffffffffffffffff1663617ba0378d8c3060006040518563ffffffff1660e01b8152600401612a4794939291906151db565b600060405180830381600087803b158015612a6157600080fd5b505af1158015612a75573d6000803e3d6000fd5b5050505060008373ffffffffffffffffffffffffffffffffffffffff166370a08231306040518263ffffffff1660e01b8152600401612ab491906146d5565b602060405180830381865afa158015612ad1573d6000803e3d6000fd5b505050506040513d601f19601f82011682018060405250810190612af5919061508e565b9050612b038e8d84846139c7565b60019550505050505098975050505050505050565b6000808273ffffffffffffffffffffffffffffffffffffffff163b119050919050565b60fc60008154612b4a90614c9a565b91905081905550600061010160009054906101000a900473ffffffffffffffffffffffffffffffffffffffff1673ffffffffffffffffffffffffffffffffffffffff1663c07f47d46040518163ffffffff1660e01b8152600401602060405180830381865afa158015612bc1573d6000803e3d6000fd5b505050506040513d601f19601f82011682018060405250810190612be5919061508e565b905080610103600060fc5481526020019081526020016000208190555050565b6000600167ffffffffffffffff811115612c2257612c216143f5565b5b604051908082528060200260200182016040528015612c505781602001602082028036833780820191505090505b5090508281600081518110612c6857612c67614f33565b5b602002602001019073ffffffffffffffffffffffffffffffffffffffff16908173ffffffffffffffffffffffffffffffffffffffff168152505060008061010060009054906101000a900473ffffffffffffffffffffffffffffffffffffffff1673ffffffffffffffffffffffffffffffffffffffff1663bf90f63a846040518263ffffffff1660e01b8152600401612d0191906152de565b6000604051808303816000875af1158015612d20573d6000803e3d6000fd5b505050506040513d6000823e3d601f19601f82011682018060405250810190612d49919061545a565b91509150600061010760008773ffffffffffffffffffffffffffffffffffffffff1673ffffffffffffffffffffffffffffffffffffffff1681526020019081526020016000206000868152602001908152602001600020905060005b8351811015612e48576000848281518110612dc357612dc2614f33565b5b60200260200101519050612dd6816139fa565b838281518110612de957612de8614f33565b5b60200260200101518360010160008373ffffffffffffffffffffffffffffffffffffffff1673ffffffffffffffffffffffffffffffffffffffff1681526020019081526020016000208190555081612e4090614c9a565b915050612da5565b50505050505050565b600061010560008373ffffffffffffffffffffffffffffffffffffffff1673ffffffffffffffffffffffffffffffffffffffff16815260200190815260200160002054905084612f00578261010760008473ffffffffffffffffffffffffffffffffffffffff1673ffffffffffffffffffffffffffffffffffffffff168152602001908152602001600020600083815260200190815260200160002060000154612efb91906150bb565b612f61565b8261010760008473ffffffffffffffffffffffffffffffffffffffff1673ffffffffffffffffffffffffffffffffffffffff168152602001908152602001600020600083815260200190815260200160002060000154612f60919061501c565b5b61010760008473ffffffffffffffffffffffffffffffffffffffff1673ffffffffffffffffffffffffffffffffffffffff1681526020019081526020016000206000868152602001908152602001600020600001819055508361010560008473ffffffffffffffffffffffffffffffffffffffff1673ffffffffffffffffffffffffffffffffffffffff168152602001908152602001600020819055505050505050565b60006101066000613014611c42565b73ffffffffffffffffffffffffffffffffffffffff1673ffffffffffffffffffffffffffffffffffffffff16815260200190815260200160002060008373ffffffffffffffffffffffffffffffffffffffff1673ffffffffffffffffffffffffffffffffffffffff1681526020019081526020016000209050600060ff60009054906101000a900473ffffffffffffffffffffffffffffffffffffffff1673ffffffffffffffffffffffffffffffffffffffff166335ea6a75856040518263ffffffff1660e01b81526004016130ea91906146d5565b6101e060405180830381865afa158015613108573d6000803e3d6000fd5b505050506040513d601f19601f8201168201806040525081019061312c9190615728565b905084801561314a57508160000160009054906101000a900460ff16155b156131785760018260000160006101000a81548160ff02191690831515021790555060fc5482600201819055505b80604001516fffffffffffffffffffffffffffffffff16826001018190555060fc5482600401819055505050505050565b600061010660008473ffffffffffffffffffffffffffffffffffffffff1673ffffffffffffffffffffffffffffffffffffffff16815260200190815260200160002060008373ffffffffffffffffffffffffffffffffffffffff1673ffffffffffffffffffffffffffffffffffffffff168152602001908152602001600020600301549050846132d2578361010860008573ffffffffffffffffffffffffffffffffffffffff1673ffffffffffffffffffffffffffffffffffffffff16815260200190815260200160002060008473ffffffffffffffffffffffffffffffffffffffff1673ffffffffffffffffffffffffffffffffffffffff1681526020019081526020016000206000838152602001908152602001600020546132cd91906150bb565b61336d565b8361010860008573ffffffffffffffffffffffffffffffffffffffff1673ffffffffffffffffffffffffffffffffffffffff16815260200190815260200160002060008473ffffffffffffffffffffffffffffffffffffffff1673ffffffffffffffffffffffffffffffffffffffff16815260200190815260200160002060008381526020019081526020016000205461336c919061501c565b5b61010860008573ffffffffffffffffffffffffffffffffffffffff1673ffffffffffffffffffffffffffffffffffffffff16815260200190815260200160002060008473ffffffffffffffffffffffffffffffffffffffff1673ffffffffffffffffffffffffffffffffffffffff168152602001908152602001600020600060fc5481526020019081526020016000208190555060fc5461010660008573ffffffffffffffffffffffffffffffffffffffff1673ffffffffffffffffffffffffffffffffffffffff16815260200190815260200160002060008473ffffffffffffffffffffffffffffffffffffffff1673ffffffffffffffffffffffffffffffffffffffff168152602001908152602001600020600301819055505050505050565b6135108363a9059cbb60e01b84846040516024016134ae929190615756565b604051602081830303815290604052907bffffffffffffffffffffffffffffffffffffffffffffffffffffffff19166020820180517bffffffffffffffffffffffffffffffffffffffffffffffffffffffff8381831617835250505050613b0c565b505050565b61351f82826110be565b6135965761352c81613bd3565b61353a8360001c6020613c00565b60405160200161354b929190615817565b6040516020818303038152906040526040517f08c379a000000000000000000000000000000000000000000000000000000000815260040161358d919061588a565b60405180910390fd5b5050565b600060019054906101000a900460ff166135e9576040517f08c379a00000000000000000000000000000000000000000000000000000000081526004016135e090614c4b565b60405180910390fd5b6000603360006101000a81548160ff021916908315150217905550565b600060019054906101000a900460ff16613655576040517f08c379a000000000000000000000000000000000000000000000000000000000815260040161364c90614c4b565b60405180910390fd5b600160c981905550565b60008873ffffffffffffffffffffffffffffffffffffffff16637ecebe00896040518263ffffffff1660e01b815260040161369a91906146d5565b602060405180830381865afa1580156136b7573d6000803e3d6000fd5b505050506040513d601f19601f820116820180604052508101906136db919061508e565b90508873ffffffffffffffffffffffffffffffffffffffff1663d505accf898989898989896040518863ffffffff1660e01b815260040161372297969594939291906158bb565b600060405180830381600087803b15801561373c57600080fd5b505af1158015613750573d6000803e3d6000fd5b5050505060008973ffffffffffffffffffffffffffffffffffffffff16637ecebe008a6040518263ffffffff1660e01b815260040161378f91906146d5565b602060405180830381865afa1580156137ac573d6000803e3d6000fd5b505050506040513d601f19601f820116820180604052508101906137d0919061508e565b90506001826137df919061501c565b8114613820576040517f08c379a00000000000000000000000000000000000000000000000000000000081526004016138179061599c565b60405180910390fd5b50505050505050505050565b6138af846323b872dd60e01b85858560405160240161384d939291906159bc565b604051602081830303815290604052907bffffffffffffffffffffffffffffffffffffffffffffffffffffffff19166020820180517bffffffffffffffffffffffffffffffffffffffffffffffffffffffff8381831617835250505050613b0c565b50505050565b6000818473ffffffffffffffffffffffffffffffffffffffff1663dd62ed3e30866040518363ffffffff1660e01b81526004016138f39291906159f3565b602060405180830381865afa158015613910573d6000803e3d6000fd5b505050506040513d601f19601f82011682018060405250810190613934919061508e565b61393e919061501c565b90506139c18463095ea7b360e01b858460405160240161395f929190615756565b604051602081830303815290604052907bffffffffffffffffffffffffffffffffffffffffffffffffffffffff19166020820180517bffffffffffffffffffffffffffffffffffffffffffffffffffffffff8381831617835250505050613b0c565b50505050565b600082826139d591906150bb565b90506139e6600160fc548387612e51565b6139f360018287876131a9565b5050505050565b61010460008273ffffffffffffffffffffffffffffffffffffffff1673ffffffffffffffffffffffffffffffffffffffff16815260200190815260200160002060009054906101000a900460ff16613b0957600161010460008373ffffffffffffffffffffffffffffffffffffffff1673ffffffffffffffffffffffffffffffffffffffff16815260200190815260200160002060006101000a81548160ff02191690831515021790555060fe819080600181540180825580915050600190039060005260206000200160009091909190916101000a81548173ffffffffffffffffffffffffffffffffffffffff021916908373ffffffffffffffffffffffffffffffffffffffff1602179055505b50565b6000613b6e826040518060400160405280602081526020017f5361666545524332303a206c6f772d6c6576656c2063616c6c206661696c65648152508573ffffffffffffffffffffffffffffffffffffffff16613e3c9092919063ffffffff16565b9050600081511115613bce5780806020019051810190613b8e9190614b1a565b613bcd576040517f08c379a0000000000000000000000000000000000000000000000000000000008152600401613bc490615a8e565b60405180910390fd5b5b505050565b6060613bf98273ffffffffffffffffffffffffffffffffffffffff16601460ff16613c00565b9050919050565b606060006002836002613c139190614f62565b613c1d919061501c565b67ffffffffffffffff811115613c3657613c356143f5565b5b6040519080825280601f01601f191660200182016040528015613c685781602001600182028036833780820191505090505b5090507f300000000000000000000000000000000000000000000000000000000000000081600081518110613ca057613c9f614f33565b5b60200101907effffffffffffffffffffffffffffffffffffffffffffffffffffffffffffff1916908160001a9053507f780000000000000000000000000000000000000000000000000000000000000081600181518110613d0457613d03614f33565b5b60200101907effffffffffffffffffffffffffffffffffffffffffffffffffffffffffffff1916908160001a90535060006001846002613d449190614f62565b613d4e919061501c565b90505b6001811115613dee577f3031323334353637383961626364656600000000000000000000000000000000600f861660108110613d9057613d8f614f33565b5b1a60f81b828281518110613da757613da6614f33565b5b60200101907effffffffffffffffffffffffffffffffffffffffffffffffffffffffffffff1916908160001a905350600485901c945080613de790615aae565b9050613d51565b5060008414613e32576040517f08c379a0000000000000000000000000000000000000000000000000000000008152600401613e2990615b23565b60405180910390fd5b8091505092915050565b6060613e4b8484600085613e54565b90509392505050565b606082471015613e99576040517f08c379a0000000000000000000000000000000000000000000000000000000008152600401613e9090615bb5565b60405180910390fd5b6000808673ffffffffffffffffffffffffffffffffffffffff168587604051613ec29190615c1c565b60006040518083038185875af1925050503d8060008114613eff576040519150601f19603f3d011682016040523d82523d6000602084013e613f04565b606091505b5091509150613f1587838387613f21565b92505050949350505050565b60608315613f83576000835103613f7b57613f3b85612b18565b613f7a576040517f08c379a0000000000000000000000000000000000000000000000000000000008152600401613f7190615c7f565b60405180910390fd5b5b829050613f8e565b613f8d8383613f96565b5b949350505050565b600082511115613fa95781518083602001fd5b806040517f08c379a0000000000000000000000000000000000000000000000000000000008152600401613fdd919061588a565b60405180910390fd5b6000604051905090565b600080fd5b600080fd5b600073ffffffffffffffffffffffffffffffffffffffff82169050919050565b600061402582613ffa565b9050919050565b6140358161401a565b811461404057600080fd5b50565b6000813590506140528161402c565b92915050565b6000819050919050565b61406b81614058565b811461407657600080fd5b50565b60008135905061408881614062565b92915050565b6000806000606084860312156140a7576140a6613ff0565b5b60006140b586828701614043565b93505060206140c686828701614043565b92505060406140d786828701614079565b9150509250925092565b6140ea81614058565b82525050565b600060208201905061410560008301846140e1565b92915050565b60007fffffffff0000000000000000000000000000000000000000000000000000000082169050919050565b6141408161410b565b811461414b57600080fd5b50565b60008135905061415d81614137565b92915050565b60006020828403121561417957614178613ff0565b5b60006141878482850161414e565b91505092915050565b60008115159050919050565b6141a581614190565b82525050565b60006020820190506141c0600083018461419c565b92915050565b6000602082840312156141dc576141db613ff0565b5b60006141ea84828501614079565b91505092915050565b6000819050919050565b614206816141f3565b811461421157600080fd5b50565b600081359050614223816141fd565b92915050565b60006020828403121561423f5761423e613ff0565b5b600061424d84828501614214565b91505092915050565b61425f816141f3565b82525050565b600060208201905061427a6000830184614256565b92915050565b60006020828403121561429657614295613ff0565b5b60006142a484828501614043565b91505092915050565b6000819050919050565b60006142d26142cd6142c884613ffa565b6142ad565b613ffa565b9050919050565b60006142e4826142b7565b9050919050565b60006142f6826142d9565b9050919050565b614306816142eb565b82525050565b600060208201905061432160008301846142fd565b92915050565b6000806040838503121561433e5761433d613ff0565b5b600061434c85828601614214565b925050602061435d85828601614043565b9150509250929050565b6000614372826142d9565b9050919050565b61438281614367565b82525050565b600060208201905061439d6000830184614379565b92915050565b60006143ae826142d9565b9050919050565b6143be816143a3565b82525050565b60006020820190506143d960008301846143b5565b92915050565b600080fd5b6000601f19601f8301169050919050565b7f4e487b7100000000000000000000000000000000000000000000000000000000600052604160045260246000fd5b61442d826143e4565b810181811067ffffffffffffffff8211171561444c5761444b6143f5565b5b80604052505050565b600061445f613fe6565b905061446b8282614424565b919050565b600067ffffffffffffffff82111561448b5761448a6143f5565b5b602082029050602081019050919050565b600080fd5b60006144b46144af84614470565b614455565b905080838252602082019050602084028301858111156144d7576144d661449c565b5b835b8181101561450057806144ec8882614043565b8452602084019350506020810190506144d9565b5050509392505050565b600082601f83011261451f5761451e6143df565b5b813561452f8482602086016144a1565b91505092915050565b600080600080600060a0868803121561455457614553613ff0565b5b600086013567ffffffffffffffff81111561457257614571613ff5565b5b61457e8882890161450a565b955050602086013567ffffffffffffffff81111561459f5761459e613ff5565b5b6145ab8882890161450a565b94505060406145bc88828901614043565b93505060606145cd88828901614079565b92505060806145de88828901614079565b9150509295509295909350565b600060ff82169050919050565b614601816145eb565b811461460c57600080fd5b50565b60008135905061461e816145f8565b92915050565b600080600080600080600060e0888a03121561464357614642613ff0565b5b60006146518a828b01614043565b97505060206146628a828b01614043565b96505060406146738a828b01614079565b95505060606146848a828b01614079565b94505060806146958a828b0161460f565b93505060a06146a68a828b01614214565b92505060c06146b78a828b01614214565b91505092959891949750929550565b6146cf8161401a565b82525050565b60006020820190506146ea60008301846146c6565b92915050565b600080fd5b600067ffffffffffffffff8211156147105761470f6143f5565b5b614719826143e4565b9050602081019050919050565b82818337600083830152505050565b6000614748614743846146f5565b614455565b905082815260208101848484011115614764576147636146f0565b5b61476f848285614726565b509392505050565b600082601f83011261478c5761478b6143df565b5b813561479c848260208601614735565b91505092915050565b60008060008060008060c087890312156147c2576147c1613ff0565b5b60006147d089828a01614079565b96505060206147e189828a01614043565b95505060406147f289828a01614043565b945050606061480389828a01614043565b935050608061481489828a01614043565b92505060a087013567ffffffffffffffff81111561483557614834613ff5565b5b61484189828a01614777565b9150509295509295509295565b6000806040838503121561486557614864613ff0565b5b600061487385828601614043565b925050602061488485828601614079565b9150509250929050565b600080604083850312156148a5576148a4613ff0565b5b60006148b385828601614043565b92505060206148c485828601614043565b9150509250929050565b600060a0820190506148e3600083018861419c565b6148f060208301876140e1565b6148fd60408301866140e1565b61490a60608301856140e1565b61491760808301846140e1565b9695505050505050565b600081519050919050565b600082825260208201905092915050565b6000819050602082019050919050565b61495681614058565b82525050565b6000614968838361494d565b60208301905092915050565b6000602082019050919050565b600061498c82614921565b614996818561492c565b93506149a18361493d565b8060005b838110156149d25781516149b9888261495c565b97506149c483614974565b9250506001810190506149a5565b5085935050505092915050565b60006040820190506149f460008301856140e1565b8181036020830152614a068184614981565b90509392505050565b6000614a1a826142d9565b9050919050565b614a2a81614a0f565b82525050565b6000602082019050614a456000830184614a21565b92915050565b600082825260208201905092915050565b7f416363657373436f6e74726f6c3a2063616e206f6e6c792072656e6f756e636560008201527f20726f6c657320666f722073656c660000000000000000000000000000000000602082015250565b6000614ab8602f83614a4b565b9150614ac382614a5c565b604082019050919050565b60006020820190508181036000830152614ae781614aab565b9050919050565b614af781614190565b8114614b0257600080fd5b50565b600081519050614b1481614aee565b92915050565b600060208284031215614b3057614b2f613ff0565b5b6000614b3e84828501614b05565b91505092915050565b7f4d75737420686176652061646d696e20726f6c6520746f20706572666f726d2060008201527f7468697320616374696f6e2e0000000000000000000000000000000000000000602082015250565b6000614ba3602c83614a4b565b9150614bae82614b47565b604082019050919050565b60006020820190508181036000830152614bd281614b96565b9050919050565b7f496e697469616c697a61626c653a20636f6e7472616374206973206e6f74206960008201527f6e697469616c697a696e67000000000000000000000000000000000000000000602082015250565b6000614c35602b83614a4b565b9150614c4082614bd9565b604082019050919050565b60006020820190508181036000830152614c6481614c28565b9050919050565b7f4e487b7100000000000000000000000000000000000000000000000000000000600052601160045260246000fd5b6000614ca582614058565b91507fffffffffffffffffffffffffffffffffffffffffffffffffffffffffffffffff8203614cd757614cd6614c6b565b5b600182019050919050565b60005b83811015614d00578082015181840152602081019050614ce5565b60008484015250505050565b6000614d1f614d1a846146f5565b614455565b905082815260208101848484011115614d3b57614d3a6146f0565b5b614d46848285614ce2565b509392505050565b600082601f830112614d6357614d626143df565b5b8151614d73848260208601614d0c565b91505092915050565b600081519050614d8b8161402c565b92915050565b60008060408385031215614da857614da7613ff0565b5b600083015167ffffffffffffffff811115614dc657614dc5613ff5565b5b614dd285828601614d4e565b9250506020614de385828601614d7c565b9150509250929050565b600081519050919050565b600081905092915050565b6000614e0e82614ded565b614e188185614df8565b9350614e28818560208601614ce2565b80840191505092915050565b6000614e408284614e03565b915081905092915050565b7f496e697469616c697a61626c653a20636f6e747261637420697320616c72656160008201527f647920696e697469616c697a6564000000000000000000000000000000000000602082015250565b6000614ea7602e83614a4b565b9150614eb282614e4b565b604082019050919050565b60006020820190508181036000830152614ed681614e9a565b9050919050565b6000819050919050565b6000614f02614efd614ef884614edd565b6142ad565b6145eb565b9050919050565b614f1281614ee7565b82525050565b6000602082019050614f2d6000830184614f09565b92915050565b7f4e487b7100000000000000000000000000000000000000000000000000000000600052603260045260246000fd5b6000614f6d82614058565b9150614f7883614058565b9250817fffffffffffffffffffffffffffffffffffffffffffffffffffffffffffffffff0483118215151615614fb157614fb0614c6b565b5b828202905092915050565b7f4e487b7100000000000000000000000000000000000000000000000000000000600052601260045260246000fd5b6000614ff682614058565b915061500183614058565b92508261501157615010614fbc565b5b828204905092915050565b600061502782614058565b915061503283614058565b925082820190508082111561504a57615049614c6b565b5b92915050565b600060408201905061506560008301856140e1565b61507260208301846140e1565b9392505050565b60008151905061508881614062565b92915050565b6000602082840312156150a4576150a3613ff0565b5b60006150b284828501615079565b91505092915050565b60006150c682614058565b91506150d183614058565b92508282039050818111156150e9576150e8614c6b565b5b92915050565b7f5265656e7472616e637947756172643a207265656e7472616e742063616c6c00600082015250565b6000615125601f83614a4b565b9150615130826150ef565b602082019050919050565b6000602082019050818103600083015261515481615118565b9050919050565b600060608201905061517060008301866146c6565b61517d60208301856140e1565b61518a60408301846146c6565b949350505050565b6000819050919050565b600061ffff82169050919050565b60006151c56151c06151bb84615192565b6142ad565b61519c565b9050919050565b6151d5816151aa565b82525050565b60006080820190506151f060008301876146c6565b6151fd60208301866140e1565b61520a60408301856146c6565b61521760608301846151cc565b95945050505050565b600081519050919050565b600082825260208201905092915050565b6000819050602082019050919050565b6152558161401a565b82525050565b6000615267838361524c565b60208301905092915050565b6000602082019050919050565b600061528b82615220565b615295818561522b565b93506152a08361523c565b8060005b838110156152d15781516152b8888261525b565b97506152c383615273565b9250506001810190506152a4565b5085935050505092915050565b600060208201905081810360008301526152f88184615280565b905092915050565b600061531361530e84614470565b614455565b905080838252602082019050602084028301858111156153365761533561449c565b5b835b8181101561535f578061534b8882614d7c565b845260208401935050602081019050615338565b5050509392505050565b600082601f83011261537e5761537d6143df565b5b815161538e848260208601615300565b91505092915050565b600067ffffffffffffffff8211156153b2576153b16143f5565b5b602082029050602081019050919050565b60006153d66153d184615397565b614455565b905080838252602082019050602084028301858111156153f9576153f861449c565b5b835b81811015615422578061540e8882615079565b8452602084019350506020810190506153fb565b5050509392505050565b600082601f830112615441576154406143df565b5b81516154518482602086016153c3565b91505092915050565b6000806040838503121561547157615470613ff0565b5b600083015167ffffffffffffffff81111561548f5761548e613ff5565b5b61549b85828601615369565b925050602083015167ffffffffffffffff8111156154bc576154bb613ff5565b5b6154c88582860161542c565b9150509250929050565b600080fd5b6000602082840312156154ed576154ec6154d2565b5b6154f76020614455565b9050600061550784828501615079565b60008301525092915050565b60006fffffffffffffffffffffffffffffffff82169050919050565b61553881615513565b811461554357600080fd5b50565b6000815190506155558161552f565b92915050565b600064ffffffffff82169050919050565b6155758161555b565b811461558057600080fd5b50565b6000815190506155928161556c565b92915050565b6155a18161519c565b81146155ac57600080fd5b50565b6000815190506155be81615598565b92915050565b60006101e082840312156155db576155da6154d2565b5b6155e66101e0614455565b905060006155f6848285016154d7565b600083015250602061560a84828501615546565b602083015250604061561e84828501615546565b604083015250606061563284828501615546565b606083015250608061564684828501615546565b60808301525060a061565a84828501615546565b60a08301525060c061566e84828501615583565b60c08301525060e0615682848285016155af565b60e08301525061010061569784828501614d7c565b610100830152506101206156ad84828501614d7c565b610120830152506101406156c384828501614d7c565b610140830152506101606156d984828501614d7c565b610160830152506101806156ef84828501615546565b610180830152506101a061570584828501615546565b6101a0830152506101c061571b84828501615546565b6101c08301525092915050565b60006101e0828403121561573f5761573e613ff0565b5b600061574d848285016155c4565b91505092915050565b600060408201905061576b60008301856146c6565b61577860208301846140e1565b9392505050565b7f416363657373436f6e74726f6c3a206163636f756e7420000000000000000000600082015250565b60006157b5601783614df8565b91506157c08261577f565b601782019050919050565b7f206973206d697373696e6720726f6c6520000000000000000000000000000000600082015250565b6000615801601183614df8565b915061580c826157cb565b601182019050919050565b6000615822826157a8565b915061582e8285614e03565b9150615839826157f4565b91506158458284614e03565b91508190509392505050565b600061585c82614ded565b6158668185614a4b565b9350615876818560208601614ce2565b61587f816143e4565b840191505092915050565b600060208201905081810360008301526158a48184615851565b905092915050565b6158b5816145eb565b82525050565b600060e0820190506158d0600083018a6146c6565b6158dd60208301896146c6565b6158ea60408301886140e1565b6158f760608301876140e1565b61590460808301866158ac565b61591160a0830185614256565b61591e60c0830184614256565b98975050505050505050565b7f5361666545524332303a207065726d697420646964206e6f742073756363656560008201527f6400000000000000000000000000000000000000000000000000000000000000602082015250565b6000615986602183614a4b565b91506159918261592a565b604082019050919050565b600060208201905081810360008301526159b581615979565b9050919050565b60006060820190506159d160008301866146c6565b6159de60208301856146c6565b6159eb60408301846140e1565b949350505050565b6000604082019050615a0860008301856146c6565b615a1560208301846146c6565b9392505050565b7f5361666545524332303a204552433230206f7065726174696f6e20646964206e60008201527f6f74207375636365656400000000000000000000000000000000000000000000602082015250565b6000615a78602a83614a4b565b9150615a8382615a1c565b604082019050919050565b60006020820190508181036000830152615aa781615a6b565b9050919050565b6000615ab982614058565b915060008203615acc57615acb614c6b565b5b600182039050919050565b7f537472696e67733a20686578206c656e67746820696e73756666696369656e74600082015250565b6000615b0d602083614a4b565b9150615b1882615ad7565b602082019050919050565b60006020820190508181036000830152615b3c81615b00565b9050919050565b7f416464726573733a20696e73756666696369656e742062616c616e636520666f60008201527f722063616c6c0000000000000000000000000000000000000000000000000000602082015250565b6000615b9f602683614a4b565b9150615baa82615b43565b604082019050919050565b60006020820190508181036000830152615bce81615b92565b9050919050565b600081519050919050565b600081905092915050565b6000615bf682615bd5565b615c008185615be0565b9350615c10818560208601614ce2565b80840191505092915050565b6000615c288284615beb565b915081905092915050565b7f416464726573733a2063616c6c20746f206e6f6e2d636f6e7472616374000000600082015250565b6000615c69601d83614a4b565b9150615c7482615c33565b602082019050919050565b60006020820190508181036000830152615c9881615c5c565b905091905056fea26469706673582212202d6f4c9ef55c141458fba2bbf9ea3d657d5e35762df3a536982bb7dfd1574ccb64736f6c63430008100033",
  "linkReferences": {},
  "deployedLinkReferences": {}
}