{
  "_format": "hh-sol-artifact-1",
  "contractName": "AAVEV3Insurance",
  "sourceName": "contracts/core/zeroPremium/SmartContractInsurance/AAVE/AAVEV3Insurance.sol",
  "abi": [
    {
      "inputs": [],
      "name": "AAVEV3Insurance_ZP__TransactionFailedError",
      "type": "error"
    },
    {
      "inputs": [
        {
          "internalType": "uint256",
          "name": "errorLineNumber",
          "type": "uint256"
        }
      ],
      "name": "AAVE_ZP__ImmutableChangesError",
      "type": "error"
    },
    {
      "inputs": [
        {
          "internalType": "uint256",
          "name": "errorLineNumber",
          "type": "uint256"
        }
      ],
      "name": "AAVE_ZP__LowAmountError",
      "type": "error"
    },
    {
      "inputs": [
        {
          "internalType": "uint256",
          "name": "errorLineNumber",
          "type": "uint256"
        }
      ],
      "name": "AAVE_ZP__LowSupplyAmountError",
      "type": "error"
    },
    {
      "inputs": [
        {
          "internalType": "uint256",
          "name": "errorLineNumber",
          "type": "uint256"
        }
      ],
      "name": "AAVE_ZP__TransactionFailedError",
      "type": "error"
    },
    {
      "inputs": [
        {
          "internalType": "uint256",
          "name": "errorLineNumber",
          "type": "uint256"
        }
      ],
      "name": "AAVE_ZP__WrongInfoEnteredError",
      "type": "error"
    },
    {
      "inputs": [],
      "name": "BaseUpgradeablePausable__ZeroAddressError",
      "type": "error"
    },
    {
      "anonymous": false,
      "inputs": [
        {
          "indexed": false,
          "internalType": "uint8",
          "name": "version",
          "type": "uint8"
        }
      ],
      "name": "Initialized",
      "type": "event"
    },
    {
      "anonymous": false,
      "inputs": [
        {
          "indexed": false,
          "internalType": "address",
          "name": "account",
          "type": "address"
        }
      ],
      "name": "Paused",
      "type": "event"
    },
    {
      "anonymous": false,
      "inputs": [
        {
          "indexed": true,
          "internalType": "bytes32",
          "name": "role",
          "type": "bytes32"
        },
        {
          "indexed": true,
          "internalType": "bytes32",
          "name": "previousAdminRole",
          "type": "bytes32"
        },
        {
          "indexed": true,
          "internalType": "bytes32",
          "name": "newAdminRole",
          "type": "bytes32"
        }
      ],
      "name": "RoleAdminChanged",
      "type": "event"
    },
    {
      "anonymous": false,
      "inputs": [
        {
          "indexed": true,
          "internalType": "bytes32",
          "name": "role",
          "type": "bytes32"
        },
        {
          "indexed": true,
          "internalType": "address",
          "name": "account",
          "type": "address"
        },
        {
          "indexed": true,
          "internalType": "address",
          "name": "sender",
          "type": "address"
        }
      ],
      "name": "RoleGranted",
      "type": "event"
    },
    {
      "anonymous": false,
      "inputs": [
        {
          "indexed": true,
          "internalType": "bytes32",
          "name": "role",
          "type": "bytes32"
        },
        {
          "indexed": true,
          "internalType": "address",
          "name": "account",
          "type": "address"
        },
        {
          "indexed": true,
          "internalType": "address",
          "name": "sender",
          "type": "address"
        }
      ],
      "name": "RoleRevoked",
      "type": "event"
    },
    {
      "anonymous": false,
      "inputs": [
        {
          "indexed": true,
          "internalType": "address",
          "name": "userAddress",
          "type": "address"
        },
        {
          "indexed": true,
          "internalType": "address",
          "name": "tokenAddress",
          "type": "address"
        },
        {
          "indexed": true,
          "internalType": "uint256",
          "name": "amount",
          "type": "uint256"
        }
      ],
      "name": "SuppliedToken",
      "type": "event"
    },
    {
      "anonymous": false,
      "inputs": [
        {
          "indexed": false,
          "internalType": "address",
          "name": "account",
          "type": "address"
        }
      ],
      "name": "Unpaused",
      "type": "event"
    },
    {
      "anonymous": false,
      "inputs": [
        {
          "indexed": true,
          "internalType": "address",
          "name": "userAddress",
          "type": "address"
        },
        {
          "indexed": true,
          "internalType": "address",
          "name": "tokenAddress",
          "type": "address"
        },
        {
          "indexed": true,
          "internalType": "uint256",
          "name": "amount",
          "type": "uint256"
        }
      ],
      "name": "WithdrawnToken",
      "type": "event"
    },
    {
      "inputs": [],
      "name": "DEFAULT_ADMIN_ROLE",
      "outputs": [
        {
          "internalType": "bytes32",
          "name": "",
          "type": "bytes32"
        }
      ],
      "stateMutability": "view",
      "type": "function"
    },
    {
      "inputs": [
        {
          "internalType": "address",
          "name": "owner",
          "type": "address"
        }
      ],
      "name": "__BaseUpgradeablePausable_init",
      "outputs": [],
      "stateMutability": "nonpayable",
      "type": "function"
    },
    {
      "inputs": [
        {
          "internalType": "address",
          "name": "rewardTokenAddress",
          "type": "address"
        }
      ],
      "name": "calculateUserBalance",
      "outputs": [
        {
          "internalType": "uint256",
          "name": "",
          "type": "uint256"
        }
      ],
      "stateMutability": "view",
      "type": "function"
    },
    {
      "inputs": [
        {
          "internalType": "bytes32",
          "name": "role",
          "type": "bytes32"
        }
      ],
      "name": "getRoleAdmin",
      "outputs": [
        {
          "internalType": "bytes32",
          "name": "",
          "type": "bytes32"
        }
      ],
      "stateMutability": "view",
      "type": "function"
    },
    {
      "inputs": [
        {
          "internalType": "bytes32",
          "name": "role",
          "type": "bytes32"
        },
        {
          "internalType": "address",
          "name": "account",
          "type": "address"
        }
      ],
      "name": "grantRole",
      "outputs": [],
      "stateMutability": "nonpayable",
      "type": "function"
    },
    {
      "inputs": [
        {
          "internalType": "bytes32",
          "name": "role",
          "type": "bytes32"
        },
        {
          "internalType": "address",
          "name": "account",
          "type": "address"
        }
      ],
      "name": "hasRole",
      "outputs": [
        {
          "internalType": "bool",
          "name": "",
          "type": "bool"
        }
      ],
      "stateMutability": "view",
      "type": "function"
    },
    {
      "inputs": [
        {
          "internalType": "address",
          "name": "_lendingAddress",
          "type": "address"
        },
        {
          "internalType": "address",
          "name": "_controllerAddress",
          "type": "address"
        },
        {
          "internalType": "string",
          "name": "protocolName",
          "type": "string"
        },
        {
          "internalType": "address",
          "name": "deployedAddress",
          "type": "address"
        },
        {
          "internalType": "uint256",
          "name": "protocolID",
          "type": "uint256"
        }
      ],
      "name": "init",
      "outputs": [],
      "stateMutability": "nonpayable",
      "type": "function"
    },
    {
      "inputs": [
        {
          "internalType": "address",
          "name": "pauseOperationAddress",
          "type": "address"
        }
      ],
      "name": "initialize",
      "outputs": [],
      "stateMutability": "nonpayable",
      "type": "function"
    },
    {
      "inputs": [],
      "name": "isAdmin",
      "outputs": [
        {
          "internalType": "bool",
          "name": "",
          "type": "bool"
        }
      ],
      "stateMutability": "view",
      "type": "function"
    },
    {
      "inputs": [
        {
          "internalType": "address[]",
          "name": "tokenAddresses",
          "type": "address[]"
        },
        {
          "internalType": "address[]",
          "name": "rewardTokenAddresses",
          "type": "address[]"
        },
        {
          "internalType": "address",
          "name": "claimSettlementAddress",
          "type": "address"
        },
        {
          "internalType": "uint256",
          "name": "protocolRiskCategory",
          "type": "uint256"
        },
        {
          "internalType": "uint256",
          "name": "liquidationPercent",
          "type": "uint256"
        }
      ],
      "name": "liquidateTokens",
      "outputs": [],
      "stateMutability": "nonpayable",
      "type": "function"
    },
    {
      "inputs": [],
      "name": "paused",
      "outputs": [
        {
          "internalType": "bool",
          "name": "",
          "type": "bool"
        }
      ],
      "stateMutability": "view",
      "type": "function"
    },
    {
      "inputs": [
        {
          "internalType": "bytes32",
          "name": "role",
          "type": "bytes32"
        },
        {
          "internalType": "address",
          "name": "account",
          "type": "address"
        }
      ],
      "name": "renounceRole",
      "outputs": [],
      "stateMutability": "nonpayable",
      "type": "function"
    },
    {
      "inputs": [
        {
          "internalType": "bytes32",
          "name": "role",
          "type": "bytes32"
        },
        {
          "internalType": "address",
          "name": "account",
          "type": "address"
        }
      ],
      "name": "revokeRole",
      "outputs": [],
      "stateMutability": "nonpayable",
      "type": "function"
    },
    {
      "inputs": [
        {
          "internalType": "address",
          "name": "tokenAddress",
          "type": "address"
        },
        {
          "internalType": "address",
          "name": "rewardTokenAddress",
          "type": "address"
        },
        {
          "internalType": "uint256",
          "name": "amount",
          "type": "uint256"
        },
        {
          "internalType": "uint256",
          "name": "deadline",
          "type": "uint256"
        },
        {
          "internalType": "uint8",
          "name": "v",
          "type": "uint8"
        },
        {
          "internalType": "bytes32",
          "name": "r",
          "type": "bytes32"
        },
        {
          "internalType": "bytes32",
          "name": "s",
          "type": "bytes32"
        }
      ],
      "name": "supplyToken",
      "outputs": [
        {
          "internalType": "bool",
          "name": "",
          "type": "bool"
        }
      ],
      "stateMutability": "nonpayable",
      "type": "function"
    },
    {
      "inputs": [
        {
          "internalType": "bytes4",
          "name": "interfaceId",
          "type": "bytes4"
        }
      ],
      "name": "supportsInterface",
      "outputs": [
        {
          "internalType": "bool",
          "name": "",
          "type": "bool"
        }
      ],
      "stateMutability": "view",
      "type": "function"
    },
    {
      "inputs": [
        {
          "internalType": "address",
          "name": "tokenAddress",
          "type": "address"
        },
        {
          "internalType": "address",
          "name": "rewardTokenAddress",
          "type": "address"
        },
        {
          "internalType": "uint256",
          "name": "amount",
          "type": "uint256"
        }
      ],
      "name": "withdrawToken",
      "outputs": [
        {
          "internalType": "bool",
          "name": "",
          "type": "bool"
        }
      ],
      "stateMutability": "nonpayable",
      "type": "function"
    }
  ],
  "bytecode": "0x608060405234801561001057600080fd5b50614963806100206000396000f3fe608060405234801561001057600080fd5b50600436106101005760003560e01c80636e810b1a11610097578063b6db75a011610066578063b6db75a0146102bd578063c4d66de8146102db578063c72fea59146102f7578063d547741f1461032757610100565b80636e810b1a146102235780636f6321141461023f57806391d148541461026f578063a217fddf1461029f57610100565b80633449c499116100d35780633449c499146101b157806336568abe146101cd5780635c975abb146101e9578063699bf6fc1461020757610100565b806301e336671461010557806301ffc9a714610135578063248a9ca3146101655780632f2ff15d14610195575b600080fd5b61011f600480360381019061011a91906133c8565b610343565b60405161012c9190613436565b60405180910390f35b61014f600480360381019061014a91906134a9565b610a82565b60405161015c9190613436565b60405180910390f35b61017f600480360381019061017a919061350c565b610afc565b60405161018c9190613548565b60405180910390f35b6101af60048036038101906101aa9190613563565b610b1c565b005b6101cb60048036038101906101c691906136e9565b610b3d565b005b6101e760048036038101906101e29190613563565b610e1f565b005b6101f1610ea2565b6040516101fe9190613436565b60405180910390f35b610221600480360381019061021c9190613848565b610eb9565b005b61023d600480360381019061023891906138fb565b61132a565b005b61025960048036038101906102549190613961565b61144c565b6040516102669190613436565b60405180910390f35b61028960048036038101906102849190613563565b611a15565b6040516102969190613436565b60405180910390f35b6102a7611a80565b6040516102b49190613548565b60405180910390f35b6102c5611a87565b6040516102d29190613436565b60405180910390f35b6102f560048036038101906102f091906138fb565b611aa6565b005b610311600480360381019061030c91906138fb565b611c2f565b60405161031e9190613a12565b60405180910390f35b610341600480360381019061033c9190613563565b61221a565b005b600060011515610351610ea2565b1515141580156103f757506001151561010060009054906101000a900473ffffffffffffffffffffffffffffffffffffffff1673ffffffffffffffffffffffffffffffffffffffff1663b187bd266040518163ffffffff1660e01b8152600401602060405180830381865afa1580156103ce573d6000803e3d6000fd5b505050506040513d601f19601f820116820180604052508101906103f29190613a59565b151514155b61040057600080fd5b61040861223b565b60fd6000815461041790613ab5565b91905081905550600061042984611c2f565b90508281101561047157609b6040517f4319aabb0000000000000000000000000000000000000000000000000000000081526004016104689190613b42565b60405180910390fd5b6000859050600085905060008173ffffffffffffffffffffffffffffffffffffffff166370a08231306040518263ffffffff1660e01b81526004016104b69190613b6c565b602060405180830381865afa1580156104d3573d6000803e3d6000fd5b505050506040513d601f19601f820116820180604052508101906104f79190613b9c565b90508561010460008973ffffffffffffffffffffffffffffffffffffffff1673ffffffffffffffffffffffffffffffffffffffff168152602001908152602001600020600060fd548152602001908152602001600020600001600082825461055f9190613bc9565b9250508190555061010460008873ffffffffffffffffffffffffffffffffffffffff1673ffffffffffffffffffffffffffffffffffffffff1681526020019081526020016000206000600160fd546105b79190613bc9565b815260200190815260200160002060000154816105d49190613bc9565b61010460008973ffffffffffffffffffffffffffffffffffffffff1673ffffffffffffffffffffffffffffffffffffffff1681526020019081526020016000206000600160fd546106259190613bc9565b81526020019081526020016000206001018190555085610103600061064861228a565b73ffffffffffffffffffffffffffffffffffffffff1673ffffffffffffffffffffffffffffffffffffffff16815260200190815260200160002060008973ffffffffffffffffffffffffffffffffffffffff1673ffffffffffffffffffffffffffffffffffffffff168152602001908152602001600020600060fd54815260200190815260200160002060010160008282546106e49190613bfd565b92505081905550838603610793576000610102600061070161228a565b73ffffffffffffffffffffffffffffffffffffffff1673ffffffffffffffffffffffffffffffffffffffff16815260200190815260200160002060008973ffffffffffffffffffffffffffffffffffffffff1673ffffffffffffffffffffffffffffffffffffffff16815260200190815260200160002060000160006101000a81548160ff0219169083151502179055505b8561010560008973ffffffffffffffffffffffffffffffffffffffff1673ffffffffffffffffffffffffffffffffffffffff16815260200190815260200160002060008282546107e39190613bc9565b9250508190555061083760fe60009054906101000a900473ffffffffffffffffffffffffffffffffffffffff16878973ffffffffffffffffffffffffffffffffffffffff166122929092919063ffffffff16565b60008373ffffffffffffffffffffffffffffffffffffffff166370a08231306040518263ffffffff1660e01b81526004016108729190613b6c565b602060405180830381865afa15801561088f573d6000803e3d6000fd5b505050506040513d601f19601f820116820180604052508101906108b39190613b9c565b905060fe60009054906101000a900473ffffffffffffffffffffffffffffffffffffffff1673ffffffffffffffffffffffffffffffffffffffff166369328dec8a89306040518463ffffffff1660e01b815260040161091493929190613c31565b600060405180830381600087803b15801561092e57600080fd5b505af1158015610942573d6000803e3d6000fd5b5050505060008473ffffffffffffffffffffffffffffffffffffffff166370a08231306040518263ffffffff1660e01b81526004016109819190613b6c565b602060405180830381865afa15801561099e573d6000803e3d6000fd5b505050506040513d601f19601f820116820180604052508101906109c29190613b9c565b9050600082826109d29190613bc9565b9050610a066109df61228a565b828873ffffffffffffffffffffffffffffffffffffffff166123a49092919063ffffffff16565b808b73ffffffffffffffffffffffffffffffffffffffff16610a2661228a565b73ffffffffffffffffffffffffffffffffffffffff167f11dd463c4f2edd676b85f050130c7ab2f5832f52becb5444b09a92404aa1498a60405160405180910390a46001975050505050505050610a7b61242a565b9392505050565b60007f7965db0b000000000000000000000000000000000000000000000000000000007bffffffffffffffffffffffffffffffffffffffffffffffffffffffff1916827bffffffffffffffffffffffffffffffffffffffffffffffffffffffff19161480610af55750610af482612434565b5b9050919050565b600060976000838152602001908152602001600020600101549050919050565b610b2582610afc565b610b2e8161249e565b610b3883836124b2565b505050565b610b45611a87565b610b84576040517f08c379a0000000000000000000000000000000000000000000000000000000008152600401610b7b90613ceb565b60405180910390fd5b600060fc541115610bcd57604e6040517f887e6317000000000000000000000000000000000000000000000000000000008152600401610bc49190613d46565b60405180910390fd5b60fc60008154610bdc90613ab5565b919050819055508460fe60006101000a81548173ffffffffffffffffffffffffffffffffffffffff021916908373ffffffffffffffffffffffffffffffffffffffff1602179055508360ff60006101000a81548173ffffffffffffffffffffffffffffffffffffffff021916908373ffffffffffffffffffffffffffffffffffffffff16021790555060008060ff60009054906101000a900473ffffffffffffffffffffffffffffffffffffffff1673ffffffffffffffffffffffffffffffffffffffff16634b40ac92846040518263ffffffff1660e01b8152600401610cc39190613a12565b600060405180830381865afa158015610ce0573d6000803e3d6000fd5b505050506040513d6000823e3d601f19601f82011682018060405250810190610d099190613e10565b915091508373ffffffffffffffffffffffffffffffffffffffff168173ffffffffffffffffffffffffffffffffffffffff1614610d7e5760556040517f52707288000000000000000000000000000000000000000000000000000000008152600401610d759190613ea7565b60405180910390fd5b84604051602001610d8f9190613f09565b6040516020818303038152906040528051906020012082604051602001610db69190613f09565b6040516020818303038152906040528051906020012014610e0f5760586040517f52707288000000000000000000000000000000000000000000000000000000008152600401610e069190613f5b565b60405180910390fd5b8260fb8190555050505050505050565b610e2761228a565b73ffffffffffffffffffffffffffffffffffffffff168173ffffffffffffffffffffffffffffffffffffffff1614610e94576040517f08c379a0000000000000000000000000000000000000000000000000000000008152600401610e8b90613fe8565b60405180910390fd5b610e9e8282612593565b5050565b6000603360009054906101000a900460ff16905090565b610ec1611a87565b610f00576040517f08c379a0000000000000000000000000000000000000000000000000000000008152600401610ef790613ceb565b60405180910390fd5b60008451905060005b81811015611321578360ff60009054906101000a900473ffffffffffffffffffffffffffffffffffffffff1673ffffffffffffffffffffffffffffffffffffffff16634dbc7b2860fb546040518263ffffffff1660e01b8152600401610f6f9190613a12565b602060405180830381865afa158015610f8c573d6000803e3d6000fd5b505050506040513d601f19601f82011682018060405250810190610fb09190613b9c565b0361131057600060646101056000898581518110610fd157610fd0614008565b5b602002602001015173ffffffffffffffffffffffffffffffffffffffff1673ffffffffffffffffffffffffffffffffffffffff168152602001908152602001600020548561101f9190614037565b61102991906140c0565b905080610105600089858151811061104457611043614008565b5b602002602001015173ffffffffffffffffffffffffffffffffffffffff1673ffffffffffffffffffffffffffffffffffffffff16815260200190815260200160002060008282546110959190613bc9565b9250508190555060008883815181106110b1576110b0614008565b5b6020026020010151905060008884815181106110d0576110cf614008565b5b6020026020010151905061112760fe60009054906101000a900473ffffffffffffffffffffffffffffffffffffffff16848373ffffffffffffffffffffffffffffffffffffffff166122929092919063ffffffff16565b60008273ffffffffffffffffffffffffffffffffffffffff166370a08231306040518263ffffffff1660e01b81526004016111629190613b6c565b602060405180830381865afa15801561117f573d6000803e3d6000fd5b505050506040513d601f19601f820116820180604052508101906111a39190613b9c565b905060fe60009054906101000a900473ffffffffffffffffffffffffffffffffffffffff1673ffffffffffffffffffffffffffffffffffffffff166369328dec8c87815181106111f6576111f5614008565b5b602002602001015186306040518463ffffffff1660e01b815260040161121e93929190613c31565b600060405180830381600087803b15801561123857600080fd5b505af115801561124c573d6000803e3d6000fd5b5050505060008373ffffffffffffffffffffffffffffffffffffffff166370a08231306040518263ffffffff1660e01b815260040161128b9190613b6c565b602060405180830381865afa1580156112a8573d6000803e3d6000fd5b505050506040513d601f19601f820116820180604052508101906112cc9190613b9c565b9050600082826112dc9190613bc9565b90506113098b828773ffffffffffffffffffffffffffffffffffffffff166123a49092919063ffffffff16565b5050505050505b8061131a90613ab5565b9050610f09565b50505050505050565b600060019054906101000a900460ff16611379576040517f08c379a000000000000000000000000000000000000000000000000000000000815260040161137090614163565b60405180910390fd5b600073ffffffffffffffffffffffffffffffffffffffff168173ffffffffffffffffffffffffffffffffffffffff16036113df576040517f5415139400000000000000000000000000000000000000000000000000000000815260040160405180910390fd5b6113e7612675565b6113ef6126ce565b6113f761271f565b611408611402612778565b826124b2565b6114196114136127a0565b826124b2565b6114316114246127a0565b61142c612778565b6127c8565b61144961143c612778565b611444612778565b6127c8565b50565b600061145661223b565b6402540be4008610156114a15760756040517f8aa6c63300000000000000000000000000000000000000000000000000000000815260040161149891906141be565b60405180910390fd5b60fd600081546114b090613ab5565b91905081905550600060ff60009054906101000a900473ffffffffffffffffffffffffffffffffffffffff1673ffffffffffffffffffffffffffffffffffffffff1663c07f47d46040518163ffffffff1660e01b8152600401602060405180830381865afa158015611526573d6000803e3d6000fd5b505050506040513d601f19601f8201168201806040525081019061154a9190613b9c565b905080610101600060fd548152602001908152602001600020819055506000899050600089905060008b9050610102600061158361228a565b73ffffffffffffffffffffffffffffffffffffffff1673ffffffffffffffffffffffffffffffffffffffff16815260200190815260200160002060008c73ffffffffffffffffffffffffffffffffffffffff1673ffffffffffffffffffffffffffffffffffffffff16815260200190815260200160002060000160009054906101000a900460ff1661173e5760fd54610102600061161f61228a565b73ffffffffffffffffffffffffffffffffffffffff1673ffffffffffffffffffffffffffffffffffffffff16815260200190815260200160002060008d73ffffffffffffffffffffffffffffffffffffffff1673ffffffffffffffffffffffffffffffffffffffff16815260200190815260200160002060010181905550600161010260006116ac61228a565b73ffffffffffffffffffffffffffffffffffffffff1673ffffffffffffffffffffffffffffffffffffffff16815260200190815260200160002060008d73ffffffffffffffffffffffffffffffffffffffff1673ffffffffffffffffffffffffffffffffffffffff16815260200190815260200160002060000160006101000a81548160ff0219169083151502179055505b60008273ffffffffffffffffffffffffffffffffffffffff166370a08231306040518263ffffffff1660e01b81526004016117799190613b6c565b602060405180830381865afa158015611796573d6000803e3d6000fd5b505050506040513d601f19601f820116820180604052508101906117ba9190613b9c565b90506117f86117c761228a565b308d8d8d8d8d8973ffffffffffffffffffffffffffffffffffffffff1661282490979695949392919063ffffffff16565b61182c61180361228a565b308d8773ffffffffffffffffffffffffffffffffffffffff166129f1909392919063ffffffff16565b61187960fe60009054906101000a900473ffffffffffffffffffffffffffffffffffffffff168c8673ffffffffffffffffffffffffffffffffffffffff166122929092919063ffffffff16565b60fe60009054906101000a900473ffffffffffffffffffffffffffffffffffffffff1673ffffffffffffffffffffffffffffffffffffffff1663617ba0378e8d3060006040518563ffffffff1660e01b81526004016118db9493929190614222565b600060405180830381600087803b1580156118f557600080fd5b505af1158015611909573d6000803e3d6000fd5b5050505060008373ffffffffffffffffffffffffffffffffffffffff166370a08231306040518263ffffffff1660e01b81526004016119489190613b6c565b602060405180830381865afa158015611965573d6000803e3d6000fd5b505050506040513d601f19601f820116820180604052508101906119899190613b9c565b90506119968d8284612a7a565b8b8e73ffffffffffffffffffffffffffffffffffffffff166119b661228a565b73ffffffffffffffffffffffffffffffffffffffff167fa64bf1fcc4f3d7c965ef3091c978df041ad959bfaa6d5abc7d99a17830407b2960405160405180910390a460019650505050505050611a0a61242a565b979650505050505050565b60006097600084815260200190815260200160002060000160008373ffffffffffffffffffffffffffffffffffffffff1673ffffffffffffffffffffffffffffffffffffffff16815260200190815260200160002060009054906101000a900460ff16905092915050565b6000801b81565b6000611aa1611a94612778565b611a9c61228a565b611a15565b905090565b60008060019054906101000a900460ff16159050808015611ad75750600160008054906101000a900460ff1660ff16105b80611b045750611ae630612cd9565b158015611b035750600160008054906101000a900460ff1660ff16145b5b611b43576040517f08c379a0000000000000000000000000000000000000000000000000000000008152600401611b3a906142d9565b60405180910390fd5b60016000806101000a81548160ff021916908360ff1602179055508015611b80576001600060016101000a81548160ff0219169083151502179055505b8161010060006101000a81548173ffffffffffffffffffffffffffffffffffffffff021916908373ffffffffffffffffffffffffffffffffffffffff160217905550611bd2611bcd61228a565b61132a565b8015611c2b5760008060016101000a81548160ff0219169083151502179055507f7f26b83ff96e1f2b6a682f133852f6798a09c465da95921460cefb38474024986001604051611c229190614334565b60405180910390a15b5050565b600080600090506000806101026000611c4661228a565b73ffffffffffffffffffffffffffffffffffffffff1673ffffffffffffffffffffffffffffffffffffffff16815260200190815260200160002060008673ffffffffffffffffffffffffffffffffffffffff1673ffffffffffffffffffffffffffffffffffffffff168152602001908152602001600020600101549050600060fd54905060008060008490505b838110156121fd5760006101036000611cea61228a565b73ffffffffffffffffffffffffffffffffffffffff1673ffffffffffffffffffffffffffffffffffffffff16815260200190815260200160002060008b73ffffffffffffffffffffffffffffffffffffffff1673ffffffffffffffffffffffffffffffffffffffff16815260200190815260200160002060008381526020019081526020016000206040518060400160405290816000820154815260200160018201548152505090506000816000015190506000826020015190506000821115611dbd57818a611dba9190613bfd565b99505b6000811115611dd557808a611dd29190613bc9565b99505b600061010460008e73ffffffffffffffffffffffffffffffffffffffff1673ffffffffffffffffffffffffffffffffffffffff16815260200190815260200160002060008681526020019081526020016000206000015461010460008f73ffffffffffffffffffffffffffffffffffffffff1673ffffffffffffffffffffffffffffffffffffffff1681526020019081526020016000206000878152602001908152602001600020600101548c611e8c9190614037565b611e9691906140c0565b9050808a611ea49190613bfd565b9950600060ff60009054906101000a900473ffffffffffffffffffffffffffffffffffffffff1673ffffffffffffffffffffffffffffffffffffffff1663c07f47d46040518163ffffffff1660e01b8152600401602060405180830381865afa158015611f15573d6000803e3d6000fd5b505050506040513d601f19601f82011682018060405250810190611f399190613b9c565b90508087146121e75780965060ff60009054906101000a900473ffffffffffffffffffffffffffffffffffffffff1673ffffffffffffffffffffffffffffffffffffffff166305044ea660fb54896040518363ffffffff1660e01b8152600401611fa492919061434f565b602060405180830381865afa158015611fc1573d6000803e3d6000fd5b505050506040513d601f19601f82011682018060405250810190611fe59190613a59565b1561208d5760ff60009054906101000a900473ffffffffffffffffffffffffffffffffffffffff1673ffffffffffffffffffffffffffffffffffffffff16639cb0675860fb54896040518363ffffffff1660e01b815260040161204992919061434f565b602060405180830381865afa158015612066573d6000803e3d6000fd5b505050506040513d601f19601f8201168201806040525081019061208a9190613b9c565b97505b60ff60009054906101000a900473ffffffffffffffffffffffffffffffffffffffff1673ffffffffffffffffffffffffffffffffffffffff1663b557e4a6888a6040518363ffffffff1660e01b81526004016120ea92919061434f565b602060405180830381865afa158015612107573d6000803e3d6000fd5b505050506040513d601f19601f8201168201806040525081019061212b9190613a59565b156121e657606460ff60009054906101000a900473ffffffffffffffffffffffffffffffffffffffff1673ffffffffffffffffffffffffffffffffffffffff166339c4c205896040518263ffffffff1660e01b815260040161218d9190613a12565b602060405180830381865afa1580156121aa573d6000803e3d6000fd5b505050506040513d601f19601f820116820180604052508101906121ce9190613b9c565b8d6121d99190614037565b6121e391906140c0565b9b505b5b856121f190613ab5565b95505050505050611cd3565b50848661220a9190613bfd565b9550859650505050505050919050565b61222382610afc565b61222c8161249e565b6122368383612593565b505050565b600260c95403612280576040517f08c379a0000000000000000000000000000000000000000000000000000000008152600401612277906143c4565b60405180910390fd5b600260c981905550565b600033905090565b6000818473ffffffffffffffffffffffffffffffffffffffff1663dd62ed3e30866040518363ffffffff1660e01b81526004016122d09291906143e4565b602060405180830381865afa1580156122ed573d6000803e3d6000fd5b505050506040513d601f19601f820116820180604052508101906123119190613b9c565b61231b9190613bfd565b905061239e8463095ea7b360e01b858460405160240161233c92919061440d565b604051602081830303815290604052907bffffffffffffffffffffffffffffffffffffffffffffffffffffffff19166020820180517bffffffffffffffffffffffffffffffffffffffffffffffffffffffff8381831617835250505050612cfc565b50505050565b6124258363a9059cbb60e01b84846040516024016123c392919061440d565b604051602081830303815290604052907bffffffffffffffffffffffffffffffffffffffffffffffffffffffff19166020820180517bffffffffffffffffffffffffffffffffffffffffffffffffffffffff8381831617835250505050612cfc565b505050565b600160c981905550565b60007f01ffc9a7000000000000000000000000000000000000000000000000000000007bffffffffffffffffffffffffffffffffffffffffffffffffffffffff1916827bffffffffffffffffffffffffffffffffffffffffffffffffffffffff1916149050919050565b6124af816124aa61228a565b612dc3565b50565b6124bc8282611a15565b61258f5760016097600084815260200190815260200160002060000160008373ffffffffffffffffffffffffffffffffffffffff1673ffffffffffffffffffffffffffffffffffffffff16815260200190815260200160002060006101000a81548160ff02191690831515021790555061253461228a565b73ffffffffffffffffffffffffffffffffffffffff168173ffffffffffffffffffffffffffffffffffffffff16837f2f8788117e7eff1d82e926ec794901d17c78024a50270940304540a733656f0d60405160405180910390a45b5050565b61259d8282611a15565b156126715760006097600084815260200190815260200160002060000160008373ffffffffffffffffffffffffffffffffffffffff1673ffffffffffffffffffffffffffffffffffffffff16815260200190815260200160002060006101000a81548160ff02191690831515021790555061261661228a565b73ffffffffffffffffffffffffffffffffffffffff168173ffffffffffffffffffffffffffffffffffffffff16837ff6391f5c32d9c69d2a47ea670b442974b53935d1edc7fd64eb21e047a839171b60405160405180910390a45b5050565b600060019054906101000a900460ff166126c4576040517f08c379a00000000000000000000000000000000000000000000000000000000081526004016126bb90614163565b60405180910390fd5b6126cc612e48565b565b600060019054906101000a900460ff1661271d576040517f08c379a000000000000000000000000000000000000000000000000000000000815260040161271490614163565b60405180910390fd5b565b600060019054906101000a900460ff1661276e576040517f08c379a000000000000000000000000000000000000000000000000000000000815260040161276590614163565b60405180910390fd5b612776612eb4565b565b60007fa49807205ce4d355092ef5a8a18f56e8913cf4a201fbe287825b095693c21775905090565b60007f65d7a28e3265b37a6474929f336521b332c1681b933f6cb9f3376673440d862a905090565b60006127d383610afc565b90508160976000858152602001908152602001600020600101819055508181847fbd79b86ffe0ab8e8776151514217cd7cacd52c909f66475c3af44e129f0b00ff60405160405180910390a4505050565b60008873ffffffffffffffffffffffffffffffffffffffff16637ecebe00896040518263ffffffff1660e01b815260040161285f9190613b6c565b602060405180830381865afa15801561287c573d6000803e3d6000fd5b505050506040513d601f19601f820116820180604052508101906128a09190613b9c565b90508873ffffffffffffffffffffffffffffffffffffffff1663d505accf898989898989896040518863ffffffff1660e01b81526004016128e79796959493929190614445565b600060405180830381600087803b15801561290157600080fd5b505af1158015612915573d6000803e3d6000fd5b5050505060008973ffffffffffffffffffffffffffffffffffffffff16637ecebe008a6040518263ffffffff1660e01b81526004016129549190613b6c565b602060405180830381865afa158015612971573d6000803e3d6000fd5b505050506040513d601f19601f820116820180604052508101906129959190613b9c565b90506001826129a49190613bfd565b81146129e5576040517f08c379a00000000000000000000000000000000000000000000000000000000081526004016129dc90614526565b60405180910390fd5b50505050505050505050565b612a74846323b872dd60e01b858585604051602401612a1293929190614546565b604051602081830303815290604052907bffffffffffffffffffffffffffffffffffffffffffffffffffffffff19166020820180517bffffffffffffffffffffffffffffffffffffffffffffffffffffffff8381831617835250505050612cfc565b50505050565b60008183612a889190613bc9565b90508061010460008673ffffffffffffffffffffffffffffffffffffffff1673ffffffffffffffffffffffffffffffffffffffff168152602001908152602001600020600060fd5481526020019081526020016000206000016000828254612af09190613bfd565b9250508190555061010460008573ffffffffffffffffffffffffffffffffffffffff1673ffffffffffffffffffffffffffffffffffffffff1681526020019081526020016000206000600160fd54612b489190613bc9565b81526020019081526020016000206000015482612b659190613bc9565b61010460008673ffffffffffffffffffffffffffffffffffffffff1673ffffffffffffffffffffffffffffffffffffffff1681526020019081526020016000206000600160fd54612bb69190613bc9565b815260200190815260200160002060010181905550806101036000612bd961228a565b73ffffffffffffffffffffffffffffffffffffffff1673ffffffffffffffffffffffffffffffffffffffff16815260200190815260200160002060008673ffffffffffffffffffffffffffffffffffffffff1673ffffffffffffffffffffffffffffffffffffffff168152602001908152602001600020600060fd5481526020019081526020016000206000016000828254612c759190613bfd565b925050819055508061010560008673ffffffffffffffffffffffffffffffffffffffff1673ffffffffffffffffffffffffffffffffffffffff1681526020019081526020016000206000828254612ccc9190613bfd565b9250508190555050505050565b6000808273ffffffffffffffffffffffffffffffffffffffff163b119050919050565b6000612d5e826040518060400160405280602081526020017f5361666545524332303a206c6f772d6c6576656c2063616c6c206661696c65648152508573ffffffffffffffffffffffffffffffffffffffff16612f0d9092919063ffffffff16565b9050600081511115612dbe5780806020019051810190612d7e9190613a59565b612dbd576040517f08c379a0000000000000000000000000000000000000000000000000000000008152600401612db4906145ef565b60405180910390fd5b5b505050565b612dcd8282611a15565b612e4457612dda81612f25565b612de88360001c6020612f52565b604051602001612df99291906146a7565b6040516020818303038152906040526040517f08c379a0000000000000000000000000000000000000000000000000000000008152600401612e3b919061471a565b60405180910390fd5b5050565b600060019054906101000a900460ff16612e97576040517f08c379a0000000000000000000000000000000000000000000000000000000008152600401612e8e90614163565b60405180910390fd5b6000603360006101000a81548160ff021916908315150217905550565b600060019054906101000a900460ff16612f03576040517f08c379a0000000000000000000000000000000000000000000000000000000008152600401612efa90614163565b60405180910390fd5b600160c981905550565b6060612f1c848460008561318e565b90509392505050565b6060612f4b8273ffffffffffffffffffffffffffffffffffffffff16601460ff16612f52565b9050919050565b606060006002836002612f659190614037565b612f6f9190613bfd565b67ffffffffffffffff811115612f8857612f876135be565b5b6040519080825280601f01601f191660200182016040528015612fba5781602001600182028036833780820191505090505b5090507f300000000000000000000000000000000000000000000000000000000000000081600081518110612ff257612ff1614008565b5b60200101907effffffffffffffffffffffffffffffffffffffffffffffffffffffffffffff1916908160001a9053507f78000000000000000000000000000000000000000000000000000000000000008160018151811061305657613055614008565b5b60200101907effffffffffffffffffffffffffffffffffffffffffffffffffffffffffffff1916908160001a905350600060018460026130969190614037565b6130a09190613bfd565b90505b6001811115613140577f3031323334353637383961626364656600000000000000000000000000000000600f8616601081106130e2576130e1614008565b5b1a60f81b8282815181106130f9576130f8614008565b5b60200101907effffffffffffffffffffffffffffffffffffffffffffffffffffffffffffff1916908160001a905350600485901c9450806131399061473c565b90506130a3565b5060008414613184576040517f08c379a000000000000000000000000000000000000000000000000000000000815260040161317b906147b1565b60405180910390fd5b8091505092915050565b6060824710156131d3576040517f08c379a00000000000000000000000000000000000000000000000000000000081526004016131ca90614843565b60405180910390fd5b6000808673ffffffffffffffffffffffffffffffffffffffff1685876040516131fc91906148aa565b60006040518083038185875af1925050503d8060008114613239576040519150601f19603f3d011682016040523d82523d6000602084013e61323e565b606091505b509150915061324f8783838761325b565b92505050949350505050565b606083156132bd5760008351036132b55761327585612cd9565b6132b4576040517f08c379a00000000000000000000000000000000000000000000000000000000081526004016132ab9061490d565b60405180910390fd5b5b8290506132c8565b6132c783836132d0565b5b949350505050565b6000825111156132e35781518083602001fd5b806040517f08c379a0000000000000000000000000000000000000000000000000000000008152600401613317919061471a565b60405180910390fd5b6000604051905090565b600080fd5b600080fd5b600073ffffffffffffffffffffffffffffffffffffffff82169050919050565b600061335f82613334565b9050919050565b61336f81613354565b811461337a57600080fd5b50565b60008135905061338c81613366565b92915050565b6000819050919050565b6133a581613392565b81146133b057600080fd5b50565b6000813590506133c28161339c565b92915050565b6000806000606084860312156133e1576133e061332a565b5b60006133ef8682870161337d565b93505060206134008682870161337d565b9250506040613411868287016133b3565b9150509250925092565b60008115159050919050565b6134308161341b565b82525050565b600060208201905061344b6000830184613427565b92915050565b60007fffffffff0000000000000000000000000000000000000000000000000000000082169050919050565b61348681613451565b811461349157600080fd5b50565b6000813590506134a38161347d565b92915050565b6000602082840312156134bf576134be61332a565b5b60006134cd84828501613494565b91505092915050565b6000819050919050565b6134e9816134d6565b81146134f457600080fd5b50565b600081359050613506816134e0565b92915050565b6000602082840312156135225761352161332a565b5b6000613530848285016134f7565b91505092915050565b613542816134d6565b82525050565b600060208201905061355d6000830184613539565b92915050565b6000806040838503121561357a5761357961332a565b5b6000613588858286016134f7565b92505060206135998582860161337d565b9150509250929050565b600080fd5b600080fd5b6000601f19601f8301169050919050565b7f4e487b7100000000000000000000000000000000000000000000000000000000600052604160045260246000fd5b6135f6826135ad565b810181811067ffffffffffffffff82111715613615576136146135be565b5b80604052505050565b6000613628613320565b905061363482826135ed565b919050565b600067ffffffffffffffff821115613654576136536135be565b5b61365d826135ad565b9050602081019050919050565b82818337600083830152505050565b600061368c61368784613639565b61361e565b9050828152602081018484840111156136a8576136a76135a8565b5b6136b384828561366a565b509392505050565b600082601f8301126136d0576136cf6135a3565b5b81356136e0848260208601613679565b91505092915050565b600080600080600060a086880312156137055761370461332a565b5b60006137138882890161337d565b95505060206137248882890161337d565b945050604086013567ffffffffffffffff8111156137455761374461332f565b5b613751888289016136bb565b93505060606137628882890161337d565b9250506080613773888289016133b3565b9150509295509295909350565b600067ffffffffffffffff82111561379b5761379a6135be565b5b602082029050602081019050919050565b600080fd5b60006137c46137bf84613780565b61361e565b905080838252602082019050602084028301858111156137e7576137e66137ac565b5b835b8181101561381057806137fc888261337d565b8452602084019350506020810190506137e9565b5050509392505050565b600082601f83011261382f5761382e6135a3565b5b813561383f8482602086016137b1565b91505092915050565b600080600080600060a086880312156138645761386361332a565b5b600086013567ffffffffffffffff8111156138825761388161332f565b5b61388e8882890161381a565b955050602086013567ffffffffffffffff8111156138af576138ae61332f565b5b6138bb8882890161381a565b94505060406138cc8882890161337d565b93505060606138dd888289016133b3565b92505060806138ee888289016133b3565b9150509295509295909350565b6000602082840312156139115761391061332a565b5b600061391f8482850161337d565b91505092915050565b600060ff82169050919050565b61393e81613928565b811461394957600080fd5b50565b60008135905061395b81613935565b92915050565b600080600080600080600060e0888a0312156139805761397f61332a565b5b600061398e8a828b0161337d565b975050602061399f8a828b0161337d565b96505060406139b08a828b016133b3565b95505060606139c18a828b016133b3565b94505060806139d28a828b0161394c565b93505060a06139e38a828b016134f7565b92505060c06139f48a828b016134f7565b91505092959891949750929550565b613a0c81613392565b82525050565b6000602082019050613a276000830184613a03565b92915050565b613a368161341b565b8114613a4157600080fd5b50565b600081519050613a5381613a2d565b92915050565b600060208284031215613a6f57613a6e61332a565b5b6000613a7d84828501613a44565b91505092915050565b7f4e487b7100000000000000000000000000000000000000000000000000000000600052601160045260246000fd5b6000613ac082613392565b91507fffffffffffffffffffffffffffffffffffffffffffffffffffffffffffffffff8203613af257613af1613a86565b5b600182019050919050565b6000819050919050565b6000819050919050565b6000613b2c613b27613b2284613afd565b613b07565b613392565b9050919050565b613b3c81613b11565b82525050565b6000602082019050613b576000830184613b33565b92915050565b613b6681613354565b82525050565b6000602082019050613b816000830184613b5d565b92915050565b600081519050613b968161339c565b92915050565b600060208284031215613bb257613bb161332a565b5b6000613bc084828501613b87565b91505092915050565b6000613bd482613392565b9150613bdf83613392565b9250828203905081811115613bf757613bf6613a86565b5b92915050565b6000613c0882613392565b9150613c1383613392565b9250828201905080821115613c2b57613c2a613a86565b5b92915050565b6000606082019050613c466000830186613b5d565b613c536020830185613a03565b613c606040830184613b5d565b949350505050565b600082825260208201905092915050565b7f4d75737420686176652061646d696e20726f6c6520746f20706572666f726d2060008201527f7468697320616374696f6e2e0000000000000000000000000000000000000000602082015250565b6000613cd5602c83613c68565b9150613ce082613c79565b604082019050919050565b60006020820190508181036000830152613d0481613cc8565b9050919050565b6000819050919050565b6000613d30613d2b613d2684613d0b565b613b07565b613392565b9050919050565b613d4081613d15565b82525050565b6000602082019050613d5b6000830184613d37565b92915050565b60005b83811015613d7f578082015181840152602081019050613d64565b60008484015250505050565b6000613d9e613d9984613639565b61361e565b905082815260208101848484011115613dba57613db96135a8565b5b613dc5848285613d61565b509392505050565b600082601f830112613de257613de16135a3565b5b8151613df2848260208601613d8b565b91505092915050565b600081519050613e0a81613366565b92915050565b60008060408385031215613e2757613e2661332a565b5b600083015167ffffffffffffffff811115613e4557613e4461332f565b5b613e5185828601613dcd565b9250506020613e6285828601613dfb565b9150509250929050565b6000819050919050565b6000613e91613e8c613e8784613e6c565b613b07565b613392565b9050919050565b613ea181613e76565b82525050565b6000602082019050613ebc6000830184613e98565b92915050565b600081519050919050565b600081905092915050565b6000613ee382613ec2565b613eed8185613ecd565b9350613efd818560208601613d61565b80840191505092915050565b6000613f158284613ed8565b915081905092915050565b6000819050919050565b6000613f45613f40613f3b84613f20565b613b07565b613392565b9050919050565b613f5581613f2a565b82525050565b6000602082019050613f706000830184613f4c565b92915050565b7f416363657373436f6e74726f6c3a2063616e206f6e6c792072656e6f756e636560008201527f20726f6c657320666f722073656c660000000000000000000000000000000000602082015250565b6000613fd2602f83613c68565b9150613fdd82613f76565b604082019050919050565b6000602082019050818103600083015261400181613fc5565b9050919050565b7f4e487b7100000000000000000000000000000000000000000000000000000000600052603260045260246000fd5b600061404282613392565b915061404d83613392565b9250817fffffffffffffffffffffffffffffffffffffffffffffffffffffffffffffffff048311821515161561408657614085613a86565b5b828202905092915050565b7f4e487b7100000000000000000000000000000000000000000000000000000000600052601260045260246000fd5b60006140cb82613392565b91506140d683613392565b9250826140e6576140e5614091565b5b828204905092915050565b7f496e697469616c697a61626c653a20636f6e7472616374206973206e6f74206960008201527f6e697469616c697a696e67000000000000000000000000000000000000000000602082015250565b600061414d602b83613c68565b9150614158826140f1565b604082019050919050565b6000602082019050818103600083015261417c81614140565b9050919050565b6000819050919050565b60006141a86141a361419e84614183565b613b07565b613392565b9050919050565b6141b88161418d565b82525050565b60006020820190506141d360008301846141af565b92915050565b6000819050919050565b600061ffff82169050919050565b600061420c614207614202846141d9565b613b07565b6141e3565b9050919050565b61421c816141f1565b82525050565b60006080820190506142376000830187613b5d565b6142446020830186613a03565b6142516040830185613b5d565b61425e6060830184614213565b95945050505050565b7f496e697469616c697a61626c653a20636f6e747261637420697320616c72656160008201527f647920696e697469616c697a6564000000000000000000000000000000000000602082015250565b60006142c3602e83613c68565b91506142ce82614267565b604082019050919050565b600060208201905081810360008301526142f2816142b6565b9050919050565b6000819050919050565b600061431e614319614314846142f9565b613b07565b613928565b9050919050565b61432e81614303565b82525050565b60006020820190506143496000830184614325565b92915050565b60006040820190506143646000830185613a03565b6143716020830184613a03565b9392505050565b7f5265656e7472616e637947756172643a207265656e7472616e742063616c6c00600082015250565b60006143ae601f83613c68565b91506143b982614378565b602082019050919050565b600060208201905081810360008301526143dd816143a1565b9050919050565b60006040820190506143f96000830185613b5d565b6144066020830184613b5d565b9392505050565b60006040820190506144226000830185613b5d565b61442f6020830184613a03565b9392505050565b61443f81613928565b82525050565b600060e08201905061445a600083018a613b5d565b6144676020830189613b5d565b6144746040830188613a03565b6144816060830187613a03565b61448e6080830186614436565b61449b60a0830185613539565b6144a860c0830184613539565b98975050505050505050565b7f5361666545524332303a207065726d697420646964206e6f742073756363656560008201527f6400000000000000000000000000000000000000000000000000000000000000602082015250565b6000614510602183613c68565b915061451b826144b4565b604082019050919050565b6000602082019050818103600083015261453f81614503565b9050919050565b600060608201905061455b6000830186613b5d565b6145686020830185613b5d565b6145756040830184613a03565b949350505050565b7f5361666545524332303a204552433230206f7065726174696f6e20646964206e60008201527f6f74207375636365656400000000000000000000000000000000000000000000602082015250565b60006145d9602a83613c68565b91506145e48261457d565b604082019050919050565b60006020820190508181036000830152614608816145cc565b9050919050565b7f416363657373436f6e74726f6c3a206163636f756e7420000000000000000000600082015250565b6000614645601783613ecd565b91506146508261460f565b601782019050919050565b7f206973206d697373696e6720726f6c6520000000000000000000000000000000600082015250565b6000614691601183613ecd565b915061469c8261465b565b601182019050919050565b60006146b282614638565b91506146be8285613ed8565b91506146c982614684565b91506146d58284613ed8565b91508190509392505050565b60006146ec82613ec2565b6146f68185613c68565b9350614706818560208601613d61565b61470f816135ad565b840191505092915050565b6000602082019050818103600083015261473481846146e1565b905092915050565b600061474782613392565b91506000820361475a57614759613a86565b5b600182039050919050565b7f537472696e67733a20686578206c656e67746820696e73756666696369656e74600082015250565b600061479b602083613c68565b91506147a682614765565b602082019050919050565b600060208201905081810360008301526147ca8161478e565b9050919050565b7f416464726573733a20696e73756666696369656e742062616c616e636520666f60008201527f722063616c6c0000000000000000000000000000000000000000000000000000602082015250565b600061482d602683613c68565b9150614838826147d1565b604082019050919050565b6000602082019050818103600083015261485c81614820565b9050919050565b600081519050919050565b600081905092915050565b600061488482614863565b61488e818561486e565b935061489e818560208601613d61565b80840191505092915050565b60006148b68284614879565b915081905092915050565b7f416464726573733a2063616c6c20746f206e6f6e2d636f6e7472616374000000600082015250565b60006148f7601d83613c68565b9150614902826148c1565b602082019050919050565b60006020820190508181036000830152614926816148ea565b905091905056fea26469706673582212204c168334c8044156481eda26ceaa6638e34764173d08f510422d31c02684d31664736f6c63430008100033",
  "linkReferences": {},
  "deployedLinkReferences": {}
}