{
  "_format": "hh-sol-artifact-1",
  "contractName": "GSZT",
  "sourceName": "contracts/core/token/GSZTERC20.sol",
  "abi": [
    {
      "inputs": [],
      "name": "BaseUpgradeablePausable__ZeroAddressError",
      "type": "error"
    },
    {
      "inputs": [],
      "name": "ERC20__SameAdressTransferError",
      "type": "error"
    },
    {
      "inputs": [],
      "name": "ERC20__TransactionFailedError",
      "type": "error"
    },
    {
      "anonymous": false,
      "inputs": [
        {
          "indexed": true,
          "internalType": "address",
          "name": "owner",
          "type": "address"
        },
        {
          "indexed": true,
          "internalType": "address",
          "name": "spender",
          "type": "address"
        },
        {
          "indexed": false,
          "internalType": "uint256",
          "name": "value",
          "type": "uint256"
        }
      ],
      "name": "Approval",
      "type": "event"
    },
    {
      "anonymous": false,
      "inputs": [
        {
          "indexed": false,
          "internalType": "uint8",
          "name": "version",
          "type": "uint8"
        }
      ],
      "name": "Initialized",
      "type": "event"
    },
    {
      "anonymous": false,
      "inputs": [
        {
          "indexed": false,
          "internalType": "address",
          "name": "account",
          "type": "address"
        }
      ],
      "name": "Paused",
      "type": "event"
    },
    {
      "anonymous": false,
      "inputs": [
        {
          "indexed": true,
          "internalType": "bytes32",
          "name": "role",
          "type": "bytes32"
        },
        {
          "indexed": true,
          "internalType": "bytes32",
          "name": "previousAdminRole",
          "type": "bytes32"
        },
        {
          "indexed": true,
          "internalType": "bytes32",
          "name": "newAdminRole",
          "type": "bytes32"
        }
      ],
      "name": "RoleAdminChanged",
      "type": "event"
    },
    {
      "anonymous": false,
      "inputs": [
        {
          "indexed": true,
          "internalType": "bytes32",
          "name": "role",
          "type": "bytes32"
        },
        {
          "indexed": true,
          "internalType": "address",
          "name": "account",
          "type": "address"
        },
        {
          "indexed": true,
          "internalType": "address",
          "name": "sender",
          "type": "address"
        }
      ],
      "name": "RoleGranted",
      "type": "event"
    },
    {
      "anonymous": false,
      "inputs": [
        {
          "indexed": true,
          "internalType": "bytes32",
          "name": "role",
          "type": "bytes32"
        },
        {
          "indexed": true,
          "internalType": "address",
          "name": "account",
          "type": "address"
        },
        {
          "indexed": true,
          "internalType": "address",
          "name": "sender",
          "type": "address"
        }
      ],
      "name": "RoleRevoked",
      "type": "event"
    },
    {
      "anonymous": false,
      "inputs": [
        {
          "indexed": true,
          "internalType": "address",
          "name": "from",
          "type": "address"
        },
        {
          "indexed": true,
          "internalType": "address",
          "name": "to",
          "type": "address"
        },
        {
          "indexed": false,
          "internalType": "uint256",
          "name": "value",
          "type": "uint256"
        }
      ],
      "name": "Transfer",
      "type": "event"
    },
    {
      "anonymous": false,
      "inputs": [
        {
          "indexed": false,
          "internalType": "address",
          "name": "account",
          "type": "address"
        }
      ],
      "name": "Unpaused",
      "type": "event"
    },
    {
      "inputs": [],
      "name": "DEFAULT_ADMIN_ROLE",
      "outputs": [
        {
          "internalType": "bytes32",
          "name": "",
          "type": "bytes32"
        }
      ],
      "stateMutability": "view",
      "type": "function"
    },
    {
      "inputs": [],
      "name": "DOMAIN_SEPARATOR",
      "outputs": [
        {
          "internalType": "bytes32",
          "name": "",
          "type": "bytes32"
        }
      ],
      "stateMutability": "view",
      "type": "function"
    },
    {
      "inputs": [
        {
          "internalType": "address",
          "name": "owner",
          "type": "address"
        }
      ],
      "name": "__BaseUpgradeablePausable_init",
      "outputs": [],
      "stateMutability": "nonpayable",
      "type": "function"
    },
    {
      "inputs": [
        {
          "internalType": "address",
          "name": "owner",
          "type": "address"
        },
        {
          "internalType": "address",
          "name": "spender",
          "type": "address"
        }
      ],
      "name": "allowance",
      "outputs": [
        {
          "internalType": "uint256",
          "name": "",
          "type": "uint256"
        }
      ],
      "stateMutability": "view",
      "type": "function"
    },
    {
      "inputs": [
        {
          "internalType": "address",
          "name": "spender",
          "type": "address"
        },
        {
          "internalType": "uint256",
          "name": "amount",
          "type": "uint256"
        }
      ],
      "name": "approve",
      "outputs": [
        {
          "internalType": "bool",
          "name": "",
          "type": "bool"
        }
      ],
      "stateMutability": "nonpayable",
      "type": "function"
    },
    {
      "inputs": [
        {
          "internalType": "address",
          "name": "account",
          "type": "address"
        }
      ],
      "name": "balanceOf",
      "outputs": [
        {
          "internalType": "uint256",
          "name": "",
          "type": "uint256"
        }
      ],
      "stateMutability": "view",
      "type": "function"
    },
    {
      "inputs": [
        {
          "internalType": "address",
          "name": "account",
          "type": "address"
        },
        {
          "internalType": "uint256",
          "name": "amount",
          "type": "uint256"
        }
      ],
      "name": "burnFrom",
      "outputs": [
        {
          "internalType": "bool",
          "name": "",
          "type": "bool"
        }
      ],
      "stateMutability": "nonpayable",
      "type": "function"
    },
    {
      "inputs": [],
      "name": "buySZTCA",
      "outputs": [
        {
          "internalType": "address",
          "name": "",
          "type": "address"
        }
      ],
      "stateMutability": "view",
      "type": "function"
    },
    {
      "inputs": [],
      "name": "decimals",
      "outputs": [
        {
          "internalType": "uint8",
          "name": "",
          "type": "uint8"
        }
      ],
      "stateMutability": "view",
      "type": "function"
    },
    {
      "inputs": [
        {
          "internalType": "address",
          "name": "spender",
          "type": "address"
        },
        {
          "internalType": "uint256",
          "name": "subtractedValue",
          "type": "uint256"
        }
      ],
      "name": "decreaseAllowance",
      "outputs": [
        {
          "internalType": "bool",
          "name": "",
          "type": "bool"
        }
      ],
      "stateMutability": "nonpayable",
      "type": "function"
    },
    {
      "inputs": [
        {
          "internalType": "bytes32",
          "name": "role",
          "type": "bytes32"
        }
      ],
      "name": "getRoleAdmin",
      "outputs": [
        {
          "internalType": "bytes32",
          "name": "",
          "type": "bytes32"
        }
      ],
      "stateMutability": "view",
      "type": "function"
    },
    {
      "inputs": [
        {
          "internalType": "bytes32",
          "name": "role",
          "type": "bytes32"
        },
        {
          "internalType": "address",
          "name": "account",
          "type": "address"
        }
      ],
      "name": "grantRole",
      "outputs": [],
      "stateMutability": "nonpayable",
      "type": "function"
    },
    {
      "inputs": [
        {
          "internalType": "bytes32",
          "name": "role",
          "type": "bytes32"
        },
        {
          "internalType": "address",
          "name": "account",
          "type": "address"
        }
      ],
      "name": "hasRole",
      "outputs": [
        {
          "internalType": "bool",
          "name": "",
          "type": "bool"
        }
      ],
      "stateMutability": "view",
      "type": "function"
    },
    {
      "inputs": [
        {
          "internalType": "address",
          "name": "spender",
          "type": "address"
        },
        {
          "internalType": "uint256",
          "name": "addedValue",
          "type": "uint256"
        }
      ],
      "name": "increaseAllowance",
      "outputs": [
        {
          "internalType": "bool",
          "name": "",
          "type": "bool"
        }
      ],
      "stateMutability": "nonpayable",
      "type": "function"
    },
    {
      "inputs": [
        {
          "internalType": "address",
          "name": "addressBuySellSZT",
          "type": "address"
        }
      ],
      "name": "initialize",
      "outputs": [],
      "stateMutability": "nonpayable",
      "type": "function"
    },
    {
      "inputs": [],
      "name": "isAdmin",
      "outputs": [
        {
          "internalType": "bool",
          "name": "",
          "type": "bool"
        }
      ],
      "stateMutability": "view",
      "type": "function"
    },
    {
      "inputs": [
        {
          "internalType": "address",
          "name": "to",
          "type": "address"
        },
        {
          "internalType": "uint256",
          "name": "amount",
          "type": "uint256"
        }
      ],
      "name": "mint",
      "outputs": [
        {
          "internalType": "bool",
          "name": "",
          "type": "bool"
        }
      ],
      "stateMutability": "nonpayable",
      "type": "function"
    },
    {
      "inputs": [],
      "name": "name",
      "outputs": [
        {
          "internalType": "string",
          "name": "",
          "type": "string"
        }
      ],
      "stateMutability": "view",
      "type": "function"
    },
    {
      "inputs": [
        {
          "internalType": "address",
          "name": "owner",
          "type": "address"
        }
      ],
      "name": "nonces",
      "outputs": [
        {
          "internalType": "uint256",
          "name": "",
          "type": "uint256"
        }
      ],
      "stateMutability": "view",
      "type": "function"
    },
    {
      "inputs": [],
      "name": "pause",
      "outputs": [],
      "stateMutability": "nonpayable",
      "type": "function"
    },
    {
      "inputs": [],
      "name": "paused",
      "outputs": [
        {
          "internalType": "bool",
          "name": "",
          "type": "bool"
        }
      ],
      "stateMutability": "view",
      "type": "function"
    },
    {
      "inputs": [
        {
          "internalType": "address",
          "name": "owner",
          "type": "address"
        },
        {
          "internalType": "address",
          "name": "spender",
          "type": "address"
        },
        {
          "internalType": "uint256",
          "name": "value",
          "type": "uint256"
        },
        {
          "internalType": "uint256",
          "name": "deadline",
          "type": "uint256"
        },
        {
          "internalType": "uint8",
          "name": "v",
          "type": "uint8"
        },
        {
          "internalType": "bytes32",
          "name": "r",
          "type": "bytes32"
        },
        {
          "internalType": "bytes32",
          "name": "s",
          "type": "bytes32"
        }
      ],
      "name": "permit",
      "outputs": [],
      "stateMutability": "nonpayable",
      "type": "function"
    },
    {
      "inputs": [
        {
          "internalType": "bytes32",
          "name": "role",
          "type": "bytes32"
        },
        {
          "internalType": "address",
          "name": "account",
          "type": "address"
        }
      ],
      "name": "renounceRole",
      "outputs": [],
      "stateMutability": "nonpayable",
      "type": "function"
    },
    {
      "inputs": [
        {
          "internalType": "bytes32",
          "name": "role",
          "type": "bytes32"
        },
        {
          "internalType": "address",
          "name": "account",
          "type": "address"
        }
      ],
      "name": "revokeRole",
      "outputs": [],
      "stateMutability": "nonpayable",
      "type": "function"
    },
    {
      "inputs": [
        {
          "internalType": "bytes4",
          "name": "interfaceId",
          "type": "bytes4"
        }
      ],
      "name": "supportsInterface",
      "outputs": [
        {
          "internalType": "bool",
          "name": "",
          "type": "bool"
        }
      ],
      "stateMutability": "view",
      "type": "function"
    },
    {
      "inputs": [],
      "name": "symbol",
      "outputs": [
        {
          "internalType": "string",
          "name": "",
          "type": "string"
        }
      ],
      "stateMutability": "view",
      "type": "function"
    },
    {
      "inputs": [],
      "name": "totalSupply",
      "outputs": [
        {
          "internalType": "uint256",
          "name": "",
          "type": "uint256"
        }
      ],
      "stateMutability": "view",
      "type": "function"
    },
    {
      "inputs": [
        {
          "internalType": "address",
          "name": "to",
          "type": "address"
        },
        {
          "internalType": "uint256",
          "name": "amount",
          "type": "uint256"
        }
      ],
      "name": "transfer",
      "outputs": [
        {
          "internalType": "bool",
          "name": "",
          "type": "bool"
        }
      ],
      "stateMutability": "nonpayable",
      "type": "function"
    },
    {
      "inputs": [
        {
          "internalType": "address",
          "name": "from",
          "type": "address"
        },
        {
          "internalType": "address",
          "name": "to",
          "type": "address"
        },
        {
          "internalType": "uint256",
          "name": "amount",
          "type": "uint256"
        }
      ],
      "name": "transferFrom",
      "outputs": [
        {
          "internalType": "bool",
          "name": "",
          "type": "bool"
        }
      ],
      "stateMutability": "nonpayable",
      "type": "function"
    },
    {
      "inputs": [],
      "name": "unpause",
      "outputs": [],
      "stateMutability": "nonpayable",
      "type": "function"
    }
  ],
  "bytecode": "0x608060405234801561001057600080fd5b506141e9806100206000396000f3fe608060405234801561001057600080fd5b50600436106101da5760003560e01c80636e810b1a11610104578063a217fddf116100a2578063c4d66de811610071578063c4d66de814610595578063d505accf146105b1578063d547741f146105cd578063dd62ed3e146105e9576101da565b8063a217fddf146104f9578063a457c2d714610517578063a9059cbb14610547578063b6db75a014610577576101da565b80637ecebe00116100de5780637ecebe00146104715780638456cb59146104a157806391d14854146104ab57806395d89b41146104db576101da565b80636e810b1a146103f557806370a082311461041157806379cc679014610441576101da565b8063313ce5671161017c5780633d23e0d71161014b5780633d23e0d71461037f5780633f4ba83a1461039d57806340c10f19146103a75780635c975abb146103d7576101da565b8063313ce567146102f75780633644e5151461031557806336568abe14610333578063395093511461034f576101da565b806318160ddd116101b857806318160ddd1461025d57806323b872dd1461027b578063248a9ca3146102ab5780632f2ff15d146102db576101da565b806301ffc9a7146101df57806306fdde031461020f578063095ea7b31461022d575b600080fd5b6101f960048036038101906101f49190612a5c565b610619565b6040516102069190612aa4565b60405180910390f35b610217610693565b6040516102249190612b4f565b60405180910390f35b61024760048036038101906102429190612c05565b610725565b6040516102549190612aa4565b60405180910390f35b610265610748565b6040516102729190612c54565b60405180910390f35b61029560048036038101906102909190612c6f565b610752565b6040516102a29190612aa4565b60405180910390f35b6102c560048036038101906102c09190612cf8565b61086f565b6040516102d29190612d34565b60405180910390f35b6102f560048036038101906102f09190612d4f565b610890565b005b6102ff6108b1565b60405161030c9190612dab565b60405180910390f35b61031d6108ba565b60405161032a9190612d34565b60405180910390f35b61034d60048036038101906103489190612d4f565b6108c9565b005b61036960048036038101906103649190612c05565b61094c565b6040516103769190612aa4565b60405180910390f35b610387610983565b6040516103949190612dd5565b60405180910390f35b6103a56109aa565b005b6103c160048036038101906103bc9190612c05565b6109fb565b6040516103ce9190612aa4565b60405180910390f35b6103df610a73565b6040516103ec9190612aa4565b60405180910390f35b61040f600480360381019061040a9190612df0565b610a8a565b005b61042b60048036038101906104269190612df0565b610bac565b6040516104389190612c54565b60405180910390f35b61045b60048036038101906104569190612c05565b610bf5565b6040516104689190612aa4565b60405180910390f35b61048b60048036038101906104869190612df0565b610c1d565b6040516104989190612c54565b60405180910390f35b6104a9610c6d565b005b6104c560048036038101906104c09190612d4f565b610cbe565b6040516104d29190612aa4565b60405180910390f35b6104e3610d2a565b6040516104f09190612b4f565b60405180910390f35b610501610dbc565b60405161050e9190612d34565b60405180910390f35b610531600480360381019061052c9190612c05565b610dc3565b60405161053e9190612aa4565b60405180910390f35b610561600480360381019061055c9190612c05565b610e3a565b60405161056e9190612aa4565b60405180910390f35b61057f610ee6565b60405161058c9190612aa4565b60405180910390f35b6105af60048036038101906105aa9190612df0565b610f05565b005b6105cb60048036038101906105c69190612e49565b611140565b005b6105e760048036038101906105e29190612d4f565b611282565b005b61060360048036038101906105fe9190612eeb565b6112a3565b6040516106109190612c54565b60405180910390f35b60007f7965db0b000000000000000000000000000000000000000000000000000000007bffffffffffffffffffffffffffffffffffffffffffffffffffffffff1916827bffffffffffffffffffffffffffffffffffffffffffffffffffffffff1916148061068c575061068b8261132a565b5b9050919050565b6060603680546106a290612f5a565b80601f01602080910402602001604051908101604052809291908181526020018280546106ce90612f5a565b801561071b5780601f106106f05761010080835404028352916020019161071b565b820191906000526020600020905b8154815290600101906020018083116106fe57829003601f168201915b5050505050905090565b600080610730611394565b905061073d81858561139c565b600191505092915050565b6000603554905090565b60008373ffffffffffffffffffffffffffffffffffffffff168373ffffffffffffffffffffffffffffffffffffffff16036107b9576040517fced4ef3500000000000000000000000000000000000000000000000000000000815260040160405180910390fd5b61019460009054906101000a900473ffffffffffffffffffffffffffffffffffffffff1673ffffffffffffffffffffffffffffffffffffffff168373ffffffffffffffffffffffffffffffffffffffff1614610841576040517f5249361100000000000000000000000000000000000000000000000000000000815260040160405180910390fd5b600061084b611394565b9050610858858285611565565b6108638585856115f1565b60019150509392505050565b60006101306000838152602001908152602001600020600101549050919050565b6108998261086f565b6108a28161186a565b6108ac838361187e565b505050565b60006012905090565b60006108c4611960565b905090565b6108d1611394565b73ffffffffffffffffffffffffffffffffffffffff168173ffffffffffffffffffffffffffffffffffffffff161461093e576040517f08c379a000000000000000000000000000000000000000000000000000000000815260040161093590612ffd565b60405180910390fd5b61094882826119a0565b5050565b600080610957611394565b905061097881858561096985896112a3565b610973919061304c565b61139c565b600191505092915050565b61019460009054906101000a900473ffffffffffffffffffffffffffffffffffffffff1681565b6109b2610ee6565b6109f1576040517f08c379a00000000000000000000000000000000000000000000000000000000081526004016109e8906130f2565b60405180910390fd5b6109f9611a83565b565b600061019460009054906101000a900473ffffffffffffffffffffffffffffffffffffffff1673ffffffffffffffffffffffffffffffffffffffff16610a3f611394565b73ffffffffffffffffffffffffffffffffffffffff1614610a5f57600080fd5b610a698383611ae6565b6001905092915050565b600060cc60009054906101000a900460ff16905090565b600060019054906101000a900460ff16610ad9576040517f08c379a0000000000000000000000000000000000000000000000000000000008152600401610ad090613184565b60405180910390fd5b600073ffffffffffffffffffffffffffffffffffffffff168173ffffffffffffffffffffffffffffffffffffffff1603610b3f576040517f5415139400000000000000000000000000000000000000000000000000000000815260040160405180910390fd5b610b47611c3d565b610b4f611c96565b610b57611ce7565b610b68610b62611d40565b8261187e565b610b79610b73611d68565b8261187e565b610b91610b84611d68565b610b8c611d40565b611d90565b610ba9610b9c611d40565b610ba4611d40565b611d90565b50565b6000603360008373ffffffffffffffffffffffffffffffffffffffff1673ffffffffffffffffffffffffffffffffffffffff168152602001908152602001600020549050919050565b6000610c0983610c03611394565b84611565565b610c138383611ded565b6001905092915050565b6000610c66609960008473ffffffffffffffffffffffffffffffffffffffff1673ffffffffffffffffffffffffffffffffffffffff168152602001908152602001600020611fbc565b9050919050565b610c75610ee6565b610cb4576040517f08c379a0000000000000000000000000000000000000000000000000000000008152600401610cab906130f2565b60405180910390fd5b610cbc611fca565b565b6000610130600084815260200190815260200160002060000160008373ffffffffffffffffffffffffffffffffffffffff1673ffffffffffffffffffffffffffffffffffffffff16815260200190815260200160002060009054906101000a900460ff16905092915050565b606060378054610d3990612f5a565b80601f0160208091040260200160405190810160405280929190818152602001828054610d6590612f5a565b8015610db25780601f10610d8757610100808354040283529160200191610db2565b820191906000526020600020905b815481529060010190602001808311610d9557829003601f168201915b5050505050905090565b6000801b81565b600080610dce611394565b90506000610ddc82866112a3565b905083811015610e21576040517f08c379a0000000000000000000000000000000000000000000000000000000008152600401610e1890613216565b60405180910390fd5b610e2e828686840361139c565b60019250505092915050565b600061019460009054906101000a900473ffffffffffffffffffffffffffffffffffffffff1673ffffffffffffffffffffffffffffffffffffffff168373ffffffffffffffffffffffffffffffffffffffff1614610ec4576040517f5249361100000000000000000000000000000000000000000000000000000000815260040160405180910390fd5b6000610ece611394565b9050610edb8185856115f1565b600191505092915050565b6000610f00610ef3611d40565b610efb611394565b610cbe565b905090565b60008060019054906101000a900460ff16159050808015610f365750600160008054906101000a900460ff1660ff16105b80610f635750610f453061202d565b158015610f625750600160008054906101000a900460ff1660ff16145b5b610fa2576040517f08c379a0000000000000000000000000000000000000000000000000000000008152600401610f99906132a8565b60405180910390fd5b60016000806101000a81548160ff021916908360ff1602179055508015610fdf576001600060016101000a81548160ff0219169083151502179055505b6110536040518060400160405280601881526020017f536166655a656e20476f7665726e616e636520546f6b656e00000000000000008152506040518060400160405280600481526020017f47535a5400000000000000000000000000000000000000000000000000000000815250612050565b6110916040518060400160405280600481526020017f47535a54000000000000000000000000000000000000000000000000000000008152506120ad565b6110a161109c611394565b610a8a565b8161019460006101000a81548173ffffffffffffffffffffffffffffffffffffffff021916908373ffffffffffffffffffffffffffffffffffffffff160217905550801561113c5760008060016101000a81548160ff0219169083151502179055507f7f26b83ff96e1f2b6a682f133852f6798a09c465da95921460cefb38474024986001604051611133919061330d565b60405180910390a15b5050565b83421115611183576040517f08c379a000000000000000000000000000000000000000000000000000000000815260040161117a90613374565b60405180910390fd5b60007f6e71edae12b1b97f4d1f60370fef10105fa2faae0126114a169c64845d6126c98888886111b28c61213e565b896040516020016111c896959493929190613394565b60405160208183030381529060405280519060200120905060006111eb8261219c565b905060006111fb828787876121b6565b90508973ffffffffffffffffffffffffffffffffffffffff168173ffffffffffffffffffffffffffffffffffffffff161461126b576040517f08c379a000000000000000000000000000000000000000000000000000000000815260040161126290613441565b60405180910390fd5b6112768a8a8a61139c565b50505050505050505050565b61128b8261086f565b6112948161186a565b61129e83836119a0565b505050565b6000603460008473ffffffffffffffffffffffffffffffffffffffff1673ffffffffffffffffffffffffffffffffffffffff16815260200190815260200160002060008373ffffffffffffffffffffffffffffffffffffffff1673ffffffffffffffffffffffffffffffffffffffff16815260200190815260200160002054905092915050565b60007f01ffc9a7000000000000000000000000000000000000000000000000000000007bffffffffffffffffffffffffffffffffffffffffffffffffffffffff1916827bffffffffffffffffffffffffffffffffffffffffffffffffffffffff1916149050919050565b600033905090565b600073ffffffffffffffffffffffffffffffffffffffff168373ffffffffffffffffffffffffffffffffffffffff160361140b576040517f08c379a0000000000000000000000000000000000000000000000000000000008152600401611402906134d3565b60405180910390fd5b600073ffffffffffffffffffffffffffffffffffffffff168273ffffffffffffffffffffffffffffffffffffffff160361147a576040517f08c379a000000000000000000000000000000000000000000000000000000000815260040161147190613565565b60405180910390fd5b80603460008573ffffffffffffffffffffffffffffffffffffffff1673ffffffffffffffffffffffffffffffffffffffff16815260200190815260200160002060008473ffffffffffffffffffffffffffffffffffffffff1673ffffffffffffffffffffffffffffffffffffffff168152602001908152602001600020819055508173ffffffffffffffffffffffffffffffffffffffff168373ffffffffffffffffffffffffffffffffffffffff167f8c5be1e5ebec7d5bd14f71427d1e84f3dd0314c0f7b2291e5b200ac8c7c3b925836040516115589190612c54565b60405180910390a3505050565b600061157184846112a3565b90507fffffffffffffffffffffffffffffffffffffffffffffffffffffffffffffffff81146115eb57818110156115dd576040517f08c379a00000000000000000000000000000000000000000000000000000000081526004016115d4906135d1565b60405180910390fd5b6115ea848484840361139c565b5b50505050565b600073ffffffffffffffffffffffffffffffffffffffff168373ffffffffffffffffffffffffffffffffffffffff1603611660576040517f08c379a000000000000000000000000000000000000000000000000000000000815260040161165790613663565b60405180910390fd5b600073ffffffffffffffffffffffffffffffffffffffff168273ffffffffffffffffffffffffffffffffffffffff16036116cf576040517f08c379a00000000000000000000000000000000000000000000000000000000081526004016116c6906136f5565b60405180910390fd5b6116da8383836121e1565b6000603360008573ffffffffffffffffffffffffffffffffffffffff1673ffffffffffffffffffffffffffffffffffffffff16815260200190815260200160002054905081811015611761576040517f08c379a000000000000000000000000000000000000000000000000000000000815260040161175890613787565b60405180910390fd5b818103603360008673ffffffffffffffffffffffffffffffffffffffff1673ffffffffffffffffffffffffffffffffffffffff1681526020019081526020016000208190555081603360008573ffffffffffffffffffffffffffffffffffffffff1673ffffffffffffffffffffffffffffffffffffffff168152602001908152602001600020600082825401925050819055508273ffffffffffffffffffffffffffffffffffffffff168473ffffffffffffffffffffffffffffffffffffffff167fddf252ad1be2c89b69c2b068fc378daa952ba7f163c4a11628f55a4df523b3ef846040516118519190612c54565b60405180910390a36118648484846121e6565b50505050565b61187b81611876611394565b6121eb565b50565b6118888282610cbe565b61195c576001610130600084815260200190815260200160002060000160008373ffffffffffffffffffffffffffffffffffffffff1673ffffffffffffffffffffffffffffffffffffffff16815260200190815260200160002060006101000a81548160ff021916908315150217905550611901611394565b73ffffffffffffffffffffffffffffffffffffffff168173ffffffffffffffffffffffffffffffffffffffff16837f2f8788117e7eff1d82e926ec794901d17c78024a50270940304540a733656f0d60405160405180910390a45b5050565b600061199b7f8b73c3c69bb8fe3d512ecc4cf759cc79239f7b179b0ffacaa9a75d522b39400f61198e612270565b61199661227a565b612284565b905090565b6119aa8282610cbe565b15611a7f576000610130600084815260200190815260200160002060000160008373ffffffffffffffffffffffffffffffffffffffff1673ffffffffffffffffffffffffffffffffffffffff16815260200190815260200160002060006101000a81548160ff021916908315150217905550611a24611394565b73ffffffffffffffffffffffffffffffffffffffff168173ffffffffffffffffffffffffffffffffffffffff16837ff6391f5c32d9c69d2a47ea670b442974b53935d1edc7fd64eb21e047a839171b60405160405180910390a45b5050565b611a8b6122be565b600060cc60006101000a81548160ff0219169083151502179055507f5db9ee0a495bf2e6ff9c91a7834c1ba4fdd244a5e8aa4e537bd38aeae4b073aa611acf611394565b604051611adc9190612dd5565b60405180910390a1565b600073ffffffffffffffffffffffffffffffffffffffff168273ffffffffffffffffffffffffffffffffffffffff1603611b55576040517f08c379a0000000000000000000000000000000000000000000000000000000008152600401611b4c906137f3565b60405180910390fd5b611b61600083836121e1565b8060356000828254611b73919061304c565b9250508190555080603360008473ffffffffffffffffffffffffffffffffffffffff1673ffffffffffffffffffffffffffffffffffffffff168152602001908152602001600020600082825401925050819055508173ffffffffffffffffffffffffffffffffffffffff16600073ffffffffffffffffffffffffffffffffffffffff167fddf252ad1be2c89b69c2b068fc378daa952ba7f163c4a11628f55a4df523b3ef83604051611c259190612c54565b60405180910390a3611c39600083836121e6565b5050565b600060019054906101000a900460ff16611c8c576040517f08c379a0000000000000000000000000000000000000000000000000000000008152600401611c8390613184565b60405180910390fd5b611c94612307565b565b600060019054906101000a900460ff16611ce5576040517f08c379a0000000000000000000000000000000000000000000000000000000008152600401611cdc90613184565b60405180910390fd5b565b600060019054906101000a900460ff16611d36576040517f08c379a0000000000000000000000000000000000000000000000000000000008152600401611d2d90613184565b60405180910390fd5b611d3e612373565b565b60007fa49807205ce4d355092ef5a8a18f56e8913cf4a201fbe287825b095693c21775905090565b60007f65d7a28e3265b37a6474929f336521b332c1681b933f6cb9f3376673440d862a905090565b6000611d9b8361086f565b9050816101306000858152602001908152602001600020600101819055508181847fbd79b86ffe0ab8e8776151514217cd7cacd52c909f66475c3af44e129f0b00ff60405160405180910390a4505050565b600073ffffffffffffffffffffffffffffffffffffffff168273ffffffffffffffffffffffffffffffffffffffff1603611e5c576040517f08c379a0000000000000000000000000000000000000000000000000000000008152600401611e5390613885565b60405180910390fd5b611e68826000836121e1565b6000603360008473ffffffffffffffffffffffffffffffffffffffff1673ffffffffffffffffffffffffffffffffffffffff16815260200190815260200160002054905081811015611eef576040517f08c379a0000000000000000000000000000000000000000000000000000000008152600401611ee690613917565b60405180910390fd5b818103603360008573ffffffffffffffffffffffffffffffffffffffff1673ffffffffffffffffffffffffffffffffffffffff1681526020019081526020016000208190555081603560008282540392505081905550600073ffffffffffffffffffffffffffffffffffffffff168373ffffffffffffffffffffffffffffffffffffffff167fddf252ad1be2c89b69c2b068fc378daa952ba7f163c4a11628f55a4df523b3ef84604051611fa39190612c54565b60405180910390a3611fb7836000846121e6565b505050565b600081600001549050919050565b611fd26123cd565b600160cc60006101000a81548160ff0219169083151502179055507f62e78cea01bee320cd4e420270b5ea74000d11b0c9f74754ebdbfc544b05a258612016611394565b6040516120239190612dd5565b60405180910390a1565b6000808273ffffffffffffffffffffffffffffffffffffffff163b119050919050565b600060019054906101000a900460ff1661209f576040517f08c379a000000000000000000000000000000000000000000000000000000000815260040161209690613184565b60405180910390fd5b6120a98282612417565b5050565b600060019054906101000a900460ff166120fc576040517f08c379a00000000000000000000000000000000000000000000000000000000081526004016120f390613184565b60405180910390fd5b61213b816040518060400160405280600181526020017f310000000000000000000000000000000000000000000000000000000000000081525061248a565b50565b600080609960008473ffffffffffffffffffffffffffffffffffffffff1673ffffffffffffffffffffffffffffffffffffffff168152602001908152602001600020905061218b81611fbc565b915061219681612505565b50919050565b60006121af6121a9611960565b8361251b565b9050919050565b60008060006121c78787878761254e565b915091506121d481612630565b8192505050949350505050565b505050565b505050565b6121f58282610cbe565b61226c5761220281612796565b6122108360001c60206127c3565b604051602001612221929190613a0b565b6040516020818303038152906040526040517f08c379a00000000000000000000000000000000000000000000000000000000081526004016122639190612b4f565b60405180910390fd5b5050565b6000606554905090565b6000606654905090565b6000838383463060405160200161229f959493929190613a45565b6040516020818303038152906040528051906020012090509392505050565b6122c6610a73565b612305576040517f08c379a00000000000000000000000000000000000000000000000000000000081526004016122fc90613ae4565b60405180910390fd5b565b600060019054906101000a900460ff16612356576040517f08c379a000000000000000000000000000000000000000000000000000000000815260040161234d90613184565b60405180910390fd5b600060cc60006101000a81548160ff021916908315150217905550565b600060019054906101000a900460ff166123c2576040517f08c379a00000000000000000000000000000000000000000000000000000000081526004016123b990613184565b60405180910390fd5b600161016281905550565b6123d5610a73565b15612415576040517f08c379a000000000000000000000000000000000000000000000000000000000815260040161240c90613b50565b60405180910390fd5b565b600060019054906101000a900460ff16612466576040517f08c379a000000000000000000000000000000000000000000000000000000000815260040161245d90613184565b60405180910390fd5b81603690816124759190613d41565b5080603790816124859190613d41565b505050565b600060019054906101000a900460ff166124d9576040517f08c379a00000000000000000000000000000000000000000000000000000000081526004016124d090613184565b60405180910390fd5b600082805190602001209050600082805190602001209050816065819055508060668190555050505050565b6001816000016000828254019250508190555050565b60008282604051602001612530929190613e80565b60405160208183030381529060405280519060200120905092915050565b6000807f7fffffffffffffffffffffffffffffff5d576e7357a4501ddfe92f46681b20a08360001c1115612589576000600391509150612627565b6000600187878787604051600081526020016040526040516125ae9493929190613eb7565b6020604051602081039080840390855afa1580156125d0573d6000803e3d6000fd5b505050602060405103519050600073ffffffffffffffffffffffffffffffffffffffff168173ffffffffffffffffffffffffffffffffffffffff160361261e57600060019250925050612627565b80600092509250505b94509492505050565b6000600481111561264457612643613efc565b5b81600481111561265757612656613efc565b5b0315612793576001600481111561267157612670613efc565b5b81600481111561268457612683613efc565b5b036126c4576040517f08c379a00000000000000000000000000000000000000000000000000000000081526004016126bb90613f77565b60405180910390fd5b600260048111156126d8576126d7613efc565b5b8160048111156126eb576126ea613efc565b5b0361272b576040517f08c379a000000000000000000000000000000000000000000000000000000000815260040161272290613fe3565b60405180910390fd5b6003600481111561273f5761273e613efc565b5b81600481111561275257612751613efc565b5b03612792576040517f08c379a000000000000000000000000000000000000000000000000000000000815260040161278990614075565b60405180910390fd5b5b50565b60606127bc8273ffffffffffffffffffffffffffffffffffffffff16601460ff166127c3565b9050919050565b6060600060028360026127d69190614095565b6127e0919061304c565b67ffffffffffffffff8111156127f9576127f8613b70565b5b6040519080825280601f01601f19166020018201604052801561282b5781602001600182028036833780820191505090505b5090507f300000000000000000000000000000000000000000000000000000000000000081600081518110612863576128626140ef565b5b60200101907effffffffffffffffffffffffffffffffffffffffffffffffffffffffffffff1916908160001a9053507f7800000000000000000000000000000000000000000000000000000000000000816001815181106128c7576128c66140ef565b5b60200101907effffffffffffffffffffffffffffffffffffffffffffffffffffffffffffff1916908160001a905350600060018460026129079190614095565b612911919061304c565b90505b60018111156129b1577f3031323334353637383961626364656600000000000000000000000000000000600f861660108110612953576129526140ef565b5b1a60f81b82828151811061296a576129696140ef565b5b60200101907effffffffffffffffffffffffffffffffffffffffffffffffffffffffffffff1916908160001a905350600485901c9450806129aa9061411e565b9050612914565b50600084146129f5576040517f08c379a00000000000000000000000000000000000000000000000000000000081526004016129ec90614193565b60405180910390fd5b8091505092915050565b600080fd5b60007fffffffff0000000000000000000000000000000000000000000000000000000082169050919050565b612a3981612a04565b8114612a4457600080fd5b50565b600081359050612a5681612a30565b92915050565b600060208284031215612a7257612a716129ff565b5b6000612a8084828501612a47565b91505092915050565b60008115159050919050565b612a9e81612a89565b82525050565b6000602082019050612ab96000830184612a95565b92915050565b600081519050919050565b600082825260208201905092915050565b60005b83811015612af9578082015181840152602081019050612ade565b60008484015250505050565b6000601f19601f8301169050919050565b6000612b2182612abf565b612b2b8185612aca565b9350612b3b818560208601612adb565b612b4481612b05565b840191505092915050565b60006020820190508181036000830152612b698184612b16565b905092915050565b600073ffffffffffffffffffffffffffffffffffffffff82169050919050565b6000612b9c82612b71565b9050919050565b612bac81612b91565b8114612bb757600080fd5b50565b600081359050612bc981612ba3565b92915050565b6000819050919050565b612be281612bcf565b8114612bed57600080fd5b50565b600081359050612bff81612bd9565b92915050565b60008060408385031215612c1c57612c1b6129ff565b5b6000612c2a85828601612bba565b9250506020612c3b85828601612bf0565b9150509250929050565b612c4e81612bcf565b82525050565b6000602082019050612c696000830184612c45565b92915050565b600080600060608486031215612c8857612c876129ff565b5b6000612c9686828701612bba565b9350506020612ca786828701612bba565b9250506040612cb886828701612bf0565b9150509250925092565b6000819050919050565b612cd581612cc2565b8114612ce057600080fd5b50565b600081359050612cf281612ccc565b92915050565b600060208284031215612d0e57612d0d6129ff565b5b6000612d1c84828501612ce3565b91505092915050565b612d2e81612cc2565b82525050565b6000602082019050612d496000830184612d25565b92915050565b60008060408385031215612d6657612d656129ff565b5b6000612d7485828601612ce3565b9250506020612d8585828601612bba565b9150509250929050565b600060ff82169050919050565b612da581612d8f565b82525050565b6000602082019050612dc06000830184612d9c565b92915050565b612dcf81612b91565b82525050565b6000602082019050612dea6000830184612dc6565b92915050565b600060208284031215612e0657612e056129ff565b5b6000612e1484828501612bba565b91505092915050565b612e2681612d8f565b8114612e3157600080fd5b50565b600081359050612e4381612e1d565b92915050565b600080600080600080600060e0888a031215612e6857612e676129ff565b5b6000612e768a828b01612bba565b9750506020612e878a828b01612bba565b9650506040612e988a828b01612bf0565b9550506060612ea98a828b01612bf0565b9450506080612eba8a828b01612e34565b93505060a0612ecb8a828b01612ce3565b92505060c0612edc8a828b01612ce3565b91505092959891949750929550565b60008060408385031215612f0257612f016129ff565b5b6000612f1085828601612bba565b9250506020612f2185828601612bba565b9150509250929050565b7f4e487b7100000000000000000000000000000000000000000000000000000000600052602260045260246000fd5b60006002820490506001821680612f7257607f821691505b602082108103612f8557612f84612f2b565b5b50919050565b7f416363657373436f6e74726f6c3a2063616e206f6e6c792072656e6f756e636560008201527f20726f6c657320666f722073656c660000000000000000000000000000000000602082015250565b6000612fe7602f83612aca565b9150612ff282612f8b565b604082019050919050565b6000602082019050818103600083015261301681612fda565b9050919050565b7f4e487b7100000000000000000000000000000000000000000000000000000000600052601160045260246000fd5b600061305782612bcf565b915061306283612bcf565b925082820190508082111561307a5761307961301d565b5b92915050565b7f4d75737420686176652061646d696e20726f6c6520746f20706572666f726d2060008201527f7468697320616374696f6e2e0000000000000000000000000000000000000000602082015250565b60006130dc602c83612aca565b91506130e782613080565b604082019050919050565b6000602082019050818103600083015261310b816130cf565b9050919050565b7f496e697469616c697a61626c653a20636f6e7472616374206973206e6f74206960008201527f6e697469616c697a696e67000000000000000000000000000000000000000000602082015250565b600061316e602b83612aca565b915061317982613112565b604082019050919050565b6000602082019050818103600083015261319d81613161565b9050919050565b7f45524332303a2064656372656173656420616c6c6f77616e63652062656c6f7760008201527f207a65726f000000000000000000000000000000000000000000000000000000602082015250565b6000613200602583612aca565b915061320b826131a4565b604082019050919050565b6000602082019050818103600083015261322f816131f3565b9050919050565b7f496e697469616c697a61626c653a20636f6e747261637420697320616c72656160008201527f647920696e697469616c697a6564000000000000000000000000000000000000602082015250565b6000613292602e83612aca565b915061329d82613236565b604082019050919050565b600060208201905081810360008301526132c181613285565b9050919050565b6000819050919050565b6000819050919050565b60006132f76132f26132ed846132c8565b6132d2565b612d8f565b9050919050565b613307816132dc565b82525050565b600060208201905061332260008301846132fe565b92915050565b7f45524332305065726d69743a206578706972656420646561646c696e65000000600082015250565b600061335e601d83612aca565b915061336982613328565b602082019050919050565b6000602082019050818103600083015261338d81613351565b9050919050565b600060c0820190506133a96000830189612d25565b6133b66020830188612dc6565b6133c36040830187612dc6565b6133d06060830186612c45565b6133dd6080830185612c45565b6133ea60a0830184612c45565b979650505050505050565b7f45524332305065726d69743a20696e76616c6964207369676e61747572650000600082015250565b600061342b601e83612aca565b9150613436826133f5565b602082019050919050565b6000602082019050818103600083015261345a8161341e565b9050919050565b7f45524332303a20617070726f76652066726f6d20746865207a65726f2061646460008201527f7265737300000000000000000000000000000000000000000000000000000000602082015250565b60006134bd602483612aca565b91506134c882613461565b604082019050919050565b600060208201905081810360008301526134ec816134b0565b9050919050565b7f45524332303a20617070726f766520746f20746865207a65726f20616464726560008201527f7373000000000000000000000000000000000000000000000000000000000000602082015250565b600061354f602283612aca565b915061355a826134f3565b604082019050919050565b6000602082019050818103600083015261357e81613542565b9050919050565b7f45524332303a20696e73756666696369656e7420616c6c6f77616e6365000000600082015250565b60006135bb601d83612aca565b91506135c682613585565b602082019050919050565b600060208201905081810360008301526135ea816135ae565b9050919050565b7f45524332303a207472616e736665722066726f6d20746865207a65726f20616460008201527f6472657373000000000000000000000000000000000000000000000000000000602082015250565b600061364d602583612aca565b9150613658826135f1565b604082019050919050565b6000602082019050818103600083015261367c81613640565b9050919050565b7f45524332303a207472616e7366657220746f20746865207a65726f206164647260008201527f6573730000000000000000000000000000000000000000000000000000000000602082015250565b60006136df602383612aca565b91506136ea82613683565b604082019050919050565b6000602082019050818103600083015261370e816136d2565b9050919050565b7f45524332303a207472616e7366657220616d6f756e742065786365656473206260008201527f616c616e63650000000000000000000000000000000000000000000000000000602082015250565b6000613771602683612aca565b915061377c82613715565b604082019050919050565b600060208201905081810360008301526137a081613764565b9050919050565b7f45524332303a206d696e7420746f20746865207a65726f206164647265737300600082015250565b60006137dd601f83612aca565b91506137e8826137a7565b602082019050919050565b6000602082019050818103600083015261380c816137d0565b9050919050565b7f45524332303a206275726e2066726f6d20746865207a65726f2061646472657360008201527f7300000000000000000000000000000000000000000000000000000000000000602082015250565b600061386f602183612aca565b915061387a82613813565b604082019050919050565b6000602082019050818103600083015261389e81613862565b9050919050565b7f45524332303a206275726e20616d6f756e7420657863656564732062616c616e60008201527f6365000000000000000000000000000000000000000000000000000000000000602082015250565b6000613901602283612aca565b915061390c826138a5565b604082019050919050565b60006020820190508181036000830152613930816138f4565b9050919050565b600081905092915050565b7f416363657373436f6e74726f6c3a206163636f756e7420000000000000000000600082015250565b6000613978601783613937565b915061398382613942565b601782019050919050565b600061399982612abf565b6139a38185613937565b93506139b3818560208601612adb565b80840191505092915050565b7f206973206d697373696e6720726f6c6520000000000000000000000000000000600082015250565b60006139f5601183613937565b9150613a00826139bf565b601182019050919050565b6000613a168261396b565b9150613a22828561398e565b9150613a2d826139e8565b9150613a39828461398e565b91508190509392505050565b600060a082019050613a5a6000830188612d25565b613a676020830187612d25565b613a746040830186612d25565b613a816060830185612c45565b613a8e6080830184612dc6565b9695505050505050565b7f5061757361626c653a206e6f7420706175736564000000000000000000000000600082015250565b6000613ace601483612aca565b9150613ad982613a98565b602082019050919050565b60006020820190508181036000830152613afd81613ac1565b9050919050565b7f5061757361626c653a2070617573656400000000000000000000000000000000600082015250565b6000613b3a601083612aca565b9150613b4582613b04565b602082019050919050565b60006020820190508181036000830152613b6981613b2d565b9050919050565b7f4e487b7100000000000000000000000000000000000000000000000000000000600052604160045260246000fd5b60008190508160005260206000209050919050565b60006020601f8301049050919050565b600082821b905092915050565b600060088302613c017fffffffffffffffffffffffffffffffffffffffffffffffffffffffffffffffff82613bc4565b613c0b8683613bc4565b95508019841693508086168417925050509392505050565b6000613c3e613c39613c3484612bcf565b6132d2565b612bcf565b9050919050565b6000819050919050565b613c5883613c23565b613c6c613c6482613c45565b848454613bd1565b825550505050565b600090565b613c81613c74565b613c8c818484613c4f565b505050565b5b81811015613cb057613ca5600082613c79565b600181019050613c92565b5050565b601f821115613cf557613cc681613b9f565b613ccf84613bb4565b81016020851015613cde578190505b613cf2613cea85613bb4565b830182613c91565b50505b505050565b600082821c905092915050565b6000613d1860001984600802613cfa565b1980831691505092915050565b6000613d318383613d07565b9150826002028217905092915050565b613d4a82612abf565b67ffffffffffffffff811115613d6357613d62613b70565b5b613d6d8254612f5a565b613d78828285613cb4565b600060209050601f831160018114613dab5760008415613d99578287015190505b613da38582613d25565b865550613e0b565b601f198416613db986613b9f565b60005b82811015613de157848901518255600182019150602085019450602081019050613dbc565b86831015613dfe5784890151613dfa601f891682613d07565b8355505b6001600288020188555050505b505050505050565b7f1901000000000000000000000000000000000000000000000000000000000000600082015250565b6000613e49600283613937565b9150613e5482613e13565b600282019050919050565b6000819050919050565b613e7a613e7582612cc2565b613e5f565b82525050565b6000613e8b82613e3c565b9150613e978285613e69565b602082019150613ea78284613e69565b6020820191508190509392505050565b6000608082019050613ecc6000830187612d25565b613ed96020830186612d9c565b613ee66040830185612d25565b613ef36060830184612d25565b95945050505050565b7f4e487b7100000000000000000000000000000000000000000000000000000000600052602160045260246000fd5b7f45434453413a20696e76616c6964207369676e61747572650000000000000000600082015250565b6000613f61601883612aca565b9150613f6c82613f2b565b602082019050919050565b60006020820190508181036000830152613f9081613f54565b9050919050565b7f45434453413a20696e76616c6964207369676e6174757265206c656e67746800600082015250565b6000613fcd601f83612aca565b9150613fd882613f97565b602082019050919050565b60006020820190508181036000830152613ffc81613fc0565b9050919050565b7f45434453413a20696e76616c6964207369676e6174757265202773272076616c60008201527f7565000000000000000000000000000000000000000000000000000000000000602082015250565b600061405f602283612aca565b915061406a82614003565b604082019050919050565b6000602082019050818103600083015261408e81614052565b9050919050565b60006140a082612bcf565b91506140ab83612bcf565b9250817fffffffffffffffffffffffffffffffffffffffffffffffffffffffffffffffff04831182151516156140e4576140e361301d565b5b828202905092915050565b7f4e487b7100000000000000000000000000000000000000000000000000000000600052603260045260246000fd5b600061412982612bcf565b91506000820361413c5761413b61301d565b5b600182039050919050565b7f537472696e67733a20686578206c656e67746820696e73756666696369656e74600082015250565b600061417d602083612aca565b915061418882614147565b602082019050919050565b600060208201905081810360008301526141ac81614170565b905091905056fea26469706673582212205f70306da28216a0465f38b4aecc94908c600ab7c9e3495e49a345503b73c68b64736f6c63430008100033",
  "linkReferences": {},
  "deployedLinkReferences": {}
}