{
  "_format": "hh-sol-artifact-1",
  "contractName": "GSZT",
  "sourceName": "contracts/core/token/GSZTERC20.sol",
  "abi": [
    {
      "inputs": [],
      "name": "BaseUpgradeablePausable__ZeroAddressError",
      "type": "error"
    },
    {
      "inputs": [],
      "name": "ERC20__SameAdressTransferError",
      "type": "error"
    },
    {
      "inputs": [],
      "name": "ERC20__TransactionFailedError",
      "type": "error"
    },
    {
      "anonymous": false,
      "inputs": [
        {
          "indexed": true,
          "internalType": "address",
          "name": "owner",
          "type": "address"
        },
        {
          "indexed": true,
          "internalType": "address",
          "name": "spender",
          "type": "address"
        },
        {
          "indexed": false,
          "internalType": "uint256",
          "name": "value",
          "type": "uint256"
        }
      ],
      "name": "Approval",
      "type": "event"
    },
    {
      "anonymous": false,
      "inputs": [
        {
          "indexed": false,
          "internalType": "uint8",
          "name": "version",
          "type": "uint8"
        }
      ],
      "name": "Initialized",
      "type": "event"
    },
    {
      "anonymous": false,
      "inputs": [
        {
          "indexed": false,
          "internalType": "address",
          "name": "account",
          "type": "address"
        }
      ],
      "name": "Paused",
      "type": "event"
    },
    {
      "anonymous": false,
      "inputs": [
        {
          "indexed": true,
          "internalType": "bytes32",
          "name": "role",
          "type": "bytes32"
        },
        {
          "indexed": true,
          "internalType": "bytes32",
          "name": "previousAdminRole",
          "type": "bytes32"
        },
        {
          "indexed": true,
          "internalType": "bytes32",
          "name": "newAdminRole",
          "type": "bytes32"
        }
      ],
      "name": "RoleAdminChanged",
      "type": "event"
    },
    {
      "anonymous": false,
      "inputs": [
        {
          "indexed": true,
          "internalType": "bytes32",
          "name": "role",
          "type": "bytes32"
        },
        {
          "indexed": true,
          "internalType": "address",
          "name": "account",
          "type": "address"
        },
        {
          "indexed": true,
          "internalType": "address",
          "name": "sender",
          "type": "address"
        }
      ],
      "name": "RoleGranted",
      "type": "event"
    },
    {
      "anonymous": false,
      "inputs": [
        {
          "indexed": true,
          "internalType": "bytes32",
          "name": "role",
          "type": "bytes32"
        },
        {
          "indexed": true,
          "internalType": "address",
          "name": "account",
          "type": "address"
        },
        {
          "indexed": true,
          "internalType": "address",
          "name": "sender",
          "type": "address"
        }
      ],
      "name": "RoleRevoked",
      "type": "event"
    },
    {
      "anonymous": false,
      "inputs": [
        {
          "indexed": true,
          "internalType": "address",
          "name": "from",
          "type": "address"
        },
        {
          "indexed": true,
          "internalType": "address",
          "name": "to",
          "type": "address"
        },
        {
          "indexed": false,
          "internalType": "uint256",
          "name": "value",
          "type": "uint256"
        }
      ],
      "name": "Transfer",
      "type": "event"
    },
    {
      "anonymous": false,
      "inputs": [
        {
          "indexed": false,
          "internalType": "address",
          "name": "account",
          "type": "address"
        }
      ],
      "name": "Unpaused",
      "type": "event"
    },
    {
      "inputs": [],
      "name": "DEFAULT_ADMIN_ROLE",
      "outputs": [
        {
          "internalType": "bytes32",
          "name": "",
          "type": "bytes32"
        }
      ],
      "stateMutability": "view",
      "type": "function"
    },
    {
      "inputs": [],
      "name": "DOMAIN_SEPARATOR",
      "outputs": [
        {
          "internalType": "bytes32",
          "name": "",
          "type": "bytes32"
        }
      ],
      "stateMutability": "view",
      "type": "function"
    },
    {
      "inputs": [
        {
          "internalType": "address",
          "name": "owner",
          "type": "address"
        }
      ],
      "name": "__BaseUpgradeablePausable_init",
      "outputs": [],
      "stateMutability": "nonpayable",
      "type": "function"
    },
    {
      "inputs": [
        {
          "internalType": "address",
          "name": "owner",
          "type": "address"
        },
        {
          "internalType": "address",
          "name": "spender",
          "type": "address"
        }
      ],
      "name": "allowance",
      "outputs": [
        {
          "internalType": "uint256",
          "name": "",
          "type": "uint256"
        }
      ],
      "stateMutability": "view",
      "type": "function"
    },
    {
      "inputs": [
        {
          "internalType": "address",
          "name": "spender",
          "type": "address"
        },
        {
          "internalType": "uint256",
          "name": "amount",
          "type": "uint256"
        }
      ],
      "name": "approve",
      "outputs": [
        {
          "internalType": "bool",
          "name": "",
          "type": "bool"
        }
      ],
      "stateMutability": "nonpayable",
      "type": "function"
    },
    {
      "inputs": [
        {
          "internalType": "address",
          "name": "account",
          "type": "address"
        }
      ],
      "name": "balanceOf",
      "outputs": [
        {
          "internalType": "uint256",
          "name": "",
          "type": "uint256"
        }
      ],
      "stateMutability": "view",
      "type": "function"
    },
    {
      "inputs": [
        {
          "internalType": "address",
          "name": "account",
          "type": "address"
        },
        {
          "internalType": "uint256",
          "name": "amount",
          "type": "uint256"
        }
      ],
      "name": "burnFrom",
      "outputs": [
        {
          "internalType": "bool",
          "name": "",
          "type": "bool"
        }
      ],
      "stateMutability": "nonpayable",
      "type": "function"
    },
    {
      "inputs": [],
      "name": "buySZTCA",
      "outputs": [
        {
          "internalType": "address",
          "name": "",
          "type": "address"
        }
      ],
      "stateMutability": "view",
      "type": "function"
    },
    {
      "inputs": [],
      "name": "decimals",
      "outputs": [
        {
          "internalType": "uint8",
          "name": "",
          "type": "uint8"
        }
      ],
      "stateMutability": "view",
      "type": "function"
    },
    {
      "inputs": [
        {
          "internalType": "address",
          "name": "spender",
          "type": "address"
        },
        {
          "internalType": "uint256",
          "name": "subtractedValue",
          "type": "uint256"
        }
      ],
      "name": "decreaseAllowance",
      "outputs": [
        {
          "internalType": "bool",
          "name": "",
          "type": "bool"
        }
      ],
      "stateMutability": "nonpayable",
      "type": "function"
    },
    {
      "inputs": [
        {
          "internalType": "bytes32",
          "name": "role",
          "type": "bytes32"
        }
      ],
      "name": "getRoleAdmin",
      "outputs": [
        {
          "internalType": "bytes32",
          "name": "",
          "type": "bytes32"
        }
      ],
      "stateMutability": "view",
      "type": "function"
    },
    {
      "inputs": [
        {
          "internalType": "bytes32",
          "name": "role",
          "type": "bytes32"
        },
        {
          "internalType": "address",
          "name": "account",
          "type": "address"
        }
      ],
      "name": "grantRole",
      "outputs": [],
      "stateMutability": "nonpayable",
      "type": "function"
    },
    {
      "inputs": [
        {
          "internalType": "bytes32",
          "name": "role",
          "type": "bytes32"
        },
        {
          "internalType": "address",
          "name": "account",
          "type": "address"
        }
      ],
      "name": "hasRole",
      "outputs": [
        {
          "internalType": "bool",
          "name": "",
          "type": "bool"
        }
      ],
      "stateMutability": "view",
      "type": "function"
    },
    {
      "inputs": [
        {
          "internalType": "address",
          "name": "spender",
          "type": "address"
        },
        {
          "internalType": "uint256",
          "name": "addedValue",
          "type": "uint256"
        }
      ],
      "name": "increaseAllowance",
      "outputs": [
        {
          "internalType": "bool",
          "name": "",
          "type": "bool"
        }
      ],
      "stateMutability": "nonpayable",
      "type": "function"
    },
    {
      "inputs": [
        {
          "internalType": "address",
          "name": "addressBuySellSZT",
          "type": "address"
        }
      ],
      "name": "initialize",
      "outputs": [],
      "stateMutability": "nonpayable",
      "type": "function"
    },
    {
      "inputs": [],
      "name": "isAdmin",
      "outputs": [
        {
          "internalType": "bool",
          "name": "",
          "type": "bool"
        }
      ],
      "stateMutability": "view",
      "type": "function"
    },
    {
      "inputs": [],
      "name": "isModerator",
      "outputs": [
        {
          "internalType": "bool",
          "name": "",
          "type": "bool"
        }
      ],
      "stateMutability": "view",
      "type": "function"
    },
    {
      "inputs": [
        {
          "internalType": "address",
          "name": "to",
          "type": "address"
        },
        {
          "internalType": "uint256",
          "name": "amount",
          "type": "uint256"
        }
      ],
      "name": "mint",
      "outputs": [
        {
          "internalType": "bool",
          "name": "",
          "type": "bool"
        }
      ],
      "stateMutability": "nonpayable",
      "type": "function"
    },
    {
      "inputs": [],
      "name": "name",
      "outputs": [
        {
          "internalType": "string",
          "name": "",
          "type": "string"
        }
      ],
      "stateMutability": "view",
      "type": "function"
    },
    {
      "inputs": [
        {
          "internalType": "address",
          "name": "owner",
          "type": "address"
        }
      ],
      "name": "nonces",
      "outputs": [
        {
          "internalType": "uint256",
          "name": "",
          "type": "uint256"
        }
      ],
      "stateMutability": "view",
      "type": "function"
    },
    {
      "inputs": [],
      "name": "pause",
      "outputs": [],
      "stateMutability": "nonpayable",
      "type": "function"
    },
    {
      "inputs": [],
      "name": "paused",
      "outputs": [
        {
          "internalType": "bool",
          "name": "",
          "type": "bool"
        }
      ],
      "stateMutability": "view",
      "type": "function"
    },
    {
      "inputs": [
        {
          "internalType": "address",
          "name": "owner",
          "type": "address"
        },
        {
          "internalType": "address",
          "name": "spender",
          "type": "address"
        },
        {
          "internalType": "uint256",
          "name": "value",
          "type": "uint256"
        },
        {
          "internalType": "uint256",
          "name": "deadline",
          "type": "uint256"
        },
        {
          "internalType": "uint8",
          "name": "v",
          "type": "uint8"
        },
        {
          "internalType": "bytes32",
          "name": "r",
          "type": "bytes32"
        },
        {
          "internalType": "bytes32",
          "name": "s",
          "type": "bytes32"
        }
      ],
      "name": "permit",
      "outputs": [],
      "stateMutability": "nonpayable",
      "type": "function"
    },
    {
      "inputs": [
        {
          "internalType": "bytes32",
          "name": "role",
          "type": "bytes32"
        },
        {
          "internalType": "address",
          "name": "account",
          "type": "address"
        }
      ],
      "name": "renounceRole",
      "outputs": [],
      "stateMutability": "nonpayable",
      "type": "function"
    },
    {
      "inputs": [
        {
          "internalType": "bytes32",
          "name": "role",
          "type": "bytes32"
        },
        {
          "internalType": "address",
          "name": "account",
          "type": "address"
        }
      ],
      "name": "revokeRole",
      "outputs": [],
      "stateMutability": "nonpayable",
      "type": "function"
    },
    {
      "inputs": [
        {
          "internalType": "bytes4",
          "name": "interfaceId",
          "type": "bytes4"
        }
      ],
      "name": "supportsInterface",
      "outputs": [
        {
          "internalType": "bool",
          "name": "",
          "type": "bool"
        }
      ],
      "stateMutability": "view",
      "type": "function"
    },
    {
      "inputs": [],
      "name": "symbol",
      "outputs": [
        {
          "internalType": "string",
          "name": "",
          "type": "string"
        }
      ],
      "stateMutability": "view",
      "type": "function"
    },
    {
      "inputs": [],
      "name": "totalSupply",
      "outputs": [
        {
          "internalType": "uint256",
          "name": "",
          "type": "uint256"
        }
      ],
      "stateMutability": "view",
      "type": "function"
    },
    {
      "inputs": [
        {
          "internalType": "address",
          "name": "to",
          "type": "address"
        },
        {
          "internalType": "uint256",
          "name": "amount",
          "type": "uint256"
        }
      ],
      "name": "transfer",
      "outputs": [
        {
          "internalType": "bool",
          "name": "",
          "type": "bool"
        }
      ],
      "stateMutability": "nonpayable",
      "type": "function"
    },
    {
      "inputs": [
        {
          "internalType": "address",
          "name": "from",
          "type": "address"
        },
        {
          "internalType": "address",
          "name": "to",
          "type": "address"
        },
        {
          "internalType": "uint256",
          "name": "amount",
          "type": "uint256"
        }
      ],
      "name": "transferFrom",
      "outputs": [
        {
          "internalType": "bool",
          "name": "",
          "type": "bool"
        }
      ],
      "stateMutability": "nonpayable",
      "type": "function"
    },
    {
      "inputs": [],
      "name": "unpause",
      "outputs": [],
      "stateMutability": "nonpayable",
      "type": "function"
    }
  ],
  "bytecode": "0x608060405234801561001057600080fd5b50614231806100206000396000f3fe608060405234801561001057600080fd5b50600436106101e55760003560e01c80636e810b1a1161010f578063a457c2d7116100a2578063c4d66de811610071578063c4d66de8146105be578063d505accf146105da578063d547741f146105f6578063dd62ed3e14610612576101e5565b8063a457c2d714610522578063a9059cbb14610552578063aeabaff314610582578063b6db75a0146105a0576101e5565b80638456cb59116100de5780638456cb59146104ac57806391d14854146104b657806395d89b41146104e6578063a217fddf14610504576101e5565b80636e810b1a1461040057806370a082311461041c57806379cc67901461044c5780637ecebe001461047c576101e5565b8063313ce567116101875780633d23e0d7116101565780633d23e0d71461038a5780633f4ba83a146103a857806340c10f19146103b25780635c975abb146103e2576101e5565b8063313ce567146103025780633644e5151461032057806336568abe1461033e578063395093511461035a576101e5565b806318160ddd116101c357806318160ddd1461026857806323b872dd14610286578063248a9ca3146102b65780632f2ff15d146102e6576101e5565b806301ffc9a7146101ea57806306fdde031461021a578063095ea7b314610238575b600080fd5b61020460048036038101906101ff9190612aa4565b610642565b6040516102119190612aec565b60405180910390f35b6102226106bc565b60405161022f9190612b97565b60405180910390f35b610252600480360381019061024d9190612c4d565b61074e565b60405161025f9190612aec565b60405180910390f35b610270610771565b60405161027d9190612c9c565b60405180910390f35b6102a0600480360381019061029b9190612cb7565b61077b565b6040516102ad9190612aec565b60405180910390f35b6102d060048036038101906102cb9190612d40565b610898565b6040516102dd9190612d7c565b60405180910390f35b61030060048036038101906102fb9190612d97565b6108b9565b005b61030a6108da565b6040516103179190612df3565b60405180910390f35b6103286108e3565b6040516103359190612d7c565b60405180910390f35b61035860048036038101906103539190612d97565b6108f2565b005b610374600480360381019061036f9190612c4d565b610975565b6040516103819190612aec565b60405180910390f35b6103926109ac565b60405161039f9190612e1d565b60405180910390f35b6103b06109d3565b005b6103cc60048036038101906103c79190612c4d565b610a24565b6040516103d99190612aec565b60405180910390f35b6103ea610a9c565b6040516103f79190612aec565b60405180910390f35b61041a60048036038101906104159190612e38565b610ab3565b005b61043660048036038101906104319190612e38565b610bd5565b6040516104439190612c9c565b60405180910390f35b61046660048036038101906104619190612c4d565b610c1e565b6040516104739190612aec565b60405180910390f35b61049660048036038101906104919190612e38565b610c46565b6040516104a39190612c9c565b60405180910390f35b6104b4610c96565b005b6104d060048036038101906104cb9190612d97565b610ce7565b6040516104dd9190612aec565b60405180910390f35b6104ee610d53565b6040516104fb9190612b97565b60405180910390f35b61050c610de5565b6040516105199190612d7c565b60405180910390f35b61053c60048036038101906105379190612c4d565b610dec565b6040516105499190612aec565b60405180910390f35b61056c60048036038101906105679190612c4d565b610e63565b6040516105799190612aec565b60405180910390f35b61058a610f0f565b6040516105979190612aec565b60405180910390f35b6105a8610f2e565b6040516105b59190612aec565b60405180910390f35b6105d860048036038101906105d39190612e38565b610f4d565b005b6105f460048036038101906105ef9190612e91565b611188565b005b610610600480360381019061060b9190612d97565b6112ca565b005b61062c60048036038101906106279190612f33565b6112eb565b6040516106399190612c9c565b60405180910390f35b60007f7965db0b000000000000000000000000000000000000000000000000000000007bffffffffffffffffffffffffffffffffffffffffffffffffffffffff1916827bffffffffffffffffffffffffffffffffffffffffffffffffffffffff191614806106b557506106b482611372565b5b9050919050565b6060603680546106cb90612fa2565b80601f01602080910402602001604051908101604052809291908181526020018280546106f790612fa2565b80156107445780601f1061071957610100808354040283529160200191610744565b820191906000526020600020905b81548152906001019060200180831161072757829003601f168201915b5050505050905090565b6000806107596113dc565b90506107668185856113e4565b600191505092915050565b6000603554905090565b60008373ffffffffffffffffffffffffffffffffffffffff168373ffffffffffffffffffffffffffffffffffffffff16036107e2576040517fced4ef3500000000000000000000000000000000000000000000000000000000815260040160405180910390fd5b61019460009054906101000a900473ffffffffffffffffffffffffffffffffffffffff1673ffffffffffffffffffffffffffffffffffffffff168373ffffffffffffffffffffffffffffffffffffffff161461086a576040517f5249361100000000000000000000000000000000000000000000000000000000815260040160405180910390fd5b60006108746113dc565b90506108818582856115ad565b61088c858585611639565b60019150509392505050565b60006101306000838152602001908152602001600020600101549050919050565b6108c282610898565b6108cb816118b2565b6108d583836118c6565b505050565b60006012905090565b60006108ed6119a8565b905090565b6108fa6113dc565b73ffffffffffffffffffffffffffffffffffffffff168173ffffffffffffffffffffffffffffffffffffffff1614610967576040517f08c379a000000000000000000000000000000000000000000000000000000000815260040161095e90613045565b60405180910390fd5b61097182826119e8565b5050565b6000806109806113dc565b90506109a181858561099285896112eb565b61099c9190613094565b6113e4565b600191505092915050565b61019460009054906101000a900473ffffffffffffffffffffffffffffffffffffffff1681565b6109db610f2e565b610a1a576040517f08c379a0000000000000000000000000000000000000000000000000000000008152600401610a119061313a565b60405180910390fd5b610a22611acb565b565b600061019460009054906101000a900473ffffffffffffffffffffffffffffffffffffffff1673ffffffffffffffffffffffffffffffffffffffff16610a686113dc565b73ffffffffffffffffffffffffffffffffffffffff1614610a8857600080fd5b610a928383611b2e565b6001905092915050565b600060cc60009054906101000a900460ff16905090565b600060019054906101000a900460ff16610b02576040517f08c379a0000000000000000000000000000000000000000000000000000000008152600401610af9906131cc565b60405180910390fd5b600073ffffffffffffffffffffffffffffffffffffffff168173ffffffffffffffffffffffffffffffffffffffff1603610b68576040517f5415139400000000000000000000000000000000000000000000000000000000815260040160405180910390fd5b610b70611c85565b610b78611cde565b610b80611d2f565b610b91610b8b611d88565b826118c6565b610ba2610b9c611db0565b826118c6565b610bba610bad611db0565b610bb5611d88565b611dd8565b610bd2610bc5611d88565b610bcd611d88565b611dd8565b50565b6000603360008373ffffffffffffffffffffffffffffffffffffffff1673ffffffffffffffffffffffffffffffffffffffff168152602001908152602001600020549050919050565b6000610c3283610c2c6113dc565b846115ad565b610c3c8383611e35565b6001905092915050565b6000610c8f609960008473ffffffffffffffffffffffffffffffffffffffff1673ffffffffffffffffffffffffffffffffffffffff168152602001908152602001600020612004565b9050919050565b610c9e610f2e565b610cdd576040517f08c379a0000000000000000000000000000000000000000000000000000000008152600401610cd49061313a565b60405180910390fd5b610ce5612012565b565b6000610130600084815260200190815260200160002060000160008373ffffffffffffffffffffffffffffffffffffffff1673ffffffffffffffffffffffffffffffffffffffff16815260200190815260200160002060009054906101000a900460ff16905092915050565b606060378054610d6290612fa2565b80601f0160208091040260200160405190810160405280929190818152602001828054610d8e90612fa2565b8015610ddb5780601f10610db057610100808354040283529160200191610ddb565b820191906000526020600020905b815481529060010190602001808311610dbe57829003601f168201915b5050505050905090565b6000801b81565b600080610df76113dc565b90506000610e0582866112eb565b905083811015610e4a576040517f08c379a0000000000000000000000000000000000000000000000000000000008152600401610e419061325e565b60405180910390fd5b610e5782868684036113e4565b60019250505092915050565b600061019460009054906101000a900473ffffffffffffffffffffffffffffffffffffffff1673ffffffffffffffffffffffffffffffffffffffff168373ffffffffffffffffffffffffffffffffffffffff1614610eed576040517f5249361100000000000000000000000000000000000000000000000000000000815260040160405180910390fd5b6000610ef76113dc565b9050610f04818585611639565b600191505092915050565b6000610f29610f1c611db0565b610f246113dc565b610ce7565b905090565b6000610f48610f3b611d88565b610f436113dc565b610ce7565b905090565b60008060019054906101000a900460ff16159050808015610f7e5750600160008054906101000a900460ff1660ff16105b80610fab5750610f8d30612075565b158015610faa5750600160008054906101000a900460ff1660ff16145b5b610fea576040517f08c379a0000000000000000000000000000000000000000000000000000000008152600401610fe1906132f0565b60405180910390fd5b60016000806101000a81548160ff021916908360ff1602179055508015611027576001600060016101000a81548160ff0219169083151502179055505b61109b6040518060400160405280601881526020017f536166655a656e20476f7665726e616e636520546f6b656e00000000000000008152506040518060400160405280600481526020017f47535a5400000000000000000000000000000000000000000000000000000000815250612098565b6110d96040518060400160405280600481526020017f47535a54000000000000000000000000000000000000000000000000000000008152506120f5565b6110e96110e46113dc565b610ab3565b8161019460006101000a81548173ffffffffffffffffffffffffffffffffffffffff021916908373ffffffffffffffffffffffffffffffffffffffff16021790555080156111845760008060016101000a81548160ff0219169083151502179055507f7f26b83ff96e1f2b6a682f133852f6798a09c465da95921460cefb3847402498600160405161117b9190613355565b60405180910390a15b5050565b834211156111cb576040517f08c379a00000000000000000000000000000000000000000000000000000000081526004016111c2906133bc565b60405180910390fd5b60007f6e71edae12b1b97f4d1f60370fef10105fa2faae0126114a169c64845d6126c98888886111fa8c612186565b89604051602001611210969594939291906133dc565b6040516020818303038152906040528051906020012090506000611233826121e4565b90506000611243828787876121fe565b90508973ffffffffffffffffffffffffffffffffffffffff168173ffffffffffffffffffffffffffffffffffffffff16146112b3576040517f08c379a00000000000000000000000000000000000000000000000000000000081526004016112aa90613489565b60405180910390fd5b6112be8a8a8a6113e4565b50505050505050505050565b6112d382610898565b6112dc816118b2565b6112e683836119e8565b505050565b6000603460008473ffffffffffffffffffffffffffffffffffffffff1673ffffffffffffffffffffffffffffffffffffffff16815260200190815260200160002060008373ffffffffffffffffffffffffffffffffffffffff1673ffffffffffffffffffffffffffffffffffffffff16815260200190815260200160002054905092915050565b60007f01ffc9a7000000000000000000000000000000000000000000000000000000007bffffffffffffffffffffffffffffffffffffffffffffffffffffffff1916827bffffffffffffffffffffffffffffffffffffffffffffffffffffffff1916149050919050565b600033905090565b600073ffffffffffffffffffffffffffffffffffffffff168373ffffffffffffffffffffffffffffffffffffffff1603611453576040517f08c379a000000000000000000000000000000000000000000000000000000000815260040161144a9061351b565b60405180910390fd5b600073ffffffffffffffffffffffffffffffffffffffff168273ffffffffffffffffffffffffffffffffffffffff16036114c2576040517f08c379a00000000000000000000000000000000000000000000000000000000081526004016114b9906135ad565b60405180910390fd5b80603460008573ffffffffffffffffffffffffffffffffffffffff1673ffffffffffffffffffffffffffffffffffffffff16815260200190815260200160002060008473ffffffffffffffffffffffffffffffffffffffff1673ffffffffffffffffffffffffffffffffffffffff168152602001908152602001600020819055508173ffffffffffffffffffffffffffffffffffffffff168373ffffffffffffffffffffffffffffffffffffffff167f8c5be1e5ebec7d5bd14f71427d1e84f3dd0314c0f7b2291e5b200ac8c7c3b925836040516115a09190612c9c565b60405180910390a3505050565b60006115b984846112eb565b90507fffffffffffffffffffffffffffffffffffffffffffffffffffffffffffffffff81146116335781811015611625576040517f08c379a000000000000000000000000000000000000000000000000000000000815260040161161c90613619565b60405180910390fd5b61163284848484036113e4565b5b50505050565b600073ffffffffffffffffffffffffffffffffffffffff168373ffffffffffffffffffffffffffffffffffffffff16036116a8576040517f08c379a000000000000000000000000000000000000000000000000000000000815260040161169f906136ab565b60405180910390fd5b600073ffffffffffffffffffffffffffffffffffffffff168273ffffffffffffffffffffffffffffffffffffffff1603611717576040517f08c379a000000000000000000000000000000000000000000000000000000000815260040161170e9061373d565b60405180910390fd5b611722838383612229565b6000603360008573ffffffffffffffffffffffffffffffffffffffff1673ffffffffffffffffffffffffffffffffffffffff168152602001908152602001600020549050818110156117a9576040517f08c379a00000000000000000000000000000000000000000000000000000000081526004016117a0906137cf565b60405180910390fd5b818103603360008673ffffffffffffffffffffffffffffffffffffffff1673ffffffffffffffffffffffffffffffffffffffff1681526020019081526020016000208190555081603360008573ffffffffffffffffffffffffffffffffffffffff1673ffffffffffffffffffffffffffffffffffffffff168152602001908152602001600020600082825401925050819055508273ffffffffffffffffffffffffffffffffffffffff168473ffffffffffffffffffffffffffffffffffffffff167fddf252ad1be2c89b69c2b068fc378daa952ba7f163c4a11628f55a4df523b3ef846040516118999190612c9c565b60405180910390a36118ac84848461222e565b50505050565b6118c3816118be6113dc565b612233565b50565b6118d08282610ce7565b6119a4576001610130600084815260200190815260200160002060000160008373ffffffffffffffffffffffffffffffffffffffff1673ffffffffffffffffffffffffffffffffffffffff16815260200190815260200160002060006101000a81548160ff0219169083151502179055506119496113dc565b73ffffffffffffffffffffffffffffffffffffffff168173ffffffffffffffffffffffffffffffffffffffff16837f2f8788117e7eff1d82e926ec794901d17c78024a50270940304540a733656f0d60405160405180910390a45b5050565b60006119e37f8b73c3c69bb8fe3d512ecc4cf759cc79239f7b179b0ffacaa9a75d522b39400f6119d66122b8565b6119de6122c2565b6122cc565b905090565b6119f28282610ce7565b15611ac7576000610130600084815260200190815260200160002060000160008373ffffffffffffffffffffffffffffffffffffffff1673ffffffffffffffffffffffffffffffffffffffff16815260200190815260200160002060006101000a81548160ff021916908315150217905550611a6c6113dc565b73ffffffffffffffffffffffffffffffffffffffff168173ffffffffffffffffffffffffffffffffffffffff16837ff6391f5c32d9c69d2a47ea670b442974b53935d1edc7fd64eb21e047a839171b60405160405180910390a45b5050565b611ad3612306565b600060cc60006101000a81548160ff0219169083151502179055507f5db9ee0a495bf2e6ff9c91a7834c1ba4fdd244a5e8aa4e537bd38aeae4b073aa611b176113dc565b604051611b249190612e1d565b60405180910390a1565b600073ffffffffffffffffffffffffffffffffffffffff168273ffffffffffffffffffffffffffffffffffffffff1603611b9d576040517f08c379a0000000000000000000000000000000000000000000000000000000008152600401611b949061383b565b60405180910390fd5b611ba960008383612229565b8060356000828254611bbb9190613094565b9250508190555080603360008473ffffffffffffffffffffffffffffffffffffffff1673ffffffffffffffffffffffffffffffffffffffff168152602001908152602001600020600082825401925050819055508173ffffffffffffffffffffffffffffffffffffffff16600073ffffffffffffffffffffffffffffffffffffffff167fddf252ad1be2c89b69c2b068fc378daa952ba7f163c4a11628f55a4df523b3ef83604051611c6d9190612c9c565b60405180910390a3611c816000838361222e565b5050565b600060019054906101000a900460ff16611cd4576040517f08c379a0000000000000000000000000000000000000000000000000000000008152600401611ccb906131cc565b60405180910390fd5b611cdc61234f565b565b600060019054906101000a900460ff16611d2d576040517f08c379a0000000000000000000000000000000000000000000000000000000008152600401611d24906131cc565b60405180910390fd5b565b600060019054906101000a900460ff16611d7e576040517f08c379a0000000000000000000000000000000000000000000000000000000008152600401611d75906131cc565b60405180910390fd5b611d866123bb565b565b60007fa49807205ce4d355092ef5a8a18f56e8913cf4a201fbe287825b095693c21775905090565b60007f65d7a28e3265b37a6474929f336521b332c1681b933f6cb9f3376673440d862a905090565b6000611de383610898565b9050816101306000858152602001908152602001600020600101819055508181847fbd79b86ffe0ab8e8776151514217cd7cacd52c909f66475c3af44e129f0b00ff60405160405180910390a4505050565b600073ffffffffffffffffffffffffffffffffffffffff168273ffffffffffffffffffffffffffffffffffffffff1603611ea4576040517f08c379a0000000000000000000000000000000000000000000000000000000008152600401611e9b906138cd565b60405180910390fd5b611eb082600083612229565b6000603360008473ffffffffffffffffffffffffffffffffffffffff1673ffffffffffffffffffffffffffffffffffffffff16815260200190815260200160002054905081811015611f37576040517f08c379a0000000000000000000000000000000000000000000000000000000008152600401611f2e9061395f565b60405180910390fd5b818103603360008573ffffffffffffffffffffffffffffffffffffffff1673ffffffffffffffffffffffffffffffffffffffff1681526020019081526020016000208190555081603560008282540392505081905550600073ffffffffffffffffffffffffffffffffffffffff168373ffffffffffffffffffffffffffffffffffffffff167fddf252ad1be2c89b69c2b068fc378daa952ba7f163c4a11628f55a4df523b3ef84604051611feb9190612c9c565b60405180910390a3611fff8360008461222e565b505050565b600081600001549050919050565b61201a612415565b600160cc60006101000a81548160ff0219169083151502179055507f62e78cea01bee320cd4e420270b5ea74000d11b0c9f74754ebdbfc544b05a25861205e6113dc565b60405161206b9190612e1d565b60405180910390a1565b6000808273ffffffffffffffffffffffffffffffffffffffff163b119050919050565b600060019054906101000a900460ff166120e7576040517f08c379a00000000000000000000000000000000000000000000000000000000081526004016120de906131cc565b60405180910390fd5b6120f1828261245f565b5050565b600060019054906101000a900460ff16612144576040517f08c379a000000000000000000000000000000000000000000000000000000000815260040161213b906131cc565b60405180910390fd5b612183816040518060400160405280600181526020017f31000000000000000000000000000000000000000000000000000000000000008152506124d2565b50565b600080609960008473ffffffffffffffffffffffffffffffffffffffff1673ffffffffffffffffffffffffffffffffffffffff16815260200190815260200160002090506121d381612004565b91506121de8161254d565b50919050565b60006121f76121f16119a8565b83612563565b9050919050565b600080600061220f87878787612596565b9150915061221c81612678565b8192505050949350505050565b505050565b505050565b61223d8282610ce7565b6122b45761224a816127de565b6122588360001c602061280b565b604051602001612269929190613a53565b6040516020818303038152906040526040517f08c379a00000000000000000000000000000000000000000000000000000000081526004016122ab9190612b97565b60405180910390fd5b5050565b6000606554905090565b6000606654905090565b600083838346306040516020016122e7959493929190613a8d565b6040516020818303038152906040528051906020012090509392505050565b61230e610a9c565b61234d576040517f08c379a000000000000000000000000000000000000000000000000000000000815260040161234490613b2c565b60405180910390fd5b565b600060019054906101000a900460ff1661239e576040517f08c379a0000000000000000000000000000000000000000000000000000000008152600401612395906131cc565b60405180910390fd5b600060cc60006101000a81548160ff021916908315150217905550565b600060019054906101000a900460ff1661240a576040517f08c379a0000000000000000000000000000000000000000000000000000000008152600401612401906131cc565b60405180910390fd5b600161016281905550565b61241d610a9c565b1561245d576040517f08c379a000000000000000000000000000000000000000000000000000000000815260040161245490613b98565b60405180910390fd5b565b600060019054906101000a900460ff166124ae576040517f08c379a00000000000000000000000000000000000000000000000000000000081526004016124a5906131cc565b60405180910390fd5b81603690816124bd9190613d89565b5080603790816124cd9190613d89565b505050565b600060019054906101000a900460ff16612521576040517f08c379a0000000000000000000000000000000000000000000000000000000008152600401612518906131cc565b60405180910390fd5b600082805190602001209050600082805190602001209050816065819055508060668190555050505050565b6001816000016000828254019250508190555050565b60008282604051602001612578929190613ec8565b60405160208183030381529060405280519060200120905092915050565b6000807f7fffffffffffffffffffffffffffffff5d576e7357a4501ddfe92f46681b20a08360001c11156125d157600060039150915061266f565b6000600187878787604051600081526020016040526040516125f69493929190613eff565b6020604051602081039080840390855afa158015612618573d6000803e3d6000fd5b505050602060405103519050600073ffffffffffffffffffffffffffffffffffffffff168173ffffffffffffffffffffffffffffffffffffffff16036126665760006001925092505061266f565b80600092509250505b94509492505050565b6000600481111561268c5761268b613f44565b5b81600481111561269f5761269e613f44565b5b03156127db57600160048111156126b9576126b8613f44565b5b8160048111156126cc576126cb613f44565b5b0361270c576040517f08c379a000000000000000000000000000000000000000000000000000000000815260040161270390613fbf565b60405180910390fd5b600260048111156127205761271f613f44565b5b81600481111561273357612732613f44565b5b03612773576040517f08c379a000000000000000000000000000000000000000000000000000000000815260040161276a9061402b565b60405180910390fd5b6003600481111561278757612786613f44565b5b81600481111561279a57612799613f44565b5b036127da576040517f08c379a00000000000000000000000000000000000000000000000000000000081526004016127d1906140bd565b60405180910390fd5b5b50565b60606128048273ffffffffffffffffffffffffffffffffffffffff16601460ff1661280b565b9050919050565b60606000600283600261281e91906140dd565b6128289190613094565b67ffffffffffffffff81111561284157612840613bb8565b5b6040519080825280601f01601f1916602001820160405280156128735781602001600182028036833780820191505090505b5090507f3000000000000000000000000000000000000000000000000000000000000000816000815181106128ab576128aa614137565b5b60200101907effffffffffffffffffffffffffffffffffffffffffffffffffffffffffffff1916908160001a9053507f78000000000000000000000000000000000000000000000000000000000000008160018151811061290f5761290e614137565b5b60200101907effffffffffffffffffffffffffffffffffffffffffffffffffffffffffffff1916908160001a9053506000600184600261294f91906140dd565b6129599190613094565b90505b60018111156129f9577f3031323334353637383961626364656600000000000000000000000000000000600f86166010811061299b5761299a614137565b5b1a60f81b8282815181106129b2576129b1614137565b5b60200101907effffffffffffffffffffffffffffffffffffffffffffffffffffffffffffff1916908160001a905350600485901c9450806129f290614166565b905061295c565b5060008414612a3d576040517f08c379a0000000000000000000000000000000000000000000000000000000008152600401612a34906141db565b60405180910390fd5b8091505092915050565b600080fd5b60007fffffffff0000000000000000000000000000000000000000000000000000000082169050919050565b612a8181612a4c565b8114612a8c57600080fd5b50565b600081359050612a9e81612a78565b92915050565b600060208284031215612aba57612ab9612a47565b5b6000612ac884828501612a8f565b91505092915050565b60008115159050919050565b612ae681612ad1565b82525050565b6000602082019050612b016000830184612add565b92915050565b600081519050919050565b600082825260208201905092915050565b60005b83811015612b41578082015181840152602081019050612b26565b60008484015250505050565b6000601f19601f8301169050919050565b6000612b6982612b07565b612b738185612b12565b9350612b83818560208601612b23565b612b8c81612b4d565b840191505092915050565b60006020820190508181036000830152612bb18184612b5e565b905092915050565b600073ffffffffffffffffffffffffffffffffffffffff82169050919050565b6000612be482612bb9565b9050919050565b612bf481612bd9565b8114612bff57600080fd5b50565b600081359050612c1181612beb565b92915050565b6000819050919050565b612c2a81612c17565b8114612c3557600080fd5b50565b600081359050612c4781612c21565b92915050565b60008060408385031215612c6457612c63612a47565b5b6000612c7285828601612c02565b9250506020612c8385828601612c38565b9150509250929050565b612c9681612c17565b82525050565b6000602082019050612cb16000830184612c8d565b92915050565b600080600060608486031215612cd057612ccf612a47565b5b6000612cde86828701612c02565b9350506020612cef86828701612c02565b9250506040612d0086828701612c38565b9150509250925092565b6000819050919050565b612d1d81612d0a565b8114612d2857600080fd5b50565b600081359050612d3a81612d14565b92915050565b600060208284031215612d5657612d55612a47565b5b6000612d6484828501612d2b565b91505092915050565b612d7681612d0a565b82525050565b6000602082019050612d916000830184612d6d565b92915050565b60008060408385031215612dae57612dad612a47565b5b6000612dbc85828601612d2b565b9250506020612dcd85828601612c02565b9150509250929050565b600060ff82169050919050565b612ded81612dd7565b82525050565b6000602082019050612e086000830184612de4565b92915050565b612e1781612bd9565b82525050565b6000602082019050612e326000830184612e0e565b92915050565b600060208284031215612e4e57612e4d612a47565b5b6000612e5c84828501612c02565b91505092915050565b612e6e81612dd7565b8114612e7957600080fd5b50565b600081359050612e8b81612e65565b92915050565b600080600080600080600060e0888a031215612eb057612eaf612a47565b5b6000612ebe8a828b01612c02565b9750506020612ecf8a828b01612c02565b9650506040612ee08a828b01612c38565b9550506060612ef18a828b01612c38565b9450506080612f028a828b01612e7c565b93505060a0612f138a828b01612d2b565b92505060c0612f248a828b01612d2b565b91505092959891949750929550565b60008060408385031215612f4a57612f49612a47565b5b6000612f5885828601612c02565b9250506020612f6985828601612c02565b9150509250929050565b7f4e487b7100000000000000000000000000000000000000000000000000000000600052602260045260246000fd5b60006002820490506001821680612fba57607f821691505b602082108103612fcd57612fcc612f73565b5b50919050565b7f416363657373436f6e74726f6c3a2063616e206f6e6c792072656e6f756e636560008201527f20726f6c657320666f722073656c660000000000000000000000000000000000602082015250565b600061302f602f83612b12565b915061303a82612fd3565b604082019050919050565b6000602082019050818103600083015261305e81613022565b9050919050565b7f4e487b7100000000000000000000000000000000000000000000000000000000600052601160045260246000fd5b600061309f82612c17565b91506130aa83612c17565b92508282019050808211156130c2576130c1613065565b5b92915050565b7f4d75737420686176652061646d696e20726f6c6520746f20706572666f726d2060008201527f7468697320616374696f6e2e0000000000000000000000000000000000000000602082015250565b6000613124602c83612b12565b915061312f826130c8565b604082019050919050565b6000602082019050818103600083015261315381613117565b9050919050565b7f496e697469616c697a61626c653a20636f6e7472616374206973206e6f74206960008201527f6e697469616c697a696e67000000000000000000000000000000000000000000602082015250565b60006131b6602b83612b12565b91506131c18261315a565b604082019050919050565b600060208201905081810360008301526131e5816131a9565b9050919050565b7f45524332303a2064656372656173656420616c6c6f77616e63652062656c6f7760008201527f207a65726f000000000000000000000000000000000000000000000000000000602082015250565b6000613248602583612b12565b9150613253826131ec565b604082019050919050565b600060208201905081810360008301526132778161323b565b9050919050565b7f496e697469616c697a61626c653a20636f6e747261637420697320616c72656160008201527f647920696e697469616c697a6564000000000000000000000000000000000000602082015250565b60006132da602e83612b12565b91506132e58261327e565b604082019050919050565b60006020820190508181036000830152613309816132cd565b9050919050565b6000819050919050565b6000819050919050565b600061333f61333a61333584613310565b61331a565b612dd7565b9050919050565b61334f81613324565b82525050565b600060208201905061336a6000830184613346565b92915050565b7f45524332305065726d69743a206578706972656420646561646c696e65000000600082015250565b60006133a6601d83612b12565b91506133b182613370565b602082019050919050565b600060208201905081810360008301526133d581613399565b9050919050565b600060c0820190506133f16000830189612d6d565b6133fe6020830188612e0e565b61340b6040830187612e0e565b6134186060830186612c8d565b6134256080830185612c8d565b61343260a0830184612c8d565b979650505050505050565b7f45524332305065726d69743a20696e76616c6964207369676e61747572650000600082015250565b6000613473601e83612b12565b915061347e8261343d565b602082019050919050565b600060208201905081810360008301526134a281613466565b9050919050565b7f45524332303a20617070726f76652066726f6d20746865207a65726f2061646460008201527f7265737300000000000000000000000000000000000000000000000000000000602082015250565b6000613505602483612b12565b9150613510826134a9565b604082019050919050565b60006020820190508181036000830152613534816134f8565b9050919050565b7f45524332303a20617070726f766520746f20746865207a65726f20616464726560008201527f7373000000000000000000000000000000000000000000000000000000000000602082015250565b6000613597602283612b12565b91506135a28261353b565b604082019050919050565b600060208201905081810360008301526135c68161358a565b9050919050565b7f45524332303a20696e73756666696369656e7420616c6c6f77616e6365000000600082015250565b6000613603601d83612b12565b915061360e826135cd565b602082019050919050565b60006020820190508181036000830152613632816135f6565b9050919050565b7f45524332303a207472616e736665722066726f6d20746865207a65726f20616460008201527f6472657373000000000000000000000000000000000000000000000000000000602082015250565b6000613695602583612b12565b91506136a082613639565b604082019050919050565b600060208201905081810360008301526136c481613688565b9050919050565b7f45524332303a207472616e7366657220746f20746865207a65726f206164647260008201527f6573730000000000000000000000000000000000000000000000000000000000602082015250565b6000613727602383612b12565b9150613732826136cb565b604082019050919050565b600060208201905081810360008301526137568161371a565b9050919050565b7f45524332303a207472616e7366657220616d6f756e742065786365656473206260008201527f616c616e63650000000000000000000000000000000000000000000000000000602082015250565b60006137b9602683612b12565b91506137c48261375d565b604082019050919050565b600060208201905081810360008301526137e8816137ac565b9050919050565b7f45524332303a206d696e7420746f20746865207a65726f206164647265737300600082015250565b6000613825601f83612b12565b9150613830826137ef565b602082019050919050565b6000602082019050818103600083015261385481613818565b9050919050565b7f45524332303a206275726e2066726f6d20746865207a65726f2061646472657360008201527f7300000000000000000000000000000000000000000000000000000000000000602082015250565b60006138b7602183612b12565b91506138c28261385b565b604082019050919050565b600060208201905081810360008301526138e6816138aa565b9050919050565b7f45524332303a206275726e20616d6f756e7420657863656564732062616c616e60008201527f6365000000000000000000000000000000000000000000000000000000000000602082015250565b6000613949602283612b12565b9150613954826138ed565b604082019050919050565b600060208201905081810360008301526139788161393c565b9050919050565b600081905092915050565b7f416363657373436f6e74726f6c3a206163636f756e7420000000000000000000600082015250565b60006139c060178361397f565b91506139cb8261398a565b601782019050919050565b60006139e182612b07565b6139eb818561397f565b93506139fb818560208601612b23565b80840191505092915050565b7f206973206d697373696e6720726f6c6520000000000000000000000000000000600082015250565b6000613a3d60118361397f565b9150613a4882613a07565b601182019050919050565b6000613a5e826139b3565b9150613a6a82856139d6565b9150613a7582613a30565b9150613a8182846139d6565b91508190509392505050565b600060a082019050613aa26000830188612d6d565b613aaf6020830187612d6d565b613abc6040830186612d6d565b613ac96060830185612c8d565b613ad66080830184612e0e565b9695505050505050565b7f5061757361626c653a206e6f7420706175736564000000000000000000000000600082015250565b6000613b16601483612b12565b9150613b2182613ae0565b602082019050919050565b60006020820190508181036000830152613b4581613b09565b9050919050565b7f5061757361626c653a2070617573656400000000000000000000000000000000600082015250565b6000613b82601083612b12565b9150613b8d82613b4c565b602082019050919050565b60006020820190508181036000830152613bb181613b75565b9050919050565b7f4e487b7100000000000000000000000000000000000000000000000000000000600052604160045260246000fd5b60008190508160005260206000209050919050565b60006020601f8301049050919050565b600082821b905092915050565b600060088302613c497fffffffffffffffffffffffffffffffffffffffffffffffffffffffffffffffff82613c0c565b613c538683613c0c565b95508019841693508086168417925050509392505050565b6000613c86613c81613c7c84612c17565b61331a565b612c17565b9050919050565b6000819050919050565b613ca083613c6b565b613cb4613cac82613c8d565b848454613c19565b825550505050565b600090565b613cc9613cbc565b613cd4818484613c97565b505050565b5b81811015613cf857613ced600082613cc1565b600181019050613cda565b5050565b601f821115613d3d57613d0e81613be7565b613d1784613bfc565b81016020851015613d26578190505b613d3a613d3285613bfc565b830182613cd9565b50505b505050565b600082821c905092915050565b6000613d6060001984600802613d42565b1980831691505092915050565b6000613d798383613d4f565b9150826002028217905092915050565b613d9282612b07565b67ffffffffffffffff811115613dab57613daa613bb8565b5b613db58254612fa2565b613dc0828285613cfc565b600060209050601f831160018114613df35760008415613de1578287015190505b613deb8582613d6d565b865550613e53565b601f198416613e0186613be7565b60005b82811015613e2957848901518255600182019150602085019450602081019050613e04565b86831015613e465784890151613e42601f891682613d4f565b8355505b6001600288020188555050505b505050505050565b7f1901000000000000000000000000000000000000000000000000000000000000600082015250565b6000613e9160028361397f565b9150613e9c82613e5b565b600282019050919050565b6000819050919050565b613ec2613ebd82612d0a565b613ea7565b82525050565b6000613ed382613e84565b9150613edf8285613eb1565b602082019150613eef8284613eb1565b6020820191508190509392505050565b6000608082019050613f146000830187612d6d565b613f216020830186612de4565b613f2e6040830185612d6d565b613f3b6060830184612d6d565b95945050505050565b7f4e487b7100000000000000000000000000000000000000000000000000000000600052602160045260246000fd5b7f45434453413a20696e76616c6964207369676e61747572650000000000000000600082015250565b6000613fa9601883612b12565b9150613fb482613f73565b602082019050919050565b60006020820190508181036000830152613fd881613f9c565b9050919050565b7f45434453413a20696e76616c6964207369676e6174757265206c656e67746800600082015250565b6000614015601f83612b12565b915061402082613fdf565b602082019050919050565b6000602082019050818103600083015261404481614008565b9050919050565b7f45434453413a20696e76616c6964207369676e6174757265202773272076616c60008201527f7565000000000000000000000000000000000000000000000000000000000000602082015250565b60006140a7602283612b12565b91506140b28261404b565b604082019050919050565b600060208201905081810360008301526140d68161409a565b9050919050565b60006140e882612c17565b91506140f383612c17565b9250817fffffffffffffffffffffffffffffffffffffffffffffffffffffffffffffffff048311821515161561412c5761412b613065565b5b828202905092915050565b7f4e487b7100000000000000000000000000000000000000000000000000000000600052603260045260246000fd5b600061417182612c17565b91506000820361418457614183613065565b5b600182039050919050565b7f537472696e67733a20686578206c656e67746820696e73756666696369656e74600082015250565b60006141c5602083612b12565b91506141d08261418f565b602082019050919050565b600060208201905081810360008301526141f4816141b8565b905091905056fea2646970667358221220e9b09ec4ad4ad50f6b95271ab9207745aa1177e3a1bfa3fc304d905bea2927ca64736f6c63430008100033",
  "linkReferences": {},
  "deployedLinkReferences": {}
}