{
  "_format": "hh-sol-artifact-1",
  "contractName": "StablecoinZPController",
  "sourceName": "contracts/core/zeroPremium/StablecoinInsurance/StablecoinZPController.sol",
  "abi": [
    {
      "inputs": [],
      "stateMutability": "nonpayable",
      "type": "constructor"
    },
    {
      "anonymous": false,
      "inputs": [
        {
          "indexed": true,
          "internalType": "uint256",
          "name": "stablecoinID_",
          "type": "uint256"
        },
        {
          "indexed": true,
          "internalType": "string",
          "name": "stablecoinName",
          "type": "string"
        }
      ],
      "name": "NewStablecoinAdded",
      "type": "event"
    },
    {
      "anonymous": false,
      "inputs": [
        {
          "indexed": true,
          "internalType": "address",
          "name": "previousOwner",
          "type": "address"
        },
        {
          "indexed": true,
          "internalType": "address",
          "name": "newOwner",
          "type": "address"
        }
      ],
      "name": "OwnershipTransferred",
      "type": "event"
    },
    {
      "inputs": [
        {
          "internalType": "string",
          "name": "stablecoinName",
          "type": "string"
        },
        {
          "internalType": "address",
          "name": "deployedAddress",
          "type": "address"
        },
        {
          "internalType": "bool",
          "name": "isCommunityGoverned",
          "type": "bool"
        },
        {
          "internalType": "uint256",
          "name": "riskFactor",
          "type": "uint256"
        },
        {
          "internalType": "uint256",
          "name": "riskPoolCategory",
          "type": "uint256"
        }
      ],
      "name": "addCoveredProtocol",
      "outputs": [],
      "stateMutability": "nonpayable",
      "type": "function"
    },
    {
      "inputs": [
        {
          "internalType": "uint256",
          "name": "version",
          "type": "uint256"
        }
      ],
      "name": "getLiquidationFactor",
      "outputs": [
        {
          "internalType": "uint256",
          "name": "",
          "type": "uint256"
        }
      ],
      "stateMutability": "view",
      "type": "function"
    },
    {
      "inputs": [
        {
          "internalType": "uint256",
          "name": "stablecoinID_",
          "type": "uint256"
        }
      ],
      "name": "getProtocolStartVersionInfo",
      "outputs": [
        {
          "internalType": "uint256",
          "name": "",
          "type": "uint256"
        }
      ],
      "stateMutability": "view",
      "type": "function"
    },
    {
      "inputs": [
        {
          "internalType": "uint256",
          "name": "stablecoinID_",
          "type": "uint256"
        }
      ],
      "name": "getStablecoinInfo",
      "outputs": [
        {
          "internalType": "string",
          "name": "stablecoinName",
          "type": "string"
        },
        {
          "internalType": "address",
          "name": "stablecoinAddress",
          "type": "address"
        }
      ],
      "stateMutability": "view",
      "type": "function"
    },
    {
      "inputs": [
        {
          "internalType": "uint256",
          "name": "stablecoinID_",
          "type": "uint256"
        },
        {
          "internalType": "uint256",
          "name": "version",
          "type": "uint256"
        }
      ],
      "name": "getStablecoinRiskCategory",
      "outputs": [
        {
          "internalType": "uint256",
          "name": "",
          "type": "uint256"
        }
      ],
      "stateMutability": "view",
      "type": "function"
    },
    {
      "inputs": [
        {
          "internalType": "uint256",
          "name": "stablecoinID_",
          "type": "uint256"
        },
        {
          "internalType": "uint256",
          "name": "version",
          "type": "uint256"
        }
      ],
      "name": "ifStablecoinUpdated",
      "outputs": [
        {
          "internalType": "bool",
          "name": "",
          "type": "bool"
        }
      ],
      "stateMutability": "view",
      "type": "function"
    },
    {
      "inputs": [
        {
          "internalType": "uint256",
          "name": "version",
          "type": "uint256"
        },
        {
          "internalType": "uint256",
          "name": "riskPoolCategory",
          "type": "uint256"
        }
      ],
      "name": "isRiskPoolLiquidated",
      "outputs": [
        {
          "internalType": "bool",
          "name": "",
          "type": "bool"
        }
      ],
      "stateMutability": "view",
      "type": "function"
    },
    {
      "inputs": [],
      "name": "latestVersion",
      "outputs": [
        {
          "internalType": "uint256",
          "name": "",
          "type": "uint256"
        }
      ],
      "stateMutability": "view",
      "type": "function"
    },
    {
      "inputs": [
        {
          "internalType": "uint256",
          "name": "riskPoolCategory",
          "type": "uint256"
        },
        {
          "internalType": "uint256",
          "name": "liquidationFactor",
          "type": "uint256"
        }
      ],
      "name": "liquidateRiskPool",
      "outputs": [],
      "stateMutability": "nonpayable",
      "type": "function"
    },
    {
      "inputs": [],
      "name": "owner",
      "outputs": [
        {
          "internalType": "address",
          "name": "",
          "type": "address"
        }
      ],
      "stateMutability": "view",
      "type": "function"
    },
    {
      "inputs": [],
      "name": "renounceOwnership",
      "outputs": [],
      "stateMutability": "nonpayable",
      "type": "function"
    },
    {
      "inputs": [],
      "name": "stablecoinID",
      "outputs": [
        {
          "internalType": "uint256",
          "name": "",
          "type": "uint256"
        }
      ],
      "stateMutability": "view",
      "type": "function"
    },
    {
      "inputs": [
        {
          "internalType": "uint256",
          "name": "",
          "type": "uint256"
        }
      ],
      "name": "stablecoinsInfo",
      "outputs": [
        {
          "internalType": "string",
          "name": "stablecoinName",
          "type": "string"
        },
        {
          "internalType": "address",
          "name": "deployedAddress",
          "type": "address"
        },
        {
          "internalType": "uint256",
          "name": "startVersionBlock",
          "type": "uint256"
        },
        {
          "internalType": "uint256",
          "name": "lastUpdatedVersionBlock",
          "type": "uint256"
        }
      ],
      "stateMutability": "view",
      "type": "function"
    },
    {
      "inputs": [
        {
          "internalType": "uint256",
          "name": "",
          "type": "uint256"
        },
        {
          "internalType": "uint256",
          "name": "",
          "type": "uint256"
        }
      ],
      "name": "stablecoinsRiskInfo",
      "outputs": [
        {
          "internalType": "bool",
          "name": "isUpdated",
          "type": "bool"
        },
        {
          "internalType": "bool",
          "name": "isCommunityGoverned",
          "type": "bool"
        },
        {
          "internalType": "uint256",
          "name": "riskFactor",
          "type": "uint256"
        },
        {
          "internalType": "uint256",
          "name": "riskPoolCategory",
          "type": "uint256"
        }
      ],
      "stateMutability": "view",
      "type": "function"
    },
    {
      "inputs": [
        {
          "internalType": "address",
          "name": "newOwner",
          "type": "address"
        }
      ],
      "name": "transferOwnership",
      "outputs": [],
      "stateMutability": "nonpayable",
      "type": "function"
    },
    {
      "inputs": [
        {
          "internalType": "uint256",
          "name": "stablecoinID_",
          "type": "uint256"
        },
        {
          "internalType": "uint256",
          "name": "riskFactor",
          "type": "uint256"
        }
      ],
      "name": "updateRiskFactor",
      "outputs": [],
      "stateMutability": "nonpayable",
      "type": "function"
    },
    {
      "inputs": [
        {
          "internalType": "uint256",
          "name": "stablecoinID_",
          "type": "uint256"
        },
        {
          "internalType": "uint256",
          "name": "riskPoolCategory",
          "type": "uint256"
        }
      ],
      "name": "updateRiskPoolCategory",
      "outputs": [],
      "stateMutability": "nonpayable",
      "type": "function"
    },
    {
      "inputs": [
        {
          "internalType": "uint256",
          "name": "",
          "type": "uint256"
        }
      ],
      "name": "versionLiquidationFactor",
      "outputs": [
        {
          "internalType": "uint256",
          "name": "liquidation",
          "type": "uint256"
        },
        {
          "internalType": "uint256",
          "name": "riskPoolCategory",
          "type": "uint256"
        }
      ],
      "stateMutability": "view",
      "type": "function"
    }
  ],
  "bytecode": "0x608060405234801561001057600080fd5b5061002d61002261005460201b60201c565b61005c60201b60201c565b60006005600080815260200190815260200160002090506064816000018190555050610120565b600033905090565b60008060009054906101000a900473ffffffffffffffffffffffffffffffffffffffff169050816000806101000a81548173ffffffffffffffffffffffffffffffffffffffff021916908373ffffffffffffffffffffffffffffffffffffffff1602179055508173ffffffffffffffffffffffffffffffffffffffff168173ffffffffffffffffffffffffffffffffffffffff167f8be0079c531659141344cd1fd0a4f28419497f9722a3daafe3b4186f6b6457e060405160405180910390a35050565b6116198061012f6000396000f3fe608060405234801561001057600080fd5b50600436106101165760003560e01c8063676c5aea116100a25780639885a259116100715780639885a2591461030a578063b557e4a61461033d578063c07f47d41461036d578063e120c1901461038b578063f2fde38b146103a757610116565b8063676c5aea14610296578063715018a6146102b25780637ff6f977146102bc5780638da5cb5b146102ec57610116565b806341dc4e7c116100e957806341dc4e7c146101cd578063423c1c65146101e95780634adf460c146102195780635c9eb5c7146102495780635efc00de1461027a57610116565b80631b17fdb71461011b5780632589de941461014e57806331c5643f1461017f57806339c4c2051461019d575b600080fd5b61013560048036038101906101309190610c15565b6103c3565b6040516101459493929190610c7f565b60405180910390f35b61016860048036038101906101639190610cc4565b61041a565b604051610176929190610cf1565b60405180910390f35b61018761043e565b6040516101949190610d1a565b60405180910390f35b6101b760048036038101906101b29190610cc4565b610444565b6040516101c49190610d1a565b60405180910390f35b6101e760048036038101906101e29190610c15565b610464565b005b61020360048036038101906101fe9190610cc4565b6104f6565b6040516102109190610d1a565b60405180910390f35b610233600480360381019061022e9190610c15565b610516565b6040516102409190610d35565b60405180910390f35b610263600480360381019061025e9190610cc4565b610555565b604051610271929190610e21565b60405180910390f35b610294600480360381019061028f9190610c15565b61062e565b005b6102b060048036038101906102ab9190610c15565b61066e565b005b6102ba6106bc565b005b6102d660048036038101906102d19190610c15565b6106d0565b6040516102e39190610d1a565b60405180910390f35b6102f4610702565b6040516103019190610e51565b60405180910390f35b610324600480360381019061031f9190610cc4565b61072b565b6040516103349493929190610e6c565b60405180910390f35b61035760048036038101906103529190610c15565b610803565b6040516103649190610d35565b60405180910390f35b61037561082b565b6040516103829190610d1a565b60405180910390f35b6103a560048036038101906103a09190611045565b610831565b005b6103c160048036038101906103bc91906110dc565b6109c4565b005b6004602052816000526040600020602052806000526040600020600091509150508060000160009054906101000a900460ff16908060000160019054906101000a900460ff16908060010154908060020154905084565b60056020528060005260406000206000915090508060000154908060010154905082565b60015481565b600060056000838152602001908152602001600020600001549050919050565b61046c610a47565b6000600160025461047d9190611138565b90506000600460008581526020019081526020016000206000838152602001908152602001600020905060018160000160006101000a81548160ff0219169083151502179055508281600201819055508160036000868152602001908152602001600020600301819055506104f0610ac5565b50505050565b600060036000838152602001908152602001600020600201549050919050565b600060046000848152602001908152602001600020600083815260200190815260200160002060000160009054906101000a900460ff16905092915050565b6060600080600360008581526020019081526020016000209050806000018160010160009054906101000a900473ffffffffffffffffffffffffffffffffffffffff168180546105a49061119b565b80601f01602080910402602001604051908101604052809291908181526020018280546105d09061119b565b801561061d5780601f106105f25761010080835404028352916020019161061d565b820191906000526020600020905b81548152906001019060200180831161060057829003601f168201915b505050505091509250925050915091565b610636610a47565b600060046000848152602001908152602001600020600060025481526020019081526020016000209050818160010181905550505050565b610676610a47565b806005600060025481526020019081526020016000206000018190555081600560006002548152602001908152602001600020600101819055506106b8610ac5565b5050565b6106c4610a47565b6106ce6000610aff565b565b600060046000848152602001908152602001600020600083815260200190815260200160002060020154905092915050565b60008060009054906101000a900473ffffffffffffffffffffffffffffffffffffffff16905090565b600360205280600052604060002060009150905080600001805461074e9061119b565b80601f016020809104026020016040519081016040528092919081815260200182805461077a9061119b565b80156107c75780601f1061079c576101008083540402835291602001916107c7565b820191906000526020600020905b8154815290600101906020018083116107aa57829003601f168201915b5050505050908060010160009054906101000a900473ffffffffffffffffffffffffffffffffffffffff16908060020154908060030154905084565b6000808260056000868152602001908152602001600020600101541490508091505092915050565b60025481565b610839610a47565b60006003600060015481526020019081526020016000209050858160000190816108639190611378565b50848160010160006101000a81548173ffffffffffffffffffffffffffffffffffffffff021916908373ffffffffffffffffffffffffffffffffffffffff16021790555060016002546108b69190611138565b816002018190555060016002546108cd9190611138565b81600301819055506000600460006001548152602001908152602001600020600060016002546108fd9190611138565b8152602001908152602001600020905060018160000160006101000a81548160ff021916908315150217905550848160000160016101000a81548160ff0219169083151502179055508381600101819055508281600201819055506001600081546109679061144a565b91905081905550610976610ac5565b8660405161098491906114ce565b60405180910390206001547fa3e2ab077c8763e9c11190a9511f8fbd9196def09640827ca0591f9c277bb60b60405160405180910390a350505050505050565b6109cc610a47565b600073ffffffffffffffffffffffffffffffffffffffff168173ffffffffffffffffffffffffffffffffffffffff1603610a3b576040517f08c379a0000000000000000000000000000000000000000000000000000000008152600401610a3290611557565b60405180910390fd5b610a4481610aff565b50565b610a4f610bc3565b73ffffffffffffffffffffffffffffffffffffffff16610a6d610702565b73ffffffffffffffffffffffffffffffffffffffff1614610ac3576040517f08c379a0000000000000000000000000000000000000000000000000000000008152600401610aba906115c3565b60405180910390fd5b565b600160026000828254610ad89190611138565b92505081905550606460056000600254815260200190815260200160002060000181905550565b60008060009054906101000a900473ffffffffffffffffffffffffffffffffffffffff169050816000806101000a81548173ffffffffffffffffffffffffffffffffffffffff021916908373ffffffffffffffffffffffffffffffffffffffff1602179055508173ffffffffffffffffffffffffffffffffffffffff168173ffffffffffffffffffffffffffffffffffffffff167f8be0079c531659141344cd1fd0a4f28419497f9722a3daafe3b4186f6b6457e060405160405180910390a35050565b600033905090565b6000604051905090565b600080fd5b600080fd5b6000819050919050565b610bf281610bdf565b8114610bfd57600080fd5b50565b600081359050610c0f81610be9565b92915050565b60008060408385031215610c2c57610c2b610bd5565b5b6000610c3a85828601610c00565b9250506020610c4b85828601610c00565b9150509250929050565b60008115159050919050565b610c6a81610c55565b82525050565b610c7981610bdf565b82525050565b6000608082019050610c946000830187610c61565b610ca16020830186610c61565b610cae6040830185610c70565b610cbb6060830184610c70565b95945050505050565b600060208284031215610cda57610cd9610bd5565b5b6000610ce884828501610c00565b91505092915050565b6000604082019050610d066000830185610c70565b610d136020830184610c70565b9392505050565b6000602082019050610d2f6000830184610c70565b92915050565b6000602082019050610d4a6000830184610c61565b92915050565b600081519050919050565b600082825260208201905092915050565b60005b83811015610d8a578082015181840152602081019050610d6f565b60008484015250505050565b6000601f19601f8301169050919050565b6000610db282610d50565b610dbc8185610d5b565b9350610dcc818560208601610d6c565b610dd581610d96565b840191505092915050565b600073ffffffffffffffffffffffffffffffffffffffff82169050919050565b6000610e0b82610de0565b9050919050565b610e1b81610e00565b82525050565b60006040820190508181036000830152610e3b8185610da7565b9050610e4a6020830184610e12565b9392505050565b6000602082019050610e666000830184610e12565b92915050565b60006080820190508181036000830152610e868187610da7565b9050610e956020830186610e12565b610ea26040830185610c70565b610eaf6060830184610c70565b95945050505050565b600080fd5b600080fd5b7f4e487b7100000000000000000000000000000000000000000000000000000000600052604160045260246000fd5b610efa82610d96565b810181811067ffffffffffffffff82111715610f1957610f18610ec2565b5b80604052505050565b6000610f2c610bcb565b9050610f388282610ef1565b919050565b600067ffffffffffffffff821115610f5857610f57610ec2565b5b610f6182610d96565b9050602081019050919050565b82818337600083830152505050565b6000610f90610f8b84610f3d565b610f22565b905082815260208101848484011115610fac57610fab610ebd565b5b610fb7848285610f6e565b509392505050565b600082601f830112610fd457610fd3610eb8565b5b8135610fe4848260208601610f7d565b91505092915050565b610ff681610e00565b811461100157600080fd5b50565b60008135905061101381610fed565b92915050565b61102281610c55565b811461102d57600080fd5b50565b60008135905061103f81611019565b92915050565b600080600080600060a0868803121561106157611060610bd5565b5b600086013567ffffffffffffffff81111561107f5761107e610bda565b5b61108b88828901610fbf565b955050602061109c88828901611004565b94505060406110ad88828901611030565b93505060606110be88828901610c00565b92505060806110cf88828901610c00565b9150509295509295909350565b6000602082840312156110f2576110f1610bd5565b5b600061110084828501611004565b91505092915050565b7f4e487b7100000000000000000000000000000000000000000000000000000000600052601160045260246000fd5b600061114382610bdf565b915061114e83610bdf565b925082820190508082111561116657611165611109565b5b92915050565b7f4e487b7100000000000000000000000000000000000000000000000000000000600052602260045260246000fd5b600060028204905060018216806111b357607f821691505b6020821081036111c6576111c561116c565b5b50919050565b60008190508160005260206000209050919050565b60006020601f8301049050919050565b600082821b905092915050565b60006008830261122e7fffffffffffffffffffffffffffffffffffffffffffffffffffffffffffffffff826111f1565b61123886836111f1565b95508019841693508086168417925050509392505050565b6000819050919050565b600061127561127061126b84610bdf565b611250565b610bdf565b9050919050565b6000819050919050565b61128f8361125a565b6112a361129b8261127c565b8484546111fe565b825550505050565b600090565b6112b86112ab565b6112c3818484611286565b505050565b5b818110156112e7576112dc6000826112b0565b6001810190506112c9565b5050565b601f82111561132c576112fd816111cc565b611306846111e1565b81016020851015611315578190505b611329611321856111e1565b8301826112c8565b50505b505050565b600082821c905092915050565b600061134f60001984600802611331565b1980831691505092915050565b6000611368838361133e565b9150826002028217905092915050565b61138182610d50565b67ffffffffffffffff81111561139a57611399610ec2565b5b6113a4825461119b565b6113af8282856112eb565b600060209050601f8311600181146113e257600084156113d0578287015190505b6113da858261135c565b865550611442565b601f1984166113f0866111cc565b60005b82811015611418578489015182556001820191506020850194506020810190506113f3565b868310156114355784890151611431601f89168261133e565b8355505b6001600288020188555050505b505050505050565b600061145582610bdf565b91507fffffffffffffffffffffffffffffffffffffffffffffffffffffffffffffffff820361148757611486611109565b5b600182019050919050565b600081905092915050565b60006114a882610d50565b6114b28185611492565b93506114c2818560208601610d6c565b80840191505092915050565b60006114da828461149d565b915081905092915050565b7f4f776e61626c653a206e6577206f776e657220697320746865207a65726f206160008201527f6464726573730000000000000000000000000000000000000000000000000000602082015250565b6000611541602683610d5b565b915061154c826114e5565b604082019050919050565b6000602082019050818103600083015261157081611534565b9050919050565b7f4f776e61626c653a2063616c6c6572206973206e6f7420746865206f776e6572600082015250565b60006115ad602083610d5b565b91506115b882611577565b602082019050919050565b600060208201905081810360008301526115dc816115a0565b905091905056fea2646970667358221220a68b700f78aa6bf658df330197aa5da5a85b3f8b54c0f550896212bb90b98ff664736f6c63430008100033",
  "linkReferences": {},
  "deployedLinkReferences": {}
}