{
  "_format": "hh-sol-artifact-1",
  "contractName": "SonneInsurance",
  "sourceName": "contracts/core/zeroPremium/SmartContractInsurance/Sonne/SonneInsurance.sol",
  "abi": [
    {
      "inputs": [],
      "name": "BaseUpgradeablePausable__ZeroAddressError",
      "type": "error"
    },
    {
      "inputs": [],
      "name": "Compound_ZP__ImmutableChangesError",
      "type": "error"
    },
    {
      "inputs": [],
      "name": "Compound_ZP__LowAmountError",
      "type": "error"
    },
    {
      "inputs": [],
      "name": "Compound_ZP__LowSupplyAmountError",
      "type": "error"
    },
    {
      "inputs": [],
      "name": "Compound_ZP__TransactionFailedError",
      "type": "error"
    },
    {
      "inputs": [],
      "name": "Compound_ZP__WrongInfoEnteredError",
      "type": "error"
    },
    {
      "anonymous": false,
      "inputs": [
        {
          "indexed": false,
          "internalType": "uint8",
          "name": "version",
          "type": "uint8"
        }
      ],
      "name": "Initialized",
      "type": "event"
    },
    {
      "anonymous": false,
      "inputs": [
        {
          "indexed": false,
          "internalType": "address",
          "name": "account",
          "type": "address"
        }
      ],
      "name": "Paused",
      "type": "event"
    },
    {
      "anonymous": false,
      "inputs": [
        {
          "indexed": true,
          "internalType": "bytes32",
          "name": "role",
          "type": "bytes32"
        },
        {
          "indexed": true,
          "internalType": "bytes32",
          "name": "previousAdminRole",
          "type": "bytes32"
        },
        {
          "indexed": true,
          "internalType": "bytes32",
          "name": "newAdminRole",
          "type": "bytes32"
        }
      ],
      "name": "RoleAdminChanged",
      "type": "event"
    },
    {
      "anonymous": false,
      "inputs": [
        {
          "indexed": true,
          "internalType": "bytes32",
          "name": "role",
          "type": "bytes32"
        },
        {
          "indexed": true,
          "internalType": "address",
          "name": "account",
          "type": "address"
        },
        {
          "indexed": true,
          "internalType": "address",
          "name": "sender",
          "type": "address"
        }
      ],
      "name": "RoleGranted",
      "type": "event"
    },
    {
      "anonymous": false,
      "inputs": [
        {
          "indexed": true,
          "internalType": "bytes32",
          "name": "role",
          "type": "bytes32"
        },
        {
          "indexed": true,
          "internalType": "address",
          "name": "account",
          "type": "address"
        },
        {
          "indexed": true,
          "internalType": "address",
          "name": "sender",
          "type": "address"
        }
      ],
      "name": "RoleRevoked",
      "type": "event"
    },
    {
      "anonymous": false,
      "inputs": [
        {
          "indexed": true,
          "internalType": "address",
          "name": "userAddress",
          "type": "address"
        },
        {
          "indexed": true,
          "internalType": "address",
          "name": "tokenAddress",
          "type": "address"
        },
        {
          "indexed": true,
          "internalType": "uint256",
          "name": "amount",
          "type": "uint256"
        }
      ],
      "name": "SuppliedToken",
      "type": "event"
    },
    {
      "anonymous": false,
      "inputs": [
        {
          "indexed": false,
          "internalType": "address",
          "name": "account",
          "type": "address"
        }
      ],
      "name": "Unpaused",
      "type": "event"
    },
    {
      "anonymous": false,
      "inputs": [
        {
          "indexed": true,
          "internalType": "address",
          "name": "userAddress",
          "type": "address"
        },
        {
          "indexed": true,
          "internalType": "address",
          "name": "tokenAddress",
          "type": "address"
        },
        {
          "indexed": true,
          "internalType": "uint256",
          "name": "amount",
          "type": "uint256"
        }
      ],
      "name": "WithdrawnToken",
      "type": "event"
    },
    {
      "inputs": [],
      "name": "DEFAULT_ADMIN_ROLE",
      "outputs": [
        {
          "internalType": "bytes32",
          "name": "",
          "type": "bytes32"
        }
      ],
      "stateMutability": "view",
      "type": "function"
    },
    {
      "inputs": [
        {
          "internalType": "address",
          "name": "owner",
          "type": "address"
        }
      ],
      "name": "__BaseUpgradeablePausable_init",
      "outputs": [],
      "stateMutability": "nonpayable",
      "type": "function"
    },
    {
      "inputs": [
        {
          "internalType": "address",
          "name": "cTokenAddress",
          "type": "address"
        }
      ],
      "name": "calculateUserBalance",
      "outputs": [
        {
          "internalType": "uint256",
          "name": "",
          "type": "uint256"
        },
        {
          "internalType": "uint256",
          "name": "",
          "type": "uint256"
        }
      ],
      "stateMutability": "view",
      "type": "function"
    },
    {
      "inputs": [
        {
          "internalType": "bytes32",
          "name": "role",
          "type": "bytes32"
        }
      ],
      "name": "getRoleAdmin",
      "outputs": [
        {
          "internalType": "bytes32",
          "name": "",
          "type": "bytes32"
        }
      ],
      "stateMutability": "view",
      "type": "function"
    },
    {
      "inputs": [
        {
          "internalType": "bytes32",
          "name": "role",
          "type": "bytes32"
        },
        {
          "internalType": "address",
          "name": "account",
          "type": "address"
        }
      ],
      "name": "grantRole",
      "outputs": [],
      "stateMutability": "nonpayable",
      "type": "function"
    },
    {
      "inputs": [
        {
          "internalType": "bytes32",
          "name": "role",
          "type": "bytes32"
        },
        {
          "internalType": "address",
          "name": "account",
          "type": "address"
        }
      ],
      "name": "hasRole",
      "outputs": [
        {
          "internalType": "bool",
          "name": "",
          "type": "bool"
        }
      ],
      "stateMutability": "view",
      "type": "function"
    },
    {
      "inputs": [
        {
          "internalType": "address",
          "name": "controllerAddress",
          "type": "address"
        },
        {
          "internalType": "string",
          "name": "protocolName",
          "type": "string"
        },
        {
          "internalType": "address",
          "name": "deployedAddress",
          "type": "address"
        },
        {
          "internalType": "uint256",
          "name": "protocolID",
          "type": "uint256"
        }
      ],
      "name": "init",
      "outputs": [],
      "stateMutability": "nonpayable",
      "type": "function"
    },
    {
      "inputs": [
        {
          "internalType": "address",
          "name": "addressComp",
          "type": "address"
        },
        {
          "internalType": "address",
          "name": "addressPauseOperation",
          "type": "address"
        },
        {
          "internalType": "address",
          "name": "addressCompComptroller",
          "type": "address"
        }
      ],
      "name": "initialize",
      "outputs": [],
      "stateMutability": "nonpayable",
      "type": "function"
    },
    {
      "inputs": [],
      "name": "isAdmin",
      "outputs": [
        {
          "internalType": "bool",
          "name": "",
          "type": "bool"
        }
      ],
      "stateMutability": "view",
      "type": "function"
    },
    {
      "inputs": [],
      "name": "isModerator",
      "outputs": [
        {
          "internalType": "bool",
          "name": "",
          "type": "bool"
        }
      ],
      "stateMutability": "view",
      "type": "function"
    },
    {
      "inputs": [
        {
          "internalType": "address[]",
          "name": "tokenAddresses",
          "type": "address[]"
        },
        {
          "internalType": "address[]",
          "name": "cTokenAddresses",
          "type": "address[]"
        },
        {
          "internalType": "address",
          "name": "claimSettlementAddress",
          "type": "address"
        },
        {
          "internalType": "uint256",
          "name": "protocolRiskCategory",
          "type": "uint256"
        },
        {
          "internalType": "uint256",
          "name": "liquidationPercent",
          "type": "uint256"
        }
      ],
      "name": "liquidateTokens",
      "outputs": [],
      "stateMutability": "nonpayable",
      "type": "function"
    },
    {
      "inputs": [],
      "name": "paused",
      "outputs": [
        {
          "internalType": "bool",
          "name": "",
          "type": "bool"
        }
      ],
      "stateMutability": "view",
      "type": "function"
    },
    {
      "inputs": [
        {
          "internalType": "bytes32",
          "name": "role",
          "type": "bytes32"
        },
        {
          "internalType": "address",
          "name": "account",
          "type": "address"
        }
      ],
      "name": "renounceRole",
      "outputs": [],
      "stateMutability": "nonpayable",
      "type": "function"
    },
    {
      "inputs": [
        {
          "internalType": "bytes32",
          "name": "role",
          "type": "bytes32"
        },
        {
          "internalType": "address",
          "name": "account",
          "type": "address"
        }
      ],
      "name": "revokeRole",
      "outputs": [],
      "stateMutability": "nonpayable",
      "type": "function"
    },
    {
      "inputs": [
        {
          "internalType": "address",
          "name": "tokenAddress",
          "type": "address"
        },
        {
          "internalType": "address",
          "name": "cTokenAddress",
          "type": "address"
        },
        {
          "internalType": "uint256",
          "name": "amount",
          "type": "uint256"
        },
        {
          "internalType": "uint256",
          "name": "deadline",
          "type": "uint256"
        },
        {
          "internalType": "uint8",
          "name": "permitV",
          "type": "uint8"
        },
        {
          "internalType": "bytes32",
          "name": "permitR",
          "type": "bytes32"
        },
        {
          "internalType": "bytes32",
          "name": "permitS",
          "type": "bytes32"
        }
      ],
      "name": "supplyToken",
      "outputs": [
        {
          "internalType": "bool",
          "name": "",
          "type": "bool"
        }
      ],
      "stateMutability": "nonpayable",
      "type": "function"
    },
    {
      "inputs": [
        {
          "internalType": "bytes4",
          "name": "interfaceId",
          "type": "bytes4"
        }
      ],
      "name": "supportsInterface",
      "outputs": [
        {
          "internalType": "bool",
          "name": "",
          "type": "bool"
        }
      ],
      "stateMutability": "view",
      "type": "function"
    },
    {
      "inputs": [
        {
          "internalType": "address",
          "name": "tokenAddress",
          "type": "address"
        },
        {
          "internalType": "address",
          "name": "cTokenAddress",
          "type": "address"
        },
        {
          "internalType": "uint256",
          "name": "amount",
          "type": "uint256"
        }
      ],
      "name": "withdrawToken",
      "outputs": [
        {
          "internalType": "bool",
          "name": "",
          "type": "bool"
        }
      ],
      "stateMutability": "nonpayable",
      "type": "function"
    }
  ],
  "bytecode": "0x608060405234801561001057600080fd5b50614e4b806100206000396000f3fe608060405234801561001057600080fd5b506004361061010b5760003560e01c80636f632114116100a2578063aeabaff311610071578063aeabaff3146102c8578063b6db75a0146102e6578063c0c53b8b14610304578063c72fea5914610320578063d547741f146103515761010b565b80636f6321141461022e578063732debfb1461025e57806391d148541461027a578063a217fddf146102aa5761010b565b806336568abe116100de57806336568abe146101bc5780635c975abb146101d8578063699bf6fc146101f65780636e810b1a146102125761010b565b806301e336671461011057806301ffc9a714610140578063248a9ca3146101705780632f2ff15d146101a0575b600080fd5b61012a600480360381019061012591906139b0565b61036d565b6040516101379190613a1e565b60405180910390f35b61015a60048036038101906101559190613a91565b6108cf565b6040516101679190613a1e565b60405180910390f35b61018a60048036038101906101859190613af4565b610949565b6040516101979190613b30565b60405180910390f35b6101ba60048036038101906101b59190613b4b565b610969565b005b6101d660048036038101906101d19190613b4b565b61098a565b005b6101e0610a0d565b6040516101ed9190613a1e565b60405180910390f35b610210600480360381019061020b9190613ce4565b610a24565b005b61022c60048036038101906102279190613d97565b610daa565b005b61024860048036038101906102439190613dfd565b610ecc565b6040516102559190613a1e565b60405180910390f35b61027860048036038101906102739190613f54565b6113cf565b005b610294600480360381019061028f9190613b4b565b61164d565b6040516102a19190613a1e565b60405180910390f35b6102b26116b8565b6040516102bf9190613b30565b60405180910390f35b6102d06116bf565b6040516102dd9190613a1e565b60405180910390f35b6102ee6116de565b6040516102fb9190613a1e565b60405180910390f35b61031e60048036038101906103199190613fd7565b6116fd565b005b61033a60048036038101906103359190613d97565b61190a565b604051610348929190614039565b60405180910390f35b61036b60048036038101906103669190613b4b565b611f44565b005b6000610377611f65565b60fc6000815461038690614091565b919050819055506000806103998561190a565b91509150838210156103d7576040517fe7231dcd00000000000000000000000000000000000000000000000000000000815260040160405180910390fd5b600061010660008773ffffffffffffffffffffffffffffffffffffffff1673ffffffffffffffffffffffffffffffffffffffff1681526020019081526020016000205490508461010560008873ffffffffffffffffffffffffffffffffffffffff1673ffffffffffffffffffffffffffffffffffffffff16815260200190815260200160002060008381526020019081526020016000206000015461047c91906140d9565b61010560008873ffffffffffffffffffffffffffffffffffffffff1673ffffffffffffffffffffffffffffffffffffffff168152602001908152602001600020600060fc5481526020019081526020016000206000018190555060006104e187611fb4565b90508061010560008973ffffffffffffffffffffffffffffffffffffffff1673ffffffffffffffffffffffffffffffffffffffff1681526020019081526020016000206000600160fc5461053591906140d9565b8152602001908152602001600020600101819055506000610103600061055961223d565b73ffffffffffffffffffffffffffffffffffffffff1673ffffffffffffffffffffffffffffffffffffffff16815260200190815260200160002060008973ffffffffffffffffffffffffffffffffffffffff1673ffffffffffffffffffffffffffffffffffffffff1681526020019081526020016000206003015490508661010460006105e461223d565b73ffffffffffffffffffffffffffffffffffffffff1673ffffffffffffffffffffffffffffffffffffffff16815260200190815260200160002060008a73ffffffffffffffffffffffffffffffffffffffff1673ffffffffffffffffffffffffffffffffffffffff16815260200190815260200160002060008381526020019081526020016000205461067791906140d9565b610104600061068461223d565b73ffffffffffffffffffffffffffffffffffffffff1673ffffffffffffffffffffffffffffffffffffffff16815260200190815260200160002060008a73ffffffffffffffffffffffffffffffffffffffff1673ffffffffffffffffffffffffffffffffffffffff168152602001908152602001600020600060fc548152602001908152602001600020819055508487036107ba576000610103600061072861223d565b73ffffffffffffffffffffffffffffffffffffffff1673ffffffffffffffffffffffffffffffffffffffff16815260200190815260200160002060008a73ffffffffffffffffffffffffffffffffffffffff1673ffffffffffffffffffffffffffffffffffffffff16815260200190815260200160002060000160006101000a81548160ff0219169083151502179055505b8361010360006107c861223d565b73ffffffffffffffffffffffffffffffffffffffff1673ffffffffffffffffffffffffffffffffffffffff16815260200190815260200160002060008a73ffffffffffffffffffffffffffffffffffffffff1673ffffffffffffffffffffffffffffffffffffffff1681526020019081526020016000206001016000828254610851919061410d565b92505081905550610863898989612245565b6108b761086e61223d565b8560fe60009054906101000a900473ffffffffffffffffffffffffffffffffffffffff1673ffffffffffffffffffffffffffffffffffffffff166124999092919063ffffffff16565b6001955050505050506108c861251f565b9392505050565b60007f7965db0b000000000000000000000000000000000000000000000000000000007bffffffffffffffffffffffffffffffffffffffffffffffffffffffff1916827bffffffffffffffffffffffffffffffffffffffffffffffffffffffff19161480610942575061094182612529565b5b9050919050565b600060976000838152602001908152602001600020600101549050919050565b61097282610949565b61097b81612593565b61098583836125a7565b505050565b61099261223d565b73ffffffffffffffffffffffffffffffffffffffff168173ffffffffffffffffffffffffffffffffffffffff16146109ff576040517f08c379a00000000000000000000000000000000000000000000000000000000081526004016109f6906141c4565b60405180910390fd5b610a098282612688565b5050565b6000603360009054906101000a900460ff16905090565b610a2c6116de565b610a6b576040517f08c379a0000000000000000000000000000000000000000000000000000000008152600401610a6290614256565b60405180910390fd5b60008451905060005b81811015610d99578361010060009054906101000a900473ffffffffffffffffffffffffffffffffffffffff1673ffffffffffffffffffffffffffffffffffffffff16634dbc7b2860fb546040518263ffffffff1660e01b8152600401610adb9190614276565b602060405180830381865afa158015610af8573d6000803e3d6000fd5b505050506040513d601f19601f82011682018060405250810190610b1c91906142a6565b03610d88576000878281518110610b3657610b356142d3565b5b602002602001015190506000878381518110610b5557610b546142d3565b5b60200260200101519050600061010660008373ffffffffffffffffffffffffffffffffffffffff1673ffffffffffffffffffffffffffffffffffffffff168152602001908152602001600020549050600061010560008473ffffffffffffffffffffffffffffffffffffffff1673ffffffffffffffffffffffffffffffffffffffff1681526020019081526020016000206000838152602001908152602001600020600001549050600060648289610c0d9190614302565b610c17919061438b565b90506000610c2485611fb4565b90508061010560008773ffffffffffffffffffffffffffffffffffffffff1673ffffffffffffffffffffffffffffffffffffffff168152602001908152602001600020600060fc548152602001908152602001600020600101819055508183610c8d91906140d9565b61010560008773ffffffffffffffffffffffffffffffffffffffff1673ffffffffffffffffffffffffffffffffffffffff1681526020019081526020016000206000600160fc54610cde919061410d565b8152602001908152602001600020600001819055506000610d0087878561276a565b9050610d2d8c828973ffffffffffffffffffffffffffffffffffffffff166124999092919063ffffffff16565b600160fc54610d3c919061410d565b61010660008873ffffffffffffffffffffffffffffffffffffffff1673ffffffffffffffffffffffffffffffffffffffff16815260200190815260200160002081905550505050505050505b80610d9290614091565b9050610a74565b50610da2612945565b505050505050565b600060019054906101000a900460ff16610df9576040517f08c379a0000000000000000000000000000000000000000000000000000000008152600401610df09061442e565b60405180910390fd5b600073ffffffffffffffffffffffffffffffffffffffff168173ffffffffffffffffffffffffffffffffffffffff1603610e5f576040517f5415139400000000000000000000000000000000000000000000000000000000815260040160405180910390fd5b610e67612a0f565b610e6f612a68565b610e77612ab9565b610e88610e82612b12565b826125a7565b610e99610e93612b3a565b826125a7565b610eb1610ea4612b3a565b610eac612b12565b612b62565b610ec9610ebc612b12565b610ec4612b12565b612b62565b50565b6000610ed6611f65565b6402540be400861015610f15576040517f7e1764b300000000000000000000000000000000000000000000000000000000815260040160405180910390fd5b610f1d612945565b6000889050600088905060008a90506101036000610f3961223d565b73ffffffffffffffffffffffffffffffffffffffff1673ffffffffffffffffffffffffffffffffffffffff16815260200190815260200160002060008b73ffffffffffffffffffffffffffffffffffffffff1673ffffffffffffffffffffffffffffffffffffffff16815260200190815260200160002060000160009054906101000a900460ff166110f45760fc546101036000610fd561223d565b73ffffffffffffffffffffffffffffffffffffffff1673ffffffffffffffffffffffffffffffffffffffff16815260200190815260200160002060008c73ffffffffffffffffffffffffffffffffffffffff1673ffffffffffffffffffffffffffffffffffffffff168152602001908152602001600020600201819055506001610103600061106261223d565b73ffffffffffffffffffffffffffffffffffffffff1673ffffffffffffffffffffffffffffffffffffffff16815260200190815260200160002060008c73ffffffffffffffffffffffffffffffffffffffff1673ffffffffffffffffffffffffffffffffffffffff16815260200190815260200160002060000160006101000a81548160ff0219169083151502179055505b60008273ffffffffffffffffffffffffffffffffffffffff166370a08231306040518263ffffffff1660e01b815260040161112f919061445d565b602060405180830381865afa15801561114c573d6000803e3d6000fd5b505050506040513d601f19601f8201168201806040525081019061117091906142a6565b90506111ae61117d61223d565b308c8c8c8c8c8973ffffffffffffffffffffffffffffffffffffffff16612bbe90979695949392919063ffffffff16565b6111e26111b961223d565b308c8773ffffffffffffffffffffffffffffffffffffffff16612d8b909392919063ffffffff16565b61120d8b8b8673ffffffffffffffffffffffffffffffffffffffff16612e149092919063ffffffff16565b60008b73ffffffffffffffffffffffffffffffffffffffff1663a0712d688c6040518263ffffffff1660e01b81526004016112489190614276565b6020604051808303816000875af1158015611267573d6000803e3d6000fd5b505050506040513d601f19601f8201168201806040525081019061128b91906142a6565b9050600081146112c7576040517f1941b85300000000000000000000000000000000000000000000000000000000815260040160405180910390fd5b60008473ffffffffffffffffffffffffffffffffffffffff166370a08231306040518263ffffffff1660e01b8152600401611302919061445d565b602060405180830381865afa15801561131f573d6000803e3d6000fd5b505050506040513d601f19601f8201168201806040525081019061134391906142a6565b90506113508d8285612f26565b8b8e73ffffffffffffffffffffffffffffffffffffffff1661137061223d565b73ffffffffffffffffffffffffffffffffffffffff167fa64bf1fcc4f3d7c965ef3091c978df041ad959bfaa6d5abc7d99a17830407b2960405160405180910390a4600196505050505050506113c461251f565b979650505050505050565b6113d76116de565b611416576040517f08c379a000000000000000000000000000000000000000000000000000000000815260040161140d90614256565b60405180910390fd5b600060fd541115611453576040517f5f39ce3900000000000000000000000000000000000000000000000000000000815260040160405180910390fd5b60fd6000815461146290614091565b919050819055508361010060006101000a81548173ffffffffffffffffffffffffffffffffffffffff021916908373ffffffffffffffffffffffffffffffffffffffff16021790555060008061010060009054906101000a900473ffffffffffffffffffffffffffffffffffffffff1673ffffffffffffffffffffffffffffffffffffffff16634b40ac92846040518263ffffffff1660e01b815260040161150a9190614276565b600060405180830381865afa158015611527573d6000803e3d6000fd5b505050506040513d6000823e3d601f19601f820116820180604052508101906115509190614527565b915091508373ffffffffffffffffffffffffffffffffffffffff168173ffffffffffffffffffffffffffffffffffffffff16146115b9576040517fd3d93e9600000000000000000000000000000000000000000000000000000000815260040160405180910390fd5b846040516020016115ca91906145ca565b60405160208183030381529060405280519060200120826040516020016115f191906145ca565b604051602081830303815290604052805190602001201461163e576040517fd3d93e9600000000000000000000000000000000000000000000000000000000815260040160405180910390fd5b8260fb81905550505050505050565b60006097600084815260200190815260200160002060000160008373ffffffffffffffffffffffffffffffffffffffff1673ffffffffffffffffffffffffffffffffffffffff16815260200190815260200160002060009054906101000a900460ff16905092915050565b6000801b81565b60006116d96116cc612b3a565b6116d461223d565b61164d565b905090565b60006116f86116eb612b12565b6116f361223d565b61164d565b905090565b60008060019054906101000a900460ff1615905080801561172e5750600160008054906101000a900460ff1660ff16105b8061175b575061173d306132c1565b15801561175a5750600160008054906101000a900460ff1660ff16145b5b61179a576040517f08c379a000000000000000000000000000000000000000000000000000000000815260040161179190614653565b60405180910390fd5b60016000806101000a81548160ff021916908360ff16021790555080156117d7576001600060016101000a81548160ff0219169083151502179055505b8160ff60006101000a81548173ffffffffffffffffffffffffffffffffffffffff021916908373ffffffffffffffffffffffffffffffffffffffff1602179055508261010160006101000a81548173ffffffffffffffffffffffffffffffffffffffff021916908373ffffffffffffffffffffffffffffffffffffffff1602179055508360fe60006101000a81548173ffffffffffffffffffffffffffffffffffffffff021916908373ffffffffffffffffffffffffffffffffffffffff1602179055506118ab6118a661223d565b610daa565b80156119045760008060016101000a81548160ff0219169083151502179055507f7f26b83ff96e1f2b6a682f133852f6798a09c465da95921460cefb384740249860016040516118fb91906146b8565b60405180910390a15b50505050565b6000806000806000610103600061191f61223d565b73ffffffffffffffffffffffffffffffffffffffff1673ffffffffffffffffffffffffffffffffffffffff16815260200190815260200160002060008773ffffffffffffffffffffffffffffffffffffffff1673ffffffffffffffffffffffffffffffffffffffff168152602001908152602001600020600201549050600060fc54905060008060008490505b83811015611e9d57600061010460006119c361223d565b73ffffffffffffffffffffffffffffffffffffffff1673ffffffffffffffffffffffffffffffffffffffff16815260200190815260200160002060008c73ffffffffffffffffffffffffffffffffffffffff1673ffffffffffffffffffffffffffffffffffffffff16815260200190815260200160002060008381526020019081526020016000205411611a575786611aee565b6101046000611a6461223d565b73ffffffffffffffffffffffffffffffffffffffff1673ffffffffffffffffffffffffffffffffffffffff16815260200190815260200160002060008b73ffffffffffffffffffffffffffffffffffffffff1673ffffffffffffffffffffffffffffffffffffffff1681526020019081526020016000206000828152602001908152602001600020545b9650600061010560008c73ffffffffffffffffffffffffffffffffffffffff1673ffffffffffffffffffffffffffffffffffffffff16815260200190815260200160002060008381526020019081526020016000206000015461010560008d73ffffffffffffffffffffffffffffffffffffffff1673ffffffffffffffffffffffffffffffffffffffff16815260200190815260200160002060008481526020019081526020016000206001015489611ba79190614302565b611bb1919061438b565b90508087611bbf919061410d565b965060006101026000848152602001908152602001600020549050808414611e8a5780935061010060009054906101000a900473ffffffffffffffffffffffffffffffffffffffff1673ffffffffffffffffffffffffffffffffffffffff166305044ea660fb54866040518363ffffffff1660e01b8152600401611c44929190614039565b602060405180830381865afa158015611c61573d6000803e3d6000fd5b505050506040513d601f19601f82011682018060405250810190611c8591906146ff565b15611d2e5761010060009054906101000a900473ffffffffffffffffffffffffffffffffffffffff1673ffffffffffffffffffffffffffffffffffffffff16639cb0675860fb54866040518363ffffffff1660e01b8152600401611cea929190614039565b602060405180830381865afa158015611d07573d6000803e3d6000fd5b505050506040513d601f19601f82011682018060405250810190611d2b91906142a6565b94505b61010060009054906101000a900473ffffffffffffffffffffffffffffffffffffffff1673ffffffffffffffffffffffffffffffffffffffff1663b557e4a685876040518363ffffffff1660e01b8152600401611d8c929190614039565b602060405180830381865afa158015611da9573d6000803e3d6000fd5b505050506040513d601f19601f82011682018060405250810190611dcd91906146ff565b15611e8957606461010060009054906101000a900473ffffffffffffffffffffffffffffffffffffffff1673ffffffffffffffffffffffffffffffffffffffff166339c4c205866040518263ffffffff1660e01b8152600401611e309190614276565b602060405180830381865afa158015611e4d573d6000803e3d6000fd5b505050506040513d601f19601f82011682018060405250810190611e7191906142a6565b8a611e7c9190614302565b611e86919061438b565b98505b5b82611e9490614091565b925050506119ac565b506101036000611eab61223d565b73ffffffffffffffffffffffffffffffffffffffff1673ffffffffffffffffffffffffffffffffffffffff16815260200190815260200160002060008a73ffffffffffffffffffffffffffffffffffffffff1673ffffffffffffffffffffffffffffffffffffffff1681526020019081526020016000206001015485611f3191906140d9565b9450858597509750505050505050915091565b611f4d82610949565b611f5681612593565b611f608383612688565b505050565b600260c95403611faa576040517f08c379a0000000000000000000000000000000000000000000000000000000008152600401611fa190614778565b60405180910390fd5b600260c981905550565b600080600167ffffffffffffffff811115611fd257611fd1613ba1565b5b6040519080825280602002602001820160405280156120005781602001602082028036833780820191505090505b5090508281600081518110612018576120176142d3565b5b602002602001019073ffffffffffffffffffffffffffffffffffffffff16908173ffffffffffffffffffffffffffffffffffffffff1681525050600060fe60009054906101000a900473ffffffffffffffffffffffffffffffffffffffff1673ffffffffffffffffffffffffffffffffffffffff166370a08231306040518263ffffffff1660e01b81526004016120af919061445d565b602060405180830381865afa1580156120cc573d6000803e3d6000fd5b505050506040513d601f19601f820116820180604052508101906120f091906142a6565b905060ff60009054906101000a900473ffffffffffffffffffffffffffffffffffffffff1673ffffffffffffffffffffffffffffffffffffffff166386df31ee30846040518363ffffffff1660e01b815260040161214f92919061489c565b600060405180830381600087803b15801561216957600080fd5b505af115801561217d573d6000803e3d6000fd5b50505050600060fe60009054906101000a900473ffffffffffffffffffffffffffffffffffffffff1673ffffffffffffffffffffffffffffffffffffffff166370a08231306040518263ffffffff1660e01b81526004016121de919061445d565b602060405180830381865afa1580156121fb573d6000803e3d6000fd5b505050506040513d601f19601f8201168201806040525081019061221f91906142a6565b90506000828261222f91906140d9565b905080945050505050919050565b600033905090565b6000839050600083905060008273ffffffffffffffffffffffffffffffffffffffff166370a08231306040518263ffffffff1660e01b815260040161228a919061445d565b602060405180830381865afa1580156122a7573d6000803e3d6000fd5b505050506040513d601f19601f820116820180604052508101906122cb91906142a6565b905060008273ffffffffffffffffffffffffffffffffffffffff1663db006a75866040518263ffffffff1660e01b81526004016123089190614276565b6020604051808303816000875af1158015612327573d6000803e3d6000fd5b505050506040513d601f19601f8201168201806040525081019061234b91906142a6565b905060008114612387576040517f1941b85300000000000000000000000000000000000000000000000000000000815260040160405180910390fd5b60008473ffffffffffffffffffffffffffffffffffffffff166370a08231306040518263ffffffff1660e01b81526004016123c2919061445d565b602060405180830381865afa1580156123df573d6000803e3d6000fd5b505050506040513d601f19601f8201168201806040525081019061240391906142a6565b90506000838261241391906140d9565b905060fc5461010660008a73ffffffffffffffffffffffffffffffffffffffff1673ffffffffffffffffffffffffffffffffffffffff1681526020019081526020016000208190555061248e61246761223d565b828873ffffffffffffffffffffffffffffffffffffffff166124999092919063ffffffff16565b505050505050505050565b61251a8363a9059cbb60e01b84846040516024016124b89291906148cc565b604051602081830303815290604052907bffffffffffffffffffffffffffffffffffffffffffffffffffffffff19166020820180517bffffffffffffffffffffffffffffffffffffffffffffffffffffffff83818316178352505050506132e4565b505050565b600160c981905550565b60007f01ffc9a7000000000000000000000000000000000000000000000000000000007bffffffffffffffffffffffffffffffffffffffffffffffffffffffff1916827bffffffffffffffffffffffffffffffffffffffffffffffffffffffff1916149050919050565b6125a48161259f61223d565b6133ab565b50565b6125b1828261164d565b6126845760016097600084815260200190815260200160002060000160008373ffffffffffffffffffffffffffffffffffffffff1673ffffffffffffffffffffffffffffffffffffffff16815260200190815260200160002060006101000a81548160ff02191690831515021790555061262961223d565b73ffffffffffffffffffffffffffffffffffffffff168173ffffffffffffffffffffffffffffffffffffffff16837f2f8788117e7eff1d82e926ec794901d17c78024a50270940304540a733656f0d60405160405180910390a45b5050565b612692828261164d565b156127665760006097600084815260200190815260200160002060000160008373ffffffffffffffffffffffffffffffffffffffff1673ffffffffffffffffffffffffffffffffffffffff16815260200190815260200160002060006101000a81548160ff02191690831515021790555061270b61223d565b73ffffffffffffffffffffffffffffffffffffffff168173ffffffffffffffffffffffffffffffffffffffff16837ff6391f5c32d9c69d2a47ea670b442974b53935d1edc7fd64eb21e047a839171b60405160405180910390a45b5050565b60008083905060008573ffffffffffffffffffffffffffffffffffffffff166370a08231306040518263ffffffff1660e01b81526004016127ab919061445d565b602060405180830381865afa1580156127c8573d6000803e3d6000fd5b505050506040513d601f19601f820116820180604052508101906127ec91906142a6565b905060008273ffffffffffffffffffffffffffffffffffffffff1663db006a75866040518263ffffffff1660e01b81526004016128299190614276565b6020604051808303816000875af1158015612848573d6000803e3d6000fd5b505050506040513d601f19601f8201168201806040525081019061286c91906142a6565b9050600081146128a8576040517f1941b85300000000000000000000000000000000000000000000000000000000815260040160405180910390fd5b60008773ffffffffffffffffffffffffffffffffffffffff166370a08231306040518263ffffffff1660e01b81526004016128e3919061445d565b602060405180830381865afa158015612900573d6000803e3d6000fd5b505050506040513d601f19601f8201168201806040525081019061292491906142a6565b90506000838261293491906140d9565b905080955050505050509392505050565b60fc6000815461295490614091565b91905081905550600061010060009054906101000a900473ffffffffffffffffffffffffffffffffffffffff1673ffffffffffffffffffffffffffffffffffffffff1663c07f47d46040518163ffffffff1660e01b8152600401602060405180830381865afa1580156129cb573d6000803e3d6000fd5b505050506040513d601f19601f820116820180604052508101906129ef91906142a6565b905080610102600060fc5481526020019081526020016000208190555050565b600060019054906101000a900460ff16612a5e576040517f08c379a0000000000000000000000000000000000000000000000000000000008152600401612a559061442e565b60405180910390fd5b612a66613430565b565b600060019054906101000a900460ff16612ab7576040517f08c379a0000000000000000000000000000000000000000000000000000000008152600401612aae9061442e565b60405180910390fd5b565b600060019054906101000a900460ff16612b08576040517f08c379a0000000000000000000000000000000000000000000000000000000008152600401612aff9061442e565b60405180910390fd5b612b1061349c565b565b60007fa49807205ce4d355092ef5a8a18f56e8913cf4a201fbe287825b095693c21775905090565b60007f65d7a28e3265b37a6474929f336521b332c1681b933f6cb9f3376673440d862a905090565b6000612b6d83610949565b90508160976000858152602001908152602001600020600101819055508181847fbd79b86ffe0ab8e8776151514217cd7cacd52c909f66475c3af44e129f0b00ff60405160405180910390a4505050565b60008873ffffffffffffffffffffffffffffffffffffffff16637ecebe00896040518263ffffffff1660e01b8152600401612bf9919061445d565b602060405180830381865afa158015612c16573d6000803e3d6000fd5b505050506040513d601f19601f82011682018060405250810190612c3a91906142a6565b90508873ffffffffffffffffffffffffffffffffffffffff1663d505accf898989898989896040518863ffffffff1660e01b8152600401612c819796959493929190614904565b600060405180830381600087803b158015612c9b57600080fd5b505af1158015612caf573d6000803e3d6000fd5b5050505060008973ffffffffffffffffffffffffffffffffffffffff16637ecebe008a6040518263ffffffff1660e01b8152600401612cee919061445d565b602060405180830381865afa158015612d0b573d6000803e3d6000fd5b505050506040513d601f19601f82011682018060405250810190612d2f91906142a6565b9050600182612d3e919061410d565b8114612d7f576040517f08c379a0000000000000000000000000000000000000000000000000000000008152600401612d76906149e5565b60405180910390fd5b50505050505050505050565b612e0e846323b872dd60e01b858585604051602401612dac93929190614a05565b604051602081830303815290604052907bffffffffffffffffffffffffffffffffffffffffffffffffffffffff19166020820180517bffffffffffffffffffffffffffffffffffffffffffffffffffffffff83818316178352505050506132e4565b50505050565b6000818473ffffffffffffffffffffffffffffffffffffffff1663dd62ed3e30866040518363ffffffff1660e01b8152600401612e52929190614a3c565b602060405180830381865afa158015612e6f573d6000803e3d6000fd5b505050506040513d601f19601f82011682018060405250810190612e9391906142a6565b612e9d919061410d565b9050612f208463095ea7b360e01b8584604051602401612ebe9291906148cc565b604051602081830303815290604052907bffffffffffffffffffffffffffffffffffffffffffffffffffffffff19166020820180517bffffffffffffffffffffffffffffffffffffffffffffffffffffffff83818316178352505050506132e4565b50505050565b60008183612f3491906140d9565b9050600061010660008673ffffffffffffffffffffffffffffffffffffffff1673ffffffffffffffffffffffffffffffffffffffff16815260200190815260200160002054905060006101036000612f8a61223d565b73ffffffffffffffffffffffffffffffffffffffff1673ffffffffffffffffffffffffffffffffffffffff16815260200190815260200160002060008773ffffffffffffffffffffffffffffffffffffffff1673ffffffffffffffffffffffffffffffffffffffff168152602001908152602001600020600301549050600061301287611fb4565b90508361010560008973ffffffffffffffffffffffffffffffffffffffff1673ffffffffffffffffffffffffffffffffffffffff168152602001908152602001600020600085815260200190815260200160002060000154613074919061410d565b61010560008973ffffffffffffffffffffffffffffffffffffffff1673ffffffffffffffffffffffffffffffffffffffff168152602001908152602001600020600060fc548152602001908152602001600020600001819055508061010560008973ffffffffffffffffffffffffffffffffffffffff1673ffffffffffffffffffffffffffffffffffffffff1681526020019081526020016000206000600160fc5461312091906140d9565b81526020019081526020016000206001018190555083610104600061314361223d565b73ffffffffffffffffffffffffffffffffffffffff1673ffffffffffffffffffffffffffffffffffffffff16815260200190815260200160002060008973ffffffffffffffffffffffffffffffffffffffff1673ffffffffffffffffffffffffffffffffffffffff1681526020019081526020016000206000848152602001908152602001600020546131d6919061410d565b61010460006131e361223d565b73ffffffffffffffffffffffffffffffffffffffff1673ffffffffffffffffffffffffffffffffffffffff16815260200190815260200160002060008973ffffffffffffffffffffffffffffffffffffffff1673ffffffffffffffffffffffffffffffffffffffff168152602001908152602001600020600060fc5481526020019081526020016000208190555060fc5461010660008973ffffffffffffffffffffffffffffffffffffffff1673ffffffffffffffffffffffffffffffffffffffff1681526020019081526020016000208190555050505050505050565b6000808273ffffffffffffffffffffffffffffffffffffffff163b119050919050565b6000613346826040518060400160405280602081526020017f5361666545524332303a206c6f772d6c6576656c2063616c6c206661696c65648152508573ffffffffffffffffffffffffffffffffffffffff166134f59092919063ffffffff16565b90506000815111156133a6578080602001905181019061336691906146ff565b6133a5576040517f08c379a000000000000000000000000000000000000000000000000000000000815260040161339c90614ad7565b60405180910390fd5b5b505050565b6133b5828261164d565b61342c576133c28161350d565b6133d08360001c602061353a565b6040516020016133e1929190614b8f565b6040516020818303038152906040526040517f08c379a00000000000000000000000000000000000000000000000000000000081526004016134239190614c02565b60405180910390fd5b5050565b600060019054906101000a900460ff1661347f576040517f08c379a00000000000000000000000000000000000000000000000000000000081526004016134769061442e565b60405180910390fd5b6000603360006101000a81548160ff021916908315150217905550565b600060019054906101000a900460ff166134eb576040517f08c379a00000000000000000000000000000000000000000000000000000000081526004016134e29061442e565b60405180910390fd5b600160c981905550565b60606135048484600085613776565b90509392505050565b60606135338273ffffffffffffffffffffffffffffffffffffffff16601460ff1661353a565b9050919050565b60606000600283600261354d9190614302565b613557919061410d565b67ffffffffffffffff8111156135705761356f613ba1565b5b6040519080825280601f01601f1916602001820160405280156135a25781602001600182028036833780820191505090505b5090507f3000000000000000000000000000000000000000000000000000000000000000816000815181106135da576135d96142d3565b5b60200101907effffffffffffffffffffffffffffffffffffffffffffffffffffffffffffff1916908160001a9053507f78000000000000000000000000000000000000000000000000000000000000008160018151811061363e5761363d6142d3565b5b60200101907effffffffffffffffffffffffffffffffffffffffffffffffffffffffffffff1916908160001a9053506000600184600261367e9190614302565b613688919061410d565b90505b6001811115613728577f3031323334353637383961626364656600000000000000000000000000000000600f8616601081106136ca576136c96142d3565b5b1a60f81b8282815181106136e1576136e06142d3565b5b60200101907effffffffffffffffffffffffffffffffffffffffffffffffffffffffffffff1916908160001a905350600485901c94508061372190614c24565b905061368b565b506000841461376c576040517f08c379a000000000000000000000000000000000000000000000000000000000815260040161376390614c99565b60405180910390fd5b8091505092915050565b6060824710156137bb576040517f08c379a00000000000000000000000000000000000000000000000000000000081526004016137b290614d2b565b60405180910390fd5b6000808673ffffffffffffffffffffffffffffffffffffffff1685876040516137e49190614d92565b60006040518083038185875af1925050503d8060008114613821576040519150601f19603f3d011682016040523d82523d6000602084013e613826565b606091505b509150915061383787838387613843565b92505050949350505050565b606083156138a557600083510361389d5761385d856132c1565b61389c576040517f08c379a000000000000000000000000000000000000000000000000000000000815260040161389390614df5565b60405180910390fd5b5b8290506138b0565b6138af83836138b8565b5b949350505050565b6000825111156138cb5781518083602001fd5b806040517f08c379a00000000000000000000000000000000000000000000000000000000081526004016138ff9190614c02565b60405180910390fd5b6000604051905090565b600080fd5b600080fd5b600073ffffffffffffffffffffffffffffffffffffffff82169050919050565b60006139478261391c565b9050919050565b6139578161393c565b811461396257600080fd5b50565b6000813590506139748161394e565b92915050565b6000819050919050565b61398d8161397a565b811461399857600080fd5b50565b6000813590506139aa81613984565b92915050565b6000806000606084860312156139c9576139c8613912565b5b60006139d786828701613965565b93505060206139e886828701613965565b92505060406139f98682870161399b565b9150509250925092565b60008115159050919050565b613a1881613a03565b82525050565b6000602082019050613a336000830184613a0f565b92915050565b60007fffffffff0000000000000000000000000000000000000000000000000000000082169050919050565b613a6e81613a39565b8114613a7957600080fd5b50565b600081359050613a8b81613a65565b92915050565b600060208284031215613aa757613aa6613912565b5b6000613ab584828501613a7c565b91505092915050565b6000819050919050565b613ad181613abe565b8114613adc57600080fd5b50565b600081359050613aee81613ac8565b92915050565b600060208284031215613b0a57613b09613912565b5b6000613b1884828501613adf565b91505092915050565b613b2a81613abe565b82525050565b6000602082019050613b456000830184613b21565b92915050565b60008060408385031215613b6257613b61613912565b5b6000613b7085828601613adf565b9250506020613b8185828601613965565b9150509250929050565b600080fd5b6000601f19601f8301169050919050565b7f4e487b7100000000000000000000000000000000000000000000000000000000600052604160045260246000fd5b613bd982613b90565b810181811067ffffffffffffffff82111715613bf857613bf7613ba1565b5b80604052505050565b6000613c0b613908565b9050613c178282613bd0565b919050565b600067ffffffffffffffff821115613c3757613c36613ba1565b5b602082029050602081019050919050565b600080fd5b6000613c60613c5b84613c1c565b613c01565b90508083825260208201905060208402830185811115613c8357613c82613c48565b5b835b81811015613cac5780613c988882613965565b845260208401935050602081019050613c85565b5050509392505050565b600082601f830112613ccb57613cca613b8b565b5b8135613cdb848260208601613c4d565b91505092915050565b600080600080600060a08688031215613d0057613cff613912565b5b600086013567ffffffffffffffff811115613d1e57613d1d613917565b5b613d2a88828901613cb6565b955050602086013567ffffffffffffffff811115613d4b57613d4a613917565b5b613d5788828901613cb6565b9450506040613d6888828901613965565b9350506060613d798882890161399b565b9250506080613d8a8882890161399b565b9150509295509295909350565b600060208284031215613dad57613dac613912565b5b6000613dbb84828501613965565b91505092915050565b600060ff82169050919050565b613dda81613dc4565b8114613de557600080fd5b50565b600081359050613df781613dd1565b92915050565b600080600080600080600060e0888a031215613e1c57613e1b613912565b5b6000613e2a8a828b01613965565b9750506020613e3b8a828b01613965565b9650506040613e4c8a828b0161399b565b9550506060613e5d8a828b0161399b565b9450506080613e6e8a828b01613de8565b93505060a0613e7f8a828b01613adf565b92505060c0613e908a828b01613adf565b91505092959891949750929550565b600080fd5b600067ffffffffffffffff821115613ebf57613ebe613ba1565b5b613ec882613b90565b9050602081019050919050565b82818337600083830152505050565b6000613ef7613ef284613ea4565b613c01565b905082815260208101848484011115613f1357613f12613e9f565b5b613f1e848285613ed5565b509392505050565b600082601f830112613f3b57613f3a613b8b565b5b8135613f4b848260208601613ee4565b91505092915050565b60008060008060808587031215613f6e57613f6d613912565b5b6000613f7c87828801613965565b945050602085013567ffffffffffffffff811115613f9d57613f9c613917565b5b613fa987828801613f26565b9350506040613fba87828801613965565b9250506060613fcb8782880161399b565b91505092959194509250565b600080600060608486031215613ff057613fef613912565b5b6000613ffe86828701613965565b935050602061400f86828701613965565b925050604061402086828701613965565b9150509250925092565b6140338161397a565b82525050565b600060408201905061404e600083018561402a565b61405b602083018461402a565b9392505050565b7f4e487b7100000000000000000000000000000000000000000000000000000000600052601160045260246000fd5b600061409c8261397a565b91507fffffffffffffffffffffffffffffffffffffffffffffffffffffffffffffffff82036140ce576140cd614062565b5b600182019050919050565b60006140e48261397a565b91506140ef8361397a565b925082820390508181111561410757614106614062565b5b92915050565b60006141188261397a565b91506141238361397a565b925082820190508082111561413b5761413a614062565b5b92915050565b600082825260208201905092915050565b7f416363657373436f6e74726f6c3a2063616e206f6e6c792072656e6f756e636560008201527f20726f6c657320666f722073656c660000000000000000000000000000000000602082015250565b60006141ae602f83614141565b91506141b982614152565b604082019050919050565b600060208201905081810360008301526141dd816141a1565b9050919050565b7f4d75737420686176652061646d696e20726f6c6520746f20706572666f726d2060008201527f7468697320616374696f6e2e0000000000000000000000000000000000000000602082015250565b6000614240602c83614141565b915061424b826141e4565b604082019050919050565b6000602082019050818103600083015261426f81614233565b9050919050565b600060208201905061428b600083018461402a565b92915050565b6000815190506142a081613984565b92915050565b6000602082840312156142bc576142bb613912565b5b60006142ca84828501614291565b91505092915050565b7f4e487b7100000000000000000000000000000000000000000000000000000000600052603260045260246000fd5b600061430d8261397a565b91506143188361397a565b9250817fffffffffffffffffffffffffffffffffffffffffffffffffffffffffffffffff048311821515161561435157614350614062565b5b828202905092915050565b7f4e487b7100000000000000000000000000000000000000000000000000000000600052601260045260246000fd5b60006143968261397a565b91506143a18361397a565b9250826143b1576143b061435c565b5b828204905092915050565b7f496e697469616c697a61626c653a20636f6e7472616374206973206e6f74206960008201527f6e697469616c697a696e67000000000000000000000000000000000000000000602082015250565b6000614418602b83614141565b9150614423826143bc565b604082019050919050565b600060208201905081810360008301526144478161440b565b9050919050565b6144578161393c565b82525050565b6000602082019050614472600083018461444e565b92915050565b60005b8381101561449657808201518184015260208101905061447b565b60008484015250505050565b60006144b56144b084613ea4565b613c01565b9050828152602081018484840111156144d1576144d0613e9f565b5b6144dc848285614478565b509392505050565b600082601f8301126144f9576144f8613b8b565b5b81516145098482602086016144a2565b91505092915050565b6000815190506145218161394e565b92915050565b6000806040838503121561453e5761453d613912565b5b600083015167ffffffffffffffff81111561455c5761455b613917565b5b614568858286016144e4565b925050602061457985828601614512565b9150509250929050565b600081519050919050565b600081905092915050565b60006145a482614583565b6145ae818561458e565b93506145be818560208601614478565b80840191505092915050565b60006145d68284614599565b915081905092915050565b7f496e697469616c697a61626c653a20636f6e747261637420697320616c72656160008201527f647920696e697469616c697a6564000000000000000000000000000000000000602082015250565b600061463d602e83614141565b9150614648826145e1565b604082019050919050565b6000602082019050818103600083015261466c81614630565b9050919050565b6000819050919050565b6000819050919050565b60006146a261469d61469884614673565b61467d565b613dc4565b9050919050565b6146b281614687565b82525050565b60006020820190506146cd60008301846146a9565b92915050565b6146dc81613a03565b81146146e757600080fd5b50565b6000815190506146f9816146d3565b92915050565b60006020828403121561471557614714613912565b5b6000614723848285016146ea565b91505092915050565b7f5265656e7472616e637947756172643a207265656e7472616e742063616c6c00600082015250565b6000614762601f83614141565b915061476d8261472c565b602082019050919050565b6000602082019050818103600083015261479181614755565b9050919050565b600081519050919050565b600082825260208201905092915050565b6000819050602082019050919050565b60006147df6147da6147d58461391c565b61467d565b61391c565b9050919050565b60006147f1826147c4565b9050919050565b6000614803826147e6565b9050919050565b614813816147f8565b82525050565b6000614825838361480a565b60208301905092915050565b6000602082019050919050565b600061484982614798565b61485381856147a3565b935061485e836147b4565b8060005b8381101561488f5781516148768882614819565b975061488183614831565b925050600181019050614862565b5085935050505092915050565b60006040820190506148b1600083018561444e565b81810360208301526148c3818461483e565b90509392505050565b60006040820190506148e1600083018561444e565b6148ee602083018461402a565b9392505050565b6148fe81613dc4565b82525050565b600060e082019050614919600083018a61444e565b614926602083018961444e565b614933604083018861402a565b614940606083018761402a565b61494d60808301866148f5565b61495a60a0830185613b21565b61496760c0830184613b21565b98975050505050505050565b7f5361666545524332303a207065726d697420646964206e6f742073756363656560008201527f6400000000000000000000000000000000000000000000000000000000000000602082015250565b60006149cf602183614141565b91506149da82614973565b604082019050919050565b600060208201905081810360008301526149fe816149c2565b9050919050565b6000606082019050614a1a600083018661444e565b614a27602083018561444e565b614a34604083018461402a565b949350505050565b6000604082019050614a51600083018561444e565b614a5e602083018461444e565b9392505050565b7f5361666545524332303a204552433230206f7065726174696f6e20646964206e60008201527f6f74207375636365656400000000000000000000000000000000000000000000602082015250565b6000614ac1602a83614141565b9150614acc82614a65565b604082019050919050565b60006020820190508181036000830152614af081614ab4565b9050919050565b7f416363657373436f6e74726f6c3a206163636f756e7420000000000000000000600082015250565b6000614b2d60178361458e565b9150614b3882614af7565b601782019050919050565b7f206973206d697373696e6720726f6c6520000000000000000000000000000000600082015250565b6000614b7960118361458e565b9150614b8482614b43565b601182019050919050565b6000614b9a82614b20565b9150614ba68285614599565b9150614bb182614b6c565b9150614bbd8284614599565b91508190509392505050565b6000614bd482614583565b614bde8185614141565b9350614bee818560208601614478565b614bf781613b90565b840191505092915050565b60006020820190508181036000830152614c1c8184614bc9565b905092915050565b6000614c2f8261397a565b915060008203614c4257614c41614062565b5b600182039050919050565b7f537472696e67733a20686578206c656e67746820696e73756666696369656e74600082015250565b6000614c83602083614141565b9150614c8e82614c4d565b602082019050919050565b60006020820190508181036000830152614cb281614c76565b9050919050565b7f416464726573733a20696e73756666696369656e742062616c616e636520666f60008201527f722063616c6c0000000000000000000000000000000000000000000000000000602082015250565b6000614d15602683614141565b9150614d2082614cb9565b604082019050919050565b60006020820190508181036000830152614d4481614d08565b9050919050565b600081519050919050565b600081905092915050565b6000614d6c82614d4b565b614d768185614d56565b9350614d86818560208601614478565b80840191505092915050565b6000614d9e8284614d61565b915081905092915050565b7f416464726573733a2063616c6c20746f206e6f6e2d636f6e7472616374000000600082015250565b6000614ddf601d83614141565b9150614dea82614da9565b602082019050919050565b60006020820190508181036000830152614e0e81614dd2565b905091905056fea2646970667358221220fe8ff32643bbfd949277448f375eb31984170e15fffd94af6d626b8cb4f025a264736f6c63430008100033",
  "linkReferences": {},
  "deployedLinkReferences": {}
}