{
  "_format": "hh-sol-artifact-1",
  "contractName": "StableSZT",
  "sourceName": "contracts/core/token/StableSZTERC20.sol",
  "abi": [
    {
      "inputs": [],
      "name": "BaseUpgradeablePausable__ZeroAddressError",
      "type": "error"
    },
    {
      "inputs": [],
      "name": "ERC20__AccessRestricted",
      "type": "error"
    },
    {
      "inputs": [],
      "name": "ERC20__InitializedEarlierError",
      "type": "error"
    },
    {
      "inputs": [],
      "name": "ERC20__InsufficientBalanceError",
      "type": "error"
    },
    {
      "inputs": [],
      "name": "ERC20__SameAdressTransferError",
      "type": "error"
    },
    {
      "anonymous": false,
      "inputs": [
        {
          "indexed": true,
          "internalType": "address",
          "name": "owner",
          "type": "address"
        },
        {
          "indexed": true,
          "internalType": "address",
          "name": "spender",
          "type": "address"
        },
        {
          "indexed": false,
          "internalType": "uint256",
          "name": "value",
          "type": "uint256"
        }
      ],
      "name": "Approval",
      "type": "event"
    },
    {
      "anonymous": false,
      "inputs": [
        {
          "indexed": false,
          "internalType": "uint8",
          "name": "version",
          "type": "uint8"
        }
      ],
      "name": "Initialized",
      "type": "event"
    },
    {
      "anonymous": false,
      "inputs": [
        {
          "indexed": false,
          "internalType": "address",
          "name": "account",
          "type": "address"
        }
      ],
      "name": "Paused",
      "type": "event"
    },
    {
      "anonymous": false,
      "inputs": [
        {
          "indexed": true,
          "internalType": "bytes32",
          "name": "role",
          "type": "bytes32"
        },
        {
          "indexed": true,
          "internalType": "bytes32",
          "name": "previousAdminRole",
          "type": "bytes32"
        },
        {
          "indexed": true,
          "internalType": "bytes32",
          "name": "newAdminRole",
          "type": "bytes32"
        }
      ],
      "name": "RoleAdminChanged",
      "type": "event"
    },
    {
      "anonymous": false,
      "inputs": [
        {
          "indexed": true,
          "internalType": "bytes32",
          "name": "role",
          "type": "bytes32"
        },
        {
          "indexed": true,
          "internalType": "address",
          "name": "account",
          "type": "address"
        },
        {
          "indexed": true,
          "internalType": "address",
          "name": "sender",
          "type": "address"
        }
      ],
      "name": "RoleGranted",
      "type": "event"
    },
    {
      "anonymous": false,
      "inputs": [
        {
          "indexed": true,
          "internalType": "bytes32",
          "name": "role",
          "type": "bytes32"
        },
        {
          "indexed": true,
          "internalType": "address",
          "name": "account",
          "type": "address"
        },
        {
          "indexed": true,
          "internalType": "address",
          "name": "sender",
          "type": "address"
        }
      ],
      "name": "RoleRevoked",
      "type": "event"
    },
    {
      "anonymous": false,
      "inputs": [
        {
          "indexed": true,
          "internalType": "address",
          "name": "from",
          "type": "address"
        },
        {
          "indexed": true,
          "internalType": "address",
          "name": "to",
          "type": "address"
        },
        {
          "indexed": false,
          "internalType": "uint256",
          "name": "value",
          "type": "uint256"
        }
      ],
      "name": "Transfer",
      "type": "event"
    },
    {
      "anonymous": false,
      "inputs": [
        {
          "indexed": false,
          "internalType": "address",
          "name": "account",
          "type": "address"
        }
      ],
      "name": "Unpaused",
      "type": "event"
    },
    {
      "inputs": [],
      "name": "DEFAULT_ADMIN_ROLE",
      "outputs": [
        {
          "internalType": "bytes32",
          "name": "",
          "type": "bytes32"
        }
      ],
      "stateMutability": "view",
      "type": "function"
    },
    {
      "inputs": [],
      "name": "DOMAIN_SEPARATOR",
      "outputs": [
        {
          "internalType": "bytes32",
          "name": "",
          "type": "bytes32"
        }
      ],
      "stateMutability": "view",
      "type": "function"
    },
    {
      "inputs": [
        {
          "internalType": "address",
          "name": "owner",
          "type": "address"
        }
      ],
      "name": "__BaseUpgradeablePausable_init",
      "outputs": [],
      "stateMutability": "nonpayable",
      "type": "function"
    },
    {
      "inputs": [
        {
          "internalType": "address",
          "name": "owner",
          "type": "address"
        },
        {
          "internalType": "address",
          "name": "spender",
          "type": "address"
        }
      ],
      "name": "allowance",
      "outputs": [
        {
          "internalType": "uint256",
          "name": "",
          "type": "uint256"
        }
      ],
      "stateMutability": "view",
      "type": "function"
    },
    {
      "inputs": [
        {
          "internalType": "address",
          "name": "spender",
          "type": "address"
        },
        {
          "internalType": "uint256",
          "name": "amount",
          "type": "uint256"
        }
      ],
      "name": "approve",
      "outputs": [
        {
          "internalType": "bool",
          "name": "",
          "type": "bool"
        }
      ],
      "stateMutability": "nonpayable",
      "type": "function"
    },
    {
      "inputs": [
        {
          "internalType": "address",
          "name": "account",
          "type": "address"
        }
      ],
      "name": "balanceOf",
      "outputs": [
        {
          "internalType": "uint256",
          "name": "",
          "type": "uint256"
        }
      ],
      "stateMutability": "view",
      "type": "function"
    },
    {
      "inputs": [
        {
          "internalType": "address",
          "name": "account",
          "type": "address"
        },
        {
          "internalType": "uint256",
          "name": "amount",
          "type": "uint256"
        }
      ],
      "name": "burnFrom",
      "outputs": [
        {
          "internalType": "bool",
          "name": "",
          "type": "bool"
        }
      ],
      "stateMutability": "nonpayable",
      "type": "function"
    },
    {
      "inputs": [],
      "name": "constantFlowAgreement",
      "outputs": [
        {
          "internalType": "contract ICFA",
          "name": "",
          "type": "address"
        }
      ],
      "stateMutability": "view",
      "type": "function"
    },
    {
      "inputs": [],
      "name": "decimals",
      "outputs": [
        {
          "internalType": "uint8",
          "name": "",
          "type": "uint8"
        }
      ],
      "stateMutability": "view",
      "type": "function"
    },
    {
      "inputs": [
        {
          "internalType": "address",
          "name": "spender",
          "type": "address"
        },
        {
          "internalType": "uint256",
          "name": "subtractedValue",
          "type": "uint256"
        }
      ],
      "name": "decreaseAllowance",
      "outputs": [
        {
          "internalType": "bool",
          "name": "",
          "type": "bool"
        }
      ],
      "stateMutability": "nonpayable",
      "type": "function"
    },
    {
      "inputs": [
        {
          "internalType": "bytes32",
          "name": "role",
          "type": "bytes32"
        }
      ],
      "name": "getRoleAdmin",
      "outputs": [
        {
          "internalType": "bytes32",
          "name": "",
          "type": "bytes32"
        }
      ],
      "stateMutability": "view",
      "type": "function"
    },
    {
      "inputs": [
        {
          "internalType": "bytes32",
          "name": "role",
          "type": "bytes32"
        },
        {
          "internalType": "address",
          "name": "account",
          "type": "address"
        }
      ],
      "name": "grantRole",
      "outputs": [],
      "stateMutability": "nonpayable",
      "type": "function"
    },
    {
      "inputs": [
        {
          "internalType": "bytes32",
          "name": "role",
          "type": "bytes32"
        },
        {
          "internalType": "address",
          "name": "account",
          "type": "address"
        }
      ],
      "name": "hasRole",
      "outputs": [
        {
          "internalType": "bool",
          "name": "",
          "type": "bool"
        }
      ],
      "stateMutability": "view",
      "type": "function"
    },
    {
      "inputs": [
        {
          "internalType": "address",
          "name": "spender",
          "type": "address"
        },
        {
          "internalType": "uint256",
          "name": "addedValue",
          "type": "uint256"
        }
      ],
      "name": "increaseAllowance",
      "outputs": [
        {
          "internalType": "bool",
          "name": "",
          "type": "bool"
        }
      ],
      "stateMutability": "nonpayable",
      "type": "function"
    },
    {
      "inputs": [
        {
          "internalType": "address",
          "name": "addressSwapManager",
          "type": "address"
        },
        {
          "internalType": "address",
          "name": "addressCFA",
          "type": "address"
        }
      ],
      "name": "init",
      "outputs": [],
      "stateMutability": "nonpayable",
      "type": "function"
    },
    {
      "inputs": [],
      "name": "initCounter",
      "outputs": [
        {
          "internalType": "uint256",
          "name": "",
          "type": "uint256"
        }
      ],
      "stateMutability": "view",
      "type": "function"
    },
    {
      "inputs": [],
      "name": "initialize",
      "outputs": [],
      "stateMutability": "nonpayable",
      "type": "function"
    },
    {
      "inputs": [],
      "name": "isAdmin",
      "outputs": [
        {
          "internalType": "bool",
          "name": "",
          "type": "bool"
        }
      ],
      "stateMutability": "view",
      "type": "function"
    },
    {
      "inputs": [],
      "name": "isModerator",
      "outputs": [
        {
          "internalType": "bool",
          "name": "",
          "type": "bool"
        }
      ],
      "stateMutability": "view",
      "type": "function"
    },
    {
      "inputs": [
        {
          "internalType": "address",
          "name": "to",
          "type": "address"
        },
        {
          "internalType": "uint256",
          "name": "amount",
          "type": "uint256"
        }
      ],
      "name": "mint",
      "outputs": [
        {
          "internalType": "bool",
          "name": "",
          "type": "bool"
        }
      ],
      "stateMutability": "nonpayable",
      "type": "function"
    },
    {
      "inputs": [],
      "name": "name",
      "outputs": [
        {
          "internalType": "string",
          "name": "",
          "type": "string"
        }
      ],
      "stateMutability": "view",
      "type": "function"
    },
    {
      "inputs": [
        {
          "internalType": "address",
          "name": "owner",
          "type": "address"
        }
      ],
      "name": "nonces",
      "outputs": [
        {
          "internalType": "uint256",
          "name": "",
          "type": "uint256"
        }
      ],
      "stateMutability": "view",
      "type": "function"
    },
    {
      "inputs": [],
      "name": "pause",
      "outputs": [],
      "stateMutability": "nonpayable",
      "type": "function"
    },
    {
      "inputs": [],
      "name": "paused",
      "outputs": [
        {
          "internalType": "bool",
          "name": "",
          "type": "bool"
        }
      ],
      "stateMutability": "view",
      "type": "function"
    },
    {
      "inputs": [
        {
          "internalType": "address",
          "name": "owner",
          "type": "address"
        },
        {
          "internalType": "address",
          "name": "spender",
          "type": "address"
        },
        {
          "internalType": "uint256",
          "name": "value",
          "type": "uint256"
        },
        {
          "internalType": "uint256",
          "name": "deadline",
          "type": "uint256"
        },
        {
          "internalType": "uint8",
          "name": "v",
          "type": "uint8"
        },
        {
          "internalType": "bytes32",
          "name": "r",
          "type": "bytes32"
        },
        {
          "internalType": "bytes32",
          "name": "s",
          "type": "bytes32"
        }
      ],
      "name": "permit",
      "outputs": [],
      "stateMutability": "nonpayable",
      "type": "function"
    },
    {
      "inputs": [
        {
          "internalType": "bytes32",
          "name": "role",
          "type": "bytes32"
        },
        {
          "internalType": "address",
          "name": "account",
          "type": "address"
        }
      ],
      "name": "renounceRole",
      "outputs": [],
      "stateMutability": "nonpayable",
      "type": "function"
    },
    {
      "inputs": [
        {
          "internalType": "bytes32",
          "name": "role",
          "type": "bytes32"
        },
        {
          "internalType": "address",
          "name": "account",
          "type": "address"
        }
      ],
      "name": "revokeRole",
      "outputs": [],
      "stateMutability": "nonpayable",
      "type": "function"
    },
    {
      "inputs": [
        {
          "internalType": "bytes4",
          "name": "interfaceId",
          "type": "bytes4"
        }
      ],
      "name": "supportsInterface",
      "outputs": [
        {
          "internalType": "bool",
          "name": "",
          "type": "bool"
        }
      ],
      "stateMutability": "view",
      "type": "function"
    },
    {
      "inputs": [],
      "name": "swapManager",
      "outputs": [
        {
          "internalType": "address",
          "name": "",
          "type": "address"
        }
      ],
      "stateMutability": "view",
      "type": "function"
    },
    {
      "inputs": [],
      "name": "symbol",
      "outputs": [
        {
          "internalType": "string",
          "name": "",
          "type": "string"
        }
      ],
      "stateMutability": "view",
      "type": "function"
    },
    {
      "inputs": [],
      "name": "totalSupply",
      "outputs": [
        {
          "internalType": "uint256",
          "name": "",
          "type": "uint256"
        }
      ],
      "stateMutability": "view",
      "type": "function"
    },
    {
      "inputs": [
        {
          "internalType": "address",
          "name": "to",
          "type": "address"
        },
        {
          "internalType": "uint256",
          "name": "amount",
          "type": "uint256"
        }
      ],
      "name": "transfer",
      "outputs": [
        {
          "internalType": "bool",
          "name": "",
          "type": "bool"
        }
      ],
      "stateMutability": "nonpayable",
      "type": "function"
    },
    {
      "inputs": [
        {
          "internalType": "address",
          "name": "from",
          "type": "address"
        },
        {
          "internalType": "address",
          "name": "to",
          "type": "address"
        },
        {
          "internalType": "uint256",
          "name": "amount",
          "type": "uint256"
        }
      ],
      "name": "transferFrom",
      "outputs": [
        {
          "internalType": "bool",
          "name": "",
          "type": "bool"
        }
      ],
      "stateMutability": "nonpayable",
      "type": "function"
    },
    {
      "inputs": [],
      "name": "unpause",
      "outputs": [],
      "stateMutability": "nonpayable",
      "type": "function"
    }
  ],
  "bytecode": "0x608060405234801561001057600080fd5b50614657806100206000396000f3fe608060405234801561001057600080fd5b50600436106102065760003560e01c806370a082311161011a578063a457c2d7116100ad578063d505accf1161007c578063d505accf14610607578063d547741f14610623578063dd62ed3e1461063f578063f09a40161461066f578063f2741c381461068b57610206565b8063a457c2d71461056b578063a9059cbb1461059b578063aeabaff3146105cb578063b6db75a0146105e957610206565b80638456cb59116100e95780638456cb59146104f557806391d14854146104ff57806395d89b411461052f578063a217fddf1461054d57610206565b806370a082311461045b57806379cc67901461048b5780637ecebe00146104bb5780638129fc1c146104eb57610206565b8063313ce5671161019d5780633f4ba83a1161016c5780633f4ba83a146103c957806340c10f19146103d35780635c975abb146104035780636e810b1a14610421578063709d039d1461043d57610206565b8063313ce567146103415780633644e5151461035f57806336568abe1461037d578063395093511461039957610206565b806318160ddd116101d957806318160ddd146102a757806323b872dd146102c5578063248a9ca3146102f55780632f2ff15d1461032557610206565b806301ffc9a71461020b57806306fdde031461023b57806308fd26d614610259578063095ea7b314610277575b600080fd5b61022560048036038101906102209190612d9c565b6106a9565b6040516102329190612de4565b60405180910390f35b610243610723565b6040516102509190612e8f565b60405180910390f35b6102616107b5565b60405161026e9190612f30565b60405180910390f35b610291600480360381019061028c9190612fbf565b6107dc565b60405161029e9190612de4565b60405180910390f35b6102af6107ff565b6040516102bc919061300e565b60405180910390f35b6102df60048036038101906102da9190613029565b610809565b6040516102ec9190612de4565b60405180910390f35b61030f600480360381019061030a91906130b2565b610993565b60405161031c91906130ee565b60405180910390f35b61033f600480360381019061033a9190613109565b6109b4565b005b6103496109d5565b6040516103569190613165565b60405180910390f35b6103676109de565b60405161037491906130ee565b60405180910390f35b61039760048036038101906103929190613109565b6109ed565b005b6103b360048036038101906103ae9190612fbf565b610a70565b6040516103c09190612de4565b60405180910390f35b6103d1610aa7565b005b6103ed60048036038101906103e89190612fbf565b610af8565b6040516103fa9190612de4565b60405180910390f35b61040b610b16565b6040516104189190612de4565b60405180910390f35b61043b60048036038101906104369190613180565b610b2d565b005b610445610c4f565b60405161045291906131bc565b60405180910390f35b61047560048036038101906104709190613180565b610c76565b604051610482919061300e565b60405180910390f35b6104a560048036038101906104a09190612fbf565b610cbf565b6040516104b29190612de4565b60405180910390f35b6104d560048036038101906104d09190613180565b610ce7565b6040516104e2919061300e565b60405180910390f35b6104f3610d37565b005b6104fd610f2f565b005b61051960048036038101906105149190613109565b610f80565b6040516105269190612de4565b60405180910390f35b610537610fec565b6040516105449190612e8f565b60405180910390f35b61055561107e565b60405161056291906130ee565b60405180910390f35b61058560048036038101906105809190612fbf565b611085565b6040516105929190612de4565b60405180910390f35b6105b560048036038101906105b09190612fbf565b6110fc565b6040516105c29190612de4565b60405180910390f35b6105d3611222565b6040516105e09190612de4565b60405180910390f35b6105f1611241565b6040516105fe9190612de4565b60405180910390f35b610621600480360381019061061c9190613203565b611260565b005b61063d60048036038101906106389190613109565b6113a2565b005b610659600480360381019061065491906132a5565b6113c3565b604051610666919061300e565b60405180910390f35b610689600480360381019061068491906132a5565b61144a565b005b61069361156e565b6040516106a0919061300e565b60405180910390f35b60007f7965db0b000000000000000000000000000000000000000000000000000000007bffffffffffffffffffffffffffffffffffffffffffffffffffffffff1916827bffffffffffffffffffffffffffffffffffffffffffffffffffffffff1916148061071c575061071b82611575565b5b9050919050565b60606036805461073290613314565b80601f016020809104026020016040519081016040528092919081815260200182805461075e90613314565b80156107ab5780601f10610780576101008083540402835291602001916107ab565b820191906000526020600020905b81548152906001019060200180831161078e57829003601f168201915b5050505050905090565b61019660009054906101000a900473ffffffffffffffffffffffffffffffffffffffff1681565b6000806107e76115df565b90506107f48185856115e7565b600191505092915050565b6000603554905090565b60008373ffffffffffffffffffffffffffffffffffffffff168373ffffffffffffffffffffffffffffffffffffffff1603610870576040517fced4ef3500000000000000000000000000000000000000000000000000000000815260040160405180910390fd5b600061087b85610c76565b9050600061019660009054906101000a900473ffffffffffffffffffffffffffffffffffffffff1673ffffffffffffffffffffffffffffffffffffffff166342f6b8a7876040518263ffffffff1660e01b81526004016108db91906131bc565b602060405180830381865afa1580156108f8573d6000803e3d6000fd5b505050506040513d601f19601f8201168201806040525081019061091c919061335a565b905083818361092b91906133b6565b1015610963576040517f9950252700000000000000000000000000000000000000000000000000000000815260040160405180910390fd5b600061096d6115df565b905061097a8782876117b0565b61098587878761183c565b600193505050509392505050565b60006101306000838152602001908152602001600020600101549050919050565b6109bd82610993565b6109c681611ab5565b6109d08383611ac9565b505050565b60006012905090565b60006109e8611bab565b905090565b6109f56115df565b73ffffffffffffffffffffffffffffffffffffffff168173ffffffffffffffffffffffffffffffffffffffff1614610a62576040517f08c379a0000000000000000000000000000000000000000000000000000000008152600401610a599061345c565b60405180910390fd5b610a6c8282611beb565b5050565b600080610a7b6115df565b9050610a9c818585610a8d85896113c3565b610a97919061347c565b6115e7565b600191505092915050565b610aaf611241565b610aee576040517f08c379a0000000000000000000000000000000000000000000000000000000008152600401610ae590613522565b60405180910390fd5b610af6611cce565b565b6000610b02611d31565b610b0c8383611e26565b6001905092915050565b600060cc60009054906101000a900460ff16905090565b600060019054906101000a900460ff16610b7c576040517f08c379a0000000000000000000000000000000000000000000000000000000008152600401610b73906135b4565b60405180910390fd5b600073ffffffffffffffffffffffffffffffffffffffff168173ffffffffffffffffffffffffffffffffffffffff1603610be2576040517f5415139400000000000000000000000000000000000000000000000000000000815260040160405180910390fd5b610bea611f7d565b610bf2611fd6565b610bfa612027565b610c0b610c05612080565b82611ac9565b610c1c610c166120a8565b82611ac9565b610c34610c276120a8565b610c2f612080565b6120d0565b610c4c610c3f612080565b610c47612080565b6120d0565b50565b61019460009054906101000a900473ffffffffffffffffffffffffffffffffffffffff1681565b6000603360008373ffffffffffffffffffffffffffffffffffffffff1673ffffffffffffffffffffffffffffffffffffffff168152602001908152602001600020549050919050565b6000610cd383610ccd6115df565b846117b0565b610cdd838361212d565b6001905092915050565b6000610d30609960008473ffffffffffffffffffffffffffffffffffffffff1673ffffffffffffffffffffffffffffffffffffffff1681526020019081526020016000206122fc565b9050919050565b60008060019054906101000a900460ff16159050808015610d685750600160008054906101000a900460ff1660ff16105b80610d955750610d773061230a565b158015610d945750600160008054906101000a900460ff1660ff16145b5b610dd4576040517f08c379a0000000000000000000000000000000000000000000000000000000008152600401610dcb90613646565b60405180910390fd5b60016000806101000a81548160ff021916908360ff1602179055508015610e11576001600060016101000a81548160ff0219169083151502179055505b610e856040518060400160405280601681526020017f537461626c65535a542053747265616d20546f6b656e000000000000000000008152506040518060400160405280600981526020017f537461626c65535a54000000000000000000000000000000000000000000000081525061232d565b610ec36040518060400160405280600981526020017f537461626c65535a54000000000000000000000000000000000000000000000081525061238a565b610ed3610ece6115df565b610b2d565b8015610f2c5760008060016101000a81548160ff0219169083151502179055507f7f26b83ff96e1f2b6a682f133852f6798a09c465da95921460cefb38474024986001604051610f2391906136a1565b60405180910390a15b50565b610f37611241565b610f76576040517f08c379a0000000000000000000000000000000000000000000000000000000008152600401610f6d90613522565b60405180910390fd5b610f7e61241b565b565b6000610130600084815260200190815260200160002060000160008373ffffffffffffffffffffffffffffffffffffffff1673ffffffffffffffffffffffffffffffffffffffff16815260200190815260200160002060009054906101000a900460ff16905092915050565b606060378054610ffb90613314565b80601f016020809104026020016040519081016040528092919081815260200182805461102790613314565b80156110745780601f1061104957610100808354040283529160200191611074565b820191906000526020600020905b81548152906001019060200180831161105757829003601f168201915b5050505050905090565b6000801b81565b6000806110906115df565b9050600061109e82866113c3565b9050838110156110e3576040517f08c379a00000000000000000000000000000000000000000000000000000000081526004016110da9061372e565b60405180910390fd5b6110f082868684036115e7565b60019250505092915050565b6000806111076115df565b9050600061111b6111166115df565b610c76565b9050600061019660009054906101000a900473ffffffffffffffffffffffffffffffffffffffff1673ffffffffffffffffffffffffffffffffffffffff166342f6b8a76111666115df565b6040518263ffffffff1660e01b815260040161118291906131bc565b602060405180830381865afa15801561119f573d6000803e3d6000fd5b505050506040513d601f19601f820116820180604052508101906111c3919061335a565b90508481836111d291906133b6565b101561120a576040517f9950252700000000000000000000000000000000000000000000000000000000815260040160405180910390fd5b61121583878761183c565b6001935050505092915050565b600061123c61122f6120a8565b6112376115df565b610f80565b905090565b600061125b61124e612080565b6112566115df565b610f80565b905090565b834211156112a3576040517f08c379a000000000000000000000000000000000000000000000000000000000815260040161129a9061379a565b60405180910390fd5b60007f6e71edae12b1b97f4d1f60370fef10105fa2faae0126114a169c64845d6126c98888886112d28c61247e565b896040516020016112e8969594939291906137ba565b604051602081830303815290604052805190602001209050600061130b826124dc565b9050600061131b828787876124f6565b90508973ffffffffffffffffffffffffffffffffffffffff168173ffffffffffffffffffffffffffffffffffffffff161461138b576040517f08c379a000000000000000000000000000000000000000000000000000000000815260040161138290613867565b60405180910390fd5b6113968a8a8a6115e7565b50505050505050505050565b6113ab82610993565b6113b481611ab5565b6113be8383611beb565b505050565b6000603460008473ffffffffffffffffffffffffffffffffffffffff1673ffffffffffffffffffffffffffffffffffffffff16815260200190815260200160002060008373ffffffffffffffffffffffffffffffffffffffff1673ffffffffffffffffffffffffffffffffffffffff16815260200190815260200160002054905092915050565b611452611241565b611491576040517f08c379a000000000000000000000000000000000000000000000000000000000815260040161148890613522565b60405180910390fd5b60006101955411156114cf576040517fad40603400000000000000000000000000000000000000000000000000000000815260040160405180910390fd5b610195600081546114df90613887565b919050819055508161019460006101000a81548173ffffffffffffffffffffffffffffffffffffffff021916908373ffffffffffffffffffffffffffffffffffffffff1602179055508061019660006101000a81548173ffffffffffffffffffffffffffffffffffffffff021916908373ffffffffffffffffffffffffffffffffffffffff1602179055505050565b6101955481565b60007f01ffc9a7000000000000000000000000000000000000000000000000000000007bffffffffffffffffffffffffffffffffffffffffffffffffffffffff1916827bffffffffffffffffffffffffffffffffffffffffffffffffffffffff1916149050919050565b600033905090565b600073ffffffffffffffffffffffffffffffffffffffff168373ffffffffffffffffffffffffffffffffffffffff1603611656576040517f08c379a000000000000000000000000000000000000000000000000000000000815260040161164d90613941565b60405180910390fd5b600073ffffffffffffffffffffffffffffffffffffffff168273ffffffffffffffffffffffffffffffffffffffff16036116c5576040517f08c379a00000000000000000000000000000000000000000000000000000000081526004016116bc906139d3565b60405180910390fd5b80603460008573ffffffffffffffffffffffffffffffffffffffff1673ffffffffffffffffffffffffffffffffffffffff16815260200190815260200160002060008473ffffffffffffffffffffffffffffffffffffffff1673ffffffffffffffffffffffffffffffffffffffff168152602001908152602001600020819055508173ffffffffffffffffffffffffffffffffffffffff168373ffffffffffffffffffffffffffffffffffffffff167f8c5be1e5ebec7d5bd14f71427d1e84f3dd0314c0f7b2291e5b200ac8c7c3b925836040516117a3919061300e565b60405180910390a3505050565b60006117bc84846113c3565b90507fffffffffffffffffffffffffffffffffffffffffffffffffffffffffffffffff81146118365781811015611828576040517f08c379a000000000000000000000000000000000000000000000000000000000815260040161181f90613a3f565b60405180910390fd5b61183584848484036115e7565b5b50505050565b600073ffffffffffffffffffffffffffffffffffffffff168373ffffffffffffffffffffffffffffffffffffffff16036118ab576040517f08c379a00000000000000000000000000000000000000000000000000000000081526004016118a290613ad1565b60405180910390fd5b600073ffffffffffffffffffffffffffffffffffffffff168273ffffffffffffffffffffffffffffffffffffffff160361191a576040517f08c379a000000000000000000000000000000000000000000000000000000000815260040161191190613b63565b60405180910390fd5b611925838383612521565b6000603360008573ffffffffffffffffffffffffffffffffffffffff1673ffffffffffffffffffffffffffffffffffffffff168152602001908152602001600020549050818110156119ac576040517f08c379a00000000000000000000000000000000000000000000000000000000081526004016119a390613bf5565b60405180910390fd5b818103603360008673ffffffffffffffffffffffffffffffffffffffff1673ffffffffffffffffffffffffffffffffffffffff1681526020019081526020016000208190555081603360008573ffffffffffffffffffffffffffffffffffffffff1673ffffffffffffffffffffffffffffffffffffffff168152602001908152602001600020600082825401925050819055508273ffffffffffffffffffffffffffffffffffffffff168473ffffffffffffffffffffffffffffffffffffffff167fddf252ad1be2c89b69c2b068fc378daa952ba7f163c4a11628f55a4df523b3ef84604051611a9c919061300e565b60405180910390a3611aaf848484612526565b50505050565b611ac681611ac16115df565b61252b565b50565b611ad38282610f80565b611ba7576001610130600084815260200190815260200160002060000160008373ffffffffffffffffffffffffffffffffffffffff1673ffffffffffffffffffffffffffffffffffffffff16815260200190815260200160002060006101000a81548160ff021916908315150217905550611b4c6115df565b73ffffffffffffffffffffffffffffffffffffffff168173ffffffffffffffffffffffffffffffffffffffff16837f2f8788117e7eff1d82e926ec794901d17c78024a50270940304540a733656f0d60405160405180910390a45b5050565b6000611be67f8b73c3c69bb8fe3d512ecc4cf759cc79239f7b179b0ffacaa9a75d522b39400f611bd96125b0565b611be16125ba565b6125c4565b905090565b611bf58282610f80565b15611cca576000610130600084815260200190815260200160002060000160008373ffffffffffffffffffffffffffffffffffffffff1673ffffffffffffffffffffffffffffffffffffffff16815260200190815260200160002060006101000a81548160ff021916908315150217905550611c6f6115df565b73ffffffffffffffffffffffffffffffffffffffff168173ffffffffffffffffffffffffffffffffffffffff16837ff6391f5c32d9c69d2a47ea670b442974b53935d1edc7fd64eb21e047a839171b60405160405180910390a45b5050565b611cd66125fe565b600060cc60006101000a81548160ff0219169083151502179055507f5db9ee0a495bf2e6ff9c91a7834c1ba4fdd244a5e8aa4e537bd38aeae4b073aa611d1a6115df565b604051611d2791906131bc565b60405180910390a1565b61019460009054906101000a900473ffffffffffffffffffffffffffffffffffffffff1673ffffffffffffffffffffffffffffffffffffffff16611d736115df565b73ffffffffffffffffffffffffffffffffffffffff1614158015611ded575061019660009054906101000a900473ffffffffffffffffffffffffffffffffffffffff1673ffffffffffffffffffffffffffffffffffffffff16611dd46115df565b73ffffffffffffffffffffffffffffffffffffffff1614155b15611e24576040517f2b95bcfe00000000000000000000000000000000000000000000000000000000815260040160405180910390fd5b565b600073ffffffffffffffffffffffffffffffffffffffff168273ffffffffffffffffffffffffffffffffffffffff1603611e95576040517f08c379a0000000000000000000000000000000000000000000000000000000008152600401611e8c90613c61565b60405180910390fd5b611ea160008383612521565b8060356000828254611eb3919061347c565b9250508190555080603360008473ffffffffffffffffffffffffffffffffffffffff1673ffffffffffffffffffffffffffffffffffffffff168152602001908152602001600020600082825401925050819055508173ffffffffffffffffffffffffffffffffffffffff16600073ffffffffffffffffffffffffffffffffffffffff167fddf252ad1be2c89b69c2b068fc378daa952ba7f163c4a11628f55a4df523b3ef83604051611f65919061300e565b60405180910390a3611f7960008383612526565b5050565b600060019054906101000a900460ff16611fcc576040517f08c379a0000000000000000000000000000000000000000000000000000000008152600401611fc3906135b4565b60405180910390fd5b611fd4612647565b565b600060019054906101000a900460ff16612025576040517f08c379a000000000000000000000000000000000000000000000000000000000815260040161201c906135b4565b60405180910390fd5b565b600060019054906101000a900460ff16612076576040517f08c379a000000000000000000000000000000000000000000000000000000000815260040161206d906135b4565b60405180910390fd5b61207e6126b3565b565b60007fa49807205ce4d355092ef5a8a18f56e8913cf4a201fbe287825b095693c21775905090565b60007f65d7a28e3265b37a6474929f336521b332c1681b933f6cb9f3376673440d862a905090565b60006120db83610993565b9050816101306000858152602001908152602001600020600101819055508181847fbd79b86ffe0ab8e8776151514217cd7cacd52c909f66475c3af44e129f0b00ff60405160405180910390a4505050565b600073ffffffffffffffffffffffffffffffffffffffff168273ffffffffffffffffffffffffffffffffffffffff160361219c576040517f08c379a000000000000000000000000000000000000000000000000000000000815260040161219390613cf3565b60405180910390fd5b6121a882600083612521565b6000603360008473ffffffffffffffffffffffffffffffffffffffff1673ffffffffffffffffffffffffffffffffffffffff1681526020019081526020016000205490508181101561222f576040517f08c379a000000000000000000000000000000000000000000000000000000000815260040161222690613d85565b60405180910390fd5b818103603360008573ffffffffffffffffffffffffffffffffffffffff1673ffffffffffffffffffffffffffffffffffffffff1681526020019081526020016000208190555081603560008282540392505081905550600073ffffffffffffffffffffffffffffffffffffffff168373ffffffffffffffffffffffffffffffffffffffff167fddf252ad1be2c89b69c2b068fc378daa952ba7f163c4a11628f55a4df523b3ef846040516122e3919061300e565b60405180910390a36122f783600084612526565b505050565b600081600001549050919050565b6000808273ffffffffffffffffffffffffffffffffffffffff163b119050919050565b600060019054906101000a900460ff1661237c576040517f08c379a0000000000000000000000000000000000000000000000000000000008152600401612373906135b4565b60405180910390fd5b612386828261270d565b5050565b600060019054906101000a900460ff166123d9576040517f08c379a00000000000000000000000000000000000000000000000000000000081526004016123d0906135b4565b60405180910390fd5b612418816040518060400160405280600181526020017f3100000000000000000000000000000000000000000000000000000000000000815250612780565b50565b6124236127fb565b600160cc60006101000a81548160ff0219169083151502179055507f62e78cea01bee320cd4e420270b5ea74000d11b0c9f74754ebdbfc544b05a2586124676115df565b60405161247491906131bc565b60405180910390a1565b600080609960008473ffffffffffffffffffffffffffffffffffffffff1673ffffffffffffffffffffffffffffffffffffffff16815260200190815260200160002090506124cb816122fc565b91506124d681612845565b50919050565b60006124ef6124e9611bab565b8361285b565b9050919050565b60008060006125078787878761288e565b9150915061251481612970565b8192505050949350505050565b505050565b505050565b6125358282610f80565b6125ac5761254281612ad6565b6125508360001c6020612b03565b604051602001612561929190613e79565b6040516020818303038152906040526040517f08c379a00000000000000000000000000000000000000000000000000000000081526004016125a39190612e8f565b60405180910390fd5b5050565b6000606554905090565b6000606654905090565b600083838346306040516020016125df959493929190613eb3565b6040516020818303038152906040528051906020012090509392505050565b612606610b16565b612645576040517f08c379a000000000000000000000000000000000000000000000000000000000815260040161263c90613f52565b60405180910390fd5b565b600060019054906101000a900460ff16612696576040517f08c379a000000000000000000000000000000000000000000000000000000000815260040161268d906135b4565b60405180910390fd5b600060cc60006101000a81548160ff021916908315150217905550565b600060019054906101000a900460ff16612702576040517f08c379a00000000000000000000000000000000000000000000000000000000081526004016126f9906135b4565b60405180910390fd5b600161016281905550565b600060019054906101000a900460ff1661275c576040517f08c379a0000000000000000000000000000000000000000000000000000000008152600401612753906135b4565b60405180910390fd5b816036908161276b9190614143565b50806037908161277b9190614143565b505050565b600060019054906101000a900460ff166127cf576040517f08c379a00000000000000000000000000000000000000000000000000000000081526004016127c6906135b4565b60405180910390fd5b600082805190602001209050600082805190602001209050816065819055508060668190555050505050565b612803610b16565b15612843576040517f08c379a000000000000000000000000000000000000000000000000000000000815260040161283a90614261565b60405180910390fd5b565b6001816000016000828254019250508190555050565b600082826040516020016128709291906142ee565b60405160208183030381529060405280519060200120905092915050565b6000807f7fffffffffffffffffffffffffffffff5d576e7357a4501ddfe92f46681b20a08360001c11156128c9576000600391509150612967565b6000600187878787604051600081526020016040526040516128ee9493929190614325565b6020604051602081039080840390855afa158015612910573d6000803e3d6000fd5b505050602060405103519050600073ffffffffffffffffffffffffffffffffffffffff168173ffffffffffffffffffffffffffffffffffffffff160361295e57600060019250925050612967565b80600092509250505b94509492505050565b600060048111156129845761298361436a565b5b8160048111156129975761299661436a565b5b0315612ad357600160048111156129b1576129b061436a565b5b8160048111156129c4576129c361436a565b5b03612a04576040517f08c379a00000000000000000000000000000000000000000000000000000000081526004016129fb906143e5565b60405180910390fd5b60026004811115612a1857612a1761436a565b5b816004811115612a2b57612a2a61436a565b5b03612a6b576040517f08c379a0000000000000000000000000000000000000000000000000000000008152600401612a6290614451565b60405180910390fd5b60036004811115612a7f57612a7e61436a565b5b816004811115612a9257612a9161436a565b5b03612ad2576040517f08c379a0000000000000000000000000000000000000000000000000000000008152600401612ac9906144e3565b60405180910390fd5b5b50565b6060612afc8273ffffffffffffffffffffffffffffffffffffffff16601460ff16612b03565b9050919050565b606060006002836002612b169190614503565b612b20919061347c565b67ffffffffffffffff811115612b3957612b38613f72565b5b6040519080825280601f01601f191660200182016040528015612b6b5781602001600182028036833780820191505090505b5090507f300000000000000000000000000000000000000000000000000000000000000081600081518110612ba357612ba261455d565b5b60200101907effffffffffffffffffffffffffffffffffffffffffffffffffffffffffffff1916908160001a9053507f780000000000000000000000000000000000000000000000000000000000000081600181518110612c0757612c0661455d565b5b60200101907effffffffffffffffffffffffffffffffffffffffffffffffffffffffffffff1916908160001a90535060006001846002612c479190614503565b612c51919061347c565b90505b6001811115612cf1577f3031323334353637383961626364656600000000000000000000000000000000600f861660108110612c9357612c9261455d565b5b1a60f81b828281518110612caa57612ca961455d565b5b60200101907effffffffffffffffffffffffffffffffffffffffffffffffffffffffffffff1916908160001a905350600485901c945080612cea9061458c565b9050612c54565b5060008414612d35576040517f08c379a0000000000000000000000000000000000000000000000000000000008152600401612d2c90614601565b60405180910390fd5b8091505092915050565b600080fd5b60007fffffffff0000000000000000000000000000000000000000000000000000000082169050919050565b612d7981612d44565b8114612d8457600080fd5b50565b600081359050612d9681612d70565b92915050565b600060208284031215612db257612db1612d3f565b5b6000612dc084828501612d87565b91505092915050565b60008115159050919050565b612dde81612dc9565b82525050565b6000602082019050612df96000830184612dd5565b92915050565b600081519050919050565b600082825260208201905092915050565b60005b83811015612e39578082015181840152602081019050612e1e565b60008484015250505050565b6000601f19601f8301169050919050565b6000612e6182612dff565b612e6b8185612e0a565b9350612e7b818560208601612e1b565b612e8481612e45565b840191505092915050565b60006020820190508181036000830152612ea98184612e56565b905092915050565b600073ffffffffffffffffffffffffffffffffffffffff82169050919050565b6000819050919050565b6000612ef6612ef1612eec84612eb1565b612ed1565b612eb1565b9050919050565b6000612f0882612edb565b9050919050565b6000612f1a82612efd565b9050919050565b612f2a81612f0f565b82525050565b6000602082019050612f456000830184612f21565b92915050565b6000612f5682612eb1565b9050919050565b612f6681612f4b565b8114612f7157600080fd5b50565b600081359050612f8381612f5d565b92915050565b6000819050919050565b612f9c81612f89565b8114612fa757600080fd5b50565b600081359050612fb981612f93565b92915050565b60008060408385031215612fd657612fd5612d3f565b5b6000612fe485828601612f74565b9250506020612ff585828601612faa565b9150509250929050565b61300881612f89565b82525050565b60006020820190506130236000830184612fff565b92915050565b60008060006060848603121561304257613041612d3f565b5b600061305086828701612f74565b935050602061306186828701612f74565b925050604061307286828701612faa565b9150509250925092565b6000819050919050565b61308f8161307c565b811461309a57600080fd5b50565b6000813590506130ac81613086565b92915050565b6000602082840312156130c8576130c7612d3f565b5b60006130d68482850161309d565b91505092915050565b6130e88161307c565b82525050565b600060208201905061310360008301846130df565b92915050565b600080604083850312156131205761311f612d3f565b5b600061312e8582860161309d565b925050602061313f85828601612f74565b9150509250929050565b600060ff82169050919050565b61315f81613149565b82525050565b600060208201905061317a6000830184613156565b92915050565b60006020828403121561319657613195612d3f565b5b60006131a484828501612f74565b91505092915050565b6131b681612f4b565b82525050565b60006020820190506131d160008301846131ad565b92915050565b6131e081613149565b81146131eb57600080fd5b50565b6000813590506131fd816131d7565b92915050565b600080600080600080600060e0888a03121561322257613221612d3f565b5b60006132308a828b01612f74565b97505060206132418a828b01612f74565b96505060406132528a828b01612faa565b95505060606132638a828b01612faa565b94505060806132748a828b016131ee565b93505060a06132858a828b0161309d565b92505060c06132968a828b0161309d565b91505092959891949750929550565b600080604083850312156132bc576132bb612d3f565b5b60006132ca85828601612f74565b92505060206132db85828601612f74565b9150509250929050565b7f4e487b7100000000000000000000000000000000000000000000000000000000600052602260045260246000fd5b6000600282049050600182168061332c57607f821691505b60208210810361333f5761333e6132e5565b5b50919050565b60008151905061335481612f93565b92915050565b6000602082840312156133705761336f612d3f565b5b600061337e84828501613345565b91505092915050565b7f4e487b7100000000000000000000000000000000000000000000000000000000600052601160045260246000fd5b60006133c182612f89565b91506133cc83612f89565b92508282039050818111156133e4576133e3613387565b5b92915050565b7f416363657373436f6e74726f6c3a2063616e206f6e6c792072656e6f756e636560008201527f20726f6c657320666f722073656c660000000000000000000000000000000000602082015250565b6000613446602f83612e0a565b9150613451826133ea565b604082019050919050565b6000602082019050818103600083015261347581613439565b9050919050565b600061348782612f89565b915061349283612f89565b92508282019050808211156134aa576134a9613387565b5b92915050565b7f4d75737420686176652061646d696e20726f6c6520746f20706572666f726d2060008201527f7468697320616374696f6e2e0000000000000000000000000000000000000000602082015250565b600061350c602c83612e0a565b9150613517826134b0565b604082019050919050565b6000602082019050818103600083015261353b816134ff565b9050919050565b7f496e697469616c697a61626c653a20636f6e7472616374206973206e6f74206960008201527f6e697469616c697a696e67000000000000000000000000000000000000000000602082015250565b600061359e602b83612e0a565b91506135a982613542565b604082019050919050565b600060208201905081810360008301526135cd81613591565b9050919050565b7f496e697469616c697a61626c653a20636f6e747261637420697320616c72656160008201527f647920696e697469616c697a6564000000000000000000000000000000000000602082015250565b6000613630602e83612e0a565b915061363b826135d4565b604082019050919050565b6000602082019050818103600083015261365f81613623565b9050919050565b6000819050919050565b600061368b61368661368184613666565b612ed1565b613149565b9050919050565b61369b81613670565b82525050565b60006020820190506136b66000830184613692565b92915050565b7f45524332303a2064656372656173656420616c6c6f77616e63652062656c6f7760008201527f207a65726f000000000000000000000000000000000000000000000000000000602082015250565b6000613718602583612e0a565b9150613723826136bc565b604082019050919050565b600060208201905081810360008301526137478161370b565b9050919050565b7f45524332305065726d69743a206578706972656420646561646c696e65000000600082015250565b6000613784601d83612e0a565b915061378f8261374e565b602082019050919050565b600060208201905081810360008301526137b381613777565b9050919050565b600060c0820190506137cf60008301896130df565b6137dc60208301886131ad565b6137e960408301876131ad565b6137f66060830186612fff565b6138036080830185612fff565b61381060a0830184612fff565b979650505050505050565b7f45524332305065726d69743a20696e76616c6964207369676e61747572650000600082015250565b6000613851601e83612e0a565b915061385c8261381b565b602082019050919050565b6000602082019050818103600083015261388081613844565b9050919050565b600061389282612f89565b91507fffffffffffffffffffffffffffffffffffffffffffffffffffffffffffffffff82036138c4576138c3613387565b5b600182019050919050565b7f45524332303a20617070726f76652066726f6d20746865207a65726f2061646460008201527f7265737300000000000000000000000000000000000000000000000000000000602082015250565b600061392b602483612e0a565b9150613936826138cf565b604082019050919050565b6000602082019050818103600083015261395a8161391e565b9050919050565b7f45524332303a20617070726f766520746f20746865207a65726f20616464726560008201527f7373000000000000000000000000000000000000000000000000000000000000602082015250565b60006139bd602283612e0a565b91506139c882613961565b604082019050919050565b600060208201905081810360008301526139ec816139b0565b9050919050565b7f45524332303a20696e73756666696369656e7420616c6c6f77616e6365000000600082015250565b6000613a29601d83612e0a565b9150613a34826139f3565b602082019050919050565b60006020820190508181036000830152613a5881613a1c565b9050919050565b7f45524332303a207472616e736665722066726f6d20746865207a65726f20616460008201527f6472657373000000000000000000000000000000000000000000000000000000602082015250565b6000613abb602583612e0a565b9150613ac682613a5f565b604082019050919050565b60006020820190508181036000830152613aea81613aae565b9050919050565b7f45524332303a207472616e7366657220746f20746865207a65726f206164647260008201527f6573730000000000000000000000000000000000000000000000000000000000602082015250565b6000613b4d602383612e0a565b9150613b5882613af1565b604082019050919050565b60006020820190508181036000830152613b7c81613b40565b9050919050565b7f45524332303a207472616e7366657220616d6f756e742065786365656473206260008201527f616c616e63650000000000000000000000000000000000000000000000000000602082015250565b6000613bdf602683612e0a565b9150613bea82613b83565b604082019050919050565b60006020820190508181036000830152613c0e81613bd2565b9050919050565b7f45524332303a206d696e7420746f20746865207a65726f206164647265737300600082015250565b6000613c4b601f83612e0a565b9150613c5682613c15565b602082019050919050565b60006020820190508181036000830152613c7a81613c3e565b9050919050565b7f45524332303a206275726e2066726f6d20746865207a65726f2061646472657360008201527f7300000000000000000000000000000000000000000000000000000000000000602082015250565b6000613cdd602183612e0a565b9150613ce882613c81565b604082019050919050565b60006020820190508181036000830152613d0c81613cd0565b9050919050565b7f45524332303a206275726e20616d6f756e7420657863656564732062616c616e60008201527f6365000000000000000000000000000000000000000000000000000000000000602082015250565b6000613d6f602283612e0a565b9150613d7a82613d13565b604082019050919050565b60006020820190508181036000830152613d9e81613d62565b9050919050565b600081905092915050565b7f416363657373436f6e74726f6c3a206163636f756e7420000000000000000000600082015250565b6000613de6601783613da5565b9150613df182613db0565b601782019050919050565b6000613e0782612dff565b613e118185613da5565b9350613e21818560208601612e1b565b80840191505092915050565b7f206973206d697373696e6720726f6c6520000000000000000000000000000000600082015250565b6000613e63601183613da5565b9150613e6e82613e2d565b601182019050919050565b6000613e8482613dd9565b9150613e908285613dfc565b9150613e9b82613e56565b9150613ea78284613dfc565b91508190509392505050565b600060a082019050613ec860008301886130df565b613ed560208301876130df565b613ee260408301866130df565b613eef6060830185612fff565b613efc60808301846131ad565b9695505050505050565b7f5061757361626c653a206e6f7420706175736564000000000000000000000000600082015250565b6000613f3c601483612e0a565b9150613f4782613f06565b602082019050919050565b60006020820190508181036000830152613f6b81613f2f565b9050919050565b7f4e487b7100000000000000000000000000000000000000000000000000000000600052604160045260246000fd5b60008190508160005260206000209050919050565b60006020601f8301049050919050565b600082821b905092915050565b6000600883026140037fffffffffffffffffffffffffffffffffffffffffffffffffffffffffffffffff82613fc6565b61400d8683613fc6565b95508019841693508086168417925050509392505050565b600061404061403b61403684612f89565b612ed1565b612f89565b9050919050565b6000819050919050565b61405a83614025565b61406e61406682614047565b848454613fd3565b825550505050565b600090565b614083614076565b61408e818484614051565b505050565b5b818110156140b2576140a760008261407b565b600181019050614094565b5050565b601f8211156140f7576140c881613fa1565b6140d184613fb6565b810160208510156140e0578190505b6140f46140ec85613fb6565b830182614093565b50505b505050565b600082821c905092915050565b600061411a600019846008026140fc565b1980831691505092915050565b60006141338383614109565b9150826002028217905092915050565b61414c82612dff565b67ffffffffffffffff81111561416557614164613f72565b5b61416f8254613314565b61417a8282856140b6565b600060209050601f8311600181146141ad576000841561419b578287015190505b6141a58582614127565b86555061420d565b601f1984166141bb86613fa1565b60005b828110156141e3578489015182556001820191506020850194506020810190506141be565b8683101561420057848901516141fc601f891682614109565b8355505b6001600288020188555050505b505050505050565b7f5061757361626c653a2070617573656400000000000000000000000000000000600082015250565b600061424b601083612e0a565b915061425682614215565b602082019050919050565b6000602082019050818103600083015261427a8161423e565b9050919050565b7f1901000000000000000000000000000000000000000000000000000000000000600082015250565b60006142b7600283613da5565b91506142c282614281565b600282019050919050565b6000819050919050565b6142e86142e38261307c565b6142cd565b82525050565b60006142f9826142aa565b915061430582856142d7565b60208201915061431582846142d7565b6020820191508190509392505050565b600060808201905061433a60008301876130df565b6143476020830186613156565b61435460408301856130df565b61436160608301846130df565b95945050505050565b7f4e487b7100000000000000000000000000000000000000000000000000000000600052602160045260246000fd5b7f45434453413a20696e76616c6964207369676e61747572650000000000000000600082015250565b60006143cf601883612e0a565b91506143da82614399565b602082019050919050565b600060208201905081810360008301526143fe816143c2565b9050919050565b7f45434453413a20696e76616c6964207369676e6174757265206c656e67746800600082015250565b600061443b601f83612e0a565b915061444682614405565b602082019050919050565b6000602082019050818103600083015261446a8161442e565b9050919050565b7f45434453413a20696e76616c6964207369676e6174757265202773272076616c60008201527f7565000000000000000000000000000000000000000000000000000000000000602082015250565b60006144cd602283612e0a565b91506144d882614471565b604082019050919050565b600060208201905081810360008301526144fc816144c0565b9050919050565b600061450e82612f89565b915061451983612f89565b9250817fffffffffffffffffffffffffffffffffffffffffffffffffffffffffffffffff048311821515161561455257614551613387565b5b828202905092915050565b7f4e487b7100000000000000000000000000000000000000000000000000000000600052603260045260246000fd5b600061459782612f89565b9150600082036145aa576145a9613387565b5b600182039050919050565b7f537472696e67733a20686578206c656e67746820696e73756666696369656e74600082015250565b60006145eb602083612e0a565b91506145f6826145b5565b602082019050919050565b6000602082019050818103600083015261461a816145de565b905091905056fea264697066735822122093d4910333f8ebc8cecf21adcd135dbf9e4bb9a7b3cb7339f2a1d5eed3b76be664736f6c63430008100033",
  "linkReferences": {},
  "deployedLinkReferences": {}
}