{
  "_format": "hh-sol-artifact-1",
  "contractName": "MockDAI",
  "sourceName": "contracts/core/token/MockDAI.sol",
  "abi": [
    {
      "inputs": [],
      "name": "BaseUpgradeablePausable__ZeroAddressError",
      "type": "error"
    },
    {
      "anonymous": false,
      "inputs": [
        {
          "indexed": true,
          "internalType": "address",
          "name": "owner",
          "type": "address"
        },
        {
          "indexed": true,
          "internalType": "address",
          "name": "spender",
          "type": "address"
        },
        {
          "indexed": false,
          "internalType": "uint256",
          "name": "value",
          "type": "uint256"
        }
      ],
      "name": "Approval",
      "type": "event"
    },
    {
      "anonymous": false,
      "inputs": [
        {
          "indexed": false,
          "internalType": "uint8",
          "name": "version",
          "type": "uint8"
        }
      ],
      "name": "Initialized",
      "type": "event"
    },
    {
      "anonymous": false,
      "inputs": [
        {
          "indexed": false,
          "internalType": "address",
          "name": "account",
          "type": "address"
        }
      ],
      "name": "Paused",
      "type": "event"
    },
    {
      "anonymous": false,
      "inputs": [
        {
          "indexed": true,
          "internalType": "bytes32",
          "name": "role",
          "type": "bytes32"
        },
        {
          "indexed": true,
          "internalType": "bytes32",
          "name": "previousAdminRole",
          "type": "bytes32"
        },
        {
          "indexed": true,
          "internalType": "bytes32",
          "name": "newAdminRole",
          "type": "bytes32"
        }
      ],
      "name": "RoleAdminChanged",
      "type": "event"
    },
    {
      "anonymous": false,
      "inputs": [
        {
          "indexed": true,
          "internalType": "bytes32",
          "name": "role",
          "type": "bytes32"
        },
        {
          "indexed": true,
          "internalType": "address",
          "name": "account",
          "type": "address"
        },
        {
          "indexed": true,
          "internalType": "address",
          "name": "sender",
          "type": "address"
        }
      ],
      "name": "RoleGranted",
      "type": "event"
    },
    {
      "anonymous": false,
      "inputs": [
        {
          "indexed": true,
          "internalType": "bytes32",
          "name": "role",
          "type": "bytes32"
        },
        {
          "indexed": true,
          "internalType": "address",
          "name": "account",
          "type": "address"
        },
        {
          "indexed": true,
          "internalType": "address",
          "name": "sender",
          "type": "address"
        }
      ],
      "name": "RoleRevoked",
      "type": "event"
    },
    {
      "anonymous": false,
      "inputs": [
        {
          "indexed": true,
          "internalType": "address",
          "name": "from",
          "type": "address"
        },
        {
          "indexed": true,
          "internalType": "address",
          "name": "to",
          "type": "address"
        },
        {
          "indexed": false,
          "internalType": "uint256",
          "name": "value",
          "type": "uint256"
        }
      ],
      "name": "Transfer",
      "type": "event"
    },
    {
      "anonymous": false,
      "inputs": [
        {
          "indexed": false,
          "internalType": "address",
          "name": "account",
          "type": "address"
        }
      ],
      "name": "Unpaused",
      "type": "event"
    },
    {
      "inputs": [],
      "name": "DEFAULT_ADMIN_ROLE",
      "outputs": [
        {
          "internalType": "bytes32",
          "name": "",
          "type": "bytes32"
        }
      ],
      "stateMutability": "view",
      "type": "function"
    },
    {
      "inputs": [],
      "name": "DOMAIN_SEPARATOR",
      "outputs": [
        {
          "internalType": "bytes32",
          "name": "",
          "type": "bytes32"
        }
      ],
      "stateMutability": "view",
      "type": "function"
    },
    {
      "inputs": [
        {
          "internalType": "address",
          "name": "owner",
          "type": "address"
        }
      ],
      "name": "__BaseUpgradeablePausable_init",
      "outputs": [],
      "stateMutability": "nonpayable",
      "type": "function"
    },
    {
      "inputs": [
        {
          "internalType": "address",
          "name": "owner",
          "type": "address"
        },
        {
          "internalType": "address",
          "name": "spender",
          "type": "address"
        }
      ],
      "name": "allowance",
      "outputs": [
        {
          "internalType": "uint256",
          "name": "",
          "type": "uint256"
        }
      ],
      "stateMutability": "view",
      "type": "function"
    },
    {
      "inputs": [
        {
          "internalType": "address",
          "name": "spender",
          "type": "address"
        },
        {
          "internalType": "uint256",
          "name": "amount",
          "type": "uint256"
        }
      ],
      "name": "approve",
      "outputs": [
        {
          "internalType": "bool",
          "name": "",
          "type": "bool"
        }
      ],
      "stateMutability": "nonpayable",
      "type": "function"
    },
    {
      "inputs": [
        {
          "internalType": "address",
          "name": "account",
          "type": "address"
        }
      ],
      "name": "balanceOf",
      "outputs": [
        {
          "internalType": "uint256",
          "name": "",
          "type": "uint256"
        }
      ],
      "stateMutability": "view",
      "type": "function"
    },
    {
      "inputs": [
        {
          "internalType": "address",
          "name": "account",
          "type": "address"
        },
        {
          "internalType": "uint256",
          "name": "amount",
          "type": "uint256"
        }
      ],
      "name": "burnFrom",
      "outputs": [
        {
          "internalType": "bool",
          "name": "",
          "type": "bool"
        }
      ],
      "stateMutability": "nonpayable",
      "type": "function"
    },
    {
      "inputs": [],
      "name": "decimals",
      "outputs": [
        {
          "internalType": "uint8",
          "name": "",
          "type": "uint8"
        }
      ],
      "stateMutability": "view",
      "type": "function"
    },
    {
      "inputs": [
        {
          "internalType": "address",
          "name": "spender",
          "type": "address"
        },
        {
          "internalType": "uint256",
          "name": "subtractedValue",
          "type": "uint256"
        }
      ],
      "name": "decreaseAllowance",
      "outputs": [
        {
          "internalType": "bool",
          "name": "",
          "type": "bool"
        }
      ],
      "stateMutability": "nonpayable",
      "type": "function"
    },
    {
      "inputs": [
        {
          "internalType": "bytes32",
          "name": "role",
          "type": "bytes32"
        }
      ],
      "name": "getRoleAdmin",
      "outputs": [
        {
          "internalType": "bytes32",
          "name": "",
          "type": "bytes32"
        }
      ],
      "stateMutability": "view",
      "type": "function"
    },
    {
      "inputs": [
        {
          "internalType": "bytes32",
          "name": "role",
          "type": "bytes32"
        },
        {
          "internalType": "address",
          "name": "account",
          "type": "address"
        }
      ],
      "name": "grantRole",
      "outputs": [],
      "stateMutability": "nonpayable",
      "type": "function"
    },
    {
      "inputs": [
        {
          "internalType": "bytes32",
          "name": "role",
          "type": "bytes32"
        },
        {
          "internalType": "address",
          "name": "account",
          "type": "address"
        }
      ],
      "name": "hasRole",
      "outputs": [
        {
          "internalType": "bool",
          "name": "",
          "type": "bool"
        }
      ],
      "stateMutability": "view",
      "type": "function"
    },
    {
      "inputs": [
        {
          "internalType": "address",
          "name": "spender",
          "type": "address"
        },
        {
          "internalType": "uint256",
          "name": "addedValue",
          "type": "uint256"
        }
      ],
      "name": "increaseAllowance",
      "outputs": [
        {
          "internalType": "bool",
          "name": "",
          "type": "bool"
        }
      ],
      "stateMutability": "nonpayable",
      "type": "function"
    },
    {
      "inputs": [
        {
          "internalType": "string",
          "name": "name_",
          "type": "string"
        },
        {
          "internalType": "string",
          "name": "symbol_",
          "type": "string"
        }
      ],
      "name": "initialize",
      "outputs": [],
      "stateMutability": "nonpayable",
      "type": "function"
    },
    {
      "inputs": [],
      "name": "isAdmin",
      "outputs": [
        {
          "internalType": "bool",
          "name": "",
          "type": "bool"
        }
      ],
      "stateMutability": "view",
      "type": "function"
    },
    {
      "inputs": [
        {
          "internalType": "address",
          "name": "to",
          "type": "address"
        },
        {
          "internalType": "uint256",
          "name": "amount",
          "type": "uint256"
        }
      ],
      "name": "mint",
      "outputs": [
        {
          "internalType": "bool",
          "name": "",
          "type": "bool"
        }
      ],
      "stateMutability": "nonpayable",
      "type": "function"
    },
    {
      "inputs": [],
      "name": "name",
      "outputs": [
        {
          "internalType": "string",
          "name": "",
          "type": "string"
        }
      ],
      "stateMutability": "view",
      "type": "function"
    },
    {
      "inputs": [
        {
          "internalType": "address",
          "name": "owner",
          "type": "address"
        }
      ],
      "name": "nonces",
      "outputs": [
        {
          "internalType": "uint256",
          "name": "",
          "type": "uint256"
        }
      ],
      "stateMutability": "view",
      "type": "function"
    },
    {
      "inputs": [],
      "name": "paused",
      "outputs": [
        {
          "internalType": "bool",
          "name": "",
          "type": "bool"
        }
      ],
      "stateMutability": "view",
      "type": "function"
    },
    {
      "inputs": [
        {
          "internalType": "address",
          "name": "owner",
          "type": "address"
        },
        {
          "internalType": "address",
          "name": "spender",
          "type": "address"
        },
        {
          "internalType": "uint256",
          "name": "value",
          "type": "uint256"
        },
        {
          "internalType": "uint256",
          "name": "deadline",
          "type": "uint256"
        },
        {
          "internalType": "uint8",
          "name": "v",
          "type": "uint8"
        },
        {
          "internalType": "bytes32",
          "name": "r",
          "type": "bytes32"
        },
        {
          "internalType": "bytes32",
          "name": "s",
          "type": "bytes32"
        }
      ],
      "name": "permit",
      "outputs": [],
      "stateMutability": "nonpayable",
      "type": "function"
    },
    {
      "inputs": [
        {
          "internalType": "bytes32",
          "name": "role",
          "type": "bytes32"
        },
        {
          "internalType": "address",
          "name": "account",
          "type": "address"
        }
      ],
      "name": "renounceRole",
      "outputs": [],
      "stateMutability": "nonpayable",
      "type": "function"
    },
    {
      "inputs": [
        {
          "internalType": "bytes32",
          "name": "role",
          "type": "bytes32"
        },
        {
          "internalType": "address",
          "name": "account",
          "type": "address"
        }
      ],
      "name": "revokeRole",
      "outputs": [],
      "stateMutability": "nonpayable",
      "type": "function"
    },
    {
      "inputs": [
        {
          "internalType": "bytes4",
          "name": "interfaceId",
          "type": "bytes4"
        }
      ],
      "name": "supportsInterface",
      "outputs": [
        {
          "internalType": "bool",
          "name": "",
          "type": "bool"
        }
      ],
      "stateMutability": "view",
      "type": "function"
    },
    {
      "inputs": [],
      "name": "symbol",
      "outputs": [
        {
          "internalType": "string",
          "name": "",
          "type": "string"
        }
      ],
      "stateMutability": "view",
      "type": "function"
    },
    {
      "inputs": [],
      "name": "totalSupply",
      "outputs": [
        {
          "internalType": "uint256",
          "name": "",
          "type": "uint256"
        }
      ],
      "stateMutability": "view",
      "type": "function"
    },
    {
      "inputs": [
        {
          "internalType": "address",
          "name": "to",
          "type": "address"
        },
        {
          "internalType": "uint256",
          "name": "amount",
          "type": "uint256"
        }
      ],
      "name": "transfer",
      "outputs": [
        {
          "internalType": "bool",
          "name": "",
          "type": "bool"
        }
      ],
      "stateMutability": "nonpayable",
      "type": "function"
    },
    {
      "inputs": [
        {
          "internalType": "address",
          "name": "from",
          "type": "address"
        },
        {
          "internalType": "address",
          "name": "to",
          "type": "address"
        },
        {
          "internalType": "uint256",
          "name": "amount",
          "type": "uint256"
        }
      ],
      "name": "transferFrom",
      "outputs": [
        {
          "internalType": "bool",
          "name": "",
          "type": "bool"
        }
      ],
      "stateMutability": "nonpayable",
      "type": "function"
    }
  ],
  "bytecode": "0x608060405234801561001057600080fd5b50613ccf806100206000396000f3fe608060405234801561001057600080fd5b50600436106101a95760003560e01c80635c975abb116100f9578063a217fddf11610097578063b6db75a011610071578063b6db75a014610530578063d505accf1461054e578063d547741f1461056a578063dd62ed3e14610586576101a9565b8063a217fddf146104b2578063a457c2d7146104d0578063a9059cbb14610500576101a9565b806379cc6790116100d357806379cc6790146104045780637ecebe001461043457806391d148541461046457806395d89b4114610494576101a9565b80635c975abb1461039a5780636e810b1a146103b857806370a08231146103d4576101a9565b80632f2ff15d1161016657806336568abe1161014057806336568abe14610302578063395093511461031e57806340c10f191461034e5780634cd88b761461037e576101a9565b80632f2ff15d146102aa578063313ce567146102c65780633644e515146102e4576101a9565b806301ffc9a7146101ae57806306fdde03146101de578063095ea7b3146101fc57806318160ddd1461022c57806323b872dd1461024a578063248a9ca31461027a575b600080fd5b6101c860048036038101906101c39190612549565b6105b6565b6040516101d59190612591565b60405180910390f35b6101e6610630565b6040516101f3919061263c565b60405180910390f35b610216600480360381019061021191906126f2565b6106c2565b6040516102239190612591565b60405180910390f35b6102346106e5565b6040516102419190612741565b60405180910390f35b610264600480360381019061025f919061275c565b6106ef565b6040516102719190612591565b60405180910390f35b610294600480360381019061028f91906127e5565b61071e565b6040516102a19190612821565b60405180910390f35b6102c460048036038101906102bf919061283c565b61073f565b005b6102ce610760565b6040516102db9190612898565b60405180910390f35b6102ec610769565b6040516102f99190612821565b60405180910390f35b61031c6004803603810190610317919061283c565b610778565b005b610338600480360381019061033391906126f2565b6107fb565b6040516103459190612591565b60405180910390f35b610368600480360381019061036391906126f2565b610832565b6040516103759190612591565b60405180910390f35b610398600480360381019061039391906129e8565b610848565b005b6103a26109bf565b6040516103af9190612591565b60405180910390f35b6103d260048036038101906103cd9190612a60565b6109d6565b005b6103ee60048036038101906103e99190612a60565b610af8565b6040516103fb9190612741565b60405180910390f35b61041e600480360381019061041991906126f2565b610b41565b60405161042b9190612591565b60405180910390f35b61044e60048036038101906104499190612a60565b610b69565b60405161045b9190612741565b60405180910390f35b61047e6004803603810190610479919061283c565b610bb9565b60405161048b9190612591565b60405180910390f35b61049c610c25565b6040516104a9919061263c565b60405180910390f35b6104ba610cb7565b6040516104c79190612821565b60405180910390f35b6104ea60048036038101906104e591906126f2565b610cbe565b6040516104f79190612591565b60405180910390f35b61051a600480360381019061051591906126f2565b610d35565b6040516105279190612591565b60405180910390f35b610538610d58565b6040516105459190612591565b60405180910390f35b61056860048036038101906105639190612ab9565b610d77565b005b610584600480360381019061057f919061283c565b610eb9565b005b6105a0600480360381019061059b9190612b5b565b610eda565b6040516105ad9190612741565b60405180910390f35b60007f7965db0b000000000000000000000000000000000000000000000000000000007bffffffffffffffffffffffffffffffffffffffffffffffffffffffff1916827bffffffffffffffffffffffffffffffffffffffffffffffffffffffff19161480610629575061062882610f61565b5b9050919050565b60606036805461063f90612bca565b80601f016020809104026020016040519081016040528092919081815260200182805461066b90612bca565b80156106b85780601f1061068d576101008083540402835291602001916106b8565b820191906000526020600020905b81548152906001019060200180831161069b57829003601f168201915b5050505050905090565b6000806106cd610fcb565b90506106da818585610fd3565b600191505092915050565b6000603554905090565b6000806106fa610fcb565b905061070785828561119c565b610712858585611228565b60019150509392505050565b60006101306000838152602001908152602001600020600101549050919050565b6107488261071e565b610751816114a1565b61075b83836114b5565b505050565b60006012905090565b6000610773611597565b905090565b610780610fcb565b73ffffffffffffffffffffffffffffffffffffffff168173ffffffffffffffffffffffffffffffffffffffff16146107ed576040517f08c379a00000000000000000000000000000000000000000000000000000000081526004016107e490612c6d565b60405180910390fd5b6107f782826115d7565b5050565b600080610806610fcb565b90506108278185856108188589610eda565b6108229190612cbc565b610fd3565b600191505092915050565b600061083e83836116ba565b6001905092915050565b60008060019054906101000a900460ff161590508080156108795750600160008054906101000a900460ff1660ff16105b806108a6575061088830611811565b1580156108a55750600160008054906101000a900460ff1660ff16145b5b6108e5576040517f08c379a00000000000000000000000000000000000000000000000000000000081526004016108dc90612d62565b60405180910390fd5b60016000806101000a81548160ff021916908360ff1602179055508015610922576001600060016101000a81548160ff0219169083151502179055505b61092c8383611834565b61093582611891565b610945610940610fcb565b6109d6565b610961610950610fcb565b6a52b7d2dcc80cd2e40000006116ba565b80156109ba5760008060016101000a81548160ff0219169083151502179055507f7f26b83ff96e1f2b6a682f133852f6798a09c465da95921460cefb384740249860016040516109b19190612dc7565b60405180910390a15b505050565b600060cc60009054906101000a900460ff16905090565b600060019054906101000a900460ff16610a25576040517f08c379a0000000000000000000000000000000000000000000000000000000008152600401610a1c90612e54565b60405180910390fd5b600073ffffffffffffffffffffffffffffffffffffffff168173ffffffffffffffffffffffffffffffffffffffff1603610a8b576040517f5415139400000000000000000000000000000000000000000000000000000000815260040160405180910390fd5b610a93611922565b610a9b61197b565b610aa36119cc565b610ab4610aae611a25565b826114b5565b610ac5610abf611a4d565b826114b5565b610add610ad0611a4d565b610ad8611a25565b611a75565b610af5610ae8611a25565b610af0611a25565b611a75565b50565b6000603360008373ffffffffffffffffffffffffffffffffffffffff1673ffffffffffffffffffffffffffffffffffffffff168152602001908152602001600020549050919050565b6000610b5583610b4f610fcb565b8461119c565b610b5f8383611ad2565b6001905092915050565b6000610bb2609960008473ffffffffffffffffffffffffffffffffffffffff1673ffffffffffffffffffffffffffffffffffffffff168152602001908152602001600020611ca1565b9050919050565b6000610130600084815260200190815260200160002060000160008373ffffffffffffffffffffffffffffffffffffffff1673ffffffffffffffffffffffffffffffffffffffff16815260200190815260200160002060009054906101000a900460ff16905092915050565b606060378054610c3490612bca565b80601f0160208091040260200160405190810160405280929190818152602001828054610c6090612bca565b8015610cad5780601f10610c8257610100808354040283529160200191610cad565b820191906000526020600020905b815481529060010190602001808311610c9057829003601f168201915b5050505050905090565b6000801b81565b600080610cc9610fcb565b90506000610cd78286610eda565b905083811015610d1c576040517f08c379a0000000000000000000000000000000000000000000000000000000008152600401610d1390612ee6565b60405180910390fd5b610d298286868403610fd3565b60019250505092915050565b600080610d40610fcb565b9050610d4d818585611228565b600191505092915050565b6000610d72610d65611a25565b610d6d610fcb565b610bb9565b905090565b83421115610dba576040517f08c379a0000000000000000000000000000000000000000000000000000000008152600401610db190612f52565b60405180910390fd5b60007f6e71edae12b1b97f4d1f60370fef10105fa2faae0126114a169c64845d6126c9888888610de98c611caf565b89604051602001610dff96959493929190612f81565b6040516020818303038152906040528051906020012090506000610e2282611d0d565b90506000610e3282878787611d27565b90508973ffffffffffffffffffffffffffffffffffffffff168173ffffffffffffffffffffffffffffffffffffffff1614610ea2576040517f08c379a0000000000000000000000000000000000000000000000000000000008152600401610e999061302e565b60405180910390fd5b610ead8a8a8a610fd3565b50505050505050505050565b610ec28261071e565b610ecb816114a1565b610ed583836115d7565b505050565b6000603460008473ffffffffffffffffffffffffffffffffffffffff1673ffffffffffffffffffffffffffffffffffffffff16815260200190815260200160002060008373ffffffffffffffffffffffffffffffffffffffff1673ffffffffffffffffffffffffffffffffffffffff16815260200190815260200160002054905092915050565b60007f01ffc9a7000000000000000000000000000000000000000000000000000000007bffffffffffffffffffffffffffffffffffffffffffffffffffffffff1916827bffffffffffffffffffffffffffffffffffffffffffffffffffffffff1916149050919050565b600033905090565b600073ffffffffffffffffffffffffffffffffffffffff168373ffffffffffffffffffffffffffffffffffffffff1603611042576040517f08c379a0000000000000000000000000000000000000000000000000000000008152600401611039906130c0565b60405180910390fd5b600073ffffffffffffffffffffffffffffffffffffffff168273ffffffffffffffffffffffffffffffffffffffff16036110b1576040517f08c379a00000000000000000000000000000000000000000000000000000000081526004016110a890613152565b60405180910390fd5b80603460008573ffffffffffffffffffffffffffffffffffffffff1673ffffffffffffffffffffffffffffffffffffffff16815260200190815260200160002060008473ffffffffffffffffffffffffffffffffffffffff1673ffffffffffffffffffffffffffffffffffffffff168152602001908152602001600020819055508173ffffffffffffffffffffffffffffffffffffffff168373ffffffffffffffffffffffffffffffffffffffff167f8c5be1e5ebec7d5bd14f71427d1e84f3dd0314c0f7b2291e5b200ac8c7c3b9258360405161118f9190612741565b60405180910390a3505050565b60006111a88484610eda565b90507fffffffffffffffffffffffffffffffffffffffffffffffffffffffffffffffff81146112225781811015611214576040517f08c379a000000000000000000000000000000000000000000000000000000000815260040161120b906131be565b60405180910390fd5b6112218484848403610fd3565b5b50505050565b600073ffffffffffffffffffffffffffffffffffffffff168373ffffffffffffffffffffffffffffffffffffffff1603611297576040517f08c379a000000000000000000000000000000000000000000000000000000000815260040161128e90613250565b60405180910390fd5b600073ffffffffffffffffffffffffffffffffffffffff168273ffffffffffffffffffffffffffffffffffffffff1603611306576040517f08c379a00000000000000000000000000000000000000000000000000000000081526004016112fd906132e2565b60405180910390fd5b611311838383611d52565b6000603360008573ffffffffffffffffffffffffffffffffffffffff1673ffffffffffffffffffffffffffffffffffffffff16815260200190815260200160002054905081811015611398576040517f08c379a000000000000000000000000000000000000000000000000000000000815260040161138f90613374565b60405180910390fd5b818103603360008673ffffffffffffffffffffffffffffffffffffffff1673ffffffffffffffffffffffffffffffffffffffff1681526020019081526020016000208190555081603360008573ffffffffffffffffffffffffffffffffffffffff1673ffffffffffffffffffffffffffffffffffffffff168152602001908152602001600020600082825401925050819055508273ffffffffffffffffffffffffffffffffffffffff168473ffffffffffffffffffffffffffffffffffffffff167fddf252ad1be2c89b69c2b068fc378daa952ba7f163c4a11628f55a4df523b3ef846040516114889190612741565b60405180910390a361149b848484611d57565b50505050565b6114b2816114ad610fcb565b611d5c565b50565b6114bf8282610bb9565b611593576001610130600084815260200190815260200160002060000160008373ffffffffffffffffffffffffffffffffffffffff1673ffffffffffffffffffffffffffffffffffffffff16815260200190815260200160002060006101000a81548160ff021916908315150217905550611538610fcb565b73ffffffffffffffffffffffffffffffffffffffff168173ffffffffffffffffffffffffffffffffffffffff16837f2f8788117e7eff1d82e926ec794901d17c78024a50270940304540a733656f0d60405160405180910390a45b5050565b60006115d27f8b73c3c69bb8fe3d512ecc4cf759cc79239f7b179b0ffacaa9a75d522b39400f6115c5611de1565b6115cd611deb565b611df5565b905090565b6115e18282610bb9565b156116b6576000610130600084815260200190815260200160002060000160008373ffffffffffffffffffffffffffffffffffffffff1673ffffffffffffffffffffffffffffffffffffffff16815260200190815260200160002060006101000a81548160ff02191690831515021790555061165b610fcb565b73ffffffffffffffffffffffffffffffffffffffff168173ffffffffffffffffffffffffffffffffffffffff16837ff6391f5c32d9c69d2a47ea670b442974b53935d1edc7fd64eb21e047a839171b60405160405180910390a45b5050565b600073ffffffffffffffffffffffffffffffffffffffff168273ffffffffffffffffffffffffffffffffffffffff1603611729576040517f08c379a0000000000000000000000000000000000000000000000000000000008152600401611720906133e0565b60405180910390fd5b61173560008383611d52565b80603560008282546117479190612cbc565b9250508190555080603360008473ffffffffffffffffffffffffffffffffffffffff1673ffffffffffffffffffffffffffffffffffffffff168152602001908152602001600020600082825401925050819055508173ffffffffffffffffffffffffffffffffffffffff16600073ffffffffffffffffffffffffffffffffffffffff167fddf252ad1be2c89b69c2b068fc378daa952ba7f163c4a11628f55a4df523b3ef836040516117f99190612741565b60405180910390a361180d60008383611d57565b5050565b6000808273ffffffffffffffffffffffffffffffffffffffff163b119050919050565b600060019054906101000a900460ff16611883576040517f08c379a000000000000000000000000000000000000000000000000000000000815260040161187a90612e54565b60405180910390fd5b61188d8282611e2f565b5050565b600060019054906101000a900460ff166118e0576040517f08c379a00000000000000000000000000000000000000000000000000000000081526004016118d790612e54565b60405180910390fd5b61191f816040518060400160405280600181526020017f3100000000000000000000000000000000000000000000000000000000000000815250611ea2565b50565b600060019054906101000a900460ff16611971576040517f08c379a000000000000000000000000000000000000000000000000000000000815260040161196890612e54565b60405180910390fd5b611979611f1d565b565b600060019054906101000a900460ff166119ca576040517f08c379a00000000000000000000000000000000000000000000000000000000081526004016119c190612e54565b60405180910390fd5b565b600060019054906101000a900460ff16611a1b576040517f08c379a0000000000000000000000000000000000000000000000000000000008152600401611a1290612e54565b60405180910390fd5b611a23611f89565b565b60007fa49807205ce4d355092ef5a8a18f56e8913cf4a201fbe287825b095693c21775905090565b60007f65d7a28e3265b37a6474929f336521b332c1681b933f6cb9f3376673440d862a905090565b6000611a808361071e565b9050816101306000858152602001908152602001600020600101819055508181847fbd79b86ffe0ab8e8776151514217cd7cacd52c909f66475c3af44e129f0b00ff60405160405180910390a4505050565b600073ffffffffffffffffffffffffffffffffffffffff168273ffffffffffffffffffffffffffffffffffffffff1603611b41576040517f08c379a0000000000000000000000000000000000000000000000000000000008152600401611b3890613472565b60405180910390fd5b611b4d82600083611d52565b6000603360008473ffffffffffffffffffffffffffffffffffffffff1673ffffffffffffffffffffffffffffffffffffffff16815260200190815260200160002054905081811015611bd4576040517f08c379a0000000000000000000000000000000000000000000000000000000008152600401611bcb90613504565b60405180910390fd5b818103603360008573ffffffffffffffffffffffffffffffffffffffff1673ffffffffffffffffffffffffffffffffffffffff1681526020019081526020016000208190555081603560008282540392505081905550600073ffffffffffffffffffffffffffffffffffffffff168373ffffffffffffffffffffffffffffffffffffffff167fddf252ad1be2c89b69c2b068fc378daa952ba7f163c4a11628f55a4df523b3ef84604051611c889190612741565b60405180910390a3611c9c83600084611d57565b505050565b600081600001549050919050565b600080609960008473ffffffffffffffffffffffffffffffffffffffff1673ffffffffffffffffffffffffffffffffffffffff1681526020019081526020016000209050611cfc81611ca1565b9150611d0781611fe3565b50919050565b6000611d20611d1a611597565b83611ff9565b9050919050565b6000806000611d388787878761202c565b91509150611d458161210e565b8192505050949350505050565b505050565b505050565b611d668282610bb9565b611ddd57611d7381612274565b611d818360001c60206122a1565b604051602001611d929291906135f8565b6040516020818303038152906040526040517f08c379a0000000000000000000000000000000000000000000000000000000008152600401611dd4919061263c565b60405180910390fd5b5050565b6000606554905090565b6000606654905090565b60008383834630604051602001611e10959493929190613632565b6040516020818303038152906040528051906020012090509392505050565b600060019054906101000a900460ff16611e7e576040517f08c379a0000000000000000000000000000000000000000000000000000000008152600401611e7590612e54565b60405180910390fd5b8160369081611e8d9190613827565b508060379081611e9d9190613827565b505050565b600060019054906101000a900460ff16611ef1576040517f08c379a0000000000000000000000000000000000000000000000000000000008152600401611ee890612e54565b60405180910390fd5b600082805190602001209050600082805190602001209050816065819055508060668190555050505050565b600060019054906101000a900460ff16611f6c576040517f08c379a0000000000000000000000000000000000000000000000000000000008152600401611f6390612e54565b60405180910390fd5b600060cc60006101000a81548160ff021916908315150217905550565b600060019054906101000a900460ff16611fd8576040517f08c379a0000000000000000000000000000000000000000000000000000000008152600401611fcf90612e54565b60405180910390fd5b600161016281905550565b6001816000016000828254019250508190555050565b6000828260405160200161200e929190613966565b60405160208183030381529060405280519060200120905092915050565b6000807f7fffffffffffffffffffffffffffffff5d576e7357a4501ddfe92f46681b20a08360001c1115612067576000600391509150612105565b60006001878787876040516000815260200160405260405161208c949392919061399d565b6020604051602081039080840390855afa1580156120ae573d6000803e3d6000fd5b505050602060405103519050600073ffffffffffffffffffffffffffffffffffffffff168173ffffffffffffffffffffffffffffffffffffffff16036120fc57600060019250925050612105565b80600092509250505b94509492505050565b60006004811115612122576121216139e2565b5b816004811115612135576121346139e2565b5b0315612271576001600481111561214f5761214e6139e2565b5b816004811115612162576121616139e2565b5b036121a2576040517f08c379a000000000000000000000000000000000000000000000000000000000815260040161219990613a5d565b60405180910390fd5b600260048111156121b6576121b56139e2565b5b8160048111156121c9576121c86139e2565b5b03612209576040517f08c379a000000000000000000000000000000000000000000000000000000000815260040161220090613ac9565b60405180910390fd5b6003600481111561221d5761221c6139e2565b5b8160048111156122305761222f6139e2565b5b03612270576040517f08c379a000000000000000000000000000000000000000000000000000000000815260040161226790613b5b565b60405180910390fd5b5b50565b606061229a8273ffffffffffffffffffffffffffffffffffffffff16601460ff166122a1565b9050919050565b6060600060028360026122b49190613b7b565b6122be9190612cbc565b67ffffffffffffffff8111156122d7576122d66128bd565b5b6040519080825280601f01601f1916602001820160405280156123095781602001600182028036833780820191505090505b5090507f30000000000000000000000000000000000000000000000000000000000000008160008151811061234157612340613bd5565b5b60200101907effffffffffffffffffffffffffffffffffffffffffffffffffffffffffffff1916908160001a9053507f7800000000000000000000000000000000000000000000000000000000000000816001815181106123a5576123a4613bd5565b5b60200101907effffffffffffffffffffffffffffffffffffffffffffffffffffffffffffff1916908160001a905350600060018460026123e59190613b7b565b6123ef9190612cbc565b90505b600181111561248f577f3031323334353637383961626364656600000000000000000000000000000000600f86166010811061243157612430613bd5565b5b1a60f81b82828151811061244857612447613bd5565b5b60200101907effffffffffffffffffffffffffffffffffffffffffffffffffffffffffffff1916908160001a905350600485901c94508061248890613c04565b90506123f2565b50600084146124d3576040517f08c379a00000000000000000000000000000000000000000000000000000000081526004016124ca90613c79565b60405180910390fd5b8091505092915050565b6000604051905090565b600080fd5b600080fd5b60007fffffffff0000000000000000000000000000000000000000000000000000000082169050919050565b612526816124f1565b811461253157600080fd5b50565b6000813590506125438161251d565b92915050565b60006020828403121561255f5761255e6124e7565b5b600061256d84828501612534565b91505092915050565b60008115159050919050565b61258b81612576565b82525050565b60006020820190506125a66000830184612582565b92915050565b600081519050919050565b600082825260208201905092915050565b60005b838110156125e65780820151818401526020810190506125cb565b60008484015250505050565b6000601f19601f8301169050919050565b600061260e826125ac565b61261881856125b7565b93506126288185602086016125c8565b612631816125f2565b840191505092915050565b600060208201905081810360008301526126568184612603565b905092915050565b600073ffffffffffffffffffffffffffffffffffffffff82169050919050565b60006126898261265e565b9050919050565b6126998161267e565b81146126a457600080fd5b50565b6000813590506126b681612690565b92915050565b6000819050919050565b6126cf816126bc565b81146126da57600080fd5b50565b6000813590506126ec816126c6565b92915050565b60008060408385031215612709576127086124e7565b5b6000612717858286016126a7565b9250506020612728858286016126dd565b9150509250929050565b61273b816126bc565b82525050565b60006020820190506127566000830184612732565b92915050565b600080600060608486031215612775576127746124e7565b5b6000612783868287016126a7565b9350506020612794868287016126a7565b92505060406127a5868287016126dd565b9150509250925092565b6000819050919050565b6127c2816127af565b81146127cd57600080fd5b50565b6000813590506127df816127b9565b92915050565b6000602082840312156127fb576127fa6124e7565b5b6000612809848285016127d0565b91505092915050565b61281b816127af565b82525050565b60006020820190506128366000830184612812565b92915050565b60008060408385031215612853576128526124e7565b5b6000612861858286016127d0565b9250506020612872858286016126a7565b9150509250929050565b600060ff82169050919050565b6128928161287c565b82525050565b60006020820190506128ad6000830184612889565b92915050565b600080fd5b600080fd5b7f4e487b7100000000000000000000000000000000000000000000000000000000600052604160045260246000fd5b6128f5826125f2565b810181811067ffffffffffffffff82111715612914576129136128bd565b5b80604052505050565b60006129276124dd565b905061293382826128ec565b919050565b600067ffffffffffffffff821115612953576129526128bd565b5b61295c826125f2565b9050602081019050919050565b82818337600083830152505050565b600061298b61298684612938565b61291d565b9050828152602081018484840111156129a7576129a66128b8565b5b6129b2848285612969565b509392505050565b600082601f8301126129cf576129ce6128b3565b5b81356129df848260208601612978565b91505092915050565b600080604083850312156129ff576129fe6124e7565b5b600083013567ffffffffffffffff811115612a1d57612a1c6124ec565b5b612a29858286016129ba565b925050602083013567ffffffffffffffff811115612a4a57612a496124ec565b5b612a56858286016129ba565b9150509250929050565b600060208284031215612a7657612a756124e7565b5b6000612a84848285016126a7565b91505092915050565b612a968161287c565b8114612aa157600080fd5b50565b600081359050612ab381612a8d565b92915050565b600080600080600080600060e0888a031215612ad857612ad76124e7565b5b6000612ae68a828b016126a7565b9750506020612af78a828b016126a7565b9650506040612b088a828b016126dd565b9550506060612b198a828b016126dd565b9450506080612b2a8a828b01612aa4565b93505060a0612b3b8a828b016127d0565b92505060c0612b4c8a828b016127d0565b91505092959891949750929550565b60008060408385031215612b7257612b716124e7565b5b6000612b80858286016126a7565b9250506020612b91858286016126a7565b9150509250929050565b7f4e487b7100000000000000000000000000000000000000000000000000000000600052602260045260246000fd5b60006002820490506001821680612be257607f821691505b602082108103612bf557612bf4612b9b565b5b50919050565b7f416363657373436f6e74726f6c3a2063616e206f6e6c792072656e6f756e636560008201527f20726f6c657320666f722073656c660000000000000000000000000000000000602082015250565b6000612c57602f836125b7565b9150612c6282612bfb565b604082019050919050565b60006020820190508181036000830152612c8681612c4a565b9050919050565b7f4e487b7100000000000000000000000000000000000000000000000000000000600052601160045260246000fd5b6000612cc7826126bc565b9150612cd2836126bc565b9250828201905080821115612cea57612ce9612c8d565b5b92915050565b7f496e697469616c697a61626c653a20636f6e747261637420697320616c72656160008201527f647920696e697469616c697a6564000000000000000000000000000000000000602082015250565b6000612d4c602e836125b7565b9150612d5782612cf0565b604082019050919050565b60006020820190508181036000830152612d7b81612d3f565b9050919050565b6000819050919050565b6000819050919050565b6000612db1612dac612da784612d82565b612d8c565b61287c565b9050919050565b612dc181612d96565b82525050565b6000602082019050612ddc6000830184612db8565b92915050565b7f496e697469616c697a61626c653a20636f6e7472616374206973206e6f74206960008201527f6e697469616c697a696e67000000000000000000000000000000000000000000602082015250565b6000612e3e602b836125b7565b9150612e4982612de2565b604082019050919050565b60006020820190508181036000830152612e6d81612e31565b9050919050565b7f45524332303a2064656372656173656420616c6c6f77616e63652062656c6f7760008201527f207a65726f000000000000000000000000000000000000000000000000000000602082015250565b6000612ed06025836125b7565b9150612edb82612e74565b604082019050919050565b60006020820190508181036000830152612eff81612ec3565b9050919050565b7f45524332305065726d69743a206578706972656420646561646c696e65000000600082015250565b6000612f3c601d836125b7565b9150612f4782612f06565b602082019050919050565b60006020820190508181036000830152612f6b81612f2f565b9050919050565b612f7b8161267e565b82525050565b600060c082019050612f966000830189612812565b612fa36020830188612f72565b612fb06040830187612f72565b612fbd6060830186612732565b612fca6080830185612732565b612fd760a0830184612732565b979650505050505050565b7f45524332305065726d69743a20696e76616c6964207369676e61747572650000600082015250565b6000613018601e836125b7565b915061302382612fe2565b602082019050919050565b600060208201905081810360008301526130478161300b565b9050919050565b7f45524332303a20617070726f76652066726f6d20746865207a65726f2061646460008201527f7265737300000000000000000000000000000000000000000000000000000000602082015250565b60006130aa6024836125b7565b91506130b58261304e565b604082019050919050565b600060208201905081810360008301526130d98161309d565b9050919050565b7f45524332303a20617070726f766520746f20746865207a65726f20616464726560008201527f7373000000000000000000000000000000000000000000000000000000000000602082015250565b600061313c6022836125b7565b9150613147826130e0565b604082019050919050565b6000602082019050818103600083015261316b8161312f565b9050919050565b7f45524332303a20696e73756666696369656e7420616c6c6f77616e6365000000600082015250565b60006131a8601d836125b7565b91506131b382613172565b602082019050919050565b600060208201905081810360008301526131d78161319b565b9050919050565b7f45524332303a207472616e736665722066726f6d20746865207a65726f20616460008201527f6472657373000000000000000000000000000000000000000000000000000000602082015250565b600061323a6025836125b7565b9150613245826131de565b604082019050919050565b600060208201905081810360008301526132698161322d565b9050919050565b7f45524332303a207472616e7366657220746f20746865207a65726f206164647260008201527f6573730000000000000000000000000000000000000000000000000000000000602082015250565b60006132cc6023836125b7565b91506132d782613270565b604082019050919050565b600060208201905081810360008301526132fb816132bf565b9050919050565b7f45524332303a207472616e7366657220616d6f756e742065786365656473206260008201527f616c616e63650000000000000000000000000000000000000000000000000000602082015250565b600061335e6026836125b7565b915061336982613302565b604082019050919050565b6000602082019050818103600083015261338d81613351565b9050919050565b7f45524332303a206d696e7420746f20746865207a65726f206164647265737300600082015250565b60006133ca601f836125b7565b91506133d582613394565b602082019050919050565b600060208201905081810360008301526133f9816133bd565b9050919050565b7f45524332303a206275726e2066726f6d20746865207a65726f2061646472657360008201527f7300000000000000000000000000000000000000000000000000000000000000602082015250565b600061345c6021836125b7565b915061346782613400565b604082019050919050565b6000602082019050818103600083015261348b8161344f565b9050919050565b7f45524332303a206275726e20616d6f756e7420657863656564732062616c616e60008201527f6365000000000000000000000000000000000000000000000000000000000000602082015250565b60006134ee6022836125b7565b91506134f982613492565b604082019050919050565b6000602082019050818103600083015261351d816134e1565b9050919050565b600081905092915050565b7f416363657373436f6e74726f6c3a206163636f756e7420000000000000000000600082015250565b6000613565601783613524565b91506135708261352f565b601782019050919050565b6000613586826125ac565b6135908185613524565b93506135a08185602086016125c8565b80840191505092915050565b7f206973206d697373696e6720726f6c6520000000000000000000000000000000600082015250565b60006135e2601183613524565b91506135ed826135ac565b601182019050919050565b600061360382613558565b915061360f828561357b565b915061361a826135d5565b9150613626828461357b565b91508190509392505050565b600060a0820190506136476000830188612812565b6136546020830187612812565b6136616040830186612812565b61366e6060830185612732565b61367b6080830184612f72565b9695505050505050565b60008190508160005260206000209050919050565b60006020601f8301049050919050565b600082821b905092915050565b6000600883026136e77fffffffffffffffffffffffffffffffffffffffffffffffffffffffffffffffff826136aa565b6136f186836136aa565b95508019841693508086168417925050509392505050565b600061372461371f61371a846126bc565b612d8c565b6126bc565b9050919050565b6000819050919050565b61373e83613709565b61375261374a8261372b565b8484546136b7565b825550505050565b600090565b61376761375a565b613772818484613735565b505050565b5b818110156137965761378b60008261375f565b600181019050613778565b5050565b601f8211156137db576137ac81613685565b6137b58461369a565b810160208510156137c4578190505b6137d86137d08561369a565b830182613777565b50505b505050565b600082821c905092915050565b60006137fe600019846008026137e0565b1980831691505092915050565b600061381783836137ed565b9150826002028217905092915050565b613830826125ac565b67ffffffffffffffff811115613849576138486128bd565b5b6138538254612bca565b61385e82828561379a565b600060209050601f831160018114613891576000841561387f578287015190505b613889858261380b565b8655506138f1565b601f19841661389f86613685565b60005b828110156138c7578489015182556001820191506020850194506020810190506138a2565b868310156138e457848901516138e0601f8916826137ed565b8355505b6001600288020188555050505b505050505050565b7f1901000000000000000000000000000000000000000000000000000000000000600082015250565b600061392f600283613524565b915061393a826138f9565b600282019050919050565b6000819050919050565b61396061395b826127af565b613945565b82525050565b600061397182613922565b915061397d828561394f565b60208201915061398d828461394f565b6020820191508190509392505050565b60006080820190506139b26000830187612812565b6139bf6020830186612889565b6139cc6040830185612812565b6139d96060830184612812565b95945050505050565b7f4e487b7100000000000000000000000000000000000000000000000000000000600052602160045260246000fd5b7f45434453413a20696e76616c6964207369676e61747572650000000000000000600082015250565b6000613a476018836125b7565b9150613a5282613a11565b602082019050919050565b60006020820190508181036000830152613a7681613a3a565b9050919050565b7f45434453413a20696e76616c6964207369676e6174757265206c656e67746800600082015250565b6000613ab3601f836125b7565b9150613abe82613a7d565b602082019050919050565b60006020820190508181036000830152613ae281613aa6565b9050919050565b7f45434453413a20696e76616c6964207369676e6174757265202773272076616c60008201527f7565000000000000000000000000000000000000000000000000000000000000602082015250565b6000613b456022836125b7565b9150613b5082613ae9565b604082019050919050565b60006020820190508181036000830152613b7481613b38565b9050919050565b6000613b86826126bc565b9150613b91836126bc565b9250817fffffffffffffffffffffffffffffffffffffffffffffffffffffffffffffffff0483118215151615613bca57613bc9612c8d565b5b828202905092915050565b7f4e487b7100000000000000000000000000000000000000000000000000000000600052603260045260246000fd5b6000613c0f826126bc565b915060008203613c2257613c21612c8d565b5b600182039050919050565b7f537472696e67733a20686578206c656e67746820696e73756666696369656e74600082015250565b6000613c636020836125b7565b9150613c6e82613c2d565b602082019050919050565b60006020820190508181036000830152613c9281613c56565b905091905056fea26469706673582212206f69af4002fb4b353bbf94930f8596c314ac5f6e2d90941777638cd31770d5ee64736f6c63430008100033",
  "linkReferences": {},
  "deployedLinkReferences": {}
}