{
  "_format": "hh-sol-artifact-1",
  "contractName": "ClaimGovernance",
  "sourceName": "contracts/core/payAsYouGo/ClaimGovernance.sol",
  "abi": [
    {
      "inputs": [],
      "name": "BaseUpgradeablePausable__ZeroAddressError",
      "type": "error"
    },
    {
      "inputs": [],
      "name": "ClaimGovernance__ClaimUnregisteredError",
      "type": "error"
    },
    {
      "inputs": [],
      "name": "ClaimGovernance__DecisionChallengedError",
      "type": "error"
    },
    {
      "inputs": [],
      "name": "ClaimGovernance__DecisionNoLongerCanBeChallengedError",
      "type": "error"
    },
    {
      "inputs": [],
      "name": "ClaimGovernance__PausedOperationFailedError",
      "type": "error"
    },
    {
      "inputs": [],
      "name": "ClaimGovernance__UnsuccessfulClaimRegistrationError",
      "type": "error"
    },
    {
      "inputs": [],
      "name": "ClaimGovernance__UserAlreadyVotedError",
      "type": "error"
    },
    {
      "inputs": [],
      "name": "ClaimGovernance__VotingDecisionNotYetFinalizedError",
      "type": "error"
    },
    {
      "inputs": [],
      "name": "ClaimGovernance__VotingNotYetStartedError",
      "type": "error"
    },
    {
      "inputs": [],
      "name": "ClaimGovernance__VotingTimeEndedError",
      "type": "error"
    },
    {
      "inputs": [],
      "name": "ClaimGovernance__ZeroAddressError",
      "type": "error"
    },
    {
      "inputs": [],
      "name": "CoverageGovernance__InsufficientBalanceError",
      "type": "error"
    },
    {
      "anonymous": false,
      "inputs": [
        {
          "indexed": true,
          "internalType": "address",
          "name": "addressUser",
          "type": "address"
        }
      ],
      "name": "AddedNewAdvisor",
      "type": "event"
    },
    {
      "anonymous": false,
      "inputs": [
        {
          "indexed": true,
          "internalType": "address",
          "name": "addressClaimant",
          "type": "address"
        },
        {
          "indexed": true,
          "internalType": "uint256",
          "name": "claimID",
          "type": "uint256"
        }
      ],
      "name": "ClaimChallenged",
      "type": "event"
    },
    {
      "anonymous": false,
      "inputs": [
        {
          "indexed": false,
          "internalType": "uint256",
          "name": "claimID",
          "type": "uint256"
        },
        {
          "indexed": false,
          "internalType": "bool",
          "name": "isAccepted",
          "type": "bool"
        }
      ],
      "name": "ClaimDecisionResult",
      "type": "event"
    },
    {
      "anonymous": false,
      "inputs": [
        {
          "indexed": false,
          "internalType": "uint8",
          "name": "version",
          "type": "uint8"
        }
      ],
      "name": "Initialized",
      "type": "event"
    },
    {
      "anonymous": false,
      "inputs": [
        {
          "indexed": true,
          "internalType": "address",
          "name": "addressUser",
          "type": "address"
        }
      ],
      "name": "InitializedContractClaimGovernance",
      "type": "event"
    },
    {
      "anonymous": false,
      "inputs": [
        {
          "indexed": true,
          "internalType": "address",
          "name": "addressClaimant",
          "type": "address"
        },
        {
          "indexed": true,
          "internalType": "uint256",
          "name": "claimID",
          "type": "uint256"
        },
        {
          "indexed": true,
          "internalType": "string",
          "name": "proof",
          "type": "string"
        }
      ],
      "name": "NewClaimCreated",
      "type": "event"
    },
    {
      "anonymous": false,
      "inputs": [
        {
          "indexed": true,
          "internalType": "uint256",
          "name": "tokenID",
          "type": "uint256"
        },
        {
          "indexed": true,
          "internalType": "address",
          "name": "tokenAddress",
          "type": "address"
        }
      ],
      "name": "NewTokenAdded",
      "type": "event"
    },
    {
      "anonymous": false,
      "inputs": [
        {
          "indexed": false,
          "internalType": "address",
          "name": "account",
          "type": "address"
        }
      ],
      "name": "Paused",
      "type": "event"
    },
    {
      "anonymous": false,
      "inputs": [
        {
          "indexed": true,
          "internalType": "bytes32",
          "name": "role",
          "type": "bytes32"
        },
        {
          "indexed": true,
          "internalType": "bytes32",
          "name": "previousAdminRole",
          "type": "bytes32"
        },
        {
          "indexed": true,
          "internalType": "bytes32",
          "name": "newAdminRole",
          "type": "bytes32"
        }
      ],
      "name": "RoleAdminChanged",
      "type": "event"
    },
    {
      "anonymous": false,
      "inputs": [
        {
          "indexed": true,
          "internalType": "bytes32",
          "name": "role",
          "type": "bytes32"
        },
        {
          "indexed": true,
          "internalType": "address",
          "name": "account",
          "type": "address"
        },
        {
          "indexed": true,
          "internalType": "address",
          "name": "sender",
          "type": "address"
        }
      ],
      "name": "RoleGranted",
      "type": "event"
    },
    {
      "anonymous": false,
      "inputs": [
        {
          "indexed": true,
          "internalType": "bytes32",
          "name": "role",
          "type": "bytes32"
        },
        {
          "indexed": true,
          "internalType": "address",
          "name": "account",
          "type": "address"
        },
        {
          "indexed": true,
          "internalType": "address",
          "name": "sender",
          "type": "address"
        }
      ],
      "name": "RoleRevoked",
      "type": "event"
    },
    {
      "anonymous": false,
      "inputs": [
        {
          "indexed": false,
          "internalType": "address",
          "name": "account",
          "type": "address"
        }
      ],
      "name": "Unpaused",
      "type": "event"
    },
    {
      "anonymous": false,
      "inputs": [
        {
          "indexed": true,
          "internalType": "uint256",
          "name": "updatedStakeAmount",
          "type": "uint256"
        }
      ],
      "name": "UpdatedStakeAmount",
      "type": "event"
    },
    {
      "anonymous": false,
      "inputs": [
        {
          "indexed": true,
          "internalType": "uint256",
          "name": "claimID",
          "type": "uint256"
        },
        {
          "indexed": true,
          "internalType": "uint256",
          "name": "timeInHours",
          "type": "uint256"
        }
      ],
      "name": "UpdatedVotingEndTime",
      "type": "event"
    },
    {
      "anonymous": false,
      "inputs": [
        {
          "indexed": true,
          "internalType": "uint256",
          "name": "claimID",
          "type": "uint256"
        },
        {
          "indexed": true,
          "internalType": "address",
          "name": "addressUser",
          "type": "address"
        },
        {
          "indexed": true,
          "internalType": "bool",
          "name": "support",
          "type": "bool"
        },
        {
          "indexed": false,
          "internalType": "uint256",
          "name": "votes",
          "type": "uint256"
        }
      ],
      "name": "UserVoted",
      "type": "event"
    },
    {
      "inputs": [],
      "name": "AFTER_VOTING_WAIT_PERIOD",
      "outputs": [
        {
          "internalType": "uint256",
          "name": "",
          "type": "uint256"
        }
      ],
      "stateMutability": "view",
      "type": "function"
    },
    {
      "inputs": [],
      "name": "DEFAULT_ADMIN_ROLE",
      "outputs": [
        {
          "internalType": "bytes32",
          "name": "",
          "type": "bytes32"
        }
      ],
      "stateMutability": "view",
      "type": "function"
    },
    {
      "inputs": [],
      "name": "TIME_BEFORE_VOTING_START",
      "outputs": [
        {
          "internalType": "uint256",
          "name": "",
          "type": "uint256"
        }
      ],
      "stateMutability": "view",
      "type": "function"
    },
    {
      "inputs": [],
      "name": "VOTING_END_TIME",
      "outputs": [
        {
          "internalType": "uint256",
          "name": "",
          "type": "uint256"
        }
      ],
      "stateMutability": "view",
      "type": "function"
    },
    {
      "inputs": [
        {
          "internalType": "address",
          "name": "owner",
          "type": "address"
        }
      ],
      "name": "__BaseUpgradeablePausable_init",
      "outputs": [],
      "stateMutability": "nonpayable",
      "type": "function"
    },
    {
      "inputs": [
        {
          "internalType": "address",
          "name": "addressUser",
          "type": "address"
        }
      ],
      "name": "addNewAdvisor",
      "outputs": [],
      "stateMutability": "nonpayable",
      "type": "function"
    },
    {
      "inputs": [
        {
          "internalType": "address",
          "name": "tokenAddress",
          "type": "address"
        }
      ],
      "name": "addTokenAddress",
      "outputs": [],
      "stateMutability": "nonpayable",
      "type": "function"
    },
    {
      "inputs": [
        {
          "internalType": "uint256",
          "name": "tokenID_",
          "type": "uint256"
        },
        {
          "internalType": "uint256",
          "name": "claimID_",
          "type": "uint256"
        },
        {
          "internalType": "uint256",
          "name": "deadline",
          "type": "uint256"
        },
        {
          "internalType": "uint8",
          "name": "permitV",
          "type": "uint8"
        },
        {
          "internalType": "bytes32",
          "name": "permitR",
          "type": "bytes32"
        },
        {
          "internalType": "bytes32",
          "name": "permitS",
          "type": "bytes32"
        }
      ],
      "name": "challengeDecision",
      "outputs": [
        {
          "internalType": "bool",
          "name": "",
          "type": "bool"
        }
      ],
      "stateMutability": "nonpayable",
      "type": "function"
    },
    {
      "inputs": [
        {
          "internalType": "uint256",
          "name": "tokenID_",
          "type": "uint256"
        },
        {
          "internalType": "uint256",
          "name": "claimID_",
          "type": "uint256"
        }
      ],
      "name": "claimDecision",
      "outputs": [
        {
          "internalType": "bool",
          "name": "",
          "type": "bool"
        }
      ],
      "stateMutability": "nonpayable",
      "type": "function"
    },
    {
      "inputs": [],
      "name": "claimID",
      "outputs": [
        {
          "internalType": "uint256",
          "name": "",
          "type": "uint256"
        }
      ],
      "stateMutability": "view",
      "type": "function"
    },
    {
      "inputs": [
        {
          "internalType": "uint256",
          "name": "",
          "type": "uint256"
        }
      ],
      "name": "claims",
      "outputs": [
        {
          "internalType": "address",
          "name": "claimer",
          "type": "address"
        },
        {
          "internalType": "uint256",
          "name": "claimID",
          "type": "uint256"
        },
        {
          "internalType": "uint256",
          "name": "categoryID",
          "type": "uint256"
        },
        {
          "internalType": "uint256",
          "name": "subcategoryID",
          "type": "uint256"
        },
        {
          "internalType": "uint256",
          "name": "claimAmountRequested",
          "type": "uint256"
        },
        {
          "internalType": "string",
          "name": "proof",
          "type": "string"
        },
        {
          "internalType": "bool",
          "name": "closed",
          "type": "bool"
        },
        {
          "internalType": "bool",
          "name": "accepted",
          "type": "bool"
        },
        {
          "internalType": "bool",
          "name": "isChallenged",
          "type": "bool"
        }
      ],
      "stateMutability": "view",
      "type": "function"
    },
    {
      "inputs": [
        {
          "internalType": "uint256",
          "name": "tokenID_",
          "type": "uint256"
        },
        {
          "internalType": "uint256",
          "name": "categoryID",
          "type": "uint256"
        },
        {
          "internalType": "uint256",
          "name": "subcategoryID",
          "type": "uint256"
        },
        {
          "internalType": "string",
          "name": "proof",
          "type": "string"
        },
        {
          "internalType": "uint256",
          "name": "requestedClaimAmount",
          "type": "uint256"
        },
        {
          "internalType": "uint256",
          "name": "deadline",
          "type": "uint256"
        },
        {
          "internalType": "uint8",
          "name": "permitV",
          "type": "uint8"
        },
        {
          "internalType": "bytes32",
          "name": "permitR",
          "type": "bytes32"
        },
        {
          "internalType": "bytes32",
          "name": "permitS",
          "type": "bytes32"
        }
      ],
      "name": "createClaim",
      "outputs": [
        {
          "internalType": "bool",
          "name": "",
          "type": "bool"
        }
      ],
      "stateMutability": "nonpayable",
      "type": "function"
    },
    {
      "inputs": [
        {
          "internalType": "bytes32",
          "name": "role",
          "type": "bytes32"
        }
      ],
      "name": "getRoleAdmin",
      "outputs": [
        {
          "internalType": "bytes32",
          "name": "",
          "type": "bytes32"
        }
      ],
      "stateMutability": "view",
      "type": "function"
    },
    {
      "inputs": [],
      "name": "globalPauseOperation",
      "outputs": [
        {
          "internalType": "contract IGlobalPauseOperation",
          "name": "",
          "type": "address"
        }
      ],
      "stateMutability": "view",
      "type": "function"
    },
    {
      "inputs": [
        {
          "internalType": "bytes32",
          "name": "role",
          "type": "bytes32"
        },
        {
          "internalType": "address",
          "name": "account",
          "type": "address"
        }
      ],
      "name": "grantRole",
      "outputs": [],
      "stateMutability": "nonpayable",
      "type": "function"
    },
    {
      "inputs": [
        {
          "internalType": "bytes32",
          "name": "role",
          "type": "bytes32"
        },
        {
          "internalType": "address",
          "name": "account",
          "type": "address"
        }
      ],
      "name": "hasRole",
      "outputs": [
        {
          "internalType": "bool",
          "name": "",
          "type": "bool"
        }
      ],
      "stateMutability": "view",
      "type": "function"
    },
    {
      "inputs": [
        {
          "internalType": "address",
          "name": "",
          "type": "address"
        }
      ],
      "name": "individualClaims",
      "outputs": [
        {
          "internalType": "uint256",
          "name": "",
          "type": "uint256"
        }
      ],
      "stateMutability": "view",
      "type": "function"
    },
    {
      "inputs": [
        {
          "internalType": "address",
          "name": "addressDAI",
          "type": "address"
        },
        {
          "internalType": "address",
          "name": "addressGSZT",
          "type": "address"
        },
        {
          "internalType": "address",
          "name": "addressInsuranceRegistry",
          "type": "address"
        },
        {
          "internalType": "address",
          "name": "addressGlobalPauseOperation",
          "type": "address"
        }
      ],
      "name": "initialize",
      "outputs": [],
      "stateMutability": "nonpayable",
      "type": "function"
    },
    {
      "inputs": [],
      "name": "insuranceRegistry",
      "outputs": [
        {
          "internalType": "contract IInsuranceRegistry",
          "name": "",
          "type": "address"
        }
      ],
      "stateMutability": "view",
      "type": "function"
    },
    {
      "inputs": [],
      "name": "isAdmin",
      "outputs": [
        {
          "internalType": "bool",
          "name": "",
          "type": "bool"
        }
      ],
      "stateMutability": "view",
      "type": "function"
    },
    {
      "inputs": [
        {
          "internalType": "address",
          "name": "",
          "type": "address"
        }
      ],
      "name": "isAdvisor",
      "outputs": [
        {
          "internalType": "bool",
          "name": "",
          "type": "bool"
        }
      ],
      "stateMutability": "view",
      "type": "function"
    },
    {
      "inputs": [],
      "name": "isModerator",
      "outputs": [
        {
          "internalType": "bool",
          "name": "",
          "type": "bool"
        }
      ],
      "stateMutability": "view",
      "type": "function"
    },
    {
      "inputs": [],
      "name": "openClaimsCount",
      "outputs": [
        {
          "internalType": "uint256",
          "name": "",
          "type": "uint256"
        }
      ],
      "stateMutability": "view",
      "type": "function"
    },
    {
      "inputs": [],
      "name": "pause",
      "outputs": [],
      "stateMutability": "nonpayable",
      "type": "function"
    },
    {
      "inputs": [],
      "name": "paused",
      "outputs": [
        {
          "internalType": "bool",
          "name": "",
          "type": "bool"
        }
      ],
      "stateMutability": "view",
      "type": "function"
    },
    {
      "inputs": [
        {
          "internalType": "uint256",
          "name": "",
          "type": "uint256"
        }
      ],
      "name": "permissionedTokens",
      "outputs": [
        {
          "internalType": "address",
          "name": "",
          "type": "address"
        }
      ],
      "stateMutability": "view",
      "type": "function"
    },
    {
      "inputs": [
        {
          "internalType": "uint256",
          "name": "",
          "type": "uint256"
        },
        {
          "internalType": "uint256",
          "name": "",
          "type": "uint256"
        }
      ],
      "name": "productSpecificClaims",
      "outputs": [
        {
          "internalType": "uint256",
          "name": "",
          "type": "uint256"
        }
      ],
      "stateMutability": "view",
      "type": "function"
    },
    {
      "inputs": [
        {
          "internalType": "bytes32",
          "name": "role",
          "type": "bytes32"
        },
        {
          "internalType": "address",
          "name": "account",
          "type": "address"
        }
      ],
      "name": "renounceRole",
      "outputs": [],
      "stateMutability": "nonpayable",
      "type": "function"
    },
    {
      "inputs": [
        {
          "internalType": "bytes32",
          "name": "role",
          "type": "bytes32"
        },
        {
          "internalType": "address",
          "name": "account",
          "type": "address"
        }
      ],
      "name": "revokeRole",
      "outputs": [],
      "stateMutability": "nonpayable",
      "type": "function"
    },
    {
      "inputs": [],
      "name": "stakedAmount",
      "outputs": [
        {
          "internalType": "uint256",
          "name": "",
          "type": "uint256"
        }
      ],
      "stateMutability": "view",
      "type": "function"
    },
    {
      "inputs": [
        {
          "internalType": "bytes4",
          "name": "interfaceId",
          "type": "bytes4"
        }
      ],
      "name": "supportsInterface",
      "outputs": [
        {
          "internalType": "bool",
          "name": "",
          "type": "bool"
        }
      ],
      "stateMutability": "view",
      "type": "function"
    },
    {
      "inputs": [],
      "name": "tokenGSZT",
      "outputs": [
        {
          "internalType": "contract IERC20Upgradeable",
          "name": "",
          "type": "address"
        }
      ],
      "stateMutability": "view",
      "type": "function"
    },
    {
      "inputs": [],
      "name": "tokenID",
      "outputs": [
        {
          "internalType": "uint256",
          "name": "",
          "type": "uint256"
        }
      ],
      "stateMutability": "view",
      "type": "function"
    },
    {
      "inputs": [],
      "name": "unpause",
      "outputs": [],
      "stateMutability": "nonpayable",
      "type": "function"
    },
    {
      "inputs": [
        {
          "internalType": "uint256",
          "name": "updatedStakeAmount",
          "type": "uint256"
        }
      ],
      "name": "updateStakeAmount",
      "outputs": [],
      "stateMutability": "nonpayable",
      "type": "function"
    },
    {
      "inputs": [
        {
          "internalType": "uint256",
          "name": "claimID_",
          "type": "uint256"
        },
        {
          "internalType": "uint256",
          "name": "timeInHours",
          "type": "uint256"
        }
      ],
      "name": "updateVotingEndTime",
      "outputs": [],
      "stateMutability": "nonpayable",
      "type": "function"
    },
    {
      "inputs": [
        {
          "internalType": "uint256",
          "name": "claimID_",
          "type": "uint256"
        },
        {
          "internalType": "bool",
          "name": "support",
          "type": "bool"
        }
      ],
      "name": "vote",
      "outputs": [
        {
          "internalType": "bool",
          "name": "",
          "type": "bool"
        }
      ],
      "stateMutability": "nonpayable",
      "type": "function"
    }
  ],
  "bytecode": "0x608060405234801561001057600080fd5b50614ac6806100206000396000f3fe608060405234801561001057600080fd5b50600436106102275760003560e01c806391d1485411610130578063aefa4455116100b8578063c9d27afe1161007c578063c9d27afe14610672578063d547741f146106a2578063d9967485146106be578063dc1ccde2146106dc578063f8c8765e1461070c57610227565b8063aefa4455146105ba578063b6db75a0146105d8578063c4993140146105f6578063c661fed314610626578063c90054ee1461065657610227565b8063a217fddf116100ff578063a217fddf1461050c578063a518bca71461052a578063a5c42ef114610546578063a888c2cd14610564578063aeabaff31461059c57610227565b806391d148541461045e57806393bf264b1461048e578063991653ba146104be578063a201d102146104ee57610227565b80635935560e116101b357806364b862621161018257806364b86262146103e05780636e810b1a146103fe578063708582de1461041a5780638456cb59146104385780638c33b3951461044257610227565b80635935560e146103565780635c975abb146103865780635df6f2ee146103a457806364063fdf146103c257610227565b806336568abe116101fa57806336568abe146102c6578063373d6132146102e25780633dede8f1146103005780633f4ba83a1461033057806351992fcb1461033a57610227565b806301ffc9a71461022c578063197e3d2b1461025c578063248a9ca31461027a5780632f2ff15d146102aa575b600080fd5b61024660048036038101906102419190613426565b610728565b604051610253919061346e565b60405180910390f35b6102646107a2565b60405161027191906134a2565b60405180910390f35b610294600480360381019061028f91906134f3565b6107a8565b6040516102a1919061352f565b60405180910390f35b6102c460048036038101906102bf91906135a8565b6107c8565b005b6102e060048036038101906102db91906135a8565b6107e9565b005b6102ea61086c565b6040516102f791906134a2565b60405180910390f35b61031a6004803603810190610315919061364d565b610872565b604051610327919061346e565b60405180910390f35b610338610b74565b005b610354600480360381019061034f91906136da565b610bc5565b005b610370600480360381019061036b9190613707565b610cc0565b60405161037d919061346e565b60405180910390f35b61038e6111f7565b60405161039b919061346e565b60405180910390f35b6103ac61120e565b6040516103b991906134a2565b60405180910390f35b6103ca611214565b6040516103d791906137a6565b60405180910390f35b6103e861123b565b6040516103f591906137e2565b60405180910390f35b610418600480360381019061041391906136da565b611261565b005b610422611383565b60405161042f91906134a2565b60405180910390f35b610440611388565b005b61045c60048036038101906104579190613707565b6113d9565b005b610478600480360381019061047391906135a8565b61149a565b604051610485919061346e565b60405180910390f35b6104a860048036038101906104a39190613707565b611505565b6040516104b591906134a2565b60405180910390f35b6104d860048036038101906104d39190613943565b61152b565b6040516104e5919061346e565b60405180910390f35b6104f66115f5565b60405161050391906134a2565b60405180910390f35b6105146115fb565b604051610521919061352f565b60405180910390f35b610544600480360381019061053f91906136da565b611602565b005b61054e6116e8565b60405161055b91906134a2565b60405180910390f35b61057e60048036038101906105799190613a29565b6116ee565b60405161059399989796959493929190613ae4565b60405180910390f35b6105a461180c565b6040516105b1919061346e565b60405180910390f35b6105c261182b565b6040516105cf91906134a2565b60405180910390f35b6105e0611830565b6040516105ed919061346e565b60405180910390f35b610610600480360381019061060b91906136da565b61184f565b60405161061d91906134a2565b60405180910390f35b610640600480360381019061063b91906136da565b611868565b60405161064d919061346e565b60405180910390f35b610670600480360381019061066b9190613a29565b611889565b005b61068c60048036038101906106879190613ba4565b611907565b604051610699919061346e565b60405180910390f35b6106bc60048036038101906106b791906135a8565b611ca9565b005b6106c6611cca565b6040516106d39190613c05565b60405180910390f35b6106f660048036038101906106f19190613a29565b611cf1565b6040516107039190613c20565b60405180910390f35b61072660048036038101906107219190613c3b565b611d25565b005b60007f7965db0b000000000000000000000000000000000000000000000000000000007bffffffffffffffffffffffffffffffffffffffffffffffffffffffff1916827bffffffffffffffffffffffffffffffffffffffffffffffffffffffff1916148061079b575061079a82611fe2565b5b9050919050565b60fe5481565b600060976000838152602001908152602001600020600101549050919050565b6107d1826107a8565b6107da8161204c565b6107e48383612060565b505050565b6107f1612141565b73ffffffffffffffffffffffffffffffffffffffff168173ffffffffffffffffffffffffffffffffffffffff161461085e576040517f08c379a000000000000000000000000000000000000000000000000000000000815260040161085590613d14565b60405180910390fd5b6108688282612149565b5050565b60fd5481565b6000610102600087815260200190815260200160002060060160009054906101000a900460ff1615806108c75750610102600087815260200190815260200160002060060160029054906101000a900460ff16155b156108fe576040517fe405144b00000000000000000000000000000000000000000000000000000000815260040160405180910390fd5b6002610102600088815260200190815260200160002060070160008881526020019081526020016000206006015410610963576040517fc85fcc8300000000000000000000000000000000000000000000000000000000815260040160405180910390fd5b6001610102600088815260200190815260200160002060060160026101000a81548160ff021916908315150217905550610102600060fc5481526020019081526020016000206007016000600160fc546109bd9190613d63565b8152602001908152602001600020600601600081546109db90613d97565b919050819055506000610ae16109ef612141565b8961010260008b81526020019081526020016000206002015461010260008c81526020019081526020016000206003015461010260008d81526020019081526020016000206005018054610a4290613e0e565b80601f0160208091040260200160405190810160405280929190818152602001828054610a6e90613e0e565b8015610abb5780601f10610a9057610100808354040283529160200191610abb565b820191906000526020600020905b815481529060010190602001808311610a9e57829003601f168201915b505050505061010260008e8152602001908152602001600020600401548c8c8c8c61222b565b905080610b1a576040517ffe212cbc00000000000000000000000000000000000000000000000000000000815260040160405180910390fd5b86610b23612141565b73ffffffffffffffffffffffffffffffffffffffff167f64cb0a63faead5a5c8d43f3d1d8b0068a5cf347fa4486168d5e12f1a403e86a660405160405180910390a360019150509695505050505050565b610b7c611830565b610bbb576040517f08c379a0000000000000000000000000000000000000000000000000000000008152600401610bb290613eb1565b60405180910390fd5b610bc361244e565b565b610bcd611830565b610c0c576040517f08c379a0000000000000000000000000000000000000000000000000000000008152600401610c0390613eb1565b60405180910390fd5b60fb60008154610c1b90613d97565b9190508190555080610105600060fb54815260200190815260200160002060006101000a81548173ffffffffffffffffffffffffffffffffffffffff021916908373ffffffffffffffffffffffffffffffffffffffff1602179055508073ffffffffffffffffffffffffffffffffffffffff1660fb547f8011fff8b5bba1d314cf6c6366e5398e6153bbf5a91322a1aed92f4511f4177a60405160405180910390a350565b600080610105600085815260200190815260200160002060009054906101000a900473ffffffffffffffffffffffffffffffffffffffff169050600073ffffffffffffffffffffffffffffffffffffffff168173ffffffffffffffffffffffffffffffffffffffff1603610d60576040517f1602125e00000000000000000000000000000000000000000000000000000000815260040160405180910390fd5b6000610102600085815260200190815260200160002060070160008581526020019081526020016000206040518060e0016040529081600082015481526020016001820154815260200160028201548152602001600382015481526020016004820154815260200160058201548152602001600682015481525050905042603c8260200151610def9190613d63565b1115610e27576040517fe405144b00000000000000000000000000000000000000000000000000000000815260040160405180910390fd5b610102600085815260200190815260200160002060060160029054906101000a900460ff1615610e83576040517f1cc68d8100000000000000000000000000000000000000000000000000000000815260040160405180910390fd5b600081606001518260400151610e999190613d63565b905060028260c0015103610ff65760008260a001518360800151610ebd9190613d63565b905060008360a0015184608001511015610ed8576000610ef5565b8160648560400151610eea9190613ed1565b610ef49190613f5a565b5b9050603b8110610fbe5760008460600151856040015111610f17576001610f34565b8360648660400151610f299190613ed1565b610f339190613f5a565b5b905060006064603383610f479190613ed1565b610f519190613f5a565b6064603185610f609190613ed1565b610f6a9190613f5a565b610f749190613d63565b90506050811015610f86576000610f89565b60015b61010260008b815260200190815260200160002060060160016101000a81548160ff0219169083151502179055505050610fef565b6000610102600089815260200190815260200160002060060160016101000a81548160ff0219169083151502179055505b5050611070565b6000826060015183604001511161100e57600161102b565b81606484604001516110209190613ed1565b61102a9190613f5a565b5b9050605081101561103d576000611040565b60015b610102600088815260200190815260200160002060060160016101000a81548160ff021916908315150217905550505b6001610102600087815260200190815260200160002060060160006101000a81548160ff021916908315150217905550610102600086815260200190815260200160002060060160019054906101000a900460ff1615611177576000600161010260008881526020019081526020016000206007016000888152602001908152602001600020600601546111049190613d63565b60fd546111119190613ed1565b9050611175610102600088815260200190815260200160002060000160009054906101000a900473ffffffffffffffffffffffffffffffffffffffff16828673ffffffffffffffffffffffffffffffffffffffff166124b19092919063ffffffff16565b505b60fe6000815461118690613f8b565b919050819055507f4094f4e7db94f0e88085d612c1bab63b201bef603c45a7748d15600a18f8e0b785610102600088815260200190815260200160002060060160019054906101000a900460ff166040516111e2929190613fb4565b60405180910390a16001935050505092915050565b6000603360009054906101000a900460ff16905090565b60fc5481565b61010160009054906101000a900473ffffffffffffffffffffffffffffffffffffffff1681565b60ff60009054906101000a900473ffffffffffffffffffffffffffffffffffffffff1681565b600060019054906101000a900460ff166112b0576040517f08c379a00000000000000000000000000000000000000000000000000000000081526004016112a79061404f565b60405180910390fd5b600073ffffffffffffffffffffffffffffffffffffffff168173ffffffffffffffffffffffffffffffffffffffff1603611316576040517f5415139400000000000000000000000000000000000000000000000000000000815260040160405180910390fd5b61131e612537565b611326612590565b61132e6125e1565b61133f61133961263a565b82612060565b61135061134a612662565b82612060565b61136861135b612662565b61136361263a565b61268a565b61138061137361263a565b61137b61263a565b61268a565b50565b603c81565b611390611830565b6113cf576040517f08c379a00000000000000000000000000000000000000000000000000000000081526004016113c690613eb1565b60405180910390fd5b6113d76126e6565b565b6113e1611830565b611420576040517f08c379a000000000000000000000000000000000000000000000000000000000815260040161141790613eb1565b60405180910390fd5b610e108161142e9190613ed1565b426114399190613d63565b610102600084815260200190815260200160002060070160008481526020019081526020016000206001018190555080827faf3da3a6f4d17697174490c16cf5ddfb365b3863cbaee29440d9c518575480ce60405160405180910390a35050565b60006097600084815260200190815260200160002060000160008373ffffffffffffffffffffffffffffffffffffffff1673ffffffffffffffffffffffffffffffffffffffff16815260200190815260200160002060009054906101000a900460ff16905092915050565b610106602052816000526040600020602052806000526040600020600091509150505481565b600080611547611539612141565b8c8c8c8c8c8c8c8c8c61222b565b905080611580576040517ffe212cbc00000000000000000000000000000000000000000000000000000000815260040160405180910390fd5b8760405161158e91906140ab565b604051809103902060fc546115a1612141565b73ffffffffffffffffffffffffffffffffffffffff167fbb70aa717b6d2e0a9b9a1b647818482838fd0133dbdde6f6ff62d0dea579306d60405160405180910390a460019150509998505050505050505050565b61012c81565b6000801b81565b61160a611830565b611649576040517f08c379a000000000000000000000000000000000000000000000000000000000815260040161164090613eb1565b60405180910390fd5b600161010360008373ffffffffffffffffffffffffffffffffffffffff1673ffffffffffffffffffffffffffffffffffffffff16815260200190815260200160002060006101000a81548160ff0219169083151502179055508073ffffffffffffffffffffffffffffffffffffffff167fc571b4c2533850b476cbb768fc1e34602ee585a4a69df41120ba239dc11e5dd860405160405180910390a250565b60fb5481565b6101026020528060005260406000206000915090508060000160009054906101000a900473ffffffffffffffffffffffffffffffffffffffff169080600101549080600201549080600301549080600401549080600501805461175090613e0e565b80601f016020809104026020016040519081016040528092919081815260200182805461177c90613e0e565b80156117c95780601f1061179e576101008083540402835291602001916117c9565b820191906000526020600020905b8154815290600101906020018083116117ac57829003601f168201915b5050505050908060060160009054906101000a900460ff16908060060160019054906101000a900460ff16908060060160029054906101000a900460ff16905089565b6000611826611819612662565b611821612141565b61149a565b905090565b603c81565b600061184a61183d61263a565b611845612141565b61149a565b905090565b6101046020528060005260406000206000915090505481565b6101036020528060005260406000206000915054906101000a900460ff1681565b611891611830565b6118d0576040517f08c379a00000000000000000000000000000000000000000000000000000000081526004016118c790613eb1565b60405180910390fd5b8060fd81905550807f4e842fb6a3d9d5829ebee723562697971b82ac3c3d7b6827c2ddc986a607883060405160405180910390a250565b6000806101026000858152602001908152602001600020600801600061192b612141565b73ffffffffffffffffffffffffffffffffffffffff1673ffffffffffffffffffffffffffffffffffffffff1681526020019081526020016000209050600061010260008681526020019081526020016000206007016000868152602001908152602001600020905042816000015411156119d1576040517f2326b77200000000000000000000000000000000000000000000000000000000815260040160405180910390fd5b8160000160019054906101000a900460ff1615611a1a576040517f619ddb4000000000000000000000000000000000000000000000000000000000815260040160405180910390fd5b4281600101541015611a58576040517f84af181200000000000000000000000000000000000000000000000000000000815260040160405180910390fd5b60018260000160016101000a81548160ff021916908315150217905550838260000160006101000a81548160ff02191690831515021790555060ff60009054906101000a900473ffffffffffffffffffffffffffffffffffffffff1673ffffffffffffffffffffffffffffffffffffffff166370a08231611ad7612141565b6040518263ffffffff1660e01b8152600401611af39190613c20565b602060405180830381865afa158015611b10573d6000803e3d6000fd5b505050506040513d601f19601f82011682018060405250810190611b3491906140d7565b826001018190555060028160060154148015611ba157506101036000611b58612141565b73ffffffffffffffffffffffffffffffffffffffff1673ffffffffffffffffffffffffffffffffffffffff16815260200190815260200160002060009054906101000a900460ff165b15611bf5578315611bd0578160010154816004016000828254611bc49190613d63565b92505081905550611bf0565b8160010154816005016000828254611be89190613d63565b925050819055505b611c40565b8315611c1f578160010154816002016000828254611c139190613d63565b92505081905550611c3f565b8160010154816003016000828254611c379190613d63565b925050819055505b5b831515611c4b612141565b73ffffffffffffffffffffffffffffffffffffffff16867f36bd4baec080c5226a6bfab80789bd430056db94839c600a9f4b57050ddcb7968560010154604051611c9591906134a2565b60405180910390a460019250505092915050565b611cb2826107a8565b611cbb8161204c565b611cc58383612149565b505050565b61010060009054906101000a900473ffffffffffffffffffffffffffffffffffffffff1681565b6101056020528060005260406000206000915054906101000a900473ffffffffffffffffffffffffffffffffffffffff1681565b60008060019054906101000a900460ff16159050808015611d565750600160008054906101000a900460ff1660ff16105b80611d835750611d6530612749565b158015611d825750600160008054906101000a900460ff1660ff16145b5b611dc2576040517f08c379a0000000000000000000000000000000000000000000000000000000008152600401611db990614176565b60405180910390fd5b60016000806101000a81548160ff021916908360ff1602179055508015611dff576001600060016101000a81548160ff0219169083151502179055505b678ac7230489e8000060fd8190555084610105600060fb54815260200190815260200160002060006101000a81548173ffffffffffffffffffffffffffffffffffffffff021916908373ffffffffffffffffffffffffffffffffffffffff1602179055508360ff60006101000a81548173ffffffffffffffffffffffffffffffffffffffff021916908373ffffffffffffffffffffffffffffffffffffffff1602179055508261010060006101000a81548173ffffffffffffffffffffffffffffffffffffffff021916908373ffffffffffffffffffffffffffffffffffffffff1602179055508161010160006101000a81548173ffffffffffffffffffffffffffffffffffffffff021916908373ffffffffffffffffffffffffffffffffffffffff160217905550611f38611f33612141565b611261565b611f40612141565b73ffffffffffffffffffffffffffffffffffffffff167fd11e497b6af961541b26e166a493a59dcd9cea18cdee987b1226314e1aefb43260405160405180910390a28015611fdb5760008060016101000a81548160ff0219169083151502179055507f7f26b83ff96e1f2b6a682f133852f6798a09c465da95921460cefb38474024986001604051611fd291906141d1565b60405180910390a15b5050505050565b60007f01ffc9a7000000000000000000000000000000000000000000000000000000007bffffffffffffffffffffffffffffffffffffffffffffffffffffffff1916827bffffffffffffffffffffffffffffffffffffffffffffffffffffffff1916149050919050565b61205d81612058612141565b61276c565b50565b61206a828261149a565b61213d5760016097600084815260200190815260200160002060000160008373ffffffffffffffffffffffffffffffffffffffff1673ffffffffffffffffffffffffffffffffffffffff16815260200190815260200160002060006101000a81548160ff0219169083151502179055506120e2612141565b73ffffffffffffffffffffffffffffffffffffffff168173ffffffffffffffffffffffffffffffffffffffff16837f2f8788117e7eff1d82e926ec794901d17c78024a50270940304540a733656f0d60405160405180910390a45b5050565b600033905090565b612153828261149a565b156122275760006097600084815260200190815260200160002060000160008373ffffffffffffffffffffffffffffffffffffffff1673ffffffffffffffffffffffffffffffffffffffff16815260200190815260200160002060006101000a81548160ff0219169083151502179055506121cc612141565b73ffffffffffffffffffffffffffffffffffffffff168173ffffffffffffffffffffffffffffffffffffffff16837ff6391f5c32d9c69d2a47ea670b442974b53935d1edc7fd64eb21e047a839171b60405160405180910390a45b5050565b60008061010560008c815260200190815260200160002060009054906101000a900473ffffffffffffffffffffffffffffffffffffffff169050600073ffffffffffffffffffffffffffffffffffffffff168173ffffffffffffffffffffffffffffffffffffffff16036122cb576040517f1602125e00000000000000000000000000000000000000000000000000000000815260040160405180910390fd5b600081905060008290508173ffffffffffffffffffffffffffffffffffffffff166370a082318f6040518263ffffffff1660e01b815260040161230e9190613c20565b602060405180830381865afa15801561232b573d6000803e3d6000fd5b505050506040513d601f19601f8201168201806040525081019061234f91906140d7565b60fd54111561238a576040517f47f70ce600000000000000000000000000000000000000000000000000000000815260040160405180910390fd5b60006123998f8e8e8e8e6127f1565b9050806123d2576040517f4fa3415300000000000000000000000000000000000000000000000000000000815260040160405180910390fd5b6124098f3060fd548c8c8c8c8973ffffffffffffffffffffffffffffffffffffffff16612b3290979695949392919063ffffffff16565b6124388f3060fd548673ffffffffffffffffffffffffffffffffffffffff16612cff909392919063ffffffff16565b60019450505050509a9950505050505050505050565b612456612d88565b6000603360006101000a81548160ff0219169083151502179055507f5db9ee0a495bf2e6ff9c91a7834c1ba4fdd244a5e8aa4e537bd38aeae4b073aa61249a612141565b6040516124a79190613c20565b60405180910390a1565b6125328363a9059cbb60e01b84846040516024016124d09291906141ec565b604051602081830303815290604052907bffffffffffffffffffffffffffffffffffffffffffffffffffffffff19166020820180517bffffffffffffffffffffffffffffffffffffffffffffffffffffffff8381831617835250505050612dd1565b505050565b600060019054906101000a900460ff16612586576040517f08c379a000000000000000000000000000000000000000000000000000000000815260040161257d9061404f565b60405180910390fd5b61258e612e98565b565b600060019054906101000a900460ff166125df576040517f08c379a00000000000000000000000000000000000000000000000000000000081526004016125d69061404f565b60405180910390fd5b565b600060019054906101000a900460ff16612630576040517f08c379a00000000000000000000000000000000000000000000000000000000081526004016126279061404f565b60405180910390fd5b612638612f04565b565b60007fa49807205ce4d355092ef5a8a18f56e8913cf4a201fbe287825b095693c21775905090565b60007f65d7a28e3265b37a6474929f336521b332c1681b933f6cb9f3376673440d862a905090565b6000612695836107a8565b90508160976000858152602001908152602001600020600101819055508181847fbd79b86ffe0ab8e8776151514217cd7cacd52c909f66475c3af44e129f0b00ff60405160405180910390a4505050565b6126ee612f5d565b6001603360006101000a81548160ff0219169083151502179055507f62e78cea01bee320cd4e420270b5ea74000d11b0c9f74754ebdbfc544b05a258612732612141565b60405161273f9190613c20565b60405180910390a1565b6000808273ffffffffffffffffffffffffffffffffffffffff163b119050919050565b612776828261149a565b6127ed5761278381612fa7565b6127918360001c6020612fd4565b6040516020016127a29291906142ad565b6040516020818303038152906040526040517f08c379a00000000000000000000000000000000000000000000000000000000081526004016127e491906142e7565b60405180910390fd5b5050565b600060fc6000815461280290613d97565b919050819055506000610102600060fc548152602001908152602001600020905085816002018190555084816003018190555060fc548160010181905550868160000160006101000a81548173ffffffffffffffffffffffffffffffffffffffff021916908373ffffffffffffffffffffffffffffffffffffffff1602179055508381600501908161289491906144ab565b50828160040181905550603c426128ab9190613d63565b81600701600060fc5481526020019081526020016000206000018190555061012c81600701600060fc548152602001908152602001600020600001546128f19190613d63565b81600701600060fc5481526020019081526020016000206001018190555060fe6000815461291e90613d97565b9190508190555061010460008873ffffffffffffffffffffffffffffffffffffffff1673ffffffffffffffffffffffffffffffffffffffff1681526020019081526020016000206000815461297290613d97565b9190508190555061010660008781526020019081526020016000206000868152602001908152602001600020600081546129ab90613d97565b9190508190555061010060009054906101000a900473ffffffffffffffffffffffffffffffffffffffff1673ffffffffffffffffffffffffffffffffffffffff16635df39e9687876040518363ffffffff1660e01b8152600401612a1092919061457d565b6020604051808303816000875af1158015612a2f573d6000803e3d6000fd5b505050506040513d601f19601f82011682018060405250810190612a5391906145bb565b50600061010160009054906101000a900473ffffffffffffffffffffffffffffffffffffffff1673ffffffffffffffffffffffffffffffffffffffff1663c9d070206040518163ffffffff1660e01b81526004016020604051808303816000875af1158015612ac6573d6000803e3d6000fd5b505050506040513d601f19601f82011682018060405250810190612aea91906145bb565b905080612b23576040517fbb3f77a900000000000000000000000000000000000000000000000000000000815260040160405180910390fd5b60019250505095945050505050565b60008873ffffffffffffffffffffffffffffffffffffffff16637ecebe00896040518263ffffffff1660e01b8152600401612b6d9190613c20565b602060405180830381865afa158015612b8a573d6000803e3d6000fd5b505050506040513d601f19601f82011682018060405250810190612bae91906140d7565b90508873ffffffffffffffffffffffffffffffffffffffff1663d505accf898989898989896040518863ffffffff1660e01b8152600401612bf597969594939291906145f7565b600060405180830381600087803b158015612c0f57600080fd5b505af1158015612c23573d6000803e3d6000fd5b5050505060008973ffffffffffffffffffffffffffffffffffffffff16637ecebe008a6040518263ffffffff1660e01b8152600401612c629190613c20565b602060405180830381865afa158015612c7f573d6000803e3d6000fd5b505050506040513d601f19601f82011682018060405250810190612ca391906140d7565b9050600182612cb29190613d63565b8114612cf3576040517f08c379a0000000000000000000000000000000000000000000000000000000008152600401612cea906146d8565b60405180910390fd5b50505050505050505050565b612d82846323b872dd60e01b858585604051602401612d20939291906146f8565b604051602081830303815290604052907bffffffffffffffffffffffffffffffffffffffffffffffffffffffff19166020820180517bffffffffffffffffffffffffffffffffffffffffffffffffffffffff8381831617835250505050612dd1565b50505050565b612d906111f7565b612dcf576040517f08c379a0000000000000000000000000000000000000000000000000000000008152600401612dc69061477b565b60405180910390fd5b565b6000612e33826040518060400160405280602081526020017f5361666545524332303a206c6f772d6c6576656c2063616c6c206661696c65648152508573ffffffffffffffffffffffffffffffffffffffff166132109092919063ffffffff16565b9050600081511115612e935780806020019051810190612e5391906145bb565b612e92576040517f08c379a0000000000000000000000000000000000000000000000000000000008152600401612e899061480d565b60405180910390fd5b5b505050565b600060019054906101000a900460ff16612ee7576040517f08c379a0000000000000000000000000000000000000000000000000000000008152600401612ede9061404f565b60405180910390fd5b6000603360006101000a81548160ff021916908315150217905550565b600060019054906101000a900460ff16612f53576040517f08c379a0000000000000000000000000000000000000000000000000000000008152600401612f4a9061404f565b60405180910390fd5b600160c981905550565b612f656111f7565b15612fa5576040517f08c379a0000000000000000000000000000000000000000000000000000000008152600401612f9c90614879565b60405180910390fd5b565b6060612fcd8273ffffffffffffffffffffffffffffffffffffffff16601460ff16612fd4565b9050919050565b606060006002836002612fe79190613ed1565b612ff19190613d63565b67ffffffffffffffff81111561300a57613009613818565b5b6040519080825280601f01601f19166020018201604052801561303c5781602001600182028036833780820191505090505b5090507f30000000000000000000000000000000000000000000000000000000000000008160008151811061307457613073614899565b5b60200101907effffffffffffffffffffffffffffffffffffffffffffffffffffffffffffff1916908160001a9053507f7800000000000000000000000000000000000000000000000000000000000000816001815181106130d8576130d7614899565b5b60200101907effffffffffffffffffffffffffffffffffffffffffffffffffffffffffffff1916908160001a905350600060018460026131189190613ed1565b6131229190613d63565b90505b60018111156131c2577f3031323334353637383961626364656600000000000000000000000000000000600f86166010811061316457613163614899565b5b1a60f81b82828151811061317b5761317a614899565b5b60200101907effffffffffffffffffffffffffffffffffffffffffffffffffffffffffffff1916908160001a905350600485901c9450806131bb90613f8b565b9050613125565b5060008414613206576040517f08c379a00000000000000000000000000000000000000000000000000000000081526004016131fd90614914565b60405180910390fd5b8091505092915050565b606061321f8484600085613228565b90509392505050565b60608247101561326d576040517f08c379a0000000000000000000000000000000000000000000000000000000008152600401613264906149a6565b60405180910390fd5b6000808673ffffffffffffffffffffffffffffffffffffffff1685876040516132969190614a0d565b60006040518083038185875af1925050503d80600081146132d3576040519150601f19603f3d011682016040523d82523d6000602084013e6132d8565b606091505b50915091506132e9878383876132f5565b92505050949350505050565b6060831561335757600083510361334f5761330f85612749565b61334e576040517f08c379a000000000000000000000000000000000000000000000000000000000815260040161334590614a70565b60405180910390fd5b5b829050613362565b613361838361336a565b5b949350505050565b60008251111561337d5781518083602001fd5b806040517f08c379a00000000000000000000000000000000000000000000000000000000081526004016133b191906142e7565b60405180910390fd5b6000604051905090565b600080fd5b600080fd5b60007fffffffff0000000000000000000000000000000000000000000000000000000082169050919050565b613403816133ce565b811461340e57600080fd5b50565b600081359050613420816133fa565b92915050565b60006020828403121561343c5761343b6133c4565b5b600061344a84828501613411565b91505092915050565b60008115159050919050565b61346881613453565b82525050565b6000602082019050613483600083018461345f565b92915050565b6000819050919050565b61349c81613489565b82525050565b60006020820190506134b76000830184613493565b92915050565b6000819050919050565b6134d0816134bd565b81146134db57600080fd5b50565b6000813590506134ed816134c7565b92915050565b600060208284031215613509576135086133c4565b5b6000613517848285016134de565b91505092915050565b613529816134bd565b82525050565b60006020820190506135446000830184613520565b92915050565b600073ffffffffffffffffffffffffffffffffffffffff82169050919050565b60006135758261354a565b9050919050565b6135858161356a565b811461359057600080fd5b50565b6000813590506135a28161357c565b92915050565b600080604083850312156135bf576135be6133c4565b5b60006135cd858286016134de565b92505060206135de85828601613593565b9150509250929050565b6135f181613489565b81146135fc57600080fd5b50565b60008135905061360e816135e8565b92915050565b600060ff82169050919050565b61362a81613614565b811461363557600080fd5b50565b60008135905061364781613621565b92915050565b60008060008060008060c0878903121561366a576136696133c4565b5b600061367889828a016135ff565b965050602061368989828a016135ff565b955050604061369a89828a016135ff565b94505060606136ab89828a01613638565b93505060806136bc89828a016134de565b92505060a06136cd89828a016134de565b9150509295509295509295565b6000602082840312156136f0576136ef6133c4565b5b60006136fe84828501613593565b91505092915050565b6000806040838503121561371e5761371d6133c4565b5b600061372c858286016135ff565b925050602061373d858286016135ff565b9150509250929050565b6000819050919050565b600061376c6137676137628461354a565b613747565b61354a565b9050919050565b600061377e82613751565b9050919050565b600061379082613773565b9050919050565b6137a081613785565b82525050565b60006020820190506137bb6000830184613797565b92915050565b60006137cc82613773565b9050919050565b6137dc816137c1565b82525050565b60006020820190506137f760008301846137d3565b92915050565b600080fd5b600080fd5b6000601f19601f8301169050919050565b7f4e487b7100000000000000000000000000000000000000000000000000000000600052604160045260246000fd5b61385082613807565b810181811067ffffffffffffffff8211171561386f5761386e613818565b5b80604052505050565b60006138826133ba565b905061388e8282613847565b919050565b600067ffffffffffffffff8211156138ae576138ad613818565b5b6138b782613807565b9050602081019050919050565b82818337600083830152505050565b60006138e66138e184613893565b613878565b90508281526020810184848401111561390257613901613802565b5b61390d8482856138c4565b509392505050565b600082601f83011261392a576139296137fd565b5b813561393a8482602086016138d3565b91505092915050565b60008060008060008060008060006101208a8c031215613966576139656133c4565b5b60006139748c828d016135ff565b99505060206139858c828d016135ff565b98505060406139968c828d016135ff565b97505060608a013567ffffffffffffffff8111156139b7576139b66133c9565b5b6139c38c828d01613915565b96505060806139d48c828d016135ff565b95505060a06139e58c828d016135ff565b94505060c06139f68c828d01613638565b93505060e0613a078c828d016134de565b925050610100613a198c828d016134de565b9150509295985092959850929598565b600060208284031215613a3f57613a3e6133c4565b5b6000613a4d848285016135ff565b91505092915050565b613a5f8161356a565b82525050565b600081519050919050565b600082825260208201905092915050565b60005b83811015613a9f578082015181840152602081019050613a84565b60008484015250505050565b6000613ab682613a65565b613ac08185613a70565b9350613ad0818560208601613a81565b613ad981613807565b840191505092915050565b600061012082019050613afa600083018c613a56565b613b07602083018b613493565b613b14604083018a613493565b613b216060830189613493565b613b2e6080830188613493565b81810360a0830152613b408187613aab565b9050613b4f60c083018661345f565b613b5c60e083018561345f565b613b6a61010083018461345f565b9a9950505050505050505050565b613b8181613453565b8114613b8c57600080fd5b50565b600081359050613b9e81613b78565b92915050565b60008060408385031215613bbb57613bba6133c4565b5b6000613bc9858286016135ff565b9250506020613bda85828601613b8f565b9150509250929050565b6000613bef82613773565b9050919050565b613bff81613be4565b82525050565b6000602082019050613c1a6000830184613bf6565b92915050565b6000602082019050613c356000830184613a56565b92915050565b60008060008060808587031215613c5557613c546133c4565b5b6000613c6387828801613593565b9450506020613c7487828801613593565b9350506040613c8587828801613593565b9250506060613c9687828801613593565b91505092959194509250565b7f416363657373436f6e74726f6c3a2063616e206f6e6c792072656e6f756e636560008201527f20726f6c657320666f722073656c660000000000000000000000000000000000602082015250565b6000613cfe602f83613a70565b9150613d0982613ca2565b604082019050919050565b60006020820190508181036000830152613d2d81613cf1565b9050919050565b7f4e487b7100000000000000000000000000000000000000000000000000000000600052601160045260246000fd5b6000613d6e82613489565b9150613d7983613489565b9250828201905080821115613d9157613d90613d34565b5b92915050565b6000613da282613489565b91507fffffffffffffffffffffffffffffffffffffffffffffffffffffffffffffffff8203613dd457613dd3613d34565b5b600182019050919050565b7f4e487b7100000000000000000000000000000000000000000000000000000000600052602260045260246000fd5b60006002820490506001821680613e2657607f821691505b602082108103613e3957613e38613ddf565b5b50919050565b7f4d75737420686176652061646d696e20726f6c6520746f20706572666f726d2060008201527f7468697320616374696f6e2e0000000000000000000000000000000000000000602082015250565b6000613e9b602c83613a70565b9150613ea682613e3f565b604082019050919050565b60006020820190508181036000830152613eca81613e8e565b9050919050565b6000613edc82613489565b9150613ee783613489565b9250817fffffffffffffffffffffffffffffffffffffffffffffffffffffffffffffffff0483118215151615613f2057613f1f613d34565b5b828202905092915050565b7f4e487b7100000000000000000000000000000000000000000000000000000000600052601260045260246000fd5b6000613f6582613489565b9150613f7083613489565b925082613f8057613f7f613f2b565b5b828204905092915050565b6000613f9682613489565b915060008203613fa957613fa8613d34565b5b600182039050919050565b6000604082019050613fc96000830185613493565b613fd6602083018461345f565b9392505050565b7f496e697469616c697a61626c653a20636f6e7472616374206973206e6f74206960008201527f6e697469616c697a696e67000000000000000000000000000000000000000000602082015250565b6000614039602b83613a70565b915061404482613fdd565b604082019050919050565b600060208201905081810360008301526140688161402c565b9050919050565b600081905092915050565b600061408582613a65565b61408f818561406f565b935061409f818560208601613a81565b80840191505092915050565b60006140b7828461407a565b915081905092915050565b6000815190506140d1816135e8565b92915050565b6000602082840312156140ed576140ec6133c4565b5b60006140fb848285016140c2565b91505092915050565b7f496e697469616c697a61626c653a20636f6e747261637420697320616c72656160008201527f647920696e697469616c697a6564000000000000000000000000000000000000602082015250565b6000614160602e83613a70565b915061416b82614104565b604082019050919050565b6000602082019050818103600083015261418f81614153565b9050919050565b6000819050919050565b60006141bb6141b66141b184614196565b613747565b613614565b9050919050565b6141cb816141a0565b82525050565b60006020820190506141e660008301846141c2565b92915050565b60006040820190506142016000830185613a56565b61420e6020830184613493565b9392505050565b7f416363657373436f6e74726f6c3a206163636f756e7420000000000000000000600082015250565b600061424b60178361406f565b915061425682614215565b601782019050919050565b7f206973206d697373696e6720726f6c6520000000000000000000000000000000600082015250565b600061429760118361406f565b91506142a282614261565b601182019050919050565b60006142b88261423e565b91506142c4828561407a565b91506142cf8261428a565b91506142db828461407a565b91508190509392505050565b600060208201905081810360008301526143018184613aab565b905092915050565b60008190508160005260206000209050919050565b60006020601f8301049050919050565b600082821b905092915050565b60006008830261436b7fffffffffffffffffffffffffffffffffffffffffffffffffffffffffffffffff8261432e565b614375868361432e565b95508019841693508086168417925050509392505050565b60006143a86143a361439e84613489565b613747565b613489565b9050919050565b6000819050919050565b6143c28361438d565b6143d66143ce826143af565b84845461433b565b825550505050565b600090565b6143eb6143de565b6143f68184846143b9565b505050565b5b8181101561441a5761440f6000826143e3565b6001810190506143fc565b5050565b601f82111561445f5761443081614309565b6144398461431e565b81016020851015614448578190505b61445c6144548561431e565b8301826143fb565b50505b505050565b600082821c905092915050565b600061448260001984600802614464565b1980831691505092915050565b600061449b8383614471565b9150826002028217905092915050565b6144b482613a65565b67ffffffffffffffff8111156144cd576144cc613818565b5b6144d78254613e0e565b6144e282828561441e565b600060209050601f8311600181146145155760008415614503578287015190505b61450d858261448f565b865550614575565b601f19841661452386614309565b60005b8281101561454b57848901518255600182019150602085019450602081019050614526565b868310156145685784890151614564601f891682614471565b8355505b6001600288020188555050505b505050505050565b60006040820190506145926000830185613493565b61459f6020830184613493565b9392505050565b6000815190506145b581613b78565b92915050565b6000602082840312156145d1576145d06133c4565b5b60006145df848285016145a6565b91505092915050565b6145f181613614565b82525050565b600060e08201905061460c600083018a613a56565b6146196020830189613a56565b6146266040830188613493565b6146336060830187613493565b61464060808301866145e8565b61464d60a0830185613520565b61465a60c0830184613520565b98975050505050505050565b7f5361666545524332303a207065726d697420646964206e6f742073756363656560008201527f6400000000000000000000000000000000000000000000000000000000000000602082015250565b60006146c2602183613a70565b91506146cd82614666565b604082019050919050565b600060208201905081810360008301526146f1816146b5565b9050919050565b600060608201905061470d6000830186613a56565b61471a6020830185613a56565b6147276040830184613493565b949350505050565b7f5061757361626c653a206e6f7420706175736564000000000000000000000000600082015250565b6000614765601483613a70565b91506147708261472f565b602082019050919050565b6000602082019050818103600083015261479481614758565b9050919050565b7f5361666545524332303a204552433230206f7065726174696f6e20646964206e60008201527f6f74207375636365656400000000000000000000000000000000000000000000602082015250565b60006147f7602a83613a70565b91506148028261479b565b604082019050919050565b60006020820190508181036000830152614826816147ea565b9050919050565b7f5061757361626c653a2070617573656400000000000000000000000000000000600082015250565b6000614863601083613a70565b915061486e8261482d565b602082019050919050565b6000602082019050818103600083015261489281614856565b9050919050565b7f4e487b7100000000000000000000000000000000000000000000000000000000600052603260045260246000fd5b7f537472696e67733a20686578206c656e67746820696e73756666696369656e74600082015250565b60006148fe602083613a70565b9150614909826148c8565b602082019050919050565b6000602082019050818103600083015261492d816148f1565b9050919050565b7f416464726573733a20696e73756666696369656e742062616c616e636520666f60008201527f722063616c6c0000000000000000000000000000000000000000000000000000602082015250565b6000614990602683613a70565b915061499b82614934565b604082019050919050565b600060208201905081810360008301526149bf81614983565b9050919050565b600081519050919050565b600081905092915050565b60006149e7826149c6565b6149f181856149d1565b9350614a01818560208601613a81565b80840191505092915050565b6000614a1982846149dc565b915081905092915050565b7f416464726573733a2063616c6c20746f206e6f6e2d636f6e7472616374000000600082015250565b6000614a5a601d83613a70565b9150614a6582614a24565b602082019050919050565b60006020820190508181036000830152614a8981614a4d565b905091905056fea2646970667358221220611eac63cf1ea9bcde67073dd0a52b7cc73926f0b8247182d7749e14bca9385a64736f6c63430008100033",
  "linkReferences": {},
  "deployedLinkReferences": {}
}