{
  "_format": "hh-sol-artifact-1",
  "contractName": "BuyGENZ",
  "sourceName": "contracts/core/buySell/BuyGENZ.sol",
  "abi": [
    {
      "inputs": [
        {
          "internalType": "address",
          "name": "addressGENZ",
          "type": "address"
        },
        {
          "internalType": "address",
          "name": "addressGlobalPauseOperation",
          "type": "address"
        }
      ],
      "stateMutability": "nonpayable",
      "type": "constructor"
    },
    {
      "inputs": [],
      "name": "BaseUpgradeablePausable__ZeroAddressError",
      "type": "error"
    },
    {
      "inputs": [],
      "name": "BuyGENZ__EarlyWithdrawalRequestedError",
      "type": "error"
    },
    {
      "inputs": [],
      "name": "BuyGENZ__GENZBuyOperationFailedError",
      "type": "error"
    },
    {
      "inputs": [],
      "name": "BuyGENZ__GENZWithdrawOperationFailedError",
      "type": "error"
    },
    {
      "inputs": [],
      "name": "BuyGENZ__LessThanMinimumAmountError",
      "type": "error"
    },
    {
      "inputs": [],
      "name": "BuyGENZ__OperationPaused",
      "type": "error"
    },
    {
      "inputs": [],
      "name": "BuyGENZ__ZeroAddressInputError",
      "type": "error"
    },
    {
      "inputs": [],
      "name": "BuyGENZ__ZeroTokensPurchasedError",
      "type": "error"
    },
    {
      "inputs": [],
      "name": "BuySellGENZ__InsufficientBalanceError",
      "type": "error"
    },
    {
      "anonymous": false,
      "inputs": [
        {
          "indexed": true,
          "internalType": "address",
          "name": "addressUser",
          "type": "address"
        },
        {
          "indexed": true,
          "internalType": "uint256",
          "name": "amountInGENZ",
          "type": "uint256"
        }
      ],
      "name": "BoughtGENZ",
      "type": "event"
    },
    {
      "anonymous": false,
      "inputs": [
        {
          "indexed": true,
          "internalType": "address",
          "name": "to",
          "type": "address"
        },
        {
          "indexed": true,
          "internalType": "uint256",
          "name": "amount",
          "type": "uint256"
        }
      ],
      "name": "FundsTransferred",
      "type": "event"
    },
    {
      "anonymous": false,
      "inputs": [
        {
          "indexed": false,
          "internalType": "uint8",
          "name": "version",
          "type": "uint8"
        }
      ],
      "name": "Initialized",
      "type": "event"
    },
    {
      "anonymous": false,
      "inputs": [
        {
          "indexed": true,
          "internalType": "address",
          "name": "adminAddress",
          "type": "address"
        }
      ],
      "name": "InitializedContractBuyGENZ",
      "type": "event"
    },
    {
      "anonymous": false,
      "inputs": [
        {
          "indexed": true,
          "internalType": "uint256",
          "name": "tokenID",
          "type": "uint256"
        },
        {
          "indexed": true,
          "internalType": "address",
          "name": "tokenAddress",
          "type": "address"
        }
      ],
      "name": "NewTokenAdded",
      "type": "event"
    },
    {
      "anonymous": false,
      "inputs": [
        {
          "indexed": false,
          "internalType": "address",
          "name": "account",
          "type": "address"
        }
      ],
      "name": "Paused",
      "type": "event"
    },
    {
      "anonymous": false,
      "inputs": [
        {
          "indexed": true,
          "internalType": "bytes32",
          "name": "role",
          "type": "bytes32"
        },
        {
          "indexed": true,
          "internalType": "bytes32",
          "name": "previousAdminRole",
          "type": "bytes32"
        },
        {
          "indexed": true,
          "internalType": "bytes32",
          "name": "newAdminRole",
          "type": "bytes32"
        }
      ],
      "name": "RoleAdminChanged",
      "type": "event"
    },
    {
      "anonymous": false,
      "inputs": [
        {
          "indexed": true,
          "internalType": "bytes32",
          "name": "role",
          "type": "bytes32"
        },
        {
          "indexed": true,
          "internalType": "address",
          "name": "account",
          "type": "address"
        },
        {
          "indexed": true,
          "internalType": "address",
          "name": "sender",
          "type": "address"
        }
      ],
      "name": "RoleGranted",
      "type": "event"
    },
    {
      "anonymous": false,
      "inputs": [
        {
          "indexed": true,
          "internalType": "bytes32",
          "name": "role",
          "type": "bytes32"
        },
        {
          "indexed": true,
          "internalType": "address",
          "name": "account",
          "type": "address"
        },
        {
          "indexed": true,
          "internalType": "address",
          "name": "sender",
          "type": "address"
        }
      ],
      "name": "RoleRevoked",
      "type": "event"
    },
    {
      "anonymous": false,
      "inputs": [
        {
          "indexed": false,
          "internalType": "address",
          "name": "account",
          "type": "address"
        }
      ],
      "name": "Unpaused",
      "type": "event"
    },
    {
      "anonymous": false,
      "inputs": [
        {
          "indexed": true,
          "internalType": "uint256",
          "name": "updatedTokenPrice",
          "type": "uint256"
        }
      ],
      "name": "UpdatedBaseSalePrice",
      "type": "event"
    },
    {
      "anonymous": false,
      "inputs": [
        {
          "indexed": true,
          "internalType": "uint256",
          "name": "updatedPercent",
          "type": "uint256"
        }
      ],
      "name": "UpdatedBonusTokenPercent",
      "type": "event"
    },
    {
      "anonymous": false,
      "inputs": [
        {
          "indexed": true,
          "internalType": "uint256",
          "name": "timeInHours",
          "type": "uint256"
        }
      ],
      "name": "UpdatedBonusTokenPeriod",
      "type": "event"
    },
    {
      "anonymous": false,
      "inputs": [
        {
          "indexed": true,
          "internalType": "uint256",
          "name": "timeInDays",
          "type": "uint256"
        }
      ],
      "name": "UpdatedMinimumWithdrawalPeriod",
      "type": "event"
    },
    {
      "anonymous": false,
      "inputs": [
        {
          "indexed": true,
          "internalType": "uint256",
          "name": "updatedSaleCap",
          "type": "uint256"
        }
      ],
      "name": "UpdatedSaleCap",
      "type": "event"
    },
    {
      "anonymous": false,
      "inputs": [
        {
          "indexed": true,
          "internalType": "address",
          "name": "addressUser",
          "type": "address"
        },
        {
          "indexed": true,
          "internalType": "uint256",
          "name": "amountInGENZ",
          "type": "uint256"
        }
      ],
      "name": "WithdrawnGENZ",
      "type": "event"
    },
    {
      "inputs": [],
      "name": "DEFAULT_ADMIN_ROLE",
      "outputs": [
        {
          "internalType": "bytes32",
          "name": "",
          "type": "bytes32"
        }
      ],
      "stateMutability": "view",
      "type": "function"
    },
    {
      "inputs": [],
      "name": "WITHDRAWAL_PERIOD_MULTIPLIER",
      "outputs": [
        {
          "internalType": "uint256",
          "name": "",
          "type": "uint256"
        }
      ],
      "stateMutability": "view",
      "type": "function"
    },
    {
      "inputs": [
        {
          "internalType": "address",
          "name": "owner",
          "type": "address"
        }
      ],
      "name": "__BaseUpgradeablePausable_init",
      "outputs": [],
      "stateMutability": "nonpayable",
      "type": "function"
    },
    {
      "inputs": [
        {
          "internalType": "address",
          "name": "addressToken",
          "type": "address"
        }
      ],
      "name": "addTokenAddress",
      "outputs": [],
      "stateMutability": "nonpayable",
      "type": "function"
    },
    {
      "inputs": [],
      "name": "basePriceWithDec",
      "outputs": [
        {
          "internalType": "uint256",
          "name": "",
          "type": "uint256"
        }
      ],
      "stateMutability": "view",
      "type": "function"
    },
    {
      "inputs": [],
      "name": "bonusTokenPercent",
      "outputs": [
        {
          "internalType": "uint256",
          "name": "",
          "type": "uint256"
        }
      ],
      "stateMutability": "view",
      "type": "function"
    },
    {
      "inputs": [],
      "name": "bonusTokenPeriod",
      "outputs": [
        {
          "internalType": "uint256",
          "name": "",
          "type": "uint256"
        }
      ],
      "stateMutability": "view",
      "type": "function"
    },
    {
      "inputs": [
        {
          "internalType": "uint256",
          "name": "tokenID_",
          "type": "uint256"
        },
        {
          "internalType": "uint256",
          "name": "amountInGENZ",
          "type": "uint256"
        },
        {
          "internalType": "uint256",
          "name": "deadline",
          "type": "uint256"
        },
        {
          "internalType": "uint8",
          "name": "permitV",
          "type": "uint8"
        },
        {
          "internalType": "bytes32",
          "name": "permitR",
          "type": "bytes32"
        },
        {
          "internalType": "bytes32",
          "name": "permitS",
          "type": "bytes32"
        }
      ],
      "name": "buyTokenGENZ",
      "outputs": [],
      "stateMutability": "nonpayable",
      "type": "function"
    },
    {
      "inputs": [
        {
          "internalType": "bytes32",
          "name": "role",
          "type": "bytes32"
        }
      ],
      "name": "getRoleAdmin",
      "outputs": [
        {
          "internalType": "bytes32",
          "name": "",
          "type": "bytes32"
        }
      ],
      "stateMutability": "view",
      "type": "function"
    },
    {
      "inputs": [],
      "name": "globalPauseOperation",
      "outputs": [
        {
          "internalType": "contract IGlobalPauseOperation",
          "name": "",
          "type": "address"
        }
      ],
      "stateMutability": "view",
      "type": "function"
    },
    {
      "inputs": [
        {
          "internalType": "bytes32",
          "name": "role",
          "type": "bytes32"
        },
        {
          "internalType": "address",
          "name": "account",
          "type": "address"
        }
      ],
      "name": "grantRole",
      "outputs": [],
      "stateMutability": "nonpayable",
      "type": "function"
    },
    {
      "inputs": [
        {
          "internalType": "bytes32",
          "name": "role",
          "type": "bytes32"
        },
        {
          "internalType": "address",
          "name": "account",
          "type": "address"
        }
      ],
      "name": "hasRole",
      "outputs": [
        {
          "internalType": "bool",
          "name": "",
          "type": "bool"
        }
      ],
      "stateMutability": "view",
      "type": "function"
    },
    {
      "inputs": [],
      "name": "ifNotPaused",
      "outputs": [],
      "stateMutability": "view",
      "type": "function"
    },
    {
      "inputs": [
        {
          "internalType": "address",
          "name": "addressDAI",
          "type": "address"
        }
      ],
      "name": "initialize",
      "outputs": [],
      "stateMutability": "nonpayable",
      "type": "function"
    },
    {
      "inputs": [],
      "name": "isAdmin",
      "outputs": [
        {
          "internalType": "bool",
          "name": "",
          "type": "bool"
        }
      ],
      "stateMutability": "view",
      "type": "function"
    },
    {
      "inputs": [],
      "name": "isModerator",
      "outputs": [
        {
          "internalType": "bool",
          "name": "",
          "type": "bool"
        }
      ],
      "stateMutability": "view",
      "type": "function"
    },
    {
      "inputs": [],
      "name": "minWithdrawalPeriod",
      "outputs": [
        {
          "internalType": "uint256",
          "name": "",
          "type": "uint256"
        }
      ],
      "stateMutability": "view",
      "type": "function"
    },
    {
      "inputs": [],
      "name": "pause",
      "outputs": [],
      "stateMutability": "nonpayable",
      "type": "function"
    },
    {
      "inputs": [],
      "name": "paused",
      "outputs": [
        {
          "internalType": "bool",
          "name": "",
          "type": "bool"
        }
      ],
      "stateMutability": "view",
      "type": "function"
    },
    {
      "inputs": [
        {
          "internalType": "uint256",
          "name": "",
          "type": "uint256"
        }
      ],
      "name": "permissionedTokens",
      "outputs": [
        {
          "internalType": "address",
          "name": "",
          "type": "address"
        }
      ],
      "stateMutability": "view",
      "type": "function"
    },
    {
      "inputs": [
        {
          "internalType": "bytes32",
          "name": "role",
          "type": "bytes32"
        },
        {
          "internalType": "address",
          "name": "account",
          "type": "address"
        }
      ],
      "name": "renounceRole",
      "outputs": [],
      "stateMutability": "nonpayable",
      "type": "function"
    },
    {
      "inputs": [
        {
          "internalType": "bytes32",
          "name": "role",
          "type": "bytes32"
        },
        {
          "internalType": "address",
          "name": "account",
          "type": "address"
        }
      ],
      "name": "revokeRole",
      "outputs": [],
      "stateMutability": "nonpayable",
      "type": "function"
    },
    {
      "inputs": [],
      "name": "saleCap",
      "outputs": [
        {
          "internalType": "uint256",
          "name": "",
          "type": "uint256"
        }
      ],
      "stateMutability": "view",
      "type": "function"
    },
    {
      "inputs": [
        {
          "internalType": "bytes4",
          "name": "interfaceId",
          "type": "bytes4"
        }
      ],
      "name": "supportsInterface",
      "outputs": [
        {
          "internalType": "bool",
          "name": "",
          "type": "bool"
        }
      ],
      "stateMutability": "view",
      "type": "function"
    },
    {
      "inputs": [],
      "name": "tokenCounter",
      "outputs": [
        {
          "internalType": "uint256",
          "name": "",
          "type": "uint256"
        }
      ],
      "stateMutability": "view",
      "type": "function"
    },
    {
      "inputs": [],
      "name": "tokenGENZ",
      "outputs": [
        {
          "internalType": "contract IERC20Upgradeable",
          "name": "",
          "type": "address"
        }
      ],
      "stateMutability": "view",
      "type": "function"
    },
    {
      "inputs": [],
      "name": "tokenID",
      "outputs": [
        {
          "internalType": "uint256",
          "name": "",
          "type": "uint256"
        }
      ],
      "stateMutability": "view",
      "type": "function"
    },
    {
      "inputs": [],
      "name": "totalSupply",
      "outputs": [
        {
          "internalType": "uint256",
          "name": "",
          "type": "uint256"
        }
      ],
      "stateMutability": "view",
      "type": "function"
    },
    {
      "inputs": [
        {
          "internalType": "address",
          "name": "to",
          "type": "address"
        },
        {
          "internalType": "uint256",
          "name": "tokenID_",
          "type": "uint256"
        },
        {
          "internalType": "uint256",
          "name": "amount",
          "type": "uint256"
        }
      ],
      "name": "transferFunds",
      "outputs": [],
      "stateMutability": "nonpayable",
      "type": "function"
    },
    {
      "inputs": [
        {
          "internalType": "address",
          "name": "to",
          "type": "address"
        },
        {
          "internalType": "uint256",
          "name": "amount",
          "type": "uint256"
        }
      ],
      "name": "transferGENZ",
      "outputs": [],
      "stateMutability": "nonpayable",
      "type": "function"
    },
    {
      "inputs": [],
      "name": "unpause",
      "outputs": [],
      "stateMutability": "nonpayable",
      "type": "function"
    },
    {
      "inputs": [
        {
          "internalType": "uint256",
          "name": "updatedTokenPrice",
          "type": "uint256"
        }
      ],
      "name": "updateBaseSalePrice",
      "outputs": [],
      "stateMutability": "nonpayable",
      "type": "function"
    },
    {
      "inputs": [
        {
          "internalType": "uint256",
          "name": "updatedPercent",
          "type": "uint256"
        }
      ],
      "name": "updateBonusTokenPercent",
      "outputs": [],
      "stateMutability": "nonpayable",
      "type": "function"
    },
    {
      "inputs": [
        {
          "internalType": "uint256",
          "name": "timeInHours",
          "type": "uint256"
        }
      ],
      "name": "updateBonusTokenPeriod",
      "outputs": [],
      "stateMutability": "nonpayable",
      "type": "function"
    },
    {
      "inputs": [
        {
          "internalType": "uint256",
          "name": "timeInMinutes",
          "type": "uint256"
        }
      ],
      "name": "updateMinimumWithdrawalPeriod",
      "outputs": [],
      "stateMutability": "nonpayable",
      "type": "function"
    },
    {
      "inputs": [
        {
          "internalType": "uint256",
          "name": "updatedSaleCap",
          "type": "uint256"
        }
      ],
      "name": "updateSaleCap",
      "outputs": [],
      "stateMutability": "nonpayable",
      "type": "function"
    },
    {
      "inputs": [
        {
          "internalType": "address",
          "name": "",
          "type": "address"
        }
      ],
      "name": "usersInformation",
      "outputs": [
        {
          "internalType": "bool",
          "name": "hasBought",
          "type": "bool"
        },
        {
          "internalType": "uint256",
          "name": "amount",
          "type": "uint256"
        },
        {
          "internalType": "uint256",
          "name": "minWithdrawTime",
          "type": "uint256"
        }
      ],
      "stateMutability": "view",
      "type": "function"
    },
    {
      "inputs": [],
      "name": "withdrawTokens",
      "outputs": [],
      "stateMutability": "nonpayable",
      "type": "function"
    }
  ],
  "bytecode": "0x60c06040523480156200001157600080fd5b5060405162003eca38038062003eca833981810160405281019062000037919062000111565b8173ffffffffffffffffffffffffffffffffffffffff1660808173ffffffffffffffffffffffffffffffffffffffff16815250508073ffffffffffffffffffffffffffffffffffffffff1660a08173ffffffffffffffffffffffffffffffffffffffff1681525050505062000158565b600080fd5b600073ffffffffffffffffffffffffffffffffffffffff82169050919050565b6000620000d982620000ac565b9050919050565b620000eb81620000cc565b8114620000f757600080fd5b50565b6000815190506200010b81620000e0565b92915050565b600080604083850312156200012b576200012a620000a7565b5b60006200013b85828601620000fa565b92505060206200014e85828601620000fa565b9150509250929050565b60805160a051613d376200019360003960008181610ae90152610d4e015260008181610d13015281816115290152611f300152613d376000f3fe608060405234801561001057600080fd5b50600436106102325760003560e01c80638d8f2adb11610130578063c4d66de8116100b8578063dc8a08e41161007c578063dc8a08e4146105f7578063e3b10fb914610615578063e849350014610631578063eaef39991461064d578063fa3705fe1461066957610232565b8063c4d66de814610555578063d082e38114610571578063d547741f1461058f578063d6567c28146105ab578063dc1ccde2146105c757610232565b8063a5c42ef1116100ff578063a5c42ef1146104bf578063a7ad88f3146104dd578063a7dff3b7146104fb578063aeabaff314610519578063b6db75a01461053757610232565b80638d8f2adb1461044b57806391d14854146104555780639a7e075614610485578063a217fddf146104a157610232565b806336568abe116101be5780635919a87b116101825780635919a87b146103cb5780635c975abb146103e957806364063fdf146104075780636e810b1a146104255780638456cb591461044157610232565b806336568abe146103615780633f4ba83a1461037d5780634c395adf146103875780634d868f98146103a557806351992fcb146103af57610232565b806318160ddd1161020557806318160ddd146102bf578063248a9ca3146102dd5780632c99c1751461030d5780632f2ff15d1461032957806334ad70751461034557610232565b806301ffc9a714610237578063051e6cb114610267578063078fd9ea1461028357806312b4af3e146102a1575b600080fd5b610251600480360381019061024c9190612c2d565b61069b565b60405161025e9190612c75565b60405180910390f35b610281600480360381019061027c9190612cc6565b610715565b005b61028b6107a0565b6040516102989190612d02565b60405180910390f35b6102a96107a6565b6040516102b69190612d02565b60405180910390f35b6102c76107ad565b6040516102d49190612d02565b60405180910390f35b6102f760048036038101906102f29190612d53565b6107b3565b6040516103049190612d8f565b60405180910390f35b61032760048036038101906103229190612cc6565b6107d3565b005b610343600480360381019061033e9190612e08565b610851565b005b61035f600480360381019061035a9190612e48565b610872565b005b61037b60048036038101906103769190612e08565b6109fe565b005b610385610a81565b005b61038f610ad2565b60405161039c9190612d02565b60405180910390f35b6103ad610ad9565b005b6103c960048036038101906103c49190612e9b565b610bb0565b005b6103d3610d11565b6040516103e09190612f27565b60405180910390f35b6103f1610d35565b6040516103fe9190612c75565b60405180910390f35b61040f610d4c565b60405161041c9190612f63565b60405180910390f35b61043f600480360381019061043a9190612e9b565b610d70565b005b610449610e92565b005b610453610ee3565b005b61046f600480360381019061046a9190612e08565b6110a2565b60405161047c9190612c75565b60405180910390f35b61049f600480360381019061049a9190612fb7565b61110d565b005b6104a9611205565b6040516104b69190612d8f565b60405180910390f35b6104c761120c565b6040516104d49190612d02565b60405180910390f35b6104e5611212565b6040516104f29190612d02565b60405180910390f35b610503611218565b6040516105109190612d02565b60405180910390f35b61052161121e565b60405161052e9190612c75565b60405180910390f35b61053f61123d565b60405161054c9190612c75565b60405180910390f35b61056f600480360381019061056a9190612e9b565b61125c565b005b6105796114b4565b6040516105869190612d02565b60405180910390f35b6105a960048036038101906105a49190612e08565b6114ba565b005b6105c560048036038101906105c09190613044565b6114db565b005b6105e160048036038101906105dc9190612cc6565b611571565b6040516105ee9190613093565b60405180910390f35b6105ff6115a5565b60405161060c9190612d02565b60405180910390f35b61062f600480360381019061062a9190612cc6565b6115ac565b005b61064b60048036038101906106469190612cc6565b61162b565b005b61066760048036038101906106629190612cc6565b6116c2565b005b610683600480360381019061067e9190612e9b565b611740565b604051610692939291906130ae565b60405180910390f35b60007f7965db0b000000000000000000000000000000000000000000000000000000007bffffffffffffffffffffffffffffffffffffffffffffffffffffffff1916827bffffffffffffffffffffffffffffffffffffffffffffffffffffffff1916148061070e575061070d82611778565b5b9050919050565b61071d61123d565b61075c576040517f08c379a000000000000000000000000000000000000000000000000000000000815260040161075390613168565b60405180910390fd5b603c8161076991906131b7565b61010281905550807fd40411703d84173e3d914f49781e4bd3899ac476aa3928280622a10827c7dc5c60405160405180910390a250565b60fb5481565b6101025481565b60fd5481565b600060976000838152602001908152602001600020600101549050919050565b6107db61123d565b61081a576040517f08c379a000000000000000000000000000000000000000000000000000000000815260040161081190613168565b60405180910390fd5b8060fb81905550807fa50b8e9104ceeb46dbf69ac60774e6c50c0344cbd9bc4da6daa58679cada0bf060405160405180910390a250565b61085a826107b3565b610863816117e2565b61086d83836117f6565b505050565b61087a61123d565b6108b9576040517f08c379a00000000000000000000000000000000000000000000000000000000081526004016108b090613168565b60405180910390fd5b6000610103600084815260200190815260200160002060009054906101000a900473ffffffffffffffffffffffffffffffffffffffff169050600073ffffffffffffffffffffffffffffffffffffffff168173ffffffffffffffffffffffffffffffffffffffff1603610958576040517fef498fc000000000000000000000000000000000000000000000000000000000815260040160405180910390fd5b600081905061098885848373ffffffffffffffffffffffffffffffffffffffff166118d79092919063ffffffff16565b6109b385848373ffffffffffffffffffffffffffffffffffffffff166119e99092919063ffffffff16565b828573ffffffffffffffffffffffffffffffffffffffff167f8c9a4f13b67cb64d7c6aa1ae0c9bf07694af521a28b93e7060020810ab4bc59f60405160405180910390a35050505050565b610a06611a6f565b73ffffffffffffffffffffffffffffffffffffffff168173ffffffffffffffffffffffffffffffffffffffff1614610a73576040517f08c379a0000000000000000000000000000000000000000000000000000000008152600401610a6a90613283565b60405180910390fd5b610a7d8282611a77565b5050565b610a8961123d565b610ac8576040517f08c379a0000000000000000000000000000000000000000000000000000000008152600401610abf90613168565b60405180910390fd5b610ad0611b59565b565b6101015481565b610ae1610d35565b80610b7757507f000000000000000000000000000000000000000000000000000000000000000073ffffffffffffffffffffffffffffffffffffffff1663b187bd266040518163ffffffff1660e01b8152600401602060405180830381865afa158015610b52573d6000803e3d6000fd5b505050506040513d601f19601f82011682018060405250810190610b7691906132cf565b5b15610bae576040517f844f7f8000000000000000000000000000000000000000000000000000000000815260040160405180910390fd5b565b610bb861123d565b610bf7576040517f08c379a0000000000000000000000000000000000000000000000000000000008152600401610bee90613168565b60405180910390fd5b600073ffffffffffffffffffffffffffffffffffffffff168173ffffffffffffffffffffffffffffffffffffffff1603610c5d576040517fef498fc000000000000000000000000000000000000000000000000000000000815260040160405180910390fd5b60fc60008154610c6c906132fc565b9190508190555080610103600060fc54815260200190815260200160002060006101000a81548173ffffffffffffffffffffffffffffffffffffffff021916908373ffffffffffffffffffffffffffffffffffffffff1602179055508073ffffffffffffffffffffffffffffffffffffffff1660fc547f8011fff8b5bba1d314cf6c6366e5398e6153bbf5a91322a1aed92f4511f4177a60405160405180910390a350565b7f000000000000000000000000000000000000000000000000000000000000000081565b6000603360009054906101000a900460ff16905090565b7f000000000000000000000000000000000000000000000000000000000000000081565b600060019054906101000a900460ff16610dbf576040517f08c379a0000000000000000000000000000000000000000000000000000000008152600401610db6906133b6565b60405180910390fd5b600073ffffffffffffffffffffffffffffffffffffffff168173ffffffffffffffffffffffffffffffffffffffff1603610e25576040517f5415139400000000000000000000000000000000000000000000000000000000815260040160405180910390fd5b610e2d611bbc565b610e35611c15565b610e3d611c66565b610e4e610e48611cbf565b826117f6565b610e5f610e59611ce7565b826117f6565b610e77610e6a611ce7565b610e72611cbf565b611d0f565b610e8f610e82611cbf565b610e8a611cbf565b611d0f565b50565b610e9a61123d565b610ed9576040517f08c379a0000000000000000000000000000000000000000000000000000000008152600401610ed090613168565b60405180910390fd5b610ee1611d6b565b565b610eeb611dce565b610ef3610ad9565b6101046000610f00611a6f565b73ffffffffffffffffffffffffffffffffffffffff1673ffffffffffffffffffffffffffffffffffffffff16815260200190815260200160002060000160009054906101000a900460ff16610f81576040517fd3d83d5000000000000000000000000000000000000000000000000000000000815260040160405180910390fd5b426101046000610f8f611a6f565b73ffffffffffffffffffffffffffffffffffffffff1673ffffffffffffffffffffffffffffffffffffffff168152602001908152602001600020600201541115611005576040517f1ae3cd2e00000000000000000000000000000000000000000000000000000000815260040160405180910390fd5b600080611010611e1d565b915091508161104b576040517f6a1d8c2f00000000000000000000000000000000000000000000000000000000815260040160405180910390fd5b80611054611a6f565b73ffffffffffffffffffffffffffffffffffffffff167f3f775fc7ee00560e47f9f3417f460f166b467d260ed0581df704c407786b9a6e60405160405180910390a350506110a0611f80565b565b60006097600084815260200190815260200160002060000160008373ffffffffffffffffffffffffffffffffffffffff1673ffffffffffffffffffffffffffffffffffffffff16815260200190815260200160002060009054906101000a900460ff16905092915050565b611115611dce565b61111d610ad9565b683635c9adc5dea00000851015611160576040517f7573bb7200000000000000000000000000000000000000000000000000000000815260040160405180910390fd5b6000611170878787878787611f8a565b9050806111a9576040517ffe46b45b00000000000000000000000000000000000000000000000000000000815260040160405180910390fd5b856111b2611a6f565b73ffffffffffffffffffffffffffffffffffffffff167fadc9b0fddc623ca286da4ea7f1db2af18c59a490c0157f5d6a51fecb2043b84a60405160405180910390a3506111fd611f80565b505050505050565b6000801b81565b60fc5481565b60ff5481565b61708081565b600061123861122b611ce7565b611233611a6f565b6110a2565b905090565b600061125761124a611cbf565b611252611a6f565b6110a2565b905090565b60008060019054906101000a900460ff1615905080801561128d5750600160008054906101000a900460ff1660ff16105b806112ba575061129c306122a0565b1580156112b95750600160008054906101000a900460ff1660ff16145b5b6112f9576040517f08c379a00000000000000000000000000000000000000000000000000000000081526004016112f090613448565b60405180910390fd5b60016000806101000a81548160ff021916908360ff1602179055508015611336576001600060016101000a81548160ff0219169083151502179055505b60fc60008154611345906132fc565b919050819055506a084595161401484a00000060fb819055506a52b7d2dcc80cd2e400000060fd8190555067016345785d8a000060ff819055506202a3004261138e9190613468565b6101008190555060056101018190555061012c6101028190555081610103600060fc54815260200190815260200160002060006101000a81548173ffffffffffffffffffffffffffffffffffffffff021916908373ffffffffffffffffffffffffffffffffffffffff16021790555061140d611408611a6f565b610d70565b611415611a6f565b73ffffffffffffffffffffffffffffffffffffffff167f6fd060af3cb3283284373006d4c9a29ebe5f5a5a1b90dcbe5d4d82598935ceb660405160405180910390a280156114b05760008060016101000a81548160ff0219169083151502179055507f7f26b83ff96e1f2b6a682f133852f6798a09c465da95921460cefb384740249860016040516114a791906134d7565b60405180910390a15b5050565b60fe5481565b6114c3826107b3565b6114cc816117e2565b6114d68383611a77565b505050565b6114e361123d565b611522576040517f08c379a000000000000000000000000000000000000000000000000000000000815260040161151990613168565b60405180910390fd5b61156d82827f000000000000000000000000000000000000000000000000000000000000000073ffffffffffffffffffffffffffffffffffffffff166119e99092919063ffffffff16565b5050565b6101036020528060005260406000206000915054906101000a900473ffffffffffffffffffffffffffffffffffffffff1681565b6101005481565b6115b461123d565b6115f3576040517f08c379a00000000000000000000000000000000000000000000000000000000081526004016115ea90613168565b60405180910390fd5b8061010181905550807f6b618751f57fef159a3639daa57bffa2a299834482cf08325ab47966d680325c60405160405180910390a250565b61163361123d565b611672576040517f08c379a000000000000000000000000000000000000000000000000000000000815260040161166990613168565b60405180910390fd5b42610e108261168191906131b7565b61168b9190613468565b61010081905550807faa85a3f2bc82294bb77f9aaccf0a680702fca945decd86988baab34995bafd5a60405160405180910390a250565b6116ca61123d565b611709576040517f08c379a000000000000000000000000000000000000000000000000000000000815260040161170090613168565b60405180910390fd5b8060ff81905550807fa3bf1905dde6ff79dad27926079467a3a4f5bb8507fd3e3e83709de4f57dd98860405160405180910390a250565b6101046020528060005260406000206000915090508060000160009054906101000a900460ff16908060010154908060020154905083565b60007f01ffc9a7000000000000000000000000000000000000000000000000000000007bffffffffffffffffffffffffffffffffffffffffffffffffffffffff1916827bffffffffffffffffffffffffffffffffffffffffffffffffffffffff1916149050919050565b6117f3816117ee611a6f565b6122c3565b50565b61180082826110a2565b6118d35760016097600084815260200190815260200160002060000160008373ffffffffffffffffffffffffffffffffffffffff1673ffffffffffffffffffffffffffffffffffffffff16815260200190815260200160002060006101000a81548160ff021916908315150217905550611878611a6f565b73ffffffffffffffffffffffffffffffffffffffff168173ffffffffffffffffffffffffffffffffffffffff16837f2f8788117e7eff1d82e926ec794901d17c78024a50270940304540a733656f0d60405160405180910390a45b5050565b6000818473ffffffffffffffffffffffffffffffffffffffff1663dd62ed3e30866040518363ffffffff1660e01b81526004016119159291906134f2565b602060405180830381865afa158015611932573d6000803e3d6000fd5b505050506040513d601f19601f820116820180604052508101906119569190613530565b6119609190613468565b90506119e38463095ea7b360e01b858460405160240161198192919061355d565b604051602081830303815290604052907bffffffffffffffffffffffffffffffffffffffffffffffffffffffff19166020820180517bffffffffffffffffffffffffffffffffffffffffffffffffffffffff8381831617835250505050612348565b50505050565b611a6a8363a9059cbb60e01b8484604051602401611a0892919061355d565b604051602081830303815290604052907bffffffffffffffffffffffffffffffffffffffffffffffffffffffff19166020820180517bffffffffffffffffffffffffffffffffffffffffffffffffffffffff8381831617835250505050612348565b505050565b600033905090565b611a8182826110a2565b15611b555760006097600084815260200190815260200160002060000160008373ffffffffffffffffffffffffffffffffffffffff1673ffffffffffffffffffffffffffffffffffffffff16815260200190815260200160002060006101000a81548160ff021916908315150217905550611afa611a6f565b73ffffffffffffffffffffffffffffffffffffffff168173ffffffffffffffffffffffffffffffffffffffff16837ff6391f5c32d9c69d2a47ea670b442974b53935d1edc7fd64eb21e047a839171b60405160405180910390a45b5050565b611b6161240f565b6000603360006101000a81548160ff0219169083151502179055507f5db9ee0a495bf2e6ff9c91a7834c1ba4fdd244a5e8aa4e537bd38aeae4b073aa611ba5611a6f565b604051611bb29190613093565b60405180910390a1565b600060019054906101000a900460ff16611c0b576040517f08c379a0000000000000000000000000000000000000000000000000000000008152600401611c02906133b6565b60405180910390fd5b611c13612458565b565b600060019054906101000a900460ff16611c64576040517f08c379a0000000000000000000000000000000000000000000000000000000008152600401611c5b906133b6565b60405180910390fd5b565b600060019054906101000a900460ff16611cb5576040517f08c379a0000000000000000000000000000000000000000000000000000000008152600401611cac906133b6565b60405180910390fd5b611cbd6124c4565b565b60007fa49807205ce4d355092ef5a8a18f56e8913cf4a201fbe287825b095693c21775905090565b60007f65d7a28e3265b37a6474929f336521b332c1681b933f6cb9f3376673440d862a905090565b6000611d1a836107b3565b90508160976000858152602001908152602001600020600101819055508181847fbd79b86ffe0ab8e8776151514217cd7cacd52c909f66475c3af44e129f0b00ff60405160405180910390a4505050565b611d7361251d565b6001603360006101000a81548160ff0219169083151502179055507f62e78cea01bee320cd4e420270b5ea74000d11b0c9f74754ebdbfc544b05a258611db7611a6f565b604051611dc49190613093565b60405180910390a1565b600260c95403611e13576040517f08c379a0000000000000000000000000000000000000000000000000000000008152600401611e0a906135d2565b60405180910390fd5b600260c981905550565b60008060006101046000611e2f611a6f565b73ffffffffffffffffffffffffffffffffffffffff1673ffffffffffffffffffffffffffffffffffffffff16815260200190815260200160002060010154905060006101046000611e7e611a6f565b73ffffffffffffffffffffffffffffffffffffffff1673ffffffffffffffffffffffffffffffffffffffff16815260200190815260200160002060000160006101000a81548160ff02191690831515021790555060006101046000611ee1611a6f565b73ffffffffffffffffffffffffffffffffffffffff1673ffffffffffffffffffffffffffffffffffffffff16815260200190815260200160002060010181905550611f74611f2d611a6f565b827f000000000000000000000000000000000000000000000000000000000000000073ffffffffffffffffffffffffffffffffffffffff166119e99092919063ffffffff16565b60018192509250509091565b600160c981905550565b600080610103600089815260200190815260200160002060009054906101000a900473ffffffffffffffffffffffffffffffffffffffff169050600073ffffffffffffffffffffffffffffffffffffffff168173ffffffffffffffffffffffffffffffffffffffff160361202a576040517fef498fc000000000000000000000000000000000000000000000000000000000815260040160405180910390fd5b6000819050600082905060008960ff5461204491906131b7565b90508273ffffffffffffffffffffffffffffffffffffffff166370a0823161206a611a6f565b6040518263ffffffff1660e01b81526004016120869190613093565b602060405180830381865afa1580156120a3573d6000803e3d6000fd5b505050506040513d601f19601f820116820180604052508101906120c79190613530565b811115612100576040517f2b2cce3f00000000000000000000000000000000000000000000000000000000815260040160405180910390fd5b6101005442101561214e57600a60fb5461211a91906131b7565b60fd54610101548c61212c91906131b7565b61213691906131b7565b6121409190613621565b8a61214b9190613468565b99505b8960fe60008282546121609190613468565b92505081905550617080610102600082825461217c9190613468565b9250508190555060006101046000612192611a6f565b73ffffffffffffffffffffffffffffffffffffffff1673ffffffffffffffffffffffffffffffffffffffff168152602001908152602001600020905060018160000160006101000a81548160ff0219169083151502179055508a8160010160008282546121ff9190613468565b9250508190555061010254426122159190613468565b8160020181905550612259612228611a6f565b30848d8d8d8d8a73ffffffffffffffffffffffffffffffffffffffff1661256790979695949392919063ffffffff16565b61228d612264611a6f565b30848773ffffffffffffffffffffffffffffffffffffffff16612734909392919063ffffffff16565b6001955050505050509695505050505050565b6000808273ffffffffffffffffffffffffffffffffffffffff163b119050919050565b6122cd82826110a2565b612344576122da816127bd565b6122e88360001c60206127ea565b6040516020016122f992919061375b565b6040516020818303038152906040526040517f08c379a000000000000000000000000000000000000000000000000000000000815260040161233b91906137df565b60405180910390fd5b5050565b60006123aa826040518060400160405280602081526020017f5361666545524332303a206c6f772d6c6576656c2063616c6c206661696c65648152508573ffffffffffffffffffffffffffffffffffffffff16612a269092919063ffffffff16565b905060008151111561240a57808060200190518101906123ca91906132cf565b612409576040517f08c379a000000000000000000000000000000000000000000000000000000000815260040161240090613873565b60405180910390fd5b5b505050565b612417610d35565b612456576040517f08c379a000000000000000000000000000000000000000000000000000000000815260040161244d906138df565b60405180910390fd5b565b600060019054906101000a900460ff166124a7576040517f08c379a000000000000000000000000000000000000000000000000000000000815260040161249e906133b6565b60405180910390fd5b6000603360006101000a81548160ff021916908315150217905550565b600060019054906101000a900460ff16612513576040517f08c379a000000000000000000000000000000000000000000000000000000000815260040161250a906133b6565b60405180910390fd5b600160c981905550565b612525610d35565b15612565576040517f08c379a000000000000000000000000000000000000000000000000000000000815260040161255c9061394b565b60405180910390fd5b565b60008873ffffffffffffffffffffffffffffffffffffffff16637ecebe00896040518263ffffffff1660e01b81526004016125a29190613093565b602060405180830381865afa1580156125bf573d6000803e3d6000fd5b505050506040513d601f19601f820116820180604052508101906125e39190613530565b90508873ffffffffffffffffffffffffffffffffffffffff1663d505accf898989898989896040518863ffffffff1660e01b815260040161262a979695949392919061397a565b600060405180830381600087803b15801561264457600080fd5b505af1158015612658573d6000803e3d6000fd5b5050505060008973ffffffffffffffffffffffffffffffffffffffff16637ecebe008a6040518263ffffffff1660e01b81526004016126979190613093565b602060405180830381865afa1580156126b4573d6000803e3d6000fd5b505050506040513d601f19601f820116820180604052508101906126d89190613530565b90506001826126e79190613468565b8114612728576040517f08c379a000000000000000000000000000000000000000000000000000000000815260040161271f90613a5b565b60405180910390fd5b50505050505050505050565b6127b7846323b872dd60e01b85858560405160240161275593929190613a7b565b604051602081830303815290604052907bffffffffffffffffffffffffffffffffffffffffffffffffffffffff19166020820180517bffffffffffffffffffffffffffffffffffffffffffffffffffffffff8381831617835250505050612348565b50505050565b60606127e38273ffffffffffffffffffffffffffffffffffffffff16601460ff166127ea565b9050919050565b6060600060028360026127fd91906131b7565b6128079190613468565b67ffffffffffffffff8111156128205761281f613ab2565b5b6040519080825280601f01601f1916602001820160405280156128525781602001600182028036833780820191505090505b5090507f30000000000000000000000000000000000000000000000000000000000000008160008151811061288a57612889613ae1565b5b60200101907effffffffffffffffffffffffffffffffffffffffffffffffffffffffffffff1916908160001a9053507f7800000000000000000000000000000000000000000000000000000000000000816001815181106128ee576128ed613ae1565b5b60200101907effffffffffffffffffffffffffffffffffffffffffffffffffffffffffffff1916908160001a9053506000600184600261292e91906131b7565b6129389190613468565b90505b60018111156129d8577f3031323334353637383961626364656600000000000000000000000000000000600f86166010811061297a57612979613ae1565b5b1a60f81b82828151811061299157612990613ae1565b5b60200101907effffffffffffffffffffffffffffffffffffffffffffffffffffffffffffff1916908160001a905350600485901c9450806129d190613b10565b905061293b565b5060008414612a1c576040517f08c379a0000000000000000000000000000000000000000000000000000000008152600401612a1390613b85565b60405180910390fd5b8091505092915050565b6060612a358484600085612a3e565b90509392505050565b606082471015612a83576040517f08c379a0000000000000000000000000000000000000000000000000000000008152600401612a7a90613c17565b60405180910390fd5b6000808673ffffffffffffffffffffffffffffffffffffffff168587604051612aac9190613c7e565b60006040518083038185875af1925050503d8060008114612ae9576040519150601f19603f3d011682016040523d82523d6000602084013e612aee565b606091505b5091509150612aff87838387612b0b565b92505050949350505050565b60608315612b6d576000835103612b6557612b25856122a0565b612b64576040517f08c379a0000000000000000000000000000000000000000000000000000000008152600401612b5b90613ce1565b60405180910390fd5b5b829050612b78565b612b778383612b80565b5b949350505050565b600082511115612b935781518083602001fd5b806040517f08c379a0000000000000000000000000000000000000000000000000000000008152600401612bc791906137df565b60405180910390fd5b600080fd5b60007fffffffff0000000000000000000000000000000000000000000000000000000082169050919050565b612c0a81612bd5565b8114612c1557600080fd5b50565b600081359050612c2781612c01565b92915050565b600060208284031215612c4357612c42612bd0565b5b6000612c5184828501612c18565b91505092915050565b60008115159050919050565b612c6f81612c5a565b82525050565b6000602082019050612c8a6000830184612c66565b92915050565b6000819050919050565b612ca381612c90565b8114612cae57600080fd5b50565b600081359050612cc081612c9a565b92915050565b600060208284031215612cdc57612cdb612bd0565b5b6000612cea84828501612cb1565b91505092915050565b612cfc81612c90565b82525050565b6000602082019050612d176000830184612cf3565b92915050565b6000819050919050565b612d3081612d1d565b8114612d3b57600080fd5b50565b600081359050612d4d81612d27565b92915050565b600060208284031215612d6957612d68612bd0565b5b6000612d7784828501612d3e565b91505092915050565b612d8981612d1d565b82525050565b6000602082019050612da46000830184612d80565b92915050565b600073ffffffffffffffffffffffffffffffffffffffff82169050919050565b6000612dd582612daa565b9050919050565b612de581612dca565b8114612df057600080fd5b50565b600081359050612e0281612ddc565b92915050565b60008060408385031215612e1f57612e1e612bd0565b5b6000612e2d85828601612d3e565b9250506020612e3e85828601612df3565b9150509250929050565b600080600060608486031215612e6157612e60612bd0565b5b6000612e6f86828701612df3565b9350506020612e8086828701612cb1565b9250506040612e9186828701612cb1565b9150509250925092565b600060208284031215612eb157612eb0612bd0565b5b6000612ebf84828501612df3565b91505092915050565b6000819050919050565b6000612eed612ee8612ee384612daa565b612ec8565b612daa565b9050919050565b6000612eff82612ed2565b9050919050565b6000612f1182612ef4565b9050919050565b612f2181612f06565b82525050565b6000602082019050612f3c6000830184612f18565b92915050565b6000612f4d82612ef4565b9050919050565b612f5d81612f42565b82525050565b6000602082019050612f786000830184612f54565b92915050565b600060ff82169050919050565b612f9481612f7e565b8114612f9f57600080fd5b50565b600081359050612fb181612f8b565b92915050565b60008060008060008060c08789031215612fd457612fd3612bd0565b5b6000612fe289828a01612cb1565b9650506020612ff389828a01612cb1565b955050604061300489828a01612cb1565b945050606061301589828a01612fa2565b935050608061302689828a01612d3e565b92505060a061303789828a01612d3e565b9150509295509295509295565b6000806040838503121561305b5761305a612bd0565b5b600061306985828601612df3565b925050602061307a85828601612cb1565b9150509250929050565b61308d81612dca565b82525050565b60006020820190506130a86000830184613084565b92915050565b60006060820190506130c36000830186612c66565b6130d06020830185612cf3565b6130dd6040830184612cf3565b949350505050565b600082825260208201905092915050565b7f4d75737420686176652061646d696e20726f6c6520746f20706572666f726d2060008201527f7468697320616374696f6e2e0000000000000000000000000000000000000000602082015250565b6000613152602c836130e5565b915061315d826130f6565b604082019050919050565b6000602082019050818103600083015261318181613145565b9050919050565b7f4e487b7100000000000000000000000000000000000000000000000000000000600052601160045260246000fd5b60006131c282612c90565b91506131cd83612c90565b9250817fffffffffffffffffffffffffffffffffffffffffffffffffffffffffffffffff048311821515161561320657613205613188565b5b828202905092915050565b7f416363657373436f6e74726f6c3a2063616e206f6e6c792072656e6f756e636560008201527f20726f6c657320666f722073656c660000000000000000000000000000000000602082015250565b600061326d602f836130e5565b915061327882613211565b604082019050919050565b6000602082019050818103600083015261329c81613260565b9050919050565b6132ac81612c5a565b81146132b757600080fd5b50565b6000815190506132c9816132a3565b92915050565b6000602082840312156132e5576132e4612bd0565b5b60006132f3848285016132ba565b91505092915050565b600061330782612c90565b91507fffffffffffffffffffffffffffffffffffffffffffffffffffffffffffffffff820361333957613338613188565b5b600182019050919050565b7f496e697469616c697a61626c653a20636f6e7472616374206973206e6f74206960008201527f6e697469616c697a696e67000000000000000000000000000000000000000000602082015250565b60006133a0602b836130e5565b91506133ab82613344565b604082019050919050565b600060208201905081810360008301526133cf81613393565b9050919050565b7f496e697469616c697a61626c653a20636f6e747261637420697320616c72656160008201527f647920696e697469616c697a6564000000000000000000000000000000000000602082015250565b6000613432602e836130e5565b915061343d826133d6565b604082019050919050565b6000602082019050818103600083015261346181613425565b9050919050565b600061347382612c90565b915061347e83612c90565b925082820190508082111561349657613495613188565b5b92915050565b6000819050919050565b60006134c16134bc6134b78461349c565b612ec8565b612f7e565b9050919050565b6134d1816134a6565b82525050565b60006020820190506134ec60008301846134c8565b92915050565b60006040820190506135076000830185613084565b6135146020830184613084565b9392505050565b60008151905061352a81612c9a565b92915050565b60006020828403121561354657613545612bd0565b5b60006135548482850161351b565b91505092915050565b60006040820190506135726000830185613084565b61357f6020830184612cf3565b9392505050565b7f5265656e7472616e637947756172643a207265656e7472616e742063616c6c00600082015250565b60006135bc601f836130e5565b91506135c782613586565b602082019050919050565b600060208201905081810360008301526135eb816135af565b9050919050565b7f4e487b7100000000000000000000000000000000000000000000000000000000600052601260045260246000fd5b600061362c82612c90565b915061363783612c90565b925082613647576136466135f2565b5b828204905092915050565b600081905092915050565b7f416363657373436f6e74726f6c3a206163636f756e7420000000000000000000600082015250565b6000613693601783613652565b915061369e8261365d565b601782019050919050565b600081519050919050565b60005b838110156136d25780820151818401526020810190506136b7565b60008484015250505050565b60006136e9826136a9565b6136f38185613652565b93506137038185602086016136b4565b80840191505092915050565b7f206973206d697373696e6720726f6c6520000000000000000000000000000000600082015250565b6000613745601183613652565b91506137508261370f565b601182019050919050565b600061376682613686565b915061377282856136de565b915061377d82613738565b915061378982846136de565b91508190509392505050565b6000601f19601f8301169050919050565b60006137b1826136a9565b6137bb81856130e5565b93506137cb8185602086016136b4565b6137d481613795565b840191505092915050565b600060208201905081810360008301526137f981846137a6565b905092915050565b7f5361666545524332303a204552433230206f7065726174696f6e20646964206e60008201527f6f74207375636365656400000000000000000000000000000000000000000000602082015250565b600061385d602a836130e5565b915061386882613801565b604082019050919050565b6000602082019050818103600083015261388c81613850565b9050919050565b7f5061757361626c653a206e6f7420706175736564000000000000000000000000600082015250565b60006138c96014836130e5565b91506138d482613893565b602082019050919050565b600060208201905081810360008301526138f8816138bc565b9050919050565b7f5061757361626c653a2070617573656400000000000000000000000000000000600082015250565b60006139356010836130e5565b9150613940826138ff565b602082019050919050565b6000602082019050818103600083015261396481613928565b9050919050565b61397481612f7e565b82525050565b600060e08201905061398f600083018a613084565b61399c6020830189613084565b6139a96040830188612cf3565b6139b66060830187612cf3565b6139c3608083018661396b565b6139d060a0830185612d80565b6139dd60c0830184612d80565b98975050505050505050565b7f5361666545524332303a207065726d697420646964206e6f742073756363656560008201527f6400000000000000000000000000000000000000000000000000000000000000602082015250565b6000613a456021836130e5565b9150613a50826139e9565b604082019050919050565b60006020820190508181036000830152613a7481613a38565b9050919050565b6000606082019050613a906000830186613084565b613a9d6020830185613084565b613aaa6040830184612cf3565b949350505050565b7f4e487b7100000000000000000000000000000000000000000000000000000000600052604160045260246000fd5b7f4e487b7100000000000000000000000000000000000000000000000000000000600052603260045260246000fd5b6000613b1b82612c90565b915060008203613b2e57613b2d613188565b5b600182039050919050565b7f537472696e67733a20686578206c656e67746820696e73756666696369656e74600082015250565b6000613b6f6020836130e5565b9150613b7a82613b39565b602082019050919050565b60006020820190508181036000830152613b9e81613b62565b9050919050565b7f416464726573733a20696e73756666696369656e742062616c616e636520666f60008201527f722063616c6c0000000000000000000000000000000000000000000000000000602082015250565b6000613c016026836130e5565b9150613c0c82613ba5565b604082019050919050565b60006020820190508181036000830152613c3081613bf4565b9050919050565b600081519050919050565b600081905092915050565b6000613c5882613c37565b613c628185613c42565b9350613c728185602086016136b4565b80840191505092915050565b6000613c8a8284613c4d565b915081905092915050565b7f416464726573733a2063616c6c20746f206e6f6e2d636f6e7472616374000000600082015250565b6000613ccb601d836130e5565b9150613cd682613c95565b602082019050919050565b60006020820190508181036000830152613cfa81613cbe565b905091905056fea2646970667358221220430160b0be87d7949b1b06508e7001e50bda1ce28e4c91afc5b39221211ca96b64736f6c63430008100033",
  "linkReferences": {},
  "deployedLinkReferences": {}
}