{
  "_format": "hh-sol-artifact-1",
  "contractName": "BuyGENZ",
  "sourceName": "contracts/core/buySell/BuyGENZ.sol",
  "abi": [
    {
      "inputs": [
        {
          "internalType": "address",
          "name": "tokenDAI",
          "type": "address"
        },
        {
          "internalType": "address",
          "name": "tokenGENZ",
          "type": "address"
        }
      ],
      "stateMutability": "nonpayable",
      "type": "constructor"
    },
    {
      "inputs": [],
      "name": "BaseUpgradeablePausable__ZeroAddressError",
      "type": "error"
    },
    {
      "inputs": [],
      "name": "BuyGENZ__TransactionFailedError",
      "type": "error"
    },
    {
      "inputs": [],
      "name": "BuySellGENZ__GENZBurnFailedError",
      "type": "error"
    },
    {
      "inputs": [],
      "name": "BuySellGENZ__GENZMintFailedError",
      "type": "error"
    },
    {
      "inputs": [],
      "name": "BuySellGENZ__ImmutableChangesError",
      "type": "error"
    },
    {
      "inputs": [],
      "name": "BuySellGENZ__InsufficientBalanceError",
      "type": "error"
    },
    {
      "inputs": [],
      "name": "BuySellGENZ__LowAmountError",
      "type": "error"
    },
    {
      "inputs": [],
      "name": "BuySellGENZ__LowSZTBalanceError",
      "type": "error"
    },
    {
      "inputs": [],
      "name": "BuySellGENZ__PausedError",
      "type": "error"
    },
    {
      "inputs": [],
      "name": "BuySellGENZ__TransactionFailedError",
      "type": "error"
    },
    {
      "inputs": [],
      "name": "BuySellGENZ__ZeroAddressTransactionError",
      "type": "error"
    },
    {
      "anonymous": false,
      "inputs": [
        {
          "indexed": false,
          "internalType": "uint8",
          "name": "version",
          "type": "uint8"
        }
      ],
      "name": "Initialized",
      "type": "event"
    },
    {
      "anonymous": false,
      "inputs": [
        {
          "indexed": false,
          "internalType": "address",
          "name": "account",
          "type": "address"
        }
      ],
      "name": "Paused",
      "type": "event"
    },
    {
      "anonymous": false,
      "inputs": [
        {
          "indexed": true,
          "internalType": "bytes32",
          "name": "role",
          "type": "bytes32"
        },
        {
          "indexed": true,
          "internalType": "bytes32",
          "name": "previousAdminRole",
          "type": "bytes32"
        },
        {
          "indexed": true,
          "internalType": "bytes32",
          "name": "newAdminRole",
          "type": "bytes32"
        }
      ],
      "name": "RoleAdminChanged",
      "type": "event"
    },
    {
      "anonymous": false,
      "inputs": [
        {
          "indexed": true,
          "internalType": "bytes32",
          "name": "role",
          "type": "bytes32"
        },
        {
          "indexed": true,
          "internalType": "address",
          "name": "account",
          "type": "address"
        },
        {
          "indexed": true,
          "internalType": "address",
          "name": "sender",
          "type": "address"
        }
      ],
      "name": "RoleGranted",
      "type": "event"
    },
    {
      "anonymous": false,
      "inputs": [
        {
          "indexed": true,
          "internalType": "bytes32",
          "name": "role",
          "type": "bytes32"
        },
        {
          "indexed": true,
          "internalType": "address",
          "name": "account",
          "type": "address"
        },
        {
          "indexed": true,
          "internalType": "address",
          "name": "sender",
          "type": "address"
        }
      ],
      "name": "RoleRevoked",
      "type": "event"
    },
    {
      "anonymous": false,
      "inputs": [
        {
          "indexed": false,
          "internalType": "address",
          "name": "account",
          "type": "address"
        }
      ],
      "name": "Unpaused",
      "type": "event"
    },
    {
      "inputs": [],
      "name": "DEFAULT_ADMIN_ROLE",
      "outputs": [
        {
          "internalType": "bytes32",
          "name": "",
          "type": "bytes32"
        }
      ],
      "stateMutability": "view",
      "type": "function"
    },
    {
      "inputs": [
        {
          "internalType": "address",
          "name": "owner",
          "type": "address"
        }
      ],
      "name": "__BaseUpgradeablePausable_init",
      "outputs": [],
      "stateMutability": "nonpayable",
      "type": "function"
    },
    {
      "inputs": [
        {
          "internalType": "uint256",
          "name": "value",
          "type": "uint256"
        },
        {
          "internalType": "uint256",
          "name": "deadline",
          "type": "uint256"
        },
        {
          "internalType": "uint8",
          "name": "v",
          "type": "uint8"
        },
        {
          "internalType": "bytes32",
          "name": "r",
          "type": "bytes32"
        },
        {
          "internalType": "bytes32",
          "name": "s",
          "type": "bytes32"
        }
      ],
      "name": "buyGENZToken",
      "outputs": [
        {
          "internalType": "bool",
          "name": "",
          "type": "bool"
        }
      ],
      "stateMutability": "nonpayable",
      "type": "function"
    },
    {
      "inputs": [],
      "name": "calculateRewards",
      "outputs": [
        {
          "internalType": "uint256",
          "name": "",
          "type": "uint256"
        }
      ],
      "stateMutability": "view",
      "type": "function"
    },
    {
      "inputs": [],
      "name": "getCurrentTokenPrice",
      "outputs": [
        {
          "internalType": "uint256",
          "name": "",
          "type": "uint256"
        }
      ],
      "stateMutability": "view",
      "type": "function"
    },
    {
      "inputs": [],
      "name": "getGENZTokenCount",
      "outputs": [
        {
          "internalType": "uint256",
          "name": "",
          "type": "uint256"
        }
      ],
      "stateMutability": "view",
      "type": "function"
    },
    {
      "inputs": [
        {
          "internalType": "bytes32",
          "name": "role",
          "type": "bytes32"
        }
      ],
      "name": "getRoleAdmin",
      "outputs": [
        {
          "internalType": "bytes32",
          "name": "",
          "type": "bytes32"
        }
      ],
      "stateMutability": "view",
      "type": "function"
    },
    {
      "inputs": [],
      "name": "getVersionID",
      "outputs": [
        {
          "internalType": "uint256",
          "name": "",
          "type": "uint256"
        }
      ],
      "stateMutability": "view",
      "type": "function"
    },
    {
      "inputs": [
        {
          "internalType": "bytes32",
          "name": "role",
          "type": "bytes32"
        },
        {
          "internalType": "address",
          "name": "account",
          "type": "address"
        }
      ],
      "name": "grantRole",
      "outputs": [],
      "stateMutability": "nonpayable",
      "type": "function"
    },
    {
      "inputs": [
        {
          "internalType": "bytes32",
          "name": "role",
          "type": "bytes32"
        },
        {
          "internalType": "address",
          "name": "account",
          "type": "address"
        }
      ],
      "name": "hasRole",
      "outputs": [
        {
          "internalType": "bool",
          "name": "",
          "type": "bool"
        }
      ],
      "stateMutability": "view",
      "type": "function"
    },
    {
      "inputs": [
        {
          "internalType": "address",
          "name": "pauseOperationAddress",
          "type": "address"
        }
      ],
      "name": "initialize",
      "outputs": [],
      "stateMutability": "nonpayable",
      "type": "function"
    },
    {
      "inputs": [],
      "name": "isAdmin",
      "outputs": [
        {
          "internalType": "bool",
          "name": "",
          "type": "bool"
        }
      ],
      "stateMutability": "view",
      "type": "function"
    },
    {
      "inputs": [],
      "name": "pause",
      "outputs": [],
      "stateMutability": "nonpayable",
      "type": "function"
    },
    {
      "inputs": [],
      "name": "paused",
      "outputs": [
        {
          "internalType": "bool",
          "name": "",
          "type": "bool"
        }
      ],
      "stateMutability": "view",
      "type": "function"
    },
    {
      "inputs": [
        {
          "internalType": "bytes32",
          "name": "role",
          "type": "bytes32"
        },
        {
          "internalType": "address",
          "name": "account",
          "type": "address"
        }
      ],
      "name": "renounceRole",
      "outputs": [],
      "stateMutability": "nonpayable",
      "type": "function"
    },
    {
      "inputs": [
        {
          "internalType": "bytes32",
          "name": "role",
          "type": "bytes32"
        },
        {
          "internalType": "address",
          "name": "account",
          "type": "address"
        }
      ],
      "name": "revokeRole",
      "outputs": [],
      "stateMutability": "nonpayable",
      "type": "function"
    },
    {
      "inputs": [
        {
          "internalType": "bytes4",
          "name": "interfaceId",
          "type": "bytes4"
        }
      ],
      "name": "supportsInterface",
      "outputs": [
        {
          "internalType": "bool",
          "name": "",
          "type": "bool"
        }
      ],
      "stateMutability": "view",
      "type": "function"
    },
    {
      "inputs": [],
      "name": "unpause",
      "outputs": [],
      "stateMutability": "nonpayable",
      "type": "function"
    },
    {
      "inputs": [
        {
          "internalType": "uint256",
          "name": "valueInDays",
          "type": "uint256"
        }
      ],
      "name": "updateMinimumWithdrawalPeriod",
      "outputs": [],
      "stateMutability": "nonpayable",
      "type": "function"
    },
    {
      "inputs": [
        {
          "internalType": "uint256",
          "name": "tokenPrice",
          "type": "uint256"
        }
      ],
      "name": "updateTokenPrice",
      "outputs": [],
      "stateMutability": "nonpayable",
      "type": "function"
    },
    {
      "inputs": [],
      "name": "withdrawStakedToken",
      "outputs": [],
      "stateMutability": "nonpayable",
      "type": "function"
    }
  ],
  "bytecode": "0x60e06040523480156200001157600080fd5b50604051620033ff380380620033ff833981810160405281019062000037919062000145565b8173ffffffffffffffffffffffffffffffffffffffff1660808173ffffffffffffffffffffffffffffffffffffffff16815250508173ffffffffffffffffffffffffffffffffffffffff1660c08173ffffffffffffffffffffffffffffffffffffffff16815250508073ffffffffffffffffffffffffffffffffffffffff1660a08173ffffffffffffffffffffffffffffffffffffffff168152505050506200018c565b600080fd5b600073ffffffffffffffffffffffffffffffffffffffff82169050919050565b60006200010d82620000e0565b9050919050565b6200011f8162000100565b81146200012b57600080fd5b50565b6000815190506200013f8162000114565b92915050565b600080604083850312156200015f576200015e620000db565b5b60006200016f858286016200012e565b925050602062000182858286016200012e565b9150509250929050565b60805160a05160c05161323c620001c360003960006107a101526000610ecf01526000818161061d01526107f9015261323c6000f3fe608060405234801561001057600080fd5b50600436106101375760003560e01c80636e810b1a116100b857806391d148541161007c57806391d14854146102ee578063a217fddf1461031e578063b6db75a01461033c578063c4d66de81461035a578063d547741f14610376578063f751758b1461039257610137565b80636e810b1a1461028257806374a7dce51461029e57806377c379a4146102bc5780638456cb59146102da578063869eac93146102e457610137565b806336568abe116100ff57806336568abe146102045780633e50de30146102205780633f4ba83a1461023e5780635c975abb14610248578063676c0d771461026657610137565b806301ffc9a71461013c578063051e6cb11461016c578063248a9ca3146101885780632f2ff15d146101b857806334d131bf146101d4575b600080fd5b610156600480360381019061015191906122af565b6103b0565b60405161016391906122f7565b60405180910390f35b61018660048036038101906101819190612348565b61042a565b005b6101a2600480360381019061019d91906123ab565b610489565b6040516101af91906123e7565b60405180910390f35b6101d260048036038101906101cd9190612460565b6104a9565b005b6101ee60048036038101906101e991906124d9565b6104ca565b6040516101fb91906122f7565b60405180910390f35b61021e60048036038101906102199190612460565b610855565b005b6102286108d8565b6040516102359190612563565b60405180910390f35b610246610a6d565b005b610250610abe565b60405161025d91906122f7565b60405180910390f35b610280600480360381019061027b9190612348565b610ad5565b005b61029c6004803603810190610297919061257e565b610b26565b005b6102a6610c48565b6040516102b39190612563565b60405180910390f35b6102c4610c52565b6040516102d19190612563565b60405180910390f35b6102e2610c5c565b005b6102ec610cad565b005b61030860048036038101906103039190612460565b610f16565b60405161031591906122f7565b60405180910390f35b610326610f81565b60405161033391906123e7565b60405180910390f35b610344610f88565b60405161035191906122f7565b60405180910390f35b610374600480360381019061036f919061257e565b610fa7565b005b610390600480360381019061038b9190612460565b61113e565b005b61039a61115f565b6040516103a79190612563565b60405180910390f35b60007f7965db0b000000000000000000000000000000000000000000000000000000007bffffffffffffffffffffffffffffffffffffffffffffffffffffffff1916827bffffffffffffffffffffffffffffffffffffffffffffffffffffffff19161480610423575061042282611169565b5b9050919050565b610432610f88565b610471576040517f08c379a00000000000000000000000000000000000000000000000000000000081526004016104689061262e565b60405180910390fd5b6201518081610480919061267d565b60fe8190555050565b600060976000838152602001908152602001600020600101549050919050565b6104b282610489565b6104bb816111d3565b6104c583836111e7565b505050565b60006104d46112c8565b600115156104e0610abe565b15151415801561058557506001151560ff60009054906101000a900473ffffffffffffffffffffffffffffffffffffffff1673ffffffffffffffffffffffffffffffffffffffff1663b187bd266040518163ffffffff1660e01b8152600401602060405180830381865afa15801561055c573d6000803e3d6000fd5b505050506040513d601f19601f820116820180604052508101906105809190612703565b151514155b61058e57600080fd5b670de0b6b3a76400008610156105d0576040517f8facb45e00000000000000000000000000000000000000000000000000000000815260040160405180910390fd5b6402540be40060fb60008282546105e7919061267d565b9250508190555061708060fe60008282546106029190612730565b92505081905550600060fb5487610619919061267d565b90507f000000000000000000000000000000000000000000000000000000000000000073ffffffffffffffffffffffffffffffffffffffff166370a0823161065f611317565b6040518263ffffffff1660e01b815260040161067b9190612773565b602060405180830381865afa158015610698573d6000803e3d6000fd5b505050506040513d601f19601f820116820180604052508101906106bc91906127a3565b8111156106f5576040517f2b2cce3f00000000000000000000000000000000000000000000000000000000815260040160405180910390fd5b60006101036000610704611317565b73ffffffffffffffffffffffffffffffffffffffff1673ffffffffffffffffffffffffffffffffffffffff1681526020019081526020016000209050878160010160008282546107549190612730565b9250508190555060018160000160006101000a81548160ff02191690831515021790555060fe54426107869190612730565b81600201819055506107ea610799611317565b30848a8a8a8a7f000000000000000000000000000000000000000000000000000000000000000073ffffffffffffffffffffffffffffffffffffffff1661131f90979695949392919063ffffffff16565b61083e6107f5611317565b30847f000000000000000000000000000000000000000000000000000000000000000073ffffffffffffffffffffffffffffffffffffffff166114ec909392919063ffffffff16565b60019250505061084c611575565b95945050505050565b61085d611317565b73ffffffffffffffffffffffffffffffffffffffff168173ffffffffffffffffffffffffffffffffffffffff16146108ca576040517f08c379a00000000000000000000000000000000000000000000000000000000081526004016108c190612842565b60405180910390fd5b6108d4828261157f565b5050565b6000806000905060006108e9611661565b905060008160008151811061090157610900612862565b5b6020026020010151905060008060008390505b60fc548111610a61576000610102600061092c611317565b73ffffffffffffffffffffffffffffffffffffffff1673ffffffffffffffffffffffffffffffffffffffff1681526020019081526020016000206000838152602001908152602001600020604051806040016040529081600082015481526020016001820154815250509050818684815181106109ac576109ab612862565b5b6020026020010151036109e6576000816000015111156109d9578060000151876109d69190612730565b96505b826109e390612891565b92505b600061010160008481526020019081526020016000209050600081600001548260010154610a1491906128d9565b9050816003015482600201548a83610a2c919061267d565b610a36919061267d565b610a40919061293c565b86610a4b9190612730565b955083610a5790612891565b9350505050610914565b50819550505050505090565b610a75610f88565b610ab4576040517f08c379a0000000000000000000000000000000000000000000000000000000008152600401610aab9061262e565b60405180910390fd5b610abc61187d565b565b6000603360009054906101000a900460ff16905090565b610add610f88565b610b1c576040517f08c379a0000000000000000000000000000000000000000000000000000000008152600401610b139061262e565b60405180910390fd5b8060fb8190555050565b600060019054906101000a900460ff16610b75576040517f08c379a0000000000000000000000000000000000000000000000000000000008152600401610b6c906129df565b60405180910390fd5b600073ffffffffffffffffffffffffffffffffffffffff168173ffffffffffffffffffffffffffffffffffffffff1603610bdb576040517f5415139400000000000000000000000000000000000000000000000000000000815260040160405180910390fd5b610be36118e0565b610beb611939565b610bf361198a565b610c04610bfe6119e3565b826111e7565b610c15610c0f611a0b565b826111e7565b610c2d610c20611a0b565b610c286119e3565b611a33565b610c45610c386119e3565b610c406119e3565b611a33565b50565b600060fd54905090565b600060fc54905090565b610c64610f88565b610ca3576040517f08c379a0000000000000000000000000000000000000000000000000000000008152600401610c9a9061262e565b60405180910390fd5b610cab611a8f565b565b6101036000610cba611317565b73ffffffffffffffffffffffffffffffffffffffff1673ffffffffffffffffffffffffffffffffffffffff16815260200190815260200160002060000160009054906101000a900460ff16610d3b576040517f23d1e2cb00000000000000000000000000000000000000000000000000000000815260040160405180910390fd5b426101036000610d49611317565b73ffffffffffffffffffffffffffffffffffffffff1673ffffffffffffffffffffffffffffffffffffffff168152602001908152602001600020600201541115610dbf576040517f23d1e2cb00000000000000000000000000000000000000000000000000000000815260040160405180910390fd5b60006101036000610dce611317565b73ffffffffffffffffffffffffffffffffffffffff1673ffffffffffffffffffffffffffffffffffffffff16815260200190815260200160002060010154905060006101036000610e1d611317565b73ffffffffffffffffffffffffffffffffffffffff1673ffffffffffffffffffffffffffffffffffffffff16815260200190815260200160002060000160006101000a81548160ff02191690831515021790555060006101036000610e80611317565b73ffffffffffffffffffffffffffffffffffffffff1673ffffffffffffffffffffffffffffffffffffffff16815260200190815260200160002060010181905550610f13610ecc611317565b827f000000000000000000000000000000000000000000000000000000000000000073ffffffffffffffffffffffffffffffffffffffff16611af29092919063ffffffff16565b50565b60006097600084815260200190815260200160002060000160008373ffffffffffffffffffffffffffffffffffffffff1673ffffffffffffffffffffffffffffffffffffffff16815260200190815260200160002060009054906101000a900460ff16905092915050565b6000801b81565b6000610fa2610f956119e3565b610f9d611317565b610f16565b905090565b60008060019054906101000a900460ff16159050808015610fd85750600160008054906101000a900460ff1660ff16105b806110055750610fe730611b78565b1580156110045750600160008054906101000a900460ff1660ff16145b5b611044576040517f08c379a000000000000000000000000000000000000000000000000000000000815260040161103b90612a71565b60405180910390fd5b60016000806101000a81548160ff021916908360ff1602179055508015611081576001600060016101000a81548160ff0219169083151502179055505b67016345785d8a000060fb819055508160ff60006101000a81548173ffffffffffffffffffffffffffffffffffffffff021916908373ffffffffffffffffffffffffffffffffffffffff1602179055506110e16110dc611317565b610b26565b801561113a5760008060016101000a81548160ff0219169083151502179055507f7f26b83ff96e1f2b6a682f133852f6798a09c465da95921460cefb384740249860016040516111319190612ad6565b60405180910390a15b5050565b61114782610489565b611150816111d3565b61115a838361157f565b505050565b600060fb54905090565b60007f01ffc9a7000000000000000000000000000000000000000000000000000000007bffffffffffffffffffffffffffffffffffffffffffffffffffffffff1916827bffffffffffffffffffffffffffffffffffffffffffffffffffffffff1916149050919050565b6111e4816111df611317565b611b9b565b50565b6111f18282610f16565b6112c45760016097600084815260200190815260200160002060000160008373ffffffffffffffffffffffffffffffffffffffff1673ffffffffffffffffffffffffffffffffffffffff16815260200190815260200160002060006101000a81548160ff021916908315150217905550611269611317565b73ffffffffffffffffffffffffffffffffffffffff168173ffffffffffffffffffffffffffffffffffffffff16837f2f8788117e7eff1d82e926ec794901d17c78024a50270940304540a733656f0d60405160405180910390a45b5050565b600260c9540361130d576040517f08c379a000000000000000000000000000000000000000000000000000000000815260040161130490612b3d565b60405180910390fd5b600260c981905550565b600033905090565b60008873ffffffffffffffffffffffffffffffffffffffff16637ecebe00896040518263ffffffff1660e01b815260040161135a9190612773565b602060405180830381865afa158015611377573d6000803e3d6000fd5b505050506040513d601f19601f8201168201806040525081019061139b91906127a3565b90508873ffffffffffffffffffffffffffffffffffffffff1663d505accf898989898989896040518863ffffffff1660e01b81526004016113e29796959493929190612b6c565b600060405180830381600087803b1580156113fc57600080fd5b505af1158015611410573d6000803e3d6000fd5b5050505060008973ffffffffffffffffffffffffffffffffffffffff16637ecebe008a6040518263ffffffff1660e01b815260040161144f9190612773565b602060405180830381865afa15801561146c573d6000803e3d6000fd5b505050506040513d601f19601f8201168201806040525081019061149091906127a3565b905060018261149f9190612730565b81146114e0576040517f08c379a00000000000000000000000000000000000000000000000000000000081526004016114d790612c4d565b60405180910390fd5b50505050505050505050565b61156f846323b872dd60e01b85858560405160240161150d93929190612c6d565b604051602081830303815290604052907bffffffffffffffffffffffffffffffffffffffffffffffffffffffff19166020820180517bffffffffffffffffffffffffffffffffffffffffffffffffffffffff8381831617835250505050611c20565b50505050565b600160c981905550565b6115898282610f16565b1561165d5760006097600084815260200190815260200160002060000160008373ffffffffffffffffffffffffffffffffffffffff1673ffffffffffffffffffffffffffffffffffffffff16815260200190815260200160002060006101000a81548160ff021916908315150217905550611602611317565b73ffffffffffffffffffffffffffffffffffffffff168173ffffffffffffffffffffffffffffffffffffffff16837ff6391f5c32d9c69d2a47ea670b442974b53935d1edc7fd64eb21e047a839171b60405160405180910390a45b5050565b60606000806101006000611673611317565b73ffffffffffffffffffffffffffffffffffffffff1673ffffffffffffffffffffffffffffffffffffffff16815260200190815260200160002060010154905060006116bd610c52565b905060008290505b81811161174e57600061010260006116db611317565b73ffffffffffffffffffffffffffffffffffffffff1673ffffffffffffffffffffffffffffffffffffffff168152602001908152602001600020600083815260200190815260200160002060000154111561173d578361173a90612891565b93505b8061174790612891565b90506116c5565b5060008367ffffffffffffffff81111561176b5761176a612ca4565b5b6040519080825280602002602001820160405280156117995781602001602082028036833780820191505090505b5090506000808490505b83811161187157600061010260006117b9611317565b73ffffffffffffffffffffffffffffffffffffffff1673ffffffffffffffffffffffffffffffffffffffff1681526020019081526020016000206000838152602001908152602001600020604051806040016040529081600082015481526020016001820154815250509050600081600001511115611853578184848151811061184657611845612862565b5b6020026020010181815250505b8261185d90612891565b92508161186990612891565b9150506117a3565b50819550505050505090565b611885611ce7565b6000603360006101000a81548160ff0219169083151502179055507f5db9ee0a495bf2e6ff9c91a7834c1ba4fdd244a5e8aa4e537bd38aeae4b073aa6118c9611317565b6040516118d69190612773565b60405180910390a1565b600060019054906101000a900460ff1661192f576040517f08c379a0000000000000000000000000000000000000000000000000000000008152600401611926906129df565b60405180910390fd5b611937611d30565b565b600060019054906101000a900460ff16611988576040517f08c379a000000000000000000000000000000000000000000000000000000000815260040161197f906129df565b60405180910390fd5b565b600060019054906101000a900460ff166119d9576040517f08c379a00000000000000000000000000000000000000000000000000000000081526004016119d0906129df565b60405180910390fd5b6119e1611d9c565b565b60007fa49807205ce4d355092ef5a8a18f56e8913cf4a201fbe287825b095693c21775905090565b60007f65d7a28e3265b37a6474929f336521b332c1681b933f6cb9f3376673440d862a905090565b6000611a3e83610489565b90508160976000858152602001908152602001600020600101819055508181847fbd79b86ffe0ab8e8776151514217cd7cacd52c909f66475c3af44e129f0b00ff60405160405180910390a4505050565b611a97611df5565b6001603360006101000a81548160ff0219169083151502179055507f62e78cea01bee320cd4e420270b5ea74000d11b0c9f74754ebdbfc544b05a258611adb611317565b604051611ae89190612773565b60405180910390a1565b611b738363a9059cbb60e01b8484604051602401611b11929190612cd3565b604051602081830303815290604052907bffffffffffffffffffffffffffffffffffffffffffffffffffffffff19166020820180517bffffffffffffffffffffffffffffffffffffffffffffffffffffffff8381831617835250505050611c20565b505050565b6000808273ffffffffffffffffffffffffffffffffffffffff163b119050919050565b611ba58282610f16565b611c1c57611bb281611e3f565b611bc08360001c6020611e6c565b604051602001611bd1929190612e05565b6040516020818303038152906040526040517f08c379a0000000000000000000000000000000000000000000000000000000008152600401611c139190612e89565b60405180910390fd5b5050565b6000611c82826040518060400160405280602081526020017f5361666545524332303a206c6f772d6c6576656c2063616c6c206661696c65648152508573ffffffffffffffffffffffffffffffffffffffff166120a89092919063ffffffff16565b9050600081511115611ce25780806020019051810190611ca29190612703565b611ce1576040517f08c379a0000000000000000000000000000000000000000000000000000000008152600401611cd890612f1d565b60405180910390fd5b5b505050565b611cef610abe565b611d2e576040517f08c379a0000000000000000000000000000000000000000000000000000000008152600401611d2590612f89565b60405180910390fd5b565b600060019054906101000a900460ff16611d7f576040517f08c379a0000000000000000000000000000000000000000000000000000000008152600401611d76906129df565b60405180910390fd5b6000603360006101000a81548160ff021916908315150217905550565b600060019054906101000a900460ff16611deb576040517f08c379a0000000000000000000000000000000000000000000000000000000008152600401611de2906129df565b60405180910390fd5b600160c981905550565b611dfd610abe565b15611e3d576040517f08c379a0000000000000000000000000000000000000000000000000000000008152600401611e3490612ff5565b60405180910390fd5b565b6060611e658273ffffffffffffffffffffffffffffffffffffffff16601460ff16611e6c565b9050919050565b606060006002836002611e7f919061267d565b611e899190612730565b67ffffffffffffffff811115611ea257611ea1612ca4565b5b6040519080825280601f01601f191660200182016040528015611ed45781602001600182028036833780820191505090505b5090507f300000000000000000000000000000000000000000000000000000000000000081600081518110611f0c57611f0b612862565b5b60200101907effffffffffffffffffffffffffffffffffffffffffffffffffffffffffffff1916908160001a9053507f780000000000000000000000000000000000000000000000000000000000000081600181518110611f7057611f6f612862565b5b60200101907effffffffffffffffffffffffffffffffffffffffffffffffffffffffffffff1916908160001a90535060006001846002611fb0919061267d565b611fba9190612730565b90505b600181111561205a577f3031323334353637383961626364656600000000000000000000000000000000600f861660108110611ffc57611ffb612862565b5b1a60f81b82828151811061201357612012612862565b5b60200101907effffffffffffffffffffffffffffffffffffffffffffffffffffffffffffff1916908160001a905350600485901c94508061205390613015565b9050611fbd565b506000841461209e576040517f08c379a00000000000000000000000000000000000000000000000000000000081526004016120959061308a565b60405180910390fd5b8091505092915050565b60606120b784846000856120c0565b90509392505050565b606082471015612105576040517f08c379a00000000000000000000000000000000000000000000000000000000081526004016120fc9061311c565b60405180910390fd5b6000808673ffffffffffffffffffffffffffffffffffffffff16858760405161212e9190613183565b60006040518083038185875af1925050503d806000811461216b576040519150601f19603f3d011682016040523d82523d6000602084013e612170565b606091505b50915091506121818783838761218d565b92505050949350505050565b606083156121ef5760008351036121e7576121a785611b78565b6121e6576040517f08c379a00000000000000000000000000000000000000000000000000000000081526004016121dd906131e6565b60405180910390fd5b5b8290506121fa565b6121f98383612202565b5b949350505050565b6000825111156122155781518083602001fd5b806040517f08c379a00000000000000000000000000000000000000000000000000000000081526004016122499190612e89565b60405180910390fd5b600080fd5b60007fffffffff0000000000000000000000000000000000000000000000000000000082169050919050565b61228c81612257565b811461229757600080fd5b50565b6000813590506122a981612283565b92915050565b6000602082840312156122c5576122c4612252565b5b60006122d38482850161229a565b91505092915050565b60008115159050919050565b6122f1816122dc565b82525050565b600060208201905061230c60008301846122e8565b92915050565b6000819050919050565b61232581612312565b811461233057600080fd5b50565b6000813590506123428161231c565b92915050565b60006020828403121561235e5761235d612252565b5b600061236c84828501612333565b91505092915050565b6000819050919050565b61238881612375565b811461239357600080fd5b50565b6000813590506123a58161237f565b92915050565b6000602082840312156123c1576123c0612252565b5b60006123cf84828501612396565b91505092915050565b6123e181612375565b82525050565b60006020820190506123fc60008301846123d8565b92915050565b600073ffffffffffffffffffffffffffffffffffffffff82169050919050565b600061242d82612402565b9050919050565b61243d81612422565b811461244857600080fd5b50565b60008135905061245a81612434565b92915050565b6000806040838503121561247757612476612252565b5b600061248585828601612396565b92505060206124968582860161244b565b9150509250929050565b600060ff82169050919050565b6124b6816124a0565b81146124c157600080fd5b50565b6000813590506124d3816124ad565b92915050565b600080600080600060a086880312156124f5576124f4612252565b5b600061250388828901612333565b955050602061251488828901612333565b9450506040612525888289016124c4565b935050606061253688828901612396565b925050608061254788828901612396565b9150509295509295909350565b61255d81612312565b82525050565b60006020820190506125786000830184612554565b92915050565b60006020828403121561259457612593612252565b5b60006125a28482850161244b565b91505092915050565b600082825260208201905092915050565b7f4d75737420686176652061646d696e20726f6c6520746f20706572666f726d2060008201527f7468697320616374696f6e2e0000000000000000000000000000000000000000602082015250565b6000612618602c836125ab565b9150612623826125bc565b604082019050919050565b600060208201905081810360008301526126478161260b565b9050919050565b7f4e487b7100000000000000000000000000000000000000000000000000000000600052601160045260246000fd5b600061268882612312565b915061269383612312565b9250817fffffffffffffffffffffffffffffffffffffffffffffffffffffffffffffffff04831182151516156126cc576126cb61264e565b5b828202905092915050565b6126e0816122dc565b81146126eb57600080fd5b50565b6000815190506126fd816126d7565b92915050565b60006020828403121561271957612718612252565b5b6000612727848285016126ee565b91505092915050565b600061273b82612312565b915061274683612312565b925082820190508082111561275e5761275d61264e565b5b92915050565b61276d81612422565b82525050565b60006020820190506127886000830184612764565b92915050565b60008151905061279d8161231c565b92915050565b6000602082840312156127b9576127b8612252565b5b60006127c78482850161278e565b91505092915050565b7f416363657373436f6e74726f6c3a2063616e206f6e6c792072656e6f756e636560008201527f20726f6c657320666f722073656c660000000000000000000000000000000000602082015250565b600061282c602f836125ab565b9150612837826127d0565b604082019050919050565b6000602082019050818103600083015261285b8161281f565b9050919050565b7f4e487b7100000000000000000000000000000000000000000000000000000000600052603260045260246000fd5b600061289c82612312565b91507fffffffffffffffffffffffffffffffffffffffffffffffffffffffffffffffff82036128ce576128cd61264e565b5b600182019050919050565b60006128e482612312565b91506128ef83612312565b92508282039050818111156129075761290661264e565b5b92915050565b7f4e487b7100000000000000000000000000000000000000000000000000000000600052601260045260246000fd5b600061294782612312565b915061295283612312565b9250826129625761296161290d565b5b828204905092915050565b7f496e697469616c697a61626c653a20636f6e7472616374206973206e6f74206960008201527f6e697469616c697a696e67000000000000000000000000000000000000000000602082015250565b60006129c9602b836125ab565b91506129d48261296d565b604082019050919050565b600060208201905081810360008301526129f8816129bc565b9050919050565b7f496e697469616c697a61626c653a20636f6e747261637420697320616c72656160008201527f647920696e697469616c697a6564000000000000000000000000000000000000602082015250565b6000612a5b602e836125ab565b9150612a66826129ff565b604082019050919050565b60006020820190508181036000830152612a8a81612a4e565b9050919050565b6000819050919050565b6000819050919050565b6000612ac0612abb612ab684612a91565b612a9b565b6124a0565b9050919050565b612ad081612aa5565b82525050565b6000602082019050612aeb6000830184612ac7565b92915050565b7f5265656e7472616e637947756172643a207265656e7472616e742063616c6c00600082015250565b6000612b27601f836125ab565b9150612b3282612af1565b602082019050919050565b60006020820190508181036000830152612b5681612b1a565b9050919050565b612b66816124a0565b82525050565b600060e082019050612b81600083018a612764565b612b8e6020830189612764565b612b9b6040830188612554565b612ba86060830187612554565b612bb56080830186612b5d565b612bc260a08301856123d8565b612bcf60c08301846123d8565b98975050505050505050565b7f5361666545524332303a207065726d697420646964206e6f742073756363656560008201527f6400000000000000000000000000000000000000000000000000000000000000602082015250565b6000612c376021836125ab565b9150612c4282612bdb565b604082019050919050565b60006020820190508181036000830152612c6681612c2a565b9050919050565b6000606082019050612c826000830186612764565b612c8f6020830185612764565b612c9c6040830184612554565b949350505050565b7f4e487b7100000000000000000000000000000000000000000000000000000000600052604160045260246000fd5b6000604082019050612ce86000830185612764565b612cf56020830184612554565b9392505050565b600081905092915050565b7f416363657373436f6e74726f6c3a206163636f756e7420000000000000000000600082015250565b6000612d3d601783612cfc565b9150612d4882612d07565b601782019050919050565b600081519050919050565b60005b83811015612d7c578082015181840152602081019050612d61565b60008484015250505050565b6000612d9382612d53565b612d9d8185612cfc565b9350612dad818560208601612d5e565b80840191505092915050565b7f206973206d697373696e6720726f6c6520000000000000000000000000000000600082015250565b6000612def601183612cfc565b9150612dfa82612db9565b601182019050919050565b6000612e1082612d30565b9150612e1c8285612d88565b9150612e2782612de2565b9150612e338284612d88565b91508190509392505050565b6000601f19601f8301169050919050565b6000612e5b82612d53565b612e6581856125ab565b9350612e75818560208601612d5e565b612e7e81612e3f565b840191505092915050565b60006020820190508181036000830152612ea38184612e50565b905092915050565b7f5361666545524332303a204552433230206f7065726174696f6e20646964206e60008201527f6f74207375636365656400000000000000000000000000000000000000000000602082015250565b6000612f07602a836125ab565b9150612f1282612eab565b604082019050919050565b60006020820190508181036000830152612f3681612efa565b9050919050565b7f5061757361626c653a206e6f7420706175736564000000000000000000000000600082015250565b6000612f736014836125ab565b9150612f7e82612f3d565b602082019050919050565b60006020820190508181036000830152612fa281612f66565b9050919050565b7f5061757361626c653a2070617573656400000000000000000000000000000000600082015250565b6000612fdf6010836125ab565b9150612fea82612fa9565b602082019050919050565b6000602082019050818103600083015261300e81612fd2565b9050919050565b600061302082612312565b9150600082036130335761303261264e565b5b600182039050919050565b7f537472696e67733a20686578206c656e67746820696e73756666696369656e74600082015250565b60006130746020836125ab565b915061307f8261303e565b602082019050919050565b600060208201905081810360008301526130a381613067565b9050919050565b7f416464726573733a20696e73756666696369656e742062616c616e636520666f60008201527f722063616c6c0000000000000000000000000000000000000000000000000000602082015250565b60006131066026836125ab565b9150613111826130aa565b604082019050919050565b60006020820190508181036000830152613135816130f9565b9050919050565b600081519050919050565b600081905092915050565b600061315d8261313c565b6131678185613147565b9350613177818560208601612d5e565b80840191505092915050565b600061318f8284613152565b915081905092915050565b7f416464726573733a2063616c6c20746f206e6f6e2d636f6e7472616374000000600082015250565b60006131d0601d836125ab565b91506131db8261319a565b602082019050919050565b600060208201905081810360008301526131ff816131c3565b905091905056fea26469706673582212209f7dd1aaf7fafe2c2960d0c648a3d3d23017a45169947dc3d881f715bfb88a5964736f6c63430008100033",
  "linkReferences": {},
  "deployedLinkReferences": {}
}