{
  "_format": "hh-sol-artifact-1",
  "contractName": "BuyGENZ",
  "sourceName": "contracts/core/buySell/BuyGENZ.sol",
  "abi": [
    {
      "inputs": [
        {
          "internalType": "uint256",
          "name": "value",
          "type": "uint256"
        },
        {
          "internalType": "uint256",
          "name": "decimals",
          "type": "uint256"
        },
        {
          "internalType": "address",
          "name": "tokenDAI",
          "type": "address"
        },
        {
          "internalType": "address",
          "name": "tokenGENZ",
          "type": "address"
        }
      ],
      "stateMutability": "nonpayable",
      "type": "constructor"
    },
    {
      "inputs": [],
      "name": "BaseUpgradeablePausable__ZeroAddressError",
      "type": "error"
    },
    {
      "inputs": [],
      "name": "BuyGENZ__TransactionFailedError",
      "type": "error"
    },
    {
      "inputs": [],
      "name": "BuySellGENZ__GENZBurnFailedError",
      "type": "error"
    },
    {
      "inputs": [],
      "name": "BuySellGENZ__GENZMintFailedError",
      "type": "error"
    },
    {
      "inputs": [],
      "name": "BuySellGENZ__ImmutableChangesError",
      "type": "error"
    },
    {
      "inputs": [],
      "name": "BuySellGENZ__InsufficientBalanceError",
      "type": "error"
    },
    {
      "inputs": [],
      "name": "BuySellGENZ__LowAmountError",
      "type": "error"
    },
    {
      "inputs": [],
      "name": "BuySellGENZ__LowSZTBalanceError",
      "type": "error"
    },
    {
      "inputs": [],
      "name": "BuySellGENZ__PausedError",
      "type": "error"
    },
    {
      "inputs": [],
      "name": "BuySellGENZ__TransactionFailedError",
      "type": "error"
    },
    {
      "inputs": [],
      "name": "BuySellGENZ__ZeroAddressTransactionError",
      "type": "error"
    },
    {
      "anonymous": false,
      "inputs": [
        {
          "indexed": false,
          "internalType": "uint8",
          "name": "version",
          "type": "uint8"
        }
      ],
      "name": "Initialized",
      "type": "event"
    },
    {
      "anonymous": false,
      "inputs": [
        {
          "indexed": false,
          "internalType": "address",
          "name": "account",
          "type": "address"
        }
      ],
      "name": "Paused",
      "type": "event"
    },
    {
      "anonymous": false,
      "inputs": [
        {
          "indexed": true,
          "internalType": "bytes32",
          "name": "role",
          "type": "bytes32"
        },
        {
          "indexed": true,
          "internalType": "bytes32",
          "name": "previousAdminRole",
          "type": "bytes32"
        },
        {
          "indexed": true,
          "internalType": "bytes32",
          "name": "newAdminRole",
          "type": "bytes32"
        }
      ],
      "name": "RoleAdminChanged",
      "type": "event"
    },
    {
      "anonymous": false,
      "inputs": [
        {
          "indexed": true,
          "internalType": "bytes32",
          "name": "role",
          "type": "bytes32"
        },
        {
          "indexed": true,
          "internalType": "address",
          "name": "account",
          "type": "address"
        },
        {
          "indexed": true,
          "internalType": "address",
          "name": "sender",
          "type": "address"
        }
      ],
      "name": "RoleGranted",
      "type": "event"
    },
    {
      "anonymous": false,
      "inputs": [
        {
          "indexed": true,
          "internalType": "bytes32",
          "name": "role",
          "type": "bytes32"
        },
        {
          "indexed": true,
          "internalType": "address",
          "name": "account",
          "type": "address"
        },
        {
          "indexed": true,
          "internalType": "address",
          "name": "sender",
          "type": "address"
        }
      ],
      "name": "RoleRevoked",
      "type": "event"
    },
    {
      "anonymous": false,
      "inputs": [
        {
          "indexed": false,
          "internalType": "address",
          "name": "account",
          "type": "address"
        }
      ],
      "name": "Unpaused",
      "type": "event"
    },
    {
      "inputs": [],
      "name": "DEFAULT_ADMIN_ROLE",
      "outputs": [
        {
          "internalType": "bytes32",
          "name": "",
          "type": "bytes32"
        }
      ],
      "stateMutability": "view",
      "type": "function"
    },
    {
      "inputs": [
        {
          "internalType": "address",
          "name": "owner",
          "type": "address"
        }
      ],
      "name": "__BaseUpgradeablePausable_init",
      "outputs": [],
      "stateMutability": "nonpayable",
      "type": "function"
    },
    {
      "inputs": [
        {
          "internalType": "uint256",
          "name": "value",
          "type": "uint256"
        },
        {
          "internalType": "uint256",
          "name": "deadline",
          "type": "uint256"
        },
        {
          "internalType": "uint8",
          "name": "v",
          "type": "uint8"
        },
        {
          "internalType": "bytes32",
          "name": "r",
          "type": "bytes32"
        },
        {
          "internalType": "bytes32",
          "name": "s",
          "type": "bytes32"
        }
      ],
      "name": "buyGENZToken",
      "outputs": [
        {
          "internalType": "bool",
          "name": "",
          "type": "bool"
        }
      ],
      "stateMutability": "nonpayable",
      "type": "function"
    },
    {
      "inputs": [
        {
          "internalType": "uint256",
          "name": "issuedTokensGENZ",
          "type": "uint256"
        },
        {
          "internalType": "uint256",
          "name": "requiredTokens",
          "type": "uint256"
        }
      ],
      "name": "calculatePriceGENZ",
      "outputs": [
        {
          "internalType": "uint256",
          "name": "",
          "type": "uint256"
        },
        {
          "internalType": "uint256",
          "name": "",
          "type": "uint256"
        }
      ],
      "stateMutability": "view",
      "type": "function"
    },
    {
      "inputs": [],
      "name": "getCurrentTokenPrice",
      "outputs": [
        {
          "internalType": "uint256",
          "name": "",
          "type": "uint256"
        }
      ],
      "stateMutability": "view",
      "type": "function"
    },
    {
      "inputs": [],
      "name": "getGENZTokenCount",
      "outputs": [
        {
          "internalType": "uint256",
          "name": "",
          "type": "uint256"
        }
      ],
      "stateMutability": "view",
      "type": "function"
    },
    {
      "inputs": [
        {
          "internalType": "bytes32",
          "name": "role",
          "type": "bytes32"
        }
      ],
      "name": "getRoleAdmin",
      "outputs": [
        {
          "internalType": "bytes32",
          "name": "",
          "type": "bytes32"
        }
      ],
      "stateMutability": "view",
      "type": "function"
    },
    {
      "inputs": [
        {
          "internalType": "bytes32",
          "name": "role",
          "type": "bytes32"
        },
        {
          "internalType": "address",
          "name": "account",
          "type": "address"
        }
      ],
      "name": "grantRole",
      "outputs": [],
      "stateMutability": "nonpayable",
      "type": "function"
    },
    {
      "inputs": [
        {
          "internalType": "bytes32",
          "name": "role",
          "type": "bytes32"
        },
        {
          "internalType": "address",
          "name": "account",
          "type": "address"
        }
      ],
      "name": "hasRole",
      "outputs": [
        {
          "internalType": "bool",
          "name": "",
          "type": "bool"
        }
      ],
      "stateMutability": "view",
      "type": "function"
    },
    {
      "inputs": [
        {
          "internalType": "address",
          "name": "pauseOperationAddress",
          "type": "address"
        }
      ],
      "name": "initialize",
      "outputs": [],
      "stateMutability": "nonpayable",
      "type": "function"
    },
    {
      "inputs": [],
      "name": "isAdmin",
      "outputs": [
        {
          "internalType": "bool",
          "name": "",
          "type": "bool"
        }
      ],
      "stateMutability": "view",
      "type": "function"
    },
    {
      "inputs": [],
      "name": "pause",
      "outputs": [],
      "stateMutability": "nonpayable",
      "type": "function"
    },
    {
      "inputs": [],
      "name": "paused",
      "outputs": [
        {
          "internalType": "bool",
          "name": "",
          "type": "bool"
        }
      ],
      "stateMutability": "view",
      "type": "function"
    },
    {
      "inputs": [
        {
          "internalType": "bytes32",
          "name": "role",
          "type": "bytes32"
        },
        {
          "internalType": "address",
          "name": "account",
          "type": "address"
        }
      ],
      "name": "renounceRole",
      "outputs": [],
      "stateMutability": "nonpayable",
      "type": "function"
    },
    {
      "inputs": [
        {
          "internalType": "bytes32",
          "name": "role",
          "type": "bytes32"
        },
        {
          "internalType": "address",
          "name": "account",
          "type": "address"
        }
      ],
      "name": "revokeRole",
      "outputs": [],
      "stateMutability": "nonpayable",
      "type": "function"
    },
    {
      "inputs": [
        {
          "internalType": "bytes4",
          "name": "interfaceId",
          "type": "bytes4"
        }
      ],
      "name": "supportsInterface",
      "outputs": [
        {
          "internalType": "bool",
          "name": "",
          "type": "bool"
        }
      ],
      "stateMutability": "view",
      "type": "function"
    },
    {
      "inputs": [],
      "name": "unpause",
      "outputs": [],
      "stateMutability": "nonpayable",
      "type": "function"
    },
    {
      "inputs": [
        {
          "internalType": "uint256",
          "name": "tokenPrice",
          "type": "uint256"
        }
      ],
      "name": "updateBaseSalePrice",
      "outputs": [],
      "stateMutability": "nonpayable",
      "type": "function"
    },
    {
      "inputs": [
        {
          "internalType": "uint256",
          "name": "valueInDays",
          "type": "uint256"
        }
      ],
      "name": "updateMinimumWithdrawalPeriod",
      "outputs": [],
      "stateMutability": "nonpayable",
      "type": "function"
    },
    {
      "inputs": [],
      "name": "withdrawStakedToken",
      "outputs": [],
      "stateMutability": "nonpayable",
      "type": "function"
    }
  ],
  "bytecode": "0x6101006040523480156200001257600080fd5b50604051620034a5380380620034a58339818101604052810190620000389190620001bb565b8173ffffffffffffffffffffffffffffffffffffffff1660a08173ffffffffffffffffffffffffffffffffffffffff16815250508073ffffffffffffffffffffffffffffffffffffffff1660c08173ffffffffffffffffffffffffffffffffffffffff16815250508173ffffffffffffffffffffffffffffffffffffffff1660e08173ffffffffffffffffffffffffffffffffffffffff168152505082600a620000e39190620003b0565b670de0b6b3a764000085620000f9919062000401565b62000105919062000491565b6080818152505050505050620004c9565b600080fd5b6000819050919050565b62000130816200011b565b81146200013c57600080fd5b50565b600081519050620001508162000125565b92915050565b600073ffffffffffffffffffffffffffffffffffffffff82169050919050565b6000620001838262000156565b9050919050565b620001958162000176565b8114620001a157600080fd5b50565b600081519050620001b5816200018a565b92915050565b60008060008060808587031215620001d857620001d762000116565b5b6000620001e8878288016200013f565b9450506020620001fb878288016200013f565b93505060406200020e87828801620001a4565b92505060606200022187828801620001a4565b91505092959194509250565b7f4e487b7100000000000000000000000000000000000000000000000000000000600052601160045260246000fd5b60008160011c9050919050565b6000808291508390505b6001851115620002bb578086048111156200029357620002926200022d565b5b6001851615620002a35780820291505b8081029050620002b3856200025c565b945062000273565b94509492505050565b600082620002d65760019050620003a9565b81620002e65760009050620003a9565b8160018114620002ff57600281146200030a5762000340565b6001915050620003a9565b60ff8411156200031f576200031e6200022d565b5b8360020a9150848211156200033957620003386200022d565b5b50620003a9565b5060208310610133831016604e8410600b84101617156200037a5782820a9050838111156200037457620003736200022d565b5b620003a9565b62000389848484600162000269565b92509050818404811115620003a357620003a26200022d565b5b81810290505b9392505050565b6000620003bd826200011b565b9150620003ca836200011b565b9250620003f97fffffffffffffffffffffffffffffffffffffffffffffffffffffffffffffffff8484620002c4565b905092915050565b60006200040e826200011b565b91506200041b836200011b565b9250817fffffffffffffffffffffffffffffffffffffffffffffffffffffffffffffffff04831182151516156200045757620004566200022d565b5b828202905092915050565b7f4e487b7100000000000000000000000000000000000000000000000000000000600052601260045260246000fd5b60006200049e826200011b565b9150620004ab836200011b565b925082620004be57620004bd62000462565b5b828204905092915050565b60805160a05160c05160e051612f9b6200050a600039600061085301526000610d910152600081816106cf01526108ab0152600061047d0152612f9b6000f3fe608060405234801561001057600080fd5b506004361061012c5760003560e01c806374a7dce5116100ad578063b6db75a011610071578063b6db75a01461030a578063c4d66de814610328578063d547741f14610344578063eaef399914610360578063f751758b1461037c5761012c565b806374a7dce51461028a5780638456cb59146102a8578063869eac93146102b257806391d14854146102bc578063a217fddf146102ec5761012c565b806334d131bf116100f457806334d131bf146101fa57806336568abe1461022a5780633f4ba83a146102465780635c975abb146102505780636e810b1a1461026e5761012c565b806301ffc9a714610131578063051e6cb11461016157806306fb46ba1461017d578063248a9ca3146101ae5780632f2ff15d146101de575b600080fd5b61014b60048036038101906101469190611fed565b61039a565b6040516101589190612035565b60405180910390f35b61017b60048036038101906101769190612086565b610414565b005b610197600480360381019061019291906120b3565b610473565b6040516101a5929190612102565b60405180910390f35b6101c860048036038101906101c39190612161565b61054c565b6040516101d5919061219d565b60405180910390f35b6101f860048036038101906101f39190612216565b61056c565b005b610214600480360381019061020f919061228f565b61058d565b6040516102219190612035565b60405180910390f35b610244600480360381019061023f9190612216565b610907565b005b61024e61098a565b005b6102586109db565b6040516102659190612035565b60405180910390f35b6102886004803603810190610283919061230a565b6109f2565b005b610292610b14565b60405161029f9190612337565b60405180910390f35b6102b0610b1e565b005b6102ba610b6f565b005b6102d660048036038101906102d19190612216565b610dd8565b6040516102e39190612035565b60405180910390f35b6102f4610e43565b604051610301919061219d565b60405180910390f35b610312610e4a565b60405161031f9190612035565b60405180910390f35b610342600480360381019061033d919061230a565b610e69565b005b61035e60048036038101906103599190612216565b611009565b005b61037a60048036038101906103759190612086565b61102a565b005b610384611095565b6040516103919190612337565b60405180910390f35b60007f7965db0b000000000000000000000000000000000000000000000000000000007bffffffffffffffffffffffffffffffffffffffffffffffffffffffff1916827bffffffffffffffffffffffffffffffffffffffffffffffffffffffff1916148061040d575061040c826110c3565b5b9050919050565b61041c610e4a565b61045b576040517f08c379a0000000000000000000000000000000000000000000000000000000008152600401610452906123d5565b60405180910390fd5b620151808161046a9190612424565b60ff8190555050565b600080600060fd547f00000000000000000000000000000000000000000000000000000000000000006104a69190612424565b90506000670de0b6b3a7640000856104be919061247e565b866104c991906124b2565b90506000670de0b6b3a7640000600283856104e49190612424565b6104ee9190612515565b6104f89190612515565b905060008160fe5461050a91906124b2565b90506000670de0b6b3a76400008989610523919061247e565b8361052e9190612424565b6105389190612515565b905081819650965050505050509250929050565b600060976000838152602001908152602001600020600101549050919050565b6105758261054c565b61057e8161112d565b6105888383611141565b505050565b6000610597611222565b600115156105a36109db565b15151415801561064957506001151561010060009054906101000a900473ffffffffffffffffffffffffffffffffffffffff1673ffffffffffffffffffffffffffffffffffffffff1663b187bd266040518163ffffffff1660e01b8152600401602060405180830381865afa158015610620573d6000803e3d6000fd5b505050506040513d601f19601f820116820180604052508101906106449190612572565b151514155b61065257600080fd5b670de0b6b3a7640000861015610694576040517f8facb45e00000000000000000000000000000000000000000000000000000000815260040160405180910390fd5b61708060ff60008282546106a891906124b2565b9250508190555060006106ca60fc548860fc546106c591906124b2565b610473565b9150507f000000000000000000000000000000000000000000000000000000000000000073ffffffffffffffffffffffffffffffffffffffff166370a08231610711611271565b6040518263ffffffff1660e01b815260040161072d91906125ae565b602060405180830381865afa15801561074a573d6000803e3d6000fd5b505050506040513d601f19601f8201168201806040525081019061076e91906125de565b8111156107a7576040517f2b2cce3f00000000000000000000000000000000000000000000000000000000815260040160405180910390fd5b600061010160006107b6611271565b73ffffffffffffffffffffffffffffffffffffffff1673ffffffffffffffffffffffffffffffffffffffff16815260200190815260200160002090508781600101600082825461080691906124b2565b9250508190555060018160000160006101000a81548160ff02191690831515021790555060ff544261083891906124b2565b816002018190555061089c61084b611271565b30848a8a8a8a7f000000000000000000000000000000000000000000000000000000000000000073ffffffffffffffffffffffffffffffffffffffff1661127990979695949392919063ffffffff16565b6108f06108a7611271565b30847f000000000000000000000000000000000000000000000000000000000000000073ffffffffffffffffffffffffffffffffffffffff16611446909392919063ffffffff16565b6001925050506108fe6114cf565b95945050505050565b61090f611271565b73ffffffffffffffffffffffffffffffffffffffff168173ffffffffffffffffffffffffffffffffffffffff161461097c576040517f08c379a00000000000000000000000000000000000000000000000000000000081526004016109739061267d565b60405180910390fd5b61098682826114d9565b5050565b610992610e4a565b6109d1576040517f08c379a00000000000000000000000000000000000000000000000000000000081526004016109c8906123d5565b60405180910390fd5b6109d96115bb565b565b6000603360009054906101000a900460ff16905090565b600060019054906101000a900460ff16610a41576040517f08c379a0000000000000000000000000000000000000000000000000000000008152600401610a389061270f565b60405180910390fd5b600073ffffffffffffffffffffffffffffffffffffffff168173ffffffffffffffffffffffffffffffffffffffff1603610aa7576040517f5415139400000000000000000000000000000000000000000000000000000000815260040160405180910390fd5b610aaf61161e565b610ab7611677565b610abf6116c8565b610ad0610aca611721565b82611141565b610ae1610adb611749565b82611141565b610af9610aec611749565b610af4611721565b611771565b610b11610b04611721565b610b0c611721565b611771565b50565b600060fc54905090565b610b26610e4a565b610b65576040517f08c379a0000000000000000000000000000000000000000000000000000000008152600401610b5c906123d5565b60405180910390fd5b610b6d6117cd565b565b6101016000610b7c611271565b73ffffffffffffffffffffffffffffffffffffffff1673ffffffffffffffffffffffffffffffffffffffff16815260200190815260200160002060000160009054906101000a900460ff16610bfd576040517f23d1e2cb00000000000000000000000000000000000000000000000000000000815260040160405180910390fd5b426101016000610c0b611271565b73ffffffffffffffffffffffffffffffffffffffff1673ffffffffffffffffffffffffffffffffffffffff168152602001908152602001600020600201541115610c81576040517f23d1e2cb00000000000000000000000000000000000000000000000000000000815260040160405180910390fd5b60006101016000610c90611271565b73ffffffffffffffffffffffffffffffffffffffff1673ffffffffffffffffffffffffffffffffffffffff16815260200190815260200160002060010154905060006101016000610cdf611271565b73ffffffffffffffffffffffffffffffffffffffff1673ffffffffffffffffffffffffffffffffffffffff16815260200190815260200160002060000160006101000a81548160ff02191690831515021790555060006101016000610d42611271565b73ffffffffffffffffffffffffffffffffffffffff1673ffffffffffffffffffffffffffffffffffffffff16815260200190815260200160002060010181905550610dd5610d8e611271565b827f000000000000000000000000000000000000000000000000000000000000000073ffffffffffffffffffffffffffffffffffffffff166118309092919063ffffffff16565b50565b60006097600084815260200190815260200160002060000160008373ffffffffffffffffffffffffffffffffffffffff1673ffffffffffffffffffffffffffffffffffffffff16815260200190815260200160002060009054906101000a900460ff16905092915050565b6000801b81565b6000610e64610e57611721565b610e5f611271565b610dd8565b905090565b60008060019054906101000a900460ff16159050808015610e9a5750600160008054906101000a900460ff1660ff16105b80610ec75750610ea9306118b6565b158015610ec65750600160008054906101000a900460ff1660ff16145b5b610f06576040517f08c379a0000000000000000000000000000000000000000000000000000000008152600401610efd906127a1565b60405180910390fd5b60016000806101000a81548160ff021916908360ff1602179055508015610f43576001600060016101000a81548160ff0219169083151502179055505b600160fd81905550670de0b6b3a764000060fe819055508161010060006101000a81548173ffffffffffffffffffffffffffffffffffffffff021916908373ffffffffffffffffffffffffffffffffffffffff160217905550610fac610fa7611271565b6109f2565b80156110055760008060016101000a81548160ff0219169083151502179055507f7f26b83ff96e1f2b6a682f133852f6798a09c465da95921460cefb38474024986001604051610ffc9190612806565b60405180910390a15b5050565b6110128261054c565b61101b8161112d565b61102583836114d9565b505050565b611032610e4a565b611071576040517f08c379a0000000000000000000000000000000000000000000000000000000008152600401611068906123d5565b60405180910390fd5b8060fd81905550670de0b6b3a76400008161108c9190612424565b60fe8190555050565b6000806110b960fc54670de0b6b3a764000060fc546110b491906124b2565b610473565b5090508091505090565b60007f01ffc9a7000000000000000000000000000000000000000000000000000000007bffffffffffffffffffffffffffffffffffffffffffffffffffffffff1916827bffffffffffffffffffffffffffffffffffffffffffffffffffffffff1916149050919050565b61113e81611139611271565b6118d9565b50565b61114b8282610dd8565b61121e5760016097600084815260200190815260200160002060000160008373ffffffffffffffffffffffffffffffffffffffff1673ffffffffffffffffffffffffffffffffffffffff16815260200190815260200160002060006101000a81548160ff0219169083151502179055506111c3611271565b73ffffffffffffffffffffffffffffffffffffffff168173ffffffffffffffffffffffffffffffffffffffff16837f2f8788117e7eff1d82e926ec794901d17c78024a50270940304540a733656f0d60405160405180910390a45b5050565b600260c95403611267576040517f08c379a000000000000000000000000000000000000000000000000000000000815260040161125e9061286d565b60405180910390fd5b600260c981905550565b600033905090565b60008873ffffffffffffffffffffffffffffffffffffffff16637ecebe00896040518263ffffffff1660e01b81526004016112b491906125ae565b602060405180830381865afa1580156112d1573d6000803e3d6000fd5b505050506040513d601f19601f820116820180604052508101906112f591906125de565b90508873ffffffffffffffffffffffffffffffffffffffff1663d505accf898989898989896040518863ffffffff1660e01b815260040161133c979695949392919061289c565b600060405180830381600087803b15801561135657600080fd5b505af115801561136a573d6000803e3d6000fd5b5050505060008973ffffffffffffffffffffffffffffffffffffffff16637ecebe008a6040518263ffffffff1660e01b81526004016113a991906125ae565b602060405180830381865afa1580156113c6573d6000803e3d6000fd5b505050506040513d601f19601f820116820180604052508101906113ea91906125de565b90506001826113f991906124b2565b811461143a576040517f08c379a00000000000000000000000000000000000000000000000000000000081526004016114319061297d565b60405180910390fd5b50505050505050505050565b6114c9846323b872dd60e01b8585856040516024016114679392919061299d565b604051602081830303815290604052907bffffffffffffffffffffffffffffffffffffffffffffffffffffffff19166020820180517bffffffffffffffffffffffffffffffffffffffffffffffffffffffff838183161783525050505061195e565b50505050565b600160c981905550565b6114e38282610dd8565b156115b75760006097600084815260200190815260200160002060000160008373ffffffffffffffffffffffffffffffffffffffff1673ffffffffffffffffffffffffffffffffffffffff16815260200190815260200160002060006101000a81548160ff02191690831515021790555061155c611271565b73ffffffffffffffffffffffffffffffffffffffff168173ffffffffffffffffffffffffffffffffffffffff16837ff6391f5c32d9c69d2a47ea670b442974b53935d1edc7fd64eb21e047a839171b60405160405180910390a45b5050565b6115c3611a25565b6000603360006101000a81548160ff0219169083151502179055507f5db9ee0a495bf2e6ff9c91a7834c1ba4fdd244a5e8aa4e537bd38aeae4b073aa611607611271565b60405161161491906125ae565b60405180910390a1565b600060019054906101000a900460ff1661166d576040517f08c379a00000000000000000000000000000000000000000000000000000000081526004016116649061270f565b60405180910390fd5b611675611a6e565b565b600060019054906101000a900460ff166116c6576040517f08c379a00000000000000000000000000000000000000000000000000000000081526004016116bd9061270f565b60405180910390fd5b565b600060019054906101000a900460ff16611717576040517f08c379a000000000000000000000000000000000000000000000000000000000815260040161170e9061270f565b60405180910390fd5b61171f611ada565b565b60007fa49807205ce4d355092ef5a8a18f56e8913cf4a201fbe287825b095693c21775905090565b60007f65d7a28e3265b37a6474929f336521b332c1681b933f6cb9f3376673440d862a905090565b600061177c8361054c565b90508160976000858152602001908152602001600020600101819055508181847fbd79b86ffe0ab8e8776151514217cd7cacd52c909f66475c3af44e129f0b00ff60405160405180910390a4505050565b6117d5611b33565b6001603360006101000a81548160ff0219169083151502179055507f62e78cea01bee320cd4e420270b5ea74000d11b0c9f74754ebdbfc544b05a258611819611271565b60405161182691906125ae565b60405180910390a1565b6118b18363a9059cbb60e01b848460405160240161184f9291906129d4565b604051602081830303815290604052907bffffffffffffffffffffffffffffffffffffffffffffffffffffffff19166020820180517bffffffffffffffffffffffffffffffffffffffffffffffffffffffff838183161783525050505061195e565b505050565b6000808273ffffffffffffffffffffffffffffffffffffffff163b119050919050565b6118e38282610dd8565b61195a576118f081611b7d565b6118fe8360001c6020611baa565b60405160200161190f929190612b06565b6040516020818303038152906040526040517f08c379a00000000000000000000000000000000000000000000000000000000081526004016119519190612b8a565b60405180910390fd5b5050565b60006119c0826040518060400160405280602081526020017f5361666545524332303a206c6f772d6c6576656c2063616c6c206661696c65648152508573ffffffffffffffffffffffffffffffffffffffff16611de69092919063ffffffff16565b9050600081511115611a2057808060200190518101906119e09190612572565b611a1f576040517f08c379a0000000000000000000000000000000000000000000000000000000008152600401611a1690612c1e565b60405180910390fd5b5b505050565b611a2d6109db565b611a6c576040517f08c379a0000000000000000000000000000000000000000000000000000000008152600401611a6390612c8a565b60405180910390fd5b565b600060019054906101000a900460ff16611abd576040517f08c379a0000000000000000000000000000000000000000000000000000000008152600401611ab49061270f565b60405180910390fd5b6000603360006101000a81548160ff021916908315150217905550565b600060019054906101000a900460ff16611b29576040517f08c379a0000000000000000000000000000000000000000000000000000000008152600401611b209061270f565b60405180910390fd5b600160c981905550565b611b3b6109db565b15611b7b576040517f08c379a0000000000000000000000000000000000000000000000000000000008152600401611b7290612cf6565b60405180910390fd5b565b6060611ba38273ffffffffffffffffffffffffffffffffffffffff16601460ff16611baa565b9050919050565b606060006002836002611bbd9190612424565b611bc791906124b2565b67ffffffffffffffff811115611be057611bdf612d16565b5b6040519080825280601f01601f191660200182016040528015611c125781602001600182028036833780820191505090505b5090507f300000000000000000000000000000000000000000000000000000000000000081600081518110611c4a57611c49612d45565b5b60200101907effffffffffffffffffffffffffffffffffffffffffffffffffffffffffffff1916908160001a9053507f780000000000000000000000000000000000000000000000000000000000000081600181518110611cae57611cad612d45565b5b60200101907effffffffffffffffffffffffffffffffffffffffffffffffffffffffffffff1916908160001a90535060006001846002611cee9190612424565b611cf891906124b2565b90505b6001811115611d98577f3031323334353637383961626364656600000000000000000000000000000000600f861660108110611d3a57611d39612d45565b5b1a60f81b828281518110611d5157611d50612d45565b5b60200101907effffffffffffffffffffffffffffffffffffffffffffffffffffffffffffff1916908160001a905350600485901c945080611d9190612d74565b9050611cfb565b5060008414611ddc576040517f08c379a0000000000000000000000000000000000000000000000000000000008152600401611dd390612de9565b60405180910390fd5b8091505092915050565b6060611df58484600085611dfe565b90509392505050565b606082471015611e43576040517f08c379a0000000000000000000000000000000000000000000000000000000008152600401611e3a90612e7b565b60405180910390fd5b6000808673ffffffffffffffffffffffffffffffffffffffff168587604051611e6c9190612ee2565b60006040518083038185875af1925050503d8060008114611ea9576040519150601f19603f3d011682016040523d82523d6000602084013e611eae565b606091505b5091509150611ebf87838387611ecb565b92505050949350505050565b60608315611f2d576000835103611f2557611ee5856118b6565b611f24576040517f08c379a0000000000000000000000000000000000000000000000000000000008152600401611f1b90612f45565b60405180910390fd5b5b829050611f38565b611f378383611f40565b5b949350505050565b600082511115611f535781518083602001fd5b806040517f08c379a0000000000000000000000000000000000000000000000000000000008152600401611f879190612b8a565b60405180910390fd5b600080fd5b60007fffffffff0000000000000000000000000000000000000000000000000000000082169050919050565b611fca81611f95565b8114611fd557600080fd5b50565b600081359050611fe781611fc1565b92915050565b60006020828403121561200357612002611f90565b5b600061201184828501611fd8565b91505092915050565b60008115159050919050565b61202f8161201a565b82525050565b600060208201905061204a6000830184612026565b92915050565b6000819050919050565b61206381612050565b811461206e57600080fd5b50565b6000813590506120808161205a565b92915050565b60006020828403121561209c5761209b611f90565b5b60006120aa84828501612071565b91505092915050565b600080604083850312156120ca576120c9611f90565b5b60006120d885828601612071565b92505060206120e985828601612071565b9150509250929050565b6120fc81612050565b82525050565b600060408201905061211760008301856120f3565b61212460208301846120f3565b9392505050565b6000819050919050565b61213e8161212b565b811461214957600080fd5b50565b60008135905061215b81612135565b92915050565b60006020828403121561217757612176611f90565b5b60006121858482850161214c565b91505092915050565b6121978161212b565b82525050565b60006020820190506121b2600083018461218e565b92915050565b600073ffffffffffffffffffffffffffffffffffffffff82169050919050565b60006121e3826121b8565b9050919050565b6121f3816121d8565b81146121fe57600080fd5b50565b600081359050612210816121ea565b92915050565b6000806040838503121561222d5761222c611f90565b5b600061223b8582860161214c565b925050602061224c85828601612201565b9150509250929050565b600060ff82169050919050565b61226c81612256565b811461227757600080fd5b50565b60008135905061228981612263565b92915050565b600080600080600060a086880312156122ab576122aa611f90565b5b60006122b988828901612071565b95505060206122ca88828901612071565b94505060406122db8882890161227a565b93505060606122ec8882890161214c565b92505060806122fd8882890161214c565b9150509295509295909350565b6000602082840312156123205761231f611f90565b5b600061232e84828501612201565b91505092915050565b600060208201905061234c60008301846120f3565b92915050565b600082825260208201905092915050565b7f4d75737420686176652061646d696e20726f6c6520746f20706572666f726d2060008201527f7468697320616374696f6e2e0000000000000000000000000000000000000000602082015250565b60006123bf602c83612352565b91506123ca82612363565b604082019050919050565b600060208201905081810360008301526123ee816123b2565b9050919050565b7f4e487b7100000000000000000000000000000000000000000000000000000000600052601160045260246000fd5b600061242f82612050565b915061243a83612050565b9250817fffffffffffffffffffffffffffffffffffffffffffffffffffffffffffffffff0483118215151615612473576124726123f5565b5b828202905092915050565b600061248982612050565b915061249483612050565b92508282039050818111156124ac576124ab6123f5565b5b92915050565b60006124bd82612050565b91506124c883612050565b92508282019050808211156124e0576124df6123f5565b5b92915050565b7f4e487b7100000000000000000000000000000000000000000000000000000000600052601260045260246000fd5b600061252082612050565b915061252b83612050565b92508261253b5761253a6124e6565b5b828204905092915050565b61254f8161201a565b811461255a57600080fd5b50565b60008151905061256c81612546565b92915050565b60006020828403121561258857612587611f90565b5b60006125968482850161255d565b91505092915050565b6125a8816121d8565b82525050565b60006020820190506125c3600083018461259f565b92915050565b6000815190506125d88161205a565b92915050565b6000602082840312156125f4576125f3611f90565b5b6000612602848285016125c9565b91505092915050565b7f416363657373436f6e74726f6c3a2063616e206f6e6c792072656e6f756e636560008201527f20726f6c657320666f722073656c660000000000000000000000000000000000602082015250565b6000612667602f83612352565b91506126728261260b565b604082019050919050565b600060208201905081810360008301526126968161265a565b9050919050565b7f496e697469616c697a61626c653a20636f6e7472616374206973206e6f74206960008201527f6e697469616c697a696e67000000000000000000000000000000000000000000602082015250565b60006126f9602b83612352565b91506127048261269d565b604082019050919050565b60006020820190508181036000830152612728816126ec565b9050919050565b7f496e697469616c697a61626c653a20636f6e747261637420697320616c72656160008201527f647920696e697469616c697a6564000000000000000000000000000000000000602082015250565b600061278b602e83612352565b91506127968261272f565b604082019050919050565b600060208201905081810360008301526127ba8161277e565b9050919050565b6000819050919050565b6000819050919050565b60006127f06127eb6127e6846127c1565b6127cb565b612256565b9050919050565b612800816127d5565b82525050565b600060208201905061281b60008301846127f7565b92915050565b7f5265656e7472616e637947756172643a207265656e7472616e742063616c6c00600082015250565b6000612857601f83612352565b915061286282612821565b602082019050919050565b600060208201905081810360008301526128868161284a565b9050919050565b61289681612256565b82525050565b600060e0820190506128b1600083018a61259f565b6128be602083018961259f565b6128cb60408301886120f3565b6128d860608301876120f3565b6128e5608083018661288d565b6128f260a083018561218e565b6128ff60c083018461218e565b98975050505050505050565b7f5361666545524332303a207065726d697420646964206e6f742073756363656560008201527f6400000000000000000000000000000000000000000000000000000000000000602082015250565b6000612967602183612352565b91506129728261290b565b604082019050919050565b600060208201905081810360008301526129968161295a565b9050919050565b60006060820190506129b2600083018661259f565b6129bf602083018561259f565b6129cc60408301846120f3565b949350505050565b60006040820190506129e9600083018561259f565b6129f660208301846120f3565b9392505050565b600081905092915050565b7f416363657373436f6e74726f6c3a206163636f756e7420000000000000000000600082015250565b6000612a3e6017836129fd565b9150612a4982612a08565b601782019050919050565b600081519050919050565b60005b83811015612a7d578082015181840152602081019050612a62565b60008484015250505050565b6000612a9482612a54565b612a9e81856129fd565b9350612aae818560208601612a5f565b80840191505092915050565b7f206973206d697373696e6720726f6c6520000000000000000000000000000000600082015250565b6000612af06011836129fd565b9150612afb82612aba565b601182019050919050565b6000612b1182612a31565b9150612b1d8285612a89565b9150612b2882612ae3565b9150612b348284612a89565b91508190509392505050565b6000601f19601f8301169050919050565b6000612b5c82612a54565b612b668185612352565b9350612b76818560208601612a5f565b612b7f81612b40565b840191505092915050565b60006020820190508181036000830152612ba48184612b51565b905092915050565b7f5361666545524332303a204552433230206f7065726174696f6e20646964206e60008201527f6f74207375636365656400000000000000000000000000000000000000000000602082015250565b6000612c08602a83612352565b9150612c1382612bac565b604082019050919050565b60006020820190508181036000830152612c3781612bfb565b9050919050565b7f5061757361626c653a206e6f7420706175736564000000000000000000000000600082015250565b6000612c74601483612352565b9150612c7f82612c3e565b602082019050919050565b60006020820190508181036000830152612ca381612c67565b9050919050565b7f5061757361626c653a2070617573656400000000000000000000000000000000600082015250565b6000612ce0601083612352565b9150612ceb82612caa565b602082019050919050565b60006020820190508181036000830152612d0f81612cd3565b9050919050565b7f4e487b7100000000000000000000000000000000000000000000000000000000600052604160045260246000fd5b7f4e487b7100000000000000000000000000000000000000000000000000000000600052603260045260246000fd5b6000612d7f82612050565b915060008203612d9257612d916123f5565b5b600182039050919050565b7f537472696e67733a20686578206c656e67746820696e73756666696369656e74600082015250565b6000612dd3602083612352565b9150612dde82612d9d565b602082019050919050565b60006020820190508181036000830152612e0281612dc6565b9050919050565b7f416464726573733a20696e73756666696369656e742062616c616e636520666f60008201527f722063616c6c0000000000000000000000000000000000000000000000000000602082015250565b6000612e65602683612352565b9150612e7082612e09565b604082019050919050565b60006020820190508181036000830152612e9481612e58565b9050919050565b600081519050919050565b600081905092915050565b6000612ebc82612e9b565b612ec68185612ea6565b9350612ed6818560208601612a5f565b80840191505092915050565b6000612eee8284612eb1565b915081905092915050565b7f416464726573733a2063616c6c20746f206e6f6e2d636f6e7472616374000000600082015250565b6000612f2f601d83612352565b9150612f3a82612ef9565b602082019050919050565b60006020820190508181036000830152612f5e81612f22565b905091905056fea264697066735822122008914a395e0df661a30abb8f19235b721fba5b908ca94c5eca78175aa4c3e19464736f6c63430008100033",
  "linkReferences": {},
  "deployedLinkReferences": {}
}