{
  "_format": "hh-sol-artifact-1",
  "contractName": "BuyGENZ",
  "sourceName": "contracts/core/buySell/BuyGENZ.sol",
  "abi": [
    {
      "inputs": [
        {
          "internalType": "uint256",
          "name": "value",
          "type": "uint256"
        },
        {
          "internalType": "uint256",
          "name": "decimals",
          "type": "uint256"
        },
        {
          "internalType": "address",
          "name": "tokenDAI",
          "type": "address"
        },
        {
          "internalType": "address",
          "name": "tokenGENZ",
          "type": "address"
        }
      ],
      "stateMutability": "nonpayable",
      "type": "constructor"
    },
    {
      "inputs": [],
      "name": "BaseUpgradeablePausable__ZeroAddressError",
      "type": "error"
    },
    {
      "inputs": [],
      "name": "BuyGENZ__EarlyWithdrawalRequestedError",
      "type": "error"
    },
    {
      "inputs": [],
      "name": "BuyGENZ__ZeroTokensPurchasedError",
      "type": "error"
    },
    {
      "inputs": [],
      "name": "BuySellGENZ__InsufficientBalanceError",
      "type": "error"
    },
    {
      "inputs": [],
      "name": "BuySellGENZ__LowAmountError",
      "type": "error"
    },
    {
      "anonymous": false,
      "inputs": [
        {
          "indexed": false,
          "internalType": "uint8",
          "name": "version",
          "type": "uint8"
        }
      ],
      "name": "Initialized",
      "type": "event"
    },
    {
      "anonymous": false,
      "inputs": [
        {
          "indexed": true,
          "internalType": "address",
          "name": "adminAddress",
          "type": "address"
        }
      ],
      "name": "InitializedContractBuyGENZ",
      "type": "event"
    },
    {
      "anonymous": false,
      "inputs": [
        {
          "indexed": false,
          "internalType": "address",
          "name": "account",
          "type": "address"
        }
      ],
      "name": "Paused",
      "type": "event"
    },
    {
      "anonymous": false,
      "inputs": [
        {
          "indexed": true,
          "internalType": "bytes32",
          "name": "role",
          "type": "bytes32"
        },
        {
          "indexed": true,
          "internalType": "bytes32",
          "name": "previousAdminRole",
          "type": "bytes32"
        },
        {
          "indexed": true,
          "internalType": "bytes32",
          "name": "newAdminRole",
          "type": "bytes32"
        }
      ],
      "name": "RoleAdminChanged",
      "type": "event"
    },
    {
      "anonymous": false,
      "inputs": [
        {
          "indexed": true,
          "internalType": "bytes32",
          "name": "role",
          "type": "bytes32"
        },
        {
          "indexed": true,
          "internalType": "address",
          "name": "account",
          "type": "address"
        },
        {
          "indexed": true,
          "internalType": "address",
          "name": "sender",
          "type": "address"
        }
      ],
      "name": "RoleGranted",
      "type": "event"
    },
    {
      "anonymous": false,
      "inputs": [
        {
          "indexed": true,
          "internalType": "bytes32",
          "name": "role",
          "type": "bytes32"
        },
        {
          "indexed": true,
          "internalType": "address",
          "name": "account",
          "type": "address"
        },
        {
          "indexed": true,
          "internalType": "address",
          "name": "sender",
          "type": "address"
        }
      ],
      "name": "RoleRevoked",
      "type": "event"
    },
    {
      "anonymous": false,
      "inputs": [
        {
          "indexed": false,
          "internalType": "address",
          "name": "account",
          "type": "address"
        }
      ],
      "name": "Unpaused",
      "type": "event"
    },
    {
      "anonymous": false,
      "inputs": [
        {
          "indexed": true,
          "internalType": "uint256",
          "name": "updatedTokenPrice",
          "type": "uint256"
        }
      ],
      "name": "UpdatedBaseSalePrice",
      "type": "event"
    },
    {
      "anonymous": false,
      "inputs": [
        {
          "indexed": true,
          "internalType": "uint256",
          "name": "timeInDays",
          "type": "uint256"
        }
      ],
      "name": "UpdatedMinimumWithdrawalPeriod",
      "type": "event"
    },
    {
      "inputs": [],
      "name": "DEFAULT_ADMIN_ROLE",
      "outputs": [
        {
          "internalType": "bytes32",
          "name": "",
          "type": "bytes32"
        }
      ],
      "stateMutability": "view",
      "type": "function"
    },
    {
      "inputs": [
        {
          "internalType": "address",
          "name": "owner",
          "type": "address"
        }
      ],
      "name": "__BaseUpgradeablePausable_init",
      "outputs": [],
      "stateMutability": "nonpayable",
      "type": "function"
    },
    {
      "inputs": [
        {
          "internalType": "uint256",
          "name": "value",
          "type": "uint256"
        },
        {
          "internalType": "uint256",
          "name": "deadline",
          "type": "uint256"
        },
        {
          "internalType": "uint8",
          "name": "permitV",
          "type": "uint8"
        },
        {
          "internalType": "bytes32",
          "name": "permitR",
          "type": "bytes32"
        },
        {
          "internalType": "bytes32",
          "name": "permitS",
          "type": "bytes32"
        }
      ],
      "name": "buyGENZToken",
      "outputs": [
        {
          "internalType": "bool",
          "name": "",
          "type": "bool"
        }
      ],
      "stateMutability": "nonpayable",
      "type": "function"
    },
    {
      "inputs": [
        {
          "internalType": "uint256",
          "name": "issuedTokensGENZ",
          "type": "uint256"
        },
        {
          "internalType": "uint256",
          "name": "requiredTokens",
          "type": "uint256"
        }
      ],
      "name": "calculatePriceGENZ",
      "outputs": [
        {
          "internalType": "uint256",
          "name": "",
          "type": "uint256"
        },
        {
          "internalType": "uint256",
          "name": "",
          "type": "uint256"
        }
      ],
      "stateMutability": "view",
      "type": "function"
    },
    {
      "inputs": [],
      "name": "getBasePriceWithDec",
      "outputs": [
        {
          "internalType": "uint256",
          "name": "",
          "type": "uint256"
        }
      ],
      "stateMutability": "view",
      "type": "function"
    },
    {
      "inputs": [],
      "name": "getCurrentTokenPrice",
      "outputs": [
        {
          "internalType": "uint256",
          "name": "",
          "type": "uint256"
        }
      ],
      "stateMutability": "view",
      "type": "function"
    },
    {
      "inputs": [],
      "name": "getGENZTokenCount",
      "outputs": [
        {
          "internalType": "uint256",
          "name": "",
          "type": "uint256"
        }
      ],
      "stateMutability": "view",
      "type": "function"
    },
    {
      "inputs": [
        {
          "internalType": "bytes32",
          "name": "role",
          "type": "bytes32"
        }
      ],
      "name": "getRoleAdmin",
      "outputs": [
        {
          "internalType": "bytes32",
          "name": "",
          "type": "bytes32"
        }
      ],
      "stateMutability": "view",
      "type": "function"
    },
    {
      "inputs": [
        {
          "internalType": "bytes32",
          "name": "role",
          "type": "bytes32"
        },
        {
          "internalType": "address",
          "name": "account",
          "type": "address"
        }
      ],
      "name": "grantRole",
      "outputs": [],
      "stateMutability": "nonpayable",
      "type": "function"
    },
    {
      "inputs": [
        {
          "internalType": "bytes32",
          "name": "role",
          "type": "bytes32"
        },
        {
          "internalType": "address",
          "name": "account",
          "type": "address"
        }
      ],
      "name": "hasRole",
      "outputs": [
        {
          "internalType": "bool",
          "name": "",
          "type": "bool"
        }
      ],
      "stateMutability": "view",
      "type": "function"
    },
    {
      "inputs": [
        {
          "internalType": "address",
          "name": "pauseOperationAddress",
          "type": "address"
        }
      ],
      "name": "initialize",
      "outputs": [],
      "stateMutability": "nonpayable",
      "type": "function"
    },
    {
      "inputs": [],
      "name": "isAdmin",
      "outputs": [
        {
          "internalType": "bool",
          "name": "",
          "type": "bool"
        }
      ],
      "stateMutability": "view",
      "type": "function"
    },
    {
      "inputs": [],
      "name": "pause",
      "outputs": [],
      "stateMutability": "nonpayable",
      "type": "function"
    },
    {
      "inputs": [],
      "name": "paused",
      "outputs": [
        {
          "internalType": "bool",
          "name": "",
          "type": "bool"
        }
      ],
      "stateMutability": "view",
      "type": "function"
    },
    {
      "inputs": [
        {
          "internalType": "bytes32",
          "name": "role",
          "type": "bytes32"
        },
        {
          "internalType": "address",
          "name": "account",
          "type": "address"
        }
      ],
      "name": "renounceRole",
      "outputs": [],
      "stateMutability": "nonpayable",
      "type": "function"
    },
    {
      "inputs": [
        {
          "internalType": "bytes32",
          "name": "role",
          "type": "bytes32"
        },
        {
          "internalType": "address",
          "name": "account",
          "type": "address"
        }
      ],
      "name": "revokeRole",
      "outputs": [],
      "stateMutability": "nonpayable",
      "type": "function"
    },
    {
      "inputs": [
        {
          "internalType": "bytes4",
          "name": "interfaceId",
          "type": "bytes4"
        }
      ],
      "name": "supportsInterface",
      "outputs": [
        {
          "internalType": "bool",
          "name": "",
          "type": "bool"
        }
      ],
      "stateMutability": "view",
      "type": "function"
    },
    {
      "inputs": [],
      "name": "unpause",
      "outputs": [],
      "stateMutability": "nonpayable",
      "type": "function"
    },
    {
      "inputs": [
        {
          "internalType": "uint256",
          "name": "updatedTokenPrice",
          "type": "uint256"
        }
      ],
      "name": "updateBaseSalePrice",
      "outputs": [],
      "stateMutability": "nonpayable",
      "type": "function"
    },
    {
      "inputs": [
        {
          "internalType": "uint256",
          "name": "timeInMinutes",
          "type": "uint256"
        }
      ],
      "name": "updateMinimumWithdrawalPeriod",
      "outputs": [],
      "stateMutability": "nonpayable",
      "type": "function"
    },
    {
      "inputs": [],
      "name": "withdrawTokens",
      "outputs": [],
      "stateMutability": "nonpayable",
      "type": "function"
    }
  ],
  "bytecode": "0x6101006040523480156200001257600080fd5b506040516200357d3803806200357d8339818101604052810190620000389190620001bb565b8173ffffffffffffffffffffffffffffffffffffffff1660a08173ffffffffffffffffffffffffffffffffffffffff16815250508073ffffffffffffffffffffffffffffffffffffffff1660c08173ffffffffffffffffffffffffffffffffffffffff16815250508173ffffffffffffffffffffffffffffffffffffffff1660e08173ffffffffffffffffffffffffffffffffffffffff168152505082600a620000e39190620003b0565b670de0b6b3a764000085620000f9919062000401565b62000105919062000491565b6080818152505050505050620004c9565b600080fd5b6000819050919050565b62000130816200011b565b81146200013c57600080fd5b50565b600081519050620001508162000125565b92915050565b600073ffffffffffffffffffffffffffffffffffffffff82169050919050565b6000620001838262000156565b9050919050565b620001958162000176565b8114620001a157600080fd5b50565b600081519050620001b5816200018a565b92915050565b60008060008060808587031215620001d857620001d762000116565b5b6000620001e8878288016200013f565b9450506020620001fb878288016200013f565b93505060406200020e87828801620001a4565b92505060606200022187828801620001a4565b91505092959194509250565b7f4e487b7100000000000000000000000000000000000000000000000000000000600052601160045260246000fd5b60008160011c9050919050565b6000808291508390505b6001851115620002bb578086048111156200029357620002926200022d565b5b6001851615620002a35780820291505b8081029050620002b3856200025c565b945062000273565b94509492505050565b600082620002d65760019050620003a9565b81620002e65760009050620003a9565b8160018114620002ff57600281146200030a5762000340565b6001915050620003a9565b60ff8411156200031f576200031e6200022d565b5b8360020a9150848211156200033957620003386200022d565b5b50620003a9565b5060208310610133831016604e8410600b84101617156200037a5782820a9050838111156200037457620003736200022d565b5b620003a9565b62000389848484600162000269565b92509050818404811115620003a357620003a26200022d565b5b81810290505b9392505050565b6000620003bd826200011b565b9150620003ca836200011b565b9250620003f97fffffffffffffffffffffffffffffffffffffffffffffffffffffffffffffffff8484620002c4565b905092915050565b60006200040e826200011b565b91506200041b836200011b565b9250817fffffffffffffffffffffffffffffffffffffffffffffffffffffffffffffffff04831182151516156200045757620004566200022d565b5b828202905092915050565b7f4e487b7100000000000000000000000000000000000000000000000000000000600052601260045260246000fd5b60006200049e826200011b565b9150620004ab836200011b565b925082620004be57620004bd62000462565b5b828204905092915050565b60805160a05160c05160e0516130736200050a60003960006108aa01526000610df20152600081816107250152610902015260006104d201526130736000f3fe608060405234801561001057600080fd5b50600436106101375760003560e01c806374a7dce5116100b8578063a217fddf1161007c578063a217fddf14610315578063b6db75a014610333578063c4d66de814610351578063d547741f1461036d578063eaef399914610389578063f751758b146103a557610137565b806374a7dce5146102955780637961c995146102b35780638456cb59146102d15780638d8f2adb146102db57806391d14854146102e557610137565b806334d131bf116100ff57806334d131bf1461020557806336568abe146102355780633f4ba83a146102515780635c975abb1461025b5780636e810b1a1461027957610137565b806301ffc9a71461013c578063051e6cb11461016c57806306fb46ba14610188578063248a9ca3146101b95780632f2ff15d146101e9575b600080fd5b610156600480360381019061015191906120c5565b6103c3565b604051610163919061210d565b60405180910390f35b6101866004803603810190610181919061215e565b61043d565b005b6101a2600480360381019061019d919061218b565b6104c8565b6040516101b09291906121da565b60405180910390f35b6101d360048036038101906101ce9190612239565b6105a1565b6040516101e09190612275565b60405180910390f35b61020360048036038101906101fe91906122ee565b6105c1565b005b61021f600480360381019061021a9190612367565b6105e2565b60405161022c919061210d565b60405180910390f35b61024f600480360381019061024a91906122ee565b61095e565b005b6102596109e1565b005b610263610a32565b604051610270919061210d565b60405180910390f35b610293600480360381019061028e91906123e2565b610a49565b005b61029d610b6b565b6040516102aa919061240f565b60405180910390f35b6102bb610b75565b6040516102c8919061240f565b60405180910390f35b6102d9610b7f565b005b6102e3610bd0565b005b6102ff60048036038101906102fa91906122ee565b610e39565b60405161030c919061210d565b60405180910390f35b61031d610ea4565b60405161032a9190612275565b60405180910390f35b61033b610eab565b604051610348919061210d565b60405180910390f35b61036b600480360381019061036691906123e2565b610eca565b005b610387600480360381019061038291906122ee565b6110b4565b005b6103a3600480360381019061039e919061215e565b6110d5565b005b6103ad61116d565b6040516103ba919061240f565b60405180910390f35b60007f7965db0b000000000000000000000000000000000000000000000000000000007bffffffffffffffffffffffffffffffffffffffffffffffffffffffff1916827bffffffffffffffffffffffffffffffffffffffffffffffffffffffff1916148061043657506104358261119b565b5b9050919050565b610445610eab565b610484576040517f08c379a000000000000000000000000000000000000000000000000000000000815260040161047b906124ad565b60405180910390fd5b603c8161049191906124fc565b61010181905550807fd40411703d84173e3d914f49781e4bd3899ac476aa3928280622a10827c7dc5c60405160405180910390a250565b600080600060fd547f00000000000000000000000000000000000000000000000000000000000000006104fb91906124fc565b90506000670de0b6b3a7640000856105139190612556565b8661051e919061258a565b90506000670de0b6b3a76400006002838561053991906124fc565b61054391906125ed565b61054d91906125ed565b905060008160fe5461055f919061258a565b90506000670de0b6b3a764000089896105789190612556565b8361058391906124fc565b61058d91906125ed565b905081819650965050505050509250929050565b600060976000838152602001908152602001600020600101549050919050565b6105ca826105a1565b6105d381611205565b6105dd8383611219565b505050565b60006105ec6112fa565b600115156105f8610a32565b15151415801561069e57506001151561010260009054906101000a900473ffffffffffffffffffffffffffffffffffffffff1673ffffffffffffffffffffffffffffffffffffffff1663b187bd266040518163ffffffff1660e01b8152600401602060405180830381865afa158015610675573d6000803e3d6000fd5b505050506040513d601f19601f82011682018060405250810190610699919061264a565b151514155b6106a757600080fd5b670de0b6b3a76400008610156106e9576040517f8facb45e00000000000000000000000000000000000000000000000000000000815260040160405180910390fd5b61708061010160008282546106fe919061258a565b92505081905550600061072060fc548860fc5461071b919061258a565b6104c8565b9150507f000000000000000000000000000000000000000000000000000000000000000073ffffffffffffffffffffffffffffffffffffffff166370a08231610767611349565b6040518263ffffffff1660e01b81526004016107839190612686565b602060405180830381865afa1580156107a0573d6000803e3d6000fd5b505050506040513d601f19601f820116820180604052508101906107c491906126b6565b8111156107fd576040517f2b2cce3f00000000000000000000000000000000000000000000000000000000815260040160405180910390fd5b6000610103600061080c611349565b73ffffffffffffffffffffffffffffffffffffffff1673ffffffffffffffffffffffffffffffffffffffff16815260200190815260200160002090508781600101600082825461085c919061258a565b9250508190555060018160000160006101000a81548160ff021916908315150217905550610101544261088f919061258a565b81600201819055506108f36108a2611349565b30848a8a8a8a7f000000000000000000000000000000000000000000000000000000000000000073ffffffffffffffffffffffffffffffffffffffff1661135190979695949392919063ffffffff16565b6109476108fe611349565b30847f000000000000000000000000000000000000000000000000000000000000000073ffffffffffffffffffffffffffffffffffffffff1661151e909392919063ffffffff16565b6001925050506109556115a7565b95945050505050565b610966611349565b73ffffffffffffffffffffffffffffffffffffffff168173ffffffffffffffffffffffffffffffffffffffff16146109d3576040517f08c379a00000000000000000000000000000000000000000000000000000000081526004016109ca90612755565b60405180910390fd5b6109dd82826115b1565b5050565b6109e9610eab565b610a28576040517f08c379a0000000000000000000000000000000000000000000000000000000008152600401610a1f906124ad565b60405180910390fd5b610a30611693565b565b6000603360009054906101000a900460ff16905090565b600060019054906101000a900460ff16610a98576040517f08c379a0000000000000000000000000000000000000000000000000000000008152600401610a8f906127e7565b60405180910390fd5b600073ffffffffffffffffffffffffffffffffffffffff168173ffffffffffffffffffffffffffffffffffffffff1603610afe576040517f5415139400000000000000000000000000000000000000000000000000000000815260040160405180910390fd5b610b066116f6565b610b0e61174f565b610b166117a0565b610b27610b216117f9565b82611219565b610b38610b32611821565b82611219565b610b50610b43611821565b610b4b6117f9565b611849565b610b68610b5b6117f9565b610b636117f9565b611849565b50565b600060fc54905090565b600060fe54905090565b610b87610eab565b610bc6576040517f08c379a0000000000000000000000000000000000000000000000000000000008152600401610bbd906124ad565b60405180910390fd5b610bce6118a5565b565b6101036000610bdd611349565b73ffffffffffffffffffffffffffffffffffffffff1673ffffffffffffffffffffffffffffffffffffffff16815260200190815260200160002060000160009054906101000a900460ff16610c5e576040517fd3d83d5000000000000000000000000000000000000000000000000000000000815260040160405180910390fd5b426101036000610c6c611349565b73ffffffffffffffffffffffffffffffffffffffff1673ffffffffffffffffffffffffffffffffffffffff168152602001908152602001600020600201541115610ce2576040517f1ae3cd2e00000000000000000000000000000000000000000000000000000000815260040160405180910390fd5b60006101036000610cf1611349565b73ffffffffffffffffffffffffffffffffffffffff1673ffffffffffffffffffffffffffffffffffffffff16815260200190815260200160002060010154905060006101036000610d40611349565b73ffffffffffffffffffffffffffffffffffffffff1673ffffffffffffffffffffffffffffffffffffffff16815260200190815260200160002060000160006101000a81548160ff02191690831515021790555060006101036000610da3611349565b73ffffffffffffffffffffffffffffffffffffffff1673ffffffffffffffffffffffffffffffffffffffff16815260200190815260200160002060010181905550610e36610def611349565b827f000000000000000000000000000000000000000000000000000000000000000073ffffffffffffffffffffffffffffffffffffffff166119089092919063ffffffff16565b50565b60006097600084815260200190815260200160002060000160008373ffffffffffffffffffffffffffffffffffffffff1673ffffffffffffffffffffffffffffffffffffffff16815260200190815260200160002060009054906101000a900460ff16905092915050565b6000801b81565b6000610ec5610eb86117f9565b610ec0611349565b610e39565b905090565b60008060019054906101000a900460ff16159050808015610efb5750600160008054906101000a900460ff1660ff16105b80610f285750610f0a3061198e565b158015610f275750600160008054906101000a900460ff1660ff16145b5b610f67576040517f08c379a0000000000000000000000000000000000000000000000000000000008152600401610f5e90612879565b60405180910390fd5b60016000806101000a81548160ff021916908360ff1602179055508015610fa4576001600060016101000a81548160ff0219169083151502179055505b600160fd81905550670de0b6b3a764000060fe819055508161010260006101000a81548173ffffffffffffffffffffffffffffffffffffffff021916908373ffffffffffffffffffffffffffffffffffffffff16021790555061100d611008611349565b610a49565b611015611349565b73ffffffffffffffffffffffffffffffffffffffff167f6fd060af3cb3283284373006d4c9a29ebe5f5a5a1b90dcbe5d4d82598935ceb660405160405180910390a280156110b05760008060016101000a81548160ff0219169083151502179055507f7f26b83ff96e1f2b6a682f133852f6798a09c465da95921460cefb384740249860016040516110a791906128de565b60405180910390a15b5050565b6110bd826105a1565b6110c681611205565b6110d083836115b1565b505050565b6110dd610eab565b61111c576040517f08c379a0000000000000000000000000000000000000000000000000000000008152600401611113906124ad565b60405180910390fd5b8060fd81905550670de0b6b3a76400008161113791906124fc565b60fe81905550807fa3bf1905dde6ff79dad27926079467a3a4f5bb8507fd3e3e83709de4f57dd98860405160405180910390a250565b60008061119160fc54670de0b6b3a764000060fc5461118c919061258a565b6104c8565b5090508091505090565b60007f01ffc9a7000000000000000000000000000000000000000000000000000000007bffffffffffffffffffffffffffffffffffffffffffffffffffffffff1916827bffffffffffffffffffffffffffffffffffffffffffffffffffffffff1916149050919050565b61121681611211611349565b6119b1565b50565b6112238282610e39565b6112f65760016097600084815260200190815260200160002060000160008373ffffffffffffffffffffffffffffffffffffffff1673ffffffffffffffffffffffffffffffffffffffff16815260200190815260200160002060006101000a81548160ff02191690831515021790555061129b611349565b73ffffffffffffffffffffffffffffffffffffffff168173ffffffffffffffffffffffffffffffffffffffff16837f2f8788117e7eff1d82e926ec794901d17c78024a50270940304540a733656f0d60405160405180910390a45b5050565b600260c9540361133f576040517f08c379a000000000000000000000000000000000000000000000000000000000815260040161133690612945565b60405180910390fd5b600260c981905550565b600033905090565b60008873ffffffffffffffffffffffffffffffffffffffff16637ecebe00896040518263ffffffff1660e01b815260040161138c9190612686565b602060405180830381865afa1580156113a9573d6000803e3d6000fd5b505050506040513d601f19601f820116820180604052508101906113cd91906126b6565b90508873ffffffffffffffffffffffffffffffffffffffff1663d505accf898989898989896040518863ffffffff1660e01b81526004016114149796959493929190612974565b600060405180830381600087803b15801561142e57600080fd5b505af1158015611442573d6000803e3d6000fd5b5050505060008973ffffffffffffffffffffffffffffffffffffffff16637ecebe008a6040518263ffffffff1660e01b81526004016114819190612686565b602060405180830381865afa15801561149e573d6000803e3d6000fd5b505050506040513d601f19601f820116820180604052508101906114c291906126b6565b90506001826114d1919061258a565b8114611512576040517f08c379a000000000000000000000000000000000000000000000000000000000815260040161150990612a55565b60405180910390fd5b50505050505050505050565b6115a1846323b872dd60e01b85858560405160240161153f93929190612a75565b604051602081830303815290604052907bffffffffffffffffffffffffffffffffffffffffffffffffffffffff19166020820180517bffffffffffffffffffffffffffffffffffffffffffffffffffffffff8381831617835250505050611a36565b50505050565b600160c981905550565b6115bb8282610e39565b1561168f5760006097600084815260200190815260200160002060000160008373ffffffffffffffffffffffffffffffffffffffff1673ffffffffffffffffffffffffffffffffffffffff16815260200190815260200160002060006101000a81548160ff021916908315150217905550611634611349565b73ffffffffffffffffffffffffffffffffffffffff168173ffffffffffffffffffffffffffffffffffffffff16837ff6391f5c32d9c69d2a47ea670b442974b53935d1edc7fd64eb21e047a839171b60405160405180910390a45b5050565b61169b611afd565b6000603360006101000a81548160ff0219169083151502179055507f5db9ee0a495bf2e6ff9c91a7834c1ba4fdd244a5e8aa4e537bd38aeae4b073aa6116df611349565b6040516116ec9190612686565b60405180910390a1565b600060019054906101000a900460ff16611745576040517f08c379a000000000000000000000000000000000000000000000000000000000815260040161173c906127e7565b60405180910390fd5b61174d611b46565b565b600060019054906101000a900460ff1661179e576040517f08c379a0000000000000000000000000000000000000000000000000000000008152600401611795906127e7565b60405180910390fd5b565b600060019054906101000a900460ff166117ef576040517f08c379a00000000000000000000000000000000000000000000000000000000081526004016117e6906127e7565b60405180910390fd5b6117f7611bb2565b565b60007fa49807205ce4d355092ef5a8a18f56e8913cf4a201fbe287825b095693c21775905090565b60007f65d7a28e3265b37a6474929f336521b332c1681b933f6cb9f3376673440d862a905090565b6000611854836105a1565b90508160976000858152602001908152602001600020600101819055508181847fbd79b86ffe0ab8e8776151514217cd7cacd52c909f66475c3af44e129f0b00ff60405160405180910390a4505050565b6118ad611c0b565b6001603360006101000a81548160ff0219169083151502179055507f62e78cea01bee320cd4e420270b5ea74000d11b0c9f74754ebdbfc544b05a2586118f1611349565b6040516118fe9190612686565b60405180910390a1565b6119898363a9059cbb60e01b8484604051602401611927929190612aac565b604051602081830303815290604052907bffffffffffffffffffffffffffffffffffffffffffffffffffffffff19166020820180517bffffffffffffffffffffffffffffffffffffffffffffffffffffffff8381831617835250505050611a36565b505050565b6000808273ffffffffffffffffffffffffffffffffffffffff163b119050919050565b6119bb8282610e39565b611a32576119c881611c55565b6119d68360001c6020611c82565b6040516020016119e7929190612bde565b6040516020818303038152906040526040517f08c379a0000000000000000000000000000000000000000000000000000000008152600401611a299190612c62565b60405180910390fd5b5050565b6000611a98826040518060400160405280602081526020017f5361666545524332303a206c6f772d6c6576656c2063616c6c206661696c65648152508573ffffffffffffffffffffffffffffffffffffffff16611ebe9092919063ffffffff16565b9050600081511115611af85780806020019051810190611ab8919061264a565b611af7576040517f08c379a0000000000000000000000000000000000000000000000000000000008152600401611aee90612cf6565b60405180910390fd5b5b505050565b611b05610a32565b611b44576040517f08c379a0000000000000000000000000000000000000000000000000000000008152600401611b3b90612d62565b60405180910390fd5b565b600060019054906101000a900460ff16611b95576040517f08c379a0000000000000000000000000000000000000000000000000000000008152600401611b8c906127e7565b60405180910390fd5b6000603360006101000a81548160ff021916908315150217905550565b600060019054906101000a900460ff16611c01576040517f08c379a0000000000000000000000000000000000000000000000000000000008152600401611bf8906127e7565b60405180910390fd5b600160c981905550565b611c13610a32565b15611c53576040517f08c379a0000000000000000000000000000000000000000000000000000000008152600401611c4a90612dce565b60405180910390fd5b565b6060611c7b8273ffffffffffffffffffffffffffffffffffffffff16601460ff16611c82565b9050919050565b606060006002836002611c9591906124fc565b611c9f919061258a565b67ffffffffffffffff811115611cb857611cb7612dee565b5b6040519080825280601f01601f191660200182016040528015611cea5781602001600182028036833780820191505090505b5090507f300000000000000000000000000000000000000000000000000000000000000081600081518110611d2257611d21612e1d565b5b60200101907effffffffffffffffffffffffffffffffffffffffffffffffffffffffffffff1916908160001a9053507f780000000000000000000000000000000000000000000000000000000000000081600181518110611d8657611d85612e1d565b5b60200101907effffffffffffffffffffffffffffffffffffffffffffffffffffffffffffff1916908160001a90535060006001846002611dc691906124fc565b611dd0919061258a565b90505b6001811115611e70577f3031323334353637383961626364656600000000000000000000000000000000600f861660108110611e1257611e11612e1d565b5b1a60f81b828281518110611e2957611e28612e1d565b5b60200101907effffffffffffffffffffffffffffffffffffffffffffffffffffffffffffff1916908160001a905350600485901c945080611e6990612e4c565b9050611dd3565b5060008414611eb4576040517f08c379a0000000000000000000000000000000000000000000000000000000008152600401611eab90612ec1565b60405180910390fd5b8091505092915050565b6060611ecd8484600085611ed6565b90509392505050565b606082471015611f1b576040517f08c379a0000000000000000000000000000000000000000000000000000000008152600401611f1290612f53565b60405180910390fd5b6000808673ffffffffffffffffffffffffffffffffffffffff168587604051611f449190612fba565b60006040518083038185875af1925050503d8060008114611f81576040519150601f19603f3d011682016040523d82523d6000602084013e611f86565b606091505b5091509150611f9787838387611fa3565b92505050949350505050565b60608315612005576000835103611ffd57611fbd8561198e565b611ffc576040517f08c379a0000000000000000000000000000000000000000000000000000000008152600401611ff39061301d565b60405180910390fd5b5b829050612010565b61200f8383612018565b5b949350505050565b60008251111561202b5781518083602001fd5b806040517f08c379a000000000000000000000000000000000000000000000000000000000815260040161205f9190612c62565b60405180910390fd5b600080fd5b60007fffffffff0000000000000000000000000000000000000000000000000000000082169050919050565b6120a28161206d565b81146120ad57600080fd5b50565b6000813590506120bf81612099565b92915050565b6000602082840312156120db576120da612068565b5b60006120e9848285016120b0565b91505092915050565b60008115159050919050565b612107816120f2565b82525050565b600060208201905061212260008301846120fe565b92915050565b6000819050919050565b61213b81612128565b811461214657600080fd5b50565b60008135905061215881612132565b92915050565b60006020828403121561217457612173612068565b5b600061218284828501612149565b91505092915050565b600080604083850312156121a2576121a1612068565b5b60006121b085828601612149565b92505060206121c185828601612149565b9150509250929050565b6121d481612128565b82525050565b60006040820190506121ef60008301856121cb565b6121fc60208301846121cb565b9392505050565b6000819050919050565b61221681612203565b811461222157600080fd5b50565b6000813590506122338161220d565b92915050565b60006020828403121561224f5761224e612068565b5b600061225d84828501612224565b91505092915050565b61226f81612203565b82525050565b600060208201905061228a6000830184612266565b92915050565b600073ffffffffffffffffffffffffffffffffffffffff82169050919050565b60006122bb82612290565b9050919050565b6122cb816122b0565b81146122d657600080fd5b50565b6000813590506122e8816122c2565b92915050565b6000806040838503121561230557612304612068565b5b600061231385828601612224565b9250506020612324858286016122d9565b9150509250929050565b600060ff82169050919050565b6123448161232e565b811461234f57600080fd5b50565b6000813590506123618161233b565b92915050565b600080600080600060a0868803121561238357612382612068565b5b600061239188828901612149565b95505060206123a288828901612149565b94505060406123b388828901612352565b93505060606123c488828901612224565b92505060806123d588828901612224565b9150509295509295909350565b6000602082840312156123f8576123f7612068565b5b6000612406848285016122d9565b91505092915050565b600060208201905061242460008301846121cb565b92915050565b600082825260208201905092915050565b7f4d75737420686176652061646d696e20726f6c6520746f20706572666f726d2060008201527f7468697320616374696f6e2e0000000000000000000000000000000000000000602082015250565b6000612497602c8361242a565b91506124a28261243b565b604082019050919050565b600060208201905081810360008301526124c68161248a565b9050919050565b7f4e487b7100000000000000000000000000000000000000000000000000000000600052601160045260246000fd5b600061250782612128565b915061251283612128565b9250817fffffffffffffffffffffffffffffffffffffffffffffffffffffffffffffffff048311821515161561254b5761254a6124cd565b5b828202905092915050565b600061256182612128565b915061256c83612128565b9250828203905081811115612584576125836124cd565b5b92915050565b600061259582612128565b91506125a083612128565b92508282019050808211156125b8576125b76124cd565b5b92915050565b7f4e487b7100000000000000000000000000000000000000000000000000000000600052601260045260246000fd5b60006125f882612128565b915061260383612128565b925082612613576126126125be565b5b828204905092915050565b612627816120f2565b811461263257600080fd5b50565b6000815190506126448161261e565b92915050565b6000602082840312156126605761265f612068565b5b600061266e84828501612635565b91505092915050565b612680816122b0565b82525050565b600060208201905061269b6000830184612677565b92915050565b6000815190506126b081612132565b92915050565b6000602082840312156126cc576126cb612068565b5b60006126da848285016126a1565b91505092915050565b7f416363657373436f6e74726f6c3a2063616e206f6e6c792072656e6f756e636560008201527f20726f6c657320666f722073656c660000000000000000000000000000000000602082015250565b600061273f602f8361242a565b915061274a826126e3565b604082019050919050565b6000602082019050818103600083015261276e81612732565b9050919050565b7f496e697469616c697a61626c653a20636f6e7472616374206973206e6f74206960008201527f6e697469616c697a696e67000000000000000000000000000000000000000000602082015250565b60006127d1602b8361242a565b91506127dc82612775565b604082019050919050565b60006020820190508181036000830152612800816127c4565b9050919050565b7f496e697469616c697a61626c653a20636f6e747261637420697320616c72656160008201527f647920696e697469616c697a6564000000000000000000000000000000000000602082015250565b6000612863602e8361242a565b915061286e82612807565b604082019050919050565b6000602082019050818103600083015261289281612856565b9050919050565b6000819050919050565b6000819050919050565b60006128c86128c36128be84612899565b6128a3565b61232e565b9050919050565b6128d8816128ad565b82525050565b60006020820190506128f360008301846128cf565b92915050565b7f5265656e7472616e637947756172643a207265656e7472616e742063616c6c00600082015250565b600061292f601f8361242a565b915061293a826128f9565b602082019050919050565b6000602082019050818103600083015261295e81612922565b9050919050565b61296e8161232e565b82525050565b600060e082019050612989600083018a612677565b6129966020830189612677565b6129a360408301886121cb565b6129b060608301876121cb565b6129bd6080830186612965565b6129ca60a0830185612266565b6129d760c0830184612266565b98975050505050505050565b7f5361666545524332303a207065726d697420646964206e6f742073756363656560008201527f6400000000000000000000000000000000000000000000000000000000000000602082015250565b6000612a3f60218361242a565b9150612a4a826129e3565b604082019050919050565b60006020820190508181036000830152612a6e81612a32565b9050919050565b6000606082019050612a8a6000830186612677565b612a976020830185612677565b612aa460408301846121cb565b949350505050565b6000604082019050612ac16000830185612677565b612ace60208301846121cb565b9392505050565b600081905092915050565b7f416363657373436f6e74726f6c3a206163636f756e7420000000000000000000600082015250565b6000612b16601783612ad5565b9150612b2182612ae0565b601782019050919050565b600081519050919050565b60005b83811015612b55578082015181840152602081019050612b3a565b60008484015250505050565b6000612b6c82612b2c565b612b768185612ad5565b9350612b86818560208601612b37565b80840191505092915050565b7f206973206d697373696e6720726f6c6520000000000000000000000000000000600082015250565b6000612bc8601183612ad5565b9150612bd382612b92565b601182019050919050565b6000612be982612b09565b9150612bf58285612b61565b9150612c0082612bbb565b9150612c0c8284612b61565b91508190509392505050565b6000601f19601f8301169050919050565b6000612c3482612b2c565b612c3e818561242a565b9350612c4e818560208601612b37565b612c5781612c18565b840191505092915050565b60006020820190508181036000830152612c7c8184612c29565b905092915050565b7f5361666545524332303a204552433230206f7065726174696f6e20646964206e60008201527f6f74207375636365656400000000000000000000000000000000000000000000602082015250565b6000612ce0602a8361242a565b9150612ceb82612c84565b604082019050919050565b60006020820190508181036000830152612d0f81612cd3565b9050919050565b7f5061757361626c653a206e6f7420706175736564000000000000000000000000600082015250565b6000612d4c60148361242a565b9150612d5782612d16565b602082019050919050565b60006020820190508181036000830152612d7b81612d3f565b9050919050565b7f5061757361626c653a2070617573656400000000000000000000000000000000600082015250565b6000612db860108361242a565b9150612dc382612d82565b602082019050919050565b60006020820190508181036000830152612de781612dab565b9050919050565b7f4e487b7100000000000000000000000000000000000000000000000000000000600052604160045260246000fd5b7f4e487b7100000000000000000000000000000000000000000000000000000000600052603260045260246000fd5b6000612e5782612128565b915060008203612e6a57612e696124cd565b5b600182039050919050565b7f537472696e67733a20686578206c656e67746820696e73756666696369656e74600082015250565b6000612eab60208361242a565b9150612eb682612e75565b602082019050919050565b60006020820190508181036000830152612eda81612e9e565b9050919050565b7f416464726573733a20696e73756666696369656e742062616c616e636520666f60008201527f722063616c6c0000000000000000000000000000000000000000000000000000602082015250565b6000612f3d60268361242a565b9150612f4882612ee1565b604082019050919050565b60006020820190508181036000830152612f6c81612f30565b9050919050565b600081519050919050565b600081905092915050565b6000612f9482612f73565b612f9e8185612f7e565b9350612fae818560208601612b37565b80840191505092915050565b6000612fc68284612f89565b915081905092915050565b7f416464726573733a2063616c6c20746f206e6f6e2d636f6e7472616374000000600082015250565b6000613007601d8361242a565b915061301282612fd1565b602082019050919050565b6000602082019050818103600083015261303681612ffa565b905091905056fea26469706673582212201de8c8803739ac8486d9a774dfb602f3c2588df71978546906106900fc79108564736f6c63430008100033",
  "linkReferences": {},
  "deployedLinkReferences": {}
}