{
  "_format": "hh-sol-artifact-1",
  "contractName": "USDC",
  "sourceName": "contracts/core/zeroPremium/StablecoinInsurance/USDC.sol",
  "abi": [
    {
      "inputs": [
        {
          "internalType": "address",
          "name": "_controllerAddress",
          "type": "address"
        }
      ],
      "stateMutability": "nonpayable",
      "type": "constructor"
    },
    {
      "inputs": [],
      "name": "USDC_ZP__LowSupplyAmountError",
      "type": "error"
    },
    {
      "inputs": [],
      "name": "USDC_ZP__TransactionFailedError",
      "type": "error"
    },
    {
      "inputs": [],
      "name": "USDC_ZP__WrongInfoEnteredError",
      "type": "error"
    },
    {
      "anonymous": false,
      "inputs": [
        {
          "indexed": true,
          "internalType": "address",
          "name": "previousOwner",
          "type": "address"
        },
        {
          "indexed": true,
          "internalType": "address",
          "name": "newOwner",
          "type": "address"
        }
      ],
      "name": "OwnershipTransferred",
      "type": "event"
    },
    {
      "inputs": [
        {
          "internalType": "address",
          "name": "rewardTokenAddress",
          "type": "address"
        }
      ],
      "name": "calculateUserBalance",
      "outputs": [
        {
          "internalType": "uint256",
          "name": "",
          "type": "uint256"
        }
      ],
      "stateMutability": "view",
      "type": "function"
    },
    {
      "inputs": [
        {
          "internalType": "string",
          "name": "stablecoinName",
          "type": "string"
        },
        {
          "internalType": "address",
          "name": "deployedAddress",
          "type": "address"
        },
        {
          "internalType": "uint256",
          "name": "stablecoinID",
          "type": "uint256"
        }
      ],
      "name": "init",
      "outputs": [],
      "stateMutability": "nonpayable",
      "type": "function"
    },
    {
      "inputs": [],
      "name": "owner",
      "outputs": [
        {
          "internalType": "address",
          "name": "",
          "type": "address"
        }
      ],
      "stateMutability": "view",
      "type": "function"
    },
    {
      "inputs": [],
      "name": "renounceOwnership",
      "outputs": [],
      "stateMutability": "nonpayable",
      "type": "function"
    },
    {
      "inputs": [
        {
          "internalType": "address",
          "name": "tokenAddress",
          "type": "address"
        },
        {
          "internalType": "address",
          "name": "rewardTokenAddress",
          "type": "address"
        },
        {
          "internalType": "uint256",
          "name": "amount",
          "type": "uint256"
        }
      ],
      "name": "supplyToken",
      "outputs": [
        {
          "internalType": "bool",
          "name": "",
          "type": "bool"
        }
      ],
      "stateMutability": "nonpayable",
      "type": "function"
    },
    {
      "inputs": [
        {
          "internalType": "address",
          "name": "newOwner",
          "type": "address"
        }
      ],
      "name": "transferOwnership",
      "outputs": [],
      "stateMutability": "nonpayable",
      "type": "function"
    },
    {
      "inputs": [
        {
          "internalType": "address",
          "name": "tokenAddress",
          "type": "address"
        },
        {
          "internalType": "address",
          "name": "rewardTokenAddress",
          "type": "address"
        },
        {
          "internalType": "uint256",
          "name": "amount",
          "type": "uint256"
        }
      ],
      "name": "withdrawToken",
      "outputs": [
        {
          "internalType": "bool",
          "name": "",
          "type": "bool"
        }
      ],
      "stateMutability": "nonpayable",
      "type": "function"
    }
  ],
  "bytecode": "0x608060405260006003553480156200001657600080fd5b5060405162001d0338038062001d0383398181016040528101906200003c9190620001e1565b6200005c62000050620000ab60201b60201c565b620000b360201b60201c565b6001808190555080600460006101000a81548173ffffffffffffffffffffffffffffffffffffffff021916908373ffffffffffffffffffffffffffffffffffffffff1602179055505062000213565b600033905090565b60008060009054906101000a900473ffffffffffffffffffffffffffffffffffffffff169050816000806101000a81548173ffffffffffffffffffffffffffffffffffffffff021916908373ffffffffffffffffffffffffffffffffffffffff1602179055508173ffffffffffffffffffffffffffffffffffffffff168173ffffffffffffffffffffffffffffffffffffffff167f8be0079c531659141344cd1fd0a4f28419497f9722a3daafe3b4186f6b6457e060405160405180910390a35050565b600080fd5b600073ffffffffffffffffffffffffffffffffffffffff82169050919050565b6000620001a9826200017c565b9050919050565b620001bb816200019c565b8114620001c757600080fd5b50565b600081519050620001db81620001b0565b92915050565b600060208284031215620001fa57620001f962000177565b5b60006200020a84828501620001ca565b91505092915050565b611ae080620002236000396000f3fe608060405234801561001057600080fd5b506004361061007d5760003560e01c80638633230e1161005b5780638633230e146100d85780638da5cb5b14610108578063c72fea5914610126578063f2fde38b146101565761007d565b806301e33667146100825780634a5dc1b7146100b2578063715018a6146100ce575b600080fd5b61009c6004803603810190610097919061124a565b610172565b6040516100a991906112b8565b60405180910390f35b6100cc60048036038101906100c79190611419565b6103dc565b005b6100d66105d7565b005b6100f260048036038101906100ed919061124a565b6105eb565b6040516100ff91906112b8565b60405180910390f35b610110610a1a565b60405161011d9190611497565b60405180910390f35b610140600480360381019061013b91906114b2565b610a43565b60405161014d91906114ee565b60405180910390f35b610170600480360381019061016b91906114b2565b610f7d565b005b600061017c611000565b600061018784610a43565b9050828110156101c3576040517f5f7abcb100000000000000000000000000000000000000000000000000000000815260040160405180910390fd5b82600560006101d061104f565b73ffffffffffffffffffffffffffffffffffffffff1673ffffffffffffffffffffffffffffffffffffffff16815260200190815260200160002060008673ffffffffffffffffffffffffffffffffffffffff1673ffffffffffffffffffffffffffffffffffffffff16815260200190815260200160002060020160008282546102599190611538565b925050819055508083036103075760006005600061027561104f565b73ffffffffffffffffffffffffffffffffffffffff1673ffffffffffffffffffffffffffffffffffffffff16815260200190815260200160002060008673ffffffffffffffffffffffffffffffffffffffff1673ffffffffffffffffffffffffffffffffffffffff16815260200190815260200160002060000160006101000a81548160ff0219169083151502179055505b60008573ffffffffffffffffffffffffffffffffffffffff1663a9059cbb61032d61104f565b866040518363ffffffff1660e01b815260040161034b92919061156c565b6020604051808303816000875af115801561036a573d6000803e3d6000fd5b505050506040513d601f19601f8201168201806040525081019061038e91906115c1565b9050806103c7576040517f5f7abcb100000000000000000000000000000000000000000000000000000000815260040160405180910390fd5b6001925050506103d5611057565b9392505050565b6103e4611060565b60006003541115610421576040517f5f7abcb100000000000000000000000000000000000000000000000000000000815260040160405180910390fd5b600080600460009054906101000a900473ffffffffffffffffffffffffffffffffffffffff1673ffffffffffffffffffffffffffffffffffffffff16635c9eb5c7846040518263ffffffff1660e01b815260040161047f91906114ee565b600060405180830381865afa15801561049c573d6000803e3d6000fd5b505050506040513d6000823e3d601f19601f820116820180604052508101906104c5919061169d565b915091508373ffffffffffffffffffffffffffffffffffffffff168173ffffffffffffffffffffffffffffffffffffffff161461052e576040517f8516249100000000000000000000000000000000000000000000000000000000815260040160405180910390fd5b8460405160200161053f9190611740565b60405160208183030381529060405280519060200120826040516020016105669190611740565b60405160208183030381529060405280519060200120146105b3576040517f8516249100000000000000000000000000000000000000000000000000000000815260040160405180910390fd5b826002819055506003600081546105c990611757565b919050819055505050505050565b6105df611060565b6105e960006110de565b565b60006105f5611000565b6402540be400821015610634576040517fa45f618200000000000000000000000000000000000000000000000000000000815260040160405180910390fd5b60006001600460009054906101000a900473ffffffffffffffffffffffffffffffffffffffff1673ffffffffffffffffffffffffffffffffffffffff1663c07f47d46040518163ffffffff1660e01b8152600401602060405180830381865afa1580156106a5573d6000803e3d6000fd5b505050506040513d601f19601f820116820180604052508101906106c991906117b4565b6106d39190611538565b9050600560006106e161104f565b73ffffffffffffffffffffffffffffffffffffffff1673ffffffffffffffffffffffffffffffffffffffff16815260200190815260200160002060008573ffffffffffffffffffffffffffffffffffffffff1673ffffffffffffffffffffffffffffffffffffffff16815260200190815260200160002060000160009054906101000a900460ff1661089857806005600061077a61104f565b73ffffffffffffffffffffffffffffffffffffffff1673ffffffffffffffffffffffffffffffffffffffff16815260200190815260200160002060008673ffffffffffffffffffffffffffffffffffffffff1673ffffffffffffffffffffffffffffffffffffffff1681526020019081526020016000206001018190555060016005600061080661104f565b73ffffffffffffffffffffffffffffffffffffffff1673ffffffffffffffffffffffffffffffffffffffff16815260200190815260200160002060008673ffffffffffffffffffffffffffffffffffffffff1673ffffffffffffffffffffffffffffffffffffffff16815260200190815260200160002060000160006101000a81548160ff0219169083151502179055505b82600660006108a561104f565b73ffffffffffffffffffffffffffffffffffffffff1673ffffffffffffffffffffffffffffffffffffffff16815260200190815260200160002060008673ffffffffffffffffffffffffffffffffffffffff1673ffffffffffffffffffffffffffffffffffffffff1681526020019081526020016000206000838152602001908152602001600020600082825461093c9190611538565b9250508190555060008573ffffffffffffffffffffffffffffffffffffffff166323b872dd61096961104f565b30876040518463ffffffff1660e01b8152600401610989939291906117e1565b6020604051808303816000875af11580156109a8573d6000803e3d6000fd5b505050506040513d601f19601f820116820180604052508101906109cc91906115c1565b905080610a05576040517f5f7abcb100000000000000000000000000000000000000000000000000000000815260040160405180910390fd5b600192505050610a13611057565b9392505050565b60008060009054906101000a900473ffffffffffffffffffffffffffffffffffffffff16905090565b60008060009050600060056000610a5861104f565b73ffffffffffffffffffffffffffffffffffffffff1673ffffffffffffffffffffffffffffffffffffffff16815260200190815260200160002060008573ffffffffffffffffffffffffffffffffffffffff1673ffffffffffffffffffffffffffffffffffffffff1681526020019081526020016000206001015490506000600460009054906101000a900473ffffffffffffffffffffffffffffffffffffffff1673ffffffffffffffffffffffffffffffffffffffff1663c07f47d46040518163ffffffff1660e01b8152600401602060405180830381865afa158015610b44573d6000803e3d6000fd5b505050506040513d601f19601f82011682018060405250810190610b6891906117b4565b90506000808390505b828111610edc57600060066000610b8661104f565b73ffffffffffffffffffffffffffffffffffffffff1673ffffffffffffffffffffffffffffffffffffffff16815260200190815260200160002060008973ffffffffffffffffffffffffffffffffffffffff1673ffffffffffffffffffffffffffffffffffffffff1681526020019081526020016000206000838152602001908152602001600020549050600460009054906101000a900473ffffffffffffffffffffffffffffffffffffffff1673ffffffffffffffffffffffffffffffffffffffff16634adf460c600254846040518363ffffffff1660e01b8152600401610c70929190611818565b602060405180830381865afa158015610c8d573d6000803e3d6000fd5b505050506040513d601f19601f82011682018060405250810190610cb191906115c1565b15610d5957600460009054906101000a900473ffffffffffffffffffffffffffffffffffffffff1673ffffffffffffffffffffffffffffffffffffffff16637ff6f977600254846040518363ffffffff1660e01b8152600401610d15929190611818565b602060405180830381865afa158015610d32573d6000803e3d6000fd5b505050506040513d601f19601f82011682018060405250810190610d5691906117b4565b92505b6000811115610d71578086610d6e9190611538565b95505b600460009054906101000a900473ffffffffffffffffffffffffffffffffffffffff1673ffffffffffffffffffffffffffffffffffffffff1663b557e4a683856040518363ffffffff1660e01b8152600401610dce929190611818565b602060405180830381865afa158015610deb573d6000803e3d6000fd5b505050506040513d601f19601f82011682018060405250810190610e0f91906115c1565b15610eca576064600460009054906101000a900473ffffffffffffffffffffffffffffffffffffffff1673ffffffffffffffffffffffffffffffffffffffff166339c4c205846040518263ffffffff1660e01b8152600401610e7191906114ee565b602060405180830381865afa158015610e8e573d6000803e3d6000fd5b505050506040513d601f19601f82011682018060405250810190610eb291906117b4565b87610ebd9190611841565b610ec791906118ca565b95505b81610ed490611757565b915050610b71565b5060056000610ee961104f565b73ffffffffffffffffffffffffffffffffffffffff1673ffffffffffffffffffffffffffffffffffffffff16815260200190815260200160002060008773ffffffffffffffffffffffffffffffffffffffff1673ffffffffffffffffffffffffffffffffffffffff1681526020019081526020016000206002015484610f6f91906118fb565b935083945050505050919050565b610f85611060565b600073ffffffffffffffffffffffffffffffffffffffff168173ffffffffffffffffffffffffffffffffffffffff1603610ff4576040517f08c379a0000000000000000000000000000000000000000000000000000000008152600401610feb906119b2565b60405180910390fd5b610ffd816110de565b50565b600260015403611045576040517f08c379a000000000000000000000000000000000000000000000000000000000815260040161103c90611a1e565b60405180910390fd5b6002600181905550565b600033905090565b60018081905550565b61106861104f565b73ffffffffffffffffffffffffffffffffffffffff16611086610a1a565b73ffffffffffffffffffffffffffffffffffffffff16146110dc576040517f08c379a00000000000000000000000000000000000000000000000000000000081526004016110d390611a8a565b60405180910390fd5b565b60008060009054906101000a900473ffffffffffffffffffffffffffffffffffffffff169050816000806101000a81548173ffffffffffffffffffffffffffffffffffffffff021916908373ffffffffffffffffffffffffffffffffffffffff1602179055508173ffffffffffffffffffffffffffffffffffffffff168173ffffffffffffffffffffffffffffffffffffffff167f8be0079c531659141344cd1fd0a4f28419497f9722a3daafe3b4186f6b6457e060405160405180910390a35050565b6000604051905090565b600080fd5b600080fd5b600073ffffffffffffffffffffffffffffffffffffffff82169050919050565b60006111e1826111b6565b9050919050565b6111f1816111d6565b81146111fc57600080fd5b50565b60008135905061120e816111e8565b92915050565b6000819050919050565b61122781611214565b811461123257600080fd5b50565b6000813590506112448161121e565b92915050565b600080600060608486031215611263576112626111ac565b5b6000611271868287016111ff565b9350506020611282868287016111ff565b925050604061129386828701611235565b9150509250925092565b60008115159050919050565b6112b28161129d565b82525050565b60006020820190506112cd60008301846112a9565b92915050565b600080fd5b600080fd5b6000601f19601f8301169050919050565b7f4e487b7100000000000000000000000000000000000000000000000000000000600052604160045260246000fd5b611326826112dd565b810181811067ffffffffffffffff82111715611345576113446112ee565b5b80604052505050565b60006113586111a2565b9050611364828261131d565b919050565b600067ffffffffffffffff821115611384576113836112ee565b5b61138d826112dd565b9050602081019050919050565b82818337600083830152505050565b60006113bc6113b784611369565b61134e565b9050828152602081018484840111156113d8576113d76112d8565b5b6113e384828561139a565b509392505050565b600082601f830112611400576113ff6112d3565b5b81356114108482602086016113a9565b91505092915050565b600080600060608486031215611432576114316111ac565b5b600084013567ffffffffffffffff8111156114505761144f6111b1565b5b61145c868287016113eb565b935050602061146d868287016111ff565b925050604061147e86828701611235565b9150509250925092565b611491816111d6565b82525050565b60006020820190506114ac6000830184611488565b92915050565b6000602082840312156114c8576114c76111ac565b5b60006114d6848285016111ff565b91505092915050565b6114e881611214565b82525050565b600060208201905061150360008301846114df565b92915050565b7f4e487b7100000000000000000000000000000000000000000000000000000000600052601160045260246000fd5b600061154382611214565b915061154e83611214565b925082820190508082111561156657611565611509565b5b92915050565b60006040820190506115816000830185611488565b61158e60208301846114df565b9392505050565b61159e8161129d565b81146115a957600080fd5b50565b6000815190506115bb81611595565b92915050565b6000602082840312156115d7576115d66111ac565b5b60006115e5848285016115ac565b91505092915050565b60005b8381101561160c5780820151818401526020810190506115f1565b60008484015250505050565b600061162b61162684611369565b61134e565b905082815260208101848484011115611647576116466112d8565b5b6116528482856115ee565b509392505050565b600082601f83011261166f5761166e6112d3565b5b815161167f848260208601611618565b91505092915050565b600081519050611697816111e8565b92915050565b600080604083850312156116b4576116b36111ac565b5b600083015167ffffffffffffffff8111156116d2576116d16111b1565b5b6116de8582860161165a565b92505060206116ef85828601611688565b9150509250929050565b600081519050919050565b600081905092915050565b600061171a826116f9565b6117248185611704565b93506117348185602086016115ee565b80840191505092915050565b600061174c828461170f565b915081905092915050565b600061176282611214565b91507fffffffffffffffffffffffffffffffffffffffffffffffffffffffffffffffff820361179457611793611509565b5b600182019050919050565b6000815190506117ae8161121e565b92915050565b6000602082840312156117ca576117c96111ac565b5b60006117d88482850161179f565b91505092915050565b60006060820190506117f66000830186611488565b6118036020830185611488565b61181060408301846114df565b949350505050565b600060408201905061182d60008301856114df565b61183a60208301846114df565b9392505050565b600061184c82611214565b915061185783611214565b9250817fffffffffffffffffffffffffffffffffffffffffffffffffffffffffffffffff04831182151516156118905761188f611509565b5b828202905092915050565b7f4e487b7100000000000000000000000000000000000000000000000000000000600052601260045260246000fd5b60006118d582611214565b91506118e083611214565b9250826118f0576118ef61189b565b5b828204905092915050565b600061190682611214565b915061191183611214565b925082820390508181111561192957611928611509565b5b92915050565b600082825260208201905092915050565b7f4f776e61626c653a206e6577206f776e657220697320746865207a65726f206160008201527f6464726573730000000000000000000000000000000000000000000000000000602082015250565b600061199c60268361192f565b91506119a782611940565b604082019050919050565b600060208201905081810360008301526119cb8161198f565b9050919050565b7f5265656e7472616e637947756172643a207265656e7472616e742063616c6c00600082015250565b6000611a08601f8361192f565b9150611a13826119d2565b602082019050919050565b60006020820190508181036000830152611a37816119fb565b9050919050565b7f4f776e61626c653a2063616c6c6572206973206e6f7420746865206f776e6572600082015250565b6000611a7460208361192f565b9150611a7f82611a3e565b602082019050919050565b60006020820190508181036000830152611aa381611a67565b905091905056fea2646970667358221220ba02b19701dc42a102a7503cf6a65f3779528aa0b3b143b546302acc3361ccd864736f6c63430008100033",
  "linkReferences": {},
  "deployedLinkReferences": {}
}