{
  "_format": "hh-sol-artifact-1",
  "contractName": "SwapDAI",
  "sourceName": "contracts/core/payAsYouGo/SwapDAI.sol",
  "abi": [
    {
      "inputs": [
        {
          "internalType": "address",
          "name": "addressDAI",
          "type": "address"
        },
        {
          "internalType": "address",
          "name": "addressSZTDAI",
          "type": "address"
        }
      ],
      "stateMutability": "nonpayable",
      "type": "constructor"
    },
    {
      "inputs": [],
      "name": "BaseUpgradeablePausable__ZeroAddressError",
      "type": "error"
    },
    {
      "inputs": [],
      "name": "SwapDAI__TransactionFailedError",
      "type": "error"
    },
    {
      "anonymous": false,
      "inputs": [
        {
          "indexed": false,
          "internalType": "uint8",
          "name": "version",
          "type": "uint8"
        }
      ],
      "name": "Initialized",
      "type": "event"
    },
    {
      "anonymous": false,
      "inputs": [
        {
          "indexed": false,
          "internalType": "address",
          "name": "account",
          "type": "address"
        }
      ],
      "name": "Paused",
      "type": "event"
    },
    {
      "anonymous": false,
      "inputs": [
        {
          "indexed": true,
          "internalType": "bytes32",
          "name": "role",
          "type": "bytes32"
        },
        {
          "indexed": true,
          "internalType": "bytes32",
          "name": "previousAdminRole",
          "type": "bytes32"
        },
        {
          "indexed": true,
          "internalType": "bytes32",
          "name": "newAdminRole",
          "type": "bytes32"
        }
      ],
      "name": "RoleAdminChanged",
      "type": "event"
    },
    {
      "anonymous": false,
      "inputs": [
        {
          "indexed": true,
          "internalType": "bytes32",
          "name": "role",
          "type": "bytes32"
        },
        {
          "indexed": true,
          "internalType": "address",
          "name": "account",
          "type": "address"
        },
        {
          "indexed": true,
          "internalType": "address",
          "name": "sender",
          "type": "address"
        }
      ],
      "name": "RoleGranted",
      "type": "event"
    },
    {
      "anonymous": false,
      "inputs": [
        {
          "indexed": true,
          "internalType": "bytes32",
          "name": "role",
          "type": "bytes32"
        },
        {
          "indexed": true,
          "internalType": "address",
          "name": "account",
          "type": "address"
        },
        {
          "indexed": true,
          "internalType": "address",
          "name": "sender",
          "type": "address"
        }
      ],
      "name": "RoleRevoked",
      "type": "event"
    },
    {
      "anonymous": false,
      "inputs": [
        {
          "indexed": false,
          "internalType": "address",
          "name": "account",
          "type": "address"
        }
      ],
      "name": "Unpaused",
      "type": "event"
    },
    {
      "inputs": [],
      "name": "DEFAULT_ADMIN_ROLE",
      "outputs": [
        {
          "internalType": "bytes32",
          "name": "",
          "type": "bytes32"
        }
      ],
      "stateMutability": "view",
      "type": "function"
    },
    {
      "inputs": [
        {
          "internalType": "address",
          "name": "owner",
          "type": "address"
        }
      ],
      "name": "__BaseUpgradeablePausable_init",
      "outputs": [],
      "stateMutability": "nonpayable",
      "type": "function"
    },
    {
      "inputs": [
        {
          "internalType": "bytes32",
          "name": "role",
          "type": "bytes32"
        }
      ],
      "name": "getRoleAdmin",
      "outputs": [
        {
          "internalType": "bytes32",
          "name": "",
          "type": "bytes32"
        }
      ],
      "stateMutability": "view",
      "type": "function"
    },
    {
      "inputs": [
        {
          "internalType": "bytes32",
          "name": "role",
          "type": "bytes32"
        },
        {
          "internalType": "address",
          "name": "account",
          "type": "address"
        }
      ],
      "name": "grantRole",
      "outputs": [],
      "stateMutability": "nonpayable",
      "type": "function"
    },
    {
      "inputs": [
        {
          "internalType": "bytes32",
          "name": "role",
          "type": "bytes32"
        },
        {
          "internalType": "address",
          "name": "account",
          "type": "address"
        }
      ],
      "name": "hasRole",
      "outputs": [
        {
          "internalType": "bool",
          "name": "",
          "type": "bool"
        }
      ],
      "stateMutability": "view",
      "type": "function"
    },
    {
      "inputs": [],
      "name": "isAdmin",
      "outputs": [
        {
          "internalType": "bool",
          "name": "",
          "type": "bool"
        }
      ],
      "stateMutability": "view",
      "type": "function"
    },
    {
      "inputs": [],
      "name": "pause",
      "outputs": [],
      "stateMutability": "nonpayable",
      "type": "function"
    },
    {
      "inputs": [],
      "name": "paused",
      "outputs": [
        {
          "internalType": "bool",
          "name": "",
          "type": "bool"
        }
      ],
      "stateMutability": "view",
      "type": "function"
    },
    {
      "inputs": [
        {
          "internalType": "bytes32",
          "name": "role",
          "type": "bytes32"
        },
        {
          "internalType": "address",
          "name": "account",
          "type": "address"
        }
      ],
      "name": "renounceRole",
      "outputs": [],
      "stateMutability": "nonpayable",
      "type": "function"
    },
    {
      "inputs": [
        {
          "internalType": "bytes32",
          "name": "role",
          "type": "bytes32"
        },
        {
          "internalType": "address",
          "name": "account",
          "type": "address"
        }
      ],
      "name": "revokeRole",
      "outputs": [],
      "stateMutability": "nonpayable",
      "type": "function"
    },
    {
      "inputs": [
        {
          "internalType": "bytes4",
          "name": "interfaceId",
          "type": "bytes4"
        }
      ],
      "name": "supportsInterface",
      "outputs": [
        {
          "internalType": "bool",
          "name": "",
          "type": "bool"
        }
      ],
      "stateMutability": "view",
      "type": "function"
    },
    {
      "inputs": [
        {
          "internalType": "uint256",
          "name": "_amount",
          "type": "uint256"
        },
        {
          "internalType": "uint256",
          "name": "deadline",
          "type": "uint256"
        },
        {
          "internalType": "uint8",
          "name": "v",
          "type": "uint8"
        },
        {
          "internalType": "bytes32",
          "name": "r",
          "type": "bytes32"
        },
        {
          "internalType": "bytes32",
          "name": "s",
          "type": "bytes32"
        }
      ],
      "name": "swapDAI",
      "outputs": [
        {
          "internalType": "bool",
          "name": "",
          "type": "bool"
        }
      ],
      "stateMutability": "nonpayable",
      "type": "function"
    },
    {
      "inputs": [
        {
          "internalType": "uint256",
          "name": "_amount",
          "type": "uint256"
        },
        {
          "internalType": "uint256",
          "name": "deadline",
          "type": "uint256"
        },
        {
          "internalType": "uint8",
          "name": "v",
          "type": "uint8"
        },
        {
          "internalType": "bytes32",
          "name": "r",
          "type": "bytes32"
        },
        {
          "internalType": "bytes32",
          "name": "s",
          "type": "bytes32"
        }
      ],
      "name": "swapsztDAI",
      "outputs": [
        {
          "internalType": "bool",
          "name": "",
          "type": "bool"
        }
      ],
      "stateMutability": "nonpayable",
      "type": "function"
    },
    {
      "inputs": [],
      "name": "unpause",
      "outputs": [],
      "stateMutability": "nonpayable",
      "type": "function"
    }
  ],
  "bytecode": "0x6101006040523480156200001257600080fd5b506040516200271e3803806200271e83398181016040528101906200003891906200017a565b8073ffffffffffffffffffffffffffffffffffffffff1660808173ffffffffffffffffffffffffffffffffffffffff16815250508173ffffffffffffffffffffffffffffffffffffffff1660a08173ffffffffffffffffffffffffffffffffffffffff16815250508173ffffffffffffffffffffffffffffffffffffffff1660c08173ffffffffffffffffffffffffffffffffffffffff16815250508073ffffffffffffffffffffffffffffffffffffffff1660e08173ffffffffffffffffffffffffffffffffffffffff16815250505050620001c1565b600080fd5b600073ffffffffffffffffffffffffffffffffffffffff82169050919050565b6000620001428262000115565b9050919050565b620001548162000135565b81146200016057600080fd5b50565b600081519050620001748162000149565b92915050565b6000806040838503121562000194576200019362000110565b5b6000620001a48582860162000163565b9250506020620001b78582860162000163565b9150509250929050565b60805160a05160c05160e05161251562000209600039600061081c015260006104610152600081816104b901526108c7015260008181610502015261087401526125156000f3fe608060405234801561001057600080fd5b50600436106100ea5760003560e01c80636e810b1a1161008c578063a217fddf11610066578063a217fddf14610235578063b6db75a014610253578063bdf2746a14610271578063d547741f146102a1576100ea565b80636e810b1a146101df5780638456cb59146101fb57806391d1485414610205576100ea565b806336568abe116100c857806336568abe1461016b5780633f4ba83a1461018757806354fcb104146101915780635c975abb146101c1576100ea565b806301ffc9a7146100ef578063248a9ca31461011f5780632f2ff15d1461014f575b600080fd5b6101096004803603810190610104919061180a565b6102bd565b6040516101169190611852565b60405180910390f35b610139600480360381019061013491906118a3565b610337565b60405161014691906118df565b60405180910390f35b61016960048036038101906101649190611958565b610357565b005b61018560048036038101906101809190611958565b610378565b005b61018f6103fb565b005b6101ab60048036038101906101a69190611a07565b61044c565b6040516101b89190611852565b60405180910390f35b6101c96105ec565b6040516101d69190611852565b60405180910390f35b6101f960048036038101906101f49190611a82565b610603565b005b610203610725565b005b61021f600480360381019061021a9190611958565b610776565b60405161022c9190611852565b60405180910390f35b61023d6107e1565b60405161024a91906118df565b60405180910390f35b61025b6107e8565b6040516102689190611852565b60405180910390f35b61028b60048036038101906102869190611a07565b610807565b6040516102989190611852565b60405180910390f35b6102bb60048036038101906102b69190611958565b610918565b005b60007f7965db0b000000000000000000000000000000000000000000000000000000007bffffffffffffffffffffffffffffffffffffffffffffffffffffffff1916827bffffffffffffffffffffffffffffffffffffffffffffffffffffffff19161480610330575061032f82610939565b5b9050919050565b600060976000838152602001908152602001600020600101549050919050565b61036082610337565b610369816109a3565b61037383836109b7565b505050565b610380610a98565b73ffffffffffffffffffffffffffffffffffffffff168173ffffffffffffffffffffffffffffffffffffffff16146103ed576040517f08c379a00000000000000000000000000000000000000000000000000000000081526004016103e490611b32565b60405180910390fd5b6103f78282610aa0565b5050565b6104036107e8565b610442576040517f08c379a000000000000000000000000000000000000000000000000000000000815260040161043990611bc4565b60405180910390fd5b61044a610b82565b565b60006104aa610459610a98565b3088888888887f000000000000000000000000000000000000000000000000000000000000000073ffffffffffffffffffffffffffffffffffffffff16610be590979695949392919063ffffffff16565b6104fe6104b5610a98565b30887f000000000000000000000000000000000000000000000000000000000000000073ffffffffffffffffffffffffffffffffffffffff16610db2909392919063ffffffff16565b60007f000000000000000000000000000000000000000000000000000000000000000073ffffffffffffffffffffffffffffffffffffffff166340c10f19610544610a98565b896040518363ffffffff1660e01b8152600401610562929190611c02565b6020604051808303816000875af1158015610581573d6000803e3d6000fd5b505050506040513d601f19601f820116820180604052508101906105a59190611c57565b9050806105de576040517f308184d500000000000000000000000000000000000000000000000000000000815260040160405180910390fd5b600191505095945050505050565b6000603360009054906101000a900460ff16905090565b600060019054906101000a900460ff16610652576040517f08c379a000000000000000000000000000000000000000000000000000000000815260040161064990611cf6565b60405180910390fd5b600073ffffffffffffffffffffffffffffffffffffffff168173ffffffffffffffffffffffffffffffffffffffff16036106b8576040517f5415139400000000000000000000000000000000000000000000000000000000815260040160405180910390fd5b6106c0610e3b565b6106c8610e94565b6106d0610ee5565b6106e16106db610f3e565b826109b7565b6106f26106ec610f66565b826109b7565b61070a6106fd610f66565b610705610f3e565b610f8e565b610722610715610f3e565b61071d610f3e565b610f8e565b50565b61072d6107e8565b61076c576040517f08c379a000000000000000000000000000000000000000000000000000000000815260040161076390611bc4565b60405180910390fd5b610774610fea565b565b60006097600084815260200190815260200160002060000160008373ffffffffffffffffffffffffffffffffffffffff1673ffffffffffffffffffffffffffffffffffffffff16815260200190815260200160002060009054906101000a900460ff16905092915050565b6000801b81565b60006108026107f5610f3e565b6107fd610a98565b610776565b905090565b6000610865610814610a98565b3088888888887f000000000000000000000000000000000000000000000000000000000000000073ffffffffffffffffffffffffffffffffffffffff16610be590979695949392919063ffffffff16565b6108b9610870610a98565b30887f000000000000000000000000000000000000000000000000000000000000000073ffffffffffffffffffffffffffffffffffffffff16610db2909392919063ffffffff16565b61090b6108c4610a98565b877f000000000000000000000000000000000000000000000000000000000000000073ffffffffffffffffffffffffffffffffffffffff1661104d9092919063ffffffff16565b6001905095945050505050565b61092182610337565b61092a816109a3565b6109348383610aa0565b505050565b60007f01ffc9a7000000000000000000000000000000000000000000000000000000007bffffffffffffffffffffffffffffffffffffffffffffffffffffffff1916827bffffffffffffffffffffffffffffffffffffffffffffffffffffffff1916149050919050565b6109b4816109af610a98565b6110d3565b50565b6109c18282610776565b610a945760016097600084815260200190815260200160002060000160008373ffffffffffffffffffffffffffffffffffffffff1673ffffffffffffffffffffffffffffffffffffffff16815260200190815260200160002060006101000a81548160ff021916908315150217905550610a39610a98565b73ffffffffffffffffffffffffffffffffffffffff168173ffffffffffffffffffffffffffffffffffffffff16837f2f8788117e7eff1d82e926ec794901d17c78024a50270940304540a733656f0d60405160405180910390a45b5050565b600033905090565b610aaa8282610776565b15610b7e5760006097600084815260200190815260200160002060000160008373ffffffffffffffffffffffffffffffffffffffff1673ffffffffffffffffffffffffffffffffffffffff16815260200190815260200160002060006101000a81548160ff021916908315150217905550610b23610a98565b73ffffffffffffffffffffffffffffffffffffffff168173ffffffffffffffffffffffffffffffffffffffff16837ff6391f5c32d9c69d2a47ea670b442974b53935d1edc7fd64eb21e047a839171b60405160405180910390a45b5050565b610b8a611158565b6000603360006101000a81548160ff0219169083151502179055507f5db9ee0a495bf2e6ff9c91a7834c1ba4fdd244a5e8aa4e537bd38aeae4b073aa610bce610a98565b604051610bdb9190611d16565b60405180910390a1565b60008873ffffffffffffffffffffffffffffffffffffffff16637ecebe00896040518263ffffffff1660e01b8152600401610c209190611d16565b602060405180830381865afa158015610c3d573d6000803e3d6000fd5b505050506040513d601f19601f82011682018060405250810190610c619190611d46565b90508873ffffffffffffffffffffffffffffffffffffffff1663d505accf898989898989896040518863ffffffff1660e01b8152600401610ca89796959493929190611d82565b600060405180830381600087803b158015610cc257600080fd5b505af1158015610cd6573d6000803e3d6000fd5b5050505060008973ffffffffffffffffffffffffffffffffffffffff16637ecebe008a6040518263ffffffff1660e01b8152600401610d159190611d16565b602060405180830381865afa158015610d32573d6000803e3d6000fd5b505050506040513d601f19601f82011682018060405250810190610d569190611d46565b9050600182610d659190611e20565b8114610da6576040517f08c379a0000000000000000000000000000000000000000000000000000000008152600401610d9d90611ec6565b60405180910390fd5b50505050505050505050565b610e35846323b872dd60e01b858585604051602401610dd393929190611ee6565b604051602081830303815290604052907bffffffffffffffffffffffffffffffffffffffffffffffffffffffff19166020820180517bffffffffffffffffffffffffffffffffffffffffffffffffffffffff83818316178352505050506111a1565b50505050565b600060019054906101000a900460ff16610e8a576040517f08c379a0000000000000000000000000000000000000000000000000000000008152600401610e8190611cf6565b60405180910390fd5b610e92611268565b565b600060019054906101000a900460ff16610ee3576040517f08c379a0000000000000000000000000000000000000000000000000000000008152600401610eda90611cf6565b60405180910390fd5b565b600060019054906101000a900460ff16610f34576040517f08c379a0000000000000000000000000000000000000000000000000000000008152600401610f2b90611cf6565b60405180910390fd5b610f3c6112d4565b565b60007fa49807205ce4d355092ef5a8a18f56e8913cf4a201fbe287825b095693c21775905090565b60007f65d7a28e3265b37a6474929f336521b332c1681b933f6cb9f3376673440d862a905090565b6000610f9983610337565b90508160976000858152602001908152602001600020600101819055508181847fbd79b86ffe0ab8e8776151514217cd7cacd52c909f66475c3af44e129f0b00ff60405160405180910390a4505050565b610ff261132d565b6001603360006101000a81548160ff0219169083151502179055507f62e78cea01bee320cd4e420270b5ea74000d11b0c9f74754ebdbfc544b05a258611036610a98565b6040516110439190611d16565b60405180910390a1565b6110ce8363a9059cbb60e01b848460405160240161106c929190611c02565b604051602081830303815290604052907bffffffffffffffffffffffffffffffffffffffffffffffffffffffff19166020820180517bffffffffffffffffffffffffffffffffffffffffffffffffffffffff83818316178352505050506111a1565b505050565b6110dd8282610776565b611154576110ea81611377565b6110f88360001c60206113a4565b604051602001611109929190612026565b6040516020818303038152906040526040517f08c379a000000000000000000000000000000000000000000000000000000000815260040161114b91906120aa565b60405180910390fd5b5050565b6111606105ec565b61119f576040517f08c379a000000000000000000000000000000000000000000000000000000000815260040161119690612118565b60405180910390fd5b565b6000611203826040518060400160405280602081526020017f5361666545524332303a206c6f772d6c6576656c2063616c6c206661696c65648152508573ffffffffffffffffffffffffffffffffffffffff166115e09092919063ffffffff16565b905060008151111561126357808060200190518101906112239190611c57565b611262576040517f08c379a0000000000000000000000000000000000000000000000000000000008152600401611259906121aa565b60405180910390fd5b5b505050565b600060019054906101000a900460ff166112b7576040517f08c379a00000000000000000000000000000000000000000000000000000000081526004016112ae90611cf6565b60405180910390fd5b6000603360006101000a81548160ff021916908315150217905550565b600060019054906101000a900460ff16611323576040517f08c379a000000000000000000000000000000000000000000000000000000000815260040161131a90611cf6565b60405180910390fd5b600160c981905550565b6113356105ec565b15611375576040517f08c379a000000000000000000000000000000000000000000000000000000000815260040161136c90612216565b60405180910390fd5b565b606061139d8273ffffffffffffffffffffffffffffffffffffffff16601460ff166113a4565b9050919050565b6060600060028360026113b79190612236565b6113c19190611e20565b67ffffffffffffffff8111156113da576113d9612290565b5b6040519080825280601f01601f19166020018201604052801561140c5781602001600182028036833780820191505090505b5090507f300000000000000000000000000000000000000000000000000000000000000081600081518110611444576114436122bf565b5b60200101907effffffffffffffffffffffffffffffffffffffffffffffffffffffffffffff1916908160001a9053507f7800000000000000000000000000000000000000000000000000000000000000816001815181106114a8576114a76122bf565b5b60200101907effffffffffffffffffffffffffffffffffffffffffffffffffffffffffffff1916908160001a905350600060018460026114e89190612236565b6114f29190611e20565b90505b6001811115611592577f3031323334353637383961626364656600000000000000000000000000000000600f861660108110611534576115336122bf565b5b1a60f81b82828151811061154b5761154a6122bf565b5b60200101907effffffffffffffffffffffffffffffffffffffffffffffffffffffffffffff1916908160001a905350600485901c94508061158b906122ee565b90506114f5565b50600084146115d6576040517f08c379a00000000000000000000000000000000000000000000000000000000081526004016115cd90612363565b60405180910390fd5b8091505092915050565b60606115ef84846000856115f8565b90509392505050565b60608247101561163d576040517f08c379a0000000000000000000000000000000000000000000000000000000008152600401611634906123f5565b60405180910390fd5b6000808673ffffffffffffffffffffffffffffffffffffffff168587604051611666919061245c565b60006040518083038185875af1925050503d80600081146116a3576040519150601f19603f3d011682016040523d82523d6000602084013e6116a8565b606091505b50915091506116b9878383876116c5565b92505050949350505050565b6060831561172757600083510361171f576116df8561173a565b61171e576040517f08c379a0000000000000000000000000000000000000000000000000000000008152600401611715906124bf565b60405180910390fd5b5b829050611732565b611731838361175d565b5b949350505050565b6000808273ffffffffffffffffffffffffffffffffffffffff163b119050919050565b6000825111156117705781518083602001fd5b806040517f08c379a00000000000000000000000000000000000000000000000000000000081526004016117a491906120aa565b60405180910390fd5b600080fd5b60007fffffffff0000000000000000000000000000000000000000000000000000000082169050919050565b6117e7816117b2565b81146117f257600080fd5b50565b600081359050611804816117de565b92915050565b6000602082840312156118205761181f6117ad565b5b600061182e848285016117f5565b91505092915050565b60008115159050919050565b61184c81611837565b82525050565b60006020820190506118676000830184611843565b92915050565b6000819050919050565b6118808161186d565b811461188b57600080fd5b50565b60008135905061189d81611877565b92915050565b6000602082840312156118b9576118b86117ad565b5b60006118c78482850161188e565b91505092915050565b6118d98161186d565b82525050565b60006020820190506118f460008301846118d0565b92915050565b600073ffffffffffffffffffffffffffffffffffffffff82169050919050565b6000611925826118fa565b9050919050565b6119358161191a565b811461194057600080fd5b50565b6000813590506119528161192c565b92915050565b6000806040838503121561196f5761196e6117ad565b5b600061197d8582860161188e565b925050602061198e85828601611943565b9150509250929050565b6000819050919050565b6119ab81611998565b81146119b657600080fd5b50565b6000813590506119c8816119a2565b92915050565b600060ff82169050919050565b6119e4816119ce565b81146119ef57600080fd5b50565b600081359050611a01816119db565b92915050565b600080600080600060a08688031215611a2357611a226117ad565b5b6000611a31888289016119b9565b9550506020611a42888289016119b9565b9450506040611a53888289016119f2565b9350506060611a648882890161188e565b9250506080611a758882890161188e565b9150509295509295909350565b600060208284031215611a9857611a976117ad565b5b6000611aa684828501611943565b91505092915050565b600082825260208201905092915050565b7f416363657373436f6e74726f6c3a2063616e206f6e6c792072656e6f756e636560008201527f20726f6c657320666f722073656c660000000000000000000000000000000000602082015250565b6000611b1c602f83611aaf565b9150611b2782611ac0565b604082019050919050565b60006020820190508181036000830152611b4b81611b0f565b9050919050565b7f4d75737420686176652061646d696e20726f6c6520746f20706572666f726d2060008201527f7468697320616374696f6e2e0000000000000000000000000000000000000000602082015250565b6000611bae602c83611aaf565b9150611bb982611b52565b604082019050919050565b60006020820190508181036000830152611bdd81611ba1565b9050919050565b611bed8161191a565b82525050565b611bfc81611998565b82525050565b6000604082019050611c176000830185611be4565b611c246020830184611bf3565b9392505050565b611c3481611837565b8114611c3f57600080fd5b50565b600081519050611c5181611c2b565b92915050565b600060208284031215611c6d57611c6c6117ad565b5b6000611c7b84828501611c42565b91505092915050565b7f496e697469616c697a61626c653a20636f6e7472616374206973206e6f74206960008201527f6e697469616c697a696e67000000000000000000000000000000000000000000602082015250565b6000611ce0602b83611aaf565b9150611ceb82611c84565b604082019050919050565b60006020820190508181036000830152611d0f81611cd3565b9050919050565b6000602082019050611d2b6000830184611be4565b92915050565b600081519050611d40816119a2565b92915050565b600060208284031215611d5c57611d5b6117ad565b5b6000611d6a84828501611d31565b91505092915050565b611d7c816119ce565b82525050565b600060e082019050611d97600083018a611be4565b611da46020830189611be4565b611db16040830188611bf3565b611dbe6060830187611bf3565b611dcb6080830186611d73565b611dd860a08301856118d0565b611de560c08301846118d0565b98975050505050505050565b7f4e487b7100000000000000000000000000000000000000000000000000000000600052601160045260246000fd5b6000611e2b82611998565b9150611e3683611998565b9250828201905080821115611e4e57611e4d611df1565b5b92915050565b7f5361666545524332303a207065726d697420646964206e6f742073756363656560008201527f6400000000000000000000000000000000000000000000000000000000000000602082015250565b6000611eb0602183611aaf565b9150611ebb82611e54565b604082019050919050565b60006020820190508181036000830152611edf81611ea3565b9050919050565b6000606082019050611efb6000830186611be4565b611f086020830185611be4565b611f156040830184611bf3565b949350505050565b600081905092915050565b7f416363657373436f6e74726f6c3a206163636f756e7420000000000000000000600082015250565b6000611f5e601783611f1d565b9150611f6982611f28565b601782019050919050565b600081519050919050565b60005b83811015611f9d578082015181840152602081019050611f82565b60008484015250505050565b6000611fb482611f74565b611fbe8185611f1d565b9350611fce818560208601611f7f565b80840191505092915050565b7f206973206d697373696e6720726f6c6520000000000000000000000000000000600082015250565b6000612010601183611f1d565b915061201b82611fda565b601182019050919050565b600061203182611f51565b915061203d8285611fa9565b915061204882612003565b91506120548284611fa9565b91508190509392505050565b6000601f19601f8301169050919050565b600061207c82611f74565b6120868185611aaf565b9350612096818560208601611f7f565b61209f81612060565b840191505092915050565b600060208201905081810360008301526120c48184612071565b905092915050565b7f5061757361626c653a206e6f7420706175736564000000000000000000000000600082015250565b6000612102601483611aaf565b915061210d826120cc565b602082019050919050565b60006020820190508181036000830152612131816120f5565b9050919050565b7f5361666545524332303a204552433230206f7065726174696f6e20646964206e60008201527f6f74207375636365656400000000000000000000000000000000000000000000602082015250565b6000612194602a83611aaf565b915061219f82612138565b604082019050919050565b600060208201905081810360008301526121c381612187565b9050919050565b7f5061757361626c653a2070617573656400000000000000000000000000000000600082015250565b6000612200601083611aaf565b915061220b826121ca565b602082019050919050565b6000602082019050818103600083015261222f816121f3565b9050919050565b600061224182611998565b915061224c83611998565b9250817fffffffffffffffffffffffffffffffffffffffffffffffffffffffffffffffff048311821515161561228557612284611df1565b5b828202905092915050565b7f4e487b7100000000000000000000000000000000000000000000000000000000600052604160045260246000fd5b7f4e487b7100000000000000000000000000000000000000000000000000000000600052603260045260246000fd5b60006122f982611998565b91506000820361230c5761230b611df1565b5b600182039050919050565b7f537472696e67733a20686578206c656e67746820696e73756666696369656e74600082015250565b600061234d602083611aaf565b915061235882612317565b602082019050919050565b6000602082019050818103600083015261237c81612340565b9050919050565b7f416464726573733a20696e73756666696369656e742062616c616e636520666f60008201527f722063616c6c0000000000000000000000000000000000000000000000000000602082015250565b60006123df602683611aaf565b91506123ea82612383565b604082019050919050565b6000602082019050818103600083015261240e816123d2565b9050919050565b600081519050919050565b600081905092915050565b600061243682612415565b6124408185612420565b9350612450818560208601611f7f565b80840191505092915050565b6000612468828461242b565b915081905092915050565b7f416464726573733a2063616c6c20746f206e6f6e2d636f6e7472616374000000600082015250565b60006124a9601d83611aaf565b91506124b482612473565b602082019050919050565b600060208201905081810360008301526124d88161249c565b905091905056fea26469706673582212204b6cb00436d7ca95ce60788ef5438f61c800b48eb8f5e3bbcd0e5e23804a219864736f6c63430008100033",
  "linkReferences": {},
  "deployedLinkReferences": {}
}