{
  "_format": "hh-sol-artifact-1",
  "contractName": "SZTDAI",
  "sourceName": "contracts/core/token/SZTDAIERC20.sol",
  "abi": [
    {
      "inputs": [],
      "name": "BaseUpgradeablePausable__ZeroAddressError",
      "type": "error"
    },
    {
      "inputs": [],
      "name": "ERC20__ImmutableChangesError",
      "type": "error"
    },
    {
      "inputs": [],
      "name": "ERC20__InsufficientBalanceError",
      "type": "error"
    },
    {
      "inputs": [],
      "name": "ERC20__SameAdressTransferError",
      "type": "error"
    },
    {
      "anonymous": false,
      "inputs": [
        {
          "indexed": true,
          "internalType": "address",
          "name": "owner",
          "type": "address"
        },
        {
          "indexed": true,
          "internalType": "address",
          "name": "spender",
          "type": "address"
        },
        {
          "indexed": false,
          "internalType": "uint256",
          "name": "value",
          "type": "uint256"
        }
      ],
      "name": "Approval",
      "type": "event"
    },
    {
      "anonymous": false,
      "inputs": [
        {
          "indexed": false,
          "internalType": "uint8",
          "name": "version",
          "type": "uint8"
        }
      ],
      "name": "Initialized",
      "type": "event"
    },
    {
      "anonymous": false,
      "inputs": [
        {
          "indexed": false,
          "internalType": "address",
          "name": "account",
          "type": "address"
        }
      ],
      "name": "Paused",
      "type": "event"
    },
    {
      "anonymous": false,
      "inputs": [
        {
          "indexed": true,
          "internalType": "bytes32",
          "name": "role",
          "type": "bytes32"
        },
        {
          "indexed": true,
          "internalType": "bytes32",
          "name": "previousAdminRole",
          "type": "bytes32"
        },
        {
          "indexed": true,
          "internalType": "bytes32",
          "name": "newAdminRole",
          "type": "bytes32"
        }
      ],
      "name": "RoleAdminChanged",
      "type": "event"
    },
    {
      "anonymous": false,
      "inputs": [
        {
          "indexed": true,
          "internalType": "bytes32",
          "name": "role",
          "type": "bytes32"
        },
        {
          "indexed": true,
          "internalType": "address",
          "name": "account",
          "type": "address"
        },
        {
          "indexed": true,
          "internalType": "address",
          "name": "sender",
          "type": "address"
        }
      ],
      "name": "RoleGranted",
      "type": "event"
    },
    {
      "anonymous": false,
      "inputs": [
        {
          "indexed": true,
          "internalType": "bytes32",
          "name": "role",
          "type": "bytes32"
        },
        {
          "indexed": true,
          "internalType": "address",
          "name": "account",
          "type": "address"
        },
        {
          "indexed": true,
          "internalType": "address",
          "name": "sender",
          "type": "address"
        }
      ],
      "name": "RoleRevoked",
      "type": "event"
    },
    {
      "anonymous": false,
      "inputs": [
        {
          "indexed": true,
          "internalType": "address",
          "name": "from",
          "type": "address"
        },
        {
          "indexed": true,
          "internalType": "address",
          "name": "to",
          "type": "address"
        },
        {
          "indexed": false,
          "internalType": "uint256",
          "name": "value",
          "type": "uint256"
        }
      ],
      "name": "Transfer",
      "type": "event"
    },
    {
      "anonymous": false,
      "inputs": [
        {
          "indexed": false,
          "internalType": "address",
          "name": "account",
          "type": "address"
        }
      ],
      "name": "Unpaused",
      "type": "event"
    },
    {
      "inputs": [],
      "name": "DEFAULT_ADMIN_ROLE",
      "outputs": [
        {
          "internalType": "bytes32",
          "name": "",
          "type": "bytes32"
        }
      ],
      "stateMutability": "view",
      "type": "function"
    },
    {
      "inputs": [],
      "name": "DOMAIN_SEPARATOR",
      "outputs": [
        {
          "internalType": "bytes32",
          "name": "",
          "type": "bytes32"
        }
      ],
      "stateMutability": "view",
      "type": "function"
    },
    {
      "inputs": [
        {
          "internalType": "address",
          "name": "owner",
          "type": "address"
        }
      ],
      "name": "__BaseUpgradeablePausable_init",
      "outputs": [],
      "stateMutability": "nonpayable",
      "type": "function"
    },
    {
      "inputs": [
        {
          "internalType": "address",
          "name": "owner",
          "type": "address"
        },
        {
          "internalType": "address",
          "name": "spender",
          "type": "address"
        }
      ],
      "name": "allowance",
      "outputs": [
        {
          "internalType": "uint256",
          "name": "",
          "type": "uint256"
        }
      ],
      "stateMutability": "view",
      "type": "function"
    },
    {
      "inputs": [
        {
          "internalType": "address",
          "name": "spender",
          "type": "address"
        },
        {
          "internalType": "uint256",
          "name": "amount",
          "type": "uint256"
        }
      ],
      "name": "approve",
      "outputs": [
        {
          "internalType": "bool",
          "name": "",
          "type": "bool"
        }
      ],
      "stateMutability": "nonpayable",
      "type": "function"
    },
    {
      "inputs": [
        {
          "internalType": "address",
          "name": "account",
          "type": "address"
        }
      ],
      "name": "balanceOf",
      "outputs": [
        {
          "internalType": "uint256",
          "name": "",
          "type": "uint256"
        }
      ],
      "stateMutability": "view",
      "type": "function"
    },
    {
      "inputs": [
        {
          "internalType": "address",
          "name": "account",
          "type": "address"
        },
        {
          "internalType": "uint256",
          "name": "amount",
          "type": "uint256"
        }
      ],
      "name": "burnFrom",
      "outputs": [
        {
          "internalType": "bool",
          "name": "",
          "type": "bool"
        }
      ],
      "stateMutability": "nonpayable",
      "type": "function"
    },
    {
      "inputs": [],
      "name": "decimals",
      "outputs": [
        {
          "internalType": "uint8",
          "name": "",
          "type": "uint8"
        }
      ],
      "stateMutability": "view",
      "type": "function"
    },
    {
      "inputs": [
        {
          "internalType": "address",
          "name": "spender",
          "type": "address"
        },
        {
          "internalType": "uint256",
          "name": "subtractedValue",
          "type": "uint256"
        }
      ],
      "name": "decreaseAllowance",
      "outputs": [
        {
          "internalType": "bool",
          "name": "",
          "type": "bool"
        }
      ],
      "stateMutability": "nonpayable",
      "type": "function"
    },
    {
      "inputs": [
        {
          "internalType": "bytes32",
          "name": "role",
          "type": "bytes32"
        }
      ],
      "name": "getRoleAdmin",
      "outputs": [
        {
          "internalType": "bytes32",
          "name": "",
          "type": "bytes32"
        }
      ],
      "stateMutability": "view",
      "type": "function"
    },
    {
      "inputs": [
        {
          "internalType": "bytes32",
          "name": "role",
          "type": "bytes32"
        },
        {
          "internalType": "address",
          "name": "account",
          "type": "address"
        }
      ],
      "name": "grantRole",
      "outputs": [],
      "stateMutability": "nonpayable",
      "type": "function"
    },
    {
      "inputs": [
        {
          "internalType": "bytes32",
          "name": "role",
          "type": "bytes32"
        },
        {
          "internalType": "address",
          "name": "account",
          "type": "address"
        }
      ],
      "name": "hasRole",
      "outputs": [
        {
          "internalType": "bool",
          "name": "",
          "type": "bool"
        }
      ],
      "stateMutability": "view",
      "type": "function"
    },
    {
      "inputs": [
        {
          "internalType": "address",
          "name": "spender",
          "type": "address"
        },
        {
          "internalType": "uint256",
          "name": "addedValue",
          "type": "uint256"
        }
      ],
      "name": "increaseAllowance",
      "outputs": [
        {
          "internalType": "bool",
          "name": "",
          "type": "bool"
        }
      ],
      "stateMutability": "nonpayable",
      "type": "function"
    },
    {
      "inputs": [
        {
          "internalType": "address",
          "name": "_addressSwapDAI",
          "type": "address"
        },
        {
          "internalType": "address",
          "name": "_addressCFA",
          "type": "address"
        }
      ],
      "name": "init",
      "outputs": [],
      "stateMutability": "nonpayable",
      "type": "function"
    },
    {
      "inputs": [],
      "name": "initialize",
      "outputs": [],
      "stateMutability": "nonpayable",
      "type": "function"
    },
    {
      "inputs": [],
      "name": "isAdmin",
      "outputs": [
        {
          "internalType": "bool",
          "name": "",
          "type": "bool"
        }
      ],
      "stateMutability": "view",
      "type": "function"
    },
    {
      "inputs": [
        {
          "internalType": "address",
          "name": "to",
          "type": "address"
        },
        {
          "internalType": "uint256",
          "name": "amount",
          "type": "uint256"
        }
      ],
      "name": "mint",
      "outputs": [
        {
          "internalType": "bool",
          "name": "",
          "type": "bool"
        }
      ],
      "stateMutability": "nonpayable",
      "type": "function"
    },
    {
      "inputs": [],
      "name": "name",
      "outputs": [
        {
          "internalType": "string",
          "name": "",
          "type": "string"
        }
      ],
      "stateMutability": "view",
      "type": "function"
    },
    {
      "inputs": [
        {
          "internalType": "address",
          "name": "owner",
          "type": "address"
        }
      ],
      "name": "nonces",
      "outputs": [
        {
          "internalType": "uint256",
          "name": "",
          "type": "uint256"
        }
      ],
      "stateMutability": "view",
      "type": "function"
    },
    {
      "inputs": [],
      "name": "pause",
      "outputs": [],
      "stateMutability": "nonpayable",
      "type": "function"
    },
    {
      "inputs": [],
      "name": "paused",
      "outputs": [
        {
          "internalType": "bool",
          "name": "",
          "type": "bool"
        }
      ],
      "stateMutability": "view",
      "type": "function"
    },
    {
      "inputs": [
        {
          "internalType": "address",
          "name": "owner",
          "type": "address"
        },
        {
          "internalType": "address",
          "name": "spender",
          "type": "address"
        },
        {
          "internalType": "uint256",
          "name": "value",
          "type": "uint256"
        },
        {
          "internalType": "uint256",
          "name": "deadline",
          "type": "uint256"
        },
        {
          "internalType": "uint8",
          "name": "v",
          "type": "uint8"
        },
        {
          "internalType": "bytes32",
          "name": "r",
          "type": "bytes32"
        },
        {
          "internalType": "bytes32",
          "name": "s",
          "type": "bytes32"
        }
      ],
      "name": "permit",
      "outputs": [],
      "stateMutability": "nonpayable",
      "type": "function"
    },
    {
      "inputs": [
        {
          "internalType": "bytes32",
          "name": "role",
          "type": "bytes32"
        },
        {
          "internalType": "address",
          "name": "account",
          "type": "address"
        }
      ],
      "name": "renounceRole",
      "outputs": [],
      "stateMutability": "nonpayable",
      "type": "function"
    },
    {
      "inputs": [
        {
          "internalType": "bytes32",
          "name": "role",
          "type": "bytes32"
        },
        {
          "internalType": "address",
          "name": "account",
          "type": "address"
        }
      ],
      "name": "revokeRole",
      "outputs": [],
      "stateMutability": "nonpayable",
      "type": "function"
    },
    {
      "inputs": [
        {
          "internalType": "bytes4",
          "name": "interfaceId",
          "type": "bytes4"
        }
      ],
      "name": "supportsInterface",
      "outputs": [
        {
          "internalType": "bool",
          "name": "",
          "type": "bool"
        }
      ],
      "stateMutability": "view",
      "type": "function"
    },
    {
      "inputs": [],
      "name": "swapContractDAI",
      "outputs": [
        {
          "internalType": "address",
          "name": "",
          "type": "address"
        }
      ],
      "stateMutability": "view",
      "type": "function"
    },
    {
      "inputs": [],
      "name": "symbol",
      "outputs": [
        {
          "internalType": "string",
          "name": "",
          "type": "string"
        }
      ],
      "stateMutability": "view",
      "type": "function"
    },
    {
      "inputs": [],
      "name": "totalSupply",
      "outputs": [
        {
          "internalType": "uint256",
          "name": "",
          "type": "uint256"
        }
      ],
      "stateMutability": "view",
      "type": "function"
    },
    {
      "inputs": [
        {
          "internalType": "address",
          "name": "to",
          "type": "address"
        },
        {
          "internalType": "uint256",
          "name": "amount",
          "type": "uint256"
        }
      ],
      "name": "transfer",
      "outputs": [
        {
          "internalType": "bool",
          "name": "",
          "type": "bool"
        }
      ],
      "stateMutability": "nonpayable",
      "type": "function"
    },
    {
      "inputs": [
        {
          "internalType": "address",
          "name": "from",
          "type": "address"
        },
        {
          "internalType": "address",
          "name": "to",
          "type": "address"
        },
        {
          "internalType": "uint256",
          "name": "amount",
          "type": "uint256"
        }
      ],
      "name": "transferFrom",
      "outputs": [
        {
          "internalType": "bool",
          "name": "",
          "type": "bool"
        }
      ],
      "stateMutability": "nonpayable",
      "type": "function"
    },
    {
      "inputs": [],
      "name": "unpause",
      "outputs": [],
      "stateMutability": "nonpayable",
      "type": "function"
    }
  ],
  "bytecode": "0x608060405234801561001057600080fd5b506144e4806100206000396000f3fe608060405234801561001057600080fd5b50600436106101e55760003560e01c80636e810b1a1161010f578063a217fddf116100a2578063d505accf11610071578063d505accf146105aa578063d547741f146105c6578063dd62ed3e146105e2578063f09a401614610612576101e5565b8063a217fddf1461050e578063a457c2d71461052c578063a9059cbb1461055c578063b6db75a01461058c576101e5565b80638129fc1c116100de5780638129fc1c146104ac5780638456cb59146104b657806391d14854146104c057806395d89b41146104f0576101e5565b80636e810b1a1461040057806370a082311461041c57806379cc67901461044c5780637ecebe001461047c576101e5565b80632f2ff15d11610187578063395093511161015657806339509351146103785780633f4ba83a146103a857806340c10f19146103b25780635c975abb146103e2576101e5565b80632f2ff15d14610304578063313ce567146103205780633644e5151461033e57806336568abe1461035c576101e5565b806318160ddd116101c357806318160ddd1461026857806323b872dd14610286578063248a9ca3146102b6578063276ec86a146102e6576101e5565b806301ffc9a7146101ea57806306fdde031461021a578063095ea7b314610238575b600080fd5b61020460048036038101906101ff9190612c99565b61062e565b6040516102119190612ce1565b60405180910390f35b6102226106a8565b60405161022f9190612d8c565b60405180910390f35b610252600480360381019061024d9190612e42565b61073a565b60405161025f9190612ce1565b60405180910390f35b61027061075d565b60405161027d9190612e91565b60405180910390f35b6102a0600480360381019061029b9190612eac565b610767565b6040516102ad9190612ce1565b60405180910390f35b6102d060048036038101906102cb9190612f35565b6108f1565b6040516102dd9190612f71565b60405180910390f35b6102ee610912565b6040516102fb9190612f9b565b60405180910390f35b61031e60048036038101906103199190612fb6565b610939565b005b61032861095a565b6040516103359190613012565b60405180910390f35b610346610963565b6040516103539190612f71565b60405180910390f35b61037660048036038101906103719190612fb6565b610972565b005b610392600480360381019061038d9190612e42565b6109f5565b60405161039f9190612ce1565b60405180910390f35b6103b0610a2c565b005b6103cc60048036038101906103c79190612e42565b610a7d565b6040516103d99190612ce1565b60405180910390f35b6103ea610b55565b6040516103f79190612ce1565b60405180910390f35b61041a6004803603810190610415919061302d565b610b6c565b005b6104366004803603810190610431919061302d565b610c8e565b6040516104439190612e91565b60405180910390f35b61046660048036038101906104619190612e42565b610cd7565b6040516104739190612ce1565b60405180910390f35b6104966004803603810190610491919061302d565b610cff565b6040516104a39190612e91565b60405180910390f35b6104b4610d4f565b005b6104be610f47565b005b6104da60048036038101906104d59190612fb6565b610f98565b6040516104e79190612ce1565b60405180910390f35b6104f8611004565b6040516105059190612d8c565b60405180910390f35b610516611096565b6040516105239190612f71565b60405180910390f35b61054660048036038101906105419190612e42565b61109d565b6040516105539190612ce1565b60405180910390f35b61057660048036038101906105719190612e42565b611114565b6040516105839190612ce1565b60405180910390f35b61059461123a565b6040516105a19190612ce1565b60405180910390f35b6105c460048036038101906105bf9190613086565b611259565b005b6105e060048036038101906105db9190612fb6565b61139b565b005b6105fc60048036038101906105f79190613128565b6113bc565b6040516106099190612e91565b60405180910390f35b61062c60048036038101906106279190613128565b611443565b005b60007f7965db0b000000000000000000000000000000000000000000000000000000007bffffffffffffffffffffffffffffffffffffffffffffffffffffffff1916827bffffffffffffffffffffffffffffffffffffffffffffffffffffffff191614806106a157506106a082611567565b5b9050919050565b6060603680546106b790613197565b80601f01602080910402602001604051908101604052809291908181526020018280546106e390613197565b80156107305780601f1061070557610100808354040283529160200191610730565b820191906000526020600020905b81548152906001019060200180831161071357829003601f168201915b5050505050905090565b6000806107456115d1565b90506107528185856115d9565b600191505092915050565b6000603554905090565b60008373ffffffffffffffffffffffffffffffffffffffff168373ffffffffffffffffffffffffffffffffffffffff16036107ce576040517fced4ef3500000000000000000000000000000000000000000000000000000000815260040160405180910390fd5b60006107d985610c8e565b9050600061019660009054906101000a900473ffffffffffffffffffffffffffffffffffffffff1673ffffffffffffffffffffffffffffffffffffffff166342f6b8a7876040518263ffffffff1660e01b81526004016108399190612f9b565b602060405180830381865afa158015610856573d6000803e3d6000fd5b505050506040513d601f19601f8201168201806040525081019061087a91906131dd565b90508381836108899190613239565b10156108c1576040517f9950252700000000000000000000000000000000000000000000000000000000815260040160405180910390fd5b60006108cb6115d1565b90506108d88782876117a2565b6108e387878761182e565b600193505050509392505050565b60006101306000838152602001908152602001600020600101549050919050565b61019560009054906101000a900473ffffffffffffffffffffffffffffffffffffffff1681565b610942826108f1565b61094b81611aa7565b6109558383611abb565b505050565b60006012905090565b600061096d611b9d565b905090565b61097a6115d1565b73ffffffffffffffffffffffffffffffffffffffff168173ffffffffffffffffffffffffffffffffffffffff16146109e7576040517f08c379a00000000000000000000000000000000000000000000000000000000081526004016109de906132df565b60405180910390fd5b6109f18282611bdd565b5050565b600080610a006115d1565b9050610a21818585610a1285896113bc565b610a1c91906132ff565b6115d9565b600191505092915050565b610a3461123a565b610a73576040517f08c379a0000000000000000000000000000000000000000000000000000000008152600401610a6a906133a5565b60405180910390fd5b610a7b611cc0565b565b600061019560009054906101000a900473ffffffffffffffffffffffffffffffffffffffff1673ffffffffffffffffffffffffffffffffffffffff16610ac16115d1565b73ffffffffffffffffffffffffffffffffffffffff161480610b38575061019660009054906101000a900473ffffffffffffffffffffffffffffffffffffffff1673ffffffffffffffffffffffffffffffffffffffff16610b206115d1565b73ffffffffffffffffffffffffffffffffffffffff16145b610b4157600080fd5b610b4b8383611d23565b6001905092915050565b600060cc60009054906101000a900460ff16905090565b600060019054906101000a900460ff16610bbb576040517f08c379a0000000000000000000000000000000000000000000000000000000008152600401610bb290613437565b60405180910390fd5b600073ffffffffffffffffffffffffffffffffffffffff168173ffffffffffffffffffffffffffffffffffffffff1603610c21576040517f5415139400000000000000000000000000000000000000000000000000000000815260040160405180910390fd5b610c29611e7a565b610c31611ed3565b610c39611f24565b610c4a610c44611f7d565b82611abb565b610c5b610c55611fa5565b82611abb565b610c73610c66611fa5565b610c6e611f7d565b611fcd565b610c8b610c7e611f7d565b610c86611f7d565b611fcd565b50565b6000603360008373ffffffffffffffffffffffffffffffffffffffff1673ffffffffffffffffffffffffffffffffffffffff168152602001908152602001600020549050919050565b6000610ceb83610ce56115d1565b846117a2565b610cf5838361202a565b6001905092915050565b6000610d48609960008473ffffffffffffffffffffffffffffffffffffffff1673ffffffffffffffffffffffffffffffffffffffff1681526020019081526020016000206121f9565b9050919050565b60008060019054906101000a900460ff16159050808015610d805750600160008054906101000a900460ff1660ff16105b80610dad5750610d8f30612207565b158015610dac5750600160008054906101000a900460ff1660ff16145b5b610dec576040517f08c379a0000000000000000000000000000000000000000000000000000000008152600401610de3906134c9565b60405180910390fd5b60016000806101000a81548160ff021916908360ff1602179055508015610e29576001600060016101000a81548160ff0219169083151502179055505b610e9d6040518060400160405280601481526020017f535a54204441492053747265616d20546f6b656e0000000000000000000000008152506040518060400160405280600681526020017f535a54444149000000000000000000000000000000000000000000000000000081525061222a565b610edb6040518060400160405280600681526020017f535a544441490000000000000000000000000000000000000000000000000000815250612287565b610eeb610ee66115d1565b610b6c565b8015610f445760008060016101000a81548160ff0219169083151502179055507f7f26b83ff96e1f2b6a682f133852f6798a09c465da95921460cefb38474024986001604051610f3b919061352e565b60405180910390a15b50565b610f4f61123a565b610f8e576040517f08c379a0000000000000000000000000000000000000000000000000000000008152600401610f85906133a5565b60405180910390fd5b610f96612318565b565b6000610130600084815260200190815260200160002060000160008373ffffffffffffffffffffffffffffffffffffffff1673ffffffffffffffffffffffffffffffffffffffff16815260200190815260200160002060009054906101000a900460ff16905092915050565b60606037805461101390613197565b80601f016020809104026020016040519081016040528092919081815260200182805461103f90613197565b801561108c5780601f106110615761010080835404028352916020019161108c565b820191906000526020600020905b81548152906001019060200180831161106f57829003601f168201915b5050505050905090565b6000801b81565b6000806110a86115d1565b905060006110b682866113bc565b9050838110156110fb576040517f08c379a00000000000000000000000000000000000000000000000000000000081526004016110f2906135bb565b60405180910390fd5b61110882868684036115d9565b60019250505092915050565b60008061111f6115d1565b9050600061113361112e6115d1565b610c8e565b9050600061019660009054906101000a900473ffffffffffffffffffffffffffffffffffffffff1673ffffffffffffffffffffffffffffffffffffffff166342f6b8a761117e6115d1565b6040518263ffffffff1660e01b815260040161119a9190612f9b565b602060405180830381865afa1580156111b7573d6000803e3d6000fd5b505050506040513d601f19601f820116820180604052508101906111db91906131dd565b90508481836111ea9190613239565b1015611222576040517f9950252700000000000000000000000000000000000000000000000000000000815260040160405180910390fd5b61122d83878761182e565b6001935050505092915050565b6000611254611247611f7d565b61124f6115d1565b610f98565b905090565b8342111561129c576040517f08c379a000000000000000000000000000000000000000000000000000000000815260040161129390613627565b60405180910390fd5b60007f6e71edae12b1b97f4d1f60370fef10105fa2faae0126114a169c64845d6126c98888886112cb8c61237b565b896040516020016112e196959493929190613647565b6040516020818303038152906040528051906020012090506000611304826123d9565b90506000611314828787876123f3565b90508973ffffffffffffffffffffffffffffffffffffffff168173ffffffffffffffffffffffffffffffffffffffff1614611384576040517f08c379a000000000000000000000000000000000000000000000000000000000815260040161137b906136f4565b60405180910390fd5b61138f8a8a8a6115d9565b50505050505050505050565b6113a4826108f1565b6113ad81611aa7565b6113b78383611bdd565b505050565b6000603460008473ffffffffffffffffffffffffffffffffffffffff1673ffffffffffffffffffffffffffffffffffffffff16815260200190815260200160002060008373ffffffffffffffffffffffffffffffffffffffff1673ffffffffffffffffffffffffffffffffffffffff16815260200190815260200160002054905092915050565b61144b61123a565b61148a576040517f08c379a0000000000000000000000000000000000000000000000000000000008152600401611481906133a5565b60405180910390fd5b60006101945411156114c8576040517f2669450e00000000000000000000000000000000000000000000000000000000815260040160405180910390fd5b610194600081546114d890613714565b919050819055508161019560006101000a81548173ffffffffffffffffffffffffffffffffffffffff021916908373ffffffffffffffffffffffffffffffffffffffff1602179055508061019660006101000a81548173ffffffffffffffffffffffffffffffffffffffff021916908373ffffffffffffffffffffffffffffffffffffffff1602179055505050565b60007f01ffc9a7000000000000000000000000000000000000000000000000000000007bffffffffffffffffffffffffffffffffffffffffffffffffffffffff1916827bffffffffffffffffffffffffffffffffffffffffffffffffffffffff1916149050919050565b600033905090565b600073ffffffffffffffffffffffffffffffffffffffff168373ffffffffffffffffffffffffffffffffffffffff1603611648576040517f08c379a000000000000000000000000000000000000000000000000000000000815260040161163f906137ce565b60405180910390fd5b600073ffffffffffffffffffffffffffffffffffffffff168273ffffffffffffffffffffffffffffffffffffffff16036116b7576040517f08c379a00000000000000000000000000000000000000000000000000000000081526004016116ae90613860565b60405180910390fd5b80603460008573ffffffffffffffffffffffffffffffffffffffff1673ffffffffffffffffffffffffffffffffffffffff16815260200190815260200160002060008473ffffffffffffffffffffffffffffffffffffffff1673ffffffffffffffffffffffffffffffffffffffff168152602001908152602001600020819055508173ffffffffffffffffffffffffffffffffffffffff168373ffffffffffffffffffffffffffffffffffffffff167f8c5be1e5ebec7d5bd14f71427d1e84f3dd0314c0f7b2291e5b200ac8c7c3b925836040516117959190612e91565b60405180910390a3505050565b60006117ae84846113bc565b90507fffffffffffffffffffffffffffffffffffffffffffffffffffffffffffffffff8114611828578181101561181a576040517f08c379a0000000000000000000000000000000000000000000000000000000008152600401611811906138cc565b60405180910390fd5b61182784848484036115d9565b5b50505050565b600073ffffffffffffffffffffffffffffffffffffffff168373ffffffffffffffffffffffffffffffffffffffff160361189d576040517f08c379a00000000000000000000000000000000000000000000000000000000081526004016118949061395e565b60405180910390fd5b600073ffffffffffffffffffffffffffffffffffffffff168273ffffffffffffffffffffffffffffffffffffffff160361190c576040517f08c379a0000000000000000000000000000000000000000000000000000000008152600401611903906139f0565b60405180910390fd5b61191783838361241e565b6000603360008573ffffffffffffffffffffffffffffffffffffffff1673ffffffffffffffffffffffffffffffffffffffff1681526020019081526020016000205490508181101561199e576040517f08c379a000000000000000000000000000000000000000000000000000000000815260040161199590613a82565b60405180910390fd5b818103603360008673ffffffffffffffffffffffffffffffffffffffff1673ffffffffffffffffffffffffffffffffffffffff1681526020019081526020016000208190555081603360008573ffffffffffffffffffffffffffffffffffffffff1673ffffffffffffffffffffffffffffffffffffffff168152602001908152602001600020600082825401925050819055508273ffffffffffffffffffffffffffffffffffffffff168473ffffffffffffffffffffffffffffffffffffffff167fddf252ad1be2c89b69c2b068fc378daa952ba7f163c4a11628f55a4df523b3ef84604051611a8e9190612e91565b60405180910390a3611aa1848484612423565b50505050565b611ab881611ab36115d1565b612428565b50565b611ac58282610f98565b611b99576001610130600084815260200190815260200160002060000160008373ffffffffffffffffffffffffffffffffffffffff1673ffffffffffffffffffffffffffffffffffffffff16815260200190815260200160002060006101000a81548160ff021916908315150217905550611b3e6115d1565b73ffffffffffffffffffffffffffffffffffffffff168173ffffffffffffffffffffffffffffffffffffffff16837f2f8788117e7eff1d82e926ec794901d17c78024a50270940304540a733656f0d60405160405180910390a45b5050565b6000611bd87f8b73c3c69bb8fe3d512ecc4cf759cc79239f7b179b0ffacaa9a75d522b39400f611bcb6124ad565b611bd36124b7565b6124c1565b905090565b611be78282610f98565b15611cbc576000610130600084815260200190815260200160002060000160008373ffffffffffffffffffffffffffffffffffffffff1673ffffffffffffffffffffffffffffffffffffffff16815260200190815260200160002060006101000a81548160ff021916908315150217905550611c616115d1565b73ffffffffffffffffffffffffffffffffffffffff168173ffffffffffffffffffffffffffffffffffffffff16837ff6391f5c32d9c69d2a47ea670b442974b53935d1edc7fd64eb21e047a839171b60405160405180910390a45b5050565b611cc86124fb565b600060cc60006101000a81548160ff0219169083151502179055507f5db9ee0a495bf2e6ff9c91a7834c1ba4fdd244a5e8aa4e537bd38aeae4b073aa611d0c6115d1565b604051611d199190612f9b565b60405180910390a1565b600073ffffffffffffffffffffffffffffffffffffffff168273ffffffffffffffffffffffffffffffffffffffff1603611d92576040517f08c379a0000000000000000000000000000000000000000000000000000000008152600401611d8990613aee565b60405180910390fd5b611d9e6000838361241e565b8060356000828254611db091906132ff565b9250508190555080603360008473ffffffffffffffffffffffffffffffffffffffff1673ffffffffffffffffffffffffffffffffffffffff168152602001908152602001600020600082825401925050819055508173ffffffffffffffffffffffffffffffffffffffff16600073ffffffffffffffffffffffffffffffffffffffff167fddf252ad1be2c89b69c2b068fc378daa952ba7f163c4a11628f55a4df523b3ef83604051611e629190612e91565b60405180910390a3611e7660008383612423565b5050565b600060019054906101000a900460ff16611ec9576040517f08c379a0000000000000000000000000000000000000000000000000000000008152600401611ec090613437565b60405180910390fd5b611ed1612544565b565b600060019054906101000a900460ff16611f22576040517f08c379a0000000000000000000000000000000000000000000000000000000008152600401611f1990613437565b60405180910390fd5b565b600060019054906101000a900460ff16611f73576040517f08c379a0000000000000000000000000000000000000000000000000000000008152600401611f6a90613437565b60405180910390fd5b611f7b6125b0565b565b60007fa49807205ce4d355092ef5a8a18f56e8913cf4a201fbe287825b095693c21775905090565b60007f65d7a28e3265b37a6474929f336521b332c1681b933f6cb9f3376673440d862a905090565b6000611fd8836108f1565b9050816101306000858152602001908152602001600020600101819055508181847fbd79b86ffe0ab8e8776151514217cd7cacd52c909f66475c3af44e129f0b00ff60405160405180910390a4505050565b600073ffffffffffffffffffffffffffffffffffffffff168273ffffffffffffffffffffffffffffffffffffffff1603612099576040517f08c379a000000000000000000000000000000000000000000000000000000000815260040161209090613b80565b60405180910390fd5b6120a58260008361241e565b6000603360008473ffffffffffffffffffffffffffffffffffffffff1673ffffffffffffffffffffffffffffffffffffffff1681526020019081526020016000205490508181101561212c576040517f08c379a000000000000000000000000000000000000000000000000000000000815260040161212390613c12565b60405180910390fd5b818103603360008573ffffffffffffffffffffffffffffffffffffffff1673ffffffffffffffffffffffffffffffffffffffff1681526020019081526020016000208190555081603560008282540392505081905550600073ffffffffffffffffffffffffffffffffffffffff168373ffffffffffffffffffffffffffffffffffffffff167fddf252ad1be2c89b69c2b068fc378daa952ba7f163c4a11628f55a4df523b3ef846040516121e09190612e91565b60405180910390a36121f483600084612423565b505050565b600081600001549050919050565b6000808273ffffffffffffffffffffffffffffffffffffffff163b119050919050565b600060019054906101000a900460ff16612279576040517f08c379a000000000000000000000000000000000000000000000000000000000815260040161227090613437565b60405180910390fd5b612283828261260a565b5050565b600060019054906101000a900460ff166122d6576040517f08c379a00000000000000000000000000000000000000000000000000000000081526004016122cd90613437565b60405180910390fd5b612315816040518060400160405280600181526020017f310000000000000000000000000000000000000000000000000000000000000081525061267d565b50565b6123206126f8565b600160cc60006101000a81548160ff0219169083151502179055507f62e78cea01bee320cd4e420270b5ea74000d11b0c9f74754ebdbfc544b05a2586123646115d1565b6040516123719190612f9b565b60405180910390a1565b600080609960008473ffffffffffffffffffffffffffffffffffffffff1673ffffffffffffffffffffffffffffffffffffffff16815260200190815260200160002090506123c8816121f9565b91506123d381612742565b50919050565b60006123ec6123e6611b9d565b83612758565b9050919050565b60008060006124048787878761278b565b915091506124118161286d565b8192505050949350505050565b505050565b505050565b6124328282610f98565b6124a95761243f816129d3565b61244d8360001c6020612a00565b60405160200161245e929190613d06565b6040516020818303038152906040526040517f08c379a00000000000000000000000000000000000000000000000000000000081526004016124a09190612d8c565b60405180910390fd5b5050565b6000606554905090565b6000606654905090565b600083838346306040516020016124dc959493929190613d40565b6040516020818303038152906040528051906020012090509392505050565b612503610b55565b612542576040517f08c379a000000000000000000000000000000000000000000000000000000000815260040161253990613ddf565b60405180910390fd5b565b600060019054906101000a900460ff16612593576040517f08c379a000000000000000000000000000000000000000000000000000000000815260040161258a90613437565b60405180910390fd5b600060cc60006101000a81548160ff021916908315150217905550565b600060019054906101000a900460ff166125ff576040517f08c379a00000000000000000000000000000000000000000000000000000000081526004016125f690613437565b60405180910390fd5b600161016281905550565b600060019054906101000a900460ff16612659576040517f08c379a000000000000000000000000000000000000000000000000000000000815260040161265090613437565b60405180910390fd5b81603690816126689190613fd0565b5080603790816126789190613fd0565b505050565b600060019054906101000a900460ff166126cc576040517f08c379a00000000000000000000000000000000000000000000000000000000081526004016126c390613437565b60405180910390fd5b600082805190602001209050600082805190602001209050816065819055508060668190555050505050565b612700610b55565b15612740576040517f08c379a0000000000000000000000000000000000000000000000000000000008152600401612737906140ee565b60405180910390fd5b565b6001816000016000828254019250508190555050565b6000828260405160200161276d92919061417b565b60405160208183030381529060405280519060200120905092915050565b6000807f7fffffffffffffffffffffffffffffff5d576e7357a4501ddfe92f46681b20a08360001c11156127c6576000600391509150612864565b6000600187878787604051600081526020016040526040516127eb94939291906141b2565b6020604051602081039080840390855afa15801561280d573d6000803e3d6000fd5b505050602060405103519050600073ffffffffffffffffffffffffffffffffffffffff168173ffffffffffffffffffffffffffffffffffffffff160361285b57600060019250925050612864565b80600092509250505b94509492505050565b60006004811115612881576128806141f7565b5b816004811115612894576128936141f7565b5b03156129d057600160048111156128ae576128ad6141f7565b5b8160048111156128c1576128c06141f7565b5b03612901576040517f08c379a00000000000000000000000000000000000000000000000000000000081526004016128f890614272565b60405180910390fd5b60026004811115612915576129146141f7565b5b816004811115612928576129276141f7565b5b03612968576040517f08c379a000000000000000000000000000000000000000000000000000000000815260040161295f906142de565b60405180910390fd5b6003600481111561297c5761297b6141f7565b5b81600481111561298f5761298e6141f7565b5b036129cf576040517f08c379a00000000000000000000000000000000000000000000000000000000081526004016129c690614370565b60405180910390fd5b5b50565b60606129f98273ffffffffffffffffffffffffffffffffffffffff16601460ff16612a00565b9050919050565b606060006002836002612a139190614390565b612a1d91906132ff565b67ffffffffffffffff811115612a3657612a35613dff565b5b6040519080825280601f01601f191660200182016040528015612a685781602001600182028036833780820191505090505b5090507f300000000000000000000000000000000000000000000000000000000000000081600081518110612aa057612a9f6143ea565b5b60200101907effffffffffffffffffffffffffffffffffffffffffffffffffffffffffffff1916908160001a9053507f780000000000000000000000000000000000000000000000000000000000000081600181518110612b0457612b036143ea565b5b60200101907effffffffffffffffffffffffffffffffffffffffffffffffffffffffffffff1916908160001a90535060006001846002612b449190614390565b612b4e91906132ff565b90505b6001811115612bee577f3031323334353637383961626364656600000000000000000000000000000000600f861660108110612b9057612b8f6143ea565b5b1a60f81b828281518110612ba757612ba66143ea565b5b60200101907effffffffffffffffffffffffffffffffffffffffffffffffffffffffffffff1916908160001a905350600485901c945080612be790614419565b9050612b51565b5060008414612c32576040517f08c379a0000000000000000000000000000000000000000000000000000000008152600401612c299061448e565b60405180910390fd5b8091505092915050565b600080fd5b60007fffffffff0000000000000000000000000000000000000000000000000000000082169050919050565b612c7681612c41565b8114612c8157600080fd5b50565b600081359050612c9381612c6d565b92915050565b600060208284031215612caf57612cae612c3c565b5b6000612cbd84828501612c84565b91505092915050565b60008115159050919050565b612cdb81612cc6565b82525050565b6000602082019050612cf66000830184612cd2565b92915050565b600081519050919050565b600082825260208201905092915050565b60005b83811015612d36578082015181840152602081019050612d1b565b60008484015250505050565b6000601f19601f8301169050919050565b6000612d5e82612cfc565b612d688185612d07565b9350612d78818560208601612d18565b612d8181612d42565b840191505092915050565b60006020820190508181036000830152612da68184612d53565b905092915050565b600073ffffffffffffffffffffffffffffffffffffffff82169050919050565b6000612dd982612dae565b9050919050565b612de981612dce565b8114612df457600080fd5b50565b600081359050612e0681612de0565b92915050565b6000819050919050565b612e1f81612e0c565b8114612e2a57600080fd5b50565b600081359050612e3c81612e16565b92915050565b60008060408385031215612e5957612e58612c3c565b5b6000612e6785828601612df7565b9250506020612e7885828601612e2d565b9150509250929050565b612e8b81612e0c565b82525050565b6000602082019050612ea66000830184612e82565b92915050565b600080600060608486031215612ec557612ec4612c3c565b5b6000612ed386828701612df7565b9350506020612ee486828701612df7565b9250506040612ef586828701612e2d565b9150509250925092565b6000819050919050565b612f1281612eff565b8114612f1d57600080fd5b50565b600081359050612f2f81612f09565b92915050565b600060208284031215612f4b57612f4a612c3c565b5b6000612f5984828501612f20565b91505092915050565b612f6b81612eff565b82525050565b6000602082019050612f866000830184612f62565b92915050565b612f9581612dce565b82525050565b6000602082019050612fb06000830184612f8c565b92915050565b60008060408385031215612fcd57612fcc612c3c565b5b6000612fdb85828601612f20565b9250506020612fec85828601612df7565b9150509250929050565b600060ff82169050919050565b61300c81612ff6565b82525050565b60006020820190506130276000830184613003565b92915050565b60006020828403121561304357613042612c3c565b5b600061305184828501612df7565b91505092915050565b61306381612ff6565b811461306e57600080fd5b50565b6000813590506130808161305a565b92915050565b600080600080600080600060e0888a0312156130a5576130a4612c3c565b5b60006130b38a828b01612df7565b97505060206130c48a828b01612df7565b96505060406130d58a828b01612e2d565b95505060606130e68a828b01612e2d565b94505060806130f78a828b01613071565b93505060a06131088a828b01612f20565b92505060c06131198a828b01612f20565b91505092959891949750929550565b6000806040838503121561313f5761313e612c3c565b5b600061314d85828601612df7565b925050602061315e85828601612df7565b9150509250929050565b7f4e487b7100000000000000000000000000000000000000000000000000000000600052602260045260246000fd5b600060028204905060018216806131af57607f821691505b6020821081036131c2576131c1613168565b5b50919050565b6000815190506131d781612e16565b92915050565b6000602082840312156131f3576131f2612c3c565b5b6000613201848285016131c8565b91505092915050565b7f4e487b7100000000000000000000000000000000000000000000000000000000600052601160045260246000fd5b600061324482612e0c565b915061324f83612e0c565b92508282039050818111156132675761326661320a565b5b92915050565b7f416363657373436f6e74726f6c3a2063616e206f6e6c792072656e6f756e636560008201527f20726f6c657320666f722073656c660000000000000000000000000000000000602082015250565b60006132c9602f83612d07565b91506132d48261326d565b604082019050919050565b600060208201905081810360008301526132f8816132bc565b9050919050565b600061330a82612e0c565b915061331583612e0c565b925082820190508082111561332d5761332c61320a565b5b92915050565b7f4d75737420686176652061646d696e20726f6c6520746f20706572666f726d2060008201527f7468697320616374696f6e2e0000000000000000000000000000000000000000602082015250565b600061338f602c83612d07565b915061339a82613333565b604082019050919050565b600060208201905081810360008301526133be81613382565b9050919050565b7f496e697469616c697a61626c653a20636f6e7472616374206973206e6f74206960008201527f6e697469616c697a696e67000000000000000000000000000000000000000000602082015250565b6000613421602b83612d07565b915061342c826133c5565b604082019050919050565b6000602082019050818103600083015261345081613414565b9050919050565b7f496e697469616c697a61626c653a20636f6e747261637420697320616c72656160008201527f647920696e697469616c697a6564000000000000000000000000000000000000602082015250565b60006134b3602e83612d07565b91506134be82613457565b604082019050919050565b600060208201905081810360008301526134e2816134a6565b9050919050565b6000819050919050565b6000819050919050565b600061351861351361350e846134e9565b6134f3565b612ff6565b9050919050565b613528816134fd565b82525050565b6000602082019050613543600083018461351f565b92915050565b7f45524332303a2064656372656173656420616c6c6f77616e63652062656c6f7760008201527f207a65726f000000000000000000000000000000000000000000000000000000602082015250565b60006135a5602583612d07565b91506135b082613549565b604082019050919050565b600060208201905081810360008301526135d481613598565b9050919050565b7f45524332305065726d69743a206578706972656420646561646c696e65000000600082015250565b6000613611601d83612d07565b915061361c826135db565b602082019050919050565b6000602082019050818103600083015261364081613604565b9050919050565b600060c08201905061365c6000830189612f62565b6136696020830188612f8c565b6136766040830187612f8c565b6136836060830186612e82565b6136906080830185612e82565b61369d60a0830184612e82565b979650505050505050565b7f45524332305065726d69743a20696e76616c6964207369676e61747572650000600082015250565b60006136de601e83612d07565b91506136e9826136a8565b602082019050919050565b6000602082019050818103600083015261370d816136d1565b9050919050565b600061371f82612e0c565b91507fffffffffffffffffffffffffffffffffffffffffffffffffffffffffffffffff82036137515761375061320a565b5b600182019050919050565b7f45524332303a20617070726f76652066726f6d20746865207a65726f2061646460008201527f7265737300000000000000000000000000000000000000000000000000000000602082015250565b60006137b8602483612d07565b91506137c38261375c565b604082019050919050565b600060208201905081810360008301526137e7816137ab565b9050919050565b7f45524332303a20617070726f766520746f20746865207a65726f20616464726560008201527f7373000000000000000000000000000000000000000000000000000000000000602082015250565b600061384a602283612d07565b9150613855826137ee565b604082019050919050565b600060208201905081810360008301526138798161383d565b9050919050565b7f45524332303a20696e73756666696369656e7420616c6c6f77616e6365000000600082015250565b60006138b6601d83612d07565b91506138c182613880565b602082019050919050565b600060208201905081810360008301526138e5816138a9565b9050919050565b7f45524332303a207472616e736665722066726f6d20746865207a65726f20616460008201527f6472657373000000000000000000000000000000000000000000000000000000602082015250565b6000613948602583612d07565b9150613953826138ec565b604082019050919050565b600060208201905081810360008301526139778161393b565b9050919050565b7f45524332303a207472616e7366657220746f20746865207a65726f206164647260008201527f6573730000000000000000000000000000000000000000000000000000000000602082015250565b60006139da602383612d07565b91506139e58261397e565b604082019050919050565b60006020820190508181036000830152613a09816139cd565b9050919050565b7f45524332303a207472616e7366657220616d6f756e742065786365656473206260008201527f616c616e63650000000000000000000000000000000000000000000000000000602082015250565b6000613a6c602683612d07565b9150613a7782613a10565b604082019050919050565b60006020820190508181036000830152613a9b81613a5f565b9050919050565b7f45524332303a206d696e7420746f20746865207a65726f206164647265737300600082015250565b6000613ad8601f83612d07565b9150613ae382613aa2565b602082019050919050565b60006020820190508181036000830152613b0781613acb565b9050919050565b7f45524332303a206275726e2066726f6d20746865207a65726f2061646472657360008201527f7300000000000000000000000000000000000000000000000000000000000000602082015250565b6000613b6a602183612d07565b9150613b7582613b0e565b604082019050919050565b60006020820190508181036000830152613b9981613b5d565b9050919050565b7f45524332303a206275726e20616d6f756e7420657863656564732062616c616e60008201527f6365000000000000000000000000000000000000000000000000000000000000602082015250565b6000613bfc602283612d07565b9150613c0782613ba0565b604082019050919050565b60006020820190508181036000830152613c2b81613bef565b9050919050565b600081905092915050565b7f416363657373436f6e74726f6c3a206163636f756e7420000000000000000000600082015250565b6000613c73601783613c32565b9150613c7e82613c3d565b601782019050919050565b6000613c9482612cfc565b613c9e8185613c32565b9350613cae818560208601612d18565b80840191505092915050565b7f206973206d697373696e6720726f6c6520000000000000000000000000000000600082015250565b6000613cf0601183613c32565b9150613cfb82613cba565b601182019050919050565b6000613d1182613c66565b9150613d1d8285613c89565b9150613d2882613ce3565b9150613d348284613c89565b91508190509392505050565b600060a082019050613d556000830188612f62565b613d626020830187612f62565b613d6f6040830186612f62565b613d7c6060830185612e82565b613d896080830184612f8c565b9695505050505050565b7f5061757361626c653a206e6f7420706175736564000000000000000000000000600082015250565b6000613dc9601483612d07565b9150613dd482613d93565b602082019050919050565b60006020820190508181036000830152613df881613dbc565b9050919050565b7f4e487b7100000000000000000000000000000000000000000000000000000000600052604160045260246000fd5b60008190508160005260206000209050919050565b60006020601f8301049050919050565b600082821b905092915050565b600060088302613e907fffffffffffffffffffffffffffffffffffffffffffffffffffffffffffffffff82613e53565b613e9a8683613e53565b95508019841693508086168417925050509392505050565b6000613ecd613ec8613ec384612e0c565b6134f3565b612e0c565b9050919050565b6000819050919050565b613ee783613eb2565b613efb613ef382613ed4565b848454613e60565b825550505050565b600090565b613f10613f03565b613f1b818484613ede565b505050565b5b81811015613f3f57613f34600082613f08565b600181019050613f21565b5050565b601f821115613f8457613f5581613e2e565b613f5e84613e43565b81016020851015613f6d578190505b613f81613f7985613e43565b830182613f20565b50505b505050565b600082821c905092915050565b6000613fa760001984600802613f89565b1980831691505092915050565b6000613fc08383613f96565b9150826002028217905092915050565b613fd982612cfc565b67ffffffffffffffff811115613ff257613ff1613dff565b5b613ffc8254613197565b614007828285613f43565b600060209050601f83116001811461403a5760008415614028578287015190505b6140328582613fb4565b86555061409a565b601f19841661404886613e2e565b60005b828110156140705784890151825560018201915060208501945060208101905061404b565b8683101561408d5784890151614089601f891682613f96565b8355505b6001600288020188555050505b505050505050565b7f5061757361626c653a2070617573656400000000000000000000000000000000600082015250565b60006140d8601083612d07565b91506140e3826140a2565b602082019050919050565b60006020820190508181036000830152614107816140cb565b9050919050565b7f1901000000000000000000000000000000000000000000000000000000000000600082015250565b6000614144600283613c32565b915061414f8261410e565b600282019050919050565b6000819050919050565b61417561417082612eff565b61415a565b82525050565b600061418682614137565b91506141928285614164565b6020820191506141a28284614164565b6020820191508190509392505050565b60006080820190506141c76000830187612f62565b6141d46020830186613003565b6141e16040830185612f62565b6141ee6060830184612f62565b95945050505050565b7f4e487b7100000000000000000000000000000000000000000000000000000000600052602160045260246000fd5b7f45434453413a20696e76616c6964207369676e61747572650000000000000000600082015250565b600061425c601883612d07565b915061426782614226565b602082019050919050565b6000602082019050818103600083015261428b8161424f565b9050919050565b7f45434453413a20696e76616c6964207369676e6174757265206c656e67746800600082015250565b60006142c8601f83612d07565b91506142d382614292565b602082019050919050565b600060208201905081810360008301526142f7816142bb565b9050919050565b7f45434453413a20696e76616c6964207369676e6174757265202773272076616c60008201527f7565000000000000000000000000000000000000000000000000000000000000602082015250565b600061435a602283612d07565b9150614365826142fe565b604082019050919050565b600060208201905081810360008301526143898161434d565b9050919050565b600061439b82612e0c565b91506143a683612e0c565b9250817fffffffffffffffffffffffffffffffffffffffffffffffffffffffffffffffff04831182151516156143df576143de61320a565b5b828202905092915050565b7f4e487b7100000000000000000000000000000000000000000000000000000000600052603260045260246000fd5b600061442482612e0c565b9150600082036144375761443661320a565b5b600182039050919050565b7f537472696e67733a20686578206c656e67746820696e73756666696369656e74600082015250565b6000614478602083612d07565b915061448382614442565b602082019050919050565b600060208201905081810360008301526144a78161446b565b905091905056fea264697066735822122091ed2a41e8d9d530ded9019f59005008e3a33e2c31e48b6b0335e9c5d13bb7c464736f6c63430008100033",
  "linkReferences": {},
  "deployedLinkReferences": {}
}