{
  "_format": "hh-sol-artifact-1",
  "contractName": "GlobalPauseOperation",
  "sourceName": "contracts/GlobalPauseOperation.sol",
  "abi": [
    {
      "inputs": [],
      "name": "BaseUpgradeablePausable__ZeroAddressError",
      "type": "error"
    },
    {
      "inputs": [],
      "name": "GlobalPauseOps__AccessRestricted",
      "type": "error"
    },
    {
      "inputs": [],
      "name": "GlobalPauseOps__InitializedEarlierError",
      "type": "error"
    },
    {
      "inputs": [],
      "name": "GlobalPauseOps__ZeroAddressInputError",
      "type": "error"
    },
    {
      "anonymous": false,
      "inputs": [
        {
          "indexed": false,
          "internalType": "uint8",
          "name": "version",
          "type": "uint8"
        }
      ],
      "name": "Initialized",
      "type": "event"
    },
    {
      "anonymous": false,
      "inputs": [
        {
          "indexed": false,
          "internalType": "address",
          "name": "moderatorAddress",
          "type": "address"
        }
      ],
      "name": "ModeratorAdded",
      "type": "event"
    },
    {
      "anonymous": false,
      "inputs": [
        {
          "indexed": false,
          "internalType": "address",
          "name": "moderatorAddress",
          "type": "address"
        }
      ],
      "name": "ModeratorRemoved",
      "type": "event"
    },
    {
      "anonymous": false,
      "inputs": [
        {
          "indexed": false,
          "internalType": "address",
          "name": "account",
          "type": "address"
        }
      ],
      "name": "Paused",
      "type": "event"
    },
    {
      "anonymous": false,
      "inputs": [
        {
          "indexed": false,
          "internalType": "address",
          "name": "account",
          "type": "address"
        }
      ],
      "name": "PausedOperation",
      "type": "event"
    },
    {
      "anonymous": false,
      "inputs": [
        {
          "indexed": true,
          "internalType": "bytes32",
          "name": "role",
          "type": "bytes32"
        },
        {
          "indexed": true,
          "internalType": "bytes32",
          "name": "previousAdminRole",
          "type": "bytes32"
        },
        {
          "indexed": true,
          "internalType": "bytes32",
          "name": "newAdminRole",
          "type": "bytes32"
        }
      ],
      "name": "RoleAdminChanged",
      "type": "event"
    },
    {
      "anonymous": false,
      "inputs": [
        {
          "indexed": true,
          "internalType": "bytes32",
          "name": "role",
          "type": "bytes32"
        },
        {
          "indexed": true,
          "internalType": "address",
          "name": "account",
          "type": "address"
        },
        {
          "indexed": true,
          "internalType": "address",
          "name": "sender",
          "type": "address"
        }
      ],
      "name": "RoleGranted",
      "type": "event"
    },
    {
      "anonymous": false,
      "inputs": [
        {
          "indexed": true,
          "internalType": "bytes32",
          "name": "role",
          "type": "bytes32"
        },
        {
          "indexed": true,
          "internalType": "address",
          "name": "account",
          "type": "address"
        },
        {
          "indexed": true,
          "internalType": "address",
          "name": "sender",
          "type": "address"
        }
      ],
      "name": "RoleRevoked",
      "type": "event"
    },
    {
      "anonymous": false,
      "inputs": [
        {
          "indexed": false,
          "internalType": "address",
          "name": "account",
          "type": "address"
        }
      ],
      "name": "Unpaused",
      "type": "event"
    },
    {
      "anonymous": false,
      "inputs": [
        {
          "indexed": false,
          "internalType": "address",
          "name": "account",
          "type": "address"
        }
      ],
      "name": "UnpausedOperation",
      "type": "event"
    },
    {
      "inputs": [],
      "name": "DEFAULT_ADMIN_ROLE",
      "outputs": [
        {
          "internalType": "bytes32",
          "name": "",
          "type": "bytes32"
        }
      ],
      "stateMutability": "view",
      "type": "function"
    },
    {
      "inputs": [
        {
          "internalType": "address",
          "name": "owner",
          "type": "address"
        }
      ],
      "name": "__BaseUpgradeablePausable_init",
      "outputs": [],
      "stateMutability": "nonpayable",
      "type": "function"
    },
    {
      "inputs": [],
      "name": "claimGovernance",
      "outputs": [
        {
          "internalType": "address",
          "name": "",
          "type": "address"
        }
      ],
      "stateMutability": "view",
      "type": "function"
    },
    {
      "inputs": [
        {
          "internalType": "bytes32",
          "name": "role",
          "type": "bytes32"
        }
      ],
      "name": "getRoleAdmin",
      "outputs": [
        {
          "internalType": "bytes32",
          "name": "",
          "type": "bytes32"
        }
      ],
      "stateMutability": "view",
      "type": "function"
    },
    {
      "inputs": [
        {
          "internalType": "address",
          "name": "moderatorAddress",
          "type": "address"
        }
      ],
      "name": "grantPauseRole",
      "outputs": [],
      "stateMutability": "nonpayable",
      "type": "function"
    },
    {
      "inputs": [
        {
          "internalType": "bytes32",
          "name": "role",
          "type": "bytes32"
        },
        {
          "internalType": "address",
          "name": "account",
          "type": "address"
        }
      ],
      "name": "grantRole",
      "outputs": [],
      "stateMutability": "nonpayable",
      "type": "function"
    },
    {
      "inputs": [
        {
          "internalType": "bytes32",
          "name": "role",
          "type": "bytes32"
        },
        {
          "internalType": "address",
          "name": "account",
          "type": "address"
        }
      ],
      "name": "hasRole",
      "outputs": [
        {
          "internalType": "bool",
          "name": "",
          "type": "bool"
        }
      ],
      "stateMutability": "view",
      "type": "function"
    },
    {
      "inputs": [
        {
          "internalType": "address",
          "name": "addressClaimGovernance",
          "type": "address"
        }
      ],
      "name": "init",
      "outputs": [],
      "stateMutability": "nonpayable",
      "type": "function"
    },
    {
      "inputs": [],
      "name": "initVersion",
      "outputs": [
        {
          "internalType": "uint256",
          "name": "",
          "type": "uint256"
        }
      ],
      "stateMutability": "view",
      "type": "function"
    },
    {
      "inputs": [],
      "name": "initialize",
      "outputs": [],
      "stateMutability": "nonpayable",
      "type": "function"
    },
    {
      "inputs": [],
      "name": "isAdmin",
      "outputs": [
        {
          "internalType": "bool",
          "name": "",
          "type": "bool"
        }
      ],
      "stateMutability": "view",
      "type": "function"
    },
    {
      "inputs": [],
      "name": "isModerator",
      "outputs": [
        {
          "internalType": "bool",
          "name": "",
          "type": "bool"
        }
      ],
      "stateMutability": "view",
      "type": "function"
    },
    {
      "inputs": [],
      "name": "isPaused",
      "outputs": [
        {
          "internalType": "bool",
          "name": "",
          "type": "bool"
        }
      ],
      "stateMutability": "view",
      "type": "function"
    },
    {
      "inputs": [],
      "name": "pauseOperation",
      "outputs": [
        {
          "internalType": "bool",
          "name": "",
          "type": "bool"
        }
      ],
      "stateMutability": "nonpayable",
      "type": "function"
    },
    {
      "inputs": [],
      "name": "paused",
      "outputs": [
        {
          "internalType": "bool",
          "name": "",
          "type": "bool"
        }
      ],
      "stateMutability": "view",
      "type": "function"
    },
    {
      "inputs": [
        {
          "internalType": "bytes32",
          "name": "role",
          "type": "bytes32"
        },
        {
          "internalType": "address",
          "name": "account",
          "type": "address"
        }
      ],
      "name": "renounceRole",
      "outputs": [],
      "stateMutability": "nonpayable",
      "type": "function"
    },
    {
      "inputs": [
        {
          "internalType": "address",
          "name": "moderatorAddress",
          "type": "address"
        }
      ],
      "name": "revokePauserRole",
      "outputs": [],
      "stateMutability": "nonpayable",
      "type": "function"
    },
    {
      "inputs": [
        {
          "internalType": "bytes32",
          "name": "role",
          "type": "bytes32"
        },
        {
          "internalType": "address",
          "name": "account",
          "type": "address"
        }
      ],
      "name": "revokeRole",
      "outputs": [],
      "stateMutability": "nonpayable",
      "type": "function"
    },
    {
      "inputs": [
        {
          "internalType": "bytes4",
          "name": "interfaceId",
          "type": "bytes4"
        }
      ],
      "name": "supportsInterface",
      "outputs": [
        {
          "internalType": "bool",
          "name": "",
          "type": "bool"
        }
      ],
      "stateMutability": "view",
      "type": "function"
    },
    {
      "inputs": [],
      "name": "unpauseOperation",
      "outputs": [
        {
          "internalType": "bool",
          "name": "",
          "type": "bool"
        }
      ],
      "stateMutability": "nonpayable",
      "type": "function"
    }
  ],
  "bytecode": "0x608060405234801561001057600080fd5b50611d7c806100206000396000f3fe608060405234801561001057600080fd5b506004361061012c5760003560e01c80638129fc1c116100ad578063b187bd2611610071578063b187bd261461030b578063b6db75a014610329578063c9d0702014610347578063d547741f14610365578063f865af08146103815761012c565b80638129fc1c1461027957806391d148541461028357806392b6a948146102b3578063a217fddf146102cf578063aeabaff3146102ed5761012c565b806338d38c97116100f457806338d38c97146101e557806339511e99146102035780635c975abb146102215780635d36b1901461023f5780636e810b1a1461025d5761012c565b806301ffc9a71461013157806319ab453c14610161578063248a9ca31461017d5780632f2ff15d146101ad57806336568abe146101c9575b600080fd5b61014b600480360381019061014691906114c0565b61039d565b6040516101589190611508565b60405180910390f35b61017b60048036038101906101769190611581565b610417565b005b610197600480360381019061019291906115e4565b61055b565b6040516101a49190611620565b60405180910390f35b6101c760048036038101906101c2919061163b565b61057b565b005b6101e360048036038101906101de919061163b565b61059c565b005b6101ed61061f565b6040516101fa9190611694565b60405180910390f35b61020b610625565b6040516102189190611508565b60405180910390f35b61022961069d565b6040516102369190611508565b60405180910390f35b6102476106b4565b60405161025491906116be565b60405180910390f35b61027760048036038101906102729190611581565b6106da565b005b6102816107fc565b005b61029d6004803603810190610298919061163b565b61095d565b6040516102aa9190611508565b60405180910390f35b6102cd60048036038101906102c89190611581565b6109c8565b005b6102d7610a5a565b6040516102e49190611620565b60405180910390f35b6102f5610a61565b6040516103029190611508565b60405180910390f35b610313610a80565b6040516103209190611508565b60405180910390f35b610331610a97565b60405161033e9190611508565b60405180910390f35b61034f610ab6565b60405161035c9190611508565b60405180910390f35b61037f600480360381019061037a919061163b565b610b2e565b005b61039b60048036038101906103969190611581565b610b4f565b005b60007f7965db0b000000000000000000000000000000000000000000000000000000007bffffffffffffffffffffffffffffffffffffffffffffffffffffffff1916827bffffffffffffffffffffffffffffffffffffffffffffffffffffffff19161480610410575061040f82610be1565b5b9050919050565b61041f610a97565b61045e576040517f08c379a00000000000000000000000000000000000000000000000000000000081526004016104559061175c565b60405180910390fd5b600060fc54111561049b576040517f4cbb305600000000000000000000000000000000000000000000000000000000815260040160405180910390fd5b600073ffffffffffffffffffffffffffffffffffffffff168173ffffffffffffffffffffffffffffffffffffffff1603610501576040517f4806cc9f00000000000000000000000000000000000000000000000000000000815260040160405180910390fd5b8060fd60006101000a81548173ffffffffffffffffffffffffffffffffffffffff021916908373ffffffffffffffffffffffffffffffffffffffff16021790555060fc60008154610551906117ab565b9190508190555050565b600060976000838152602001908152602001600020600101549050919050565b6105848261055b565b61058d81610c4b565b6105978383610c5f565b505050565b6105a4610d40565b73ffffffffffffffffffffffffffffffffffffffff168173ffffffffffffffffffffffffffffffffffffffff1614610611576040517f08c379a000000000000000000000000000000000000000000000000000000000815260040161060890611865565b60405180910390fd5b61061b8282610d48565b5050565b60fc5481565b600061062f610e2a565b600060fb60006101000a81548160ff0219169083151502179055507f800fbe4f45115bec6578674f3cdb3bc672a34ec27719b3259f8ee19044904bfc610673610d40565b60405161068091906116be565b60405180910390a160fb60009054906101000a900460ff16905090565b6000603360009054906101000a900460ff16905090565b60fd60009054906101000a900473ffffffffffffffffffffffffffffffffffffffff1681565b600060019054906101000a900460ff16610729576040517f08c379a0000000000000000000000000000000000000000000000000000000008152600401610720906118f7565b60405180910390fd5b600073ffffffffffffffffffffffffffffffffffffffff168173ffffffffffffffffffffffffffffffffffffffff160361078f576040517f5415139400000000000000000000000000000000000000000000000000000000815260040160405180910390fd5b610797610ede565b61079f610f37565b6107a7610f88565b6107b86107b2610fe1565b82610c5f565b6107c96107c3611009565b82610c5f565b6107e16107d4611009565b6107dc610fe1565b611031565b6107f96107ec610fe1565b6107f4610fe1565b611031565b50565b60008060019054906101000a900460ff1615905080801561082d5750600160008054906101000a900460ff1660ff16105b8061085a575061083c3061108d565b1580156108595750600160008054906101000a900460ff1660ff16145b5b610899576040517f08c379a000000000000000000000000000000000000000000000000000000000815260040161089090611989565b60405180910390fd5b60016000806101000a81548160ff021916908360ff16021790555080156108d6576001600060016101000a81548160ff0219169083151502179055505b600060fb60006101000a81548160ff0219169083151502179055506109016108fc610d40565b6106da565b801561095a5760008060016101000a81548160ff0219169083151502179055507f7f26b83ff96e1f2b6a682f133852f6798a09c465da95921460cefb3847402498600160405161095191906119fb565b60405180910390a15b50565b60006097600084815260200190815260200160002060000160008373ffffffffffffffffffffffffffffffffffffffff1673ffffffffffffffffffffffffffffffffffffffff16815260200190815260200160002060009054906101000a900460ff16905092915050565b6109d0610a97565b610a0f576040517f08c379a0000000000000000000000000000000000000000000000000000000008152600401610a069061175c565b60405180910390fd5b610a20610a1a611009565b82610c5f565b7fd378ad41c1a753fd1ba9ec0fcd7970526c175b68545b4a02d6d15e7606fe359681604051610a4f91906116be565b60405180910390a150565b6000801b81565b6000610a7b610a6e611009565b610a76610d40565b61095d565b905090565b600060fb60009054906101000a900460ff16905090565b6000610ab1610aa4610fe1565b610aac610d40565b61095d565b905090565b6000610ac0610e2a565b600160fb60006101000a81548160ff0219169083151502179055507fced598d6b2f70b0acf8f61670ecfc67f6a33a9615186db06b6f697da4236590c610b04610d40565b604051610b1191906116be565b60405180910390a160fb60009054906101000a900460ff16905090565b610b378261055b565b610b4081610c4b565b610b4a8383610d48565b505050565b610b57610a97565b610b96576040517f08c379a0000000000000000000000000000000000000000000000000000000008152600401610b8d9061175c565b60405180910390fd5b610ba7610ba1611009565b82610d48565b7f7a9f1e23d5426b34819d173153d59084cc3578d5a129b80bb27df683ac6b227881604051610bd691906116be565b60405180910390a150565b60007f01ffc9a7000000000000000000000000000000000000000000000000000000007bffffffffffffffffffffffffffffffffffffffffffffffffffffffff1916827bffffffffffffffffffffffffffffffffffffffffffffffffffffffff1916149050919050565b610c5c81610c57610d40565b6110b0565b50565b610c69828261095d565b610d3c5760016097600084815260200190815260200160002060000160008373ffffffffffffffffffffffffffffffffffffffff1673ffffffffffffffffffffffffffffffffffffffff16815260200190815260200160002060006101000a81548160ff021916908315150217905550610ce1610d40565b73ffffffffffffffffffffffffffffffffffffffff168173ffffffffffffffffffffffffffffffffffffffff16837f2f8788117e7eff1d82e926ec794901d17c78024a50270940304540a733656f0d60405160405180910390a45b5050565b600033905090565b610d52828261095d565b15610e265760006097600084815260200190815260200160002060000160008373ffffffffffffffffffffffffffffffffffffffff1673ffffffffffffffffffffffffffffffffffffffff16815260200190815260200160002060006101000a81548160ff021916908315150217905550610dcb610d40565b73ffffffffffffffffffffffffffffffffffffffff168173ffffffffffffffffffffffffffffffffffffffff16837ff6391f5c32d9c69d2a47ea670b442974b53935d1edc7fd64eb21e047a839171b60405160405180910390a45b5050565b610e32610a97565b158015610e445750610e42610a61565b155b8015610ea5575060fd60009054906101000a900473ffffffffffffffffffffffffffffffffffffffff1673ffffffffffffffffffffffffffffffffffffffff16610e8c610d40565b73ffffffffffffffffffffffffffffffffffffffff1614155b15610edc576040517f9145377600000000000000000000000000000000000000000000000000000000815260040160405180910390fd5b565b600060019054906101000a900460ff16610f2d576040517f08c379a0000000000000000000000000000000000000000000000000000000008152600401610f24906118f7565b60405180910390fd5b610f35611135565b565b600060019054906101000a900460ff16610f86576040517f08c379a0000000000000000000000000000000000000000000000000000000008152600401610f7d906118f7565b60405180910390fd5b565b600060019054906101000a900460ff16610fd7576040517f08c379a0000000000000000000000000000000000000000000000000000000008152600401610fce906118f7565b60405180910390fd5b610fdf6111a1565b565b60007fa49807205ce4d355092ef5a8a18f56e8913cf4a201fbe287825b095693c21775905090565b60007f65d7a28e3265b37a6474929f336521b332c1681b933f6cb9f3376673440d862a905090565b600061103c8361055b565b90508160976000858152602001908152602001600020600101819055508181847fbd79b86ffe0ab8e8776151514217cd7cacd52c909f66475c3af44e129f0b00ff60405160405180910390a4505050565b6000808273ffffffffffffffffffffffffffffffffffffffff163b119050919050565b6110ba828261095d565b611131576110c7816111fa565b6110d58360001c6020611227565b6040516020016110e6929190611b1f565b6040516020818303038152906040526040517f08c379a00000000000000000000000000000000000000000000000000000000081526004016111289190611ba3565b60405180910390fd5b5050565b600060019054906101000a900460ff16611184576040517f08c379a000000000000000000000000000000000000000000000000000000000815260040161117b906118f7565b60405180910390fd5b6000603360006101000a81548160ff021916908315150217905550565b600060019054906101000a900460ff166111f0576040517f08c379a00000000000000000000000000000000000000000000000000000000081526004016111e7906118f7565b60405180910390fd5b600160c981905550565b60606112208273ffffffffffffffffffffffffffffffffffffffff16601460ff16611227565b9050919050565b60606000600283600261123a9190611bc5565b6112449190611c1f565b67ffffffffffffffff81111561125d5761125c611c53565b5b6040519080825280601f01601f19166020018201604052801561128f5781602001600182028036833780820191505090505b5090507f3000000000000000000000000000000000000000000000000000000000000000816000815181106112c7576112c6611c82565b5b60200101907effffffffffffffffffffffffffffffffffffffffffffffffffffffffffffff1916908160001a9053507f78000000000000000000000000000000000000000000000000000000000000008160018151811061132b5761132a611c82565b5b60200101907effffffffffffffffffffffffffffffffffffffffffffffffffffffffffffff1916908160001a9053506000600184600261136b9190611bc5565b6113759190611c1f565b90505b6001811115611415577f3031323334353637383961626364656600000000000000000000000000000000600f8616601081106113b7576113b6611c82565b5b1a60f81b8282815181106113ce576113cd611c82565b5b60200101907effffffffffffffffffffffffffffffffffffffffffffffffffffffffffffff1916908160001a905350600485901c94508061140e90611cb1565b9050611378565b5060008414611459576040517f08c379a000000000000000000000000000000000000000000000000000000000815260040161145090611d26565b60405180910390fd5b8091505092915050565b600080fd5b60007fffffffff0000000000000000000000000000000000000000000000000000000082169050919050565b61149d81611468565b81146114a857600080fd5b50565b6000813590506114ba81611494565b92915050565b6000602082840312156114d6576114d5611463565b5b60006114e4848285016114ab565b91505092915050565b60008115159050919050565b611502816114ed565b82525050565b600060208201905061151d60008301846114f9565b92915050565b600073ffffffffffffffffffffffffffffffffffffffff82169050919050565b600061154e82611523565b9050919050565b61155e81611543565b811461156957600080fd5b50565b60008135905061157b81611555565b92915050565b60006020828403121561159757611596611463565b5b60006115a58482850161156c565b91505092915050565b6000819050919050565b6115c1816115ae565b81146115cc57600080fd5b50565b6000813590506115de816115b8565b92915050565b6000602082840312156115fa576115f9611463565b5b6000611608848285016115cf565b91505092915050565b61161a816115ae565b82525050565b60006020820190506116356000830184611611565b92915050565b6000806040838503121561165257611651611463565b5b6000611660858286016115cf565b92505060206116718582860161156c565b9150509250929050565b6000819050919050565b61168e8161167b565b82525050565b60006020820190506116a96000830184611685565b92915050565b6116b881611543565b82525050565b60006020820190506116d360008301846116af565b92915050565b600082825260208201905092915050565b7f4d75737420686176652061646d696e20726f6c6520746f20706572666f726d2060008201527f7468697320616374696f6e2e0000000000000000000000000000000000000000602082015250565b6000611746602c836116d9565b9150611751826116ea565b604082019050919050565b6000602082019050818103600083015261177581611739565b9050919050565b7f4e487b7100000000000000000000000000000000000000000000000000000000600052601160045260246000fd5b60006117b68261167b565b91507fffffffffffffffffffffffffffffffffffffffffffffffffffffffffffffffff82036117e8576117e761177c565b5b600182019050919050565b7f416363657373436f6e74726f6c3a2063616e206f6e6c792072656e6f756e636560008201527f20726f6c657320666f722073656c660000000000000000000000000000000000602082015250565b600061184f602f836116d9565b915061185a826117f3565b604082019050919050565b6000602082019050818103600083015261187e81611842565b9050919050565b7f496e697469616c697a61626c653a20636f6e7472616374206973206e6f74206960008201527f6e697469616c697a696e67000000000000000000000000000000000000000000602082015250565b60006118e1602b836116d9565b91506118ec82611885565b604082019050919050565b60006020820190508181036000830152611910816118d4565b9050919050565b7f496e697469616c697a61626c653a20636f6e747261637420697320616c72656160008201527f647920696e697469616c697a6564000000000000000000000000000000000000602082015250565b6000611973602e836116d9565b915061197e82611917565b604082019050919050565b600060208201905081810360008301526119a281611966565b9050919050565b6000819050919050565b600060ff82169050919050565b6000819050919050565b60006119e56119e06119db846119a9565b6119c0565b6119b3565b9050919050565b6119f5816119ca565b82525050565b6000602082019050611a1060008301846119ec565b92915050565b600081905092915050565b7f416363657373436f6e74726f6c3a206163636f756e7420000000000000000000600082015250565b6000611a57601783611a16565b9150611a6282611a21565b601782019050919050565b600081519050919050565b60005b83811015611a96578082015181840152602081019050611a7b565b60008484015250505050565b6000611aad82611a6d565b611ab78185611a16565b9350611ac7818560208601611a78565b80840191505092915050565b7f206973206d697373696e6720726f6c6520000000000000000000000000000000600082015250565b6000611b09601183611a16565b9150611b1482611ad3565b601182019050919050565b6000611b2a82611a4a565b9150611b368285611aa2565b9150611b4182611afc565b9150611b4d8284611aa2565b91508190509392505050565b6000601f19601f8301169050919050565b6000611b7582611a6d565b611b7f81856116d9565b9350611b8f818560208601611a78565b611b9881611b59565b840191505092915050565b60006020820190508181036000830152611bbd8184611b6a565b905092915050565b6000611bd08261167b565b9150611bdb8361167b565b9250817fffffffffffffffffffffffffffffffffffffffffffffffffffffffffffffffff0483118215151615611c1457611c1361177c565b5b828202905092915050565b6000611c2a8261167b565b9150611c358361167b565b9250828201905080821115611c4d57611c4c61177c565b5b92915050565b7f4e487b7100000000000000000000000000000000000000000000000000000000600052604160045260246000fd5b7f4e487b7100000000000000000000000000000000000000000000000000000000600052603260045260246000fd5b6000611cbc8261167b565b915060008203611ccf57611cce61177c565b5b600182039050919050565b7f537472696e67733a20686578206c656e67746820696e73756666696369656e74600082015250565b6000611d106020836116d9565b9150611d1b82611cda565b602082019050919050565b60006020820190508181036000830152611d3f81611d03565b905091905056fea2646970667358221220ff19317f73e1ed4d7bca2ab36da8cdde3bd0621d2b41351f30e82f2514b070c364736f6c63430008100033",
  "linkReferences": {},
  "deployedLinkReferences": {}
}