{
  "_format": "hh-sol-artifact-1",
  "contractName": "GlobalPauseOperation",
  "sourceName": "contracts/GlobalPauseOperation.sol",
  "abi": [
    {
      "inputs": [],
      "name": "BaseUpgradeablePausable__ZeroAddressError",
      "type": "error"
    },
    {
      "inputs": [],
      "name": "GlobalPauseOperation__ImmutableChangesError",
      "type": "error"
    },
    {
      "inputs": [],
      "name": "GlobalPauseOps__ZeroAddressInputError",
      "type": "error"
    },
    {
      "anonymous": false,
      "inputs": [
        {
          "indexed": false,
          "internalType": "uint8",
          "name": "version",
          "type": "uint8"
        }
      ],
      "name": "Initialized",
      "type": "event"
    },
    {
      "anonymous": false,
      "inputs": [
        {
          "indexed": false,
          "internalType": "address",
          "name": "account",
          "type": "address"
        }
      ],
      "name": "Paused",
      "type": "event"
    },
    {
      "anonymous": false,
      "inputs": [
        {
          "indexed": false,
          "internalType": "address",
          "name": "account",
          "type": "address"
        }
      ],
      "name": "PausedOperation",
      "type": "event"
    },
    {
      "anonymous": false,
      "inputs": [
        {
          "indexed": true,
          "internalType": "bytes32",
          "name": "role",
          "type": "bytes32"
        },
        {
          "indexed": true,
          "internalType": "bytes32",
          "name": "previousAdminRole",
          "type": "bytes32"
        },
        {
          "indexed": true,
          "internalType": "bytes32",
          "name": "newAdminRole",
          "type": "bytes32"
        }
      ],
      "name": "RoleAdminChanged",
      "type": "event"
    },
    {
      "anonymous": false,
      "inputs": [
        {
          "indexed": true,
          "internalType": "bytes32",
          "name": "role",
          "type": "bytes32"
        },
        {
          "indexed": true,
          "internalType": "address",
          "name": "account",
          "type": "address"
        },
        {
          "indexed": true,
          "internalType": "address",
          "name": "sender",
          "type": "address"
        }
      ],
      "name": "RoleGranted",
      "type": "event"
    },
    {
      "anonymous": false,
      "inputs": [
        {
          "indexed": true,
          "internalType": "bytes32",
          "name": "role",
          "type": "bytes32"
        },
        {
          "indexed": true,
          "internalType": "address",
          "name": "account",
          "type": "address"
        },
        {
          "indexed": true,
          "internalType": "address",
          "name": "sender",
          "type": "address"
        }
      ],
      "name": "RoleRevoked",
      "type": "event"
    },
    {
      "anonymous": false,
      "inputs": [
        {
          "indexed": false,
          "internalType": "address",
          "name": "account",
          "type": "address"
        }
      ],
      "name": "Unpaused",
      "type": "event"
    },
    {
      "anonymous": false,
      "inputs": [
        {
          "indexed": false,
          "internalType": "address",
          "name": "account",
          "type": "address"
        }
      ],
      "name": "UnpausedOperation",
      "type": "event"
    },
    {
      "inputs": [],
      "name": "DEFAULT_ADMIN_ROLE",
      "outputs": [
        {
          "internalType": "bytes32",
          "name": "",
          "type": "bytes32"
        }
      ],
      "stateMutability": "view",
      "type": "function"
    },
    {
      "inputs": [
        {
          "internalType": "address",
          "name": "owner",
          "type": "address"
        }
      ],
      "name": "__BaseUpgradeablePausable_init",
      "outputs": [],
      "stateMutability": "nonpayable",
      "type": "function"
    },
    {
      "inputs": [
        {
          "internalType": "bytes32",
          "name": "role",
          "type": "bytes32"
        }
      ],
      "name": "getRoleAdmin",
      "outputs": [
        {
          "internalType": "bytes32",
          "name": "",
          "type": "bytes32"
        }
      ],
      "stateMutability": "view",
      "type": "function"
    },
    {
      "inputs": [
        {
          "internalType": "bytes32",
          "name": "role",
          "type": "bytes32"
        },
        {
          "internalType": "address",
          "name": "account",
          "type": "address"
        }
      ],
      "name": "grantRole",
      "outputs": [],
      "stateMutability": "nonpayable",
      "type": "function"
    },
    {
      "inputs": [
        {
          "internalType": "bytes32",
          "name": "role",
          "type": "bytes32"
        },
        {
          "internalType": "address",
          "name": "account",
          "type": "address"
        }
      ],
      "name": "hasRole",
      "outputs": [
        {
          "internalType": "bool",
          "name": "",
          "type": "bool"
        }
      ],
      "stateMutability": "view",
      "type": "function"
    },
    {
      "inputs": [
        {
          "internalType": "address",
          "name": "claimGovernance",
          "type": "address"
        }
      ],
      "name": "init",
      "outputs": [],
      "stateMutability": "nonpayable",
      "type": "function"
    },
    {
      "inputs": [],
      "name": "initialize",
      "outputs": [],
      "stateMutability": "nonpayable",
      "type": "function"
    },
    {
      "inputs": [],
      "name": "isAdmin",
      "outputs": [
        {
          "internalType": "bool",
          "name": "",
          "type": "bool"
        }
      ],
      "stateMutability": "view",
      "type": "function"
    },
    {
      "inputs": [],
      "name": "isPaused",
      "outputs": [
        {
          "internalType": "bool",
          "name": "",
          "type": "bool"
        }
      ],
      "stateMutability": "view",
      "type": "function"
    },
    {
      "inputs": [],
      "name": "pauseOperation",
      "outputs": [
        {
          "internalType": "bool",
          "name": "",
          "type": "bool"
        }
      ],
      "stateMutability": "nonpayable",
      "type": "function"
    },
    {
      "inputs": [],
      "name": "paused",
      "outputs": [
        {
          "internalType": "bool",
          "name": "",
          "type": "bool"
        }
      ],
      "stateMutability": "view",
      "type": "function"
    },
    {
      "inputs": [
        {
          "internalType": "bytes32",
          "name": "role",
          "type": "bytes32"
        },
        {
          "internalType": "address",
          "name": "account",
          "type": "address"
        }
      ],
      "name": "renounceRole",
      "outputs": [],
      "stateMutability": "nonpayable",
      "type": "function"
    },
    {
      "inputs": [
        {
          "internalType": "bytes32",
          "name": "role",
          "type": "bytes32"
        },
        {
          "internalType": "address",
          "name": "account",
          "type": "address"
        }
      ],
      "name": "revokeRole",
      "outputs": [],
      "stateMutability": "nonpayable",
      "type": "function"
    },
    {
      "inputs": [
        {
          "internalType": "bytes4",
          "name": "interfaceId",
          "type": "bytes4"
        }
      ],
      "name": "supportsInterface",
      "outputs": [
        {
          "internalType": "bool",
          "name": "",
          "type": "bool"
        }
      ],
      "stateMutability": "view",
      "type": "function"
    },
    {
      "inputs": [],
      "name": "unpauseOperation",
      "outputs": [
        {
          "internalType": "bool",
          "name": "",
          "type": "bool"
        }
      ],
      "stateMutability": "nonpayable",
      "type": "function"
    }
  ],
  "bytecode": "0x608060405234801561001057600080fd5b50611b44806100206000396000f3fe608060405234801561001057600080fd5b50600436106100f55760003560e01c80636e810b1a11610097578063b187bd2611610066578063b187bd261461025e578063b6db75a01461027c578063c9d070201461029a578063d547741f146102b8576100f5565b80636e810b1a146101ea5780638129fc1c1461020657806391d1485414610210578063a217fddf14610240576100f5565b80632f2ff15d116100d35780632f2ff15d1461017657806336568abe1461019257806339511e99146101ae5780635c975abb146101cc576100f5565b806301ffc9a7146100fa57806319ab453c1461012a578063248a9ca314610146575b600080fd5b610114600480360381019061010f91906112b2565b6102d4565b60405161012191906112fa565b60405180910390f35b610144600480360381019061013f9190611373565b61034e565b005b610160600480360381019061015b91906113d6565b610492565b60405161016d9190611412565b60405180910390f35b610190600480360381019061018b919061142d565b6104b2565b005b6101ac60048036038101906101a7919061142d565b6104d3565b005b6101b6610556565b6040516101c391906112fa565b60405180910390f35b6101d461063d565b6040516101e191906112fa565b60405180910390f35b61020460048036038101906101ff9190611373565b610654565b005b61020e610776565b005b61022a6004803603810190610225919061142d565b6108d7565b60405161023791906112fa565b60405180910390f35b610248610942565b6040516102559190611412565b60405180910390f35b610266610949565b60405161027391906112fa565b60405180910390f35b610284610960565b60405161029191906112fa565b60405180910390f35b6102a261097f565b6040516102af91906112fa565b60405180910390f35b6102d260048036038101906102cd919061142d565b610a66565b005b60007f7965db0b000000000000000000000000000000000000000000000000000000007bffffffffffffffffffffffffffffffffffffffffffffffffffffffff1916827bffffffffffffffffffffffffffffffffffffffffffffffffffffffff19161480610347575061034682610a87565b5b9050919050565b610356610960565b610395576040517f08c379a000000000000000000000000000000000000000000000000000000000815260040161038c906114f0565b60405180910390fd5b600060fc5411156103d2576040517f0dfbbf3800000000000000000000000000000000000000000000000000000000815260040160405180910390fd5b600073ffffffffffffffffffffffffffffffffffffffff168173ffffffffffffffffffffffffffffffffffffffff1603610438576040517f4806cc9f00000000000000000000000000000000000000000000000000000000815260040160405180910390fd5b8060fd60006101000a81548173ffffffffffffffffffffffffffffffffffffffff021916908373ffffffffffffffffffffffffffffffffffffffff16021790555060fc6000815461048890611549565b9190508190555050565b600060976000838152602001908152602001600020600101549050919050565b6104bb82610492565b6104c481610af1565b6104ce8383610b05565b505050565b6104db610be6565b73ffffffffffffffffffffffffffffffffffffffff168173ffffffffffffffffffffffffffffffffffffffff1614610548576040517f08c379a000000000000000000000000000000000000000000000000000000000815260040161053f90611603565b60405180910390fd5b6105528282610bee565b5050565b600060011515610564610960565b151514806105c6575060fd60009054906101000a900473ffffffffffffffffffffffffffffffffffffffff1673ffffffffffffffffffffffffffffffffffffffff166105ae610be6565b73ffffffffffffffffffffffffffffffffffffffff16145b6105cf57600080fd5b600060fb60006101000a81548160ff0219169083151502179055507f800fbe4f45115bec6578674f3cdb3bc672a34ec27719b3259f8ee19044904bfc610613610be6565b6040516106209190611632565b60405180910390a160fb60009054906101000a900460ff16905090565b6000603360009054906101000a900460ff16905090565b600060019054906101000a900460ff166106a3576040517f08c379a000000000000000000000000000000000000000000000000000000000815260040161069a906116bf565b60405180910390fd5b600073ffffffffffffffffffffffffffffffffffffffff168173ffffffffffffffffffffffffffffffffffffffff1603610709576040517f5415139400000000000000000000000000000000000000000000000000000000815260040160405180910390fd5b610711610cd0565b610719610d29565b610721610d7a565b61073261072c610dd3565b82610b05565b61074361073d610dfb565b82610b05565b61075b61074e610dfb565b610756610dd3565b610e23565b610773610766610dd3565b61076e610dd3565b610e23565b50565b60008060019054906101000a900460ff161590508080156107a75750600160008054906101000a900460ff1660ff16105b806107d457506107b630610e7f565b1580156107d35750600160008054906101000a900460ff1660ff16145b5b610813576040517f08c379a000000000000000000000000000000000000000000000000000000000815260040161080a90611751565b60405180910390fd5b60016000806101000a81548160ff021916908360ff1602179055508015610850576001600060016101000a81548160ff0219169083151502179055505b600060fb60006101000a81548160ff02191690831515021790555061087b610876610be6565b610654565b80156108d45760008060016101000a81548160ff0219169083151502179055507f7f26b83ff96e1f2b6a682f133852f6798a09c465da95921460cefb384740249860016040516108cb91906117c3565b60405180910390a15b50565b60006097600084815260200190815260200160002060000160008373ffffffffffffffffffffffffffffffffffffffff1673ffffffffffffffffffffffffffffffffffffffff16815260200190815260200160002060009054906101000a900460ff16905092915050565b6000801b81565b600060fb60009054906101000a900460ff16905090565b600061097a61096d610dd3565b610975610be6565b6108d7565b905090565b60006001151561098d610960565b151514806109ef575060fd60009054906101000a900473ffffffffffffffffffffffffffffffffffffffff1673ffffffffffffffffffffffffffffffffffffffff166109d7610be6565b73ffffffffffffffffffffffffffffffffffffffff16145b6109f857600080fd5b600160fb60006101000a81548160ff0219169083151502179055507fced598d6b2f70b0acf8f61670ecfc67f6a33a9615186db06b6f697da4236590c610a3c610be6565b604051610a499190611632565b60405180910390a160fb60009054906101000a900460ff16905090565b610a6f82610492565b610a7881610af1565b610a828383610bee565b505050565b60007f01ffc9a7000000000000000000000000000000000000000000000000000000007bffffffffffffffffffffffffffffffffffffffffffffffffffffffff1916827bffffffffffffffffffffffffffffffffffffffffffffffffffffffff1916149050919050565b610b0281610afd610be6565b610ea2565b50565b610b0f82826108d7565b610be25760016097600084815260200190815260200160002060000160008373ffffffffffffffffffffffffffffffffffffffff1673ffffffffffffffffffffffffffffffffffffffff16815260200190815260200160002060006101000a81548160ff021916908315150217905550610b87610be6565b73ffffffffffffffffffffffffffffffffffffffff168173ffffffffffffffffffffffffffffffffffffffff16837f2f8788117e7eff1d82e926ec794901d17c78024a50270940304540a733656f0d60405160405180910390a45b5050565b600033905090565b610bf882826108d7565b15610ccc5760006097600084815260200190815260200160002060000160008373ffffffffffffffffffffffffffffffffffffffff1673ffffffffffffffffffffffffffffffffffffffff16815260200190815260200160002060006101000a81548160ff021916908315150217905550610c71610be6565b73ffffffffffffffffffffffffffffffffffffffff168173ffffffffffffffffffffffffffffffffffffffff16837ff6391f5c32d9c69d2a47ea670b442974b53935d1edc7fd64eb21e047a839171b60405160405180910390a45b5050565b600060019054906101000a900460ff16610d1f576040517f08c379a0000000000000000000000000000000000000000000000000000000008152600401610d16906116bf565b60405180910390fd5b610d27610f27565b565b600060019054906101000a900460ff16610d78576040517f08c379a0000000000000000000000000000000000000000000000000000000008152600401610d6f906116bf565b60405180910390fd5b565b600060019054906101000a900460ff16610dc9576040517f08c379a0000000000000000000000000000000000000000000000000000000008152600401610dc0906116bf565b60405180910390fd5b610dd1610f93565b565b60007fa49807205ce4d355092ef5a8a18f56e8913cf4a201fbe287825b095693c21775905090565b60007f65d7a28e3265b37a6474929f336521b332c1681b933f6cb9f3376673440d862a905090565b6000610e2e83610492565b90508160976000858152602001908152602001600020600101819055508181847fbd79b86ffe0ab8e8776151514217cd7cacd52c909f66475c3af44e129f0b00ff60405160405180910390a4505050565b6000808273ffffffffffffffffffffffffffffffffffffffff163b119050919050565b610eac82826108d7565b610f2357610eb981610fec565b610ec78360001c6020611019565b604051602001610ed89291906118e7565b6040516020818303038152906040526040517f08c379a0000000000000000000000000000000000000000000000000000000008152600401610f1a919061196b565b60405180910390fd5b5050565b600060019054906101000a900460ff16610f76576040517f08c379a0000000000000000000000000000000000000000000000000000000008152600401610f6d906116bf565b60405180910390fd5b6000603360006101000a81548160ff021916908315150217905550565b600060019054906101000a900460ff16610fe2576040517f08c379a0000000000000000000000000000000000000000000000000000000008152600401610fd9906116bf565b60405180910390fd5b600160c981905550565b60606110128273ffffffffffffffffffffffffffffffffffffffff16601460ff16611019565b9050919050565b60606000600283600261102c919061198d565b61103691906119e7565b67ffffffffffffffff81111561104f5761104e611a1b565b5b6040519080825280601f01601f1916602001820160405280156110815781602001600182028036833780820191505090505b5090507f3000000000000000000000000000000000000000000000000000000000000000816000815181106110b9576110b8611a4a565b5b60200101907effffffffffffffffffffffffffffffffffffffffffffffffffffffffffffff1916908160001a9053507f78000000000000000000000000000000000000000000000000000000000000008160018151811061111d5761111c611a4a565b5b60200101907effffffffffffffffffffffffffffffffffffffffffffffffffffffffffffff1916908160001a9053506000600184600261115d919061198d565b61116791906119e7565b90505b6001811115611207577f3031323334353637383961626364656600000000000000000000000000000000600f8616601081106111a9576111a8611a4a565b5b1a60f81b8282815181106111c0576111bf611a4a565b5b60200101907effffffffffffffffffffffffffffffffffffffffffffffffffffffffffffff1916908160001a905350600485901c94508061120090611a79565b905061116a565b506000841461124b576040517f08c379a000000000000000000000000000000000000000000000000000000000815260040161124290611aee565b60405180910390fd5b8091505092915050565b600080fd5b60007fffffffff0000000000000000000000000000000000000000000000000000000082169050919050565b61128f8161125a565b811461129a57600080fd5b50565b6000813590506112ac81611286565b92915050565b6000602082840312156112c8576112c7611255565b5b60006112d68482850161129d565b91505092915050565b60008115159050919050565b6112f4816112df565b82525050565b600060208201905061130f60008301846112eb565b92915050565b600073ffffffffffffffffffffffffffffffffffffffff82169050919050565b600061134082611315565b9050919050565b61135081611335565b811461135b57600080fd5b50565b60008135905061136d81611347565b92915050565b60006020828403121561138957611388611255565b5b60006113978482850161135e565b91505092915050565b6000819050919050565b6113b3816113a0565b81146113be57600080fd5b50565b6000813590506113d0816113aa565b92915050565b6000602082840312156113ec576113eb611255565b5b60006113fa848285016113c1565b91505092915050565b61140c816113a0565b82525050565b60006020820190506114276000830184611403565b92915050565b6000806040838503121561144457611443611255565b5b6000611452858286016113c1565b92505060206114638582860161135e565b9150509250929050565b600082825260208201905092915050565b7f4d75737420686176652061646d696e20726f6c6520746f20706572666f726d2060008201527f7468697320616374696f6e2e0000000000000000000000000000000000000000602082015250565b60006114da602c8361146d565b91506114e58261147e565b604082019050919050565b60006020820190508181036000830152611509816114cd565b9050919050565b7f4e487b7100000000000000000000000000000000000000000000000000000000600052601160045260246000fd5b6000819050919050565b60006115548261153f565b91507fffffffffffffffffffffffffffffffffffffffffffffffffffffffffffffffff820361158657611585611510565b5b600182019050919050565b7f416363657373436f6e74726f6c3a2063616e206f6e6c792072656e6f756e636560008201527f20726f6c657320666f722073656c660000000000000000000000000000000000602082015250565b60006115ed602f8361146d565b91506115f882611591565b604082019050919050565b6000602082019050818103600083015261161c816115e0565b9050919050565b61162c81611335565b82525050565b60006020820190506116476000830184611623565b92915050565b7f496e697469616c697a61626c653a20636f6e7472616374206973206e6f74206960008201527f6e697469616c697a696e67000000000000000000000000000000000000000000602082015250565b60006116a9602b8361146d565b91506116b48261164d565b604082019050919050565b600060208201905081810360008301526116d88161169c565b9050919050565b7f496e697469616c697a61626c653a20636f6e747261637420697320616c72656160008201527f647920696e697469616c697a6564000000000000000000000000000000000000602082015250565b600061173b602e8361146d565b9150611746826116df565b604082019050919050565b6000602082019050818103600083015261176a8161172e565b9050919050565b6000819050919050565b600060ff82169050919050565b6000819050919050565b60006117ad6117a86117a384611771565b611788565b61177b565b9050919050565b6117bd81611792565b82525050565b60006020820190506117d860008301846117b4565b92915050565b600081905092915050565b7f416363657373436f6e74726f6c3a206163636f756e7420000000000000000000600082015250565b600061181f6017836117de565b915061182a826117e9565b601782019050919050565b600081519050919050565b60005b8381101561185e578082015181840152602081019050611843565b60008484015250505050565b600061187582611835565b61187f81856117de565b935061188f818560208601611840565b80840191505092915050565b7f206973206d697373696e6720726f6c6520000000000000000000000000000000600082015250565b60006118d16011836117de565b91506118dc8261189b565b601182019050919050565b60006118f282611812565b91506118fe828561186a565b9150611909826118c4565b9150611915828461186a565b91508190509392505050565b6000601f19601f8301169050919050565b600061193d82611835565b611947818561146d565b9350611957818560208601611840565b61196081611921565b840191505092915050565b600060208201905081810360008301526119858184611932565b905092915050565b60006119988261153f565b91506119a38361153f565b9250817fffffffffffffffffffffffffffffffffffffffffffffffffffffffffffffffff04831182151516156119dc576119db611510565b5b828202905092915050565b60006119f28261153f565b91506119fd8361153f565b9250828201905080821115611a1557611a14611510565b5b92915050565b7f4e487b7100000000000000000000000000000000000000000000000000000000600052604160045260246000fd5b7f4e487b7100000000000000000000000000000000000000000000000000000000600052603260045260246000fd5b6000611a848261153f565b915060008203611a9757611a96611510565b5b600182039050919050565b7f537472696e67733a20686578206c656e67746820696e73756666696369656e74600082015250565b6000611ad860208361146d565b9150611ae382611aa2565b602082019050919050565b60006020820190508181036000830152611b0781611acb565b905091905056fea26469706673582212207b790942055d64bd6e908092813ad8dab0574f171ba52ae37e441a6f2ca789dd64736f6c63430008100033",
  "linkReferences": {},
  "deployedLinkReferences": {}
}