{
  "_format": "hh-sol-artifact-1",
  "contractName": "MockAAVEV3Insurance",
  "sourceName": "contracts/core/zeroPremium/SmartContractInsurance/AAVE/MockAAVEV3Insurance.sol",
  "abi": [
    {
      "inputs": [],
      "name": "AAVEV3Insurance_ZP__TransactionFailedError",
      "type": "error"
    },
    {
      "inputs": [
        {
          "internalType": "uint256",
          "name": "errorLineNumber",
          "type": "uint256"
        }
      ],
      "name": "AAVE_ZP__ImmutableChangesError",
      "type": "error"
    },
    {
      "inputs": [
        {
          "internalType": "uint256",
          "name": "errorLineNumber",
          "type": "uint256"
        }
      ],
      "name": "AAVE_ZP__LowAmountError",
      "type": "error"
    },
    {
      "inputs": [
        {
          "internalType": "uint256",
          "name": "errorLineNumber",
          "type": "uint256"
        }
      ],
      "name": "AAVE_ZP__LowSupplyAmountError",
      "type": "error"
    },
    {
      "inputs": [
        {
          "internalType": "uint256",
          "name": "errorLineNumber",
          "type": "uint256"
        }
      ],
      "name": "AAVE_ZP__TransactionFailedError",
      "type": "error"
    },
    {
      "inputs": [
        {
          "internalType": "uint256",
          "name": "errorLineNumber",
          "type": "uint256"
        }
      ],
      "name": "AAVE_ZP__WrongInfoEnteredError",
      "type": "error"
    },
    {
      "inputs": [],
      "name": "BaseUpgradeablePausable__ZeroAddressError",
      "type": "error"
    },
    {
      "anonymous": false,
      "inputs": [
        {
          "indexed": false,
          "internalType": "uint8",
          "name": "version",
          "type": "uint8"
        }
      ],
      "name": "Initialized",
      "type": "event"
    },
    {
      "anonymous": false,
      "inputs": [
        {
          "indexed": false,
          "internalType": "address",
          "name": "account",
          "type": "address"
        }
      ],
      "name": "Paused",
      "type": "event"
    },
    {
      "anonymous": false,
      "inputs": [
        {
          "indexed": true,
          "internalType": "bytes32",
          "name": "role",
          "type": "bytes32"
        },
        {
          "indexed": true,
          "internalType": "bytes32",
          "name": "previousAdminRole",
          "type": "bytes32"
        },
        {
          "indexed": true,
          "internalType": "bytes32",
          "name": "newAdminRole",
          "type": "bytes32"
        }
      ],
      "name": "RoleAdminChanged",
      "type": "event"
    },
    {
      "anonymous": false,
      "inputs": [
        {
          "indexed": true,
          "internalType": "bytes32",
          "name": "role",
          "type": "bytes32"
        },
        {
          "indexed": true,
          "internalType": "address",
          "name": "account",
          "type": "address"
        },
        {
          "indexed": true,
          "internalType": "address",
          "name": "sender",
          "type": "address"
        }
      ],
      "name": "RoleGranted",
      "type": "event"
    },
    {
      "anonymous": false,
      "inputs": [
        {
          "indexed": true,
          "internalType": "bytes32",
          "name": "role",
          "type": "bytes32"
        },
        {
          "indexed": true,
          "internalType": "address",
          "name": "account",
          "type": "address"
        },
        {
          "indexed": true,
          "internalType": "address",
          "name": "sender",
          "type": "address"
        }
      ],
      "name": "RoleRevoked",
      "type": "event"
    },
    {
      "anonymous": false,
      "inputs": [
        {
          "indexed": true,
          "internalType": "address",
          "name": "userAddress",
          "type": "address"
        },
        {
          "indexed": true,
          "internalType": "address",
          "name": "tokenAddress",
          "type": "address"
        },
        {
          "indexed": true,
          "internalType": "uint256",
          "name": "amount",
          "type": "uint256"
        }
      ],
      "name": "SuppliedToken",
      "type": "event"
    },
    {
      "anonymous": false,
      "inputs": [
        {
          "indexed": false,
          "internalType": "address",
          "name": "account",
          "type": "address"
        }
      ],
      "name": "Unpaused",
      "type": "event"
    },
    {
      "anonymous": false,
      "inputs": [
        {
          "indexed": true,
          "internalType": "address",
          "name": "userAddress",
          "type": "address"
        },
        {
          "indexed": true,
          "internalType": "address",
          "name": "tokenAddress",
          "type": "address"
        },
        {
          "indexed": true,
          "internalType": "uint256",
          "name": "amount",
          "type": "uint256"
        }
      ],
      "name": "WithdrawnToken",
      "type": "event"
    },
    {
      "inputs": [],
      "name": "DEFAULT_ADMIN_ROLE",
      "outputs": [
        {
          "internalType": "bytes32",
          "name": "",
          "type": "bytes32"
        }
      ],
      "stateMutability": "view",
      "type": "function"
    },
    {
      "inputs": [
        {
          "internalType": "address",
          "name": "owner",
          "type": "address"
        }
      ],
      "name": "__BaseUpgradeablePausable_init",
      "outputs": [],
      "stateMutability": "nonpayable",
      "type": "function"
    },
    {
      "inputs": [
        {
          "internalType": "address",
          "name": "rewardTokenAddress",
          "type": "address"
        }
      ],
      "name": "calculateUserBalance",
      "outputs": [
        {
          "internalType": "uint256",
          "name": "",
          "type": "uint256"
        }
      ],
      "stateMutability": "view",
      "type": "function"
    },
    {
      "inputs": [
        {
          "internalType": "bytes32",
          "name": "role",
          "type": "bytes32"
        }
      ],
      "name": "getRoleAdmin",
      "outputs": [
        {
          "internalType": "bytes32",
          "name": "",
          "type": "bytes32"
        }
      ],
      "stateMutability": "view",
      "type": "function"
    },
    {
      "inputs": [
        {
          "internalType": "bytes32",
          "name": "role",
          "type": "bytes32"
        },
        {
          "internalType": "address",
          "name": "account",
          "type": "address"
        }
      ],
      "name": "grantRole",
      "outputs": [],
      "stateMutability": "nonpayable",
      "type": "function"
    },
    {
      "inputs": [
        {
          "internalType": "bytes32",
          "name": "role",
          "type": "bytes32"
        },
        {
          "internalType": "address",
          "name": "account",
          "type": "address"
        }
      ],
      "name": "hasRole",
      "outputs": [
        {
          "internalType": "bool",
          "name": "",
          "type": "bool"
        }
      ],
      "stateMutability": "view",
      "type": "function"
    },
    {
      "inputs": [
        {
          "internalType": "address",
          "name": "_lendingAddress",
          "type": "address"
        },
        {
          "internalType": "address",
          "name": "_controllerAddress",
          "type": "address"
        },
        {
          "internalType": "string",
          "name": "protocolName",
          "type": "string"
        },
        {
          "internalType": "address",
          "name": "deployedAddress",
          "type": "address"
        },
        {
          "internalType": "uint256",
          "name": "protocolID",
          "type": "uint256"
        }
      ],
      "name": "init",
      "outputs": [],
      "stateMutability": "nonpayable",
      "type": "function"
    },
    {
      "inputs": [
        {
          "internalType": "address",
          "name": "pauseOperationAddress",
          "type": "address"
        }
      ],
      "name": "initialize",
      "outputs": [],
      "stateMutability": "nonpayable",
      "type": "function"
    },
    {
      "inputs": [],
      "name": "isAdmin",
      "outputs": [
        {
          "internalType": "bool",
          "name": "",
          "type": "bool"
        }
      ],
      "stateMutability": "view",
      "type": "function"
    },
    {
      "inputs": [
        {
          "internalType": "address[]",
          "name": "tokenAddresses",
          "type": "address[]"
        },
        {
          "internalType": "address[]",
          "name": "rewardTokenAddresses",
          "type": "address[]"
        },
        {
          "internalType": "address",
          "name": "claimSettlementAddress",
          "type": "address"
        },
        {
          "internalType": "uint256",
          "name": "protocolRiskCategory",
          "type": "uint256"
        },
        {
          "internalType": "uint256",
          "name": "liquidationPercent",
          "type": "uint256"
        }
      ],
      "name": "liquidateTokens",
      "outputs": [],
      "stateMutability": "nonpayable",
      "type": "function"
    },
    {
      "inputs": [
        {
          "internalType": "address",
          "name": "tokenAddress",
          "type": "address"
        },
        {
          "internalType": "uint256",
          "name": "amount",
          "type": "uint256"
        }
      ],
      "name": "mintERC20Tokens",
      "outputs": [],
      "stateMutability": "nonpayable",
      "type": "function"
    },
    {
      "inputs": [],
      "name": "paused",
      "outputs": [
        {
          "internalType": "bool",
          "name": "",
          "type": "bool"
        }
      ],
      "stateMutability": "view",
      "type": "function"
    },
    {
      "inputs": [
        {
          "internalType": "bytes32",
          "name": "role",
          "type": "bytes32"
        },
        {
          "internalType": "address",
          "name": "account",
          "type": "address"
        }
      ],
      "name": "renounceRole",
      "outputs": [],
      "stateMutability": "nonpayable",
      "type": "function"
    },
    {
      "inputs": [
        {
          "internalType": "bytes32",
          "name": "role",
          "type": "bytes32"
        },
        {
          "internalType": "address",
          "name": "account",
          "type": "address"
        }
      ],
      "name": "revokeRole",
      "outputs": [],
      "stateMutability": "nonpayable",
      "type": "function"
    },
    {
      "inputs": [
        {
          "internalType": "address",
          "name": "tokenAddress",
          "type": "address"
        },
        {
          "internalType": "address",
          "name": "rewardTokenAddress",
          "type": "address"
        },
        {
          "internalType": "uint256",
          "name": "amount",
          "type": "uint256"
        },
        {
          "internalType": "uint256",
          "name": "deadline",
          "type": "uint256"
        },
        {
          "internalType": "uint8",
          "name": "v",
          "type": "uint8"
        },
        {
          "internalType": "bytes32",
          "name": "r",
          "type": "bytes32"
        },
        {
          "internalType": "bytes32",
          "name": "s",
          "type": "bytes32"
        }
      ],
      "name": "supplyToken",
      "outputs": [
        {
          "internalType": "bool",
          "name": "",
          "type": "bool"
        }
      ],
      "stateMutability": "nonpayable",
      "type": "function"
    },
    {
      "inputs": [
        {
          "internalType": "bytes4",
          "name": "interfaceId",
          "type": "bytes4"
        }
      ],
      "name": "supportsInterface",
      "outputs": [
        {
          "internalType": "bool",
          "name": "",
          "type": "bool"
        }
      ],
      "stateMutability": "view",
      "type": "function"
    },
    {
      "inputs": [
        {
          "internalType": "address",
          "name": "tokenAddress",
          "type": "address"
        },
        {
          "internalType": "address",
          "name": "rewardTokenAddress",
          "type": "address"
        },
        {
          "internalType": "uint256",
          "name": "amount",
          "type": "uint256"
        }
      ],
      "name": "withdrawToken",
      "outputs": [
        {
          "internalType": "bool",
          "name": "",
          "type": "bool"
        }
      ],
      "stateMutability": "nonpayable",
      "type": "function"
    }
  ],
  "bytecode": "0x608060405234801561001057600080fd5b50614a4d806100206000396000f3fe608060405234801561001057600080fd5b506004361061010b5760003560e01c8063699bf6fc116100a2578063a217fddf11610071578063a217fddf146102c6578063b6db75a0146102e4578063c4d66de814610302578063c72fea591461031e578063d547741f1461034e5761010b565b8063699bf6fc1461022e5780636e810b1a1461024a5780636f6321141461026657806391d14854146102965761010b565b80633449c499116100de5780633449c499146101bc57806336568abe146101d857806344344735146101f45780635c975abb146102105761010b565b806301e336671461011057806301ffc9a714610140578063248a9ca3146101705780632f2ff15d146101a0575b600080fd5b61012a60048036038101906101259190613472565b61036a565b60405161013791906134e0565b60405180910390f35b61015a60048036038101906101559190613553565b610aa9565b60405161016791906134e0565b60405180910390f35b61018a600480360381019061018591906135b6565b610b23565b60405161019791906135f2565b60405180910390f35b6101ba60048036038101906101b5919061360d565b610b43565b005b6101d660048036038101906101d19190613793565b610b64565b005b6101f260048036038101906101ed919061360d565b610e46565b005b61020e6004803603810190610209919061382a565b610ec9565b005b610218610f4c565b60405161022591906134e0565b60405180910390f35b61024860048036038101906102439190613932565b610f63565b005b610264600480360381019061025f91906139e5565b6113d4565b005b610280600480360381019061027b9190613a4b565b6114f6565b60405161028d91906134e0565b60405180910390f35b6102b060048036038101906102ab919061360d565b611abf565b6040516102bd91906134e0565b60405180910390f35b6102ce611b2a565b6040516102db91906135f2565b60405180910390f35b6102ec611b31565b6040516102f991906134e0565b60405180910390f35b61031c600480360381019061031791906139e5565b611b50565b005b610338600480360381019061033391906139e5565b611cd9565b6040516103459190613afc565b60405180910390f35b6103686004803603810190610363919061360d565b6122c4565b005b600060011515610378610f4c565b15151415801561041e57506001151561010060009054906101000a900473ffffffffffffffffffffffffffffffffffffffff1673ffffffffffffffffffffffffffffffffffffffff1663b187bd266040518163ffffffff1660e01b8152600401602060405180830381865afa1580156103f5573d6000803e3d6000fd5b505050506040513d601f19601f820116820180604052508101906104199190613b43565b151514155b61042757600080fd5b61042f6122e5565b60fd6000815461043e90613b9f565b91905081905550600061045084611cd9565b90508281101561049857609b6040517f4319aabb00000000000000000000000000000000000000000000000000000000815260040161048f9190613c2c565b60405180910390fd5b6000859050600085905060008173ffffffffffffffffffffffffffffffffffffffff166370a08231306040518263ffffffff1660e01b81526004016104dd9190613c56565b602060405180830381865afa1580156104fa573d6000803e3d6000fd5b505050506040513d601f19601f8201168201806040525081019061051e9190613c86565b90508561010460008973ffffffffffffffffffffffffffffffffffffffff1673ffffffffffffffffffffffffffffffffffffffff168152602001908152602001600020600060fd54815260200190815260200160002060000160008282546105869190613cb3565b9250508190555061010460008873ffffffffffffffffffffffffffffffffffffffff1673ffffffffffffffffffffffffffffffffffffffff1681526020019081526020016000206000600160fd546105de9190613cb3565b815260200190815260200160002060000154816105fb9190613cb3565b61010460008973ffffffffffffffffffffffffffffffffffffffff1673ffffffffffffffffffffffffffffffffffffffff1681526020019081526020016000206000600160fd5461064c9190613cb3565b81526020019081526020016000206001018190555085610103600061066f612334565b73ffffffffffffffffffffffffffffffffffffffff1673ffffffffffffffffffffffffffffffffffffffff16815260200190815260200160002060008973ffffffffffffffffffffffffffffffffffffffff1673ffffffffffffffffffffffffffffffffffffffff168152602001908152602001600020600060fd548152602001908152602001600020600101600082825461070b9190613ce7565b925050819055508386036107ba5760006101026000610728612334565b73ffffffffffffffffffffffffffffffffffffffff1673ffffffffffffffffffffffffffffffffffffffff16815260200190815260200160002060008973ffffffffffffffffffffffffffffffffffffffff1673ffffffffffffffffffffffffffffffffffffffff16815260200190815260200160002060000160006101000a81548160ff0219169083151502179055505b8561010560008973ffffffffffffffffffffffffffffffffffffffff1673ffffffffffffffffffffffffffffffffffffffff168152602001908152602001600020600082825461080a9190613cb3565b9250508190555061085e60fe60009054906101000a900473ffffffffffffffffffffffffffffffffffffffff16878973ffffffffffffffffffffffffffffffffffffffff1661233c9092919063ffffffff16565b60008373ffffffffffffffffffffffffffffffffffffffff166370a08231306040518263ffffffff1660e01b81526004016108999190613c56565b602060405180830381865afa1580156108b6573d6000803e3d6000fd5b505050506040513d601f19601f820116820180604052508101906108da9190613c86565b905060fe60009054906101000a900473ffffffffffffffffffffffffffffffffffffffff1673ffffffffffffffffffffffffffffffffffffffff166369328dec8a89306040518463ffffffff1660e01b815260040161093b93929190613d1b565b600060405180830381600087803b15801561095557600080fd5b505af1158015610969573d6000803e3d6000fd5b5050505060008473ffffffffffffffffffffffffffffffffffffffff166370a08231306040518263ffffffff1660e01b81526004016109a89190613c56565b602060405180830381865afa1580156109c5573d6000803e3d6000fd5b505050506040513d601f19601f820116820180604052508101906109e99190613c86565b9050600082826109f99190613cb3565b9050610a2d610a06612334565b828873ffffffffffffffffffffffffffffffffffffffff1661244e9092919063ffffffff16565b808b73ffffffffffffffffffffffffffffffffffffffff16610a4d612334565b73ffffffffffffffffffffffffffffffffffffffff167f11dd463c4f2edd676b85f050130c7ab2f5832f52becb5444b09a92404aa1498a60405160405180910390a46001975050505050505050610aa26124d4565b9392505050565b60007f7965db0b000000000000000000000000000000000000000000000000000000007bffffffffffffffffffffffffffffffffffffffffffffffffffffffff1916827bffffffffffffffffffffffffffffffffffffffffffffffffffffffff19161480610b1c5750610b1b826124de565b5b9050919050565b600060976000838152602001908152602001600020600101549050919050565b610b4c82610b23565b610b5581612548565b610b5f838361255c565b505050565b610b6c611b31565b610bab576040517f08c379a0000000000000000000000000000000000000000000000000000000008152600401610ba290613dd5565b60405180910390fd5b600060fc541115610bf457604e6040517f887e6317000000000000000000000000000000000000000000000000000000008152600401610beb9190613e30565b60405180910390fd5b60fc60008154610c0390613b9f565b919050819055508460fe60006101000a81548173ffffffffffffffffffffffffffffffffffffffff021916908373ffffffffffffffffffffffffffffffffffffffff1602179055508360ff60006101000a81548173ffffffffffffffffffffffffffffffffffffffff021916908373ffffffffffffffffffffffffffffffffffffffff16021790555060008060ff60009054906101000a900473ffffffffffffffffffffffffffffffffffffffff1673ffffffffffffffffffffffffffffffffffffffff16634b40ac92846040518263ffffffff1660e01b8152600401610cea9190613afc565b600060405180830381865afa158015610d07573d6000803e3d6000fd5b505050506040513d6000823e3d601f19601f82011682018060405250810190610d309190613efa565b915091508373ffffffffffffffffffffffffffffffffffffffff168173ffffffffffffffffffffffffffffffffffffffff1614610da55760556040517f52707288000000000000000000000000000000000000000000000000000000008152600401610d9c9190613f91565b60405180910390fd5b84604051602001610db69190613ff3565b6040516020818303038152906040528051906020012082604051602001610ddd9190613ff3565b6040516020818303038152906040528051906020012014610e365760586040517f52707288000000000000000000000000000000000000000000000000000000008152600401610e2d9190614045565b60405180910390fd5b8260fb8190555050505050505050565b610e4e612334565b73ffffffffffffffffffffffffffffffffffffffff168173ffffffffffffffffffffffffffffffffffffffff1614610ebb576040517f08c379a0000000000000000000000000000000000000000000000000000000008152600401610eb2906140d2565b60405180910390fd5b610ec5828261263d565b5050565b8173ffffffffffffffffffffffffffffffffffffffff166340c10f1933836040518363ffffffff1660e01b8152600401610f049291906140f2565b6020604051808303816000875af1158015610f23573d6000803e3d6000fd5b505050506040513d601f19601f82011682018060405250810190610f479190613b43565b505050565b6000603360009054906101000a900460ff16905090565b610f6b611b31565b610faa576040517f08c379a0000000000000000000000000000000000000000000000000000000008152600401610fa190613dd5565b60405180910390fd5b60008451905060005b818110156113cb578360ff60009054906101000a900473ffffffffffffffffffffffffffffffffffffffff1673ffffffffffffffffffffffffffffffffffffffff16634dbc7b2860fb546040518263ffffffff1660e01b81526004016110199190613afc565b602060405180830381865afa158015611036573d6000803e3d6000fd5b505050506040513d601f19601f8201168201806040525081019061105a9190613c86565b036113ba5760006064610105600089858151811061107b5761107a61411b565b5b602002602001015173ffffffffffffffffffffffffffffffffffffffff1673ffffffffffffffffffffffffffffffffffffffff16815260200190815260200160002054856110c9919061414a565b6110d391906141d3565b90508061010560008985815181106110ee576110ed61411b565b5b602002602001015173ffffffffffffffffffffffffffffffffffffffff1673ffffffffffffffffffffffffffffffffffffffff168152602001908152602001600020600082825461113f9190613cb3565b92505081905550600088838151811061115b5761115a61411b565b5b60200260200101519050600088848151811061117a5761117961411b565b5b602002602001015190506111d160fe60009054906101000a900473ffffffffffffffffffffffffffffffffffffffff16848373ffffffffffffffffffffffffffffffffffffffff1661233c9092919063ffffffff16565b60008273ffffffffffffffffffffffffffffffffffffffff166370a08231306040518263ffffffff1660e01b815260040161120c9190613c56565b602060405180830381865afa158015611229573d6000803e3d6000fd5b505050506040513d601f19601f8201168201806040525081019061124d9190613c86565b905060fe60009054906101000a900473ffffffffffffffffffffffffffffffffffffffff1673ffffffffffffffffffffffffffffffffffffffff166369328dec8c87815181106112a05761129f61411b565b5b602002602001015186306040518463ffffffff1660e01b81526004016112c893929190613d1b565b600060405180830381600087803b1580156112e257600080fd5b505af11580156112f6573d6000803e3d6000fd5b5050505060008373ffffffffffffffffffffffffffffffffffffffff166370a08231306040518263ffffffff1660e01b81526004016113359190613c56565b602060405180830381865afa158015611352573d6000803e3d6000fd5b505050506040513d601f19601f820116820180604052508101906113769190613c86565b9050600082826113869190613cb3565b90506113b38b828773ffffffffffffffffffffffffffffffffffffffff1661244e9092919063ffffffff16565b5050505050505b806113c490613b9f565b9050610fb3565b50505050505050565b600060019054906101000a900460ff16611423576040517f08c379a000000000000000000000000000000000000000000000000000000000815260040161141a90614276565b60405180910390fd5b600073ffffffffffffffffffffffffffffffffffffffff168173ffffffffffffffffffffffffffffffffffffffff1603611489576040517f5415139400000000000000000000000000000000000000000000000000000000815260040160405180910390fd5b61149161271f565b611499612778565b6114a16127c9565b6114b26114ac612822565b8261255c565b6114c36114bd61284a565b8261255c565b6114db6114ce61284a565b6114d6612822565b612872565b6114f36114e6612822565b6114ee612822565b612872565b50565b60006115006122e5565b6402540be40086101561154b5760756040517f8aa6c63300000000000000000000000000000000000000000000000000000000815260040161154291906142d1565b60405180910390fd5b60fd6000815461155a90613b9f565b91905081905550600060ff60009054906101000a900473ffffffffffffffffffffffffffffffffffffffff1673ffffffffffffffffffffffffffffffffffffffff1663c07f47d46040518163ffffffff1660e01b8152600401602060405180830381865afa1580156115d0573d6000803e3d6000fd5b505050506040513d601f19601f820116820180604052508101906115f49190613c86565b905080610101600060fd548152602001908152602001600020819055506000899050600089905060008b9050610102600061162d612334565b73ffffffffffffffffffffffffffffffffffffffff1673ffffffffffffffffffffffffffffffffffffffff16815260200190815260200160002060008c73ffffffffffffffffffffffffffffffffffffffff1673ffffffffffffffffffffffffffffffffffffffff16815260200190815260200160002060000160009054906101000a900460ff166117e85760fd5461010260006116c9612334565b73ffffffffffffffffffffffffffffffffffffffff1673ffffffffffffffffffffffffffffffffffffffff16815260200190815260200160002060008d73ffffffffffffffffffffffffffffffffffffffff1673ffffffffffffffffffffffffffffffffffffffff1681526020019081526020016000206001018190555060016101026000611756612334565b73ffffffffffffffffffffffffffffffffffffffff1673ffffffffffffffffffffffffffffffffffffffff16815260200190815260200160002060008d73ffffffffffffffffffffffffffffffffffffffff1673ffffffffffffffffffffffffffffffffffffffff16815260200190815260200160002060000160006101000a81548160ff0219169083151502179055505b60008273ffffffffffffffffffffffffffffffffffffffff166370a08231306040518263ffffffff1660e01b81526004016118239190613c56565b602060405180830381865afa158015611840573d6000803e3d6000fd5b505050506040513d601f19601f820116820180604052508101906118649190613c86565b90506118a2611871612334565b308d8d8d8d8d8973ffffffffffffffffffffffffffffffffffffffff166128ce90979695949392919063ffffffff16565b6118d66118ad612334565b308d8773ffffffffffffffffffffffffffffffffffffffff16612a9b909392919063ffffffff16565b61192360fe60009054906101000a900473ffffffffffffffffffffffffffffffffffffffff168c8673ffffffffffffffffffffffffffffffffffffffff1661233c9092919063ffffffff16565b60fe60009054906101000a900473ffffffffffffffffffffffffffffffffffffffff1673ffffffffffffffffffffffffffffffffffffffff1663617ba0378e8d3060006040518563ffffffff1660e01b81526004016119859493929190614335565b600060405180830381600087803b15801561199f57600080fd5b505af11580156119b3573d6000803e3d6000fd5b5050505060008373ffffffffffffffffffffffffffffffffffffffff166370a08231306040518263ffffffff1660e01b81526004016119f29190613c56565b602060405180830381865afa158015611a0f573d6000803e3d6000fd5b505050506040513d601f19601f82011682018060405250810190611a339190613c86565b9050611a408d8284612b24565b8b8e73ffffffffffffffffffffffffffffffffffffffff16611a60612334565b73ffffffffffffffffffffffffffffffffffffffff167fa64bf1fcc4f3d7c965ef3091c978df041ad959bfaa6d5abc7d99a17830407b2960405160405180910390a460019650505050505050611ab46124d4565b979650505050505050565b60006097600084815260200190815260200160002060000160008373ffffffffffffffffffffffffffffffffffffffff1673ffffffffffffffffffffffffffffffffffffffff16815260200190815260200160002060009054906101000a900460ff16905092915050565b6000801b81565b6000611b4b611b3e612822565b611b46612334565b611abf565b905090565b60008060019054906101000a900460ff16159050808015611b815750600160008054906101000a900460ff1660ff16105b80611bae5750611b9030612d83565b158015611bad5750600160008054906101000a900460ff1660ff16145b5b611bed576040517f08c379a0000000000000000000000000000000000000000000000000000000008152600401611be4906143ec565b60405180910390fd5b60016000806101000a81548160ff021916908360ff1602179055508015611c2a576001600060016101000a81548160ff0219169083151502179055505b8161010060006101000a81548173ffffffffffffffffffffffffffffffffffffffff021916908373ffffffffffffffffffffffffffffffffffffffff160217905550611c7c611c77612334565b6113d4565b8015611cd55760008060016101000a81548160ff0219169083151502179055507f7f26b83ff96e1f2b6a682f133852f6798a09c465da95921460cefb38474024986001604051611ccc9190614447565b60405180910390a15b5050565b600080600090506000806101026000611cf0612334565b73ffffffffffffffffffffffffffffffffffffffff1673ffffffffffffffffffffffffffffffffffffffff16815260200190815260200160002060008673ffffffffffffffffffffffffffffffffffffffff1673ffffffffffffffffffffffffffffffffffffffff168152602001908152602001600020600101549050600060fd54905060008060008490505b838110156122a75760006101036000611d94612334565b73ffffffffffffffffffffffffffffffffffffffff1673ffffffffffffffffffffffffffffffffffffffff16815260200190815260200160002060008b73ffffffffffffffffffffffffffffffffffffffff1673ffffffffffffffffffffffffffffffffffffffff16815260200190815260200160002060008381526020019081526020016000206040518060400160405290816000820154815260200160018201548152505090506000816000015190506000826020015190506000821115611e6757818a611e649190613ce7565b99505b6000811115611e7f57808a611e7c9190613cb3565b99505b600061010460008e73ffffffffffffffffffffffffffffffffffffffff1673ffffffffffffffffffffffffffffffffffffffff16815260200190815260200160002060008681526020019081526020016000206000015461010460008f73ffffffffffffffffffffffffffffffffffffffff1673ffffffffffffffffffffffffffffffffffffffff1681526020019081526020016000206000878152602001908152602001600020600101548c611f36919061414a565b611f4091906141d3565b9050808a611f4e9190613ce7565b9950600060ff60009054906101000a900473ffffffffffffffffffffffffffffffffffffffff1673ffffffffffffffffffffffffffffffffffffffff1663c07f47d46040518163ffffffff1660e01b8152600401602060405180830381865afa158015611fbf573d6000803e3d6000fd5b505050506040513d601f19601f82011682018060405250810190611fe39190613c86565b90508087146122915780965060ff60009054906101000a900473ffffffffffffffffffffffffffffffffffffffff1673ffffffffffffffffffffffffffffffffffffffff166305044ea660fb54896040518363ffffffff1660e01b815260040161204e929190614462565b602060405180830381865afa15801561206b573d6000803e3d6000fd5b505050506040513d601f19601f8201168201806040525081019061208f9190613b43565b156121375760ff60009054906101000a900473ffffffffffffffffffffffffffffffffffffffff1673ffffffffffffffffffffffffffffffffffffffff16639cb0675860fb54896040518363ffffffff1660e01b81526004016120f3929190614462565b602060405180830381865afa158015612110573d6000803e3d6000fd5b505050506040513d601f19601f820116820180604052508101906121349190613c86565b97505b60ff60009054906101000a900473ffffffffffffffffffffffffffffffffffffffff1673ffffffffffffffffffffffffffffffffffffffff1663b557e4a6888a6040518363ffffffff1660e01b8152600401612194929190614462565b602060405180830381865afa1580156121b1573d6000803e3d6000fd5b505050506040513d601f19601f820116820180604052508101906121d59190613b43565b1561229057606460ff60009054906101000a900473ffffffffffffffffffffffffffffffffffffffff1673ffffffffffffffffffffffffffffffffffffffff166339c4c205896040518263ffffffff1660e01b81526004016122379190613afc565b602060405180830381865afa158015612254573d6000803e3d6000fd5b505050506040513d601f19601f820116820180604052508101906122789190613c86565b8d612283919061414a565b61228d91906141d3565b9b505b5b8561229b90613b9f565b95505050505050611d7d565b5084866122b49190613ce7565b9550859650505050505050919050565b6122cd82610b23565b6122d681612548565b6122e0838361263d565b505050565b600260c9540361232a576040517f08c379a0000000000000000000000000000000000000000000000000000000008152600401612321906144d7565b60405180910390fd5b600260c981905550565b600033905090565b6000818473ffffffffffffffffffffffffffffffffffffffff1663dd62ed3e30866040518363ffffffff1660e01b815260040161237a9291906144f7565b602060405180830381865afa158015612397573d6000803e3d6000fd5b505050506040513d601f19601f820116820180604052508101906123bb9190613c86565b6123c59190613ce7565b90506124488463095ea7b360e01b85846040516024016123e69291906140f2565b604051602081830303815290604052907bffffffffffffffffffffffffffffffffffffffffffffffffffffffff19166020820180517bffffffffffffffffffffffffffffffffffffffffffffffffffffffff8381831617835250505050612da6565b50505050565b6124cf8363a9059cbb60e01b848460405160240161246d9291906140f2565b604051602081830303815290604052907bffffffffffffffffffffffffffffffffffffffffffffffffffffffff19166020820180517bffffffffffffffffffffffffffffffffffffffffffffffffffffffff8381831617835250505050612da6565b505050565b600160c981905550565b60007f01ffc9a7000000000000000000000000000000000000000000000000000000007bffffffffffffffffffffffffffffffffffffffffffffffffffffffff1916827bffffffffffffffffffffffffffffffffffffffffffffffffffffffff1916149050919050565b61255981612554612334565b612e6d565b50565b6125668282611abf565b6126395760016097600084815260200190815260200160002060000160008373ffffffffffffffffffffffffffffffffffffffff1673ffffffffffffffffffffffffffffffffffffffff16815260200190815260200160002060006101000a81548160ff0219169083151502179055506125de612334565b73ffffffffffffffffffffffffffffffffffffffff168173ffffffffffffffffffffffffffffffffffffffff16837f2f8788117e7eff1d82e926ec794901d17c78024a50270940304540a733656f0d60405160405180910390a45b5050565b6126478282611abf565b1561271b5760006097600084815260200190815260200160002060000160008373ffffffffffffffffffffffffffffffffffffffff1673ffffffffffffffffffffffffffffffffffffffff16815260200190815260200160002060006101000a81548160ff0219169083151502179055506126c0612334565b73ffffffffffffffffffffffffffffffffffffffff168173ffffffffffffffffffffffffffffffffffffffff16837ff6391f5c32d9c69d2a47ea670b442974b53935d1edc7fd64eb21e047a839171b60405160405180910390a45b5050565b600060019054906101000a900460ff1661276e576040517f08c379a000000000000000000000000000000000000000000000000000000000815260040161276590614276565b60405180910390fd5b612776612ef2565b565b600060019054906101000a900460ff166127c7576040517f08c379a00000000000000000000000000000000000000000000000000000000081526004016127be90614276565b60405180910390fd5b565b600060019054906101000a900460ff16612818576040517f08c379a000000000000000000000000000000000000000000000000000000000815260040161280f90614276565b60405180910390fd5b612820612f5e565b565b60007fa49807205ce4d355092ef5a8a18f56e8913cf4a201fbe287825b095693c21775905090565b60007f65d7a28e3265b37a6474929f336521b332c1681b933f6cb9f3376673440d862a905090565b600061287d83610b23565b90508160976000858152602001908152602001600020600101819055508181847fbd79b86ffe0ab8e8776151514217cd7cacd52c909f66475c3af44e129f0b00ff60405160405180910390a4505050565b60008873ffffffffffffffffffffffffffffffffffffffff16637ecebe00896040518263ffffffff1660e01b81526004016129099190613c56565b602060405180830381865afa158015612926573d6000803e3d6000fd5b505050506040513d601f19601f8201168201806040525081019061294a9190613c86565b90508873ffffffffffffffffffffffffffffffffffffffff1663d505accf898989898989896040518863ffffffff1660e01b8152600401612991979695949392919061452f565b600060405180830381600087803b1580156129ab57600080fd5b505af11580156129bf573d6000803e3d6000fd5b5050505060008973ffffffffffffffffffffffffffffffffffffffff16637ecebe008a6040518263ffffffff1660e01b81526004016129fe9190613c56565b602060405180830381865afa158015612a1b573d6000803e3d6000fd5b505050506040513d601f19601f82011682018060405250810190612a3f9190613c86565b9050600182612a4e9190613ce7565b8114612a8f576040517f08c379a0000000000000000000000000000000000000000000000000000000008152600401612a8690614610565b60405180910390fd5b50505050505050505050565b612b1e846323b872dd60e01b858585604051602401612abc93929190614630565b604051602081830303815290604052907bffffffffffffffffffffffffffffffffffffffffffffffffffffffff19166020820180517bffffffffffffffffffffffffffffffffffffffffffffffffffffffff8381831617835250505050612da6565b50505050565b60008183612b329190613cb3565b90508061010460008673ffffffffffffffffffffffffffffffffffffffff1673ffffffffffffffffffffffffffffffffffffffff168152602001908152602001600020600060fd5481526020019081526020016000206000016000828254612b9a9190613ce7565b9250508190555061010460008573ffffffffffffffffffffffffffffffffffffffff1673ffffffffffffffffffffffffffffffffffffffff1681526020019081526020016000206000600160fd54612bf29190613cb3565b81526020019081526020016000206000015482612c0f9190613cb3565b61010460008673ffffffffffffffffffffffffffffffffffffffff1673ffffffffffffffffffffffffffffffffffffffff1681526020019081526020016000206000600160fd54612c609190613cb3565b815260200190815260200160002060010181905550806101036000612c83612334565b73ffffffffffffffffffffffffffffffffffffffff1673ffffffffffffffffffffffffffffffffffffffff16815260200190815260200160002060008673ffffffffffffffffffffffffffffffffffffffff1673ffffffffffffffffffffffffffffffffffffffff168152602001908152602001600020600060fd5481526020019081526020016000206000016000828254612d1f9190613ce7565b925050819055508061010560008673ffffffffffffffffffffffffffffffffffffffff1673ffffffffffffffffffffffffffffffffffffffff1681526020019081526020016000206000828254612d769190613ce7565b9250508190555050505050565b6000808273ffffffffffffffffffffffffffffffffffffffff163b119050919050565b6000612e08826040518060400160405280602081526020017f5361666545524332303a206c6f772d6c6576656c2063616c6c206661696c65648152508573ffffffffffffffffffffffffffffffffffffffff16612fb79092919063ffffffff16565b9050600081511115612e685780806020019051810190612e289190613b43565b612e67576040517f08c379a0000000000000000000000000000000000000000000000000000000008152600401612e5e906146d9565b60405180910390fd5b5b505050565b612e778282611abf565b612eee57612e8481612fcf565b612e928360001c6020612ffc565b604051602001612ea3929190614791565b6040516020818303038152906040526040517f08c379a0000000000000000000000000000000000000000000000000000000008152600401612ee59190614804565b60405180910390fd5b5050565b600060019054906101000a900460ff16612f41576040517f08c379a0000000000000000000000000000000000000000000000000000000008152600401612f3890614276565b60405180910390fd5b6000603360006101000a81548160ff021916908315150217905550565b600060019054906101000a900460ff16612fad576040517f08c379a0000000000000000000000000000000000000000000000000000000008152600401612fa490614276565b60405180910390fd5b600160c981905550565b6060612fc68484600085613238565b90509392505050565b6060612ff58273ffffffffffffffffffffffffffffffffffffffff16601460ff16612ffc565b9050919050565b60606000600283600261300f919061414a565b6130199190613ce7565b67ffffffffffffffff81111561303257613031613668565b5b6040519080825280601f01601f1916602001820160405280156130645781602001600182028036833780820191505090505b5090507f30000000000000000000000000000000000000000000000000000000000000008160008151811061309c5761309b61411b565b5b60200101907effffffffffffffffffffffffffffffffffffffffffffffffffffffffffffff1916908160001a9053507f780000000000000000000000000000000000000000000000000000000000000081600181518110613100576130ff61411b565b5b60200101907effffffffffffffffffffffffffffffffffffffffffffffffffffffffffffff1916908160001a90535060006001846002613140919061414a565b61314a9190613ce7565b90505b60018111156131ea577f3031323334353637383961626364656600000000000000000000000000000000600f86166010811061318c5761318b61411b565b5b1a60f81b8282815181106131a3576131a261411b565b5b60200101907effffffffffffffffffffffffffffffffffffffffffffffffffffffffffffff1916908160001a905350600485901c9450806131e390614826565b905061314d565b506000841461322e576040517f08c379a00000000000000000000000000000000000000000000000000000000081526004016132259061489b565b60405180910390fd5b8091505092915050565b60608247101561327d576040517f08c379a00000000000000000000000000000000000000000000000000000000081526004016132749061492d565b60405180910390fd5b6000808673ffffffffffffffffffffffffffffffffffffffff1685876040516132a69190614994565b60006040518083038185875af1925050503d80600081146132e3576040519150601f19603f3d011682016040523d82523d6000602084013e6132e8565b606091505b50915091506132f987838387613305565b92505050949350505050565b6060831561336757600083510361335f5761331f85612d83565b61335e576040517f08c379a0000000000000000000000000000000000000000000000000000000008152600401613355906149f7565b60405180910390fd5b5b829050613372565b613371838361337a565b5b949350505050565b60008251111561338d5781518083602001fd5b806040517f08c379a00000000000000000000000000000000000000000000000000000000081526004016133c19190614804565b60405180910390fd5b6000604051905090565b600080fd5b600080fd5b600073ffffffffffffffffffffffffffffffffffffffff82169050919050565b6000613409826133de565b9050919050565b613419816133fe565b811461342457600080fd5b50565b60008135905061343681613410565b92915050565b6000819050919050565b61344f8161343c565b811461345a57600080fd5b50565b60008135905061346c81613446565b92915050565b60008060006060848603121561348b5761348a6133d4565b5b600061349986828701613427565b93505060206134aa86828701613427565b92505060406134bb8682870161345d565b9150509250925092565b60008115159050919050565b6134da816134c5565b82525050565b60006020820190506134f560008301846134d1565b92915050565b60007fffffffff0000000000000000000000000000000000000000000000000000000082169050919050565b613530816134fb565b811461353b57600080fd5b50565b60008135905061354d81613527565b92915050565b600060208284031215613569576135686133d4565b5b60006135778482850161353e565b91505092915050565b6000819050919050565b61359381613580565b811461359e57600080fd5b50565b6000813590506135b08161358a565b92915050565b6000602082840312156135cc576135cb6133d4565b5b60006135da848285016135a1565b91505092915050565b6135ec81613580565b82525050565b600060208201905061360760008301846135e3565b92915050565b60008060408385031215613624576136236133d4565b5b6000613632858286016135a1565b925050602061364385828601613427565b9150509250929050565b600080fd5b600080fd5b6000601f19601f8301169050919050565b7f4e487b7100000000000000000000000000000000000000000000000000000000600052604160045260246000fd5b6136a082613657565b810181811067ffffffffffffffff821117156136bf576136be613668565b5b80604052505050565b60006136d26133ca565b90506136de8282613697565b919050565b600067ffffffffffffffff8211156136fe576136fd613668565b5b61370782613657565b9050602081019050919050565b82818337600083830152505050565b6000613736613731846136e3565b6136c8565b90508281526020810184848401111561375257613751613652565b5b61375d848285613714565b509392505050565b600082601f83011261377a5761377961364d565b5b813561378a848260208601613723565b91505092915050565b600080600080600060a086880312156137af576137ae6133d4565b5b60006137bd88828901613427565b95505060206137ce88828901613427565b945050604086013567ffffffffffffffff8111156137ef576137ee6133d9565b5b6137fb88828901613765565b935050606061380c88828901613427565b925050608061381d8882890161345d565b9150509295509295909350565b60008060408385031215613841576138406133d4565b5b600061384f85828601613427565b92505060206138608582860161345d565b9150509250929050565b600067ffffffffffffffff82111561388557613884613668565b5b602082029050602081019050919050565b600080fd5b60006138ae6138a98461386a565b6136c8565b905080838252602082019050602084028301858111156138d1576138d0613896565b5b835b818110156138fa57806138e68882613427565b8452602084019350506020810190506138d3565b5050509392505050565b600082601f8301126139195761391861364d565b5b813561392984826020860161389b565b91505092915050565b600080600080600060a0868803121561394e5761394d6133d4565b5b600086013567ffffffffffffffff81111561396c5761396b6133d9565b5b61397888828901613904565b955050602086013567ffffffffffffffff811115613999576139986133d9565b5b6139a588828901613904565b94505060406139b688828901613427565b93505060606139c78882890161345d565b92505060806139d88882890161345d565b9150509295509295909350565b6000602082840312156139fb576139fa6133d4565b5b6000613a0984828501613427565b91505092915050565b600060ff82169050919050565b613a2881613a12565b8114613a3357600080fd5b50565b600081359050613a4581613a1f565b92915050565b600080600080600080600060e0888a031215613a6a57613a696133d4565b5b6000613a788a828b01613427565b9750506020613a898a828b01613427565b9650506040613a9a8a828b0161345d565b9550506060613aab8a828b0161345d565b9450506080613abc8a828b01613a36565b93505060a0613acd8a828b016135a1565b92505060c0613ade8a828b016135a1565b91505092959891949750929550565b613af68161343c565b82525050565b6000602082019050613b116000830184613aed565b92915050565b613b20816134c5565b8114613b2b57600080fd5b50565b600081519050613b3d81613b17565b92915050565b600060208284031215613b5957613b586133d4565b5b6000613b6784828501613b2e565b91505092915050565b7f4e487b7100000000000000000000000000000000000000000000000000000000600052601160045260246000fd5b6000613baa8261343c565b91507fffffffffffffffffffffffffffffffffffffffffffffffffffffffffffffffff8203613bdc57613bdb613b70565b5b600182019050919050565b6000819050919050565b6000819050919050565b6000613c16613c11613c0c84613be7565b613bf1565b61343c565b9050919050565b613c2681613bfb565b82525050565b6000602082019050613c416000830184613c1d565b92915050565b613c50816133fe565b82525050565b6000602082019050613c6b6000830184613c47565b92915050565b600081519050613c8081613446565b92915050565b600060208284031215613c9c57613c9b6133d4565b5b6000613caa84828501613c71565b91505092915050565b6000613cbe8261343c565b9150613cc98361343c565b9250828203905081811115613ce157613ce0613b70565b5b92915050565b6000613cf28261343c565b9150613cfd8361343c565b9250828201905080821115613d1557613d14613b70565b5b92915050565b6000606082019050613d306000830186613c47565b613d3d6020830185613aed565b613d4a6040830184613c47565b949350505050565b600082825260208201905092915050565b7f4d75737420686176652061646d696e20726f6c6520746f20706572666f726d2060008201527f7468697320616374696f6e2e0000000000000000000000000000000000000000602082015250565b6000613dbf602c83613d52565b9150613dca82613d63565b604082019050919050565b60006020820190508181036000830152613dee81613db2565b9050919050565b6000819050919050565b6000613e1a613e15613e1084613df5565b613bf1565b61343c565b9050919050565b613e2a81613dff565b82525050565b6000602082019050613e456000830184613e21565b92915050565b60005b83811015613e69578082015181840152602081019050613e4e565b60008484015250505050565b6000613e88613e83846136e3565b6136c8565b905082815260208101848484011115613ea457613ea3613652565b5b613eaf848285613e4b565b509392505050565b600082601f830112613ecc57613ecb61364d565b5b8151613edc848260208601613e75565b91505092915050565b600081519050613ef481613410565b92915050565b60008060408385031215613f1157613f106133d4565b5b600083015167ffffffffffffffff811115613f2f57613f2e6133d9565b5b613f3b85828601613eb7565b9250506020613f4c85828601613ee5565b9150509250929050565b6000819050919050565b6000613f7b613f76613f7184613f56565b613bf1565b61343c565b9050919050565b613f8b81613f60565b82525050565b6000602082019050613fa66000830184613f82565b92915050565b600081519050919050565b600081905092915050565b6000613fcd82613fac565b613fd78185613fb7565b9350613fe7818560208601613e4b565b80840191505092915050565b6000613fff8284613fc2565b915081905092915050565b6000819050919050565b600061402f61402a6140258461400a565b613bf1565b61343c565b9050919050565b61403f81614014565b82525050565b600060208201905061405a6000830184614036565b92915050565b7f416363657373436f6e74726f6c3a2063616e206f6e6c792072656e6f756e636560008201527f20726f6c657320666f722073656c660000000000000000000000000000000000602082015250565b60006140bc602f83613d52565b91506140c782614060565b604082019050919050565b600060208201905081810360008301526140eb816140af565b9050919050565b60006040820190506141076000830185613c47565b6141146020830184613aed565b9392505050565b7f4e487b7100000000000000000000000000000000000000000000000000000000600052603260045260246000fd5b60006141558261343c565b91506141608361343c565b9250817fffffffffffffffffffffffffffffffffffffffffffffffffffffffffffffffff048311821515161561419957614198613b70565b5b828202905092915050565b7f4e487b7100000000000000000000000000000000000000000000000000000000600052601260045260246000fd5b60006141de8261343c565b91506141e98361343c565b9250826141f9576141f86141a4565b5b828204905092915050565b7f496e697469616c697a61626c653a20636f6e7472616374206973206e6f74206960008201527f6e697469616c697a696e67000000000000000000000000000000000000000000602082015250565b6000614260602b83613d52565b915061426b82614204565b604082019050919050565b6000602082019050818103600083015261428f81614253565b9050919050565b6000819050919050565b60006142bb6142b66142b184614296565b613bf1565b61343c565b9050919050565b6142cb816142a0565b82525050565b60006020820190506142e660008301846142c2565b92915050565b6000819050919050565b600061ffff82169050919050565b600061431f61431a614315846142ec565b613bf1565b6142f6565b9050919050565b61432f81614304565b82525050565b600060808201905061434a6000830187613c47565b6143576020830186613aed565b6143646040830185613c47565b6143716060830184614326565b95945050505050565b7f496e697469616c697a61626c653a20636f6e747261637420697320616c72656160008201527f647920696e697469616c697a6564000000000000000000000000000000000000602082015250565b60006143d6602e83613d52565b91506143e18261437a565b604082019050919050565b60006020820190508181036000830152614405816143c9565b9050919050565b6000819050919050565b600061443161442c6144278461440c565b613bf1565b613a12565b9050919050565b61444181614416565b82525050565b600060208201905061445c6000830184614438565b92915050565b60006040820190506144776000830185613aed565b6144846020830184613aed565b9392505050565b7f5265656e7472616e637947756172643a207265656e7472616e742063616c6c00600082015250565b60006144c1601f83613d52565b91506144cc8261448b565b602082019050919050565b600060208201905081810360008301526144f0816144b4565b9050919050565b600060408201905061450c6000830185613c47565b6145196020830184613c47565b9392505050565b61452981613a12565b82525050565b600060e082019050614544600083018a613c47565b6145516020830189613c47565b61455e6040830188613aed565b61456b6060830187613aed565b6145786080830186614520565b61458560a08301856135e3565b61459260c08301846135e3565b98975050505050505050565b7f5361666545524332303a207065726d697420646964206e6f742073756363656560008201527f6400000000000000000000000000000000000000000000000000000000000000602082015250565b60006145fa602183613d52565b91506146058261459e565b604082019050919050565b60006020820190508181036000830152614629816145ed565b9050919050565b60006060820190506146456000830186613c47565b6146526020830185613c47565b61465f6040830184613aed565b949350505050565b7f5361666545524332303a204552433230206f7065726174696f6e20646964206e60008201527f6f74207375636365656400000000000000000000000000000000000000000000602082015250565b60006146c3602a83613d52565b91506146ce82614667565b604082019050919050565b600060208201905081810360008301526146f2816146b6565b9050919050565b7f416363657373436f6e74726f6c3a206163636f756e7420000000000000000000600082015250565b600061472f601783613fb7565b915061473a826146f9565b601782019050919050565b7f206973206d697373696e6720726f6c6520000000000000000000000000000000600082015250565b600061477b601183613fb7565b915061478682614745565b601182019050919050565b600061479c82614722565b91506147a88285613fc2565b91506147b38261476e565b91506147bf8284613fc2565b91508190509392505050565b60006147d682613fac565b6147e08185613d52565b93506147f0818560208601613e4b565b6147f981613657565b840191505092915050565b6000602082019050818103600083015261481e81846147cb565b905092915050565b60006148318261343c565b91506000820361484457614843613b70565b5b600182039050919050565b7f537472696e67733a20686578206c656e67746820696e73756666696369656e74600082015250565b6000614885602083613d52565b91506148908261484f565b602082019050919050565b600060208201905081810360008301526148b481614878565b9050919050565b7f416464726573733a20696e73756666696369656e742062616c616e636520666f60008201527f722063616c6c0000000000000000000000000000000000000000000000000000602082015250565b6000614917602683613d52565b9150614922826148bb565b604082019050919050565b600060208201905081810360008301526149468161490a565b9050919050565b600081519050919050565b600081905092915050565b600061496e8261494d565b6149788185614958565b9350614988818560208601613e4b565b80840191505092915050565b60006149a08284614963565b915081905092915050565b7f416464726573733a2063616c6c20746f206e6f6e2d636f6e7472616374000000600082015250565b60006149e1601d83613d52565b91506149ec826149ab565b602082019050919050565b60006020820190508181036000830152614a10816149d4565b905091905056fea2646970667358221220a93723bd2ba977dbef2cb0f20de2b45a33388ee580f1368459a576c6f82a357b64736f6c63430008100033",
  "linkReferences": {},
  "deployedLinkReferences": {}
}