{
  "_format": "hh-sol-artifact-1",
  "contractName": "GENZ",
  "sourceName": "contracts/core/token/GENZERC20.sol",
  "abi": [
    {
      "inputs": [],
      "name": "BaseUpgradeablePausable__ZeroAddressError",
      "type": "error"
    },
    {
      "inputs": [],
      "name": "GENZ__ImmutableChangesError",
      "type": "error"
    },
    {
      "anonymous": false,
      "inputs": [
        {
          "indexed": true,
          "internalType": "address",
          "name": "owner",
          "type": "address"
        },
        {
          "indexed": true,
          "internalType": "address",
          "name": "spender",
          "type": "address"
        },
        {
          "indexed": false,
          "internalType": "uint256",
          "name": "value",
          "type": "uint256"
        }
      ],
      "name": "Approval",
      "type": "event"
    },
    {
      "anonymous": false,
      "inputs": [
        {
          "indexed": false,
          "internalType": "uint8",
          "name": "version",
          "type": "uint8"
        }
      ],
      "name": "Initialized",
      "type": "event"
    },
    {
      "anonymous": false,
      "inputs": [
        {
          "indexed": false,
          "internalType": "address",
          "name": "account",
          "type": "address"
        }
      ],
      "name": "Paused",
      "type": "event"
    },
    {
      "anonymous": false,
      "inputs": [
        {
          "indexed": true,
          "internalType": "bytes32",
          "name": "role",
          "type": "bytes32"
        },
        {
          "indexed": true,
          "internalType": "bytes32",
          "name": "previousAdminRole",
          "type": "bytes32"
        },
        {
          "indexed": true,
          "internalType": "bytes32",
          "name": "newAdminRole",
          "type": "bytes32"
        }
      ],
      "name": "RoleAdminChanged",
      "type": "event"
    },
    {
      "anonymous": false,
      "inputs": [
        {
          "indexed": true,
          "internalType": "bytes32",
          "name": "role",
          "type": "bytes32"
        },
        {
          "indexed": true,
          "internalType": "address",
          "name": "account",
          "type": "address"
        },
        {
          "indexed": true,
          "internalType": "address",
          "name": "sender",
          "type": "address"
        }
      ],
      "name": "RoleGranted",
      "type": "event"
    },
    {
      "anonymous": false,
      "inputs": [
        {
          "indexed": true,
          "internalType": "bytes32",
          "name": "role",
          "type": "bytes32"
        },
        {
          "indexed": true,
          "internalType": "address",
          "name": "account",
          "type": "address"
        },
        {
          "indexed": true,
          "internalType": "address",
          "name": "sender",
          "type": "address"
        }
      ],
      "name": "RoleRevoked",
      "type": "event"
    },
    {
      "anonymous": false,
      "inputs": [
        {
          "indexed": true,
          "internalType": "address",
          "name": "from",
          "type": "address"
        },
        {
          "indexed": true,
          "internalType": "address",
          "name": "to",
          "type": "address"
        },
        {
          "indexed": false,
          "internalType": "uint256",
          "name": "value",
          "type": "uint256"
        }
      ],
      "name": "Transfer",
      "type": "event"
    },
    {
      "anonymous": false,
      "inputs": [
        {
          "indexed": false,
          "internalType": "address",
          "name": "account",
          "type": "address"
        }
      ],
      "name": "Unpaused",
      "type": "event"
    },
    {
      "inputs": [],
      "name": "DEFAULT_ADMIN_ROLE",
      "outputs": [
        {
          "internalType": "bytes32",
          "name": "",
          "type": "bytes32"
        }
      ],
      "stateMutability": "view",
      "type": "function"
    },
    {
      "inputs": [],
      "name": "DOMAIN_SEPARATOR",
      "outputs": [
        {
          "internalType": "bytes32",
          "name": "",
          "type": "bytes32"
        }
      ],
      "stateMutability": "view",
      "type": "function"
    },
    {
      "inputs": [
        {
          "internalType": "address",
          "name": "owner",
          "type": "address"
        }
      ],
      "name": "__BaseUpgradeablePausable_init",
      "outputs": [],
      "stateMutability": "nonpayable",
      "type": "function"
    },
    {
      "inputs": [
        {
          "internalType": "address",
          "name": "owner",
          "type": "address"
        },
        {
          "internalType": "address",
          "name": "spender",
          "type": "address"
        }
      ],
      "name": "allowance",
      "outputs": [
        {
          "internalType": "uint256",
          "name": "",
          "type": "uint256"
        }
      ],
      "stateMutability": "view",
      "type": "function"
    },
    {
      "inputs": [
        {
          "internalType": "address",
          "name": "spender",
          "type": "address"
        },
        {
          "internalType": "uint256",
          "name": "amount",
          "type": "uint256"
        }
      ],
      "name": "approve",
      "outputs": [
        {
          "internalType": "bool",
          "name": "",
          "type": "bool"
        }
      ],
      "stateMutability": "nonpayable",
      "type": "function"
    },
    {
      "inputs": [
        {
          "internalType": "address",
          "name": "account",
          "type": "address"
        }
      ],
      "name": "balanceOf",
      "outputs": [
        {
          "internalType": "uint256",
          "name": "",
          "type": "uint256"
        }
      ],
      "stateMutability": "view",
      "type": "function"
    },
    {
      "inputs": [],
      "name": "decimals",
      "outputs": [
        {
          "internalType": "uint8",
          "name": "",
          "type": "uint8"
        }
      ],
      "stateMutability": "view",
      "type": "function"
    },
    {
      "inputs": [
        {
          "internalType": "address",
          "name": "spender",
          "type": "address"
        },
        {
          "internalType": "uint256",
          "name": "subtractedValue",
          "type": "uint256"
        }
      ],
      "name": "decreaseAllowance",
      "outputs": [
        {
          "internalType": "bool",
          "name": "",
          "type": "bool"
        }
      ],
      "stateMutability": "nonpayable",
      "type": "function"
    },
    {
      "inputs": [
        {
          "internalType": "bytes32",
          "name": "role",
          "type": "bytes32"
        }
      ],
      "name": "getRoleAdmin",
      "outputs": [
        {
          "internalType": "bytes32",
          "name": "",
          "type": "bytes32"
        }
      ],
      "stateMutability": "view",
      "type": "function"
    },
    {
      "inputs": [
        {
          "internalType": "bytes32",
          "name": "role",
          "type": "bytes32"
        },
        {
          "internalType": "address",
          "name": "account",
          "type": "address"
        }
      ],
      "name": "grantRole",
      "outputs": [],
      "stateMutability": "nonpayable",
      "type": "function"
    },
    {
      "inputs": [
        {
          "internalType": "bytes32",
          "name": "role",
          "type": "bytes32"
        },
        {
          "internalType": "address",
          "name": "account",
          "type": "address"
        }
      ],
      "name": "hasRole",
      "outputs": [
        {
          "internalType": "bool",
          "name": "",
          "type": "bool"
        }
      ],
      "stateMutability": "view",
      "type": "function"
    },
    {
      "inputs": [
        {
          "internalType": "address",
          "name": "spender",
          "type": "address"
        },
        {
          "internalType": "uint256",
          "name": "addedValue",
          "type": "uint256"
        }
      ],
      "name": "increaseAllowance",
      "outputs": [
        {
          "internalType": "bool",
          "name": "",
          "type": "bool"
        }
      ],
      "stateMutability": "nonpayable",
      "type": "function"
    },
    {
      "inputs": [
        {
          "internalType": "address",
          "name": "buyContract",
          "type": "address"
        }
      ],
      "name": "init",
      "outputs": [],
      "stateMutability": "nonpayable",
      "type": "function"
    },
    {
      "inputs": [],
      "name": "initialize",
      "outputs": [],
      "stateMutability": "nonpayable",
      "type": "function"
    },
    {
      "inputs": [],
      "name": "isAdmin",
      "outputs": [
        {
          "internalType": "bool",
          "name": "",
          "type": "bool"
        }
      ],
      "stateMutability": "view",
      "type": "function"
    },
    {
      "inputs": [],
      "name": "isModerator",
      "outputs": [
        {
          "internalType": "bool",
          "name": "",
          "type": "bool"
        }
      ],
      "stateMutability": "view",
      "type": "function"
    },
    {
      "inputs": [],
      "name": "name",
      "outputs": [
        {
          "internalType": "string",
          "name": "",
          "type": "string"
        }
      ],
      "stateMutability": "view",
      "type": "function"
    },
    {
      "inputs": [
        {
          "internalType": "address",
          "name": "owner",
          "type": "address"
        }
      ],
      "name": "nonces",
      "outputs": [
        {
          "internalType": "uint256",
          "name": "",
          "type": "uint256"
        }
      ],
      "stateMutability": "view",
      "type": "function"
    },
    {
      "inputs": [],
      "name": "pause",
      "outputs": [],
      "stateMutability": "nonpayable",
      "type": "function"
    },
    {
      "inputs": [],
      "name": "paused",
      "outputs": [
        {
          "internalType": "bool",
          "name": "",
          "type": "bool"
        }
      ],
      "stateMutability": "view",
      "type": "function"
    },
    {
      "inputs": [
        {
          "internalType": "address",
          "name": "owner",
          "type": "address"
        },
        {
          "internalType": "address",
          "name": "spender",
          "type": "address"
        },
        {
          "internalType": "uint256",
          "name": "value",
          "type": "uint256"
        },
        {
          "internalType": "uint256",
          "name": "deadline",
          "type": "uint256"
        },
        {
          "internalType": "uint8",
          "name": "v",
          "type": "uint8"
        },
        {
          "internalType": "bytes32",
          "name": "r",
          "type": "bytes32"
        },
        {
          "internalType": "bytes32",
          "name": "s",
          "type": "bytes32"
        }
      ],
      "name": "permit",
      "outputs": [],
      "stateMutability": "nonpayable",
      "type": "function"
    },
    {
      "inputs": [
        {
          "internalType": "bytes32",
          "name": "role",
          "type": "bytes32"
        },
        {
          "internalType": "address",
          "name": "account",
          "type": "address"
        }
      ],
      "name": "renounceRole",
      "outputs": [],
      "stateMutability": "nonpayable",
      "type": "function"
    },
    {
      "inputs": [
        {
          "internalType": "bytes32",
          "name": "role",
          "type": "bytes32"
        },
        {
          "internalType": "address",
          "name": "account",
          "type": "address"
        }
      ],
      "name": "revokeRole",
      "outputs": [],
      "stateMutability": "nonpayable",
      "type": "function"
    },
    {
      "inputs": [
        {
          "internalType": "bytes4",
          "name": "interfaceId",
          "type": "bytes4"
        }
      ],
      "name": "supportsInterface",
      "outputs": [
        {
          "internalType": "bool",
          "name": "",
          "type": "bool"
        }
      ],
      "stateMutability": "view",
      "type": "function"
    },
    {
      "inputs": [],
      "name": "symbol",
      "outputs": [
        {
          "internalType": "string",
          "name": "",
          "type": "string"
        }
      ],
      "stateMutability": "view",
      "type": "function"
    },
    {
      "inputs": [],
      "name": "totalSupply",
      "outputs": [
        {
          "internalType": "uint256",
          "name": "",
          "type": "uint256"
        }
      ],
      "stateMutability": "view",
      "type": "function"
    },
    {
      "inputs": [
        {
          "internalType": "address",
          "name": "to",
          "type": "address"
        },
        {
          "internalType": "uint256",
          "name": "amount",
          "type": "uint256"
        }
      ],
      "name": "transfer",
      "outputs": [
        {
          "internalType": "bool",
          "name": "",
          "type": "bool"
        }
      ],
      "stateMutability": "nonpayable",
      "type": "function"
    },
    {
      "inputs": [
        {
          "internalType": "address",
          "name": "from",
          "type": "address"
        },
        {
          "internalType": "address",
          "name": "to",
          "type": "address"
        },
        {
          "internalType": "uint256",
          "name": "amount",
          "type": "uint256"
        }
      ],
      "name": "transferFrom",
      "outputs": [
        {
          "internalType": "bool",
          "name": "",
          "type": "bool"
        }
      ],
      "stateMutability": "nonpayable",
      "type": "function"
    },
    {
      "inputs": [],
      "name": "unpause",
      "outputs": [],
      "stateMutability": "nonpayable",
      "type": "function"
    }
  ],
  "bytecode": "0x608060405234801561001057600080fd5b50613d2f806100206000396000f3fe608060405234801561001057600080fd5b50600436106101cf5760003560e01c80636e810b1a11610104578063a217fddf116100a2578063b6db75a011610071578063b6db75a014610532578063d505accf14610550578063d547741f1461056c578063dd62ed3e14610588576101cf565b8063a217fddf14610496578063a457c2d7146104b4578063a9059cbb146104e4578063aeabaff314610514576101cf565b80638129fc1c116100de5780638129fc1c146104345780638456cb591461043e57806391d148541461044857806395d89b4114610478576101cf565b80636e810b1a146103b857806370a08231146103d45780637ecebe0014610404576101cf565b80632f2ff15d1161017157806336568abe1161014b57806336568abe1461034457806339509351146103605780633f4ba83a146103905780635c975abb1461039a576101cf565b80632f2ff15d146102ec578063313ce567146103085780633644e51514610326576101cf565b806318160ddd116101ad57806318160ddd1461025257806319ab453c1461027057806323b872dd1461028c578063248a9ca3146102bc576101cf565b806301ffc9a7146101d457806306fdde0314610204578063095ea7b314610222575b600080fd5b6101ee60048036038101906101e9919061267e565b6105b8565b6040516101fb91906126c6565b60405180910390f35b61020c610632565b6040516102199190612771565b60405180910390f35b61023c60048036038101906102379190612827565b6106c4565b60405161024991906126c6565b60405180910390f35b61025a6106e7565b6040516102679190612876565b60405180910390f35b61028a60048036038101906102859190612891565b6106f1565b005b6102a660048036038101906102a191906128be565b6107a5565b6040516102b391906126c6565b60405180910390f35b6102d660048036038101906102d19190612947565b6107d4565b6040516102e39190612983565b60405180910390f35b6103066004803603810190610301919061299e565b6107f5565b005b610310610816565b60405161031d91906129fa565b60405180910390f35b61032e61081f565b60405161033b9190612983565b60405180910390f35b61035e6004803603810190610359919061299e565b61082e565b005b61037a60048036038101906103759190612827565b6108b1565b60405161038791906126c6565b60405180910390f35b6103986108e8565b005b6103a2610939565b6040516103af91906126c6565b60405180910390f35b6103d260048036038101906103cd9190612891565b610950565b005b6103ee60048036038101906103e99190612891565b610a72565b6040516103fb9190612876565b60405180910390f35b61041e60048036038101906104199190612891565b610abb565b60405161042b9190612876565b60405180910390f35b61043c610b0b565b005b610446610d03565b005b610462600480360381019061045d919061299e565b610d54565b60405161046f91906126c6565b60405180910390f35b610480610dc0565b60405161048d9190612771565b60405180910390f35b61049e610e52565b6040516104ab9190612983565b60405180910390f35b6104ce60048036038101906104c99190612827565b610e59565b6040516104db91906126c6565b60405180910390f35b6104fe60048036038101906104f99190612827565b610ed0565b60405161050b91906126c6565b60405180910390f35b61051c610ef3565b60405161052991906126c6565b60405180910390f35b61053a610f12565b60405161054791906126c6565b60405180910390f35b61056a60048036038101906105659190612a41565b610f31565b005b6105866004803603810190610581919061299e565b611073565b005b6105a2600480360381019061059d9190612ae3565b611094565b6040516105af9190612876565b60405180910390f35b60007f7965db0b000000000000000000000000000000000000000000000000000000007bffffffffffffffffffffffffffffffffffffffffffffffffffffffff1916827bffffffffffffffffffffffffffffffffffffffffffffffffffffffff1916148061062b575061062a8261111b565b5b9050919050565b60606036805461064190612b52565b80601f016020809104026020016040519081016040528092919081815260200182805461066d90612b52565b80156106ba5780601f1061068f576101008083540402835291602001916106ba565b820191906000526020600020905b81548152906001019060200180831161069d57829003601f168201915b5050505050905090565b6000806106cf611185565b90506106dc81858561118d565b600191505092915050565b6000603554905090565b6106f9610f12565b610738576040517f08c379a000000000000000000000000000000000000000000000000000000000815260040161072f90612bf5565b60405180910390fd5b6000610194541115610776576040517f19389a4700000000000000000000000000000000000000000000000000000000815260040160405180910390fd5b6101946000815461078690612c44565b919050819055506107a2816a52b7d2dcc80cd2e4000000611356565b50565b6000806107b0611185565b90506107bd8582856114ad565b6107c8858585611539565b60019150509392505050565b60006101306000838152602001908152602001600020600101549050919050565b6107fe826107d4565b610807816117b2565b61081183836117c6565b505050565b60006012905090565b60006108296118a8565b905090565b610836611185565b73ffffffffffffffffffffffffffffffffffffffff168173ffffffffffffffffffffffffffffffffffffffff16146108a3576040517f08c379a000000000000000000000000000000000000000000000000000000000815260040161089a90612cfe565b60405180910390fd5b6108ad82826118e8565b5050565b6000806108bc611185565b90506108dd8185856108ce8589611094565b6108d89190612d1e565b61118d565b600191505092915050565b6108f0610f12565b61092f576040517f08c379a000000000000000000000000000000000000000000000000000000000815260040161092690612bf5565b60405180910390fd5b6109376119cb565b565b600060cc60009054906101000a900460ff16905090565b600060019054906101000a900460ff1661099f576040517f08c379a000000000000000000000000000000000000000000000000000000000815260040161099690612dc4565b60405180910390fd5b600073ffffffffffffffffffffffffffffffffffffffff168173ffffffffffffffffffffffffffffffffffffffff1603610a05576040517f5415139400000000000000000000000000000000000000000000000000000000815260040160405180910390fd5b610a0d611a2e565b610a15611a87565b610a1d611ad8565b610a2e610a28611b31565b826117c6565b610a3f610a39611b59565b826117c6565b610a57610a4a611b59565b610a52611b31565b611b81565b610a6f610a62611b31565b610a6a611b31565b611b81565b50565b6000603360008373ffffffffffffffffffffffffffffffffffffffff1673ffffffffffffffffffffffffffffffffffffffff168152602001908152602001600020549050919050565b6000610b04609960008473ffffffffffffffffffffffffffffffffffffffff1673ffffffffffffffffffffffffffffffffffffffff168152602001908152602001600020611bde565b9050919050565b60008060019054906101000a900460ff16159050808015610b3c5750600160008054906101000a900460ff1660ff16105b80610b695750610b4b30611bec565b158015610b685750600160008054906101000a900460ff1660ff16145b5b610ba8576040517f08c379a0000000000000000000000000000000000000000000000000000000008152600401610b9f90612e56565b60405180910390fd5b60016000806101000a81548160ff021916908360ff1602179055508015610be5576001600060016101000a81548160ff0219169083151502179055505b610c596040518060400160405280600981526020017f47656e5a204c61627300000000000000000000000000000000000000000000008152506040518060400160405280600481526020017f47454e5a00000000000000000000000000000000000000000000000000000000815250611c0f565b610c976040518060400160405280600481526020017f47454e5a00000000000000000000000000000000000000000000000000000000815250611c6c565b610ca7610ca2611185565b610950565b8015610d005760008060016101000a81548160ff0219169083151502179055507f7f26b83ff96e1f2b6a682f133852f6798a09c465da95921460cefb38474024986001604051610cf79190612ebb565b60405180910390a15b50565b610d0b610f12565b610d4a576040517f08c379a0000000000000000000000000000000000000000000000000000000008152600401610d4190612bf5565b60405180910390fd5b610d52611cfd565b565b6000610130600084815260200190815260200160002060000160008373ffffffffffffffffffffffffffffffffffffffff1673ffffffffffffffffffffffffffffffffffffffff16815260200190815260200160002060009054906101000a900460ff16905092915050565b606060378054610dcf90612b52565b80601f0160208091040260200160405190810160405280929190818152602001828054610dfb90612b52565b8015610e485780601f10610e1d57610100808354040283529160200191610e48565b820191906000526020600020905b815481529060010190602001808311610e2b57829003601f168201915b5050505050905090565b6000801b81565b600080610e64611185565b90506000610e728286611094565b905083811015610eb7576040517f08c379a0000000000000000000000000000000000000000000000000000000008152600401610eae90612f48565b60405180910390fd5b610ec4828686840361118d565b60019250505092915050565b600080610edb611185565b9050610ee8818585611539565b600191505092915050565b6000610f0d610f00611b59565b610f08611185565b610d54565b905090565b6000610f2c610f1f611b31565b610f27611185565b610d54565b905090565b83421115610f74576040517f08c379a0000000000000000000000000000000000000000000000000000000008152600401610f6b90612fb4565b60405180910390fd5b60007f6e71edae12b1b97f4d1f60370fef10105fa2faae0126114a169c64845d6126c9888888610fa38c611d60565b89604051602001610fb996959493929190612fe3565b6040516020818303038152906040528051906020012090506000610fdc82611dbe565b90506000610fec82878787611dd8565b90508973ffffffffffffffffffffffffffffffffffffffff168173ffffffffffffffffffffffffffffffffffffffff161461105c576040517f08c379a000000000000000000000000000000000000000000000000000000000815260040161105390613090565b60405180910390fd5b6110678a8a8a61118d565b50505050505050505050565b61107c826107d4565b611085816117b2565b61108f83836118e8565b505050565b6000603460008473ffffffffffffffffffffffffffffffffffffffff1673ffffffffffffffffffffffffffffffffffffffff16815260200190815260200160002060008373ffffffffffffffffffffffffffffffffffffffff1673ffffffffffffffffffffffffffffffffffffffff16815260200190815260200160002054905092915050565b60007f01ffc9a7000000000000000000000000000000000000000000000000000000007bffffffffffffffffffffffffffffffffffffffffffffffffffffffff1916827bffffffffffffffffffffffffffffffffffffffffffffffffffffffff1916149050919050565b600033905090565b600073ffffffffffffffffffffffffffffffffffffffff168373ffffffffffffffffffffffffffffffffffffffff16036111fc576040517f08c379a00000000000000000000000000000000000000000000000000000000081526004016111f390613122565b60405180910390fd5b600073ffffffffffffffffffffffffffffffffffffffff168273ffffffffffffffffffffffffffffffffffffffff160361126b576040517f08c379a0000000000000000000000000000000000000000000000000000000008152600401611262906131b4565b60405180910390fd5b80603460008573ffffffffffffffffffffffffffffffffffffffff1673ffffffffffffffffffffffffffffffffffffffff16815260200190815260200160002060008473ffffffffffffffffffffffffffffffffffffffff1673ffffffffffffffffffffffffffffffffffffffff168152602001908152602001600020819055508173ffffffffffffffffffffffffffffffffffffffff168373ffffffffffffffffffffffffffffffffffffffff167f8c5be1e5ebec7d5bd14f71427d1e84f3dd0314c0f7b2291e5b200ac8c7c3b925836040516113499190612876565b60405180910390a3505050565b600073ffffffffffffffffffffffffffffffffffffffff168273ffffffffffffffffffffffffffffffffffffffff16036113c5576040517f08c379a00000000000000000000000000000000000000000000000000000000081526004016113bc90613220565b60405180910390fd5b6113d160008383611e03565b80603560008282546113e39190612d1e565b9250508190555080603360008473ffffffffffffffffffffffffffffffffffffffff1673ffffffffffffffffffffffffffffffffffffffff168152602001908152602001600020600082825401925050819055508173ffffffffffffffffffffffffffffffffffffffff16600073ffffffffffffffffffffffffffffffffffffffff167fddf252ad1be2c89b69c2b068fc378daa952ba7f163c4a11628f55a4df523b3ef836040516114959190612876565b60405180910390a36114a960008383611e08565b5050565b60006114b98484611094565b90507fffffffffffffffffffffffffffffffffffffffffffffffffffffffffffffffff81146115335781811015611525576040517f08c379a000000000000000000000000000000000000000000000000000000000815260040161151c9061328c565b60405180910390fd5b611532848484840361118d565b5b50505050565b600073ffffffffffffffffffffffffffffffffffffffff168373ffffffffffffffffffffffffffffffffffffffff16036115a8576040517f08c379a000000000000000000000000000000000000000000000000000000000815260040161159f9061331e565b60405180910390fd5b600073ffffffffffffffffffffffffffffffffffffffff168273ffffffffffffffffffffffffffffffffffffffff1603611617576040517f08c379a000000000000000000000000000000000000000000000000000000000815260040161160e906133b0565b60405180910390fd5b611622838383611e03565b6000603360008573ffffffffffffffffffffffffffffffffffffffff1673ffffffffffffffffffffffffffffffffffffffff168152602001908152602001600020549050818110156116a9576040517f08c379a00000000000000000000000000000000000000000000000000000000081526004016116a090613442565b60405180910390fd5b818103603360008673ffffffffffffffffffffffffffffffffffffffff1673ffffffffffffffffffffffffffffffffffffffff1681526020019081526020016000208190555081603360008573ffffffffffffffffffffffffffffffffffffffff1673ffffffffffffffffffffffffffffffffffffffff168152602001908152602001600020600082825401925050819055508273ffffffffffffffffffffffffffffffffffffffff168473ffffffffffffffffffffffffffffffffffffffff167fddf252ad1be2c89b69c2b068fc378daa952ba7f163c4a11628f55a4df523b3ef846040516117999190612876565b60405180910390a36117ac848484611e08565b50505050565b6117c3816117be611185565b611e0d565b50565b6117d08282610d54565b6118a4576001610130600084815260200190815260200160002060000160008373ffffffffffffffffffffffffffffffffffffffff1673ffffffffffffffffffffffffffffffffffffffff16815260200190815260200160002060006101000a81548160ff021916908315150217905550611849611185565b73ffffffffffffffffffffffffffffffffffffffff168173ffffffffffffffffffffffffffffffffffffffff16837f2f8788117e7eff1d82e926ec794901d17c78024a50270940304540a733656f0d60405160405180910390a45b5050565b60006118e37f8b73c3c69bb8fe3d512ecc4cf759cc79239f7b179b0ffacaa9a75d522b39400f6118d6611e92565b6118de611e9c565b611ea6565b905090565b6118f28282610d54565b156119c7576000610130600084815260200190815260200160002060000160008373ffffffffffffffffffffffffffffffffffffffff1673ffffffffffffffffffffffffffffffffffffffff16815260200190815260200160002060006101000a81548160ff02191690831515021790555061196c611185565b73ffffffffffffffffffffffffffffffffffffffff168173ffffffffffffffffffffffffffffffffffffffff16837ff6391f5c32d9c69d2a47ea670b442974b53935d1edc7fd64eb21e047a839171b60405160405180910390a45b5050565b6119d3611ee0565b600060cc60006101000a81548160ff0219169083151502179055507f5db9ee0a495bf2e6ff9c91a7834c1ba4fdd244a5e8aa4e537bd38aeae4b073aa611a17611185565b604051611a249190613462565b60405180910390a1565b600060019054906101000a900460ff16611a7d576040517f08c379a0000000000000000000000000000000000000000000000000000000008152600401611a7490612dc4565b60405180910390fd5b611a85611f29565b565b600060019054906101000a900460ff16611ad6576040517f08c379a0000000000000000000000000000000000000000000000000000000008152600401611acd90612dc4565b60405180910390fd5b565b600060019054906101000a900460ff16611b27576040517f08c379a0000000000000000000000000000000000000000000000000000000008152600401611b1e90612dc4565b60405180910390fd5b611b2f611f95565b565b60007fa49807205ce4d355092ef5a8a18f56e8913cf4a201fbe287825b095693c21775905090565b60007f65d7a28e3265b37a6474929f336521b332c1681b933f6cb9f3376673440d862a905090565b6000611b8c836107d4565b9050816101306000858152602001908152602001600020600101819055508181847fbd79b86ffe0ab8e8776151514217cd7cacd52c909f66475c3af44e129f0b00ff60405160405180910390a4505050565b600081600001549050919050565b6000808273ffffffffffffffffffffffffffffffffffffffff163b119050919050565b600060019054906101000a900460ff16611c5e576040517f08c379a0000000000000000000000000000000000000000000000000000000008152600401611c5590612dc4565b60405180910390fd5b611c688282611fef565b5050565b600060019054906101000a900460ff16611cbb576040517f08c379a0000000000000000000000000000000000000000000000000000000008152600401611cb290612dc4565b60405180910390fd5b611cfa816040518060400160405280600181526020017f3100000000000000000000000000000000000000000000000000000000000000815250612062565b50565b611d056120dd565b600160cc60006101000a81548160ff0219169083151502179055507f62e78cea01bee320cd4e420270b5ea74000d11b0c9f74754ebdbfc544b05a258611d49611185565b604051611d569190613462565b60405180910390a1565b600080609960008473ffffffffffffffffffffffffffffffffffffffff1673ffffffffffffffffffffffffffffffffffffffff1681526020019081526020016000209050611dad81611bde565b9150611db881612127565b50919050565b6000611dd1611dcb6118a8565b8361213d565b9050919050565b6000806000611de987878787612170565b91509150611df681612252565b8192505050949350505050565b505050565b505050565b611e178282610d54565b611e8e57611e24816123b8565b611e328360001c60206123e5565b604051602001611e43929190613551565b6040516020818303038152906040526040517f08c379a0000000000000000000000000000000000000000000000000000000008152600401611e859190612771565b60405180910390fd5b5050565b6000606554905090565b6000606654905090565b60008383834630604051602001611ec195949392919061358b565b6040516020818303038152906040528051906020012090509392505050565b611ee8610939565b611f27576040517f08c379a0000000000000000000000000000000000000000000000000000000008152600401611f1e9061362a565b60405180910390fd5b565b600060019054906101000a900460ff16611f78576040517f08c379a0000000000000000000000000000000000000000000000000000000008152600401611f6f90612dc4565b60405180910390fd5b600060cc60006101000a81548160ff021916908315150217905550565b600060019054906101000a900460ff16611fe4576040517f08c379a0000000000000000000000000000000000000000000000000000000008152600401611fdb90612dc4565b60405180910390fd5b600161016281905550565b600060019054906101000a900460ff1661203e576040517f08c379a000000000000000000000000000000000000000000000000000000000815260040161203590612dc4565b60405180910390fd5b816036908161204d919061381b565b50806037908161205d919061381b565b505050565b600060019054906101000a900460ff166120b1576040517f08c379a00000000000000000000000000000000000000000000000000000000081526004016120a890612dc4565b60405180910390fd5b600082805190602001209050600082805190602001209050816065819055508060668190555050505050565b6120e5610939565b15612125576040517f08c379a000000000000000000000000000000000000000000000000000000000815260040161211c90613939565b60405180910390fd5b565b6001816000016000828254019250508190555050565b600082826040516020016121529291906139c6565b60405160208183030381529060405280519060200120905092915050565b6000807f7fffffffffffffffffffffffffffffff5d576e7357a4501ddfe92f46681b20a08360001c11156121ab576000600391509150612249565b6000600187878787604051600081526020016040526040516121d094939291906139fd565b6020604051602081039080840390855afa1580156121f2573d6000803e3d6000fd5b505050602060405103519050600073ffffffffffffffffffffffffffffffffffffffff168173ffffffffffffffffffffffffffffffffffffffff160361224057600060019250925050612249565b80600092509250505b94509492505050565b6000600481111561226657612265613a42565b5b81600481111561227957612278613a42565b5b03156123b5576001600481111561229357612292613a42565b5b8160048111156122a6576122a5613a42565b5b036122e6576040517f08c379a00000000000000000000000000000000000000000000000000000000081526004016122dd90613abd565b60405180910390fd5b600260048111156122fa576122f9613a42565b5b81600481111561230d5761230c613a42565b5b0361234d576040517f08c379a000000000000000000000000000000000000000000000000000000000815260040161234490613b29565b60405180910390fd5b6003600481111561236157612360613a42565b5b81600481111561237457612373613a42565b5b036123b4576040517f08c379a00000000000000000000000000000000000000000000000000000000081526004016123ab90613bbb565b60405180910390fd5b5b50565b60606123de8273ffffffffffffffffffffffffffffffffffffffff16601460ff166123e5565b9050919050565b6060600060028360026123f89190613bdb565b6124029190612d1e565b67ffffffffffffffff81111561241b5761241a61364a565b5b6040519080825280601f01601f19166020018201604052801561244d5781602001600182028036833780820191505090505b5090507f30000000000000000000000000000000000000000000000000000000000000008160008151811061248557612484613c35565b5b60200101907effffffffffffffffffffffffffffffffffffffffffffffffffffffffffffff1916908160001a9053507f7800000000000000000000000000000000000000000000000000000000000000816001815181106124e9576124e8613c35565b5b60200101907effffffffffffffffffffffffffffffffffffffffffffffffffffffffffffff1916908160001a905350600060018460026125299190613bdb565b6125339190612d1e565b90505b60018111156125d3577f3031323334353637383961626364656600000000000000000000000000000000600f86166010811061257557612574613c35565b5b1a60f81b82828151811061258c5761258b613c35565b5b60200101907effffffffffffffffffffffffffffffffffffffffffffffffffffffffffffff1916908160001a905350600485901c9450806125cc90613c64565b9050612536565b5060008414612617576040517f08c379a000000000000000000000000000000000000000000000000000000000815260040161260e90613cd9565b60405180910390fd5b8091505092915050565b600080fd5b60007fffffffff0000000000000000000000000000000000000000000000000000000082169050919050565b61265b81612626565b811461266657600080fd5b50565b60008135905061267881612652565b92915050565b60006020828403121561269457612693612621565b5b60006126a284828501612669565b91505092915050565b60008115159050919050565b6126c0816126ab565b82525050565b60006020820190506126db60008301846126b7565b92915050565b600081519050919050565b600082825260208201905092915050565b60005b8381101561271b578082015181840152602081019050612700565b60008484015250505050565b6000601f19601f8301169050919050565b6000612743826126e1565b61274d81856126ec565b935061275d8185602086016126fd565b61276681612727565b840191505092915050565b6000602082019050818103600083015261278b8184612738565b905092915050565b600073ffffffffffffffffffffffffffffffffffffffff82169050919050565b60006127be82612793565b9050919050565b6127ce816127b3565b81146127d957600080fd5b50565b6000813590506127eb816127c5565b92915050565b6000819050919050565b612804816127f1565b811461280f57600080fd5b50565b600081359050612821816127fb565b92915050565b6000806040838503121561283e5761283d612621565b5b600061284c858286016127dc565b925050602061285d85828601612812565b9150509250929050565b612870816127f1565b82525050565b600060208201905061288b6000830184612867565b92915050565b6000602082840312156128a7576128a6612621565b5b60006128b5848285016127dc565b91505092915050565b6000806000606084860312156128d7576128d6612621565b5b60006128e5868287016127dc565b93505060206128f6868287016127dc565b925050604061290786828701612812565b9150509250925092565b6000819050919050565b61292481612911565b811461292f57600080fd5b50565b6000813590506129418161291b565b92915050565b60006020828403121561295d5761295c612621565b5b600061296b84828501612932565b91505092915050565b61297d81612911565b82525050565b60006020820190506129986000830184612974565b92915050565b600080604083850312156129b5576129b4612621565b5b60006129c385828601612932565b92505060206129d4858286016127dc565b9150509250929050565b600060ff82169050919050565b6129f4816129de565b82525050565b6000602082019050612a0f60008301846129eb565b92915050565b612a1e816129de565b8114612a2957600080fd5b50565b600081359050612a3b81612a15565b92915050565b600080600080600080600060e0888a031215612a6057612a5f612621565b5b6000612a6e8a828b016127dc565b9750506020612a7f8a828b016127dc565b9650506040612a908a828b01612812565b9550506060612aa18a828b01612812565b9450506080612ab28a828b01612a2c565b93505060a0612ac38a828b01612932565b92505060c0612ad48a828b01612932565b91505092959891949750929550565b60008060408385031215612afa57612af9612621565b5b6000612b08858286016127dc565b9250506020612b19858286016127dc565b9150509250929050565b7f4e487b7100000000000000000000000000000000000000000000000000000000600052602260045260246000fd5b60006002820490506001821680612b6a57607f821691505b602082108103612b7d57612b7c612b23565b5b50919050565b7f4d75737420686176652061646d696e20726f6c6520746f20706572666f726d2060008201527f7468697320616374696f6e2e0000000000000000000000000000000000000000602082015250565b6000612bdf602c836126ec565b9150612bea82612b83565b604082019050919050565b60006020820190508181036000830152612c0e81612bd2565b9050919050565b7f4e487b7100000000000000000000000000000000000000000000000000000000600052601160045260246000fd5b6000612c4f826127f1565b91507fffffffffffffffffffffffffffffffffffffffffffffffffffffffffffffffff8203612c8157612c80612c15565b5b600182019050919050565b7f416363657373436f6e74726f6c3a2063616e206f6e6c792072656e6f756e636560008201527f20726f6c657320666f722073656c660000000000000000000000000000000000602082015250565b6000612ce8602f836126ec565b9150612cf382612c8c565b604082019050919050565b60006020820190508181036000830152612d1781612cdb565b9050919050565b6000612d29826127f1565b9150612d34836127f1565b9250828201905080821115612d4c57612d4b612c15565b5b92915050565b7f496e697469616c697a61626c653a20636f6e7472616374206973206e6f74206960008201527f6e697469616c697a696e67000000000000000000000000000000000000000000602082015250565b6000612dae602b836126ec565b9150612db982612d52565b604082019050919050565b60006020820190508181036000830152612ddd81612da1565b9050919050565b7f496e697469616c697a61626c653a20636f6e747261637420697320616c72656160008201527f647920696e697469616c697a6564000000000000000000000000000000000000602082015250565b6000612e40602e836126ec565b9150612e4b82612de4565b604082019050919050565b60006020820190508181036000830152612e6f81612e33565b9050919050565b6000819050919050565b6000819050919050565b6000612ea5612ea0612e9b84612e76565b612e80565b6129de565b9050919050565b612eb581612e8a565b82525050565b6000602082019050612ed06000830184612eac565b92915050565b7f45524332303a2064656372656173656420616c6c6f77616e63652062656c6f7760008201527f207a65726f000000000000000000000000000000000000000000000000000000602082015250565b6000612f326025836126ec565b9150612f3d82612ed6565b604082019050919050565b60006020820190508181036000830152612f6181612f25565b9050919050565b7f45524332305065726d69743a206578706972656420646561646c696e65000000600082015250565b6000612f9e601d836126ec565b9150612fa982612f68565b602082019050919050565b60006020820190508181036000830152612fcd81612f91565b9050919050565b612fdd816127b3565b82525050565b600060c082019050612ff86000830189612974565b6130056020830188612fd4565b6130126040830187612fd4565b61301f6060830186612867565b61302c6080830185612867565b61303960a0830184612867565b979650505050505050565b7f45524332305065726d69743a20696e76616c6964207369676e61747572650000600082015250565b600061307a601e836126ec565b915061308582613044565b602082019050919050565b600060208201905081810360008301526130a98161306d565b9050919050565b7f45524332303a20617070726f76652066726f6d20746865207a65726f2061646460008201527f7265737300000000000000000000000000000000000000000000000000000000602082015250565b600061310c6024836126ec565b9150613117826130b0565b604082019050919050565b6000602082019050818103600083015261313b816130ff565b9050919050565b7f45524332303a20617070726f766520746f20746865207a65726f20616464726560008201527f7373000000000000000000000000000000000000000000000000000000000000602082015250565b600061319e6022836126ec565b91506131a982613142565b604082019050919050565b600060208201905081810360008301526131cd81613191565b9050919050565b7f45524332303a206d696e7420746f20746865207a65726f206164647265737300600082015250565b600061320a601f836126ec565b9150613215826131d4565b602082019050919050565b60006020820190508181036000830152613239816131fd565b9050919050565b7f45524332303a20696e73756666696369656e7420616c6c6f77616e6365000000600082015250565b6000613276601d836126ec565b915061328182613240565b602082019050919050565b600060208201905081810360008301526132a581613269565b9050919050565b7f45524332303a207472616e736665722066726f6d20746865207a65726f20616460008201527f6472657373000000000000000000000000000000000000000000000000000000602082015250565b60006133086025836126ec565b9150613313826132ac565b604082019050919050565b60006020820190508181036000830152613337816132fb565b9050919050565b7f45524332303a207472616e7366657220746f20746865207a65726f206164647260008201527f6573730000000000000000000000000000000000000000000000000000000000602082015250565b600061339a6023836126ec565b91506133a58261333e565b604082019050919050565b600060208201905081810360008301526133c98161338d565b9050919050565b7f45524332303a207472616e7366657220616d6f756e742065786365656473206260008201527f616c616e63650000000000000000000000000000000000000000000000000000602082015250565b600061342c6026836126ec565b9150613437826133d0565b604082019050919050565b6000602082019050818103600083015261345b8161341f565b9050919050565b60006020820190506134776000830184612fd4565b92915050565b600081905092915050565b7f416363657373436f6e74726f6c3a206163636f756e7420000000000000000000600082015250565b60006134be60178361347d565b91506134c982613488565b601782019050919050565b60006134df826126e1565b6134e9818561347d565b93506134f98185602086016126fd565b80840191505092915050565b7f206973206d697373696e6720726f6c6520000000000000000000000000000000600082015250565b600061353b60118361347d565b915061354682613505565b601182019050919050565b600061355c826134b1565b915061356882856134d4565b91506135738261352e565b915061357f82846134d4565b91508190509392505050565b600060a0820190506135a06000830188612974565b6135ad6020830187612974565b6135ba6040830186612974565b6135c76060830185612867565b6135d46080830184612fd4565b9695505050505050565b7f5061757361626c653a206e6f7420706175736564000000000000000000000000600082015250565b60006136146014836126ec565b915061361f826135de565b602082019050919050565b6000602082019050818103600083015261364381613607565b9050919050565b7f4e487b7100000000000000000000000000000000000000000000000000000000600052604160045260246000fd5b60008190508160005260206000209050919050565b60006020601f8301049050919050565b600082821b905092915050565b6000600883026136db7fffffffffffffffffffffffffffffffffffffffffffffffffffffffffffffffff8261369e565b6136e5868361369e565b95508019841693508086168417925050509392505050565b600061371861371361370e846127f1565b612e80565b6127f1565b9050919050565b6000819050919050565b613732836136fd565b61374661373e8261371f565b8484546136ab565b825550505050565b600090565b61375b61374e565b613766818484613729565b505050565b5b8181101561378a5761377f600082613753565b60018101905061376c565b5050565b601f8211156137cf576137a081613679565b6137a98461368e565b810160208510156137b8578190505b6137cc6137c48561368e565b83018261376b565b50505b505050565b600082821c905092915050565b60006137f2600019846008026137d4565b1980831691505092915050565b600061380b83836137e1565b9150826002028217905092915050565b613824826126e1565b67ffffffffffffffff81111561383d5761383c61364a565b5b6138478254612b52565b61385282828561378e565b600060209050601f8311600181146138855760008415613873578287015190505b61387d85826137ff565b8655506138e5565b601f19841661389386613679565b60005b828110156138bb57848901518255600182019150602085019450602081019050613896565b868310156138d857848901516138d4601f8916826137e1565b8355505b6001600288020188555050505b505050505050565b7f5061757361626c653a2070617573656400000000000000000000000000000000600082015250565b60006139236010836126ec565b915061392e826138ed565b602082019050919050565b6000602082019050818103600083015261395281613916565b9050919050565b7f1901000000000000000000000000000000000000000000000000000000000000600082015250565b600061398f60028361347d565b915061399a82613959565b600282019050919050565b6000819050919050565b6139c06139bb82612911565b6139a5565b82525050565b60006139d182613982565b91506139dd82856139af565b6020820191506139ed82846139af565b6020820191508190509392505050565b6000608082019050613a126000830187612974565b613a1f60208301866129eb565b613a2c6040830185612974565b613a396060830184612974565b95945050505050565b7f4e487b7100000000000000000000000000000000000000000000000000000000600052602160045260246000fd5b7f45434453413a20696e76616c6964207369676e61747572650000000000000000600082015250565b6000613aa76018836126ec565b9150613ab282613a71565b602082019050919050565b60006020820190508181036000830152613ad681613a9a565b9050919050565b7f45434453413a20696e76616c6964207369676e6174757265206c656e67746800600082015250565b6000613b13601f836126ec565b9150613b1e82613add565b602082019050919050565b60006020820190508181036000830152613b4281613b06565b9050919050565b7f45434453413a20696e76616c6964207369676e6174757265202773272076616c60008201527f7565000000000000000000000000000000000000000000000000000000000000602082015250565b6000613ba56022836126ec565b9150613bb082613b49565b604082019050919050565b60006020820190508181036000830152613bd481613b98565b9050919050565b6000613be6826127f1565b9150613bf1836127f1565b9250817fffffffffffffffffffffffffffffffffffffffffffffffffffffffffffffffff0483118215151615613c2a57613c29612c15565b5b828202905092915050565b7f4e487b7100000000000000000000000000000000000000000000000000000000600052603260045260246000fd5b6000613c6f826127f1565b915060008203613c8257613c81612c15565b5b600182039050919050565b7f537472696e67733a20686578206c656e67746820696e73756666696369656e74600082015250565b6000613cc36020836126ec565b9150613cce82613c8d565b602082019050919050565b60006020820190508181036000830152613cf281613cb6565b905091905056fea264697066735822122086a0b4a74f794066bd481dd2c0ec3f065f5beada182763aba2812633c94d40d564736f6c63430008100033",
  "linkReferences": {},
  "deployedLinkReferences": {}
}