{
  "_format": "hh-sol-artifact-1",
  "contractName": "GENZ",
  "sourceName": "contracts/core/token/GENZERC20.sol",
  "abi": [
    {
      "inputs": [],
      "name": "BaseUpgradeablePausable__ZeroAddressError",
      "type": "error"
    },
    {
      "inputs": [],
      "name": "GENZ__ImmutableChangesError",
      "type": "error"
    },
    {
      "anonymous": false,
      "inputs": [
        {
          "indexed": true,
          "internalType": "address",
          "name": "owner",
          "type": "address"
        },
        {
          "indexed": true,
          "internalType": "address",
          "name": "spender",
          "type": "address"
        },
        {
          "indexed": false,
          "internalType": "uint256",
          "name": "value",
          "type": "uint256"
        }
      ],
      "name": "Approval",
      "type": "event"
    },
    {
      "anonymous": false,
      "inputs": [
        {
          "indexed": false,
          "internalType": "uint8",
          "name": "version",
          "type": "uint8"
        }
      ],
      "name": "Initialized",
      "type": "event"
    },
    {
      "anonymous": false,
      "inputs": [
        {
          "indexed": false,
          "internalType": "address",
          "name": "account",
          "type": "address"
        }
      ],
      "name": "Paused",
      "type": "event"
    },
    {
      "anonymous": false,
      "inputs": [
        {
          "indexed": true,
          "internalType": "bytes32",
          "name": "role",
          "type": "bytes32"
        },
        {
          "indexed": true,
          "internalType": "bytes32",
          "name": "previousAdminRole",
          "type": "bytes32"
        },
        {
          "indexed": true,
          "internalType": "bytes32",
          "name": "newAdminRole",
          "type": "bytes32"
        }
      ],
      "name": "RoleAdminChanged",
      "type": "event"
    },
    {
      "anonymous": false,
      "inputs": [
        {
          "indexed": true,
          "internalType": "bytes32",
          "name": "role",
          "type": "bytes32"
        },
        {
          "indexed": true,
          "internalType": "address",
          "name": "account",
          "type": "address"
        },
        {
          "indexed": true,
          "internalType": "address",
          "name": "sender",
          "type": "address"
        }
      ],
      "name": "RoleGranted",
      "type": "event"
    },
    {
      "anonymous": false,
      "inputs": [
        {
          "indexed": true,
          "internalType": "bytes32",
          "name": "role",
          "type": "bytes32"
        },
        {
          "indexed": true,
          "internalType": "address",
          "name": "account",
          "type": "address"
        },
        {
          "indexed": true,
          "internalType": "address",
          "name": "sender",
          "type": "address"
        }
      ],
      "name": "RoleRevoked",
      "type": "event"
    },
    {
      "anonymous": false,
      "inputs": [
        {
          "indexed": true,
          "internalType": "address",
          "name": "from",
          "type": "address"
        },
        {
          "indexed": true,
          "internalType": "address",
          "name": "to",
          "type": "address"
        },
        {
          "indexed": false,
          "internalType": "uint256",
          "name": "value",
          "type": "uint256"
        }
      ],
      "name": "Transfer",
      "type": "event"
    },
    {
      "anonymous": false,
      "inputs": [
        {
          "indexed": false,
          "internalType": "address",
          "name": "account",
          "type": "address"
        }
      ],
      "name": "Unpaused",
      "type": "event"
    },
    {
      "inputs": [],
      "name": "DEFAULT_ADMIN_ROLE",
      "outputs": [
        {
          "internalType": "bytes32",
          "name": "",
          "type": "bytes32"
        }
      ],
      "stateMutability": "view",
      "type": "function"
    },
    {
      "inputs": [],
      "name": "DOMAIN_SEPARATOR",
      "outputs": [
        {
          "internalType": "bytes32",
          "name": "",
          "type": "bytes32"
        }
      ],
      "stateMutability": "view",
      "type": "function"
    },
    {
      "inputs": [
        {
          "internalType": "address",
          "name": "owner",
          "type": "address"
        }
      ],
      "name": "__BaseUpgradeablePausable_init",
      "outputs": [],
      "stateMutability": "nonpayable",
      "type": "function"
    },
    {
      "inputs": [
        {
          "internalType": "address",
          "name": "owner",
          "type": "address"
        },
        {
          "internalType": "address",
          "name": "spender",
          "type": "address"
        }
      ],
      "name": "allowance",
      "outputs": [
        {
          "internalType": "uint256",
          "name": "",
          "type": "uint256"
        }
      ],
      "stateMutability": "view",
      "type": "function"
    },
    {
      "inputs": [
        {
          "internalType": "address",
          "name": "spender",
          "type": "address"
        },
        {
          "internalType": "uint256",
          "name": "amount",
          "type": "uint256"
        }
      ],
      "name": "approve",
      "outputs": [
        {
          "internalType": "bool",
          "name": "",
          "type": "bool"
        }
      ],
      "stateMutability": "nonpayable",
      "type": "function"
    },
    {
      "inputs": [
        {
          "internalType": "address",
          "name": "account",
          "type": "address"
        }
      ],
      "name": "balanceOf",
      "outputs": [
        {
          "internalType": "uint256",
          "name": "",
          "type": "uint256"
        }
      ],
      "stateMutability": "view",
      "type": "function"
    },
    {
      "inputs": [],
      "name": "decimals",
      "outputs": [
        {
          "internalType": "uint8",
          "name": "",
          "type": "uint8"
        }
      ],
      "stateMutability": "view",
      "type": "function"
    },
    {
      "inputs": [
        {
          "internalType": "address",
          "name": "spender",
          "type": "address"
        },
        {
          "internalType": "uint256",
          "name": "subtractedValue",
          "type": "uint256"
        }
      ],
      "name": "decreaseAllowance",
      "outputs": [
        {
          "internalType": "bool",
          "name": "",
          "type": "bool"
        }
      ],
      "stateMutability": "nonpayable",
      "type": "function"
    },
    {
      "inputs": [
        {
          "internalType": "bytes32",
          "name": "role",
          "type": "bytes32"
        }
      ],
      "name": "getRoleAdmin",
      "outputs": [
        {
          "internalType": "bytes32",
          "name": "",
          "type": "bytes32"
        }
      ],
      "stateMutability": "view",
      "type": "function"
    },
    {
      "inputs": [
        {
          "internalType": "bytes32",
          "name": "role",
          "type": "bytes32"
        },
        {
          "internalType": "address",
          "name": "account",
          "type": "address"
        }
      ],
      "name": "grantRole",
      "outputs": [],
      "stateMutability": "nonpayable",
      "type": "function"
    },
    {
      "inputs": [
        {
          "internalType": "bytes32",
          "name": "role",
          "type": "bytes32"
        },
        {
          "internalType": "address",
          "name": "account",
          "type": "address"
        }
      ],
      "name": "hasRole",
      "outputs": [
        {
          "internalType": "bool",
          "name": "",
          "type": "bool"
        }
      ],
      "stateMutability": "view",
      "type": "function"
    },
    {
      "inputs": [
        {
          "internalType": "address",
          "name": "spender",
          "type": "address"
        },
        {
          "internalType": "uint256",
          "name": "addedValue",
          "type": "uint256"
        }
      ],
      "name": "increaseAllowance",
      "outputs": [
        {
          "internalType": "bool",
          "name": "",
          "type": "bool"
        }
      ],
      "stateMutability": "nonpayable",
      "type": "function"
    },
    {
      "inputs": [
        {
          "internalType": "address",
          "name": "buyContract",
          "type": "address"
        }
      ],
      "name": "init",
      "outputs": [],
      "stateMutability": "nonpayable",
      "type": "function"
    },
    {
      "inputs": [],
      "name": "initialize",
      "outputs": [],
      "stateMutability": "nonpayable",
      "type": "function"
    },
    {
      "inputs": [],
      "name": "isAdmin",
      "outputs": [
        {
          "internalType": "bool",
          "name": "",
          "type": "bool"
        }
      ],
      "stateMutability": "view",
      "type": "function"
    },
    {
      "inputs": [],
      "name": "name",
      "outputs": [
        {
          "internalType": "string",
          "name": "",
          "type": "string"
        }
      ],
      "stateMutability": "view",
      "type": "function"
    },
    {
      "inputs": [
        {
          "internalType": "address",
          "name": "owner",
          "type": "address"
        }
      ],
      "name": "nonces",
      "outputs": [
        {
          "internalType": "uint256",
          "name": "",
          "type": "uint256"
        }
      ],
      "stateMutability": "view",
      "type": "function"
    },
    {
      "inputs": [],
      "name": "pause",
      "outputs": [],
      "stateMutability": "nonpayable",
      "type": "function"
    },
    {
      "inputs": [],
      "name": "paused",
      "outputs": [
        {
          "internalType": "bool",
          "name": "",
          "type": "bool"
        }
      ],
      "stateMutability": "view",
      "type": "function"
    },
    {
      "inputs": [
        {
          "internalType": "address",
          "name": "owner",
          "type": "address"
        },
        {
          "internalType": "address",
          "name": "spender",
          "type": "address"
        },
        {
          "internalType": "uint256",
          "name": "value",
          "type": "uint256"
        },
        {
          "internalType": "uint256",
          "name": "deadline",
          "type": "uint256"
        },
        {
          "internalType": "uint8",
          "name": "v",
          "type": "uint8"
        },
        {
          "internalType": "bytes32",
          "name": "r",
          "type": "bytes32"
        },
        {
          "internalType": "bytes32",
          "name": "s",
          "type": "bytes32"
        }
      ],
      "name": "permit",
      "outputs": [],
      "stateMutability": "nonpayable",
      "type": "function"
    },
    {
      "inputs": [
        {
          "internalType": "bytes32",
          "name": "role",
          "type": "bytes32"
        },
        {
          "internalType": "address",
          "name": "account",
          "type": "address"
        }
      ],
      "name": "renounceRole",
      "outputs": [],
      "stateMutability": "nonpayable",
      "type": "function"
    },
    {
      "inputs": [
        {
          "internalType": "bytes32",
          "name": "role",
          "type": "bytes32"
        },
        {
          "internalType": "address",
          "name": "account",
          "type": "address"
        }
      ],
      "name": "revokeRole",
      "outputs": [],
      "stateMutability": "nonpayable",
      "type": "function"
    },
    {
      "inputs": [
        {
          "internalType": "bytes4",
          "name": "interfaceId",
          "type": "bytes4"
        }
      ],
      "name": "supportsInterface",
      "outputs": [
        {
          "internalType": "bool",
          "name": "",
          "type": "bool"
        }
      ],
      "stateMutability": "view",
      "type": "function"
    },
    {
      "inputs": [],
      "name": "symbol",
      "outputs": [
        {
          "internalType": "string",
          "name": "",
          "type": "string"
        }
      ],
      "stateMutability": "view",
      "type": "function"
    },
    {
      "inputs": [],
      "name": "totalSupply",
      "outputs": [
        {
          "internalType": "uint256",
          "name": "",
          "type": "uint256"
        }
      ],
      "stateMutability": "view",
      "type": "function"
    },
    {
      "inputs": [
        {
          "internalType": "address",
          "name": "to",
          "type": "address"
        },
        {
          "internalType": "uint256",
          "name": "amount",
          "type": "uint256"
        }
      ],
      "name": "transfer",
      "outputs": [
        {
          "internalType": "bool",
          "name": "",
          "type": "bool"
        }
      ],
      "stateMutability": "nonpayable",
      "type": "function"
    },
    {
      "inputs": [
        {
          "internalType": "address",
          "name": "from",
          "type": "address"
        },
        {
          "internalType": "address",
          "name": "to",
          "type": "address"
        },
        {
          "internalType": "uint256",
          "name": "amount",
          "type": "uint256"
        }
      ],
      "name": "transferFrom",
      "outputs": [
        {
          "internalType": "bool",
          "name": "",
          "type": "bool"
        }
      ],
      "stateMutability": "nonpayable",
      "type": "function"
    },
    {
      "inputs": [],
      "name": "unpause",
      "outputs": [],
      "stateMutability": "nonpayable",
      "type": "function"
    }
  ],
  "bytecode": "0x608060405234801561001057600080fd5b50613ce7806100206000396000f3fe608060405234801561001057600080fd5b50600436106101c45760003560e01c80636e810b1a116100f9578063a217fddf11610097578063b6db75a011610071578063b6db75a014610509578063d505accf14610527578063d547741f14610543578063dd62ed3e1461055f576101c4565b8063a217fddf1461048b578063a457c2d7146104a9578063a9059cbb146104d9576101c4565b80638129fc1c116100d35780638129fc1c146104295780638456cb591461043357806391d148541461043d57806395d89b411461046d576101c4565b80636e810b1a146103ad57806370a08231146103c95780637ecebe00146103f9576101c4565b80632f2ff15d1161016657806336568abe1161014057806336568abe1461033957806339509351146103555780633f4ba83a146103855780635c975abb1461038f576101c4565b80632f2ff15d146102e1578063313ce567146102fd5780633644e5151461031b576101c4565b806318160ddd116101a257806318160ddd1461024757806319ab453c1461026557806323b872dd14610281578063248a9ca3146102b1576101c4565b806301ffc9a7146101c957806306fdde03146101f9578063095ea7b314610217575b600080fd5b6101e360048036038101906101de9190612636565b61058f565b6040516101f0919061267e565b60405180910390f35b610201610609565b60405161020e9190612729565b60405180910390f35b610231600480360381019061022c91906127df565b61069b565b60405161023e919061267e565b60405180910390f35b61024f6106be565b60405161025c919061282e565b60405180910390f35b61027f600480360381019061027a9190612849565b6106c8565b005b61029b60048036038101906102969190612876565b61077c565b6040516102a8919061267e565b60405180910390f35b6102cb60048036038101906102c691906128ff565b6107ab565b6040516102d8919061293b565b60405180910390f35b6102fb60048036038101906102f69190612956565b6107cc565b005b6103056107ed565b60405161031291906129b2565b60405180910390f35b6103236107f6565b604051610330919061293b565b60405180910390f35b610353600480360381019061034e9190612956565b610805565b005b61036f600480360381019061036a91906127df565b610888565b60405161037c919061267e565b60405180910390f35b61038d6108bf565b005b610397610910565b6040516103a4919061267e565b60405180910390f35b6103c760048036038101906103c29190612849565b610927565b005b6103e360048036038101906103de9190612849565b610a49565b6040516103f0919061282e565b60405180910390f35b610413600480360381019061040e9190612849565b610a92565b604051610420919061282e565b60405180910390f35b610431610ae2565b005b61043b610cda565b005b61045760048036038101906104529190612956565b610d2b565b604051610464919061267e565b60405180910390f35b610475610d97565b6040516104829190612729565b60405180910390f35b610493610e29565b6040516104a0919061293b565b60405180910390f35b6104c360048036038101906104be91906127df565b610e30565b6040516104d0919061267e565b60405180910390f35b6104f360048036038101906104ee91906127df565b610ea7565b604051610500919061267e565b60405180910390f35b610511610eca565b60405161051e919061267e565b60405180910390f35b610541600480360381019061053c91906129f9565b610ee9565b005b61055d60048036038101906105589190612956565b61102b565b005b61057960048036038101906105749190612a9b565b61104c565b604051610586919061282e565b60405180910390f35b60007f7965db0b000000000000000000000000000000000000000000000000000000007bffffffffffffffffffffffffffffffffffffffffffffffffffffffff1916827bffffffffffffffffffffffffffffffffffffffffffffffffffffffff191614806106025750610601826110d3565b5b9050919050565b60606036805461061890612b0a565b80601f016020809104026020016040519081016040528092919081815260200182805461064490612b0a565b80156106915780601f1061066657610100808354040283529160200191610691565b820191906000526020600020905b81548152906001019060200180831161067457829003601f168201915b5050505050905090565b6000806106a661113d565b90506106b3818585611145565b600191505092915050565b6000603554905090565b6106d0610eca565b61070f576040517f08c379a000000000000000000000000000000000000000000000000000000000815260040161070690612bad565b60405180910390fd5b600061019454111561074d576040517f19389a4700000000000000000000000000000000000000000000000000000000815260040160405180910390fd5b6101946000815461075d90612bfc565b91905081905550610779816a084595161401484a00000061130e565b50565b60008061078761113d565b9050610794858285611465565b61079f8585856114f1565b60019150509392505050565b60006101306000838152602001908152602001600020600101549050919050565b6107d5826107ab565b6107de8161176a565b6107e8838361177e565b505050565b60006012905090565b6000610800611860565b905090565b61080d61113d565b73ffffffffffffffffffffffffffffffffffffffff168173ffffffffffffffffffffffffffffffffffffffff161461087a576040517f08c379a000000000000000000000000000000000000000000000000000000000815260040161087190612cb6565b60405180910390fd5b61088482826118a0565b5050565b60008061089361113d565b90506108b48185856108a5858961104c565b6108af9190612cd6565b611145565b600191505092915050565b6108c7610eca565b610906576040517f08c379a00000000000000000000000000000000000000000000000000000000081526004016108fd90612bad565b60405180910390fd5b61090e611983565b565b600060cc60009054906101000a900460ff16905090565b600060019054906101000a900460ff16610976576040517f08c379a000000000000000000000000000000000000000000000000000000000815260040161096d90612d7c565b60405180910390fd5b600073ffffffffffffffffffffffffffffffffffffffff168173ffffffffffffffffffffffffffffffffffffffff16036109dc576040517f5415139400000000000000000000000000000000000000000000000000000000815260040160405180910390fd5b6109e46119e6565b6109ec611a3f565b6109f4611a90565b610a056109ff611ae9565b8261177e565b610a16610a10611b11565b8261177e565b610a2e610a21611b11565b610a29611ae9565b611b39565b610a46610a39611ae9565b610a41611ae9565b611b39565b50565b6000603360008373ffffffffffffffffffffffffffffffffffffffff1673ffffffffffffffffffffffffffffffffffffffff168152602001908152602001600020549050919050565b6000610adb609960008473ffffffffffffffffffffffffffffffffffffffff1673ffffffffffffffffffffffffffffffffffffffff168152602001908152602001600020611b96565b9050919050565b60008060019054906101000a900460ff16159050808015610b135750600160008054906101000a900460ff1660ff16105b80610b405750610b2230611ba4565b158015610b3f5750600160008054906101000a900460ff1660ff16145b5b610b7f576040517f08c379a0000000000000000000000000000000000000000000000000000000008152600401610b7690612e0e565b60405180910390fd5b60016000806101000a81548160ff021916908360ff1602179055508015610bbc576001600060016101000a81548160ff0219169083151502179055505b610c306040518060400160405280600981526020017f47656e5a204c61627300000000000000000000000000000000000000000000008152506040518060400160405280600481526020017f47454e5a00000000000000000000000000000000000000000000000000000000815250611bc7565b610c6e6040518060400160405280600481526020017f47454e5a00000000000000000000000000000000000000000000000000000000815250611c24565b610c7e610c7961113d565b610927565b8015610cd75760008060016101000a81548160ff0219169083151502179055507f7f26b83ff96e1f2b6a682f133852f6798a09c465da95921460cefb38474024986001604051610cce9190612e73565b60405180910390a15b50565b610ce2610eca565b610d21576040517f08c379a0000000000000000000000000000000000000000000000000000000008152600401610d1890612bad565b60405180910390fd5b610d29611cb5565b565b6000610130600084815260200190815260200160002060000160008373ffffffffffffffffffffffffffffffffffffffff1673ffffffffffffffffffffffffffffffffffffffff16815260200190815260200160002060009054906101000a900460ff16905092915050565b606060378054610da690612b0a565b80601f0160208091040260200160405190810160405280929190818152602001828054610dd290612b0a565b8015610e1f5780601f10610df457610100808354040283529160200191610e1f565b820191906000526020600020905b815481529060010190602001808311610e0257829003601f168201915b5050505050905090565b6000801b81565b600080610e3b61113d565b90506000610e49828661104c565b905083811015610e8e576040517f08c379a0000000000000000000000000000000000000000000000000000000008152600401610e8590612f00565b60405180910390fd5b610e9b8286868403611145565b60019250505092915050565b600080610eb261113d565b9050610ebf8185856114f1565b600191505092915050565b6000610ee4610ed7611ae9565b610edf61113d565b610d2b565b905090565b83421115610f2c576040517f08c379a0000000000000000000000000000000000000000000000000000000008152600401610f2390612f6c565b60405180910390fd5b60007f6e71edae12b1b97f4d1f60370fef10105fa2faae0126114a169c64845d6126c9888888610f5b8c611d18565b89604051602001610f7196959493929190612f9b565b6040516020818303038152906040528051906020012090506000610f9482611d76565b90506000610fa482878787611d90565b90508973ffffffffffffffffffffffffffffffffffffffff168173ffffffffffffffffffffffffffffffffffffffff1614611014576040517f08c379a000000000000000000000000000000000000000000000000000000000815260040161100b90613048565b60405180910390fd5b61101f8a8a8a611145565b50505050505050505050565b611034826107ab565b61103d8161176a565b61104783836118a0565b505050565b6000603460008473ffffffffffffffffffffffffffffffffffffffff1673ffffffffffffffffffffffffffffffffffffffff16815260200190815260200160002060008373ffffffffffffffffffffffffffffffffffffffff1673ffffffffffffffffffffffffffffffffffffffff16815260200190815260200160002054905092915050565b60007f01ffc9a7000000000000000000000000000000000000000000000000000000007bffffffffffffffffffffffffffffffffffffffffffffffffffffffff1916827bffffffffffffffffffffffffffffffffffffffffffffffffffffffff1916149050919050565b600033905090565b600073ffffffffffffffffffffffffffffffffffffffff168373ffffffffffffffffffffffffffffffffffffffff16036111b4576040517f08c379a00000000000000000000000000000000000000000000000000000000081526004016111ab906130da565b60405180910390fd5b600073ffffffffffffffffffffffffffffffffffffffff168273ffffffffffffffffffffffffffffffffffffffff1603611223576040517f08c379a000000000000000000000000000000000000000000000000000000000815260040161121a9061316c565b60405180910390fd5b80603460008573ffffffffffffffffffffffffffffffffffffffff1673ffffffffffffffffffffffffffffffffffffffff16815260200190815260200160002060008473ffffffffffffffffffffffffffffffffffffffff1673ffffffffffffffffffffffffffffffffffffffff168152602001908152602001600020819055508173ffffffffffffffffffffffffffffffffffffffff168373ffffffffffffffffffffffffffffffffffffffff167f8c5be1e5ebec7d5bd14f71427d1e84f3dd0314c0f7b2291e5b200ac8c7c3b92583604051611301919061282e565b60405180910390a3505050565b600073ffffffffffffffffffffffffffffffffffffffff168273ffffffffffffffffffffffffffffffffffffffff160361137d576040517f08c379a0000000000000000000000000000000000000000000000000000000008152600401611374906131d8565b60405180910390fd5b61138960008383611dbb565b806035600082825461139b9190612cd6565b9250508190555080603360008473ffffffffffffffffffffffffffffffffffffffff1673ffffffffffffffffffffffffffffffffffffffff168152602001908152602001600020600082825401925050819055508173ffffffffffffffffffffffffffffffffffffffff16600073ffffffffffffffffffffffffffffffffffffffff167fddf252ad1be2c89b69c2b068fc378daa952ba7f163c4a11628f55a4df523b3ef8360405161144d919061282e565b60405180910390a361146160008383611dc0565b5050565b6000611471848461104c565b90507fffffffffffffffffffffffffffffffffffffffffffffffffffffffffffffffff81146114eb57818110156114dd576040517f08c379a00000000000000000000000000000000000000000000000000000000081526004016114d490613244565b60405180910390fd5b6114ea8484848403611145565b5b50505050565b600073ffffffffffffffffffffffffffffffffffffffff168373ffffffffffffffffffffffffffffffffffffffff1603611560576040517f08c379a0000000000000000000000000000000000000000000000000000000008152600401611557906132d6565b60405180910390fd5b600073ffffffffffffffffffffffffffffffffffffffff168273ffffffffffffffffffffffffffffffffffffffff16036115cf576040517f08c379a00000000000000000000000000000000000000000000000000000000081526004016115c690613368565b60405180910390fd5b6115da838383611dbb565b6000603360008573ffffffffffffffffffffffffffffffffffffffff1673ffffffffffffffffffffffffffffffffffffffff16815260200190815260200160002054905081811015611661576040517f08c379a0000000000000000000000000000000000000000000000000000000008152600401611658906133fa565b60405180910390fd5b818103603360008673ffffffffffffffffffffffffffffffffffffffff1673ffffffffffffffffffffffffffffffffffffffff1681526020019081526020016000208190555081603360008573ffffffffffffffffffffffffffffffffffffffff1673ffffffffffffffffffffffffffffffffffffffff168152602001908152602001600020600082825401925050819055508273ffffffffffffffffffffffffffffffffffffffff168473ffffffffffffffffffffffffffffffffffffffff167fddf252ad1be2c89b69c2b068fc378daa952ba7f163c4a11628f55a4df523b3ef84604051611751919061282e565b60405180910390a3611764848484611dc0565b50505050565b61177b8161177661113d565b611dc5565b50565b6117888282610d2b565b61185c576001610130600084815260200190815260200160002060000160008373ffffffffffffffffffffffffffffffffffffffff1673ffffffffffffffffffffffffffffffffffffffff16815260200190815260200160002060006101000a81548160ff02191690831515021790555061180161113d565b73ffffffffffffffffffffffffffffffffffffffff168173ffffffffffffffffffffffffffffffffffffffff16837f2f8788117e7eff1d82e926ec794901d17c78024a50270940304540a733656f0d60405160405180910390a45b5050565b600061189b7f8b73c3c69bb8fe3d512ecc4cf759cc79239f7b179b0ffacaa9a75d522b39400f61188e611e4a565b611896611e54565b611e5e565b905090565b6118aa8282610d2b565b1561197f576000610130600084815260200190815260200160002060000160008373ffffffffffffffffffffffffffffffffffffffff1673ffffffffffffffffffffffffffffffffffffffff16815260200190815260200160002060006101000a81548160ff02191690831515021790555061192461113d565b73ffffffffffffffffffffffffffffffffffffffff168173ffffffffffffffffffffffffffffffffffffffff16837ff6391f5c32d9c69d2a47ea670b442974b53935d1edc7fd64eb21e047a839171b60405160405180910390a45b5050565b61198b611e98565b600060cc60006101000a81548160ff0219169083151502179055507f5db9ee0a495bf2e6ff9c91a7834c1ba4fdd244a5e8aa4e537bd38aeae4b073aa6119cf61113d565b6040516119dc919061341a565b60405180910390a1565b600060019054906101000a900460ff16611a35576040517f08c379a0000000000000000000000000000000000000000000000000000000008152600401611a2c90612d7c565b60405180910390fd5b611a3d611ee1565b565b600060019054906101000a900460ff16611a8e576040517f08c379a0000000000000000000000000000000000000000000000000000000008152600401611a8590612d7c565b60405180910390fd5b565b600060019054906101000a900460ff16611adf576040517f08c379a0000000000000000000000000000000000000000000000000000000008152600401611ad690612d7c565b60405180910390fd5b611ae7611f4d565b565b60007fa49807205ce4d355092ef5a8a18f56e8913cf4a201fbe287825b095693c21775905090565b60007f65d7a28e3265b37a6474929f336521b332c1681b933f6cb9f3376673440d862a905090565b6000611b44836107ab565b9050816101306000858152602001908152602001600020600101819055508181847fbd79b86ffe0ab8e8776151514217cd7cacd52c909f66475c3af44e129f0b00ff60405160405180910390a4505050565b600081600001549050919050565b6000808273ffffffffffffffffffffffffffffffffffffffff163b119050919050565b600060019054906101000a900460ff16611c16576040517f08c379a0000000000000000000000000000000000000000000000000000000008152600401611c0d90612d7c565b60405180910390fd5b611c208282611fa7565b5050565b600060019054906101000a900460ff16611c73576040517f08c379a0000000000000000000000000000000000000000000000000000000008152600401611c6a90612d7c565b60405180910390fd5b611cb2816040518060400160405280600181526020017f310000000000000000000000000000000000000000000000000000000000000081525061201a565b50565b611cbd612095565b600160cc60006101000a81548160ff0219169083151502179055507f62e78cea01bee320cd4e420270b5ea74000d11b0c9f74754ebdbfc544b05a258611d0161113d565b604051611d0e919061341a565b60405180910390a1565b600080609960008473ffffffffffffffffffffffffffffffffffffffff1673ffffffffffffffffffffffffffffffffffffffff1681526020019081526020016000209050611d6581611b96565b9150611d70816120df565b50919050565b6000611d89611d83611860565b836120f5565b9050919050565b6000806000611da187878787612128565b91509150611dae8161220a565b8192505050949350505050565b505050565b505050565b611dcf8282610d2b565b611e4657611ddc81612370565b611dea8360001c602061239d565b604051602001611dfb929190613509565b6040516020818303038152906040526040517f08c379a0000000000000000000000000000000000000000000000000000000008152600401611e3d9190612729565b60405180910390fd5b5050565b6000606554905090565b6000606654905090565b60008383834630604051602001611e79959493929190613543565b6040516020818303038152906040528051906020012090509392505050565b611ea0610910565b611edf576040517f08c379a0000000000000000000000000000000000000000000000000000000008152600401611ed6906135e2565b60405180910390fd5b565b600060019054906101000a900460ff16611f30576040517f08c379a0000000000000000000000000000000000000000000000000000000008152600401611f2790612d7c565b60405180910390fd5b600060cc60006101000a81548160ff021916908315150217905550565b600060019054906101000a900460ff16611f9c576040517f08c379a0000000000000000000000000000000000000000000000000000000008152600401611f9390612d7c565b60405180910390fd5b600161016281905550565b600060019054906101000a900460ff16611ff6576040517f08c379a0000000000000000000000000000000000000000000000000000000008152600401611fed90612d7c565b60405180910390fd5b816036908161200591906137d3565b50806037908161201591906137d3565b505050565b600060019054906101000a900460ff16612069576040517f08c379a000000000000000000000000000000000000000000000000000000000815260040161206090612d7c565b60405180910390fd5b600082805190602001209050600082805190602001209050816065819055508060668190555050505050565b61209d610910565b156120dd576040517f08c379a00000000000000000000000000000000000000000000000000000000081526004016120d4906138f1565b60405180910390fd5b565b6001816000016000828254019250508190555050565b6000828260405160200161210a92919061397e565b60405160208183030381529060405280519060200120905092915050565b6000807f7fffffffffffffffffffffffffffffff5d576e7357a4501ddfe92f46681b20a08360001c1115612163576000600391509150612201565b60006001878787876040516000815260200160405260405161218894939291906139b5565b6020604051602081039080840390855afa1580156121aa573d6000803e3d6000fd5b505050602060405103519050600073ffffffffffffffffffffffffffffffffffffffff168173ffffffffffffffffffffffffffffffffffffffff16036121f857600060019250925050612201565b80600092509250505b94509492505050565b6000600481111561221e5761221d6139fa565b5b816004811115612231576122306139fa565b5b031561236d576001600481111561224b5761224a6139fa565b5b81600481111561225e5761225d6139fa565b5b0361229e576040517f08c379a000000000000000000000000000000000000000000000000000000000815260040161229590613a75565b60405180910390fd5b600260048111156122b2576122b16139fa565b5b8160048111156122c5576122c46139fa565b5b03612305576040517f08c379a00000000000000000000000000000000000000000000000000000000081526004016122fc90613ae1565b60405180910390fd5b60036004811115612319576123186139fa565b5b81600481111561232c5761232b6139fa565b5b0361236c576040517f08c379a000000000000000000000000000000000000000000000000000000000815260040161236390613b73565b60405180910390fd5b5b50565b60606123968273ffffffffffffffffffffffffffffffffffffffff16601460ff1661239d565b9050919050565b6060600060028360026123b09190613b93565b6123ba9190612cd6565b67ffffffffffffffff8111156123d3576123d2613602565b5b6040519080825280601f01601f1916602001820160405280156124055781602001600182028036833780820191505090505b5090507f30000000000000000000000000000000000000000000000000000000000000008160008151811061243d5761243c613bed565b5b60200101907effffffffffffffffffffffffffffffffffffffffffffffffffffffffffffff1916908160001a9053507f7800000000000000000000000000000000000000000000000000000000000000816001815181106124a1576124a0613bed565b5b60200101907effffffffffffffffffffffffffffffffffffffffffffffffffffffffffffff1916908160001a905350600060018460026124e19190613b93565b6124eb9190612cd6565b90505b600181111561258b577f3031323334353637383961626364656600000000000000000000000000000000600f86166010811061252d5761252c613bed565b5b1a60f81b82828151811061254457612543613bed565b5b60200101907effffffffffffffffffffffffffffffffffffffffffffffffffffffffffffff1916908160001a905350600485901c94508061258490613c1c565b90506124ee565b50600084146125cf576040517f08c379a00000000000000000000000000000000000000000000000000000000081526004016125c690613c91565b60405180910390fd5b8091505092915050565b600080fd5b60007fffffffff0000000000000000000000000000000000000000000000000000000082169050919050565b612613816125de565b811461261e57600080fd5b50565b6000813590506126308161260a565b92915050565b60006020828403121561264c5761264b6125d9565b5b600061265a84828501612621565b91505092915050565b60008115159050919050565b61267881612663565b82525050565b6000602082019050612693600083018461266f565b92915050565b600081519050919050565b600082825260208201905092915050565b60005b838110156126d35780820151818401526020810190506126b8565b60008484015250505050565b6000601f19601f8301169050919050565b60006126fb82612699565b61270581856126a4565b93506127158185602086016126b5565b61271e816126df565b840191505092915050565b6000602082019050818103600083015261274381846126f0565b905092915050565b600073ffffffffffffffffffffffffffffffffffffffff82169050919050565b60006127768261274b565b9050919050565b6127868161276b565b811461279157600080fd5b50565b6000813590506127a38161277d565b92915050565b6000819050919050565b6127bc816127a9565b81146127c757600080fd5b50565b6000813590506127d9816127b3565b92915050565b600080604083850312156127f6576127f56125d9565b5b600061280485828601612794565b9250506020612815858286016127ca565b9150509250929050565b612828816127a9565b82525050565b6000602082019050612843600083018461281f565b92915050565b60006020828403121561285f5761285e6125d9565b5b600061286d84828501612794565b91505092915050565b60008060006060848603121561288f5761288e6125d9565b5b600061289d86828701612794565b93505060206128ae86828701612794565b92505060406128bf868287016127ca565b9150509250925092565b6000819050919050565b6128dc816128c9565b81146128e757600080fd5b50565b6000813590506128f9816128d3565b92915050565b600060208284031215612915576129146125d9565b5b6000612923848285016128ea565b91505092915050565b612935816128c9565b82525050565b6000602082019050612950600083018461292c565b92915050565b6000806040838503121561296d5761296c6125d9565b5b600061297b858286016128ea565b925050602061298c85828601612794565b9150509250929050565b600060ff82169050919050565b6129ac81612996565b82525050565b60006020820190506129c760008301846129a3565b92915050565b6129d681612996565b81146129e157600080fd5b50565b6000813590506129f3816129cd565b92915050565b600080600080600080600060e0888a031215612a1857612a176125d9565b5b6000612a268a828b01612794565b9750506020612a378a828b01612794565b9650506040612a488a828b016127ca565b9550506060612a598a828b016127ca565b9450506080612a6a8a828b016129e4565b93505060a0612a7b8a828b016128ea565b92505060c0612a8c8a828b016128ea565b91505092959891949750929550565b60008060408385031215612ab257612ab16125d9565b5b6000612ac085828601612794565b9250506020612ad185828601612794565b9150509250929050565b7f4e487b7100000000000000000000000000000000000000000000000000000000600052602260045260246000fd5b60006002820490506001821680612b2257607f821691505b602082108103612b3557612b34612adb565b5b50919050565b7f4d75737420686176652061646d696e20726f6c6520746f20706572666f726d2060008201527f7468697320616374696f6e2e0000000000000000000000000000000000000000602082015250565b6000612b97602c836126a4565b9150612ba282612b3b565b604082019050919050565b60006020820190508181036000830152612bc681612b8a565b9050919050565b7f4e487b7100000000000000000000000000000000000000000000000000000000600052601160045260246000fd5b6000612c07826127a9565b91507fffffffffffffffffffffffffffffffffffffffffffffffffffffffffffffffff8203612c3957612c38612bcd565b5b600182019050919050565b7f416363657373436f6e74726f6c3a2063616e206f6e6c792072656e6f756e636560008201527f20726f6c657320666f722073656c660000000000000000000000000000000000602082015250565b6000612ca0602f836126a4565b9150612cab82612c44565b604082019050919050565b60006020820190508181036000830152612ccf81612c93565b9050919050565b6000612ce1826127a9565b9150612cec836127a9565b9250828201905080821115612d0457612d03612bcd565b5b92915050565b7f496e697469616c697a61626c653a20636f6e7472616374206973206e6f74206960008201527f6e697469616c697a696e67000000000000000000000000000000000000000000602082015250565b6000612d66602b836126a4565b9150612d7182612d0a565b604082019050919050565b60006020820190508181036000830152612d9581612d59565b9050919050565b7f496e697469616c697a61626c653a20636f6e747261637420697320616c72656160008201527f647920696e697469616c697a6564000000000000000000000000000000000000602082015250565b6000612df8602e836126a4565b9150612e0382612d9c565b604082019050919050565b60006020820190508181036000830152612e2781612deb565b9050919050565b6000819050919050565b6000819050919050565b6000612e5d612e58612e5384612e2e565b612e38565b612996565b9050919050565b612e6d81612e42565b82525050565b6000602082019050612e886000830184612e64565b92915050565b7f45524332303a2064656372656173656420616c6c6f77616e63652062656c6f7760008201527f207a65726f000000000000000000000000000000000000000000000000000000602082015250565b6000612eea6025836126a4565b9150612ef582612e8e565b604082019050919050565b60006020820190508181036000830152612f1981612edd565b9050919050565b7f45524332305065726d69743a206578706972656420646561646c696e65000000600082015250565b6000612f56601d836126a4565b9150612f6182612f20565b602082019050919050565b60006020820190508181036000830152612f8581612f49565b9050919050565b612f958161276b565b82525050565b600060c082019050612fb0600083018961292c565b612fbd6020830188612f8c565b612fca6040830187612f8c565b612fd7606083018661281f565b612fe4608083018561281f565b612ff160a083018461281f565b979650505050505050565b7f45524332305065726d69743a20696e76616c6964207369676e61747572650000600082015250565b6000613032601e836126a4565b915061303d82612ffc565b602082019050919050565b6000602082019050818103600083015261306181613025565b9050919050565b7f45524332303a20617070726f76652066726f6d20746865207a65726f2061646460008201527f7265737300000000000000000000000000000000000000000000000000000000602082015250565b60006130c46024836126a4565b91506130cf82613068565b604082019050919050565b600060208201905081810360008301526130f3816130b7565b9050919050565b7f45524332303a20617070726f766520746f20746865207a65726f20616464726560008201527f7373000000000000000000000000000000000000000000000000000000000000602082015250565b60006131566022836126a4565b9150613161826130fa565b604082019050919050565b6000602082019050818103600083015261318581613149565b9050919050565b7f45524332303a206d696e7420746f20746865207a65726f206164647265737300600082015250565b60006131c2601f836126a4565b91506131cd8261318c565b602082019050919050565b600060208201905081810360008301526131f1816131b5565b9050919050565b7f45524332303a20696e73756666696369656e7420616c6c6f77616e6365000000600082015250565b600061322e601d836126a4565b9150613239826131f8565b602082019050919050565b6000602082019050818103600083015261325d81613221565b9050919050565b7f45524332303a207472616e736665722066726f6d20746865207a65726f20616460008201527f6472657373000000000000000000000000000000000000000000000000000000602082015250565b60006132c06025836126a4565b91506132cb82613264565b604082019050919050565b600060208201905081810360008301526132ef816132b3565b9050919050565b7f45524332303a207472616e7366657220746f20746865207a65726f206164647260008201527f6573730000000000000000000000000000000000000000000000000000000000602082015250565b60006133526023836126a4565b915061335d826132f6565b604082019050919050565b6000602082019050818103600083015261338181613345565b9050919050565b7f45524332303a207472616e7366657220616d6f756e742065786365656473206260008201527f616c616e63650000000000000000000000000000000000000000000000000000602082015250565b60006133e46026836126a4565b91506133ef82613388565b604082019050919050565b60006020820190508181036000830152613413816133d7565b9050919050565b600060208201905061342f6000830184612f8c565b92915050565b600081905092915050565b7f416363657373436f6e74726f6c3a206163636f756e7420000000000000000000600082015250565b6000613476601783613435565b915061348182613440565b601782019050919050565b600061349782612699565b6134a18185613435565b93506134b18185602086016126b5565b80840191505092915050565b7f206973206d697373696e6720726f6c6520000000000000000000000000000000600082015250565b60006134f3601183613435565b91506134fe826134bd565b601182019050919050565b600061351482613469565b9150613520828561348c565b915061352b826134e6565b9150613537828461348c565b91508190509392505050565b600060a082019050613558600083018861292c565b613565602083018761292c565b613572604083018661292c565b61357f606083018561281f565b61358c6080830184612f8c565b9695505050505050565b7f5061757361626c653a206e6f7420706175736564000000000000000000000000600082015250565b60006135cc6014836126a4565b91506135d782613596565b602082019050919050565b600060208201905081810360008301526135fb816135bf565b9050919050565b7f4e487b7100000000000000000000000000000000000000000000000000000000600052604160045260246000fd5b60008190508160005260206000209050919050565b60006020601f8301049050919050565b600082821b905092915050565b6000600883026136937fffffffffffffffffffffffffffffffffffffffffffffffffffffffffffffffff82613656565b61369d8683613656565b95508019841693508086168417925050509392505050565b60006136d06136cb6136c6846127a9565b612e38565b6127a9565b9050919050565b6000819050919050565b6136ea836136b5565b6136fe6136f6826136d7565b848454613663565b825550505050565b600090565b613713613706565b61371e8184846136e1565b505050565b5b818110156137425761373760008261370b565b600181019050613724565b5050565b601f8211156137875761375881613631565b61376184613646565b81016020851015613770578190505b61378461377c85613646565b830182613723565b50505b505050565b600082821c905092915050565b60006137aa6000198460080261378c565b1980831691505092915050565b60006137c38383613799565b9150826002028217905092915050565b6137dc82612699565b67ffffffffffffffff8111156137f5576137f4613602565b5b6137ff8254612b0a565b61380a828285613746565b600060209050601f83116001811461383d576000841561382b578287015190505b61383585826137b7565b86555061389d565b601f19841661384b86613631565b60005b828110156138735784890151825560018201915060208501945060208101905061384e565b86831015613890578489015161388c601f891682613799565b8355505b6001600288020188555050505b505050505050565b7f5061757361626c653a2070617573656400000000000000000000000000000000600082015250565b60006138db6010836126a4565b91506138e6826138a5565b602082019050919050565b6000602082019050818103600083015261390a816138ce565b9050919050565b7f1901000000000000000000000000000000000000000000000000000000000000600082015250565b6000613947600283613435565b915061395282613911565b600282019050919050565b6000819050919050565b613978613973826128c9565b61395d565b82525050565b60006139898261393a565b91506139958285613967565b6020820191506139a58284613967565b6020820191508190509392505050565b60006080820190506139ca600083018761292c565b6139d760208301866129a3565b6139e4604083018561292c565b6139f1606083018461292c565b95945050505050565b7f4e487b7100000000000000000000000000000000000000000000000000000000600052602160045260246000fd5b7f45434453413a20696e76616c6964207369676e61747572650000000000000000600082015250565b6000613a5f6018836126a4565b9150613a6a82613a29565b602082019050919050565b60006020820190508181036000830152613a8e81613a52565b9050919050565b7f45434453413a20696e76616c6964207369676e6174757265206c656e67746800600082015250565b6000613acb601f836126a4565b9150613ad682613a95565b602082019050919050565b60006020820190508181036000830152613afa81613abe565b9050919050565b7f45434453413a20696e76616c6964207369676e6174757265202773272076616c60008201527f7565000000000000000000000000000000000000000000000000000000000000602082015250565b6000613b5d6022836126a4565b9150613b6882613b01565b604082019050919050565b60006020820190508181036000830152613b8c81613b50565b9050919050565b6000613b9e826127a9565b9150613ba9836127a9565b9250817fffffffffffffffffffffffffffffffffffffffffffffffffffffffffffffffff0483118215151615613be257613be1612bcd565b5b828202905092915050565b7f4e487b7100000000000000000000000000000000000000000000000000000000600052603260045260246000fd5b6000613c27826127a9565b915060008203613c3a57613c39612bcd565b5b600182039050919050565b7f537472696e67733a20686578206c656e67746820696e73756666696369656e74600082015250565b6000613c7b6020836126a4565b9150613c8682613c45565b602082019050919050565b60006020820190508181036000830152613caa81613c6e565b905091905056fea2646970667358221220278499bc91063563324f8c4b12deacfeb306fd03b7bdd13fcdca8ca351f95b6764736f6c63430008100033",
  "linkReferences": {},
  "deployedLinkReferences": {}
}