{
  "_format": "hh-sol-artifact-1",
  "contractName": "GENZ",
  "sourceName": "contracts/core/token/GENZERC20.sol",
  "abi": [
    {
      "inputs": [],
      "name": "BaseUpgradeablePausable__ZeroAddressError",
      "type": "error"
    },
    {
      "anonymous": false,
      "inputs": [
        {
          "indexed": true,
          "internalType": "address",
          "name": "owner",
          "type": "address"
        },
        {
          "indexed": true,
          "internalType": "address",
          "name": "spender",
          "type": "address"
        },
        {
          "indexed": false,
          "internalType": "uint256",
          "name": "value",
          "type": "uint256"
        }
      ],
      "name": "Approval",
      "type": "event"
    },
    {
      "anonymous": false,
      "inputs": [
        {
          "indexed": false,
          "internalType": "uint8",
          "name": "version",
          "type": "uint8"
        }
      ],
      "name": "Initialized",
      "type": "event"
    },
    {
      "anonymous": false,
      "inputs": [
        {
          "indexed": false,
          "internalType": "address",
          "name": "account",
          "type": "address"
        }
      ],
      "name": "Paused",
      "type": "event"
    },
    {
      "anonymous": false,
      "inputs": [
        {
          "indexed": true,
          "internalType": "bytes32",
          "name": "role",
          "type": "bytes32"
        },
        {
          "indexed": true,
          "internalType": "bytes32",
          "name": "previousAdminRole",
          "type": "bytes32"
        },
        {
          "indexed": true,
          "internalType": "bytes32",
          "name": "newAdminRole",
          "type": "bytes32"
        }
      ],
      "name": "RoleAdminChanged",
      "type": "event"
    },
    {
      "anonymous": false,
      "inputs": [
        {
          "indexed": true,
          "internalType": "bytes32",
          "name": "role",
          "type": "bytes32"
        },
        {
          "indexed": true,
          "internalType": "address",
          "name": "account",
          "type": "address"
        },
        {
          "indexed": true,
          "internalType": "address",
          "name": "sender",
          "type": "address"
        }
      ],
      "name": "RoleGranted",
      "type": "event"
    },
    {
      "anonymous": false,
      "inputs": [
        {
          "indexed": true,
          "internalType": "bytes32",
          "name": "role",
          "type": "bytes32"
        },
        {
          "indexed": true,
          "internalType": "address",
          "name": "account",
          "type": "address"
        },
        {
          "indexed": true,
          "internalType": "address",
          "name": "sender",
          "type": "address"
        }
      ],
      "name": "RoleRevoked",
      "type": "event"
    },
    {
      "anonymous": false,
      "inputs": [
        {
          "indexed": true,
          "internalType": "address",
          "name": "from",
          "type": "address"
        },
        {
          "indexed": true,
          "internalType": "address",
          "name": "to",
          "type": "address"
        },
        {
          "indexed": false,
          "internalType": "uint256",
          "name": "value",
          "type": "uint256"
        }
      ],
      "name": "Transfer",
      "type": "event"
    },
    {
      "anonymous": false,
      "inputs": [
        {
          "indexed": false,
          "internalType": "address",
          "name": "account",
          "type": "address"
        }
      ],
      "name": "Unpaused",
      "type": "event"
    },
    {
      "inputs": [],
      "name": "DEFAULT_ADMIN_ROLE",
      "outputs": [
        {
          "internalType": "bytes32",
          "name": "",
          "type": "bytes32"
        }
      ],
      "stateMutability": "view",
      "type": "function"
    },
    {
      "inputs": [],
      "name": "DOMAIN_SEPARATOR",
      "outputs": [
        {
          "internalType": "bytes32",
          "name": "",
          "type": "bytes32"
        }
      ],
      "stateMutability": "view",
      "type": "function"
    },
    {
      "inputs": [
        {
          "internalType": "address",
          "name": "owner",
          "type": "address"
        }
      ],
      "name": "__BaseUpgradeablePausable_init",
      "outputs": [],
      "stateMutability": "nonpayable",
      "type": "function"
    },
    {
      "inputs": [
        {
          "internalType": "address",
          "name": "owner",
          "type": "address"
        },
        {
          "internalType": "address",
          "name": "spender",
          "type": "address"
        }
      ],
      "name": "allowance",
      "outputs": [
        {
          "internalType": "uint256",
          "name": "",
          "type": "uint256"
        }
      ],
      "stateMutability": "view",
      "type": "function"
    },
    {
      "inputs": [
        {
          "internalType": "address",
          "name": "spender",
          "type": "address"
        },
        {
          "internalType": "uint256",
          "name": "amount",
          "type": "uint256"
        }
      ],
      "name": "approve",
      "outputs": [
        {
          "internalType": "bool",
          "name": "",
          "type": "bool"
        }
      ],
      "stateMutability": "nonpayable",
      "type": "function"
    },
    {
      "inputs": [
        {
          "internalType": "address",
          "name": "account",
          "type": "address"
        }
      ],
      "name": "balanceOf",
      "outputs": [
        {
          "internalType": "uint256",
          "name": "",
          "type": "uint256"
        }
      ],
      "stateMutability": "view",
      "type": "function"
    },
    {
      "inputs": [],
      "name": "decimals",
      "outputs": [
        {
          "internalType": "uint8",
          "name": "",
          "type": "uint8"
        }
      ],
      "stateMutability": "view",
      "type": "function"
    },
    {
      "inputs": [
        {
          "internalType": "address",
          "name": "spender",
          "type": "address"
        },
        {
          "internalType": "uint256",
          "name": "subtractedValue",
          "type": "uint256"
        }
      ],
      "name": "decreaseAllowance",
      "outputs": [
        {
          "internalType": "bool",
          "name": "",
          "type": "bool"
        }
      ],
      "stateMutability": "nonpayable",
      "type": "function"
    },
    {
      "inputs": [
        {
          "internalType": "bytes32",
          "name": "role",
          "type": "bytes32"
        }
      ],
      "name": "getRoleAdmin",
      "outputs": [
        {
          "internalType": "bytes32",
          "name": "",
          "type": "bytes32"
        }
      ],
      "stateMutability": "view",
      "type": "function"
    },
    {
      "inputs": [
        {
          "internalType": "bytes32",
          "name": "role",
          "type": "bytes32"
        },
        {
          "internalType": "address",
          "name": "account",
          "type": "address"
        }
      ],
      "name": "grantRole",
      "outputs": [],
      "stateMutability": "nonpayable",
      "type": "function"
    },
    {
      "inputs": [
        {
          "internalType": "bytes32",
          "name": "role",
          "type": "bytes32"
        },
        {
          "internalType": "address",
          "name": "account",
          "type": "address"
        }
      ],
      "name": "hasRole",
      "outputs": [
        {
          "internalType": "bool",
          "name": "",
          "type": "bool"
        }
      ],
      "stateMutability": "view",
      "type": "function"
    },
    {
      "inputs": [
        {
          "internalType": "address",
          "name": "spender",
          "type": "address"
        },
        {
          "internalType": "uint256",
          "name": "addedValue",
          "type": "uint256"
        }
      ],
      "name": "increaseAllowance",
      "outputs": [
        {
          "internalType": "bool",
          "name": "",
          "type": "bool"
        }
      ],
      "stateMutability": "nonpayable",
      "type": "function"
    },
    {
      "inputs": [
        {
          "internalType": "address",
          "name": "buyContract",
          "type": "address"
        }
      ],
      "name": "initialize",
      "outputs": [],
      "stateMutability": "nonpayable",
      "type": "function"
    },
    {
      "inputs": [],
      "name": "isAdmin",
      "outputs": [
        {
          "internalType": "bool",
          "name": "",
          "type": "bool"
        }
      ],
      "stateMutability": "view",
      "type": "function"
    },
    {
      "inputs": [],
      "name": "name",
      "outputs": [
        {
          "internalType": "string",
          "name": "",
          "type": "string"
        }
      ],
      "stateMutability": "view",
      "type": "function"
    },
    {
      "inputs": [
        {
          "internalType": "address",
          "name": "owner",
          "type": "address"
        }
      ],
      "name": "nonces",
      "outputs": [
        {
          "internalType": "uint256",
          "name": "",
          "type": "uint256"
        }
      ],
      "stateMutability": "view",
      "type": "function"
    },
    {
      "inputs": [],
      "name": "pause",
      "outputs": [],
      "stateMutability": "nonpayable",
      "type": "function"
    },
    {
      "inputs": [],
      "name": "paused",
      "outputs": [
        {
          "internalType": "bool",
          "name": "",
          "type": "bool"
        }
      ],
      "stateMutability": "view",
      "type": "function"
    },
    {
      "inputs": [
        {
          "internalType": "address",
          "name": "owner",
          "type": "address"
        },
        {
          "internalType": "address",
          "name": "spender",
          "type": "address"
        },
        {
          "internalType": "uint256",
          "name": "value",
          "type": "uint256"
        },
        {
          "internalType": "uint256",
          "name": "deadline",
          "type": "uint256"
        },
        {
          "internalType": "uint8",
          "name": "v",
          "type": "uint8"
        },
        {
          "internalType": "bytes32",
          "name": "r",
          "type": "bytes32"
        },
        {
          "internalType": "bytes32",
          "name": "s",
          "type": "bytes32"
        }
      ],
      "name": "permit",
      "outputs": [],
      "stateMutability": "nonpayable",
      "type": "function"
    },
    {
      "inputs": [
        {
          "internalType": "bytes32",
          "name": "role",
          "type": "bytes32"
        },
        {
          "internalType": "address",
          "name": "account",
          "type": "address"
        }
      ],
      "name": "renounceRole",
      "outputs": [],
      "stateMutability": "nonpayable",
      "type": "function"
    },
    {
      "inputs": [
        {
          "internalType": "bytes32",
          "name": "role",
          "type": "bytes32"
        },
        {
          "internalType": "address",
          "name": "account",
          "type": "address"
        }
      ],
      "name": "revokeRole",
      "outputs": [],
      "stateMutability": "nonpayable",
      "type": "function"
    },
    {
      "inputs": [
        {
          "internalType": "bytes4",
          "name": "interfaceId",
          "type": "bytes4"
        }
      ],
      "name": "supportsInterface",
      "outputs": [
        {
          "internalType": "bool",
          "name": "",
          "type": "bool"
        }
      ],
      "stateMutability": "view",
      "type": "function"
    },
    {
      "inputs": [],
      "name": "symbol",
      "outputs": [
        {
          "internalType": "string",
          "name": "",
          "type": "string"
        }
      ],
      "stateMutability": "view",
      "type": "function"
    },
    {
      "inputs": [],
      "name": "totalSupply",
      "outputs": [
        {
          "internalType": "uint256",
          "name": "",
          "type": "uint256"
        }
      ],
      "stateMutability": "view",
      "type": "function"
    },
    {
      "inputs": [
        {
          "internalType": "address",
          "name": "to",
          "type": "address"
        },
        {
          "internalType": "uint256",
          "name": "amount",
          "type": "uint256"
        }
      ],
      "name": "transfer",
      "outputs": [
        {
          "internalType": "bool",
          "name": "",
          "type": "bool"
        }
      ],
      "stateMutability": "nonpayable",
      "type": "function"
    },
    {
      "inputs": [
        {
          "internalType": "address",
          "name": "from",
          "type": "address"
        },
        {
          "internalType": "address",
          "name": "to",
          "type": "address"
        },
        {
          "internalType": "uint256",
          "name": "amount",
          "type": "uint256"
        }
      ],
      "name": "transferFrom",
      "outputs": [
        {
          "internalType": "bool",
          "name": "",
          "type": "bool"
        }
      ],
      "stateMutability": "nonpayable",
      "type": "function"
    },
    {
      "inputs": [],
      "name": "unpause",
      "outputs": [],
      "stateMutability": "nonpayable",
      "type": "function"
    }
  ],
  "bytecode": "0x608060405234801561001057600080fd5b50613bdc806100206000396000f3fe608060405234801561001057600080fd5b50600436106101a95760003560e01c80636e810b1a116100f9578063a457c2d711610097578063c4d66de811610071578063c4d66de8146104e6578063d505accf14610502578063d547741f1461051e578063dd62ed3e1461053a576101a9565b8063a457c2d714610468578063a9059cbb14610498578063b6db75a0146104c8576101a9565b80638456cb59116100d35780638456cb59146103f257806391d14854146103fc57806395d89b411461042c578063a217fddf1461044a576101a9565b80636e810b1a1461037657806370a08231146103925780637ecebe00146103c2576101a9565b80632f2ff15d1161016657806336568abe1161014057806336568abe14610302578063395093511461031e5780633f4ba83a1461034e5780635c975abb14610358576101a9565b80632f2ff15d146102aa578063313ce567146102c65780633644e515146102e4576101a9565b806301ffc9a7146101ae57806306fdde03146101de578063095ea7b3146101fc57806318160ddd1461022c57806323b872dd1461024a578063248a9ca31461027a575b600080fd5b6101c860048036038101906101c39190612573565b61056a565b6040516101d591906125bb565b60405180910390f35b6101e66105e4565b6040516101f39190612666565b60405180910390f35b6102166004803603810190610211919061271c565b610676565b60405161022391906125bb565b60405180910390f35b610234610699565b604051610241919061276b565b60405180910390f35b610264600480360381019061025f9190612786565b6106a3565b60405161027191906125bb565b60405180910390f35b610294600480360381019061028f919061280f565b6106d2565b6040516102a1919061284b565b60405180910390f35b6102c460048036038101906102bf9190612866565b6106f3565b005b6102ce610714565b6040516102db91906128c2565b60405180910390f35b6102ec61071d565b6040516102f9919061284b565b60405180910390f35b61031c60048036038101906103179190612866565b61072c565b005b6103386004803603810190610333919061271c565b6107af565b60405161034591906125bb565b60405180910390f35b6103566107e6565b005b610360610837565b60405161036d91906125bb565b60405180910390f35b610390600480360381019061038b91906128dd565b61084e565b005b6103ac60048036038101906103a791906128dd565b610970565b6040516103b9919061276b565b60405180910390f35b6103dc60048036038101906103d791906128dd565b6109b9565b6040516103e9919061276b565b60405180910390f35b6103fa610a09565b005b61041660048036038101906104119190612866565b610a5a565b60405161042391906125bb565b60405180910390f35b610434610ac6565b6040516104419190612666565b60405180910390f35b610452610b58565b60405161045f919061284b565b60405180910390f35b610482600480360381019061047d919061271c565b610b5f565b60405161048f91906125bb565b60405180910390f35b6104b260048036038101906104ad919061271c565b610bd6565b6040516104bf91906125bb565b60405180910390f35b6104d0610bf9565b6040516104dd91906125bb565b60405180910390f35b61050060048036038101906104fb91906128dd565b610c18565b005b61051c60048036038101906105179190612936565b610e26565b005b61053860048036038101906105339190612866565b610f68565b005b610554600480360381019061054f91906129d8565b610f89565b604051610561919061276b565b60405180910390f35b60007f7965db0b000000000000000000000000000000000000000000000000000000007bffffffffffffffffffffffffffffffffffffffffffffffffffffffff1916827bffffffffffffffffffffffffffffffffffffffffffffffffffffffff191614806105dd57506105dc82611010565b5b9050919050565b6060603680546105f390612a47565b80601f016020809104026020016040519081016040528092919081815260200182805461061f90612a47565b801561066c5780601f106106415761010080835404028352916020019161066c565b820191906000526020600020905b81548152906001019060200180831161064f57829003601f168201915b5050505050905090565b60008061068161107a565b905061068e818585611082565b600191505092915050565b6000603554905090565b6000806106ae61107a565b90506106bb85828561124b565b6106c68585856112d7565b60019150509392505050565b60006101306000838152602001908152602001600020600101549050919050565b6106fc826106d2565b61070581611550565b61070f8383611564565b505050565b60006012905090565b6000610727611646565b905090565b61073461107a565b73ffffffffffffffffffffffffffffffffffffffff168173ffffffffffffffffffffffffffffffffffffffff16146107a1576040517f08c379a000000000000000000000000000000000000000000000000000000000815260040161079890612aea565b60405180910390fd5b6107ab8282611686565b5050565b6000806107ba61107a565b90506107db8185856107cc8589610f89565b6107d69190612b39565b611082565b600191505092915050565b6107ee610bf9565b61082d576040517f08c379a000000000000000000000000000000000000000000000000000000000815260040161082490612bdf565b60405180910390fd5b610835611769565b565b600060cc60009054906101000a900460ff16905090565b600060019054906101000a900460ff1661089d576040517f08c379a000000000000000000000000000000000000000000000000000000000815260040161089490612c71565b60405180910390fd5b600073ffffffffffffffffffffffffffffffffffffffff168173ffffffffffffffffffffffffffffffffffffffff1603610903576040517f5415139400000000000000000000000000000000000000000000000000000000815260040160405180910390fd5b61090b6117cc565b610913611825565b61091b611876565b61092c6109266118cf565b82611564565b61093d6109376118f7565b82611564565b6109556109486118f7565b6109506118cf565b61191f565b61096d6109606118cf565b6109686118cf565b61191f565b50565b6000603360008373ffffffffffffffffffffffffffffffffffffffff1673ffffffffffffffffffffffffffffffffffffffff168152602001908152602001600020549050919050565b6000610a02609960008473ffffffffffffffffffffffffffffffffffffffff1673ffffffffffffffffffffffffffffffffffffffff16815260200190815260200160002061197c565b9050919050565b610a11610bf9565b610a50576040517f08c379a0000000000000000000000000000000000000000000000000000000008152600401610a4790612bdf565b60405180910390fd5b610a5861198a565b565b6000610130600084815260200190815260200160002060000160008373ffffffffffffffffffffffffffffffffffffffff1673ffffffffffffffffffffffffffffffffffffffff16815260200190815260200160002060009054906101000a900460ff16905092915050565b606060378054610ad590612a47565b80601f0160208091040260200160405190810160405280929190818152602001828054610b0190612a47565b8015610b4e5780601f10610b2357610100808354040283529160200191610b4e565b820191906000526020600020905b815481529060010190602001808311610b3157829003601f168201915b5050505050905090565b6000801b81565b600080610b6a61107a565b90506000610b788286610f89565b905083811015610bbd576040517f08c379a0000000000000000000000000000000000000000000000000000000008152600401610bb490612d03565b60405180910390fd5b610bca8286868403611082565b60019250505092915050565b600080610be161107a565b9050610bee8185856112d7565b600191505092915050565b6000610c13610c066118cf565b610c0e61107a565b610a5a565b905090565b60008060019054906101000a900460ff16159050808015610c495750600160008054906101000a900460ff1660ff16105b80610c765750610c58306119ed565b158015610c755750600160008054906101000a900460ff1660ff16145b5b610cb5576040517f08c379a0000000000000000000000000000000000000000000000000000000008152600401610cac90612d95565b60405180910390fd5b60016000806101000a81548160ff021916908360ff1602179055508015610cf2576001600060016101000a81548160ff0219169083151502179055505b610d666040518060400160405280600981526020017f47656e5a204c61627300000000000000000000000000000000000000000000008152506040518060400160405280600481526020017f47454e5a00000000000000000000000000000000000000000000000000000000815250611a10565b610da46040518060400160405280600481526020017f47454e5a00000000000000000000000000000000000000000000000000000000815250611a6d565b610db4610daf61107a565b61084e565b610dc9826a52b7d2dcc80cd2e4000000611afe565b8015610e225760008060016101000a81548160ff0219169083151502179055507f7f26b83ff96e1f2b6a682f133852f6798a09c465da95921460cefb38474024986001604051610e199190612dfa565b60405180910390a15b5050565b83421115610e69576040517f08c379a0000000000000000000000000000000000000000000000000000000008152600401610e6090612e61565b60405180910390fd5b60007f6e71edae12b1b97f4d1f60370fef10105fa2faae0126114a169c64845d6126c9888888610e988c611c55565b89604051602001610eae96959493929190612e90565b6040516020818303038152906040528051906020012090506000610ed182611cb3565b90506000610ee182878787611ccd565b90508973ffffffffffffffffffffffffffffffffffffffff168173ffffffffffffffffffffffffffffffffffffffff1614610f51576040517f08c379a0000000000000000000000000000000000000000000000000000000008152600401610f4890612f3d565b60405180910390fd5b610f5c8a8a8a611082565b50505050505050505050565b610f71826106d2565b610f7a81611550565b610f848383611686565b505050565b6000603460008473ffffffffffffffffffffffffffffffffffffffff1673ffffffffffffffffffffffffffffffffffffffff16815260200190815260200160002060008373ffffffffffffffffffffffffffffffffffffffff1673ffffffffffffffffffffffffffffffffffffffff16815260200190815260200160002054905092915050565b60007f01ffc9a7000000000000000000000000000000000000000000000000000000007bffffffffffffffffffffffffffffffffffffffffffffffffffffffff1916827bffffffffffffffffffffffffffffffffffffffffffffffffffffffff1916149050919050565b600033905090565b600073ffffffffffffffffffffffffffffffffffffffff168373ffffffffffffffffffffffffffffffffffffffff16036110f1576040517f08c379a00000000000000000000000000000000000000000000000000000000081526004016110e890612fcf565b60405180910390fd5b600073ffffffffffffffffffffffffffffffffffffffff168273ffffffffffffffffffffffffffffffffffffffff1603611160576040517f08c379a000000000000000000000000000000000000000000000000000000000815260040161115790613061565b60405180910390fd5b80603460008573ffffffffffffffffffffffffffffffffffffffff1673ffffffffffffffffffffffffffffffffffffffff16815260200190815260200160002060008473ffffffffffffffffffffffffffffffffffffffff1673ffffffffffffffffffffffffffffffffffffffff168152602001908152602001600020819055508173ffffffffffffffffffffffffffffffffffffffff168373ffffffffffffffffffffffffffffffffffffffff167f8c5be1e5ebec7d5bd14f71427d1e84f3dd0314c0f7b2291e5b200ac8c7c3b9258360405161123e919061276b565b60405180910390a3505050565b60006112578484610f89565b90507fffffffffffffffffffffffffffffffffffffffffffffffffffffffffffffffff81146112d157818110156112c3576040517f08c379a00000000000000000000000000000000000000000000000000000000081526004016112ba906130cd565b60405180910390fd5b6112d08484848403611082565b5b50505050565b600073ffffffffffffffffffffffffffffffffffffffff168373ffffffffffffffffffffffffffffffffffffffff1603611346576040517f08c379a000000000000000000000000000000000000000000000000000000000815260040161133d9061315f565b60405180910390fd5b600073ffffffffffffffffffffffffffffffffffffffff168273ffffffffffffffffffffffffffffffffffffffff16036113b5576040517f08c379a00000000000000000000000000000000000000000000000000000000081526004016113ac906131f1565b60405180910390fd5b6113c0838383611cf8565b6000603360008573ffffffffffffffffffffffffffffffffffffffff1673ffffffffffffffffffffffffffffffffffffffff16815260200190815260200160002054905081811015611447576040517f08c379a000000000000000000000000000000000000000000000000000000000815260040161143e90613283565b60405180910390fd5b818103603360008673ffffffffffffffffffffffffffffffffffffffff1673ffffffffffffffffffffffffffffffffffffffff1681526020019081526020016000208190555081603360008573ffffffffffffffffffffffffffffffffffffffff1673ffffffffffffffffffffffffffffffffffffffff168152602001908152602001600020600082825401925050819055508273ffffffffffffffffffffffffffffffffffffffff168473ffffffffffffffffffffffffffffffffffffffff167fddf252ad1be2c89b69c2b068fc378daa952ba7f163c4a11628f55a4df523b3ef84604051611537919061276b565b60405180910390a361154a848484611cfd565b50505050565b6115618161155c61107a565b611d02565b50565b61156e8282610a5a565b611642576001610130600084815260200190815260200160002060000160008373ffffffffffffffffffffffffffffffffffffffff1673ffffffffffffffffffffffffffffffffffffffff16815260200190815260200160002060006101000a81548160ff0219169083151502179055506115e761107a565b73ffffffffffffffffffffffffffffffffffffffff168173ffffffffffffffffffffffffffffffffffffffff16837f2f8788117e7eff1d82e926ec794901d17c78024a50270940304540a733656f0d60405160405180910390a45b5050565b60006116817f8b73c3c69bb8fe3d512ecc4cf759cc79239f7b179b0ffacaa9a75d522b39400f611674611d87565b61167c611d91565b611d9b565b905090565b6116908282610a5a565b15611765576000610130600084815260200190815260200160002060000160008373ffffffffffffffffffffffffffffffffffffffff1673ffffffffffffffffffffffffffffffffffffffff16815260200190815260200160002060006101000a81548160ff02191690831515021790555061170a61107a565b73ffffffffffffffffffffffffffffffffffffffff168173ffffffffffffffffffffffffffffffffffffffff16837ff6391f5c32d9c69d2a47ea670b442974b53935d1edc7fd64eb21e047a839171b60405160405180910390a45b5050565b611771611dd5565b600060cc60006101000a81548160ff0219169083151502179055507f5db9ee0a495bf2e6ff9c91a7834c1ba4fdd244a5e8aa4e537bd38aeae4b073aa6117b561107a565b6040516117c291906132a3565b60405180910390a1565b600060019054906101000a900460ff1661181b576040517f08c379a000000000000000000000000000000000000000000000000000000000815260040161181290612c71565b60405180910390fd5b611823611e1e565b565b600060019054906101000a900460ff16611874576040517f08c379a000000000000000000000000000000000000000000000000000000000815260040161186b90612c71565b60405180910390fd5b565b600060019054906101000a900460ff166118c5576040517f08c379a00000000000000000000000000000000000000000000000000000000081526004016118bc90612c71565b60405180910390fd5b6118cd611e8a565b565b60007fa49807205ce4d355092ef5a8a18f56e8913cf4a201fbe287825b095693c21775905090565b60007f65d7a28e3265b37a6474929f336521b332c1681b933f6cb9f3376673440d862a905090565b600061192a836106d2565b9050816101306000858152602001908152602001600020600101819055508181847fbd79b86ffe0ab8e8776151514217cd7cacd52c909f66475c3af44e129f0b00ff60405160405180910390a4505050565b600081600001549050919050565b611992611ee4565b600160cc60006101000a81548160ff0219169083151502179055507f62e78cea01bee320cd4e420270b5ea74000d11b0c9f74754ebdbfc544b05a2586119d661107a565b6040516119e391906132a3565b60405180910390a1565b6000808273ffffffffffffffffffffffffffffffffffffffff163b119050919050565b600060019054906101000a900460ff16611a5f576040517f08c379a0000000000000000000000000000000000000000000000000000000008152600401611a5690612c71565b60405180910390fd5b611a698282611f2e565b5050565b600060019054906101000a900460ff16611abc576040517f08c379a0000000000000000000000000000000000000000000000000000000008152600401611ab390612c71565b60405180910390fd5b611afb816040518060400160405280600181526020017f3100000000000000000000000000000000000000000000000000000000000000815250611fa1565b50565b600073ffffffffffffffffffffffffffffffffffffffff168273ffffffffffffffffffffffffffffffffffffffff1603611b6d576040517f08c379a0000000000000000000000000000000000000000000000000000000008152600401611b649061330a565b60405180910390fd5b611b7960008383611cf8565b8060356000828254611b8b9190612b39565b9250508190555080603360008473ffffffffffffffffffffffffffffffffffffffff1673ffffffffffffffffffffffffffffffffffffffff168152602001908152602001600020600082825401925050819055508173ffffffffffffffffffffffffffffffffffffffff16600073ffffffffffffffffffffffffffffffffffffffff167fddf252ad1be2c89b69c2b068fc378daa952ba7f163c4a11628f55a4df523b3ef83604051611c3d919061276b565b60405180910390a3611c5160008383611cfd565b5050565b600080609960008473ffffffffffffffffffffffffffffffffffffffff1673ffffffffffffffffffffffffffffffffffffffff1681526020019081526020016000209050611ca28161197c565b9150611cad8161201c565b50919050565b6000611cc6611cc0611646565b83612032565b9050919050565b6000806000611cde87878787612065565b91509150611ceb81612147565b8192505050949350505050565b505050565b505050565b611d0c8282610a5a565b611d8357611d19816122ad565b611d278360001c60206122da565b604051602001611d389291906133fe565b6040516020818303038152906040526040517f08c379a0000000000000000000000000000000000000000000000000000000008152600401611d7a9190612666565b60405180910390fd5b5050565b6000606554905090565b6000606654905090565b60008383834630604051602001611db6959493929190613438565b6040516020818303038152906040528051906020012090509392505050565b611ddd610837565b611e1c576040517f08c379a0000000000000000000000000000000000000000000000000000000008152600401611e13906134d7565b60405180910390fd5b565b600060019054906101000a900460ff16611e6d576040517f08c379a0000000000000000000000000000000000000000000000000000000008152600401611e6490612c71565b60405180910390fd5b600060cc60006101000a81548160ff021916908315150217905550565b600060019054906101000a900460ff16611ed9576040517f08c379a0000000000000000000000000000000000000000000000000000000008152600401611ed090612c71565b60405180910390fd5b600161016281905550565b611eec610837565b15611f2c576040517f08c379a0000000000000000000000000000000000000000000000000000000008152600401611f2390613543565b60405180910390fd5b565b600060019054906101000a900460ff16611f7d576040517f08c379a0000000000000000000000000000000000000000000000000000000008152600401611f7490612c71565b60405180910390fd5b8160369081611f8c9190613734565b508060379081611f9c9190613734565b505050565b600060019054906101000a900460ff16611ff0576040517f08c379a0000000000000000000000000000000000000000000000000000000008152600401611fe790612c71565b60405180910390fd5b600082805190602001209050600082805190602001209050816065819055508060668190555050505050565b6001816000016000828254019250508190555050565b60008282604051602001612047929190613873565b60405160208183030381529060405280519060200120905092915050565b6000807f7fffffffffffffffffffffffffffffff5d576e7357a4501ddfe92f46681b20a08360001c11156120a057600060039150915061213e565b6000600187878787604051600081526020016040526040516120c594939291906138aa565b6020604051602081039080840390855afa1580156120e7573d6000803e3d6000fd5b505050602060405103519050600073ffffffffffffffffffffffffffffffffffffffff168173ffffffffffffffffffffffffffffffffffffffff16036121355760006001925092505061213e565b80600092509250505b94509492505050565b6000600481111561215b5761215a6138ef565b5b81600481111561216e5761216d6138ef565b5b03156122aa5760016004811115612188576121876138ef565b5b81600481111561219b5761219a6138ef565b5b036121db576040517f08c379a00000000000000000000000000000000000000000000000000000000081526004016121d29061396a565b60405180910390fd5b600260048111156121ef576121ee6138ef565b5b816004811115612202576122016138ef565b5b03612242576040517f08c379a0000000000000000000000000000000000000000000000000000000008152600401612239906139d6565b60405180910390fd5b60036004811115612256576122556138ef565b5b816004811115612269576122686138ef565b5b036122a9576040517f08c379a00000000000000000000000000000000000000000000000000000000081526004016122a090613a68565b60405180910390fd5b5b50565b60606122d38273ffffffffffffffffffffffffffffffffffffffff16601460ff166122da565b9050919050565b6060600060028360026122ed9190613a88565b6122f79190612b39565b67ffffffffffffffff8111156123105761230f613563565b5b6040519080825280601f01601f1916602001820160405280156123425781602001600182028036833780820191505090505b5090507f30000000000000000000000000000000000000000000000000000000000000008160008151811061237a57612379613ae2565b5b60200101907effffffffffffffffffffffffffffffffffffffffffffffffffffffffffffff1916908160001a9053507f7800000000000000000000000000000000000000000000000000000000000000816001815181106123de576123dd613ae2565b5b60200101907effffffffffffffffffffffffffffffffffffffffffffffffffffffffffffff1916908160001a9053506000600184600261241e9190613a88565b6124289190612b39565b90505b60018111156124c8577f3031323334353637383961626364656600000000000000000000000000000000600f86166010811061246a57612469613ae2565b5b1a60f81b82828151811061248157612480613ae2565b5b60200101907effffffffffffffffffffffffffffffffffffffffffffffffffffffffffffff1916908160001a905350600485901c9450806124c190613b11565b905061242b565b506000841461250c576040517f08c379a000000000000000000000000000000000000000000000000000000000815260040161250390613b86565b60405180910390fd5b8091505092915050565b600080fd5b60007fffffffff0000000000000000000000000000000000000000000000000000000082169050919050565b6125508161251b565b811461255b57600080fd5b50565b60008135905061256d81612547565b92915050565b60006020828403121561258957612588612516565b5b60006125978482850161255e565b91505092915050565b60008115159050919050565b6125b5816125a0565b82525050565b60006020820190506125d060008301846125ac565b92915050565b600081519050919050565b600082825260208201905092915050565b60005b838110156126105780820151818401526020810190506125f5565b60008484015250505050565b6000601f19601f8301169050919050565b6000612638826125d6565b61264281856125e1565b93506126528185602086016125f2565b61265b8161261c565b840191505092915050565b60006020820190508181036000830152612680818461262d565b905092915050565b600073ffffffffffffffffffffffffffffffffffffffff82169050919050565b60006126b382612688565b9050919050565b6126c3816126a8565b81146126ce57600080fd5b50565b6000813590506126e0816126ba565b92915050565b6000819050919050565b6126f9816126e6565b811461270457600080fd5b50565b600081359050612716816126f0565b92915050565b6000806040838503121561273357612732612516565b5b6000612741858286016126d1565b925050602061275285828601612707565b9150509250929050565b612765816126e6565b82525050565b6000602082019050612780600083018461275c565b92915050565b60008060006060848603121561279f5761279e612516565b5b60006127ad868287016126d1565b93505060206127be868287016126d1565b92505060406127cf86828701612707565b9150509250925092565b6000819050919050565b6127ec816127d9565b81146127f757600080fd5b50565b600081359050612809816127e3565b92915050565b60006020828403121561282557612824612516565b5b6000612833848285016127fa565b91505092915050565b612845816127d9565b82525050565b6000602082019050612860600083018461283c565b92915050565b6000806040838503121561287d5761287c612516565b5b600061288b858286016127fa565b925050602061289c858286016126d1565b9150509250929050565b600060ff82169050919050565b6128bc816128a6565b82525050565b60006020820190506128d760008301846128b3565b92915050565b6000602082840312156128f3576128f2612516565b5b6000612901848285016126d1565b91505092915050565b612913816128a6565b811461291e57600080fd5b50565b6000813590506129308161290a565b92915050565b600080600080600080600060e0888a03121561295557612954612516565b5b60006129638a828b016126d1565b97505060206129748a828b016126d1565b96505060406129858a828b01612707565b95505060606129968a828b01612707565b94505060806129a78a828b01612921565b93505060a06129b88a828b016127fa565b92505060c06129c98a828b016127fa565b91505092959891949750929550565b600080604083850312156129ef576129ee612516565b5b60006129fd858286016126d1565b9250506020612a0e858286016126d1565b9150509250929050565b7f4e487b7100000000000000000000000000000000000000000000000000000000600052602260045260246000fd5b60006002820490506001821680612a5f57607f821691505b602082108103612a7257612a71612a18565b5b50919050565b7f416363657373436f6e74726f6c3a2063616e206f6e6c792072656e6f756e636560008201527f20726f6c657320666f722073656c660000000000000000000000000000000000602082015250565b6000612ad4602f836125e1565b9150612adf82612a78565b604082019050919050565b60006020820190508181036000830152612b0381612ac7565b9050919050565b7f4e487b7100000000000000000000000000000000000000000000000000000000600052601160045260246000fd5b6000612b44826126e6565b9150612b4f836126e6565b9250828201905080821115612b6757612b66612b0a565b5b92915050565b7f4d75737420686176652061646d696e20726f6c6520746f20706572666f726d2060008201527f7468697320616374696f6e2e0000000000000000000000000000000000000000602082015250565b6000612bc9602c836125e1565b9150612bd482612b6d565b604082019050919050565b60006020820190508181036000830152612bf881612bbc565b9050919050565b7f496e697469616c697a61626c653a20636f6e7472616374206973206e6f74206960008201527f6e697469616c697a696e67000000000000000000000000000000000000000000602082015250565b6000612c5b602b836125e1565b9150612c6682612bff565b604082019050919050565b60006020820190508181036000830152612c8a81612c4e565b9050919050565b7f45524332303a2064656372656173656420616c6c6f77616e63652062656c6f7760008201527f207a65726f000000000000000000000000000000000000000000000000000000602082015250565b6000612ced6025836125e1565b9150612cf882612c91565b604082019050919050565b60006020820190508181036000830152612d1c81612ce0565b9050919050565b7f496e697469616c697a61626c653a20636f6e747261637420697320616c72656160008201527f647920696e697469616c697a6564000000000000000000000000000000000000602082015250565b6000612d7f602e836125e1565b9150612d8a82612d23565b604082019050919050565b60006020820190508181036000830152612dae81612d72565b9050919050565b6000819050919050565b6000819050919050565b6000612de4612ddf612dda84612db5565b612dbf565b6128a6565b9050919050565b612df481612dc9565b82525050565b6000602082019050612e0f6000830184612deb565b92915050565b7f45524332305065726d69743a206578706972656420646561646c696e65000000600082015250565b6000612e4b601d836125e1565b9150612e5682612e15565b602082019050919050565b60006020820190508181036000830152612e7a81612e3e565b9050919050565b612e8a816126a8565b82525050565b600060c082019050612ea5600083018961283c565b612eb26020830188612e81565b612ebf6040830187612e81565b612ecc606083018661275c565b612ed9608083018561275c565b612ee660a083018461275c565b979650505050505050565b7f45524332305065726d69743a20696e76616c6964207369676e61747572650000600082015250565b6000612f27601e836125e1565b9150612f3282612ef1565b602082019050919050565b60006020820190508181036000830152612f5681612f1a565b9050919050565b7f45524332303a20617070726f76652066726f6d20746865207a65726f2061646460008201527f7265737300000000000000000000000000000000000000000000000000000000602082015250565b6000612fb96024836125e1565b9150612fc482612f5d565b604082019050919050565b60006020820190508181036000830152612fe881612fac565b9050919050565b7f45524332303a20617070726f766520746f20746865207a65726f20616464726560008201527f7373000000000000000000000000000000000000000000000000000000000000602082015250565b600061304b6022836125e1565b915061305682612fef565b604082019050919050565b6000602082019050818103600083015261307a8161303e565b9050919050565b7f45524332303a20696e73756666696369656e7420616c6c6f77616e6365000000600082015250565b60006130b7601d836125e1565b91506130c282613081565b602082019050919050565b600060208201905081810360008301526130e6816130aa565b9050919050565b7f45524332303a207472616e736665722066726f6d20746865207a65726f20616460008201527f6472657373000000000000000000000000000000000000000000000000000000602082015250565b60006131496025836125e1565b9150613154826130ed565b604082019050919050565b600060208201905081810360008301526131788161313c565b9050919050565b7f45524332303a207472616e7366657220746f20746865207a65726f206164647260008201527f6573730000000000000000000000000000000000000000000000000000000000602082015250565b60006131db6023836125e1565b91506131e68261317f565b604082019050919050565b6000602082019050818103600083015261320a816131ce565b9050919050565b7f45524332303a207472616e7366657220616d6f756e742065786365656473206260008201527f616c616e63650000000000000000000000000000000000000000000000000000602082015250565b600061326d6026836125e1565b915061327882613211565b604082019050919050565b6000602082019050818103600083015261329c81613260565b9050919050565b60006020820190506132b86000830184612e81565b92915050565b7f45524332303a206d696e7420746f20746865207a65726f206164647265737300600082015250565b60006132f4601f836125e1565b91506132ff826132be565b602082019050919050565b60006020820190508181036000830152613323816132e7565b9050919050565b600081905092915050565b7f416363657373436f6e74726f6c3a206163636f756e7420000000000000000000600082015250565b600061336b60178361332a565b915061337682613335565b601782019050919050565b600061338c826125d6565b613396818561332a565b93506133a68185602086016125f2565b80840191505092915050565b7f206973206d697373696e6720726f6c6520000000000000000000000000000000600082015250565b60006133e860118361332a565b91506133f3826133b2565b601182019050919050565b60006134098261335e565b91506134158285613381565b9150613420826133db565b915061342c8284613381565b91508190509392505050565b600060a08201905061344d600083018861283c565b61345a602083018761283c565b613467604083018661283c565b613474606083018561275c565b6134816080830184612e81565b9695505050505050565b7f5061757361626c653a206e6f7420706175736564000000000000000000000000600082015250565b60006134c16014836125e1565b91506134cc8261348b565b602082019050919050565b600060208201905081810360008301526134f0816134b4565b9050919050565b7f5061757361626c653a2070617573656400000000000000000000000000000000600082015250565b600061352d6010836125e1565b9150613538826134f7565b602082019050919050565b6000602082019050818103600083015261355c81613520565b9050919050565b7f4e487b7100000000000000000000000000000000000000000000000000000000600052604160045260246000fd5b60008190508160005260206000209050919050565b60006020601f8301049050919050565b600082821b905092915050565b6000600883026135f47fffffffffffffffffffffffffffffffffffffffffffffffffffffffffffffffff826135b7565b6135fe86836135b7565b95508019841693508086168417925050509392505050565b600061363161362c613627846126e6565b612dbf565b6126e6565b9050919050565b6000819050919050565b61364b83613616565b61365f61365782613638565b8484546135c4565b825550505050565b600090565b613674613667565b61367f818484613642565b505050565b5b818110156136a35761369860008261366c565b600181019050613685565b5050565b601f8211156136e8576136b981613592565b6136c2846135a7565b810160208510156136d1578190505b6136e56136dd856135a7565b830182613684565b50505b505050565b600082821c905092915050565b600061370b600019846008026136ed565b1980831691505092915050565b600061372483836136fa565b9150826002028217905092915050565b61373d826125d6565b67ffffffffffffffff81111561375657613755613563565b5b6137608254612a47565b61376b8282856136a7565b600060209050601f83116001811461379e576000841561378c578287015190505b6137968582613718565b8655506137fe565b601f1984166137ac86613592565b60005b828110156137d4578489015182556001820191506020850194506020810190506137af565b868310156137f157848901516137ed601f8916826136fa565b8355505b6001600288020188555050505b505050505050565b7f1901000000000000000000000000000000000000000000000000000000000000600082015250565b600061383c60028361332a565b915061384782613806565b600282019050919050565b6000819050919050565b61386d613868826127d9565b613852565b82525050565b600061387e8261382f565b915061388a828561385c565b60208201915061389a828461385c565b6020820191508190509392505050565b60006080820190506138bf600083018761283c565b6138cc60208301866128b3565b6138d9604083018561283c565b6138e6606083018461283c565b95945050505050565b7f4e487b7100000000000000000000000000000000000000000000000000000000600052602160045260246000fd5b7f45434453413a20696e76616c6964207369676e61747572650000000000000000600082015250565b60006139546018836125e1565b915061395f8261391e565b602082019050919050565b6000602082019050818103600083015261398381613947565b9050919050565b7f45434453413a20696e76616c6964207369676e6174757265206c656e67746800600082015250565b60006139c0601f836125e1565b91506139cb8261398a565b602082019050919050565b600060208201905081810360008301526139ef816139b3565b9050919050565b7f45434453413a20696e76616c6964207369676e6174757265202773272076616c60008201527f7565000000000000000000000000000000000000000000000000000000000000602082015250565b6000613a526022836125e1565b9150613a5d826139f6565b604082019050919050565b60006020820190508181036000830152613a8181613a45565b9050919050565b6000613a93826126e6565b9150613a9e836126e6565b9250817fffffffffffffffffffffffffffffffffffffffffffffffffffffffffffffffff0483118215151615613ad757613ad6612b0a565b5b828202905092915050565b7f4e487b7100000000000000000000000000000000000000000000000000000000600052603260045260246000fd5b6000613b1c826126e6565b915060008203613b2f57613b2e612b0a565b5b600182039050919050565b7f537472696e67733a20686578206c656e67746820696e73756666696369656e74600082015250565b6000613b706020836125e1565b9150613b7b82613b3a565b602082019050919050565b60006020820190508181036000830152613b9f81613b63565b905091905056fea2646970667358221220c2108b52150c4bd6933d28c869f7df1aa67adc2f888e730f6f07cb4b7f460db864736f6c63430008100033",
  "linkReferences": {},
  "deployedLinkReferences": {}
}