{
  "_format": "hh-sol-artifact-1",
  "contractName": "GENZStaking",
  "sourceName": "contracts/core/staking/GENZStaking.sol",
  "abi": [
    {
      "inputs": [
        {
          "internalType": "address",
          "name": "tokenAddressGENZ",
          "type": "address"
        }
      ],
      "stateMutability": "nonpayable",
      "type": "constructor"
    },
    {
      "inputs": [],
      "name": "BaseUpgradeablePausable__ZeroAddressError",
      "type": "error"
    },
    {
      "inputs": [],
      "name": "GENZStaking__NotAMinimumStakeAmountError",
      "type": "error"
    },
    {
      "inputs": [],
      "name": "GENZStaking__TransactionFailedError",
      "type": "error"
    },
    {
      "anonymous": false,
      "inputs": [
        {
          "indexed": false,
          "internalType": "uint8",
          "name": "version",
          "type": "uint8"
        }
      ],
      "name": "Initialized",
      "type": "event"
    },
    {
      "anonymous": false,
      "inputs": [
        {
          "indexed": false,
          "internalType": "address",
          "name": "account",
          "type": "address"
        }
      ],
      "name": "Paused",
      "type": "event"
    },
    {
      "anonymous": false,
      "inputs": [
        {
          "indexed": true,
          "internalType": "bytes32",
          "name": "role",
          "type": "bytes32"
        },
        {
          "indexed": true,
          "internalType": "bytes32",
          "name": "previousAdminRole",
          "type": "bytes32"
        },
        {
          "indexed": true,
          "internalType": "bytes32",
          "name": "newAdminRole",
          "type": "bytes32"
        }
      ],
      "name": "RoleAdminChanged",
      "type": "event"
    },
    {
      "anonymous": false,
      "inputs": [
        {
          "indexed": true,
          "internalType": "bytes32",
          "name": "role",
          "type": "bytes32"
        },
        {
          "indexed": true,
          "internalType": "address",
          "name": "account",
          "type": "address"
        },
        {
          "indexed": true,
          "internalType": "address",
          "name": "sender",
          "type": "address"
        }
      ],
      "name": "RoleGranted",
      "type": "event"
    },
    {
      "anonymous": false,
      "inputs": [
        {
          "indexed": true,
          "internalType": "bytes32",
          "name": "role",
          "type": "bytes32"
        },
        {
          "indexed": true,
          "internalType": "address",
          "name": "account",
          "type": "address"
        },
        {
          "indexed": true,
          "internalType": "address",
          "name": "sender",
          "type": "address"
        }
      ],
      "name": "RoleRevoked",
      "type": "event"
    },
    {
      "anonymous": false,
      "inputs": [
        {
          "indexed": true,
          "internalType": "address",
          "name": "userAddress",
          "type": "address"
        },
        {
          "indexed": false,
          "internalType": "uint256",
          "name": "value",
          "type": "uint256"
        }
      ],
      "name": "StakedGENZ",
      "type": "event"
    },
    {
      "anonymous": false,
      "inputs": [
        {
          "indexed": false,
          "internalType": "address",
          "name": "account",
          "type": "address"
        }
      ],
      "name": "Unpaused",
      "type": "event"
    },
    {
      "anonymous": false,
      "inputs": [
        {
          "indexed": true,
          "internalType": "address",
          "name": "userAddress",
          "type": "address"
        },
        {
          "indexed": false,
          "internalType": "uint256",
          "name": "value",
          "type": "uint256"
        }
      ],
      "name": "UnstakedGENZ",
      "type": "event"
    },
    {
      "anonymous": false,
      "inputs": [
        {
          "indexed": true,
          "internalType": "uint256",
          "name": "value",
          "type": "uint256"
        }
      ],
      "name": "UpdatedMinStakingAmount",
      "type": "event"
    },
    {
      "anonymous": false,
      "inputs": [
        {
          "indexed": true,
          "internalType": "uint256",
          "name": "timeInMinutes",
          "type": "uint256"
        }
      ],
      "name": "UpdatedWithdrawTimer",
      "type": "event"
    },
    {
      "inputs": [],
      "name": "DEFAULT_ADMIN_ROLE",
      "outputs": [
        {
          "internalType": "bytes32",
          "name": "",
          "type": "bytes32"
        }
      ],
      "stateMutability": "view",
      "type": "function"
    },
    {
      "inputs": [
        {
          "internalType": "address",
          "name": "owner",
          "type": "address"
        }
      ],
      "name": "__BaseUpgradeablePausable_init",
      "outputs": [],
      "stateMutability": "nonpayable",
      "type": "function"
    },
    {
      "inputs": [
        {
          "internalType": "uint256",
          "name": "value",
          "type": "uint256"
        }
      ],
      "name": "activateWithdrawalTimer",
      "outputs": [
        {
          "internalType": "bool",
          "name": "",
          "type": "bool"
        }
      ],
      "stateMutability": "nonpayable",
      "type": "function"
    },
    {
      "inputs": [],
      "name": "calculateRewards",
      "outputs": [
        {
          "internalType": "uint256",
          "name": "",
          "type": "uint256"
        }
      ],
      "stateMutability": "view",
      "type": "function"
    },
    {
      "inputs": [
        {
          "internalType": "address",
          "name": "",
          "type": "address"
        }
      ],
      "name": "checkWaitTime",
      "outputs": [
        {
          "internalType": "bool",
          "name": "ifTimerStarted",
          "type": "bool"
        },
        {
          "internalType": "uint256",
          "name": "GENZTokenCount",
          "type": "uint256"
        },
        {
          "internalType": "uint256",
          "name": "canWithdrawTime",
          "type": "uint256"
        }
      ],
      "stateMutability": "view",
      "type": "function"
    },
    {
      "inputs": [],
      "name": "currVersion",
      "outputs": [
        {
          "internalType": "uint256",
          "name": "",
          "type": "uint256"
        }
      ],
      "stateMutability": "view",
      "type": "function"
    },
    {
      "inputs": [
        {
          "internalType": "bytes32",
          "name": "role",
          "type": "bytes32"
        }
      ],
      "name": "getRoleAdmin",
      "outputs": [
        {
          "internalType": "bytes32",
          "name": "",
          "type": "bytes32"
        }
      ],
      "stateMutability": "view",
      "type": "function"
    },
    {
      "inputs": [
        {
          "internalType": "bytes32",
          "name": "role",
          "type": "bytes32"
        },
        {
          "internalType": "address",
          "name": "account",
          "type": "address"
        }
      ],
      "name": "grantRole",
      "outputs": [],
      "stateMutability": "nonpayable",
      "type": "function"
    },
    {
      "inputs": [
        {
          "internalType": "bytes32",
          "name": "role",
          "type": "bytes32"
        },
        {
          "internalType": "address",
          "name": "account",
          "type": "address"
        }
      ],
      "name": "hasRole",
      "outputs": [
        {
          "internalType": "bool",
          "name": "",
          "type": "bool"
        }
      ],
      "stateMutability": "view",
      "type": "function"
    },
    {
      "inputs": [
        {
          "internalType": "uint256",
          "name": "timeInDays",
          "type": "uint256"
        }
      ],
      "name": "initialize",
      "outputs": [],
      "stateMutability": "nonpayable",
      "type": "function"
    },
    {
      "inputs": [],
      "name": "isAdmin",
      "outputs": [
        {
          "internalType": "bool",
          "name": "",
          "type": "bool"
        }
      ],
      "stateMutability": "view",
      "type": "function"
    },
    {
      "inputs": [],
      "name": "isModerator",
      "outputs": [
        {
          "internalType": "bool",
          "name": "",
          "type": "bool"
        }
      ],
      "stateMutability": "view",
      "type": "function"
    },
    {
      "inputs": [],
      "name": "minStakeValue",
      "outputs": [
        {
          "internalType": "uint256",
          "name": "",
          "type": "uint256"
        }
      ],
      "stateMutability": "view",
      "type": "function"
    },
    {
      "inputs": [],
      "name": "pause",
      "outputs": [],
      "stateMutability": "nonpayable",
      "type": "function"
    },
    {
      "inputs": [],
      "name": "paused",
      "outputs": [
        {
          "internalType": "bool",
          "name": "",
          "type": "bool"
        }
      ],
      "stateMutability": "view",
      "type": "function"
    },
    {
      "inputs": [
        {
          "internalType": "bytes32",
          "name": "role",
          "type": "bytes32"
        },
        {
          "internalType": "address",
          "name": "account",
          "type": "address"
        }
      ],
      "name": "renounceRole",
      "outputs": [],
      "stateMutability": "nonpayable",
      "type": "function"
    },
    {
      "inputs": [
        {
          "internalType": "bytes32",
          "name": "role",
          "type": "bytes32"
        },
        {
          "internalType": "address",
          "name": "account",
          "type": "address"
        }
      ],
      "name": "revokeRole",
      "outputs": [],
      "stateMutability": "nonpayable",
      "type": "function"
    },
    {
      "inputs": [
        {
          "internalType": "uint256",
          "name": "timeInMinutes",
          "type": "uint256"
        }
      ],
      "name": "setWithdrawTime",
      "outputs": [],
      "stateMutability": "nonpayable",
      "type": "function"
    },
    {
      "inputs": [
        {
          "internalType": "uint256",
          "name": "value",
          "type": "uint256"
        }
      ],
      "name": "stakeGENZ",
      "outputs": [
        {
          "internalType": "bool",
          "name": "",
          "type": "bool"
        }
      ],
      "stateMutability": "nonpayable",
      "type": "function"
    },
    {
      "inputs": [
        {
          "internalType": "bytes4",
          "name": "interfaceId",
          "type": "bytes4"
        }
      ],
      "name": "supportsInterface",
      "outputs": [
        {
          "internalType": "bool",
          "name": "",
          "type": "bool"
        }
      ],
      "stateMutability": "view",
      "type": "function"
    },
    {
      "inputs": [],
      "name": "tokenGENZ",
      "outputs": [
        {
          "internalType": "contract IERC20Upgradeable",
          "name": "",
          "type": "address"
        }
      ],
      "stateMutability": "view",
      "type": "function"
    },
    {
      "inputs": [],
      "name": "totalTokensStaked",
      "outputs": [
        {
          "internalType": "uint256",
          "name": "",
          "type": "uint256"
        }
      ],
      "stateMutability": "view",
      "type": "function"
    },
    {
      "inputs": [],
      "name": "unpause",
      "outputs": [],
      "stateMutability": "nonpayable",
      "type": "function"
    },
    {
      "inputs": [
        {
          "internalType": "uint256",
          "name": "value",
          "type": "uint256"
        }
      ],
      "name": "updateMinimumStakeAmount",
      "outputs": [],
      "stateMutability": "nonpayable",
      "type": "function"
    },
    {
      "inputs": [
        {
          "internalType": "address",
          "name": "",
          "type": "address"
        },
        {
          "internalType": "uint256",
          "name": "",
          "type": "uint256"
        }
      ],
      "name": "usersBalanceInfo",
      "outputs": [
        {
          "internalType": "uint256",
          "name": "stakedTokens",
          "type": "uint256"
        },
        {
          "internalType": "uint256",
          "name": "withdrawnTokens",
          "type": "uint256"
        }
      ],
      "stateMutability": "view",
      "type": "function"
    },
    {
      "inputs": [
        {
          "internalType": "address",
          "name": "",
          "type": "address"
        }
      ],
      "name": "usersInfo",
      "outputs": [
        {
          "internalType": "bool",
          "name": "hasStaked",
          "type": "bool"
        },
        {
          "internalType": "uint256",
          "name": "stakedTokens",
          "type": "uint256"
        },
        {
          "internalType": "uint256",
          "name": "startVersionBlock",
          "type": "uint256"
        },
        {
          "internalType": "uint256",
          "name": "claimedRewards",
          "type": "uint256"
        }
      ],
      "stateMutability": "view",
      "type": "function"
    },
    {
      "inputs": [
        {
          "internalType": "uint256",
          "name": "",
          "type": "uint256"
        }
      ],
      "name": "versionableInfos",
      "outputs": [
        {
          "internalType": "uint256",
          "name": "startTime",
          "type": "uint256"
        },
        {
          "internalType": "uint256",
          "name": "endTime",
          "type": "uint256"
        },
        {
          "internalType": "uint256",
          "name": "distributedAmount",
          "type": "uint256"
        },
        {
          "internalType": "uint256",
          "name": "tokenDistributed",
          "type": "uint256"
        }
      ],
      "stateMutability": "view",
      "type": "function"
    },
    {
      "inputs": [
        {
          "internalType": "uint256",
          "name": "value",
          "type": "uint256"
        }
      ],
      "name": "withdrawGENZ",
      "outputs": [
        {
          "internalType": "bool",
          "name": "",
          "type": "bool"
        }
      ],
      "stateMutability": "nonpayable",
      "type": "function"
    },
    {
      "inputs": [],
      "name": "withdrawTimer",
      "outputs": [
        {
          "internalType": "uint256",
          "name": "",
          "type": "uint256"
        }
      ],
      "stateMutability": "view",
      "type": "function"
    }
  ],
  "bytecode": "0x60a06040523480156200001157600080fd5b506040516200368e3803806200368e8339818101604052810190620000379190620000eb565b670de0b6b3a764000060fc819055508073ffffffffffffffffffffffffffffffffffffffff1660808173ffffffffffffffffffffffffffffffffffffffff1681525050506200011d565b600080fd5b600073ffffffffffffffffffffffffffffffffffffffff82169050919050565b6000620000b38262000086565b9050919050565b620000c581620000a6565b8114620000d157600080fd5b50565b600081519050620000e581620000ba565b92915050565b60006020828403121562000104576200010362000081565b5b60006200011484828501620000d4565b91505092915050565b608051613547620001476000396000818161094501528181610d49015261139e01526135476000f3fe608060405234801561001057600080fd5b50600436106101cf5760003560e01c80636e810b1a11610104578063b0e31b2d116100a2578063d6fb97a511610071578063d6fb97a514610511578063f7dc1ad714610541578063fe4b84df14610574578063ff2d94f014610590576101cf565b8063b0e31b2d14610487578063b6db75a0146104a5578063c22f5746146104c3578063d547741f146104f5576101cf565b806391d14854116100de57806391d14854146103fd578063a217fddf1461042d578063a8d6e68e1461044b578063aeabaff314610469576101cf565b80636e810b1a146103bb57806377539417146103d75780638456cb59146103f3576101cf565b80633f4ba83a116101715780635919a87b1161014b5780635919a87b1461031c5780635c975abb1461033a5780635d0eaaaf146103585780636c64f0b41461038b576101cf565b80633f4ba83a146102d857806354c5e0c7146102e25780635841858714610300576101cf565b80632f2ff15d116101ad5780632f2ff15d1461026457806336568abe146102805780633e50de301461029c5780633eedac45146102ba576101cf565b806301ffc9a7146101d4578063060e5c6e14610204578063248a9ca314610234575b600080fd5b6101ee60048036038101906101e99190612619565b6105c1565b6040516101fb9190612661565b60405180910390f35b61021e600480360381019061021991906126b2565b61063b565b60405161022b9190612661565b60405180910390f35b61024e60048036038101906102499190612715565b6109f0565b60405161025b9190612751565b60405180910390f35b61027e600480360381019061027991906127ca565b610a10565b005b61029a600480360381019061029591906127ca565b610a31565b005b6102a4610ab4565b6040516102b19190612819565b60405180910390f35b6102c2610c60565b6040516102cf9190612819565b60405180910390f35b6102e0610c66565b005b6102ea610cb7565b6040516102f79190612819565b60405180910390f35b61031a600480360381019061031591906126b2565b610cbd565b005b610324610d47565b6040516103319190612893565b60405180910390f35b610342610d6b565b60405161034f9190612661565b60405180910390f35b610372600480360381019061036d91906128ae565b610d82565b60405161038294939291906128db565b60405180910390f35b6103a560048036038101906103a091906126b2565b610dbf565b6040516103b29190612661565b60405180910390f35b6103d560048036038101906103d091906128ae565b610f0e565b005b6103f160048036038101906103ec91906126b2565b611030565b005b6103fb6110ae565b005b610417600480360381019061041291906127ca565b6110ff565b6040516104249190612661565b60405180910390f35b61043561116a565b6040516104429190612751565b60405180910390f35b610453611171565b6040516104609190612819565b60405180910390f35b610471611177565b60405161047e9190612661565b60405180910390f35b61048f611196565b60405161049c9190612819565b60405180910390f35b6104ad61119c565b6040516104ba9190612661565b60405180910390f35b6104dd60048036038101906104d891906128ae565b6111bb565b6040516104ec93929190612920565b60405180910390f35b61050f600480360381019061050a91906127ca565b6111f3565b005b61052b600480360381019061052691906126b2565b611214565b6040516105389190612661565b60405180910390f35b61055b600480360381019061055691906126b2565b61144a565b60405161056b9493929190612957565b60405180910390f35b61058e600480360381019061058991906126b2565b61147b565b005b6105aa60048036038101906105a5919061299c565b6115d5565b6040516105b89291906129dc565b60405180910390f35b60007f7965db0b000000000000000000000000000000000000000000000000000000007bffffffffffffffffffffffffffffffffffffffffffffffffffffffff1916827bffffffffffffffffffffffffffffffffffffffffffffffffffffffff19161480610634575061063382611607565b5b9050919050565b6000610645611671565b600060ff60006106536116c0565b73ffffffffffffffffffffffffffffffffffffffff1673ffffffffffffffffffffffffffffffffffffffff168152602001908152602001600020905082816001015410806106ea575061010060006106a96116c0565b73ffffffffffffffffffffffffffffffffffffffff1673ffffffffffffffffffffffffffffffffffffffff1681526020019081526020016000206002015442105b8061073e575061010060006106fd6116c0565b73ffffffffffffffffffffffffffffffffffffffff1673ffffffffffffffffffffffffffffffffffffffff1681526020019081526020016000206001015483115b15610775576040517f71a61d9d00000000000000000000000000000000000000000000000000000000815260040160405180910390fd5b60fb6000815461078490612a34565b919050819055508260fe600082825461079d9190612a7c565b92505081905550828160010160008282546107b89190612a7c565b925050819055508261010260006107cd6116c0565b73ffffffffffffffffffffffffffffffffffffffff1673ffffffffffffffffffffffffffffffffffffffff168152602001908152602001600020600060fb5481526020019081526020016000206001018190555082610100600061082f6116c0565b73ffffffffffffffffffffffffffffffffffffffff1673ffffffffffffffffffffffffffffffffffffffff16815260200190815260200160002060010154036108d657600061010060006108816116c0565b73ffffffffffffffffffffffffffffffffffffffff1673ffffffffffffffffffffffffffffffffffffffff16815260200190815260200160002060000160006101000a81548160ff0219169083151502179055505b8261010060006108e46116c0565b73ffffffffffffffffffffffffffffffffffffffff1673ffffffffffffffffffffffffffffffffffffffff16815260200190815260200160002060010160008282546109309190612a7c565b925050819055506109896109426116c0565b847f000000000000000000000000000000000000000000000000000000000000000073ffffffffffffffffffffffffffffffffffffffff166116c89092919063ffffffff16565b6109916116c0565b73ffffffffffffffffffffffffffffffffffffffff167f33acb29a4ba6d440da1a7ba75e505a000b362f21a991b589437f8f04dd98fd6b846040516109d69190612819565b60405180910390a260019150506109eb61174e565b919050565b600060976000838152602001908152602001600020600101549050919050565b610a19826109f0565b610a2281611758565b610a2c838361176c565b505050565b610a396116c0565b73ffffffffffffffffffffffffffffffffffffffff168173ffffffffffffffffffffffffffffffffffffffff1614610aa6576040517f08c379a0000000000000000000000000000000000000000000000000000000008152600401610a9d90612b33565b60405180910390fd5b610ab0828261184d565b5050565b600080600090506000610ac561192f565b9050600081600081518110610add57610adc612b53565b5b6020026020010151905060008060008390505b60fb548111610c545760006101026000610b086116c0565b73ffffffffffffffffffffffffffffffffffffffff1673ffffffffffffffffffffffffffffffffffffffff168152602001908152602001600020600083815260200190815260200160002060405180604001604052908160008201548152602001600182015481525050905081868481518110610b8857610b87612b53565b5b602002602001015103610bd957600081600001511115610bb957806000015187610bb29190612b82565b9650610bcc565b806020015187610bc99190612a7c565b96505b82610bd690612a34565b92505b600061010160008481526020019081526020016000209050600081600001548260010154610c079190612a7c565b9050816003015482600201548a83610c1f9190612bb6565b610c299190612bb6565b610c339190612c3f565b86610c3e9190612b82565b955083610c4a90612a34565b9350505050610af0565b50819550505050505090565b60fb5481565b610c6e61119c565b610cad576040517f08c379a0000000000000000000000000000000000000000000000000000000008152600401610ca490612ce2565b60405180910390fd5b610cb5611be4565b565b60fd5481565b610cc561119c565b610d04576040517f08c379a0000000000000000000000000000000000000000000000000000000008152600401610cfb90612ce2565b60405180910390fd5b603c81610d119190612bb6565b60fd81905550807fc43e5db88f387521adfb9f79c0c9efd47004dc3a041358383ecccb1a1509dbf660405160405180910390a250565b7f000000000000000000000000000000000000000000000000000000000000000081565b6000603360009054906101000a900460ff16905090565b60ff6020528060005260406000206000915090508060000160009054906101000a900460ff16908060010154908060020154908060030154905084565b60006101006000610dce6116c0565b73ffffffffffffffffffffffffffffffffffffffff1673ffffffffffffffffffffffffffffffffffffffff16815260200190815260200160002060000160009054906101000a900460ff161580610e6e5750816101006000610e2e6116c0565b73ffffffffffffffffffffffffffffffffffffffff1673ffffffffffffffffffffffffffffffffffffffff16815260200190815260200160002060010154105b15610f045760006101006000610e826116c0565b73ffffffffffffffffffffffffffffffffffffffff1673ffffffffffffffffffffffffffffffffffffffff168152602001908152602001600020905060018160000160006101000a81548160ff0219169083151502179055508281600101819055504260fd54610ef29190612b82565b81600201819055506001915050610f09565b600090505b919050565b600060019054906101000a900460ff16610f5d576040517f08c379a0000000000000000000000000000000000000000000000000000000008152600401610f5490612d74565b60405180910390fd5b600073ffffffffffffffffffffffffffffffffffffffff168173ffffffffffffffffffffffffffffffffffffffff1603610fc3576040517f5415139400000000000000000000000000000000000000000000000000000000815260040160405180910390fd5b610fcb611c47565b610fd3611ca0565b610fdb611cf1565b610fec610fe6611d4a565b8261176c565b610ffd610ff7611d72565b8261176c565b611015611008611d72565b611010611d4a565b611d9a565b61102d611020611d4a565b611028611d4a565b611d9a565b50565b61103861119c565b611077576040517f08c379a000000000000000000000000000000000000000000000000000000000815260040161106e90612ce2565b60405180910390fd5b8060fc81905550807f4e84e59515fa6d59eedd951d065c81f1962f0e5132f2e9120b47d64c7b33a17760405160405180910390a250565b6110b661119c565b6110f5576040517f08c379a00000000000000000000000000000000000000000000000000000000081526004016110ec90612ce2565b60405180910390fd5b6110fd611df6565b565b60006097600084815260200190815260200160002060000160008373ffffffffffffffffffffffffffffffffffffffff1673ffffffffffffffffffffffffffffffffffffffff16815260200190815260200160002060009054906101000a900460ff16905092915050565b6000801b81565b60fc5481565b6000611191611184611d72565b61118c6116c0565b6110ff565b905090565b60fe5481565b60006111b66111a9611d4a565b6111b16116c0565b6110ff565b905090565b6101006020528060005260406000206000915090508060000160009054906101000a900460ff16908060010154908060020154905083565b6111fc826109f0565b61120581611758565b61120f838361184d565b505050565b600061121e611671565b60fc5482101561125a576040517fad40140300000000000000000000000000000000000000000000000000000000815260040160405180910390fd5b60fb6000815461126990612a34565b91905081905550600060ff600061127e6116c0565b73ffffffffffffffffffffffffffffffffffffffff1673ffffffffffffffffffffffffffffffffffffffff16815260200190815260200160002090508060000160009054906101000a900460ff166112f95760018160000160006101000a81548160ff02191690831515021790555060fb5481600201819055505b8281600101600082825461130d9190612b82565b925050819055508261010260006113226116c0565b73ffffffffffffffffffffffffffffffffffffffff1673ffffffffffffffffffffffffffffffffffffffff168152602001908152602001600020600060fb548152602001908152602001600020600001819055508260fe60008282546113889190612b82565b925050819055506113e361139a6116c0565b30857f000000000000000000000000000000000000000000000000000000000000000073ffffffffffffffffffffffffffffffffffffffff16611e59909392919063ffffffff16565b6113eb6116c0565b73ffffffffffffffffffffffffffffffffffffffff167ff1e64f5ab94083442836ae6ef7e94101f7fcc786c3e761b00d5f4e10c6c20196846040516114309190612819565b60405180910390a2600191505061144561174e565b919050565b6101016020528060005260406000206000915090508060000154908060010154908060020154908060030154905084565b60008060019054906101000a900460ff161590508080156114ac5750600160008054906101000a900460ff1660ff16105b806114d957506114bb30611ee2565b1580156114d85750600160008054906101000a900460ff1660ff16145b5b611518576040517f08c379a000000000000000000000000000000000000000000000000000000000815260040161150f90612e06565b60405180910390fd5b60016000806101000a81548160ff021916908360ff1602179055508015611555576001600060016101000a81548160ff0219169083151502179055505b603c826115629190612bb6565b60fd819055506115786115736116c0565b610f0e565b80156115d15760008060016101000a81548160ff0219169083151502179055507f7f26b83ff96e1f2b6a682f133852f6798a09c465da95921460cefb384740249860016040516115c89190612e6e565b60405180910390a15b5050565b610102602052816000526040600020602052806000526040600020600091509150508060000154908060010154905082565b60007f01ffc9a7000000000000000000000000000000000000000000000000000000007bffffffffffffffffffffffffffffffffffffffffffffffffffffffff1916827bffffffffffffffffffffffffffffffffffffffffffffffffffffffff1916149050919050565b600260c954036116b6576040517f08c379a00000000000000000000000000000000000000000000000000000000081526004016116ad90612ed5565b60405180910390fd5b600260c981905550565b600033905090565b6117498363a9059cbb60e01b84846040516024016116e7929190612f04565b604051602081830303815290604052907bffffffffffffffffffffffffffffffffffffffffffffffffffffffff19166020820180517bffffffffffffffffffffffffffffffffffffffffffffffffffffffff8381831617835250505050611f05565b505050565b600160c981905550565b611769816117646116c0565b611fcc565b50565b61177682826110ff565b6118495760016097600084815260200190815260200160002060000160008373ffffffffffffffffffffffffffffffffffffffff1673ffffffffffffffffffffffffffffffffffffffff16815260200190815260200160002060006101000a81548160ff0219169083151502179055506117ee6116c0565b73ffffffffffffffffffffffffffffffffffffffff168173ffffffffffffffffffffffffffffffffffffffff16837f2f8788117e7eff1d82e926ec794901d17c78024a50270940304540a733656f0d60405160405180910390a45b5050565b61185782826110ff565b1561192b5760006097600084815260200190815260200160002060000160008373ffffffffffffffffffffffffffffffffffffffff1673ffffffffffffffffffffffffffffffffffffffff16815260200190815260200160002060006101000a81548160ff0219169083151502179055506118d06116c0565b73ffffffffffffffffffffffffffffffffffffffff168173ffffffffffffffffffffffffffffffffffffffff16837ff6391f5c32d9c69d2a47ea670b442974b53935d1edc7fd64eb21e047a839171b60405160405180910390a45b5050565b606060008060ff60006119406116c0565b73ffffffffffffffffffffffffffffffffffffffff1673ffffffffffffffffffffffffffffffffffffffff168152602001908152602001600020600201549050600060fb54905060008290505b818111611a8757600061010260006119a36116c0565b73ffffffffffffffffffffffffffffffffffffffff1673ffffffffffffffffffffffffffffffffffffffff1681526020019081526020016000206000838152602001908152602001600020600001541115611a055783611a0290612a34565b93505b60006101026000611a146116c0565b73ffffffffffffffffffffffffffffffffffffffff1673ffffffffffffffffffffffffffffffffffffffff1681526020019081526020016000206000838152602001908152602001600020600101541115611a765783611a7390612a34565b93505b80611a8090612a34565b905061198d565b5060008367ffffffffffffffff811115611aa457611aa3612f2d565b5b604051908082528060200260200182016040528015611ad25781602001602082028036833780820191505090505b5090506000808490505b838111611bd85760006101026000611af26116c0565b73ffffffffffffffffffffffffffffffffffffffff1673ffffffffffffffffffffffffffffffffffffffff1681526020019081526020016000206000838152602001908152602001600020604051806040016040529081600082015481526020016001820154815250509050600081600001511115611b8c5781848481518110611b7f57611b7e612b53565b5b6020026020010181815250505b600081602001511115611bba5781848481518110611bad57611bac612b53565b5b6020026020010181815250505b82611bc490612a34565b925081611bd090612a34565b915050611adc565b50819550505050505090565b611bec612051565b6000603360006101000a81548160ff0219169083151502179055507f5db9ee0a495bf2e6ff9c91a7834c1ba4fdd244a5e8aa4e537bd38aeae4b073aa611c306116c0565b604051611c3d9190612f5c565b60405180910390a1565b600060019054906101000a900460ff16611c96576040517f08c379a0000000000000000000000000000000000000000000000000000000008152600401611c8d90612d74565b60405180910390fd5b611c9e61209a565b565b600060019054906101000a900460ff16611cef576040517f08c379a0000000000000000000000000000000000000000000000000000000008152600401611ce690612d74565b60405180910390fd5b565b600060019054906101000a900460ff16611d40576040517f08c379a0000000000000000000000000000000000000000000000000000000008152600401611d3790612d74565b60405180910390fd5b611d48612106565b565b60007fa49807205ce4d355092ef5a8a18f56e8913cf4a201fbe287825b095693c21775905090565b60007f65d7a28e3265b37a6474929f336521b332c1681b933f6cb9f3376673440d862a905090565b6000611da5836109f0565b90508160976000858152602001908152602001600020600101819055508181847fbd79b86ffe0ab8e8776151514217cd7cacd52c909f66475c3af44e129f0b00ff60405160405180910390a4505050565b611dfe61215f565b6001603360006101000a81548160ff0219169083151502179055507f62e78cea01bee320cd4e420270b5ea74000d11b0c9f74754ebdbfc544b05a258611e426116c0565b604051611e4f9190612f5c565b60405180910390a1565b611edc846323b872dd60e01b858585604051602401611e7a93929190612f77565b604051602081830303815290604052907bffffffffffffffffffffffffffffffffffffffffffffffffffffffff19166020820180517bffffffffffffffffffffffffffffffffffffffffffffffffffffffff8381831617835250505050611f05565b50505050565b6000808273ffffffffffffffffffffffffffffffffffffffff163b119050919050565b6000611f67826040518060400160405280602081526020017f5361666545524332303a206c6f772d6c6576656c2063616c6c206661696c65648152508573ffffffffffffffffffffffffffffffffffffffff166121a99092919063ffffffff16565b9050600081511115611fc75780806020019051810190611f879190612fda565b611fc6576040517f08c379a0000000000000000000000000000000000000000000000000000000008152600401611fbd90613079565b60405180910390fd5b5b505050565b611fd682826110ff565b61204d57611fe3816121c1565b611ff18360001c60206121ee565b6040516020016120029291906131a2565b6040516020818303038152906040526040517f08c379a00000000000000000000000000000000000000000000000000000000081526004016120449190613226565b60405180910390fd5b5050565b612059610d6b565b612098576040517f08c379a000000000000000000000000000000000000000000000000000000000815260040161208f90613294565b60405180910390fd5b565b600060019054906101000a900460ff166120e9576040517f08c379a00000000000000000000000000000000000000000000000000000000081526004016120e090612d74565b60405180910390fd5b6000603360006101000a81548160ff021916908315150217905550565b600060019054906101000a900460ff16612155576040517f08c379a000000000000000000000000000000000000000000000000000000000815260040161214c90612d74565b60405180910390fd5b600160c981905550565b612167610d6b565b156121a7576040517f08c379a000000000000000000000000000000000000000000000000000000000815260040161219e90613300565b60405180910390fd5b565b60606121b8848460008561242a565b90509392505050565b60606121e78273ffffffffffffffffffffffffffffffffffffffff16601460ff166121ee565b9050919050565b6060600060028360026122019190612bb6565b61220b9190612b82565b67ffffffffffffffff81111561222457612223612f2d565b5b6040519080825280601f01601f1916602001820160405280156122565781602001600182028036833780820191505090505b5090507f30000000000000000000000000000000000000000000000000000000000000008160008151811061228e5761228d612b53565b5b60200101907effffffffffffffffffffffffffffffffffffffffffffffffffffffffffffff1916908160001a9053507f7800000000000000000000000000000000000000000000000000000000000000816001815181106122f2576122f1612b53565b5b60200101907effffffffffffffffffffffffffffffffffffffffffffffffffffffffffffff1916908160001a905350600060018460026123329190612bb6565b61233c9190612b82565b90505b60018111156123dc577f3031323334353637383961626364656600000000000000000000000000000000600f86166010811061237e5761237d612b53565b5b1a60f81b82828151811061239557612394612b53565b5b60200101907effffffffffffffffffffffffffffffffffffffffffffffffffffffffffffff1916908160001a905350600485901c9450806123d590613320565b905061233f565b5060008414612420576040517f08c379a000000000000000000000000000000000000000000000000000000000815260040161241790613395565b60405180910390fd5b8091505092915050565b60608247101561246f576040517f08c379a000000000000000000000000000000000000000000000000000000000815260040161246690613427565b60405180910390fd5b6000808673ffffffffffffffffffffffffffffffffffffffff168587604051612498919061348e565b60006040518083038185875af1925050503d80600081146124d5576040519150601f19603f3d011682016040523d82523d6000602084013e6124da565b606091505b50915091506124eb878383876124f7565b92505050949350505050565b606083156125595760008351036125515761251185611ee2565b612550576040517f08c379a0000000000000000000000000000000000000000000000000000000008152600401612547906134f1565b60405180910390fd5b5b829050612564565b612563838361256c565b5b949350505050565b60008251111561257f5781518083602001fd5b806040517f08c379a00000000000000000000000000000000000000000000000000000000081526004016125b39190613226565b60405180910390fd5b600080fd5b60007fffffffff0000000000000000000000000000000000000000000000000000000082169050919050565b6125f6816125c1565b811461260157600080fd5b50565b600081359050612613816125ed565b92915050565b60006020828403121561262f5761262e6125bc565b5b600061263d84828501612604565b91505092915050565b60008115159050919050565b61265b81612646565b82525050565b60006020820190506126766000830184612652565b92915050565b6000819050919050565b61268f8161267c565b811461269a57600080fd5b50565b6000813590506126ac81612686565b92915050565b6000602082840312156126c8576126c76125bc565b5b60006126d68482850161269d565b91505092915050565b6000819050919050565b6126f2816126df565b81146126fd57600080fd5b50565b60008135905061270f816126e9565b92915050565b60006020828403121561272b5761272a6125bc565b5b600061273984828501612700565b91505092915050565b61274b816126df565b82525050565b60006020820190506127666000830184612742565b92915050565b600073ffffffffffffffffffffffffffffffffffffffff82169050919050565b60006127978261276c565b9050919050565b6127a78161278c565b81146127b257600080fd5b50565b6000813590506127c48161279e565b92915050565b600080604083850312156127e1576127e06125bc565b5b60006127ef85828601612700565b9250506020612800858286016127b5565b9150509250929050565b6128138161267c565b82525050565b600060208201905061282e600083018461280a565b92915050565b6000819050919050565b600061285961285461284f8461276c565b612834565b61276c565b9050919050565b600061286b8261283e565b9050919050565b600061287d82612860565b9050919050565b61288d81612872565b82525050565b60006020820190506128a86000830184612884565b92915050565b6000602082840312156128c4576128c36125bc565b5b60006128d2848285016127b5565b91505092915050565b60006080820190506128f06000830187612652565b6128fd602083018661280a565b61290a604083018561280a565b612917606083018461280a565b95945050505050565b60006060820190506129356000830186612652565b612942602083018561280a565b61294f604083018461280a565b949350505050565b600060808201905061296c600083018761280a565b612979602083018661280a565b612986604083018561280a565b612993606083018461280a565b95945050505050565b600080604083850312156129b3576129b26125bc565b5b60006129c1858286016127b5565b92505060206129d28582860161269d565b9150509250929050565b60006040820190506129f1600083018561280a565b6129fe602083018461280a565b9392505050565b7f4e487b7100000000000000000000000000000000000000000000000000000000600052601160045260246000fd5b6000612a3f8261267c565b91507fffffffffffffffffffffffffffffffffffffffffffffffffffffffffffffffff8203612a7157612a70612a05565b5b600182019050919050565b6000612a878261267c565b9150612a928361267c565b9250828203905081811115612aaa57612aa9612a05565b5b92915050565b600082825260208201905092915050565b7f416363657373436f6e74726f6c3a2063616e206f6e6c792072656e6f756e636560008201527f20726f6c657320666f722073656c660000000000000000000000000000000000602082015250565b6000612b1d602f83612ab0565b9150612b2882612ac1565b604082019050919050565b60006020820190508181036000830152612b4c81612b10565b9050919050565b7f4e487b7100000000000000000000000000000000000000000000000000000000600052603260045260246000fd5b6000612b8d8261267c565b9150612b988361267c565b9250828201905080821115612bb057612baf612a05565b5b92915050565b6000612bc18261267c565b9150612bcc8361267c565b9250817fffffffffffffffffffffffffffffffffffffffffffffffffffffffffffffffff0483118215151615612c0557612c04612a05565b5b828202905092915050565b7f4e487b7100000000000000000000000000000000000000000000000000000000600052601260045260246000fd5b6000612c4a8261267c565b9150612c558361267c565b925082612c6557612c64612c10565b5b828204905092915050565b7f4d75737420686176652061646d696e20726f6c6520746f20706572666f726d2060008201527f7468697320616374696f6e2e0000000000000000000000000000000000000000602082015250565b6000612ccc602c83612ab0565b9150612cd782612c70565b604082019050919050565b60006020820190508181036000830152612cfb81612cbf565b9050919050565b7f496e697469616c697a61626c653a20636f6e7472616374206973206e6f74206960008201527f6e697469616c697a696e67000000000000000000000000000000000000000000602082015250565b6000612d5e602b83612ab0565b9150612d6982612d02565b604082019050919050565b60006020820190508181036000830152612d8d81612d51565b9050919050565b7f496e697469616c697a61626c653a20636f6e747261637420697320616c72656160008201527f647920696e697469616c697a6564000000000000000000000000000000000000602082015250565b6000612df0602e83612ab0565b9150612dfb82612d94565b604082019050919050565b60006020820190508181036000830152612e1f81612de3565b9050919050565b6000819050919050565b600060ff82169050919050565b6000612e58612e53612e4e84612e26565b612834565b612e30565b9050919050565b612e6881612e3d565b82525050565b6000602082019050612e836000830184612e5f565b92915050565b7f5265656e7472616e637947756172643a207265656e7472616e742063616c6c00600082015250565b6000612ebf601f83612ab0565b9150612eca82612e89565b602082019050919050565b60006020820190508181036000830152612eee81612eb2565b9050919050565b612efe8161278c565b82525050565b6000604082019050612f196000830185612ef5565b612f26602083018461280a565b9392505050565b7f4e487b7100000000000000000000000000000000000000000000000000000000600052604160045260246000fd5b6000602082019050612f716000830184612ef5565b92915050565b6000606082019050612f8c6000830186612ef5565b612f996020830185612ef5565b612fa6604083018461280a565b949350505050565b612fb781612646565b8114612fc257600080fd5b50565b600081519050612fd481612fae565b92915050565b600060208284031215612ff057612fef6125bc565b5b6000612ffe84828501612fc5565b91505092915050565b7f5361666545524332303a204552433230206f7065726174696f6e20646964206e60008201527f6f74207375636365656400000000000000000000000000000000000000000000602082015250565b6000613063602a83612ab0565b915061306e82613007565b604082019050919050565b6000602082019050818103600083015261309281613056565b9050919050565b600081905092915050565b7f416363657373436f6e74726f6c3a206163636f756e7420000000000000000000600082015250565b60006130da601783613099565b91506130e5826130a4565b601782019050919050565b600081519050919050565b60005b838110156131195780820151818401526020810190506130fe565b60008484015250505050565b6000613130826130f0565b61313a8185613099565b935061314a8185602086016130fb565b80840191505092915050565b7f206973206d697373696e6720726f6c6520000000000000000000000000000000600082015250565b600061318c601183613099565b915061319782613156565b601182019050919050565b60006131ad826130cd565b91506131b98285613125565b91506131c48261317f565b91506131d08284613125565b91508190509392505050565b6000601f19601f8301169050919050565b60006131f8826130f0565b6132028185612ab0565b93506132128185602086016130fb565b61321b816131dc565b840191505092915050565b6000602082019050818103600083015261324081846131ed565b905092915050565b7f5061757361626c653a206e6f7420706175736564000000000000000000000000600082015250565b600061327e601483612ab0565b915061328982613248565b602082019050919050565b600060208201905081810360008301526132ad81613271565b9050919050565b7f5061757361626c653a2070617573656400000000000000000000000000000000600082015250565b60006132ea601083612ab0565b91506132f5826132b4565b602082019050919050565b60006020820190508181036000830152613319816132dd565b9050919050565b600061332b8261267c565b91506000820361333e5761333d612a05565b5b600182039050919050565b7f537472696e67733a20686578206c656e67746820696e73756666696369656e74600082015250565b600061337f602083612ab0565b915061338a82613349565b602082019050919050565b600060208201905081810360008301526133ae81613372565b9050919050565b7f416464726573733a20696e73756666696369656e742062616c616e636520666f60008201527f722063616c6c0000000000000000000000000000000000000000000000000000602082015250565b6000613411602683612ab0565b915061341c826133b5565b604082019050919050565b6000602082019050818103600083015261344081613404565b9050919050565b600081519050919050565b600081905092915050565b600061346882613447565b6134728185613452565b93506134828185602086016130fb565b80840191505092915050565b600061349a828461345d565b915081905092915050565b7f416464726573733a2063616c6c20746f206e6f6e2d636f6e7472616374000000600082015250565b60006134db601d83612ab0565b91506134e6826134a5565b602082019050919050565b6000602082019050818103600083015261350a816134ce565b905091905056fea264697066735822122014be5bbe055128e325fe251fd37ba77d1940b86b988661861a8b1f49751bf3e564736f6c63430008100033",
  "linkReferences": {},
  "deployedLinkReferences": {}
}