{
  "_format": "hh-sol-artifact-1",
  "contractName": "GENZStaking",
  "sourceName": "contracts/core/staking/GENZStaking.sol",
  "abi": [
    {
      "inputs": [
        {
          "internalType": "address",
          "name": "tokenAddressGENZ",
          "type": "address"
        }
      ],
      "stateMutability": "nonpayable",
      "type": "constructor"
    },
    {
      "inputs": [],
      "name": "BaseUpgradeablePausable__ZeroAddressError",
      "type": "error"
    },
    {
      "inputs": [],
      "name": "GENZStaking__NotAMinimumStakeAmountError",
      "type": "error"
    },
    {
      "inputs": [],
      "name": "GENZStaking__TransactionFailedError",
      "type": "error"
    },
    {
      "anonymous": false,
      "inputs": [
        {
          "indexed": false,
          "internalType": "uint8",
          "name": "version",
          "type": "uint8"
        }
      ],
      "name": "Initialized",
      "type": "event"
    },
    {
      "anonymous": false,
      "inputs": [
        {
          "indexed": false,
          "internalType": "address",
          "name": "account",
          "type": "address"
        }
      ],
      "name": "Paused",
      "type": "event"
    },
    {
      "anonymous": false,
      "inputs": [
        {
          "indexed": true,
          "internalType": "bytes32",
          "name": "role",
          "type": "bytes32"
        },
        {
          "indexed": true,
          "internalType": "bytes32",
          "name": "previousAdminRole",
          "type": "bytes32"
        },
        {
          "indexed": true,
          "internalType": "bytes32",
          "name": "newAdminRole",
          "type": "bytes32"
        }
      ],
      "name": "RoleAdminChanged",
      "type": "event"
    },
    {
      "anonymous": false,
      "inputs": [
        {
          "indexed": true,
          "internalType": "bytes32",
          "name": "role",
          "type": "bytes32"
        },
        {
          "indexed": true,
          "internalType": "address",
          "name": "account",
          "type": "address"
        },
        {
          "indexed": true,
          "internalType": "address",
          "name": "sender",
          "type": "address"
        }
      ],
      "name": "RoleGranted",
      "type": "event"
    },
    {
      "anonymous": false,
      "inputs": [
        {
          "indexed": true,
          "internalType": "bytes32",
          "name": "role",
          "type": "bytes32"
        },
        {
          "indexed": true,
          "internalType": "address",
          "name": "account",
          "type": "address"
        },
        {
          "indexed": true,
          "internalType": "address",
          "name": "sender",
          "type": "address"
        }
      ],
      "name": "RoleRevoked",
      "type": "event"
    },
    {
      "anonymous": false,
      "inputs": [
        {
          "indexed": true,
          "internalType": "address",
          "name": "userAddress",
          "type": "address"
        },
        {
          "indexed": false,
          "internalType": "uint256",
          "name": "value",
          "type": "uint256"
        }
      ],
      "name": "StakedGENZ",
      "type": "event"
    },
    {
      "anonymous": false,
      "inputs": [
        {
          "indexed": false,
          "internalType": "address",
          "name": "account",
          "type": "address"
        }
      ],
      "name": "Unpaused",
      "type": "event"
    },
    {
      "anonymous": false,
      "inputs": [
        {
          "indexed": true,
          "internalType": "address",
          "name": "userAddress",
          "type": "address"
        },
        {
          "indexed": false,
          "internalType": "uint256",
          "name": "value",
          "type": "uint256"
        }
      ],
      "name": "UnstakedGENZ",
      "type": "event"
    },
    {
      "anonymous": false,
      "inputs": [
        {
          "indexed": true,
          "internalType": "uint256",
          "name": "value",
          "type": "uint256"
        }
      ],
      "name": "UpdatedMinStakingAmount",
      "type": "event"
    },
    {
      "anonymous": false,
      "inputs": [
        {
          "indexed": true,
          "internalType": "uint256",
          "name": "timeInMinutes",
          "type": "uint256"
        }
      ],
      "name": "UpdatedWithdrawTimer",
      "type": "event"
    },
    {
      "inputs": [],
      "name": "DEFAULT_ADMIN_ROLE",
      "outputs": [
        {
          "internalType": "bytes32",
          "name": "",
          "type": "bytes32"
        }
      ],
      "stateMutability": "view",
      "type": "function"
    },
    {
      "inputs": [
        {
          "internalType": "address",
          "name": "owner",
          "type": "address"
        }
      ],
      "name": "__BaseUpgradeablePausable_init",
      "outputs": [],
      "stateMutability": "nonpayable",
      "type": "function"
    },
    {
      "inputs": [
        {
          "internalType": "uint256",
          "name": "value",
          "type": "uint256"
        }
      ],
      "name": "activateWithdrawalTimer",
      "outputs": [
        {
          "internalType": "bool",
          "name": "",
          "type": "bool"
        }
      ],
      "stateMutability": "nonpayable",
      "type": "function"
    },
    {
      "inputs": [],
      "name": "calculateRewards",
      "outputs": [
        {
          "internalType": "uint256",
          "name": "",
          "type": "uint256"
        }
      ],
      "stateMutability": "view",
      "type": "function"
    },
    {
      "inputs": [
        {
          "internalType": "bytes32",
          "name": "role",
          "type": "bytes32"
        }
      ],
      "name": "getRoleAdmin",
      "outputs": [
        {
          "internalType": "bytes32",
          "name": "",
          "type": "bytes32"
        }
      ],
      "stateMutability": "view",
      "type": "function"
    },
    {
      "inputs": [],
      "name": "getStakerClaimedRewardInfo",
      "outputs": [
        {
          "internalType": "uint256",
          "name": "",
          "type": "uint256"
        }
      ],
      "stateMutability": "view",
      "type": "function"
    },
    {
      "inputs": [],
      "name": "getUserStakedGENZBalance",
      "outputs": [
        {
          "internalType": "uint256",
          "name": "",
          "type": "uint256"
        }
      ],
      "stateMutability": "view",
      "type": "function"
    },
    {
      "inputs": [],
      "name": "getVersionID",
      "outputs": [
        {
          "internalType": "uint256",
          "name": "",
          "type": "uint256"
        }
      ],
      "stateMutability": "view",
      "type": "function"
    },
    {
      "inputs": [
        {
          "internalType": "bytes32",
          "name": "role",
          "type": "bytes32"
        },
        {
          "internalType": "address",
          "name": "account",
          "type": "address"
        }
      ],
      "name": "grantRole",
      "outputs": [],
      "stateMutability": "nonpayable",
      "type": "function"
    },
    {
      "inputs": [
        {
          "internalType": "bytes32",
          "name": "role",
          "type": "bytes32"
        },
        {
          "internalType": "address",
          "name": "account",
          "type": "address"
        }
      ],
      "name": "hasRole",
      "outputs": [
        {
          "internalType": "bool",
          "name": "",
          "type": "bool"
        }
      ],
      "stateMutability": "view",
      "type": "function"
    },
    {
      "inputs": [
        {
          "internalType": "uint256",
          "name": "timeInDays",
          "type": "uint256"
        }
      ],
      "name": "initialize",
      "outputs": [],
      "stateMutability": "nonpayable",
      "type": "function"
    },
    {
      "inputs": [],
      "name": "isAdmin",
      "outputs": [
        {
          "internalType": "bool",
          "name": "",
          "type": "bool"
        }
      ],
      "stateMutability": "view",
      "type": "function"
    },
    {
      "inputs": [],
      "name": "pause",
      "outputs": [],
      "stateMutability": "nonpayable",
      "type": "function"
    },
    {
      "inputs": [],
      "name": "paused",
      "outputs": [
        {
          "internalType": "bool",
          "name": "",
          "type": "bool"
        }
      ],
      "stateMutability": "view",
      "type": "function"
    },
    {
      "inputs": [
        {
          "internalType": "bytes32",
          "name": "role",
          "type": "bytes32"
        },
        {
          "internalType": "address",
          "name": "account",
          "type": "address"
        }
      ],
      "name": "renounceRole",
      "outputs": [],
      "stateMutability": "nonpayable",
      "type": "function"
    },
    {
      "inputs": [
        {
          "internalType": "bytes32",
          "name": "role",
          "type": "bytes32"
        },
        {
          "internalType": "address",
          "name": "account",
          "type": "address"
        }
      ],
      "name": "revokeRole",
      "outputs": [],
      "stateMutability": "nonpayable",
      "type": "function"
    },
    {
      "inputs": [
        {
          "internalType": "uint256",
          "name": "timeInMinutes",
          "type": "uint256"
        }
      ],
      "name": "setWithdrawTime",
      "outputs": [],
      "stateMutability": "nonpayable",
      "type": "function"
    },
    {
      "inputs": [
        {
          "internalType": "uint256",
          "name": "value",
          "type": "uint256"
        }
      ],
      "name": "stakeGENZ",
      "outputs": [
        {
          "internalType": "bool",
          "name": "",
          "type": "bool"
        }
      ],
      "stateMutability": "nonpayable",
      "type": "function"
    },
    {
      "inputs": [
        {
          "internalType": "bytes4",
          "name": "interfaceId",
          "type": "bytes4"
        }
      ],
      "name": "supportsInterface",
      "outputs": [
        {
          "internalType": "bool",
          "name": "",
          "type": "bool"
        }
      ],
      "stateMutability": "view",
      "type": "function"
    },
    {
      "inputs": [],
      "name": "totalTokensStaked",
      "outputs": [
        {
          "internalType": "uint256",
          "name": "",
          "type": "uint256"
        }
      ],
      "stateMutability": "view",
      "type": "function"
    },
    {
      "inputs": [],
      "name": "unpause",
      "outputs": [],
      "stateMutability": "nonpayable",
      "type": "function"
    },
    {
      "inputs": [
        {
          "internalType": "uint256",
          "name": "value",
          "type": "uint256"
        }
      ],
      "name": "updateMinimumStakeAmount",
      "outputs": [],
      "stateMutability": "nonpayable",
      "type": "function"
    },
    {
      "inputs": [
        {
          "internalType": "uint256",
          "name": "value",
          "type": "uint256"
        }
      ],
      "name": "withdrawGENZ",
      "outputs": [
        {
          "internalType": "bool",
          "name": "",
          "type": "bool"
        }
      ],
      "stateMutability": "nonpayable",
      "type": "function"
    }
  ],
  "bytecode": "0x60a06040523480156200001157600080fd5b5060405162003340380380620033408339818101604052810190620000379190620000eb565b670de0b6b3a764000060fc819055508073ffffffffffffffffffffffffffffffffffffffff1660808173ffffffffffffffffffffffffffffffffffffffff1681525050506200011d565b600080fd5b600073ffffffffffffffffffffffffffffffffffffffff82169050919050565b6000620000b38262000086565b9050919050565b620000c581620000a6565b8114620000d157600080fd5b50565b600081519050620000e581620000ba565b92915050565b60006020828403121562000104576200010362000081565b5b60006200011484828501620000d4565b91505092915050565b60805161320062000140600039600081816107ba01526111a301526132006000f3fe608060405234801561001057600080fd5b506004361061014d5760003560e01c80636e810b1a116100c3578063b0e31b2d1161007c578063b0e31b2d14610378578063b6db75a014610396578063d547741f146103b4578063d6fb97a5146103d0578063ed0cdb1a14610400578063fe4b84df1461041e5761014d565b80636e810b1a146102ca57806377539417146102e657806377c379a4146103025780638456cb591461032057806391d148541461032a578063a217fddf1461035a5761014d565b80633e50de30116101155780633e50de301461021a5780633f4ba83a1461023857806353b3ad7f1461024257806358418587146102605780635c975abb1461027c5780636c64f0b41461029a5761014d565b806301ffc9a714610152578063060e5c6e14610182578063248a9ca3146101b25780632f2ff15d146101e257806336568abe146101fe575b600080fd5b61016c6004803603810190610167919061246c565b61043a565b60405161017991906124b4565b60405180910390f35b61019c60048036038101906101979190612505565b6104b4565b6040516101a991906124b4565b60405180910390f35b6101cc60048036038101906101c79190612568565b610865565b6040516101d991906125a4565b60405180910390f35b6101fc60048036038101906101f7919061261d565b610885565b005b6102186004803603810190610213919061261d565b6108a6565b005b610222610929565b60405161022f919061266c565b60405180910390f35b610240610ad5565b005b61024a610b26565b604051610257919061266c565b60405180910390f35b61027a60048036038101906102759190612505565b610b78565b005b610284610c02565b60405161029191906124b4565b60405180910390f35b6102b460048036038101906102af9190612505565b610c19565b6040516102c191906124b4565b60405180910390f35b6102e460048036038101906102df9190612687565b610d65565b005b61030060048036038101906102fb9190612505565b610e87565b005b61030a610f05565b604051610317919061266c565b60405180910390f35b610328610f0f565b005b610344600480360381019061033f919061261d565b610f60565b60405161035191906124b4565b60405180910390f35b610362610fcb565b60405161036f91906125a4565b60405180910390f35b610380610fd2565b60405161038d919061266c565b60405180910390f35b61039e610fd8565b6040516103ab91906124b4565b60405180910390f35b6103ce60048036038101906103c9919061261d565b610ff7565b005b6103ea60048036038101906103e59190612505565b611018565b6040516103f791906124b4565b60405180910390f35b61040861124f565b604051610415919061266c565b60405180910390f35b61043860048036038101906104339190612505565b6112fa565b005b60007f7965db0b000000000000000000000000000000000000000000000000000000007bffffffffffffffffffffffffffffffffffffffffffffffffffffffff1916827bffffffffffffffffffffffffffffffffffffffffffffffffffffffff191614806104ad57506104ac82611454565b5b9050919050565b60006104be6114be565b600061010060006104cd61150d565b73ffffffffffffffffffffffffffffffffffffffff1673ffffffffffffffffffffffffffffffffffffffff16815260200190815260200160002090508281600101541080610563575060ff600061052261150d565b73ffffffffffffffffffffffffffffffffffffffff1673ffffffffffffffffffffffffffffffffffffffff1681526020019081526020016000206002015442105b806105b6575060ff600061057561150d565b73ffffffffffffffffffffffffffffffffffffffff1673ffffffffffffffffffffffffffffffffffffffff1681526020019081526020016000206001015483115b156105ed576040517f71a61d9d00000000000000000000000000000000000000000000000000000000815260040160405180910390fd5b60fb600081546105fc906126e3565b919050819055508260fe6000828254610615919061272b565b9250508190555082816001016000828254610630919061272b565b9250508190555082610102600061064561150d565b73ffffffffffffffffffffffffffffffffffffffff1673ffffffffffffffffffffffffffffffffffffffff168152602001908152602001600020600060fb548152602001908152602001600020600101819055508260ff60006106a661150d565b73ffffffffffffffffffffffffffffffffffffffff1673ffffffffffffffffffffffffffffffffffffffff168152602001908152602001600020600101540361074c57600060ff60006106f761150d565b73ffffffffffffffffffffffffffffffffffffffff1673ffffffffffffffffffffffffffffffffffffffff16815260200190815260200160002060000160006101000a81548160ff0219169083151502179055505b8260ff600061075961150d565b73ffffffffffffffffffffffffffffffffffffffff1673ffffffffffffffffffffffffffffffffffffffff16815260200190815260200160002060010160008282546107a5919061272b565b925050819055506107fe6107b761150d565b847f000000000000000000000000000000000000000000000000000000000000000073ffffffffffffffffffffffffffffffffffffffff166115159092919063ffffffff16565b61080661150d565b73ffffffffffffffffffffffffffffffffffffffff167f33acb29a4ba6d440da1a7ba75e505a000b362f21a991b589437f8f04dd98fd6b8460405161084b919061266c565b60405180910390a2600191505061086061159b565b919050565b600060976000838152602001908152602001600020600101549050919050565b61088e82610865565b610897816115a5565b6108a183836115b9565b505050565b6108ae61150d565b73ffffffffffffffffffffffffffffffffffffffff168173ffffffffffffffffffffffffffffffffffffffff161461091b576040517f08c379a0000000000000000000000000000000000000000000000000000000008152600401610912906127e2565b60405180910390fd5b610925828261169a565b5050565b60008060009050600061093a61177c565b905060008160008151811061095257610951612802565b5b6020026020010151905060008060008390505b60fb548111610ac9576000610102600061097d61150d565b73ffffffffffffffffffffffffffffffffffffffff1673ffffffffffffffffffffffffffffffffffffffff1681526020019081526020016000206000838152602001908152602001600020604051806040016040529081600082015481526020016001820154815250509050818684815181106109fd576109fc612802565b5b602002602001015103610a4e57600081600001511115610a2e57806000015187610a279190612831565b9650610a41565b806020015187610a3e919061272b565b96505b82610a4b906126e3565b92505b600061010160008481526020019081526020016000209050600081600001548260010154610a7c919061272b565b9050816003015482600201548a83610a949190612865565b610a9e9190612865565b610aa891906128ee565b86610ab39190612831565b955083610abf906126e3565b9350505050610965565b50819550505050505090565b610add610fd8565b610b1c576040517f08c379a0000000000000000000000000000000000000000000000000000000008152600401610b1390612991565b60405180910390fd5b610b24611a37565b565b60006101006000610b3561150d565b73ffffffffffffffffffffffffffffffffffffffff1673ffffffffffffffffffffffffffffffffffffffff16815260200190815260200160002060030154905090565b610b80610fd8565b610bbf576040517f08c379a0000000000000000000000000000000000000000000000000000000008152600401610bb690612991565b60405180910390fd5b603c81610bcc9190612865565b60fd81905550807fc43e5db88f387521adfb9f79c0c9efd47004dc3a041358383ecccb1a1509dbf660405160405180910390a250565b6000603360009054906101000a900460ff16905090565b600060ff6000610c2761150d565b73ffffffffffffffffffffffffffffffffffffffff1673ffffffffffffffffffffffffffffffffffffffff16815260200190815260200160002060000160009054906101000a900460ff161580610cc657508160ff6000610c8661150d565b73ffffffffffffffffffffffffffffffffffffffff1673ffffffffffffffffffffffffffffffffffffffff16815260200190815260200160002060010154105b15610d5b57600060ff6000610cd961150d565b73ffffffffffffffffffffffffffffffffffffffff1673ffffffffffffffffffffffffffffffffffffffff168152602001908152602001600020905060018160000160006101000a81548160ff0219169083151502179055508281600101819055504260fd54610d499190612831565b81600201819055506001915050610d60565b600090505b919050565b600060019054906101000a900460ff16610db4576040517f08c379a0000000000000000000000000000000000000000000000000000000008152600401610dab90612a23565b60405180910390fd5b600073ffffffffffffffffffffffffffffffffffffffff168173ffffffffffffffffffffffffffffffffffffffff1603610e1a576040517f5415139400000000000000000000000000000000000000000000000000000000815260040160405180910390fd5b610e22611a9a565b610e2a611af3565b610e32611b44565b610e43610e3d611b9d565b826115b9565b610e54610e4e611bc5565b826115b9565b610e6c610e5f611bc5565b610e67611b9d565b611bed565b610e84610e77611b9d565b610e7f611b9d565b611bed565b50565b610e8f610fd8565b610ece576040517f08c379a0000000000000000000000000000000000000000000000000000000008152600401610ec590612991565b60405180910390fd5b8060fc81905550807f4e84e59515fa6d59eedd951d065c81f1962f0e5132f2e9120b47d64c7b33a17760405160405180910390a250565b600060fb54905090565b610f17610fd8565b610f56576040517f08c379a0000000000000000000000000000000000000000000000000000000008152600401610f4d90612991565b60405180910390fd5b610f5e611c49565b565b60006097600084815260200190815260200160002060000160008373ffffffffffffffffffffffffffffffffffffffff1673ffffffffffffffffffffffffffffffffffffffff16815260200190815260200160002060009054906101000a900460ff16905092915050565b6000801b81565b60fe5481565b6000610ff2610fe5611b9d565b610fed61150d565b610f60565b905090565b61100082610865565b611009816115a5565b611013838361169a565b505050565b60006110226114be565b60fc5482101561105e576040517fad40140300000000000000000000000000000000000000000000000000000000815260040160405180910390fd5b60fb6000815461106d906126e3565b919050819055506000610100600061108361150d565b73ffffffffffffffffffffffffffffffffffffffff1673ffffffffffffffffffffffffffffffffffffffff16815260200190815260200160002090508060000160009054906101000a900460ff166110fe5760018160000160006101000a81548160ff02191690831515021790555060fb5481600201819055505b828160010160008282546111129190612831565b9250508190555082610102600061112761150d565b73ffffffffffffffffffffffffffffffffffffffff1673ffffffffffffffffffffffffffffffffffffffff168152602001908152602001600020600060fb548152602001908152602001600020600001819055508260fe600082825461118d9190612831565b925050819055506111e861119f61150d565b30857f000000000000000000000000000000000000000000000000000000000000000073ffffffffffffffffffffffffffffffffffffffff16611cac909392919063ffffffff16565b6111f061150d565b73ffffffffffffffffffffffffffffffffffffffff167ff1e64f5ab94083442836ae6ef7e94101f7fcc786c3e761b00d5f4e10c6c2019684604051611235919061266c565b60405180910390a2600191505061124a61159b565b919050565b600080610100600061125f61150d565b73ffffffffffffffffffffffffffffffffffffffff1673ffffffffffffffffffffffffffffffffffffffff16815260200190815260200160002060010154116112a95760006112f5565b61010060006112b661150d565b73ffffffffffffffffffffffffffffffffffffffff1673ffffffffffffffffffffffffffffffffffffffff168152602001908152602001600020600101545b905090565b60008060019054906101000a900460ff1615905080801561132b5750600160008054906101000a900460ff1660ff16105b80611358575061133a30611d35565b1580156113575750600160008054906101000a900460ff1660ff16145b5b611397576040517f08c379a000000000000000000000000000000000000000000000000000000000815260040161138e90612ab5565b60405180910390fd5b60016000806101000a81548160ff021916908360ff16021790555080156113d4576001600060016101000a81548160ff0219169083151502179055505b603c826113e19190612865565b60fd819055506113f76113f261150d565b610d65565b80156114505760008060016101000a81548160ff0219169083151502179055507f7f26b83ff96e1f2b6a682f133852f6798a09c465da95921460cefb384740249860016040516114479190612b27565b60405180910390a15b5050565b60007f01ffc9a7000000000000000000000000000000000000000000000000000000007bffffffffffffffffffffffffffffffffffffffffffffffffffffffff1916827bffffffffffffffffffffffffffffffffffffffffffffffffffffffff1916149050919050565b600260c95403611503576040517f08c379a00000000000000000000000000000000000000000000000000000000081526004016114fa90612b8e565b60405180910390fd5b600260c981905550565b600033905090565b6115968363a9059cbb60e01b8484604051602401611534929190612bbd565b604051602081830303815290604052907bffffffffffffffffffffffffffffffffffffffffffffffffffffffff19166020820180517bffffffffffffffffffffffffffffffffffffffffffffffffffffffff8381831617835250505050611d58565b505050565b600160c981905550565b6115b6816115b161150d565b611e1f565b50565b6115c38282610f60565b6116965760016097600084815260200190815260200160002060000160008373ffffffffffffffffffffffffffffffffffffffff1673ffffffffffffffffffffffffffffffffffffffff16815260200190815260200160002060006101000a81548160ff02191690831515021790555061163b61150d565b73ffffffffffffffffffffffffffffffffffffffff168173ffffffffffffffffffffffffffffffffffffffff16837f2f8788117e7eff1d82e926ec794901d17c78024a50270940304540a733656f0d60405160405180910390a45b5050565b6116a48282610f60565b156117785760006097600084815260200190815260200160002060000160008373ffffffffffffffffffffffffffffffffffffffff1673ffffffffffffffffffffffffffffffffffffffff16815260200190815260200160002060006101000a81548160ff02191690831515021790555061171d61150d565b73ffffffffffffffffffffffffffffffffffffffff168173ffffffffffffffffffffffffffffffffffffffff16837ff6391f5c32d9c69d2a47ea670b442974b53935d1edc7fd64eb21e047a839171b60405160405180910390a45b5050565b6060600080610100600061178e61150d565b73ffffffffffffffffffffffffffffffffffffffff1673ffffffffffffffffffffffffffffffffffffffff16815260200190815260200160002060020154905060006117d8610f05565b905060008290505b8181116118da57600061010260006117f661150d565b73ffffffffffffffffffffffffffffffffffffffff1673ffffffffffffffffffffffffffffffffffffffff16815260200190815260200160002060008381526020019081526020016000206000015411156118585783611855906126e3565b93505b6000610102600061186761150d565b73ffffffffffffffffffffffffffffffffffffffff1673ffffffffffffffffffffffffffffffffffffffff16815260200190815260200160002060008381526020019081526020016000206001015411156118c957836118c6906126e3565b93505b806118d3906126e3565b90506117e0565b5060008367ffffffffffffffff8111156118f7576118f6612be6565b5b6040519080825280602002602001820160405280156119255781602001602082028036833780820191505090505b5090506000808490505b838111611a2b576000610102600061194561150d565b73ffffffffffffffffffffffffffffffffffffffff1673ffffffffffffffffffffffffffffffffffffffff16815260200190815260200160002060008381526020019081526020016000206040518060400160405290816000820154815260200160018201548152505090506000816000015111156119df57818484815181106119d2576119d1612802565b5b6020026020010181815250505b600081602001511115611a0d5781848481518110611a00576119ff612802565b5b6020026020010181815250505b82611a17906126e3565b925081611a23906126e3565b91505061192f565b50819550505050505090565b611a3f611ea4565b6000603360006101000a81548160ff0219169083151502179055507f5db9ee0a495bf2e6ff9c91a7834c1ba4fdd244a5e8aa4e537bd38aeae4b073aa611a8361150d565b604051611a909190612c15565b60405180910390a1565b600060019054906101000a900460ff16611ae9576040517f08c379a0000000000000000000000000000000000000000000000000000000008152600401611ae090612a23565b60405180910390fd5b611af1611eed565b565b600060019054906101000a900460ff16611b42576040517f08c379a0000000000000000000000000000000000000000000000000000000008152600401611b3990612a23565b60405180910390fd5b565b600060019054906101000a900460ff16611b93576040517f08c379a0000000000000000000000000000000000000000000000000000000008152600401611b8a90612a23565b60405180910390fd5b611b9b611f59565b565b60007fa49807205ce4d355092ef5a8a18f56e8913cf4a201fbe287825b095693c21775905090565b60007f65d7a28e3265b37a6474929f336521b332c1681b933f6cb9f3376673440d862a905090565b6000611bf883610865565b90508160976000858152602001908152602001600020600101819055508181847fbd79b86ffe0ab8e8776151514217cd7cacd52c909f66475c3af44e129f0b00ff60405160405180910390a4505050565b611c51611fb2565b6001603360006101000a81548160ff0219169083151502179055507f62e78cea01bee320cd4e420270b5ea74000d11b0c9f74754ebdbfc544b05a258611c9561150d565b604051611ca29190612c15565b60405180910390a1565b611d2f846323b872dd60e01b858585604051602401611ccd93929190612c30565b604051602081830303815290604052907bffffffffffffffffffffffffffffffffffffffffffffffffffffffff19166020820180517bffffffffffffffffffffffffffffffffffffffffffffffffffffffff8381831617835250505050611d58565b50505050565b6000808273ffffffffffffffffffffffffffffffffffffffff163b119050919050565b6000611dba826040518060400160405280602081526020017f5361666545524332303a206c6f772d6c6576656c2063616c6c206661696c65648152508573ffffffffffffffffffffffffffffffffffffffff16611ffc9092919063ffffffff16565b9050600081511115611e1a5780806020019051810190611dda9190612c93565b611e19576040517f08c379a0000000000000000000000000000000000000000000000000000000008152600401611e1090612d32565b60405180910390fd5b5b505050565b611e298282610f60565b611ea057611e3681612014565b611e448360001c6020612041565b604051602001611e55929190612e5b565b6040516020818303038152906040526040517f08c379a0000000000000000000000000000000000000000000000000000000008152600401611e979190612edf565b60405180910390fd5b5050565b611eac610c02565b611eeb576040517f08c379a0000000000000000000000000000000000000000000000000000000008152600401611ee290612f4d565b60405180910390fd5b565b600060019054906101000a900460ff16611f3c576040517f08c379a0000000000000000000000000000000000000000000000000000000008152600401611f3390612a23565b60405180910390fd5b6000603360006101000a81548160ff021916908315150217905550565b600060019054906101000a900460ff16611fa8576040517f08c379a0000000000000000000000000000000000000000000000000000000008152600401611f9f90612a23565b60405180910390fd5b600160c981905550565b611fba610c02565b15611ffa576040517f08c379a0000000000000000000000000000000000000000000000000000000008152600401611ff190612fb9565b60405180910390fd5b565b606061200b848460008561227d565b90509392505050565b606061203a8273ffffffffffffffffffffffffffffffffffffffff16601460ff16612041565b9050919050565b6060600060028360026120549190612865565b61205e9190612831565b67ffffffffffffffff81111561207757612076612be6565b5b6040519080825280601f01601f1916602001820160405280156120a95781602001600182028036833780820191505090505b5090507f3000000000000000000000000000000000000000000000000000000000000000816000815181106120e1576120e0612802565b5b60200101907effffffffffffffffffffffffffffffffffffffffffffffffffffffffffffff1916908160001a9053507f78000000000000000000000000000000000000000000000000000000000000008160018151811061214557612144612802565b5b60200101907effffffffffffffffffffffffffffffffffffffffffffffffffffffffffffff1916908160001a905350600060018460026121859190612865565b61218f9190612831565b90505b600181111561222f577f3031323334353637383961626364656600000000000000000000000000000000600f8616601081106121d1576121d0612802565b5b1a60f81b8282815181106121e8576121e7612802565b5b60200101907effffffffffffffffffffffffffffffffffffffffffffffffffffffffffffff1916908160001a905350600485901c94508061222890612fd9565b9050612192565b5060008414612273576040517f08c379a000000000000000000000000000000000000000000000000000000000815260040161226a9061304e565b60405180910390fd5b8091505092915050565b6060824710156122c2576040517f08c379a00000000000000000000000000000000000000000000000000000000081526004016122b9906130e0565b60405180910390fd5b6000808673ffffffffffffffffffffffffffffffffffffffff1685876040516122eb9190613147565b60006040518083038185875af1925050503d8060008114612328576040519150601f19603f3d011682016040523d82523d6000602084013e61232d565b606091505b509150915061233e8783838761234a565b92505050949350505050565b606083156123ac5760008351036123a45761236485611d35565b6123a3576040517f08c379a000000000000000000000000000000000000000000000000000000000815260040161239a906131aa565b60405180910390fd5b5b8290506123b7565b6123b683836123bf565b5b949350505050565b6000825111156123d25781518083602001fd5b806040517f08c379a00000000000000000000000000000000000000000000000000000000081526004016124069190612edf565b60405180910390fd5b600080fd5b60007fffffffff0000000000000000000000000000000000000000000000000000000082169050919050565b61244981612414565b811461245457600080fd5b50565b60008135905061246681612440565b92915050565b6000602082840312156124825761248161240f565b5b600061249084828501612457565b91505092915050565b60008115159050919050565b6124ae81612499565b82525050565b60006020820190506124c960008301846124a5565b92915050565b6000819050919050565b6124e2816124cf565b81146124ed57600080fd5b50565b6000813590506124ff816124d9565b92915050565b60006020828403121561251b5761251a61240f565b5b6000612529848285016124f0565b91505092915050565b6000819050919050565b61254581612532565b811461255057600080fd5b50565b6000813590506125628161253c565b92915050565b60006020828403121561257e5761257d61240f565b5b600061258c84828501612553565b91505092915050565b61259e81612532565b82525050565b60006020820190506125b96000830184612595565b92915050565b600073ffffffffffffffffffffffffffffffffffffffff82169050919050565b60006125ea826125bf565b9050919050565b6125fa816125df565b811461260557600080fd5b50565b600081359050612617816125f1565b92915050565b600080604083850312156126345761263361240f565b5b600061264285828601612553565b925050602061265385828601612608565b9150509250929050565b612666816124cf565b82525050565b6000602082019050612681600083018461265d565b92915050565b60006020828403121561269d5761269c61240f565b5b60006126ab84828501612608565b91505092915050565b7f4e487b7100000000000000000000000000000000000000000000000000000000600052601160045260246000fd5b60006126ee826124cf565b91507fffffffffffffffffffffffffffffffffffffffffffffffffffffffffffffffff82036127205761271f6126b4565b5b600182019050919050565b6000612736826124cf565b9150612741836124cf565b9250828203905081811115612759576127586126b4565b5b92915050565b600082825260208201905092915050565b7f416363657373436f6e74726f6c3a2063616e206f6e6c792072656e6f756e636560008201527f20726f6c657320666f722073656c660000000000000000000000000000000000602082015250565b60006127cc602f8361275f565b91506127d782612770565b604082019050919050565b600060208201905081810360008301526127fb816127bf565b9050919050565b7f4e487b7100000000000000000000000000000000000000000000000000000000600052603260045260246000fd5b600061283c826124cf565b9150612847836124cf565b925082820190508082111561285f5761285e6126b4565b5b92915050565b6000612870826124cf565b915061287b836124cf565b9250817fffffffffffffffffffffffffffffffffffffffffffffffffffffffffffffffff04831182151516156128b4576128b36126b4565b5b828202905092915050565b7f4e487b7100000000000000000000000000000000000000000000000000000000600052601260045260246000fd5b60006128f9826124cf565b9150612904836124cf565b925082612914576129136128bf565b5b828204905092915050565b7f4d75737420686176652061646d696e20726f6c6520746f20706572666f726d2060008201527f7468697320616374696f6e2e0000000000000000000000000000000000000000602082015250565b600061297b602c8361275f565b91506129868261291f565b604082019050919050565b600060208201905081810360008301526129aa8161296e565b9050919050565b7f496e697469616c697a61626c653a20636f6e7472616374206973206e6f74206960008201527f6e697469616c697a696e67000000000000000000000000000000000000000000602082015250565b6000612a0d602b8361275f565b9150612a18826129b1565b604082019050919050565b60006020820190508181036000830152612a3c81612a00565b9050919050565b7f496e697469616c697a61626c653a20636f6e747261637420697320616c72656160008201527f647920696e697469616c697a6564000000000000000000000000000000000000602082015250565b6000612a9f602e8361275f565b9150612aaa82612a43565b604082019050919050565b60006020820190508181036000830152612ace81612a92565b9050919050565b6000819050919050565b600060ff82169050919050565b6000819050919050565b6000612b11612b0c612b0784612ad5565b612aec565b612adf565b9050919050565b612b2181612af6565b82525050565b6000602082019050612b3c6000830184612b18565b92915050565b7f5265656e7472616e637947756172643a207265656e7472616e742063616c6c00600082015250565b6000612b78601f8361275f565b9150612b8382612b42565b602082019050919050565b60006020820190508181036000830152612ba781612b6b565b9050919050565b612bb7816125df565b82525050565b6000604082019050612bd26000830185612bae565b612bdf602083018461265d565b9392505050565b7f4e487b7100000000000000000000000000000000000000000000000000000000600052604160045260246000fd5b6000602082019050612c2a6000830184612bae565b92915050565b6000606082019050612c456000830186612bae565b612c526020830185612bae565b612c5f604083018461265d565b949350505050565b612c7081612499565b8114612c7b57600080fd5b50565b600081519050612c8d81612c67565b92915050565b600060208284031215612ca957612ca861240f565b5b6000612cb784828501612c7e565b91505092915050565b7f5361666545524332303a204552433230206f7065726174696f6e20646964206e60008201527f6f74207375636365656400000000000000000000000000000000000000000000602082015250565b6000612d1c602a8361275f565b9150612d2782612cc0565b604082019050919050565b60006020820190508181036000830152612d4b81612d0f565b9050919050565b600081905092915050565b7f416363657373436f6e74726f6c3a206163636f756e7420000000000000000000600082015250565b6000612d93601783612d52565b9150612d9e82612d5d565b601782019050919050565b600081519050919050565b60005b83811015612dd2578082015181840152602081019050612db7565b60008484015250505050565b6000612de982612da9565b612df38185612d52565b9350612e03818560208601612db4565b80840191505092915050565b7f206973206d697373696e6720726f6c6520000000000000000000000000000000600082015250565b6000612e45601183612d52565b9150612e5082612e0f565b601182019050919050565b6000612e6682612d86565b9150612e728285612dde565b9150612e7d82612e38565b9150612e898284612dde565b91508190509392505050565b6000601f19601f8301169050919050565b6000612eb182612da9565b612ebb818561275f565b9350612ecb818560208601612db4565b612ed481612e95565b840191505092915050565b60006020820190508181036000830152612ef98184612ea6565b905092915050565b7f5061757361626c653a206e6f7420706175736564000000000000000000000000600082015250565b6000612f3760148361275f565b9150612f4282612f01565b602082019050919050565b60006020820190508181036000830152612f6681612f2a565b9050919050565b7f5061757361626c653a2070617573656400000000000000000000000000000000600082015250565b6000612fa360108361275f565b9150612fae82612f6d565b602082019050919050565b60006020820190508181036000830152612fd281612f96565b9050919050565b6000612fe4826124cf565b915060008203612ff757612ff66126b4565b5b600182039050919050565b7f537472696e67733a20686578206c656e67746820696e73756666696369656e74600082015250565b600061303860208361275f565b915061304382613002565b602082019050919050565b600060208201905081810360008301526130678161302b565b9050919050565b7f416464726573733a20696e73756666696369656e742062616c616e636520666f60008201527f722063616c6c0000000000000000000000000000000000000000000000000000602082015250565b60006130ca60268361275f565b91506130d58261306e565b604082019050919050565b600060208201905081810360008301526130f9816130bd565b9050919050565b600081519050919050565b600081905092915050565b600061312182613100565b61312b818561310b565b935061313b818560208601612db4565b80840191505092915050565b60006131538284613116565b915081905092915050565b7f416464726573733a2063616c6c20746f206e6f6e2d636f6e7472616374000000600082015250565b6000613194601d8361275f565b915061319f8261315e565b602082019050919050565b600060208201905081810360008301526131c381613187565b905091905056fea2646970667358221220c858418b0fd64dd1dc601d1ebcf782759a2d1682836e3d101ff21a6c3d48ec1964736f6c63430008100033",
  "linkReferences": {},
  "deployedLinkReferences": {}
}