{
  "_format": "hh-sol-artifact-1",
  "contractName": "GENZStaking",
  "sourceName": "contracts/core/staking/GENZStaking.sol",
  "abi": [
    {
      "inputs": [
        {
          "internalType": "address",
          "name": "tokenAddressGENZ",
          "type": "address"
        },
        {
          "internalType": "uint256",
          "name": "timeInDays",
          "type": "uint256"
        }
      ],
      "stateMutability": "nonpayable",
      "type": "constructor"
    },
    {
      "inputs": [],
      "name": "BaseUpgradeablePausable__ZeroAddressError",
      "type": "error"
    },
    {
      "inputs": [],
      "name": "GENZStaking__NotAMinimumStakeAmountError",
      "type": "error"
    },
    {
      "inputs": [],
      "name": "GENZStaking__TransactionFailedError",
      "type": "error"
    },
    {
      "anonymous": false,
      "inputs": [
        {
          "indexed": false,
          "internalType": "uint8",
          "name": "version",
          "type": "uint8"
        }
      ],
      "name": "Initialized",
      "type": "event"
    },
    {
      "anonymous": false,
      "inputs": [
        {
          "indexed": false,
          "internalType": "address",
          "name": "account",
          "type": "address"
        }
      ],
      "name": "Paused",
      "type": "event"
    },
    {
      "anonymous": false,
      "inputs": [
        {
          "indexed": true,
          "internalType": "bytes32",
          "name": "role",
          "type": "bytes32"
        },
        {
          "indexed": true,
          "internalType": "bytes32",
          "name": "previousAdminRole",
          "type": "bytes32"
        },
        {
          "indexed": true,
          "internalType": "bytes32",
          "name": "newAdminRole",
          "type": "bytes32"
        }
      ],
      "name": "RoleAdminChanged",
      "type": "event"
    },
    {
      "anonymous": false,
      "inputs": [
        {
          "indexed": true,
          "internalType": "bytes32",
          "name": "role",
          "type": "bytes32"
        },
        {
          "indexed": true,
          "internalType": "address",
          "name": "account",
          "type": "address"
        },
        {
          "indexed": true,
          "internalType": "address",
          "name": "sender",
          "type": "address"
        }
      ],
      "name": "RoleGranted",
      "type": "event"
    },
    {
      "anonymous": false,
      "inputs": [
        {
          "indexed": true,
          "internalType": "bytes32",
          "name": "role",
          "type": "bytes32"
        },
        {
          "indexed": true,
          "internalType": "address",
          "name": "account",
          "type": "address"
        },
        {
          "indexed": true,
          "internalType": "address",
          "name": "sender",
          "type": "address"
        }
      ],
      "name": "RoleRevoked",
      "type": "event"
    },
    {
      "anonymous": false,
      "inputs": [
        {
          "indexed": true,
          "internalType": "address",
          "name": "userAddress",
          "type": "address"
        },
        {
          "indexed": false,
          "internalType": "uint256",
          "name": "value",
          "type": "uint256"
        }
      ],
      "name": "StakedGENZ",
      "type": "event"
    },
    {
      "anonymous": false,
      "inputs": [
        {
          "indexed": false,
          "internalType": "address",
          "name": "account",
          "type": "address"
        }
      ],
      "name": "Unpaused",
      "type": "event"
    },
    {
      "anonymous": false,
      "inputs": [
        {
          "indexed": true,
          "internalType": "address",
          "name": "userAddress",
          "type": "address"
        },
        {
          "indexed": false,
          "internalType": "uint256",
          "name": "value",
          "type": "uint256"
        }
      ],
      "name": "UnstakedGENZ",
      "type": "event"
    },
    {
      "anonymous": false,
      "inputs": [
        {
          "indexed": true,
          "internalType": "uint256",
          "name": "value",
          "type": "uint256"
        }
      ],
      "name": "UpdatedMinStakingAmount",
      "type": "event"
    },
    {
      "anonymous": false,
      "inputs": [
        {
          "indexed": true,
          "internalType": "uint256",
          "name": "timeInMinutes",
          "type": "uint256"
        }
      ],
      "name": "UpdatedWithdrawTimer",
      "type": "event"
    },
    {
      "inputs": [],
      "name": "DEFAULT_ADMIN_ROLE",
      "outputs": [
        {
          "internalType": "bytes32",
          "name": "",
          "type": "bytes32"
        }
      ],
      "stateMutability": "view",
      "type": "function"
    },
    {
      "inputs": [
        {
          "internalType": "address",
          "name": "owner",
          "type": "address"
        }
      ],
      "name": "__BaseUpgradeablePausable_init",
      "outputs": [],
      "stateMutability": "nonpayable",
      "type": "function"
    },
    {
      "inputs": [
        {
          "internalType": "uint256",
          "name": "value",
          "type": "uint256"
        }
      ],
      "name": "activateWithdrawalTimer",
      "outputs": [
        {
          "internalType": "bool",
          "name": "",
          "type": "bool"
        }
      ],
      "stateMutability": "nonpayable",
      "type": "function"
    },
    {
      "inputs": [
        {
          "internalType": "bytes32",
          "name": "role",
          "type": "bytes32"
        }
      ],
      "name": "getRoleAdmin",
      "outputs": [
        {
          "internalType": "bytes32",
          "name": "",
          "type": "bytes32"
        }
      ],
      "stateMutability": "view",
      "type": "function"
    },
    {
      "inputs": [],
      "name": "getStakerRewardInfo",
      "outputs": [
        {
          "internalType": "uint256",
          "name": "",
          "type": "uint256"
        }
      ],
      "stateMutability": "view",
      "type": "function"
    },
    {
      "inputs": [],
      "name": "getUserStakedGENZBalance",
      "outputs": [
        {
          "internalType": "uint256",
          "name": "",
          "type": "uint256"
        }
      ],
      "stateMutability": "view",
      "type": "function"
    },
    {
      "inputs": [
        {
          "internalType": "bytes32",
          "name": "role",
          "type": "bytes32"
        },
        {
          "internalType": "address",
          "name": "account",
          "type": "address"
        }
      ],
      "name": "grantRole",
      "outputs": [],
      "stateMutability": "nonpayable",
      "type": "function"
    },
    {
      "inputs": [
        {
          "internalType": "bytes32",
          "name": "role",
          "type": "bytes32"
        },
        {
          "internalType": "address",
          "name": "account",
          "type": "address"
        }
      ],
      "name": "hasRole",
      "outputs": [
        {
          "internalType": "bool",
          "name": "",
          "type": "bool"
        }
      ],
      "stateMutability": "view",
      "type": "function"
    },
    {
      "inputs": [],
      "name": "isAdmin",
      "outputs": [
        {
          "internalType": "bool",
          "name": "",
          "type": "bool"
        }
      ],
      "stateMutability": "view",
      "type": "function"
    },
    {
      "inputs": [],
      "name": "pause",
      "outputs": [],
      "stateMutability": "nonpayable",
      "type": "function"
    },
    {
      "inputs": [],
      "name": "paused",
      "outputs": [
        {
          "internalType": "bool",
          "name": "",
          "type": "bool"
        }
      ],
      "stateMutability": "view",
      "type": "function"
    },
    {
      "inputs": [
        {
          "internalType": "bytes32",
          "name": "role",
          "type": "bytes32"
        },
        {
          "internalType": "address",
          "name": "account",
          "type": "address"
        }
      ],
      "name": "renounceRole",
      "outputs": [],
      "stateMutability": "nonpayable",
      "type": "function"
    },
    {
      "inputs": [
        {
          "internalType": "bytes32",
          "name": "role",
          "type": "bytes32"
        },
        {
          "internalType": "address",
          "name": "account",
          "type": "address"
        }
      ],
      "name": "revokeRole",
      "outputs": [],
      "stateMutability": "nonpayable",
      "type": "function"
    },
    {
      "inputs": [
        {
          "internalType": "uint256",
          "name": "timeInMinutes",
          "type": "uint256"
        }
      ],
      "name": "setWithdrawTime",
      "outputs": [],
      "stateMutability": "nonpayable",
      "type": "function"
    },
    {
      "inputs": [
        {
          "internalType": "uint256",
          "name": "value",
          "type": "uint256"
        }
      ],
      "name": "stakeGENZ",
      "outputs": [
        {
          "internalType": "bool",
          "name": "",
          "type": "bool"
        }
      ],
      "stateMutability": "nonpayable",
      "type": "function"
    },
    {
      "inputs": [
        {
          "internalType": "bytes4",
          "name": "interfaceId",
          "type": "bytes4"
        }
      ],
      "name": "supportsInterface",
      "outputs": [
        {
          "internalType": "bool",
          "name": "",
          "type": "bool"
        }
      ],
      "stateMutability": "view",
      "type": "function"
    },
    {
      "inputs": [],
      "name": "totalTokensStaked",
      "outputs": [
        {
          "internalType": "uint256",
          "name": "",
          "type": "uint256"
        }
      ],
      "stateMutability": "view",
      "type": "function"
    },
    {
      "inputs": [],
      "name": "unpause",
      "outputs": [],
      "stateMutability": "nonpayable",
      "type": "function"
    },
    {
      "inputs": [
        {
          "internalType": "uint256",
          "name": "value",
          "type": "uint256"
        }
      ],
      "name": "updateMinimumStakeAmount",
      "outputs": [],
      "stateMutability": "nonpayable",
      "type": "function"
    },
    {
      "inputs": [
        {
          "internalType": "uint256",
          "name": "value",
          "type": "uint256"
        }
      ],
      "name": "withdrawGENZ",
      "outputs": [
        {
          "internalType": "bool",
          "name": "",
          "type": "bool"
        }
      ],
      "stateMutability": "nonpayable",
      "type": "function"
    }
  ],
  "bytecode": "0x60a06040523480156200001157600080fd5b50604051620026a4380380620026a483398181016040528101906200003791906200013c565b670de0b6b3a764000060fb81905550603c81620000559190620001b2565b60fc819055508173ffffffffffffffffffffffffffffffffffffffff1660808173ffffffffffffffffffffffffffffffffffffffff1681525050505062000213565b600080fd5b600073ffffffffffffffffffffffffffffffffffffffff82169050919050565b6000620000c9826200009c565b9050919050565b620000db81620000bc565b8114620000e757600080fd5b50565b600081519050620000fb81620000d0565b92915050565b6000819050919050565b620001168162000101565b81146200012257600080fd5b50565b60008151905062000136816200010b565b92915050565b6000806040838503121562000156576200015562000097565b5b60006200016685828601620000ea565b9250506020620001798582860162000125565b9150509250929050565b7f4e487b7100000000000000000000000000000000000000000000000000000000600052601160045260246000fd5b6000620001bf8262000101565b9150620001cc8362000101565b9250817fffffffffffffffffffffffffffffffffffffffffffffffffffffffffffffffff048311821515161562000208576200020762000183565b5b828202905092915050565b60805161246e62000236600039600081816106be0152610ec6015261246e6000f3fe608060405234801561001057600080fd5b506004361061012c5760003560e01c806377539417116100ad578063b0e31b2d11610071578063b0e31b2d1461031b578063b6db75a014610339578063d547741f14610357578063d6fb97a514610373578063ed0cdb1a146103a35761012c565b806377539417146102895780638456cb59146102a557806391d14854146102af578063a217fddf146102df578063a2524ef8146102fd5761012c565b80633f4ba83a116100f45780633f4ba83a146101f957806358418587146102035780635c975abb1461021f5780636c64f0b41461023d5780636e810b1a1461026d5761012c565b806301ffc9a714610131578063060e5c6e14610161578063248a9ca3146101915780632f2ff15d146101c157806336568abe146101dd575b600080fd5b61014b60048036038101906101469190611a6f565b6103c1565b6040516101589190611ab7565b60405180910390f35b61017b60048036038101906101769190611b08565b61043b565b6040516101889190611ab7565b60405180910390f35b6101ab60048036038101906101a69190611b6b565b610802565b6040516101b89190611ba7565b60405180910390f35b6101db60048036038101906101d69190611c20565b610822565b005b6101f760048036038101906101f29190611c20565b610843565b005b6102016108c6565b005b61021d60048036038101906102189190611b08565b610917565b005b6102276109a1565b6040516102349190611ab7565b60405180910390f35b61025760048036038101906102529190611b08565b6109b8565b6040516102649190611ab7565b60405180910390f35b61028760048036038101906102829190611c60565b610b04565b005b6102a3600480360381019061029e9190611b08565b610c26565b005b6102ad610ca4565b005b6102c960048036038101906102c49190611c20565b610cf5565b6040516102d69190611ab7565b60405180910390f35b6102e7610d60565b6040516102f49190611ba7565b60405180910390f35b610305610d67565b6040516103129190611c9c565b60405180910390f35b610323610db8565b6040516103309190611c9c565b60405180910390f35b610341610dbe565b60405161034e9190611ab7565b60405180910390f35b610371600480360381019061036c9190611c20565b610ddd565b005b61038d60048036038101906103889190611b08565b610dfe565b60405161039a9190611ab7565b60405180910390f35b6103ab61100c565b6040516103b89190611c9c565b60405180910390f35b60007f7965db0b000000000000000000000000000000000000000000000000000000007bffffffffffffffffffffffffffffffffffffffffffffffffffffffff1916827bffffffffffffffffffffffffffffffffffffffffffffffffffffffff191614806104345750610433826110b5565b5b9050919050565b600061044561111f565b600060fe600061045361116e565b73ffffffffffffffffffffffffffffffffffffffff1673ffffffffffffffffffffffffffffffffffffffff168152602001908152602001600020905082816000015410806104e9575060ff60006104a861116e565b73ffffffffffffffffffffffffffffffffffffffff1673ffffffffffffffffffffffffffffffffffffffff1681526020019081526020016000206002015442105b8061053c575060ff60006104fb61116e565b73ffffffffffffffffffffffffffffffffffffffff1673ffffffffffffffffffffffffffffffffffffffff1681526020019081526020016000206001015483115b15610573576040517f71a61d9d00000000000000000000000000000000000000000000000000000000815260040160405180910390fd5b8260fd60008282546105859190611ce6565b92505081905550828160000160008282546105a09190611ce6565b925050819055508260ff60006105b461116e565b73ffffffffffffffffffffffffffffffffffffffff1673ffffffffffffffffffffffffffffffffffffffff168152602001908152602001600020600101540361065a57600060ff600061060561116e565b73ffffffffffffffffffffffffffffffffffffffff1673ffffffffffffffffffffffffffffffffffffffff16815260200190815260200160002060000160006101000a81548160ff0219169083151502179055505b8260ff600061066761116e565b73ffffffffffffffffffffffffffffffffffffffff1673ffffffffffffffffffffffffffffffffffffffff16815260200190815260200160002060010160008282546106b39190611ce6565b9250508190555060007f000000000000000000000000000000000000000000000000000000000000000073ffffffffffffffffffffffffffffffffffffffff1663a9059cbb61070061116e565b866040518363ffffffff1660e01b815260040161071e929190611d29565b6020604051808303816000875af115801561073d573d6000803e3d6000fd5b505050506040513d601f19601f820116820180604052508101906107619190611d7e565b90508061079a576040517f71a61d9d00000000000000000000000000000000000000000000000000000000815260040160405180910390fd5b6107a261116e565b73ffffffffffffffffffffffffffffffffffffffff167f33acb29a4ba6d440da1a7ba75e505a000b362f21a991b589437f8f04dd98fd6b856040516107e79190611c9c565b60405180910390a26001925050506107fd611176565b919050565b600060976000838152602001908152602001600020600101549050919050565b61082b82610802565b61083481611180565b61083e8383611194565b505050565b61084b61116e565b73ffffffffffffffffffffffffffffffffffffffff168173ffffffffffffffffffffffffffffffffffffffff16146108b8576040517f08c379a00000000000000000000000000000000000000000000000000000000081526004016108af90611e2e565b60405180910390fd5b6108c28282611275565b5050565b6108ce610dbe565b61090d576040517f08c379a000000000000000000000000000000000000000000000000000000000815260040161090490611ec0565b60405180910390fd5b610915611357565b565b61091f610dbe565b61095e576040517f08c379a000000000000000000000000000000000000000000000000000000000815260040161095590611ec0565b60405180910390fd5b603c8161096b9190611ee0565b60fc81905550807fc43e5db88f387521adfb9f79c0c9efd47004dc3a041358383ecccb1a1509dbf660405160405180910390a250565b6000603360009054906101000a900460ff16905090565b600060ff60006109c661116e565b73ffffffffffffffffffffffffffffffffffffffff1673ffffffffffffffffffffffffffffffffffffffff16815260200190815260200160002060000160009054906101000a900460ff161580610a6557508160ff6000610a2561116e565b73ffffffffffffffffffffffffffffffffffffffff1673ffffffffffffffffffffffffffffffffffffffff16815260200190815260200160002060010154105b15610afa57600060ff6000610a7861116e565b73ffffffffffffffffffffffffffffffffffffffff1673ffffffffffffffffffffffffffffffffffffffff168152602001908152602001600020905060018160000160006101000a81548160ff0219169083151502179055508281600101819055504260fc54610ae89190611f3a565b81600201819055506001915050610aff565b600090505b919050565b600060019054906101000a900460ff16610b53576040517f08c379a0000000000000000000000000000000000000000000000000000000008152600401610b4a90611fe0565b60405180910390fd5b600073ffffffffffffffffffffffffffffffffffffffff168173ffffffffffffffffffffffffffffffffffffffff1603610bb9576040517f5415139400000000000000000000000000000000000000000000000000000000815260040160405180910390fd5b610bc16113ba565b610bc9611413565b610bd1611464565b610be2610bdc6114bd565b82611194565b610bf3610bed6114e5565b82611194565b610c0b610bfe6114e5565b610c066114bd565b61150d565b610c23610c166114bd565b610c1e6114bd565b61150d565b50565b610c2e610dbe565b610c6d576040517f08c379a0000000000000000000000000000000000000000000000000000000008152600401610c6490611ec0565b60405180910390fd5b8060fb81905550807f4e84e59515fa6d59eedd951d065c81f1962f0e5132f2e9120b47d64c7b33a17760405160405180910390a250565b610cac610dbe565b610ceb576040517f08c379a0000000000000000000000000000000000000000000000000000000008152600401610ce290611ec0565b60405180910390fd5b610cf3611569565b565b60006097600084815260200190815260200160002060000160008373ffffffffffffffffffffffffffffffffffffffff1673ffffffffffffffffffffffffffffffffffffffff16815260200190815260200160002060009054906101000a900460ff16905092915050565b6000801b81565b600060fe6000610d7561116e565b73ffffffffffffffffffffffffffffffffffffffff1673ffffffffffffffffffffffffffffffffffffffff16815260200190815260200160002060010154905090565b60fd5481565b6000610dd8610dcb6114bd565b610dd361116e565b610cf5565b905090565b610de682610802565b610def81611180565b610df98383611275565b505050565b6000610e0861111f565b60fb54821015610e44576040517fad40140300000000000000000000000000000000000000000000000000000000815260040160405180910390fd5b600060fe6000610e5261116e565b73ffffffffffffffffffffffffffffffffffffffff1673ffffffffffffffffffffffffffffffffffffffff168152602001908152602001600020905082816000016000828254610ea29190611f3a565b925050819055508260fd6000828254610ebb9190611f3a565b9250508190555060007f000000000000000000000000000000000000000000000000000000000000000073ffffffffffffffffffffffffffffffffffffffff166323b872dd610f0861116e565b30876040518463ffffffff1660e01b8152600401610f2893929190612000565b6020604051808303816000875af1158015610f47573d6000803e3d6000fd5b505050506040513d601f19601f82011682018060405250810190610f6b9190611d7e565b905080610fa4576040517f71a61d9d00000000000000000000000000000000000000000000000000000000815260040160405180910390fd5b610fac61116e565b73ffffffffffffffffffffffffffffffffffffffff167ff1e64f5ab94083442836ae6ef7e94101f7fcc786c3e761b00d5f4e10c6c2019685604051610ff19190611c9c565b60405180910390a2600192505050611007611176565b919050565b60008060fe600061101b61116e565b73ffffffffffffffffffffffffffffffffffffffff1673ffffffffffffffffffffffffffffffffffffffff16815260200190815260200160002060000154116110655760006110b0565b60fe600061107161116e565b73ffffffffffffffffffffffffffffffffffffffff1673ffffffffffffffffffffffffffffffffffffffff168152602001908152602001600020600001545b905090565b60007f01ffc9a7000000000000000000000000000000000000000000000000000000007bffffffffffffffffffffffffffffffffffffffffffffffffffffffff1916827bffffffffffffffffffffffffffffffffffffffffffffffffffffffff1916149050919050565b600260c95403611164576040517f08c379a000000000000000000000000000000000000000000000000000000000815260040161115b90612083565b60405180910390fd5b600260c981905550565b600033905090565b600160c981905550565b6111918161118c61116e565b6115cc565b50565b61119e8282610cf5565b6112715760016097600084815260200190815260200160002060000160008373ffffffffffffffffffffffffffffffffffffffff1673ffffffffffffffffffffffffffffffffffffffff16815260200190815260200160002060006101000a81548160ff02191690831515021790555061121661116e565b73ffffffffffffffffffffffffffffffffffffffff168173ffffffffffffffffffffffffffffffffffffffff16837f2f8788117e7eff1d82e926ec794901d17c78024a50270940304540a733656f0d60405160405180910390a45b5050565b61127f8282610cf5565b156113535760006097600084815260200190815260200160002060000160008373ffffffffffffffffffffffffffffffffffffffff1673ffffffffffffffffffffffffffffffffffffffff16815260200190815260200160002060006101000a81548160ff0219169083151502179055506112f861116e565b73ffffffffffffffffffffffffffffffffffffffff168173ffffffffffffffffffffffffffffffffffffffff16837ff6391f5c32d9c69d2a47ea670b442974b53935d1edc7fd64eb21e047a839171b60405160405180910390a45b5050565b61135f611651565b6000603360006101000a81548160ff0219169083151502179055507f5db9ee0a495bf2e6ff9c91a7834c1ba4fdd244a5e8aa4e537bd38aeae4b073aa6113a361116e565b6040516113b091906120a3565b60405180910390a1565b600060019054906101000a900460ff16611409576040517f08c379a000000000000000000000000000000000000000000000000000000000815260040161140090611fe0565b60405180910390fd5b61141161169a565b565b600060019054906101000a900460ff16611462576040517f08c379a000000000000000000000000000000000000000000000000000000000815260040161145990611fe0565b60405180910390fd5b565b600060019054906101000a900460ff166114b3576040517f08c379a00000000000000000000000000000000000000000000000000000000081526004016114aa90611fe0565b60405180910390fd5b6114bb611706565b565b60007fa49807205ce4d355092ef5a8a18f56e8913cf4a201fbe287825b095693c21775905090565b60007f65d7a28e3265b37a6474929f336521b332c1681b933f6cb9f3376673440d862a905090565b600061151883610802565b90508160976000858152602001908152602001600020600101819055508181847fbd79b86ffe0ab8e8776151514217cd7cacd52c909f66475c3af44e129f0b00ff60405160405180910390a4505050565b61157161175f565b6001603360006101000a81548160ff0219169083151502179055507f62e78cea01bee320cd4e420270b5ea74000d11b0c9f74754ebdbfc544b05a2586115b561116e565b6040516115c291906120a3565b60405180910390a1565b6115d68282610cf5565b61164d576115e3816117a9565b6115f18360001c60206117d6565b6040516020016116029291906121c7565b6040516020818303038152906040526040517f08c379a0000000000000000000000000000000000000000000000000000000008152600401611644919061224b565b60405180910390fd5b5050565b6116596109a1565b611698576040517f08c379a000000000000000000000000000000000000000000000000000000000815260040161168f906122b9565b60405180910390fd5b565b600060019054906101000a900460ff166116e9576040517f08c379a00000000000000000000000000000000000000000000000000000000081526004016116e090611fe0565b60405180910390fd5b6000603360006101000a81548160ff021916908315150217905550565b600060019054906101000a900460ff16611755576040517f08c379a000000000000000000000000000000000000000000000000000000000815260040161174c90611fe0565b60405180910390fd5b600160c981905550565b6117676109a1565b156117a7576040517f08c379a000000000000000000000000000000000000000000000000000000000815260040161179e90612325565b60405180910390fd5b565b60606117cf8273ffffffffffffffffffffffffffffffffffffffff16601460ff166117d6565b9050919050565b6060600060028360026117e99190611ee0565b6117f39190611f3a565b67ffffffffffffffff81111561180c5761180b612345565b5b6040519080825280601f01601f19166020018201604052801561183e5781602001600182028036833780820191505090505b5090507f30000000000000000000000000000000000000000000000000000000000000008160008151811061187657611875612374565b5b60200101907effffffffffffffffffffffffffffffffffffffffffffffffffffffffffffff1916908160001a9053507f7800000000000000000000000000000000000000000000000000000000000000816001815181106118da576118d9612374565b5b60200101907effffffffffffffffffffffffffffffffffffffffffffffffffffffffffffff1916908160001a9053506000600184600261191a9190611ee0565b6119249190611f3a565b90505b60018111156119c4577f3031323334353637383961626364656600000000000000000000000000000000600f86166010811061196657611965612374565b5b1a60f81b82828151811061197d5761197c612374565b5b60200101907effffffffffffffffffffffffffffffffffffffffffffffffffffffffffffff1916908160001a905350600485901c9450806119bd906123a3565b9050611927565b5060008414611a08576040517f08c379a00000000000000000000000000000000000000000000000000000000081526004016119ff90612418565b60405180910390fd5b8091505092915050565b600080fd5b60007fffffffff0000000000000000000000000000000000000000000000000000000082169050919050565b611a4c81611a17565b8114611a5757600080fd5b50565b600081359050611a6981611a43565b92915050565b600060208284031215611a8557611a84611a12565b5b6000611a9384828501611a5a565b91505092915050565b60008115159050919050565b611ab181611a9c565b82525050565b6000602082019050611acc6000830184611aa8565b92915050565b6000819050919050565b611ae581611ad2565b8114611af057600080fd5b50565b600081359050611b0281611adc565b92915050565b600060208284031215611b1e57611b1d611a12565b5b6000611b2c84828501611af3565b91505092915050565b6000819050919050565b611b4881611b35565b8114611b5357600080fd5b50565b600081359050611b6581611b3f565b92915050565b600060208284031215611b8157611b80611a12565b5b6000611b8f84828501611b56565b91505092915050565b611ba181611b35565b82525050565b6000602082019050611bbc6000830184611b98565b92915050565b600073ffffffffffffffffffffffffffffffffffffffff82169050919050565b6000611bed82611bc2565b9050919050565b611bfd81611be2565b8114611c0857600080fd5b50565b600081359050611c1a81611bf4565b92915050565b60008060408385031215611c3757611c36611a12565b5b6000611c4585828601611b56565b9250506020611c5685828601611c0b565b9150509250929050565b600060208284031215611c7657611c75611a12565b5b6000611c8484828501611c0b565b91505092915050565b611c9681611ad2565b82525050565b6000602082019050611cb16000830184611c8d565b92915050565b7f4e487b7100000000000000000000000000000000000000000000000000000000600052601160045260246000fd5b6000611cf182611ad2565b9150611cfc83611ad2565b9250828203905081811115611d1457611d13611cb7565b5b92915050565b611d2381611be2565b82525050565b6000604082019050611d3e6000830185611d1a565b611d4b6020830184611c8d565b9392505050565b611d5b81611a9c565b8114611d6657600080fd5b50565b600081519050611d7881611d52565b92915050565b600060208284031215611d9457611d93611a12565b5b6000611da284828501611d69565b91505092915050565b600082825260208201905092915050565b7f416363657373436f6e74726f6c3a2063616e206f6e6c792072656e6f756e636560008201527f20726f6c657320666f722073656c660000000000000000000000000000000000602082015250565b6000611e18602f83611dab565b9150611e2382611dbc565b604082019050919050565b60006020820190508181036000830152611e4781611e0b565b9050919050565b7f4d75737420686176652061646d696e20726f6c6520746f20706572666f726d2060008201527f7468697320616374696f6e2e0000000000000000000000000000000000000000602082015250565b6000611eaa602c83611dab565b9150611eb582611e4e565b604082019050919050565b60006020820190508181036000830152611ed981611e9d565b9050919050565b6000611eeb82611ad2565b9150611ef683611ad2565b9250817fffffffffffffffffffffffffffffffffffffffffffffffffffffffffffffffff0483118215151615611f2f57611f2e611cb7565b5b828202905092915050565b6000611f4582611ad2565b9150611f5083611ad2565b9250828201905080821115611f6857611f67611cb7565b5b92915050565b7f496e697469616c697a61626c653a20636f6e7472616374206973206e6f74206960008201527f6e697469616c697a696e67000000000000000000000000000000000000000000602082015250565b6000611fca602b83611dab565b9150611fd582611f6e565b604082019050919050565b60006020820190508181036000830152611ff981611fbd565b9050919050565b60006060820190506120156000830186611d1a565b6120226020830185611d1a565b61202f6040830184611c8d565b949350505050565b7f5265656e7472616e637947756172643a207265656e7472616e742063616c6c00600082015250565b600061206d601f83611dab565b915061207882612037565b602082019050919050565b6000602082019050818103600083015261209c81612060565b9050919050565b60006020820190506120b86000830184611d1a565b92915050565b600081905092915050565b7f416363657373436f6e74726f6c3a206163636f756e7420000000000000000000600082015250565b60006120ff6017836120be565b915061210a826120c9565b601782019050919050565b600081519050919050565b60005b8381101561213e578082015181840152602081019050612123565b60008484015250505050565b600061215582612115565b61215f81856120be565b935061216f818560208601612120565b80840191505092915050565b7f206973206d697373696e6720726f6c6520000000000000000000000000000000600082015250565b60006121b16011836120be565b91506121bc8261217b565b601182019050919050565b60006121d2826120f2565b91506121de828561214a565b91506121e9826121a4565b91506121f5828461214a565b91508190509392505050565b6000601f19601f8301169050919050565b600061221d82612115565b6122278185611dab565b9350612237818560208601612120565b61224081612201565b840191505092915050565b600060208201905081810360008301526122658184612212565b905092915050565b7f5061757361626c653a206e6f7420706175736564000000000000000000000000600082015250565b60006122a3601483611dab565b91506122ae8261226d565b602082019050919050565b600060208201905081810360008301526122d281612296565b9050919050565b7f5061757361626c653a2070617573656400000000000000000000000000000000600082015250565b600061230f601083611dab565b915061231a826122d9565b602082019050919050565b6000602082019050818103600083015261233e81612302565b9050919050565b7f4e487b7100000000000000000000000000000000000000000000000000000000600052604160045260246000fd5b7f4e487b7100000000000000000000000000000000000000000000000000000000600052603260045260246000fd5b60006123ae82611ad2565b9150600082036123c1576123c0611cb7565b5b600182039050919050565b7f537472696e67733a20686578206c656e67746820696e73756666696369656e74600082015250565b6000612402602083611dab565b915061240d826123cc565b602082019050919050565b60006020820190508181036000830152612431816123f5565b905091905056fea264697066735822122050eec51d76ab84680038470b4680c21a27793259b2e4c364ada2e71e0aaf63cb64736f6c63430008100033",
  "linkReferences": {},
  "deployedLinkReferences": {}
}