{
  "_format": "hh-sol-artifact-1",
  "contractName": "CoveragePool",
  "sourceName": "contracts/core/payAsYouGo/CoveragePool.sol",
  "abi": [
    {
      "inputs": [
        {
          "internalType": "address",
          "name": "addressSZT",
          "type": "address"
        },
        {
          "internalType": "address",
          "name": "addressBuySellSZT",
          "type": "address"
        },
        {
          "internalType": "address",
          "name": "tokenDAI",
          "type": "address"
        }
      ],
      "stateMutability": "nonpayable",
      "type": "constructor"
    },
    {
      "inputs": [],
      "name": "BaseUpgradeablePausable__ZeroAddressError",
      "type": "error"
    },
    {
      "inputs": [],
      "name": "CoveragePool__ImmutableChangesError",
      "type": "error"
    },
    {
      "inputs": [],
      "name": "CoveragePool__LowAmountError",
      "type": "error"
    },
    {
      "inputs": [],
      "name": "CoveragePool__NotAMinimumPoolAmountError",
      "type": "error"
    },
    {
      "inputs": [],
      "name": "CoveragePool__TransactionFailedError",
      "type": "error"
    },
    {
      "anonymous": false,
      "inputs": [
        {
          "indexed": false,
          "internalType": "uint8",
          "name": "version",
          "type": "uint8"
        }
      ],
      "name": "Initialized",
      "type": "event"
    },
    {
      "anonymous": false,
      "inputs": [
        {
          "indexed": false,
          "internalType": "address",
          "name": "account",
          "type": "address"
        }
      ],
      "name": "Paused",
      "type": "event"
    },
    {
      "anonymous": false,
      "inputs": [
        {
          "indexed": true,
          "internalType": "address",
          "name": "userAddress",
          "type": "address"
        },
        {
          "indexed": false,
          "internalType": "uint256",
          "name": "categoryID",
          "type": "uint256"
        },
        {
          "indexed": false,
          "internalType": "uint256",
          "name": "subCategoryID",
          "type": "uint256"
        },
        {
          "indexed": true,
          "internalType": "uint256",
          "name": "value",
          "type": "uint256"
        }
      ],
      "name": "PoolWithdrawn",
      "type": "event"
    },
    {
      "anonymous": false,
      "inputs": [
        {
          "indexed": true,
          "internalType": "bytes32",
          "name": "role",
          "type": "bytes32"
        },
        {
          "indexed": true,
          "internalType": "bytes32",
          "name": "previousAdminRole",
          "type": "bytes32"
        },
        {
          "indexed": true,
          "internalType": "bytes32",
          "name": "newAdminRole",
          "type": "bytes32"
        }
      ],
      "name": "RoleAdminChanged",
      "type": "event"
    },
    {
      "anonymous": false,
      "inputs": [
        {
          "indexed": true,
          "internalType": "bytes32",
          "name": "role",
          "type": "bytes32"
        },
        {
          "indexed": true,
          "internalType": "address",
          "name": "account",
          "type": "address"
        },
        {
          "indexed": true,
          "internalType": "address",
          "name": "sender",
          "type": "address"
        }
      ],
      "name": "RoleGranted",
      "type": "event"
    },
    {
      "anonymous": false,
      "inputs": [
        {
          "indexed": true,
          "internalType": "bytes32",
          "name": "role",
          "type": "bytes32"
        },
        {
          "indexed": true,
          "internalType": "address",
          "name": "account",
          "type": "address"
        },
        {
          "indexed": true,
          "internalType": "address",
          "name": "sender",
          "type": "address"
        }
      ],
      "name": "RoleRevoked",
      "type": "event"
    },
    {
      "anonymous": false,
      "inputs": [
        {
          "indexed": true,
          "internalType": "address",
          "name": "userAddress",
          "type": "address"
        },
        {
          "indexed": false,
          "internalType": "uint256",
          "name": "categoryID",
          "type": "uint256"
        },
        {
          "indexed": false,
          "internalType": "uint256",
          "name": "subCategoryID",
          "type": "uint256"
        },
        {
          "indexed": true,
          "internalType": "uint256",
          "name": "value",
          "type": "uint256"
        }
      ],
      "name": "UnderwritePool",
      "type": "event"
    },
    {
      "anonymous": false,
      "inputs": [
        {
          "indexed": false,
          "internalType": "address",
          "name": "account",
          "type": "address"
        }
      ],
      "name": "Unpaused",
      "type": "event"
    },
    {
      "anonymous": false,
      "inputs": [],
      "name": "UpdatedMinCoveragePoolAmount",
      "type": "event"
    },
    {
      "anonymous": false,
      "inputs": [
        {
          "indexed": true,
          "internalType": "uint256",
          "name": "timeInDays",
          "type": "uint256"
        }
      ],
      "name": "UpdatedWaitingPeriod",
      "type": "event"
    },
    {
      "inputs": [],
      "name": "DEFAULT_ADMIN_ROLE",
      "outputs": [
        {
          "internalType": "bytes32",
          "name": "",
          "type": "bytes32"
        }
      ],
      "stateMutability": "view",
      "type": "function"
    },
    {
      "inputs": [
        {
          "internalType": "address",
          "name": "owner",
          "type": "address"
        }
      ],
      "name": "__BaseUpgradeablePausable_init",
      "outputs": [],
      "stateMutability": "nonpayable",
      "type": "function"
    },
    {
      "inputs": [
        {
          "internalType": "uint256",
          "name": "value",
          "type": "uint256"
        },
        {
          "internalType": "uint256",
          "name": "categoryID",
          "type": "uint256"
        },
        {
          "internalType": "uint256",
          "name": "subCategoryID",
          "type": "uint256"
        }
      ],
      "name": "activateWithdrawalTimer",
      "outputs": [
        {
          "internalType": "bool",
          "name": "",
          "type": "bool"
        }
      ],
      "stateMutability": "nonpayable",
      "type": "function"
    },
    {
      "inputs": [
        {
          "internalType": "bytes32",
          "name": "role",
          "type": "bytes32"
        }
      ],
      "name": "getRoleAdmin",
      "outputs": [
        {
          "internalType": "bytes32",
          "name": "",
          "type": "bytes32"
        }
      ],
      "stateMutability": "view",
      "type": "function"
    },
    {
      "inputs": [
        {
          "internalType": "uint256",
          "name": "categoryID",
          "type": "uint256"
        },
        {
          "internalType": "uint256",
          "name": "subCategoryID",
          "type": "uint256"
        },
        {
          "internalType": "uint256",
          "name": "version",
          "type": "uint256"
        }
      ],
      "name": "getUnderWriterDepositedBalance",
      "outputs": [
        {
          "internalType": "uint256",
          "name": "",
          "type": "uint256"
        }
      ],
      "stateMutability": "view",
      "type": "function"
    },
    {
      "inputs": [
        {
          "internalType": "uint256",
          "name": "categoryID",
          "type": "uint256"
        },
        {
          "internalType": "uint256",
          "name": "subCategoryID",
          "type": "uint256"
        },
        {
          "internalType": "uint256",
          "name": "version",
          "type": "uint256"
        }
      ],
      "name": "getUnderWriterWithdrawnBalance",
      "outputs": [
        {
          "internalType": "uint256",
          "name": "",
          "type": "uint256"
        }
      ],
      "stateMutability": "view",
      "type": "function"
    },
    {
      "inputs": [
        {
          "internalType": "address",
          "name": "userAddress",
          "type": "address"
        }
      ],
      "name": "getUnderwriteSZTBalance",
      "outputs": [
        {
          "internalType": "uint256",
          "name": "",
          "type": "uint256"
        }
      ],
      "stateMutability": "view",
      "type": "function"
    },
    {
      "inputs": [
        {
          "internalType": "uint256",
          "name": "categoryID",
          "type": "uint256"
        },
        {
          "internalType": "uint256",
          "name": "subCategoryID",
          "type": "uint256"
        }
      ],
      "name": "getUnderwriterActiveVersionID",
      "outputs": [
        {
          "internalType": "uint256[]",
          "name": "",
          "type": "uint256[]"
        }
      ],
      "stateMutability": "view",
      "type": "function"
    },
    {
      "inputs": [
        {
          "internalType": "address",
          "name": "userAddress",
          "type": "address"
        },
        {
          "internalType": "uint256",
          "name": "categoryID",
          "type": "uint256"
        },
        {
          "internalType": "uint256",
          "name": "subCategoryID",
          "type": "uint256"
        }
      ],
      "name": "getUserCoveragePoolAmount",
      "outputs": [
        {
          "internalType": "uint256",
          "name": "",
          "type": "uint256"
        }
      ],
      "stateMutability": "view",
      "type": "function"
    },
    {
      "inputs": [
        {
          "internalType": "bytes32",
          "name": "role",
          "type": "bytes32"
        },
        {
          "internalType": "address",
          "name": "account",
          "type": "address"
        }
      ],
      "name": "grantRole",
      "outputs": [],
      "stateMutability": "nonpayable",
      "type": "function"
    },
    {
      "inputs": [
        {
          "internalType": "bytes32",
          "name": "role",
          "type": "bytes32"
        },
        {
          "internalType": "address",
          "name": "account",
          "type": "address"
        }
      ],
      "name": "hasRole",
      "outputs": [
        {
          "internalType": "bool",
          "name": "",
          "type": "bool"
        }
      ],
      "stateMutability": "view",
      "type": "function"
    },
    {
      "inputs": [
        {
          "internalType": "address",
          "name": "insuranceRegAddress",
          "type": "address"
        }
      ],
      "name": "initialize",
      "outputs": [],
      "stateMutability": "nonpayable",
      "type": "function"
    },
    {
      "inputs": [],
      "name": "isAdmin",
      "outputs": [
        {
          "internalType": "bool",
          "name": "",
          "type": "bool"
        }
      ],
      "stateMutability": "view",
      "type": "function"
    },
    {
      "inputs": [],
      "name": "pause",
      "outputs": [],
      "stateMutability": "nonpayable",
      "type": "function"
    },
    {
      "inputs": [],
      "name": "paused",
      "outputs": [
        {
          "internalType": "bool",
          "name": "",
          "type": "bool"
        }
      ],
      "stateMutability": "view",
      "type": "function"
    },
    {
      "inputs": [
        {
          "internalType": "bytes32",
          "name": "role",
          "type": "bytes32"
        },
        {
          "internalType": "address",
          "name": "account",
          "type": "address"
        }
      ],
      "name": "renounceRole",
      "outputs": [],
      "stateMutability": "nonpayable",
      "type": "function"
    },
    {
      "inputs": [
        {
          "internalType": "bytes32",
          "name": "role",
          "type": "bytes32"
        },
        {
          "internalType": "address",
          "name": "account",
          "type": "address"
        }
      ],
      "name": "revokeRole",
      "outputs": [],
      "stateMutability": "nonpayable",
      "type": "function"
    },
    {
      "inputs": [
        {
          "internalType": "bytes4",
          "name": "interfaceId",
          "type": "bytes4"
        }
      ],
      "name": "supportsInterface",
      "outputs": [
        {
          "internalType": "bool",
          "name": "",
          "type": "bool"
        }
      ],
      "stateMutability": "view",
      "type": "function"
    },
    {
      "inputs": [],
      "name": "totalTokensStaked",
      "outputs": [
        {
          "internalType": "uint256",
          "name": "",
          "type": "uint256"
        }
      ],
      "stateMutability": "view",
      "type": "function"
    },
    {
      "inputs": [
        {
          "internalType": "uint256",
          "name": "amountInSZT",
          "type": "uint256"
        },
        {
          "internalType": "uint256",
          "name": "categoryID",
          "type": "uint256"
        },
        {
          "internalType": "uint256",
          "name": "subCategoryID",
          "type": "uint256"
        },
        {
          "internalType": "uint256",
          "name": "deadline",
          "type": "uint256"
        },
        {
          "internalType": "uint8",
          "name": "v",
          "type": "uint8"
        },
        {
          "internalType": "bytes32",
          "name": "r",
          "type": "bytes32"
        },
        {
          "internalType": "bytes32",
          "name": "s",
          "type": "bytes32"
        }
      ],
      "name": "underwrite",
      "outputs": [
        {
          "internalType": "bool",
          "name": "",
          "type": "bool"
        }
      ],
      "stateMutability": "nonpayable",
      "type": "function"
    },
    {
      "inputs": [],
      "name": "unpause",
      "outputs": [],
      "stateMutability": "nonpayable",
      "type": "function"
    },
    {
      "inputs": [
        {
          "internalType": "uint256",
          "name": "valueInSZT",
          "type": "uint256"
        }
      ],
      "name": "updateMinCoveragePoolAmount",
      "outputs": [],
      "stateMutability": "nonpayable",
      "type": "function"
    },
    {
      "inputs": [
        {
          "internalType": "uint256",
          "name": "timeInDays",
          "type": "uint256"
        }
      ],
      "name": "updateWaitingPeriodTime",
      "outputs": [],
      "stateMutability": "nonpayable",
      "type": "function"
    },
    {
      "inputs": [
        {
          "internalType": "uint256",
          "name": "value",
          "type": "uint256"
        },
        {
          "internalType": "uint256",
          "name": "categoryID",
          "type": "uint256"
        },
        {
          "internalType": "uint256",
          "name": "subCategoryID",
          "type": "uint256"
        },
        {
          "internalType": "uint256",
          "name": "deadline",
          "type": "uint256"
        },
        {
          "internalType": "uint8",
          "name": "v",
          "type": "uint8"
        },
        {
          "internalType": "bytes32",
          "name": "r",
          "type": "bytes32"
        },
        {
          "internalType": "bytes32",
          "name": "s",
          "type": "bytes32"
        }
      ],
      "name": "withdraw",
      "outputs": [
        {
          "internalType": "bool",
          "name": "",
          "type": "bool"
        }
      ],
      "stateMutability": "nonpayable",
      "type": "function"
    }
  ],
  "bytecode": "0x6101006040523480156200001257600080fd5b50604051620044503803806200445083398181016040528101906200003891906200017b565b8273ffffffffffffffffffffffffffffffffffffffff1660808173ffffffffffffffffffffffffffffffffffffffff16815250508173ffffffffffffffffffffffffffffffffffffffff1660e08173ffffffffffffffffffffffffffffffffffffffff16815250508073ffffffffffffffffffffffffffffffffffffffff1660a08173ffffffffffffffffffffffffffffffffffffffff16815250508073ffffffffffffffffffffffffffffffffffffffff1660c08173ffffffffffffffffffffffffffffffffffffffff1681525050505050620001d7565b600080fd5b600073ffffffffffffffffffffffffffffffffffffffff82169050919050565b6000620001438262000116565b9050919050565b620001558162000136565b81146200016157600080fd5b50565b60008151905062000175816200014a565b92915050565b60008060006060848603121562000197576200019662000111565b5b6000620001a78682870162000164565b9350506020620001ba8682870162000164565b9250506040620001cd8682870162000164565b9150509250925092565b60805160a05160c05160e0516142156200023b6000396000818161093c015281816109cf01528181610ed801528181610f4301528181611867015261191901526000610e82015260008181610a790152610efa0152600061193b01526142156000f3fe608060405234801561001057600080fd5b50600436106101585760003560e01c80636e810b1a116100c3578063b6db75a01161007c578063b6db75a0146103eb578063c4d66de814610409578063d547741f14610425578063db418d6114610441578063e452c2b014610471578063f3ac88bf146104a157610158565b80636e810b1a14610329578063813e710f146103455780638456cb591461037557806391d148541461037f578063a217fddf146103af578063b0e31b2d146103cd57610158565b806336568abe1161011557806336568abe146102695780633973a00a146102855780633f4ba83a146102b55780634d335ec4146102bf5780635c975abb146102ef578063614c26bd1461030d57610158565b806301ffc9a71461015d5780630b6338511461018d57806316f15255146101bd5780631b9f04e1146101ed578063248a9ca31461021d5780632f2ff15d1461024d575b600080fd5b61017760048036038101906101729190612ffa565b6104bd565b6040516101849190613042565b60405180910390f35b6101a760048036038101906101a29190613093565b610537565b6040516101b49190613191565b60405180910390f35b6101d760048036038101906101d29190613222565b6108f2565b6040516101e49190613042565b60405180910390f35b61020760048036038101906102029190613322565b611093565b6040516102149190613384565b60405180910390f35b6102376004803603810190610232919061339f565b611104565b60405161024491906133db565b60405180910390f35b610267600480360381019061026291906133f6565b611124565b005b610283600480360381019061027e91906133f6565b611145565b005b61029f600480360381019061029a9190613436565b6111c8565b6040516102ac9190613042565b60405180910390f35b6102bd61137f565b005b6102d960048036038101906102d49190613222565b6113d0565b6040516102e69190613042565b60405180910390f35b6102f7611a35565b6040516103049190613042565b60405180910390f35b61032760048036038101906103229190613489565b611a4c565b005b610343600480360381019061033e91906134b6565b611ac9565b005b61035f600480360381019061035a9190613436565b611beb565b60405161036c9190613384565b60405180910390f35b61037d611c74565b005b610399600480360381019061039491906133f6565b611cc5565b6040516103a69190613042565b60405180910390f35b6103b7611d30565b6040516103c491906133db565b60405180910390f35b6103d5611d37565b6040516103e29190613384565b60405180910390f35b6103f3611d3d565b6040516104009190613042565b60405180910390f35b610423600480360381019061041e91906134b6565b611d5c565b005b61043f600480360381019061043a91906133f6565b611f03565b005b61045b60048036038101906104569190613436565b611f24565b6040516104689190613384565b60405180910390f35b61048b600480360381019061048691906134b6565b611fad565b6040516104989190613384565b60405180910390f35b6104bb60048036038101906104b69190613489565b612046565b005b60007f7965db0b000000000000000000000000000000000000000000000000000000007bffffffffffffffffffffffffffffffffffffffffffffffffffffffff1916827bffffffffffffffffffffffffffffffffffffffffffffffffffffffff19161480610530575061052f826120d0565b5b9050919050565b6060600080610101600061054961213a565b73ffffffffffffffffffffffffffffffffffffffff1673ffffffffffffffffffffffffffffffffffffffff16815260200190815260200160002060008681526020019081526020016000206000858152602001908152602001600020600101549050600060ff60009054906101000a900473ffffffffffffffffffffffffffffffffffffffff1673ffffffffffffffffffffffffffffffffffffffff16636c12b868876040518263ffffffff1660e01b81526004016106089190613384565b602060405180830381865afa158015610625573d6000803e3d6000fd5b505050506040513d601f19601f8201168201806040525081019061064991906134f8565b905060008290505b81811161078f576000610103600061066761213a565b73ffffffffffffffffffffffffffffffffffffffff1673ffffffffffffffffffffffffffffffffffffffff1681526020019081526020016000206000898152602001908152602001600020600088815260200190815260200160002060008381526020019081526020016000206000015411156106eb57836106e890613554565b93505b600061010360006106fa61213a565b73ffffffffffffffffffffffffffffffffffffffff1673ffffffffffffffffffffffffffffffffffffffff16815260200190815260200160002060008981526020019081526020016000206000888152602001908152602001600020600083815260200190815260200160002060010154111561077e578361077b90613554565b93505b8061078890613554565b9050610651565b5060008367ffffffffffffffff8111156107ac576107ab61359c565b5b6040519080825280602002602001820160405280156107da5781602001602082028036833780820191505090505b5090506000808490505b8381116108e357600061010360006107fa61213a565b73ffffffffffffffffffffffffffffffffffffffff1673ffffffffffffffffffffffffffffffffffffffff16815260200190815260200160002060008b815260200190815260200160002060008a815260200190815260200160002060008381526020019081526020016000209050600081600001541115610897578184848151811061088a576108896135cb565b5b6020026020010181815250505b6000816001015411156108c557818484815181106108b8576108b76135cb565b5b6020026020010181815250505b826108cf90613554565b9250816108db90613554565b9150506107e4565b50819550505050505092915050565b60006108fc612142565b60fd54881015610938576040517f99f7c06c00000000000000000000000000000000000000000000000000000000815260040160405180910390fd5b60007f000000000000000000000000000000000000000000000000000000000000000073ffffffffffffffffffffffffffffffffffffffff16636e02007d6040518163ffffffff1660e01b8152600401602060405180830381865afa1580156109a5573d6000803e3d6000fd5b505050506040513d601f19601f820116820180604052508101906109c991906134f8565b905060007f000000000000000000000000000000000000000000000000000000000000000073ffffffffffffffffffffffffffffffffffffffff1663e1b874cb838c85610a1691906135fa565b6040518363ffffffff1660e01b8152600401610a3392919061362e565b6040805180830381865afa158015610a4f573d6000803e3d6000fd5b505050506040513d601f19601f82011682018060405250810190610a739190613657565b915050807f000000000000000000000000000000000000000000000000000000000000000073ffffffffffffffffffffffffffffffffffffffff166370a08231610abb61213a565b6040518263ffffffff1660e01b8152600401610ad791906136a6565b602060405180830381865afa158015610af4573d6000803e3d6000fd5b505050506040513d601f19601f82011682018060405250810190610b1891906134f8565b1015610b50576040517f497379ff00000000000000000000000000000000000000000000000000000000815260040160405180910390fd5b6000600160ff60009054906101000a900473ffffffffffffffffffffffffffffffffffffffff1673ffffffffffffffffffffffffffffffffffffffff16636c12b8688c6040518263ffffffff1660e01b8152600401610baf9190613384565b602060405180830381865afa158015610bcc573d6000803e3d6000fd5b505050506040513d601f19601f82011682018060405250810190610bf091906134f8565b610bfa91906135fa565b90508a6101036000610c0a61213a565b73ffffffffffffffffffffffffffffffffffffffff1673ffffffffffffffffffffffffffffffffffffffff16815260200190815260200160002060008c815260200190815260200160002060008b815260200190815260200160002060008381526020019081526020016000206000016000828254610c8991906135fa565b925050819055508a60fe6000828254610ca291906135fa565b9250508190555060006101016000610cb861213a565b73ffffffffffffffffffffffffffffffffffffffff1673ffffffffffffffffffffffffffffffffffffffff16815260200190815260200160002060008c815260200190815260200160002060008b815260200190815260200160002090508060000160009054906101000a900460ff16610d535781816001018190555060018160000160006101000a81548160ff0219169083151502179055505b8b816002016000828254610d6791906135fa565b925050819055508b6101006000610d7c61213a565b73ffffffffffffffffffffffffffffffffffffffff1673ffffffffffffffffffffffffffffffffffffffff1681526020019081526020016000206000828254610dc591906135fa565b9250508190555060ff60009054906101000a900473ffffffffffffffffffffffffffffffffffffffff1673ffffffffffffffffffffffffffffffffffffffff16636ad08f058c8c866040518463ffffffff1660e01b8152600401610e2b939291906136c1565b6020604051808303816000875af1158015610e4a573d6000803e3d6000fd5b505050506040513d601f19601f82011682018060405250810190610e6e9190613724565b50610ecb610e7a61213a565b30858c8c8c8c7f000000000000000000000000000000000000000000000000000000000000000073ffffffffffffffffffffffffffffffffffffffff1661219190979695949392919063ffffffff16565b610f3f610ed661213a565b7f0000000000000000000000000000000000000000000000000000000000000000857f000000000000000000000000000000000000000000000000000000000000000073ffffffffffffffffffffffffffffffffffffffff1661235e909392919063ffffffff16565b60007f000000000000000000000000000000000000000000000000000000000000000073ffffffffffffffffffffffffffffffffffffffff1663520c4948610f8561213a565b8f6040518363ffffffff1660e01b8152600401610fa3929190613751565b6020604051808303816000875af1158015610fc2573d6000803e3d6000fd5b505050506040513d601f19601f82011682018060405250810190610fe69190613724565b90508061101f576040517fd0c2265200000000000000000000000000000000000000000000000000000000815260040160405180910390fd5b8c61102861213a565b73ffffffffffffffffffffffffffffffffffffffff167f06d6b248b43d55689e1ab7d12ab71be86aa0a049203122896fbe644e28e608e58e8e60405161106f92919061362e565b60405180910390a36001955050505050506110886123e7565b979650505050505050565b600061010160008573ffffffffffffffffffffffffffffffffffffffff1673ffffffffffffffffffffffffffffffffffffffff168152602001908152602001600020600084815260200190815260200160002060008381526020019081526020016000206002015490509392505050565b600060976000838152602001908152602001600020600101549050919050565b61112d82611104565b611136816123f1565b6111408383612405565b505050565b61114d61213a565b73ffffffffffffffffffffffffffffffffffffffff168173ffffffffffffffffffffffffffffffffffffffff16146111ba576040517f08c379a00000000000000000000000000000000000000000000000000000000081526004016111b1906137fd565b60405180910390fd5b6111c482826124e6565b5050565b600061010260006111d761213a565b73ffffffffffffffffffffffffffffffffffffffff1673ffffffffffffffffffffffffffffffffffffffff1681526020019081526020016000206000848152602001908152602001600020600083815260200190815260200160002060000160009054906101000a900460ff1615806112bb575083610102600061125961213a565b73ffffffffffffffffffffffffffffffffffffffff1673ffffffffffffffffffffffffffffffffffffffff1681526020019081526020016000206000858152602001908152602001600020600084815260200190815260200160002060010154105b1561137357600061010260006112cf61213a565b73ffffffffffffffffffffffffffffffffffffffff1673ffffffffffffffffffffffffffffffffffffffff16815260200190815260200160002060008581526020019081526020016000206000848152602001908152602001600020905060018160000160006101000a81548160ff0219169083151502179055508481600101819055504260fc5461136191906135fa565b81600201819055506001915050611378565b600090505b9392505050565b611387611d3d565b6113c6576040517f08c379a00000000000000000000000000000000000000000000000000000000081526004016113bd9061388f565b60405180910390fd5b6113ce6125c8565b565b60006113da612142565b600060ff60009054906101000a900473ffffffffffffffffffffffffffffffffffffffff1673ffffffffffffffffffffffffffffffffffffffff1663cf3f0fc089896040518363ffffffff1660e01b815260040161143992919061362e565b602060405180830381865afa158015611456573d6000803e3d6000fd5b505050506040513d601f19601f8201168201806040525081019061147a91906134f8565b90506000610102600061148b61213a565b73ffffffffffffffffffffffffffffffffffffffff1673ffffffffffffffffffffffffffffffffffffffff16815260200190815260200160002060008a815260200190815260200160002060008981526020019081526020016000209050898210806114fa5750806002015442105b80611508575080600101548a115b1561153f576040517fd0c2265200000000000000000000000000000000000000000000000000000000815260040160405180910390fd5b6000600160ff60009054906101000a900473ffffffffffffffffffffffffffffffffffffffff1673ffffffffffffffffffffffffffffffffffffffff16636c12b8688c6040518263ffffffff1660e01b815260040161159e9190613384565b602060405180830381865afa1580156115bb573d6000803e3d6000fd5b505050506040513d601f19601f820116820180604052508101906115df91906134f8565b6115e991906135fa565b90508a61010360006115f961213a565b73ffffffffffffffffffffffffffffffffffffffff1673ffffffffffffffffffffffffffffffffffffffff16815260200190815260200160002060008c815260200190815260200160002060008b81526020019081526020016000206000838152602001908152602001600020600101600082825461167891906135fa565b925050819055508a82600101600082825461169391906138af565b925050819055508a8260010154036116c35760008260000160006101000a81548160ff0219169083151502179055505b8a60fe60008282546116d591906138af565b925050819055508a61010060006116ea61213a565b73ffffffffffffffffffffffffffffffffffffffff1673ffffffffffffffffffffffffffffffffffffffff168152602001908152602001600020600082825461173391906138af565b925050819055508a610101600061174861213a565b73ffffffffffffffffffffffffffffffffffffffff1673ffffffffffffffffffffffffffffffffffffffff16815260200190815260200160002060008c815260200190815260200160002060008b815260200190815260200160002060020160008282546117b691906138af565b92505081905550600060ff60009054906101000a900473ffffffffffffffffffffffffffffffffffffffff1673ffffffffffffffffffffffffffffffffffffffff1663c296d8708b8c8f6040518463ffffffff1660e01b815260040161181e939291906136c1565b6020604051808303816000875af115801561183d573d6000803e3d6000fd5b505050506040513d601f19601f820116820180604052508101906118619190613724565b905060007f000000000000000000000000000000000000000000000000000000000000000073ffffffffffffffffffffffffffffffffffffffff1663b32063e26118a961213a565b8f8d8d8d8d6040518763ffffffff1660e01b81526004016118cf969594939291906138f2565b6020604051808303816000875af11580156118ee573d6000803e3d6000fd5b505050506040513d601f19601f820116820180604052508101906119129190613724565b905061197f7f00000000000000000000000000000000000000000000000000000000000000008e7f000000000000000000000000000000000000000000000000000000000000000073ffffffffffffffffffffffffffffffffffffffff1661262b9092919063ffffffff16565b81158061198a575080155b156119c1576040517fd0c2265200000000000000000000000000000000000000000000000000000000815260040160405180910390fd5b8c6119ca61213a565b73ffffffffffffffffffffffffffffffffffffffff167f58c96d63f4bd4de7383be398ebb4b20730b5c9726254c6dbaa648df77a17f0928d8e604051611a1192919061362e565b60405180910390a3600195505050505050611a2a6123e7565b979650505050505050565b6000603360009054906101000a900460ff16905090565b611a54611d3d565b611a93576040517f08c379a0000000000000000000000000000000000000000000000000000000008152600401611a8a9061388f565b60405180910390fd5b8060fd819055507f93ec053310e5d58493a42aa5264ef77562418e8c332f611ff9d9d5785a512b2760405160405180910390a150565b600060019054906101000a900460ff16611b18576040517f08c379a0000000000000000000000000000000000000000000000000000000008152600401611b0f906139c5565b60405180910390fd5b600073ffffffffffffffffffffffffffffffffffffffff168173ffffffffffffffffffffffffffffffffffffffff1603611b7e576040517f5415139400000000000000000000000000000000000000000000000000000000815260040160405180910390fd5b611b866126b1565b611b8e61270a565b611b9661275b565b611ba7611ba16127b4565b82612405565b611bb8611bb26127dc565b82612405565b611bd0611bc36127dc565b611bcb6127b4565b612804565b611be8611bdb6127b4565b611be36127b4565b612804565b50565b60006101036000611bfa61213a565b73ffffffffffffffffffffffffffffffffffffffff1673ffffffffffffffffffffffffffffffffffffffff1681526020019081526020016000206000858152602001908152602001600020600084815260200190815260200160002060008381526020019081526020016000206001015490509392505050565b611c7c611d3d565b611cbb576040517f08c379a0000000000000000000000000000000000000000000000000000000008152600401611cb29061388f565b60405180910390fd5b611cc3612860565b565b60006097600084815260200190815260200160002060000160008373ffffffffffffffffffffffffffffffffffffffff1673ffffffffffffffffffffffffffffffffffffffff16815260200190815260200160002060009054906101000a900460ff16905092915050565b6000801b81565b60fe5481565b6000611d57611d4a6127b4565b611d5261213a565b611cc5565b905090565b60008060019054906101000a900460ff16159050808015611d8d5750600160008054906101000a900460ff1660ff16105b80611dba5750611d9c306128c3565b158015611db95750600160008054906101000a900460ff1660ff16145b5b611df9576040517f08c379a0000000000000000000000000000000000000000000000000000000008152600401611df090613a57565b60405180910390fd5b60016000806101000a81548160ff021916908360ff1602179055508015611e36576001600060016101000a81548160ff0219169083151502179055505b8160ff60006101000a81548173ffffffffffffffffffffffffffffffffffffffff021916908373ffffffffffffffffffffffffffffffffffffffff160217905550601460fc81905550670de0b6b3a764000060fd81905550600060fe81905550611ea6611ea161213a565b611ac9565b8015611eff5760008060016101000a81548160ff0219169083151502179055507f7f26b83ff96e1f2b6a682f133852f6798a09c465da95921460cefb38474024986001604051611ef69190613abc565b60405180910390a15b5050565b611f0c82611104565b611f15816123f1565b611f1f83836124e6565b505050565b60006101036000611f3361213a565b73ffffffffffffffffffffffffffffffffffffffff1673ffffffffffffffffffffffffffffffffffffffff1681526020019081526020016000206000858152602001908152602001600020600084815260200190815260200160002060008381526020019081526020016000206000015490509392505050565b60008061010060008473ffffffffffffffffffffffffffffffffffffffff1673ffffffffffffffffffffffffffffffffffffffff1681526020019081526020016000205411611ffd57600061203f565b61010060008373ffffffffffffffffffffffffffffffffffffffff1673ffffffffffffffffffffffffffffffffffffffff168152602001908152602001600020545b9050919050565b61204e611d3d565b61208d576040517f08c379a00000000000000000000000000000000000000000000000000000000081526004016120849061388f565b60405180910390fd5b60018161209a9190613ad7565b60fc81905550807f986a24b02bc67bfd17286c1c227b470c377637db92c54663f4c1f079399030db60405160405180910390a250565b60007f01ffc9a7000000000000000000000000000000000000000000000000000000007bffffffffffffffffffffffffffffffffffffffffffffffffffffffff1916827bffffffffffffffffffffffffffffffffffffffffffffffffffffffff1916149050919050565b600033905090565b600260c95403612187576040517f08c379a000000000000000000000000000000000000000000000000000000000815260040161217e90613b7d565b60405180910390fd5b600260c981905550565b60008873ffffffffffffffffffffffffffffffffffffffff16637ecebe00896040518263ffffffff1660e01b81526004016121cc91906136a6565b602060405180830381865afa1580156121e9573d6000803e3d6000fd5b505050506040513d601f19601f8201168201806040525081019061220d91906134f8565b90508873ffffffffffffffffffffffffffffffffffffffff1663d505accf898989898989896040518863ffffffff1660e01b81526004016122549796959493929190613b9d565b600060405180830381600087803b15801561226e57600080fd5b505af1158015612282573d6000803e3d6000fd5b5050505060008973ffffffffffffffffffffffffffffffffffffffff16637ecebe008a6040518263ffffffff1660e01b81526004016122c191906136a6565b602060405180830381865afa1580156122de573d6000803e3d6000fd5b505050506040513d601f19601f8201168201806040525081019061230291906134f8565b905060018261231191906135fa565b8114612352576040517f08c379a000000000000000000000000000000000000000000000000000000000815260040161234990613c7e565b60405180910390fd5b50505050505050505050565b6123e1846323b872dd60e01b85858560405160240161237f93929190613c9e565b604051602081830303815290604052907bffffffffffffffffffffffffffffffffffffffffffffffffffffffff19166020820180517bffffffffffffffffffffffffffffffffffffffffffffffffffffffff83818316178352505050506128e6565b50505050565b600160c981905550565b612402816123fd61213a565b6129ad565b50565b61240f8282611cc5565b6124e25760016097600084815260200190815260200160002060000160008373ffffffffffffffffffffffffffffffffffffffff1673ffffffffffffffffffffffffffffffffffffffff16815260200190815260200160002060006101000a81548160ff02191690831515021790555061248761213a565b73ffffffffffffffffffffffffffffffffffffffff168173ffffffffffffffffffffffffffffffffffffffff16837f2f8788117e7eff1d82e926ec794901d17c78024a50270940304540a733656f0d60405160405180910390a45b5050565b6124f08282611cc5565b156125c45760006097600084815260200190815260200160002060000160008373ffffffffffffffffffffffffffffffffffffffff1673ffffffffffffffffffffffffffffffffffffffff16815260200190815260200160002060006101000a81548160ff02191690831515021790555061256961213a565b73ffffffffffffffffffffffffffffffffffffffff168173ffffffffffffffffffffffffffffffffffffffff16837ff6391f5c32d9c69d2a47ea670b442974b53935d1edc7fd64eb21e047a839171b60405160405180910390a45b5050565b6125d0612a32565b6000603360006101000a81548160ff0219169083151502179055507f5db9ee0a495bf2e6ff9c91a7834c1ba4fdd244a5e8aa4e537bd38aeae4b073aa61261461213a565b60405161262191906136a6565b60405180910390a1565b6126ac8363a9059cbb60e01b848460405160240161264a929190613751565b604051602081830303815290604052907bffffffffffffffffffffffffffffffffffffffffffffffffffffffff19166020820180517bffffffffffffffffffffffffffffffffffffffffffffffffffffffff83818316178352505050506128e6565b505050565b600060019054906101000a900460ff16612700576040517f08c379a00000000000000000000000000000000000000000000000000000000081526004016126f7906139c5565b60405180910390fd5b612708612a7b565b565b600060019054906101000a900460ff16612759576040517f08c379a0000000000000000000000000000000000000000000000000000000008152600401612750906139c5565b60405180910390fd5b565b600060019054906101000a900460ff166127aa576040517f08c379a00000000000000000000000000000000000000000000000000000000081526004016127a1906139c5565b60405180910390fd5b6127b2612ae7565b565b60007fa49807205ce4d355092ef5a8a18f56e8913cf4a201fbe287825b095693c21775905090565b60007f65d7a28e3265b37a6474929f336521b332c1681b933f6cb9f3376673440d862a905090565b600061280f83611104565b90508160976000858152602001908152602001600020600101819055508181847fbd79b86ffe0ab8e8776151514217cd7cacd52c909f66475c3af44e129f0b00ff60405160405180910390a4505050565b612868612b40565b6001603360006101000a81548160ff0219169083151502179055507f62e78cea01bee320cd4e420270b5ea74000d11b0c9f74754ebdbfc544b05a2586128ac61213a565b6040516128b991906136a6565b60405180910390a1565b6000808273ffffffffffffffffffffffffffffffffffffffff163b119050919050565b6000612948826040518060400160405280602081526020017f5361666545524332303a206c6f772d6c6576656c2063616c6c206661696c65648152508573ffffffffffffffffffffffffffffffffffffffff16612b8a9092919063ffffffff16565b90506000815111156129a857808060200190518101906129689190613724565b6129a7576040517f08c379a000000000000000000000000000000000000000000000000000000000815260040161299e90613d47565b60405180910390fd5b5b505050565b6129b78282611cc5565b612a2e576129c481612ba2565b6129d28360001c6020612bcf565b6040516020016129e3929190613e70565b6040516020818303038152906040526040517f08c379a0000000000000000000000000000000000000000000000000000000008152600401612a259190613ef4565b60405180910390fd5b5050565b612a3a611a35565b612a79576040517f08c379a0000000000000000000000000000000000000000000000000000000008152600401612a7090613f62565b60405180910390fd5b565b600060019054906101000a900460ff16612aca576040517f08c379a0000000000000000000000000000000000000000000000000000000008152600401612ac1906139c5565b60405180910390fd5b6000603360006101000a81548160ff021916908315150217905550565b600060019054906101000a900460ff16612b36576040517f08c379a0000000000000000000000000000000000000000000000000000000008152600401612b2d906139c5565b60405180910390fd5b600160c981905550565b612b48611a35565b15612b88576040517f08c379a0000000000000000000000000000000000000000000000000000000008152600401612b7f90613fce565b60405180910390fd5b565b6060612b998484600085612e0b565b90509392505050565b6060612bc88273ffffffffffffffffffffffffffffffffffffffff16601460ff16612bcf565b9050919050565b606060006002836002612be29190613ad7565b612bec91906135fa565b67ffffffffffffffff811115612c0557612c0461359c565b5b6040519080825280601f01601f191660200182016040528015612c375781602001600182028036833780820191505090505b5090507f300000000000000000000000000000000000000000000000000000000000000081600081518110612c6f57612c6e6135cb565b5b60200101907effffffffffffffffffffffffffffffffffffffffffffffffffffffffffffff1916908160001a9053507f780000000000000000000000000000000000000000000000000000000000000081600181518110612cd357612cd26135cb565b5b60200101907effffffffffffffffffffffffffffffffffffffffffffffffffffffffffffff1916908160001a90535060006001846002612d139190613ad7565b612d1d91906135fa565b90505b6001811115612dbd577f3031323334353637383961626364656600000000000000000000000000000000600f861660108110612d5f57612d5e6135cb565b5b1a60f81b828281518110612d7657612d756135cb565b5b60200101907effffffffffffffffffffffffffffffffffffffffffffffffffffffffffffff1916908160001a905350600485901c945080612db690613fee565b9050612d20565b5060008414612e01576040517f08c379a0000000000000000000000000000000000000000000000000000000008152600401612df890614063565b60405180910390fd5b8091505092915050565b606082471015612e50576040517f08c379a0000000000000000000000000000000000000000000000000000000008152600401612e47906140f5565b60405180910390fd5b6000808673ffffffffffffffffffffffffffffffffffffffff168587604051612e79919061415c565b60006040518083038185875af1925050503d8060008114612eb6576040519150601f19603f3d011682016040523d82523d6000602084013e612ebb565b606091505b5091509150612ecc87838387612ed8565b92505050949350505050565b60608315612f3a576000835103612f3257612ef2856128c3565b612f31576040517f08c379a0000000000000000000000000000000000000000000000000000000008152600401612f28906141bf565b60405180910390fd5b5b829050612f45565b612f448383612f4d565b5b949350505050565b600082511115612f605781518083602001fd5b806040517f08c379a0000000000000000000000000000000000000000000000000000000008152600401612f949190613ef4565b60405180910390fd5b600080fd5b60007fffffffff0000000000000000000000000000000000000000000000000000000082169050919050565b612fd781612fa2565b8114612fe257600080fd5b50565b600081359050612ff481612fce565b92915050565b6000602082840312156130105761300f612f9d565b5b600061301e84828501612fe5565b91505092915050565b60008115159050919050565b61303c81613027565b82525050565b60006020820190506130576000830184613033565b92915050565b6000819050919050565b6130708161305d565b811461307b57600080fd5b50565b60008135905061308d81613067565b92915050565b600080604083850312156130aa576130a9612f9d565b5b60006130b88582860161307e565b92505060206130c98582860161307e565b9150509250929050565b600081519050919050565b600082825260208201905092915050565b6000819050602082019050919050565b6131088161305d565b82525050565b600061311a83836130ff565b60208301905092915050565b6000602082019050919050565b600061313e826130d3565b61314881856130de565b9350613153836130ef565b8060005b8381101561318457815161316b888261310e565b975061317683613126565b925050600181019050613157565b5085935050505092915050565b600060208201905081810360008301526131ab8184613133565b905092915050565b600060ff82169050919050565b6131c9816131b3565b81146131d457600080fd5b50565b6000813590506131e6816131c0565b92915050565b6000819050919050565b6131ff816131ec565b811461320a57600080fd5b50565b60008135905061321c816131f6565b92915050565b600080600080600080600060e0888a03121561324157613240612f9d565b5b600061324f8a828b0161307e565b97505060206132608a828b0161307e565b96505060406132718a828b0161307e565b95505060606132828a828b0161307e565b94505060806132938a828b016131d7565b93505060a06132a48a828b0161320d565b92505060c06132b58a828b0161320d565b91505092959891949750929550565b600073ffffffffffffffffffffffffffffffffffffffff82169050919050565b60006132ef826132c4565b9050919050565b6132ff816132e4565b811461330a57600080fd5b50565b60008135905061331c816132f6565b92915050565b60008060006060848603121561333b5761333a612f9d565b5b60006133498682870161330d565b935050602061335a8682870161307e565b925050604061336b8682870161307e565b9150509250925092565b61337e8161305d565b82525050565b60006020820190506133996000830184613375565b92915050565b6000602082840312156133b5576133b4612f9d565b5b60006133c38482850161320d565b91505092915050565b6133d5816131ec565b82525050565b60006020820190506133f060008301846133cc565b92915050565b6000806040838503121561340d5761340c612f9d565b5b600061341b8582860161320d565b925050602061342c8582860161330d565b9150509250929050565b60008060006060848603121561344f5761344e612f9d565b5b600061345d8682870161307e565b935050602061346e8682870161307e565b925050604061347f8682870161307e565b9150509250925092565b60006020828403121561349f5761349e612f9d565b5b60006134ad8482850161307e565b91505092915050565b6000602082840312156134cc576134cb612f9d565b5b60006134da8482850161330d565b91505092915050565b6000815190506134f281613067565b92915050565b60006020828403121561350e5761350d612f9d565b5b600061351c848285016134e3565b91505092915050565b7f4e487b7100000000000000000000000000000000000000000000000000000000600052601160045260246000fd5b600061355f8261305d565b91507fffffffffffffffffffffffffffffffffffffffffffffffffffffffffffffffff820361359157613590613525565b5b600182019050919050565b7f4e487b7100000000000000000000000000000000000000000000000000000000600052604160045260246000fd5b7f4e487b7100000000000000000000000000000000000000000000000000000000600052603260045260246000fd5b60006136058261305d565b91506136108361305d565b925082820190508082111561362857613627613525565b5b92915050565b60006040820190506136436000830185613375565b6136506020830184613375565b9392505050565b6000806040838503121561366e5761366d612f9d565b5b600061367c858286016134e3565b925050602061368d858286016134e3565b9150509250929050565b6136a0816132e4565b82525050565b60006020820190506136bb6000830184613697565b92915050565b60006060820190506136d66000830186613375565b6136e36020830185613375565b6136f06040830184613375565b949350505050565b61370181613027565b811461370c57600080fd5b50565b60008151905061371e816136f8565b92915050565b60006020828403121561373a57613739612f9d565b5b60006137488482850161370f565b91505092915050565b60006040820190506137666000830185613697565b6137736020830184613375565b9392505050565b600082825260208201905092915050565b7f416363657373436f6e74726f6c3a2063616e206f6e6c792072656e6f756e636560008201527f20726f6c657320666f722073656c660000000000000000000000000000000000602082015250565b60006137e7602f8361377a565b91506137f28261378b565b604082019050919050565b60006020820190508181036000830152613816816137da565b9050919050565b7f4d75737420686176652061646d696e20726f6c6520746f20706572666f726d2060008201527f7468697320616374696f6e2e0000000000000000000000000000000000000000602082015250565b6000613879602c8361377a565b91506138848261381d565b604082019050919050565b600060208201905081810360008301526138a88161386c565b9050919050565b60006138ba8261305d565b91506138c58361305d565b92508282039050818111156138dd576138dc613525565b5b92915050565b6138ec816131b3565b82525050565b600060c0820190506139076000830189613697565b6139146020830188613375565b6139216040830187613375565b61392e60608301866138e3565b61393b60808301856133cc565b61394860a08301846133cc565b979650505050505050565b7f496e697469616c697a61626c653a20636f6e7472616374206973206e6f74206960008201527f6e697469616c697a696e67000000000000000000000000000000000000000000602082015250565b60006139af602b8361377a565b91506139ba82613953565b604082019050919050565b600060208201905081810360008301526139de816139a2565b9050919050565b7f496e697469616c697a61626c653a20636f6e747261637420697320616c72656160008201527f647920696e697469616c697a6564000000000000000000000000000000000000602082015250565b6000613a41602e8361377a565b9150613a4c826139e5565b604082019050919050565b60006020820190508181036000830152613a7081613a34565b9050919050565b6000819050919050565b6000819050919050565b6000613aa6613aa1613a9c84613a77565b613a81565b6131b3565b9050919050565b613ab681613a8b565b82525050565b6000602082019050613ad16000830184613aad565b92915050565b6000613ae28261305d565b9150613aed8361305d565b9250817fffffffffffffffffffffffffffffffffffffffffffffffffffffffffffffffff0483118215151615613b2657613b25613525565b5b828202905092915050565b7f5265656e7472616e637947756172643a207265656e7472616e742063616c6c00600082015250565b6000613b67601f8361377a565b9150613b7282613b31565b602082019050919050565b60006020820190508181036000830152613b9681613b5a565b9050919050565b600060e082019050613bb2600083018a613697565b613bbf6020830189613697565b613bcc6040830188613375565b613bd96060830187613375565b613be660808301866138e3565b613bf360a08301856133cc565b613c0060c08301846133cc565b98975050505050505050565b7f5361666545524332303a207065726d697420646964206e6f742073756363656560008201527f6400000000000000000000000000000000000000000000000000000000000000602082015250565b6000613c6860218361377a565b9150613c7382613c0c565b604082019050919050565b60006020820190508181036000830152613c9781613c5b565b9050919050565b6000606082019050613cb36000830186613697565b613cc06020830185613697565b613ccd6040830184613375565b949350505050565b7f5361666545524332303a204552433230206f7065726174696f6e20646964206e60008201527f6f74207375636365656400000000000000000000000000000000000000000000602082015250565b6000613d31602a8361377a565b9150613d3c82613cd5565b604082019050919050565b60006020820190508181036000830152613d6081613d24565b9050919050565b600081905092915050565b7f416363657373436f6e74726f6c3a206163636f756e7420000000000000000000600082015250565b6000613da8601783613d67565b9150613db382613d72565b601782019050919050565b600081519050919050565b60005b83811015613de7578082015181840152602081019050613dcc565b60008484015250505050565b6000613dfe82613dbe565b613e088185613d67565b9350613e18818560208601613dc9565b80840191505092915050565b7f206973206d697373696e6720726f6c6520000000000000000000000000000000600082015250565b6000613e5a601183613d67565b9150613e6582613e24565b601182019050919050565b6000613e7b82613d9b565b9150613e878285613df3565b9150613e9282613e4d565b9150613e9e8284613df3565b91508190509392505050565b6000601f19601f8301169050919050565b6000613ec682613dbe565b613ed0818561377a565b9350613ee0818560208601613dc9565b613ee981613eaa565b840191505092915050565b60006020820190508181036000830152613f0e8184613ebb565b905092915050565b7f5061757361626c653a206e6f7420706175736564000000000000000000000000600082015250565b6000613f4c60148361377a565b9150613f5782613f16565b602082019050919050565b60006020820190508181036000830152613f7b81613f3f565b9050919050565b7f5061757361626c653a2070617573656400000000000000000000000000000000600082015250565b6000613fb860108361377a565b9150613fc382613f82565b602082019050919050565b60006020820190508181036000830152613fe781613fab565b9050919050565b6000613ff98261305d565b91506000820361400c5761400b613525565b5b600182039050919050565b7f537472696e67733a20686578206c656e67746820696e73756666696369656e74600082015250565b600061404d60208361377a565b915061405882614017565b602082019050919050565b6000602082019050818103600083015261407c81614040565b9050919050565b7f416464726573733a20696e73756666696369656e742062616c616e636520666f60008201527f722063616c6c0000000000000000000000000000000000000000000000000000602082015250565b60006140df60268361377a565b91506140ea82614083565b604082019050919050565b6000602082019050818103600083015261410e816140d2565b9050919050565b600081519050919050565b600081905092915050565b600061413682614115565b6141408185614120565b9350614150818560208601613dc9565b80840191505092915050565b6000614168828461412b565b915081905092915050565b7f416464726573733a2063616c6c20746f206e6f6e2d636f6e7472616374000000600082015250565b60006141a9601d8361377a565b91506141b482614173565b602082019050919050565b600060208201905081810360008301526141d88161419c565b905091905056fea2646970667358221220d1e17454ca7a2ff329c7c9d6d287f01a4c2a9faca56aaeb477939eedbd9f7fa164736f6c63430008100033",
  "linkReferences": {},
  "deployedLinkReferences": {}
}