{
  "_format": "hh-sol-artifact-1",
  "contractName": "CoveragePool",
  "sourceName": "contracts/core/payAsYouGo/CoveragePool.sol",
  "abi": [
    {
      "inputs": [
        {
          "internalType": "address",
          "name": "addressSZT",
          "type": "address"
        },
        {
          "internalType": "address",
          "name": "addressBuySellSZT",
          "type": "address"
        },
        {
          "internalType": "address",
          "name": "insuranceRegAddress",
          "type": "address"
        }
      ],
      "stateMutability": "nonpayable",
      "type": "constructor"
    },
    {
      "inputs": [],
      "name": "BaseUpgradeablePausable__ZeroAddressError",
      "type": "error"
    },
    {
      "inputs": [],
      "name": "CoveragePool_AddInsuranceLiquidityOperationFailed",
      "type": "error"
    },
    {
      "inputs": [],
      "name": "CoveragePool_RemoveInsuranceLiquidityOperationFailed",
      "type": "error"
    },
    {
      "inputs": [],
      "name": "CoveragePool__InsufficientBalanceError",
      "type": "error"
    },
    {
      "inputs": [],
      "name": "CoveragePool__InternalUnderwriteOperationFailed",
      "type": "error"
    },
    {
      "inputs": [],
      "name": "CoveragePool__InternalWithdrawOperationFailed",
      "type": "error"
    },
    {
      "inputs": [],
      "name": "CoveragePool__LessThanMinimumAmountError",
      "type": "error"
    },
    {
      "inputs": [],
      "name": "CoveragePool__SZT_BuyOperationFailed",
      "type": "error"
    },
    {
      "inputs": [],
      "name": "CoveragePool__SZT_SellOperationFailed",
      "type": "error"
    },
    {
      "inputs": [],
      "name": "CoveragePool__WithdrawalRestrictedError",
      "type": "error"
    },
    {
      "inputs": [],
      "name": "CoveragePool__ZeroAddressInputError",
      "type": "error"
    },
    {
      "anonymous": false,
      "inputs": [
        {
          "indexed": false,
          "internalType": "uint8",
          "name": "version",
          "type": "uint8"
        }
      ],
      "name": "Initialized",
      "type": "event"
    },
    {
      "anonymous": false,
      "inputs": [
        {
          "indexed": false,
          "internalType": "address",
          "name": "account",
          "type": "address"
        }
      ],
      "name": "Paused",
      "type": "event"
    },
    {
      "anonymous": false,
      "inputs": [
        {
          "indexed": true,
          "internalType": "address",
          "name": "userAddress",
          "type": "address"
        },
        {
          "indexed": false,
          "internalType": "uint256",
          "name": "categoryID",
          "type": "uint256"
        },
        {
          "indexed": false,
          "internalType": "uint256",
          "name": "subCategoryID",
          "type": "uint256"
        },
        {
          "indexed": true,
          "internalType": "uint256",
          "name": "value",
          "type": "uint256"
        }
      ],
      "name": "PoolWithdrawn",
      "type": "event"
    },
    {
      "anonymous": false,
      "inputs": [
        {
          "indexed": true,
          "internalType": "bytes32",
          "name": "role",
          "type": "bytes32"
        },
        {
          "indexed": true,
          "internalType": "bytes32",
          "name": "previousAdminRole",
          "type": "bytes32"
        },
        {
          "indexed": true,
          "internalType": "bytes32",
          "name": "newAdminRole",
          "type": "bytes32"
        }
      ],
      "name": "RoleAdminChanged",
      "type": "event"
    },
    {
      "anonymous": false,
      "inputs": [
        {
          "indexed": true,
          "internalType": "bytes32",
          "name": "role",
          "type": "bytes32"
        },
        {
          "indexed": true,
          "internalType": "address",
          "name": "account",
          "type": "address"
        },
        {
          "indexed": true,
          "internalType": "address",
          "name": "sender",
          "type": "address"
        }
      ],
      "name": "RoleGranted",
      "type": "event"
    },
    {
      "anonymous": false,
      "inputs": [
        {
          "indexed": true,
          "internalType": "bytes32",
          "name": "role",
          "type": "bytes32"
        },
        {
          "indexed": true,
          "internalType": "address",
          "name": "account",
          "type": "address"
        },
        {
          "indexed": true,
          "internalType": "address",
          "name": "sender",
          "type": "address"
        }
      ],
      "name": "RoleRevoked",
      "type": "event"
    },
    {
      "anonymous": false,
      "inputs": [
        {
          "indexed": true,
          "internalType": "address",
          "name": "userAddress",
          "type": "address"
        },
        {
          "indexed": false,
          "internalType": "uint256",
          "name": "categoryID",
          "type": "uint256"
        },
        {
          "indexed": false,
          "internalType": "uint256",
          "name": "subCategoryID",
          "type": "uint256"
        },
        {
          "indexed": true,
          "internalType": "uint256",
          "name": "value",
          "type": "uint256"
        }
      ],
      "name": "UnderwritePool",
      "type": "event"
    },
    {
      "anonymous": false,
      "inputs": [
        {
          "indexed": false,
          "internalType": "address",
          "name": "account",
          "type": "address"
        }
      ],
      "name": "Unpaused",
      "type": "event"
    },
    {
      "anonymous": false,
      "inputs": [
        {
          "indexed": true,
          "internalType": "uint256",
          "name": "valueInSZT",
          "type": "uint256"
        }
      ],
      "name": "UpdatedMinCoveragePoolAmount",
      "type": "event"
    },
    {
      "anonymous": false,
      "inputs": [
        {
          "indexed": true,
          "internalType": "uint256",
          "name": "timeInDays",
          "type": "uint256"
        }
      ],
      "name": "UpdatedWaitingPeriod",
      "type": "event"
    },
    {
      "inputs": [],
      "name": "DEFAULT_ADMIN_ROLE",
      "outputs": [
        {
          "internalType": "bytes32",
          "name": "",
          "type": "bytes32"
        }
      ],
      "stateMutability": "view",
      "type": "function"
    },
    {
      "inputs": [],
      "name": "PLATFORM_COST",
      "outputs": [
        {
          "internalType": "uint256",
          "name": "",
          "type": "uint256"
        }
      ],
      "stateMutability": "view",
      "type": "function"
    },
    {
      "inputs": [
        {
          "internalType": "address",
          "name": "owner",
          "type": "address"
        }
      ],
      "name": "__BaseUpgradeablePausable_init",
      "outputs": [],
      "stateMutability": "nonpayable",
      "type": "function"
    },
    {
      "inputs": [
        {
          "internalType": "uint256",
          "name": "value",
          "type": "uint256"
        },
        {
          "internalType": "uint256",
          "name": "categoryID",
          "type": "uint256"
        },
        {
          "internalType": "uint256",
          "name": "subCategoryID",
          "type": "uint256"
        }
      ],
      "name": "activateWithdrawalTimer",
      "outputs": [
        {
          "internalType": "bool",
          "name": "",
          "type": "bool"
        }
      ],
      "stateMutability": "nonpayable",
      "type": "function"
    },
    {
      "inputs": [
        {
          "internalType": "address",
          "name": "addressToken",
          "type": "address"
        }
      ],
      "name": "addTokenAddress",
      "outputs": [],
      "stateMutability": "nonpayable",
      "type": "function"
    },
    {
      "inputs": [],
      "name": "buySellSZT",
      "outputs": [
        {
          "internalType": "contract IBuySellSZT",
          "name": "",
          "type": "address"
        }
      ],
      "stateMutability": "view",
      "type": "function"
    },
    {
      "inputs": [
        {
          "internalType": "address",
          "name": "",
          "type": "address"
        },
        {
          "internalType": "uint256",
          "name": "",
          "type": "uint256"
        },
        {
          "internalType": "uint256",
          "name": "",
          "type": "uint256"
        }
      ],
      "name": "checkWaitTime",
      "outputs": [
        {
          "internalType": "bool",
          "name": "ifTimerStarted",
          "type": "bool"
        },
        {
          "internalType": "uint256",
          "name": "tokenCountSZT",
          "type": "uint256"
        },
        {
          "internalType": "uint256",
          "name": "withdrawTime",
          "type": "uint256"
        }
      ],
      "stateMutability": "view",
      "type": "function"
    },
    {
      "inputs": [
        {
          "internalType": "bytes32",
          "name": "role",
          "type": "bytes32"
        }
      ],
      "name": "getRoleAdmin",
      "outputs": [
        {
          "internalType": "bytes32",
          "name": "",
          "type": "bytes32"
        }
      ],
      "stateMutability": "view",
      "type": "function"
    },
    {
      "inputs": [
        {
          "internalType": "address",
          "name": "addressUser",
          "type": "address"
        },
        {
          "internalType": "uint256",
          "name": "categoryID",
          "type": "uint256"
        },
        {
          "internalType": "uint256",
          "name": "subCategoryID",
          "type": "uint256"
        }
      ],
      "name": "getUserInfo",
      "outputs": [
        {
          "internalType": "bool",
          "name": "",
          "type": "bool"
        },
        {
          "internalType": "uint256",
          "name": "",
          "type": "uint256"
        },
        {
          "internalType": "uint256",
          "name": "",
          "type": "uint256"
        }
      ],
      "stateMutability": "view",
      "type": "function"
    },
    {
      "inputs": [
        {
          "internalType": "bytes32",
          "name": "role",
          "type": "bytes32"
        },
        {
          "internalType": "address",
          "name": "account",
          "type": "address"
        }
      ],
      "name": "grantRole",
      "outputs": [],
      "stateMutability": "nonpayable",
      "type": "function"
    },
    {
      "inputs": [
        {
          "internalType": "bytes32",
          "name": "role",
          "type": "bytes32"
        },
        {
          "internalType": "address",
          "name": "account",
          "type": "address"
        }
      ],
      "name": "hasRole",
      "outputs": [
        {
          "internalType": "bool",
          "name": "",
          "type": "bool"
        }
      ],
      "stateMutability": "view",
      "type": "function"
    },
    {
      "inputs": [
        {
          "internalType": "address",
          "name": "addressDAI",
          "type": "address"
        }
      ],
      "name": "initialize",
      "outputs": [],
      "stateMutability": "nonpayable",
      "type": "function"
    },
    {
      "inputs": [],
      "name": "insuranceRegistry",
      "outputs": [
        {
          "internalType": "contract IInsuranceRegistry",
          "name": "",
          "type": "address"
        }
      ],
      "stateMutability": "view",
      "type": "function"
    },
    {
      "inputs": [],
      "name": "isAdmin",
      "outputs": [
        {
          "internalType": "bool",
          "name": "",
          "type": "bool"
        }
      ],
      "stateMutability": "view",
      "type": "function"
    },
    {
      "inputs": [],
      "name": "isModerator",
      "outputs": [
        {
          "internalType": "bool",
          "name": "",
          "type": "bool"
        }
      ],
      "stateMutability": "view",
      "type": "function"
    },
    {
      "inputs": [],
      "name": "minPoolAmount",
      "outputs": [
        {
          "internalType": "uint256",
          "name": "",
          "type": "uint256"
        }
      ],
      "stateMutability": "view",
      "type": "function"
    },
    {
      "inputs": [],
      "name": "pause",
      "outputs": [],
      "stateMutability": "nonpayable",
      "type": "function"
    },
    {
      "inputs": [],
      "name": "paused",
      "outputs": [
        {
          "internalType": "bool",
          "name": "",
          "type": "bool"
        }
      ],
      "stateMutability": "view",
      "type": "function"
    },
    {
      "inputs": [
        {
          "internalType": "uint256",
          "name": "",
          "type": "uint256"
        }
      ],
      "name": "permissionedTokens",
      "outputs": [
        {
          "internalType": "address",
          "name": "",
          "type": "address"
        }
      ],
      "stateMutability": "view",
      "type": "function"
    },
    {
      "inputs": [
        {
          "internalType": "bytes32",
          "name": "role",
          "type": "bytes32"
        },
        {
          "internalType": "address",
          "name": "account",
          "type": "address"
        }
      ],
      "name": "renounceRole",
      "outputs": [],
      "stateMutability": "nonpayable",
      "type": "function"
    },
    {
      "inputs": [
        {
          "internalType": "bytes32",
          "name": "role",
          "type": "bytes32"
        },
        {
          "internalType": "address",
          "name": "account",
          "type": "address"
        }
      ],
      "name": "revokeRole",
      "outputs": [],
      "stateMutability": "nonpayable",
      "type": "function"
    },
    {
      "inputs": [
        {
          "internalType": "bytes4",
          "name": "interfaceId",
          "type": "bytes4"
        }
      ],
      "name": "supportsInterface",
      "outputs": [
        {
          "internalType": "bool",
          "name": "",
          "type": "bool"
        }
      ],
      "stateMutability": "view",
      "type": "function"
    },
    {
      "inputs": [],
      "name": "tokenID",
      "outputs": [
        {
          "internalType": "uint256",
          "name": "",
          "type": "uint256"
        }
      ],
      "stateMutability": "view",
      "type": "function"
    },
    {
      "inputs": [],
      "name": "tokenSZT",
      "outputs": [
        {
          "internalType": "contract IERC20Upgradeable",
          "name": "",
          "type": "address"
        }
      ],
      "stateMutability": "view",
      "type": "function"
    },
    {
      "inputs": [],
      "name": "totalTokensStaked",
      "outputs": [
        {
          "internalType": "uint256",
          "name": "",
          "type": "uint256"
        }
      ],
      "stateMutability": "view",
      "type": "function"
    },
    {
      "inputs": [
        {
          "internalType": "uint256",
          "name": "tokenID_",
          "type": "uint256"
        },
        {
          "internalType": "uint256",
          "name": "amountInSZT",
          "type": "uint256"
        },
        {
          "internalType": "uint256",
          "name": "categoryID",
          "type": "uint256"
        },
        {
          "internalType": "uint256",
          "name": "subCategoryID",
          "type": "uint256"
        },
        {
          "internalType": "uint256",
          "name": "deadline",
          "type": "uint256"
        },
        {
          "internalType": "uint8",
          "name": "permitV",
          "type": "uint8"
        },
        {
          "internalType": "bytes32",
          "name": "permitR",
          "type": "bytes32"
        },
        {
          "internalType": "bytes32",
          "name": "permitS",
          "type": "bytes32"
        }
      ],
      "name": "underwrite",
      "outputs": [
        {
          "internalType": "bool",
          "name": "",
          "type": "bool"
        }
      ],
      "stateMutability": "nonpayable",
      "type": "function"
    },
    {
      "inputs": [
        {
          "internalType": "address",
          "name": "",
          "type": "address"
        },
        {
          "internalType": "uint256",
          "name": "",
          "type": "uint256"
        },
        {
          "internalType": "uint256",
          "name": "",
          "type": "uint256"
        },
        {
          "internalType": "uint256",
          "name": "",
          "type": "uint256"
        }
      ],
      "name": "underwritersBalance",
      "outputs": [
        {
          "internalType": "uint256",
          "name": "",
          "type": "uint256"
        }
      ],
      "stateMutability": "view",
      "type": "function"
    },
    {
      "inputs": [],
      "name": "unpause",
      "outputs": [],
      "stateMutability": "nonpayable",
      "type": "function"
    },
    {
      "inputs": [
        {
          "internalType": "uint256",
          "name": "valueInSZT",
          "type": "uint256"
        }
      ],
      "name": "updateMinCoveragePoolAmount",
      "outputs": [],
      "stateMutability": "nonpayable",
      "type": "function"
    },
    {
      "inputs": [
        {
          "internalType": "uint256",
          "name": "timeInDays",
          "type": "uint256"
        }
      ],
      "name": "updateWaitingPeriodTime",
      "outputs": [],
      "stateMutability": "nonpayable",
      "type": "function"
    },
    {
      "inputs": [
        {
          "internalType": "address",
          "name": "",
          "type": "address"
        }
      ],
      "name": "userPoolBalanceSZT",
      "outputs": [
        {
          "internalType": "uint256",
          "name": "",
          "type": "uint256"
        }
      ],
      "stateMutability": "view",
      "type": "function"
    },
    {
      "inputs": [
        {
          "internalType": "address",
          "name": "",
          "type": "address"
        },
        {
          "internalType": "uint256",
          "name": "",
          "type": "uint256"
        },
        {
          "internalType": "uint256",
          "name": "",
          "type": "uint256"
        }
      ],
      "name": "usersInfo",
      "outputs": [
        {
          "internalType": "bool",
          "name": "isActiveInvested",
          "type": "bool"
        },
        {
          "internalType": "uint256",
          "name": "startVersionBlock",
          "type": "uint256"
        },
        {
          "internalType": "uint256",
          "name": "previousUserEpoch",
          "type": "uint256"
        }
      ],
      "stateMutability": "view",
      "type": "function"
    },
    {
      "inputs": [],
      "name": "waitingTime",
      "outputs": [
        {
          "internalType": "uint256",
          "name": "",
          "type": "uint256"
        }
      ],
      "stateMutability": "view",
      "type": "function"
    },
    {
      "inputs": [
        {
          "internalType": "uint256",
          "name": "tokenID_",
          "type": "uint256"
        },
        {
          "internalType": "uint256",
          "name": "value",
          "type": "uint256"
        },
        {
          "internalType": "uint256",
          "name": "categoryID",
          "type": "uint256"
        },
        {
          "internalType": "uint256",
          "name": "subCategoryID",
          "type": "uint256"
        },
        {
          "internalType": "uint256",
          "name": "deadline",
          "type": "uint256"
        },
        {
          "internalType": "uint8",
          "name": "permitV",
          "type": "uint8"
        },
        {
          "internalType": "bytes32",
          "name": "permitR",
          "type": "bytes32"
        },
        {
          "internalType": "bytes32",
          "name": "permitS",
          "type": "bytes32"
        }
      ],
      "name": "withdraw",
      "outputs": [
        {
          "internalType": "bool",
          "name": "",
          "type": "bool"
        }
      ],
      "stateMutability": "nonpayable",
      "type": "function"
    }
  ],
  "bytecode": "0x60e06040523480156200001157600080fd5b506040516200482c3803806200482c833981810160405281019062000037919062000146565b8273ffffffffffffffffffffffffffffffffffffffff1660a08173ffffffffffffffffffffffffffffffffffffffff16815250508173ffffffffffffffffffffffffffffffffffffffff1660808173ffffffffffffffffffffffffffffffffffffffff16815250508073ffffffffffffffffffffffffffffffffffffffff1660c08173ffffffffffffffffffffffffffffffffffffffff1681525050505050620001a2565b600080fd5b600073ffffffffffffffffffffffffffffffffffffffff82169050919050565b60006200010e82620000e1565b9050919050565b620001208162000101565b81146200012c57600080fd5b50565b600081519050620001408162000115565b92915050565b600080600060608486031215620001625762000161620000dc565b5b600062000172868287016200012f565b935050602062000185868287016200012f565b925050604062000198868287016200012f565b9150509250925092565b60805160a05160c0516146066200022660003960008181610e500152818161157801528181611db2015281816120b7015281816125420152612b3701526000818161104401526112f3015260008181610f3701528181611022015281816113da015281816114250152818161160f0152818161233f01526123d201526146066000f3fe608060405234801561001057600080fd5b50600436106102065760003560e01c8063a5c42ef11161011a578063d547741f116100ad578063de301c731161007c578063de301c73146105e1578063e0ab229a14610611578063f1403a011461062f578063f3ac88bf1461065f578063f4d508ec1461067b57610206565b8063d547741f14610547578063d72deddf14610563578063d996748514610593578063dc1ccde2146105b157610206565b8063b0e31b2d116100e9578063b0e31b2d146104d1578063b6db75a0146104ef578063c4d66de81461050d578063c61f2a751461052957610206565b8063a5c42ef114610447578063aa13e8c214610465578063ad5c9bca14610483578063aeabaff3146104b357610206565b80635c975abb1161019d57806375c879071161016c57806375c879071461039f57806380a8b622146103bd5780638456cb59146103ef57806391d14854146103f9578063a217fddf1461042957610206565b80635c975abb1461032b578063614c26bd14610349578063654ca265146103655780636e810b1a1461038357610206565b806336568abe116101d957806336568abe146102b95780633973a00a146102d55780633f4ba83a1461030557806351992fcb1461030f57610206565b806301ffc9a71461020b57806312f3548f1461023b578063248a9ca31461026d5780632f2ff15d1461029d575b600080fd5b61022560048036038101906102209190613363565b6106ad565b60405161023291906133ab565b60405180910390f35b6102556004803603810190610250919061345a565b610727565b604051610264939291906134bc565b60405180910390f35b61028760048036038101906102829190613529565b610779565b6040516102949190613565565b60405180910390f35b6102b760048036038101906102b29190613580565b610799565b005b6102d360048036038101906102ce9190613580565b6107ba565b005b6102ef60048036038101906102ea91906135c0565b61083d565b6040516102fc91906133ab565b60405180910390f35b61030d6109f4565b005b61032960048036038101906103249190613613565b610a45565b005b610333610b5f565b60405161034091906133ab565b60405180910390f35b610363600480360381019061035e9190613640565b610b76565b005b61036d610bf4565b60405161037a919061366d565b60405180910390f35b61039d60048036038101906103989190613613565b610bfa565b005b6103a7610d1c565b6040516103b4919061366d565b60405180910390f35b6103d760048036038101906103d2919061345a565b610d21565b6040516103e6939291906134bc565b60405180910390f35b6103f7610d73565b005b610413600480360381019061040e9190613580565b610dc4565b60405161042091906133ab565b60405180910390f35b610431610e2f565b60405161043e9190613565565b60405180910390f35b61044f610e36565b60405161045c919061366d565b60405180910390f35b61046d610e3c565b60405161047a919061366d565b60405180910390f35b61049d600480360381019061049891906136c1565b610e42565b6040516104aa91906133ab565b60405180910390f35b6104bb6110fb565b6040516104c891906133ab565b60405180910390f35b6104d961111a565b6040516104e6919061366d565b60405180910390f35b6104f7611120565b60405161050491906133ab565b60405180910390f35b61052760048036038101906105229190613613565b61113f565b005b6105316112f1565b60405161053e91906137d6565b60405180910390f35b610561600480360381019061055c9190613580565b611315565b005b61057d600480360381019061057891906136c1565b611336565b60405161058a91906133ab565b60405180910390f35b61059b611576565b6040516105a89190613812565b60405180910390f35b6105cb60048036038101906105c69190613640565b61159a565b6040516105d8919061383c565b60405180910390f35b6105fb60048036038101906105f69190613857565b6115cd565b604051610608919061366d565b60405180910390f35b61061961160d565b60405161062691906138df565b60405180910390f35b61064960048036038101906106449190613613565b611631565b604051610656919061366d565b60405180910390f35b61067960048036038101906106749190613640565b61164a565b005b6106956004803603810190610690919061345a565b6116d4565b6040516106a4939291906134bc565b60405180910390f35b60007f7965db0b000000000000000000000000000000000000000000000000000000007bffffffffffffffffffffffffffffffffffffffffffffffffffffffff1916827bffffffffffffffffffffffffffffffffffffffffffffffffffffffff19161480610720575061071f82611797565b5b9050919050565b61010260205282600052604060002060205281600052604060002060205280600052604060002060009250925050508060000160009054906101000a900460ff16908060010154908060020154905083565b600060976000838152602001908152602001600020600101549050919050565b6107a282610779565b6107ab81611801565b6107b58383611815565b505050565b6107c26118f6565b73ffffffffffffffffffffffffffffffffffffffff168173ffffffffffffffffffffffffffffffffffffffff161461082f576040517f08c379a00000000000000000000000000000000000000000000000000000000081526004016108269061397d565b60405180910390fd5b61083982826118fe565b5050565b6000610102600061084c6118f6565b73ffffffffffffffffffffffffffffffffffffffff1673ffffffffffffffffffffffffffffffffffffffff1681526020019081526020016000206000848152602001908152602001600020600083815260200190815260200160002060000160009054906101000a900460ff16158061093057508361010260006108ce6118f6565b73ffffffffffffffffffffffffffffffffffffffff1673ffffffffffffffffffffffffffffffffffffffff1681526020019081526020016000206000858152602001908152602001600020600084815260200190815260200160002060010154105b156109e857600061010260006109446118f6565b73ffffffffffffffffffffffffffffffffffffffff1673ffffffffffffffffffffffffffffffffffffffff16815260200190815260200160002060008581526020019081526020016000206000848152602001908152602001600020905060018160000160006101000a81548160ff0219169083151502179055508481600101819055504260fc546109d691906139cc565b816002018190555060019150506109ed565b600090505b9392505050565b6109fc611120565b610a3b576040517f08c379a0000000000000000000000000000000000000000000000000000000008152600401610a3290613a72565b60405180910390fd5b610a436119e0565b565b610a4d611120565b610a8c576040517f08c379a0000000000000000000000000000000000000000000000000000000008152600401610a8390613a72565b60405180910390fd5b600073ffffffffffffffffffffffffffffffffffffffff168173ffffffffffffffffffffffffffffffffffffffff1603610af2576040517fdec7623d00000000000000000000000000000000000000000000000000000000815260040160405180910390fd5b60fb60008154610b0190613a92565b919050819055508060ff600060fb54815260200190815260200160002060006101000a81548173ffffffffffffffffffffffffffffffffffffffff021916908373ffffffffffffffffffffffffffffffffffffffff16021790555050565b6000603360009054906101000a900460ff16905090565b610b7e611120565b610bbd576040517f08c379a0000000000000000000000000000000000000000000000000000000008152600401610bb490613a72565b60405180910390fd5b8060fd81905550807fd4a411d69d6078a209307847cf3ded5de2f542308c0fe6851081ea0a0f814e5660405160405180910390a250565b60fd5481565b600060019054906101000a900460ff16610c49576040517f08c379a0000000000000000000000000000000000000000000000000000000008152600401610c4090613b4c565b60405180910390fd5b600073ffffffffffffffffffffffffffffffffffffffff168173ffffffffffffffffffffffffffffffffffffffff1603610caf576040517f5415139400000000000000000000000000000000000000000000000000000000815260040160405180910390fd5b610cb7611a43565b610cbf611a9c565b610cc7611aed565b610cd8610cd2611b46565b82611815565b610ce9610ce3611b6e565b82611815565b610d01610cf4611b6e565b610cfc611b46565b611b96565b610d19610d0c611b46565b610d14611b46565b611b96565b50565b605a81565b61010160205282600052604060002060205281600052604060002060205280600052604060002060009250925050508060000160009054906101000a900460ff16908060010154908060020154905083565b610d7b611120565b610dba576040517f08c379a0000000000000000000000000000000000000000000000000000000008152600401610db190613a72565b60405180910390fd5b610dc2611bf2565b565b60006097600084815260200190815260200160002060000160008373ffffffffffffffffffffffffffffffffffffffff1673ffffffffffffffffffffffffffffffffffffffff16815260200190815260200160002060009054906101000a900460ff16905092915050565b6000801b81565b60fb5481565b60fc5481565b6000610e4c611c55565b60007f000000000000000000000000000000000000000000000000000000000000000073ffffffffffffffffffffffffffffffffffffffff1663cf3f0fc089896040518363ffffffff1660e01b8152600401610ea9929190613b6c565b602060405180830381865afa158015610ec6573d6000803e3d6000fd5b505050506040513d601f19601f82011682018060405250810190610eea9190613baa565b90506000610efa8a838b8b611ca4565b905080610f33576040517f32cfd62e00000000000000000000000000000000000000000000000000000000815260040160405180910390fd5b60007f000000000000000000000000000000000000000000000000000000000000000073ffffffffffffffffffffffffffffffffffffffff16638a9ff47d610f796118f6565b8d8f8c8c8c8c6040518863ffffffff1660e01b8152600401610fa19796959493929190613be6565b6020604051808303816000875af1158015610fc0573d6000803e3d6000fd5b505050506040513d601f19601f82011682018060405250810190610fe49190613c81565b90508061101d576040517fa52f5f9800000000000000000000000000000000000000000000000000000000815260040160405180910390fd5b6110887f00000000000000000000000000000000000000000000000000000000000000008c7f000000000000000000000000000000000000000000000000000000000000000073ffffffffffffffffffffffffffffffffffffffff1661219e9092919063ffffffff16565b8a6110916118f6565b73ffffffffffffffffffffffffffffffffffffffff167f58c96d63f4bd4de7383be398ebb4b20730b5c9726254c6dbaa648df77a17f0928b8c6040516110d8929190613b6c565b60405180910390a3600193505050506110ef612224565b98975050505050505050565b6000611115611108611b6e565b6111106118f6565b610dc4565b905090565b60fe5481565b600061113a61112d611b46565b6111356118f6565b610dc4565b905090565b60008060019054906101000a900460ff161590508080156111705750600160008054906101000a900460ff1660ff16105b8061119d575061117f3061222e565b15801561119c5750600160008054906101000a900460ff1660ff16145b5b6111dc576040517f08c379a00000000000000000000000000000000000000000000000000000000081526004016111d390613d20565b60405180910390fd5b60016000806101000a81548160ff021916908360ff1602179055508015611219576001600060016101000a81548160ff0219169083151502179055505b601460fc81905550670de0b6b3a764000060fd819055508160ff600060fb54815260200190815260200160002060006101000a81548173ffffffffffffffffffffffffffffffffffffffff021916908373ffffffffffffffffffffffffffffffffffffffff16021790555061129461128f6118f6565b610bfa565b80156112ed5760008060016101000a81548160ff0219169083151502179055507f7f26b83ff96e1f2b6a682f133852f6798a09c465da95921460cefb384740249860016040516112e49190613d7b565b60405180910390a15b5050565b7f000000000000000000000000000000000000000000000000000000000000000081565b61131e82610779565b61132781611801565b61133183836118fe565b505050565b6000611340611c55565b6000806000806113528d8d8d8d612251565b935093509350935083611391576040517f810e7e0300000000000000000000000000000000000000000000000000000000815260040160405180910390fd5b6113cd61139c6118f6565b30858c8c8c8c8873ffffffffffffffffffffffffffffffffffffffff1661263790979695949392919063ffffffff16565b6114216113d86118f6565b7f0000000000000000000000000000000000000000000000000000000000000000858573ffffffffffffffffffffffffffffffffffffffff16612804909392919063ffffffff16565b60007f000000000000000000000000000000000000000000000000000000000000000073ffffffffffffffffffffffffffffffffffffffff16630ce053ce6114676118f6565b8f6040518363ffffffff1660e01b8152600401611485929190613d96565b6020604051808303816000875af11580156114a4573d6000803e3d6000fd5b505050506040513d601f19601f820116820180604052508101906114c89190613c81565b905080611501576040517f4e716f1000000000000000000000000000000000000000000000000000000000815260040160405180910390fd5b8c61150a6118f6565b73ffffffffffffffffffffffffffffffffffffffff167f06d6b248b43d55689e1ab7d12ab71be86aa0a049203122896fbe644e28e608e58e8e604051611551929190613b6c565b60405180910390a360019550505050505061156a612224565b98975050505050505050565b7f000000000000000000000000000000000000000000000000000000000000000081565b60ff6020528060005260406000206000915054906101000a900473ffffffffffffffffffffffffffffffffffffffff1681565b6101036020528360005260406000206020528260005260406000206020528160005260406000206020528060005260406000206000935093505050505481565b7f000000000000000000000000000000000000000000000000000000000000000081565b6101006020528060005260406000206000915090505481565b611652611120565b611691576040517f08c379a000000000000000000000000000000000000000000000000000000000815260040161168890613a72565b60405180910390fd5b60018161169e9190613dbf565b60fc81905550807f986a24b02bc67bfd17286c1c227b470c377637db92c54663f4c1f079399030db60405160405180910390a250565b60008060008061010160008873ffffffffffffffffffffffffffffffffffffffff1673ffffffffffffffffffffffffffffffffffffffff168152602001908152602001600020600087815260200190815260200160002060008681526020019081526020016000206040518060600160405290816000820160009054906101000a900460ff161515151581526020016001820154815260200160028201548152505090508060000151816020015182604001519350935093505093509350939050565b60007f01ffc9a7000000000000000000000000000000000000000000000000000000007bffffffffffffffffffffffffffffffffffffffffffffffffffffffff1916827bffffffffffffffffffffffffffffffffffffffffffffffffffffffff1916149050919050565b6118128161180d6118f6565b61288d565b50565b61181f8282610dc4565b6118f25760016097600084815260200190815260200160002060000160008373ffffffffffffffffffffffffffffffffffffffff1673ffffffffffffffffffffffffffffffffffffffff16815260200190815260200160002060006101000a81548160ff0219169083151502179055506118976118f6565b73ffffffffffffffffffffffffffffffffffffffff168173ffffffffffffffffffffffffffffffffffffffff16837f2f8788117e7eff1d82e926ec794901d17c78024a50270940304540a733656f0d60405160405180910390a45b5050565b600033905090565b6119088282610dc4565b156119dc5760006097600084815260200190815260200160002060000160008373ffffffffffffffffffffffffffffffffffffffff1673ffffffffffffffffffffffffffffffffffffffff16815260200190815260200160002060006101000a81548160ff0219169083151502179055506119816118f6565b73ffffffffffffffffffffffffffffffffffffffff168173ffffffffffffffffffffffffffffffffffffffff16837ff6391f5c32d9c69d2a47ea670b442974b53935d1edc7fd64eb21e047a839171b60405160405180910390a45b5050565b6119e8612912565b6000603360006101000a81548160ff0219169083151502179055507f5db9ee0a495bf2e6ff9c91a7834c1ba4fdd244a5e8aa4e537bd38aeae4b073aa611a2c6118f6565b604051611a39919061383c565b60405180910390a1565b600060019054906101000a900460ff16611a92576040517f08c379a0000000000000000000000000000000000000000000000000000000008152600401611a8990613b4c565b60405180910390fd5b611a9a61295b565b565b600060019054906101000a900460ff16611aeb576040517f08c379a0000000000000000000000000000000000000000000000000000000008152600401611ae290613b4c565b60405180910390fd5b565b600060019054906101000a900460ff16611b3c576040517f08c379a0000000000000000000000000000000000000000000000000000000008152600401611b3390613b4c565b60405180910390fd5b611b446129c7565b565b60007fa49807205ce4d355092ef5a8a18f56e8913cf4a201fbe287825b095693c21775905090565b60007f65d7a28e3265b37a6474929f336521b332c1681b933f6cb9f3376673440d862a905090565b6000611ba183610779565b90508160976000858152602001908152602001600020600101819055508181847fbd79b86ffe0ab8e8776151514217cd7cacd52c909f66475c3af44e129f0b00ff60405160405180910390a4505050565b611bfa612a20565b6001603360006101000a81548160ff0219169083151502179055507f62e78cea01bee320cd4e420270b5ea74000d11b0c9f74754ebdbfc544b05a258611c3e6118f6565b604051611c4b919061383c565b60405180910390a1565b600260c95403611c9a576040517f08c379a0000000000000000000000000000000000000000000000000000000008152600401611c9190613e65565b60405180910390fd5b600260c981905550565b6000806101026000611cb46118f6565b73ffffffffffffffffffffffffffffffffffffffff1673ffffffffffffffffffffffffffffffffffffffff16815260200190815260200160002060008581526020019081526020016000206000848152602001908152602001600020905085851080611d235750806002015442105b80611d315750806001015486115b15611d68576040517f8fb88e6500000000000000000000000000000000000000000000000000000000815260040160405180910390fd5b85816001016000828254611d7c9190613e85565b9250508190555085816001015403611dac5760008160000160006101000a81548160ff0219169083151502179055505b600060017f000000000000000000000000000000000000000000000000000000000000000073ffffffffffffffffffffffffffffffffffffffff16636c12b868876040518263ffffffff1660e01b8152600401611e09919061366d565b602060405180830381865afa158015611e26573d6000803e3d6000fd5b505050506040513d601f19601f82011682018060405250810190611e4a9190613baa565b611e5491906139cc565b905060006101016000611e656118f6565b73ffffffffffffffffffffffffffffffffffffffff1673ffffffffffffffffffffffffffffffffffffffff16815260200190815260200160002060008781526020019081526020016000206000868152602001908152602001600020600201549050876101036000611ed56118f6565b73ffffffffffffffffffffffffffffffffffffffff1673ffffffffffffffffffffffffffffffffffffffff16815260200190815260200160002060008881526020019081526020016000206000878152602001908152602001600020600083815260200190815260200160002054611f4d9190613e85565b6101036000611f5a6118f6565b73ffffffffffffffffffffffffffffffffffffffff1673ffffffffffffffffffffffffffffffffffffffff168152602001908152602001600020600088815260200190815260200160002060008781526020019081526020016000206000848152602001908152602001600020819055508760fe6000828254611fdd9190613e85565b92505081905550876101006000611ff26118f6565b73ffffffffffffffffffffffffffffffffffffffff1673ffffffffffffffffffffffffffffffffffffffff168152602001908152602001600020600082825461203b9190613e85565b925050819055508161010160006120506118f6565b73ffffffffffffffffffffffffffffffffffffffff1673ffffffffffffffffffffffffffffffffffffffff168152602001908152602001600020600088815260200190815260200160002060008781526020019081526020016000206002018190555060007f000000000000000000000000000000000000000000000000000000000000000073ffffffffffffffffffffffffffffffffffffffff1663c296d87087888c6040518463ffffffff1660e01b815260040161211293929190613eb9565b6020604051808303816000875af1158015612131573d6000803e3d6000fd5b505050506040513d601f19601f820116820180604052508101906121559190613c81565b90508061218e576040517fbf83a13200000000000000000000000000000000000000000000000000000000815260040160405180910390fd5b6001945050505050949350505050565b61221f8363a9059cbb60e01b84846040516024016121bd929190613d96565b604051602081830303815290604052907bffffffffffffffffffffffffffffffffffffffffffffffffffffffff19166020820180517bffffffffffffffffffffffffffffffffffffffffffffffffffffffff8381831617835250505050612a6a565b505050565b600160c981905550565b6000808273ffffffffffffffffffffffffffffffffffffffff163b119050919050565b60008060008060fd54871015612293576040517f6455875100000000000000000000000000000000000000000000000000000000815260040160405180910390fd5b600060ff60008a815260200190815260200160002060009054906101000a900473ffffffffffffffffffffffffffffffffffffffff169050600073ffffffffffffffffffffffffffffffffffffffff168173ffffffffffffffffffffffffffffffffffffffff1603612331576040517fdec7623d00000000000000000000000000000000000000000000000000000000815260040160405180910390fd5b6000819050600082905060007f000000000000000000000000000000000000000000000000000000000000000073ffffffffffffffffffffffffffffffffffffffff1663d082e3816040518163ffffffff1660e01b8152600401602060405180830381865afa1580156123a8573d6000803e3d6000fd5b505050506040513d601f19601f820116820180604052508101906123cc9190613baa565b905060007f000000000000000000000000000000000000000000000000000000000000000073ffffffffffffffffffffffffffffffffffffffff1663e1b874cb838e8561241991906139cc565b6040518363ffffffff1660e01b8152600401612436929190613b6c565b6040805180830381865afa158015612452573d6000803e3d6000fd5b505050506040513d601f19601f820116820180604052508101906124769190613ef0565b915050808473ffffffffffffffffffffffffffffffffffffffff166370a0823161249e6118f6565b6040518263ffffffff1660e01b81526004016124ba919061383c565b602060405180830381865afa1580156124d7573d6000803e3d6000fd5b505050506040513d601f19601f820116820180604052508101906124fb9190613baa565b1015612533576040517f9500257e00000000000000000000000000000000000000000000000000000000815260040160405180910390fd5b61253e8c8c8c612b31565b60007f000000000000000000000000000000000000000000000000000000000000000073ffffffffffffffffffffffffffffffffffffffff16636ad08f058d8d856040518463ffffffff1660e01b815260040161259d93929190613eb9565b6020604051808303816000875af11580156125bc573d6000803e3d6000fd5b505050506040513d601f19601f820116820180604052508101906125e09190613c81565b905080612619576040517ff83e0bf000000000000000000000000000000000000000000000000000000000815260040160405180910390fd5b60018286869950995099509950505050505050945094509450949050565b60008873ffffffffffffffffffffffffffffffffffffffff16637ecebe00896040518263ffffffff1660e01b8152600401612672919061383c565b602060405180830381865afa15801561268f573d6000803e3d6000fd5b505050506040513d601f19601f820116820180604052508101906126b39190613baa565b90508873ffffffffffffffffffffffffffffffffffffffff1663d505accf898989898989896040518863ffffffff1660e01b81526004016126fa9796959493929190613f30565b600060405180830381600087803b15801561271457600080fd5b505af1158015612728573d6000803e3d6000fd5b5050505060008973ffffffffffffffffffffffffffffffffffffffff16637ecebe008a6040518263ffffffff1660e01b8152600401612767919061383c565b602060405180830381865afa158015612784573d6000803e3d6000fd5b505050506040513d601f19601f820116820180604052508101906127a89190613baa565b90506001826127b791906139cc565b81146127f8576040517f08c379a00000000000000000000000000000000000000000000000000000000081526004016127ef90614011565b60405180910390fd5b50505050505050505050565b612887846323b872dd60e01b85858560405160240161282593929190614031565b604051602081830303815290604052907bffffffffffffffffffffffffffffffffffffffffffffffffffffffff19166020820180517bffffffffffffffffffffffffffffffffffffffffffffffffffffffff8381831617835250505050612a6a565b50505050565b6128978282610dc4565b61290e576128a481612ef3565b6128b28360001c6020612f20565b6040516020016128c3929190614171565b6040516020818303038152906040526040517f08c379a000000000000000000000000000000000000000000000000000000000815260040161290591906141f5565b60405180910390fd5b5050565b61291a610b5f565b612959576040517f08c379a000000000000000000000000000000000000000000000000000000000815260040161295090614263565b60405180910390fd5b565b600060019054906101000a900460ff166129aa576040517f08c379a00000000000000000000000000000000000000000000000000000000081526004016129a190613b4c565b60405180910390fd5b6000603360006101000a81548160ff021916908315150217905550565b600060019054906101000a900460ff16612a16576040517f08c379a0000000000000000000000000000000000000000000000000000000008152600401612a0d90613b4c565b60405180910390fd5b600160c981905550565b612a28610b5f565b15612a68576040517f08c379a0000000000000000000000000000000000000000000000000000000008152600401612a5f906142cf565b60405180910390fd5b565b6000612acc826040518060400160405280602081526020017f5361666545524332303a206c6f772d6c6576656c2063616c6c206661696c65648152508573ffffffffffffffffffffffffffffffffffffffff1661315c9092919063ffffffff16565b9050600081511115612b2c5780806020019051810190612aec9190613c81565b612b2b576040517f08c379a0000000000000000000000000000000000000000000000000000000008152600401612b2290614361565b60405180910390fd5b5b505050565b600060017f000000000000000000000000000000000000000000000000000000000000000073ffffffffffffffffffffffffffffffffffffffff16636c12b868856040518263ffffffff1660e01b8152600401612b8e919061366d565b602060405180830381865afa158015612bab573d6000803e3d6000fd5b505050506040513d601f19601f82011682018060405250810190612bcf9190613baa565b612bd991906139cc565b90508360fe6000828254612bed91906139cc565b9250508190555060006101016000612c036118f6565b73ffffffffffffffffffffffffffffffffffffffff1673ffffffffffffffffffffffffffffffffffffffff1681526020019081526020016000206000858152602001908152602001600020600084815260200190815260200160002090508060000160009054906101000a900460ff16612ca75781816001018190555060018160000160006101000a81548160ff0219169083151502179055508181600201819055505b60006101016000612cb66118f6565b73ffffffffffffffffffffffffffffffffffffffff1673ffffffffffffffffffffffffffffffffffffffff16815260200190815260200160002060008681526020019081526020016000206000858152602001908152602001600020600201549050856101036000612d266118f6565b73ffffffffffffffffffffffffffffffffffffffff1673ffffffffffffffffffffffffffffffffffffffff16815260200190815260200160002060008781526020019081526020016000206000868152602001908152602001600020600083815260200190815260200160002054612d9e91906139cc565b6101036000612dab6118f6565b73ffffffffffffffffffffffffffffffffffffffff1673ffffffffffffffffffffffffffffffffffffffff16815260200190815260200160002060008781526020019081526020016000206000868152602001908152602001600020600085815260200190815260200160002081905550856101006000612e2a6118f6565b73ffffffffffffffffffffffffffffffffffffffff1673ffffffffffffffffffffffffffffffffffffffff1681526020019081526020016000206000828254612e7391906139cc565b92505081905550826101016000612e886118f6565b73ffffffffffffffffffffffffffffffffffffffff1673ffffffffffffffffffffffffffffffffffffffff1681526020019081526020016000206000878152602001908152602001600020600086815260200190815260200160002060020181905550505050505050565b6060612f198273ffffffffffffffffffffffffffffffffffffffff16601460ff16612f20565b9050919050565b606060006002836002612f339190613dbf565b612f3d91906139cc565b67ffffffffffffffff811115612f5657612f55614381565b5b6040519080825280601f01601f191660200182016040528015612f885781602001600182028036833780820191505090505b5090507f300000000000000000000000000000000000000000000000000000000000000081600081518110612fc057612fbf6143b0565b5b60200101907effffffffffffffffffffffffffffffffffffffffffffffffffffffffffffff1916908160001a9053507f780000000000000000000000000000000000000000000000000000000000000081600181518110613024576130236143b0565b5b60200101907effffffffffffffffffffffffffffffffffffffffffffffffffffffffffffff1916908160001a905350600060018460026130649190613dbf565b61306e91906139cc565b90505b600181111561310e577f3031323334353637383961626364656600000000000000000000000000000000600f8616601081106130b0576130af6143b0565b5b1a60f81b8282815181106130c7576130c66143b0565b5b60200101907effffffffffffffffffffffffffffffffffffffffffffffffffffffffffffff1916908160001a905350600485901c945080613107906143df565b9050613071565b5060008414613152576040517f08c379a000000000000000000000000000000000000000000000000000000000815260040161314990614454565b60405180910390fd5b8091505092915050565b606061316b8484600085613174565b90509392505050565b6060824710156131b9576040517f08c379a00000000000000000000000000000000000000000000000000000000081526004016131b0906144e6565b60405180910390fd5b6000808673ffffffffffffffffffffffffffffffffffffffff1685876040516131e2919061454d565b60006040518083038185875af1925050503d806000811461321f576040519150601f19603f3d011682016040523d82523d6000602084013e613224565b606091505b509150915061323587838387613241565b92505050949350505050565b606083156132a357600083510361329b5761325b8561222e565b61329a576040517f08c379a0000000000000000000000000000000000000000000000000000000008152600401613291906145b0565b60405180910390fd5b5b8290506132ae565b6132ad83836132b6565b5b949350505050565b6000825111156132c95781518083602001fd5b806040517f08c379a00000000000000000000000000000000000000000000000000000000081526004016132fd91906141f5565b60405180910390fd5b600080fd5b60007fffffffff0000000000000000000000000000000000000000000000000000000082169050919050565b6133408161330b565b811461334b57600080fd5b50565b60008135905061335d81613337565b92915050565b60006020828403121561337957613378613306565b5b60006133878482850161334e565b91505092915050565b60008115159050919050565b6133a581613390565b82525050565b60006020820190506133c0600083018461339c565b92915050565b600073ffffffffffffffffffffffffffffffffffffffff82169050919050565b60006133f1826133c6565b9050919050565b613401816133e6565b811461340c57600080fd5b50565b60008135905061341e816133f8565b92915050565b6000819050919050565b61343781613424565b811461344257600080fd5b50565b6000813590506134548161342e565b92915050565b60008060006060848603121561347357613472613306565b5b60006134818682870161340f565b935050602061349286828701613445565b92505060406134a386828701613445565b9150509250925092565b6134b681613424565b82525050565b60006060820190506134d1600083018661339c565b6134de60208301856134ad565b6134eb60408301846134ad565b949350505050565b6000819050919050565b613506816134f3565b811461351157600080fd5b50565b600081359050613523816134fd565b92915050565b60006020828403121561353f5761353e613306565b5b600061354d84828501613514565b91505092915050565b61355f816134f3565b82525050565b600060208201905061357a6000830184613556565b92915050565b6000806040838503121561359757613596613306565b5b60006135a585828601613514565b92505060206135b68582860161340f565b9150509250929050565b6000806000606084860312156135d9576135d8613306565b5b60006135e786828701613445565b93505060206135f886828701613445565b925050604061360986828701613445565b9150509250925092565b60006020828403121561362957613628613306565b5b60006136378482850161340f565b91505092915050565b60006020828403121561365657613655613306565b5b600061366484828501613445565b91505092915050565b600060208201905061368260008301846134ad565b92915050565b600060ff82169050919050565b61369e81613688565b81146136a957600080fd5b50565b6000813590506136bb81613695565b92915050565b600080600080600080600080610100898b0312156136e2576136e1613306565b5b60006136f08b828c01613445565b98505060206137018b828c01613445565b97505060406137128b828c01613445565b96505060606137238b828c01613445565b95505060806137348b828c01613445565b94505060a06137458b828c016136ac565b93505060c06137568b828c01613514565b92505060e06137678b828c01613514565b9150509295985092959890939650565b6000819050919050565b600061379c613797613792846133c6565b613777565b6133c6565b9050919050565b60006137ae82613781565b9050919050565b60006137c0826137a3565b9050919050565b6137d0816137b5565b82525050565b60006020820190506137eb60008301846137c7565b92915050565b60006137fc826137a3565b9050919050565b61380c816137f1565b82525050565b60006020820190506138276000830184613803565b92915050565b613836816133e6565b82525050565b6000602082019050613851600083018461382d565b92915050565b6000806000806080858703121561387157613870613306565b5b600061387f8782880161340f565b945050602061389087828801613445565b93505060406138a187828801613445565b92505060606138b287828801613445565b91505092959194509250565b60006138c9826137a3565b9050919050565b6138d9816138be565b82525050565b60006020820190506138f460008301846138d0565b92915050565b600082825260208201905092915050565b7f416363657373436f6e74726f6c3a2063616e206f6e6c792072656e6f756e636560008201527f20726f6c657320666f722073656c660000000000000000000000000000000000602082015250565b6000613967602f836138fa565b91506139728261390b565b604082019050919050565b600060208201905081810360008301526139968161395a565b9050919050565b7f4e487b7100000000000000000000000000000000000000000000000000000000600052601160045260246000fd5b60006139d782613424565b91506139e283613424565b92508282019050808211156139fa576139f961399d565b5b92915050565b7f4d75737420686176652061646d696e20726f6c6520746f20706572666f726d2060008201527f7468697320616374696f6e2e0000000000000000000000000000000000000000602082015250565b6000613a5c602c836138fa565b9150613a6782613a00565b604082019050919050565b60006020820190508181036000830152613a8b81613a4f565b9050919050565b6000613a9d82613424565b91507fffffffffffffffffffffffffffffffffffffffffffffffffffffffffffffffff8203613acf57613ace61399d565b5b600182019050919050565b7f496e697469616c697a61626c653a20636f6e7472616374206973206e6f74206960008201527f6e697469616c697a696e67000000000000000000000000000000000000000000602082015250565b6000613b36602b836138fa565b9150613b4182613ada565b604082019050919050565b60006020820190508181036000830152613b6581613b29565b9050919050565b6000604082019050613b8160008301856134ad565b613b8e60208301846134ad565b9392505050565b600081519050613ba48161342e565b92915050565b600060208284031215613bc057613bbf613306565b5b6000613bce84828501613b95565b91505092915050565b613be081613688565b82525050565b600060e082019050613bfb600083018a61382d565b613c0860208301896134ad565b613c1560408301886134ad565b613c2260608301876134ad565b613c2f6080830186613bd7565b613c3c60a0830185613556565b613c4960c0830184613556565b98975050505050505050565b613c5e81613390565b8114613c6957600080fd5b50565b600081519050613c7b81613c55565b92915050565b600060208284031215613c9757613c96613306565b5b6000613ca584828501613c6c565b91505092915050565b7f496e697469616c697a61626c653a20636f6e747261637420697320616c72656160008201527f647920696e697469616c697a6564000000000000000000000000000000000000602082015250565b6000613d0a602e836138fa565b9150613d1582613cae565b604082019050919050565b60006020820190508181036000830152613d3981613cfd565b9050919050565b6000819050919050565b6000613d65613d60613d5b84613d40565b613777565b613688565b9050919050565b613d7581613d4a565b82525050565b6000602082019050613d906000830184613d6c565b92915050565b6000604082019050613dab600083018561382d565b613db860208301846134ad565b9392505050565b6000613dca82613424565b9150613dd583613424565b9250817fffffffffffffffffffffffffffffffffffffffffffffffffffffffffffffffff0483118215151615613e0e57613e0d61399d565b5b828202905092915050565b7f5265656e7472616e637947756172643a207265656e7472616e742063616c6c00600082015250565b6000613e4f601f836138fa565b9150613e5a82613e19565b602082019050919050565b60006020820190508181036000830152613e7e81613e42565b9050919050565b6000613e9082613424565b9150613e9b83613424565b9250828203905081811115613eb357613eb261399d565b5b92915050565b6000606082019050613ece60008301866134ad565b613edb60208301856134ad565b613ee860408301846134ad565b949350505050565b60008060408385031215613f0757613f06613306565b5b6000613f1585828601613b95565b9250506020613f2685828601613b95565b9150509250929050565b600060e082019050613f45600083018a61382d565b613f52602083018961382d565b613f5f60408301886134ad565b613f6c60608301876134ad565b613f796080830186613bd7565b613f8660a0830185613556565b613f9360c0830184613556565b98975050505050505050565b7f5361666545524332303a207065726d697420646964206e6f742073756363656560008201527f6400000000000000000000000000000000000000000000000000000000000000602082015250565b6000613ffb6021836138fa565b915061400682613f9f565b604082019050919050565b6000602082019050818103600083015261402a81613fee565b9050919050565b6000606082019050614046600083018661382d565b614053602083018561382d565b61406060408301846134ad565b949350505050565b600081905092915050565b7f416363657373436f6e74726f6c3a206163636f756e7420000000000000000000600082015250565b60006140a9601783614068565b91506140b482614073565b601782019050919050565b600081519050919050565b60005b838110156140e85780820151818401526020810190506140cd565b60008484015250505050565b60006140ff826140bf565b6141098185614068565b93506141198185602086016140ca565b80840191505092915050565b7f206973206d697373696e6720726f6c6520000000000000000000000000000000600082015250565b600061415b601183614068565b915061416682614125565b601182019050919050565b600061417c8261409c565b915061418882856140f4565b91506141938261414e565b915061419f82846140f4565b91508190509392505050565b6000601f19601f8301169050919050565b60006141c7826140bf565b6141d181856138fa565b93506141e18185602086016140ca565b6141ea816141ab565b840191505092915050565b6000602082019050818103600083015261420f81846141bc565b905092915050565b7f5061757361626c653a206e6f7420706175736564000000000000000000000000600082015250565b600061424d6014836138fa565b915061425882614217565b602082019050919050565b6000602082019050818103600083015261427c81614240565b9050919050565b7f5061757361626c653a2070617573656400000000000000000000000000000000600082015250565b60006142b96010836138fa565b91506142c482614283565b602082019050919050565b600060208201905081810360008301526142e8816142ac565b9050919050565b7f5361666545524332303a204552433230206f7065726174696f6e20646964206e60008201527f6f74207375636365656400000000000000000000000000000000000000000000602082015250565b600061434b602a836138fa565b9150614356826142ef565b604082019050919050565b6000602082019050818103600083015261437a8161433e565b9050919050565b7f4e487b7100000000000000000000000000000000000000000000000000000000600052604160045260246000fd5b7f4e487b7100000000000000000000000000000000000000000000000000000000600052603260045260246000fd5b60006143ea82613424565b9150600082036143fd576143fc61399d565b5b600182039050919050565b7f537472696e67733a20686578206c656e67746820696e73756666696369656e74600082015250565b600061443e6020836138fa565b915061444982614408565b602082019050919050565b6000602082019050818103600083015261446d81614431565b9050919050565b7f416464726573733a20696e73756666696369656e742062616c616e636520666f60008201527f722063616c6c0000000000000000000000000000000000000000000000000000602082015250565b60006144d06026836138fa565b91506144db82614474565b604082019050919050565b600060208201905081810360008301526144ff816144c3565b9050919050565b600081519050919050565b600081905092915050565b600061452782614506565b6145318185614511565b93506145418185602086016140ca565b80840191505092915050565b6000614559828461451c565b915081905092915050565b7f416464726573733a2063616c6c20746f206e6f6e2d636f6e7472616374000000600082015250565b600061459a601d836138fa565b91506145a582614564565b602082019050919050565b600060208201905081810360008301526145c98161458d565b905091905056fea2646970667358221220839d73e76b150f353913efb9b08e9a0791690c9ecdf038ab0498de6a656b245e64736f6c63430008100033",
  "linkReferences": {},
  "deployedLinkReferences": {}
}