{
  "_format": "hh-sol-artifact-1",
  "contractName": "InsuranceRegistry",
  "sourceName": "contracts/core/payAsYouGo/InsuranceRegistry.sol",
  "abi": [
    {
      "inputs": [],
      "name": "BaseUpgradeablePausable__ZeroAddressError",
      "type": "error"
    },
    {
      "inputs": [],
      "name": "InsuranceRegistry__ImmutableChangesError",
      "type": "error"
    },
    {
      "inputs": [],
      "name": "InsuranceRegistry__NotEnoughLiquidityError",
      "type": "error"
    },
    {
      "inputs": [],
      "name": "InsuranceRegistry__TransactionFailedError",
      "type": "error"
    },
    {
      "anonymous": false,
      "inputs": [
        {
          "indexed": false,
          "internalType": "uint8",
          "name": "version",
          "type": "uint8"
        }
      ],
      "name": "Initialized",
      "type": "event"
    },
    {
      "anonymous": false,
      "inputs": [
        {
          "indexed": false,
          "internalType": "address",
          "name": "account",
          "type": "address"
        }
      ],
      "name": "Paused",
      "type": "event"
    },
    {
      "anonymous": false,
      "inputs": [
        {
          "indexed": true,
          "internalType": "bytes32",
          "name": "role",
          "type": "bytes32"
        },
        {
          "indexed": true,
          "internalType": "bytes32",
          "name": "previousAdminRole",
          "type": "bytes32"
        },
        {
          "indexed": true,
          "internalType": "bytes32",
          "name": "newAdminRole",
          "type": "bytes32"
        }
      ],
      "name": "RoleAdminChanged",
      "type": "event"
    },
    {
      "anonymous": false,
      "inputs": [
        {
          "indexed": true,
          "internalType": "bytes32",
          "name": "role",
          "type": "bytes32"
        },
        {
          "indexed": true,
          "internalType": "address",
          "name": "account",
          "type": "address"
        },
        {
          "indexed": true,
          "internalType": "address",
          "name": "sender",
          "type": "address"
        }
      ],
      "name": "RoleGranted",
      "type": "event"
    },
    {
      "anonymous": false,
      "inputs": [
        {
          "indexed": true,
          "internalType": "bytes32",
          "name": "role",
          "type": "bytes32"
        },
        {
          "indexed": true,
          "internalType": "address",
          "name": "account",
          "type": "address"
        },
        {
          "indexed": true,
          "internalType": "address",
          "name": "sender",
          "type": "address"
        }
      ],
      "name": "RoleRevoked",
      "type": "event"
    },
    {
      "anonymous": false,
      "inputs": [
        {
          "indexed": false,
          "internalType": "address",
          "name": "account",
          "type": "address"
        }
      ],
      "name": "Unpaused",
      "type": "event"
    },
    {
      "anonymous": false,
      "inputs": [],
      "name": "UpdatedClaimStakedValue",
      "type": "event"
    },
    {
      "inputs": [],
      "name": "DEFAULT_ADMIN_ROLE",
      "outputs": [
        {
          "internalType": "bytes32",
          "name": "",
          "type": "bytes32"
        }
      ],
      "stateMutability": "view",
      "type": "function"
    },
    {
      "inputs": [
        {
          "internalType": "address",
          "name": "owner",
          "type": "address"
        }
      ],
      "name": "__BaseUpgradeablePausable_init",
      "outputs": [],
      "stateMutability": "nonpayable",
      "type": "function"
    },
    {
      "inputs": [
        {
          "internalType": "uint256",
          "name": "categoryID",
          "type": "uint256"
        },
        {
          "internalType": "uint256",
          "name": "subCategoryID_",
          "type": "uint256"
        },
        {
          "internalType": "uint256",
          "name": "coverageAmount",
          "type": "uint256"
        },
        {
          "internalType": "uint256",
          "name": "incomingFlowRate",
          "type": "uint256"
        }
      ],
      "name": "addCoverageOffered",
      "outputs": [
        {
          "internalType": "bool",
          "name": "",
          "type": "bool"
        }
      ],
      "stateMutability": "nonpayable",
      "type": "function"
    },
    {
      "inputs": [
        {
          "internalType": "uint256",
          "name": "categoryID",
          "type": "uint256"
        },
        {
          "internalType": "string",
          "name": "subCategoryName",
          "type": "string"
        },
        {
          "internalType": "string",
          "name": "info",
          "type": "string"
        },
        {
          "internalType": "string",
          "name": "logo",
          "type": "string"
        },
        {
          "internalType": "uint256",
          "name": "riskPoolCategory",
          "type": "uint256"
        },
        {
          "internalType": "uint256",
          "name": "streamFlowRate",
          "type": "uint256"
        }
      ],
      "name": "addInsuranceCategory",
      "outputs": [],
      "stateMutability": "nonpayable",
      "type": "function"
    },
    {
      "inputs": [
        {
          "internalType": "uint256",
          "name": "categoryID",
          "type": "uint256"
        },
        {
          "internalType": "uint256",
          "name": "subCategoryID_",
          "type": "uint256"
        },
        {
          "internalType": "uint256",
          "name": "liquiditySupplied",
          "type": "uint256"
        }
      ],
      "name": "addInsuranceLiquidity",
      "outputs": [
        {
          "internalType": "bool",
          "name": "",
          "type": "bool"
        }
      ],
      "stateMutability": "nonpayable",
      "type": "function"
    },
    {
      "inputs": [],
      "name": "addInsuranceProduct",
      "outputs": [],
      "stateMutability": "nonpayable",
      "type": "function"
    },
    {
      "inputs": [
        {
          "internalType": "uint256",
          "name": "categoryID",
          "type": "uint256"
        },
        {
          "internalType": "uint256",
          "name": "subCategoryID_",
          "type": "uint256"
        }
      ],
      "name": "calculateUnderwriterBalance",
      "outputs": [
        {
          "internalType": "uint256",
          "name": "",
          "type": "uint256"
        }
      ],
      "stateMutability": "view",
      "type": "function"
    },
    {
      "inputs": [
        {
          "internalType": "uint256",
          "name": "categoryID",
          "type": "uint256"
        },
        {
          "internalType": "uint256",
          "name": "subCategoryID_",
          "type": "uint256"
        }
      ],
      "name": "claimAdded",
      "outputs": [
        {
          "internalType": "bool",
          "name": "",
          "type": "bool"
        }
      ],
      "stateMutability": "nonpayable",
      "type": "function"
    },
    {
      "inputs": [
        {
          "internalType": "uint256",
          "name": "categoryID",
          "type": "uint256"
        },
        {
          "internalType": "uint256",
          "name": "subCategoryID_",
          "type": "uint256"
        }
      ],
      "name": "getInsuranceInfo",
      "outputs": [
        {
          "internalType": "bool",
          "name": "",
          "type": "bool"
        },
        {
          "internalType": "string",
          "name": "",
          "type": "string"
        },
        {
          "internalType": "string",
          "name": "",
          "type": "string"
        },
        {
          "internalType": "string",
          "name": "",
          "type": "string"
        },
        {
          "internalType": "uint256",
          "name": "",
          "type": "uint256"
        },
        {
          "internalType": "uint256",
          "name": "",
          "type": "uint256"
        },
        {
          "internalType": "uint256",
          "name": "",
          "type": "uint256"
        }
      ],
      "stateMutability": "view",
      "type": "function"
    },
    {
      "inputs": [],
      "name": "getLatestCategoryID",
      "outputs": [
        {
          "internalType": "uint256",
          "name": "",
          "type": "uint256"
        }
      ],
      "stateMutability": "view",
      "type": "function"
    },
    {
      "inputs": [
        {
          "internalType": "uint256",
          "name": "categoryID",
          "type": "uint256"
        }
      ],
      "name": "getLatestSubCategoryID",
      "outputs": [
        {
          "internalType": "uint256",
          "name": "",
          "type": "uint256"
        }
      ],
      "stateMutability": "view",
      "type": "function"
    },
    {
      "inputs": [
        {
          "internalType": "uint256",
          "name": "categoryID",
          "type": "uint256"
        },
        {
          "internalType": "uint256",
          "name": "riskPoolCategory",
          "type": "uint256"
        },
        {
          "internalType": "uint256",
          "name": "version_",
          "type": "uint256"
        }
      ],
      "name": "getPoolExpectedPremium",
      "outputs": [
        {
          "internalType": "uint256",
          "name": "",
          "type": "uint256"
        }
      ],
      "stateMutability": "view",
      "type": "function"
    },
    {
      "inputs": [
        {
          "internalType": "uint256",
          "name": "categoryID",
          "type": "uint256"
        },
        {
          "internalType": "uint256",
          "name": "riskPoolCategory",
          "type": "uint256"
        },
        {
          "internalType": "uint256",
          "name": "version_",
          "type": "uint256"
        }
      ],
      "name": "getPoolLiquidationPercent",
      "outputs": [
        {
          "internalType": "uint256",
          "name": "",
          "type": "uint256"
        }
      ],
      "stateMutability": "view",
      "type": "function"
    },
    {
      "inputs": [
        {
          "internalType": "uint256",
          "name": "categoryID",
          "type": "uint256"
        },
        {
          "internalType": "uint256",
          "name": "riskPoolCategory",
          "type": "uint256"
        },
        {
          "internalType": "uint256",
          "name": "version_",
          "type": "uint256"
        }
      ],
      "name": "getPoolLiquidity",
      "outputs": [
        {
          "internalType": "uint256",
          "name": "",
          "type": "uint256"
        }
      ],
      "stateMutability": "view",
      "type": "function"
    },
    {
      "inputs": [
        {
          "internalType": "uint256",
          "name": "categoryID",
          "type": "uint256"
        },
        {
          "internalType": "uint256",
          "name": "subCategoryID_",
          "type": "uint256"
        },
        {
          "internalType": "uint256",
          "name": "version_",
          "type": "uint256"
        }
      ],
      "name": "getProtocolRiskCategory",
      "outputs": [
        {
          "internalType": "uint256",
          "name": "",
          "type": "uint256"
        }
      ],
      "stateMutability": "view",
      "type": "function"
    },
    {
      "inputs": [
        {
          "internalType": "bytes32",
          "name": "role",
          "type": "bytes32"
        }
      ],
      "name": "getRoleAdmin",
      "outputs": [
        {
          "internalType": "bytes32",
          "name": "",
          "type": "bytes32"
        }
      ],
      "stateMutability": "view",
      "type": "function"
    },
    {
      "inputs": [
        {
          "internalType": "uint256",
          "name": "categoryID",
          "type": "uint256"
        },
        {
          "internalType": "uint256",
          "name": "subCategoryID_",
          "type": "uint256"
        }
      ],
      "name": "getStreamFlowRate",
      "outputs": [
        {
          "internalType": "uint256",
          "name": "",
          "type": "uint256"
        }
      ],
      "stateMutability": "view",
      "type": "function"
    },
    {
      "inputs": [
        {
          "internalType": "uint256",
          "name": "categoryID",
          "type": "uint256"
        }
      ],
      "name": "getVersionID",
      "outputs": [
        {
          "internalType": "uint256",
          "name": "",
          "type": "uint256"
        }
      ],
      "stateMutability": "view",
      "type": "function"
    },
    {
      "inputs": [
        {
          "internalType": "bytes32",
          "name": "role",
          "type": "bytes32"
        },
        {
          "internalType": "address",
          "name": "account",
          "type": "address"
        }
      ],
      "name": "grantRole",
      "outputs": [],
      "stateMutability": "nonpayable",
      "type": "function"
    },
    {
      "inputs": [
        {
          "internalType": "bytes32",
          "name": "role",
          "type": "bytes32"
        },
        {
          "internalType": "address",
          "name": "account",
          "type": "address"
        }
      ],
      "name": "hasRole",
      "outputs": [
        {
          "internalType": "bool",
          "name": "",
          "type": "bool"
        }
      ],
      "stateMutability": "view",
      "type": "function"
    },
    {
      "inputs": [
        {
          "internalType": "uint256",
          "name": "categoryID",
          "type": "uint256"
        },
        {
          "internalType": "uint256",
          "name": "insuredAmount",
          "type": "uint256"
        },
        {
          "internalType": "uint256",
          "name": "subCategoryID_",
          "type": "uint256"
        }
      ],
      "name": "ifEnoughLiquidity",
      "outputs": [
        {
          "internalType": "bool",
          "name": "",
          "type": "bool"
        }
      ],
      "stateMutability": "view",
      "type": "function"
    },
    {
      "inputs": [
        {
          "internalType": "address",
          "name": "CFA",
          "type": "address"
        },
        {
          "internalType": "address",
          "name": "coveragePoolAddress",
          "type": "address"
        }
      ],
      "name": "init",
      "outputs": [],
      "stateMutability": "nonpayable",
      "type": "function"
    },
    {
      "inputs": [
        {
          "internalType": "address",
          "name": "buySellSZTCA",
          "type": "address"
        },
        {
          "internalType": "address",
          "name": "tokenAddressDAI",
          "type": "address"
        },
        {
          "internalType": "address",
          "name": "tokenAddressSZT",
          "type": "address"
        }
      ],
      "name": "initialize",
      "outputs": [],
      "stateMutability": "nonpayable",
      "type": "function"
    },
    {
      "inputs": [],
      "name": "isAdmin",
      "outputs": [
        {
          "internalType": "bool",
          "name": "",
          "type": "bool"
        }
      ],
      "stateMutability": "view",
      "type": "function"
    },
    {
      "inputs": [
        {
          "internalType": "uint256",
          "name": "categoryID",
          "type": "uint256"
        },
        {
          "internalType": "uint256",
          "name": "subCategoryID_",
          "type": "uint256"
        },
        {
          "internalType": "uint256",
          "name": "liquidatedPercent",
          "type": "uint256"
        },
        {
          "internalType": "uint256",
          "name": "coverageAmount",
          "type": "uint256"
        }
      ],
      "name": "liquidatePositions",
      "outputs": [],
      "stateMutability": "nonpayable",
      "type": "function"
    },
    {
      "inputs": [],
      "name": "pause",
      "outputs": [],
      "stateMutability": "nonpayable",
      "type": "function"
    },
    {
      "inputs": [],
      "name": "paused",
      "outputs": [
        {
          "internalType": "bool",
          "name": "",
          "type": "bool"
        }
      ],
      "stateMutability": "view",
      "type": "function"
    },
    {
      "inputs": [
        {
          "internalType": "uint256",
          "name": "categoryID",
          "type": "uint256"
        },
        {
          "internalType": "uint256",
          "name": "subCategoryID_",
          "type": "uint256"
        },
        {
          "internalType": "uint256",
          "name": "coverageAmount",
          "type": "uint256"
        },
        {
          "internalType": "uint256",
          "name": "incomingFlowRate",
          "type": "uint256"
        }
      ],
      "name": "removeCoverageOffered",
      "outputs": [
        {
          "internalType": "bool",
          "name": "",
          "type": "bool"
        }
      ],
      "stateMutability": "nonpayable",
      "type": "function"
    },
    {
      "inputs": [
        {
          "internalType": "uint256",
          "name": "categoryID",
          "type": "uint256"
        },
        {
          "internalType": "uint256",
          "name": "subCategoryID_",
          "type": "uint256"
        },
        {
          "internalType": "uint256",
          "name": "liquiditySupplied",
          "type": "uint256"
        }
      ],
      "name": "removeInsuranceLiquidity",
      "outputs": [
        {
          "internalType": "bool",
          "name": "",
          "type": "bool"
        }
      ],
      "stateMutability": "nonpayable",
      "type": "function"
    },
    {
      "inputs": [
        {
          "internalType": "bytes32",
          "name": "role",
          "type": "bytes32"
        },
        {
          "internalType": "address",
          "name": "account",
          "type": "address"
        }
      ],
      "name": "renounceRole",
      "outputs": [],
      "stateMutability": "nonpayable",
      "type": "function"
    },
    {
      "inputs": [
        {
          "internalType": "bytes32",
          "name": "role",
          "type": "bytes32"
        },
        {
          "internalType": "address",
          "name": "account",
          "type": "address"
        }
      ],
      "name": "revokeRole",
      "outputs": [],
      "stateMutability": "nonpayable",
      "type": "function"
    },
    {
      "inputs": [
        {
          "internalType": "uint256",
          "name": "",
          "type": "uint256"
        },
        {
          "internalType": "uint256",
          "name": "",
          "type": "uint256"
        }
      ],
      "name": "subCategoriesInfo",
      "outputs": [
        {
          "internalType": "bool",
          "name": "isActive",
          "type": "bool"
        },
        {
          "internalType": "string",
          "name": "subCategoryName",
          "type": "string"
        },
        {
          "internalType": "string",
          "name": "info",
          "type": "string"
        },
        {
          "internalType": "string",
          "name": "logo",
          "type": "string"
        },
        {
          "internalType": "uint256",
          "name": "liquidity",
          "type": "uint256"
        },
        {
          "internalType": "uint256",
          "name": "subCategoryID",
          "type": "uint256"
        },
        {
          "internalType": "uint256",
          "name": "streamFlowRate",
          "type": "uint256"
        },
        {
          "internalType": "uint256",
          "name": "coverageOffered",
          "type": "uint256"
        }
      ],
      "stateMutability": "view",
      "type": "function"
    },
    {
      "inputs": [
        {
          "internalType": "uint256",
          "name": "",
          "type": "uint256"
        }
      ],
      "name": "subCategoryID",
      "outputs": [
        {
          "internalType": "uint256",
          "name": "",
          "type": "uint256"
        }
      ],
      "stateMutability": "view",
      "type": "function"
    },
    {
      "inputs": [
        {
          "internalType": "bytes4",
          "name": "interfaceId",
          "type": "bytes4"
        }
      ],
      "name": "supportsInterface",
      "outputs": [
        {
          "internalType": "bool",
          "name": "",
          "type": "bool"
        }
      ],
      "stateMutability": "view",
      "type": "function"
    },
    {
      "inputs": [],
      "name": "unpause",
      "outputs": [],
      "stateMutability": "nonpayable",
      "type": "function"
    },
    {
      "inputs": [
        {
          "internalType": "uint256",
          "name": "value",
          "type": "uint256"
        }
      ],
      "name": "updateClaimStakedValue",
      "outputs": [],
      "stateMutability": "nonpayable",
      "type": "function"
    },
    {
      "inputs": [
        {
          "internalType": "uint256",
          "name": "categoryID",
          "type": "uint256"
        },
        {
          "internalType": "uint256",
          "name": "subCategoryID_",
          "type": "uint256"
        },
        {
          "internalType": "uint256",
          "name": "riskPoolCategory",
          "type": "uint256"
        }
      ],
      "name": "updateProtocolRiskPoolCategory",
      "outputs": [],
      "stateMutability": "nonpayable",
      "type": "function"
    },
    {
      "inputs": [
        {
          "internalType": "uint256",
          "name": "categoryID",
          "type": "uint256"
        },
        {
          "internalType": "uint256",
          "name": "subCategoryID_",
          "type": "uint256"
        },
        {
          "internalType": "uint256",
          "name": "newFlowRate",
          "type": "uint256"
        }
      ],
      "name": "updateStreamFlowRate",
      "outputs": [],
      "stateMutability": "nonpayable",
      "type": "function"
    },
    {
      "inputs": [
        {
          "internalType": "uint256",
          "name": "",
          "type": "uint256"
        }
      ],
      "name": "version",
      "outputs": [
        {
          "internalType": "uint256",
          "name": "",
          "type": "uint256"
        }
      ],
      "stateMutability": "view",
      "type": "function"
    },
    {
      "inputs": [
        {
          "internalType": "uint256",
          "name": "",
          "type": "uint256"
        },
        {
          "internalType": "uint256",
          "name": "",
          "type": "uint256"
        },
        {
          "internalType": "uint256",
          "name": "",
          "type": "uint256"
        }
      ],
      "name": "versionRiskPoolCategory",
      "outputs": [
        {
          "internalType": "uint256",
          "name": "",
          "type": "uint256"
        }
      ],
      "stateMutability": "view",
      "type": "function"
    },
    {
      "inputs": [
        {
          "internalType": "uint256",
          "name": "",
          "type": "uint256"
        },
        {
          "internalType": "uint256",
          "name": "",
          "type": "uint256"
        },
        {
          "internalType": "uint256",
          "name": "",
          "type": "uint256"
        }
      ],
      "name": "versionableRiskPoolsInfo",
      "outputs": [
        {
          "internalType": "uint256",
          "name": "startTime",
          "type": "uint256"
        },
        {
          "internalType": "uint256",
          "name": "endTime",
          "type": "uint256"
        },
        {
          "internalType": "uint256",
          "name": "riskPoolLiquidity",
          "type": "uint256"
        },
        {
          "internalType": "uint256",
          "name": "riskPoolStreamRate",
          "type": "uint256"
        },
        {
          "internalType": "uint256",
          "name": "liquidation",
          "type": "uint256"
        }
      ],
      "stateMutability": "view",
      "type": "function"
    }
  ],
  "bytecode": "0x608060405234801561001057600080fd5b5061472b806100206000396000f3fe608060405234801561001057600080fd5b50600436106102535760003560e01c806378b766d611610146578063c0c53b8b116100c3578063d547741f11610087578063d547741f146107b1578063d9895c70146107cd578063da1ff6b0146107fd578063dce1e0281461082d578063e1d0109814610849578063f09a40161461086757610253565b8063c0c53b8b146106cf578063c296d870146106eb578063cb5a27811461071b578063cf3f0fc014610751578063d3cbde311461078157610253565b80639b57addb1161010a5780639b57addb14610613578063a217fddf1461062f578063b0c520211461064d578063b6db75a014610681578063bb8b36bb1461069f57610253565b806378b766d61461056a57806382e4be88146105a15780638456cb59146105bd57806390e4feac146105c757806391d14854146105e357610253565b806348e3375d116101d45780635df39e96116101985780635df39e961461048e5780636ad08f05146104be5780636c12b868146104ee5780636e810b1a1461051e578063754e6e791461053a57610253565b806348e3375d146103c45780635657f79d146103f45780635952a8c6146104245780635c975abb146104545780635d915ca81461047257610253565b80632f2ff15d1161021b5780632f2ff15d1461032257806336568abe1461033e5780633bf4c0821461035a5780633f4ba83a1461038a5780634700d1171461039457610253565b806301ffc9a71461025857806306543c80146102885780631de39124146102b8578063248a9ca3146102c257806326a6e9eb146102f2575b600080fd5b610272600480360381019061026d9190613275565b610883565b60405161027f91906132bd565b60405180910390f35b6102a2600480360381019061029d919061330e565b6108fd565b6040516102af9190613370565b60405180910390f35b6102c0610942565b005b6102dc60048036038101906102d791906133c1565b6109a1565b6040516102e991906133fd565b60405180910390f35b61030c60048036038101906103079190613418565b6109c1565b60405161031991906132bd565b60405180910390f35b61033c600480360381019061033791906134dd565b610a9f565b005b610358600480360381019061035391906134dd565b610ac0565b005b610374600480360381019061036f919061351d565b610b43565b6040516103819190613370565b60405180910390f35b610392610b61565b005b6103ae60048036038101906103a9919061330e565b610bb2565b6040516103bb9190613370565b60405180910390f35b6103de60048036038101906103d9919061330e565b610bf7565b6040516103eb9190613370565b60405180910390f35b61040e6004803603810190610409919061330e565b610c2a565b60405161041b91906132bd565b60405180910390f35b61043e6004803603810190610439919061354a565b610c99565b60405161044b9190613370565b60405180910390f35b61045c610ccc565b60405161046991906132bd565b60405180910390f35b61048c6004803603810190610487919061330e565b610ce3565b005b6104a860048036038101906104a3919061354a565b610d50565b6040516104b591906132bd565b60405180910390f35b6104d860048036038101906104d3919061330e565b610e67565b6040516104e591906132bd565b60405180910390f35b6105086004803603810190610503919061351d565b610f45565b6040516105159190613370565b60405180910390f35b6105386004803603810190610533919061358a565b610f63565b005b610554600480360381019061054f919061351d565b611085565b6040516105619190613370565b60405180910390f35b610584600480360381019061057f919061354a565b61109e565b604051610598989796959493929190613647565b60405180910390f35b6105bb60048036038101906105b6919061351d565b611299565b005b6105c5611316565b005b6105e160048036038101906105dc9190613418565b611367565b005b6105fd60048036038101906105f891906134dd565b61164b565b60405161060a91906132bd565b60405180910390f35b61062d6004803603810190610628919061330e565b6116b6565b005b61063761172f565b60405161064491906133fd565b60405180910390f35b6106676004803603810190610662919061330e565b611736565b6040516106789594939291906136da565b60405180910390f35b610689611787565b60405161069691906132bd565b60405180910390f35b6106b960048036038101906106b4919061330e565b6117a6565b6040516106c69190613370565b60405180910390f35b6106e960048036038101906106e4919061372d565b6117e8565b005b6107056004803603810190610700919061330e565b611a05565b60405161071291906132bd565b60405180910390f35b6107356004803603810190610730919061354a565b611c29565b6040516107489796959493929190613780565b60405180910390f35b61076b6004803603810190610766919061354a565b611e49565b6040516107789190613370565b60405180910390f35b61079b6004803603810190610796919061351d565b6122e0565b6040516107a89190613370565b60405180910390f35b6107cb60048036038101906107c691906134dd565b6122f9565b005b6107e760048036038101906107e29190613418565b61231a565b6040516107f491906132bd565b60405180910390f35b6108176004803603810190610812919061330e565b612439565b6040516108249190613370565b60405180910390f35b61084760048036038101906108429190613939565b61247e565b005b61085161261b565b60405161085e9190613370565b60405180910390f35b610881600480360381019061087c9190613a1a565b612625565b005b60007f7965db0b000000000000000000000000000000000000000000000000000000007bffffffffffffffffffffffffffffffffffffffffffffffffffffffff1916827bffffffffffffffffffffffffffffffffffffffffffffffffffffffff191614806108f657506108f582612746565b5b9050919050565b60006101076000858152602001908152602001600020600084815260200190815260200160002060008381526020019081526020016000206003015490509392505050565b61094a611787565b610989576040517f08c379a000000000000000000000000000000000000000000000000000000000815260040161098090613acc565b60405180910390fd5b60fc6000815461099890613b1b565b91905081905550565b600060976000838152602001908152602001600020600101549050919050565b600060fe60009054906101000a900473ffffffffffffffffffffffffffffffffffffffff1673ffffffffffffffffffffffffffffffffffffffff16610a046127b0565b73ffffffffffffffffffffffffffffffffffffffff1614610a2457600080fd5b6000806000610a3388886127b8565b925092509250610a518888858886610a4b9190613b63565b8561287a565b8561010560008a815260200190815260200160002060008981526020019081526020016000206007016000828254610a899190613b63565b9250508190555060019350505050949350505050565b610aa8826109a1565b610ab181612954565b610abb8383612968565b505050565b610ac86127b0565b73ffffffffffffffffffffffffffffffffffffffff168173ffffffffffffffffffffffffffffffffffffffff1614610b35576040517f08c379a0000000000000000000000000000000000000000000000000000000008152600401610b2c90613c09565b60405180910390fd5b610b3f8282612a49565b5050565b60006101046000838152602001908152602001600020549050919050565b610b69611787565b610ba8576040517f08c379a0000000000000000000000000000000000000000000000000000000008152600401610b9f90613acc565b60405180910390fd5b610bb0612b2b565b565b60006101076000858152602001908152602001600020600084815260200190815260200160002060008381526020019081526020016000206002015490509392505050565b61010660205282600052604060002060205281600052604060002060205280600052604060002060009250925050505481565b600080836101056000878152602001908152602001600020600085815260200190815260200160002060070154610c619190613c29565b610105600087815260200190815260200160002060008581526020019081526020016000206004015410159050809150509392505050565b60006101056000848152602001908152602001600020600083815260200190815260200160002060060154905092915050565b6000603360009054906101000a900460ff16905090565b610ceb611787565b610d2a576040517f08c379a0000000000000000000000000000000000000000000000000000000008152600401610d2190613acc565b60405180910390fd5b600080610d3785856127b8565b9250925050610d49858585858561287a565b5050505050565b600080600080610d6086866127b8565b925092509250610d73868685858561287a565b600060ff60009054906101000a900473ffffffffffffffffffffffffffffffffffffffff1673ffffffffffffffffffffffffffffffffffffffff166323b872dd610dbb6127b0565b3060fd546040518463ffffffff1660e01b8152600401610ddd93929190613c6c565b6020604051808303816000875af1158015610dfc573d6000803e3d6000fd5b505050506040513d601f19601f82011682018060405250810190610e209190613ccf565b905080610e59576040517f10f9b95e00000000000000000000000000000000000000000000000000000000815260040160405180910390fd5b600194505050505092915050565b600061010260009054906101000a900473ffffffffffffffffffffffffffffffffffffffff1673ffffffffffffffffffffffffffffffffffffffff16610eab6127b0565b73ffffffffffffffffffffffffffffffffffffffff1614610ecb57600080fd5b6000806000610eda87876127b8565b925092509250610ef8878785858986610ef39190613c29565b61287a565b84610105600089815260200190815260200160002060008881526020019081526020016000206004016000828254610f309190613c29565b92505081905550600193505050509392505050565b60006101036000838152602001908152602001600020549050919050565b600060019054906101000a900460ff16610fb2576040517f08c379a0000000000000000000000000000000000000000000000000000000008152600401610fa990613d6e565b60405180910390fd5b600073ffffffffffffffffffffffffffffffffffffffff168173ffffffffffffffffffffffffffffffffffffffff1603611018576040517f5415139400000000000000000000000000000000000000000000000000000000815260040160405180910390fd5b611020612b8e565b611028612be7565b611030612c38565b61104161103b612c91565b82612968565b61105261104c612cb9565b82612968565b61106a61105d612cb9565b611065612c91565b612ce1565b611082611075612c91565b61107d612c91565b612ce1565b50565b6101046020528060005260406000206000915090505481565b610105602052816000526040600020602052806000526040600020600091509150508060000160009054906101000a900460ff16908060010180546110e290613dbd565b80601f016020809104026020016040519081016040528092919081815260200182805461110e90613dbd565b801561115b5780601f106111305761010080835404028352916020019161115b565b820191906000526020600020905b81548152906001019060200180831161113e57829003601f168201915b50505050509080600201805461117090613dbd565b80601f016020809104026020016040519081016040528092919081815260200182805461119c90613dbd565b80156111e95780601f106111be576101008083540402835291602001916111e9565b820191906000526020600020905b8154815290600101906020018083116111cc57829003601f168201915b5050505050908060030180546111fe90613dbd565b80601f016020809104026020016040519081016040528092919081815260200182805461122a90613dbd565b80156112775780601f1061124c57610100808354040283529160200191611277565b820191906000526020600020905b81548152906001019060200180831161125a57829003601f168201915b5050505050908060040154908060050154908060060154908060070154905088565b6112a1611787565b6112e0576040517f08c379a00000000000000000000000000000000000000000000000000000000081526004016112d790613acc565b60405180910390fd5b8060fd819055507f924ffeb66847f2055efa4c7fd2517bc3b2f48b27f11d1ed963a146980f484db860405160405180910390a150565b61131e611787565b61135d576040517f08c379a000000000000000000000000000000000000000000000000000000000815260040161135490613acc565b60405180910390fd5b611365612d3d565b565b61136f611787565b6113ae576040517f08c379a00000000000000000000000000000000000000000000000000000000081526004016113a590613acc565b60405180910390fd5b60008060006113bd87876127b8565b9250925092506101036000888152602001908152602001600020600081546113e490613b1b565b9190508190555060006101036000898152602001908152602001600020549050600061010760008a81526020019081526020016000206000868152602001908152602001600020600083815260200190815260200160002090504281600001819055508660646114549190613b63565b8160040181905550606487606461146b9190613b63565b846114769190613dee565b6114809190613e77565b81600201819055508381600301819055506000600190505b61010460008b8152602001908152602001600020548111611600578561010660008c8152602001908152602001600020600083815260200190815260200160002060006001866114e89190613b63565b815260200190815260200160002054148015611536575061010560008b8152602001908152602001600020600082815260200190815260200160002060000160009054906101000a900460ff165b156115ef578561010660008c8152602001908152602001600020600083815260200190815260200160002060008581526020019081526020016000208190555060648860646115859190613b63565b61010560008d81526020019081526020016000206000848152602001908152602001600020600401546115b89190613dee565b6115c29190613e77565b61010560008c81526020019081526020016000206000838152602001908152602001600020600401819055505b806115f990613b1b565b9050611498565b508561010560008b815260200190815260200160002060008a815260200190815260200160002060070160008282546116399190613b63565b92505081905550505050505050505050565b60006097600084815260200190815260200160002060000160008373ffffffffffffffffffffffffffffffffffffffff1673ffffffffffffffffffffffffffffffffffffffff16815260200190815260200160002060009054906101000a900460ff16905092915050565b6116be611787565b6116fd576040517f08c379a00000000000000000000000000000000000000000000000000000000081526004016116f490613acc565b60405180910390fd5b806101056000858152602001908152602001600020600084815260200190815260200160002060060181905550505050565b6000801b81565b61010760205282600052604060002060205281600052604060002060205280600052604060002060009250925050508060000154908060010154908060020154908060030154908060040154905085565b60006117a1611794612c91565b61179c6127b0565b61164b565b905090565b60006101066000858152602001908152602001600020600084815260200190815260200160002060008381526020019081526020016000205490509392505050565b60008060019054906101000a900460ff161590508080156118195750600160008054906101000a900460ff1660ff16105b80611846575061182830612da0565b1580156118455750600160008054906101000a900460ff1660ff16145b5b611885576040517f08c379a000000000000000000000000000000000000000000000000000000000815260040161187c90613f1a565b60405180910390fd5b60016000806101000a81548160ff021916908360ff16021790555080156118c2576001600060016101000a81548160ff0219169083151502179055505b678ac7230489e8000060fd819055508361010160006101000a81548173ffffffffffffffffffffffffffffffffffffffff021916908373ffffffffffffffffffffffffffffffffffffffff1602179055508260ff60006101000a81548173ffffffffffffffffffffffffffffffffffffffff021916908373ffffffffffffffffffffffffffffffffffffffff1602179055508161010060006101000a81548173ffffffffffffffffffffffffffffffffffffffff021916908373ffffffffffffffffffffffffffffffffffffffff1602179055506119a66119a16127b0565b610f63565b80156119ff5760008060016101000a81548160ff0219169083151502179055507f7f26b83ff96e1f2b6a682f133852f6798a09c465da95921460cefb384740249860016040516119f69190613f8c565b60405180910390a15b50505050565b600061010260009054906101000a900473ffffffffffffffffffffffffffffffffffffffff1673ffffffffffffffffffffffffffffffffffffffff16611a496127b0565b73ffffffffffffffffffffffffffffffffffffffff1614611a6957600080fd5b6000806000611a7887876127b8565b925092509250600061010160009054906101000a900473ffffffffffffffffffffffffffffffffffffffff1673ffffffffffffffffffffffffffffffffffffffff16636e02007d6040518163ffffffff1660e01b8152600401602060405180830381865afa158015611aee573d6000803e3d6000fd5b505050506040513d601f19601f82011682018060405250810190611b129190613fbc565b9050600061010160009054906101000a900473ffffffffffffffffffffffffffffffffffffffff1673ffffffffffffffffffffffffffffffffffffffff1663e1b874cb8884611b619190613b63565b846040518363ffffffff1660e01b8152600401611b7f929190613fe9565b6040805180830381865afa158015611b9b573d6000803e3d6000fd5b505050506040513d601f19601f82011682018060405250810190611bbf9190614012565b915050611bda898987878588611bd59190613b63565b61287a565b8061010560008b815260200190815260200160002060008a81526020019081526020016000206004016000828254611c129190613b63565b925050819055506001955050505050509392505050565b6000606080606060008060008061010560008b815260200190815260200160002060008a815260200190815260200160002090508060000160009054906101000a900460ff16816001018260020183600301846004015485600601548660070154858054611c9690613dbd565b80601f0160208091040260200160405190810160405280929190818152602001828054611cc290613dbd565b8015611d0f5780601f10611ce457610100808354040283529160200191611d0f565b820191906000526020600020905b815481529060010190602001808311611cf257829003601f168201915b50505050509550848054611d2290613dbd565b80601f0160208091040260200160405190810160405280929190818152602001828054611d4e90613dbd565b8015611d9b5780601f10611d7057610100808354040283529160200191611d9b565b820191906000526020600020905b815481529060010190602001808311611d7e57829003601f168201915b50505050509450838054611dae90613dbd565b80601f0160208091040260200160405190810160405280929190818152602001828054611dda90613dbd565b8015611e275780601f10611dfc57610100808354040283529160200191611e27565b820191906000526020600020905b815481529060010190602001808311611e0a57829003601f168201915b5050505050935097509750975097509750975097505092959891949750929550565b60008060009050600061010260009054906101000a900473ffffffffffffffffffffffffffffffffffffffff1673ffffffffffffffffffffffffffffffffffffffff16630b63385186866040518363ffffffff1660e01b8152600401611eb0929190613fe9565b600060405180830381865afa158015611ecd573d6000803e3d6000fd5b505050506040513d6000823e3d601f19601f82011682018060405250810190611ef6919061411a565b9050600081600081518110611f0e57611f0d614163565b5b60200260200101519050600080600061010660008a8152602001908152602001600020600089815260200190815260200160002060008581526020019081526020016000205490506000808590505b61010360008b81526020019081526020016000205481116122c15780878381518110611f8c57611f8b614163565b5b6020026020010151036121b157600061010260009054906101000a900473ffffffffffffffffffffffffffffffffffffffff1673ffffffffffffffffffffffffffffffffffffffff1663db418d618d8d856040518463ffffffff1660e01b8152600401611ffb93929190614192565b602060405180830381865afa158015612018573d6000803e3d6000fd5b505050506040513d601f19601f8201168201806040525081019061203c9190613fbc565b11156120f55761010260009054906101000a900473ffffffffffffffffffffffffffffffffffffffff1673ffffffffffffffffffffffffffffffffffffffff1663db418d618c8c846040518463ffffffff1660e01b81526004016120a293929190614192565b602060405180830381865afa1580156120bf573d6000803e3d6000fd5b505050506040513d601f19601f820116820180604052508101906120e39190613fbc565b886120ee9190613c29565b97506121a4565b61010260009054906101000a900473ffffffffffffffffffffffffffffffffffffffff1673ffffffffffffffffffffffffffffffffffffffff1663813e710f8c8c846040518463ffffffff1660e01b815260040161215593929190614192565b602060405180830381865afa158015612172573d6000803e3d6000fd5b505050506040513d601f19601f820116820180604052508101906121969190613fbc565b886121a19190613b63565b97505b816121ae90613b1b565b91505b61010660008c815260200190815260200160002060008b81526020019081526020016000206000828152602001908152602001600020549250600061010760008d8152602001908152602001600020600085815260200190815260200160002060008381526020019081526020016000209050606481600401548a6122369190613dee565b6122409190613e77565b98508060030154955060008160000154826001015461225f9190613b63565b905081600201546103e86122739190613dee565b6103e1888c846122839190613dee565b61228d9190613dee565b6122979190613dee565b6122a19190613e77565b866122ac9190613c29565b9550826122b890613b1b565b92505050611f5d565b5082876122ce9190613c29565b96508697505050505050505092915050565b6101036020528060005260406000206000915090505481565b612302826109a1565b61230b81612954565b6123158383612a49565b505050565b600060fe60009054906101000a900473ffffffffffffffffffffffffffffffffffffffff1673ffffffffffffffffffffffffffffffffffffffff1661235d6127b0565b73ffffffffffffffffffffffffffffffffffffffff161461237d57600080fd5b612388858486610c2a565b6123be576040517f383d9f8000000000000000000000000000000000000000000000000000000000815260040160405180910390fd5b60008060006123cd88886127b8565b9250925092506123eb88888588866123e59190613c29565b8561287a565b8561010560008a8152602001908152602001600020600089815260200190815260200160002060070160008282546124239190613c29565b9250508190555060019350505050949350505050565b60006101076000858152602001908152602001600020600084815260200190815260200160002060008381526020019081526020016000206004015490509392505050565b612486611787565b6124c5576040517f08c379a00000000000000000000000000000000000000000000000000000000081526004016124bc90613acc565b60405180910390fd5b6101046000878152602001908152602001600020600081546124e690613b1b565b9190508190555060006101046000888152602001908152602001600020549050600061010560008981526020019081526020016000206000838152602001908152602001600020905060018160000160006101000a81548160ff0219169083151502179055508681600101908161255d919061436b565b508581600201908161256f919061436b565b5084816003019081612581919061436b565b5060008160040181905550610104600089815260200190815260200160002054816005018190555060008160070181905550828160060181905550600061010360008a81526020019081526020016000205490508461010660008b81526020019081526020016000206000858152602001908152602001600020600083815260200190815260200160002081905550505050505050505050565b600060fc54905090565b61262d611787565b61266c576040517f08c379a000000000000000000000000000000000000000000000000000000000815260040161266390613acc565b60405180910390fd5b600060fb5411156126a9576040517ff2078a2900000000000000000000000000000000000000000000000000000000815260040160405180910390fd5b60fb600081546126b890613b1b565b919050819055508160fe60006101000a81548173ffffffffffffffffffffffffffffffffffffffff021916908373ffffffffffffffffffffffffffffffffffffffff1602179055508061010260006101000a81548173ffffffffffffffffffffffffffffffffffffffff021916908373ffffffffffffffffffffffffffffffffffffffff1602179055505050565b60007f01ffc9a7000000000000000000000000000000000000000000000000000000007bffffffffffffffffffffffffffffffffffffffffffffffffffffffff1916827bffffffffffffffffffffffffffffffffffffffffffffffffffffffff1916149050919050565b600033905090565b600080600080610103600087815260200190815260200160002054905060006101066000888152602001908152602001600020600087815260200190815260200160002060008381526020019081526020016000205490506000610107600089815260200190815260200160002060008381526020019081526020016000206000848152602001908152602001600020905042816001018190555060008160030154905060008260020154905083828297509750975050505050509250925092565b61010360008681526020019081526020016000206000815461289b90613b1b565b919050819055506000610103600087815260200190815260200160002054905060006101076000888152602001908152602001600020600086815260200190815260200160002060008381526020019081526020016000209050428160000181905550828160020181905550838160030181905550846101066000898152602001908152602001600020600088815260200190815260200160002060008481526020019081526020016000208190555050505050505050565b612965816129606127b0565b612dc3565b50565b612972828261164b565b612a455760016097600084815260200190815260200160002060000160008373ffffffffffffffffffffffffffffffffffffffff1673ffffffffffffffffffffffffffffffffffffffff16815260200190815260200160002060006101000a81548160ff0219169083151502179055506129ea6127b0565b73ffffffffffffffffffffffffffffffffffffffff168173ffffffffffffffffffffffffffffffffffffffff16837f2f8788117e7eff1d82e926ec794901d17c78024a50270940304540a733656f0d60405160405180910390a45b5050565b612a53828261164b565b15612b275760006097600084815260200190815260200160002060000160008373ffffffffffffffffffffffffffffffffffffffff1673ffffffffffffffffffffffffffffffffffffffff16815260200190815260200160002060006101000a81548160ff021916908315150217905550612acc6127b0565b73ffffffffffffffffffffffffffffffffffffffff168173ffffffffffffffffffffffffffffffffffffffff16837ff6391f5c32d9c69d2a47ea670b442974b53935d1edc7fd64eb21e047a839171b60405160405180910390a45b5050565b612b33612e48565b6000603360006101000a81548160ff0219169083151502179055507f5db9ee0a495bf2e6ff9c91a7834c1ba4fdd244a5e8aa4e537bd38aeae4b073aa612b776127b0565b604051612b84919061443d565b60405180910390a1565b600060019054906101000a900460ff16612bdd576040517f08c379a0000000000000000000000000000000000000000000000000000000008152600401612bd490613d6e565b60405180910390fd5b612be5612e91565b565b600060019054906101000a900460ff16612c36576040517f08c379a0000000000000000000000000000000000000000000000000000000008152600401612c2d90613d6e565b60405180910390fd5b565b600060019054906101000a900460ff16612c87576040517f08c379a0000000000000000000000000000000000000000000000000000000008152600401612c7e90613d6e565b60405180910390fd5b612c8f612efd565b565b60007fa49807205ce4d355092ef5a8a18f56e8913cf4a201fbe287825b095693c21775905090565b60007f65d7a28e3265b37a6474929f336521b332c1681b933f6cb9f3376673440d862a905090565b6000612cec836109a1565b90508160976000858152602001908152602001600020600101819055508181847fbd79b86ffe0ab8e8776151514217cd7cacd52c909f66475c3af44e129f0b00ff60405160405180910390a4505050565b612d45612f56565b6001603360006101000a81548160ff0219169083151502179055507f62e78cea01bee320cd4e420270b5ea74000d11b0c9f74754ebdbfc544b05a258612d896127b0565b604051612d96919061443d565b60405180910390a1565b6000808273ffffffffffffffffffffffffffffffffffffffff163b119050919050565b612dcd828261164b565b612e4457612dda81612fa0565b612de88360001c6020612fcd565b604051602001612df992919061452c565b6040516020818303038152906040526040517f08c379a0000000000000000000000000000000000000000000000000000000008152600401612e3b9190614566565b60405180910390fd5b5050565b612e50610ccc565b612e8f576040517f08c379a0000000000000000000000000000000000000000000000000000000008152600401612e86906145d4565b60405180910390fd5b565b600060019054906101000a900460ff16612ee0576040517f08c379a0000000000000000000000000000000000000000000000000000000008152600401612ed790613d6e565b60405180910390fd5b6000603360006101000a81548160ff021916908315150217905550565b600060019054906101000a900460ff16612f4c576040517f08c379a0000000000000000000000000000000000000000000000000000000008152600401612f4390613d6e565b60405180910390fd5b600160c981905550565b612f5e610ccc565b15612f9e576040517f08c379a0000000000000000000000000000000000000000000000000000000008152600401612f9590614640565b60405180910390fd5b565b6060612fc68273ffffffffffffffffffffffffffffffffffffffff16601460ff16612fcd565b9050919050565b606060006002836002612fe09190613dee565b612fea9190613c29565b67ffffffffffffffff8111156130035761300261380e565b5b6040519080825280601f01601f1916602001820160405280156130355781602001600182028036833780820191505090505b5090507f30000000000000000000000000000000000000000000000000000000000000008160008151811061306d5761306c614163565b5b60200101907effffffffffffffffffffffffffffffffffffffffffffffffffffffffffffff1916908160001a9053507f7800000000000000000000000000000000000000000000000000000000000000816001815181106130d1576130d0614163565b5b60200101907effffffffffffffffffffffffffffffffffffffffffffffffffffffffffffff1916908160001a905350600060018460026131119190613dee565b61311b9190613c29565b90505b60018111156131bb577f3031323334353637383961626364656600000000000000000000000000000000600f86166010811061315d5761315c614163565b5b1a60f81b82828151811061317457613173614163565b5b60200101907effffffffffffffffffffffffffffffffffffffffffffffffffffffffffffff1916908160001a905350600485901c9450806131b490614660565b905061311e565b50600084146131ff576040517f08c379a00000000000000000000000000000000000000000000000000000000081526004016131f6906146d5565b60405180910390fd5b8091505092915050565b6000604051905090565b600080fd5b600080fd5b60007fffffffff0000000000000000000000000000000000000000000000000000000082169050919050565b6132528161321d565b811461325d57600080fd5b50565b60008135905061326f81613249565b92915050565b60006020828403121561328b5761328a613213565b5b600061329984828501613260565b91505092915050565b60008115159050919050565b6132b7816132a2565b82525050565b60006020820190506132d260008301846132ae565b92915050565b6000819050919050565b6132eb816132d8565b81146132f657600080fd5b50565b600081359050613308816132e2565b92915050565b60008060006060848603121561332757613326613213565b5b6000613335868287016132f9565b9350506020613346868287016132f9565b9250506040613357868287016132f9565b9150509250925092565b61336a816132d8565b82525050565b60006020820190506133856000830184613361565b92915050565b6000819050919050565b61339e8161338b565b81146133a957600080fd5b50565b6000813590506133bb81613395565b92915050565b6000602082840312156133d7576133d6613213565b5b60006133e5848285016133ac565b91505092915050565b6133f78161338b565b82525050565b600060208201905061341260008301846133ee565b92915050565b6000806000806080858703121561343257613431613213565b5b6000613440878288016132f9565b9450506020613451878288016132f9565b9350506040613462878288016132f9565b9250506060613473878288016132f9565b91505092959194509250565b600073ffffffffffffffffffffffffffffffffffffffff82169050919050565b60006134aa8261347f565b9050919050565b6134ba8161349f565b81146134c557600080fd5b50565b6000813590506134d7816134b1565b92915050565b600080604083850312156134f4576134f3613213565b5b6000613502858286016133ac565b9250506020613513858286016134c8565b9150509250929050565b60006020828403121561353357613532613213565b5b6000613541848285016132f9565b91505092915050565b6000806040838503121561356157613560613213565b5b600061356f858286016132f9565b9250506020613580858286016132f9565b9150509250929050565b6000602082840312156135a05761359f613213565b5b60006135ae848285016134c8565b91505092915050565b600081519050919050565b600082825260208201905092915050565b60005b838110156135f15780820151818401526020810190506135d6565b60008484015250505050565b6000601f19601f8301169050919050565b6000613619826135b7565b61362381856135c2565b93506136338185602086016135d3565b61363c816135fd565b840191505092915050565b60006101008201905061365d600083018b6132ae565b818103602083015261366f818a61360e565b90508181036040830152613683818961360e565b90508181036060830152613697818861360e565b90506136a66080830187613361565b6136b360a0830186613361565b6136c060c0830185613361565b6136cd60e0830184613361565b9998505050505050505050565b600060a0820190506136ef6000830188613361565b6136fc6020830187613361565b6137096040830186613361565b6137166060830185613361565b6137236080830184613361565b9695505050505050565b60008060006060848603121561374657613745613213565b5b6000613754868287016134c8565b9350506020613765868287016134c8565b9250506040613776868287016134c8565b9150509250925092565b600060e082019050613795600083018a6132ae565b81810360208301526137a7818961360e565b905081810360408301526137bb818861360e565b905081810360608301526137cf818761360e565b90506137de6080830186613361565b6137eb60a0830185613361565b6137f860c0830184613361565b98975050505050505050565b600080fd5b600080fd5b7f4e487b7100000000000000000000000000000000000000000000000000000000600052604160045260246000fd5b613846826135fd565b810181811067ffffffffffffffff821117156138655761386461380e565b5b80604052505050565b6000613878613209565b9050613884828261383d565b919050565b600067ffffffffffffffff8211156138a4576138a361380e565b5b6138ad826135fd565b9050602081019050919050565b82818337600083830152505050565b60006138dc6138d784613889565b61386e565b9050828152602081018484840111156138f8576138f7613809565b5b6139038482856138ba565b509392505050565b600082601f8301126139205761391f613804565b5b81356139308482602086016138c9565b91505092915050565b60008060008060008060c0878903121561395657613955613213565b5b600061396489828a016132f9565b965050602087013567ffffffffffffffff81111561398557613984613218565b5b61399189828a0161390b565b955050604087013567ffffffffffffffff8111156139b2576139b1613218565b5b6139be89828a0161390b565b945050606087013567ffffffffffffffff8111156139df576139de613218565b5b6139eb89828a0161390b565b93505060806139fc89828a016132f9565b92505060a0613a0d89828a016132f9565b9150509295509295509295565b60008060408385031215613a3157613a30613213565b5b6000613a3f858286016134c8565b9250506020613a50858286016134c8565b9150509250929050565b7f4d75737420686176652061646d696e20726f6c6520746f20706572666f726d2060008201527f7468697320616374696f6e2e0000000000000000000000000000000000000000602082015250565b6000613ab6602c836135c2565b9150613ac182613a5a565b604082019050919050565b60006020820190508181036000830152613ae581613aa9565b9050919050565b7f4e487b7100000000000000000000000000000000000000000000000000000000600052601160045260246000fd5b6000613b26826132d8565b91507fffffffffffffffffffffffffffffffffffffffffffffffffffffffffffffffff8203613b5857613b57613aec565b5b600182019050919050565b6000613b6e826132d8565b9150613b79836132d8565b9250828203905081811115613b9157613b90613aec565b5b92915050565b7f416363657373436f6e74726f6c3a2063616e206f6e6c792072656e6f756e636560008201527f20726f6c657320666f722073656c660000000000000000000000000000000000602082015250565b6000613bf3602f836135c2565b9150613bfe82613b97565b604082019050919050565b60006020820190508181036000830152613c2281613be6565b9050919050565b6000613c34826132d8565b9150613c3f836132d8565b9250828201905080821115613c5757613c56613aec565b5b92915050565b613c668161349f565b82525050565b6000606082019050613c816000830186613c5d565b613c8e6020830185613c5d565b613c9b6040830184613361565b949350505050565b613cac816132a2565b8114613cb757600080fd5b50565b600081519050613cc981613ca3565b92915050565b600060208284031215613ce557613ce4613213565b5b6000613cf384828501613cba565b91505092915050565b7f496e697469616c697a61626c653a20636f6e7472616374206973206e6f74206960008201527f6e697469616c697a696e67000000000000000000000000000000000000000000602082015250565b6000613d58602b836135c2565b9150613d6382613cfc565b604082019050919050565b60006020820190508181036000830152613d8781613d4b565b9050919050565b7f4e487b7100000000000000000000000000000000000000000000000000000000600052602260045260246000fd5b60006002820490506001821680613dd557607f821691505b602082108103613de857613de7613d8e565b5b50919050565b6000613df9826132d8565b9150613e04836132d8565b9250817fffffffffffffffffffffffffffffffffffffffffffffffffffffffffffffffff0483118215151615613e3d57613e3c613aec565b5b828202905092915050565b7f4e487b7100000000000000000000000000000000000000000000000000000000600052601260045260246000fd5b6000613e82826132d8565b9150613e8d836132d8565b925082613e9d57613e9c613e48565b5b828204905092915050565b7f496e697469616c697a61626c653a20636f6e747261637420697320616c72656160008201527f647920696e697469616c697a6564000000000000000000000000000000000000602082015250565b6000613f04602e836135c2565b9150613f0f82613ea8565b604082019050919050565b60006020820190508181036000830152613f3381613ef7565b9050919050565b6000819050919050565b600060ff82169050919050565b6000819050919050565b6000613f76613f71613f6c84613f3a565b613f51565b613f44565b9050919050565b613f8681613f5b565b82525050565b6000602082019050613fa16000830184613f7d565b92915050565b600081519050613fb6816132e2565b92915050565b600060208284031215613fd257613fd1613213565b5b6000613fe084828501613fa7565b91505092915050565b6000604082019050613ffe6000830185613361565b61400b6020830184613361565b9392505050565b6000806040838503121561402957614028613213565b5b600061403785828601613fa7565b925050602061404885828601613fa7565b9150509250929050565b600067ffffffffffffffff82111561406d5761406c61380e565b5b602082029050602081019050919050565b600080fd5b600061409661409184614052565b61386e565b905080838252602082019050602084028301858111156140b9576140b861407e565b5b835b818110156140e257806140ce8882613fa7565b8452602084019350506020810190506140bb565b5050509392505050565b600082601f83011261410157614100613804565b5b8151614111848260208601614083565b91505092915050565b6000602082840312156141305761412f613213565b5b600082015167ffffffffffffffff81111561414e5761414d613218565b5b61415a848285016140ec565b91505092915050565b7f4e487b7100000000000000000000000000000000000000000000000000000000600052603260045260246000fd5b60006060820190506141a76000830186613361565b6141b46020830185613361565b6141c16040830184613361565b949350505050565b60008190508160005260206000209050919050565b60006020601f8301049050919050565b600082821b905092915050565b60006008830261422b7fffffffffffffffffffffffffffffffffffffffffffffffffffffffffffffffff826141ee565b61423586836141ee565b95508019841693508086168417925050509392505050565b600061426861426361425e846132d8565b613f51565b6132d8565b9050919050565b6000819050919050565b6142828361424d565b61429661428e8261426f565b8484546141fb565b825550505050565b600090565b6142ab61429e565b6142b6818484614279565b505050565b5b818110156142da576142cf6000826142a3565b6001810190506142bc565b5050565b601f82111561431f576142f0816141c9565b6142f9846141de565b81016020851015614308578190505b61431c614314856141de565b8301826142bb565b50505b505050565b600082821c905092915050565b600061434260001984600802614324565b1980831691505092915050565b600061435b8383614331565b9150826002028217905092915050565b614374826135b7565b67ffffffffffffffff81111561438d5761438c61380e565b5b6143978254613dbd565b6143a28282856142de565b600060209050601f8311600181146143d557600084156143c3578287015190505b6143cd858261434f565b865550614435565b601f1984166143e3866141c9565b60005b8281101561440b578489015182556001820191506020850194506020810190506143e6565b868310156144285784890151614424601f891682614331565b8355505b6001600288020188555050505b505050505050565b60006020820190506144526000830184613c5d565b92915050565b600081905092915050565b7f416363657373436f6e74726f6c3a206163636f756e7420000000000000000000600082015250565b6000614499601783614458565b91506144a482614463565b601782019050919050565b60006144ba826135b7565b6144c48185614458565b93506144d48185602086016135d3565b80840191505092915050565b7f206973206d697373696e6720726f6c6520000000000000000000000000000000600082015250565b6000614516601183614458565b9150614521826144e0565b601182019050919050565b60006145378261448c565b915061454382856144af565b915061454e82614509565b915061455a82846144af565b91508190509392505050565b60006020820190508181036000830152614580818461360e565b905092915050565b7f5061757361626c653a206e6f7420706175736564000000000000000000000000600082015250565b60006145be6014836135c2565b91506145c982614588565b602082019050919050565b600060208201905081810360008301526145ed816145b1565b9050919050565b7f5061757361626c653a2070617573656400000000000000000000000000000000600082015250565b600061462a6010836135c2565b9150614635826145f4565b602082019050919050565b600060208201905081810360008301526146598161461d565b9050919050565b600061466b826132d8565b91506000820361467e5761467d613aec565b5b600182039050919050565b7f537472696e67733a20686578206c656e67746820696e73756666696369656e74600082015250565b60006146bf6020836135c2565b91506146ca82614689565b602082019050919050565b600060208201905081810360008301526146ee816146b2565b905091905056fea26469706673582212209055eb4b30209b745bafae8adeab15442eefa6c02cf2557e08748dfd7a20085f64736f6c63430008100033",
  "linkReferences": {},
  "deployedLinkReferences": {}
}